{
	"data": {
		"bytecode": {
			"linkReferences": {},
			"object": "6080604052348015600f57600080fd5b50600a600360006101f462ffffff16815260200190815260200160002060006101000a81548162ffffff021916908362ffffff160217905550603c60036000610bb862ffffff16815260200190815260200160002060006101000a81548162ffffff021916908362ffffff160217905550617a918061008f6000396000f3fe608060405234801561001057600080fd5b506004361061004c5760003560e01c80636441c780146100515780638903573014610081578063a1671295146100a3578063bae0d918146100d3575b600080fd5b61006b600480360381019061006691906109dd565b610103565b6040516100789190610a19565b60405180910390f35b610089610125565b60405161009a959493929190610a75565b60405180910390f35b6100bd60048036038101906100b89190610af4565b6101c7565b6040516100ca9190610b47565b60405180910390f35b6100ed60048036038101906100e89190610af4565b610941565b6040516100fa9190610b47565b60405180910390f35b60036020528060005260406000206000915054906101000a900462ffffff1681565b60008060000160009054906101000a900473ffffffffffffffffffffffffffffffffffffffff16908060010160009054906101000a900473ffffffffffffffffffffffffffffffffffffffff16908060020160009054906101000a900473ffffffffffffffffffffffffffffffffffffffff16908060020160149054906101000a900462ffffff16908060020160179054906101000a900462ffffff16905085565b60008273ffffffffffffffffffffffffffffffffffffffff168473ffffffffffffffffffffffffffffffffffffffff160361022e576040517ffbfc7a9100000000000000000000000000000000000000000000000000000000815260040160405180910390fd5b6000600360008462ffffff1662ffffff16815260200190815260200160002060009054906101000a900462ffffff1662ffffff1603610299576040517f271d3eec00000000000000000000000000000000000000000000000000000000815260040160405180910390fd5b8273ffffffffffffffffffffffffffffffffffffffff168473ffffffffffffffffffffffffffffffffffffffff16106102d35782846102d6565b83835b8094508195505050600073ffffffffffffffffffffffffffffffffffffffff168473ffffffffffffffffffffffffffffffffffffffff1603610344576040517f8579befe00000000000000000000000000000000000000000000000000000000815260040160405180910390fd5b600073ffffffffffffffffffffffffffffffffffffffff16600460008673ffffffffffffffffffffffffffffffffffffffff1673ffffffffffffffffffffffffffffffffffffffff16815260200190815260200160002060008573ffffffffffffffffffffffffffffffffffffffff1673ffffffffffffffffffffffffffffffffffffffff16815260200190815260200160002060008462ffffff1662ffffff16815260200190815260200160002060009054906101000a900473ffffffffffffffffffffffffffffffffffffffff1673ffffffffffffffffffffffffffffffffffffffff1614610461576040517f0311932200000000000000000000000000000000000000000000000000000000815260040160405180910390fd5b6040518060a001604052803073ffffffffffffffffffffffffffffffffffffffff1681526020018573ffffffffffffffffffffffffffffffffffffffff1681526020018473ffffffffffffffffffffffffffffffffffffffff168152602001600360008562ffffff1662ffffff16815260200190815260200160002060009054906101000a900462ffffff1662ffffff1681526020018362ffffff168152506000808201518160000160006101000a81548173ffffffffffffffffffffffffffffffffffffffff021916908373ffffffffffffffffffffffffffffffffffffffff16021790555060208201518160010160006101000a81548173ffffffffffffffffffffffffffffffffffffffff021916908373ffffffffffffffffffffffffffffffffffffffff16021790555060408201518160020160006101000a81548173ffffffffffffffffffffffffffffffffffffffff021916908373ffffffffffffffffffffffffffffffffffffffff16021790555060608201518160020160146101000a81548162ffffff021916908362ffffff16021790555060808201518160020160176101000a81548162ffffff021916908362ffffff16021790555090505083838360405160200161063893929190610be0565b6040516020818303038152906040528051906020012060405161065a90610990565b8190604051809103906000f590508015801561067a573d6000803e3d6000fd5b5090506000806000820160006101000a81549073ffffffffffffffffffffffffffffffffffffffff02191690556001820160006101000a81549073ffffffffffffffffffffffffffffffffffffffff02191690556002820160006101000a81549073ffffffffffffffffffffffffffffffffffffffff02191690556002820160146101000a81549062ffffff02191690556002820160176101000a81549062ffffff0219169055505080600460008673ffffffffffffffffffffffffffffffffffffffff1673ffffffffffffffffffffffffffffffffffffffff16815260200190815260200160002060008573ffffffffffffffffffffffffffffffffffffffff1673ffffffffffffffffffffffffffffffffffffffff16815260200190815260200160002060008462ffffff1662ffffff16815260200190815260200160002060006101000a81548173ffffffffffffffffffffffffffffffffffffffff021916908373ffffffffffffffffffffffffffffffffffffffff16021790555080600460008573ffffffffffffffffffffffffffffffffffffffff1673ffffffffffffffffffffffffffffffffffffffff16815260200190815260200160002060008673ffffffffffffffffffffffffffffffffffffffff1673ffffffffffffffffffffffffffffffffffffffff16815260200190815260200160002060008462ffffff1662ffffff16815260200190815260200160002060006101000a81548173ffffffffffffffffffffffffffffffffffffffff021916908373ffffffffffffffffffffffffffffffffffffffff1602179055508162ffffff168373ffffffffffffffffffffffffffffffffffffffff168573ffffffffffffffffffffffffffffffffffffffff167f97d23878912fda7f82bd5a8502f2c6e9086f5a4728f9054627788b3162f86ced846040516109329190610b47565b60405180910390a49392505050565b6004602052826000526040600020602052816000526040600020602052806000526040600020600092509250509054906101000a900473ffffffffffffffffffffffffffffffffffffffff1681565b616e3e80610c1e83390190565b600080fd5b600062ffffff82169050919050565b6109ba816109a2565b81146109c557600080fd5b50565b6000813590506109d7816109b1565b92915050565b6000602082840312156109f3576109f261099d565b5b6000610a01848285016109c8565b91505092915050565b610a13816109a2565b82525050565b6000602082019050610a2e6000830184610a0a565b92915050565b600073ffffffffffffffffffffffffffffffffffffffff82169050919050565b6000610a5f82610a34565b9050919050565b610a6f81610a54565b82525050565b600060a082019050610a8a6000830188610a66565b610a976020830187610a66565b610aa46040830186610a66565b610ab16060830185610a0a565b610abe6080830184610a0a565b9695505050505050565b610ad181610a54565b8114610adc57600080fd5b50565b600081359050610aee81610ac8565b92915050565b600080600060608486031215610b0d57610b0c61099d565b5b6000610b1b86828701610adf565b9350506020610b2c86828701610adf565b9250506040610b3d868287016109c8565b9150509250925092565b6000602082019050610b5c6000830184610a66565b92915050565b60008160601b9050919050565b6000610b7a82610b62565b9050919050565b6000610b8c82610b6f565b9050919050565b610ba4610b9f82610a54565b610b81565b82525050565b60008160e81b9050919050565b6000610bc282610baa565b9050919050565b610bda610bd5826109a2565b610bb7565b82525050565b6000610bec8286610b93565b601482019150610bfc8285610b93565b601482019150610c0c8284610bc9565b60038201915081905094935050505056fe61012060405234801561001157600080fd5b503373ffffffffffffffffffffffffffffffffffffffff1663890357306040518163ffffffff1660e01b815260040160a0604051808303816000875af115801561005f573d6000803e3d6000fd5b505050506040513d601f19601f8201168201806040525081019061008391906101e7565b8062ffffff166101009062ffffff168152508162ffffff1660e09062ffffff168152508273ffffffffffffffffffffffffffffffffffffffff1660c09073ffffffffffffffffffffffffffffffffffffffff168152508373ffffffffffffffffffffffffffffffffffffffff1660a09073ffffffffffffffffffffffffffffffffffffffff168152508473ffffffffffffffffffffffffffffffffffffffff1660809073ffffffffffffffffffffffffffffffffffffffff168152505050505050610262565b600080fd5b600073ffffffffffffffffffffffffffffffffffffffff82169050919050565b60006101798261014e565b9050919050565b6101898161016e565b811461019457600080fd5b50565b6000815190506101a681610180565b92915050565b600062ffffff82169050919050565b6101c4816101ac565b81146101cf57600080fd5b50565b6000815190506101e1816101bb565b92915050565b600080600080600060a0868803121561020357610202610149565b5b600061021188828901610197565b955050602061022288828901610197565b945050604061023388828901610197565b9350506060610244888289016101d2565b9250506080610255888289016101d2565b9150509295509295909350565b60805160a05160c05160e05161010051616b1a6103246000396000818161092d0152818161096401528181611a3a015261230e015260008181611589015281816119130152818161278301526127c4015260008181610a3501528181610b8301528181610d7e01528181611153015281816115ad01528181611f6e0152612a220152600081816104620152818161099701528181610ada01528181610ca001528181611033015281816120e50152612981015260006115650152616b1a6000f3fe608060405234801561001057600080fd5b50600436106101375760003560e01c80635339c296116100b8578063d21220a71161007c578063d21220a714610385578063dd5a12d8146103a3578063ddca3f43146103d4578063f3058399146103f2578063f30dba9314610410578063f637731d1461044457610137565b80635339c296146102b8578063883bdbfd146102e8578063a34123a714610318578063c45a015514610349578063d0c93a7c1461036757610137565b80633c8a7d8d116100ff5780633c8a7d8d146101e857806346141319146102195780634a182392146102375780634f1eb3d814610253578063514ea4bf1461028457610137565b80630dfe16811461013c5780631a6865021461015a578063252c09d71461017857806332148f67146101aa5780633850c7bd146101c6575b600080fd5b610144610460565b6040516101519190615192565b60405180910390f35b610162610484565b60405161016f91906151d8565b60405180910390f35b610192600480360381019061018d9190615233565b6104a6565b6040516101a1939291906152b6565b60405180910390f35b6101c460048036038101906101bf9190615327565b6104fe565b005b6101ce61059e565b6040516101df95949392919061538e565b60405180910390f35b61020260048036038101906101fd91906154ca565b610619565b604051610210929190615573565b60405180910390f35b61022161091f565b60405161022e919061559c565b60405180910390f35b610251600480360381019061024c91906155b7565b610925565b005b61026d6004803603810190610268919061562b565b610ea8565b60405161027b9291906156a6565b60405180910390f35b61029e60048036038101906102999190615705565b611256565b6040516102af959493929190615732565b60405180910390f35b6102d260048036038101906102cd91906157be565b6112e0565b6040516102df919061559c565b60405180910390f35b61030260048036038101906102fd9190615841565b6112f8565b60405161030f919061594c565b60405180910390f35b610332600480360381019061032d919061596e565b61139e565b604051610340929190615573565b60405180910390f35b610351611563565b60405161035e9190615192565b60405180910390f35b61036f611587565b60405161037c91906159df565b60405180910390f35b61038d6115ab565b60405161039a9190615192565b60405180910390f35b6103bd60048036038101906103b89190615a52565b6115cf565b6040516103cb929190615b05565b60405180910390f35b6103dc61230c565b6040516103e991906159df565b60405180910390f35b6103fa612330565b604051610407919061559c565b60405180910390f35b61042a60048036038101906104259190615b2e565b612336565b60405161043b959493929190615b77565b60405180910390f35b61045e60048036038101906104599190615bca565b6123a2565b005b7f000000000000000000000000000000000000000000000000000000000000000081565b600360009054906101000a90046fffffffffffffffffffffffffffffffff1681565b60078161ffff81106104b757600080fd5b016000915090508060000160009054906101000a900463ffffffff16908060000160049054906101000a900460060b9080600001600b9054906101000a900460ff16905083565b60006002600001601b9054906101000a900461ffff169050600061052e828460076125769092919063ffffffff16565b90508161ffff168161ffff161461059957806002600001601b6101000a81548161ffff021916908361ffff1602179055507fac49e518f90a358f652e4400164f05a5d8f7e35e7747279bc3a93dbf584e125a8282604051610590929190615bf7565b60405180910390a15b505050565b60028060000160009054906101000a900473ffffffffffffffffffffffffffffffffffffffff16908060000160149054906101000a900460020b908060000160179054906101000a900461ffff16908060000160199054906101000a900461ffff169080600001601b9054906101000a900461ffff16905085565b6000808560020b8760020b12158061065657507ffffffffffffffffffffffffffffffffffffffffffffffffffffffffffff2761860020b8760020b125b8061068f57507ffffffffffffffffffffffffffffffffffffffffffffffffffffffffffff2761861068690615c4f565b60020b8660020b135b156106c6576040517f064847d000000000000000000000000000000000000000000000000000000000815260040160405180910390fd5b6000856fffffffffffffffffffffffffffffffff1603610712576040517f1007454800000000000000000000000000000000000000000000000000000000815260040160405180910390fd5b60008061075d60405180608001604052808c73ffffffffffffffffffffffffffffffffffffffff1681526020018b60020b81526020018a60020b815260200189600f0b8152506125fa565b9250925050819350809250600080600086111561077f5761077c61297d565b91505b600085111561079357610790612a1e565b90505b3373ffffffffffffffffffffffffffffffffffffffff1663d348799787878b8b6040518563ffffffff1660e01b81526004016107d29493929190615cf5565b600060405180830381600087803b1580156107ec57600080fd5b505af1158015610800573d6000803e3d6000fd5b50505050600086118015610825575061081761297d565b86836108239190615d35565b115b1561085c576040517f098fb56100000000000000000000000000000000000000000000000000000000815260040160405180910390fd5b60008511801561087d575061086f612a1e565b858261087b9190615d35565b115b156108b4576040517f098fb56100000000000000000000000000000000000000000000000000000000815260040160405180910390fd5b8960020b8b60020b8d73ffffffffffffffffffffffffffffffffffffffff167f7a53080ba414158be7ec69b987b5fb7d07dee101fe85488f0853ae16239d0bde338d8b8b6040516109089493929190615d69565b60405180910390a450505050965096945050505050565b60015481565b600061095a857f000000000000000000000000000000000000000000000000000000000000000062ffffff16620f4240612abf565b90506000610991857f000000000000000000000000000000000000000000000000000000000000000062ffffff16620f4240612abf565b905060007f000000000000000000000000000000000000000000000000000000000000000073ffffffffffffffffffffffffffffffffffffffff166370a08231306040518263ffffffff1660e01b81526004016109ee9190615192565b602060405180830381865afa158015610a0b573d6000803e3d6000fd5b505050506040513d601f19601f82011682018060405250810190610a2f9190615dc3565b905060007f000000000000000000000000000000000000000000000000000000000000000073ffffffffffffffffffffffffffffffffffffffff166370a08231306040518263ffffffff1660e01b8152600401610a8c9190615192565b602060405180830381865afa158015610aa9573d6000803e3d6000fd5b505050506040513d601f19601f82011682018060405250810190610acd9190615dc3565b90506000881115610b78577f000000000000000000000000000000000000000000000000000000000000000073ffffffffffffffffffffffffffffffffffffffff1663a9059cbb338a6040518363ffffffff1660e01b8152600401610b33929190615df0565b6020604051808303816000875af1158015610b52573d6000803e3d6000fd5b505050506040513d601f19601f82011682018060405250810190610b769190615e2e565b505b6000871115610c21577f000000000000000000000000000000000000000000000000000000000000000073ffffffffffffffffffffffffffffffffffffffff1663a9059cbb33896040518363ffffffff1660e01b8152600401610bdc929190615df0565b6020604051808303816000875af1158015610bfb573d6000803e3d6000fd5b505050506040513d601f19601f82011682018060405250810190610c1f9190615e2e565b505b3373ffffffffffffffffffffffffffffffffffffffff1663e9cbafb0858589896040518563ffffffff1660e01b8152600401610c609493929190615cf5565b600060405180830381600087803b158015610c7a57600080fd5b505af1158015610c8e573d6000803e3d6000fd5b505050508382610c9e9190615d35565b7f000000000000000000000000000000000000000000000000000000000000000073ffffffffffffffffffffffffffffffffffffffff166370a08231306040518263ffffffff1660e01b8152600401610cf79190615192565b602060405180830381865afa158015610d14573d6000803e3d6000fd5b505050506040513d601f19601f82011682018060405250810190610d389190615dc3565b1015610d70576040517f7bc35e0500000000000000000000000000000000000000000000000000000000815260040160405180910390fd5b8281610d7c9190615d35565b7f000000000000000000000000000000000000000000000000000000000000000073ffffffffffffffffffffffffffffffffffffffff166370a08231306040518263ffffffff1660e01b8152600401610dd59190615192565b602060405180830381865afa158015610df2573d6000803e3d6000fd5b505050506040513d601f19601f82011682018060405250810190610e169190615dc3565b1015610e4e576040517f7bc35e0500000000000000000000000000000000000000000000000000000000815260040160405180910390fd5b3373ffffffffffffffffffffffffffffffffffffffff167f1c1db1f1d6a01e51fec24bb54087b65fe5430f692280e70d92f718eb72ae76b78989604051610e96929190615573565b60405180910390a25050505050505050565b6000806000610ec53388886006612b2a909392919063ffffffff16565b90508060030160009054906101000a90046fffffffffffffffffffffffffffffffff166fffffffffffffffffffffffffffffffff16856fffffffffffffffffffffffffffffffff1611610f185784610f3a565b8060030160009054906101000a90046fffffffffffffffffffffffffffffffff165b92508060030160109054906101000a90046fffffffffffffffffffffffffffffffff166fffffffffffffffffffffffffffffffff16846fffffffffffffffffffffffffffffffff1611610f8d5783610faf565b8060030160109054906101000a90046fffffffffffffffffffffffffffffffff165b91506000836fffffffffffffffffffffffffffffffff1611156110d157828160030160008282829054906101000a90046fffffffffffffffffffffffffffffffff16610ffb9190615e5b565b92506101000a8154816fffffffffffffffffffffffffffffffff02191690836fffffffffffffffffffffffffffffffff1602179055507f000000000000000000000000000000000000000000000000000000000000000073ffffffffffffffffffffffffffffffffffffffff1663a9059cbb89856040518363ffffffff1660e01b815260040161108c929190615eda565b6020604051808303816000875af11580156110ab573d6000803e3d6000fd5b505050506040513d601f19601f820116820180604052508101906110cf9190615e2e565b505b6000826fffffffffffffffffffffffffffffffff1611156111f157818160030160108282829054906101000a90046fffffffffffffffffffffffffffffffff1661111b9190615e5b565b92506101000a8154816fffffffffffffffffffffffffffffffff02191690836fffffffffffffffffffffffffffffffff1602179055507f000000000000000000000000000000000000000000000000000000000000000073ffffffffffffffffffffffffffffffffffffffff1663a9059cbb89846040518363ffffffff1660e01b81526004016111ac929190615eda565b6020604051808303816000875af11580156111cb573d6000803e3d6000fd5b505050506040513d601f19601f820116820180604052508101906111ef9190615e2e565b505b8560020b8760020b3373ffffffffffffffffffffffffffffffffffffffff167fa89c1c8a741251492622c95237828c75d1dbb03ea956f09e3792ff2a14f4fe628b878760405161124393929190615f03565b60405180910390a4509550959350505050565b60066020528060005260406000206000915090508060000160009054906101000a90046fffffffffffffffffffffffffffffffff16908060010154908060020154908060030160009054906101000a90046fffffffffffffffffffffffffffffffff16908060030160109054906101000a90046fffffffffffffffffffffffffffffffff16905085565b60056020528060005260406000206000915090505481565b6060611396611305612b72565b848480806020026020016040519081016040528093929190818152602001838360200280828437600081840152601f19601f82011690508083019250505050505050600260000160149054906101000a900460020b600260000160179054906101000a900461ffff16600260000160199054906101000a900461ffff166007612b7a9095949392919063ffffffff16565b905092915050565b60008060008060006113f760405180608001604052803373ffffffffffffffffffffffffffffffffffffffff1681526020018a60020b81526020018960020b8152602001886113ec90615f3a565b600f0b8152506125fa565b9250925092508161140790615f82565b94508061141390615f82565b935060008511806114245750600084115b156114fe57848360030160009054906101000a90046fffffffffffffffffffffffffffffffff166114559190615fca565b848460030160109054906101000a90046fffffffffffffffffffffffffffffffff166114819190615fca565b8460030160008660030160108491906101000a8154816fffffffffffffffffffffffffffffffff02191690836fffffffffffffffffffffffffffffffff1602179055508391906101000a8154816fffffffffffffffffffffffffffffffff02191690836fffffffffffffffffffffffffffffffff16021790555050505b8660020b8860020b3373ffffffffffffffffffffffffffffffffffffffff167f0c396cd989a39f4459b5fa1aed6a9a8dcdbc45908acfd67e028cd568da98982c8989896040516115509392919061600e565b60405180910390a4505050935093915050565b7f000000000000000000000000000000000000000000000000000000000000000081565b7f000000000000000000000000000000000000000000000000000000000000000081565b7f000000000000000000000000000000000000000000000000000000000000000081565b600080600060026040518060a00160405290816000820160009054906101000a900473ffffffffffffffffffffffffffffffffffffffff1673ffffffffffffffffffffffffffffffffffffffff1673ffffffffffffffffffffffffffffffffffffffff1681526020016000820160149054906101000a900460020b60020b60020b81526020016000820160179054906101000a900461ffff1661ffff1661ffff1681526020016000820160199054906101000a900461ffff1661ffff1661ffff16815260200160008201601b9054906101000a900461ffff1661ffff1661ffff168152505090506000600360009054906101000a90046fffffffffffffffffffffffffffffffff1690508861176057816000015173ffffffffffffffffffffffffffffffffffffffff168773ffffffffffffffffffffffffffffffffffffffff16108061175b575073fffd8963efd1fc6a506488495d951d5263988d2673ffffffffffffffffffffffffffffffffffffffff168773ffffffffffffffffffffffffffffffffffffffff16115b6117cf565b816000015173ffffffffffffffffffffffffffffffffffffffff168773ffffffffffffffffffffffffffffffffffffffff1611806117ce57506401000276a373ffffffffffffffffffffffffffffffffffffffff168773ffffffffffffffffffffffffffffffffffffffff16105b5b15611806576040517fb53bbacc00000000000000000000000000000000000000000000000000000000815260040160405180910390fd5b60006040518060c001604052808a815260200160008152602001846000015173ffffffffffffffffffffffffffffffffffffffff168152602001846020015160020b81526020018b61185a5760015461185e565b6000545b8152602001836fffffffffffffffffffffffffffffffff1681525090505b600081600001511180156118c057508773ffffffffffffffffffffffffffffffffffffffff16816040015173ffffffffffffffffffffffffffffffffffffffff1614155b15611d28576118cd6150b7565b8160400151816000019073ffffffffffffffffffffffffffffffffffffffff16908173ffffffffffffffffffffffffffffffffffffffff168152505061194582606001517f00000000000000000000000000000000000000000000000000000000000000008d6005612c3b909392919063ffffffff16565b826020018360400182151515158152508260020b60020b815250505061196e8160200151612e29565b816060019073ffffffffffffffffffffffffffffffffffffffff16908173ffffffffffffffffffffffffffffffffffffffff1681525050611a5e82604001518c6119ea578a73ffffffffffffffffffffffffffffffffffffffff16836060015173ffffffffffffffffffffffffffffffffffffffff1611611a1e565b8a73ffffffffffffffffffffffffffffffffffffffff16836060015173ffffffffffffffffffffffffffffffffffffffff16105b611a2c578260600151611a2e565b8a5b8460a0015185600001517f00000000000000000000000000000000000000000000000000000000000000006132f6565b85604001856080018660a0018760c0018481525084815250848152508473ffffffffffffffffffffffffffffffffffffffff1673ffffffffffffffffffffffffffffffffffffffff16815250505050508060c001518160800151611ac29190615d35565b82600001818151611ad39190616045565b915081815250508060a0015182602001818151611af09190615d35565b9150818152505060008260a001516fffffffffffffffffffffffffffffffff161115611b6557611b4c8160c001517001000000000000000000000000000000008460a001516fffffffffffffffffffffffffffffffff1661347a565b82608001818151611b5d9190615d35565b915081815250505b806060015173ffffffffffffffffffffffffffffffffffffffff16826040015173ffffffffffffffffffffffffffffffffffffffff1603611cc757806040015115611c90576000611bec82602001518d611bc157600054611bc7565b84608001515b8e611bd6578560800151611bda565b6001545b600461358f909392919063ffffffff16565b90508b15611c015780611bfe90615f3a565b90505b611c0f8360a00151826135f9565b8360a001906fffffffffffffffffffffffffffffffff1690816fffffffffffffffffffffffffffffffff168152505060008360a001516fffffffffffffffffffffffffffffffff1603611c8e576040517f4323a55500000000000000000000000000000000000000000000000000000000815260040160405180910390fd5b505b8a611c9f578060200151611cb1565b60018160200151611cb09190616079565b5b826060019060020b908160020b81525050611d22565b806000015173ffffffffffffffffffffffffffffffffffffffff16826040015173ffffffffffffffffffffffffffffffffffffffff1614611d2157611d0f8260400151613637565b826060019060020b908160020b815250505b5b5061187c565b826020015160020b816060015160020b14611e3f57600080611d738560400151611d50612b72565b8760200151886060015189608001516007613a369095949392919063ffffffff16565b91509150826040015183606001518383600260000160006002600001601460026000016017600260000160198891906101000a81548161ffff021916908361ffff1602179055508791906101000a81548161ffff021916908361ffff1602179055508691906101000a81548162ffffff021916908360020b62ffffff1602179055508591906101000a81548173ffffffffffffffffffffffffffffffffffffffff021916908373ffffffffffffffffffffffffffffffffffffffff160217905550505050505050611e88565b8060400151600260000160006101000a81548173ffffffffffffffffffffffffffffffffffffffff021916908373ffffffffffffffffffffffffffffffffffffffff1602179055505b8060a001516fffffffffffffffffffffffffffffffff16826fffffffffffffffffffffffffffffffff1614611ef5578060a00151600360006101000a8154816fffffffffffffffffffffffffffffffff02191690836fffffffffffffffffffffffffffffffff1602179055505b8915611f0b578060800151600081905550611f17565b80608001516001819055505b89611f3f578060200151611f2a90615f82565b81600001518a611f3a9190616045565b611f5e565b806000015189611f4f9190616045565b8160200151611f5d90615f82565b5b809550819650505089156120e3577f000000000000000000000000000000000000000000000000000000000000000073ffffffffffffffffffffffffffffffffffffffff1663a9059cbb8c86611fb390615f82565b6040518363ffffffff1660e01b8152600401611fd0929190615df0565b6020604051808303816000875af1158015611fef573d6000803e3d6000fd5b505050506040513d601f19601f820116820180604052508101906120139190615e2e565b50600061201e61297d565b90503373ffffffffffffffffffffffffffffffffffffffff1663fa461e3387878b8b6040518563ffffffff1660e01b815260040161205f94939291906160d4565b600060405180830381600087803b15801561207957600080fd5b505af115801561208d573d6000803e3d6000fd5b5050505061209961297d565b86826120a59190615d35565b11156120dd576040517f098fb56100000000000000000000000000000000000000000000000000000000815260040160405180910390fd5b50612256565b7f000000000000000000000000000000000000000000000000000000000000000073ffffffffffffffffffffffffffffffffffffffff1663a9059cbb8c8761212a90615f82565b6040518363ffffffff1660e01b8152600401612147929190615df0565b6020604051808303816000875af1158015612166573d6000803e3d6000fd5b505050506040513d601f19601f8201168201806040525081019061218a9190615e2e565b506000612195612a1e565b90503373ffffffffffffffffffffffffffffffffffffffff1663fa461e3387878b8b6040518563ffffffff1660e01b81526004016121d694939291906160d4565b600060405180830381600087803b1580156121f057600080fd5b505af1158015612204573d6000803e3d6000fd5b50505050612210612a1e565b858261221c9190615d35565b1115612254576040517f098fb56100000000000000000000000000000000000000000000000000000000815260040160405180910390fd5b505b8a73ffffffffffffffffffffffffffffffffffffffff163373ffffffffffffffffffffffffffffffffffffffff167fc42079f94a6350d7e6235f29174924f928cc2ac818eb64fed8004e115fbcca678787600260000160009054906101000a900473ffffffffffffffffffffffffffffffffffffffff168660a00151600260000160149054906101000a900460020b6040516122f6959493929190616114565b60405180910390a3505050965096945050505050565b7f000000000000000000000000000000000000000000000000000000000000000081565b60005481565b60046020528060005260406000206000915090508060000160009054906101000a900460ff16908060000160019054906101000a90046fffffffffffffffffffffffffffffffff16908060010160009054906101000a9004600f0b908060020154908060030154905085565b6000600260000160009054906101000a900473ffffffffffffffffffffffffffffffffffffffff1673ffffffffffffffffffffffffffffffffffffffff1614612417576040517f0dc149f000000000000000000000000000000000000000000000000000000000815260040160405180910390fd5b600061242282613637565b9050600080612442612432612b72565b6007613be290919063ffffffff16565b915091506040518060a001604052808573ffffffffffffffffffffffffffffffffffffffff1681526020018460020b8152602001600061ffff1681526020018361ffff1681526020018261ffff16815250600260008201518160000160006101000a81548173ffffffffffffffffffffffffffffffffffffffff021916908373ffffffffffffffffffffffffffffffffffffffff16021790555060208201518160000160146101000a81548162ffffff021916908360020b62ffffff16021790555060408201518160000160176101000a81548161ffff021916908361ffff16021790555060608201518160000160196101000a81548161ffff021916908361ffff160217905550608082015181600001601b6101000a81548161ffff021916908361ffff16021790555090505050505050565b60008261ffff168261ffff161161258f578290506125f3565b60008390505b8261ffff168161ffff1610156125ee576001858261ffff1661ffff81106125bf576125be616167565b5b0160000160006101000a81548163ffffffff021916908363ffffffff1602179055508080600101915050612595565b508190505b9392505050565b60008060008060026040518060a00160405290816000820160009054906101000a900473ffffffffffffffffffffffffffffffffffffffff1673ffffffffffffffffffffffffffffffffffffffff1673ffffffffffffffffffffffffffffffffffffffff1681526020016000820160149054906101000a900460020b60020b60020b81526020016000820160179054906101000a900461ffff1661ffff1661ffff1681526020016000820160199054906101000a900461ffff1661ffff1661ffff16815260200160008201601b9054906101000a900461ffff1661ffff1661ffff16815250509050600080549050600060015490506127138760000151886020015189604001516006612b2a909392919063ffffffff16565b95506000612742886020015185602001518a60600151868660006004613cac909695949392919063ffffffff16565b90506000612771896040015186602001518b60600151878760016004613cac909695949392919063ffffffff16565b905081156127b4576127b389602001517f00000000000000000000000000000000000000000000000000000000000000006005613e5f9092919063ffffffff16565b5b80156127f5576127f489604001517f00000000000000000000000000000000000000000000000000000000000000006005613e5f9092919063ffffffff16565b5b6000806128208b602001518c60400151896020015189896004613ecf9095949392919063ffffffff16565b9150915061283f8b6060015183838d613fde909392919063ffffffff16565b8a6020015160020b876020015160020b12156128835761287c6128658c60200151612e29565b6128728d60400151612e29565b8d60600151614221565b985061296f565b8a6040015160020b876020015160020b1215612944576128b887600001516128ae8d60400151612e29565b8d60600151614221565b98506128d96128ca8c60200151612e29565b88600001518d60600151614268565b9750612907600360009054906101000a90046fffffffffffffffffffffffffffffffff168c606001516135f9565b600360006101000a8154816fffffffffffffffffffffffffffffffff02191690836fffffffffffffffffffffffffffffffff16021790555061296e565b61296b6129548c60200151612e29565b6129618d60400151612e29565b8d60600151614268565b97505b5b505050505050509193909250565b60007f000000000000000000000000000000000000000000000000000000000000000073ffffffffffffffffffffffffffffffffffffffff166370a08231306040518263ffffffff1660e01b81526004016129d89190615192565b602060405180830381865afa1580156129f5573d6000803e3d6000fd5b505050506040513d601f19601f82011682018060405250810190612a199190615dc3565b905090565b60007f000000000000000000000000000000000000000000000000000000000000000073ffffffffffffffffffffffffffffffffffffffff166370a08231306040518263ffffffff1660e01b8152600401612a799190615192565b602060405180830381865afa158015612a96573d6000803e3d6000fd5b505050506040513d601f19601f82011682018060405250810190612aba9190615dc3565b905090565b6000612acc84848461347a565b905060008280612adf57612ade616196565b5b8486091115612b23577fffffffffffffffffffffffffffffffffffffffffffffffffffffffffffffffff8110612b1457600080fd5b8080612b1f906161c5565b9150505b9392505050565b6000846000858585604051602001612b449392919061628b565b6040516020818303038152906040528051906020012081526020019081526020016000209050949350505050565b600042905090565b6060845167ffffffffffffffff811115612b9757612b966162c8565b5b604051908082528060200260200182016040528015612bc55781602001602082028036833780820191505090505b50905060005b8551811015612c3057612bfc8888888481518110612bec57612beb616167565b5b60200260200101518888886142af565b828281518110612c0f57612c0e616167565b5b602002602001019060060b908160060b815250508080600101915050612bcb565b509695505050505050565b60008060008486612c4c91906162f7565b905060008660020b128015612c70575060008587612c6a9190616361565b60020b14155b15612c84578080612c8090616392565b9150505b8315612d4757600080612c968361446a565b9150915060008160ff166001901b60018360ff166001901b612cb89190616045565b612cc29190615d35565b90506000818b60008660010b60010b8152602001908152602001600020541690506000811415955085612d0e57888360ff1686612cff9190616079565b612d0991906163da565b612d3c565b88612d188261448c565b84612d239190616424565b60ff1686612d319190616079565b612d3b91906163da565b5b965050505050612e1f565b600080612d5f600184612d5a9190616459565b61446a565b91509150600060018260ff166001901b612d799190616045565b1990506000818b60008660010b60010b8152602001908152602001600020541690506000811415955085612dde57888360ff612db59190616424565b60ff16600187612dc59190616459565b612dcf9190616459565b612dd991906163da565b612e18565b8883612de9836145af565b612df39190616424565b60ff16600187612e039190616459565b612e0d9190616459565b612e1791906163da565b5b9650505050505b5094509492505050565b60008060008360020b12612e40578260020b612e4e565b8260020b612e4d90615f82565b5b90507ffffffffffffffffffffffffffffffffffffffffffffffffffffffffffff27618612e7a90615c4f565b62ffffff16811115612ec1576040517f08c379a0000000000000000000000000000000000000000000000000000000008152600401612eb890616511565b60405180910390fd5b6000806001831603612ee457700100000000000000000000000000000000612ef6565b6ffffcb933bd6fad37aa2d162d1a5940015b70ffffffffffffffffffffffffffffffffff16905060006002831614612f395760806ffff97272373d413259a46990580e213a82612f349190616531565b901c90505b60006004831614612f675760806ffff2e50f5f656932ef12357cf3c7fdcc82612f629190616531565b901c90505b60006008831614612f955760806fffe5caca7e10e4e61c3624eaa0941cd082612f909190616531565b901c90505b60006010831614612fc35760806fffcb9843d60f6159c9db58835c92664482612fbe9190616531565b901c90505b60006020831614612ff15760806fff973b41fa98c081472e6896dfb254c082612fec9190616531565b901c90505b6000604083161461301f5760806fff2ea16466c96a3843ec78b326b528618261301a9190616531565b901c90505b6000608083161461304d5760806ffe5dee046a99a2a811c461f1969c3053826130489190616531565b901c90505b600061010083161461307c5760806ffcbe86c7900a88aedcffc83b479aa3a4826130779190616531565b901c90505b60006102008316146130ab5760806ff987a7253ac413176f2b074cf7815e54826130a69190616531565b901c90505b60006104008316146130da5760806ff3392b0822b70005940c7a398e4b70f3826130d59190616531565b901c90505b60006108008316146131095760806fe7159475a2c29b7443b29c7fa6e889d9826131049190616531565b901c90505b60006110008316146131385760806fd097f3bdfd2022b8845ad8f792aa5825826131339190616531565b901c90505b60006120008316146131675760806fa9f746462d870fdf8a65dc1f90e061e5826131629190616531565b901c90505b60006140008316146131965760806f70d869a156d2a1b890bb3df62baf32f7826131919190616531565b901c90505b60006180008316146131c55760806f31be135f97d08fd981231505542fcfa6826131c09190616531565b901c90505b6000620100008316146131f55760806f09aa508b5b7a84e1c677de54f3e99bc9826131f09190616531565b901c90505b6000620200008316146132245760806e5d6af8dedb81196699c329225ee6048261321f9190616531565b901c90505b6000620400008316146132525760806d2216e584f5fa1ea926041bedfe988261324d9190616531565b901c90505b60006208000083161461327e5760806b048a170391f7dc42444e8fa2826132799190616531565b901c90505b60008460020b13156132b957807fffffffffffffffffffffffffffffffffffffffffffffffffffffffffffffffff6132b69190616573565b90505b6000640100000000826132cc91906165a4565b146132d85760016132db565b60005b60ff16602082901c6132ed9190615d35565b92505050919050565b60008060008060008873ffffffffffffffffffffffffffffffffffffffff168a73ffffffffffffffffffffffffffffffffffffffff161015905060006133538888620f424061334591906165d5565b62ffffff16620f424061347a565b90508161336c576133678b8b8b600161471e565b61337a565b6133798b8b8b600161480d565b5b945084811061338b5789955061339a565b6133978b8a8385614951565b95505b60008a73ffffffffffffffffffffffffffffffffffffffff168773ffffffffffffffffffffffffffffffffffffffff16149050821561340257806133ea576133e58c888c600161480d565b6133ec565b855b95506133fb8c888c600061471e565b945061342d565b80613419576134148c888c600161471e565b61341b565b855b955061342a8c888c600061480d565b94505b8061344557858961343e9190616045565b935061346b565b613468868962ffffff168a620f424061345e91906165d5565b62ffffff16612abf565b93505b50505095509550955095915050565b60008060008019858709858702925082811083820303915050600081036134b5578382816134ab576134aa616196565b5b0492505050613588565b8381106134fb5780846040517f773cc18c0000000000000000000000000000000000000000000000000000000081526004016134f2929190615573565b60405180910390fd5b60008486880990508281118203915080830392506000600186190186169050808604955080840493506001818260000304019050808302841793506000600287600302189050808702600203810290508087026002038102905080870260020381029050808702600203810290508087026002038102905080870260020381029050808502955050505050505b9392505050565b6000808560008660020b60020b815260200190815260200160002090508060020154846135bc9190616045565b81600201819055508060030154836135d49190616045565b81600301819055508060010160009054906101000a9004600f0b915050949350505050565b60008082600f0b1215613622578161361090615f3a565b8361361b9190615e5b565b9050613631565b818361362e9190615fca565b90505b92915050565b60006401000276a373ffffffffffffffffffffffffffffffffffffffff168273ffffffffffffffffffffffffffffffffffffffff16101580156136b9575073fffd8963efd1fc6a506488495d951d5263988d2673ffffffffffffffffffffffffffffffffffffffff168273ffffffffffffffffffffffffffffffffffffffff16105b6136f8576040517f08c379a00000000000000000000000000000000000000000000000000000000081526004016136ef90616658565b60405180910390fd5b600060208373ffffffffffffffffffffffffffffffffffffffff16901b9050600081905060006fffffffffffffffffffffffffffffffff821160071b808217915082811c92505067ffffffffffffffff821160061b808217915082811c92505063ffffffff821160051b808217915082811c92505061ffff821160041b808217915082811c92505060ff821160031b808217915082811c925050600f821160021b808217915082811c9250506003821160011b808217915082811c92505060018211808217915050608081106137df57607f816137d59190616045565b83901c91506137f2565b80607f6137ec9190616045565b83901b91505b600060406080836138039190616678565b901b9050828302607f1c92508260801c80603f1b8217915083811c935050828302607f1c92508260801c80603e1b8217915083811c935050828302607f1c92508260801c80603d1b8217915083811c935050828302607f1c92508260801c80603c1b8217915083811c935050828302607f1c92508260801c80603b1b8217915083811c935050828302607f1c92508260801c80603a1b8217915083811c935050828302607f1c92508260801c8060391b8217915083811c935050828302607f1c92508260801c8060381b8217915083811c935050828302607f1c92508260801c8060371b8217915083811c935050828302607f1c92508260801c8060361b8217915083811c935050828302607f1c92508260801c8060351b8217915083811c935050828302607f1c92508260801c8060341b8217915083811c935050828302607f1c92508260801c8060331b8217915083811c935050828302607f1c92508260801c8060321b82179150506000693627a301d71055774c858261398691906166bb565b9050600060806f028f6481ab7f045a5af012a19d003aaa836139a89190616678565b901d9050600060806fdb2df09e81959a81455e260799a0632f846139cc9190616733565b901d90508060020b8260020b14613a26578873ffffffffffffffffffffffffffffffffffffffff166139fd82612e29565b73ffffffffffffffffffffffffffffffffffffffff161115613a1f5781613a21565b805b613a28565b815b975050505050505050919050565b6000806000888861ffff1661ffff8110613a5357613a52616167565b5b016040518060600160405290816000820160009054906101000a900463ffffffff1663ffffffff1663ffffffff1681526020016000820160049054906101000a900460060b60060b60060b815260200160008201600b9054906101000a900460ff16151515158152505090508663ffffffff16816000015163ffffffff1603613ae25787859250925050613bd7565b8461ffff168461ffff16118015613b0c5750600185613b019190616777565b61ffff168861ffff16145b15613b1957839150613b1d565b8491505b81600189613b2b91906167ad565b613b3591906167e3565b9250613b4281888861497e565b898461ffff1661ffff8110613b5a57613b59616167565b5b0160008201518160000160006101000a81548163ffffffff021916908363ffffffff16021790555060208201518160000160046101000a81548166ffffffffffffff021916908360060b66ffffffffffffff160217905550604082015181600001600b6101000a81548160ff021916908315150217905550905050505b965096945050505050565b60008060405180606001604052808463ffffffff168152602001600060060b81526020016001151581525084600061ffff8110613c2257613c21616167565b5b0160008201518160000160006101000a81548163ffffffff021916908363ffffffff16021790555060208201518160000160046101000a81548166ffffffffffffff021916908360060b66ffffffffffffff160217905550604082015181600001600b6101000a81548160ff02191690831515021790555090505060019150600190509250929050565b6000808860008960020b60020b8152602001908152602001600020905060008160000160019054906101000a90046fffffffffffffffffffffffffffffffff1690506000613cfa82896135f9565b90506000826fffffffffffffffffffffffffffffffff161415156000826fffffffffffffffffffffffffffffffff16141515141593506000826fffffffffffffffffffffffffffffffff1603613d88578860020b8a60020b13613d6a578683600201819055508583600301819055505b60018360000160006101000a81548160ff0219169083151502179055505b808360000160016101000a8154816fffffffffffffffffffffffffffffffff02191690836fffffffffffffffffffffffffffffffff16021790555084613df05787600f0b8360010160009054906101000a9004600f0b600f0b613deb9190616733565b613e14565b87600f0b8360010160009054906101000a9004600f0b600f0b613e139190616678565b5b8360010160006101000a8154816fffffffffffffffffffffffffffffffff0219169083600f0b6fffffffffffffffffffffffffffffffff160217905550505050979650505050505050565b60008183613e6d9190616361565b60020b14613e7a57600080fd5b600080613e918385613e8c91906162f7565b61446a565b9150915060008160ff166001901b9050808660008560010b60010b815260200190815260200160002060008282541892505081905550505050505050565b60008060008860008960020b60020b8152602001908152602001600020905060008960008960020b60020b815260200190815260200160002090506000808a60020b8960020b12613f2d578360020154915083600301549050613f52565b836002015488613f3d9190616045565b9150836003015487613f4f9190616045565b90505b6000808b60020b8b60020b1215613f76578460020154915084600301549050613f9b565b84600201548a613f869190616045565b9150846003015489613f989190616045565b90505b81848b613fa89190616045565b613fb29190616045565b975080838a613fc19190616045565b613fcb9190616045565b9650505050505050965096945050505050565b600061403d856001015484613ff39190616045565b8660000160009054906101000a90046fffffffffffffffffffffffffffffffff166fffffffffffffffffffffffffffffffff1670010000000000000000000000000000000061347a565b9050600061409e8660020154846140549190616045565b8760000160009054906101000a90046fffffffffffffffffffffffffffffffff166fffffffffffffffffffffffffffffffff1670010000000000000000000000000000000061347a565b90506140ca8660000160009054906101000a90046fffffffffffffffffffffffffffffffff16866135f9565b8660000160006101000a8154816fffffffffffffffffffffffffffffffff02191690836fffffffffffffffffffffffffffffffff1602179055508386600101819055508286600201819055506000826fffffffffffffffffffffffffffffffff16118061414957506000816fffffffffffffffffffffffffffffffff16115b1561421957818660030160008282829054906101000a90046fffffffffffffffffffffffffffffffff1661417d9190615fca565b92506101000a8154816fffffffffffffffffffffffffffffffff02191690836fffffffffffffffffffffffffffffffff160217905550808660030160108282829054906101000a90046fffffffffffffffffffffffffffffffff166141e29190615fca565b92506101000a8154816fffffffffffffffffffffffffffffffff02191690836fffffffffffffffffffffffffffffffff1602179055505b505050505050565b60008082600f0b1261423f5761423a848484600161480d565b61425f565b61425584848461424e90615f3a565b600061480d565b61425e90615f82565b5b90509392505050565b60008082600f0b1261428657614281848484600161471e565b6142a6565b61429c84848461429590615f3a565b600061471e565b6142a590615f82565b5b90509392505050565b6000808563ffffffff1603614376576000878461ffff1661ffff81106142d8576142d7616167565b5b016040518060600160405290816000820160009054906101000a900463ffffffff1663ffffffff1663ffffffff1681526020016000820160049054906101000a900460060b60060b60060b815260200160008201600b9054906101000a900460ff16151515158152505090508663ffffffff16816000015163ffffffff16146143695761436681888761497e565b90505b8060200151915050614460565b600085876143849190616814565b90506000806143978a8a858a8a8a6149ee565b91509150816000015163ffffffff168363ffffffff16036143c15781602001519350505050614460565b806000015163ffffffff168363ffffffff16036143e75780602001519350505050614460565b6000826000015182600001516143fd9190616814565b63ffffffff16905060008360000151856144179190616814565b63ffffffff169050808285602001518560200151614435919061684c565b61443f91906168ab565b6144499190616915565b84602001516144589190616952565b955050505050505b9695505050505050565b60008060088360020b901d9150610100836144859190616361565b9050915091565b600080821161449a57600080fd5b70010000000000000000000000000000000082106144c957608082901c91506080816144c691906169b1565b90505b6801000000000000000082106144f057604082901c91506040816144ed91906169b1565b90505b640100000000821061451357602082901c915060208161451091906169b1565b90505b62010000821061453457601082901c915060108161453191906169b1565b90505b610100821061455457600882901c915060088161455191906169b1565b90505b6010821061457357600482901c915060048161457091906169b1565b90505b6004821061459257600282901c915060028161458f91906169b1565b90505b600282106145aa576001816145a791906169b1565b90505b919050565b60008082116145bd57600080fd5b60ff905060006fffffffffffffffffffffffffffffffff8016831611156145f2576080816145eb9190616424565b90506145fa565b608082901c91505b600067ffffffffffffffff8016831611156146235760408161461c9190616424565b905061462b565b604082901c91505b600063ffffffff801683161115614650576020816146499190616424565b9050614658565b602082901c91505b600061ffff80168316111561467b576010816146749190616424565b9050614683565b601082901c91505b600060ff8016831611156146a55760088161469e9190616424565b90506146ad565b600882901c91505b6000600f831611156146cd576004816146c69190616424565b90506146d5565b600482901c91505b60006003831611156146f5576002816146ee9190616424565b90506146fd565b600282901c91505b6000600183161115614719576001816147169190616424565b90505b919050565b60008373ffffffffffffffffffffffffffffffffffffffff168573ffffffffffffffffffffffffffffffffffffffff16111561475f57838580955081965050505b81156147b7576147b0836fffffffffffffffffffffffffffffffff16868661478791906169e6565b73ffffffffffffffffffffffffffffffffffffffff166c01000000000000000000000000612abf565b9050614805565b614802836fffffffffffffffffffffffffffffffff1686866147d991906169e6565b73ffffffffffffffffffffffffffffffffffffffff166c0100000000000000000000000061347a565b90505b949350505050565b60008373ffffffffffffffffffffffffffffffffffffffff168573ffffffffffffffffffffffffffffffffffffffff16111561484e57838580955081965050505b60008573ffffffffffffffffffffffffffffffffffffffff161161487157600080fd5b6000606060ff16846fffffffffffffffffffffffffffffffff16901b90506000868661489d91906169e6565b73ffffffffffffffffffffffffffffffffffffffff1690508315614902576148fb6148df83838973ffffffffffffffffffffffffffffffffffffffff16612abf565b8873ffffffffffffffffffffffffffffffffffffffff16614c54565b9250614947565b8673ffffffffffffffffffffffffffffffffffffffff1661493a83838973ffffffffffffffffffffffffffffffffffffffff1661347a565b6149449190616573565b92505b5050949350505050565b60008161496857614963858585614c67565b614974565b614973858585614cbd565b5b9050949350505050565b614986615125565b60008460000151846149989190616814565b63ffffffff16905060405180606001604052808563ffffffff168152602001828560020b6149c69190616915565b87602001516149d59190616952565b60060b8152602001600115158152509150509392505050565b6149f6615125565b6149fe615125565b878461ffff1661ffff8110614a1657614a15616167565b5b016040518060600160405290816000820160009054906101000a900463ffffffff1663ffffffff1663ffffffff1681526020016000820160049054906101000a900460060b60060b60060b815260200160008201600b9054906101000a900460ff1615151515815250509150614a9187836000015188614db0565b15614ac3578563ffffffff16826000015163ffffffff160315614c495781614aba83888861497e565b91509150614c49565b8783600186614ad291906167ad565b614adc91906167e3565b61ffff1661ffff8110614af257614af1616167565b5b016040518060600160405290816000820160009054906101000a900463ffffffff1663ffffffff1663ffffffff1681526020016000820160049054906101000a900460060b60060b60060b815260200160008201600b9054906101000a900460ff16151515158152505091508160400151614be95787600061ffff8110614b7c57614b7b616167565b5b016040518060600160405290816000820160009054906101000a900463ffffffff1663ffffffff1663ffffffff1681526020016000820160049054906101000a900460060b60060b60060b815260200160008201600b9054906101000a900460ff16151515158152505091505b614bf887836000015188614db0565b614c37576040517f08c379a0000000000000000000000000000000000000000000000000000000008152600401614c2e90616a7a565b60405180910390fd5b614c448888888787614e8a565b915091505b965096945050505050565b6000808284061182840401905092915050565b6000614c93826c01000000000000000000000000856fffffffffffffffffffffffffffffffff1661347a565b8473ffffffffffffffffffffffffffffffffffffffff16614cb49190615d35565b90509392505050565b600080606060ff16846fffffffffffffffffffffffffffffffff16901b905060008573ffffffffffffffffffffffffffffffffffffffff1684614d009190616531565b90508573ffffffffffffffffffffffffffffffffffffffff168482614d259190616573565b03614d6e5760008183614d389190615d35565b9050828110614d6c57614d62838873ffffffffffffffffffffffffffffffffffffffff1683612abf565b9350505050614da9565b505b614da482858873ffffffffffffffffffffffffffffffffffffffff1685614d959190616573565b614d9f9190615d35565b614c54565b925050505b9392505050565b60008363ffffffff168363ffffffff1611158015614dda57508363ffffffff168263ffffffff1611155b15614df6578163ffffffff168363ffffffff1611159050614e83565b60008463ffffffff168463ffffffff1611614e27576401000000008463ffffffff16614e229190616aab565b614e2f565b8363ffffffff165b64ffffffffff16905060008563ffffffff168463ffffffff1611614e69576401000000008463ffffffff16614e649190616aab565b614e71565b8363ffffffff165b64ffffffffff16905080821115925050505b9392505050565b614e92615125565b614e9a615125565b600083600186614eaa91906167ad565b614eb491906167e3565b61ffff169050600060018561ffff1683614ece9190615d35565b614ed89190616045565b905060005b6001156150aa5760028284614ef29190615d35565b614efc9190616573565b9050898661ffff1682614f0f91906165a4565b61ffff8110614f2157614f20616167565b5b016040518060600160405290816000820160009054906101000a900463ffffffff1663ffffffff1663ffffffff1681526020016000820160049054906101000a900460060b60060b60060b815260200160008201600b9054906101000a900460ff16151515158152505094508460400151614faa57600181614fa39190615d35565b9250614edd565b898661ffff16600183614fbd9190615d35565b614fc791906165a4565b61ffff8110614fd957614fd8616167565b5b016040518060600160405290816000820160009054906101000a900463ffffffff1663ffffffff1663ffffffff1681526020016000820160049054906101000a900460060b60060b60060b815260200160008201600b9054906101000a900460ff161515151581525050935060006150568a87600001518b614db0565b9050808015615070575061506f8a8a8760000151614db0565b5b1561507b57506150aa565b806150945760018261508d9190616045565b92506150a4565b6001826150a19190615d35565b93505b50614edd565b5050509550959350505050565b6040518060e00160405280600073ffffffffffffffffffffffffffffffffffffffff168152602001600060020b8152602001600015158152602001600073ffffffffffffffffffffffffffffffffffffffff1681526020016000815260200160008152602001600081525090565b6040518060600160405280600063ffffffff168152602001600060060b81526020016000151581525090565b600073ffffffffffffffffffffffffffffffffffffffff82169050919050565b600061517c82615151565b9050919050565b61518c81615171565b82525050565b60006020820190506151a76000830184615183565b92915050565b60006fffffffffffffffffffffffffffffffff82169050919050565b6151d2816151ad565b82525050565b60006020820190506151ed60008301846151c9565b92915050565b600080fd5b600080fd5b6000819050919050565b615210816151fd565b811461521b57600080fd5b50565b60008135905061522d81615207565b92915050565b600060208284031215615249576152486151f3565b5b60006152578482850161521e565b91505092915050565b600063ffffffff82169050919050565b61527981615260565b82525050565b60008160060b9050919050565b6152958161527f565b82525050565b60008115159050919050565b6152b08161529b565b82525050565b60006060820190506152cb6000830186615270565b6152d8602083018561528c565b6152e560408301846152a7565b949350505050565b600061ffff82169050919050565b615304816152ed565b811461530f57600080fd5b50565b600081359050615321816152fb565b92915050565b60006020828403121561533d5761533c6151f3565b5b600061534b84828501615312565b91505092915050565b61535d81615151565b82525050565b60008160020b9050919050565b61537981615363565b82525050565b615388816152ed565b82525050565b600060a0820190506153a36000830188615354565b6153b06020830187615370565b6153bd604083018661537f565b6153ca606083018561537f565b6153d7608083018461537f565b9695505050505050565b6153ea81615171565b81146153f557600080fd5b50565b600081359050615407816153e1565b92915050565b61541681615363565b811461542157600080fd5b50565b6000813590506154338161540d565b92915050565b615442816151ad565b811461544d57600080fd5b50565b60008135905061545f81615439565b92915050565b600080fd5b600080fd5b600080fd5b60008083601f84011261548a57615489615465565b5b8235905067ffffffffffffffff8111156154a7576154a661546a565b5b6020830191508360018202830111156154c3576154c261546f565b5b9250929050565b60008060008060008060a087890312156154e7576154e66151f3565b5b60006154f589828a016153f8565b965050602061550689828a01615424565b955050604061551789828a01615424565b945050606061552889828a01615450565b935050608087013567ffffffffffffffff811115615549576155486151f8565b5b61555589828a01615474565b92509250509295509295509295565b61556d816151fd565b82525050565b60006040820190506155886000830185615564565b6155956020830184615564565b9392505050565b60006020820190506155b16000830184615564565b92915050565b600080600080606085870312156155d1576155d06151f3565b5b60006155df8782880161521e565b94505060206155f08782880161521e565b935050604085013567ffffffffffffffff811115615611576156106151f8565b5b61561d87828801615474565b925092505092959194509250565b600080600080600060a08688031215615647576156466151f3565b5b6000615655888289016153f8565b955050602061566688828901615424565b945050604061567788828901615424565b935050606061568888828901615450565b925050608061569988828901615450565b9150509295509295909350565b60006040820190506156bb60008301856151c9565b6156c860208301846151c9565b9392505050565b6000819050919050565b6156e2816156cf565b81146156ed57600080fd5b50565b6000813590506156ff816156d9565b92915050565b60006020828403121561571b5761571a6151f3565b5b6000615729848285016156f0565b91505092915050565b600060a08201905061574760008301886151c9565b6157546020830187615564565b6157616040830186615564565b61576e60608301856151c9565b61577b60808301846151c9565b9695505050505050565b60008160010b9050919050565b61579b81615785565b81146157a657600080fd5b50565b6000813590506157b881615792565b92915050565b6000602082840312156157d4576157d36151f3565b5b60006157e2848285016157a9565b91505092915050565b60008083601f84011261580157615800615465565b5b8235905067ffffffffffffffff81111561581e5761581d61546a565b5b60208301915083602082028301111561583a5761583961546f565b5b9250929050565b60008060208385031215615858576158576151f3565b5b600083013567ffffffffffffffff811115615876576158756151f8565b5b615882858286016157eb565b92509250509250929050565b600081519050919050565b600082825260208201905092915050565b6000819050602082019050919050565b6158c38161527f565b82525050565b60006158d583836158ba565b60208301905092915050565b6000602082019050919050565b60006158f98261588e565b6159038185615899565b935061590e836158aa565b8060005b8381101561593f57815161592688826158c9565b9750615931836158e1565b925050600181019050615912565b5085935050505092915050565b6000602082019050818103600083015261596681846158ee565b905092915050565b600080600060608486031215615987576159866151f3565b5b600061599586828701615424565b93505060206159a686828701615424565b92505060406159b786828701615450565b9150509250925092565b600062ffffff82169050919050565b6159d9816159c1565b82525050565b60006020820190506159f460008301846159d0565b92915050565b615a038161529b565b8114615a0e57600080fd5b50565b600081359050615a20816159fa565b92915050565b615a2f81615151565b8114615a3a57600080fd5b50565b600081359050615a4c81615a26565b92915050565b60008060008060008060a08789031215615a6f57615a6e6151f3565b5b6000615a7d89828a016153f8565b9650506020615a8e89828a01615a11565b9550506040615a9f89828a0161521e565b9450506060615ab089828a01615a3d565b935050608087013567ffffffffffffffff811115615ad157615ad06151f8565b5b615add89828a01615474565b92509250509295509295509295565b6000819050919050565b615aff81615aec565b82525050565b6000604082019050615b1a6000830185615af6565b615b276020830184615af6565b9392505050565b600060208284031215615b4457615b436151f3565b5b6000615b5284828501615424565b91505092915050565b600081600f0b9050919050565b615b7181615b5b565b82525050565b600060a082019050615b8c60008301886152a7565b615b9960208301876151c9565b615ba66040830186615b68565b615bb36060830185615564565b615bc06080830184615564565b9695505050505050565b600060208284031215615be057615bdf6151f3565b5b6000615bee84828501615a3d565b91505092915050565b6000604082019050615c0c600083018561537f565b615c19602083018461537f565b9392505050565b7f4e487b7100000000000000000000000000000000000000000000000000000000600052601160045260246000fd5b6000615c5a82615363565b91507fffffffffffffffffffffffffffffffffffffffffffffffffffffffffff8000008203615c8c57615c8b615c20565b5b816000039050919050565b600082825260208201905092915050565b82818337600083830152505050565b6000601f19601f8301169050919050565b6000615cd48385615c97565b9350615ce1838584615ca8565b615cea83615cb7565b840190509392505050565b6000606082019050615d0a6000830187615564565b615d176020830186615564565b8181036040830152615d2a818486615cc8565b905095945050505050565b6000615d40826151fd565b9150615d4b836151fd565b9250828201905080821115615d6357615d62615c20565b5b92915050565b6000608082019050615d7e6000830187615183565b615d8b60208301866151c9565b615d986040830185615564565b615da56060830184615564565b95945050505050565b600081519050615dbd81615207565b92915050565b600060208284031215615dd957615dd86151f3565b5b6000615de784828501615dae565b91505092915050565b6000604082019050615e056000830185615183565b615e126020830184615564565b9392505050565b600081519050615e28816159fa565b92915050565b600060208284031215615e4457615e436151f3565b5b6000615e5284828501615e19565b91505092915050565b6000615e66826151ad565b9150615e71836151ad565b925082820390506fffffffffffffffffffffffffffffffff811115615e9957615e98615c20565b5b92915050565b6000819050919050565b6000615ec4615ebf615eba846151ad565b615e9f565b6151fd565b9050919050565b615ed481615ea9565b82525050565b6000604082019050615eef6000830185615183565b615efc6020830184615ecb565b9392505050565b6000606082019050615f186000830186615183565b615f256020830185615ecb565b615f326040830184615ecb565b949350505050565b6000615f4582615b5b565b91507fffffffffffffffffffffffffffffffff800000000000000000000000000000008203615f7757615f76615c20565b5b816000039050919050565b6000615f8d82615aec565b91507f80000000000000000000000000000000000000000000000000000000000000008203615fbf57615fbe615c20565b5b816000039050919050565b6000615fd5826151ad565b9150615fe0836151ad565b925082820190506fffffffffffffffffffffffffffffffff81111561600857616007615c20565b5b92915050565b600060608201905061602360008301866151c9565b6160306020830185615564565b61603d6040830184615564565b949350505050565b6000616050826151fd565b915061605b836151fd565b925082820390508181111561607357616072615c20565b5b92915050565b600061608482615363565b915061608f83615363565b92508282039050627fffff81137fffffffffffffffffffffffffffffffffffffffffffffffffffffffffff800000821217156160ce576160cd615c20565b5b92915050565b60006060820190506160e96000830187615af6565b6160f66020830186615af6565b8181036040830152616109818486615cc8565b905095945050505050565b600060a0820190506161296000830188615af6565b6161366020830187615af6565b6161436040830186615354565b61615060608301856151c9565b61615d6080830184615370565b9695505050505050565b7f4e487b7100000000000000000000000000000000000000000000000000000000600052603260045260246000fd5b7f4e487b7100000000000000000000000000000000000000000000000000000000600052601260045260246000fd5b60006161d0826151fd565b91507fffffffffffffffffffffffffffffffffffffffffffffffffffffffffffffffff820361620257616201615c20565b5b600182019050919050565b60008160601b9050919050565b60006162258261620d565b9050919050565b60006162378261621a565b9050919050565b61624f61624a82615171565b61622c565b82525050565b60008160e81b9050919050565b600061626d82616255565b9050919050565b61628561628082615363565b616262565b82525050565b6000616297828661623e565b6014820191506162a78285616274565b6003820191506162b78284616274565b600382019150819050949350505050565b7f4e487b7100000000000000000000000000000000000000000000000000000000600052604160045260246000fd5b600061630282615363565b915061630d83615363565b92508261631d5761631c616196565b5b600160000383147fffffffffffffffffffffffffffffffffffffffffffffffffffffffffff8000008314161561635657616355615c20565b5b828205905092915050565b600061636c82615363565b915061637783615363565b92508261638757616386616196565b5b828207905092915050565b600061639d82615363565b91507fffffffffffffffffffffffffffffffffffffffffffffffffffffffffff80000082036163cf576163ce615c20565b5b600182039050919050565b60006163e582615363565b91506163f083615363565b92508282026163fe81615363565b91508082146164105761640f615c20565b5b5092915050565b600060ff82169050919050565b600061642f82616417565b915061643a83616417565b9250828203905060ff81111561645357616452615c20565b5b92915050565b600061646482615363565b915061646f83615363565b925082820190507fffffffffffffffffffffffffffffffffffffffffffffffffffffffffff8000008112627fffff821317156164ae576164ad615c20565b5b92915050565b600082825260208201905092915050565b7f5400000000000000000000000000000000000000000000000000000000000000600082015250565b60006164fb6001836164b4565b9150616506826164c5565b602082019050919050565b6000602082019050818103600083015261652a816164ee565b9050919050565b600061653c826151fd565b9150616547836151fd565b9250828202616555816151fd565b9150828204841483151761656c5761656b615c20565b5b5092915050565b600061657e826151fd565b9150616589836151fd565b92508261659957616598616196565b5b828204905092915050565b60006165af826151fd565b91506165ba836151fd565b9250826165ca576165c9616196565b5b828206905092915050565b60006165e0826159c1565b91506165eb836159c1565b9250828203905062ffffff81111561660657616605615c20565b5b92915050565b7f5200000000000000000000000000000000000000000000000000000000000000600082015250565b60006166426001836164b4565b915061664d8261660c565b602082019050919050565b6000602082019050818103600083015261667181616635565b9050919050565b600061668382615aec565b915061668e83615aec565b92508282039050818112600084121682821360008512151617156166b5576166b4615c20565b5b92915050565b60006166c682615aec565b91506166d183615aec565b92508282026166df81615aec565b91507f8000000000000000000000000000000000000000000000000000000000000000841460008412161561671757616716615c20565b5b828205841483151761672c5761672b615c20565b5b5092915050565b600061673e82615aec565b915061674983615aec565b92508282019050828112156000831216838212600084121516171561677157616770615c20565b5b92915050565b6000616782826152ed565b915061678d836152ed565b9250828203905061ffff8111156167a7576167a6615c20565b5b92915050565b60006167b8826152ed565b91506167c3836152ed565b9250828201905061ffff8111156167dd576167dc615c20565b5b92915050565b60006167ee826152ed565b91506167f9836152ed565b92508261680957616808616196565b5b828206905092915050565b600061681f82615260565b915061682a83615260565b9250828203905063ffffffff81111561684657616845615c20565b5b92915050565b60006168578261527f565b91506168628361527f565b92508282039050667fffffffffffff81137fffffffffffffffffffffffffffffffffffffffffffffffffff80000000000000821217156168a5576168a4615c20565b5b92915050565b60006168b68261527f565b91506168c18361527f565b9250826168d1576168d0616196565b5b600160000383147fffffffffffffffffffffffffffffffffffffffffffffffffff800000000000008314161561690a57616909615c20565b5b828205905092915050565b60006169208261527f565b915061692b8361527f565b92508282026169398161527f565b915080821461694b5761694a615c20565b5b5092915050565b600061695d8261527f565b91506169688361527f565b925082820190507fffffffffffffffffffffffffffffffffffffffffffffffffff800000000000008112667fffffffffffff821317156169ab576169aa615c20565b5b92915050565b60006169bc82616417565b91506169c783616417565b9250828201905060ff8111156169e0576169df615c20565b5b92915050565b60006169f182615151565b91506169fc83615151565b9250828203905073ffffffffffffffffffffffffffffffffffffffff811115616a2857616a27615c20565b5b92915050565b7f4f4c440000000000000000000000000000000000000000000000000000000000600082015250565b6000616a646003836164b4565b9150616a6f82616a2e565b602082019050919050565b60006020820190508181036000830152616a9381616a57565b9050919050565b600064ffffffffff82169050919050565b6000616ab682616a9a565b9150616ac183616a9a565b9250828201905064ffffffffff811115616ade57616add615c20565b5b9291505056fea264697066735822122025d3ccfcab95a53d9b4eef82c545e9c4c0e67200266be75ae2e873afe1e8073d64736f6c634300081a0033a2646970667358221220cd28fb9aeea269fc5d6de49ba0b16f438c67d16a8a824cd409478e6c32aa8f8664736f6c634300081a0033",
			"opcodes": "PUSH1 0x80 PUSH1 0x40 MSTORE CALLVALUE DUP1 ISZERO PUSH1 0xF JUMPI PUSH1 0x0 DUP1 REVERT JUMPDEST POP PUSH1 0xA PUSH1 0x3 PUSH1 0x0 PUSH2 0x1F4 PUSH3 0xFFFFFF AND DUP2 MSTORE PUSH1 0x20 ADD SWAP1 DUP2 MSTORE PUSH1 0x20 ADD PUSH1 0x0 KECCAK256 PUSH1 0x0 PUSH2 0x100 EXP DUP2 SLOAD DUP2 PUSH3 0xFFFFFF MUL NOT AND SWAP1 DUP4 PUSH3 0xFFFFFF AND MUL OR SWAP1 SSTORE POP PUSH1 0x3C PUSH1 0x3 PUSH1 0x0 PUSH2 0xBB8 PUSH3 0xFFFFFF AND DUP2 MSTORE PUSH1 0x20 ADD SWAP1 DUP2 MSTORE PUSH1 0x20 ADD PUSH1 0x0 KECCAK256 PUSH1 0x0 PUSH2 0x100 EXP DUP2 SLOAD DUP2 PUSH3 0xFFFFFF MUL NOT AND SWAP1 DUP4 PUSH3 0xFFFFFF AND MUL OR SWAP1 SSTORE POP PUSH2 0x7A91 DUP1 PUSH2 0x8F PUSH1 0x0 CODECOPY PUSH1 0x0 RETURN INVALID PUSH1 0x80 PUSH1 0x40 MSTORE CALLVALUE DUP1 ISZERO PUSH2 0x10 JUMPI PUSH1 0x0 DUP1 REVERT JUMPDEST POP PUSH1 0x4 CALLDATASIZE LT PUSH2 0x4C JUMPI PUSH1 0x0 CALLDATALOAD PUSH1 0xE0 SHR DUP1 PUSH4 0x6441C780 EQ PUSH2 0x51 JUMPI DUP1 PUSH4 0x89035730 EQ PUSH2 0x81 JUMPI DUP1 PUSH4 0xA1671295 EQ PUSH2 0xA3 JUMPI DUP1 PUSH4 0xBAE0D918 EQ PUSH2 0xD3 JUMPI JUMPDEST PUSH1 0x0 DUP1 REVERT JUMPDEST PUSH2 0x6B PUSH1 0x4 DUP1 CALLDATASIZE SUB DUP2 ADD SWAP1 PUSH2 0x66 SWAP2 SWAP1 PUSH2 0x9DD JUMP JUMPDEST PUSH2 0x103 JUMP JUMPDEST PUSH1 0x40 MLOAD PUSH2 0x78 SWAP2 SWAP1 PUSH2 0xA19 JUMP JUMPDEST PUSH1 0x40 MLOAD DUP1 SWAP2 SUB SWAP1 RETURN JUMPDEST PUSH2 0x89 PUSH2 0x125 JUMP JUMPDEST PUSH1 0x40 MLOAD PUSH2 0x9A SWAP6 SWAP5 SWAP4 SWAP3 SWAP2 SWAP1 PUSH2 0xA75 JUMP JUMPDEST PUSH1 0x40 MLOAD DUP1 SWAP2 SUB SWAP1 RETURN JUMPDEST PUSH2 0xBD PUSH1 0x4 DUP1 CALLDATASIZE SUB DUP2 ADD SWAP1 PUSH2 0xB8 SWAP2 SWAP1 PUSH2 0xAF4 JUMP JUMPDEST PUSH2 0x1C7 JUMP JUMPDEST PUSH1 0x40 MLOAD PUSH2 0xCA SWAP2 SWAP1 PUSH2 0xB47 JUMP JUMPDEST PUSH1 0x40 MLOAD DUP1 SWAP2 SUB SWAP1 RETURN JUMPDEST PUSH2 0xED PUSH1 0x4 DUP1 CALLDATASIZE SUB DUP2 ADD SWAP1 PUSH2 0xE8 SWAP2 SWAP1 PUSH2 0xAF4 JUMP JUMPDEST PUSH2 0x941 JUMP JUMPDEST PUSH1 0x40 MLOAD PUSH2 0xFA SWAP2 SWAP1 PUSH2 0xB47 JUMP JUMPDEST PUSH1 0x40 MLOAD DUP1 SWAP2 SUB SWAP1 RETURN JUMPDEST PUSH1 0x3 PUSH1 0x20 MSTORE DUP1 PUSH1 0x0 MSTORE PUSH1 0x40 PUSH1 0x0 KECCAK256 PUSH1 0x0 SWAP2 POP SLOAD SWAP1 PUSH2 0x100 EXP SWAP1 DIV PUSH3 0xFFFFFF AND DUP2 JUMP JUMPDEST PUSH1 0x0 DUP1 PUSH1 0x0 ADD PUSH1 0x0 SWAP1 SLOAD SWAP1 PUSH2 0x100 EXP SWAP1 DIV PUSH20 0xFFFFFFFFFFFFFFFFFFFFFFFFFFFFFFFFFFFFFFFF AND SWAP1 DUP1 PUSH1 0x1 ADD PUSH1 0x0 SWAP1 SLOAD SWAP1 PUSH2 0x100 EXP SWAP1 DIV PUSH20 0xFFFFFFFFFFFFFFFFFFFFFFFFFFFFFFFFFFFFFFFF AND SWAP1 DUP1 PUSH1 0x2 ADD PUSH1 0x0 SWAP1 SLOAD SWAP1 PUSH2 0x100 EXP SWAP1 DIV PUSH20 0xFFFFFFFFFFFFFFFFFFFFFFFFFFFFFFFFFFFFFFFF AND SWAP1 DUP1 PUSH1 0x2 ADD PUSH1 0x14 SWAP1 SLOAD SWAP1 PUSH2 0x100 EXP SWAP1 DIV PUSH3 0xFFFFFF AND SWAP1 DUP1 PUSH1 0x2 ADD PUSH1 0x17 SWAP1 SLOAD SWAP1 PUSH2 0x100 EXP SWAP1 DIV PUSH3 0xFFFFFF AND SWAP1 POP DUP6 JUMP JUMPDEST PUSH1 0x0 DUP3 PUSH20 0xFFFFFFFFFFFFFFFFFFFFFFFFFFFFFFFFFFFFFFFF AND DUP5 PUSH20 0xFFFFFFFFFFFFFFFFFFFFFFFFFFFFFFFFFFFFFFFF AND SUB PUSH2 0x22E JUMPI PUSH1 0x40 MLOAD PUSH32 0xFBFC7A9100000000000000000000000000000000000000000000000000000000 DUP2 MSTORE PUSH1 0x4 ADD PUSH1 0x40 MLOAD DUP1 SWAP2 SUB SWAP1 REVERT JUMPDEST PUSH1 0x0 PUSH1 0x3 PUSH1 0x0 DUP5 PUSH3 0xFFFFFF AND PUSH3 0xFFFFFF AND DUP2 MSTORE PUSH1 0x20 ADD SWAP1 DUP2 MSTORE PUSH1 0x20 ADD PUSH1 0x0 KECCAK256 PUSH1 0x0 SWAP1 SLOAD SWAP1 PUSH2 0x100 EXP SWAP1 DIV PUSH3 0xFFFFFF AND PUSH3 0xFFFFFF AND SUB PUSH2 0x299 JUMPI PUSH1 0x40 MLOAD PUSH32 0x271D3EEC00000000000000000000000000000000000000000000000000000000 DUP2 MSTORE PUSH1 0x4 ADD PUSH1 0x40 MLOAD DUP1 SWAP2 SUB SWAP1 REVERT JUMPDEST DUP3 PUSH20 0xFFFFFFFFFFFFFFFFFFFFFFFFFFFFFFFFFFFFFFFF AND DUP5 PUSH20 0xFFFFFFFFFFFFFFFFFFFFFFFFFFFFFFFFFFFFFFFF AND LT PUSH2 0x2D3 JUMPI DUP3 DUP5 PUSH2 0x2D6 JUMP JUMPDEST DUP4 DUP4 JUMPDEST DUP1 SWAP5 POP DUP2 SWAP6 POP POP POP PUSH1 0x0 PUSH20 0xFFFFFFFFFFFFFFFFFFFFFFFFFFFFFFFFFFFFFFFF AND DUP5 PUSH20 0xFFFFFFFFFFFFFFFFFFFFFFFFFFFFFFFFFFFFFFFF AND SUB PUSH2 0x344 JUMPI PUSH1 0x40 MLOAD PUSH32 0x8579BEFE00000000000000000000000000000000000000000000000000000000 DUP2 MSTORE PUSH1 0x4 ADD PUSH1 0x40 MLOAD DUP1 SWAP2 SUB SWAP1 REVERT JUMPDEST PUSH1 0x0 PUSH20 0xFFFFFFFFFFFFFFFFFFFFFFFFFFFFFFFFFFFFFFFF AND PUSH1 0x4 PUSH1 0x0 DUP7 PUSH20 0xFFFFFFFFFFFFFFFFFFFFFFFFFFFFFFFFFFFFFFFF AND PUSH20 0xFFFFFFFFFFFFFFFFFFFFFFFFFFFFFFFFFFFFFFFF AND DUP2 MSTORE PUSH1 0x20 ADD SWAP1 DUP2 MSTORE PUSH1 0x20 ADD PUSH1 0x0 KECCAK256 PUSH1 0x0 DUP6 PUSH20 0xFFFFFFFFFFFFFFFFFFFFFFFFFFFFFFFFFFFFFFFF AND PUSH20 0xFFFFFFFFFFFFFFFFFFFFFFFFFFFFFFFFFFFFFFFF AND DUP2 MSTORE PUSH1 0x20 ADD SWAP1 DUP2 MSTORE PUSH1 0x20 ADD PUSH1 0x0 KECCAK256 PUSH1 0x0 DUP5 PUSH3 0xFFFFFF AND PUSH3 0xFFFFFF AND DUP2 MSTORE PUSH1 0x20 ADD SWAP1 DUP2 MSTORE PUSH1 0x20 ADD PUSH1 0x0 KECCAK256 PUSH1 0x0 SWAP1 SLOAD SWAP1 PUSH2 0x100 EXP SWAP1 DIV PUSH20 0xFFFFFFFFFFFFFFFFFFFFFFFFFFFFFFFFFFFFFFFF AND PUSH20 0xFFFFFFFFFFFFFFFFFFFFFFFFFFFFFFFFFFFFFFFF AND EQ PUSH2 0x461 JUMPI PUSH1 0x40 MLOAD PUSH32 0x311932200000000000000000000000000000000000000000000000000000000 DUP2 MSTORE PUSH1 0x4 ADD PUSH1 0x40 MLOAD DUP1 SWAP2 SUB SWAP1 REVERT JUMPDEST PUSH1 0x40 MLOAD DUP1 PUSH1 0xA0 ADD PUSH1 0x40 MSTORE DUP1 ADDRESS PUSH20 0xFFFFFFFFFFFFFFFFFFFFFFFFFFFFFFFFFFFFFFFF AND DUP2 MSTORE PUSH1 0x20 ADD DUP6 PUSH20 0xFFFFFFFFFFFFFFFFFFFFFFFFFFFFFFFFFFFFFFFF AND DUP2 MSTORE PUSH1 0x20 ADD DUP5 PUSH20 0xFFFFFFFFFFFFFFFFFFFFFFFFFFFFFFFFFFFFFFFF AND DUP2 MSTORE PUSH1 0x20 ADD PUSH1 0x3 PUSH1 0x0 DUP6 PUSH3 0xFFFFFF AND PUSH3 0xFFFFFF AND DUP2 MSTORE PUSH1 0x20 ADD SWAP1 DUP2 MSTORE PUSH1 0x20 ADD PUSH1 0x0 KECCAK256 PUSH1 0x0 SWAP1 SLOAD SWAP1 PUSH2 0x100 EXP SWAP1 DIV PUSH3 0xFFFFFF AND PUSH3 0xFFFFFF AND DUP2 MSTORE PUSH1 0x20 ADD DUP4 PUSH3 0xFFFFFF AND DUP2 MSTORE POP PUSH1 0x0 DUP1 DUP3 ADD MLOAD DUP2 PUSH1 0x0 ADD PUSH1 0x0 PUSH2 0x100 EXP DUP2 SLOAD DUP2 PUSH20 0xFFFFFFFFFFFFFFFFFFFFFFFFFFFFFFFFFFFFFFFF MUL NOT AND SWAP1 DUP4 PUSH20 0xFFFFFFFFFFFFFFFFFFFFFFFFFFFFFFFFFFFFFFFF AND MUL OR SWAP1 SSTORE POP PUSH1 0x20 DUP3 ADD MLOAD DUP2 PUSH1 0x1 ADD PUSH1 0x0 PUSH2 0x100 EXP DUP2 SLOAD DUP2 PUSH20 0xFFFFFFFFFFFFFFFFFFFFFFFFFFFFFFFFFFFFFFFF MUL NOT AND SWAP1 DUP4 PUSH20 0xFFFFFFFFFFFFFFFFFFFFFFFFFFFFFFFFFFFFFFFF AND MUL OR SWAP1 SSTORE POP PUSH1 0x40 DUP3 ADD MLOAD DUP2 PUSH1 0x2 ADD PUSH1 0x0 PUSH2 0x100 EXP DUP2 SLOAD DUP2 PUSH20 0xFFFFFFFFFFFFFFFFFFFFFFFFFFFFFFFFFFFFFFFF MUL NOT AND SWAP1 DUP4 PUSH20 0xFFFFFFFFFFFFFFFFFFFFFFFFFFFFFFFFFFFFFFFF AND MUL OR SWAP1 SSTORE POP PUSH1 0x60 DUP3 ADD MLOAD DUP2 PUSH1 0x2 ADD PUSH1 0x14 PUSH2 0x100 EXP DUP2 SLOAD DUP2 PUSH3 0xFFFFFF MUL NOT AND SWAP1 DUP4 PUSH3 0xFFFFFF AND MUL OR SWAP1 SSTORE POP PUSH1 0x80 DUP3 ADD MLOAD DUP2 PUSH1 0x2 ADD PUSH1 0x17 PUSH2 0x100 EXP DUP2 SLOAD DUP2 PUSH3 0xFFFFFF MUL NOT AND SWAP1 DUP4 PUSH3 0xFFFFFF AND MUL OR SWAP1 SSTORE POP SWAP1 POP POP DUP4 DUP4 DUP4 PUSH1 0x40 MLOAD PUSH1 0x20 ADD PUSH2 0x638 SWAP4 SWAP3 SWAP2 SWAP1 PUSH2 0xBE0 JUMP JUMPDEST PUSH1 0x40 MLOAD PUSH1 0x20 DUP2 DUP4 SUB SUB DUP2 MSTORE SWAP1 PUSH1 0x40 MSTORE DUP1 MLOAD SWAP1 PUSH1 0x20 ADD KECCAK256 PUSH1 0x40 MLOAD PUSH2 0x65A SWAP1 PUSH2 0x990 JUMP JUMPDEST DUP2 SWAP1 PUSH1 0x40 MLOAD DUP1 SWAP2 SUB SWAP1 PUSH1 0x0 CREATE2 SWAP1 POP DUP1 ISZERO DUP1 ISZERO PUSH2 0x67A JUMPI RETURNDATASIZE PUSH1 0x0 DUP1 RETURNDATACOPY RETURNDATASIZE PUSH1 0x0 REVERT JUMPDEST POP SWAP1 POP PUSH1 0x0 DUP1 PUSH1 0x0 DUP3 ADD PUSH1 0x0 PUSH2 0x100 EXP DUP2 SLOAD SWAP1 PUSH20 0xFFFFFFFFFFFFFFFFFFFFFFFFFFFFFFFFFFFFFFFF MUL NOT AND SWAP1 SSTORE PUSH1 0x1 DUP3 ADD PUSH1 0x0 PUSH2 0x100 EXP DUP2 SLOAD SWAP1 PUSH20 0xFFFFFFFFFFFFFFFFFFFFFFFFFFFFFFFFFFFFFFFF MUL NOT AND SWAP1 SSTORE PUSH1 0x2 DUP3 ADD PUSH1 0x0 PUSH2 0x100 EXP DUP2 SLOAD SWAP1 PUSH20 0xFFFFFFFFFFFFFFFFFFFFFFFFFFFFFFFFFFFFFFFF MUL NOT AND SWAP1 SSTORE PUSH1 0x2 DUP3 ADD PUSH1 0x14 PUSH2 0x100 EXP DUP2 SLOAD SWAP1 PUSH3 0xFFFFFF MUL NOT AND SWAP1 SSTORE PUSH1 0x2 DUP3 ADD PUSH1 0x17 PUSH2 0x100 EXP DUP2 SLOAD SWAP1 PUSH3 0xFFFFFF MUL NOT AND SWAP1 SSTORE POP POP DUP1 PUSH1 0x4 PUSH1 0x0 DUP7 PUSH20 0xFFFFFFFFFFFFFFFFFFFFFFFFFFFFFFFFFFFFFFFF AND PUSH20 0xFFFFFFFFFFFFFFFFFFFFFFFFFFFFFFFFFFFFFFFF AND DUP2 MSTORE PUSH1 0x20 ADD SWAP1 DUP2 MSTORE PUSH1 0x20 ADD PUSH1 0x0 KECCAK256 PUSH1 0x0 DUP6 PUSH20 0xFFFFFFFFFFFFFFFFFFFFFFFFFFFFFFFFFFFFFFFF AND PUSH20 0xFFFFFFFFFFFFFFFFFFFFFFFFFFFFFFFFFFFFFFFF AND DUP2 MSTORE PUSH1 0x20 ADD SWAP1 DUP2 MSTORE PUSH1 0x20 ADD PUSH1 0x0 KECCAK256 PUSH1 0x0 DUP5 PUSH3 0xFFFFFF AND PUSH3 0xFFFFFF AND DUP2 MSTORE PUSH1 0x20 ADD SWAP1 DUP2 MSTORE PUSH1 0x20 ADD PUSH1 0x0 KECCAK256 PUSH1 0x0 PUSH2 0x100 EXP DUP2 SLOAD DUP2 PUSH20 0xFFFFFFFFFFFFFFFFFFFFFFFFFFFFFFFFFFFFFFFF MUL NOT AND SWAP1 DUP4 PUSH20 0xFFFFFFFFFFFFFFFFFFFFFFFFFFFFFFFFFFFFFFFF AND MUL OR SWAP1 SSTORE POP DUP1 PUSH1 0x4 PUSH1 0x0 DUP6 PUSH20 0xFFFFFFFFFFFFFFFFFFFFFFFFFFFFFFFFFFFFFFFF AND PUSH20 0xFFFFFFFFFFFFFFFFFFFFFFFFFFFFFFFFFFFFFFFF AND DUP2 MSTORE PUSH1 0x20 ADD SWAP1 DUP2 MSTORE PUSH1 0x20 ADD PUSH1 0x0 KECCAK256 PUSH1 0x0 DUP7 PUSH20 0xFFFFFFFFFFFFFFFFFFFFFFFFFFFFFFFFFFFFFFFF AND PUSH20 0xFFFFFFFFFFFFFFFFFFFFFFFFFFFFFFFFFFFFFFFF AND DUP2 MSTORE PUSH1 0x20 ADD SWAP1 DUP2 MSTORE PUSH1 0x20 ADD PUSH1 0x0 KECCAK256 PUSH1 0x0 DUP5 PUSH3 0xFFFFFF AND PUSH3 0xFFFFFF AND DUP2 MSTORE PUSH1 0x20 ADD SWAP1 DUP2 MSTORE PUSH1 0x20 ADD PUSH1 0x0 KECCAK256 PUSH1 0x0 PUSH2 0x100 EXP DUP2 SLOAD DUP2 PUSH20 0xFFFFFFFFFFFFFFFFFFFFFFFFFFFFFFFFFFFFFFFF MUL NOT AND SWAP1 DUP4 PUSH20 0xFFFFFFFFFFFFFFFFFFFFFFFFFFFFFFFFFFFFFFFF AND MUL OR SWAP1 SSTORE POP DUP2 PUSH3 0xFFFFFF AND DUP4 PUSH20 0xFFFFFFFFFFFFFFFFFFFFFFFFFFFFFFFFFFFFFFFF AND DUP6 PUSH20 0xFFFFFFFFFFFFFFFFFFFFFFFFFFFFFFFFFFFFFFFF AND PUSH32 0x97D23878912FDA7F82BD5A8502F2C6E9086F5A4728F9054627788B3162F86CED DUP5 PUSH1 0x40 MLOAD PUSH2 0x932 SWAP2 SWAP1 PUSH2 0xB47 JUMP JUMPDEST PUSH1 0x40 MLOAD DUP1 SWAP2 SUB SWAP1 LOG4 SWAP4 SWAP3 POP POP POP JUMP JUMPDEST PUSH1 0x4 PUSH1 0x20 MSTORE DUP3 PUSH1 0x0 MSTORE PUSH1 0x40 PUSH1 0x0 KECCAK256 PUSH1 0x20 MSTORE DUP2 PUSH1 0x0 MSTORE PUSH1 0x40 PUSH1 0x0 KECCAK256 PUSH1 0x20 MSTORE DUP1 PUSH1 0x0 MSTORE PUSH1 0x40 PUSH1 0x0 KECCAK256 PUSH1 0x0 SWAP3 POP SWAP3 POP POP SWAP1 SLOAD SWAP1 PUSH2 0x100 EXP SWAP1 DIV PUSH20 0xFFFFFFFFFFFFFFFFFFFFFFFFFFFFFFFFFFFFFFFF AND DUP2 JUMP JUMPDEST PUSH2 0x6E3E DUP1 PUSH2 0xC1E DUP4 CODECOPY ADD SWAP1 JUMP JUMPDEST PUSH1 0x0 DUP1 REVERT JUMPDEST PUSH1 0x0 PUSH3 0xFFFFFF DUP3 AND SWAP1 POP SWAP2 SWAP1 POP JUMP JUMPDEST PUSH2 0x9BA DUP2 PUSH2 0x9A2 JUMP JUMPDEST DUP2 EQ PUSH2 0x9C5 JUMPI PUSH1 0x0 DUP1 REVERT JUMPDEST POP JUMP JUMPDEST PUSH1 0x0 DUP2 CALLDATALOAD SWAP1 POP PUSH2 0x9D7 DUP2 PUSH2 0x9B1 JUMP JUMPDEST SWAP3 SWAP2 POP POP JUMP JUMPDEST PUSH1 0x0 PUSH1 0x20 DUP3 DUP5 SUB SLT ISZERO PUSH2 0x9F3 JUMPI PUSH2 0x9F2 PUSH2 0x99D JUMP JUMPDEST JUMPDEST PUSH1 0x0 PUSH2 0xA01 DUP5 DUP3 DUP6 ADD PUSH2 0x9C8 JUMP JUMPDEST SWAP2 POP POP SWAP3 SWAP2 POP POP JUMP JUMPDEST PUSH2 0xA13 DUP2 PUSH2 0x9A2 JUMP JUMPDEST DUP3 MSTORE POP POP JUMP JUMPDEST PUSH1 0x0 PUSH1 0x20 DUP3 ADD SWAP1 POP PUSH2 0xA2E PUSH1 0x0 DUP4 ADD DUP5 PUSH2 0xA0A JUMP JUMPDEST SWAP3 SWAP2 POP POP JUMP JUMPDEST PUSH1 0x0 PUSH20 0xFFFFFFFFFFFFFFFFFFFFFFFFFFFFFFFFFFFFFFFF DUP3 AND SWAP1 POP SWAP2 SWAP1 POP JUMP JUMPDEST PUSH1 0x0 PUSH2 0xA5F DUP3 PUSH2 0xA34 JUMP JUMPDEST SWAP1 POP SWAP2 SWAP1 POP JUMP JUMPDEST PUSH2 0xA6F DUP2 PUSH2 0xA54 JUMP JUMPDEST DUP3 MSTORE POP POP JUMP JUMPDEST PUSH1 0x0 PUSH1 0xA0 DUP3 ADD SWAP1 POP PUSH2 0xA8A PUSH1 0x0 DUP4 ADD DUP9 PUSH2 0xA66 JUMP JUMPDEST PUSH2 0xA97 PUSH1 0x20 DUP4 ADD DUP8 PUSH2 0xA66 JUMP JUMPDEST PUSH2 0xAA4 PUSH1 0x40 DUP4 ADD DUP7 PUSH2 0xA66 JUMP JUMPDEST PUSH2 0xAB1 PUSH1 0x60 DUP4 ADD DUP6 PUSH2 0xA0A JUMP JUMPDEST PUSH2 0xABE PUSH1 0x80 DUP4 ADD DUP5 PUSH2 0xA0A JUMP JUMPDEST SWAP7 SWAP6 POP POP POP POP POP POP JUMP JUMPDEST PUSH2 0xAD1 DUP2 PUSH2 0xA54 JUMP JUMPDEST DUP2 EQ PUSH2 0xADC JUMPI PUSH1 0x0 DUP1 REVERT JUMPDEST POP JUMP JUMPDEST PUSH1 0x0 DUP2 CALLDATALOAD SWAP1 POP PUSH2 0xAEE DUP2 PUSH2 0xAC8 JUMP JUMPDEST SWAP3 SWAP2 POP POP JUMP JUMPDEST PUSH1 0x0 DUP1 PUSH1 0x0 PUSH1 0x60 DUP5 DUP7 SUB SLT ISZERO PUSH2 0xB0D JUMPI PUSH2 0xB0C PUSH2 0x99D JUMP JUMPDEST JUMPDEST PUSH1 0x0 PUSH2 0xB1B DUP7 DUP3 DUP8 ADD PUSH2 0xADF JUMP JUMPDEST SWAP4 POP POP PUSH1 0x20 PUSH2 0xB2C DUP7 DUP3 DUP8 ADD PUSH2 0xADF JUMP JUMPDEST SWAP3 POP POP PUSH1 0x40 PUSH2 0xB3D DUP7 DUP3 DUP8 ADD PUSH2 0x9C8 JUMP JUMPDEST SWAP2 POP POP SWAP3 POP SWAP3 POP SWAP3 JUMP JUMPDEST PUSH1 0x0 PUSH1 0x20 DUP3 ADD SWAP1 POP PUSH2 0xB5C PUSH1 0x0 DUP4 ADD DUP5 PUSH2 0xA66 JUMP JUMPDEST SWAP3 SWAP2 POP POP JUMP JUMPDEST PUSH1 0x0 DUP2 PUSH1 0x60 SHL SWAP1 POP SWAP2 SWAP1 POP JUMP JUMPDEST PUSH1 0x0 PUSH2 0xB7A DUP3 PUSH2 0xB62 JUMP JUMPDEST SWAP1 POP SWAP2 SWAP1 POP JUMP JUMPDEST PUSH1 0x0 PUSH2 0xB8C DUP3 PUSH2 0xB6F JUMP JUMPDEST SWAP1 POP SWAP2 SWAP1 POP JUMP JUMPDEST PUSH2 0xBA4 PUSH2 0xB9F DUP3 PUSH2 0xA54 JUMP JUMPDEST PUSH2 0xB81 JUMP JUMPDEST DUP3 MSTORE POP POP JUMP JUMPDEST PUSH1 0x0 DUP2 PUSH1 0xE8 SHL SWAP1 POP SWAP2 SWAP1 POP JUMP JUMPDEST PUSH1 0x0 PUSH2 0xBC2 DUP3 PUSH2 0xBAA JUMP JUMPDEST SWAP1 POP SWAP2 SWAP1 POP JUMP JUMPDEST PUSH2 0xBDA PUSH2 0xBD5 DUP3 PUSH2 0x9A2 JUMP JUMPDEST PUSH2 0xBB7 JUMP JUMPDEST DUP3 MSTORE POP POP JUMP JUMPDEST PUSH1 0x0 PUSH2 0xBEC DUP3 DUP7 PUSH2 0xB93 JUMP JUMPDEST PUSH1 0x14 DUP3 ADD SWAP2 POP PUSH2 0xBFC DUP3 DUP6 PUSH2 0xB93 JUMP JUMPDEST PUSH1 0x14 DUP3 ADD SWAP2 POP PUSH2 0xC0C DUP3 DUP5 PUSH2 0xBC9 JUMP JUMPDEST PUSH1 0x3 DUP3 ADD SWAP2 POP DUP2 SWAP1 POP SWAP5 SWAP4 POP POP POP POP JUMP INVALID PUSH2 0x120 PUSH1 0x40 MSTORE CALLVALUE DUP1 ISZERO PUSH2 0x11 JUMPI PUSH1 0x0 DUP1 REVERT JUMPDEST POP CALLER PUSH20 0xFFFFFFFFFFFFFFFFFFFFFFFFFFFFFFFFFFFFFFFF AND PUSH4 0x89035730 PUSH1 0x40 MLOAD DUP2 PUSH4 0xFFFFFFFF AND PUSH1 0xE0 SHL DUP2 MSTORE PUSH1 0x4 ADD PUSH1 0xA0 PUSH1 0x40 MLOAD DUP1 DUP4 SUB DUP2 PUSH1 0x0 DUP8 GAS CALL ISZERO DUP1 ISZERO PUSH2 0x5F JUMPI RETURNDATASIZE PUSH1 0x0 DUP1 RETURNDATACOPY RETURNDATASIZE PUSH1 0x0 REVERT JUMPDEST POP POP POP POP PUSH1 0x40 MLOAD RETURNDATASIZE PUSH1 0x1F NOT PUSH1 0x1F DUP3 ADD AND DUP3 ADD DUP1 PUSH1 0x40 MSTORE POP DUP2 ADD SWAP1 PUSH2 0x83 SWAP2 SWAP1 PUSH2 0x1E7 JUMP JUMPDEST DUP1 PUSH3 0xFFFFFF AND PUSH2 0x100 SWAP1 PUSH3 0xFFFFFF AND DUP2 MSTORE POP DUP2 PUSH3 0xFFFFFF AND PUSH1 0xE0 SWAP1 PUSH3 0xFFFFFF AND DUP2 MSTORE POP DUP3 PUSH20 0xFFFFFFFFFFFFFFFFFFFFFFFFFFFFFFFFFFFFFFFF AND PUSH1 0xC0 SWAP1 PUSH20 0xFFFFFFFFFFFFFFFFFFFFFFFFFFFFFFFFFFFFFFFF AND DUP2 MSTORE POP DUP4 PUSH20 0xFFFFFFFFFFFFFFFFFFFFFFFFFFFFFFFFFFFFFFFF AND PUSH1 0xA0 SWAP1 PUSH20 0xFFFFFFFFFFFFFFFFFFFFFFFFFFFFFFFFFFFFFFFF AND DUP2 MSTORE POP DUP5 PUSH20 0xFFFFFFFFFFFFFFFFFFFFFFFFFFFFFFFFFFFFFFFF AND PUSH1 0x80 SWAP1 PUSH20 0xFFFFFFFFFFFFFFFFFFFFFFFFFFFFFFFFFFFFFFFF AND DUP2 MSTORE POP POP POP POP POP POP PUSH2 0x262 JUMP JUMPDEST PUSH1 0x0 DUP1 REVERT JUMPDEST PUSH1 0x0 PUSH20 0xFFFFFFFFFFFFFFFFFFFFFFFFFFFFFFFFFFFFFFFF DUP3 AND SWAP1 POP SWAP2 SWAP1 POP JUMP JUMPDEST PUSH1 0x0 PUSH2 0x179 DUP3 PUSH2 0x14E JUMP JUMPDEST SWAP1 POP SWAP2 SWAP1 POP JUMP JUMPDEST PUSH2 0x189 DUP2 PUSH2 0x16E JUMP JUMPDEST DUP2 EQ PUSH2 0x194 JUMPI PUSH1 0x0 DUP1 REVERT JUMPDEST POP JUMP JUMPDEST PUSH1 0x0 DUP2 MLOAD SWAP1 POP PUSH2 0x1A6 DUP2 PUSH2 0x180 JUMP JUMPDEST SWAP3 SWAP2 POP POP JUMP JUMPDEST PUSH1 0x0 PUSH3 0xFFFFFF DUP3 AND SWAP1 POP SWAP2 SWAP1 POP JUMP JUMPDEST PUSH2 0x1C4 DUP2 PUSH2 0x1AC JUMP JUMPDEST DUP2 EQ PUSH2 0x1CF JUMPI PUSH1 0x0 DUP1 REVERT JUMPDEST POP JUMP JUMPDEST PUSH1 0x0 DUP2 MLOAD SWAP1 POP PUSH2 0x1E1 DUP2 PUSH2 0x1BB JUMP JUMPDEST SWAP3 SWAP2 POP POP JUMP JUMPDEST PUSH1 0x0 DUP1 PUSH1 0x0 DUP1 PUSH1 0x0 PUSH1 0xA0 DUP7 DUP9 SUB SLT ISZERO PUSH2 0x203 JUMPI PUSH2 0x202 PUSH2 0x149 JUMP JUMPDEST JUMPDEST PUSH1 0x0 PUSH2 0x211 DUP9 DUP3 DUP10 ADD PUSH2 0x197 JUMP JUMPDEST SWAP6 POP POP PUSH1 0x20 PUSH2 0x222 DUP9 DUP3 DUP10 ADD PUSH2 0x197 JUMP JUMPDEST SWAP5 POP POP PUSH1 0x40 PUSH2 0x233 DUP9 DUP3 DUP10 ADD PUSH2 0x197 JUMP JUMPDEST SWAP4 POP POP PUSH1 0x60 PUSH2 0x244 DUP9 DUP3 DUP10 ADD PUSH2 0x1D2 JUMP JUMPDEST SWAP3 POP POP PUSH1 0x80 PUSH2 0x255 DUP9 DUP3 DUP10 ADD PUSH2 0x1D2 JUMP JUMPDEST SWAP2 POP POP SWAP3 SWAP6 POP SWAP3 SWAP6 SWAP1 SWAP4 POP JUMP JUMPDEST PUSH1 0x80 MLOAD PUSH1 0xA0 MLOAD PUSH1 0xC0 MLOAD PUSH1 0xE0 MLOAD PUSH2 0x100 MLOAD PUSH2 0x6B1A PUSH2 0x324 PUSH1 0x0 CODECOPY PUSH1 0x0 DUP2 DUP2 PUSH2 0x92D ADD MSTORE DUP2 DUP2 PUSH2 0x964 ADD MSTORE DUP2 DUP2 PUSH2 0x1A3A ADD MSTORE PUSH2 0x230E ADD MSTORE PUSH1 0x0 DUP2 DUP2 PUSH2 0x1589 ADD MSTORE DUP2 DUP2 PUSH2 0x1913 ADD MSTORE DUP2 DUP2 PUSH2 0x2783 ADD MSTORE PUSH2 0x27C4 ADD MSTORE PUSH1 0x0 DUP2 DUP2 PUSH2 0xA35 ADD MSTORE DUP2 DUP2 PUSH2 0xB83 ADD MSTORE DUP2 DUP2 PUSH2 0xD7E ADD MSTORE DUP2 DUP2 PUSH2 0x1153 ADD MSTORE DUP2 DUP2 PUSH2 0x15AD ADD MSTORE DUP2 DUP2 PUSH2 0x1F6E ADD MSTORE PUSH2 0x2A22 ADD MSTORE PUSH1 0x0 DUP2 DUP2 PUSH2 0x462 ADD MSTORE DUP2 DUP2 PUSH2 0x997 ADD MSTORE DUP2 DUP2 PUSH2 0xADA ADD MSTORE DUP2 DUP2 PUSH2 0xCA0 ADD MSTORE DUP2 DUP2 PUSH2 0x1033 ADD MSTORE DUP2 DUP2 PUSH2 0x20E5 ADD MSTORE PUSH2 0x2981 ADD MSTORE PUSH1 0x0 PUSH2 0x1565 ADD MSTORE PUSH2 0x6B1A PUSH1 0x0 RETURN INVALID PUSH1 0x80 PUSH1 0x40 MSTORE CALLVALUE DUP1 ISZERO PUSH2 0x10 JUMPI PUSH1 0x0 DUP1 REVERT JUMPDEST POP PUSH1 0x4 CALLDATASIZE LT PUSH2 0x137 JUMPI PUSH1 0x0 CALLDATALOAD PUSH1 0xE0 SHR DUP1 PUSH4 0x5339C296 GT PUSH2 0xB8 JUMPI DUP1 PUSH4 0xD21220A7 GT PUSH2 0x7C JUMPI DUP1 PUSH4 0xD21220A7 EQ PUSH2 0x385 JUMPI DUP1 PUSH4 0xDD5A12D8 EQ PUSH2 0x3A3 JUMPI DUP1 PUSH4 0xDDCA3F43 EQ PUSH2 0x3D4 JUMPI DUP1 PUSH4 0xF3058399 EQ PUSH2 0x3F2 JUMPI DUP1 PUSH4 0xF30DBA93 EQ PUSH2 0x410 JUMPI DUP1 PUSH4 0xF637731D EQ PUSH2 0x444 JUMPI PUSH2 0x137 JUMP JUMPDEST DUP1 PUSH4 0x5339C296 EQ PUSH2 0x2B8 JUMPI DUP1 PUSH4 0x883BDBFD EQ PUSH2 0x2E8 JUMPI DUP1 PUSH4 0xA34123A7 EQ PUSH2 0x318 JUMPI DUP1 PUSH4 0xC45A0155 EQ PUSH2 0x349 JUMPI DUP1 PUSH4 0xD0C93A7C EQ PUSH2 0x367 JUMPI PUSH2 0x137 JUMP JUMPDEST DUP1 PUSH4 0x3C8A7D8D GT PUSH2 0xFF JUMPI DUP1 PUSH4 0x3C8A7D8D EQ PUSH2 0x1E8 JUMPI DUP1 PUSH4 0x46141319 EQ PUSH2 0x219 JUMPI DUP1 PUSH4 0x4A182392 EQ PUSH2 0x237 JUMPI DUP1 PUSH4 0x4F1EB3D8 EQ PUSH2 0x253 JUMPI DUP1 PUSH4 0x514EA4BF EQ PUSH2 0x284 JUMPI PUSH2 0x137 JUMP JUMPDEST DUP1 PUSH4 0xDFE1681 EQ PUSH2 0x13C JUMPI DUP1 PUSH4 0x1A686502 EQ PUSH2 0x15A JUMPI DUP1 PUSH4 0x252C09D7 EQ PUSH2 0x178 JUMPI DUP1 PUSH4 0x32148F67 EQ PUSH2 0x1AA JUMPI DUP1 PUSH4 0x3850C7BD EQ PUSH2 0x1C6 JUMPI JUMPDEST PUSH1 0x0 DUP1 REVERT JUMPDEST PUSH2 0x144 PUSH2 0x460 JUMP JUMPDEST PUSH1 0x40 MLOAD PUSH2 0x151 SWAP2 SWAP1 PUSH2 0x5192 JUMP JUMPDEST PUSH1 0x40 MLOAD DUP1 SWAP2 SUB SWAP1 RETURN JUMPDEST PUSH2 0x162 PUSH2 0x484 JUMP JUMPDEST PUSH1 0x40 MLOAD PUSH2 0x16F SWAP2 SWAP1 PUSH2 0x51D8 JUMP JUMPDEST PUSH1 0x40 MLOAD DUP1 SWAP2 SUB SWAP1 RETURN JUMPDEST PUSH2 0x192 PUSH1 0x4 DUP1 CALLDATASIZE SUB DUP2 ADD SWAP1 PUSH2 0x18D SWAP2 SWAP1 PUSH2 0x5233 JUMP JUMPDEST PUSH2 0x4A6 JUMP JUMPDEST PUSH1 0x40 MLOAD PUSH2 0x1A1 SWAP4 SWAP3 SWAP2 SWAP1 PUSH2 0x52B6 JUMP JUMPDEST PUSH1 0x40 MLOAD DUP1 SWAP2 SUB SWAP1 RETURN JUMPDEST PUSH2 0x1C4 PUSH1 0x4 DUP1 CALLDATASIZE SUB DUP2 ADD SWAP1 PUSH2 0x1BF SWAP2 SWAP1 PUSH2 0x5327 JUMP JUMPDEST PUSH2 0x4FE JUMP JUMPDEST STOP JUMPDEST PUSH2 0x1CE PUSH2 0x59E JUMP JUMPDEST PUSH1 0x40 MLOAD PUSH2 0x1DF SWAP6 SWAP5 SWAP4 SWAP3 SWAP2 SWAP1 PUSH2 0x538E JUMP JUMPDEST PUSH1 0x40 MLOAD DUP1 SWAP2 SUB SWAP1 RETURN JUMPDEST PUSH2 0x202 PUSH1 0x4 DUP1 CALLDATASIZE SUB DUP2 ADD SWAP1 PUSH2 0x1FD SWAP2 SWAP1 PUSH2 0x54CA JUMP JUMPDEST PUSH2 0x619 JUMP JUMPDEST PUSH1 0x40 MLOAD PUSH2 0x210 SWAP3 SWAP2 SWAP1 PUSH2 0x5573 JUMP JUMPDEST PUSH1 0x40 MLOAD DUP1 SWAP2 SUB SWAP1 RETURN JUMPDEST PUSH2 0x221 PUSH2 0x91F JUMP JUMPDEST PUSH1 0x40 MLOAD PUSH2 0x22E SWAP2 SWAP1 PUSH2 0x559C JUMP JUMPDEST PUSH1 0x40 MLOAD DUP1 SWAP2 SUB SWAP1 RETURN JUMPDEST PUSH2 0x251 PUSH1 0x4 DUP1 CALLDATASIZE SUB DUP2 ADD SWAP1 PUSH2 0x24C SWAP2 SWAP1 PUSH2 0x55B7 JUMP JUMPDEST PUSH2 0x925 JUMP JUMPDEST STOP JUMPDEST PUSH2 0x26D PUSH1 0x4 DUP1 CALLDATASIZE SUB DUP2 ADD SWAP1 PUSH2 0x268 SWAP2 SWAP1 PUSH2 0x562B JUMP JUMPDEST PUSH2 0xEA8 JUMP JUMPDEST PUSH1 0x40 MLOAD PUSH2 0x27B SWAP3 SWAP2 SWAP1 PUSH2 0x56A6 JUMP JUMPDEST PUSH1 0x40 MLOAD DUP1 SWAP2 SUB SWAP1 RETURN JUMPDEST PUSH2 0x29E PUSH1 0x4 DUP1 CALLDATASIZE SUB DUP2 ADD SWAP1 PUSH2 0x299 SWAP2 SWAP1 PUSH2 0x5705 JUMP JUMPDEST PUSH2 0x1256 JUMP JUMPDEST PUSH1 0x40 MLOAD PUSH2 0x2AF SWAP6 SWAP5 SWAP4 SWAP3 SWAP2 SWAP1 PUSH2 0x5732 JUMP JUMPDEST PUSH1 0x40 MLOAD DUP1 SWAP2 SUB SWAP1 RETURN JUMPDEST PUSH2 0x2D2 PUSH1 0x4 DUP1 CALLDATASIZE SUB DUP2 ADD SWAP1 PUSH2 0x2CD SWAP2 SWAP1 PUSH2 0x57BE JUMP JUMPDEST PUSH2 0x12E0 JUMP JUMPDEST PUSH1 0x40 MLOAD PUSH2 0x2DF SWAP2 SWAP1 PUSH2 0x559C JUMP JUMPDEST PUSH1 0x40 MLOAD DUP1 SWAP2 SUB SWAP1 RETURN JUMPDEST PUSH2 0x302 PUSH1 0x4 DUP1 CALLDATASIZE SUB DUP2 ADD SWAP1 PUSH2 0x2FD SWAP2 SWAP1 PUSH2 0x5841 JUMP JUMPDEST PUSH2 0x12F8 JUMP JUMPDEST PUSH1 0x40 MLOAD PUSH2 0x30F SWAP2 SWAP1 PUSH2 0x594C JUMP JUMPDEST PUSH1 0x40 MLOAD DUP1 SWAP2 SUB SWAP1 RETURN JUMPDEST PUSH2 0x332 PUSH1 0x4 DUP1 CALLDATASIZE SUB DUP2 ADD SWAP1 PUSH2 0x32D SWAP2 SWAP1 PUSH2 0x596E JUMP JUMPDEST PUSH2 0x139E JUMP JUMPDEST PUSH1 0x40 MLOAD PUSH2 0x340 SWAP3 SWAP2 SWAP1 PUSH2 0x5573 JUMP JUMPDEST PUSH1 0x40 MLOAD DUP1 SWAP2 SUB SWAP1 RETURN JUMPDEST PUSH2 0x351 PUSH2 0x1563 JUMP JUMPDEST PUSH1 0x40 MLOAD PUSH2 0x35E SWAP2 SWAP1 PUSH2 0x5192 JUMP JUMPDEST PUSH1 0x40 MLOAD DUP1 SWAP2 SUB SWAP1 RETURN JUMPDEST PUSH2 0x36F PUSH2 0x1587 JUMP JUMPDEST PUSH1 0x40 MLOAD PUSH2 0x37C SWAP2 SWAP1 PUSH2 0x59DF JUMP JUMPDEST PUSH1 0x40 MLOAD DUP1 SWAP2 SUB SWAP1 RETURN JUMPDEST PUSH2 0x38D PUSH2 0x15AB JUMP JUMPDEST PUSH1 0x40 MLOAD PUSH2 0x39A SWAP2 SWAP1 PUSH2 0x5192 JUMP JUMPDEST PUSH1 0x40 MLOAD DUP1 SWAP2 SUB SWAP1 RETURN JUMPDEST PUSH2 0x3BD PUSH1 0x4 DUP1 CALLDATASIZE SUB DUP2 ADD SWAP1 PUSH2 0x3B8 SWAP2 SWAP1 PUSH2 0x5A52 JUMP JUMPDEST PUSH2 0x15CF JUMP JUMPDEST PUSH1 0x40 MLOAD PUSH2 0x3CB SWAP3 SWAP2 SWAP1 PUSH2 0x5B05 JUMP JUMPDEST PUSH1 0x40 MLOAD DUP1 SWAP2 SUB SWAP1 RETURN JUMPDEST PUSH2 0x3DC PUSH2 0x230C JUMP JUMPDEST PUSH1 0x40 MLOAD PUSH2 0x3E9 SWAP2 SWAP1 PUSH2 0x59DF JUMP JUMPDEST PUSH1 0x40 MLOAD DUP1 SWAP2 SUB SWAP1 RETURN JUMPDEST PUSH2 0x3FA PUSH2 0x2330 JUMP JUMPDEST PUSH1 0x40 MLOAD PUSH2 0x407 SWAP2 SWAP1 PUSH2 0x559C JUMP JUMPDEST PUSH1 0x40 MLOAD DUP1 SWAP2 SUB SWAP1 RETURN JUMPDEST PUSH2 0x42A PUSH1 0x4 DUP1 CALLDATASIZE SUB DUP2 ADD SWAP1 PUSH2 0x425 SWAP2 SWAP1 PUSH2 0x5B2E JUMP JUMPDEST PUSH2 0x2336 JUMP JUMPDEST PUSH1 0x40 MLOAD PUSH2 0x43B SWAP6 SWAP5 SWAP4 SWAP3 SWAP2 SWAP1 PUSH2 0x5B77 JUMP JUMPDEST PUSH1 0x40 MLOAD DUP1 SWAP2 SUB SWAP1 RETURN JUMPDEST PUSH2 0x45E PUSH1 0x4 DUP1 CALLDATASIZE SUB DUP2 ADD SWAP1 PUSH2 0x459 SWAP2 SWAP1 PUSH2 0x5BCA JUMP JUMPDEST PUSH2 0x23A2 JUMP JUMPDEST STOP JUMPDEST PUSH32 0x0 DUP2 JUMP JUMPDEST PUSH1 0x3 PUSH1 0x0 SWAP1 SLOAD SWAP1 PUSH2 0x100 EXP SWAP1 DIV PUSH16 0xFFFFFFFFFFFFFFFFFFFFFFFFFFFFFFFF AND DUP2 JUMP JUMPDEST PUSH1 0x7 DUP2 PUSH2 0xFFFF DUP2 LT PUSH2 0x4B7 JUMPI PUSH1 0x0 DUP1 REVERT JUMPDEST ADD PUSH1 0x0 SWAP2 POP SWAP1 POP DUP1 PUSH1 0x0 ADD PUSH1 0x0 SWAP1 SLOAD SWAP1 PUSH2 0x100 EXP SWAP1 DIV PUSH4 0xFFFFFFFF AND SWAP1 DUP1 PUSH1 0x0 ADD PUSH1 0x4 SWAP1 SLOAD SWAP1 PUSH2 0x100 EXP SWAP1 DIV PUSH1 0x6 SIGNEXTEND SWAP1 DUP1 PUSH1 0x0 ADD PUSH1 0xB SWAP1 SLOAD SWAP1 PUSH2 0x100 EXP SWAP1 DIV PUSH1 0xFF AND SWAP1 POP DUP4 JUMP JUMPDEST PUSH1 0x0 PUSH1 0x2 PUSH1 0x0 ADD PUSH1 0x1B SWAP1 SLOAD SWAP1 PUSH2 0x100 EXP SWAP1 DIV PUSH2 0xFFFF AND SWAP1 POP PUSH1 0x0 PUSH2 0x52E DUP3 DUP5 PUSH1 0x7 PUSH2 0x2576 SWAP1 SWAP3 SWAP2 SWAP1 PUSH4 0xFFFFFFFF AND JUMP JUMPDEST SWAP1 POP DUP2 PUSH2 0xFFFF AND DUP2 PUSH2 0xFFFF AND EQ PUSH2 0x599 JUMPI DUP1 PUSH1 0x2 PUSH1 0x0 ADD PUSH1 0x1B PUSH2 0x100 EXP DUP2 SLOAD DUP2 PUSH2 0xFFFF MUL NOT AND SWAP1 DUP4 PUSH2 0xFFFF AND MUL OR SWAP1 SSTORE POP PUSH32 0xAC49E518F90A358F652E4400164F05A5D8F7E35E7747279BC3A93DBF584E125A DUP3 DUP3 PUSH1 0x40 MLOAD PUSH2 0x590 SWAP3 SWAP2 SWAP1 PUSH2 0x5BF7 JUMP JUMPDEST PUSH1 0x40 MLOAD DUP1 SWAP2 SUB SWAP1 LOG1 JUMPDEST POP POP POP JUMP JUMPDEST PUSH1 0x2 DUP1 PUSH1 0x0 ADD PUSH1 0x0 SWAP1 SLOAD SWAP1 PUSH2 0x100 EXP SWAP1 DIV PUSH20 0xFFFFFFFFFFFFFFFFFFFFFFFFFFFFFFFFFFFFFFFF AND SWAP1 DUP1 PUSH1 0x0 ADD PUSH1 0x14 SWAP1 SLOAD SWAP1 PUSH2 0x100 EXP SWAP1 DIV PUSH1 0x2 SIGNEXTEND SWAP1 DUP1 PUSH1 0x0 ADD PUSH1 0x17 SWAP1 SLOAD SWAP1 PUSH2 0x100 EXP SWAP1 DIV PUSH2 0xFFFF AND SWAP1 DUP1 PUSH1 0x0 ADD PUSH1 0x19 SWAP1 SLOAD SWAP1 PUSH2 0x100 EXP SWAP1 DIV PUSH2 0xFFFF AND SWAP1 DUP1 PUSH1 0x0 ADD PUSH1 0x1B SWAP1 SLOAD SWAP1 PUSH2 0x100 EXP SWAP1 DIV PUSH2 0xFFFF AND SWAP1 POP DUP6 JUMP JUMPDEST PUSH1 0x0 DUP1 DUP6 PUSH1 0x2 SIGNEXTEND DUP8 PUSH1 0x2 SIGNEXTEND SLT ISZERO DUP1 PUSH2 0x656 JUMPI POP PUSH32 0xFFFFFFFFFFFFFFFFFFFFFFFFFFFFFFFFFFFFFFFFFFFFFFFFFFFFFFFFFFF27618 PUSH1 0x2 SIGNEXTEND DUP8 PUSH1 0x2 SIGNEXTEND SLT JUMPDEST DUP1 PUSH2 0x68F JUMPI POP PUSH32 0xFFFFFFFFFFFFFFFFFFFFFFFFFFFFFFFFFFFFFFFFFFFFFFFFFFFFFFFFFFF27618 PUSH2 0x686 SWAP1 PUSH2 0x5C4F JUMP JUMPDEST PUSH1 0x2 SIGNEXTEND DUP7 PUSH1 0x2 SIGNEXTEND SGT JUMPDEST ISZERO PUSH2 0x6C6 JUMPI PUSH1 0x40 MLOAD PUSH32 0x64847D000000000000000000000000000000000000000000000000000000000 DUP2 MSTORE PUSH1 0x4 ADD PUSH1 0x40 MLOAD DUP1 SWAP2 SUB SWAP1 REVERT JUMPDEST PUSH1 0x0 DUP6 PUSH16 0xFFFFFFFFFFFFFFFFFFFFFFFFFFFFFFFF AND SUB PUSH2 0x712 JUMPI PUSH1 0x40 MLOAD PUSH32 0x1007454800000000000000000000000000000000000000000000000000000000 DUP2 MSTORE PUSH1 0x4 ADD PUSH1 0x40 MLOAD DUP1 SWAP2 SUB SWAP1 REVERT JUMPDEST PUSH1 0x0 DUP1 PUSH2 0x75D PUSH1 0x40 MLOAD DUP1 PUSH1 0x80 ADD PUSH1 0x40 MSTORE DUP1 DUP13 PUSH20 0xFFFFFFFFFFFFFFFFFFFFFFFFFFFFFFFFFFFFFFFF AND DUP2 MSTORE PUSH1 0x20 ADD DUP12 PUSH1 0x2 SIGNEXTEND DUP2 MSTORE PUSH1 0x20 ADD DUP11 PUSH1 0x2 SIGNEXTEND DUP2 MSTORE PUSH1 0x20 ADD DUP10 PUSH1 0xF SIGNEXTEND DUP2 MSTORE POP PUSH2 0x25FA JUMP JUMPDEST SWAP3 POP SWAP3 POP POP DUP2 SWAP4 POP DUP1 SWAP3 POP PUSH1 0x0 DUP1 PUSH1 0x0 DUP7 GT ISZERO PUSH2 0x77F JUMPI PUSH2 0x77C PUSH2 0x297D JUMP JUMPDEST SWAP2 POP JUMPDEST PUSH1 0x0 DUP6 GT ISZERO PUSH2 0x793 JUMPI PUSH2 0x790 PUSH2 0x2A1E JUMP JUMPDEST SWAP1 POP JUMPDEST CALLER PUSH20 0xFFFFFFFFFFFFFFFFFFFFFFFFFFFFFFFFFFFFFFFF AND PUSH4 0xD3487997 DUP8 DUP8 DUP12 DUP12 PUSH1 0x40 MLOAD DUP6 PUSH4 0xFFFFFFFF AND PUSH1 0xE0 SHL DUP2 MSTORE PUSH1 0x4 ADD PUSH2 0x7D2 SWAP5 SWAP4 SWAP3 SWAP2 SWAP1 PUSH2 0x5CF5 JUMP JUMPDEST PUSH1 0x0 PUSH1 0x40 MLOAD DUP1 DUP4 SUB DUP2 PUSH1 0x0 DUP8 DUP1 EXTCODESIZE ISZERO DUP1 ISZERO PUSH2 0x7EC JUMPI PUSH1 0x0 DUP1 REVERT JUMPDEST POP GAS CALL ISZERO DUP1 ISZERO PUSH2 0x800 JUMPI RETURNDATASIZE PUSH1 0x0 DUP1 RETURNDATACOPY RETURNDATASIZE PUSH1 0x0 REVERT JUMPDEST POP POP POP POP PUSH1 0x0 DUP7 GT DUP1 ISZERO PUSH2 0x825 JUMPI POP PUSH2 0x817 PUSH2 0x297D JUMP JUMPDEST DUP7 DUP4 PUSH2 0x823 SWAP2 SWAP1 PUSH2 0x5D35 JUMP JUMPDEST GT JUMPDEST ISZERO PUSH2 0x85C JUMPI PUSH1 0x40 MLOAD PUSH32 0x98FB56100000000000000000000000000000000000000000000000000000000 DUP2 MSTORE PUSH1 0x4 ADD PUSH1 0x40 MLOAD DUP1 SWAP2 SUB SWAP1 REVERT JUMPDEST PUSH1 0x0 DUP6 GT DUP1 ISZERO PUSH2 0x87D JUMPI POP PUSH2 0x86F PUSH2 0x2A1E JUMP JUMPDEST DUP6 DUP3 PUSH2 0x87B SWAP2 SWAP1 PUSH2 0x5D35 JUMP JUMPDEST GT JUMPDEST ISZERO PUSH2 0x8B4 JUMPI PUSH1 0x40 MLOAD PUSH32 0x98FB56100000000000000000000000000000000000000000000000000000000 DUP2 MSTORE PUSH1 0x4 ADD PUSH1 0x40 MLOAD DUP1 SWAP2 SUB SWAP1 REVERT JUMPDEST DUP10 PUSH1 0x2 SIGNEXTEND DUP12 PUSH1 0x2 SIGNEXTEND DUP14 PUSH20 0xFFFFFFFFFFFFFFFFFFFFFFFFFFFFFFFFFFFFFFFF AND PUSH32 0x7A53080BA414158BE7EC69B987B5FB7D07DEE101FE85488F0853AE16239D0BDE CALLER DUP14 DUP12 DUP12 PUSH1 0x40 MLOAD PUSH2 0x908 SWAP5 SWAP4 SWAP3 SWAP2 SWAP1 PUSH2 0x5D69 JUMP JUMPDEST PUSH1 0x40 MLOAD DUP1 SWAP2 SUB SWAP1 LOG4 POP POP POP POP SWAP7 POP SWAP7 SWAP5 POP POP POP POP POP JUMP JUMPDEST PUSH1 0x1 SLOAD DUP2 JUMP JUMPDEST PUSH1 0x0 PUSH2 0x95A DUP6 PUSH32 0x0 PUSH3 0xFFFFFF AND PUSH3 0xF4240 PUSH2 0x2ABF JUMP JUMPDEST SWAP1 POP PUSH1 0x0 PUSH2 0x991 DUP6 PUSH32 0x0 PUSH3 0xFFFFFF AND PUSH3 0xF4240 PUSH2 0x2ABF JUMP JUMPDEST SWAP1 POP PUSH1 0x0 PUSH32 0x0 PUSH20 0xFFFFFFFFFFFFFFFFFFFFFFFFFFFFFFFFFFFFFFFF AND PUSH4 0x70A08231 ADDRESS PUSH1 0x40 MLOAD DUP3 PUSH4 0xFFFFFFFF AND PUSH1 0xE0 SHL DUP2 MSTORE PUSH1 0x4 ADD PUSH2 0x9EE SWAP2 SWAP1 PUSH2 0x5192 JUMP JUMPDEST PUSH1 0x20 PUSH1 0x40 MLOAD DUP1 DUP4 SUB DUP2 DUP7 GAS STATICCALL ISZERO DUP1 ISZERO PUSH2 0xA0B JUMPI RETURNDATASIZE PUSH1 0x0 DUP1 RETURNDATACOPY RETURNDATASIZE PUSH1 0x0 REVERT JUMPDEST POP POP POP POP PUSH1 0x40 MLOAD RETURNDATASIZE PUSH1 0x1F NOT PUSH1 0x1F DUP3 ADD AND DUP3 ADD DUP1 PUSH1 0x40 MSTORE POP DUP2 ADD SWAP1 PUSH2 0xA2F SWAP2 SWAP1 PUSH2 0x5DC3 JUMP JUMPDEST SWAP1 POP PUSH1 0x0 PUSH32 0x0 PUSH20 0xFFFFFFFFFFFFFFFFFFFFFFFFFFFFFFFFFFFFFFFF AND PUSH4 0x70A08231 ADDRESS PUSH1 0x40 MLOAD DUP3 PUSH4 0xFFFFFFFF AND PUSH1 0xE0 SHL DUP2 MSTORE PUSH1 0x4 ADD PUSH2 0xA8C SWAP2 SWAP1 PUSH2 0x5192 JUMP JUMPDEST PUSH1 0x20 PUSH1 0x40 MLOAD DUP1 DUP4 SUB DUP2 DUP7 GAS STATICCALL ISZERO DUP1 ISZERO PUSH2 0xAA9 JUMPI RETURNDATASIZE PUSH1 0x0 DUP1 RETURNDATACOPY RETURNDATASIZE PUSH1 0x0 REVERT JUMPDEST POP POP POP POP PUSH1 0x40 MLOAD RETURNDATASIZE PUSH1 0x1F NOT PUSH1 0x1F DUP3 ADD AND DUP3 ADD DUP1 PUSH1 0x40 MSTORE POP DUP2 ADD SWAP1 PUSH2 0xACD SWAP2 SWAP1 PUSH2 0x5DC3 JUMP JUMPDEST SWAP1 POP PUSH1 0x0 DUP9 GT ISZERO PUSH2 0xB78 JUMPI PUSH32 0x0 PUSH20 0xFFFFFFFFFFFFFFFFFFFFFFFFFFFFFFFFFFFFFFFF AND PUSH4 0xA9059CBB CALLER DUP11 PUSH1 0x40 MLOAD DUP4 PUSH4 0xFFFFFFFF AND PUSH1 0xE0 SHL DUP2 MSTORE PUSH1 0x4 ADD PUSH2 0xB33 SWAP3 SWAP2 SWAP1 PUSH2 0x5DF0 JUMP JUMPDEST PUSH1 0x20 PUSH1 0x40 MLOAD DUP1 DUP4 SUB DUP2 PUSH1 0x0 DUP8 GAS CALL ISZERO DUP1 ISZERO PUSH2 0xB52 JUMPI RETURNDATASIZE PUSH1 0x0 DUP1 RETURNDATACOPY RETURNDATASIZE PUSH1 0x0 REVERT JUMPDEST POP POP POP POP PUSH1 0x40 MLOAD RETURNDATASIZE PUSH1 0x1F NOT PUSH1 0x1F DUP3 ADD AND DUP3 ADD DUP1 PUSH1 0x40 MSTORE POP DUP2 ADD SWAP1 PUSH2 0xB76 SWAP2 SWAP1 PUSH2 0x5E2E JUMP JUMPDEST POP JUMPDEST PUSH1 0x0 DUP8 GT ISZERO PUSH2 0xC21 JUMPI PUSH32 0x0 PUSH20 0xFFFFFFFFFFFFFFFFFFFFFFFFFFFFFFFFFFFFFFFF AND PUSH4 0xA9059CBB CALLER DUP10 PUSH1 0x40 MLOAD DUP4 PUSH4 0xFFFFFFFF AND PUSH1 0xE0 SHL DUP2 MSTORE PUSH1 0x4 ADD PUSH2 0xBDC SWAP3 SWAP2 SWAP1 PUSH2 0x5DF0 JUMP JUMPDEST PUSH1 0x20 PUSH1 0x40 MLOAD DUP1 DUP4 SUB DUP2 PUSH1 0x0 DUP8 GAS CALL ISZERO DUP1 ISZERO PUSH2 0xBFB JUMPI RETURNDATASIZE PUSH1 0x0 DUP1 RETURNDATACOPY RETURNDATASIZE PUSH1 0x0 REVERT JUMPDEST POP POP POP POP PUSH1 0x40 MLOAD RETURNDATASIZE PUSH1 0x1F NOT PUSH1 0x1F DUP3 ADD AND DUP3 ADD DUP1 PUSH1 0x40 MSTORE POP DUP2 ADD SWAP1 PUSH2 0xC1F SWAP2 SWAP1 PUSH2 0x5E2E JUMP JUMPDEST POP JUMPDEST CALLER PUSH20 0xFFFFFFFFFFFFFFFFFFFFFFFFFFFFFFFFFFFFFFFF AND PUSH4 0xE9CBAFB0 DUP6 DUP6 DUP10 DUP10 PUSH1 0x40 MLOAD DUP6 PUSH4 0xFFFFFFFF AND PUSH1 0xE0 SHL DUP2 MSTORE PUSH1 0x4 ADD PUSH2 0xC60 SWAP5 SWAP4 SWAP3 SWAP2 SWAP1 PUSH2 0x5CF5 JUMP JUMPDEST PUSH1 0x0 PUSH1 0x40 MLOAD DUP1 DUP4 SUB DUP2 PUSH1 0x0 DUP8 DUP1 EXTCODESIZE ISZERO DUP1 ISZERO PUSH2 0xC7A JUMPI PUSH1 0x0 DUP1 REVERT JUMPDEST POP GAS CALL ISZERO DUP1 ISZERO PUSH2 0xC8E JUMPI RETURNDATASIZE PUSH1 0x0 DUP1 RETURNDATACOPY RETURNDATASIZE PUSH1 0x0 REVERT JUMPDEST POP POP POP POP DUP4 DUP3 PUSH2 0xC9E SWAP2 SWAP1 PUSH2 0x5D35 JUMP JUMPDEST PUSH32 0x0 PUSH20 0xFFFFFFFFFFFFFFFFFFFFFFFFFFFFFFFFFFFFFFFF AND PUSH4 0x70A08231 ADDRESS PUSH1 0x40 MLOAD DUP3 PUSH4 0xFFFFFFFF AND PUSH1 0xE0 SHL DUP2 MSTORE PUSH1 0x4 ADD PUSH2 0xCF7 SWAP2 SWAP1 PUSH2 0x5192 JUMP JUMPDEST PUSH1 0x20 PUSH1 0x40 MLOAD DUP1 DUP4 SUB DUP2 DUP7 GAS STATICCALL ISZERO DUP1 ISZERO PUSH2 0xD14 JUMPI RETURNDATASIZE PUSH1 0x0 DUP1 RETURNDATACOPY RETURNDATASIZE PUSH1 0x0 REVERT JUMPDEST POP POP POP POP PUSH1 0x40 MLOAD RETURNDATASIZE PUSH1 0x1F NOT PUSH1 0x1F DUP3 ADD AND DUP3 ADD DUP1 PUSH1 0x40 MSTORE POP DUP2 ADD SWAP1 PUSH2 0xD38 SWAP2 SWAP1 PUSH2 0x5DC3 JUMP JUMPDEST LT ISZERO PUSH2 0xD70 JUMPI PUSH1 0x40 MLOAD PUSH32 0x7BC35E0500000000000000000000000000000000000000000000000000000000 DUP2 MSTORE PUSH1 0x4 ADD PUSH1 0x40 MLOAD DUP1 SWAP2 SUB SWAP1 REVERT JUMPDEST DUP3 DUP2 PUSH2 0xD7C SWAP2 SWAP1 PUSH2 0x5D35 JUMP JUMPDEST PUSH32 0x0 PUSH20 0xFFFFFFFFFFFFFFFFFFFFFFFFFFFFFFFFFFFFFFFF AND PUSH4 0x70A08231 ADDRESS PUSH1 0x40 MLOAD DUP3 PUSH4 0xFFFFFFFF AND PUSH1 0xE0 SHL DUP2 MSTORE PUSH1 0x4 ADD PUSH2 0xDD5 SWAP2 SWAP1 PUSH2 0x5192 JUMP JUMPDEST PUSH1 0x20 PUSH1 0x40 MLOAD DUP1 DUP4 SUB DUP2 DUP7 GAS STATICCALL ISZERO DUP1 ISZERO PUSH2 0xDF2 JUMPI RETURNDATASIZE PUSH1 0x0 DUP1 RETURNDATACOPY RETURNDATASIZE PUSH1 0x0 REVERT JUMPDEST POP POP POP POP PUSH1 0x40 MLOAD RETURNDATASIZE PUSH1 0x1F NOT PUSH1 0x1F DUP3 ADD AND DUP3 ADD DUP1 PUSH1 0x40 MSTORE POP DUP2 ADD SWAP1 PUSH2 0xE16 SWAP2 SWAP1 PUSH2 0x5DC3 JUMP JUMPDEST LT ISZERO PUSH2 0xE4E JUMPI PUSH1 0x40 MLOAD PUSH32 0x7BC35E0500000000000000000000000000000000000000000000000000000000 DUP2 MSTORE PUSH1 0x4 ADD PUSH1 0x40 MLOAD DUP1 SWAP2 SUB SWAP1 REVERT JUMPDEST CALLER PUSH20 0xFFFFFFFFFFFFFFFFFFFFFFFFFFFFFFFFFFFFFFFF AND PUSH32 0x1C1DB1F1D6A01E51FEC24BB54087B65FE5430F692280E70D92F718EB72AE76B7 DUP10 DUP10 PUSH1 0x40 MLOAD PUSH2 0xE96 SWAP3 SWAP2 SWAP1 PUSH2 0x5573 JUMP JUMPDEST PUSH1 0x40 MLOAD DUP1 SWAP2 SUB SWAP1 LOG2 POP POP POP POP POP POP POP POP JUMP JUMPDEST PUSH1 0x0 DUP1 PUSH1 0x0 PUSH2 0xEC5 CALLER DUP9 DUP9 PUSH1 0x6 PUSH2 0x2B2A SWAP1 SWAP4 SWAP3 SWAP2 SWAP1 PUSH4 0xFFFFFFFF AND JUMP JUMPDEST SWAP1 POP DUP1 PUSH1 0x3 ADD PUSH1 0x0 SWAP1 SLOAD SWAP1 PUSH2 0x100 EXP SWAP1 DIV PUSH16 0xFFFFFFFFFFFFFFFFFFFFFFFFFFFFFFFF AND PUSH16 0xFFFFFFFFFFFFFFFFFFFFFFFFFFFFFFFF AND DUP6 PUSH16 0xFFFFFFFFFFFFFFFFFFFFFFFFFFFFFFFF AND GT PUSH2 0xF18 JUMPI DUP5 PUSH2 0xF3A JUMP JUMPDEST DUP1 PUSH1 0x3 ADD PUSH1 0x0 SWAP1 SLOAD SWAP1 PUSH2 0x100 EXP SWAP1 DIV PUSH16 0xFFFFFFFFFFFFFFFFFFFFFFFFFFFFFFFF AND JUMPDEST SWAP3 POP DUP1 PUSH1 0x3 ADD PUSH1 0x10 SWAP1 SLOAD SWAP1 PUSH2 0x100 EXP SWAP1 DIV PUSH16 0xFFFFFFFFFFFFFFFFFFFFFFFFFFFFFFFF AND PUSH16 0xFFFFFFFFFFFFFFFFFFFFFFFFFFFFFFFF AND DUP5 PUSH16 0xFFFFFFFFFFFFFFFFFFFFFFFFFFFFFFFF AND GT PUSH2 0xF8D JUMPI DUP4 PUSH2 0xFAF JUMP JUMPDEST DUP1 PUSH1 0x3 ADD PUSH1 0x10 SWAP1 SLOAD SWAP1 PUSH2 0x100 EXP SWAP1 DIV PUSH16 0xFFFFFFFFFFFFFFFFFFFFFFFFFFFFFFFF AND JUMPDEST SWAP2 POP PUSH1 0x0 DUP4 PUSH16 0xFFFFFFFFFFFFFFFFFFFFFFFFFFFFFFFF AND GT ISZERO PUSH2 0x10D1 JUMPI DUP3 DUP2 PUSH1 0x3 ADD PUSH1 0x0 DUP3 DUP3 DUP3 SWAP1 SLOAD SWAP1 PUSH2 0x100 EXP SWAP1 DIV PUSH16 0xFFFFFFFFFFFFFFFFFFFFFFFFFFFFFFFF AND PUSH2 0xFFB SWAP2 SWAP1 PUSH2 0x5E5B JUMP JUMPDEST SWAP3 POP PUSH2 0x100 EXP DUP2 SLOAD DUP2 PUSH16 0xFFFFFFFFFFFFFFFFFFFFFFFFFFFFFFFF MUL NOT AND SWAP1 DUP4 PUSH16 0xFFFFFFFFFFFFFFFFFFFFFFFFFFFFFFFF AND MUL OR SWAP1 SSTORE POP PUSH32 0x0 PUSH20 0xFFFFFFFFFFFFFFFFFFFFFFFFFFFFFFFFFFFFFFFF AND PUSH4 0xA9059CBB DUP10 DUP6 PUSH1 0x40 MLOAD DUP4 PUSH4 0xFFFFFFFF AND PUSH1 0xE0 SHL DUP2 MSTORE PUSH1 0x4 ADD PUSH2 0x108C SWAP3 SWAP2 SWAP1 PUSH2 0x5EDA JUMP JUMPDEST PUSH1 0x20 PUSH1 0x40 MLOAD DUP1 DUP4 SUB DUP2 PUSH1 0x0 DUP8 GAS CALL ISZERO DUP1 ISZERO PUSH2 0x10AB JUMPI RETURNDATASIZE PUSH1 0x0 DUP1 RETURNDATACOPY RETURNDATASIZE PUSH1 0x0 REVERT JUMPDEST POP POP POP POP PUSH1 0x40 MLOAD RETURNDATASIZE PUSH1 0x1F NOT PUSH1 0x1F DUP3 ADD AND DUP3 ADD DUP1 PUSH1 0x40 MSTORE POP DUP2 ADD SWAP1 PUSH2 0x10CF SWAP2 SWAP1 PUSH2 0x5E2E JUMP JUMPDEST POP JUMPDEST PUSH1 0x0 DUP3 PUSH16 0xFFFFFFFFFFFFFFFFFFFFFFFFFFFFFFFF AND GT ISZERO PUSH2 0x11F1 JUMPI DUP2 DUP2 PUSH1 0x3 ADD PUSH1 0x10 DUP3 DUP3 DUP3 SWAP1 SLOAD SWAP1 PUSH2 0x100 EXP SWAP1 DIV PUSH16 0xFFFFFFFFFFFFFFFFFFFFFFFFFFFFFFFF AND PUSH2 0x111B SWAP2 SWAP1 PUSH2 0x5E5B JUMP JUMPDEST SWAP3 POP PUSH2 0x100 EXP DUP2 SLOAD DUP2 PUSH16 0xFFFFFFFFFFFFFFFFFFFFFFFFFFFFFFFF MUL NOT AND SWAP1 DUP4 PUSH16 0xFFFFFFFFFFFFFFFFFFFFFFFFFFFFFFFF AND MUL OR SWAP1 SSTORE POP PUSH32 0x0 PUSH20 0xFFFFFFFFFFFFFFFFFFFFFFFFFFFFFFFFFFFFFFFF AND PUSH4 0xA9059CBB DUP10 DUP5 PUSH1 0x40 MLOAD DUP4 PUSH4 0xFFFFFFFF AND PUSH1 0xE0 SHL DUP2 MSTORE PUSH1 0x4 ADD PUSH2 0x11AC SWAP3 SWAP2 SWAP1 PUSH2 0x5EDA JUMP JUMPDEST PUSH1 0x20 PUSH1 0x40 MLOAD DUP1 DUP4 SUB DUP2 PUSH1 0x0 DUP8 GAS CALL ISZERO DUP1 ISZERO PUSH2 0x11CB JUMPI RETURNDATASIZE PUSH1 0x0 DUP1 RETURNDATACOPY RETURNDATASIZE PUSH1 0x0 REVERT JUMPDEST POP POP POP POP PUSH1 0x40 MLOAD RETURNDATASIZE PUSH1 0x1F NOT PUSH1 0x1F DUP3 ADD AND DUP3 ADD DUP1 PUSH1 0x40 MSTORE POP DUP2 ADD SWAP1 PUSH2 0x11EF SWAP2 SWAP1 PUSH2 0x5E2E JUMP JUMPDEST POP JUMPDEST DUP6 PUSH1 0x2 SIGNEXTEND DUP8 PUSH1 0x2 SIGNEXTEND CALLER PUSH20 0xFFFFFFFFFFFFFFFFFFFFFFFFFFFFFFFFFFFFFFFF AND PUSH32 0xA89C1C8A741251492622C95237828C75D1DBB03EA956F09E3792FF2A14F4FE62 DUP12 DUP8 DUP8 PUSH1 0x40 MLOAD PUSH2 0x1243 SWAP4 SWAP3 SWAP2 SWAP1 PUSH2 0x5F03 JUMP JUMPDEST PUSH1 0x40 MLOAD DUP1 SWAP2 SUB SWAP1 LOG4 POP SWAP6 POP SWAP6 SWAP4 POP POP POP POP JUMP JUMPDEST PUSH1 0x6 PUSH1 0x20 MSTORE DUP1 PUSH1 0x0 MSTORE PUSH1 0x40 PUSH1 0x0 KECCAK256 PUSH1 0x0 SWAP2 POP SWAP1 POP DUP1 PUSH1 0x0 ADD PUSH1 0x0 SWAP1 SLOAD SWAP1 PUSH2 0x100 EXP SWAP1 DIV PUSH16 0xFFFFFFFFFFFFFFFFFFFFFFFFFFFFFFFF AND SWAP1 DUP1 PUSH1 0x1 ADD SLOAD SWAP1 DUP1 PUSH1 0x2 ADD SLOAD SWAP1 DUP1 PUSH1 0x3 ADD PUSH1 0x0 SWAP1 SLOAD SWAP1 PUSH2 0x100 EXP SWAP1 DIV PUSH16 0xFFFFFFFFFFFFFFFFFFFFFFFFFFFFFFFF AND SWAP1 DUP1 PUSH1 0x3 ADD PUSH1 0x10 SWAP1 SLOAD SWAP1 PUSH2 0x100 EXP SWAP1 DIV PUSH16 0xFFFFFFFFFFFFFFFFFFFFFFFFFFFFFFFF AND SWAP1 POP DUP6 JUMP JUMPDEST PUSH1 0x5 PUSH1 0x20 MSTORE DUP1 PUSH1 0x0 MSTORE PUSH1 0x40 PUSH1 0x0 KECCAK256 PUSH1 0x0 SWAP2 POP SWAP1 POP SLOAD DUP2 JUMP JUMPDEST PUSH1 0x60 PUSH2 0x1396 PUSH2 0x1305 PUSH2 0x2B72 JUMP JUMPDEST DUP5 DUP5 DUP1 DUP1 PUSH1 0x20 MUL PUSH1 0x20 ADD PUSH1 0x40 MLOAD SWAP1 DUP2 ADD PUSH1 0x40 MSTORE DUP1 SWAP4 SWAP3 SWAP2 SWAP1 DUP2 DUP2 MSTORE PUSH1 0x20 ADD DUP4 DUP4 PUSH1 0x20 MUL DUP1 DUP3 DUP5 CALLDATACOPY PUSH1 0x0 DUP2 DUP5 ADD MSTORE PUSH1 0x1F NOT PUSH1 0x1F DUP3 ADD AND SWAP1 POP DUP1 DUP4 ADD SWAP3 POP POP POP POP POP POP POP PUSH1 0x2 PUSH1 0x0 ADD PUSH1 0x14 SWAP1 SLOAD SWAP1 PUSH2 0x100 EXP SWAP1 DIV PUSH1 0x2 SIGNEXTEND PUSH1 0x2 PUSH1 0x0 ADD PUSH1 0x17 SWAP1 SLOAD SWAP1 PUSH2 0x100 EXP SWAP1 DIV PUSH2 0xFFFF AND PUSH1 0x2 PUSH1 0x0 ADD PUSH1 0x19 SWAP1 SLOAD SWAP1 PUSH2 0x100 EXP SWAP1 DIV PUSH2 0xFFFF AND PUSH1 0x7 PUSH2 0x2B7A SWAP1 SWAP6 SWAP5 SWAP4 SWAP3 SWAP2 SWAP1 PUSH4 0xFFFFFFFF AND JUMP JUMPDEST SWAP1 POP SWAP3 SWAP2 POP POP JUMP JUMPDEST PUSH1 0x0 DUP1 PUSH1 0x0 DUP1 PUSH1 0x0 PUSH2 0x13F7 PUSH1 0x40 MLOAD DUP1 PUSH1 0x80 ADD PUSH1 0x40 MSTORE DUP1 CALLER PUSH20 0xFFFFFFFFFFFFFFFFFFFFFFFFFFFFFFFFFFFFFFFF AND DUP2 MSTORE PUSH1 0x20 ADD DUP11 PUSH1 0x2 SIGNEXTEND DUP2 MSTORE PUSH1 0x20 ADD DUP10 PUSH1 0x2 SIGNEXTEND DUP2 MSTORE PUSH1 0x20 ADD DUP9 PUSH2 0x13EC SWAP1 PUSH2 0x5F3A JUMP JUMPDEST PUSH1 0xF SIGNEXTEND DUP2 MSTORE POP PUSH2 0x25FA JUMP JUMPDEST SWAP3 POP SWAP3 POP SWAP3 POP DUP2 PUSH2 0x1407 SWAP1 PUSH2 0x5F82 JUMP JUMPDEST SWAP5 POP DUP1 PUSH2 0x1413 SWAP1 PUSH2 0x5F82 JUMP JUMPDEST SWAP4 POP PUSH1 0x0 DUP6 GT DUP1 PUSH2 0x1424 JUMPI POP PUSH1 0x0 DUP5 GT JUMPDEST ISZERO PUSH2 0x14FE JUMPI DUP5 DUP4 PUSH1 0x3 ADD PUSH1 0x0 SWAP1 SLOAD SWAP1 PUSH2 0x100 EXP SWAP1 DIV PUSH16 0xFFFFFFFFFFFFFFFFFFFFFFFFFFFFFFFF AND PUSH2 0x1455 SWAP2 SWAP1 PUSH2 0x5FCA JUMP JUMPDEST DUP5 DUP5 PUSH1 0x3 ADD PUSH1 0x10 SWAP1 SLOAD SWAP1 PUSH2 0x100 EXP SWAP1 DIV PUSH16 0xFFFFFFFFFFFFFFFFFFFFFFFFFFFFFFFF AND PUSH2 0x1481 SWAP2 SWAP1 PUSH2 0x5FCA JUMP JUMPDEST DUP5 PUSH1 0x3 ADD PUSH1 0x0 DUP7 PUSH1 0x3 ADD PUSH1 0x10 DUP5 SWAP2 SWAP1 PUSH2 0x100 EXP DUP2 SLOAD DUP2 PUSH16 0xFFFFFFFFFFFFFFFFFFFFFFFFFFFFFFFF MUL NOT AND SWAP1 DUP4 PUSH16 0xFFFFFFFFFFFFFFFFFFFFFFFFFFFFFFFF AND MUL OR SWAP1 SSTORE POP DUP4 SWAP2 SWAP1 PUSH2 0x100 EXP DUP2 SLOAD DUP2 PUSH16 0xFFFFFFFFFFFFFFFFFFFFFFFFFFFFFFFF MUL NOT AND SWAP1 DUP4 PUSH16 0xFFFFFFFFFFFFFFFFFFFFFFFFFFFFFFFF AND MUL OR SWAP1 SSTORE POP POP POP JUMPDEST DUP7 PUSH1 0x2 SIGNEXTEND DUP9 PUSH1 0x2 SIGNEXTEND CALLER PUSH20 0xFFFFFFFFFFFFFFFFFFFFFFFFFFFFFFFFFFFFFFFF AND PUSH32 0xC396CD989A39F4459B5FA1AED6A9A8DCDBC45908ACFD67E028CD568DA98982C DUP10 DUP10 DUP10 PUSH1 0x40 MLOAD PUSH2 0x1550 SWAP4 SWAP3 SWAP2 SWAP1 PUSH2 0x600E JUMP JUMPDEST PUSH1 0x40 MLOAD DUP1 SWAP2 SUB SWAP1 LOG4 POP POP POP SWAP4 POP SWAP4 SWAP2 POP POP JUMP JUMPDEST PUSH32 0x0 DUP2 JUMP JUMPDEST PUSH32 0x0 DUP2 JUMP JUMPDEST PUSH32 0x0 DUP2 JUMP JUMPDEST PUSH1 0x0 DUP1 PUSH1 0x0 PUSH1 0x2 PUSH1 0x40 MLOAD DUP1 PUSH1 0xA0 ADD PUSH1 0x40 MSTORE SWAP1 DUP2 PUSH1 0x0 DUP3 ADD PUSH1 0x0 SWAP1 SLOAD SWAP1 PUSH2 0x100 EXP SWAP1 DIV PUSH20 0xFFFFFFFFFFFFFFFFFFFFFFFFFFFFFFFFFFFFFFFF AND PUSH20 0xFFFFFFFFFFFFFFFFFFFFFFFFFFFFFFFFFFFFFFFF AND PUSH20 0xFFFFFFFFFFFFFFFFFFFFFFFFFFFFFFFFFFFFFFFF AND DUP2 MSTORE PUSH1 0x20 ADD PUSH1 0x0 DUP3 ADD PUSH1 0x14 SWAP1 SLOAD SWAP1 PUSH2 0x100 EXP SWAP1 DIV PUSH1 0x2 SIGNEXTEND PUSH1 0x2 SIGNEXTEND PUSH1 0x2 SIGNEXTEND DUP2 MSTORE PUSH1 0x20 ADD PUSH1 0x0 DUP3 ADD PUSH1 0x17 SWAP1 SLOAD SWAP1 PUSH2 0x100 EXP SWAP1 DIV PUSH2 0xFFFF AND PUSH2 0xFFFF AND PUSH2 0xFFFF AND DUP2 MSTORE PUSH1 0x20 ADD PUSH1 0x0 DUP3 ADD PUSH1 0x19 SWAP1 SLOAD SWAP1 PUSH2 0x100 EXP SWAP1 DIV PUSH2 0xFFFF AND PUSH2 0xFFFF AND PUSH2 0xFFFF AND DUP2 MSTORE PUSH1 0x20 ADD PUSH1 0x0 DUP3 ADD PUSH1 0x1B SWAP1 SLOAD SWAP1 PUSH2 0x100 EXP SWAP1 DIV PUSH2 0xFFFF AND PUSH2 0xFFFF AND PUSH2 0xFFFF AND DUP2 MSTORE POP POP SWAP1 POP PUSH1 0x0 PUSH1 0x3 PUSH1 0x0 SWAP1 SLOAD SWAP1 PUSH2 0x100 EXP SWAP1 DIV PUSH16 0xFFFFFFFFFFFFFFFFFFFFFFFFFFFFFFFF AND SWAP1 POP DUP9 PUSH2 0x1760 JUMPI DUP2 PUSH1 0x0 ADD MLOAD PUSH20 0xFFFFFFFFFFFFFFFFFFFFFFFFFFFFFFFFFFFFFFFF AND DUP8 PUSH20 0xFFFFFFFFFFFFFFFFFFFFFFFFFFFFFFFFFFFFFFFF AND LT DUP1 PUSH2 0x175B JUMPI POP PUSH20 0xFFFD8963EFD1FC6A506488495D951D5263988D26 PUSH20 0xFFFFFFFFFFFFFFFFFFFFFFFFFFFFFFFFFFFFFFFF AND DUP8 PUSH20 0xFFFFFFFFFFFFFFFFFFFFFFFFFFFFFFFFFFFFFFFF AND GT JUMPDEST PUSH2 0x17CF JUMP JUMPDEST DUP2 PUSH1 0x0 ADD MLOAD PUSH20 0xFFFFFFFFFFFFFFFFFFFFFFFFFFFFFFFFFFFFFFFF AND DUP8 PUSH20 0xFFFFFFFFFFFFFFFFFFFFFFFFFFFFFFFFFFFFFFFF AND GT DUP1 PUSH2 0x17CE JUMPI POP PUSH5 0x1000276A3 PUSH20 0xFFFFFFFFFFFFFFFFFFFFFFFFFFFFFFFFFFFFFFFF AND DUP8 PUSH20 0xFFFFFFFFFFFFFFFFFFFFFFFFFFFFFFFFFFFFFFFF AND LT JUMPDEST JUMPDEST ISZERO PUSH2 0x1806 JUMPI PUSH1 0x40 MLOAD PUSH32 0xB53BBACC00000000000000000000000000000000000000000000000000000000 DUP2 MSTORE PUSH1 0x4 ADD PUSH1 0x40 MLOAD DUP1 SWAP2 SUB SWAP1 REVERT JUMPDEST PUSH1 0x0 PUSH1 0x40 MLOAD DUP1 PUSH1 0xC0 ADD PUSH1 0x40 MSTORE DUP1 DUP11 DUP2 MSTORE PUSH1 0x20 ADD PUSH1 0x0 DUP2 MSTORE PUSH1 0x20 ADD DUP5 PUSH1 0x0 ADD MLOAD PUSH20 0xFFFFFFFFFFFFFFFFFFFFFFFFFFFFFFFFFFFFFFFF AND DUP2 MSTORE PUSH1 0x20 ADD DUP5 PUSH1 0x20 ADD MLOAD PUSH1 0x2 SIGNEXTEND DUP2 MSTORE PUSH1 0x20 ADD DUP12 PUSH2 0x185A JUMPI PUSH1 0x1 SLOAD PUSH2 0x185E JUMP JUMPDEST PUSH1 0x0 SLOAD JUMPDEST DUP2 MSTORE PUSH1 0x20 ADD DUP4 PUSH16 0xFFFFFFFFFFFFFFFFFFFFFFFFFFFFFFFF AND DUP2 MSTORE POP SWAP1 POP JUMPDEST PUSH1 0x0 DUP2 PUSH1 0x0 ADD MLOAD GT DUP1 ISZERO PUSH2 0x18C0 JUMPI POP DUP8 PUSH20 0xFFFFFFFFFFFFFFFFFFFFFFFFFFFFFFFFFFFFFFFF AND DUP2 PUSH1 0x40 ADD MLOAD PUSH20 0xFFFFFFFFFFFFFFFFFFFFFFFFFFFFFFFFFFFFFFFF AND EQ ISZERO JUMPDEST ISZERO PUSH2 0x1D28 JUMPI PUSH2 0x18CD PUSH2 0x50B7 JUMP JUMPDEST DUP2 PUSH1 0x40 ADD MLOAD DUP2 PUSH1 0x0 ADD SWAP1 PUSH20 0xFFFFFFFFFFFFFFFFFFFFFFFFFFFFFFFFFFFFFFFF AND SWAP1 DUP2 PUSH20 0xFFFFFFFFFFFFFFFFFFFFFFFFFFFFFFFFFFFFFFFF AND DUP2 MSTORE POP POP PUSH2 0x1945 DUP3 PUSH1 0x60 ADD MLOAD PUSH32 0x0 DUP14 PUSH1 0x5 PUSH2 0x2C3B SWAP1 SWAP4 SWAP3 SWAP2 SWAP1 PUSH4 0xFFFFFFFF AND JUMP JUMPDEST DUP3 PUSH1 0x20 ADD DUP4 PUSH1 0x40 ADD DUP3 ISZERO ISZERO ISZERO ISZERO DUP2 MSTORE POP DUP3 PUSH1 0x2 SIGNEXTEND PUSH1 0x2 SIGNEXTEND DUP2 MSTORE POP POP POP PUSH2 0x196E DUP2 PUSH1 0x20 ADD MLOAD PUSH2 0x2E29 JUMP JUMPDEST DUP2 PUSH1 0x60 ADD SWAP1 PUSH20 0xFFFFFFFFFFFFFFFFFFFFFFFFFFFFFFFFFFFFFFFF AND SWAP1 DUP2 PUSH20 0xFFFFFFFFFFFFFFFFFFFFFFFFFFFFFFFFFFFFFFFF AND DUP2 MSTORE POP POP PUSH2 0x1A5E DUP3 PUSH1 0x40 ADD MLOAD DUP13 PUSH2 0x19EA JUMPI DUP11 PUSH20 0xFFFFFFFFFFFFFFFFFFFFFFFFFFFFFFFFFFFFFFFF AND DUP4 PUSH1 0x60 ADD MLOAD PUSH20 0xFFFFFFFFFFFFFFFFFFFFFFFFFFFFFFFFFFFFFFFF AND GT PUSH2 0x1A1E JUMP JUMPDEST DUP11 PUSH20 0xFFFFFFFFFFFFFFFFFFFFFFFFFFFFFFFFFFFFFFFF AND DUP4 PUSH1 0x60 ADD MLOAD PUSH20 0xFFFFFFFFFFFFFFFFFFFFFFFFFFFFFFFFFFFFFFFF AND LT JUMPDEST PUSH2 0x1A2C JUMPI DUP3 PUSH1 0x60 ADD MLOAD PUSH2 0x1A2E JUMP JUMPDEST DUP11 JUMPDEST DUP5 PUSH1 0xA0 ADD MLOAD DUP6 PUSH1 0x0 ADD MLOAD PUSH32 0x0 PUSH2 0x32F6 JUMP JUMPDEST DUP6 PUSH1 0x40 ADD DUP6 PUSH1 0x80 ADD DUP7 PUSH1 0xA0 ADD DUP8 PUSH1 0xC0 ADD DUP5 DUP2 MSTORE POP DUP5 DUP2 MSTORE POP DUP5 DUP2 MSTORE POP DUP5 PUSH20 0xFFFFFFFFFFFFFFFFFFFFFFFFFFFFFFFFFFFFFFFF AND PUSH20 0xFFFFFFFFFFFFFFFFFFFFFFFFFFFFFFFFFFFFFFFF AND DUP2 MSTORE POP POP POP POP POP DUP1 PUSH1 0xC0 ADD MLOAD DUP2 PUSH1 0x80 ADD MLOAD PUSH2 0x1AC2 SWAP2 SWAP1 PUSH2 0x5D35 JUMP JUMPDEST DUP3 PUSH1 0x0 ADD DUP2 DUP2 MLOAD PUSH2 0x1AD3 SWAP2 SWAP1 PUSH2 0x6045 JUMP JUMPDEST SWAP2 POP DUP2 DUP2 MSTORE POP POP DUP1 PUSH1 0xA0 ADD MLOAD DUP3 PUSH1 0x20 ADD DUP2 DUP2 MLOAD PUSH2 0x1AF0 SWAP2 SWAP1 PUSH2 0x5D35 JUMP JUMPDEST SWAP2 POP DUP2 DUP2 MSTORE POP POP PUSH1 0x0 DUP3 PUSH1 0xA0 ADD MLOAD PUSH16 0xFFFFFFFFFFFFFFFFFFFFFFFFFFFFFFFF AND GT ISZERO PUSH2 0x1B65 JUMPI PUSH2 0x1B4C DUP2 PUSH1 0xC0 ADD MLOAD PUSH17 0x100000000000000000000000000000000 DUP5 PUSH1 0xA0 ADD MLOAD PUSH16 0xFFFFFFFFFFFFFFFFFFFFFFFFFFFFFFFF AND PUSH2 0x347A JUMP JUMPDEST DUP3 PUSH1 0x80 ADD DUP2 DUP2 MLOAD PUSH2 0x1B5D SWAP2 SWAP1 PUSH2 0x5D35 JUMP JUMPDEST SWAP2 POP DUP2 DUP2 MSTORE POP POP JUMPDEST DUP1 PUSH1 0x60 ADD MLOAD PUSH20 0xFFFFFFFFFFFFFFFFFFFFFFFFFFFFFFFFFFFFFFFF AND DUP3 PUSH1 0x40 ADD MLOAD PUSH20 0xFFFFFFFFFFFFFFFFFFFFFFFFFFFFFFFFFFFFFFFF AND SUB PUSH2 0x1CC7 JUMPI DUP1 PUSH1 0x40 ADD MLOAD ISZERO PUSH2 0x1C90 JUMPI PUSH1 0x0 PUSH2 0x1BEC DUP3 PUSH1 0x20 ADD MLOAD DUP14 PUSH2 0x1BC1 JUMPI PUSH1 0x0 SLOAD PUSH2 0x1BC7 JUMP JUMPDEST DUP5 PUSH1 0x80 ADD MLOAD JUMPDEST DUP15 PUSH2 0x1BD6 JUMPI DUP6 PUSH1 0x80 ADD MLOAD PUSH2 0x1BDA JUMP JUMPDEST PUSH1 0x1 SLOAD JUMPDEST PUSH1 0x4 PUSH2 0x358F SWAP1 SWAP4 SWAP3 SWAP2 SWAP1 PUSH4 0xFFFFFFFF AND JUMP JUMPDEST SWAP1 POP DUP12 ISZERO PUSH2 0x1C01 JUMPI DUP1 PUSH2 0x1BFE SWAP1 PUSH2 0x5F3A JUMP JUMPDEST SWAP1 POP JUMPDEST PUSH2 0x1C0F DUP4 PUSH1 0xA0 ADD MLOAD DUP3 PUSH2 0x35F9 JUMP JUMPDEST DUP4 PUSH1 0xA0 ADD SWAP1 PUSH16 0xFFFFFFFFFFFFFFFFFFFFFFFFFFFFFFFF AND SWAP1 DUP2 PUSH16 0xFFFFFFFFFFFFFFFFFFFFFFFFFFFFFFFF AND DUP2 MSTORE POP POP PUSH1 0x0 DUP4 PUSH1 0xA0 ADD MLOAD PUSH16 0xFFFFFFFFFFFFFFFFFFFFFFFFFFFFFFFF AND SUB PUSH2 0x1C8E JUMPI PUSH1 0x40 MLOAD PUSH32 0x4323A55500000000000000000000000000000000000000000000000000000000 DUP2 MSTORE PUSH1 0x4 ADD PUSH1 0x40 MLOAD DUP1 SWAP2 SUB SWAP1 REVERT JUMPDEST POP JUMPDEST DUP11 PUSH2 0x1C9F JUMPI DUP1 PUSH1 0x20 ADD MLOAD PUSH2 0x1CB1 JUMP JUMPDEST PUSH1 0x1 DUP2 PUSH1 0x20 ADD MLOAD PUSH2 0x1CB0 SWAP2 SWAP1 PUSH2 0x6079 JUMP JUMPDEST JUMPDEST DUP3 PUSH1 0x60 ADD SWAP1 PUSH1 0x2 SIGNEXTEND SWAP1 DUP2 PUSH1 0x2 SIGNEXTEND DUP2 MSTORE POP POP PUSH2 0x1D22 JUMP JUMPDEST DUP1 PUSH1 0x0 ADD MLOAD PUSH20 0xFFFFFFFFFFFFFFFFFFFFFFFFFFFFFFFFFFFFFFFF AND DUP3 PUSH1 0x40 ADD MLOAD PUSH20 0xFFFFFFFFFFFFFFFFFFFFFFFFFFFFFFFFFFFFFFFF AND EQ PUSH2 0x1D21 JUMPI PUSH2 0x1D0F DUP3 PUSH1 0x40 ADD MLOAD PUSH2 0x3637 JUMP JUMPDEST DUP3 PUSH1 0x60 ADD SWAP1 PUSH1 0x2 SIGNEXTEND SWAP1 DUP2 PUSH1 0x2 SIGNEXTEND DUP2 MSTORE POP POP JUMPDEST JUMPDEST POP PUSH2 0x187C JUMP JUMPDEST DUP3 PUSH1 0x20 ADD MLOAD PUSH1 0x2 SIGNEXTEND DUP2 PUSH1 0x60 ADD MLOAD PUSH1 0x2 SIGNEXTEND EQ PUSH2 0x1E3F JUMPI PUSH1 0x0 DUP1 PUSH2 0x1D73 DUP6 PUSH1 0x40 ADD MLOAD PUSH2 0x1D50 PUSH2 0x2B72 JUMP JUMPDEST DUP8 PUSH1 0x20 ADD MLOAD DUP9 PUSH1 0x60 ADD MLOAD DUP10 PUSH1 0x80 ADD MLOAD PUSH1 0x7 PUSH2 0x3A36 SWAP1 SWAP6 SWAP5 SWAP4 SWAP3 SWAP2 SWAP1 PUSH4 0xFFFFFFFF AND JUMP JUMPDEST SWAP2 POP SWAP2 POP DUP3 PUSH1 0x40 ADD MLOAD DUP4 PUSH1 0x60 ADD MLOAD DUP4 DUP4 PUSH1 0x2 PUSH1 0x0 ADD PUSH1 0x0 PUSH1 0x2 PUSH1 0x0 ADD PUSH1 0x14 PUSH1 0x2 PUSH1 0x0 ADD PUSH1 0x17 PUSH1 0x2 PUSH1 0x0 ADD PUSH1 0x19 DUP9 SWAP2 SWAP1 PUSH2 0x100 EXP DUP2 SLOAD DUP2 PUSH2 0xFFFF MUL NOT AND SWAP1 DUP4 PUSH2 0xFFFF AND MUL OR SWAP1 SSTORE POP DUP8 SWAP2 SWAP1 PUSH2 0x100 EXP DUP2 SLOAD DUP2 PUSH2 0xFFFF MUL NOT AND SWAP1 DUP4 PUSH2 0xFFFF AND MUL OR SWAP1 SSTORE POP DUP7 SWAP2 SWAP1 PUSH2 0x100 EXP DUP2 SLOAD DUP2 PUSH3 0xFFFFFF MUL NOT AND SWAP1 DUP4 PUSH1 0x2 SIGNEXTEND PUSH3 0xFFFFFF AND MUL OR SWAP1 SSTORE POP DUP6 SWAP2 SWAP1 PUSH2 0x100 EXP DUP2 SLOAD DUP2 PUSH20 0xFFFFFFFFFFFFFFFFFFFFFFFFFFFFFFFFFFFFFFFF MUL NOT AND SWAP1 DUP4 PUSH20 0xFFFFFFFFFFFFFFFFFFFFFFFFFFFFFFFFFFFFFFFF AND MUL OR SWAP1 SSTORE POP POP POP POP POP POP POP PUSH2 0x1E88 JUMP JUMPDEST DUP1 PUSH1 0x40 ADD MLOAD PUSH1 0x2 PUSH1 0x0 ADD PUSH1 0x0 PUSH2 0x100 EXP DUP2 SLOAD DUP2 PUSH20 0xFFFFFFFFFFFFFFFFFFFFFFFFFFFFFFFFFFFFFFFF MUL NOT AND SWAP1 DUP4 PUSH20 0xFFFFFFFFFFFFFFFFFFFFFFFFFFFFFFFFFFFFFFFF AND MUL OR SWAP1 SSTORE POP JUMPDEST DUP1 PUSH1 0xA0 ADD MLOAD PUSH16 0xFFFFFFFFFFFFFFFFFFFFFFFFFFFFFFFF AND DUP3 PUSH16 0xFFFFFFFFFFFFFFFFFFFFFFFFFFFFFFFF AND EQ PUSH2 0x1EF5 JUMPI DUP1 PUSH1 0xA0 ADD MLOAD PUSH1 0x3 PUSH1 0x0 PUSH2 0x100 EXP DUP2 SLOAD DUP2 PUSH16 0xFFFFFFFFFFFFFFFFFFFFFFFFFFFFFFFF MUL NOT AND SWAP1 DUP4 PUSH16 0xFFFFFFFFFFFFFFFFFFFFFFFFFFFFFFFF AND MUL OR SWAP1 SSTORE POP JUMPDEST DUP10 ISZERO PUSH2 0x1F0B JUMPI DUP1 PUSH1 0x80 ADD MLOAD PUSH1 0x0 DUP2 SWAP1 SSTORE POP PUSH2 0x1F17 JUMP JUMPDEST DUP1 PUSH1 0x80 ADD MLOAD PUSH1 0x1 DUP2 SWAP1 SSTORE POP JUMPDEST DUP10 PUSH2 0x1F3F JUMPI DUP1 PUSH1 0x20 ADD MLOAD PUSH2 0x1F2A SWAP1 PUSH2 0x5F82 JUMP JUMPDEST DUP2 PUSH1 0x0 ADD MLOAD DUP11 PUSH2 0x1F3A SWAP2 SWAP1 PUSH2 0x6045 JUMP JUMPDEST PUSH2 0x1F5E JUMP JUMPDEST DUP1 PUSH1 0x0 ADD MLOAD DUP10 PUSH2 0x1F4F SWAP2 SWAP1 PUSH2 0x6045 JUMP JUMPDEST DUP2 PUSH1 0x20 ADD MLOAD PUSH2 0x1F5D SWAP1 PUSH2 0x5F82 JUMP JUMPDEST JUMPDEST DUP1 SWAP6 POP DUP2 SWAP7 POP POP POP DUP10 ISZERO PUSH2 0x20E3 JUMPI PUSH32 0x0 PUSH20 0xFFFFFFFFFFFFFFFFFFFFFFFFFFFFFFFFFFFFFFFF AND PUSH4 0xA9059CBB DUP13 DUP7 PUSH2 0x1FB3 SWAP1 PUSH2 0x5F82 JUMP JUMPDEST PUSH1 0x40 MLOAD DUP4 PUSH4 0xFFFFFFFF AND PUSH1 0xE0 SHL DUP2 MSTORE PUSH1 0x4 ADD PUSH2 0x1FD0 SWAP3 SWAP2 SWAP1 PUSH2 0x5DF0 JUMP JUMPDEST PUSH1 0x20 PUSH1 0x40 MLOAD DUP1 DUP4 SUB DUP2 PUSH1 0x0 DUP8 GAS CALL ISZERO DUP1 ISZERO PUSH2 0x1FEF JUMPI RETURNDATASIZE PUSH1 0x0 DUP1 RETURNDATACOPY RETURNDATASIZE PUSH1 0x0 REVERT JUMPDEST POP POP POP POP PUSH1 0x40 MLOAD RETURNDATASIZE PUSH1 0x1F NOT PUSH1 0x1F DUP3 ADD AND DUP3 ADD DUP1 PUSH1 0x40 MSTORE POP DUP2 ADD SWAP1 PUSH2 0x2013 SWAP2 SWAP1 PUSH2 0x5E2E JUMP JUMPDEST POP PUSH1 0x0 PUSH2 0x201E PUSH2 0x297D JUMP JUMPDEST SWAP1 POP CALLER PUSH20 0xFFFFFFFFFFFFFFFFFFFFFFFFFFFFFFFFFFFFFFFF AND PUSH4 0xFA461E33 DUP8 DUP8 DUP12 DUP12 PUSH1 0x40 MLOAD DUP6 PUSH4 0xFFFFFFFF AND PUSH1 0xE0 SHL DUP2 MSTORE PUSH1 0x4 ADD PUSH2 0x205F SWAP5 SWAP4 SWAP3 SWAP2 SWAP1 PUSH2 0x60D4 JUMP JUMPDEST PUSH1 0x0 PUSH1 0x40 MLOAD DUP1 DUP4 SUB DUP2 PUSH1 0x0 DUP8 DUP1 EXTCODESIZE ISZERO DUP1 ISZERO PUSH2 0x2079 JUMPI PUSH1 0x0 DUP1 REVERT JUMPDEST POP GAS CALL ISZERO DUP1 ISZERO PUSH2 0x208D JUMPI RETURNDATASIZE PUSH1 0x0 DUP1 RETURNDATACOPY RETURNDATASIZE PUSH1 0x0 REVERT JUMPDEST POP POP POP POP PUSH2 0x2099 PUSH2 0x297D JUMP JUMPDEST DUP7 DUP3 PUSH2 0x20A5 SWAP2 SWAP1 PUSH2 0x5D35 JUMP JUMPDEST GT ISZERO PUSH2 0x20DD JUMPI PUSH1 0x40 MLOAD PUSH32 0x98FB56100000000000000000000000000000000000000000000000000000000 DUP2 MSTORE PUSH1 0x4 ADD PUSH1 0x40 MLOAD DUP1 SWAP2 SUB SWAP1 REVERT JUMPDEST POP PUSH2 0x2256 JUMP JUMPDEST PUSH32 0x0 PUSH20 0xFFFFFFFFFFFFFFFFFFFFFFFFFFFFFFFFFFFFFFFF AND PUSH4 0xA9059CBB DUP13 DUP8 PUSH2 0x212A SWAP1 PUSH2 0x5F82 JUMP JUMPDEST PUSH1 0x40 MLOAD DUP4 PUSH4 0xFFFFFFFF AND PUSH1 0xE0 SHL DUP2 MSTORE PUSH1 0x4 ADD PUSH2 0x2147 SWAP3 SWAP2 SWAP1 PUSH2 0x5DF0 JUMP JUMPDEST PUSH1 0x20 PUSH1 0x40 MLOAD DUP1 DUP4 SUB DUP2 PUSH1 0x0 DUP8 GAS CALL ISZERO DUP1 ISZERO PUSH2 0x2166 JUMPI RETURNDATASIZE PUSH1 0x0 DUP1 RETURNDATACOPY RETURNDATASIZE PUSH1 0x0 REVERT JUMPDEST POP POP POP POP PUSH1 0x40 MLOAD RETURNDATASIZE PUSH1 0x1F NOT PUSH1 0x1F DUP3 ADD AND DUP3 ADD DUP1 PUSH1 0x40 MSTORE POP DUP2 ADD SWAP1 PUSH2 0x218A SWAP2 SWAP1 PUSH2 0x5E2E JUMP JUMPDEST POP PUSH1 0x0 PUSH2 0x2195 PUSH2 0x2A1E JUMP JUMPDEST SWAP1 POP CALLER PUSH20 0xFFFFFFFFFFFFFFFFFFFFFFFFFFFFFFFFFFFFFFFF AND PUSH4 0xFA461E33 DUP8 DUP8 DUP12 DUP12 PUSH1 0x40 MLOAD DUP6 PUSH4 0xFFFFFFFF AND PUSH1 0xE0 SHL DUP2 MSTORE PUSH1 0x4 ADD PUSH2 0x21D6 SWAP5 SWAP4 SWAP3 SWAP2 SWAP1 PUSH2 0x60D4 JUMP JUMPDEST PUSH1 0x0 PUSH1 0x40 MLOAD DUP1 DUP4 SUB DUP2 PUSH1 0x0 DUP8 DUP1 EXTCODESIZE ISZERO DUP1 ISZERO PUSH2 0x21F0 JUMPI PUSH1 0x0 DUP1 REVERT JUMPDEST POP GAS CALL ISZERO DUP1 ISZERO PUSH2 0x2204 JUMPI RETURNDATASIZE PUSH1 0x0 DUP1 RETURNDATACOPY RETURNDATASIZE PUSH1 0x0 REVERT JUMPDEST POP POP POP POP PUSH2 0x2210 PUSH2 0x2A1E JUMP JUMPDEST DUP6 DUP3 PUSH2 0x221C SWAP2 SWAP1 PUSH2 0x5D35 JUMP JUMPDEST GT ISZERO PUSH2 0x2254 JUMPI PUSH1 0x40 MLOAD PUSH32 0x98FB56100000000000000000000000000000000000000000000000000000000 DUP2 MSTORE PUSH1 0x4 ADD PUSH1 0x40 MLOAD DUP1 SWAP2 SUB SWAP1 REVERT JUMPDEST POP JUMPDEST DUP11 PUSH20 0xFFFFFFFFFFFFFFFFFFFFFFFFFFFFFFFFFFFFFFFF AND CALLER PUSH20 0xFFFFFFFFFFFFFFFFFFFFFFFFFFFFFFFFFFFFFFFF AND PUSH32 0xC42079F94A6350D7E6235F29174924F928CC2AC818EB64FED8004E115FBCCA67 DUP8 DUP8 PUSH1 0x2 PUSH1 0x0 ADD PUSH1 0x0 SWAP1 SLOAD SWAP1 PUSH2 0x100 EXP SWAP1 DIV PUSH20 0xFFFFFFFFFFFFFFFFFFFFFFFFFFFFFFFFFFFFFFFF AND DUP7 PUSH1 0xA0 ADD MLOAD PUSH1 0x2 PUSH1 0x0 ADD PUSH1 0x14 SWAP1 SLOAD SWAP1 PUSH2 0x100 EXP SWAP1 DIV PUSH1 0x2 SIGNEXTEND PUSH1 0x40 MLOAD PUSH2 0x22F6 SWAP6 SWAP5 SWAP4 SWAP3 SWAP2 SWAP1 PUSH2 0x6114 JUMP JUMPDEST PUSH1 0x40 MLOAD DUP1 SWAP2 SUB SWAP1 LOG3 POP POP POP SWAP7 POP SWAP7 SWAP5 POP POP POP POP POP JUMP JUMPDEST PUSH32 0x0 DUP2 JUMP JUMPDEST PUSH1 0x0 SLOAD DUP2 JUMP JUMPDEST PUSH1 0x4 PUSH1 0x20 MSTORE DUP1 PUSH1 0x0 MSTORE PUSH1 0x40 PUSH1 0x0 KECCAK256 PUSH1 0x0 SWAP2 POP SWAP1 POP DUP1 PUSH1 0x0 ADD PUSH1 0x0 SWAP1 SLOAD SWAP1 PUSH2 0x100 EXP SWAP1 DIV PUSH1 0xFF AND SWAP1 DUP1 PUSH1 0x0 ADD PUSH1 0x1 SWAP1 SLOAD SWAP1 PUSH2 0x100 EXP SWAP1 DIV PUSH16 0xFFFFFFFFFFFFFFFFFFFFFFFFFFFFFFFF AND SWAP1 DUP1 PUSH1 0x1 ADD PUSH1 0x0 SWAP1 SLOAD SWAP1 PUSH2 0x100 EXP SWAP1 DIV PUSH1 0xF SIGNEXTEND SWAP1 DUP1 PUSH1 0x2 ADD SLOAD SWAP1 DUP1 PUSH1 0x3 ADD SLOAD SWAP1 POP DUP6 JUMP JUMPDEST PUSH1 0x0 PUSH1 0x2 PUSH1 0x0 ADD PUSH1 0x0 SWAP1 SLOAD SWAP1 PUSH2 0x100 EXP SWAP1 DIV PUSH20 0xFFFFFFFFFFFFFFFFFFFFFFFFFFFFFFFFFFFFFFFF AND PUSH20 0xFFFFFFFFFFFFFFFFFFFFFFFFFFFFFFFFFFFFFFFF AND EQ PUSH2 0x2417 JUMPI PUSH1 0x40 MLOAD PUSH32 0xDC149F000000000000000000000000000000000000000000000000000000000 DUP2 MSTORE PUSH1 0x4 ADD PUSH1 0x40 MLOAD DUP1 SWAP2 SUB SWAP1 REVERT JUMPDEST PUSH1 0x0 PUSH2 0x2422 DUP3 PUSH2 0x3637 JUMP JUMPDEST SWAP1 POP PUSH1 0x0 DUP1 PUSH2 0x2442 PUSH2 0x2432 PUSH2 0x2B72 JUMP JUMPDEST PUSH1 0x7 PUSH2 0x3BE2 SWAP1 SWAP2 SWAP1 PUSH4 0xFFFFFFFF AND JUMP JUMPDEST SWAP2 POP SWAP2 POP PUSH1 0x40 MLOAD DUP1 PUSH1 0xA0 ADD PUSH1 0x40 MSTORE DUP1 DUP6 PUSH20 0xFFFFFFFFFFFFFFFFFFFFFFFFFFFFFFFFFFFFFFFF AND DUP2 MSTORE PUSH1 0x20 ADD DUP5 PUSH1 0x2 SIGNEXTEND DUP2 MSTORE PUSH1 0x20 ADD PUSH1 0x0 PUSH2 0xFFFF AND DUP2 MSTORE PUSH1 0x20 ADD DUP4 PUSH2 0xFFFF AND DUP2 MSTORE PUSH1 0x20 ADD DUP3 PUSH2 0xFFFF AND DUP2 MSTORE POP PUSH1 0x2 PUSH1 0x0 DUP3 ADD MLOAD DUP2 PUSH1 0x0 ADD PUSH1 0x0 PUSH2 0x100 EXP DUP2 SLOAD DUP2 PUSH20 0xFFFFFFFFFFFFFFFFFFFFFFFFFFFFFFFFFFFFFFFF MUL NOT AND SWAP1 DUP4 PUSH20 0xFFFFFFFFFFFFFFFFFFFFFFFFFFFFFFFFFFFFFFFF AND MUL OR SWAP1 SSTORE POP PUSH1 0x20 DUP3 ADD MLOAD DUP2 PUSH1 0x0 ADD PUSH1 0x14 PUSH2 0x100 EXP DUP2 SLOAD DUP2 PUSH3 0xFFFFFF MUL NOT AND SWAP1 DUP4 PUSH1 0x2 SIGNEXTEND PUSH3 0xFFFFFF AND MUL OR SWAP1 SSTORE POP PUSH1 0x40 DUP3 ADD MLOAD DUP2 PUSH1 0x0 ADD PUSH1 0x17 PUSH2 0x100 EXP DUP2 SLOAD DUP2 PUSH2 0xFFFF MUL NOT AND SWAP1 DUP4 PUSH2 0xFFFF AND MUL OR SWAP1 SSTORE POP PUSH1 0x60 DUP3 ADD MLOAD DUP2 PUSH1 0x0 ADD PUSH1 0x19 PUSH2 0x100 EXP DUP2 SLOAD DUP2 PUSH2 0xFFFF MUL NOT AND SWAP1 DUP4 PUSH2 0xFFFF AND MUL OR SWAP1 SSTORE POP PUSH1 0x80 DUP3 ADD MLOAD DUP2 PUSH1 0x0 ADD PUSH1 0x1B PUSH2 0x100 EXP DUP2 SLOAD DUP2 PUSH2 0xFFFF MUL NOT AND SWAP1 DUP4 PUSH2 0xFFFF AND MUL OR SWAP1 SSTORE POP SWAP1 POP POP POP POP POP POP JUMP JUMPDEST PUSH1 0x0 DUP3 PUSH2 0xFFFF AND DUP3 PUSH2 0xFFFF AND GT PUSH2 0x258F JUMPI DUP3 SWAP1 POP PUSH2 0x25F3 JUMP JUMPDEST PUSH1 0x0 DUP4 SWAP1 POP JUMPDEST DUP3 PUSH2 0xFFFF AND DUP2 PUSH2 0xFFFF AND LT ISZERO PUSH2 0x25EE JUMPI PUSH1 0x1 DUP6 DUP3 PUSH2 0xFFFF AND PUSH2 0xFFFF DUP2 LT PUSH2 0x25BF JUMPI PUSH2 0x25BE PUSH2 0x6167 JUMP JUMPDEST JUMPDEST ADD PUSH1 0x0 ADD PUSH1 0x0 PUSH2 0x100 EXP DUP2 SLOAD DUP2 PUSH4 0xFFFFFFFF MUL NOT AND SWAP1 DUP4 PUSH4 0xFFFFFFFF AND MUL OR SWAP1 SSTORE POP DUP1 DUP1 PUSH1 0x1 ADD SWAP2 POP POP PUSH2 0x2595 JUMP JUMPDEST POP DUP2 SWAP1 POP JUMPDEST SWAP4 SWAP3 POP POP POP JUMP JUMPDEST PUSH1 0x0 DUP1 PUSH1 0x0 DUP1 PUSH1 0x2 PUSH1 0x40 MLOAD DUP1 PUSH1 0xA0 ADD PUSH1 0x40 MSTORE SWAP1 DUP2 PUSH1 0x0 DUP3 ADD PUSH1 0x0 SWAP1 SLOAD SWAP1 PUSH2 0x100 EXP SWAP1 DIV PUSH20 0xFFFFFFFFFFFFFFFFFFFFFFFFFFFFFFFFFFFFFFFF AND PUSH20 0xFFFFFFFFFFFFFFFFFFFFFFFFFFFFFFFFFFFFFFFF AND PUSH20 0xFFFFFFFFFFFFFFFFFFFFFFFFFFFFFFFFFFFFFFFF AND DUP2 MSTORE PUSH1 0x20 ADD PUSH1 0x0 DUP3 ADD PUSH1 0x14 SWAP1 SLOAD SWAP1 PUSH2 0x100 EXP SWAP1 DIV PUSH1 0x2 SIGNEXTEND PUSH1 0x2 SIGNEXTEND PUSH1 0x2 SIGNEXTEND DUP2 MSTORE PUSH1 0x20 ADD PUSH1 0x0 DUP3 ADD PUSH1 0x17 SWAP1 SLOAD SWAP1 PUSH2 0x100 EXP SWAP1 DIV PUSH2 0xFFFF AND PUSH2 0xFFFF AND PUSH2 0xFFFF AND DUP2 MSTORE PUSH1 0x20 ADD PUSH1 0x0 DUP3 ADD PUSH1 0x19 SWAP1 SLOAD SWAP1 PUSH2 0x100 EXP SWAP1 DIV PUSH2 0xFFFF AND PUSH2 0xFFFF AND PUSH2 0xFFFF AND DUP2 MSTORE PUSH1 0x20 ADD PUSH1 0x0 DUP3 ADD PUSH1 0x1B SWAP1 SLOAD SWAP1 PUSH2 0x100 EXP SWAP1 DIV PUSH2 0xFFFF AND PUSH2 0xFFFF AND PUSH2 0xFFFF AND DUP2 MSTORE POP POP SWAP1 POP PUSH1 0x0 DUP1 SLOAD SWAP1 POP PUSH1 0x0 PUSH1 0x1 SLOAD SWAP1 POP PUSH2 0x2713 DUP8 PUSH1 0x0 ADD MLOAD DUP9 PUSH1 0x20 ADD MLOAD DUP10 PUSH1 0x40 ADD MLOAD PUSH1 0x6 PUSH2 0x2B2A SWAP1 SWAP4 SWAP3 SWAP2 SWAP1 PUSH4 0xFFFFFFFF AND JUMP JUMPDEST SWAP6 POP PUSH1 0x0 PUSH2 0x2742 DUP9 PUSH1 0x20 ADD MLOAD DUP6 PUSH1 0x20 ADD MLOAD DUP11 PUSH1 0x60 ADD MLOAD DUP7 DUP7 PUSH1 0x0 PUSH1 0x4 PUSH2 0x3CAC SWAP1 SWAP7 SWAP6 SWAP5 SWAP4 SWAP3 SWAP2 SWAP1 PUSH4 0xFFFFFFFF AND JUMP JUMPDEST SWAP1 POP PUSH1 0x0 PUSH2 0x2771 DUP10 PUSH1 0x40 ADD MLOAD DUP7 PUSH1 0x20 ADD MLOAD DUP12 PUSH1 0x60 ADD MLOAD DUP8 DUP8 PUSH1 0x1 PUSH1 0x4 PUSH2 0x3CAC SWAP1 SWAP7 SWAP6 SWAP5 SWAP4 SWAP3 SWAP2 SWAP1 PUSH4 0xFFFFFFFF AND JUMP JUMPDEST SWAP1 POP DUP2 ISZERO PUSH2 0x27B4 JUMPI PUSH2 0x27B3 DUP10 PUSH1 0x20 ADD MLOAD PUSH32 0x0 PUSH1 0x5 PUSH2 0x3E5F SWAP1 SWAP3 SWAP2 SWAP1 PUSH4 0xFFFFFFFF AND JUMP JUMPDEST JUMPDEST DUP1 ISZERO PUSH2 0x27F5 JUMPI PUSH2 0x27F4 DUP10 PUSH1 0x40 ADD MLOAD PUSH32 0x0 PUSH1 0x5 PUSH2 0x3E5F SWAP1 SWAP3 SWAP2 SWAP1 PUSH4 0xFFFFFFFF AND JUMP JUMPDEST JUMPDEST PUSH1 0x0 DUP1 PUSH2 0x2820 DUP12 PUSH1 0x20 ADD MLOAD DUP13 PUSH1 0x40 ADD MLOAD DUP10 PUSH1 0x20 ADD MLOAD DUP10 DUP10 PUSH1 0x4 PUSH2 0x3ECF SWAP1 SWAP6 SWAP5 SWAP4 SWAP3 SWAP2 SWAP1 PUSH4 0xFFFFFFFF AND JUMP JUMPDEST SWAP2 POP SWAP2 POP PUSH2 0x283F DUP12 PUSH1 0x60 ADD MLOAD DUP4 DUP4 DUP14 PUSH2 0x3FDE SWAP1 SWAP4 SWAP3 SWAP2 SWAP1 PUSH4 0xFFFFFFFF AND JUMP JUMPDEST DUP11 PUSH1 0x20 ADD MLOAD PUSH1 0x2 SIGNEXTEND DUP8 PUSH1 0x20 ADD MLOAD PUSH1 0x2 SIGNEXTEND SLT ISZERO PUSH2 0x2883 JUMPI PUSH2 0x287C PUSH2 0x2865 DUP13 PUSH1 0x20 ADD MLOAD PUSH2 0x2E29 JUMP JUMPDEST PUSH2 0x2872 DUP14 PUSH1 0x40 ADD MLOAD PUSH2 0x2E29 JUMP JUMPDEST DUP14 PUSH1 0x60 ADD MLOAD PUSH2 0x4221 JUMP JUMPDEST SWAP9 POP PUSH2 0x296F JUMP JUMPDEST DUP11 PUSH1 0x40 ADD MLOAD PUSH1 0x2 SIGNEXTEND DUP8 PUSH1 0x20 ADD MLOAD PUSH1 0x2 SIGNEXTEND SLT ISZERO PUSH2 0x2944 JUMPI PUSH2 0x28B8 DUP8 PUSH1 0x0 ADD MLOAD PUSH2 0x28AE DUP14 PUSH1 0x40 ADD MLOAD PUSH2 0x2E29 JUMP JUMPDEST DUP14 PUSH1 0x60 ADD MLOAD PUSH2 0x4221 JUMP JUMPDEST SWAP9 POP PUSH2 0x28D9 PUSH2 0x28CA DUP13 PUSH1 0x20 ADD MLOAD PUSH2 0x2E29 JUMP JUMPDEST DUP9 PUSH1 0x0 ADD MLOAD DUP14 PUSH1 0x60 ADD MLOAD PUSH2 0x4268 JUMP JUMPDEST SWAP8 POP PUSH2 0x2907 PUSH1 0x3 PUSH1 0x0 SWAP1 SLOAD SWAP1 PUSH2 0x100 EXP SWAP1 DIV PUSH16 0xFFFFFFFFFFFFFFFFFFFFFFFFFFFFFFFF AND DUP13 PUSH1 0x60 ADD MLOAD PUSH2 0x35F9 JUMP JUMPDEST PUSH1 0x3 PUSH1 0x0 PUSH2 0x100 EXP DUP2 SLOAD DUP2 PUSH16 0xFFFFFFFFFFFFFFFFFFFFFFFFFFFFFFFF MUL NOT AND SWAP1 DUP4 PUSH16 0xFFFFFFFFFFFFFFFFFFFFFFFFFFFFFFFF AND MUL OR SWAP1 SSTORE POP PUSH2 0x296E JUMP JUMPDEST PUSH2 0x296B PUSH2 0x2954 DUP13 PUSH1 0x20 ADD MLOAD PUSH2 0x2E29 JUMP JUMPDEST PUSH2 0x2961 DUP14 PUSH1 0x40 ADD MLOAD PUSH2 0x2E29 JUMP JUMPDEST DUP14 PUSH1 0x60 ADD MLOAD PUSH2 0x4268 JUMP JUMPDEST SWAP8 POP JUMPDEST JUMPDEST POP POP POP POP POP POP POP SWAP2 SWAP4 SWAP1 SWAP3 POP JUMP JUMPDEST PUSH1 0x0 PUSH32 0x0 PUSH20 0xFFFFFFFFFFFFFFFFFFFFFFFFFFFFFFFFFFFFFFFF AND PUSH4 0x70A08231 ADDRESS PUSH1 0x40 MLOAD DUP3 PUSH4 0xFFFFFFFF AND PUSH1 0xE0 SHL DUP2 MSTORE PUSH1 0x4 ADD PUSH2 0x29D8 SWAP2 SWAP1 PUSH2 0x5192 JUMP JUMPDEST PUSH1 0x20 PUSH1 0x40 MLOAD DUP1 DUP4 SUB DUP2 DUP7 GAS STATICCALL ISZERO DUP1 ISZERO PUSH2 0x29F5 JUMPI RETURNDATASIZE PUSH1 0x0 DUP1 RETURNDATACOPY RETURNDATASIZE PUSH1 0x0 REVERT JUMPDEST POP POP POP POP PUSH1 0x40 MLOAD RETURNDATASIZE PUSH1 0x1F NOT PUSH1 0x1F DUP3 ADD AND DUP3 ADD DUP1 PUSH1 0x40 MSTORE POP DUP2 ADD SWAP1 PUSH2 0x2A19 SWAP2 SWAP1 PUSH2 0x5DC3 JUMP JUMPDEST SWAP1 POP SWAP1 JUMP JUMPDEST PUSH1 0x0 PUSH32 0x0 PUSH20 0xFFFFFFFFFFFFFFFFFFFFFFFFFFFFFFFFFFFFFFFF AND PUSH4 0x70A08231 ADDRESS PUSH1 0x40 MLOAD DUP3 PUSH4 0xFFFFFFFF AND PUSH1 0xE0 SHL DUP2 MSTORE PUSH1 0x4 ADD PUSH2 0x2A79 SWAP2 SWAP1 PUSH2 0x5192 JUMP JUMPDEST PUSH1 0x20 PUSH1 0x40 MLOAD DUP1 DUP4 SUB DUP2 DUP7 GAS STATICCALL ISZERO DUP1 ISZERO PUSH2 0x2A96 JUMPI RETURNDATASIZE PUSH1 0x0 DUP1 RETURNDATACOPY RETURNDATASIZE PUSH1 0x0 REVERT JUMPDEST POP POP POP POP PUSH1 0x40 MLOAD RETURNDATASIZE PUSH1 0x1F NOT PUSH1 0x1F DUP3 ADD AND DUP3 ADD DUP1 PUSH1 0x40 MSTORE POP DUP2 ADD SWAP1 PUSH2 0x2ABA SWAP2 SWAP1 PUSH2 0x5DC3 JUMP JUMPDEST SWAP1 POP SWAP1 JUMP JUMPDEST PUSH1 0x0 PUSH2 0x2ACC DUP5 DUP5 DUP5 PUSH2 0x347A JUMP JUMPDEST SWAP1 POP PUSH1 0x0 DUP3 DUP1 PUSH2 0x2ADF JUMPI PUSH2 0x2ADE PUSH2 0x6196 JUMP JUMPDEST JUMPDEST DUP5 DUP7 MULMOD GT ISZERO PUSH2 0x2B23 JUMPI PUSH32 0xFFFFFFFFFFFFFFFFFFFFFFFFFFFFFFFFFFFFFFFFFFFFFFFFFFFFFFFFFFFFFFFF DUP2 LT PUSH2 0x2B14 JUMPI PUSH1 0x0 DUP1 REVERT JUMPDEST DUP1 DUP1 PUSH2 0x2B1F SWAP1 PUSH2 0x61C5 JUMP JUMPDEST SWAP2 POP POP JUMPDEST SWAP4 SWAP3 POP POP POP JUMP JUMPDEST PUSH1 0x0 DUP5 PUSH1 0x0 DUP6 DUP6 DUP6 PUSH1 0x40 MLOAD PUSH1 0x20 ADD PUSH2 0x2B44 SWAP4 SWAP3 SWAP2 SWAP1 PUSH2 0x628B JUMP JUMPDEST PUSH1 0x40 MLOAD PUSH1 0x20 DUP2 DUP4 SUB SUB DUP2 MSTORE SWAP1 PUSH1 0x40 MSTORE DUP1 MLOAD SWAP1 PUSH1 0x20 ADD KECCAK256 DUP2 MSTORE PUSH1 0x20 ADD SWAP1 DUP2 MSTORE PUSH1 0x20 ADD PUSH1 0x0 KECCAK256 SWAP1 POP SWAP5 SWAP4 POP POP POP POP JUMP JUMPDEST PUSH1 0x0 TIMESTAMP SWAP1 POP SWAP1 JUMP JUMPDEST PUSH1 0x60 DUP5 MLOAD PUSH8 0xFFFFFFFFFFFFFFFF DUP2 GT ISZERO PUSH2 0x2B97 JUMPI PUSH2 0x2B96 PUSH2 0x62C8 JUMP JUMPDEST JUMPDEST PUSH1 0x40 MLOAD SWAP1 DUP1 DUP3 MSTORE DUP1 PUSH1 0x20 MUL PUSH1 0x20 ADD DUP3 ADD PUSH1 0x40 MSTORE DUP1 ISZERO PUSH2 0x2BC5 JUMPI DUP2 PUSH1 0x20 ADD PUSH1 0x20 DUP3 MUL DUP1 CALLDATASIZE DUP4 CALLDATACOPY DUP1 DUP3 ADD SWAP2 POP POP SWAP1 POP JUMPDEST POP SWAP1 POP PUSH1 0x0 JUMPDEST DUP6 MLOAD DUP2 LT ISZERO PUSH2 0x2C30 JUMPI PUSH2 0x2BFC DUP9 DUP9 DUP9 DUP5 DUP2 MLOAD DUP2 LT PUSH2 0x2BEC JUMPI PUSH2 0x2BEB PUSH2 0x6167 JUMP JUMPDEST JUMPDEST PUSH1 0x20 MUL PUSH1 0x20 ADD ADD MLOAD DUP9 DUP9 DUP9 PUSH2 0x42AF JUMP JUMPDEST DUP3 DUP3 DUP2 MLOAD DUP2 LT PUSH2 0x2C0F JUMPI PUSH2 0x2C0E PUSH2 0x6167 JUMP JUMPDEST JUMPDEST PUSH1 0x20 MUL PUSH1 0x20 ADD ADD SWAP1 PUSH1 0x6 SIGNEXTEND SWAP1 DUP2 PUSH1 0x6 SIGNEXTEND DUP2 MSTORE POP POP DUP1 DUP1 PUSH1 0x1 ADD SWAP2 POP POP PUSH2 0x2BCB JUMP JUMPDEST POP SWAP7 SWAP6 POP POP POP POP POP POP JUMP JUMPDEST PUSH1 0x0 DUP1 PUSH1 0x0 DUP5 DUP7 PUSH2 0x2C4C SWAP2 SWAP1 PUSH2 0x62F7 JUMP JUMPDEST SWAP1 POP PUSH1 0x0 DUP7 PUSH1 0x2 SIGNEXTEND SLT DUP1 ISZERO PUSH2 0x2C70 JUMPI POP PUSH1 0x0 DUP6 DUP8 PUSH2 0x2C6A SWAP2 SWAP1 PUSH2 0x6361 JUMP JUMPDEST PUSH1 0x2 SIGNEXTEND EQ ISZERO JUMPDEST ISZERO PUSH2 0x2C84 JUMPI DUP1 DUP1 PUSH2 0x2C80 SWAP1 PUSH2 0x6392 JUMP JUMPDEST SWAP2 POP POP JUMPDEST DUP4 ISZERO PUSH2 0x2D47 JUMPI PUSH1 0x0 DUP1 PUSH2 0x2C96 DUP4 PUSH2 0x446A JUMP JUMPDEST SWAP2 POP SWAP2 POP PUSH1 0x0 DUP2 PUSH1 0xFF AND PUSH1 0x1 SWAP1 SHL PUSH1 0x1 DUP4 PUSH1 0xFF AND PUSH1 0x1 SWAP1 SHL PUSH2 0x2CB8 SWAP2 SWAP1 PUSH2 0x6045 JUMP JUMPDEST PUSH2 0x2CC2 SWAP2 SWAP1 PUSH2 0x5D35 JUMP JUMPDEST SWAP1 POP PUSH1 0x0 DUP2 DUP12 PUSH1 0x0 DUP7 PUSH1 0x1 SIGNEXTEND PUSH1 0x1 SIGNEXTEND DUP2 MSTORE PUSH1 0x20 ADD SWAP1 DUP2 MSTORE PUSH1 0x20 ADD PUSH1 0x0 KECCAK256 SLOAD AND SWAP1 POP PUSH1 0x0 DUP2 EQ ISZERO SWAP6 POP DUP6 PUSH2 0x2D0E JUMPI DUP9 DUP4 PUSH1 0xFF AND DUP7 PUSH2 0x2CFF SWAP2 SWAP1 PUSH2 0x6079 JUMP JUMPDEST PUSH2 0x2D09 SWAP2 SWAP1 PUSH2 0x63DA JUMP JUMPDEST PUSH2 0x2D3C JUMP JUMPDEST DUP9 PUSH2 0x2D18 DUP3 PUSH2 0x448C JUMP JUMPDEST DUP5 PUSH2 0x2D23 SWAP2 SWAP1 PUSH2 0x6424 JUMP JUMPDEST PUSH1 0xFF AND DUP7 PUSH2 0x2D31 SWAP2 SWAP1 PUSH2 0x6079 JUMP JUMPDEST PUSH2 0x2D3B SWAP2 SWAP1 PUSH2 0x63DA JUMP JUMPDEST JUMPDEST SWAP7 POP POP POP POP POP PUSH2 0x2E1F JUMP JUMPDEST PUSH1 0x0 DUP1 PUSH2 0x2D5F PUSH1 0x1 DUP5 PUSH2 0x2D5A SWAP2 SWAP1 PUSH2 0x6459 JUMP JUMPDEST PUSH2 0x446A JUMP JUMPDEST SWAP2 POP SWAP2 POP PUSH1 0x0 PUSH1 0x1 DUP3 PUSH1 0xFF AND PUSH1 0x1 SWAP1 SHL PUSH2 0x2D79 SWAP2 SWAP1 PUSH2 0x6045 JUMP JUMPDEST NOT SWAP1 POP PUSH1 0x0 DUP2 DUP12 PUSH1 0x0 DUP7 PUSH1 0x1 SIGNEXTEND PUSH1 0x1 SIGNEXTEND DUP2 MSTORE PUSH1 0x20 ADD SWAP1 DUP2 MSTORE PUSH1 0x20 ADD PUSH1 0x0 KECCAK256 SLOAD AND SWAP1 POP PUSH1 0x0 DUP2 EQ ISZERO SWAP6 POP DUP6 PUSH2 0x2DDE JUMPI DUP9 DUP4 PUSH1 0xFF PUSH2 0x2DB5 SWAP2 SWAP1 PUSH2 0x6424 JUMP JUMPDEST PUSH1 0xFF AND PUSH1 0x1 DUP8 PUSH2 0x2DC5 SWAP2 SWAP1 PUSH2 0x6459 JUMP JUMPDEST PUSH2 0x2DCF SWAP2 SWAP1 PUSH2 0x6459 JUMP JUMPDEST PUSH2 0x2DD9 SWAP2 SWAP1 PUSH2 0x63DA JUMP JUMPDEST PUSH2 0x2E18 JUMP JUMPDEST DUP9 DUP4 PUSH2 0x2DE9 DUP4 PUSH2 0x45AF JUMP JUMPDEST PUSH2 0x2DF3 SWAP2 SWAP1 PUSH2 0x6424 JUMP JUMPDEST PUSH1 0xFF AND PUSH1 0x1 DUP8 PUSH2 0x2E03 SWAP2 SWAP1 PUSH2 0x6459 JUMP JUMPDEST PUSH2 0x2E0D SWAP2 SWAP1 PUSH2 0x6459 JUMP JUMPDEST PUSH2 0x2E17 SWAP2 SWAP1 PUSH2 0x63DA JUMP JUMPDEST JUMPDEST SWAP7 POP POP POP POP POP JUMPDEST POP SWAP5 POP SWAP5 SWAP3 POP POP POP JUMP JUMPDEST PUSH1 0x0 DUP1 PUSH1 0x0 DUP4 PUSH1 0x2 SIGNEXTEND SLT PUSH2 0x2E40 JUMPI DUP3 PUSH1 0x2 SIGNEXTEND PUSH2 0x2E4E JUMP JUMPDEST DUP3 PUSH1 0x2 SIGNEXTEND PUSH2 0x2E4D SWAP1 PUSH2 0x5F82 JUMP JUMPDEST JUMPDEST SWAP1 POP PUSH32 0xFFFFFFFFFFFFFFFFFFFFFFFFFFFFFFFFFFFFFFFFFFFFFFFFFFFFFFFFFFF27618 PUSH2 0x2E7A SWAP1 PUSH2 0x5C4F JUMP JUMPDEST PUSH3 0xFFFFFF AND DUP2 GT ISZERO PUSH2 0x2EC1 JUMPI PUSH1 0x40 MLOAD PUSH32 0x8C379A000000000000000000000000000000000000000000000000000000000 DUP2 MSTORE PUSH1 0x4 ADD PUSH2 0x2EB8 SWAP1 PUSH2 0x6511 JUMP JUMPDEST PUSH1 0x40 MLOAD DUP1 SWAP2 SUB SWAP1 REVERT JUMPDEST PUSH1 0x0 DUP1 PUSH1 0x1 DUP4 AND SUB PUSH2 0x2EE4 JUMPI PUSH17 0x100000000000000000000000000000000 PUSH2 0x2EF6 JUMP JUMPDEST PUSH16 0xFFFCB933BD6FAD37AA2D162D1A594001 JUMPDEST PUSH17 0xFFFFFFFFFFFFFFFFFFFFFFFFFFFFFFFFFF AND SWAP1 POP PUSH1 0x0 PUSH1 0x2 DUP4 AND EQ PUSH2 0x2F39 JUMPI PUSH1 0x80 PUSH16 0xFFF97272373D413259A46990580E213A DUP3 PUSH2 0x2F34 SWAP2 SWAP1 PUSH2 0x6531 JUMP JUMPDEST SWAP1 SHR SWAP1 POP JUMPDEST PUSH1 0x0 PUSH1 0x4 DUP4 AND EQ PUSH2 0x2F67 JUMPI PUSH1 0x80 PUSH16 0xFFF2E50F5F656932EF12357CF3C7FDCC DUP3 PUSH2 0x2F62 SWAP2 SWAP1 PUSH2 0x6531 JUMP JUMPDEST SWAP1 SHR SWAP1 POP JUMPDEST PUSH1 0x0 PUSH1 0x8 DUP4 AND EQ PUSH2 0x2F95 JUMPI PUSH1 0x80 PUSH16 0xFFE5CACA7E10E4E61C3624EAA0941CD0 DUP3 PUSH2 0x2F90 SWAP2 SWAP1 PUSH2 0x6531 JUMP JUMPDEST SWAP1 SHR SWAP1 POP JUMPDEST PUSH1 0x0 PUSH1 0x10 DUP4 AND EQ PUSH2 0x2FC3 JUMPI PUSH1 0x80 PUSH16 0xFFCB9843D60F6159C9DB58835C926644 DUP3 PUSH2 0x2FBE SWAP2 SWAP1 PUSH2 0x6531 JUMP JUMPDEST SWAP1 SHR SWAP1 POP JUMPDEST PUSH1 0x0 PUSH1 0x20 DUP4 AND EQ PUSH2 0x2FF1 JUMPI PUSH1 0x80 PUSH16 0xFF973B41FA98C081472E6896DFB254C0 DUP3 PUSH2 0x2FEC SWAP2 SWAP1 PUSH2 0x6531 JUMP JUMPDEST SWAP1 SHR SWAP1 POP JUMPDEST PUSH1 0x0 PUSH1 0x40 DUP4 AND EQ PUSH2 0x301F JUMPI PUSH1 0x80 PUSH16 0xFF2EA16466C96A3843EC78B326B52861 DUP3 PUSH2 0x301A SWAP2 SWAP1 PUSH2 0x6531 JUMP JUMPDEST SWAP1 SHR SWAP1 POP JUMPDEST PUSH1 0x0 PUSH1 0x80 DUP4 AND EQ PUSH2 0x304D JUMPI PUSH1 0x80 PUSH16 0xFE5DEE046A99A2A811C461F1969C3053 DUP3 PUSH2 0x3048 SWAP2 SWAP1 PUSH2 0x6531 JUMP JUMPDEST SWAP1 SHR SWAP1 POP JUMPDEST PUSH1 0x0 PUSH2 0x100 DUP4 AND EQ PUSH2 0x307C JUMPI PUSH1 0x80 PUSH16 0xFCBE86C7900A88AEDCFFC83B479AA3A4 DUP3 PUSH2 0x3077 SWAP2 SWAP1 PUSH2 0x6531 JUMP JUMPDEST SWAP1 SHR SWAP1 POP JUMPDEST PUSH1 0x0 PUSH2 0x200 DUP4 AND EQ PUSH2 0x30AB JUMPI PUSH1 0x80 PUSH16 0xF987A7253AC413176F2B074CF7815E54 DUP3 PUSH2 0x30A6 SWAP2 SWAP1 PUSH2 0x6531 JUMP JUMPDEST SWAP1 SHR SWAP1 POP JUMPDEST PUSH1 0x0 PUSH2 0x400 DUP4 AND EQ PUSH2 0x30DA JUMPI PUSH1 0x80 PUSH16 0xF3392B0822B70005940C7A398E4B70F3 DUP3 PUSH2 0x30D5 SWAP2 SWAP1 PUSH2 0x6531 JUMP JUMPDEST SWAP1 SHR SWAP1 POP JUMPDEST PUSH1 0x0 PUSH2 0x800 DUP4 AND EQ PUSH2 0x3109 JUMPI PUSH1 0x80 PUSH16 0xE7159475A2C29B7443B29C7FA6E889D9 DUP3 PUSH2 0x3104 SWAP2 SWAP1 PUSH2 0x6531 JUMP JUMPDEST SWAP1 SHR SWAP1 POP JUMPDEST PUSH1 0x0 PUSH2 0x1000 DUP4 AND EQ PUSH2 0x3138 JUMPI PUSH1 0x80 PUSH16 0xD097F3BDFD2022B8845AD8F792AA5825 DUP3 PUSH2 0x3133 SWAP2 SWAP1 PUSH2 0x6531 JUMP JUMPDEST SWAP1 SHR SWAP1 POP JUMPDEST PUSH1 0x0 PUSH2 0x2000 DUP4 AND EQ PUSH2 0x3167 JUMPI PUSH1 0x80 PUSH16 0xA9F746462D870FDF8A65DC1F90E061E5 DUP3 PUSH2 0x3162 SWAP2 SWAP1 PUSH2 0x6531 JUMP JUMPDEST SWAP1 SHR SWAP1 POP JUMPDEST PUSH1 0x0 PUSH2 0x4000 DUP4 AND EQ PUSH2 0x3196 JUMPI PUSH1 0x80 PUSH16 0x70D869A156D2A1B890BB3DF62BAF32F7 DUP3 PUSH2 0x3191 SWAP2 SWAP1 PUSH2 0x6531 JUMP JUMPDEST SWAP1 SHR SWAP1 POP JUMPDEST PUSH1 0x0 PUSH2 0x8000 DUP4 AND EQ PUSH2 0x31C5 JUMPI PUSH1 0x80 PUSH16 0x31BE135F97D08FD981231505542FCFA6 DUP3 PUSH2 0x31C0 SWAP2 SWAP1 PUSH2 0x6531 JUMP JUMPDEST SWAP1 SHR SWAP1 POP JUMPDEST PUSH1 0x0 PUSH3 0x10000 DUP4 AND EQ PUSH2 0x31F5 JUMPI PUSH1 0x80 PUSH16 0x9AA508B5B7A84E1C677DE54F3E99BC9 DUP3 PUSH2 0x31F0 SWAP2 SWAP1 PUSH2 0x6531 JUMP JUMPDEST SWAP1 SHR SWAP1 POP JUMPDEST PUSH1 0x0 PUSH3 0x20000 DUP4 AND EQ PUSH2 0x3224 JUMPI PUSH1 0x80 PUSH15 0x5D6AF8DEDB81196699C329225EE604 DUP3 PUSH2 0x321F SWAP2 SWAP1 PUSH2 0x6531 JUMP JUMPDEST SWAP1 SHR SWAP1 POP JUMPDEST PUSH1 0x0 PUSH3 0x40000 DUP4 AND EQ PUSH2 0x3252 JUMPI PUSH1 0x80 PUSH14 0x2216E584F5FA1EA926041BEDFE98 DUP3 PUSH2 0x324D SWAP2 SWAP1 PUSH2 0x6531 JUMP JUMPDEST SWAP1 SHR SWAP1 POP JUMPDEST PUSH1 0x0 PUSH3 0x80000 DUP4 AND EQ PUSH2 0x327E JUMPI PUSH1 0x80 PUSH12 0x48A170391F7DC42444E8FA2 DUP3 PUSH2 0x3279 SWAP2 SWAP1 PUSH2 0x6531 JUMP JUMPDEST SWAP1 SHR SWAP1 POP JUMPDEST PUSH1 0x0 DUP5 PUSH1 0x2 SIGNEXTEND SGT ISZERO PUSH2 0x32B9 JUMPI DUP1 PUSH32 0xFFFFFFFFFFFFFFFFFFFFFFFFFFFFFFFFFFFFFFFFFFFFFFFFFFFFFFFFFFFFFFFF PUSH2 0x32B6 SWAP2 SWAP1 PUSH2 0x6573 JUMP JUMPDEST SWAP1 POP JUMPDEST PUSH1 0x0 PUSH5 0x100000000 DUP3 PUSH2 0x32CC SWAP2 SWAP1 PUSH2 0x65A4 JUMP JUMPDEST EQ PUSH2 0x32D8 JUMPI PUSH1 0x1 PUSH2 0x32DB JUMP JUMPDEST PUSH1 0x0 JUMPDEST PUSH1 0xFF AND PUSH1 0x20 DUP3 SWAP1 SHR PUSH2 0x32ED SWAP2 SWAP1 PUSH2 0x5D35 JUMP JUMPDEST SWAP3 POP POP POP SWAP2 SWAP1 POP JUMP JUMPDEST PUSH1 0x0 DUP1 PUSH1 0x0 DUP1 PUSH1 0x0 DUP9 PUSH20 0xFFFFFFFFFFFFFFFFFFFFFFFFFFFFFFFFFFFFFFFF AND DUP11 PUSH20 0xFFFFFFFFFFFFFFFFFFFFFFFFFFFFFFFFFFFFFFFF AND LT ISZERO SWAP1 POP PUSH1 0x0 PUSH2 0x3353 DUP9 DUP9 PUSH3 0xF4240 PUSH2 0x3345 SWAP2 SWAP1 PUSH2 0x65D5 JUMP JUMPDEST PUSH3 0xFFFFFF AND PUSH3 0xF4240 PUSH2 0x347A JUMP JUMPDEST SWAP1 POP DUP2 PUSH2 0x336C JUMPI PUSH2 0x3367 DUP12 DUP12 DUP12 PUSH1 0x1 PUSH2 0x471E JUMP JUMPDEST PUSH2 0x337A JUMP JUMPDEST PUSH2 0x3379 DUP12 DUP12 DUP12 PUSH1 0x1 PUSH2 0x480D JUMP JUMPDEST JUMPDEST SWAP5 POP DUP5 DUP2 LT PUSH2 0x338B JUMPI DUP10 SWAP6 POP PUSH2 0x339A JUMP JUMPDEST PUSH2 0x3397 DUP12 DUP11 DUP4 DUP6 PUSH2 0x4951 JUMP JUMPDEST SWAP6 POP JUMPDEST PUSH1 0x0 DUP11 PUSH20 0xFFFFFFFFFFFFFFFFFFFFFFFFFFFFFFFFFFFFFFFF AND DUP8 PUSH20 0xFFFFFFFFFFFFFFFFFFFFFFFFFFFFFFFFFFFFFFFF AND EQ SWAP1 POP DUP3 ISZERO PUSH2 0x3402 JUMPI DUP1 PUSH2 0x33EA JUMPI PUSH2 0x33E5 DUP13 DUP9 DUP13 PUSH1 0x1 PUSH2 0x480D JUMP JUMPDEST PUSH2 0x33EC JUMP JUMPDEST DUP6 JUMPDEST SWAP6 POP PUSH2 0x33FB DUP13 DUP9 DUP13 PUSH1 0x0 PUSH2 0x471E JUMP JUMPDEST SWAP5 POP PUSH2 0x342D JUMP JUMPDEST DUP1 PUSH2 0x3419 JUMPI PUSH2 0x3414 DUP13 DUP9 DUP13 PUSH1 0x1 PUSH2 0x471E JUMP JUMPDEST PUSH2 0x341B JUMP JUMPDEST DUP6 JUMPDEST SWAP6 POP PUSH2 0x342A DUP13 DUP9 DUP13 PUSH1 0x0 PUSH2 0x480D JUMP JUMPDEST SWAP5 POP JUMPDEST DUP1 PUSH2 0x3445 JUMPI DUP6 DUP10 PUSH2 0x343E SWAP2 SWAP1 PUSH2 0x6045 JUMP JUMPDEST SWAP4 POP PUSH2 0x346B JUMP JUMPDEST PUSH2 0x3468 DUP7 DUP10 PUSH3 0xFFFFFF AND DUP11 PUSH3 0xF4240 PUSH2 0x345E SWAP2 SWAP1 PUSH2 0x65D5 JUMP JUMPDEST PUSH3 0xFFFFFF AND PUSH2 0x2ABF JUMP JUMPDEST SWAP4 POP JUMPDEST POP POP POP SWAP6 POP SWAP6 POP SWAP6 POP SWAP6 SWAP2 POP POP JUMP JUMPDEST PUSH1 0x0 DUP1 PUSH1 0x0 DUP1 NOT DUP6 DUP8 MULMOD DUP6 DUP8 MUL SWAP3 POP DUP3 DUP2 LT DUP4 DUP3 SUB SUB SWAP2 POP POP PUSH1 0x0 DUP2 SUB PUSH2 0x34B5 JUMPI DUP4 DUP3 DUP2 PUSH2 0x34AB JUMPI PUSH2 0x34AA PUSH2 0x6196 JUMP JUMPDEST JUMPDEST DIV SWAP3 POP POP POP PUSH2 0x3588 JUMP JUMPDEST DUP4 DUP2 LT PUSH2 0x34FB JUMPI DUP1 DUP5 PUSH1 0x40 MLOAD PUSH32 0x773CC18C00000000000000000000000000000000000000000000000000000000 DUP2 MSTORE PUSH1 0x4 ADD PUSH2 0x34F2 SWAP3 SWAP2 SWAP1 PUSH2 0x5573 JUMP JUMPDEST PUSH1 0x40 MLOAD DUP1 SWAP2 SUB SWAP1 REVERT JUMPDEST PUSH1 0x0 DUP5 DUP7 DUP9 MULMOD SWAP1 POP DUP3 DUP2 GT DUP3 SUB SWAP2 POP DUP1 DUP4 SUB SWAP3 POP PUSH1 0x0 PUSH1 0x1 DUP7 NOT ADD DUP7 AND SWAP1 POP DUP1 DUP7 DIV SWAP6 POP DUP1 DUP5 DIV SWAP4 POP PUSH1 0x1 DUP2 DUP3 PUSH1 0x0 SUB DIV ADD SWAP1 POP DUP1 DUP4 MUL DUP5 OR SWAP4 POP PUSH1 0x0 PUSH1 0x2 DUP8 PUSH1 0x3 MUL XOR SWAP1 POP DUP1 DUP8 MUL PUSH1 0x2 SUB DUP2 MUL SWAP1 POP DUP1 DUP8 MUL PUSH1 0x2 SUB DUP2 MUL SWAP1 POP DUP1 DUP8 MUL PUSH1 0x2 SUB DUP2 MUL SWAP1 POP DUP1 DUP8 MUL PUSH1 0x2 SUB DUP2 MUL SWAP1 POP DUP1 DUP8 MUL PUSH1 0x2 SUB DUP2 MUL SWAP1 POP DUP1 DUP8 MUL PUSH1 0x2 SUB DUP2 MUL SWAP1 POP DUP1 DUP6 MUL SWAP6 POP POP POP POP POP POP JUMPDEST SWAP4 SWAP3 POP POP POP JUMP JUMPDEST PUSH1 0x0 DUP1 DUP6 PUSH1 0x0 DUP7 PUSH1 0x2 SIGNEXTEND PUSH1 0x2 SIGNEXTEND DUP2 MSTORE PUSH1 0x20 ADD SWAP1 DUP2 MSTORE PUSH1 0x20 ADD PUSH1 0x0 KECCAK256 SWAP1 POP DUP1 PUSH1 0x2 ADD SLOAD DUP5 PUSH2 0x35BC SWAP2 SWAP1 PUSH2 0x6045 JUMP JUMPDEST DUP2 PUSH1 0x2 ADD DUP2 SWAP1 SSTORE POP DUP1 PUSH1 0x3 ADD SLOAD DUP4 PUSH2 0x35D4 SWAP2 SWAP1 PUSH2 0x6045 JUMP JUMPDEST DUP2 PUSH1 0x3 ADD DUP2 SWAP1 SSTORE POP DUP1 PUSH1 0x1 ADD PUSH1 0x0 SWAP1 SLOAD SWAP1 PUSH2 0x100 EXP SWAP1 DIV PUSH1 0xF SIGNEXTEND SWAP2 POP POP SWAP5 SWAP4 POP POP POP POP JUMP JUMPDEST PUSH1 0x0 DUP1 DUP3 PUSH1 0xF SIGNEXTEND SLT ISZERO PUSH2 0x3622 JUMPI DUP2 PUSH2 0x3610 SWAP1 PUSH2 0x5F3A JUMP JUMPDEST DUP4 PUSH2 0x361B SWAP2 SWAP1 PUSH2 0x5E5B JUMP JUMPDEST SWAP1 POP PUSH2 0x3631 JUMP JUMPDEST DUP2 DUP4 PUSH2 0x362E SWAP2 SWAP1 PUSH2 0x5FCA JUMP JUMPDEST SWAP1 POP JUMPDEST SWAP3 SWAP2 POP POP JUMP JUMPDEST PUSH1 0x0 PUSH5 0x1000276A3 PUSH20 0xFFFFFFFFFFFFFFFFFFFFFFFFFFFFFFFFFFFFFFFF AND DUP3 PUSH20 0xFFFFFFFFFFFFFFFFFFFFFFFFFFFFFFFFFFFFFFFF AND LT ISZERO DUP1 ISZERO PUSH2 0x36B9 JUMPI POP PUSH20 0xFFFD8963EFD1FC6A506488495D951D5263988D26 PUSH20 0xFFFFFFFFFFFFFFFFFFFFFFFFFFFFFFFFFFFFFFFF AND DUP3 PUSH20 0xFFFFFFFFFFFFFFFFFFFFFFFFFFFFFFFFFFFFFFFF AND LT JUMPDEST PUSH2 0x36F8 JUMPI PUSH1 0x40 MLOAD PUSH32 0x8C379A000000000000000000000000000000000000000000000000000000000 DUP2 MSTORE PUSH1 0x4 ADD PUSH2 0x36EF SWAP1 PUSH2 0x6658 JUMP JUMPDEST PUSH1 0x40 MLOAD DUP1 SWAP2 SUB SWAP1 REVERT JUMPDEST PUSH1 0x0 PUSH1 0x20 DUP4 PUSH20 0xFFFFFFFFFFFFFFFFFFFFFFFFFFFFFFFFFFFFFFFF AND SWAP1 SHL SWAP1 POP PUSH1 0x0 DUP2 SWAP1 POP PUSH1 0x0 PUSH16 0xFFFFFFFFFFFFFFFFFFFFFFFFFFFFFFFF DUP3 GT PUSH1 0x7 SHL DUP1 DUP3 OR SWAP2 POP DUP3 DUP2 SHR SWAP3 POP POP PUSH8 0xFFFFFFFFFFFFFFFF DUP3 GT PUSH1 0x6 SHL DUP1 DUP3 OR SWAP2 POP DUP3 DUP2 SHR SWAP3 POP POP PUSH4 0xFFFFFFFF DUP3 GT PUSH1 0x5 SHL DUP1 DUP3 OR SWAP2 POP DUP3 DUP2 SHR SWAP3 POP POP PUSH2 0xFFFF DUP3 GT PUSH1 0x4 SHL DUP1 DUP3 OR SWAP2 POP DUP3 DUP2 SHR SWAP3 POP POP PUSH1 0xFF DUP3 GT PUSH1 0x3 SHL DUP1 DUP3 OR SWAP2 POP DUP3 DUP2 SHR SWAP3 POP POP PUSH1 0xF DUP3 GT PUSH1 0x2 SHL DUP1 DUP3 OR SWAP2 POP DUP3 DUP2 SHR SWAP3 POP POP PUSH1 0x3 DUP3 GT PUSH1 0x1 SHL DUP1 DUP3 OR SWAP2 POP DUP3 DUP2 SHR SWAP3 POP POP PUSH1 0x1 DUP3 GT DUP1 DUP3 OR SWAP2 POP POP PUSH1 0x80 DUP2 LT PUSH2 0x37DF JUMPI PUSH1 0x7F DUP2 PUSH2 0x37D5 SWAP2 SWAP1 PUSH2 0x6045 JUMP JUMPDEST DUP4 SWAP1 SHR SWAP2 POP PUSH2 0x37F2 JUMP JUMPDEST DUP1 PUSH1 0x7F PUSH2 0x37EC SWAP2 SWAP1 PUSH2 0x6045 JUMP JUMPDEST DUP4 SWAP1 SHL SWAP2 POP JUMPDEST PUSH1 0x0 PUSH1 0x40 PUSH1 0x80 DUP4 PUSH2 0x3803 SWAP2 SWAP1 PUSH2 0x6678 JUMP JUMPDEST SWAP1 SHL SWAP1 POP DUP3 DUP4 MUL PUSH1 0x7F SHR SWAP3 POP DUP3 PUSH1 0x80 SHR DUP1 PUSH1 0x3F SHL DUP3 OR SWAP2 POP DUP4 DUP2 SHR SWAP4 POP POP DUP3 DUP4 MUL PUSH1 0x7F SHR SWAP3 POP DUP3 PUSH1 0x80 SHR DUP1 PUSH1 0x3E SHL DUP3 OR SWAP2 POP DUP4 DUP2 SHR SWAP4 POP POP DUP3 DUP4 MUL PUSH1 0x7F SHR SWAP3 POP DUP3 PUSH1 0x80 SHR DUP1 PUSH1 0x3D SHL DUP3 OR SWAP2 POP DUP4 DUP2 SHR SWAP4 POP POP DUP3 DUP4 MUL PUSH1 0x7F SHR SWAP3 POP DUP3 PUSH1 0x80 SHR DUP1 PUSH1 0x3C SHL DUP3 OR SWAP2 POP DUP4 DUP2 SHR SWAP4 POP POP DUP3 DUP4 MUL PUSH1 0x7F SHR SWAP3 POP DUP3 PUSH1 0x80 SHR DUP1 PUSH1 0x3B SHL DUP3 OR SWAP2 POP DUP4 DUP2 SHR SWAP4 POP POP DUP3 DUP4 MUL PUSH1 0x7F SHR SWAP3 POP DUP3 PUSH1 0x80 SHR DUP1 PUSH1 0x3A SHL DUP3 OR SWAP2 POP DUP4 DUP2 SHR SWAP4 POP POP DUP3 DUP4 MUL PUSH1 0x7F SHR SWAP3 POP DUP3 PUSH1 0x80 SHR DUP1 PUSH1 0x39 SHL DUP3 OR SWAP2 POP DUP4 DUP2 SHR SWAP4 POP POP DUP3 DUP4 MUL PUSH1 0x7F SHR SWAP3 POP DUP3 PUSH1 0x80 SHR DUP1 PUSH1 0x38 SHL DUP3 OR SWAP2 POP DUP4 DUP2 SHR SWAP4 POP POP DUP3 DUP4 MUL PUSH1 0x7F SHR SWAP3 POP DUP3 PUSH1 0x80 SHR DUP1 PUSH1 0x37 SHL DUP3 OR SWAP2 POP DUP4 DUP2 SHR SWAP4 POP POP DUP3 DUP4 MUL PUSH1 0x7F SHR SWAP3 POP DUP3 PUSH1 0x80 SHR DUP1 PUSH1 0x36 SHL DUP3 OR SWAP2 POP DUP4 DUP2 SHR SWAP4 POP POP DUP3 DUP4 MUL PUSH1 0x7F SHR SWAP3 POP DUP3 PUSH1 0x80 SHR DUP1 PUSH1 0x35 SHL DUP3 OR SWAP2 POP DUP4 DUP2 SHR SWAP4 POP POP DUP3 DUP4 MUL PUSH1 0x7F SHR SWAP3 POP DUP3 PUSH1 0x80 SHR DUP1 PUSH1 0x34 SHL DUP3 OR SWAP2 POP DUP4 DUP2 SHR SWAP4 POP POP DUP3 DUP4 MUL PUSH1 0x7F SHR SWAP3 POP DUP3 PUSH1 0x80 SHR DUP1 PUSH1 0x33 SHL DUP3 OR SWAP2 POP DUP4 DUP2 SHR SWAP4 POP POP DUP3 DUP4 MUL PUSH1 0x7F SHR SWAP3 POP DUP3 PUSH1 0x80 SHR DUP1 PUSH1 0x32 SHL DUP3 OR SWAP2 POP POP PUSH1 0x0 PUSH10 0x3627A301D71055774C85 DUP3 PUSH2 0x3986 SWAP2 SWAP1 PUSH2 0x66BB JUMP JUMPDEST SWAP1 POP PUSH1 0x0 PUSH1 0x80 PUSH16 0x28F6481AB7F045A5AF012A19D003AAA DUP4 PUSH2 0x39A8 SWAP2 SWAP1 PUSH2 0x6678 JUMP JUMPDEST SWAP1 SAR SWAP1 POP PUSH1 0x0 PUSH1 0x80 PUSH16 0xDB2DF09E81959A81455E260799A0632F DUP5 PUSH2 0x39CC SWAP2 SWAP1 PUSH2 0x6733 JUMP JUMPDEST SWAP1 SAR SWAP1 POP DUP1 PUSH1 0x2 SIGNEXTEND DUP3 PUSH1 0x2 SIGNEXTEND EQ PUSH2 0x3A26 JUMPI DUP9 PUSH20 0xFFFFFFFFFFFFFFFFFFFFFFFFFFFFFFFFFFFFFFFF AND PUSH2 0x39FD DUP3 PUSH2 0x2E29 JUMP JUMPDEST PUSH20 0xFFFFFFFFFFFFFFFFFFFFFFFFFFFFFFFFFFFFFFFF AND GT ISZERO PUSH2 0x3A1F JUMPI DUP2 PUSH2 0x3A21 JUMP JUMPDEST DUP1 JUMPDEST PUSH2 0x3A28 JUMP JUMPDEST DUP2 JUMPDEST SWAP8 POP POP POP POP POP POP POP POP SWAP2 SWAP1 POP JUMP JUMPDEST PUSH1 0x0 DUP1 PUSH1 0x0 DUP9 DUP9 PUSH2 0xFFFF AND PUSH2 0xFFFF DUP2 LT PUSH2 0x3A53 JUMPI PUSH2 0x3A52 PUSH2 0x6167 JUMP JUMPDEST JUMPDEST ADD PUSH1 0x40 MLOAD DUP1 PUSH1 0x60 ADD PUSH1 0x40 MSTORE SWAP1 DUP2 PUSH1 0x0 DUP3 ADD PUSH1 0x0 SWAP1 SLOAD SWAP1 PUSH2 0x100 EXP SWAP1 DIV PUSH4 0xFFFFFFFF AND PUSH4 0xFFFFFFFF AND PUSH4 0xFFFFFFFF AND DUP2 MSTORE PUSH1 0x20 ADD PUSH1 0x0 DUP3 ADD PUSH1 0x4 SWAP1 SLOAD SWAP1 PUSH2 0x100 EXP SWAP1 DIV PUSH1 0x6 SIGNEXTEND PUSH1 0x6 SIGNEXTEND PUSH1 0x6 SIGNEXTEND DUP2 MSTORE PUSH1 0x20 ADD PUSH1 0x0 DUP3 ADD PUSH1 0xB SWAP1 SLOAD SWAP1 PUSH2 0x100 EXP SWAP1 DIV PUSH1 0xFF AND ISZERO ISZERO ISZERO ISZERO DUP2 MSTORE POP POP SWAP1 POP DUP7 PUSH4 0xFFFFFFFF AND DUP2 PUSH1 0x0 ADD MLOAD PUSH4 0xFFFFFFFF AND SUB PUSH2 0x3AE2 JUMPI DUP8 DUP6 SWAP3 POP SWAP3 POP POP PUSH2 0x3BD7 JUMP JUMPDEST DUP5 PUSH2 0xFFFF AND DUP5 PUSH2 0xFFFF AND GT DUP1 ISZERO PUSH2 0x3B0C JUMPI POP PUSH1 0x1 DUP6 PUSH2 0x3B01 SWAP2 SWAP1 PUSH2 0x6777 JUMP JUMPDEST PUSH2 0xFFFF AND DUP9 PUSH2 0xFFFF AND EQ JUMPDEST ISZERO PUSH2 0x3B19 JUMPI DUP4 SWAP2 POP PUSH2 0x3B1D JUMP JUMPDEST DUP5 SWAP2 POP JUMPDEST DUP2 PUSH1 0x1 DUP10 PUSH2 0x3B2B SWAP2 SWAP1 PUSH2 0x67AD JUMP JUMPDEST PUSH2 0x3B35 SWAP2 SWAP1 PUSH2 0x67E3 JUMP JUMPDEST SWAP3 POP PUSH2 0x3B42 DUP2 DUP9 DUP9 PUSH2 0x497E JUMP JUMPDEST DUP10 DUP5 PUSH2 0xFFFF AND PUSH2 0xFFFF DUP2 LT PUSH2 0x3B5A JUMPI PUSH2 0x3B59 PUSH2 0x6167 JUMP JUMPDEST JUMPDEST ADD PUSH1 0x0 DUP3 ADD MLOAD DUP2 PUSH1 0x0 ADD PUSH1 0x0 PUSH2 0x100 EXP DUP2 SLOAD DUP2 PUSH4 0xFFFFFFFF MUL NOT AND SWAP1 DUP4 PUSH4 0xFFFFFFFF AND MUL OR SWAP1 SSTORE POP PUSH1 0x20 DUP3 ADD MLOAD DUP2 PUSH1 0x0 ADD PUSH1 0x4 PUSH2 0x100 EXP DUP2 SLOAD DUP2 PUSH7 0xFFFFFFFFFFFFFF MUL NOT AND SWAP1 DUP4 PUSH1 0x6 SIGNEXTEND PUSH7 0xFFFFFFFFFFFFFF AND MUL OR SWAP1 SSTORE POP PUSH1 0x40 DUP3 ADD MLOAD DUP2 PUSH1 0x0 ADD PUSH1 0xB PUSH2 0x100 EXP DUP2 SLOAD DUP2 PUSH1 0xFF MUL NOT AND SWAP1 DUP4 ISZERO ISZERO MUL OR SWAP1 SSTORE POP SWAP1 POP POP POP JUMPDEST SWAP7 POP SWAP7 SWAP5 POP POP POP POP POP JUMP JUMPDEST PUSH1 0x0 DUP1 PUSH1 0x40 MLOAD DUP1 PUSH1 0x60 ADD PUSH1 0x40 MSTORE DUP1 DUP5 PUSH4 0xFFFFFFFF AND DUP2 MSTORE PUSH1 0x20 ADD PUSH1 0x0 PUSH1 0x6 SIGNEXTEND DUP2 MSTORE PUSH1 0x20 ADD PUSH1 0x1 ISZERO ISZERO DUP2 MSTORE POP DUP5 PUSH1 0x0 PUSH2 0xFFFF DUP2 LT PUSH2 0x3C22 JUMPI PUSH2 0x3C21 PUSH2 0x6167 JUMP JUMPDEST JUMPDEST ADD PUSH1 0x0 DUP3 ADD MLOAD DUP2 PUSH1 0x0 ADD PUSH1 0x0 PUSH2 0x100 EXP DUP2 SLOAD DUP2 PUSH4 0xFFFFFFFF MUL NOT AND SWAP1 DUP4 PUSH4 0xFFFFFFFF AND MUL OR SWAP1 SSTORE POP PUSH1 0x20 DUP3 ADD MLOAD DUP2 PUSH1 0x0 ADD PUSH1 0x4 PUSH2 0x100 EXP DUP2 SLOAD DUP2 PUSH7 0xFFFFFFFFFFFFFF MUL NOT AND SWAP1 DUP4 PUSH1 0x6 SIGNEXTEND PUSH7 0xFFFFFFFFFFFFFF AND MUL OR SWAP1 SSTORE POP PUSH1 0x40 DUP3 ADD MLOAD DUP2 PUSH1 0x0 ADD PUSH1 0xB PUSH2 0x100 EXP DUP2 SLOAD DUP2 PUSH1 0xFF MUL NOT AND SWAP1 DUP4 ISZERO ISZERO MUL OR SWAP1 SSTORE POP SWAP1 POP POP PUSH1 0x1 SWAP2 POP PUSH1 0x1 SWAP1 POP SWAP3 POP SWAP3 SWAP1 POP JUMP JUMPDEST PUSH1 0x0 DUP1 DUP9 PUSH1 0x0 DUP10 PUSH1 0x2 SIGNEXTEND PUSH1 0x2 SIGNEXTEND DUP2 MSTORE PUSH1 0x20 ADD SWAP1 DUP2 MSTORE PUSH1 0x20 ADD PUSH1 0x0 KECCAK256 SWAP1 POP PUSH1 0x0 DUP2 PUSH1 0x0 ADD PUSH1 0x1 SWAP1 SLOAD SWAP1 PUSH2 0x100 EXP SWAP1 DIV PUSH16 0xFFFFFFFFFFFFFFFFFFFFFFFFFFFFFFFF AND SWAP1 POP PUSH1 0x0 PUSH2 0x3CFA DUP3 DUP10 PUSH2 0x35F9 JUMP JUMPDEST SWAP1 POP PUSH1 0x0 DUP3 PUSH16 0xFFFFFFFFFFFFFFFFFFFFFFFFFFFFFFFF AND EQ ISZERO ISZERO PUSH1 0x0 DUP3 PUSH16 0xFFFFFFFFFFFFFFFFFFFFFFFFFFFFFFFF AND EQ ISZERO ISZERO EQ ISZERO SWAP4 POP PUSH1 0x0 DUP3 PUSH16 0xFFFFFFFFFFFFFFFFFFFFFFFFFFFFFFFF AND SUB PUSH2 0x3D88 JUMPI DUP9 PUSH1 0x2 SIGNEXTEND DUP11 PUSH1 0x2 SIGNEXTEND SGT PUSH2 0x3D6A JUMPI DUP7 DUP4 PUSH1 0x2 ADD DUP2 SWAP1 SSTORE POP DUP6 DUP4 PUSH1 0x3 ADD DUP2 SWAP1 SSTORE POP JUMPDEST PUSH1 0x1 DUP4 PUSH1 0x0 ADD PUSH1 0x0 PUSH2 0x100 EXP DUP2 SLOAD DUP2 PUSH1 0xFF MUL NOT AND SWAP1 DUP4 ISZERO ISZERO MUL OR SWAP1 SSTORE POP JUMPDEST DUP1 DUP4 PUSH1 0x0 ADD PUSH1 0x1 PUSH2 0x100 EXP DUP2 SLOAD DUP2 PUSH16 0xFFFFFFFFFFFFFFFFFFFFFFFFFFFFFFFF MUL NOT AND SWAP1 DUP4 PUSH16 0xFFFFFFFFFFFFFFFFFFFFFFFFFFFFFFFF AND MUL OR SWAP1 SSTORE POP DUP5 PUSH2 0x3DF0 JUMPI DUP8 PUSH1 0xF SIGNEXTEND DUP4 PUSH1 0x1 ADD PUSH1 0x0 SWAP1 SLOAD SWAP1 PUSH2 0x100 EXP SWAP1 DIV PUSH1 0xF SIGNEXTEND PUSH1 0xF SIGNEXTEND PUSH2 0x3DEB SWAP2 SWAP1 PUSH2 0x6733 JUMP JUMPDEST PUSH2 0x3E14 JUMP JUMPDEST DUP8 PUSH1 0xF SIGNEXTEND DUP4 PUSH1 0x1 ADD PUSH1 0x0 SWAP1 SLOAD SWAP1 PUSH2 0x100 EXP SWAP1 DIV PUSH1 0xF SIGNEXTEND PUSH1 0xF SIGNEXTEND PUSH2 0x3E13 SWAP2 SWAP1 PUSH2 0x6678 JUMP JUMPDEST JUMPDEST DUP4 PUSH1 0x1 ADD PUSH1 0x0 PUSH2 0x100 EXP DUP2 SLOAD DUP2 PUSH16 0xFFFFFFFFFFFFFFFFFFFFFFFFFFFFFFFF MUL NOT AND SWAP1 DUP4 PUSH1 0xF SIGNEXTEND PUSH16 0xFFFFFFFFFFFFFFFFFFFFFFFFFFFFFFFF AND MUL OR SWAP1 SSTORE POP POP POP POP SWAP8 SWAP7 POP POP POP POP POP POP POP JUMP JUMPDEST PUSH1 0x0 DUP2 DUP4 PUSH2 0x3E6D SWAP2 SWAP1 PUSH2 0x6361 JUMP JUMPDEST PUSH1 0x2 SIGNEXTEND EQ PUSH2 0x3E7A JUMPI PUSH1 0x0 DUP1 REVERT JUMPDEST PUSH1 0x0 DUP1 PUSH2 0x3E91 DUP4 DUP6 PUSH2 0x3E8C SWAP2 SWAP1 PUSH2 0x62F7 JUMP JUMPDEST PUSH2 0x446A JUMP JUMPDEST SWAP2 POP SWAP2 POP PUSH1 0x0 DUP2 PUSH1 0xFF AND PUSH1 0x1 SWAP1 SHL SWAP1 POP DUP1 DUP7 PUSH1 0x0 DUP6 PUSH1 0x1 SIGNEXTEND PUSH1 0x1 SIGNEXTEND DUP2 MSTORE PUSH1 0x20 ADD SWAP1 DUP2 MSTORE PUSH1 0x20 ADD PUSH1 0x0 KECCAK256 PUSH1 0x0 DUP3 DUP3 SLOAD XOR SWAP3 POP POP DUP2 SWAP1 SSTORE POP POP POP POP POP POP POP JUMP JUMPDEST PUSH1 0x0 DUP1 PUSH1 0x0 DUP9 PUSH1 0x0 DUP10 PUSH1 0x2 SIGNEXTEND PUSH1 0x2 SIGNEXTEND DUP2 MSTORE PUSH1 0x20 ADD SWAP1 DUP2 MSTORE PUSH1 0x20 ADD PUSH1 0x0 KECCAK256 SWAP1 POP PUSH1 0x0 DUP10 PUSH1 0x0 DUP10 PUSH1 0x2 SIGNEXTEND PUSH1 0x2 SIGNEXTEND DUP2 MSTORE PUSH1 0x20 ADD SWAP1 DUP2 MSTORE PUSH1 0x20 ADD PUSH1 0x0 KECCAK256 SWAP1 POP PUSH1 0x0 DUP1 DUP11 PUSH1 0x2 SIGNEXTEND DUP10 PUSH1 0x2 SIGNEXTEND SLT PUSH2 0x3F2D JUMPI DUP4 PUSH1 0x2 ADD SLOAD SWAP2 POP DUP4 PUSH1 0x3 ADD SLOAD SWAP1 POP PUSH2 0x3F52 JUMP JUMPDEST DUP4 PUSH1 0x2 ADD SLOAD DUP9 PUSH2 0x3F3D SWAP2 SWAP1 PUSH2 0x6045 JUMP JUMPDEST SWAP2 POP DUP4 PUSH1 0x3 ADD SLOAD DUP8 PUSH2 0x3F4F SWAP2 SWAP1 PUSH2 0x6045 JUMP JUMPDEST SWAP1 POP JUMPDEST PUSH1 0x0 DUP1 DUP12 PUSH1 0x2 SIGNEXTEND DUP12 PUSH1 0x2 SIGNEXTEND SLT ISZERO PUSH2 0x3F76 JUMPI DUP5 PUSH1 0x2 ADD SLOAD SWAP2 POP DUP5 PUSH1 0x3 ADD SLOAD SWAP1 POP PUSH2 0x3F9B JUMP JUMPDEST DUP5 PUSH1 0x2 ADD SLOAD DUP11 PUSH2 0x3F86 SWAP2 SWAP1 PUSH2 0x6045 JUMP JUMPDEST SWAP2 POP DUP5 PUSH1 0x3 ADD SLOAD DUP10 PUSH2 0x3F98 SWAP2 SWAP1 PUSH2 0x6045 JUMP JUMPDEST SWAP1 POP JUMPDEST DUP2 DUP5 DUP12 PUSH2 0x3FA8 SWAP2 SWAP1 PUSH2 0x6045 JUMP JUMPDEST PUSH2 0x3FB2 SWAP2 SWAP1 PUSH2 0x6045 JUMP JUMPDEST SWAP8 POP DUP1 DUP4 DUP11 PUSH2 0x3FC1 SWAP2 SWAP1 PUSH2 0x6045 JUMP JUMPDEST PUSH2 0x3FCB SWAP2 SWAP1 PUSH2 0x6045 JUMP JUMPDEST SWAP7 POP POP POP POP POP POP POP SWAP7 POP SWAP7 SWAP5 POP POP POP POP POP JUMP JUMPDEST PUSH1 0x0 PUSH2 0x403D DUP6 PUSH1 0x1 ADD SLOAD DUP5 PUSH2 0x3FF3 SWAP2 SWAP1 PUSH2 0x6045 JUMP JUMPDEST DUP7 PUSH1 0x0 ADD PUSH1 0x0 SWAP1 SLOAD SWAP1 PUSH2 0x100 EXP SWAP1 DIV PUSH16 0xFFFFFFFFFFFFFFFFFFFFFFFFFFFFFFFF AND PUSH16 0xFFFFFFFFFFFFFFFFFFFFFFFFFFFFFFFF AND PUSH17 0x100000000000000000000000000000000 PUSH2 0x347A JUMP JUMPDEST SWAP1 POP PUSH1 0x0 PUSH2 0x409E DUP7 PUSH1 0x2 ADD SLOAD DUP5 PUSH2 0x4054 SWAP2 SWAP1 PUSH2 0x6045 JUMP JUMPDEST DUP8 PUSH1 0x0 ADD PUSH1 0x0 SWAP1 SLOAD SWAP1 PUSH2 0x100 EXP SWAP1 DIV PUSH16 0xFFFFFFFFFFFFFFFFFFFFFFFFFFFFFFFF AND PUSH16 0xFFFFFFFFFFFFFFFFFFFFFFFFFFFFFFFF AND PUSH17 0x100000000000000000000000000000000 PUSH2 0x347A JUMP JUMPDEST SWAP1 POP PUSH2 0x40CA DUP7 PUSH1 0x0 ADD PUSH1 0x0 SWAP1 SLOAD SWAP1 PUSH2 0x100 EXP SWAP1 DIV PUSH16 0xFFFFFFFFFFFFFFFFFFFFFFFFFFFFFFFF AND DUP7 PUSH2 0x35F9 JUMP JUMPDEST DUP7 PUSH1 0x0 ADD PUSH1 0x0 PUSH2 0x100 EXP DUP2 SLOAD DUP2 PUSH16 0xFFFFFFFFFFFFFFFFFFFFFFFFFFFFFFFF MUL NOT AND SWAP1 DUP4 PUSH16 0xFFFFFFFFFFFFFFFFFFFFFFFFFFFFFFFF AND MUL OR SWAP1 SSTORE POP DUP4 DUP7 PUSH1 0x1 ADD DUP2 SWAP1 SSTORE POP DUP3 DUP7 PUSH1 0x2 ADD DUP2 SWAP1 SSTORE POP PUSH1 0x0 DUP3 PUSH16 0xFFFFFFFFFFFFFFFFFFFFFFFFFFFFFFFF AND GT DUP1 PUSH2 0x4149 JUMPI POP PUSH1 0x0 DUP2 PUSH16 0xFFFFFFFFFFFFFFFFFFFFFFFFFFFFFFFF AND GT JUMPDEST ISZERO PUSH2 0x4219 JUMPI DUP2 DUP7 PUSH1 0x3 ADD PUSH1 0x0 DUP3 DUP3 DUP3 SWAP1 SLOAD SWAP1 PUSH2 0x100 EXP SWAP1 DIV PUSH16 0xFFFFFFFFFFFFFFFFFFFFFFFFFFFFFFFF AND PUSH2 0x417D SWAP2 SWAP1 PUSH2 0x5FCA JUMP JUMPDEST SWAP3 POP PUSH2 0x100 EXP DUP2 SLOAD DUP2 PUSH16 0xFFFFFFFFFFFFFFFFFFFFFFFFFFFFFFFF MUL NOT AND SWAP1 DUP4 PUSH16 0xFFFFFFFFFFFFFFFFFFFFFFFFFFFFFFFF AND MUL OR SWAP1 SSTORE POP DUP1 DUP7 PUSH1 0x3 ADD PUSH1 0x10 DUP3 DUP3 DUP3 SWAP1 SLOAD SWAP1 PUSH2 0x100 EXP SWAP1 DIV PUSH16 0xFFFFFFFFFFFFFFFFFFFFFFFFFFFFFFFF AND PUSH2 0x41E2 SWAP2 SWAP1 PUSH2 0x5FCA JUMP JUMPDEST SWAP3 POP PUSH2 0x100 EXP DUP2 SLOAD DUP2 PUSH16 0xFFFFFFFFFFFFFFFFFFFFFFFFFFFFFFFF MUL NOT AND SWAP1 DUP4 PUSH16 0xFFFFFFFFFFFFFFFFFFFFFFFFFFFFFFFF AND MUL OR SWAP1 SSTORE POP JUMPDEST POP POP POP POP POP POP JUMP JUMPDEST PUSH1 0x0 DUP1 DUP3 PUSH1 0xF SIGNEXTEND SLT PUSH2 0x423F JUMPI PUSH2 0x423A DUP5 DUP5 DUP5 PUSH1 0x1 PUSH2 0x480D JUMP JUMPDEST PUSH2 0x425F JUMP JUMPDEST PUSH2 0x4255 DUP5 DUP5 DUP5 PUSH2 0x424E SWAP1 PUSH2 0x5F3A JUMP JUMPDEST PUSH1 0x0 PUSH2 0x480D JUMP JUMPDEST PUSH2 0x425E SWAP1 PUSH2 0x5F82 JUMP JUMPDEST JUMPDEST SWAP1 POP SWAP4 SWAP3 POP POP POP JUMP JUMPDEST PUSH1 0x0 DUP1 DUP3 PUSH1 0xF SIGNEXTEND SLT PUSH2 0x4286 JUMPI PUSH2 0x4281 DUP5 DUP5 DUP5 PUSH1 0x1 PUSH2 0x471E JUMP JUMPDEST PUSH2 0x42A6 JUMP JUMPDEST PUSH2 0x429C DUP5 DUP5 DUP5 PUSH2 0x4295 SWAP1 PUSH2 0x5F3A JUMP JUMPDEST PUSH1 0x0 PUSH2 0x471E JUMP JUMPDEST PUSH2 0x42A5 SWAP1 PUSH2 0x5F82 JUMP JUMPDEST JUMPDEST SWAP1 POP SWAP4 SWAP3 POP POP POP JUMP JUMPDEST PUSH1 0x0 DUP1 DUP6 PUSH4 0xFFFFFFFF AND SUB PUSH2 0x4376 JUMPI PUSH1 0x0 DUP8 DUP5 PUSH2 0xFFFF AND PUSH2 0xFFFF DUP2 LT PUSH2 0x42D8 JUMPI PUSH2 0x42D7 PUSH2 0x6167 JUMP JUMPDEST JUMPDEST ADD PUSH1 0x40 MLOAD DUP1 PUSH1 0x60 ADD PUSH1 0x40 MSTORE SWAP1 DUP2 PUSH1 0x0 DUP3 ADD PUSH1 0x0 SWAP1 SLOAD SWAP1 PUSH2 0x100 EXP SWAP1 DIV PUSH4 0xFFFFFFFF AND PUSH4 0xFFFFFFFF AND PUSH4 0xFFFFFFFF AND DUP2 MSTORE PUSH1 0x20 ADD PUSH1 0x0 DUP3 ADD PUSH1 0x4 SWAP1 SLOAD SWAP1 PUSH2 0x100 EXP SWAP1 DIV PUSH1 0x6 SIGNEXTEND PUSH1 0x6 SIGNEXTEND PUSH1 0x6 SIGNEXTEND DUP2 MSTORE PUSH1 0x20 ADD PUSH1 0x0 DUP3 ADD PUSH1 0xB SWAP1 SLOAD SWAP1 PUSH2 0x100 EXP SWAP1 DIV PUSH1 0xFF AND ISZERO ISZERO ISZERO ISZERO DUP2 MSTORE POP POP SWAP1 POP DUP7 PUSH4 0xFFFFFFFF AND DUP2 PUSH1 0x0 ADD MLOAD PUSH4 0xFFFFFFFF AND EQ PUSH2 0x4369 JUMPI PUSH2 0x4366 DUP2 DUP9 DUP8 PUSH2 0x497E JUMP JUMPDEST SWAP1 POP JUMPDEST DUP1 PUSH1 0x20 ADD MLOAD SWAP2 POP POP PUSH2 0x4460 JUMP JUMPDEST PUSH1 0x0 DUP6 DUP8 PUSH2 0x4384 SWAP2 SWAP1 PUSH2 0x6814 JUMP JUMPDEST SWAP1 POP PUSH1 0x0 DUP1 PUSH2 0x4397 DUP11 DUP11 DUP6 DUP11 DUP11 DUP11 PUSH2 0x49EE JUMP JUMPDEST SWAP2 POP SWAP2 POP DUP2 PUSH1 0x0 ADD MLOAD PUSH4 0xFFFFFFFF AND DUP4 PUSH4 0xFFFFFFFF AND SUB PUSH2 0x43C1 JUMPI DUP2 PUSH1 0x20 ADD MLOAD SWAP4 POP POP POP POP PUSH2 0x4460 JUMP JUMPDEST DUP1 PUSH1 0x0 ADD MLOAD PUSH4 0xFFFFFFFF AND DUP4 PUSH4 0xFFFFFFFF AND SUB PUSH2 0x43E7 JUMPI DUP1 PUSH1 0x20 ADD MLOAD SWAP4 POP POP POP POP PUSH2 0x4460 JUMP JUMPDEST PUSH1 0x0 DUP3 PUSH1 0x0 ADD MLOAD DUP3 PUSH1 0x0 ADD MLOAD PUSH2 0x43FD SWAP2 SWAP1 PUSH2 0x6814 JUMP JUMPDEST PUSH4 0xFFFFFFFF AND SWAP1 POP PUSH1 0x0 DUP4 PUSH1 0x0 ADD MLOAD DUP6 PUSH2 0x4417 SWAP2 SWAP1 PUSH2 0x6814 JUMP JUMPDEST PUSH4 0xFFFFFFFF AND SWAP1 POP DUP1 DUP3 DUP6 PUSH1 0x20 ADD MLOAD DUP6 PUSH1 0x20 ADD MLOAD PUSH2 0x4435 SWAP2 SWAP1 PUSH2 0x684C JUMP JUMPDEST PUSH2 0x443F SWAP2 SWAP1 PUSH2 0x68AB JUMP JUMPDEST PUSH2 0x4449 SWAP2 SWAP1 PUSH2 0x6915 JUMP JUMPDEST DUP5 PUSH1 0x20 ADD MLOAD PUSH2 0x4458 SWAP2 SWAP1 PUSH2 0x6952 JUMP JUMPDEST SWAP6 POP POP POP POP POP POP JUMPDEST SWAP7 SWAP6 POP POP POP POP POP POP JUMP JUMPDEST PUSH1 0x0 DUP1 PUSH1 0x8 DUP4 PUSH1 0x2 SIGNEXTEND SWAP1 SAR SWAP2 POP PUSH2 0x100 DUP4 PUSH2 0x4485 SWAP2 SWAP1 PUSH2 0x6361 JUMP JUMPDEST SWAP1 POP SWAP2 POP SWAP2 JUMP JUMPDEST PUSH1 0x0 DUP1 DUP3 GT PUSH2 0x449A JUMPI PUSH1 0x0 DUP1 REVERT JUMPDEST PUSH17 0x100000000000000000000000000000000 DUP3 LT PUSH2 0x44C9 JUMPI PUSH1 0x80 DUP3 SWAP1 SHR SWAP2 POP PUSH1 0x80 DUP2 PUSH2 0x44C6 SWAP2 SWAP1 PUSH2 0x69B1 JUMP JUMPDEST SWAP1 POP JUMPDEST PUSH9 0x10000000000000000 DUP3 LT PUSH2 0x44F0 JUMPI PUSH1 0x40 DUP3 SWAP1 SHR SWAP2 POP PUSH1 0x40 DUP2 PUSH2 0x44ED SWAP2 SWAP1 PUSH2 0x69B1 JUMP JUMPDEST SWAP1 POP JUMPDEST PUSH5 0x100000000 DUP3 LT PUSH2 0x4513 JUMPI PUSH1 0x20 DUP3 SWAP1 SHR SWAP2 POP PUSH1 0x20 DUP2 PUSH2 0x4510 SWAP2 SWAP1 PUSH2 0x69B1 JUMP JUMPDEST SWAP1 POP JUMPDEST PUSH3 0x10000 DUP3 LT PUSH2 0x4534 JUMPI PUSH1 0x10 DUP3 SWAP1 SHR SWAP2 POP PUSH1 0x10 DUP2 PUSH2 0x4531 SWAP2 SWAP1 PUSH2 0x69B1 JUMP JUMPDEST SWAP1 POP JUMPDEST PUSH2 0x100 DUP3 LT PUSH2 0x4554 JUMPI PUSH1 0x8 DUP3 SWAP1 SHR SWAP2 POP PUSH1 0x8 DUP2 PUSH2 0x4551 SWAP2 SWAP1 PUSH2 0x69B1 JUMP JUMPDEST SWAP1 POP JUMPDEST PUSH1 0x10 DUP3 LT PUSH2 0x4573 JUMPI PUSH1 0x4 DUP3 SWAP1 SHR SWAP2 POP PUSH1 0x4 DUP2 PUSH2 0x4570 SWAP2 SWAP1 PUSH2 0x69B1 JUMP JUMPDEST SWAP1 POP JUMPDEST PUSH1 0x4 DUP3 LT PUSH2 0x4592 JUMPI PUSH1 0x2 DUP3 SWAP1 SHR SWAP2 POP PUSH1 0x2 DUP2 PUSH2 0x458F SWAP2 SWAP1 PUSH2 0x69B1 JUMP JUMPDEST SWAP1 POP JUMPDEST PUSH1 0x2 DUP3 LT PUSH2 0x45AA JUMPI PUSH1 0x1 DUP2 PUSH2 0x45A7 SWAP2 SWAP1 PUSH2 0x69B1 JUMP JUMPDEST SWAP1 POP JUMPDEST SWAP2 SWAP1 POP JUMP JUMPDEST PUSH1 0x0 DUP1 DUP3 GT PUSH2 0x45BD JUMPI PUSH1 0x0 DUP1 REVERT JUMPDEST PUSH1 0xFF SWAP1 POP PUSH1 0x0 PUSH16 0xFFFFFFFFFFFFFFFFFFFFFFFFFFFFFFFF DUP1 AND DUP4 AND GT ISZERO PUSH2 0x45F2 JUMPI PUSH1 0x80 DUP2 PUSH2 0x45EB SWAP2 SWAP1 PUSH2 0x6424 JUMP JUMPDEST SWAP1 POP PUSH2 0x45FA JUMP JUMPDEST PUSH1 0x80 DUP3 SWAP1 SHR SWAP2 POP JUMPDEST PUSH1 0x0 PUSH8 0xFFFFFFFFFFFFFFFF DUP1 AND DUP4 AND GT ISZERO PUSH2 0x4623 JUMPI PUSH1 0x40 DUP2 PUSH2 0x461C SWAP2 SWAP1 PUSH2 0x6424 JUMP JUMPDEST SWAP1 POP PUSH2 0x462B JUMP JUMPDEST PUSH1 0x40 DUP3 SWAP1 SHR SWAP2 POP JUMPDEST PUSH1 0x0 PUSH4 0xFFFFFFFF DUP1 AND DUP4 AND GT ISZERO PUSH2 0x4650 JUMPI PUSH1 0x20 DUP2 PUSH2 0x4649 SWAP2 SWAP1 PUSH2 0x6424 JUMP JUMPDEST SWAP1 POP PUSH2 0x4658 JUMP JUMPDEST PUSH1 0x20 DUP3 SWAP1 SHR SWAP2 POP JUMPDEST PUSH1 0x0 PUSH2 0xFFFF DUP1 AND DUP4 AND GT ISZERO PUSH2 0x467B JUMPI PUSH1 0x10 DUP2 PUSH2 0x4674 SWAP2 SWAP1 PUSH2 0x6424 JUMP JUMPDEST SWAP1 POP PUSH2 0x4683 JUMP JUMPDEST PUSH1 0x10 DUP3 SWAP1 SHR SWAP2 POP JUMPDEST PUSH1 0x0 PUSH1 0xFF DUP1 AND DUP4 AND GT ISZERO PUSH2 0x46A5 JUMPI PUSH1 0x8 DUP2 PUSH2 0x469E SWAP2 SWAP1 PUSH2 0x6424 JUMP JUMPDEST SWAP1 POP PUSH2 0x46AD JUMP JUMPDEST PUSH1 0x8 DUP3 SWAP1 SHR SWAP2 POP JUMPDEST PUSH1 0x0 PUSH1 0xF DUP4 AND GT ISZERO PUSH2 0x46CD JUMPI PUSH1 0x4 DUP2 PUSH2 0x46C6 SWAP2 SWAP1 PUSH2 0x6424 JUMP JUMPDEST SWAP1 POP PUSH2 0x46D5 JUMP JUMPDEST PUSH1 0x4 DUP3 SWAP1 SHR SWAP2 POP JUMPDEST PUSH1 0x0 PUSH1 0x3 DUP4 AND GT ISZERO PUSH2 0x46F5 JUMPI PUSH1 0x2 DUP2 PUSH2 0x46EE SWAP2 SWAP1 PUSH2 0x6424 JUMP JUMPDEST SWAP1 POP PUSH2 0x46FD JUMP JUMPDEST PUSH1 0x2 DUP3 SWAP1 SHR SWAP2 POP JUMPDEST PUSH1 0x0 PUSH1 0x1 DUP4 AND GT ISZERO PUSH2 0x4719 JUMPI PUSH1 0x1 DUP2 PUSH2 0x4716 SWAP2 SWAP1 PUSH2 0x6424 JUMP JUMPDEST SWAP1 POP JUMPDEST SWAP2 SWAP1 POP JUMP JUMPDEST PUSH1 0x0 DUP4 PUSH20 0xFFFFFFFFFFFFFFFFFFFFFFFFFFFFFFFFFFFFFFFF AND DUP6 PUSH20 0xFFFFFFFFFFFFFFFFFFFFFFFFFFFFFFFFFFFFFFFF AND GT ISZERO PUSH2 0x475F JUMPI DUP4 DUP6 DUP1 SWAP6 POP DUP2 SWAP7 POP POP POP JUMPDEST DUP2 ISZERO PUSH2 0x47B7 JUMPI PUSH2 0x47B0 DUP4 PUSH16 0xFFFFFFFFFFFFFFFFFFFFFFFFFFFFFFFF AND DUP7 DUP7 PUSH2 0x4787 SWAP2 SWAP1 PUSH2 0x69E6 JUMP JUMPDEST PUSH20 0xFFFFFFFFFFFFFFFFFFFFFFFFFFFFFFFFFFFFFFFF AND PUSH13 0x1000000000000000000000000 PUSH2 0x2ABF JUMP JUMPDEST SWAP1 POP PUSH2 0x4805 JUMP JUMPDEST PUSH2 0x4802 DUP4 PUSH16 0xFFFFFFFFFFFFFFFFFFFFFFFFFFFFFFFF AND DUP7 DUP7 PUSH2 0x47D9 SWAP2 SWAP1 PUSH2 0x69E6 JUMP JUMPDEST PUSH20 0xFFFFFFFFFFFFFFFFFFFFFFFFFFFFFFFFFFFFFFFF AND PUSH13 0x1000000000000000000000000 PUSH2 0x347A JUMP JUMPDEST SWAP1 POP JUMPDEST SWAP5 SWAP4 POP POP POP POP JUMP JUMPDEST PUSH1 0x0 DUP4 PUSH20 0xFFFFFFFFFFFFFFFFFFFFFFFFFFFFFFFFFFFFFFFF AND DUP6 PUSH20 0xFFFFFFFFFFFFFFFFFFFFFFFFFFFFFFFFFFFFFFFF AND GT ISZERO PUSH2 0x484E JUMPI DUP4 DUP6 DUP1 SWAP6 POP DUP2 SWAP7 POP POP POP JUMPDEST PUSH1 0x0 DUP6 PUSH20 0xFFFFFFFFFFFFFFFFFFFFFFFFFFFFFFFFFFFFFFFF AND GT PUSH2 0x4871 JUMPI PUSH1 0x0 DUP1 REVERT JUMPDEST PUSH1 0x0 PUSH1 0x60 PUSH1 0xFF AND DUP5 PUSH16 0xFFFFFFFFFFFFFFFFFFFFFFFFFFFFFFFF AND SWAP1 SHL SWAP1 POP PUSH1 0x0 DUP7 DUP7 PUSH2 0x489D SWAP2 SWAP1 PUSH2 0x69E6 JUMP JUMPDEST PUSH20 0xFFFFFFFFFFFFFFFFFFFFFFFFFFFFFFFFFFFFFFFF AND SWAP1 POP DUP4 ISZERO PUSH2 0x4902 JUMPI PUSH2 0x48FB PUSH2 0x48DF DUP4 DUP4 DUP10 PUSH20 0xFFFFFFFFFFFFFFFFFFFFFFFFFFFFFFFFFFFFFFFF AND PUSH2 0x2ABF JUMP JUMPDEST DUP9 PUSH20 0xFFFFFFFFFFFFFFFFFFFFFFFFFFFFFFFFFFFFFFFF AND PUSH2 0x4C54 JUMP JUMPDEST SWAP3 POP PUSH2 0x4947 JUMP JUMPDEST DUP7 PUSH20 0xFFFFFFFFFFFFFFFFFFFFFFFFFFFFFFFFFFFFFFFF AND PUSH2 0x493A DUP4 DUP4 DUP10 PUSH20 0xFFFFFFFFFFFFFFFFFFFFFFFFFFFFFFFFFFFFFFFF AND PUSH2 0x347A JUMP JUMPDEST PUSH2 0x4944 SWAP2 SWAP1 PUSH2 0x6573 JUMP JUMPDEST SWAP3 POP JUMPDEST POP POP SWAP5 SWAP4 POP POP POP POP JUMP JUMPDEST PUSH1 0x0 DUP2 PUSH2 0x4968 JUMPI PUSH2 0x4963 DUP6 DUP6 DUP6 PUSH2 0x4C67 JUMP JUMPDEST PUSH2 0x4974 JUMP JUMPDEST PUSH2 0x4973 DUP6 DUP6 DUP6 PUSH2 0x4CBD JUMP JUMPDEST JUMPDEST SWAP1 POP SWAP5 SWAP4 POP POP POP POP JUMP JUMPDEST PUSH2 0x4986 PUSH2 0x5125 JUMP JUMPDEST PUSH1 0x0 DUP5 PUSH1 0x0 ADD MLOAD DUP5 PUSH2 0x4998 SWAP2 SWAP1 PUSH2 0x6814 JUMP JUMPDEST PUSH4 0xFFFFFFFF AND SWAP1 POP PUSH1 0x40 MLOAD DUP1 PUSH1 0x60 ADD PUSH1 0x40 MSTORE DUP1 DUP6 PUSH4 0xFFFFFFFF AND DUP2 MSTORE PUSH1 0x20 ADD DUP3 DUP6 PUSH1 0x2 SIGNEXTEND PUSH2 0x49C6 SWAP2 SWAP1 PUSH2 0x6915 JUMP JUMPDEST DUP8 PUSH1 0x20 ADD MLOAD PUSH2 0x49D5 SWAP2 SWAP1 PUSH2 0x6952 JUMP JUMPDEST PUSH1 0x6 SIGNEXTEND DUP2 MSTORE PUSH1 0x20 ADD PUSH1 0x1 ISZERO ISZERO DUP2 MSTORE POP SWAP2 POP POP SWAP4 SWAP3 POP POP POP JUMP JUMPDEST PUSH2 0x49F6 PUSH2 0x5125 JUMP JUMPDEST PUSH2 0x49FE PUSH2 0x5125 JUMP JUMPDEST DUP8 DUP5 PUSH2 0xFFFF AND PUSH2 0xFFFF DUP2 LT PUSH2 0x4A16 JUMPI PUSH2 0x4A15 PUSH2 0x6167 JUMP JUMPDEST JUMPDEST ADD PUSH1 0x40 MLOAD DUP1 PUSH1 0x60 ADD PUSH1 0x40 MSTORE SWAP1 DUP2 PUSH1 0x0 DUP3 ADD PUSH1 0x0 SWAP1 SLOAD SWAP1 PUSH2 0x100 EXP SWAP1 DIV PUSH4 0xFFFFFFFF AND PUSH4 0xFFFFFFFF AND PUSH4 0xFFFFFFFF AND DUP2 MSTORE PUSH1 0x20 ADD PUSH1 0x0 DUP3 ADD PUSH1 0x4 SWAP1 SLOAD SWAP1 PUSH2 0x100 EXP SWAP1 DIV PUSH1 0x6 SIGNEXTEND PUSH1 0x6 SIGNEXTEND PUSH1 0x6 SIGNEXTEND DUP2 MSTORE PUSH1 0x20 ADD PUSH1 0x0 DUP3 ADD PUSH1 0xB SWAP1 SLOAD SWAP1 PUSH2 0x100 EXP SWAP1 DIV PUSH1 0xFF AND ISZERO ISZERO ISZERO ISZERO DUP2 MSTORE POP POP SWAP2 POP PUSH2 0x4A91 DUP8 DUP4 PUSH1 0x0 ADD MLOAD DUP9 PUSH2 0x4DB0 JUMP JUMPDEST ISZERO PUSH2 0x4AC3 JUMPI DUP6 PUSH4 0xFFFFFFFF AND DUP3 PUSH1 0x0 ADD MLOAD PUSH4 0xFFFFFFFF AND SUB ISZERO PUSH2 0x4C49 JUMPI DUP2 PUSH2 0x4ABA DUP4 DUP9 DUP9 PUSH2 0x497E JUMP JUMPDEST SWAP2 POP SWAP2 POP PUSH2 0x4C49 JUMP JUMPDEST DUP8 DUP4 PUSH1 0x1 DUP7 PUSH2 0x4AD2 SWAP2 SWAP1 PUSH2 0x67AD JUMP JUMPDEST PUSH2 0x4ADC SWAP2 SWAP1 PUSH2 0x67E3 JUMP JUMPDEST PUSH2 0xFFFF AND PUSH2 0xFFFF DUP2 LT PUSH2 0x4AF2 JUMPI PUSH2 0x4AF1 PUSH2 0x6167 JUMP JUMPDEST JUMPDEST ADD PUSH1 0x40 MLOAD DUP1 PUSH1 0x60 ADD PUSH1 0x40 MSTORE SWAP1 DUP2 PUSH1 0x0 DUP3 ADD PUSH1 0x0 SWAP1 SLOAD SWAP1 PUSH2 0x100 EXP SWAP1 DIV PUSH4 0xFFFFFFFF AND PUSH4 0xFFFFFFFF AND PUSH4 0xFFFFFFFF AND DUP2 MSTORE PUSH1 0x20 ADD PUSH1 0x0 DUP3 ADD PUSH1 0x4 SWAP1 SLOAD SWAP1 PUSH2 0x100 EXP SWAP1 DIV PUSH1 0x6 SIGNEXTEND PUSH1 0x6 SIGNEXTEND PUSH1 0x6 SIGNEXTEND DUP2 MSTORE PUSH1 0x20 ADD PUSH1 0x0 DUP3 ADD PUSH1 0xB SWAP1 SLOAD SWAP1 PUSH2 0x100 EXP SWAP1 DIV PUSH1 0xFF AND ISZERO ISZERO ISZERO ISZERO DUP2 MSTORE POP POP SWAP2 POP DUP2 PUSH1 0x40 ADD MLOAD PUSH2 0x4BE9 JUMPI DUP8 PUSH1 0x0 PUSH2 0xFFFF DUP2 LT PUSH2 0x4B7C JUMPI PUSH2 0x4B7B PUSH2 0x6167 JUMP JUMPDEST JUMPDEST ADD PUSH1 0x40 MLOAD DUP1 PUSH1 0x60 ADD PUSH1 0x40 MSTORE SWAP1 DUP2 PUSH1 0x0 DUP3 ADD PUSH1 0x0 SWAP1 SLOAD SWAP1 PUSH2 0x100 EXP SWAP1 DIV PUSH4 0xFFFFFFFF AND PUSH4 0xFFFFFFFF AND PUSH4 0xFFFFFFFF AND DUP2 MSTORE PUSH1 0x20 ADD PUSH1 0x0 DUP3 ADD PUSH1 0x4 SWAP1 SLOAD SWAP1 PUSH2 0x100 EXP SWAP1 DIV PUSH1 0x6 SIGNEXTEND PUSH1 0x6 SIGNEXTEND PUSH1 0x6 SIGNEXTEND DUP2 MSTORE PUSH1 0x20 ADD PUSH1 0x0 DUP3 ADD PUSH1 0xB SWAP1 SLOAD SWAP1 PUSH2 0x100 EXP SWAP1 DIV PUSH1 0xFF AND ISZERO ISZERO ISZERO ISZERO DUP2 MSTORE POP POP SWAP2 POP JUMPDEST PUSH2 0x4BF8 DUP8 DUP4 PUSH1 0x0 ADD MLOAD DUP9 PUSH2 0x4DB0 JUMP JUMPDEST PUSH2 0x4C37 JUMPI PUSH1 0x40 MLOAD PUSH32 0x8C379A000000000000000000000000000000000000000000000000000000000 DUP2 MSTORE PUSH1 0x4 ADD PUSH2 0x4C2E SWAP1 PUSH2 0x6A7A JUMP JUMPDEST PUSH1 0x40 MLOAD DUP1 SWAP2 SUB SWAP1 REVERT JUMPDEST PUSH2 0x4C44 DUP9 DUP9 DUP9 DUP8 DUP8 PUSH2 0x4E8A JUMP JUMPDEST SWAP2 POP SWAP2 POP JUMPDEST SWAP7 POP SWAP7 SWAP5 POP POP POP POP POP JUMP JUMPDEST PUSH1 0x0 DUP1 DUP3 DUP5 MOD GT DUP3 DUP5 DIV ADD SWAP1 POP SWAP3 SWAP2 POP POP JUMP JUMPDEST PUSH1 0x0 PUSH2 0x4C93 DUP3 PUSH13 0x1000000000000000000000000 DUP6 PUSH16 0xFFFFFFFFFFFFFFFFFFFFFFFFFFFFFFFF AND PUSH2 0x347A JUMP JUMPDEST DUP5 PUSH20 0xFFFFFFFFFFFFFFFFFFFFFFFFFFFFFFFFFFFFFFFF AND PUSH2 0x4CB4 SWAP2 SWAP1 PUSH2 0x5D35 JUMP JUMPDEST SWAP1 POP SWAP4 SWAP3 POP POP POP JUMP JUMPDEST PUSH1 0x0 DUP1 PUSH1 0x60 PUSH1 0xFF AND DUP5 PUSH16 0xFFFFFFFFFFFFFFFFFFFFFFFFFFFFFFFF AND SWAP1 SHL SWAP1 POP PUSH1 0x0 DUP6 PUSH20 0xFFFFFFFFFFFFFFFFFFFFFFFFFFFFFFFFFFFFFFFF AND DUP5 PUSH2 0x4D00 SWAP2 SWAP1 PUSH2 0x6531 JUMP JUMPDEST SWAP1 POP DUP6 PUSH20 0xFFFFFFFFFFFFFFFFFFFFFFFFFFFFFFFFFFFFFFFF AND DUP5 DUP3 PUSH2 0x4D25 SWAP2 SWAP1 PUSH2 0x6573 JUMP JUMPDEST SUB PUSH2 0x4D6E JUMPI PUSH1 0x0 DUP2 DUP4 PUSH2 0x4D38 SWAP2 SWAP1 PUSH2 0x5D35 JUMP JUMPDEST SWAP1 POP DUP3 DUP2 LT PUSH2 0x4D6C JUMPI PUSH2 0x4D62 DUP4 DUP9 PUSH20 0xFFFFFFFFFFFFFFFFFFFFFFFFFFFFFFFFFFFFFFFF AND DUP4 PUSH2 0x2ABF JUMP JUMPDEST SWAP4 POP POP POP POP PUSH2 0x4DA9 JUMP JUMPDEST POP JUMPDEST PUSH2 0x4DA4 DUP3 DUP6 DUP9 PUSH20 0xFFFFFFFFFFFFFFFFFFFFFFFFFFFFFFFFFFFFFFFF AND DUP6 PUSH2 0x4D95 SWAP2 SWAP1 PUSH2 0x6573 JUMP JUMPDEST PUSH2 0x4D9F SWAP2 SWAP1 PUSH2 0x5D35 JUMP JUMPDEST PUSH2 0x4C54 JUMP JUMPDEST SWAP3 POP POP POP JUMPDEST SWAP4 SWAP3 POP POP POP JUMP JUMPDEST PUSH1 0x0 DUP4 PUSH4 0xFFFFFFFF AND DUP4 PUSH4 0xFFFFFFFF AND GT ISZERO DUP1 ISZERO PUSH2 0x4DDA JUMPI POP DUP4 PUSH4 0xFFFFFFFF AND DUP3 PUSH4 0xFFFFFFFF AND GT ISZERO JUMPDEST ISZERO PUSH2 0x4DF6 JUMPI DUP2 PUSH4 0xFFFFFFFF AND DUP4 PUSH4 0xFFFFFFFF AND GT ISZERO SWAP1 POP PUSH2 0x4E83 JUMP JUMPDEST PUSH1 0x0 DUP5 PUSH4 0xFFFFFFFF AND DUP5 PUSH4 0xFFFFFFFF AND GT PUSH2 0x4E27 JUMPI PUSH5 0x100000000 DUP5 PUSH4 0xFFFFFFFF AND PUSH2 0x4E22 SWAP2 SWAP1 PUSH2 0x6AAB JUMP JUMPDEST PUSH2 0x4E2F JUMP JUMPDEST DUP4 PUSH4 0xFFFFFFFF AND JUMPDEST PUSH5 0xFFFFFFFFFF AND SWAP1 POP PUSH1 0x0 DUP6 PUSH4 0xFFFFFFFF AND DUP5 PUSH4 0xFFFFFFFF AND GT PUSH2 0x4E69 JUMPI PUSH5 0x100000000 DUP5 PUSH4 0xFFFFFFFF AND PUSH2 0x4E64 SWAP2 SWAP1 PUSH2 0x6AAB JUMP JUMPDEST PUSH2 0x4E71 JUMP JUMPDEST DUP4 PUSH4 0xFFFFFFFF AND JUMPDEST PUSH5 0xFFFFFFFFFF AND SWAP1 POP DUP1 DUP3 GT ISZERO SWAP3 POP POP POP JUMPDEST SWAP4 SWAP3 POP POP POP JUMP JUMPDEST PUSH2 0x4E92 PUSH2 0x5125 JUMP JUMPDEST PUSH2 0x4E9A PUSH2 0x5125 JUMP JUMPDEST PUSH1 0x0 DUP4 PUSH1 0x1 DUP7 PUSH2 0x4EAA SWAP2 SWAP1 PUSH2 0x67AD JUMP JUMPDEST PUSH2 0x4EB4 SWAP2 SWAP1 PUSH2 0x67E3 JUMP JUMPDEST PUSH2 0xFFFF AND SWAP1 POP PUSH1 0x0 PUSH1 0x1 DUP6 PUSH2 0xFFFF AND DUP4 PUSH2 0x4ECE SWAP2 SWAP1 PUSH2 0x5D35 JUMP JUMPDEST PUSH2 0x4ED8 SWAP2 SWAP1 PUSH2 0x6045 JUMP JUMPDEST SWAP1 POP PUSH1 0x0 JUMPDEST PUSH1 0x1 ISZERO PUSH2 0x50AA JUMPI PUSH1 0x2 DUP3 DUP5 PUSH2 0x4EF2 SWAP2 SWAP1 PUSH2 0x5D35 JUMP JUMPDEST PUSH2 0x4EFC SWAP2 SWAP1 PUSH2 0x6573 JUMP JUMPDEST SWAP1 POP DUP10 DUP7 PUSH2 0xFFFF AND DUP3 PUSH2 0x4F0F SWAP2 SWAP1 PUSH2 0x65A4 JUMP JUMPDEST PUSH2 0xFFFF DUP2 LT PUSH2 0x4F21 JUMPI PUSH2 0x4F20 PUSH2 0x6167 JUMP JUMPDEST JUMPDEST ADD PUSH1 0x40 MLOAD DUP1 PUSH1 0x60 ADD PUSH1 0x40 MSTORE SWAP1 DUP2 PUSH1 0x0 DUP3 ADD PUSH1 0x0 SWAP1 SLOAD SWAP1 PUSH2 0x100 EXP SWAP1 DIV PUSH4 0xFFFFFFFF AND PUSH4 0xFFFFFFFF AND PUSH4 0xFFFFFFFF AND DUP2 MSTORE PUSH1 0x20 ADD PUSH1 0x0 DUP3 ADD PUSH1 0x4 SWAP1 SLOAD SWAP1 PUSH2 0x100 EXP SWAP1 DIV PUSH1 0x6 SIGNEXTEND PUSH1 0x6 SIGNEXTEND PUSH1 0x6 SIGNEXTEND DUP2 MSTORE PUSH1 0x20 ADD PUSH1 0x0 DUP3 ADD PUSH1 0xB SWAP1 SLOAD SWAP1 PUSH2 0x100 EXP SWAP1 DIV PUSH1 0xFF AND ISZERO ISZERO ISZERO ISZERO DUP2 MSTORE POP POP SWAP5 POP DUP5 PUSH1 0x40 ADD MLOAD PUSH2 0x4FAA JUMPI PUSH1 0x1 DUP2 PUSH2 0x4FA3 SWAP2 SWAP1 PUSH2 0x5D35 JUMP JUMPDEST SWAP3 POP PUSH2 0x4EDD JUMP JUMPDEST DUP10 DUP7 PUSH2 0xFFFF AND PUSH1 0x1 DUP4 PUSH2 0x4FBD SWAP2 SWAP1 PUSH2 0x5D35 JUMP JUMPDEST PUSH2 0x4FC7 SWAP2 SWAP1 PUSH2 0x65A4 JUMP JUMPDEST PUSH2 0xFFFF DUP2 LT PUSH2 0x4FD9 JUMPI PUSH2 0x4FD8 PUSH2 0x6167 JUMP JUMPDEST JUMPDEST ADD PUSH1 0x40 MLOAD DUP1 PUSH1 0x60 ADD PUSH1 0x40 MSTORE SWAP1 DUP2 PUSH1 0x0 DUP3 ADD PUSH1 0x0 SWAP1 SLOAD SWAP1 PUSH2 0x100 EXP SWAP1 DIV PUSH4 0xFFFFFFFF AND PUSH4 0xFFFFFFFF AND PUSH4 0xFFFFFFFF AND DUP2 MSTORE PUSH1 0x20 ADD PUSH1 0x0 DUP3 ADD PUSH1 0x4 SWAP1 SLOAD SWAP1 PUSH2 0x100 EXP SWAP1 DIV PUSH1 0x6 SIGNEXTEND PUSH1 0x6 SIGNEXTEND PUSH1 0x6 SIGNEXTEND DUP2 MSTORE PUSH1 0x20 ADD PUSH1 0x0 DUP3 ADD PUSH1 0xB SWAP1 SLOAD SWAP1 PUSH2 0x100 EXP SWAP1 DIV PUSH1 0xFF AND ISZERO ISZERO ISZERO ISZERO DUP2 MSTORE POP POP SWAP4 POP PUSH1 0x0 PUSH2 0x5056 DUP11 DUP8 PUSH1 0x0 ADD MLOAD DUP12 PUSH2 0x4DB0 JUMP JUMPDEST SWAP1 POP DUP1 DUP1 ISZERO PUSH2 0x5070 JUMPI POP PUSH2 0x506F DUP11 DUP11 DUP8 PUSH1 0x0 ADD MLOAD PUSH2 0x4DB0 JUMP JUMPDEST JUMPDEST ISZERO PUSH2 0x507B JUMPI POP PUSH2 0x50AA JUMP JUMPDEST DUP1 PUSH2 0x5094 JUMPI PUSH1 0x1 DUP3 PUSH2 0x508D SWAP2 SWAP1 PUSH2 0x6045 JUMP JUMPDEST SWAP3 POP PUSH2 0x50A4 JUMP JUMPDEST PUSH1 0x1 DUP3 PUSH2 0x50A1 SWAP2 SWAP1 PUSH2 0x5D35 JUMP JUMPDEST SWAP4 POP JUMPDEST POP PUSH2 0x4EDD JUMP JUMPDEST POP POP POP SWAP6 POP SWAP6 SWAP4 POP POP POP POP JUMP JUMPDEST PUSH1 0x40 MLOAD DUP1 PUSH1 0xE0 ADD PUSH1 0x40 MSTORE DUP1 PUSH1 0x0 PUSH20 0xFFFFFFFFFFFFFFFFFFFFFFFFFFFFFFFFFFFFFFFF AND DUP2 MSTORE PUSH1 0x20 ADD PUSH1 0x0 PUSH1 0x2 SIGNEXTEND DUP2 MSTORE PUSH1 0x20 ADD PUSH1 0x0 ISZERO ISZERO DUP2 MSTORE PUSH1 0x20 ADD PUSH1 0x0 PUSH20 0xFFFFFFFFFFFFFFFFFFFFFFFFFFFFFFFFFFFFFFFF AND DUP2 MSTORE PUSH1 0x20 ADD PUSH1 0x0 DUP2 MSTORE PUSH1 0x20 ADD PUSH1 0x0 DUP2 MSTORE PUSH1 0x20 ADD PUSH1 0x0 DUP2 MSTORE POP SWAP1 JUMP JUMPDEST PUSH1 0x40 MLOAD DUP1 PUSH1 0x60 ADD PUSH1 0x40 MSTORE DUP1 PUSH1 0x0 PUSH4 0xFFFFFFFF AND DUP2 MSTORE PUSH1 0x20 ADD PUSH1 0x0 PUSH1 0x6 SIGNEXTEND DUP2 MSTORE PUSH1 0x20 ADD PUSH1 0x0 ISZERO ISZERO DUP2 MSTORE POP SWAP1 JUMP JUMPDEST PUSH1 0x0 PUSH20 0xFFFFFFFFFFFFFFFFFFFFFFFFFFFFFFFFFFFFFFFF DUP3 AND SWAP1 POP SWAP2 SWAP1 POP JUMP JUMPDEST PUSH1 0x0 PUSH2 0x517C DUP3 PUSH2 0x5151 JUMP JUMPDEST SWAP1 POP SWAP2 SWAP1 POP JUMP JUMPDEST PUSH2 0x518C DUP2 PUSH2 0x5171 JUMP JUMPDEST DUP3 MSTORE POP POP JUMP JUMPDEST PUSH1 0x0 PUSH1 0x20 DUP3 ADD SWAP1 POP PUSH2 0x51A7 PUSH1 0x0 DUP4 ADD DUP5 PUSH2 0x5183 JUMP JUMPDEST SWAP3 SWAP2 POP POP JUMP JUMPDEST PUSH1 0x0 PUSH16 0xFFFFFFFFFFFFFFFFFFFFFFFFFFFFFFFF DUP3 AND SWAP1 POP SWAP2 SWAP1 POP JUMP JUMPDEST PUSH2 0x51D2 DUP2 PUSH2 0x51AD JUMP JUMPDEST DUP3 MSTORE POP POP JUMP JUMPDEST PUSH1 0x0 PUSH1 0x20 DUP3 ADD SWAP1 POP PUSH2 0x51ED PUSH1 0x0 DUP4 ADD DUP5 PUSH2 0x51C9 JUMP JUMPDEST SWAP3 SWAP2 POP POP JUMP JUMPDEST PUSH1 0x0 DUP1 REVERT JUMPDEST PUSH1 0x0 DUP1 REVERT JUMPDEST PUSH1 0x0 DUP2 SWAP1 POP SWAP2 SWAP1 POP JUMP JUMPDEST PUSH2 0x5210 DUP2 PUSH2 0x51FD JUMP JUMPDEST DUP2 EQ PUSH2 0x521B JUMPI PUSH1 0x0 DUP1 REVERT JUMPDEST POP JUMP JUMPDEST PUSH1 0x0 DUP2 CALLDATALOAD SWAP1 POP PUSH2 0x522D DUP2 PUSH2 0x5207 JUMP JUMPDEST SWAP3 SWAP2 POP POP JUMP JUMPDEST PUSH1 0x0 PUSH1 0x20 DUP3 DUP5 SUB SLT ISZERO PUSH2 0x5249 JUMPI PUSH2 0x5248 PUSH2 0x51F3 JUMP JUMPDEST JUMPDEST PUSH1 0x0 PUSH2 0x5257 DUP5 DUP3 DUP6 ADD PUSH2 0x521E JUMP JUMPDEST SWAP2 POP POP SWAP3 SWAP2 POP POP JUMP JUMPDEST PUSH1 0x0 PUSH4 0xFFFFFFFF DUP3 AND SWAP1 POP SWAP2 SWAP1 POP JUMP JUMPDEST PUSH2 0x5279 DUP2 PUSH2 0x5260 JUMP JUMPDEST DUP3 MSTORE POP POP JUMP JUMPDEST PUSH1 0x0 DUP2 PUSH1 0x6 SIGNEXTEND SWAP1 POP SWAP2 SWAP1 POP JUMP JUMPDEST PUSH2 0x5295 DUP2 PUSH2 0x527F JUMP JUMPDEST DUP3 MSTORE POP POP JUMP JUMPDEST PUSH1 0x0 DUP2 ISZERO ISZERO SWAP1 POP SWAP2 SWAP1 POP JUMP JUMPDEST PUSH2 0x52B0 DUP2 PUSH2 0x529B JUMP JUMPDEST DUP3 MSTORE POP POP JUMP JUMPDEST PUSH1 0x0 PUSH1 0x60 DUP3 ADD SWAP1 POP PUSH2 0x52CB PUSH1 0x0 DUP4 ADD DUP7 PUSH2 0x5270 JUMP JUMPDEST PUSH2 0x52D8 PUSH1 0x20 DUP4 ADD DUP6 PUSH2 0x528C JUMP JUMPDEST PUSH2 0x52E5 PUSH1 0x40 DUP4 ADD DUP5 PUSH2 0x52A7 JUMP JUMPDEST SWAP5 SWAP4 POP POP POP POP JUMP JUMPDEST PUSH1 0x0 PUSH2 0xFFFF DUP3 AND SWAP1 POP SWAP2 SWAP1 POP JUMP JUMPDEST PUSH2 0x5304 DUP2 PUSH2 0x52ED JUMP JUMPDEST DUP2 EQ PUSH2 0x530F JUMPI PUSH1 0x0 DUP1 REVERT JUMPDEST POP JUMP JUMPDEST PUSH1 0x0 DUP2 CALLDATALOAD SWAP1 POP PUSH2 0x5321 DUP2 PUSH2 0x52FB JUMP JUMPDEST SWAP3 SWAP2 POP POP JUMP JUMPDEST PUSH1 0x0 PUSH1 0x20 DUP3 DUP5 SUB SLT ISZERO PUSH2 0x533D JUMPI PUSH2 0x533C PUSH2 0x51F3 JUMP JUMPDEST JUMPDEST PUSH1 0x0 PUSH2 0x534B DUP5 DUP3 DUP6 ADD PUSH2 0x5312 JUMP JUMPDEST SWAP2 POP POP SWAP3 SWAP2 POP POP JUMP JUMPDEST PUSH2 0x535D DUP2 PUSH2 0x5151 JUMP JUMPDEST DUP3 MSTORE POP POP JUMP JUMPDEST PUSH1 0x0 DUP2 PUSH1 0x2 SIGNEXTEND SWAP1 POP SWAP2 SWAP1 POP JUMP JUMPDEST PUSH2 0x5379 DUP2 PUSH2 0x5363 JUMP JUMPDEST DUP3 MSTORE POP POP JUMP JUMPDEST PUSH2 0x5388 DUP2 PUSH2 0x52ED JUMP JUMPDEST DUP3 MSTORE POP POP JUMP JUMPDEST PUSH1 0x0 PUSH1 0xA0 DUP3 ADD SWAP1 POP PUSH2 0x53A3 PUSH1 0x0 DUP4 ADD DUP9 PUSH2 0x5354 JUMP JUMPDEST PUSH2 0x53B0 PUSH1 0x20 DUP4 ADD DUP8 PUSH2 0x5370 JUMP JUMPDEST PUSH2 0x53BD PUSH1 0x40 DUP4 ADD DUP7 PUSH2 0x537F JUMP JUMPDEST PUSH2 0x53CA PUSH1 0x60 DUP4 ADD DUP6 PUSH2 0x537F JUMP JUMPDEST PUSH2 0x53D7 PUSH1 0x80 DUP4 ADD DUP5 PUSH2 0x537F JUMP JUMPDEST SWAP7 SWAP6 POP POP POP POP POP POP JUMP JUMPDEST PUSH2 0x53EA DUP2 PUSH2 0x5171 JUMP JUMPDEST DUP2 EQ PUSH2 0x53F5 JUMPI PUSH1 0x0 DUP1 REVERT JUMPDEST POP JUMP JUMPDEST PUSH1 0x0 DUP2 CALLDATALOAD SWAP1 POP PUSH2 0x5407 DUP2 PUSH2 0x53E1 JUMP JUMPDEST SWAP3 SWAP2 POP POP JUMP JUMPDEST PUSH2 0x5416 DUP2 PUSH2 0x5363 JUMP JUMPDEST DUP2 EQ PUSH2 0x5421 JUMPI PUSH1 0x0 DUP1 REVERT JUMPDEST POP JUMP JUMPDEST PUSH1 0x0 DUP2 CALLDATALOAD SWAP1 POP PUSH2 0x5433 DUP2 PUSH2 0x540D JUMP JUMPDEST SWAP3 SWAP2 POP POP JUMP JUMPDEST PUSH2 0x5442 DUP2 PUSH2 0x51AD JUMP JUMPDEST DUP2 EQ PUSH2 0x544D JUMPI PUSH1 0x0 DUP1 REVERT JUMPDEST POP JUMP JUMPDEST PUSH1 0x0 DUP2 CALLDATALOAD SWAP1 POP PUSH2 0x545F DUP2 PUSH2 0x5439 JUMP JUMPDEST SWAP3 SWAP2 POP POP JUMP JUMPDEST PUSH1 0x0 DUP1 REVERT JUMPDEST PUSH1 0x0 DUP1 REVERT JUMPDEST PUSH1 0x0 DUP1 REVERT JUMPDEST PUSH1 0x0 DUP1 DUP4 PUSH1 0x1F DUP5 ADD SLT PUSH2 0x548A JUMPI PUSH2 0x5489 PUSH2 0x5465 JUMP JUMPDEST JUMPDEST DUP3 CALLDATALOAD SWAP1 POP PUSH8 0xFFFFFFFFFFFFFFFF DUP2 GT ISZERO PUSH2 0x54A7 JUMPI PUSH2 0x54A6 PUSH2 0x546A JUMP JUMPDEST JUMPDEST PUSH1 0x20 DUP4 ADD SWAP2 POP DUP4 PUSH1 0x1 DUP3 MUL DUP4 ADD GT ISZERO PUSH2 0x54C3 JUMPI PUSH2 0x54C2 PUSH2 0x546F JUMP JUMPDEST JUMPDEST SWAP3 POP SWAP3 SWAP1 POP JUMP JUMPDEST PUSH1 0x0 DUP1 PUSH1 0x0 DUP1 PUSH1 0x0 DUP1 PUSH1 0xA0 DUP8 DUP10 SUB SLT ISZERO PUSH2 0x54E7 JUMPI PUSH2 0x54E6 PUSH2 0x51F3 JUMP JUMPDEST JUMPDEST PUSH1 0x0 PUSH2 0x54F5 DUP10 DUP3 DUP11 ADD PUSH2 0x53F8 JUMP JUMPDEST SWAP7 POP POP PUSH1 0x20 PUSH2 0x5506 DUP10 DUP3 DUP11 ADD PUSH2 0x5424 JUMP JUMPDEST SWAP6 POP POP PUSH1 0x40 PUSH2 0x5517 DUP10 DUP3 DUP11 ADD PUSH2 0x5424 JUMP JUMPDEST SWAP5 POP POP PUSH1 0x60 PUSH2 0x5528 DUP10 DUP3 DUP11 ADD PUSH2 0x5450 JUMP JUMPDEST SWAP4 POP POP PUSH1 0x80 DUP8 ADD CALLDATALOAD PUSH8 0xFFFFFFFFFFFFFFFF DUP2 GT ISZERO PUSH2 0x5549 JUMPI PUSH2 0x5548 PUSH2 0x51F8 JUMP JUMPDEST JUMPDEST PUSH2 0x5555 DUP10 DUP3 DUP11 ADD PUSH2 0x5474 JUMP JUMPDEST SWAP3 POP SWAP3 POP POP SWAP3 SWAP6 POP SWAP3 SWAP6 POP SWAP3 SWAP6 JUMP JUMPDEST PUSH2 0x556D DUP2 PUSH2 0x51FD JUMP JUMPDEST DUP3 MSTORE POP POP JUMP JUMPDEST PUSH1 0x0 PUSH1 0x40 DUP3 ADD SWAP1 POP PUSH2 0x5588 PUSH1 0x0 DUP4 ADD DUP6 PUSH2 0x5564 JUMP JUMPDEST PUSH2 0x5595 PUSH1 0x20 DUP4 ADD DUP5 PUSH2 0x5564 JUMP JUMPDEST SWAP4 SWAP3 POP POP POP JUMP JUMPDEST PUSH1 0x0 PUSH1 0x20 DUP3 ADD SWAP1 POP PUSH2 0x55B1 PUSH1 0x0 DUP4 ADD DUP5 PUSH2 0x5564 JUMP JUMPDEST SWAP3 SWAP2 POP POP JUMP JUMPDEST PUSH1 0x0 DUP1 PUSH1 0x0 DUP1 PUSH1 0x60 DUP6 DUP8 SUB SLT ISZERO PUSH2 0x55D1 JUMPI PUSH2 0x55D0 PUSH2 0x51F3 JUMP JUMPDEST JUMPDEST PUSH1 0x0 PUSH2 0x55DF DUP8 DUP3 DUP9 ADD PUSH2 0x521E JUMP JUMPDEST SWAP5 POP POP PUSH1 0x20 PUSH2 0x55F0 DUP8 DUP3 DUP9 ADD PUSH2 0x521E JUMP JUMPDEST SWAP4 POP POP PUSH1 0x40 DUP6 ADD CALLDATALOAD PUSH8 0xFFFFFFFFFFFFFFFF DUP2 GT ISZERO PUSH2 0x5611 JUMPI PUSH2 0x5610 PUSH2 0x51F8 JUMP JUMPDEST JUMPDEST PUSH2 0x561D DUP8 DUP3 DUP9 ADD PUSH2 0x5474 JUMP JUMPDEST SWAP3 POP SWAP3 POP POP SWAP3 SWAP6 SWAP2 SWAP5 POP SWAP3 POP JUMP JUMPDEST PUSH1 0x0 DUP1 PUSH1 0x0 DUP1 PUSH1 0x0 PUSH1 0xA0 DUP7 DUP9 SUB SLT ISZERO PUSH2 0x5647 JUMPI PUSH2 0x5646 PUSH2 0x51F3 JUMP JUMPDEST JUMPDEST PUSH1 0x0 PUSH2 0x5655 DUP9 DUP3 DUP10 ADD PUSH2 0x53F8 JUMP JUMPDEST SWAP6 POP POP PUSH1 0x20 PUSH2 0x5666 DUP9 DUP3 DUP10 ADD PUSH2 0x5424 JUMP JUMPDEST SWAP5 POP POP PUSH1 0x40 PUSH2 0x5677 DUP9 DUP3 DUP10 ADD PUSH2 0x5424 JUMP JUMPDEST SWAP4 POP POP PUSH1 0x60 PUSH2 0x5688 DUP9 DUP3 DUP10 ADD PUSH2 0x5450 JUMP JUMPDEST SWAP3 POP POP PUSH1 0x80 PUSH2 0x5699 DUP9 DUP3 DUP10 ADD PUSH2 0x5450 JUMP JUMPDEST SWAP2 POP POP SWAP3 SWAP6 POP SWAP3 SWAP6 SWAP1 SWAP4 POP JUMP JUMPDEST PUSH1 0x0 PUSH1 0x40 DUP3 ADD SWAP1 POP PUSH2 0x56BB PUSH1 0x0 DUP4 ADD DUP6 PUSH2 0x51C9 JUMP JUMPDEST PUSH2 0x56C8 PUSH1 0x20 DUP4 ADD DUP5 PUSH2 0x51C9 JUMP JUMPDEST SWAP4 SWAP3 POP POP POP JUMP JUMPDEST PUSH1 0x0 DUP2 SWAP1 POP SWAP2 SWAP1 POP JUMP JUMPDEST PUSH2 0x56E2 DUP2 PUSH2 0x56CF JUMP JUMPDEST DUP2 EQ PUSH2 0x56ED JUMPI PUSH1 0x0 DUP1 REVERT JUMPDEST POP JUMP JUMPDEST PUSH1 0x0 DUP2 CALLDATALOAD SWAP1 POP PUSH2 0x56FF DUP2 PUSH2 0x56D9 JUMP JUMPDEST SWAP3 SWAP2 POP POP JUMP JUMPDEST PUSH1 0x0 PUSH1 0x20 DUP3 DUP5 SUB SLT ISZERO PUSH2 0x571B JUMPI PUSH2 0x571A PUSH2 0x51F3 JUMP JUMPDEST JUMPDEST PUSH1 0x0 PUSH2 0x5729 DUP5 DUP3 DUP6 ADD PUSH2 0x56F0 JUMP JUMPDEST SWAP2 POP POP SWAP3 SWAP2 POP POP JUMP JUMPDEST PUSH1 0x0 PUSH1 0xA0 DUP3 ADD SWAP1 POP PUSH2 0x5747 PUSH1 0x0 DUP4 ADD DUP9 PUSH2 0x51C9 JUMP JUMPDEST PUSH2 0x5754 PUSH1 0x20 DUP4 ADD DUP8 PUSH2 0x5564 JUMP JUMPDEST PUSH2 0x5761 PUSH1 0x40 DUP4 ADD DUP7 PUSH2 0x5564 JUMP JUMPDEST PUSH2 0x576E PUSH1 0x60 DUP4 ADD DUP6 PUSH2 0x51C9 JUMP JUMPDEST PUSH2 0x577B PUSH1 0x80 DUP4 ADD DUP5 PUSH2 0x51C9 JUMP JUMPDEST SWAP7 SWAP6 POP POP POP POP POP POP JUMP JUMPDEST PUSH1 0x0 DUP2 PUSH1 0x1 SIGNEXTEND SWAP1 POP SWAP2 SWAP1 POP JUMP JUMPDEST PUSH2 0x579B DUP2 PUSH2 0x5785 JUMP JUMPDEST DUP2 EQ PUSH2 0x57A6 JUMPI PUSH1 0x0 DUP1 REVERT JUMPDEST POP JUMP JUMPDEST PUSH1 0x0 DUP2 CALLDATALOAD SWAP1 POP PUSH2 0x57B8 DUP2 PUSH2 0x5792 JUMP JUMPDEST SWAP3 SWAP2 POP POP JUMP JUMPDEST PUSH1 0x0 PUSH1 0x20 DUP3 DUP5 SUB SLT ISZERO PUSH2 0x57D4 JUMPI PUSH2 0x57D3 PUSH2 0x51F3 JUMP JUMPDEST JUMPDEST PUSH1 0x0 PUSH2 0x57E2 DUP5 DUP3 DUP6 ADD PUSH2 0x57A9 JUMP JUMPDEST SWAP2 POP POP SWAP3 SWAP2 POP POP JUMP JUMPDEST PUSH1 0x0 DUP1 DUP4 PUSH1 0x1F DUP5 ADD SLT PUSH2 0x5801 JUMPI PUSH2 0x5800 PUSH2 0x5465 JUMP JUMPDEST JUMPDEST DUP3 CALLDATALOAD SWAP1 POP PUSH8 0xFFFFFFFFFFFFFFFF DUP2 GT ISZERO PUSH2 0x581E JUMPI PUSH2 0x581D PUSH2 0x546A JUMP JUMPDEST JUMPDEST PUSH1 0x20 DUP4 ADD SWAP2 POP DUP4 PUSH1 0x20 DUP3 MUL DUP4 ADD GT ISZERO PUSH2 0x583A JUMPI PUSH2 0x5839 PUSH2 0x546F JUMP JUMPDEST JUMPDEST SWAP3 POP SWAP3 SWAP1 POP JUMP JUMPDEST PUSH1 0x0 DUP1 PUSH1 0x20 DUP4 DUP6 SUB SLT ISZERO PUSH2 0x5858 JUMPI PUSH2 0x5857 PUSH2 0x51F3 JUMP JUMPDEST JUMPDEST PUSH1 0x0 DUP4 ADD CALLDATALOAD PUSH8 0xFFFFFFFFFFFFFFFF DUP2 GT ISZERO PUSH2 0x5876 JUMPI PUSH2 0x5875 PUSH2 0x51F8 JUMP JUMPDEST JUMPDEST PUSH2 0x5882 DUP6 DUP3 DUP7 ADD PUSH2 0x57EB JUMP JUMPDEST SWAP3 POP SWAP3 POP POP SWAP3 POP SWAP3 SWAP1 POP JUMP JUMPDEST PUSH1 0x0 DUP2 MLOAD SWAP1 POP SWAP2 SWAP1 POP JUMP JUMPDEST PUSH1 0x0 DUP3 DUP3 MSTORE PUSH1 0x20 DUP3 ADD SWAP1 POP SWAP3 SWAP2 POP POP JUMP JUMPDEST PUSH1 0x0 DUP2 SWAP1 POP PUSH1 0x20 DUP3 ADD SWAP1 POP SWAP2 SWAP1 POP JUMP JUMPDEST PUSH2 0x58C3 DUP2 PUSH2 0x527F JUMP JUMPDEST DUP3 MSTORE POP POP JUMP JUMPDEST PUSH1 0x0 PUSH2 0x58D5 DUP4 DUP4 PUSH2 0x58BA JUMP JUMPDEST PUSH1 0x20 DUP4 ADD SWAP1 POP SWAP3 SWAP2 POP POP JUMP JUMPDEST PUSH1 0x0 PUSH1 0x20 DUP3 ADD SWAP1 POP SWAP2 SWAP1 POP JUMP JUMPDEST PUSH1 0x0 PUSH2 0x58F9 DUP3 PUSH2 0x588E JUMP JUMPDEST PUSH2 0x5903 DUP2 DUP6 PUSH2 0x5899 JUMP JUMPDEST SWAP4 POP PUSH2 0x590E DUP4 PUSH2 0x58AA JUMP JUMPDEST DUP1 PUSH1 0x0 JUMPDEST DUP4 DUP2 LT ISZERO PUSH2 0x593F JUMPI DUP2 MLOAD PUSH2 0x5926 DUP9 DUP3 PUSH2 0x58C9 JUMP JUMPDEST SWAP8 POP PUSH2 0x5931 DUP4 PUSH2 0x58E1 JUMP JUMPDEST SWAP3 POP POP PUSH1 0x1 DUP2 ADD SWAP1 POP PUSH2 0x5912 JUMP JUMPDEST POP DUP6 SWAP4 POP POP POP POP SWAP3 SWAP2 POP POP JUMP JUMPDEST PUSH1 0x0 PUSH1 0x20 DUP3 ADD SWAP1 POP DUP2 DUP2 SUB PUSH1 0x0 DUP4 ADD MSTORE PUSH2 0x5966 DUP2 DUP5 PUSH2 0x58EE JUMP JUMPDEST SWAP1 POP SWAP3 SWAP2 POP POP JUMP JUMPDEST PUSH1 0x0 DUP1 PUSH1 0x0 PUSH1 0x60 DUP5 DUP7 SUB SLT ISZERO PUSH2 0x5987 JUMPI PUSH2 0x5986 PUSH2 0x51F3 JUMP JUMPDEST JUMPDEST PUSH1 0x0 PUSH2 0x5995 DUP7 DUP3 DUP8 ADD PUSH2 0x5424 JUMP JUMPDEST SWAP4 POP POP PUSH1 0x20 PUSH2 0x59A6 DUP7 DUP3 DUP8 ADD PUSH2 0x5424 JUMP JUMPDEST SWAP3 POP POP PUSH1 0x40 PUSH2 0x59B7 DUP7 DUP3 DUP8 ADD PUSH2 0x5450 JUMP JUMPDEST SWAP2 POP POP SWAP3 POP SWAP3 POP SWAP3 JUMP JUMPDEST PUSH1 0x0 PUSH3 0xFFFFFF DUP3 AND SWAP1 POP SWAP2 SWAP1 POP JUMP JUMPDEST PUSH2 0x59D9 DUP2 PUSH2 0x59C1 JUMP JUMPDEST DUP3 MSTORE POP POP JUMP JUMPDEST PUSH1 0x0 PUSH1 0x20 DUP3 ADD SWAP1 POP PUSH2 0x59F4 PUSH1 0x0 DUP4 ADD DUP5 PUSH2 0x59D0 JUMP JUMPDEST SWAP3 SWAP2 POP POP JUMP JUMPDEST PUSH2 0x5A03 DUP2 PUSH2 0x529B JUMP JUMPDEST DUP2 EQ PUSH2 0x5A0E JUMPI PUSH1 0x0 DUP1 REVERT JUMPDEST POP JUMP JUMPDEST PUSH1 0x0 DUP2 CALLDATALOAD SWAP1 POP PUSH2 0x5A20 DUP2 PUSH2 0x59FA JUMP JUMPDEST SWAP3 SWAP2 POP POP JUMP JUMPDEST PUSH2 0x5A2F DUP2 PUSH2 0x5151 JUMP JUMPDEST DUP2 EQ PUSH2 0x5A3A JUMPI PUSH1 0x0 DUP1 REVERT JUMPDEST POP JUMP JUMPDEST PUSH1 0x0 DUP2 CALLDATALOAD SWAP1 POP PUSH2 0x5A4C DUP2 PUSH2 0x5A26 JUMP JUMPDEST SWAP3 SWAP2 POP POP JUMP JUMPDEST PUSH1 0x0 DUP1 PUSH1 0x0 DUP1 PUSH1 0x0 DUP1 PUSH1 0xA0 DUP8 DUP10 SUB SLT ISZERO PUSH2 0x5A6F JUMPI PUSH2 0x5A6E PUSH2 0x51F3 JUMP JUMPDEST JUMPDEST PUSH1 0x0 PUSH2 0x5A7D DUP10 DUP3 DUP11 ADD PUSH2 0x53F8 JUMP JUMPDEST SWAP7 POP POP PUSH1 0x20 PUSH2 0x5A8E DUP10 DUP3 DUP11 ADD PUSH2 0x5A11 JUMP JUMPDEST SWAP6 POP POP PUSH1 0x40 PUSH2 0x5A9F DUP10 DUP3 DUP11 ADD PUSH2 0x521E JUMP JUMPDEST SWAP5 POP POP PUSH1 0x60 PUSH2 0x5AB0 DUP10 DUP3 DUP11 ADD PUSH2 0x5A3D JUMP JUMPDEST SWAP4 POP POP PUSH1 0x80 DUP8 ADD CALLDATALOAD PUSH8 0xFFFFFFFFFFFFFFFF DUP2 GT ISZERO PUSH2 0x5AD1 JUMPI PUSH2 0x5AD0 PUSH2 0x51F8 JUMP JUMPDEST JUMPDEST PUSH2 0x5ADD DUP10 DUP3 DUP11 ADD PUSH2 0x5474 JUMP JUMPDEST SWAP3 POP SWAP3 POP POP SWAP3 SWAP6 POP SWAP3 SWAP6 POP SWAP3 SWAP6 JUMP JUMPDEST PUSH1 0x0 DUP2 SWAP1 POP SWAP2 SWAP1 POP JUMP JUMPDEST PUSH2 0x5AFF DUP2 PUSH2 0x5AEC JUMP JUMPDEST DUP3 MSTORE POP POP JUMP JUMPDEST PUSH1 0x0 PUSH1 0x40 DUP3 ADD SWAP1 POP PUSH2 0x5B1A PUSH1 0x0 DUP4 ADD DUP6 PUSH2 0x5AF6 JUMP JUMPDEST PUSH2 0x5B27 PUSH1 0x20 DUP4 ADD DUP5 PUSH2 0x5AF6 JUMP JUMPDEST SWAP4 SWAP3 POP POP POP JUMP JUMPDEST PUSH1 0x0 PUSH1 0x20 DUP3 DUP5 SUB SLT ISZERO PUSH2 0x5B44 JUMPI PUSH2 0x5B43 PUSH2 0x51F3 JUMP JUMPDEST JUMPDEST PUSH1 0x0 PUSH2 0x5B52 DUP5 DUP3 DUP6 ADD PUSH2 0x5424 JUMP JUMPDEST SWAP2 POP POP SWAP3 SWAP2 POP POP JUMP JUMPDEST PUSH1 0x0 DUP2 PUSH1 0xF SIGNEXTEND SWAP1 POP SWAP2 SWAP1 POP JUMP JUMPDEST PUSH2 0x5B71 DUP2 PUSH2 0x5B5B JUMP JUMPDEST DUP3 MSTORE POP POP JUMP JUMPDEST PUSH1 0x0 PUSH1 0xA0 DUP3 ADD SWAP1 POP PUSH2 0x5B8C PUSH1 0x0 DUP4 ADD DUP9 PUSH2 0x52A7 JUMP JUMPDEST PUSH2 0x5B99 PUSH1 0x20 DUP4 ADD DUP8 PUSH2 0x51C9 JUMP JUMPDEST PUSH2 0x5BA6 PUSH1 0x40 DUP4 ADD DUP7 PUSH2 0x5B68 JUMP JUMPDEST PUSH2 0x5BB3 PUSH1 0x60 DUP4 ADD DUP6 PUSH2 0x5564 JUMP JUMPDEST PUSH2 0x5BC0 PUSH1 0x80 DUP4 ADD DUP5 PUSH2 0x5564 JUMP JUMPDEST SWAP7 SWAP6 POP POP POP POP POP POP JUMP JUMPDEST PUSH1 0x0 PUSH1 0x20 DUP3 DUP5 SUB SLT ISZERO PUSH2 0x5BE0 JUMPI PUSH2 0x5BDF PUSH2 0x51F3 JUMP JUMPDEST JUMPDEST PUSH1 0x0 PUSH2 0x5BEE DUP5 DUP3 DUP6 ADD PUSH2 0x5A3D JUMP JUMPDEST SWAP2 POP POP SWAP3 SWAP2 POP POP JUMP JUMPDEST PUSH1 0x0 PUSH1 0x40 DUP3 ADD SWAP1 POP PUSH2 0x5C0C PUSH1 0x0 DUP4 ADD DUP6 PUSH2 0x537F JUMP JUMPDEST PUSH2 0x5C19 PUSH1 0x20 DUP4 ADD DUP5 PUSH2 0x537F JUMP JUMPDEST SWAP4 SWAP3 POP POP POP JUMP JUMPDEST PUSH32 0x4E487B7100000000000000000000000000000000000000000000000000000000 PUSH1 0x0 MSTORE PUSH1 0x11 PUSH1 0x4 MSTORE PUSH1 0x24 PUSH1 0x0 REVERT JUMPDEST PUSH1 0x0 PUSH2 0x5C5A DUP3 PUSH2 0x5363 JUMP JUMPDEST SWAP2 POP PUSH32 0xFFFFFFFFFFFFFFFFFFFFFFFFFFFFFFFFFFFFFFFFFFFFFFFFFFFFFFFFFF800000 DUP3 SUB PUSH2 0x5C8C JUMPI PUSH2 0x5C8B PUSH2 0x5C20 JUMP JUMPDEST JUMPDEST DUP2 PUSH1 0x0 SUB SWAP1 POP SWAP2 SWAP1 POP JUMP JUMPDEST PUSH1 0x0 DUP3 DUP3 MSTORE PUSH1 0x20 DUP3 ADD SWAP1 POP SWAP3 SWAP2 POP POP JUMP JUMPDEST DUP3 DUP2 DUP4 CALLDATACOPY PUSH1 0x0 DUP4 DUP4 ADD MSTORE POP POP POP JUMP JUMPDEST PUSH1 0x0 PUSH1 0x1F NOT PUSH1 0x1F DUP4 ADD AND SWAP1 POP SWAP2 SWAP1 POP JUMP JUMPDEST PUSH1 0x0 PUSH2 0x5CD4 DUP4 DUP6 PUSH2 0x5C97 JUMP JUMPDEST SWAP4 POP PUSH2 0x5CE1 DUP4 DUP6 DUP5 PUSH2 0x5CA8 JUMP JUMPDEST PUSH2 0x5CEA DUP4 PUSH2 0x5CB7 JUMP JUMPDEST DUP5 ADD SWAP1 POP SWAP4 SWAP3 POP POP POP JUMP JUMPDEST PUSH1 0x0 PUSH1 0x60 DUP3 ADD SWAP1 POP PUSH2 0x5D0A PUSH1 0x0 DUP4 ADD DUP8 PUSH2 0x5564 JUMP JUMPDEST PUSH2 0x5D17 PUSH1 0x20 DUP4 ADD DUP7 PUSH2 0x5564 JUMP JUMPDEST DUP2 DUP2 SUB PUSH1 0x40 DUP4 ADD MSTORE PUSH2 0x5D2A DUP2 DUP5 DUP7 PUSH2 0x5CC8 JUMP JUMPDEST SWAP1 POP SWAP6 SWAP5 POP POP POP POP POP JUMP JUMPDEST PUSH1 0x0 PUSH2 0x5D40 DUP3 PUSH2 0x51FD JUMP JUMPDEST SWAP2 POP PUSH2 0x5D4B DUP4 PUSH2 0x51FD JUMP JUMPDEST SWAP3 POP DUP3 DUP3 ADD SWAP1 POP DUP1 DUP3 GT ISZERO PUSH2 0x5D63 JUMPI PUSH2 0x5D62 PUSH2 0x5C20 JUMP JUMPDEST JUMPDEST SWAP3 SWAP2 POP POP JUMP JUMPDEST PUSH1 0x0 PUSH1 0x80 DUP3 ADD SWAP1 POP PUSH2 0x5D7E PUSH1 0x0 DUP4 ADD DUP8 PUSH2 0x5183 JUMP JUMPDEST PUSH2 0x5D8B PUSH1 0x20 DUP4 ADD DUP7 PUSH2 0x51C9 JUMP JUMPDEST PUSH2 0x5D98 PUSH1 0x40 DUP4 ADD DUP6 PUSH2 0x5564 JUMP JUMPDEST PUSH2 0x5DA5 PUSH1 0x60 DUP4 ADD DUP5 PUSH2 0x5564 JUMP JUMPDEST SWAP6 SWAP5 POP POP POP POP POP JUMP JUMPDEST PUSH1 0x0 DUP2 MLOAD SWAP1 POP PUSH2 0x5DBD DUP2 PUSH2 0x5207 JUMP JUMPDEST SWAP3 SWAP2 POP POP JUMP JUMPDEST PUSH1 0x0 PUSH1 0x20 DUP3 DUP5 SUB SLT ISZERO PUSH2 0x5DD9 JUMPI PUSH2 0x5DD8 PUSH2 0x51F3 JUMP JUMPDEST JUMPDEST PUSH1 0x0 PUSH2 0x5DE7 DUP5 DUP3 DUP6 ADD PUSH2 0x5DAE JUMP JUMPDEST SWAP2 POP POP SWAP3 SWAP2 POP POP JUMP JUMPDEST PUSH1 0x0 PUSH1 0x40 DUP3 ADD SWAP1 POP PUSH2 0x5E05 PUSH1 0x0 DUP4 ADD DUP6 PUSH2 0x5183 JUMP JUMPDEST PUSH2 0x5E12 PUSH1 0x20 DUP4 ADD DUP5 PUSH2 0x5564 JUMP JUMPDEST SWAP4 SWAP3 POP POP POP JUMP JUMPDEST PUSH1 0x0 DUP2 MLOAD SWAP1 POP PUSH2 0x5E28 DUP2 PUSH2 0x59FA JUMP JUMPDEST SWAP3 SWAP2 POP POP JUMP JUMPDEST PUSH1 0x0 PUSH1 0x20 DUP3 DUP5 SUB SLT ISZERO PUSH2 0x5E44 JUMPI PUSH2 0x5E43 PUSH2 0x51F3 JUMP JUMPDEST JUMPDEST PUSH1 0x0 PUSH2 0x5E52 DUP5 DUP3 DUP6 ADD PUSH2 0x5E19 JUMP JUMPDEST SWAP2 POP POP SWAP3 SWAP2 POP POP JUMP JUMPDEST PUSH1 0x0 PUSH2 0x5E66 DUP3 PUSH2 0x51AD JUMP JUMPDEST SWAP2 POP PUSH2 0x5E71 DUP4 PUSH2 0x51AD JUMP JUMPDEST SWAP3 POP DUP3 DUP3 SUB SWAP1 POP PUSH16 0xFFFFFFFFFFFFFFFFFFFFFFFFFFFFFFFF DUP2 GT ISZERO PUSH2 0x5E99 JUMPI PUSH2 0x5E98 PUSH2 0x5C20 JUMP JUMPDEST JUMPDEST SWAP3 SWAP2 POP POP JUMP JUMPDEST PUSH1 0x0 DUP2 SWAP1 POP SWAP2 SWAP1 POP JUMP JUMPDEST PUSH1 0x0 PUSH2 0x5EC4 PUSH2 0x5EBF PUSH2 0x5EBA DUP5 PUSH2 0x51AD JUMP JUMPDEST PUSH2 0x5E9F JUMP JUMPDEST PUSH2 0x51FD JUMP JUMPDEST SWAP1 POP SWAP2 SWAP1 POP JUMP JUMPDEST PUSH2 0x5ED4 DUP2 PUSH2 0x5EA9 JUMP JUMPDEST DUP3 MSTORE POP POP JUMP JUMPDEST PUSH1 0x0 PUSH1 0x40 DUP3 ADD SWAP1 POP PUSH2 0x5EEF PUSH1 0x0 DUP4 ADD DUP6 PUSH2 0x5183 JUMP JUMPDEST PUSH2 0x5EFC PUSH1 0x20 DUP4 ADD DUP5 PUSH2 0x5ECB JUMP JUMPDEST SWAP4 SWAP3 POP POP POP JUMP JUMPDEST PUSH1 0x0 PUSH1 0x60 DUP3 ADD SWAP1 POP PUSH2 0x5F18 PUSH1 0x0 DUP4 ADD DUP7 PUSH2 0x5183 JUMP JUMPDEST PUSH2 0x5F25 PUSH1 0x20 DUP4 ADD DUP6 PUSH2 0x5ECB JUMP JUMPDEST PUSH2 0x5F32 PUSH1 0x40 DUP4 ADD DUP5 PUSH2 0x5ECB JUMP JUMPDEST SWAP5 SWAP4 POP POP POP POP JUMP JUMPDEST PUSH1 0x0 PUSH2 0x5F45 DUP3 PUSH2 0x5B5B JUMP JUMPDEST SWAP2 POP PUSH32 0xFFFFFFFFFFFFFFFFFFFFFFFFFFFFFFFF80000000000000000000000000000000 DUP3 SUB PUSH2 0x5F77 JUMPI PUSH2 0x5F76 PUSH2 0x5C20 JUMP JUMPDEST JUMPDEST DUP2 PUSH1 0x0 SUB SWAP1 POP SWAP2 SWAP1 POP JUMP JUMPDEST PUSH1 0x0 PUSH2 0x5F8D DUP3 PUSH2 0x5AEC JUMP JUMPDEST SWAP2 POP PUSH32 0x8000000000000000000000000000000000000000000000000000000000000000 DUP3 SUB PUSH2 0x5FBF JUMPI PUSH2 0x5FBE PUSH2 0x5C20 JUMP JUMPDEST JUMPDEST DUP2 PUSH1 0x0 SUB SWAP1 POP SWAP2 SWAP1 POP JUMP JUMPDEST PUSH1 0x0 PUSH2 0x5FD5 DUP3 PUSH2 0x51AD JUMP JUMPDEST SWAP2 POP PUSH2 0x5FE0 DUP4 PUSH2 0x51AD JUMP JUMPDEST SWAP3 POP DUP3 DUP3 ADD SWAP1 POP PUSH16 0xFFFFFFFFFFFFFFFFFFFFFFFFFFFFFFFF DUP2 GT ISZERO PUSH2 0x6008 JUMPI PUSH2 0x6007 PUSH2 0x5C20 JUMP JUMPDEST JUMPDEST SWAP3 SWAP2 POP POP JUMP JUMPDEST PUSH1 0x0 PUSH1 0x60 DUP3 ADD SWAP1 POP PUSH2 0x6023 PUSH1 0x0 DUP4 ADD DUP7 PUSH2 0x51C9 JUMP JUMPDEST PUSH2 0x6030 PUSH1 0x20 DUP4 ADD DUP6 PUSH2 0x5564 JUMP JUMPDEST PUSH2 0x603D PUSH1 0x40 DUP4 ADD DUP5 PUSH2 0x5564 JUMP JUMPDEST SWAP5 SWAP4 POP POP POP POP JUMP JUMPDEST PUSH1 0x0 PUSH2 0x6050 DUP3 PUSH2 0x51FD JUMP JUMPDEST SWAP2 POP PUSH2 0x605B DUP4 PUSH2 0x51FD JUMP JUMPDEST SWAP3 POP DUP3 DUP3 SUB SWAP1 POP DUP2 DUP2 GT ISZERO PUSH2 0x6073 JUMPI PUSH2 0x6072 PUSH2 0x5C20 JUMP JUMPDEST JUMPDEST SWAP3 SWAP2 POP POP JUMP JUMPDEST PUSH1 0x0 PUSH2 0x6084 DUP3 PUSH2 0x5363 JUMP JUMPDEST SWAP2 POP PUSH2 0x608F DUP4 PUSH2 0x5363 JUMP JUMPDEST SWAP3 POP DUP3 DUP3 SUB SWAP1 POP PUSH3 0x7FFFFF DUP2 SGT PUSH32 0xFFFFFFFFFFFFFFFFFFFFFFFFFFFFFFFFFFFFFFFFFFFFFFFFFFFFFFFFFF800000 DUP3 SLT OR ISZERO PUSH2 0x60CE JUMPI PUSH2 0x60CD PUSH2 0x5C20 JUMP JUMPDEST JUMPDEST SWAP3 SWAP2 POP POP JUMP JUMPDEST PUSH1 0x0 PUSH1 0x60 DUP3 ADD SWAP1 POP PUSH2 0x60E9 PUSH1 0x0 DUP4 ADD DUP8 PUSH2 0x5AF6 JUMP JUMPDEST PUSH2 0x60F6 PUSH1 0x20 DUP4 ADD DUP7 PUSH2 0x5AF6 JUMP JUMPDEST DUP2 DUP2 SUB PUSH1 0x40 DUP4 ADD MSTORE PUSH2 0x6109 DUP2 DUP5 DUP7 PUSH2 0x5CC8 JUMP JUMPDEST SWAP1 POP SWAP6 SWAP5 POP POP POP POP POP JUMP JUMPDEST PUSH1 0x0 PUSH1 0xA0 DUP3 ADD SWAP1 POP PUSH2 0x6129 PUSH1 0x0 DUP4 ADD DUP9 PUSH2 0x5AF6 JUMP JUMPDEST PUSH2 0x6136 PUSH1 0x20 DUP4 ADD DUP8 PUSH2 0x5AF6 JUMP JUMPDEST PUSH2 0x6143 PUSH1 0x40 DUP4 ADD DUP7 PUSH2 0x5354 JUMP JUMPDEST PUSH2 0x6150 PUSH1 0x60 DUP4 ADD DUP6 PUSH2 0x51C9 JUMP JUMPDEST PUSH2 0x615D PUSH1 0x80 DUP4 ADD DUP5 PUSH2 0x5370 JUMP JUMPDEST SWAP7 SWAP6 POP POP POP POP POP POP JUMP JUMPDEST PUSH32 0x4E487B7100000000000000000000000000000000000000000000000000000000 PUSH1 0x0 MSTORE PUSH1 0x32 PUSH1 0x4 MSTORE PUSH1 0x24 PUSH1 0x0 REVERT JUMPDEST PUSH32 0x4E487B7100000000000000000000000000000000000000000000000000000000 PUSH1 0x0 MSTORE PUSH1 0x12 PUSH1 0x4 MSTORE PUSH1 0x24 PUSH1 0x0 REVERT JUMPDEST PUSH1 0x0 PUSH2 0x61D0 DUP3 PUSH2 0x51FD JUMP JUMPDEST SWAP2 POP PUSH32 0xFFFFFFFFFFFFFFFFFFFFFFFFFFFFFFFFFFFFFFFFFFFFFFFFFFFFFFFFFFFFFFFF DUP3 SUB PUSH2 0x6202 JUMPI PUSH2 0x6201 PUSH2 0x5C20 JUMP JUMPDEST JUMPDEST PUSH1 0x1 DUP3 ADD SWAP1 POP SWAP2 SWAP1 POP JUMP JUMPDEST PUSH1 0x0 DUP2 PUSH1 0x60 SHL SWAP1 POP SWAP2 SWAP1 POP JUMP JUMPDEST PUSH1 0x0 PUSH2 0x6225 DUP3 PUSH2 0x620D JUMP JUMPDEST SWAP1 POP SWAP2 SWAP1 POP JUMP JUMPDEST PUSH1 0x0 PUSH2 0x6237 DUP3 PUSH2 0x621A JUMP JUMPDEST SWAP1 POP SWAP2 SWAP1 POP JUMP JUMPDEST PUSH2 0x624F PUSH2 0x624A DUP3 PUSH2 0x5171 JUMP JUMPDEST PUSH2 0x622C JUMP JUMPDEST DUP3 MSTORE POP POP JUMP JUMPDEST PUSH1 0x0 DUP2 PUSH1 0xE8 SHL SWAP1 POP SWAP2 SWAP1 POP JUMP JUMPDEST PUSH1 0x0 PUSH2 0x626D DUP3 PUSH2 0x6255 JUMP JUMPDEST SWAP1 POP SWAP2 SWAP1 POP JUMP JUMPDEST PUSH2 0x6285 PUSH2 0x6280 DUP3 PUSH2 0x5363 JUMP JUMPDEST PUSH2 0x6262 JUMP JUMPDEST DUP3 MSTORE POP POP JUMP JUMPDEST PUSH1 0x0 PUSH2 0x6297 DUP3 DUP7 PUSH2 0x623E JUMP JUMPDEST PUSH1 0x14 DUP3 ADD SWAP2 POP PUSH2 0x62A7 DUP3 DUP6 PUSH2 0x6274 JUMP JUMPDEST PUSH1 0x3 DUP3 ADD SWAP2 POP PUSH2 0x62B7 DUP3 DUP5 PUSH2 0x6274 JUMP JUMPDEST PUSH1 0x3 DUP3 ADD SWAP2 POP DUP2 SWAP1 POP SWAP5 SWAP4 POP POP POP POP JUMP JUMPDEST PUSH32 0x4E487B7100000000000000000000000000000000000000000000000000000000 PUSH1 0x0 MSTORE PUSH1 0x41 PUSH1 0x4 MSTORE PUSH1 0x24 PUSH1 0x0 REVERT JUMPDEST PUSH1 0x0 PUSH2 0x6302 DUP3 PUSH2 0x5363 JUMP JUMPDEST SWAP2 POP PUSH2 0x630D DUP4 PUSH2 0x5363 JUMP JUMPDEST SWAP3 POP DUP3 PUSH2 0x631D JUMPI PUSH2 0x631C PUSH2 0x6196 JUMP JUMPDEST JUMPDEST PUSH1 0x1 PUSH1 0x0 SUB DUP4 EQ PUSH32 0xFFFFFFFFFFFFFFFFFFFFFFFFFFFFFFFFFFFFFFFFFFFFFFFFFFFFFFFFFF800000 DUP4 EQ AND ISZERO PUSH2 0x6356 JUMPI PUSH2 0x6355 PUSH2 0x5C20 JUMP JUMPDEST JUMPDEST DUP3 DUP3 SDIV SWAP1 POP SWAP3 SWAP2 POP POP JUMP JUMPDEST PUSH1 0x0 PUSH2 0x636C DUP3 PUSH2 0x5363 JUMP JUMPDEST SWAP2 POP PUSH2 0x6377 DUP4 PUSH2 0x5363 JUMP JUMPDEST SWAP3 POP DUP3 PUSH2 0x6387 JUMPI PUSH2 0x6386 PUSH2 0x6196 JUMP JUMPDEST JUMPDEST DUP3 DUP3 SMOD SWAP1 POP SWAP3 SWAP2 POP POP JUMP JUMPDEST PUSH1 0x0 PUSH2 0x639D DUP3 PUSH2 0x5363 JUMP JUMPDEST SWAP2 POP PUSH32 0xFFFFFFFFFFFFFFFFFFFFFFFFFFFFFFFFFFFFFFFFFFFFFFFFFFFFFFFFFF800000 DUP3 SUB PUSH2 0x63CF JUMPI PUSH2 0x63CE PUSH2 0x5C20 JUMP JUMPDEST JUMPDEST PUSH1 0x1 DUP3 SUB SWAP1 POP SWAP2 SWAP1 POP JUMP JUMPDEST PUSH1 0x0 PUSH2 0x63E5 DUP3 PUSH2 0x5363 JUMP JUMPDEST SWAP2 POP PUSH2 0x63F0 DUP4 PUSH2 0x5363 JUMP JUMPDEST SWAP3 POP DUP3 DUP3 MUL PUSH2 0x63FE DUP2 PUSH2 0x5363 JUMP JUMPDEST SWAP2 POP DUP1 DUP3 EQ PUSH2 0x6410 JUMPI PUSH2 0x640F PUSH2 0x5C20 JUMP JUMPDEST JUMPDEST POP SWAP3 SWAP2 POP POP JUMP JUMPDEST PUSH1 0x0 PUSH1 0xFF DUP3 AND SWAP1 POP SWAP2 SWAP1 POP JUMP JUMPDEST PUSH1 0x0 PUSH2 0x642F DUP3 PUSH2 0x6417 JUMP JUMPDEST SWAP2 POP PUSH2 0x643A DUP4 PUSH2 0x6417 JUMP JUMPDEST SWAP3 POP DUP3 DUP3 SUB SWAP1 POP PUSH1 0xFF DUP2 GT ISZERO PUSH2 0x6453 JUMPI PUSH2 0x6452 PUSH2 0x5C20 JUMP JUMPDEST JUMPDEST SWAP3 SWAP2 POP POP JUMP JUMPDEST PUSH1 0x0 PUSH2 0x6464 DUP3 PUSH2 0x5363 JUMP JUMPDEST SWAP2 POP PUSH2 0x646F DUP4 PUSH2 0x5363 JUMP JUMPDEST SWAP3 POP DUP3 DUP3 ADD SWAP1 POP PUSH32 0xFFFFFFFFFFFFFFFFFFFFFFFFFFFFFFFFFFFFFFFFFFFFFFFFFFFFFFFFFF800000 DUP2 SLT PUSH3 0x7FFFFF DUP3 SGT OR ISZERO PUSH2 0x64AE JUMPI PUSH2 0x64AD PUSH2 0x5C20 JUMP JUMPDEST JUMPDEST SWAP3 SWAP2 POP POP JUMP JUMPDEST PUSH1 0x0 DUP3 DUP3 MSTORE PUSH1 0x20 DUP3 ADD SWAP1 POP SWAP3 SWAP2 POP POP JUMP JUMPDEST PUSH32 0x5400000000000000000000000000000000000000000000000000000000000000 PUSH1 0x0 DUP3 ADD MSTORE POP JUMP JUMPDEST PUSH1 0x0 PUSH2 0x64FB PUSH1 0x1 DUP4 PUSH2 0x64B4 JUMP JUMPDEST SWAP2 POP PUSH2 0x6506 DUP3 PUSH2 0x64C5 JUMP JUMPDEST PUSH1 0x20 DUP3 ADD SWAP1 POP SWAP2 SWAP1 POP JUMP JUMPDEST PUSH1 0x0 PUSH1 0x20 DUP3 ADD SWAP1 POP DUP2 DUP2 SUB PUSH1 0x0 DUP4 ADD MSTORE PUSH2 0x652A DUP2 PUSH2 0x64EE JUMP JUMPDEST SWAP1 POP SWAP2 SWAP1 POP JUMP JUMPDEST PUSH1 0x0 PUSH2 0x653C DUP3 PUSH2 0x51FD JUMP JUMPDEST SWAP2 POP PUSH2 0x6547 DUP4 PUSH2 0x51FD JUMP JUMPDEST SWAP3 POP DUP3 DUP3 MUL PUSH2 0x6555 DUP2 PUSH2 0x51FD JUMP JUMPDEST SWAP2 POP DUP3 DUP3 DIV DUP5 EQ DUP4 ISZERO OR PUSH2 0x656C JUMPI PUSH2 0x656B PUSH2 0x5C20 JUMP JUMPDEST JUMPDEST POP SWAP3 SWAP2 POP POP JUMP JUMPDEST PUSH1 0x0 PUSH2 0x657E DUP3 PUSH2 0x51FD JUMP JUMPDEST SWAP2 POP PUSH2 0x6589 DUP4 PUSH2 0x51FD JUMP JUMPDEST SWAP3 POP DUP3 PUSH2 0x6599 JUMPI PUSH2 0x6598 PUSH2 0x6196 JUMP JUMPDEST JUMPDEST DUP3 DUP3 DIV SWAP1 POP SWAP3 SWAP2 POP POP JUMP JUMPDEST PUSH1 0x0 PUSH2 0x65AF DUP3 PUSH2 0x51FD JUMP JUMPDEST SWAP2 POP PUSH2 0x65BA DUP4 PUSH2 0x51FD JUMP JUMPDEST SWAP3 POP DUP3 PUSH2 0x65CA JUMPI PUSH2 0x65C9 PUSH2 0x6196 JUMP JUMPDEST JUMPDEST DUP3 DUP3 MOD SWAP1 POP SWAP3 SWAP2 POP POP JUMP JUMPDEST PUSH1 0x0 PUSH2 0x65E0 DUP3 PUSH2 0x59C1 JUMP JUMPDEST SWAP2 POP PUSH2 0x65EB DUP4 PUSH2 0x59C1 JUMP JUMPDEST SWAP3 POP DUP3 DUP3 SUB SWAP1 POP PUSH3 0xFFFFFF DUP2 GT ISZERO PUSH2 0x6606 JUMPI PUSH2 0x6605 PUSH2 0x5C20 JUMP JUMPDEST JUMPDEST SWAP3 SWAP2 POP POP JUMP JUMPDEST PUSH32 0x5200000000000000000000000000000000000000000000000000000000000000 PUSH1 0x0 DUP3 ADD MSTORE POP JUMP JUMPDEST PUSH1 0x0 PUSH2 0x6642 PUSH1 0x1 DUP4 PUSH2 0x64B4 JUMP JUMPDEST SWAP2 POP PUSH2 0x664D DUP3 PUSH2 0x660C JUMP JUMPDEST PUSH1 0x20 DUP3 ADD SWAP1 POP SWAP2 SWAP1 POP JUMP JUMPDEST PUSH1 0x0 PUSH1 0x20 DUP3 ADD SWAP1 POP DUP2 DUP2 SUB PUSH1 0x0 DUP4 ADD MSTORE PUSH2 0x6671 DUP2 PUSH2 0x6635 JUMP JUMPDEST SWAP1 POP SWAP2 SWAP1 POP JUMP JUMPDEST PUSH1 0x0 PUSH2 0x6683 DUP3 PUSH2 0x5AEC JUMP JUMPDEST SWAP2 POP PUSH2 0x668E DUP4 PUSH2 0x5AEC JUMP JUMPDEST SWAP3 POP DUP3 DUP3 SUB SWAP1 POP DUP2 DUP2 SLT PUSH1 0x0 DUP5 SLT AND DUP3 DUP3 SGT PUSH1 0x0 DUP6 SLT ISZERO AND OR ISZERO PUSH2 0x66B5 JUMPI PUSH2 0x66B4 PUSH2 0x5C20 JUMP JUMPDEST JUMPDEST SWAP3 SWAP2 POP POP JUMP JUMPDEST PUSH1 0x0 PUSH2 0x66C6 DUP3 PUSH2 0x5AEC JUMP JUMPDEST SWAP2 POP PUSH2 0x66D1 DUP4 PUSH2 0x5AEC JUMP JUMPDEST SWAP3 POP DUP3 DUP3 MUL PUSH2 0x66DF DUP2 PUSH2 0x5AEC JUMP JUMPDEST SWAP2 POP PUSH32 0x8000000000000000000000000000000000000000000000000000000000000000 DUP5 EQ PUSH1 0x0 DUP5 SLT AND ISZERO PUSH2 0x6717 JUMPI PUSH2 0x6716 PUSH2 0x5C20 JUMP JUMPDEST JUMPDEST DUP3 DUP3 SDIV DUP5 EQ DUP4 ISZERO OR PUSH2 0x672C JUMPI PUSH2 0x672B PUSH2 0x5C20 JUMP JUMPDEST JUMPDEST POP SWAP3 SWAP2 POP POP JUMP JUMPDEST PUSH1 0x0 PUSH2 0x673E DUP3 PUSH2 0x5AEC JUMP JUMPDEST SWAP2 POP PUSH2 0x6749 DUP4 PUSH2 0x5AEC JUMP JUMPDEST SWAP3 POP DUP3 DUP3 ADD SWAP1 POP DUP3 DUP2 SLT ISZERO PUSH1 0x0 DUP4 SLT AND DUP4 DUP3 SLT PUSH1 0x0 DUP5 SLT ISZERO AND OR ISZERO PUSH2 0x6771 JUMPI PUSH2 0x6770 PUSH2 0x5C20 JUMP JUMPDEST JUMPDEST SWAP3 SWAP2 POP POP JUMP JUMPDEST PUSH1 0x0 PUSH2 0x6782 DUP3 PUSH2 0x52ED JUMP JUMPDEST SWAP2 POP PUSH2 0x678D DUP4 PUSH2 0x52ED JUMP JUMPDEST SWAP3 POP DUP3 DUP3 SUB SWAP1 POP PUSH2 0xFFFF DUP2 GT ISZERO PUSH2 0x67A7 JUMPI PUSH2 0x67A6 PUSH2 0x5C20 JUMP JUMPDEST JUMPDEST SWAP3 SWAP2 POP POP JUMP JUMPDEST PUSH1 0x0 PUSH2 0x67B8 DUP3 PUSH2 0x52ED JUMP JUMPDEST SWAP2 POP PUSH2 0x67C3 DUP4 PUSH2 0x52ED JUMP JUMPDEST SWAP3 POP DUP3 DUP3 ADD SWAP1 POP PUSH2 0xFFFF DUP2 GT ISZERO PUSH2 0x67DD JUMPI PUSH2 0x67DC PUSH2 0x5C20 JUMP JUMPDEST JUMPDEST SWAP3 SWAP2 POP POP JUMP JUMPDEST PUSH1 0x0 PUSH2 0x67EE DUP3 PUSH2 0x52ED JUMP JUMPDEST SWAP2 POP PUSH2 0x67F9 DUP4 PUSH2 0x52ED JUMP JUMPDEST SWAP3 POP DUP3 PUSH2 0x6809 JUMPI PUSH2 0x6808 PUSH2 0x6196 JUMP JUMPDEST JUMPDEST DUP3 DUP3 MOD SWAP1 POP SWAP3 SWAP2 POP POP JUMP JUMPDEST PUSH1 0x0 PUSH2 0x681F DUP3 PUSH2 0x5260 JUMP JUMPDEST SWAP2 POP PUSH2 0x682A DUP4 PUSH2 0x5260 JUMP JUMPDEST SWAP3 POP DUP3 DUP3 SUB SWAP1 POP PUSH4 0xFFFFFFFF DUP2 GT ISZERO PUSH2 0x6846 JUMPI PUSH2 0x6845 PUSH2 0x5C20 JUMP JUMPDEST JUMPDEST SWAP3 SWAP2 POP POP JUMP JUMPDEST PUSH1 0x0 PUSH2 0x6857 DUP3 PUSH2 0x527F JUMP JUMPDEST SWAP2 POP PUSH2 0x6862 DUP4 PUSH2 0x527F JUMP JUMPDEST SWAP3 POP DUP3 DUP3 SUB SWAP1 POP PUSH7 0x7FFFFFFFFFFFFF DUP2 SGT PUSH32 0xFFFFFFFFFFFFFFFFFFFFFFFFFFFFFFFFFFFFFFFFFFFFFFFFFF80000000000000 DUP3 SLT OR ISZERO PUSH2 0x68A5 JUMPI PUSH2 0x68A4 PUSH2 0x5C20 JUMP JUMPDEST JUMPDEST SWAP3 SWAP2 POP POP JUMP JUMPDEST PUSH1 0x0 PUSH2 0x68B6 DUP3 PUSH2 0x527F JUMP JUMPDEST SWAP2 POP PUSH2 0x68C1 DUP4 PUSH2 0x527F JUMP JUMPDEST SWAP3 POP DUP3 PUSH2 0x68D1 JUMPI PUSH2 0x68D0 PUSH2 0x6196 JUMP JUMPDEST JUMPDEST PUSH1 0x1 PUSH1 0x0 SUB DUP4 EQ PUSH32 0xFFFFFFFFFFFFFFFFFFFFFFFFFFFFFFFFFFFFFFFFFFFFFFFFFF80000000000000 DUP4 EQ AND ISZERO PUSH2 0x690A JUMPI PUSH2 0x6909 PUSH2 0x5C20 JUMP JUMPDEST JUMPDEST DUP3 DUP3 SDIV SWAP1 POP SWAP3 SWAP2 POP POP JUMP JUMPDEST PUSH1 0x0 PUSH2 0x6920 DUP3 PUSH2 0x527F JUMP JUMPDEST SWAP2 POP PUSH2 0x692B DUP4 PUSH2 0x527F JUMP JUMPDEST SWAP3 POP DUP3 DUP3 MUL PUSH2 0x6939 DUP2 PUSH2 0x527F JUMP JUMPDEST SWAP2 POP DUP1 DUP3 EQ PUSH2 0x694B JUMPI PUSH2 0x694A PUSH2 0x5C20 JUMP JUMPDEST JUMPDEST POP SWAP3 SWAP2 POP POP JUMP JUMPDEST PUSH1 0x0 PUSH2 0x695D DUP3 PUSH2 0x527F JUMP JUMPDEST SWAP2 POP PUSH2 0x6968 DUP4 PUSH2 0x527F JUMP JUMPDEST SWAP3 POP DUP3 DUP3 ADD SWAP1 POP PUSH32 0xFFFFFFFFFFFFFFFFFFFFFFFFFFFFFFFFFFFFFFFFFFFFFFFFFF80000000000000 DUP2 SLT PUSH7 0x7FFFFFFFFFFFFF DUP3 SGT OR ISZERO PUSH2 0x69AB JUMPI PUSH2 0x69AA PUSH2 0x5C20 JUMP JUMPDEST JUMPDEST SWAP3 SWAP2 POP POP JUMP JUMPDEST PUSH1 0x0 PUSH2 0x69BC DUP3 PUSH2 0x6417 JUMP JUMPDEST SWAP2 POP PUSH2 0x69C7 DUP4 PUSH2 0x6417 JUMP JUMPDEST SWAP3 POP DUP3 DUP3 ADD SWAP1 POP PUSH1 0xFF DUP2 GT ISZERO PUSH2 0x69E0 JUMPI PUSH2 0x69DF PUSH2 0x5C20 JUMP JUMPDEST JUMPDEST SWAP3 SWAP2 POP POP JUMP JUMPDEST PUSH1 0x0 PUSH2 0x69F1 DUP3 PUSH2 0x5151 JUMP JUMPDEST SWAP2 POP PUSH2 0x69FC DUP4 PUSH2 0x5151 JUMP JUMPDEST SWAP3 POP DUP3 DUP3 SUB SWAP1 POP PUSH20 0xFFFFFFFFFFFFFFFFFFFFFFFFFFFFFFFFFFFFFFFF DUP2 GT ISZERO PUSH2 0x6A28 JUMPI PUSH2 0x6A27 PUSH2 0x5C20 JUMP JUMPDEST JUMPDEST SWAP3 SWAP2 POP POP JUMP JUMPDEST PUSH32 0x4F4C440000000000000000000000000000000000000000000000000000000000 PUSH1 0x0 DUP3 ADD MSTORE POP JUMP JUMPDEST PUSH1 0x0 PUSH2 0x6A64 PUSH1 0x3 DUP4 PUSH2 0x64B4 JUMP JUMPDEST SWAP2 POP PUSH2 0x6A6F DUP3 PUSH2 0x6A2E JUMP JUMPDEST PUSH1 0x20 DUP3 ADD SWAP1 POP SWAP2 SWAP1 POP JUMP JUMPDEST PUSH1 0x0 PUSH1 0x20 DUP3 ADD SWAP1 POP DUP2 DUP2 SUB PUSH1 0x0 DUP4 ADD MSTORE PUSH2 0x6A93 DUP2 PUSH2 0x6A57 JUMP JUMPDEST SWAP1 POP SWAP2 SWAP1 POP JUMP JUMPDEST PUSH1 0x0 PUSH5 0xFFFFFFFFFF DUP3 AND SWAP1 POP SWAP2 SWAP1 POP JUMP JUMPDEST PUSH1 0x0 PUSH2 0x6AB6 DUP3 PUSH2 0x6A9A JUMP JUMPDEST SWAP2 POP PUSH2 0x6AC1 DUP4 PUSH2 0x6A9A JUMP JUMPDEST SWAP3 POP DUP3 DUP3 ADD SWAP1 POP PUSH5 0xFFFFFFFFFF DUP2 GT ISZERO PUSH2 0x6ADE JUMPI PUSH2 0x6ADD PUSH2 0x5C20 JUMP JUMPDEST JUMPDEST SWAP3 SWAP2 POP POP JUMP INVALID LOG2 PUSH5 0x6970667358 0x22 SLT KECCAK256 0x25 0xD3 0xCC 0xFC 0xAB SWAP6 0xA5 RETURNDATASIZE SWAP12 0x4E 0xEF DUP3 0xC5 GASLIMIT 0xE9 0xC4 0xC0 0xE6 PUSH19 0x266BE75AE2E873AFE1E8073D64736F6C6343 STOP ADDMOD BYTE STOP CALLER LOG2 PUSH5 0x6970667358 0x22 SLT KECCAK256 0xCD 0x28 0xFB SWAP11 0xEE LOG2 PUSH10 0xFC5D6DE49BA0B16F438C PUSH8 0xD16A8A824CD40947 DUP15 PUSH13 0x32AA8F8664736F6C634300081A STOP CALLER "
		},
		"gasEstimates": {
			"creation": {
				"codeDepositCost": "6275400",
				"executionCost": "56518",
				"totalCost": "6331918"
			},
			"external": {
				"createPool(address,address,uint24)": "infinite",
				"fees(uint24)": "infinite",
				"parameters()": "infinite",
				"pools(address,address,uint24)": "infinite"
			}
		},
		"methodIdentifiers": {
			"createPool(address,address,uint24)": "a1671295",
			"fees(uint24)": "6441c780",
			"parameters()": "89035730",
			"pools(address,address,uint24)": "bae0d918"
		}
	},
	"abi": [
		{
			"inputs": [],
			"stateMutability": "nonpayable",
			"type": "constructor"
		},
		{
			"inputs": [],
			"name": "PoolAlreadyExists",
			"type": "error"
		},
		{
			"inputs": [],
			"name": "TokensMustBeDifferent",
			"type": "error"
		},
		{
			"inputs": [],
			"name": "UnsupportedFee",
			"type": "error"
		},
		{
			"inputs": [],
			"name": "ZeroAddressNotAllowed",
			"type": "error"
		},
		{
			"anonymous": false,
			"inputs": [
				{
					"indexed": true,
					"internalType": "address",
					"name": "token0",
					"type": "address"
				},
				{
					"indexed": true,
					"internalType": "address",
					"name": "token1",
					"type": "address"
				},
				{
					"indexed": true,
					"internalType": "uint24",
					"name": "fee",
					"type": "uint24"
				},
				{
					"indexed": false,
					"internalType": "address",
					"name": "pool",
					"type": "address"
				}
			],
			"name": "PoolCreated",
			"type": "event"
		},
		{
			"inputs": [
				{
					"internalType": "address",
					"name": "tokenX",
					"type": "address"
				},
				{
					"internalType": "address",
					"name": "tokenY",
					"type": "address"
				},
				{
					"internalType": "uint24",
					"name": "fee",
					"type": "uint24"
				}
			],
			"name": "createPool",
			"outputs": [
				{
					"internalType": "address",
					"name": "pool",
					"type": "address"
				}
			],
			"stateMutability": "nonpayable",
			"type": "function"
		},
		{
			"inputs": [
				{
					"internalType": "uint24",
					"name": "",
					"type": "uint24"
				}
			],
			"name": "fees",
			"outputs": [
				{
					"internalType": "uint24",
					"name": "",
					"type": "uint24"
				}
			],
			"stateMutability": "view",
			"type": "function"
		},
		{
			"inputs": [],
			"name": "parameters",
			"outputs": [
				{
					"internalType": "address",
					"name": "factory",
					"type": "address"
				},
				{
					"internalType": "address",
					"name": "token0",
					"type": "address"
				},
				{
					"internalType": "address",
					"name": "token1",
					"type": "address"
				},
				{
					"internalType": "uint24",
					"name": "tickSpacing",
					"type": "uint24"
				},
				{
					"internalType": "uint24",
					"name": "fee",
					"type": "uint24"
				}
			],
			"stateMutability": "view",
			"type": "function"
		},
		{
			"inputs": [
				{
					"internalType": "address",
					"name": "",
					"type": "address"
				},
				{
					"internalType": "address",
					"name": "",
					"type": "address"
				},
				{
					"internalType": "uint24",
					"name": "",
					"type": "uint24"
				}
			],
			"name": "pools",
			"outputs": [
				{
					"internalType": "address",
					"name": "",
					"type": "address"
				}
			],
			"stateMutability": "view",
			"type": "function"
		}
	]
}