{
	"UniswapV3Manager.sol": {
		"UniswapV3Manager": {
			"abi": [
				{
					"inputs": [
						{
							"internalType": "uint256",
							"name": "prod1",
							"type": "uint256"
						},
						{
							"internalType": "uint256",
							"name": "denominator",
							"type": "uint256"
						}
					],
					"name": "PRBMath__MulDivOverflow",
					"type": "error"
				},
				{
					"inputs": [
						{
							"internalType": "uint256",
							"name": "amount0",
							"type": "uint256"
						},
						{
							"internalType": "uint256",
							"name": "amount1",
							"type": "uint256"
						}
					],
					"name": "SlippageCheckFailed",
					"type": "error"
				},
				{
					"inputs": [
						{
							"components": [
								{
									"internalType": "address",
									"name": "poolAddress",
									"type": "address"
								},
								{
									"internalType": "int24",
									"name": "lowerTick",
									"type": "int24"
								},
								{
									"internalType": "int24",
									"name": "upperTick",
									"type": "int24"
								},
								{
									"internalType": "uint256",
									"name": "amount0Desired",
									"type": "uint256"
								},
								{
									"internalType": "uint256",
									"name": "amount1Desired",
									"type": "uint256"
								},
								{
									"internalType": "uint256",
									"name": "amount0Min",
									"type": "uint256"
								},
								{
									"internalType": "uint256",
									"name": "amount1Min",
									"type": "uint256"
								}
							],
							"internalType": "struct IUniswapV3Manager.MintParams",
							"name": "params",
							"type": "tuple"
						}
					],
					"name": "mint",
					"outputs": [
						{
							"internalType": "uint256",
							"name": "amount0",
							"type": "uint256"
						},
						{
							"internalType": "uint256",
							"name": "amount1",
							"type": "uint256"
						}
					],
					"stateMutability": "nonpayable",
					"type": "function"
				},
				{
					"inputs": [
						{
							"internalType": "address",
							"name": "poolAddress_",
							"type": "address"
						},
						{
							"internalType": "bool",
							"name": "zeroForOne",
							"type": "bool"
						},
						{
							"internalType": "uint256",
							"name": "amountSpecified",
							"type": "uint256"
						},
						{
							"internalType": "uint160",
							"name": "sqrtPriceLimitX96",
							"type": "uint160"
						},
						{
							"internalType": "bytes",
							"name": "data",
							"type": "bytes"
						}
					],
					"name": "swap",
					"outputs": [
						{
							"internalType": "int256",
							"name": "",
							"type": "int256"
						},
						{
							"internalType": "int256",
							"name": "",
							"type": "int256"
						}
					],
					"stateMutability": "nonpayable",
					"type": "function"
				},
				{
					"inputs": [
						{
							"internalType": "uint256",
							"name": "amount0",
							"type": "uint256"
						},
						{
							"internalType": "uint256",
							"name": "amount1",
							"type": "uint256"
						},
						{
							"internalType": "bytes",
							"name": "data",
							"type": "bytes"
						}
					],
					"name": "uniswapV3MintCallback",
					"outputs": [],
					"stateMutability": "nonpayable",
					"type": "function"
				},
				{
					"inputs": [
						{
							"internalType": "int256",
							"name": "amount0",
							"type": "int256"
						},
						{
							"internalType": "int256",
							"name": "amount1",
							"type": "int256"
						},
						{
							"internalType": "bytes",
							"name": "data",
							"type": "bytes"
						}
					],
					"name": "uniswapV3SwapCallback",
					"outputs": [],
					"stateMutability": "nonpayable",
					"type": "function"
				}
			],
			"devdoc": {
				"kind": "dev",
				"methods": {},
				"version": 1
			},
			"evm": {
				"assembly": "    /* \"UniswapV3Manager.sol\":264:3438  contract UniswapV3Manager is IUniswapV3Manager {... */\n  mstore(0x40, 0x80)\n  callvalue\n  dup1\n  iszero\n  tag_1\n  jumpi\n  0x00\n  dup1\n  revert\ntag_1:\n  pop\n  dataSize(sub_0)\n  dup1\n  dataOffset(sub_0)\n  0x00\n  codecopy\n  0x00\n  return\nstop\n\nsub_0: assembly {\n        /* \"UniswapV3Manager.sol\":264:3438  contract UniswapV3Manager is IUniswapV3Manager {... */\n      mstore(0x40, 0x80)\n      callvalue\n      dup1\n      iszero\n      tag_1\n      jumpi\n      0x00\n      dup1\n      revert\n    tag_1:\n      pop\n      jumpi(tag_2, lt(calldatasize, 0x04))\n      shr(0xe0, calldataload(0x00))\n      dup1\n      0x190c1752\n      eq\n      tag_3\n      jumpi\n      dup1\n      0xd3487997\n      eq\n      tag_4\n      jumpi\n      dup1\n      0xdd5a12d8\n      eq\n      tag_5\n      jumpi\n      dup1\n      0xfa461e33\n      eq\n      tag_6\n      jumpi\n    tag_2:\n      0x00\n      dup1\n      revert\n        /* \"UniswapV3Manager.sol\":386:1621  function mint(MintParams calldata params)... */\n    tag_3:\n      tag_7\n      0x04\n      dup1\n      calldatasize\n      sub\n      dup2\n      add\n      swap1\n      tag_8\n      swap2\n      swap1\n      tag_9\n      jump\t// in\n    tag_8:\n      tag_10\n      jump\t// in\n    tag_7:\n      mload(0x40)\n      tag_11\n      swap3\n      swap2\n      swap1\n      tag_12\n      jump\t// in\n    tag_11:\n      mload(0x40)\n      dup1\n      swap2\n      sub\n      swap1\n      return\n        /* \"UniswapV3Manager.sol\":2333:2762  function uniswapV3MintCallback(... */\n    tag_4:\n      tag_13\n      0x04\n      dup1\n      calldatasize\n      sub\n      dup2\n      add\n      swap1\n      tag_14\n      swap2\n      swap1\n      tag_15\n      jump\t// in\n    tag_14:\n      tag_16\n      jump\t// in\n    tag_13:\n      stop\n        /* \"UniswapV3Manager.sol\":1629:2325  function swap(... */\n    tag_5:\n      tag_17\n      0x04\n      dup1\n      calldatasize\n      sub\n      dup2\n      add\n      swap1\n      tag_18\n      swap2\n      swap1\n      tag_19\n      jump\t// in\n    tag_18:\n      tag_20\n      jump\t// in\n    tag_17:\n      mload(0x40)\n      tag_21\n      swap3\n      swap2\n      swap1\n      tag_22\n      jump\t// in\n    tag_21:\n      mload(0x40)\n      dup1\n      swap2\n      sub\n      swap1\n      return\n        /* \"UniswapV3Manager.sol\":2770:3435  function uniswapV3SwapCallback(... */\n    tag_6:\n      tag_23\n      0x04\n      dup1\n      calldatasize\n      sub\n      dup2\n      add\n      swap1\n      tag_24\n      swap2\n      swap1\n      tag_25\n      jump\t// in\n    tag_24:\n      tag_26\n      jump\t// in\n    tag_23:\n      stop\n        /* \"UniswapV3Manager.sol\":386:1621  function mint(MintParams calldata params)... */\n    tag_10:\n        /* \"UniswapV3Manager.sol\":462:477  uint256 amount0 */\n      0x00\n        /* \"UniswapV3Manager.sol\":479:494  uint256 amount1 */\n      dup1\n        /* \"UniswapV3Manager.sol\":512:531  IUniswapV3Pool pool */\n      0x00\n        /* \"UniswapV3Manager.sol\":549:555  params */\n      dup4\n        /* \"UniswapV3Manager.sol\":549:567  params.poolAddress */\n      0x00\n      add\n      0x20\n      dup2\n      add\n      swap1\n      tag_28\n      swap2\n      swap1\n      tag_29\n      jump\t// in\n    tag_28:\n        /* \"UniswapV3Manager.sol\":512:568  IUniswapV3Pool pool = IUniswapV3Pool(params.poolAddress) */\n      swap1\n      pop\n        /* \"UniswapV3Manager.sol\":582:602  uint160 sqrtPriceX96 */\n      0x00\n        /* \"UniswapV3Manager.sol\":608:612  pool */\n      dup2\n        /* \"UniswapV3Manager.sol\":608:618  pool.slot0 */\n      0xffffffffffffffffffffffffffffffffffffffff\n      and\n      0x3850c7bd\n        /* \"UniswapV3Manager.sol\":608:620  pool.slot0() */\n      mload(0x40)\n      dup2\n      0xffffffff\n      and\n      0xe0\n      shl\n      dup2\n      mstore\n      0x04\n      add\n      0x40\n      dup1\n      mload\n      dup1\n      dup4\n      sub\n      dup2\n      dup7\n      gas\n      staticcall\n      iszero\n      dup1\n      iszero\n      tag_31\n      jumpi\n      returndatasize\n      0x00\n      dup1\n      returndatacopy\n      revert(0x00, returndatasize)\n    tag_31:\n      pop\n      pop\n      pop\n      pop\n      mload(0x40)\n      returndatasize\n      not(0x1f)\n      0x1f\n      dup3\n      add\n      and\n      dup3\n      add\n      dup1\n      0x40\n      mstore\n      pop\n      dup2\n      add\n      swap1\n      tag_32\n      swap2\n      swap1\n      tag_33\n      jump\t// in\n    tag_32:\n        /* \"UniswapV3Manager.sol\":581:620  (uint160 sqrtPriceX96, ) = pool.slot0() */\n      pop\n      swap1\n      pop\n        /* \"UniswapV3Manager.sol\":631:656  uint160 sqrtPriceLowerX96 */\n      0x00\n        /* \"UniswapV3Manager.sol\":659:728  TickMath.getSqrtRatioAtTick(... */\n      tag_34\n        /* \"UniswapV3Manager.sol\":701:707  params */\n      dup7\n        /* \"UniswapV3Manager.sol\":701:717  params.lowerTick */\n      0x20\n      add\n      0x20\n      dup2\n      add\n      swap1\n      tag_35\n      swap2\n      swap1\n      tag_36\n      jump\t// in\n    tag_35:\n        /* \"UniswapV3Manager.sol\":659:686  TickMath.getSqrtRatioAtTick */\n      tag_37\n        /* \"UniswapV3Manager.sol\":659:728  TickMath.getSqrtRatioAtTick(... */\n      jump\t// in\n    tag_34:\n        /* \"UniswapV3Manager.sol\":631:728  uint160 sqrtPriceLowerX96 = TickMath.getSqrtRatioAtTick(... */\n      swap1\n      pop\n        /* \"UniswapV3Manager.sol\":739:764  uint160 sqrtPriceUpperX96 */\n      0x00\n        /* \"UniswapV3Manager.sol\":767:836  TickMath.getSqrtRatioAtTick(... */\n      tag_38\n        /* \"UniswapV3Manager.sol\":809:815  params */\n      dup8\n        /* \"UniswapV3Manager.sol\":809:825  params.upperTick */\n      0x40\n      add\n      0x20\n      dup2\n      add\n      swap1\n      tag_39\n      swap2\n      swap1\n      tag_36\n      jump\t// in\n    tag_39:\n        /* \"UniswapV3Manager.sol\":767:794  TickMath.getSqrtRatioAtTick */\n      tag_37\n        /* \"UniswapV3Manager.sol\":767:836  TickMath.getSqrtRatioAtTick(... */\n      jump\t// in\n    tag_38:\n        /* \"UniswapV3Manager.sol\":739:836  uint160 sqrtPriceUpperX96 = TickMath.getSqrtRatioAtTick(... */\n      swap1\n      pop\n        /* \"UniswapV3Manager.sol\":849:866  uint128 liquidity */\n      0x00\n        /* \"UniswapV3Manager.sol\":869:1079  LiquidityMath.getLiquidityForAmounts(... */\n      tag_40\n        /* \"UniswapV3Manager.sol\":920:932  sqrtPriceX96 */\n      dup5\n        /* \"UniswapV3Manager.sol\":947:964  sqrtPriceLowerX96 */\n      dup5\n        /* \"UniswapV3Manager.sol\":979:996  sqrtPriceUpperX96 */\n      dup5\n        /* \"UniswapV3Manager.sol\":1011:1017  params */\n      dup12\n        /* \"UniswapV3Manager.sol\":1011:1032  params.amount0Desired */\n      0x60\n      add\n      calldataload\n        /* \"UniswapV3Manager.sol\":1047:1053  params */\n      dup13\n        /* \"UniswapV3Manager.sol\":1047:1068  params.amount1Desired */\n      0x80\n      add\n      calldataload\n        /* \"UniswapV3Manager.sol\":869:905  LiquidityMath.getLiquidityForAmounts */\n      tag_41\n        /* \"UniswapV3Manager.sol\":869:1079  LiquidityMath.getLiquidityForAmounts(... */\n      jump\t// in\n    tag_40:\n        /* \"UniswapV3Manager.sol\":849:1079  uint128 liquidity = LiquidityMath.getLiquidityForAmounts(... */\n      swap1\n      pop\n        /* \"UniswapV3Manager.sol\":1113:1117  pool */\n      dup5\n        /* \"UniswapV3Manager.sol\":1113:1122  pool.mint */\n      0xffffffffffffffffffffffffffffffffffffffff\n      and\n      0x3c8a7d8d\n        /* \"UniswapV3Manager.sol\":1137:1147  msg.sender */\n      caller\n        /* \"UniswapV3Manager.sol\":1162:1168  params */\n      dup11\n        /* \"UniswapV3Manager.sol\":1162:1178  params.lowerTick */\n      0x20\n      add\n      0x20\n      dup2\n      add\n      swap1\n      tag_42\n      swap2\n      swap1\n      tag_36\n      jump\t// in\n    tag_42:\n        /* \"UniswapV3Manager.sol\":1193:1199  params */\n      dup12\n        /* \"UniswapV3Manager.sol\":1193:1209  params.upperTick */\n      0x40\n      add\n      0x20\n      dup2\n      add\n      swap1\n      tag_43\n      swap2\n      swap1\n      tag_36\n      jump\t// in\n    tag_43:\n        /* \"UniswapV3Manager.sol\":1224:1233  liquidity */\n      dup6\n        /* \"UniswapV3Manager.sol\":1277:1453  IUniswapV3Pool.CallbackData({... */\n      mload(0x40)\n      dup1\n      0x60\n      add\n      0x40\n      mstore\n      dup1\n        /* \"UniswapV3Manager.sol\":1336:1340  pool */\n      dup13\n        /* \"UniswapV3Manager.sol\":1336:1347  pool.token0 */\n      0xffffffffffffffffffffffffffffffffffffffff\n      and\n      0x0dfe1681\n        /* \"UniswapV3Manager.sol\":1336:1349  pool.token0() */\n      mload(0x40)\n      dup2\n      0xffffffff\n      and\n      0xe0\n      shl\n      dup2\n      mstore\n      0x04\n      add\n      0x20\n      mload(0x40)\n      dup1\n      dup4\n      sub\n      dup2\n      dup7\n      gas\n      staticcall\n      iszero\n      dup1\n      iszero\n      tag_45\n      jumpi\n      returndatasize\n      0x00\n      dup1\n      returndatacopy\n      revert(0x00, returndatasize)\n    tag_45:\n      pop\n      pop\n      pop\n      pop\n      mload(0x40)\n      returndatasize\n      not(0x1f)\n      0x1f\n      dup3\n      add\n      and\n      dup3\n      add\n      dup1\n      0x40\n      mstore\n      pop\n      dup2\n      add\n      swap1\n      tag_46\n      swap2\n      swap1\n      tag_47\n      jump\t// in\n    tag_46:\n        /* \"UniswapV3Manager.sol\":1277:1453  IUniswapV3Pool.CallbackData({... */\n      0xffffffffffffffffffffffffffffffffffffffff\n      and\n      dup2\n      mstore\n      0x20\n      add\n        /* \"UniswapV3Manager.sol\":1380:1384  pool */\n      dup13\n        /* \"UniswapV3Manager.sol\":1380:1391  pool.token1 */\n      0xffffffffffffffffffffffffffffffffffffffff\n      and\n      0xd21220a7\n        /* \"UniswapV3Manager.sol\":1380:1393  pool.token1() */\n      mload(0x40)\n      dup2\n      0xffffffff\n      and\n      0xe0\n      shl\n      dup2\n      mstore\n      0x04\n      add\n      0x20\n      mload(0x40)\n      dup1\n      dup4\n      sub\n      dup2\n      dup7\n      gas\n      staticcall\n      iszero\n      dup1\n      iszero\n      tag_49\n      jumpi\n      returndatasize\n      0x00\n      dup1\n      returndatacopy\n      revert(0x00, returndatasize)\n    tag_49:\n      pop\n      pop\n      pop\n      pop\n      mload(0x40)\n      returndatasize\n      not(0x1f)\n      0x1f\n      dup3\n      add\n      and\n      dup3\n      add\n      dup1\n      0x40\n      mstore\n      pop\n      dup2\n      add\n      swap1\n      tag_50\n      swap2\n      swap1\n      tag_47\n      jump\t// in\n    tag_50:\n        /* \"UniswapV3Manager.sol\":1277:1453  IUniswapV3Pool.CallbackData({... */\n      0xffffffffffffffffffffffffffffffffffffffff\n      and\n      dup2\n      mstore\n      0x20\n      add\n        /* \"UniswapV3Manager.sol\":1423:1433  msg.sender */\n      caller\n        /* \"UniswapV3Manager.sol\":1277:1453  IUniswapV3Pool.CallbackData({... */\n      0xffffffffffffffffffffffffffffffffffffffff\n      and\n      dup2\n      mstore\n      pop\n        /* \"UniswapV3Manager.sol\":1248:1468  abi.encode(... */\n      add(0x20, mload(0x40))\n      tag_51\n      swap2\n      swap1\n      tag_52\n      jump\t// in\n    tag_51:\n      mload(0x40)\n      0x20\n      dup2\n      dup4\n      sub\n      sub\n      dup2\n      mstore\n      swap1\n      0x40\n      mstore\n        /* \"UniswapV3Manager.sol\":1113:1479  pool.mint(... */\n      mload(0x40)\n      dup7\n      0xffffffff\n      and\n      0xe0\n      shl\n      dup2\n      mstore\n      0x04\n      add\n      tag_53\n      swap6\n      swap5\n      swap4\n      swap3\n      swap2\n      swap1\n      tag_54\n      jump\t// in\n    tag_53:\n      0x40\n      dup1\n      mload\n      dup1\n      dup4\n      sub\n      dup2\n      0x00\n      dup8\n      gas\n      call\n      iszero\n      dup1\n      iszero\n      tag_56\n      jumpi\n      returndatasize\n      0x00\n      dup1\n      returndatacopy\n      revert(0x00, returndatasize)\n    tag_56:\n      pop\n      pop\n      pop\n      pop\n      mload(0x40)\n      returndatasize\n      not(0x1f)\n      0x1f\n      dup3\n      add\n      and\n      dup3\n      add\n      dup1\n      0x40\n      mstore\n      pop\n      dup2\n      add\n      swap1\n      tag_57\n      swap2\n      swap1\n      tag_58\n      jump\t// in\n    tag_57:\n        /* \"UniswapV3Manager.sol\":1092:1479  (amount0, amount1) = pool.mint(... */\n      dup1\n      swap8\n      pop\n      dup2\n      swap9\n      pop\n      pop\n      pop\n        /* \"UniswapV3Manager.sol\":1506:1512  params */\n      dup8\n        /* \"UniswapV3Manager.sol\":1506:1523  params.amount0Min */\n      0xa0\n      add\n      calldataload\n        /* \"UniswapV3Manager.sol\":1496:1503  amount0 */\n      dup8\n        /* \"UniswapV3Manager.sol\":1496:1523  amount0 < params.amount0Min */\n      lt\n        /* \"UniswapV3Manager.sol\":1496:1554  amount0 < params.amount0Min || amount1 < params.amount1Min */\n      dup1\n      tag_59\n      jumpi\n      pop\n        /* \"UniswapV3Manager.sol\":1537:1543  params */\n      dup8\n        /* \"UniswapV3Manager.sol\":1537:1554  params.amount1Min */\n      0xc0\n      add\n      calldataload\n        /* \"UniswapV3Manager.sol\":1527:1534  amount1 */\n      dup7\n        /* \"UniswapV3Manager.sol\":1527:1554  amount1 < params.amount1Min */\n      lt\n        /* \"UniswapV3Manager.sol\":1496:1554  amount0 < params.amount0Min || amount1 < params.amount1Min */\n    tag_59:\n        /* \"UniswapV3Manager.sol\":1492:1613  if (amount0 < params.amount0Min || amount1 < params.amount1Min)... */\n      iszero\n      tag_60\n      jumpi\n        /* \"UniswapV3Manager.sol\":1596:1603  amount0 */\n      dup7\n        /* \"UniswapV3Manager.sol\":1605:1612  amount1 */\n      dup7\n        /* \"UniswapV3Manager.sol\":1576:1613  SlippageCheckFailed(amount0, amount1) */\n      mload(0x40)\n      0xa8f6c8d000000000000000000000000000000000000000000000000000000000\n      dup2\n      mstore\n      0x04\n      add\n      tag_61\n      swap3\n      swap2\n      swap1\n      tag_12\n      jump\t// in\n    tag_61:\n      mload(0x40)\n      dup1\n      swap2\n      sub\n      swap1\n      revert\n        /* \"UniswapV3Manager.sol\":1492:1613  if (amount0 < params.amount0Min || amount1 < params.amount1Min)... */\n    tag_60:\n        /* \"UniswapV3Manager.sol\":501:1621  {... */\n      pop\n      pop\n      pop\n      pop\n      pop\n        /* \"UniswapV3Manager.sol\":386:1621  function mint(MintParams calldata params)... */\n      swap2\n      pop\n      swap2\n      jump\t// out\n        /* \"UniswapV3Manager.sol\":2333:2762  function uniswapV3MintCallback(... */\n    tag_16:\n        /* \"UniswapV3Manager.sol\":2471:2511  IUniswapV3Pool.CallbackData memory extra */\n      0x00\n        /* \"UniswapV3Manager.sol\":2539:2543  data */\n      dup3\n      dup3\n        /* \"UniswapV3Manager.sol\":2514:2598  abi.decode(... */\n      dup2\n      add\n      swap1\n      tag_63\n      swap2\n      swap1\n      tag_64\n      jump\t// in\n    tag_63:\n        /* \"UniswapV3Manager.sol\":2471:2598  IUniswapV3Pool.CallbackData memory extra = abi.decode(... */\n      swap1\n      pop\n        /* \"UniswapV3Manager.sol\":2617:2622  extra */\n      dup1\n        /* \"UniswapV3Manager.sol\":2617:2629  extra.token0 */\n      0x00\n      add\n      mload\n        /* \"UniswapV3Manager.sol\":2611:2643  ERC20(extra.token0).transferFrom */\n      0xffffffffffffffffffffffffffffffffffffffff\n      and\n      0x23b872dd\n        /* \"UniswapV3Manager.sol\":2644:2649  extra */\n      dup3\n        /* \"UniswapV3Manager.sol\":2644:2655  extra.payer */\n      0x40\n      add\n      mload\n        /* \"UniswapV3Manager.sol\":2657:2667  msg.sender */\n      caller\n        /* \"UniswapV3Manager.sol\":2669:2676  amount0 */\n      dup9\n        /* \"UniswapV3Manager.sol\":2611:2677  ERC20(extra.token0).transferFrom(extra.payer, msg.sender, amount0) */\n      mload(0x40)\n      dup5\n      0xffffffff\n      and\n      0xe0\n      shl\n      dup2\n      mstore\n      0x04\n      add\n      tag_65\n      swap4\n      swap3\n      swap2\n      swap1\n      tag_66\n      jump\t// in\n    tag_65:\n      0x20\n      mload(0x40)\n      dup1\n      dup4\n      sub\n      dup2\n      0x00\n      dup8\n      gas\n      call\n      iszero\n      dup1\n      iszero\n      tag_68\n      jumpi\n      returndatasize\n      0x00\n      dup1\n      returndatacopy\n      revert(0x00, returndatasize)\n    tag_68:\n      pop\n      pop\n      pop\n      pop\n      mload(0x40)\n      returndatasize\n      not(0x1f)\n      0x1f\n      dup3\n      add\n      and\n      dup3\n      add\n      dup1\n      0x40\n      mstore\n      pop\n      dup2\n      add\n      swap1\n      tag_69\n      swap2\n      swap1\n      tag_70\n      jump\t// in\n    tag_69:\n      pop\n        /* \"UniswapV3Manager.sol\":2694:2699  extra */\n      dup1\n        /* \"UniswapV3Manager.sol\":2694:2706  extra.token1 */\n      0x20\n      add\n      mload\n        /* \"UniswapV3Manager.sol\":2688:2720  ERC20(extra.token1).transferFrom */\n      0xffffffffffffffffffffffffffffffffffffffff\n      and\n      0x23b872dd\n        /* \"UniswapV3Manager.sol\":2721:2726  extra */\n      dup3\n        /* \"UniswapV3Manager.sol\":2721:2732  extra.payer */\n      0x40\n      add\n      mload\n        /* \"UniswapV3Manager.sol\":2734:2744  msg.sender */\n      caller\n        /* \"UniswapV3Manager.sol\":2746:2753  amount1 */\n      dup8\n        /* \"UniswapV3Manager.sol\":2688:2754  ERC20(extra.token1).transferFrom(extra.payer, msg.sender, amount1) */\n      mload(0x40)\n      dup5\n      0xffffffff\n      and\n      0xe0\n      shl\n      dup2\n      mstore\n      0x04\n      add\n      tag_71\n      swap4\n      swap3\n      swap2\n      swap1\n      tag_66\n      jump\t// in\n    tag_71:\n      0x20\n      mload(0x40)\n      dup1\n      dup4\n      sub\n      dup2\n      0x00\n      dup8\n      gas\n      call\n      iszero\n      dup1\n      iszero\n      tag_73\n      jumpi\n      returndatasize\n      0x00\n      dup1\n      returndatacopy\n      revert(0x00, returndatasize)\n    tag_73:\n      pop\n      pop\n      pop\n      pop\n      mload(0x40)\n      returndatasize\n      not(0x1f)\n      0x1f\n      dup3\n      add\n      and\n      dup3\n      add\n      dup1\n      0x40\n      mstore\n      pop\n      dup2\n      add\n      swap1\n      tag_74\n      swap2\n      swap1\n      tag_70\n      jump\t// in\n    tag_74:\n      pop\n        /* \"UniswapV3Manager.sol\":2460:2762  {... */\n      pop\n        /* \"UniswapV3Manager.sol\":2333:2762  function uniswapV3MintCallback(... */\n      pop\n      pop\n      pop\n      pop\n      jump\t// out\n        /* \"UniswapV3Manager.sol\":1629:2325  function swap(... */\n    tag_20:\n        /* \"UniswapV3Manager.sol\":1823:1829  int256 */\n      0x00\n        /* \"UniswapV3Manager.sol\":1831:1837  int256 */\n      dup1\n        /* \"UniswapV3Manager.sol\":1885:1897  poolAddress_ */\n      dup8\n        /* \"UniswapV3Manager.sol\":1870:1903  IUniswapV3Pool(poolAddress_).swap */\n      0xffffffffffffffffffffffffffffffffffffffff\n      and\n      0xdd5a12d8\n        /* \"UniswapV3Manager.sol\":1922:1932  msg.sender */\n      caller\n        /* \"UniswapV3Manager.sol\":1951:1961  zeroForOne */\n      dup10\n        /* \"UniswapV3Manager.sol\":1980:1995  amountSpecified */\n      dup10\n        /* \"UniswapV3Manager.sol\":2035:2036  0 */\n      0x00\n        /* \"UniswapV3Manager.sol\":2014:2031  sqrtPriceLimitX96 */\n      dup11\n        /* \"UniswapV3Manager.sol\":2014:2036  sqrtPriceLimitX96 == 0 */\n      0xffffffffffffffffffffffffffffffffffffffff\n      and\n      eq\n        /* \"UniswapV3Manager.sol\":2014:2279  sqrtPriceLimitX96 == 0... */\n      tag_76\n      jumpi\n        /* \"UniswapV3Manager.sol\":2262:2279  sqrtPriceLimitX96 */\n      dup10\n        /* \"UniswapV3Manager.sol\":2014:2279  sqrtPriceLimitX96 == 0... */\n      jump(tag_77)\n    tag_76:\n        /* \"UniswapV3Manager.sol\":2087:2097  zeroForOne */\n      dup12\n        /* \"UniswapV3Manager.sol\":2087:2215  zeroForOne... */\n      tag_78\n      jumpi\n        /* \"UniswapV3Manager.sol\":2214:2215  1 */\n      0x01\n        /* \"lib/TickMath.sol\":1012:1061  1461446703485210103287273052203988822378723970342 */\n      0xfffd8963efd1fc6a506488495d951d5263988d26\n        /* \"UniswapV3Manager.sol\":2188:2215  TickMath.MAX_SQRT_RATIO - 1 */\n      tag_79\n      swap2\n      swap1\n      tag_80\n      jump\t// in\n    tag_79:\n        /* \"UniswapV3Manager.sol\":2087:2215  zeroForOne... */\n      jump(tag_81)\n    tag_78:\n        /* \"UniswapV3Manager.sol\":2155:2156  1 */\n      0x01\n        /* \"lib/TickMath.sol\":830:840  4295128739 */\n      0x01000276a3\n        /* \"UniswapV3Manager.sol\":2129:2156  TickMath.MIN_SQRT_RATIO + 1 */\n      tag_82\n      swap2\n      swap1\n      tag_83\n      jump\t// in\n    tag_82:\n        /* \"UniswapV3Manager.sol\":2087:2215  zeroForOne... */\n    tag_81:\n        /* \"UniswapV3Manager.sol\":2014:2279  sqrtPriceLimitX96 == 0... */\n    tag_77:\n        /* \"UniswapV3Manager.sol\":2298:2302  data */\n      dup10\n      dup10\n        /* \"UniswapV3Manager.sol\":1870:2317  IUniswapV3Pool(poolAddress_).swap(... */\n      mload(0x40)\n      dup8\n      0xffffffff\n      and\n      0xe0\n      shl\n      dup2\n      mstore\n      0x04\n      add\n      tag_84\n      swap7\n      swap6\n      swap5\n      swap4\n      swap3\n      swap2\n      swap1\n      tag_85\n      jump\t// in\n    tag_84:\n      0x40\n      dup1\n      mload\n      dup1\n      dup4\n      sub\n      dup2\n      0x00\n      dup8\n      gas\n      call\n      iszero\n      dup1\n      iszero\n      tag_87\n      jumpi\n      returndatasize\n      0x00\n      dup1\n      returndatacopy\n      revert(0x00, returndatasize)\n    tag_87:\n      pop\n      pop\n      pop\n      pop\n      mload(0x40)\n      returndatasize\n      not(0x1f)\n      0x1f\n      dup3\n      add\n      and\n      dup3\n      add\n      dup1\n      0x40\n      mstore\n      pop\n      dup2\n      add\n      swap1\n      tag_88\n      swap2\n      swap1\n      tag_89\n      jump\t// in\n    tag_88:\n        /* \"UniswapV3Manager.sol\":1850:2317  return... */\n      swap2\n      pop\n      swap2\n      pop\n        /* \"UniswapV3Manager.sol\":1629:2325  function swap(... */\n      swap7\n      pop\n      swap7\n      swap5\n      pop\n      pop\n      pop\n      pop\n      pop\n      jump\t// out\n        /* \"UniswapV3Manager.sol\":2770:3435  function uniswapV3SwapCallback(... */\n    tag_26:\n        /* \"UniswapV3Manager.sol\":2906:2946  IUniswapV3Pool.CallbackData memory extra */\n      0x00\n        /* \"UniswapV3Manager.sol\":2974:2978  data */\n      dup3\n      dup3\n        /* \"UniswapV3Manager.sol\":2949:3033  abi.decode(... */\n      dup2\n      add\n      swap1\n      tag_91\n      swap2\n      swap1\n      tag_64\n      jump\t// in\n    tag_91:\n        /* \"UniswapV3Manager.sol\":2906:3033  IUniswapV3Pool.CallbackData memory extra = abi.decode(... */\n      swap1\n      pop\n        /* \"UniswapV3Manager.sol\":3060:3061  0 */\n      0x00\n        /* \"UniswapV3Manager.sol\":3050:3057  amount0 */\n      dup6\n        /* \"UniswapV3Manager.sol\":3050:3061  amount0 > 0 */\n      sgt\n        /* \"UniswapV3Manager.sol\":3046:3231  if (amount0 > 0) {... */\n      iszero\n      tag_92\n      jumpi\n        /* \"UniswapV3Manager.sol\":3084:3089  extra */\n      dup1\n        /* \"UniswapV3Manager.sol\":3084:3096  extra.token0 */\n      0x00\n      add\n      mload\n        /* \"UniswapV3Manager.sol\":3078:3110  ERC20(extra.token0).transferFrom */\n      0xffffffffffffffffffffffffffffffffffffffff\n      and\n      0x23b872dd\n        /* \"UniswapV3Manager.sol\":3129:3134  extra */\n      dup3\n        /* \"UniswapV3Manager.sol\":3129:3140  extra.payer */\n      0x40\n      add\n      mload\n        /* \"UniswapV3Manager.sol\":3159:3169  msg.sender */\n      caller\n        /* \"UniswapV3Manager.sol\":3196:3203  amount0 */\n      dup9\n        /* \"UniswapV3Manager.sol\":3078:3219  ERC20(extra.token0).transferFrom(... */\n      mload(0x40)\n      dup5\n      0xffffffff\n      and\n      0xe0\n      shl\n      dup2\n      mstore\n      0x04\n      add\n      tag_93\n      swap4\n      swap3\n      swap2\n      swap1\n      tag_66\n      jump\t// in\n    tag_93:\n      0x20\n      mload(0x40)\n      dup1\n      dup4\n      sub\n      dup2\n      0x00\n      dup8\n      gas\n      call\n      iszero\n      dup1\n      iszero\n      tag_95\n      jumpi\n      returndatasize\n      0x00\n      dup1\n      returndatacopy\n      revert(0x00, returndatasize)\n    tag_95:\n      pop\n      pop\n      pop\n      pop\n      mload(0x40)\n      returndatasize\n      not(0x1f)\n      0x1f\n      dup3\n      add\n      and\n      dup3\n      add\n      dup1\n      0x40\n      mstore\n      pop\n      dup2\n      add\n      swap1\n      tag_96\n      swap2\n      swap1\n      tag_70\n      jump\t// in\n    tag_96:\n      pop\n        /* \"UniswapV3Manager.sol\":3046:3231  if (amount0 > 0) {... */\n    tag_92:\n        /* \"UniswapV3Manager.sol\":3257:3258  0 */\n      0x00\n        /* \"UniswapV3Manager.sol\":3247:3254  amount1 */\n      dup5\n        /* \"UniswapV3Manager.sol\":3247:3258  amount1 > 0 */\n      sgt\n        /* \"UniswapV3Manager.sol\":3243:3428  if (amount1 > 0) {... */\n      iszero\n      tag_97\n      jumpi\n        /* \"UniswapV3Manager.sol\":3281:3286  extra */\n      dup1\n        /* \"UniswapV3Manager.sol\":3281:3293  extra.token1 */\n      0x20\n      add\n      mload\n        /* \"UniswapV3Manager.sol\":3275:3307  ERC20(extra.token1).transferFrom */\n      0xffffffffffffffffffffffffffffffffffffffff\n      and\n      0x23b872dd\n        /* \"UniswapV3Manager.sol\":3326:3331  extra */\n      dup3\n        /* \"UniswapV3Manager.sol\":3326:3337  extra.payer */\n      0x40\n      add\n      mload\n        /* \"UniswapV3Manager.sol\":3356:3366  msg.sender */\n      caller\n        /* \"UniswapV3Manager.sol\":3393:3400  amount1 */\n      dup8\n        /* \"UniswapV3Manager.sol\":3275:3416  ERC20(extra.token1).transferFrom(... */\n      mload(0x40)\n      dup5\n      0xffffffff\n      and\n      0xe0\n      shl\n      dup2\n      mstore\n      0x04\n      add\n      tag_98\n      swap4\n      swap3\n      swap2\n      swap1\n      tag_66\n      jump\t// in\n    tag_98:\n      0x20\n      mload(0x40)\n      dup1\n      dup4\n      sub\n      dup2\n      0x00\n      dup8\n      gas\n      call\n      iszero\n      dup1\n      iszero\n      tag_100\n      jumpi\n      returndatasize\n      0x00\n      dup1\n      returndatacopy\n      revert(0x00, returndatasize)\n    tag_100:\n      pop\n      pop\n      pop\n      pop\n      mload(0x40)\n      returndatasize\n      not(0x1f)\n      0x1f\n      dup3\n      add\n      and\n      dup3\n      add\n      dup1\n      0x40\n      mstore\n      pop\n      dup2\n      add\n      swap1\n      tag_101\n      swap2\n      swap1\n      tag_70\n      jump\t// in\n    tag_101:\n      pop\n        /* \"UniswapV3Manager.sol\":3243:3428  if (amount1 > 0) {... */\n    tag_97:\n        /* \"UniswapV3Manager.sol\":2895:3435  {... */\n      pop\n        /* \"UniswapV3Manager.sol\":2770:3435  function uniswapV3SwapCallback(... */\n      pop\n      pop\n      pop\n      pop\n      jump\t// out\n        /* \"lib/TickMath.sol\":1377:3996  function getSqrtRatioAtTick(int24 tick) internal pure returns (uint160 sqrtPriceX96) {... */\n    tag_37:\n        /* \"lib/TickMath.sol\":1440:1460  uint160 sqrtPriceX96 */\n      0x00\n        /* \"lib/TickMath.sol\":1473:1488  uint256 absTick */\n      dup1\n        /* \"lib/TickMath.sol\":1498:1499  0 */\n      0x00\n        /* \"lib/TickMath.sol\":1491:1495  tick */\n      dup4\n        /* \"lib/TickMath.sol\":1491:1499  tick < 0 */\n      0x02\n      signextend\n      slt\n        /* \"lib/TickMath.sol\":1491:1548  tick < 0 ? uint256(-int256(tick)) : uint256(int256(tick)) */\n      tag_103\n      jumpi\n        /* \"lib/TickMath.sol\":1542:1546  tick */\n      dup3\n        /* \"lib/TickMath.sol\":1535:1547  int256(tick) */\n      0x02\n      signextend\n        /* \"lib/TickMath.sol\":1491:1548  tick < 0 ? uint256(-int256(tick)) : uint256(int256(tick)) */\n      jump(tag_104)\n    tag_103:\n        /* \"lib/TickMath.sol\":1518:1522  tick */\n      dup3\n        /* \"lib/TickMath.sol\":1511:1523  int256(tick) */\n      0x02\n      signextend\n        /* \"lib/TickMath.sol\":1510:1523  -int256(tick) */\n      tag_105\n      swap1\n      tag_106\n      jump\t// in\n    tag_105:\n        /* \"lib/TickMath.sol\":1491:1548  tick < 0 ? uint256(-int256(tick)) : uint256(int256(tick)) */\n    tag_104:\n        /* \"lib/TickMath.sol\":1473:1548  uint256 absTick = tick < 0 ? uint256(-int256(tick)) : uint256(int256(tick)) */\n      swap1\n      pop\n        /* \"lib/TickMath.sol\":485:492  -887272 */\n      0xfffffffffffffffffffffffffffffffffffffffffffffffffffffffffff27618\n        /* \"lib/TickMath.sol\":647:656  -MIN_TICK */\n      tag_107\n      swap1\n      tag_108\n      jump\t// in\n    tag_107:\n        /* \"lib/TickMath.sol\":1578:1603  uint256(uint24(MAX_TICK)) */\n      0xffffff\n      and\n        /* \"lib/TickMath.sol\":1567:1574  absTick */\n      dup2\n        /* \"lib/TickMath.sol\":1567:1603  absTick <= uint256(uint24(MAX_TICK)) */\n      gt\n      iszero\n        /* \"lib/TickMath.sol\":1559:1609  require(absTick <= uint256(uint24(MAX_TICK)), 'T') */\n      tag_109\n      jumpi\n      mload(0x40)\n      0x08c379a000000000000000000000000000000000000000000000000000000000\n      dup2\n      mstore\n      0x04\n      add\n      tag_110\n      swap1\n      tag_111\n      jump\t// in\n    tag_110:\n      mload(0x40)\n      dup1\n      swap2\n      sub\n      swap1\n      revert\n    tag_109:\n        /* \"lib/TickMath.sol\":1622:1635  uint256 ratio */\n      0x00\n        /* \"lib/TickMath.sol\":1655:1656  0 */\n      dup1\n        /* \"lib/TickMath.sol\":1648:1651  0x1 */\n      0x01\n        /* \"lib/TickMath.sol\":1638:1645  absTick */\n      dup4\n        /* \"lib/TickMath.sol\":1638:1651  absTick & 0x1 */\n      and\n        /* \"lib/TickMath.sol\":1638:1656  absTick & 0x1 != 0 */\n      sub\n        /* \"lib/TickMath.sol\":1638:1731  absTick & 0x1 != 0 ? 0xfffcb933bd6fad37aa2d162d1a594001 : 0x100000000000000000000000000000000 */\n      tag_112\n      jumpi\n        /* \"lib/TickMath.sol\":1696:1731  0x100000000000000000000000000000000 */\n      0x0100000000000000000000000000000000\n        /* \"lib/TickMath.sol\":1638:1731  absTick & 0x1 != 0 ? 0xfffcb933bd6fad37aa2d162d1a594001 : 0x100000000000000000000000000000000 */\n      jump(tag_113)\n    tag_112:\n        /* \"lib/TickMath.sol\":1659:1693  0xfffcb933bd6fad37aa2d162d1a594001 */\n      0xfffcb933bd6fad37aa2d162d1a594001\n        /* \"lib/TickMath.sol\":1638:1731  absTick & 0x1 != 0 ? 0xfffcb933bd6fad37aa2d162d1a594001 : 0x100000000000000000000000000000000 */\n    tag_113:\n        /* \"lib/TickMath.sol\":1622:1731  uint256 ratio = absTick & 0x1 != 0 ? 0xfffcb933bd6fad37aa2d162d1a594001 : 0x100000000000000000000000000000000 */\n      0xffffffffffffffffffffffffffffffffff\n      and\n      swap1\n      pop\n        /* \"lib/TickMath.sol\":1763:1764  0 */\n      0x00\n        /* \"lib/TickMath.sol\":1756:1759  0x2 */\n      0x02\n        /* \"lib/TickMath.sol\":1746:1753  absTick */\n      dup4\n        /* \"lib/TickMath.sol\":1746:1759  absTick & 0x2 */\n      and\n        /* \"lib/TickMath.sol\":1746:1764  absTick & 0x2 != 0 */\n      eq\n        /* \"lib/TickMath.sol\":1742:1825  if (absTick & 0x2 != 0) ratio = (ratio * 0xfff97272373d413259a46990580e213a) >> 128 */\n      tag_114\n      jumpi\n        /* \"lib/TickMath.sol\":1822:1825  128 */\n      0x80\n        /* \"lib/TickMath.sol\":1783:1817  0xfff97272373d413259a46990580e213a */\n      0xfff97272373d413259a46990580e213a\n        /* \"lib/TickMath.sol\":1775:1780  ratio */\n      dup3\n        /* \"lib/TickMath.sol\":1775:1817  ratio * 0xfff97272373d413259a46990580e213a */\n      tag_115\n      swap2\n      swap1\n      tag_116\n      jump\t// in\n    tag_115:\n        /* \"lib/TickMath.sol\":1774:1825  (ratio * 0xfff97272373d413259a46990580e213a) >> 128 */\n      swap1\n      shr\n        /* \"lib/TickMath.sol\":1766:1825  ratio = (ratio * 0xfff97272373d413259a46990580e213a) >> 128 */\n      swap1\n      pop\n        /* \"lib/TickMath.sol\":1742:1825  if (absTick & 0x2 != 0) ratio = (ratio * 0xfff97272373d413259a46990580e213a) >> 128 */\n    tag_114:\n        /* \"lib/TickMath.sol\":1857:1858  0 */\n      0x00\n        /* \"lib/TickMath.sol\":1850:1853  0x4 */\n      0x04\n        /* \"lib/TickMath.sol\":1840:1847  absTick */\n      dup4\n        /* \"lib/TickMath.sol\":1840:1853  absTick & 0x4 */\n      and\n        /* \"lib/TickMath.sol\":1840:1858  absTick & 0x4 != 0 */\n      eq\n        /* \"lib/TickMath.sol\":1836:1919  if (absTick & 0x4 != 0) ratio = (ratio * 0xfff2e50f5f656932ef12357cf3c7fdcc) >> 128 */\n      tag_117\n      jumpi\n        /* \"lib/TickMath.sol\":1916:1919  128 */\n      0x80\n        /* \"lib/TickMath.sol\":1877:1911  0xfff2e50f5f656932ef12357cf3c7fdcc */\n      0xfff2e50f5f656932ef12357cf3c7fdcc\n        /* \"lib/TickMath.sol\":1869:1874  ratio */\n      dup3\n        /* \"lib/TickMath.sol\":1869:1911  ratio * 0xfff2e50f5f656932ef12357cf3c7fdcc */\n      tag_118\n      swap2\n      swap1\n      tag_116\n      jump\t// in\n    tag_118:\n        /* \"lib/TickMath.sol\":1868:1919  (ratio * 0xfff2e50f5f656932ef12357cf3c7fdcc) >> 128 */\n      swap1\n      shr\n        /* \"lib/TickMath.sol\":1860:1919  ratio = (ratio * 0xfff2e50f5f656932ef12357cf3c7fdcc) >> 128 */\n      swap1\n      pop\n        /* \"lib/TickMath.sol\":1836:1919  if (absTick & 0x4 != 0) ratio = (ratio * 0xfff2e50f5f656932ef12357cf3c7fdcc) >> 128 */\n    tag_117:\n        /* \"lib/TickMath.sol\":1951:1952  0 */\n      0x00\n        /* \"lib/TickMath.sol\":1944:1947  0x8 */\n      0x08\n        /* \"lib/TickMath.sol\":1934:1941  absTick */\n      dup4\n        /* \"lib/TickMath.sol\":1934:1947  absTick & 0x8 */\n      and\n        /* \"lib/TickMath.sol\":1934:1952  absTick & 0x8 != 0 */\n      eq\n        /* \"lib/TickMath.sol\":1930:2013  if (absTick & 0x8 != 0) ratio = (ratio * 0xffe5caca7e10e4e61c3624eaa0941cd0) >> 128 */\n      tag_119\n      jumpi\n        /* \"lib/TickMath.sol\":2010:2013  128 */\n      0x80\n        /* \"lib/TickMath.sol\":1971:2005  0xffe5caca7e10e4e61c3624eaa0941cd0 */\n      0xffe5caca7e10e4e61c3624eaa0941cd0\n        /* \"lib/TickMath.sol\":1963:1968  ratio */\n      dup3\n        /* \"lib/TickMath.sol\":1963:2005  ratio * 0xffe5caca7e10e4e61c3624eaa0941cd0 */\n      tag_120\n      swap2\n      swap1\n      tag_116\n      jump\t// in\n    tag_120:\n        /* \"lib/TickMath.sol\":1962:2013  (ratio * 0xffe5caca7e10e4e61c3624eaa0941cd0) >> 128 */\n      swap1\n      shr\n        /* \"lib/TickMath.sol\":1954:2013  ratio = (ratio * 0xffe5caca7e10e4e61c3624eaa0941cd0) >> 128 */\n      swap1\n      pop\n        /* \"lib/TickMath.sol\":1930:2013  if (absTick & 0x8 != 0) ratio = (ratio * 0xffe5caca7e10e4e61c3624eaa0941cd0) >> 128 */\n    tag_119:\n        /* \"lib/TickMath.sol\":2046:2047  0 */\n      0x00\n        /* \"lib/TickMath.sol\":2038:2042  0x10 */\n      0x10\n        /* \"lib/TickMath.sol\":2028:2035  absTick */\n      dup4\n        /* \"lib/TickMath.sol\":2028:2042  absTick & 0x10 */\n      and\n        /* \"lib/TickMath.sol\":2028:2047  absTick & 0x10 != 0 */\n      eq\n        /* \"lib/TickMath.sol\":2024:2108  if (absTick & 0x10 != 0) ratio = (ratio * 0xffcb9843d60f6159c9db58835c926644) >> 128 */\n      tag_121\n      jumpi\n        /* \"lib/TickMath.sol\":2105:2108  128 */\n      0x80\n        /* \"lib/TickMath.sol\":2066:2100  0xffcb9843d60f6159c9db58835c926644 */\n      0xffcb9843d60f6159c9db58835c926644\n        /* \"lib/TickMath.sol\":2058:2063  ratio */\n      dup3\n        /* \"lib/TickMath.sol\":2058:2100  ratio * 0xffcb9843d60f6159c9db58835c926644 */\n      tag_122\n      swap2\n      swap1\n      tag_116\n      jump\t// in\n    tag_122:\n        /* \"lib/TickMath.sol\":2057:2108  (ratio * 0xffcb9843d60f6159c9db58835c926644) >> 128 */\n      swap1\n      shr\n        /* \"lib/TickMath.sol\":2049:2108  ratio = (ratio * 0xffcb9843d60f6159c9db58835c926644) >> 128 */\n      swap1\n      pop\n        /* \"lib/TickMath.sol\":2024:2108  if (absTick & 0x10 != 0) ratio = (ratio * 0xffcb9843d60f6159c9db58835c926644) >> 128 */\n    tag_121:\n        /* \"lib/TickMath.sol\":2141:2142  0 */\n      0x00\n        /* \"lib/TickMath.sol\":2133:2137  0x20 */\n      0x20\n        /* \"lib/TickMath.sol\":2123:2130  absTick */\n      dup4\n        /* \"lib/TickMath.sol\":2123:2137  absTick & 0x20 */\n      and\n        /* \"lib/TickMath.sol\":2123:2142  absTick & 0x20 != 0 */\n      eq\n        /* \"lib/TickMath.sol\":2119:2203  if (absTick & 0x20 != 0) ratio = (ratio * 0xff973b41fa98c081472e6896dfb254c0) >> 128 */\n      tag_123\n      jumpi\n        /* \"lib/TickMath.sol\":2200:2203  128 */\n      0x80\n        /* \"lib/TickMath.sol\":2161:2195  0xff973b41fa98c081472e6896dfb254c0 */\n      0xff973b41fa98c081472e6896dfb254c0\n        /* \"lib/TickMath.sol\":2153:2158  ratio */\n      dup3\n        /* \"lib/TickMath.sol\":2153:2195  ratio * 0xff973b41fa98c081472e6896dfb254c0 */\n      tag_124\n      swap2\n      swap1\n      tag_116\n      jump\t// in\n    tag_124:\n        /* \"lib/TickMath.sol\":2152:2203  (ratio * 0xff973b41fa98c081472e6896dfb254c0) >> 128 */\n      swap1\n      shr\n        /* \"lib/TickMath.sol\":2144:2203  ratio = (ratio * 0xff973b41fa98c081472e6896dfb254c0) >> 128 */\n      swap1\n      pop\n        /* \"lib/TickMath.sol\":2119:2203  if (absTick & 0x20 != 0) ratio = (ratio * 0xff973b41fa98c081472e6896dfb254c0) >> 128 */\n    tag_123:\n        /* \"lib/TickMath.sol\":2236:2237  0 */\n      0x00\n        /* \"lib/TickMath.sol\":2228:2232  0x40 */\n      0x40\n        /* \"lib/TickMath.sol\":2218:2225  absTick */\n      dup4\n        /* \"lib/TickMath.sol\":2218:2232  absTick & 0x40 */\n      and\n        /* \"lib/TickMath.sol\":2218:2237  absTick & 0x40 != 0 */\n      eq\n        /* \"lib/TickMath.sol\":2214:2298  if (absTick & 0x40 != 0) ratio = (ratio * 0xff2ea16466c96a3843ec78b326b52861) >> 128 */\n      tag_125\n      jumpi\n        /* \"lib/TickMath.sol\":2295:2298  128 */\n      0x80\n        /* \"lib/TickMath.sol\":2256:2290  0xff2ea16466c96a3843ec78b326b52861 */\n      0xff2ea16466c96a3843ec78b326b52861\n        /* \"lib/TickMath.sol\":2248:2253  ratio */\n      dup3\n        /* \"lib/TickMath.sol\":2248:2290  ratio * 0xff2ea16466c96a3843ec78b326b52861 */\n      tag_126\n      swap2\n      swap1\n      tag_116\n      jump\t// in\n    tag_126:\n        /* \"lib/TickMath.sol\":2247:2298  (ratio * 0xff2ea16466c96a3843ec78b326b52861) >> 128 */\n      swap1\n      shr\n        /* \"lib/TickMath.sol\":2239:2298  ratio = (ratio * 0xff2ea16466c96a3843ec78b326b52861) >> 128 */\n      swap1\n      pop\n        /* \"lib/TickMath.sol\":2214:2298  if (absTick & 0x40 != 0) ratio = (ratio * 0xff2ea16466c96a3843ec78b326b52861) >> 128 */\n    tag_125:\n        /* \"lib/TickMath.sol\":2331:2332  0 */\n      0x00\n        /* \"lib/TickMath.sol\":2323:2327  0x80 */\n      0x80\n        /* \"lib/TickMath.sol\":2313:2320  absTick */\n      dup4\n        /* \"lib/TickMath.sol\":2313:2327  absTick & 0x80 */\n      and\n        /* \"lib/TickMath.sol\":2313:2332  absTick & 0x80 != 0 */\n      eq\n        /* \"lib/TickMath.sol\":2309:2393  if (absTick & 0x80 != 0) ratio = (ratio * 0xfe5dee046a99a2a811c461f1969c3053) >> 128 */\n      tag_127\n      jumpi\n        /* \"lib/TickMath.sol\":2390:2393  128 */\n      0x80\n        /* \"lib/TickMath.sol\":2351:2385  0xfe5dee046a99a2a811c461f1969c3053 */\n      0xfe5dee046a99a2a811c461f1969c3053\n        /* \"lib/TickMath.sol\":2343:2348  ratio */\n      dup3\n        /* \"lib/TickMath.sol\":2343:2385  ratio * 0xfe5dee046a99a2a811c461f1969c3053 */\n      tag_128\n      swap2\n      swap1\n      tag_116\n      jump\t// in\n    tag_128:\n        /* \"lib/TickMath.sol\":2342:2393  (ratio * 0xfe5dee046a99a2a811c461f1969c3053) >> 128 */\n      swap1\n      shr\n        /* \"lib/TickMath.sol\":2334:2393  ratio = (ratio * 0xfe5dee046a99a2a811c461f1969c3053) >> 128 */\n      swap1\n      pop\n        /* \"lib/TickMath.sol\":2309:2393  if (absTick & 0x80 != 0) ratio = (ratio * 0xfe5dee046a99a2a811c461f1969c3053) >> 128 */\n    tag_127:\n        /* \"lib/TickMath.sol\":2427:2428  0 */\n      0x00\n        /* \"lib/TickMath.sol\":2418:2423  0x100 */\n      0x0100\n        /* \"lib/TickMath.sol\":2408:2415  absTick */\n      dup4\n        /* \"lib/TickMath.sol\":2408:2423  absTick & 0x100 */\n      and\n        /* \"lib/TickMath.sol\":2408:2428  absTick & 0x100 != 0 */\n      eq\n        /* \"lib/TickMath.sol\":2404:2489  if (absTick & 0x100 != 0) ratio = (ratio * 0xfcbe86c7900a88aedcffc83b479aa3a4) >> 128 */\n      tag_129\n      jumpi\n        /* \"lib/TickMath.sol\":2486:2489  128 */\n      0x80\n        /* \"lib/TickMath.sol\":2447:2481  0xfcbe86c7900a88aedcffc83b479aa3a4 */\n      0xfcbe86c7900a88aedcffc83b479aa3a4\n        /* \"lib/TickMath.sol\":2439:2444  ratio */\n      dup3\n        /* \"lib/TickMath.sol\":2439:2481  ratio * 0xfcbe86c7900a88aedcffc83b479aa3a4 */\n      tag_130\n      swap2\n      swap1\n      tag_116\n      jump\t// in\n    tag_130:\n        /* \"lib/TickMath.sol\":2438:2489  (ratio * 0xfcbe86c7900a88aedcffc83b479aa3a4) >> 128 */\n      swap1\n      shr\n        /* \"lib/TickMath.sol\":2430:2489  ratio = (ratio * 0xfcbe86c7900a88aedcffc83b479aa3a4) >> 128 */\n      swap1\n      pop\n        /* \"lib/TickMath.sol\":2404:2489  if (absTick & 0x100 != 0) ratio = (ratio * 0xfcbe86c7900a88aedcffc83b479aa3a4) >> 128 */\n    tag_129:\n        /* \"lib/TickMath.sol\":2523:2524  0 */\n      0x00\n        /* \"lib/TickMath.sol\":2514:2519  0x200 */\n      0x0200\n        /* \"lib/TickMath.sol\":2504:2511  absTick */\n      dup4\n        /* \"lib/TickMath.sol\":2504:2519  absTick & 0x200 */\n      and\n        /* \"lib/TickMath.sol\":2504:2524  absTick & 0x200 != 0 */\n      eq\n        /* \"lib/TickMath.sol\":2500:2585  if (absTick & 0x200 != 0) ratio = (ratio * 0xf987a7253ac413176f2b074cf7815e54) >> 128 */\n      tag_131\n      jumpi\n        /* \"lib/TickMath.sol\":2582:2585  128 */\n      0x80\n        /* \"lib/TickMath.sol\":2543:2577  0xf987a7253ac413176f2b074cf7815e54 */\n      0xf987a7253ac413176f2b074cf7815e54\n        /* \"lib/TickMath.sol\":2535:2540  ratio */\n      dup3\n        /* \"lib/TickMath.sol\":2535:2577  ratio * 0xf987a7253ac413176f2b074cf7815e54 */\n      tag_132\n      swap2\n      swap1\n      tag_116\n      jump\t// in\n    tag_132:\n        /* \"lib/TickMath.sol\":2534:2585  (ratio * 0xf987a7253ac413176f2b074cf7815e54) >> 128 */\n      swap1\n      shr\n        /* \"lib/TickMath.sol\":2526:2585  ratio = (ratio * 0xf987a7253ac413176f2b074cf7815e54) >> 128 */\n      swap1\n      pop\n        /* \"lib/TickMath.sol\":2500:2585  if (absTick & 0x200 != 0) ratio = (ratio * 0xf987a7253ac413176f2b074cf7815e54) >> 128 */\n    tag_131:\n        /* \"lib/TickMath.sol\":2619:2620  0 */\n      0x00\n        /* \"lib/TickMath.sol\":2610:2615  0x400 */\n      0x0400\n        /* \"lib/TickMath.sol\":2600:2607  absTick */\n      dup4\n        /* \"lib/TickMath.sol\":2600:2615  absTick & 0x400 */\n      and\n        /* \"lib/TickMath.sol\":2600:2620  absTick & 0x400 != 0 */\n      eq\n        /* \"lib/TickMath.sol\":2596:2681  if (absTick & 0x400 != 0) ratio = (ratio * 0xf3392b0822b70005940c7a398e4b70f3) >> 128 */\n      tag_133\n      jumpi\n        /* \"lib/TickMath.sol\":2678:2681  128 */\n      0x80\n        /* \"lib/TickMath.sol\":2639:2673  0xf3392b0822b70005940c7a398e4b70f3 */\n      0xf3392b0822b70005940c7a398e4b70f3\n        /* \"lib/TickMath.sol\":2631:2636  ratio */\n      dup3\n        /* \"lib/TickMath.sol\":2631:2673  ratio * 0xf3392b0822b70005940c7a398e4b70f3 */\n      tag_134\n      swap2\n      swap1\n      tag_116\n      jump\t// in\n    tag_134:\n        /* \"lib/TickMath.sol\":2630:2681  (ratio * 0xf3392b0822b70005940c7a398e4b70f3) >> 128 */\n      swap1\n      shr\n        /* \"lib/TickMath.sol\":2622:2681  ratio = (ratio * 0xf3392b0822b70005940c7a398e4b70f3) >> 128 */\n      swap1\n      pop\n        /* \"lib/TickMath.sol\":2596:2681  if (absTick & 0x400 != 0) ratio = (ratio * 0xf3392b0822b70005940c7a398e4b70f3) >> 128 */\n    tag_133:\n        /* \"lib/TickMath.sol\":2715:2716  0 */\n      0x00\n        /* \"lib/TickMath.sol\":2706:2711  0x800 */\n      0x0800\n        /* \"lib/TickMath.sol\":2696:2703  absTick */\n      dup4\n        /* \"lib/TickMath.sol\":2696:2711  absTick & 0x800 */\n      and\n        /* \"lib/TickMath.sol\":2696:2716  absTick & 0x800 != 0 */\n      eq\n        /* \"lib/TickMath.sol\":2692:2777  if (absTick & 0x800 != 0) ratio = (ratio * 0xe7159475a2c29b7443b29c7fa6e889d9) >> 128 */\n      tag_135\n      jumpi\n        /* \"lib/TickMath.sol\":2774:2777  128 */\n      0x80\n        /* \"lib/TickMath.sol\":2735:2769  0xe7159475a2c29b7443b29c7fa6e889d9 */\n      0xe7159475a2c29b7443b29c7fa6e889d9\n        /* \"lib/TickMath.sol\":2727:2732  ratio */\n      dup3\n        /* \"lib/TickMath.sol\":2727:2769  ratio * 0xe7159475a2c29b7443b29c7fa6e889d9 */\n      tag_136\n      swap2\n      swap1\n      tag_116\n      jump\t// in\n    tag_136:\n        /* \"lib/TickMath.sol\":2726:2777  (ratio * 0xe7159475a2c29b7443b29c7fa6e889d9) >> 128 */\n      swap1\n      shr\n        /* \"lib/TickMath.sol\":2718:2777  ratio = (ratio * 0xe7159475a2c29b7443b29c7fa6e889d9) >> 128 */\n      swap1\n      pop\n        /* \"lib/TickMath.sol\":2692:2777  if (absTick & 0x800 != 0) ratio = (ratio * 0xe7159475a2c29b7443b29c7fa6e889d9) >> 128 */\n    tag_135:\n        /* \"lib/TickMath.sol\":2812:2813  0 */\n      0x00\n        /* \"lib/TickMath.sol\":2802:2808  0x1000 */\n      0x1000\n        /* \"lib/TickMath.sol\":2792:2799  absTick */\n      dup4\n        /* \"lib/TickMath.sol\":2792:2808  absTick & 0x1000 */\n      and\n        /* \"lib/TickMath.sol\":2792:2813  absTick & 0x1000 != 0 */\n      eq\n        /* \"lib/TickMath.sol\":2788:2874  if (absTick & 0x1000 != 0) ratio = (ratio * 0xd097f3bdfd2022b8845ad8f792aa5825) >> 128 */\n      tag_137\n      jumpi\n        /* \"lib/TickMath.sol\":2871:2874  128 */\n      0x80\n        /* \"lib/TickMath.sol\":2832:2866  0xd097f3bdfd2022b8845ad8f792aa5825 */\n      0xd097f3bdfd2022b8845ad8f792aa5825\n        /* \"lib/TickMath.sol\":2824:2829  ratio */\n      dup3\n        /* \"lib/TickMath.sol\":2824:2866  ratio * 0xd097f3bdfd2022b8845ad8f792aa5825 */\n      tag_138\n      swap2\n      swap1\n      tag_116\n      jump\t// in\n    tag_138:\n        /* \"lib/TickMath.sol\":2823:2874  (ratio * 0xd097f3bdfd2022b8845ad8f792aa5825) >> 128 */\n      swap1\n      shr\n        /* \"lib/TickMath.sol\":2815:2874  ratio = (ratio * 0xd097f3bdfd2022b8845ad8f792aa5825) >> 128 */\n      swap1\n      pop\n        /* \"lib/TickMath.sol\":2788:2874  if (absTick & 0x1000 != 0) ratio = (ratio * 0xd097f3bdfd2022b8845ad8f792aa5825) >> 128 */\n    tag_137:\n        /* \"lib/TickMath.sol\":2909:2910  0 */\n      0x00\n        /* \"lib/TickMath.sol\":2899:2905  0x2000 */\n      0x2000\n        /* \"lib/TickMath.sol\":2889:2896  absTick */\n      dup4\n        /* \"lib/TickMath.sol\":2889:2905  absTick & 0x2000 */\n      and\n        /* \"lib/TickMath.sol\":2889:2910  absTick & 0x2000 != 0 */\n      eq\n        /* \"lib/TickMath.sol\":2885:2971  if (absTick & 0x2000 != 0) ratio = (ratio * 0xa9f746462d870fdf8a65dc1f90e061e5) >> 128 */\n      tag_139\n      jumpi\n        /* \"lib/TickMath.sol\":2968:2971  128 */\n      0x80\n        /* \"lib/TickMath.sol\":2929:2963  0xa9f746462d870fdf8a65dc1f90e061e5 */\n      0xa9f746462d870fdf8a65dc1f90e061e5\n        /* \"lib/TickMath.sol\":2921:2926  ratio */\n      dup3\n        /* \"lib/TickMath.sol\":2921:2963  ratio * 0xa9f746462d870fdf8a65dc1f90e061e5 */\n      tag_140\n      swap2\n      swap1\n      tag_116\n      jump\t// in\n    tag_140:\n        /* \"lib/TickMath.sol\":2920:2971  (ratio * 0xa9f746462d870fdf8a65dc1f90e061e5) >> 128 */\n      swap1\n      shr\n        /* \"lib/TickMath.sol\":2912:2971  ratio = (ratio * 0xa9f746462d870fdf8a65dc1f90e061e5) >> 128 */\n      swap1\n      pop\n        /* \"lib/TickMath.sol\":2885:2971  if (absTick & 0x2000 != 0) ratio = (ratio * 0xa9f746462d870fdf8a65dc1f90e061e5) >> 128 */\n    tag_139:\n        /* \"lib/TickMath.sol\":3006:3007  0 */\n      0x00\n        /* \"lib/TickMath.sol\":2996:3002  0x4000 */\n      0x4000\n        /* \"lib/TickMath.sol\":2986:2993  absTick */\n      dup4\n        /* \"lib/TickMath.sol\":2986:3002  absTick & 0x4000 */\n      and\n        /* \"lib/TickMath.sol\":2986:3007  absTick & 0x4000 != 0 */\n      eq\n        /* \"lib/TickMath.sol\":2982:3068  if (absTick & 0x4000 != 0) ratio = (ratio * 0x70d869a156d2a1b890bb3df62baf32f7) >> 128 */\n      tag_141\n      jumpi\n        /* \"lib/TickMath.sol\":3065:3068  128 */\n      0x80\n        /* \"lib/TickMath.sol\":3026:3060  0x70d869a156d2a1b890bb3df62baf32f7 */\n      0x70d869a156d2a1b890bb3df62baf32f7\n        /* \"lib/TickMath.sol\":3018:3023  ratio */\n      dup3\n        /* \"lib/TickMath.sol\":3018:3060  ratio * 0x70d869a156d2a1b890bb3df62baf32f7 */\n      tag_142\n      swap2\n      swap1\n      tag_116\n      jump\t// in\n    tag_142:\n        /* \"lib/TickMath.sol\":3017:3068  (ratio * 0x70d869a156d2a1b890bb3df62baf32f7) >> 128 */\n      swap1\n      shr\n        /* \"lib/TickMath.sol\":3009:3068  ratio = (ratio * 0x70d869a156d2a1b890bb3df62baf32f7) >> 128 */\n      swap1\n      pop\n        /* \"lib/TickMath.sol\":2982:3068  if (absTick & 0x4000 != 0) ratio = (ratio * 0x70d869a156d2a1b890bb3df62baf32f7) >> 128 */\n    tag_141:\n        /* \"lib/TickMath.sol\":3103:3104  0 */\n      0x00\n        /* \"lib/TickMath.sol\":3093:3099  0x8000 */\n      0x8000\n        /* \"lib/TickMath.sol\":3083:3090  absTick */\n      dup4\n        /* \"lib/TickMath.sol\":3083:3099  absTick & 0x8000 */\n      and\n        /* \"lib/TickMath.sol\":3083:3104  absTick & 0x8000 != 0 */\n      eq\n        /* \"lib/TickMath.sol\":3079:3165  if (absTick & 0x8000 != 0) ratio = (ratio * 0x31be135f97d08fd981231505542fcfa6) >> 128 */\n      tag_143\n      jumpi\n        /* \"lib/TickMath.sol\":3162:3165  128 */\n      0x80\n        /* \"lib/TickMath.sol\":3123:3157  0x31be135f97d08fd981231505542fcfa6 */\n      0x31be135f97d08fd981231505542fcfa6\n        /* \"lib/TickMath.sol\":3115:3120  ratio */\n      dup3\n        /* \"lib/TickMath.sol\":3115:3157  ratio * 0x31be135f97d08fd981231505542fcfa6 */\n      tag_144\n      swap2\n      swap1\n      tag_116\n      jump\t// in\n    tag_144:\n        /* \"lib/TickMath.sol\":3114:3165  (ratio * 0x31be135f97d08fd981231505542fcfa6) >> 128 */\n      swap1\n      shr\n        /* \"lib/TickMath.sol\":3106:3165  ratio = (ratio * 0x31be135f97d08fd981231505542fcfa6) >> 128 */\n      swap1\n      pop\n        /* \"lib/TickMath.sol\":3079:3165  if (absTick & 0x8000 != 0) ratio = (ratio * 0x31be135f97d08fd981231505542fcfa6) >> 128 */\n    tag_143:\n        /* \"lib/TickMath.sol\":3201:3202  0 */\n      0x00\n        /* \"lib/TickMath.sol\":3190:3197  0x10000 */\n      0x010000\n        /* \"lib/TickMath.sol\":3180:3187  absTick */\n      dup4\n        /* \"lib/TickMath.sol\":3180:3197  absTick & 0x10000 */\n      and\n        /* \"lib/TickMath.sol\":3180:3202  absTick & 0x10000 != 0 */\n      eq\n        /* \"lib/TickMath.sol\":3176:3262  if (absTick & 0x10000 != 0) ratio = (ratio * 0x9aa508b5b7a84e1c677de54f3e99bc9) >> 128 */\n      tag_145\n      jumpi\n        /* \"lib/TickMath.sol\":3259:3262  128 */\n      0x80\n        /* \"lib/TickMath.sol\":3221:3254  0x9aa508b5b7a84e1c677de54f3e99bc9 */\n      0x09aa508b5b7a84e1c677de54f3e99bc9\n        /* \"lib/TickMath.sol\":3213:3218  ratio */\n      dup3\n        /* \"lib/TickMath.sol\":3213:3254  ratio * 0x9aa508b5b7a84e1c677de54f3e99bc9 */\n      tag_146\n      swap2\n      swap1\n      tag_116\n      jump\t// in\n    tag_146:\n        /* \"lib/TickMath.sol\":3212:3262  (ratio * 0x9aa508b5b7a84e1c677de54f3e99bc9) >> 128 */\n      swap1\n      shr\n        /* \"lib/TickMath.sol\":3204:3262  ratio = (ratio * 0x9aa508b5b7a84e1c677de54f3e99bc9) >> 128 */\n      swap1\n      pop\n        /* \"lib/TickMath.sol\":3176:3262  if (absTick & 0x10000 != 0) ratio = (ratio * 0x9aa508b5b7a84e1c677de54f3e99bc9) >> 128 */\n    tag_145:\n        /* \"lib/TickMath.sol\":3298:3299  0 */\n      0x00\n        /* \"lib/TickMath.sol\":3287:3294  0x20000 */\n      0x020000\n        /* \"lib/TickMath.sol\":3277:3284  absTick */\n      dup4\n        /* \"lib/TickMath.sol\":3277:3294  absTick & 0x20000 */\n      and\n        /* \"lib/TickMath.sol\":3277:3299  absTick & 0x20000 != 0 */\n      eq\n        /* \"lib/TickMath.sol\":3273:3358  if (absTick & 0x20000 != 0) ratio = (ratio * 0x5d6af8dedb81196699c329225ee604) >> 128 */\n      tag_147\n      jumpi\n        /* \"lib/TickMath.sol\":3355:3358  128 */\n      0x80\n        /* \"lib/TickMath.sol\":3318:3350  0x5d6af8dedb81196699c329225ee604 */\n      0x5d6af8dedb81196699c329225ee604\n        /* \"lib/TickMath.sol\":3310:3315  ratio */\n      dup3\n        /* \"lib/TickMath.sol\":3310:3350  ratio * 0x5d6af8dedb81196699c329225ee604 */\n      tag_148\n      swap2\n      swap1\n      tag_116\n      jump\t// in\n    tag_148:\n        /* \"lib/TickMath.sol\":3309:3358  (ratio * 0x5d6af8dedb81196699c329225ee604) >> 128 */\n      swap1\n      shr\n        /* \"lib/TickMath.sol\":3301:3358  ratio = (ratio * 0x5d6af8dedb81196699c329225ee604) >> 128 */\n      swap1\n      pop\n        /* \"lib/TickMath.sol\":3273:3358  if (absTick & 0x20000 != 0) ratio = (ratio * 0x5d6af8dedb81196699c329225ee604) >> 128 */\n    tag_147:\n        /* \"lib/TickMath.sol\":3394:3395  0 */\n      0x00\n        /* \"lib/TickMath.sol\":3383:3390  0x40000 */\n      0x040000\n        /* \"lib/TickMath.sol\":3373:3380  absTick */\n      dup4\n        /* \"lib/TickMath.sol\":3373:3390  absTick & 0x40000 */\n      and\n        /* \"lib/TickMath.sol\":3373:3395  absTick & 0x40000 != 0 */\n      eq\n        /* \"lib/TickMath.sol\":3369:3452  if (absTick & 0x40000 != 0) ratio = (ratio * 0x2216e584f5fa1ea926041bedfe98) >> 128 */\n      tag_149\n      jumpi\n        /* \"lib/TickMath.sol\":3449:3452  128 */\n      0x80\n        /* \"lib/TickMath.sol\":3414:3444  0x2216e584f5fa1ea926041bedfe98 */\n      0x2216e584f5fa1ea926041bedfe98\n        /* \"lib/TickMath.sol\":3406:3411  ratio */\n      dup3\n        /* \"lib/TickMath.sol\":3406:3444  ratio * 0x2216e584f5fa1ea926041bedfe98 */\n      tag_150\n      swap2\n      swap1\n      tag_116\n      jump\t// in\n    tag_150:\n        /* \"lib/TickMath.sol\":3405:3452  (ratio * 0x2216e584f5fa1ea926041bedfe98) >> 128 */\n      swap1\n      shr\n        /* \"lib/TickMath.sol\":3397:3452  ratio = (ratio * 0x2216e584f5fa1ea926041bedfe98) >> 128 */\n      swap1\n      pop\n        /* \"lib/TickMath.sol\":3369:3452  if (absTick & 0x40000 != 0) ratio = (ratio * 0x2216e584f5fa1ea926041bedfe98) >> 128 */\n    tag_149:\n        /* \"lib/TickMath.sol\":3488:3489  0 */\n      0x00\n        /* \"lib/TickMath.sol\":3477:3484  0x80000 */\n      0x080000\n        /* \"lib/TickMath.sol\":3467:3474  absTick */\n      dup4\n        /* \"lib/TickMath.sol\":3467:3484  absTick & 0x80000 */\n      and\n        /* \"lib/TickMath.sol\":3467:3489  absTick & 0x80000 != 0 */\n      eq\n        /* \"lib/TickMath.sol\":3463:3541  if (absTick & 0x80000 != 0) ratio = (ratio * 0x48a170391f7dc42444e8fa2) >> 128 */\n      tag_151\n      jumpi\n        /* \"lib/TickMath.sol\":3538:3541  128 */\n      0x80\n        /* \"lib/TickMath.sol\":3508:3533  0x48a170391f7dc42444e8fa2 */\n      0x048a170391f7dc42444e8fa2\n        /* \"lib/TickMath.sol\":3500:3505  ratio */\n      dup3\n        /* \"lib/TickMath.sol\":3500:3533  ratio * 0x48a170391f7dc42444e8fa2 */\n      tag_152\n      swap2\n      swap1\n      tag_116\n      jump\t// in\n    tag_152:\n        /* \"lib/TickMath.sol\":3499:3541  (ratio * 0x48a170391f7dc42444e8fa2) >> 128 */\n      swap1\n      shr\n        /* \"lib/TickMath.sol\":3491:3541  ratio = (ratio * 0x48a170391f7dc42444e8fa2) >> 128 */\n      swap1\n      pop\n        /* \"lib/TickMath.sol\":3463:3541  if (absTick & 0x80000 != 0) ratio = (ratio * 0x48a170391f7dc42444e8fa2) >> 128 */\n    tag_151:\n        /* \"lib/TickMath.sol\":3565:3566  0 */\n      0x00\n        /* \"lib/TickMath.sol\":3558:3562  tick */\n      dup5\n        /* \"lib/TickMath.sol\":3558:3566  tick > 0 */\n      0x02\n      signextend\n      sgt\n        /* \"lib/TickMath.sol\":3554:3601  if (tick > 0) ratio = type(uint256).max / ratio */\n      iszero\n      tag_153\n      jumpi\n        /* \"lib/TickMath.sol\":3596:3601  ratio */\n      dup1\n        /* \"lib/TickMath.sol\":3576:3593  type(uint256).max */\n      0xffffffffffffffffffffffffffffffffffffffffffffffffffffffffffffffff\n        /* \"lib/TickMath.sol\":3576:3601  type(uint256).max / ratio */\n      tag_154\n      swap2\n      swap1\n      tag_155\n      jump\t// in\n    tag_154:\n        /* \"lib/TickMath.sol\":3568:3601  ratio = type(uint256).max / ratio */\n      swap1\n      pop\n        /* \"lib/TickMath.sol\":3554:3601  if (tick > 0) ratio = type(uint256).max / ratio */\n    tag_153:\n        /* \"lib/TickMath.sol\":3977:3978  0 */\n      0x00\n        /* \"lib/TickMath.sol\":3965:3972  1 << 32 */\n      0x0100000000\n        /* \"lib/TickMath.sol\":3956:3961  ratio */\n      dup3\n        /* \"lib/TickMath.sol\":3956:3973  ratio % (1 << 32) */\n      tag_156\n      swap2\n      swap1\n      tag_157\n      jump\t// in\n    tag_156:\n        /* \"lib/TickMath.sol\":3956:3978  ratio % (1 << 32) == 0 */\n      eq\n        /* \"lib/TickMath.sol\":3956:3986  ratio % (1 << 32) == 0 ? 0 : 1 */\n      tag_158\n      jumpi\n        /* \"lib/TickMath.sol\":3985:3986  1 */\n      0x01\n        /* \"lib/TickMath.sol\":3956:3986  ratio % (1 << 32) == 0 ? 0 : 1 */\n      jump(tag_159)\n    tag_158:\n        /* \"lib/TickMath.sol\":3981:3982  0 */\n      0x00\n        /* \"lib/TickMath.sol\":3956:3986  ratio % (1 << 32) == 0 ? 0 : 1 */\n    tag_159:\n        /* \"lib/TickMath.sol\":3939:3987  (ratio >> 32) + (ratio % (1 << 32) == 0 ? 0 : 1) */\n      0xff\n      and\n        /* \"lib/TickMath.sol\":3949:3951  32 */\n      0x20\n        /* \"lib/TickMath.sol\":3940:3945  ratio */\n      dup3\n        /* \"lib/TickMath.sol\":3940:3951  ratio >> 32 */\n      swap1\n      shr\n        /* \"lib/TickMath.sol\":3939:3987  (ratio >> 32) + (ratio % (1 << 32) == 0 ? 0 : 1) */\n      tag_160\n      swap2\n      swap1\n      tag_161\n      jump\t// in\n    tag_160:\n        /* \"lib/TickMath.sol\":3916:3988  sqrtPriceX96 = uint160((ratio >> 32) + (ratio % (1 << 32) == 0 ? 0 : 1)) */\n      swap3\n      pop\n        /* \"lib/TickMath.sol\":1462:3996  {... */\n      pop\n      pop\n        /* \"lib/TickMath.sol\":1377:3996  function getSqrtRatioAtTick(int24 tick) internal pure returns (uint160 sqrtPriceX96) {... */\n      swap2\n      swap1\n      pop\n      jump\t// out\n        /* \"lib/LiquidityMath.sol\":1364:2562  function getLiquidityForAmounts(... */\n    tag_41:\n        /* \"lib/LiquidityMath.sol\":1573:1590  uint128 liquidity */\n      0x00\n        /* \"lib/LiquidityMath.sol\":1623:1636  sqrtPriceBX96 */\n      dup4\n        /* \"lib/LiquidityMath.sol\":1607:1636  sqrtPriceAX96 > sqrtPriceBX96 */\n      0xffffffffffffffffffffffffffffffffffffffff\n      and\n        /* \"lib/LiquidityMath.sol\":1607:1620  sqrtPriceAX96 */\n      dup6\n        /* \"lib/LiquidityMath.sol\":1607:1636  sqrtPriceAX96 > sqrtPriceBX96 */\n      0xffffffffffffffffffffffffffffffffffffffff\n      and\n      gt\n        /* \"lib/LiquidityMath.sol\":1603:1714  if (sqrtPriceAX96 > sqrtPriceBX96)... */\n      iszero\n      tag_163\n      jumpi\n        /* \"lib/LiquidityMath.sol\":1685:1698  sqrtPriceBX96 */\n      dup4\n        /* \"lib/LiquidityMath.sol\":1700:1713  sqrtPriceAX96 */\n      dup6\n        /* \"lib/LiquidityMath.sol\":1651:1714  (sqrtPriceAX96, sqrtPriceBX96) = (sqrtPriceBX96, sqrtPriceAX96) */\n      dup1\n      swap6\n      pop\n      dup2\n      swap7\n      pop\n      pop\n      pop\n        /* \"lib/LiquidityMath.sol\":1603:1714  if (sqrtPriceAX96 > sqrtPriceBX96)... */\n    tag_163:\n        /* \"lib/LiquidityMath.sol\":1747:1760  sqrtPriceAX96 */\n      dup5\n        /* \"lib/LiquidityMath.sol\":1731:1760  sqrtPriceX96 <= sqrtPriceAX96 */\n      0xffffffffffffffffffffffffffffffffffffffff\n      and\n        /* \"lib/LiquidityMath.sol\":1731:1743  sqrtPriceX96 */\n      dup7\n        /* \"lib/LiquidityMath.sol\":1731:1760  sqrtPriceX96 <= sqrtPriceAX96 */\n      0xffffffffffffffffffffffffffffffffffffffff\n      and\n      gt\n        /* \"lib/LiquidityMath.sol\":1727:2555  if (sqrtPriceX96 <= sqrtPriceAX96) {... */\n      tag_164\n      jumpi\n        /* \"lib/LiquidityMath.sol\":1789:1916  getLiquidityForAmount0(... */\n      tag_165\n        /* \"lib/LiquidityMath.sol\":1830:1843  sqrtPriceAX96 */\n      dup6\n        /* \"lib/LiquidityMath.sol\":1862:1875  sqrtPriceBX96 */\n      dup6\n        /* \"lib/LiquidityMath.sol\":1894:1901  amount0 */\n      dup6\n        /* \"lib/LiquidityMath.sol\":1789:1811  getLiquidityForAmount0 */\n      tag_166\n        /* \"lib/LiquidityMath.sol\":1789:1916  getLiquidityForAmount0(... */\n      jump\t// in\n    tag_165:\n        /* \"lib/LiquidityMath.sol\":1777:1916  liquidity = getLiquidityForAmount0(... */\n      swap1\n      pop\n        /* \"lib/LiquidityMath.sol\":1727:2555  if (sqrtPriceX96 <= sqrtPriceAX96) {... */\n      jump(tag_167)\n    tag_164:\n        /* \"lib/LiquidityMath.sol\":1954:1967  sqrtPriceBX96 */\n      dup4\n        /* \"lib/LiquidityMath.sol\":1938:1967  sqrtPriceX96 <= sqrtPriceBX96 */\n      0xffffffffffffffffffffffffffffffffffffffff\n      and\n        /* \"lib/LiquidityMath.sol\":1938:1950  sqrtPriceX96 */\n      dup7\n        /* \"lib/LiquidityMath.sol\":1938:1967  sqrtPriceX96 <= sqrtPriceBX96 */\n      0xffffffffffffffffffffffffffffffffffffffff\n      and\n      gt\n        /* \"lib/LiquidityMath.sol\":1934:2555  if (sqrtPriceX96 <= sqrtPriceBX96) {... */\n      tag_168\n      jumpi\n        /* \"lib/LiquidityMath.sol\":1984:2002  uint128 liquidity0 */\n      0x00\n        /* \"lib/LiquidityMath.sol\":2005:2131  getLiquidityForAmount0(... */\n      tag_169\n        /* \"lib/LiquidityMath.sol\":2046:2058  sqrtPriceX96 */\n      dup8\n        /* \"lib/LiquidityMath.sol\":2077:2090  sqrtPriceBX96 */\n      dup7\n        /* \"lib/LiquidityMath.sol\":2109:2116  amount0 */\n      dup7\n        /* \"lib/LiquidityMath.sol\":2005:2027  getLiquidityForAmount0 */\n      tag_166\n        /* \"lib/LiquidityMath.sol\":2005:2131  getLiquidityForAmount0(... */\n      jump\t// in\n    tag_169:\n        /* \"lib/LiquidityMath.sol\":1984:2131  uint128 liquidity0 = getLiquidityForAmount0(... */\n      swap1\n      pop\n        /* \"lib/LiquidityMath.sol\":2146:2164  uint128 liquidity1 */\n      0x00\n        /* \"lib/LiquidityMath.sol\":2167:2293  getLiquidityForAmount1(... */\n      tag_170\n        /* \"lib/LiquidityMath.sol\":2208:2221  sqrtPriceAX96 */\n      dup8\n        /* \"lib/LiquidityMath.sol\":2240:2252  sqrtPriceX96 */\n      dup10\n        /* \"lib/LiquidityMath.sol\":2271:2278  amount1 */\n      dup7\n        /* \"lib/LiquidityMath.sol\":2167:2189  getLiquidityForAmount1 */\n      tag_171\n        /* \"lib/LiquidityMath.sol\":2167:2293  getLiquidityForAmount1(... */\n      jump\t// in\n    tag_170:\n        /* \"lib/LiquidityMath.sol\":2146:2293  uint128 liquidity1 = getLiquidityForAmount1(... */\n      swap1\n      pop\n        /* \"lib/LiquidityMath.sol\":2335:2345  liquidity1 */\n      dup1\n        /* \"lib/LiquidityMath.sol\":2322:2345  liquidity0 < liquidity1 */\n      0xffffffffffffffffffffffffffffffff\n      and\n        /* \"lib/LiquidityMath.sol\":2322:2332  liquidity0 */\n      dup3\n        /* \"lib/LiquidityMath.sol\":2322:2345  liquidity0 < liquidity1 */\n      0xffffffffffffffffffffffffffffffff\n      and\n      lt\n        /* \"lib/LiquidityMath.sol\":2322:2371  liquidity0 < liquidity1 ? liquidity0 : liquidity1 */\n      tag_172\n      jumpi\n        /* \"lib/LiquidityMath.sol\":2361:2371  liquidity1 */\n      dup1\n        /* \"lib/LiquidityMath.sol\":2322:2371  liquidity0 < liquidity1 ? liquidity0 : liquidity1 */\n      jump(tag_173)\n    tag_172:\n        /* \"lib/LiquidityMath.sol\":2348:2358  liquidity0 */\n      dup2\n        /* \"lib/LiquidityMath.sol\":2322:2371  liquidity0 < liquidity1 ? liquidity0 : liquidity1 */\n    tag_173:\n        /* \"lib/LiquidityMath.sol\":2310:2371  liquidity = liquidity0 < liquidity1 ? liquidity0 : liquidity1 */\n      swap3\n      pop\n        /* \"lib/LiquidityMath.sol\":1969:2383  {... */\n      pop\n      pop\n        /* \"lib/LiquidityMath.sol\":1934:2555  if (sqrtPriceX96 <= sqrtPriceBX96) {... */\n      jump(tag_174)\n    tag_168:\n        /* \"lib/LiquidityMath.sol\":2416:2543  getLiquidityForAmount1(... */\n      tag_175\n        /* \"lib/LiquidityMath.sol\":2457:2470  sqrtPriceAX96 */\n      dup6\n        /* \"lib/LiquidityMath.sol\":2489:2502  sqrtPriceBX96 */\n      dup6\n        /* \"lib/LiquidityMath.sol\":2521:2528  amount1 */\n      dup5\n        /* \"lib/LiquidityMath.sol\":2416:2438  getLiquidityForAmount1 */\n      tag_171\n        /* \"lib/LiquidityMath.sol\":2416:2543  getLiquidityForAmount1(... */\n      jump\t// in\n    tag_175:\n        /* \"lib/LiquidityMath.sol\":2404:2543  liquidity = getLiquidityForAmount1(... */\n      swap1\n      pop\n        /* \"lib/LiquidityMath.sol\":1934:2555  if (sqrtPriceX96 <= sqrtPriceBX96) {... */\n    tag_174:\n        /* \"lib/LiquidityMath.sol\":1727:2555  if (sqrtPriceX96 <= sqrtPriceAX96) {... */\n    tag_167:\n        /* \"lib/LiquidityMath.sol\":1364:2562  function getLiquidityForAmounts(... */\n      swap6\n      swap5\n      pop\n      pop\n      pop\n      pop\n      pop\n      jump\t// out\n        /* \"lib/LiquidityMath.sol\":230:803  function getLiquidityForAmount0(... */\n    tag_166:\n        /* \"lib/LiquidityMath.sol\":382:399  uint128 liquidity */\n      0x00\n        /* \"lib/LiquidityMath.sol\":432:445  sqrtPriceBX96 */\n      dup3\n        /* \"lib/LiquidityMath.sol\":416:445  sqrtPriceAX96 > sqrtPriceBX96 */\n      0xffffffffffffffffffffffffffffffffffffffff\n      and\n        /* \"lib/LiquidityMath.sol\":416:429  sqrtPriceAX96 */\n      dup5\n        /* \"lib/LiquidityMath.sol\":416:445  sqrtPriceAX96 > sqrtPriceBX96 */\n      0xffffffffffffffffffffffffffffffffffffffff\n      and\n      gt\n        /* \"lib/LiquidityMath.sol\":412:523  if (sqrtPriceAX96 > sqrtPriceBX96)... */\n      iszero\n      tag_177\n      jumpi\n        /* \"lib/LiquidityMath.sol\":494:507  sqrtPriceBX96 */\n      dup3\n        /* \"lib/LiquidityMath.sol\":509:522  sqrtPriceAX96 */\n      dup5\n        /* \"lib/LiquidityMath.sol\":460:523  (sqrtPriceAX96, sqrtPriceBX96) = (sqrtPriceBX96, sqrtPriceAX96) */\n      dup1\n      swap5\n      pop\n      dup2\n      swap6\n      pop\n      pop\n      pop\n        /* \"lib/LiquidityMath.sol\":412:523  if (sqrtPriceAX96 > sqrtPriceBX96)... */\n    tag_177:\n        /* \"lib/LiquidityMath.sol\":536:556  uint256 intermediate */\n      0x00\n        /* \"lib/LiquidityMath.sol\":559:671  PRBMath.mulDiv(... */\n      tag_178\n        /* \"lib/LiquidityMath.sol\":588:601  sqrtPriceAX96 */\n      dup6\n        /* \"lib/LiquidityMath.sol\":559:671  PRBMath.mulDiv(... */\n      0xffffffffffffffffffffffffffffffffffffffff\n      and\n        /* \"lib/LiquidityMath.sol\":616:629  sqrtPriceBX96 */\n      dup6\n        /* \"lib/LiquidityMath.sol\":559:671  PRBMath.mulDiv(... */\n      0xffffffffffffffffffffffffffffffffffffffff\n      and\n        /* \"lib/FixedPoint96.sol\":180:185  2**96 */\n      0x01000000000000000000000000\n        /* \"lib/LiquidityMath.sol\":559:573  PRBMath.mulDiv */\n      tag_179\n        /* \"lib/LiquidityMath.sol\":559:671  PRBMath.mulDiv(... */\n      jump\t// in\n    tag_178:\n        /* \"lib/LiquidityMath.sol\":536:671  uint256 intermediate = PRBMath.mulDiv(... */\n      swap1\n      pop\n        /* \"lib/LiquidityMath.sol\":716:784  PRBMath.mulDiv(amount0, intermediate, sqrtPriceBX96 - sqrtPriceAX96) */\n      tag_180\n        /* \"lib/LiquidityMath.sol\":731:738  amount0 */\n      dup4\n        /* \"lib/LiquidityMath.sol\":740:752  intermediate */\n      dup3\n        /* \"lib/LiquidityMath.sol\":770:783  sqrtPriceAX96 */\n      dup8\n        /* \"lib/LiquidityMath.sol\":754:767  sqrtPriceBX96 */\n      dup8\n        /* \"lib/LiquidityMath.sol\":754:783  sqrtPriceBX96 - sqrtPriceAX96 */\n      tag_181\n      swap2\n      swap1\n      tag_80\n      jump\t// in\n    tag_181:\n        /* \"lib/LiquidityMath.sol\":716:784  PRBMath.mulDiv(amount0, intermediate, sqrtPriceBX96 - sqrtPriceAX96) */\n      0xffffffffffffffffffffffffffffffffffffffff\n      and\n        /* \"lib/LiquidityMath.sol\":716:730  PRBMath.mulDiv */\n      tag_179\n        /* \"lib/LiquidityMath.sol\":716:784  PRBMath.mulDiv(amount0, intermediate, sqrtPriceBX96 - sqrtPriceAX96) */\n      jump\t// in\n    tag_180:\n        /* \"lib/LiquidityMath.sol\":682:795  liquidity = uint128(... */\n      swap2\n      pop\n        /* \"lib/LiquidityMath.sol\":401:803  {... */\n      pop\n        /* \"lib/LiquidityMath.sol\":230:803  function getLiquidityForAmount0(... */\n      swap4\n      swap3\n      pop\n      pop\n      pop\n      jump\t// out\n        /* \"lib/LiquidityMath.sol\":859:1356  function getLiquidityForAmount1(... */\n    tag_171:\n        /* \"lib/LiquidityMath.sol\":1011:1028  uint128 liquidity */\n      0x00\n        /* \"lib/LiquidityMath.sol\":1061:1074  sqrtPriceBX96 */\n      dup3\n        /* \"lib/LiquidityMath.sol\":1045:1074  sqrtPriceAX96 > sqrtPriceBX96 */\n      0xffffffffffffffffffffffffffffffffffffffff\n      and\n        /* \"lib/LiquidityMath.sol\":1045:1058  sqrtPriceAX96 */\n      dup5\n        /* \"lib/LiquidityMath.sol\":1045:1074  sqrtPriceAX96 > sqrtPriceBX96 */\n      0xffffffffffffffffffffffffffffffffffffffff\n      and\n      gt\n        /* \"lib/LiquidityMath.sol\":1041:1152  if (sqrtPriceAX96 > sqrtPriceBX96)... */\n      iszero\n      tag_183\n      jumpi\n        /* \"lib/LiquidityMath.sol\":1123:1136  sqrtPriceBX96 */\n      dup3\n        /* \"lib/LiquidityMath.sol\":1138:1151  sqrtPriceAX96 */\n      dup5\n        /* \"lib/LiquidityMath.sol\":1089:1152  (sqrtPriceAX96, sqrtPriceBX96) = (sqrtPriceBX96, sqrtPriceAX96) */\n      dup1\n      swap5\n      pop\n      dup2\n      swap6\n      pop\n      pop\n      pop\n        /* \"lib/LiquidityMath.sol\":1041:1152  if (sqrtPriceAX96 > sqrtPriceBX96)... */\n    tag_183:\n        /* \"lib/LiquidityMath.sol\":1199:1337  PRBMath.mulDiv(... */\n      tag_184\n        /* \"lib/LiquidityMath.sol\":1232:1239  amount1 */\n      dup3\n        /* \"lib/FixedPoint96.sol\":180:185  2**96 */\n      0x01000000000000000000000000\n        /* \"lib/LiquidityMath.sol\":1309:1322  sqrtPriceAX96 */\n      dup7\n        /* \"lib/LiquidityMath.sol\":1293:1306  sqrtPriceBX96 */\n      dup7\n        /* \"lib/LiquidityMath.sol\":1293:1322  sqrtPriceBX96 - sqrtPriceAX96 */\n      tag_185\n      swap2\n      swap1\n      tag_80\n      jump\t// in\n    tag_185:\n        /* \"lib/LiquidityMath.sol\":1199:1337  PRBMath.mulDiv(... */\n      0xffffffffffffffffffffffffffffffffffffffff\n      and\n        /* \"lib/LiquidityMath.sol\":1199:1213  PRBMath.mulDiv */\n      tag_179\n        /* \"lib/LiquidityMath.sol\":1199:1337  PRBMath.mulDiv(... */\n      jump\t// in\n    tag_184:\n        /* \"lib/LiquidityMath.sol\":1165:1348  liquidity = uint128(... */\n      swap1\n      pop\n        /* \"lib/LiquidityMath.sol\":859:1356  function getLiquidityForAmount1(... */\n      swap4\n      swap3\n      pop\n      pop\n      pop\n      jump\t// out\n        /* \"lib/PRBMath.sol\":15472:19539  function mulDiv(... */\n    tag_179:\n        /* \"lib/PRBMath.sol\":15588:15602  uint256 result */\n      0x00\n        /* \"lib/PRBMath.sol\":15903:15916  uint256 prod0 */\n      dup1\n        /* \"lib/PRBMath.sol\":15972:15985  uint256 prod1 */\n      0x00\n        /* \"lib/PRBMath.sol\":16091:16092  0 */\n      dup1\n        /* \"lib/PRBMath.sol\":16087:16093  not(0) */\n      not\n        /* \"lib/PRBMath.sol\":16084:16085  y */\n      dup6\n        /* \"lib/PRBMath.sol\":16081:16082  x */\n      dup8\n        /* \"lib/PRBMath.sol\":16074:16094  mulmod(x, y, not(0)) */\n      mulmod\n        /* \"lib/PRBMath.sol\":16124:16125  y */\n      dup6\n        /* \"lib/PRBMath.sol\":16121:16122  x */\n      dup8\n        /* \"lib/PRBMath.sol\":16117:16126  mul(x, y) */\n      mul\n        /* \"lib/PRBMath.sol\":16108:16126  prod0 := mul(x, y) */\n      swap3\n      pop\n        /* \"lib/PRBMath.sol\":16176:16181  prod0 */\n      dup3\n        /* \"lib/PRBMath.sol\":16172:16174  mm */\n      dup2\n        /* \"lib/PRBMath.sol\":16169:16182  lt(mm, prod0) */\n      lt\n        /* \"lib/PRBMath.sol\":16161:16166  prod0 */\n      dup4\n        /* \"lib/PRBMath.sol\":16157:16159  mm */\n      dup3\n        /* \"lib/PRBMath.sol\":16153:16167  sub(mm, prod0) */\n      sub\n        /* \"lib/PRBMath.sol\":16149:16183  sub(sub(mm, prod0), lt(mm, prod0)) */\n      sub\n        /* \"lib/PRBMath.sol\":16140:16183  prod1 := sub(sub(mm, prod0), lt(mm, prod0)) */\n      swap2\n      pop\n        /* \"lib/PRBMath.sol\":16049:16194  {... */\n      pop\n        /* \"lib/PRBMath.sol\":16279:16280  0 */\n      0x00\n        /* \"lib/PRBMath.sol\":16270:16275  prod1 */\n      dup2\n        /* \"lib/PRBMath.sol\":16270:16280  prod1 == 0 */\n      sub\n        /* \"lib/PRBMath.sol\":16266:16409  if (prod1 == 0) {... */\n      tag_187\n      jumpi\n        /* \"lib/PRBMath.sol\":16343:16354  denominator */\n      dup4\n        /* \"lib/PRBMath.sol\":16335:16340  prod0 */\n      dup3\n        /* \"lib/PRBMath.sol\":16335:16354  prod0 / denominator */\n      dup2\n      tag_188\n      jumpi\n      tag_189\n      tag_190\n      jump\t// in\n    tag_189:\n    tag_188:\n      div\n        /* \"lib/PRBMath.sol\":16326:16354  result = prod0 / denominator */\n      swap3\n      pop\n        /* \"lib/PRBMath.sol\":16384:16397  return result */\n      pop\n      pop\n      jump(tag_186)\n        /* \"lib/PRBMath.sol\":16266:16409  if (prod1 == 0) {... */\n    tag_187:\n        /* \"lib/PRBMath.sol\":16519:16530  denominator */\n      dup4\n        /* \"lib/PRBMath.sol\":16510:16515  prod1 */\n      dup2\n        /* \"lib/PRBMath.sol\":16510:16530  prod1 >= denominator */\n      lt\n        /* \"lib/PRBMath.sol\":16506:16609  if (prod1 >= denominator) {... */\n      tag_191\n      jumpi\n        /* \"lib/PRBMath.sol\":16578:16583  prod1 */\n      dup1\n        /* \"lib/PRBMath.sol\":16585:16596  denominator */\n      dup5\n        /* \"lib/PRBMath.sol\":16554:16597  PRBMath__MulDivOverflow(prod1, denominator) */\n      mload(0x40)\n      0x773cc18c00000000000000000000000000000000000000000000000000000000\n      dup2\n      mstore\n      0x04\n      add\n      tag_192\n      swap3\n      swap2\n      swap1\n      tag_12\n      jump\t// in\n    tag_192:\n      mload(0x40)\n      dup1\n      swap2\n      sub\n      swap1\n      revert\n        /* \"lib/PRBMath.sol\":16506:16609  if (prod1 >= denominator) {... */\n    tag_191:\n        /* \"lib/PRBMath.sol\":16851:16868  uint256 remainder */\n      0x00\n        /* \"lib/PRBMath.sol\":16977:16988  denominator */\n      dup5\n        /* \"lib/PRBMath.sol\":16974:16975  y */\n      dup7\n        /* \"lib/PRBMath.sol\":16971:16972  x */\n      dup9\n        /* \"lib/PRBMath.sol\":16964:16989  mulmod(x, y, denominator) */\n      mulmod\n        /* \"lib/PRBMath.sol\":16951:16989  remainder := mulmod(x, y, denominator) */\n      swap1\n      pop\n        /* \"lib/PRBMath.sol\":17100:17105  prod0 */\n      dup3\n        /* \"lib/PRBMath.sol\":17089:17098  remainder */\n      dup2\n        /* \"lib/PRBMath.sol\":17086:17106  gt(remainder, prod0) */\n      gt\n        /* \"lib/PRBMath.sol\":17079:17084  prod1 */\n      dup3\n        /* \"lib/PRBMath.sol\":17075:17107  sub(prod1, gt(remainder, prod0)) */\n      sub\n        /* \"lib/PRBMath.sol\":17066:17107  prod1 := sub(prod1, gt(remainder, prod0)) */\n      swap2\n      pop\n        /* \"lib/PRBMath.sol\":17141:17150  remainder */\n      dup1\n        /* \"lib/PRBMath.sol\":17134:17139  prod0 */\n      dup4\n        /* \"lib/PRBMath.sol\":17130:17151  sub(prod0, remainder) */\n      sub\n        /* \"lib/PRBMath.sol\":17121:17151  prod0 := sub(prod0, remainder) */\n      swap3\n      pop\n        /* \"lib/PRBMath.sol\":17486:17501  uint256 lpotdod */\n      0x00\n        /* \"lib/PRBMath.sol\":17534:17535  1 */\n      0x01\n        /* \"lib/PRBMath.sol\":17520:17531  denominator */\n      dup7\n        /* \"lib/PRBMath.sol\":17519:17531  ~denominator */\n      not\n        /* \"lib/PRBMath.sol\":17519:17535  ~denominator + 1 */\n      add\n        /* \"lib/PRBMath.sol\":17504:17515  denominator */\n      dup7\n        /* \"lib/PRBMath.sol\":17504:17536  denominator & (~denominator + 1) */\n      and\n        /* \"lib/PRBMath.sol\":17486:17536  uint256 lpotdod = denominator & (~denominator + 1) */\n      swap1\n      pop\n        /* \"lib/PRBMath.sol\":17662:17669  lpotdod */\n      dup1\n        /* \"lib/PRBMath.sol\":17649:17660  denominator */\n      dup7\n        /* \"lib/PRBMath.sol\":17645:17670  div(denominator, lpotdod) */\n      div\n        /* \"lib/PRBMath.sol\":17630:17670  denominator := div(denominator, lpotdod) */\n      swap6\n      pop\n        /* \"lib/PRBMath.sol\":17763:17770  lpotdod */\n      dup1\n        /* \"lib/PRBMath.sol\":17756:17761  prod0 */\n      dup5\n        /* \"lib/PRBMath.sol\":17752:17771  div(prod0, lpotdod) */\n      div\n        /* \"lib/PRBMath.sol\":17743:17771  prod0 := div(prod0, lpotdod) */\n      swap4\n      pop\n        /* \"lib/PRBMath.sol\":17944:17945  1 */\n      0x01\n        /* \"lib/PRBMath.sol\":17934:17941  lpotdod */\n      dup2\n        /* \"lib/PRBMath.sol\":17924:17931  lpotdod */\n      dup3\n        /* \"lib/PRBMath.sol\":17921:17922  0 */\n      0x00\n        /* \"lib/PRBMath.sol\":17917:17932  sub(0, lpotdod) */\n      sub\n        /* \"lib/PRBMath.sol\":17913:17942  div(sub(0, lpotdod), lpotdod) */\n      div\n        /* \"lib/PRBMath.sol\":17909:17946  add(div(sub(0, lpotdod), lpotdod), 1) */\n      add\n        /* \"lib/PRBMath.sol\":17898:17946  lpotdod := add(div(sub(0, lpotdod), lpotdod), 1) */\n      swap1\n      pop\n        /* \"lib/PRBMath.sol\":18047:18054  lpotdod */\n      dup1\n        /* \"lib/PRBMath.sol\":18039:18044  prod1 */\n      dup4\n        /* \"lib/PRBMath.sol\":18039:18054  prod1 * lpotdod */\n      mul\n        /* \"lib/PRBMath.sol\":18030:18054  prod0 |= prod1 * lpotdod */\n      dup5\n      or\n      swap4\n      pop\n        /* \"lib/PRBMath.sol\":18377:18392  uint256 inverse */\n      0x00\n        /* \"lib/PRBMath.sol\":18415:18416  2 */\n      0x02\n        /* \"lib/PRBMath.sol\":18400:18411  denominator */\n      dup8\n        /* \"lib/PRBMath.sol\":18396:18397  3 */\n      0x03\n        /* \"lib/PRBMath.sol\":18396:18411  3 * denominator */\n      mul\n        /* \"lib/PRBMath.sol\":18395:18416  (3 * denominator) ^ 2 */\n      xor\n        /* \"lib/PRBMath.sol\":18377:18416  uint256 inverse = (3 * denominator) ^ 2 */\n      swap1\n      pop\n        /* \"lib/PRBMath.sol\":18666:18673  inverse */\n      dup1\n        /* \"lib/PRBMath.sol\":18652:18663  denominator */\n      dup8\n        /* \"lib/PRBMath.sol\":18652:18673  denominator * inverse */\n      mul\n        /* \"lib/PRBMath.sol\":18648:18649  2 */\n      0x02\n        /* \"lib/PRBMath.sol\":18648:18673  2 - denominator * inverse */\n      sub\n        /* \"lib/PRBMath.sol\":18637:18673  inverse *= 2 - denominator * inverse */\n      dup2\n      mul\n      swap1\n      pop\n        /* \"lib/PRBMath.sol\":18736:18743  inverse */\n      dup1\n        /* \"lib/PRBMath.sol\":18722:18733  denominator */\n      dup8\n        /* \"lib/PRBMath.sol\":18722:18743  denominator * inverse */\n      mul\n        /* \"lib/PRBMath.sol\":18718:18719  2 */\n      0x02\n        /* \"lib/PRBMath.sol\":18718:18743  2 - denominator * inverse */\n      sub\n        /* \"lib/PRBMath.sol\":18707:18743  inverse *= 2 - denominator * inverse */\n      dup2\n      mul\n      swap1\n      pop\n        /* \"lib/PRBMath.sol\":18807:18814  inverse */\n      dup1\n        /* \"lib/PRBMath.sol\":18793:18804  denominator */\n      dup8\n        /* \"lib/PRBMath.sol\":18793:18814  denominator * inverse */\n      mul\n        /* \"lib/PRBMath.sol\":18789:18790  2 */\n      0x02\n        /* \"lib/PRBMath.sol\":18789:18814  2 - denominator * inverse */\n      sub\n        /* \"lib/PRBMath.sol\":18778:18814  inverse *= 2 - denominator * inverse */\n      dup2\n      mul\n      swap1\n      pop\n        /* \"lib/PRBMath.sol\":18878:18885  inverse */\n      dup1\n        /* \"lib/PRBMath.sol\":18864:18875  denominator */\n      dup8\n        /* \"lib/PRBMath.sol\":18864:18885  denominator * inverse */\n      mul\n        /* \"lib/PRBMath.sol\":18860:18861  2 */\n      0x02\n        /* \"lib/PRBMath.sol\":18860:18885  2 - denominator * inverse */\n      sub\n        /* \"lib/PRBMath.sol\":18849:18885  inverse *= 2 - denominator * inverse */\n      dup2\n      mul\n      swap1\n      pop\n        /* \"lib/PRBMath.sol\":18949:18956  inverse */\n      dup1\n        /* \"lib/PRBMath.sol\":18935:18946  denominator */\n      dup8\n        /* \"lib/PRBMath.sol\":18935:18956  denominator * inverse */\n      mul\n        /* \"lib/PRBMath.sol\":18931:18932  2 */\n      0x02\n        /* \"lib/PRBMath.sol\":18931:18956  2 - denominator * inverse */\n      sub\n        /* \"lib/PRBMath.sol\":18920:18956  inverse *= 2 - denominator * inverse */\n      dup2\n      mul\n      swap1\n      pop\n        /* \"lib/PRBMath.sol\":19021:19028  inverse */\n      dup1\n        /* \"lib/PRBMath.sol\":19007:19018  denominator */\n      dup8\n        /* \"lib/PRBMath.sol\":19007:19028  denominator * inverse */\n      mul\n        /* \"lib/PRBMath.sol\":19003:19004  2 */\n      0x02\n        /* \"lib/PRBMath.sol\":19003:19028  2 - denominator * inverse */\n      sub\n        /* \"lib/PRBMath.sol\":18992:19028  inverse *= 2 - denominator * inverse */\n      dup2\n      mul\n      swap1\n      pop\n        /* \"lib/PRBMath.sol\":19485:19492  inverse */\n      dup1\n        /* \"lib/PRBMath.sol\":19477:19482  prod0 */\n      dup6\n        /* \"lib/PRBMath.sol\":19477:19492  prod0 * inverse */\n      mul\n        /* \"lib/PRBMath.sol\":19468:19492  result = prod0 * inverse */\n      swap6\n      pop\n        /* \"lib/PRBMath.sol\":19507:19520  return result */\n      pop\n      pop\n      pop\n      pop\n      pop\n        /* \"lib/PRBMath.sol\":15472:19539  function mulDiv(... */\n    tag_186:\n      swap4\n      swap3\n      pop\n      pop\n      pop\n      jump\t// out\n        /* \"#utility.yul\":7:82   */\n    tag_193:\n        /* \"#utility.yul\":40:46   */\n      0x00\n        /* \"#utility.yul\":73:75   */\n      0x40\n        /* \"#utility.yul\":67:76   */\n      mload\n        /* \"#utility.yul\":57:76   */\n      swap1\n      pop\n        /* \"#utility.yul\":7:82   */\n      swap1\n      jump\t// out\n        /* \"#utility.yul\":88:205   */\n    tag_194:\n        /* \"#utility.yul\":197:198   */\n      0x00\n        /* \"#utility.yul\":194:195   */\n      dup1\n        /* \"#utility.yul\":187:199   */\n      revert\n        /* \"#utility.yul\":211:328   */\n    tag_195:\n        /* \"#utility.yul\":320:321   */\n      0x00\n        /* \"#utility.yul\":317:318   */\n      dup1\n        /* \"#utility.yul\":310:322   */\n      revert\n        /* \"#utility.yul\":334:451   */\n    tag_196:\n        /* \"#utility.yul\":443:444   */\n      0x00\n        /* \"#utility.yul\":440:441   */\n      dup1\n        /* \"#utility.yul\":433:445   */\n      revert\n        /* \"#utility.yul\":500:734   */\n    tag_197:\n        /* \"#utility.yul\":575:580   */\n      0x00\n        /* \"#utility.yul\":616:619   */\n      0xe0\n        /* \"#utility.yul\":607:613   */\n      dup3\n        /* \"#utility.yul\":602:605   */\n      dup5\n        /* \"#utility.yul\":598:614   */\n      sub\n        /* \"#utility.yul\":594:620   */\n      slt\n        /* \"#utility.yul\":591:704   */\n      iszero\n      tag_259\n      jumpi\n        /* \"#utility.yul\":623:702   */\n      tag_260\n      tag_196\n      jump\t// in\n    tag_260:\n        /* \"#utility.yul\":591:704   */\n    tag_259:\n        /* \"#utility.yul\":722:728   */\n      dup2\n        /* \"#utility.yul\":713:728   */\n      swap1\n      pop\n        /* \"#utility.yul\":500:734   */\n      swap3\n      swap2\n      pop\n      pop\n      jump\t// out\n        /* \"#utility.yul\":740:1128   */\n    tag_9:\n        /* \"#utility.yul\":828:834   */\n      0x00\n        /* \"#utility.yul\":877:880   */\n      0xe0\n        /* \"#utility.yul\":865:874   */\n      dup3\n        /* \"#utility.yul\":856:863   */\n      dup5\n        /* \"#utility.yul\":852:875   */\n      sub\n        /* \"#utility.yul\":848:881   */\n      slt\n        /* \"#utility.yul\":845:965   */\n      iszero\n      tag_262\n      jumpi\n        /* \"#utility.yul\":884:963   */\n      tag_263\n      tag_194\n      jump\t// in\n    tag_263:\n        /* \"#utility.yul\":845:965   */\n    tag_262:\n        /* \"#utility.yul\":1004:1005   */\n      0x00\n        /* \"#utility.yul\":1029:1111   */\n      tag_264\n        /* \"#utility.yul\":1103:1110   */\n      dup5\n        /* \"#utility.yul\":1094:1100   */\n      dup3\n        /* \"#utility.yul\":1083:1092   */\n      dup6\n        /* \"#utility.yul\":1079:1101   */\n      add\n        /* \"#utility.yul\":1029:1111   */\n      tag_197\n      jump\t// in\n    tag_264:\n        /* \"#utility.yul\":1019:1111   */\n      swap2\n      pop\n        /* \"#utility.yul\":975:1121   */\n      pop\n        /* \"#utility.yul\":740:1128   */\n      swap3\n      swap2\n      pop\n      pop\n      jump\t// out\n        /* \"#utility.yul\":1134:1211   */\n    tag_198:\n        /* \"#utility.yul\":1171:1178   */\n      0x00\n        /* \"#utility.yul\":1200:1205   */\n      dup2\n        /* \"#utility.yul\":1189:1205   */\n      swap1\n      pop\n        /* \"#utility.yul\":1134:1211   */\n      swap2\n      swap1\n      pop\n      jump\t// out\n        /* \"#utility.yul\":1217:1335   */\n    tag_199:\n        /* \"#utility.yul\":1304:1328   */\n      tag_267\n        /* \"#utility.yul\":1322:1327   */\n      dup2\n        /* \"#utility.yul\":1304:1328   */\n      tag_198\n      jump\t// in\n    tag_267:\n        /* \"#utility.yul\":1299:1302   */\n      dup3\n        /* \"#utility.yul\":1292:1329   */\n      mstore\n        /* \"#utility.yul\":1217:1335   */\n      pop\n      pop\n      jump\t// out\n        /* \"#utility.yul\":1341:1673   */\n    tag_12:\n        /* \"#utility.yul\":1462:1466   */\n      0x00\n        /* \"#utility.yul\":1500:1502   */\n      0x40\n        /* \"#utility.yul\":1489:1498   */\n      dup3\n        /* \"#utility.yul\":1485:1503   */\n      add\n        /* \"#utility.yul\":1477:1503   */\n      swap1\n      pop\n        /* \"#utility.yul\":1513:1584   */\n      tag_269\n        /* \"#utility.yul\":1581:1582   */\n      0x00\n        /* \"#utility.yul\":1570:1579   */\n      dup4\n        /* \"#utility.yul\":1566:1583   */\n      add\n        /* \"#utility.yul\":1557:1563   */\n      dup6\n        /* \"#utility.yul\":1513:1584   */\n      tag_199\n      jump\t// in\n    tag_269:\n        /* \"#utility.yul\":1594:1666   */\n      tag_270\n        /* \"#utility.yul\":1662:1664   */\n      0x20\n        /* \"#utility.yul\":1651:1660   */\n      dup4\n        /* \"#utility.yul\":1647:1665   */\n      add\n        /* \"#utility.yul\":1638:1644   */\n      dup5\n        /* \"#utility.yul\":1594:1666   */\n      tag_199\n      jump\t// in\n    tag_270:\n        /* \"#utility.yul\":1341:1673   */\n      swap4\n      swap3\n      pop\n      pop\n      pop\n      jump\t// out\n        /* \"#utility.yul\":1679:1801   */\n    tag_200:\n        /* \"#utility.yul\":1752:1776   */\n      tag_272\n        /* \"#utility.yul\":1770:1775   */\n      dup2\n        /* \"#utility.yul\":1752:1776   */\n      tag_198\n      jump\t// in\n    tag_272:\n        /* \"#utility.yul\":1745:1750   */\n      dup2\n        /* \"#utility.yul\":1742:1777   */\n      eq\n        /* \"#utility.yul\":1732:1795   */\n      tag_273\n      jumpi\n        /* \"#utility.yul\":1791:1792   */\n      0x00\n        /* \"#utility.yul\":1788:1789   */\n      dup1\n        /* \"#utility.yul\":1781:1793   */\n      revert\n        /* \"#utility.yul\":1732:1795   */\n    tag_273:\n        /* \"#utility.yul\":1679:1801   */\n      pop\n      jump\t// out\n        /* \"#utility.yul\":1807:1946   */\n    tag_201:\n        /* \"#utility.yul\":1853:1858   */\n      0x00\n        /* \"#utility.yul\":1891:1897   */\n      dup2\n        /* \"#utility.yul\":1878:1898   */\n      calldataload\n        /* \"#utility.yul\":1869:1898   */\n      swap1\n      pop\n        /* \"#utility.yul\":1907:1940   */\n      tag_275\n        /* \"#utility.yul\":1934:1939   */\n      dup2\n        /* \"#utility.yul\":1907:1940   */\n      tag_200\n      jump\t// in\n    tag_275:\n        /* \"#utility.yul\":1807:1946   */\n      swap3\n      swap2\n      pop\n      pop\n      jump\t// out\n        /* \"#utility.yul\":1952:2069   */\n    tag_202:\n        /* \"#utility.yul\":2061:2062   */\n      0x00\n        /* \"#utility.yul\":2058:2059   */\n      dup1\n        /* \"#utility.yul\":2051:2063   */\n      revert\n        /* \"#utility.yul\":2075:2192   */\n    tag_203:\n        /* \"#utility.yul\":2184:2185   */\n      0x00\n        /* \"#utility.yul\":2181:2182   */\n      dup1\n        /* \"#utility.yul\":2174:2186   */\n      revert\n        /* \"#utility.yul\":2198:2315   */\n    tag_204:\n        /* \"#utility.yul\":2307:2308   */\n      0x00\n        /* \"#utility.yul\":2304:2305   */\n      dup1\n        /* \"#utility.yul\":2297:2309   */\n      revert\n        /* \"#utility.yul\":2334:2886   */\n    tag_205:\n        /* \"#utility.yul\":2391:2399   */\n      0x00\n        /* \"#utility.yul\":2401:2407   */\n      dup1\n        /* \"#utility.yul\":2451:2454   */\n      dup4\n        /* \"#utility.yul\":2444:2448   */\n      0x1f\n        /* \"#utility.yul\":2436:2442   */\n      dup5\n        /* \"#utility.yul\":2432:2449   */\n      add\n        /* \"#utility.yul\":2428:2455   */\n      slt\n        /* \"#utility.yul\":2418:2540   */\n      tag_280\n      jumpi\n        /* \"#utility.yul\":2459:2538   */\n      tag_281\n      tag_202\n      jump\t// in\n    tag_281:\n        /* \"#utility.yul\":2418:2540   */\n    tag_280:\n        /* \"#utility.yul\":2572:2578   */\n      dup3\n        /* \"#utility.yul\":2559:2579   */\n      calldataload\n        /* \"#utility.yul\":2549:2579   */\n      swap1\n      pop\n        /* \"#utility.yul\":2602:2620   */\n      0xffffffffffffffff\n        /* \"#utility.yul\":2594:2600   */\n      dup2\n        /* \"#utility.yul\":2591:2621   */\n      gt\n        /* \"#utility.yul\":2588:2705   */\n      iszero\n      tag_282\n      jumpi\n        /* \"#utility.yul\":2624:2703   */\n      tag_283\n      tag_203\n      jump\t// in\n    tag_283:\n        /* \"#utility.yul\":2588:2705   */\n    tag_282:\n        /* \"#utility.yul\":2738:2742   */\n      0x20\n        /* \"#utility.yul\":2730:2736   */\n      dup4\n        /* \"#utility.yul\":2726:2743   */\n      add\n        /* \"#utility.yul\":2714:2743   */\n      swap2\n      pop\n        /* \"#utility.yul\":2792:2795   */\n      dup4\n        /* \"#utility.yul\":2784:2788   */\n      0x01\n        /* \"#utility.yul\":2776:2782   */\n      dup3\n        /* \"#utility.yul\":2772:2789   */\n      mul\n        /* \"#utility.yul\":2762:2770   */\n      dup4\n        /* \"#utility.yul\":2758:2790   */\n      add\n        /* \"#utility.yul\":2755:2796   */\n      gt\n        /* \"#utility.yul\":2752:2880   */\n      iszero\n      tag_284\n      jumpi\n        /* \"#utility.yul\":2799:2878   */\n      tag_285\n      tag_204\n      jump\t// in\n    tag_285:\n        /* \"#utility.yul\":2752:2880   */\n    tag_284:\n        /* \"#utility.yul\":2334:2886   */\n      swap3\n      pop\n      swap3\n      swap1\n      pop\n      jump\t// out\n        /* \"#utility.yul\":2892:3709   */\n    tag_15:\n        /* \"#utility.yul\":2980:2986   */\n      0x00\n        /* \"#utility.yul\":2988:2994   */\n      dup1\n        /* \"#utility.yul\":2996:3002   */\n      0x00\n        /* \"#utility.yul\":3004:3010   */\n      dup1\n        /* \"#utility.yul\":3053:3055   */\n      0x60\n        /* \"#utility.yul\":3041:3050   */\n      dup6\n        /* \"#utility.yul\":3032:3039   */\n      dup8\n        /* \"#utility.yul\":3028:3051   */\n      sub\n        /* \"#utility.yul\":3024:3056   */\n      slt\n        /* \"#utility.yul\":3021:3140   */\n      iszero\n      tag_287\n      jumpi\n        /* \"#utility.yul\":3059:3138   */\n      tag_288\n      tag_194\n      jump\t// in\n    tag_288:\n        /* \"#utility.yul\":3021:3140   */\n    tag_287:\n        /* \"#utility.yul\":3179:3180   */\n      0x00\n        /* \"#utility.yul\":3204:3257   */\n      tag_289\n        /* \"#utility.yul\":3249:3256   */\n      dup8\n        /* \"#utility.yul\":3240:3246   */\n      dup3\n        /* \"#utility.yul\":3229:3238   */\n      dup9\n        /* \"#utility.yul\":3225:3247   */\n      add\n        /* \"#utility.yul\":3204:3257   */\n      tag_201\n      jump\t// in\n    tag_289:\n        /* \"#utility.yul\":3194:3257   */\n      swap5\n      pop\n        /* \"#utility.yul\":3150:3267   */\n      pop\n        /* \"#utility.yul\":3306:3308   */\n      0x20\n        /* \"#utility.yul\":3332:3385   */\n      tag_290\n        /* \"#utility.yul\":3377:3384   */\n      dup8\n        /* \"#utility.yul\":3368:3374   */\n      dup3\n        /* \"#utility.yul\":3357:3366   */\n      dup9\n        /* \"#utility.yul\":3353:3375   */\n      add\n        /* \"#utility.yul\":3332:3385   */\n      tag_201\n      jump\t// in\n    tag_290:\n        /* \"#utility.yul\":3322:3385   */\n      swap4\n      pop\n        /* \"#utility.yul\":3277:3395   */\n      pop\n        /* \"#utility.yul\":3462:3464   */\n      0x40\n        /* \"#utility.yul\":3451:3460   */\n      dup6\n        /* \"#utility.yul\":3447:3465   */\n      add\n        /* \"#utility.yul\":3434:3466   */\n      calldataload\n        /* \"#utility.yul\":3493:3511   */\n      0xffffffffffffffff\n        /* \"#utility.yul\":3485:3491   */\n      dup2\n        /* \"#utility.yul\":3482:3512   */\n      gt\n        /* \"#utility.yul\":3479:3596   */\n      iszero\n      tag_291\n      jumpi\n        /* \"#utility.yul\":3515:3594   */\n      tag_292\n      tag_195\n      jump\t// in\n    tag_292:\n        /* \"#utility.yul\":3479:3596   */\n    tag_291:\n        /* \"#utility.yul\":3628:3692   */\n      tag_293\n        /* \"#utility.yul\":3684:3691   */\n      dup8\n        /* \"#utility.yul\":3675:3681   */\n      dup3\n        /* \"#utility.yul\":3664:3673   */\n      dup9\n        /* \"#utility.yul\":3660:3682   */\n      add\n        /* \"#utility.yul\":3628:3692   */\n      tag_205\n      jump\t// in\n    tag_293:\n        /* \"#utility.yul\":3610:3692   */\n      swap3\n      pop\n      swap3\n      pop\n        /* \"#utility.yul\":3405:3702   */\n      pop\n        /* \"#utility.yul\":2892:3709   */\n      swap3\n      swap6\n      swap2\n      swap5\n      pop\n      swap3\n      pop\n      jump\t// out\n        /* \"#utility.yul\":3715:3841   */\n    tag_206:\n        /* \"#utility.yul\":3752:3759   */\n      0x00\n        /* \"#utility.yul\":3792:3834   */\n      0xffffffffffffffffffffffffffffffffffffffff\n        /* \"#utility.yul\":3785:3790   */\n      dup3\n        /* \"#utility.yul\":3781:3835   */\n      and\n        /* \"#utility.yul\":3770:3835   */\n      swap1\n      pop\n        /* \"#utility.yul\":3715:3841   */\n      swap2\n      swap1\n      pop\n      jump\t// out\n        /* \"#utility.yul\":3847:3943   */\n    tag_207:\n        /* \"#utility.yul\":3884:3891   */\n      0x00\n        /* \"#utility.yul\":3913:3937   */\n      tag_296\n        /* \"#utility.yul\":3931:3936   */\n      dup3\n        /* \"#utility.yul\":3913:3937   */\n      tag_206\n      jump\t// in\n    tag_296:\n        /* \"#utility.yul\":3902:3937   */\n      swap1\n      pop\n        /* \"#utility.yul\":3847:3943   */\n      swap2\n      swap1\n      pop\n      jump\t// out\n        /* \"#utility.yul\":3949:4071   */\n    tag_208:\n        /* \"#utility.yul\":4022:4046   */\n      tag_298\n        /* \"#utility.yul\":4040:4045   */\n      dup2\n        /* \"#utility.yul\":4022:4046   */\n      tag_207\n      jump\t// in\n    tag_298:\n        /* \"#utility.yul\":4015:4020   */\n      dup2\n        /* \"#utility.yul\":4012:4047   */\n      eq\n        /* \"#utility.yul\":4002:4065   */\n      tag_299\n      jumpi\n        /* \"#utility.yul\":4061:4062   */\n      0x00\n        /* \"#utility.yul\":4058:4059   */\n      dup1\n        /* \"#utility.yul\":4051:4063   */\n      revert\n        /* \"#utility.yul\":4002:4065   */\n    tag_299:\n        /* \"#utility.yul\":3949:4071   */\n      pop\n      jump\t// out\n        /* \"#utility.yul\":4077:4216   */\n    tag_209:\n        /* \"#utility.yul\":4123:4128   */\n      0x00\n        /* \"#utility.yul\":4161:4167   */\n      dup2\n        /* \"#utility.yul\":4148:4168   */\n      calldataload\n        /* \"#utility.yul\":4139:4168   */\n      swap1\n      pop\n        /* \"#utility.yul\":4177:4210   */\n      tag_301\n        /* \"#utility.yul\":4204:4209   */\n      dup2\n        /* \"#utility.yul\":4177:4210   */\n      tag_208\n      jump\t// in\n    tag_301:\n        /* \"#utility.yul\":4077:4216   */\n      swap3\n      swap2\n      pop\n      pop\n      jump\t// out\n        /* \"#utility.yul\":4222:4312   */\n    tag_210:\n        /* \"#utility.yul\":4256:4263   */\n      0x00\n        /* \"#utility.yul\":4299:4304   */\n      dup2\n        /* \"#utility.yul\":4292:4305   */\n      iszero\n        /* \"#utility.yul\":4285:4306   */\n      iszero\n        /* \"#utility.yul\":4274:4306   */\n      swap1\n      pop\n        /* \"#utility.yul\":4222:4312   */\n      swap2\n      swap1\n      pop\n      jump\t// out\n        /* \"#utility.yul\":4318:4434   */\n    tag_211:\n        /* \"#utility.yul\":4388:4409   */\n      tag_304\n        /* \"#utility.yul\":4403:4408   */\n      dup2\n        /* \"#utility.yul\":4388:4409   */\n      tag_210\n      jump\t// in\n    tag_304:\n        /* \"#utility.yul\":4381:4386   */\n      dup2\n        /* \"#utility.yul\":4378:4410   */\n      eq\n        /* \"#utility.yul\":4368:4428   */\n      tag_305\n      jumpi\n        /* \"#utility.yul\":4424:4425   */\n      0x00\n        /* \"#utility.yul\":4421:4422   */\n      dup1\n        /* \"#utility.yul\":4414:4426   */\n      revert\n        /* \"#utility.yul\":4368:4428   */\n    tag_305:\n        /* \"#utility.yul\":4318:4434   */\n      pop\n      jump\t// out\n        /* \"#utility.yul\":4440:4573   */\n    tag_212:\n        /* \"#utility.yul\":4483:4488   */\n      0x00\n        /* \"#utility.yul\":4521:4527   */\n      dup2\n        /* \"#utility.yul\":4508:4528   */\n      calldataload\n        /* \"#utility.yul\":4499:4528   */\n      swap1\n      pop\n        /* \"#utility.yul\":4537:4567   */\n      tag_307\n        /* \"#utility.yul\":4561:4566   */\n      dup2\n        /* \"#utility.yul\":4537:4567   */\n      tag_211\n      jump\t// in\n    tag_307:\n        /* \"#utility.yul\":4440:4573   */\n      swap3\n      swap2\n      pop\n      pop\n      jump\t// out\n        /* \"#utility.yul\":4579:4701   */\n    tag_213:\n        /* \"#utility.yul\":4652:4676   */\n      tag_309\n        /* \"#utility.yul\":4670:4675   */\n      dup2\n        /* \"#utility.yul\":4652:4676   */\n      tag_206\n      jump\t// in\n    tag_309:\n        /* \"#utility.yul\":4645:4650   */\n      dup2\n        /* \"#utility.yul\":4642:4677   */\n      eq\n        /* \"#utility.yul\":4632:4695   */\n      tag_310\n      jumpi\n        /* \"#utility.yul\":4691:4692   */\n      0x00\n        /* \"#utility.yul\":4688:4689   */\n      dup1\n        /* \"#utility.yul\":4681:4693   */\n      revert\n        /* \"#utility.yul\":4632:4695   */\n    tag_310:\n        /* \"#utility.yul\":4579:4701   */\n      pop\n      jump\t// out\n        /* \"#utility.yul\":4707:4846   */\n    tag_214:\n        /* \"#utility.yul\":4753:4758   */\n      0x00\n        /* \"#utility.yul\":4791:4797   */\n      dup2\n        /* \"#utility.yul\":4778:4798   */\n      calldataload\n        /* \"#utility.yul\":4769:4798   */\n      swap1\n      pop\n        /* \"#utility.yul\":4807:4840   */\n      tag_312\n        /* \"#utility.yul\":4834:4839   */\n      dup2\n        /* \"#utility.yul\":4807:4840   */\n      tag_213\n      jump\t// in\n    tag_312:\n        /* \"#utility.yul\":4707:4846   */\n      swap3\n      swap2\n      pop\n      pop\n      jump\t// out\n        /* \"#utility.yul\":4852:5955   */\n    tag_19:\n        /* \"#utility.yul\":4955:4961   */\n      0x00\n        /* \"#utility.yul\":4963:4969   */\n      dup1\n        /* \"#utility.yul\":4971:4977   */\n      0x00\n        /* \"#utility.yul\":4979:4985   */\n      dup1\n        /* \"#utility.yul\":4987:4993   */\n      0x00\n        /* \"#utility.yul\":4995:5001   */\n      dup1\n        /* \"#utility.yul\":5044:5047   */\n      0xa0\n        /* \"#utility.yul\":5032:5041   */\n      dup8\n        /* \"#utility.yul\":5023:5030   */\n      dup10\n        /* \"#utility.yul\":5019:5042   */\n      sub\n        /* \"#utility.yul\":5015:5048   */\n      slt\n        /* \"#utility.yul\":5012:5132   */\n      iszero\n      tag_314\n      jumpi\n        /* \"#utility.yul\":5051:5130   */\n      tag_315\n      tag_194\n      jump\t// in\n    tag_315:\n        /* \"#utility.yul\":5012:5132   */\n    tag_314:\n        /* \"#utility.yul\":5171:5172   */\n      0x00\n        /* \"#utility.yul\":5196:5249   */\n      tag_316\n        /* \"#utility.yul\":5241:5248   */\n      dup10\n        /* \"#utility.yul\":5232:5238   */\n      dup3\n        /* \"#utility.yul\":5221:5230   */\n      dup11\n        /* \"#utility.yul\":5217:5239   */\n      add\n        /* \"#utility.yul\":5196:5249   */\n      tag_209\n      jump\t// in\n    tag_316:\n        /* \"#utility.yul\":5186:5249   */\n      swap7\n      pop\n        /* \"#utility.yul\":5142:5259   */\n      pop\n        /* \"#utility.yul\":5298:5300   */\n      0x20\n        /* \"#utility.yul\":5324:5374   */\n      tag_317\n        /* \"#utility.yul\":5366:5373   */\n      dup10\n        /* \"#utility.yul\":5357:5363   */\n      dup3\n        /* \"#utility.yul\":5346:5355   */\n      dup11\n        /* \"#utility.yul\":5342:5364   */\n      add\n        /* \"#utility.yul\":5324:5374   */\n      tag_212\n      jump\t// in\n    tag_317:\n        /* \"#utility.yul\":5314:5374   */\n      swap6\n      pop\n        /* \"#utility.yul\":5269:5384   */\n      pop\n        /* \"#utility.yul\":5423:5425   */\n      0x40\n        /* \"#utility.yul\":5449:5502   */\n      tag_318\n        /* \"#utility.yul\":5494:5501   */\n      dup10\n        /* \"#utility.yul\":5485:5491   */\n      dup3\n        /* \"#utility.yul\":5474:5483   */\n      dup11\n        /* \"#utility.yul\":5470:5492   */\n      add\n        /* \"#utility.yul\":5449:5502   */\n      tag_201\n      jump\t// in\n    tag_318:\n        /* \"#utility.yul\":5439:5502   */\n      swap5\n      pop\n        /* \"#utility.yul\":5394:5512   */\n      pop\n        /* \"#utility.yul\":5551:5553   */\n      0x60\n        /* \"#utility.yul\":5577:5630   */\n      tag_319\n        /* \"#utility.yul\":5622:5629   */\n      dup10\n        /* \"#utility.yul\":5613:5619   */\n      dup3\n        /* \"#utility.yul\":5602:5611   */\n      dup11\n        /* \"#utility.yul\":5598:5620   */\n      add\n        /* \"#utility.yul\":5577:5630   */\n      tag_214\n      jump\t// in\n    tag_319:\n        /* \"#utility.yul\":5567:5630   */\n      swap4\n      pop\n        /* \"#utility.yul\":5522:5640   */\n      pop\n        /* \"#utility.yul\":5707:5710   */\n      0x80\n        /* \"#utility.yul\":5696:5705   */\n      dup8\n        /* \"#utility.yul\":5692:5711   */\n      add\n        /* \"#utility.yul\":5679:5712   */\n      calldataload\n        /* \"#utility.yul\":5739:5757   */\n      0xffffffffffffffff\n        /* \"#utility.yul\":5731:5737   */\n      dup2\n        /* \"#utility.yul\":5728:5758   */\n      gt\n        /* \"#utility.yul\":5725:5842   */\n      iszero\n      tag_320\n      jumpi\n        /* \"#utility.yul\":5761:5840   */\n      tag_321\n      tag_195\n      jump\t// in\n    tag_321:\n        /* \"#utility.yul\":5725:5842   */\n    tag_320:\n        /* \"#utility.yul\":5874:5938   */\n      tag_322\n        /* \"#utility.yul\":5930:5937   */\n      dup10\n        /* \"#utility.yul\":5921:5927   */\n      dup3\n        /* \"#utility.yul\":5910:5919   */\n      dup11\n        /* \"#utility.yul\":5906:5928   */\n      add\n        /* \"#utility.yul\":5874:5938   */\n      tag_205\n      jump\t// in\n    tag_322:\n        /* \"#utility.yul\":5856:5938   */\n      swap3\n      pop\n      swap3\n      pop\n        /* \"#utility.yul\":5650:5948   */\n      pop\n        /* \"#utility.yul\":4852:5955   */\n      swap3\n      swap6\n      pop\n      swap3\n      swap6\n      pop\n      swap3\n      swap6\n      jump\t// out\n        /* \"#utility.yul\":5961:6037   */\n    tag_215:\n        /* \"#utility.yul\":5997:6004   */\n      0x00\n        /* \"#utility.yul\":6026:6031   */\n      dup2\n        /* \"#utility.yul\":6015:6031   */\n      swap1\n      pop\n        /* \"#utility.yul\":5961:6037   */\n      swap2\n      swap1\n      pop\n      jump\t// out\n        /* \"#utility.yul\":6043:6158   */\n    tag_216:\n        /* \"#utility.yul\":6128:6151   */\n      tag_325\n        /* \"#utility.yul\":6145:6150   */\n      dup2\n        /* \"#utility.yul\":6128:6151   */\n      tag_215\n      jump\t// in\n    tag_325:\n        /* \"#utility.yul\":6123:6126   */\n      dup3\n        /* \"#utility.yul\":6116:6152   */\n      mstore\n        /* \"#utility.yul\":6043:6158   */\n      pop\n      pop\n      jump\t// out\n        /* \"#utility.yul\":6164:6488   */\n    tag_22:\n        /* \"#utility.yul\":6281:6285   */\n      0x00\n        /* \"#utility.yul\":6319:6321   */\n      0x40\n        /* \"#utility.yul\":6308:6317   */\n      dup3\n        /* \"#utility.yul\":6304:6322   */\n      add\n        /* \"#utility.yul\":6296:6322   */\n      swap1\n      pop\n        /* \"#utility.yul\":6332:6401   */\n      tag_327\n        /* \"#utility.yul\":6398:6399   */\n      0x00\n        /* \"#utility.yul\":6387:6396   */\n      dup4\n        /* \"#utility.yul\":6383:6400   */\n      add\n        /* \"#utility.yul\":6374:6380   */\n      dup6\n        /* \"#utility.yul\":6332:6401   */\n      tag_216\n      jump\t// in\n    tag_327:\n        /* \"#utility.yul\":6411:6481   */\n      tag_328\n        /* \"#utility.yul\":6477:6479   */\n      0x20\n        /* \"#utility.yul\":6466:6475   */\n      dup4\n        /* \"#utility.yul\":6462:6480   */\n      add\n        /* \"#utility.yul\":6453:6459   */\n      dup5\n        /* \"#utility.yul\":6411:6481   */\n      tag_216\n      jump\t// in\n    tag_328:\n        /* \"#utility.yul\":6164:6488   */\n      swap4\n      swap3\n      pop\n      pop\n      pop\n      jump\t// out\n        /* \"#utility.yul\":6494:6614   */\n    tag_217:\n        /* \"#utility.yul\":6566:6589   */\n      tag_330\n        /* \"#utility.yul\":6583:6588   */\n      dup2\n        /* \"#utility.yul\":6566:6589   */\n      tag_215\n      jump\t// in\n    tag_330:\n        /* \"#utility.yul\":6559:6564   */\n      dup2\n        /* \"#utility.yul\":6556:6590   */\n      eq\n        /* \"#utility.yul\":6546:6608   */\n      tag_331\n      jumpi\n        /* \"#utility.yul\":6604:6605   */\n      0x00\n        /* \"#utility.yul\":6601:6602   */\n      dup1\n        /* \"#utility.yul\":6594:6606   */\n      revert\n        /* \"#utility.yul\":6546:6608   */\n    tag_331:\n        /* \"#utility.yul\":6494:6614   */\n      pop\n      jump\t// out\n        /* \"#utility.yul\":6620:6757   */\n    tag_218:\n        /* \"#utility.yul\":6665:6670   */\n      0x00\n        /* \"#utility.yul\":6703:6709   */\n      dup2\n        /* \"#utility.yul\":6690:6710   */\n      calldataload\n        /* \"#utility.yul\":6681:6710   */\n      swap1\n      pop\n        /* \"#utility.yul\":6719:6751   */\n      tag_333\n        /* \"#utility.yul\":6745:6750   */\n      dup2\n        /* \"#utility.yul\":6719:6751   */\n      tag_217\n      jump\t// in\n    tag_333:\n        /* \"#utility.yul\":6620:6757   */\n      swap3\n      swap2\n      pop\n      pop\n      jump\t// out\n        /* \"#utility.yul\":6763:7576   */\n    tag_25:\n        /* \"#utility.yul\":6849:6855   */\n      0x00\n        /* \"#utility.yul\":6857:6863   */\n      dup1\n        /* \"#utility.yul\":6865:6871   */\n      0x00\n        /* \"#utility.yul\":6873:6879   */\n      dup1\n        /* \"#utility.yul\":6922:6924   */\n      0x60\n        /* \"#utility.yul\":6910:6919   */\n      dup6\n        /* \"#utility.yul\":6901:6908   */\n      dup8\n        /* \"#utility.yul\":6897:6920   */\n      sub\n        /* \"#utility.yul\":6893:6925   */\n      slt\n        /* \"#utility.yul\":6890:7009   */\n      iszero\n      tag_335\n      jumpi\n        /* \"#utility.yul\":6928:7007   */\n      tag_336\n      tag_194\n      jump\t// in\n    tag_336:\n        /* \"#utility.yul\":6890:7009   */\n    tag_335:\n        /* \"#utility.yul\":7048:7049   */\n      0x00\n        /* \"#utility.yul\":7073:7125   */\n      tag_337\n        /* \"#utility.yul\":7117:7124   */\n      dup8\n        /* \"#utility.yul\":7108:7114   */\n      dup3\n        /* \"#utility.yul\":7097:7106   */\n      dup9\n        /* \"#utility.yul\":7093:7115   */\n      add\n        /* \"#utility.yul\":7073:7125   */\n      tag_218\n      jump\t// in\n    tag_337:\n        /* \"#utility.yul\":7063:7125   */\n      swap5\n      pop\n        /* \"#utility.yul\":7019:7135   */\n      pop\n        /* \"#utility.yul\":7174:7176   */\n      0x20\n        /* \"#utility.yul\":7200:7252   */\n      tag_338\n        /* \"#utility.yul\":7244:7251   */\n      dup8\n        /* \"#utility.yul\":7235:7241   */\n      dup3\n        /* \"#utility.yul\":7224:7233   */\n      dup9\n        /* \"#utility.yul\":7220:7242   */\n      add\n        /* \"#utility.yul\":7200:7252   */\n      tag_218\n      jump\t// in\n    tag_338:\n        /* \"#utility.yul\":7190:7252   */\n      swap4\n      pop\n        /* \"#utility.yul\":7145:7262   */\n      pop\n        /* \"#utility.yul\":7329:7331   */\n      0x40\n        /* \"#utility.yul\":7318:7327   */\n      dup6\n        /* \"#utility.yul\":7314:7332   */\n      add\n        /* \"#utility.yul\":7301:7333   */\n      calldataload\n        /* \"#utility.yul\":7360:7378   */\n      0xffffffffffffffff\n        /* \"#utility.yul\":7352:7358   */\n      dup2\n        /* \"#utility.yul\":7349:7379   */\n      gt\n        /* \"#utility.yul\":7346:7463   */\n      iszero\n      tag_339\n      jumpi\n        /* \"#utility.yul\":7382:7461   */\n      tag_340\n      tag_195\n      jump\t// in\n    tag_340:\n        /* \"#utility.yul\":7346:7463   */\n    tag_339:\n        /* \"#utility.yul\":7495:7559   */\n      tag_341\n        /* \"#utility.yul\":7551:7558   */\n      dup8\n        /* \"#utility.yul\":7542:7548   */\n      dup3\n        /* \"#utility.yul\":7531:7540   */\n      dup9\n        /* \"#utility.yul\":7527:7549   */\n      add\n        /* \"#utility.yul\":7495:7559   */\n      tag_205\n      jump\t// in\n    tag_341:\n        /* \"#utility.yul\":7477:7559   */\n      swap3\n      pop\n      swap3\n      pop\n        /* \"#utility.yul\":7272:7569   */\n      pop\n        /* \"#utility.yul\":6763:7576   */\n      swap3\n      swap6\n      swap2\n      swap5\n      pop\n      swap3\n      pop\n      jump\t// out\n        /* \"#utility.yul\":7582:7911   */\n    tag_29:\n        /* \"#utility.yul\":7641:7647   */\n      0x00\n        /* \"#utility.yul\":7690:7692   */\n      0x20\n        /* \"#utility.yul\":7678:7687   */\n      dup3\n        /* \"#utility.yul\":7669:7676   */\n      dup5\n        /* \"#utility.yul\":7665:7688   */\n      sub\n        /* \"#utility.yul\":7661:7693   */\n      slt\n        /* \"#utility.yul\":7658:7777   */\n      iszero\n      tag_343\n      jumpi\n        /* \"#utility.yul\":7696:7775   */\n      tag_344\n      tag_194\n      jump\t// in\n    tag_344:\n        /* \"#utility.yul\":7658:7777   */\n    tag_343:\n        /* \"#utility.yul\":7816:7817   */\n      0x00\n        /* \"#utility.yul\":7841:7894   */\n      tag_345\n        /* \"#utility.yul\":7886:7893   */\n      dup5\n        /* \"#utility.yul\":7877:7883   */\n      dup3\n        /* \"#utility.yul\":7866:7875   */\n      dup6\n        /* \"#utility.yul\":7862:7884   */\n      add\n        /* \"#utility.yul\":7841:7894   */\n      tag_209\n      jump\t// in\n    tag_345:\n        /* \"#utility.yul\":7831:7894   */\n      swap2\n      pop\n        /* \"#utility.yul\":7787:7904   */\n      pop\n        /* \"#utility.yul\":7582:7911   */\n      swap3\n      swap2\n      pop\n      pop\n      jump\t// out\n        /* \"#utility.yul\":7917:8060   */\n    tag_219:\n        /* \"#utility.yul\":7974:7979   */\n      0x00\n        /* \"#utility.yul\":8005:8011   */\n      dup2\n        /* \"#utility.yul\":7999:8012   */\n      mload\n        /* \"#utility.yul\":7990:8012   */\n      swap1\n      pop\n        /* \"#utility.yul\":8021:8054   */\n      tag_347\n        /* \"#utility.yul\":8048:8053   */\n      dup2\n        /* \"#utility.yul\":8021:8054   */\n      tag_213\n      jump\t// in\n    tag_347:\n        /* \"#utility.yul\":7917:8060   */\n      swap3\n      swap2\n      pop\n      pop\n      jump\t// out\n        /* \"#utility.yul\":8066:8156   */\n    tag_220:\n        /* \"#utility.yul\":8101:8108   */\n      0x00\n        /* \"#utility.yul\":8144:8149   */\n      dup2\n        /* \"#utility.yul\":8141:8142   */\n      0x02\n        /* \"#utility.yul\":8130:8150   */\n      signextend\n        /* \"#utility.yul\":8119:8150   */\n      swap1\n      pop\n        /* \"#utility.yul\":8066:8156   */\n      swap2\n      swap1\n      pop\n      jump\t// out\n        /* \"#utility.yul\":8162:8280   */\n    tag_221:\n        /* \"#utility.yul\":8233:8255   */\n      tag_350\n        /* \"#utility.yul\":8249:8254   */\n      dup2\n        /* \"#utility.yul\":8233:8255   */\n      tag_220\n      jump\t// in\n    tag_350:\n        /* \"#utility.yul\":8226:8231   */\n      dup2\n        /* \"#utility.yul\":8223:8256   */\n      eq\n        /* \"#utility.yul\":8213:8274   */\n      tag_351\n      jumpi\n        /* \"#utility.yul\":8270:8271   */\n      0x00\n        /* \"#utility.yul\":8267:8268   */\n      dup1\n        /* \"#utility.yul\":8260:8272   */\n      revert\n        /* \"#utility.yul\":8213:8274   */\n    tag_351:\n        /* \"#utility.yul\":8162:8280   */\n      pop\n      jump\t// out\n        /* \"#utility.yul\":8286:8425   */\n    tag_222:\n        /* \"#utility.yul\":8341:8346   */\n      0x00\n        /* \"#utility.yul\":8372:8378   */\n      dup2\n        /* \"#utility.yul\":8366:8379   */\n      mload\n        /* \"#utility.yul\":8357:8379   */\n      swap1\n      pop\n        /* \"#utility.yul\":8388:8419   */\n      tag_353\n        /* \"#utility.yul\":8413:8418   */\n      dup2\n        /* \"#utility.yul\":8388:8419   */\n      tag_221\n      jump\t// in\n    tag_353:\n        /* \"#utility.yul\":8286:8425   */\n      swap3\n      swap2\n      pop\n      pop\n      jump\t// out\n        /* \"#utility.yul\":8431:8934   */\n    tag_33:\n        /* \"#utility.yul\":8508:8514   */\n      0x00\n        /* \"#utility.yul\":8516:8522   */\n      dup1\n        /* \"#utility.yul\":8565:8567   */\n      0x40\n        /* \"#utility.yul\":8553:8562   */\n      dup4\n        /* \"#utility.yul\":8544:8551   */\n      dup6\n        /* \"#utility.yul\":8540:8563   */\n      sub\n        /* \"#utility.yul\":8536:8568   */\n      slt\n        /* \"#utility.yul\":8533:8652   */\n      iszero\n      tag_355\n      jumpi\n        /* \"#utility.yul\":8571:8650   */\n      tag_356\n      tag_194\n      jump\t// in\n    tag_356:\n        /* \"#utility.yul\":8533:8652   */\n    tag_355:\n        /* \"#utility.yul\":8691:8692   */\n      0x00\n        /* \"#utility.yul\":8716:8780   */\n      tag_357\n        /* \"#utility.yul\":8772:8779   */\n      dup6\n        /* \"#utility.yul\":8763:8769   */\n      dup3\n        /* \"#utility.yul\":8752:8761   */\n      dup7\n        /* \"#utility.yul\":8748:8770   */\n      add\n        /* \"#utility.yul\":8716:8780   */\n      tag_219\n      jump\t// in\n    tag_357:\n        /* \"#utility.yul\":8706:8780   */\n      swap3\n      pop\n        /* \"#utility.yul\":8662:8790   */\n      pop\n        /* \"#utility.yul\":8829:8831   */\n      0x20\n        /* \"#utility.yul\":8855:8917   */\n      tag_358\n        /* \"#utility.yul\":8909:8916   */\n      dup6\n        /* \"#utility.yul\":8900:8906   */\n      dup3\n        /* \"#utility.yul\":8889:8898   */\n      dup7\n        /* \"#utility.yul\":8885:8907   */\n      add\n        /* \"#utility.yul\":8855:8917   */\n      tag_222\n      jump\t// in\n    tag_358:\n        /* \"#utility.yul\":8845:8917   */\n      swap2\n      pop\n        /* \"#utility.yul\":8800:8927   */\n      pop\n        /* \"#utility.yul\":8431:8934   */\n      swap3\n      pop\n      swap3\n      swap1\n      pop\n      jump\t// out\n        /* \"#utility.yul\":8940:9075   */\n    tag_223:\n        /* \"#utility.yul\":8984:8989   */\n      0x00\n        /* \"#utility.yul\":9022:9028   */\n      dup2\n        /* \"#utility.yul\":9009:9029   */\n      calldataload\n        /* \"#utility.yul\":9000:9029   */\n      swap1\n      pop\n        /* \"#utility.yul\":9038:9069   */\n      tag_360\n        /* \"#utility.yul\":9063:9068   */\n      dup2\n        /* \"#utility.yul\":9038:9069   */\n      tag_221\n      jump\t// in\n    tag_360:\n        /* \"#utility.yul\":8940:9075   */\n      swap3\n      swap2\n      pop\n      pop\n      jump\t// out\n        /* \"#utility.yul\":9081:9406   */\n    tag_36:\n        /* \"#utility.yul\":9138:9144   */\n      0x00\n        /* \"#utility.yul\":9187:9189   */\n      0x20\n        /* \"#utility.yul\":9175:9184   */\n      dup3\n        /* \"#utility.yul\":9166:9173   */\n      dup5\n        /* \"#utility.yul\":9162:9185   */\n      sub\n        /* \"#utility.yul\":9158:9190   */\n      slt\n        /* \"#utility.yul\":9155:9274   */\n      iszero\n      tag_362\n      jumpi\n        /* \"#utility.yul\":9193:9272   */\n      tag_363\n      tag_194\n      jump\t// in\n    tag_363:\n        /* \"#utility.yul\":9155:9274   */\n    tag_362:\n        /* \"#utility.yul\":9313:9314   */\n      0x00\n        /* \"#utility.yul\":9338:9389   */\n      tag_364\n        /* \"#utility.yul\":9381:9388   */\n      dup5\n        /* \"#utility.yul\":9372:9378   */\n      dup3\n        /* \"#utility.yul\":9361:9370   */\n      dup6\n        /* \"#utility.yul\":9357:9379   */\n      add\n        /* \"#utility.yul\":9338:9389   */\n      tag_223\n      jump\t// in\n    tag_364:\n        /* \"#utility.yul\":9328:9389   */\n      swap2\n      pop\n        /* \"#utility.yul\":9284:9399   */\n      pop\n        /* \"#utility.yul\":9081:9406   */\n      swap3\n      swap2\n      pop\n      pop\n      jump\t// out\n        /* \"#utility.yul\":9412:9555   */\n    tag_224:\n        /* \"#utility.yul\":9469:9474   */\n      0x00\n        /* \"#utility.yul\":9500:9506   */\n      dup2\n        /* \"#utility.yul\":9494:9507   */\n      mload\n        /* \"#utility.yul\":9485:9507   */\n      swap1\n      pop\n        /* \"#utility.yul\":9516:9549   */\n      tag_366\n        /* \"#utility.yul\":9543:9548   */\n      dup2\n        /* \"#utility.yul\":9516:9549   */\n      tag_208\n      jump\t// in\n    tag_366:\n        /* \"#utility.yul\":9412:9555   */\n      swap3\n      swap2\n      pop\n      pop\n      jump\t// out\n        /* \"#utility.yul\":9561:9912   */\n    tag_47:\n        /* \"#utility.yul\":9631:9637   */\n      0x00\n        /* \"#utility.yul\":9680:9682   */\n      0x20\n        /* \"#utility.yul\":9668:9677   */\n      dup3\n        /* \"#utility.yul\":9659:9666   */\n      dup5\n        /* \"#utility.yul\":9655:9678   */\n      sub\n        /* \"#utility.yul\":9651:9683   */\n      slt\n        /* \"#utility.yul\":9648:9767   */\n      iszero\n      tag_368\n      jumpi\n        /* \"#utility.yul\":9686:9765   */\n      tag_369\n      tag_194\n      jump\t// in\n    tag_369:\n        /* \"#utility.yul\":9648:9767   */\n    tag_368:\n        /* \"#utility.yul\":9806:9807   */\n      0x00\n        /* \"#utility.yul\":9831:9895   */\n      tag_370\n        /* \"#utility.yul\":9887:9894   */\n      dup5\n        /* \"#utility.yul\":9878:9884   */\n      dup3\n        /* \"#utility.yul\":9867:9876   */\n      dup6\n        /* \"#utility.yul\":9863:9885   */\n      add\n        /* \"#utility.yul\":9831:9895   */\n      tag_224\n      jump\t// in\n    tag_370:\n        /* \"#utility.yul\":9821:9895   */\n      swap2\n      pop\n        /* \"#utility.yul\":9777:9905   */\n      pop\n        /* \"#utility.yul\":9561:9912   */\n      swap3\n      swap2\n      pop\n      pop\n      jump\t// out\n        /* \"#utility.yul\":9918:10026   */\n    tag_225:\n        /* \"#utility.yul\":9995:10019   */\n      tag_372\n        /* \"#utility.yul\":10013:10018   */\n      dup2\n        /* \"#utility.yul\":9995:10019   */\n      tag_207\n      jump\t// in\n    tag_372:\n        /* \"#utility.yul\":9990:9993   */\n      dup3\n        /* \"#utility.yul\":9983:10020   */\n      mstore\n        /* \"#utility.yul\":9918:10026   */\n      pop\n      pop\n      jump\t// out\n        /* \"#utility.yul\":10112:10806   */\n    tag_226:\n        /* \"#utility.yul\":10267:10271   */\n      0x60\n        /* \"#utility.yul\":10262:10265   */\n      dup3\n        /* \"#utility.yul\":10258:10272   */\n      add\n        /* \"#utility.yul\":10356:10360   */\n      0x00\n        /* \"#utility.yul\":10349:10354   */\n      dup3\n        /* \"#utility.yul\":10345:10361   */\n      add\n        /* \"#utility.yul\":10339:10362   */\n      mload\n        /* \"#utility.yul\":10375:10438   */\n      tag_374\n        /* \"#utility.yul\":10432:10436   */\n      0x00\n        /* \"#utility.yul\":10427:10430   */\n      dup6\n        /* \"#utility.yul\":10423:10437   */\n      add\n        /* \"#utility.yul\":10409:10421   */\n      dup3\n        /* \"#utility.yul\":10375:10438   */\n      tag_225\n      jump\t// in\n    tag_374:\n        /* \"#utility.yul\":10282:10448   */\n      pop\n        /* \"#utility.yul\":10532:10536   */\n      0x20\n        /* \"#utility.yul\":10525:10530   */\n      dup3\n        /* \"#utility.yul\":10521:10537   */\n      add\n        /* \"#utility.yul\":10515:10538   */\n      mload\n        /* \"#utility.yul\":10551:10614   */\n      tag_375\n        /* \"#utility.yul\":10608:10612   */\n      0x20\n        /* \"#utility.yul\":10603:10606   */\n      dup6\n        /* \"#utility.yul\":10599:10613   */\n      add\n        /* \"#utility.yul\":10585:10597   */\n      dup3\n        /* \"#utility.yul\":10551:10614   */\n      tag_225\n      jump\t// in\n    tag_375:\n        /* \"#utility.yul\":10458:10624   */\n      pop\n        /* \"#utility.yul\":10707:10711   */\n      0x40\n        /* \"#utility.yul\":10700:10705   */\n      dup3\n        /* \"#utility.yul\":10696:10712   */\n      add\n        /* \"#utility.yul\":10690:10713   */\n      mload\n        /* \"#utility.yul\":10726:10789   */\n      tag_376\n        /* \"#utility.yul\":10783:10787   */\n      0x40\n        /* \"#utility.yul\":10778:10781   */\n      dup6\n        /* \"#utility.yul\":10774:10788   */\n      add\n        /* \"#utility.yul\":10760:10772   */\n      dup3\n        /* \"#utility.yul\":10726:10789   */\n      tag_225\n      jump\t// in\n    tag_376:\n        /* \"#utility.yul\":10634:10799   */\n      pop\n        /* \"#utility.yul\":10236:10806   */\n      pop\n        /* \"#utility.yul\":10112:10806   */\n      pop\n      pop\n      jump\t// out\n        /* \"#utility.yul\":10812:11150   */\n    tag_52:\n        /* \"#utility.yul\":10963:10967   */\n      0x00\n        /* \"#utility.yul\":11001:11003   */\n      0x60\n        /* \"#utility.yul\":10990:10999   */\n      dup3\n        /* \"#utility.yul\":10986:11004   */\n      add\n        /* \"#utility.yul\":10978:11004   */\n      swap1\n      pop\n        /* \"#utility.yul\":11014:11143   */\n      tag_378\n        /* \"#utility.yul\":11140:11141   */\n      0x00\n        /* \"#utility.yul\":11129:11138   */\n      dup4\n        /* \"#utility.yul\":11125:11142   */\n      add\n        /* \"#utility.yul\":11116:11122   */\n      dup5\n        /* \"#utility.yul\":11014:11143   */\n      tag_226\n      jump\t// in\n    tag_378:\n        /* \"#utility.yul\":10812:11150   */\n      swap3\n      swap2\n      pop\n      pop\n      jump\t// out\n        /* \"#utility.yul\":11156:11274   */\n    tag_227:\n        /* \"#utility.yul\":11243:11267   */\n      tag_380\n        /* \"#utility.yul\":11261:11266   */\n      dup2\n        /* \"#utility.yul\":11243:11267   */\n      tag_207\n      jump\t// in\n    tag_380:\n        /* \"#utility.yul\":11238:11241   */\n      dup3\n        /* \"#utility.yul\":11231:11268   */\n      mstore\n        /* \"#utility.yul\":11156:11274   */\n      pop\n      pop\n      jump\t// out\n        /* \"#utility.yul\":11280:11392   */\n    tag_228:\n        /* \"#utility.yul\":11363:11385   */\n      tag_382\n        /* \"#utility.yul\":11379:11384   */\n      dup2\n        /* \"#utility.yul\":11363:11385   */\n      tag_220\n      jump\t// in\n    tag_382:\n        /* \"#utility.yul\":11358:11361   */\n      dup3\n        /* \"#utility.yul\":11351:11386   */\n      mstore\n        /* \"#utility.yul\":11280:11392   */\n      pop\n      pop\n      jump\t// out\n        /* \"#utility.yul\":11398:11516   */\n    tag_229:\n        /* \"#utility.yul\":11435:11442   */\n      0x00\n        /* \"#utility.yul\":11475:11509   */\n      0xffffffffffffffffffffffffffffffff\n        /* \"#utility.yul\":11468:11473   */\n      dup3\n        /* \"#utility.yul\":11464:11510   */\n      and\n        /* \"#utility.yul\":11453:11510   */\n      swap1\n      pop\n        /* \"#utility.yul\":11398:11516   */\n      swap2\n      swap1\n      pop\n      jump\t// out\n        /* \"#utility.yul\":11522:11640   */\n    tag_230:\n        /* \"#utility.yul\":11609:11633   */\n      tag_385\n        /* \"#utility.yul\":11627:11632   */\n      dup2\n        /* \"#utility.yul\":11609:11633   */\n      tag_229\n      jump\t// in\n    tag_385:\n        /* \"#utility.yul\":11604:11607   */\n      dup3\n        /* \"#utility.yul\":11597:11634   */\n      mstore\n        /* \"#utility.yul\":11522:11640   */\n      pop\n      pop\n      jump\t// out\n        /* \"#utility.yul\":11646:11744   */\n    tag_231:\n        /* \"#utility.yul\":11697:11703   */\n      0x00\n        /* \"#utility.yul\":11731:11736   */\n      dup2\n        /* \"#utility.yul\":11725:11737   */\n      mload\n        /* \"#utility.yul\":11715:11737   */\n      swap1\n      pop\n        /* \"#utility.yul\":11646:11744   */\n      swap2\n      swap1\n      pop\n      jump\t// out\n        /* \"#utility.yul\":11750:11918   */\n    tag_232:\n        /* \"#utility.yul\":11833:11844   */\n      0x00\n        /* \"#utility.yul\":11867:11873   */\n      dup3\n        /* \"#utility.yul\":11862:11865   */\n      dup3\n        /* \"#utility.yul\":11855:11874   */\n      mstore\n        /* \"#utility.yul\":11907:11911   */\n      0x20\n        /* \"#utility.yul\":11902:11905   */\n      dup3\n        /* \"#utility.yul\":11898:11912   */\n      add\n        /* \"#utility.yul\":11883:11912   */\n      swap1\n      pop\n        /* \"#utility.yul\":11750:11918   */\n      swap3\n      swap2\n      pop\n      pop\n      jump\t// out\n        /* \"#utility.yul\":11924:12172   */\n    tag_233:\n        /* \"#utility.yul\":12006:12007   */\n      0x00\n        /* \"#utility.yul\":12016:12129   */\n    tag_389:\n        /* \"#utility.yul\":12030:12036   */\n      dup4\n        /* \"#utility.yul\":12027:12028   */\n      dup2\n        /* \"#utility.yul\":12024:12037   */\n      lt\n        /* \"#utility.yul\":12016:12129   */\n      iszero\n      tag_391\n      jumpi\n        /* \"#utility.yul\":12115:12116   */\n      dup1\n        /* \"#utility.yul\":12110:12113   */\n      dup3\n        /* \"#utility.yul\":12106:12117   */\n      add\n        /* \"#utility.yul\":12100:12118   */\n      mload\n        /* \"#utility.yul\":12096:12097   */\n      dup2\n        /* \"#utility.yul\":12091:12094   */\n      dup5\n        /* \"#utility.yul\":12087:12098   */\n      add\n        /* \"#utility.yul\":12080:12119   */\n      mstore\n        /* \"#utility.yul\":12052:12054   */\n      0x20\n        /* \"#utility.yul\":12049:12050   */\n      dup2\n        /* \"#utility.yul\":12045:12055   */\n      add\n        /* \"#utility.yul\":12040:12055   */\n      swap1\n      pop\n        /* \"#utility.yul\":12016:12129   */\n      jump(tag_389)\n    tag_391:\n        /* \"#utility.yul\":12163:12164   */\n      0x00\n        /* \"#utility.yul\":12154:12160   */\n      dup5\n        /* \"#utility.yul\":12149:12152   */\n      dup5\n        /* \"#utility.yul\":12145:12161   */\n      add\n        /* \"#utility.yul\":12138:12165   */\n      mstore\n        /* \"#utility.yul\":11986:12172   */\n      pop\n        /* \"#utility.yul\":11924:12172   */\n      pop\n      pop\n      pop\n      jump\t// out\n        /* \"#utility.yul\":12178:12280   */\n    tag_234:\n        /* \"#utility.yul\":12219:12225   */\n      0x00\n        /* \"#utility.yul\":12270:12272   */\n      0x1f\n        /* \"#utility.yul\":12266:12273   */\n      not\n        /* \"#utility.yul\":12261:12263   */\n      0x1f\n        /* \"#utility.yul\":12254:12259   */\n      dup4\n        /* \"#utility.yul\":12250:12264   */\n      add\n        /* \"#utility.yul\":12246:12274   */\n      and\n        /* \"#utility.yul\":12236:12274   */\n      swap1\n      pop\n        /* \"#utility.yul\":12178:12280   */\n      swap2\n      swap1\n      pop\n      jump\t// out\n        /* \"#utility.yul\":12286:12659   */\n    tag_235:\n        /* \"#utility.yul\":12372:12375   */\n      0x00\n        /* \"#utility.yul\":12400:12438   */\n      tag_394\n        /* \"#utility.yul\":12432:12437   */\n      dup3\n        /* \"#utility.yul\":12400:12438   */\n      tag_231\n      jump\t// in\n    tag_394:\n        /* \"#utility.yul\":12454:12524   */\n      tag_395\n        /* \"#utility.yul\":12517:12523   */\n      dup2\n        /* \"#utility.yul\":12512:12515   */\n      dup6\n        /* \"#utility.yul\":12454:12524   */\n      tag_232\n      jump\t// in\n    tag_395:\n        /* \"#utility.yul\":12447:12524   */\n      swap4\n      pop\n        /* \"#utility.yul\":12533:12598   */\n      tag_396\n        /* \"#utility.yul\":12591:12597   */\n      dup2\n        /* \"#utility.yul\":12586:12589   */\n      dup6\n        /* \"#utility.yul\":12579:12583   */\n      0x20\n        /* \"#utility.yul\":12572:12577   */\n      dup7\n        /* \"#utility.yul\":12568:12584   */\n      add\n        /* \"#utility.yul\":12533:12598   */\n      tag_233\n      jump\t// in\n    tag_396:\n        /* \"#utility.yul\":12623:12652   */\n      tag_397\n        /* \"#utility.yul\":12645:12651   */\n      dup2\n        /* \"#utility.yul\":12623:12652   */\n      tag_234\n      jump\t// in\n    tag_397:\n        /* \"#utility.yul\":12618:12621   */\n      dup5\n        /* \"#utility.yul\":12614:12653   */\n      add\n        /* \"#utility.yul\":12607:12653   */\n      swap2\n      pop\n        /* \"#utility.yul\":12376:12659   */\n      pop\n        /* \"#utility.yul\":12286:12659   */\n      swap3\n      swap2\n      pop\n      pop\n      jump\t// out\n        /* \"#utility.yul\":12665:13400   */\n    tag_54:\n        /* \"#utility.yul\":12880:12884   */\n      0x00\n        /* \"#utility.yul\":12918:12921   */\n      0xa0\n        /* \"#utility.yul\":12907:12916   */\n      dup3\n        /* \"#utility.yul\":12903:12922   */\n      add\n        /* \"#utility.yul\":12895:12922   */\n      swap1\n      pop\n        /* \"#utility.yul\":12932:13003   */\n      tag_399\n        /* \"#utility.yul\":13000:13001   */\n      0x00\n        /* \"#utility.yul\":12989:12998   */\n      dup4\n        /* \"#utility.yul\":12985:13002   */\n      add\n        /* \"#utility.yul\":12976:12982   */\n      dup9\n        /* \"#utility.yul\":12932:13003   */\n      tag_227\n      jump\t// in\n    tag_399:\n        /* \"#utility.yul\":13013:13081   */\n      tag_400\n        /* \"#utility.yul\":13077:13079   */\n      0x20\n        /* \"#utility.yul\":13066:13075   */\n      dup4\n        /* \"#utility.yul\":13062:13080   */\n      add\n        /* \"#utility.yul\":13053:13059   */\n      dup8\n        /* \"#utility.yul\":13013:13081   */\n      tag_228\n      jump\t// in\n    tag_400:\n        /* \"#utility.yul\":13091:13159   */\n      tag_401\n        /* \"#utility.yul\":13155:13157   */\n      0x40\n        /* \"#utility.yul\":13144:13153   */\n      dup4\n        /* \"#utility.yul\":13140:13158   */\n      add\n        /* \"#utility.yul\":13131:13137   */\n      dup7\n        /* \"#utility.yul\":13091:13159   */\n      tag_228\n      jump\t// in\n    tag_401:\n        /* \"#utility.yul\":13169:13241   */\n      tag_402\n        /* \"#utility.yul\":13237:13239   */\n      0x60\n        /* \"#utility.yul\":13226:13235   */\n      dup4\n        /* \"#utility.yul\":13222:13240   */\n      add\n        /* \"#utility.yul\":13213:13219   */\n      dup6\n        /* \"#utility.yul\":13169:13241   */\n      tag_230\n      jump\t// in\n    tag_402:\n        /* \"#utility.yul\":13289:13298   */\n      dup2\n        /* \"#utility.yul\":13283:13287   */\n      dup2\n        /* \"#utility.yul\":13279:13299   */\n      sub\n        /* \"#utility.yul\":13273:13276   */\n      0x80\n        /* \"#utility.yul\":13262:13271   */\n      dup4\n        /* \"#utility.yul\":13258:13277   */\n      add\n        /* \"#utility.yul\":13251:13300   */\n      mstore\n        /* \"#utility.yul\":13317:13393   */\n      tag_403\n        /* \"#utility.yul\":13388:13392   */\n      dup2\n        /* \"#utility.yul\":13379:13385   */\n      dup5\n        /* \"#utility.yul\":13317:13393   */\n      tag_235\n      jump\t// in\n    tag_403:\n        /* \"#utility.yul\":13309:13393   */\n      swap1\n      pop\n        /* \"#utility.yul\":12665:13400   */\n      swap7\n      swap6\n      pop\n      pop\n      pop\n      pop\n      pop\n      pop\n      jump\t// out\n        /* \"#utility.yul\":13406:13549   */\n    tag_236:\n        /* \"#utility.yul\":13463:13468   */\n      0x00\n        /* \"#utility.yul\":13494:13500   */\n      dup2\n        /* \"#utility.yul\":13488:13501   */\n      mload\n        /* \"#utility.yul\":13479:13501   */\n      swap1\n      pop\n        /* \"#utility.yul\":13510:13543   */\n      tag_405\n        /* \"#utility.yul\":13537:13542   */\n      dup2\n        /* \"#utility.yul\":13510:13543   */\n      tag_200\n      jump\t// in\n    tag_405:\n        /* \"#utility.yul\":13406:13549   */\n      swap3\n      swap2\n      pop\n      pop\n      jump\t// out\n        /* \"#utility.yul\":13555:14062   */\n    tag_58:\n        /* \"#utility.yul\":13634:13640   */\n      0x00\n        /* \"#utility.yul\":13642:13648   */\n      dup1\n        /* \"#utility.yul\":13691:13693   */\n      0x40\n        /* \"#utility.yul\":13679:13688   */\n      dup4\n        /* \"#utility.yul\":13670:13677   */\n      dup6\n        /* \"#utility.yul\":13666:13689   */\n      sub\n        /* \"#utility.yul\":13662:13694   */\n      slt\n        /* \"#utility.yul\":13659:13778   */\n      iszero\n      tag_407\n      jumpi\n        /* \"#utility.yul\":13697:13776   */\n      tag_408\n      tag_194\n      jump\t// in\n    tag_408:\n        /* \"#utility.yul\":13659:13778   */\n    tag_407:\n        /* \"#utility.yul\":13817:13818   */\n      0x00\n        /* \"#utility.yul\":13842:13906   */\n      tag_409\n        /* \"#utility.yul\":13898:13905   */\n      dup6\n        /* \"#utility.yul\":13889:13895   */\n      dup3\n        /* \"#utility.yul\":13878:13887   */\n      dup7\n        /* \"#utility.yul\":13874:13896   */\n      add\n        /* \"#utility.yul\":13842:13906   */\n      tag_236\n      jump\t// in\n    tag_409:\n        /* \"#utility.yul\":13832:13906   */\n      swap3\n      pop\n        /* \"#utility.yul\":13788:13916   */\n      pop\n        /* \"#utility.yul\":13955:13957   */\n      0x20\n        /* \"#utility.yul\":13981:14045   */\n      tag_410\n        /* \"#utility.yul\":14037:14044   */\n      dup6\n        /* \"#utility.yul\":14028:14034   */\n      dup3\n        /* \"#utility.yul\":14017:14026   */\n      dup7\n        /* \"#utility.yul\":14013:14035   */\n      add\n        /* \"#utility.yul\":13981:14045   */\n      tag_236\n      jump\t// in\n    tag_410:\n        /* \"#utility.yul\":13971:14045   */\n      swap2\n      pop\n        /* \"#utility.yul\":13926:14055   */\n      pop\n        /* \"#utility.yul\":13555:14062   */\n      swap3\n      pop\n      swap3\n      swap1\n      pop\n      jump\t// out\n        /* \"#utility.yul\":14068:14185   */\n    tag_237:\n        /* \"#utility.yul\":14177:14178   */\n      0x00\n        /* \"#utility.yul\":14174:14175   */\n      dup1\n        /* \"#utility.yul\":14167:14179   */\n      revert\n        /* \"#utility.yul\":14191:14371   */\n    tag_238:\n        /* \"#utility.yul\":14239:14316   */\n      0x4e487b7100000000000000000000000000000000000000000000000000000000\n        /* \"#utility.yul\":14236:14237   */\n      0x00\n        /* \"#utility.yul\":14229:14317   */\n      mstore\n        /* \"#utility.yul\":14336:14340   */\n      0x41\n        /* \"#utility.yul\":14333:14334   */\n      0x04\n        /* \"#utility.yul\":14326:14341   */\n      mstore\n        /* \"#utility.yul\":14360:14364   */\n      0x24\n        /* \"#utility.yul\":14357:14358   */\n      0x00\n        /* \"#utility.yul\":14350:14365   */\n      revert\n        /* \"#utility.yul\":14377:14658   */\n    tag_239:\n        /* \"#utility.yul\":14460:14487   */\n      tag_414\n        /* \"#utility.yul\":14482:14486   */\n      dup3\n        /* \"#utility.yul\":14460:14487   */\n      tag_234\n      jump\t// in\n    tag_414:\n        /* \"#utility.yul\":14452:14458   */\n      dup2\n        /* \"#utility.yul\":14448:14488   */\n      add\n        /* \"#utility.yul\":14590:14596   */\n      dup2\n        /* \"#utility.yul\":14578:14588   */\n      dup2\n        /* \"#utility.yul\":14575:14597   */\n      lt\n        /* \"#utility.yul\":14554:14572   */\n      0xffffffffffffffff\n        /* \"#utility.yul\":14542:14552   */\n      dup3\n        /* \"#utility.yul\":14539:14573   */\n      gt\n        /* \"#utility.yul\":14536:14598   */\n      or\n        /* \"#utility.yul\":14533:14621   */\n      iszero\n      tag_415\n      jumpi\n        /* \"#utility.yul\":14601:14619   */\n      tag_416\n      tag_238\n      jump\t// in\n    tag_416:\n        /* \"#utility.yul\":14533:14621   */\n    tag_415:\n        /* \"#utility.yul\":14641:14651   */\n      dup1\n        /* \"#utility.yul\":14637:14639   */\n      0x40\n        /* \"#utility.yul\":14630:14652   */\n      mstore\n        /* \"#utility.yul\":14420:14658   */\n      pop\n        /* \"#utility.yul\":14377:14658   */\n      pop\n      pop\n      jump\t// out\n        /* \"#utility.yul\":14664:14793   */\n    tag_240:\n        /* \"#utility.yul\":14698:14704   */\n      0x00\n        /* \"#utility.yul\":14725:14745   */\n      tag_418\n      tag_193\n      jump\t// in\n    tag_418:\n        /* \"#utility.yul\":14715:14745   */\n      swap1\n      pop\n        /* \"#utility.yul\":14754:14787   */\n      tag_419\n        /* \"#utility.yul\":14782:14786   */\n      dup3\n        /* \"#utility.yul\":14774:14780   */\n      dup3\n        /* \"#utility.yul\":14754:14787   */\n      tag_239\n      jump\t// in\n    tag_419:\n        /* \"#utility.yul\":14664:14793   */\n      swap2\n      swap1\n      pop\n      jump\t// out\n        /* \"#utility.yul\":14964:15708   */\n    tag_242:\n        /* \"#utility.yul\":15042:15047   */\n      0x00\n        /* \"#utility.yul\":15086:15090   */\n      0x60\n        /* \"#utility.yul\":15074:15083   */\n      dup3\n        /* \"#utility.yul\":15069:15072   */\n      dup5\n        /* \"#utility.yul\":15065:15084   */\n      sub\n        /* \"#utility.yul\":15061:15091   */\n      slt\n        /* \"#utility.yul\":15058:15175   */\n      iszero\n      tag_422\n      jumpi\n        /* \"#utility.yul\":15094:15173   */\n      tag_423\n      tag_237\n      jump\t// in\n    tag_423:\n        /* \"#utility.yul\":15058:15175   */\n    tag_422:\n        /* \"#utility.yul\":15193:15214   */\n      tag_424\n        /* \"#utility.yul\":15209:15213   */\n      0x60\n        /* \"#utility.yul\":15193:15214   */\n      tag_240\n      jump\t// in\n    tag_424:\n        /* \"#utility.yul\":15184:15214   */\n      swap1\n      pop\n        /* \"#utility.yul\":15275:15276   */\n      0x00\n        /* \"#utility.yul\":15315:15364   */\n      tag_425\n        /* \"#utility.yul\":15360:15363   */\n      dup5\n        /* \"#utility.yul\":15351:15357   */\n      dup3\n        /* \"#utility.yul\":15340:15349   */\n      dup6\n        /* \"#utility.yul\":15336:15358   */\n      add\n        /* \"#utility.yul\":15315:15364   */\n      tag_209\n      jump\t// in\n    tag_425:\n        /* \"#utility.yul\":15308:15312   */\n      0x00\n        /* \"#utility.yul\":15301:15306   */\n      dup4\n        /* \"#utility.yul\":15297:15313   */\n      add\n        /* \"#utility.yul\":15290:15365   */\n      mstore\n        /* \"#utility.yul\":15224:15376   */\n      pop\n        /* \"#utility.yul\":15437:15439   */\n      0x20\n        /* \"#utility.yul\":15478:15527   */\n      tag_426\n        /* \"#utility.yul\":15523:15526   */\n      dup5\n        /* \"#utility.yul\":15514:15520   */\n      dup3\n        /* \"#utility.yul\":15503:15512   */\n      dup6\n        /* \"#utility.yul\":15499:15521   */\n      add\n        /* \"#utility.yul\":15478:15527   */\n      tag_209\n      jump\t// in\n    tag_426:\n        /* \"#utility.yul\":15471:15475   */\n      0x20\n        /* \"#utility.yul\":15464:15469   */\n      dup4\n        /* \"#utility.yul\":15460:15476   */\n      add\n        /* \"#utility.yul\":15453:15528   */\n      mstore\n        /* \"#utility.yul\":15386:15539   */\n      pop\n        /* \"#utility.yul\":15599:15601   */\n      0x40\n        /* \"#utility.yul\":15640:15689   */\n      tag_427\n        /* \"#utility.yul\":15685:15688   */\n      dup5\n        /* \"#utility.yul\":15676:15682   */\n      dup3\n        /* \"#utility.yul\":15665:15674   */\n      dup6\n        /* \"#utility.yul\":15661:15683   */\n      add\n        /* \"#utility.yul\":15640:15689   */\n      tag_209\n      jump\t// in\n    tag_427:\n        /* \"#utility.yul\":15633:15637   */\n      0x40\n        /* \"#utility.yul\":15626:15631   */\n      dup4\n        /* \"#utility.yul\":15622:15638   */\n      add\n        /* \"#utility.yul\":15615:15690   */\n      mstore\n        /* \"#utility.yul\":15549:15701   */\n      pop\n        /* \"#utility.yul\":14964:15708   */\n      swap3\n      swap2\n      pop\n      pop\n      jump\t// out\n        /* \"#utility.yul\":15714:16101   */\n    tag_64:\n        /* \"#utility.yul\":15802:15808   */\n      0x00\n        /* \"#utility.yul\":15851:15853   */\n      0x60\n        /* \"#utility.yul\":15839:15848   */\n      dup3\n        /* \"#utility.yul\":15830:15837   */\n      dup5\n        /* \"#utility.yul\":15826:15849   */\n      sub\n        /* \"#utility.yul\":15822:15854   */\n      slt\n        /* \"#utility.yul\":15819:15938   */\n      iszero\n      tag_429\n      jumpi\n        /* \"#utility.yul\":15857:15936   */\n      tag_430\n      tag_194\n      jump\t// in\n    tag_430:\n        /* \"#utility.yul\":15819:15938   */\n    tag_429:\n        /* \"#utility.yul\":15977:15978   */\n      0x00\n        /* \"#utility.yul\":16002:16084   */\n      tag_431\n        /* \"#utility.yul\":16076:16083   */\n      dup5\n        /* \"#utility.yul\":16067:16073   */\n      dup3\n        /* \"#utility.yul\":16056:16065   */\n      dup6\n        /* \"#utility.yul\":16052:16074   */\n      add\n        /* \"#utility.yul\":16002:16084   */\n      tag_242\n      jump\t// in\n    tag_431:\n        /* \"#utility.yul\":15992:16084   */\n      swap2\n      pop\n        /* \"#utility.yul\":15948:16094   */\n      pop\n        /* \"#utility.yul\":15714:16101   */\n      swap3\n      swap2\n      pop\n      pop\n      jump\t// out\n        /* \"#utility.yul\":16107:16549   */\n    tag_66:\n        /* \"#utility.yul\":16256:16260   */\n      0x00\n        /* \"#utility.yul\":16294:16296   */\n      0x60\n        /* \"#utility.yul\":16283:16292   */\n      dup3\n        /* \"#utility.yul\":16279:16297   */\n      add\n        /* \"#utility.yul\":16271:16297   */\n      swap1\n      pop\n        /* \"#utility.yul\":16307:16378   */\n      tag_433\n        /* \"#utility.yul\":16375:16376   */\n      0x00\n        /* \"#utility.yul\":16364:16373   */\n      dup4\n        /* \"#utility.yul\":16360:16377   */\n      add\n        /* \"#utility.yul\":16351:16357   */\n      dup7\n        /* \"#utility.yul\":16307:16378   */\n      tag_227\n      jump\t// in\n    tag_433:\n        /* \"#utility.yul\":16388:16460   */\n      tag_434\n        /* \"#utility.yul\":16456:16458   */\n      0x20\n        /* \"#utility.yul\":16445:16454   */\n      dup4\n        /* \"#utility.yul\":16441:16459   */\n      add\n        /* \"#utility.yul\":16432:16438   */\n      dup6\n        /* \"#utility.yul\":16388:16460   */\n      tag_227\n      jump\t// in\n    tag_434:\n        /* \"#utility.yul\":16470:16542   */\n      tag_435\n        /* \"#utility.yul\":16538:16540   */\n      0x40\n        /* \"#utility.yul\":16527:16536   */\n      dup4\n        /* \"#utility.yul\":16523:16541   */\n      add\n        /* \"#utility.yul\":16514:16520   */\n      dup5\n        /* \"#utility.yul\":16470:16542   */\n      tag_199\n      jump\t// in\n    tag_435:\n        /* \"#utility.yul\":16107:16549   */\n      swap5\n      swap4\n      pop\n      pop\n      pop\n      pop\n      jump\t// out\n        /* \"#utility.yul\":16555:16692   */\n    tag_243:\n        /* \"#utility.yul\":16609:16614   */\n      0x00\n        /* \"#utility.yul\":16640:16646   */\n      dup2\n        /* \"#utility.yul\":16634:16647   */\n      mload\n        /* \"#utility.yul\":16625:16647   */\n      swap1\n      pop\n        /* \"#utility.yul\":16656:16686   */\n      tag_437\n        /* \"#utility.yul\":16680:16685   */\n      dup2\n        /* \"#utility.yul\":16656:16686   */\n      tag_211\n      jump\t// in\n    tag_437:\n        /* \"#utility.yul\":16555:16692   */\n      swap3\n      swap2\n      pop\n      pop\n      jump\t// out\n        /* \"#utility.yul\":16698:17043   */\n    tag_70:\n        /* \"#utility.yul\":16765:16771   */\n      0x00\n        /* \"#utility.yul\":16814:16816   */\n      0x20\n        /* \"#utility.yul\":16802:16811   */\n      dup3\n        /* \"#utility.yul\":16793:16800   */\n      dup5\n        /* \"#utility.yul\":16789:16812   */\n      sub\n        /* \"#utility.yul\":16785:16817   */\n      slt\n        /* \"#utility.yul\":16782:16901   */\n      iszero\n      tag_439\n      jumpi\n        /* \"#utility.yul\":16820:16899   */\n      tag_440\n      tag_194\n      jump\t// in\n    tag_440:\n        /* \"#utility.yul\":16782:16901   */\n    tag_439:\n        /* \"#utility.yul\":16940:16941   */\n      0x00\n        /* \"#utility.yul\":16965:17026   */\n      tag_441\n        /* \"#utility.yul\":17018:17025   */\n      dup5\n        /* \"#utility.yul\":17009:17015   */\n      dup3\n        /* \"#utility.yul\":16998:17007   */\n      dup6\n        /* \"#utility.yul\":16994:17016   */\n      add\n        /* \"#utility.yul\":16965:17026   */\n      tag_243\n      jump\t// in\n    tag_441:\n        /* \"#utility.yul\":16955:17026   */\n      swap2\n      pop\n        /* \"#utility.yul\":16911:17036   */\n      pop\n        /* \"#utility.yul\":16698:17043   */\n      swap3\n      swap2\n      pop\n      pop\n      jump\t// out\n        /* \"#utility.yul\":17049:17229   */\n    tag_244:\n        /* \"#utility.yul\":17097:17174   */\n      0x4e487b7100000000000000000000000000000000000000000000000000000000\n        /* \"#utility.yul\":17094:17095   */\n      0x00\n        /* \"#utility.yul\":17087:17175   */\n      mstore\n        /* \"#utility.yul\":17194:17198   */\n      0x11\n        /* \"#utility.yul\":17191:17192   */\n      0x04\n        /* \"#utility.yul\":17184:17199   */\n      mstore\n        /* \"#utility.yul\":17218:17222   */\n      0x24\n        /* \"#utility.yul\":17215:17216   */\n      0x00\n        /* \"#utility.yul\":17208:17223   */\n      revert\n        /* \"#utility.yul\":17235:17470   */\n    tag_80:\n        /* \"#utility.yul\":17275:17279   */\n      0x00\n        /* \"#utility.yul\":17295:17315   */\n      tag_444\n        /* \"#utility.yul\":17313:17314   */\n      dup3\n        /* \"#utility.yul\":17295:17315   */\n      tag_206\n      jump\t// in\n    tag_444:\n        /* \"#utility.yul\":17290:17315   */\n      swap2\n      pop\n        /* \"#utility.yul\":17329:17349   */\n      tag_445\n        /* \"#utility.yul\":17347:17348   */\n      dup4\n        /* \"#utility.yul\":17329:17349   */\n      tag_206\n      jump\t// in\n    tag_445:\n        /* \"#utility.yul\":17324:17349   */\n      swap3\n      pop\n        /* \"#utility.yul\":17373:17374   */\n      dup3\n        /* \"#utility.yul\":17370:17371   */\n      dup3\n        /* \"#utility.yul\":17366:17375   */\n      sub\n        /* \"#utility.yul\":17358:17375   */\n      swap1\n      pop\n        /* \"#utility.yul\":17397:17439   */\n      0xffffffffffffffffffffffffffffffffffffffff\n        /* \"#utility.yul\":17391:17395   */\n      dup2\n        /* \"#utility.yul\":17388:17440   */\n      gt\n        /* \"#utility.yul\":17385:17463   */\n      iszero\n      tag_446\n      jumpi\n        /* \"#utility.yul\":17443:17461   */\n      tag_447\n      tag_244\n      jump\t// in\n    tag_447:\n        /* \"#utility.yul\":17385:17463   */\n    tag_446:\n        /* \"#utility.yul\":17235:17470   */\n      swap3\n      swap2\n      pop\n      pop\n      jump\t// out\n        /* \"#utility.yul\":17476:17708   */\n    tag_83:\n        /* \"#utility.yul\":17516:17519   */\n      0x00\n        /* \"#utility.yul\":17535:17555   */\n      tag_449\n        /* \"#utility.yul\":17553:17554   */\n      dup3\n        /* \"#utility.yul\":17535:17555   */\n      tag_206\n      jump\t// in\n    tag_449:\n        /* \"#utility.yul\":17530:17555   */\n      swap2\n      pop\n        /* \"#utility.yul\":17569:17589   */\n      tag_450\n        /* \"#utility.yul\":17587:17588   */\n      dup4\n        /* \"#utility.yul\":17569:17589   */\n      tag_206\n      jump\t// in\n    tag_450:\n        /* \"#utility.yul\":17564:17589   */\n      swap3\n      pop\n        /* \"#utility.yul\":17612:17613   */\n      dup3\n        /* \"#utility.yul\":17609:17610   */\n      dup3\n        /* \"#utility.yul\":17605:17614   */\n      add\n        /* \"#utility.yul\":17598:17614   */\n      swap1\n      pop\n        /* \"#utility.yul\":17635:17677   */\n      0xffffffffffffffffffffffffffffffffffffffff\n        /* \"#utility.yul\":17630:17633   */\n      dup2\n        /* \"#utility.yul\":17627:17678   */\n      gt\n        /* \"#utility.yul\":17624:17701   */\n      iszero\n      tag_451\n      jumpi\n        /* \"#utility.yul\":17681:17699   */\n      tag_452\n      tag_244\n      jump\t// in\n    tag_452:\n        /* \"#utility.yul\":17624:17701   */\n    tag_451:\n        /* \"#utility.yul\":17476:17708   */\n      swap3\n      swap2\n      pop\n      pop\n      jump\t// out\n        /* \"#utility.yul\":17714:17823   */\n    tag_245:\n        /* \"#utility.yul\":17795:17816   */\n      tag_454\n        /* \"#utility.yul\":17810:17815   */\n      dup2\n        /* \"#utility.yul\":17795:17816   */\n      tag_210\n      jump\t// in\n    tag_454:\n        /* \"#utility.yul\":17790:17793   */\n      dup3\n        /* \"#utility.yul\":17783:17817   */\n      mstore\n        /* \"#utility.yul\":17714:17823   */\n      pop\n      pop\n      jump\t// out\n        /* \"#utility.yul\":17829:17947   */\n    tag_246:\n        /* \"#utility.yul\":17916:17940   */\n      tag_456\n        /* \"#utility.yul\":17934:17939   */\n      dup2\n        /* \"#utility.yul\":17916:17940   */\n      tag_206\n      jump\t// in\n    tag_456:\n        /* \"#utility.yul\":17911:17914   */\n      dup3\n        /* \"#utility.yul\":17904:17941   */\n      mstore\n        /* \"#utility.yul\":17829:17947   */\n      pop\n      pop\n      jump\t// out\n        /* \"#utility.yul\":17953:18101   */\n    tag_247:\n        /* \"#utility.yul\":18051:18057   */\n      dup3\n        /* \"#utility.yul\":18046:18049   */\n      dup2\n        /* \"#utility.yul\":18041:18044   */\n      dup4\n        /* \"#utility.yul\":18028:18058   */\n      calldatacopy\n        /* \"#utility.yul\":18092:18093   */\n      0x00\n        /* \"#utility.yul\":18083:18089   */\n      dup4\n        /* \"#utility.yul\":18078:18081   */\n      dup4\n        /* \"#utility.yul\":18074:18090   */\n      add\n        /* \"#utility.yul\":18067:18094   */\n      mstore\n        /* \"#utility.yul\":17953:18101   */\n      pop\n      pop\n      pop\n      jump\t// out\n        /* \"#utility.yul\":18129:18443   */\n    tag_248:\n        /* \"#utility.yul\":18225:18228   */\n      0x00\n        /* \"#utility.yul\":18246:18316   */\n      tag_459\n        /* \"#utility.yul\":18309:18315   */\n      dup4\n        /* \"#utility.yul\":18304:18307   */\n      dup6\n        /* \"#utility.yul\":18246:18316   */\n      tag_232\n      jump\t// in\n    tag_459:\n        /* \"#utility.yul\":18239:18316   */\n      swap4\n      pop\n        /* \"#utility.yul\":18326:18382   */\n      tag_460\n        /* \"#utility.yul\":18375:18381   */\n      dup4\n        /* \"#utility.yul\":18370:18373   */\n      dup6\n        /* \"#utility.yul\":18363:18368   */\n      dup5\n        /* \"#utility.yul\":18326:18382   */\n      tag_247\n      jump\t// in\n    tag_460:\n        /* \"#utility.yul\":18407:18436   */\n      tag_461\n        /* \"#utility.yul\":18429:18435   */\n      dup4\n        /* \"#utility.yul\":18407:18436   */\n      tag_234\n      jump\t// in\n    tag_461:\n        /* \"#utility.yul\":18402:18405   */\n      dup5\n        /* \"#utility.yul\":18398:18437   */\n      add\n        /* \"#utility.yul\":18391:18437   */\n      swap1\n      pop\n        /* \"#utility.yul\":18129:18443   */\n      swap4\n      swap3\n      pop\n      pop\n      pop\n      jump\t// out\n        /* \"#utility.yul\":18449:19208   */\n    tag_85:\n        /* \"#utility.yul\":18676:18680   */\n      0x00\n        /* \"#utility.yul\":18714:18717   */\n      0xa0\n        /* \"#utility.yul\":18703:18712   */\n      dup3\n        /* \"#utility.yul\":18699:18718   */\n      add\n        /* \"#utility.yul\":18691:18718   */\n      swap1\n      pop\n        /* \"#utility.yul\":18728:18799   */\n      tag_463\n        /* \"#utility.yul\":18796:18797   */\n      0x00\n        /* \"#utility.yul\":18785:18794   */\n      dup4\n        /* \"#utility.yul\":18781:18798   */\n      add\n        /* \"#utility.yul\":18772:18778   */\n      dup10\n        /* \"#utility.yul\":18728:18799   */\n      tag_227\n      jump\t// in\n    tag_463:\n        /* \"#utility.yul\":18809:18875   */\n      tag_464\n        /* \"#utility.yul\":18871:18873   */\n      0x20\n        /* \"#utility.yul\":18860:18869   */\n      dup4\n        /* \"#utility.yul\":18856:18874   */\n      add\n        /* \"#utility.yul\":18847:18853   */\n      dup9\n        /* \"#utility.yul\":18809:18875   */\n      tag_245\n      jump\t// in\n    tag_464:\n        /* \"#utility.yul\":18885:18957   */\n      tag_465\n        /* \"#utility.yul\":18953:18955   */\n      0x40\n        /* \"#utility.yul\":18942:18951   */\n      dup4\n        /* \"#utility.yul\":18938:18956   */\n      add\n        /* \"#utility.yul\":18929:18935   */\n      dup8\n        /* \"#utility.yul\":18885:18957   */\n      tag_199\n      jump\t// in\n    tag_465:\n        /* \"#utility.yul\":18967:19039   */\n      tag_466\n        /* \"#utility.yul\":19035:19037   */\n      0x60\n        /* \"#utility.yul\":19024:19033   */\n      dup4\n        /* \"#utility.yul\":19020:19038   */\n      add\n        /* \"#utility.yul\":19011:19017   */\n      dup7\n        /* \"#utility.yul\":18967:19039   */\n      tag_246\n      jump\t// in\n    tag_466:\n        /* \"#utility.yul\":19087:19096   */\n      dup2\n        /* \"#utility.yul\":19081:19085   */\n      dup2\n        /* \"#utility.yul\":19077:19097   */\n      sub\n        /* \"#utility.yul\":19071:19074   */\n      0x80\n        /* \"#utility.yul\":19060:19069   */\n      dup4\n        /* \"#utility.yul\":19056:19075   */\n      add\n        /* \"#utility.yul\":19049:19098   */\n      mstore\n        /* \"#utility.yul\":19115:19201   */\n      tag_467\n        /* \"#utility.yul\":19196:19200   */\n      dup2\n        /* \"#utility.yul\":19187:19193   */\n      dup5\n        /* \"#utility.yul\":19179:19185   */\n      dup7\n        /* \"#utility.yul\":19115:19201   */\n      tag_248\n      jump\t// in\n    tag_467:\n        /* \"#utility.yul\":19107:19201   */\n      swap1\n      pop\n        /* \"#utility.yul\":18449:19208   */\n      swap8\n      swap7\n      pop\n      pop\n      pop\n      pop\n      pop\n      pop\n      pop\n      jump\t// out\n        /* \"#utility.yul\":19214:19355   */\n    tag_249:\n        /* \"#utility.yul\":19270:19275   */\n      0x00\n        /* \"#utility.yul\":19301:19307   */\n      dup2\n        /* \"#utility.yul\":19295:19308   */\n      mload\n        /* \"#utility.yul\":19286:19308   */\n      swap1\n      pop\n        /* \"#utility.yul\":19317:19349   */\n      tag_469\n        /* \"#utility.yul\":19343:19348   */\n      dup2\n        /* \"#utility.yul\":19317:19349   */\n      tag_217\n      jump\t// in\n    tag_469:\n        /* \"#utility.yul\":19214:19355   */\n      swap3\n      swap2\n      pop\n      pop\n      jump\t// out\n        /* \"#utility.yul\":19361:19864   */\n    tag_89:\n        /* \"#utility.yul\":19438:19444   */\n      0x00\n        /* \"#utility.yul\":19446:19452   */\n      dup1\n        /* \"#utility.yul\":19495:19497   */\n      0x40\n        /* \"#utility.yul\":19483:19492   */\n      dup4\n        /* \"#utility.yul\":19474:19481   */\n      dup6\n        /* \"#utility.yul\":19470:19493   */\n      sub\n        /* \"#utility.yul\":19466:19498   */\n      slt\n        /* \"#utility.yul\":19463:19582   */\n      iszero\n      tag_471\n      jumpi\n        /* \"#utility.yul\":19501:19580   */\n      tag_472\n      tag_194\n      jump\t// in\n    tag_472:\n        /* \"#utility.yul\":19463:19582   */\n    tag_471:\n        /* \"#utility.yul\":19621:19622   */\n      0x00\n        /* \"#utility.yul\":19646:19709   */\n      tag_473\n        /* \"#utility.yul\":19701:19708   */\n      dup6\n        /* \"#utility.yul\":19692:19698   */\n      dup3\n        /* \"#utility.yul\":19681:19690   */\n      dup7\n        /* \"#utility.yul\":19677:19699   */\n      add\n        /* \"#utility.yul\":19646:19709   */\n      tag_249\n      jump\t// in\n    tag_473:\n        /* \"#utility.yul\":19636:19709   */\n      swap3\n      pop\n        /* \"#utility.yul\":19592:19719   */\n      pop\n        /* \"#utility.yul\":19758:19760   */\n      0x20\n        /* \"#utility.yul\":19784:19847   */\n      tag_474\n        /* \"#utility.yul\":19839:19846   */\n      dup6\n        /* \"#utility.yul\":19830:19836   */\n      dup3\n        /* \"#utility.yul\":19819:19828   */\n      dup7\n        /* \"#utility.yul\":19815:19837   */\n      add\n        /* \"#utility.yul\":19784:19847   */\n      tag_249\n      jump\t// in\n    tag_474:\n        /* \"#utility.yul\":19774:19847   */\n      swap2\n      pop\n        /* \"#utility.yul\":19729:19857   */\n      pop\n        /* \"#utility.yul\":19361:19864   */\n      swap3\n      pop\n      swap3\n      swap1\n      pop\n      jump\t// out\n        /* \"#utility.yul\":19870:20098   */\n    tag_106:\n        /* \"#utility.yul\":19905:19908   */\n      0x00\n        /* \"#utility.yul\":19928:19951   */\n      tag_476\n        /* \"#utility.yul\":19945:19950   */\n      dup3\n        /* \"#utility.yul\":19928:19951   */\n      tag_215\n      jump\t// in\n    tag_476:\n        /* \"#utility.yul\":19919:19951   */\n      swap2\n      pop\n        /* \"#utility.yul\":19973:20039   */\n      0x8000000000000000000000000000000000000000000000000000000000000000\n        /* \"#utility.yul\":19966:19971   */\n      dup3\n        /* \"#utility.yul\":19963:20040   */\n      sub\n        /* \"#utility.yul\":19960:20063   */\n      tag_477\n      jumpi\n        /* \"#utility.yul\":20043:20061   */\n      tag_478\n      tag_244\n      jump\t// in\n    tag_478:\n        /* \"#utility.yul\":19960:20063   */\n    tag_477:\n        /* \"#utility.yul\":20086:20091   */\n      dup2\n        /* \"#utility.yul\":20083:20084   */\n      0x00\n        /* \"#utility.yul\":20079:20092   */\n      sub\n        /* \"#utility.yul\":20072:20092   */\n      swap1\n      pop\n        /* \"#utility.yul\":19870:20098   */\n      swap2\n      swap1\n      pop\n      jump\t// out\n        /* \"#utility.yul\":20104:20330   */\n    tag_108:\n        /* \"#utility.yul\":20138:20141   */\n      0x00\n        /* \"#utility.yul\":20161:20183   */\n      tag_480\n        /* \"#utility.yul\":20177:20182   */\n      dup3\n        /* \"#utility.yul\":20161:20183   */\n      tag_220\n      jump\t// in\n    tag_480:\n        /* \"#utility.yul\":20152:20183   */\n      swap2\n      pop\n        /* \"#utility.yul\":20205:20271   */\n      0xffffffffffffffffffffffffffffffffffffffffffffffffffffffffff800000\n        /* \"#utility.yul\":20198:20203   */\n      dup3\n        /* \"#utility.yul\":20195:20272   */\n      sub\n        /* \"#utility.yul\":20192:20295   */\n      tag_481\n      jumpi\n        /* \"#utility.yul\":20275:20293   */\n      tag_482\n      tag_244\n      jump\t// in\n    tag_482:\n        /* \"#utility.yul\":20192:20295   */\n    tag_481:\n        /* \"#utility.yul\":20318:20323   */\n      dup2\n        /* \"#utility.yul\":20315:20316   */\n      0x00\n        /* \"#utility.yul\":20311:20324   */\n      sub\n        /* \"#utility.yul\":20304:20324   */\n      swap1\n      pop\n        /* \"#utility.yul\":20104:20330   */\n      swap2\n      swap1\n      pop\n      jump\t// out\n        /* \"#utility.yul\":20336:20505   */\n    tag_250:\n        /* \"#utility.yul\":20420:20431   */\n      0x00\n        /* \"#utility.yul\":20454:20460   */\n      dup3\n        /* \"#utility.yul\":20449:20452   */\n      dup3\n        /* \"#utility.yul\":20442:20461   */\n      mstore\n        /* \"#utility.yul\":20494:20498   */\n      0x20\n        /* \"#utility.yul\":20489:20492   */\n      dup3\n        /* \"#utility.yul\":20485:20499   */\n      add\n        /* \"#utility.yul\":20470:20499   */\n      swap1\n      pop\n        /* \"#utility.yul\":20336:20505   */\n      swap3\n      swap2\n      pop\n      pop\n      jump\t// out\n        /* \"#utility.yul\":20511:20662   */\n    tag_251:\n        /* \"#utility.yul\":20651:20654   */\n      0x5400000000000000000000000000000000000000000000000000000000000000\n        /* \"#utility.yul\":20647:20648   */\n      0x00\n        /* \"#utility.yul\":20639:20645   */\n      dup3\n        /* \"#utility.yul\":20635:20649   */\n      add\n        /* \"#utility.yul\":20628:20655   */\n      mstore\n        /* \"#utility.yul\":20511:20662   */\n      pop\n      jump\t// out\n        /* \"#utility.yul\":20668:21033   */\n    tag_252:\n        /* \"#utility.yul\":20810:20813   */\n      0x00\n        /* \"#utility.yul\":20831:20897   */\n      tag_486\n        /* \"#utility.yul\":20895:20896   */\n      0x01\n        /* \"#utility.yul\":20890:20893   */\n      dup4\n        /* \"#utility.yul\":20831:20897   */\n      tag_250\n      jump\t// in\n    tag_486:\n        /* \"#utility.yul\":20824:20897   */\n      swap2\n      pop\n        /* \"#utility.yul\":20906:20999   */\n      tag_487\n        /* \"#utility.yul\":20995:20998   */\n      dup3\n        /* \"#utility.yul\":20906:20999   */\n      tag_251\n      jump\t// in\n    tag_487:\n        /* \"#utility.yul\":21024:21026   */\n      0x20\n        /* \"#utility.yul\":21019:21022   */\n      dup3\n        /* \"#utility.yul\":21015:21027   */\n      add\n        /* \"#utility.yul\":21008:21027   */\n      swap1\n      pop\n        /* \"#utility.yul\":20668:21033   */\n      swap2\n      swap1\n      pop\n      jump\t// out\n        /* \"#utility.yul\":21039:21458   */\n    tag_111:\n        /* \"#utility.yul\":21205:21209   */\n      0x00\n        /* \"#utility.yul\":21243:21245   */\n      0x20\n        /* \"#utility.yul\":21232:21241   */\n      dup3\n        /* \"#utility.yul\":21228:21246   */\n      add\n        /* \"#utility.yul\":21220:21246   */\n      swap1\n      pop\n        /* \"#utility.yul\":21292:21301   */\n      dup2\n        /* \"#utility.yul\":21286:21290   */\n      dup2\n        /* \"#utility.yul\":21282:21302   */\n      sub\n        /* \"#utility.yul\":21278:21279   */\n      0x00\n        /* \"#utility.yul\":21267:21276   */\n      dup4\n        /* \"#utility.yul\":21263:21280   */\n      add\n        /* \"#utility.yul\":21256:21303   */\n      mstore\n        /* \"#utility.yul\":21320:21451   */\n      tag_489\n        /* \"#utility.yul\":21446:21450   */\n      dup2\n        /* \"#utility.yul\":21320:21451   */\n      tag_252\n      jump\t// in\n    tag_489:\n        /* \"#utility.yul\":21312:21451   */\n      swap1\n      pop\n        /* \"#utility.yul\":21039:21458   */\n      swap2\n      swap1\n      pop\n      jump\t// out\n        /* \"#utility.yul\":21464:21874   */\n    tag_116:\n        /* \"#utility.yul\":21504:21511   */\n      0x00\n        /* \"#utility.yul\":21527:21547   */\n      tag_491\n        /* \"#utility.yul\":21545:21546   */\n      dup3\n        /* \"#utility.yul\":21527:21547   */\n      tag_198\n      jump\t// in\n    tag_491:\n        /* \"#utility.yul\":21522:21547   */\n      swap2\n      pop\n        /* \"#utility.yul\":21561:21581   */\n      tag_492\n        /* \"#utility.yul\":21579:21580   */\n      dup4\n        /* \"#utility.yul\":21561:21581   */\n      tag_198\n      jump\t// in\n    tag_492:\n        /* \"#utility.yul\":21556:21581   */\n      swap3\n      pop\n        /* \"#utility.yul\":21616:21617   */\n      dup3\n        /* \"#utility.yul\":21613:21614   */\n      dup3\n        /* \"#utility.yul\":21609:21618   */\n      mul\n        /* \"#utility.yul\":21638:21668   */\n      tag_493\n        /* \"#utility.yul\":21656:21667   */\n      dup2\n        /* \"#utility.yul\":21638:21668   */\n      tag_198\n      jump\t// in\n    tag_493:\n        /* \"#utility.yul\":21627:21668   */\n      swap2\n      pop\n        /* \"#utility.yul\":21817:21818   */\n      dup3\n        /* \"#utility.yul\":21808:21815   */\n      dup3\n        /* \"#utility.yul\":21804:21819   */\n      div\n        /* \"#utility.yul\":21801:21802   */\n      dup5\n        /* \"#utility.yul\":21798:21820   */\n      eq\n        /* \"#utility.yul\":21778:21779   */\n      dup4\n        /* \"#utility.yul\":21771:21780   */\n      iszero\n        /* \"#utility.yul\":21751:21834   */\n      or\n        /* \"#utility.yul\":21728:21867   */\n      tag_494\n      jumpi\n        /* \"#utility.yul\":21847:21865   */\n      tag_495\n      tag_244\n      jump\t// in\n    tag_495:\n        /* \"#utility.yul\":21728:21867   */\n    tag_494:\n        /* \"#utility.yul\":21512:21874   */\n      pop\n        /* \"#utility.yul\":21464:21874   */\n      swap3\n      swap2\n      pop\n      pop\n      jump\t// out\n        /* \"#utility.yul\":21880:22060   */\n    tag_190:\n        /* \"#utility.yul\":21928:22005   */\n      0x4e487b7100000000000000000000000000000000000000000000000000000000\n        /* \"#utility.yul\":21925:21926   */\n      0x00\n        /* \"#utility.yul\":21918:22006   */\n      mstore\n        /* \"#utility.yul\":22025:22029   */\n      0x12\n        /* \"#utility.yul\":22022:22023   */\n      0x04\n        /* \"#utility.yul\":22015:22030   */\n      mstore\n        /* \"#utility.yul\":22049:22053   */\n      0x24\n        /* \"#utility.yul\":22046:22047   */\n      0x00\n        /* \"#utility.yul\":22039:22054   */\n      revert\n        /* \"#utility.yul\":22066:22251   */\n    tag_155:\n        /* \"#utility.yul\":22106:22107   */\n      0x00\n        /* \"#utility.yul\":22123:22143   */\n      tag_498\n        /* \"#utility.yul\":22141:22142   */\n      dup3\n        /* \"#utility.yul\":22123:22143   */\n      tag_198\n      jump\t// in\n    tag_498:\n        /* \"#utility.yul\":22118:22143   */\n      swap2\n      pop\n        /* \"#utility.yul\":22157:22177   */\n      tag_499\n        /* \"#utility.yul\":22175:22176   */\n      dup4\n        /* \"#utility.yul\":22157:22177   */\n      tag_198\n      jump\t// in\n    tag_499:\n        /* \"#utility.yul\":22152:22177   */\n      swap3\n      pop\n        /* \"#utility.yul\":22196:22197   */\n      dup3\n        /* \"#utility.yul\":22186:22221   */\n      tag_500\n      jumpi\n        /* \"#utility.yul\":22201:22219   */\n      tag_501\n      tag_190\n      jump\t// in\n    tag_501:\n        /* \"#utility.yul\":22186:22221   */\n    tag_500:\n        /* \"#utility.yul\":22243:22244   */\n      dup3\n        /* \"#utility.yul\":22240:22241   */\n      dup3\n        /* \"#utility.yul\":22236:22245   */\n      div\n        /* \"#utility.yul\":22231:22245   */\n      swap1\n      pop\n        /* \"#utility.yul\":22066:22251   */\n      swap3\n      swap2\n      pop\n      pop\n      jump\t// out\n        /* \"#utility.yul\":22257:22433   */\n    tag_157:\n        /* \"#utility.yul\":22289:22290   */\n      0x00\n        /* \"#utility.yul\":22306:22326   */\n      tag_503\n        /* \"#utility.yul\":22324:22325   */\n      dup3\n        /* \"#utility.yul\":22306:22326   */\n      tag_198\n      jump\t// in\n    tag_503:\n        /* \"#utility.yul\":22301:22326   */\n      swap2\n      pop\n        /* \"#utility.yul\":22340:22360   */\n      tag_504\n        /* \"#utility.yul\":22358:22359   */\n      dup4\n        /* \"#utility.yul\":22340:22360   */\n      tag_198\n      jump\t// in\n    tag_504:\n        /* \"#utility.yul\":22335:22360   */\n      swap3\n      pop\n        /* \"#utility.yul\":22379:22380   */\n      dup3\n        /* \"#utility.yul\":22369:22404   */\n      tag_505\n      jumpi\n        /* \"#utility.yul\":22384:22402   */\n      tag_506\n      tag_190\n      jump\t// in\n    tag_506:\n        /* \"#utility.yul\":22369:22404   */\n    tag_505:\n        /* \"#utility.yul\":22425:22426   */\n      dup3\n        /* \"#utility.yul\":22422:22423   */\n      dup3\n        /* \"#utility.yul\":22418:22427   */\n      mod\n        /* \"#utility.yul\":22413:22427   */\n      swap1\n      pop\n        /* \"#utility.yul\":22257:22433   */\n      swap3\n      swap2\n      pop\n      pop\n      jump\t// out\n        /* \"#utility.yul\":22439:22630   */\n    tag_161:\n        /* \"#utility.yul\":22479:22482   */\n      0x00\n        /* \"#utility.yul\":22498:22518   */\n      tag_508\n        /* \"#utility.yul\":22516:22517   */\n      dup3\n        /* \"#utility.yul\":22498:22518   */\n      tag_198\n      jump\t// in\n    tag_508:\n        /* \"#utility.yul\":22493:22518   */\n      swap2\n      pop\n        /* \"#utility.yul\":22532:22552   */\n      tag_509\n        /* \"#utility.yul\":22550:22551   */\n      dup4\n        /* \"#utility.yul\":22532:22552   */\n      tag_198\n      jump\t// in\n    tag_509:\n        /* \"#utility.yul\":22527:22552   */\n      swap3\n      pop\n        /* \"#utility.yul\":22575:22576   */\n      dup3\n        /* \"#utility.yul\":22572:22573   */\n      dup3\n        /* \"#utility.yul\":22568:22577   */\n      add\n        /* \"#utility.yul\":22561:22577   */\n      swap1\n      pop\n        /* \"#utility.yul\":22596:22599   */\n      dup1\n        /* \"#utility.yul\":22593:22594   */\n      dup3\n        /* \"#utility.yul\":22590:22600   */\n      gt\n        /* \"#utility.yul\":22587:22623   */\n      iszero\n      tag_510\n      jumpi\n        /* \"#utility.yul\":22603:22621   */\n      tag_511\n      tag_244\n      jump\t// in\n    tag_511:\n        /* \"#utility.yul\":22587:22623   */\n    tag_510:\n        /* \"#utility.yul\":22439:22630   */\n      swap3\n      swap2\n      pop\n      pop\n      jump\t// out\n\n    auxdata: 0xa2646970667358221220e7445f313c1ade2281ce4fc248aa5c28627745bdbb41f431d509a4f9b72a790a64736f6c634300081a0033\n}\n",
				"bytecode": {
					"linkReferences": {},
					"object": "6080604052348015600f57600080fd5b50611ca78061001f6000396000f3fe608060405234801561001057600080fd5b506004361061004c5760003560e01c8063190c175214610051578063d348799714610082578063dd5a12d81461009e578063fa461e33146100cf575b600080fd5b61006b60048036038101906100669190611024565b6100eb565b60405161007992919061106a565b60405180910390f35b61009c60048036038101906100979190611124565b610438565b005b6100b860048036038101906100b3919061125a565b610564565b6040516100c692919061130d565b60405180910390f35b6100e960048036038101906100e49190611362565b61065d565b005b600080600083600001602081019061010391906113d6565b905060008173ffffffffffffffffffffffffffffffffffffffff16633850c7bd6040518163ffffffff1660e01b81526004016040805180830381865afa158015610151573d6000803e3d6000fd5b505050506040513d601f19601f820116820180604052508101906101759190611451565b509050600061019586602001602081019061019091906114a6565b61079d565b905060006101b48760400160208101906101af91906114a6565b61079d565b905060006101cd8484848b606001358c60800135610c6a565b90508473ffffffffffffffffffffffffffffffffffffffff16633c8a7d8d338a60200160208101906101ff91906114a6565b8b604001602081019061021291906114a6565b8560405180606001604052808c73ffffffffffffffffffffffffffffffffffffffff16630dfe16816040518163ffffffff1660e01b8152600401602060405180830381865afa158015610269573d6000803e3d6000fd5b505050506040513d601f19601f8201168201806040525081019061028d91906114e8565b73ffffffffffffffffffffffffffffffffffffffff1681526020018c73ffffffffffffffffffffffffffffffffffffffff1663d21220a76040518163ffffffff1660e01b8152600401602060405180830381865afa1580156102f3573d6000803e3d6000fd5b505050506040513d601f19601f8201168201806040525081019061031791906114e8565b73ffffffffffffffffffffffffffffffffffffffff1681526020013373ffffffffffffffffffffffffffffffffffffffff1681525060405160200161035c9190611566565b6040516020818303038152906040526040518663ffffffff1660e01b815260040161038b95949392919061165a565b60408051808303816000875af11580156103a9573d6000803e3d6000fd5b505050506040513d601f19601f820116820180604052508101906103cd91906116c9565b80975081985050508760a001358710806103ea57508760c0013586105b1561042e5786866040517fa8f6c8d000000000000000000000000000000000000000000000000000000000815260040161042592919061106a565b60405180910390fd5b5050505050915091565b6000828281019061044991906117ed565b9050806000015173ffffffffffffffffffffffffffffffffffffffff166323b872dd826040015133886040518463ffffffff1660e01b81526004016104909392919061181a565b6020604051808303816000875af11580156104af573d6000803e3d6000fd5b505050506040513d601f19601f820116820180604052508101906104d39190611866565b50806020015173ffffffffffffffffffffffffffffffffffffffff166323b872dd826040015133876040518463ffffffff1660e01b81526004016105199392919061181a565b6020604051808303816000875af1158015610538573d6000803e3d6000fd5b505050506040513d601f19601f8201168201806040525081019061055c9190611866565b505050505050565b6000808773ffffffffffffffffffffffffffffffffffffffff1663dd5a12d833898960008a73ffffffffffffffffffffffffffffffffffffffff16146105aa57896105e9565b8b6105d557600173fffd8963efd1fc6a506488495d951d5263988d266105d091906118c2565b6105e8565b60016401000276a36105e7919061190a565b5b5b89896040518763ffffffff1660e01b815260040161060c969594939291906119ac565b60408051808303816000875af115801561062a573d6000803e3d6000fd5b505050506040513d601f19601f8201168201806040525081019061064e9190611a1d565b91509150965096945050505050565b6000828281019061066e91906117ed565b9050600085131561070357806000015173ffffffffffffffffffffffffffffffffffffffff166323b872dd826040015133886040518463ffffffff1660e01b81526004016106be9392919061181a565b6020604051808303816000875af11580156106dd573d6000803e3d6000fd5b505050506040513d601f19601f820116820180604052508101906107019190611866565b505b600084131561079657806020015173ffffffffffffffffffffffffffffffffffffffff166323b872dd826040015133876040518463ffffffff1660e01b81526004016107519392919061181a565b6020604051808303816000875af1158015610770573d6000803e3d6000fd5b505050506040513d601f19601f820116820180604052508101906107949190611866565b505b5050505050565b60008060008360020b126107b4578260020b6107c2565b8260020b6107c190611a5d565b5b90507ffffffffffffffffffffffffffffffffffffffffffffffffffffffffffff276186107ee90611aa5565b62ffffff16811115610835576040517f08c379a000000000000000000000000000000000000000000000000000000000815260040161082c90611b4a565b60405180910390fd5b60008060018316036108585770010000000000000000000000000000000061086a565b6ffffcb933bd6fad37aa2d162d1a5940015b70ffffffffffffffffffffffffffffffffff169050600060028316146108ad5760806ffff97272373d413259a46990580e213a826108a89190611b6a565b901c90505b600060048316146108db5760806ffff2e50f5f656932ef12357cf3c7fdcc826108d69190611b6a565b901c90505b600060088316146109095760806fffe5caca7e10e4e61c3624eaa0941cd0826109049190611b6a565b901c90505b600060108316146109375760806fffcb9843d60f6159c9db58835c926644826109329190611b6a565b901c90505b600060208316146109655760806fff973b41fa98c081472e6896dfb254c0826109609190611b6a565b901c90505b600060408316146109935760806fff2ea16466c96a3843ec78b326b528618261098e9190611b6a565b901c90505b600060808316146109c15760806ffe5dee046a99a2a811c461f1969c3053826109bc9190611b6a565b901c90505b60006101008316146109f05760806ffcbe86c7900a88aedcffc83b479aa3a4826109eb9190611b6a565b901c90505b6000610200831614610a1f5760806ff987a7253ac413176f2b074cf7815e5482610a1a9190611b6a565b901c90505b6000610400831614610a4e5760806ff3392b0822b70005940c7a398e4b70f382610a499190611b6a565b901c90505b6000610800831614610a7d5760806fe7159475a2c29b7443b29c7fa6e889d982610a789190611b6a565b901c90505b6000611000831614610aac5760806fd097f3bdfd2022b8845ad8f792aa582582610aa79190611b6a565b901c90505b6000612000831614610adb5760806fa9f746462d870fdf8a65dc1f90e061e582610ad69190611b6a565b901c90505b6000614000831614610b0a5760806f70d869a156d2a1b890bb3df62baf32f782610b059190611b6a565b901c90505b6000618000831614610b395760806f31be135f97d08fd981231505542fcfa682610b349190611b6a565b901c90505b600062010000831614610b695760806f09aa508b5b7a84e1c677de54f3e99bc982610b649190611b6a565b901c90505b600062020000831614610b985760806e5d6af8dedb81196699c329225ee60482610b939190611b6a565b901c90505b600062040000831614610bc65760806d2216e584f5fa1ea926041bedfe9882610bc19190611b6a565b901c90505b600062080000831614610bf25760806b048a170391f7dc42444e8fa282610bed9190611b6a565b901c90505b60008460020b1315610c2d57807fffffffffffffffffffffffffffffffffffffffffffffffffffffffffffffffff610c2a9190611bdb565b90505b600064010000000082610c409190611c0c565b14610c4c576001610c4f565b60005b60ff16602082901c610c619190611c3d565b92505050919050565b60008373ffffffffffffffffffffffffffffffffffffffff168573ffffffffffffffffffffffffffffffffffffffff161115610cab57838580955081965050505b8473ffffffffffffffffffffffffffffffffffffffff168673ffffffffffffffffffffffffffffffffffffffff1611610cf057610ce9858585610d95565b9050610d8c565b8373ffffffffffffffffffffffffffffffffffffffff168673ffffffffffffffffffffffffffffffffffffffff1611610d7d576000610d30878686610d95565b90506000610d3f878986610e54565b9050806fffffffffffffffffffffffffffffffff16826fffffffffffffffffffffffffffffffff1610610d725780610d74565b815b92505050610d8b565b610d88858584610e54565b90505b5b95945050505050565b60008273ffffffffffffffffffffffffffffffffffffffff168473ffffffffffffffffffffffffffffffffffffffff161115610dd657828480945081955050505b6000610e1c8573ffffffffffffffffffffffffffffffffffffffff168573ffffffffffffffffffffffffffffffffffffffff166c01000000000000000000000000610ed7565b9050610e4a83828787610e2f91906118c2565b73ffffffffffffffffffffffffffffffffffffffff16610ed7565b9150509392505050565b60008273ffffffffffffffffffffffffffffffffffffffff168473ffffffffffffffffffffffffffffffffffffffff161115610e9557828480945081955050505b610ece826c010000000000000000000000008686610eb391906118c2565b73ffffffffffffffffffffffffffffffffffffffff16610ed7565b90509392505050565b6000806000801985870985870292508281108382030391505060008103610f1257838281610f0857610f07611bac565b5b0492505050610fe5565b838110610f585780846040517f773cc18c000000000000000000000000000000000000000000000000000000008152600401610f4f92919061106a565b60405180910390fd5b60008486880990508281118203915080830392506000600186190186169050808604955080840493506001818260000304019050808302841793506000600287600302189050808702600203810290508087026002038102905080870260020381029050808702600203810290508087026002038102905080870260020381029050808502955050505050505b9392505050565b6000604051905090565b600080fd5b600080fd5b600080fd5b600060e0828403121561101b5761101a611000565b5b81905092915050565b600060e0828403121561103a57611039610ff6565b5b600061104884828501611005565b91505092915050565b6000819050919050565b61106481611051565b82525050565b600060408201905061107f600083018561105b565b61108c602083018461105b565b9392505050565b61109c81611051565b81146110a757600080fd5b50565b6000813590506110b981611093565b92915050565b600080fd5b600080fd5b600080fd5b60008083601f8401126110e4576110e36110bf565b5b8235905067ffffffffffffffff811115611101576111006110c4565b5b60208301915083600182028301111561111d5761111c6110c9565b5b9250929050565b6000806000806060858703121561113e5761113d610ff6565b5b600061114c878288016110aa565b945050602061115d878288016110aa565b935050604085013567ffffffffffffffff81111561117e5761117d610ffb565b5b61118a878288016110ce565b925092505092959194509250565b600073ffffffffffffffffffffffffffffffffffffffff82169050919050565b60006111c382611198565b9050919050565b6111d3816111b8565b81146111de57600080fd5b50565b6000813590506111f0816111ca565b92915050565b60008115159050919050565b61120b816111f6565b811461121657600080fd5b50565b60008135905061122881611202565b92915050565b61123781611198565b811461124257600080fd5b50565b6000813590506112548161122e565b92915050565b60008060008060008060a0878903121561127757611276610ff6565b5b600061128589828a016111e1565b965050602061129689828a01611219565b95505060406112a789828a016110aa565b94505060606112b889828a01611245565b935050608087013567ffffffffffffffff8111156112d9576112d8610ffb565b5b6112e589828a016110ce565b92509250509295509295509295565b6000819050919050565b611307816112f4565b82525050565b600060408201905061132260008301856112fe565b61132f60208301846112fe565b9392505050565b61133f816112f4565b811461134a57600080fd5b50565b60008135905061135c81611336565b92915050565b6000806000806060858703121561137c5761137b610ff6565b5b600061138a8782880161134d565b945050602061139b8782880161134d565b935050604085013567ffffffffffffffff8111156113bc576113bb610ffb565b5b6113c8878288016110ce565b925092505092959194509250565b6000602082840312156113ec576113eb610ff6565b5b60006113fa848285016111e1565b91505092915050565b6000815190506114128161122e565b92915050565b60008160020b9050919050565b61142e81611418565b811461143957600080fd5b50565b60008151905061144b81611425565b92915050565b6000806040838503121561146857611467610ff6565b5b600061147685828601611403565b92505060206114878582860161143c565b9150509250929050565b6000813590506114a081611425565b92915050565b6000602082840312156114bc576114bb610ff6565b5b60006114ca84828501611491565b91505092915050565b6000815190506114e2816111ca565b92915050565b6000602082840312156114fe576114fd610ff6565b5b600061150c848285016114d3565b91505092915050565b61151e816111b8565b82525050565b60608201600082015161153a6000850182611515565b50602082015161154d6020850182611515565b5060408201516115606040850182611515565b50505050565b600060608201905061157b6000830184611524565b92915050565b61158a816111b8565b82525050565b61159981611418565b82525050565b60006fffffffffffffffffffffffffffffffff82169050919050565b6115c48161159f565b82525050565b600081519050919050565b600082825260208201905092915050565b60005b838110156116045780820151818401526020810190506115e9565b60008484015250505050565b6000601f19601f8301169050919050565b600061162c826115ca565b61163681856115d5565b93506116468185602086016115e6565b61164f81611610565b840191505092915050565b600060a08201905061166f6000830188611581565b61167c6020830187611590565b6116896040830186611590565b61169660608301856115bb565b81810360808301526116a88184611621565b90509695505050505050565b6000815190506116c381611093565b92915050565b600080604083850312156116e0576116df610ff6565b5b60006116ee858286016116b4565b92505060206116ff858286016116b4565b9150509250929050565b600080fd5b7f4e487b7100000000000000000000000000000000000000000000000000000000600052604160045260246000fd5b61174682611610565b810181811067ffffffffffffffff821117156117655761176461170e565b5b80604052505050565b6000611778610fec565b9050611784828261173d565b919050565b60006060828403121561179f5761179e611709565b5b6117a9606061176e565b905060006117b9848285016111e1565b60008301525060206117cd848285016111e1565b60208301525060406117e1848285016111e1565b60408301525092915050565b60006060828403121561180357611802610ff6565b5b600061181184828501611789565b91505092915050565b600060608201905061182f6000830186611581565b61183c6020830185611581565b611849604083018461105b565b949350505050565b60008151905061186081611202565b92915050565b60006020828403121561187c5761187b610ff6565b5b600061188a84828501611851565b91505092915050565b7f4e487b7100000000000000000000000000000000000000000000000000000000600052601160045260246000fd5b60006118cd82611198565b91506118d883611198565b9250828203905073ffffffffffffffffffffffffffffffffffffffff81111561190457611903611893565b5b92915050565b600061191582611198565b915061192083611198565b9250828201905073ffffffffffffffffffffffffffffffffffffffff81111561194c5761194b611893565b5b92915050565b61195b816111f6565b82525050565b61196a81611198565b82525050565b82818337600083830152505050565b600061198b83856115d5565b9350611998838584611970565b6119a183611610565b840190509392505050565b600060a0820190506119c16000830189611581565b6119ce6020830188611952565b6119db604083018761105b565b6119e86060830186611961565b81810360808301526119fb81848661197f565b9050979650505050505050565b600081519050611a1781611336565b92915050565b60008060408385031215611a3457611a33610ff6565b5b6000611a4285828601611a08565b9250506020611a5385828601611a08565b9150509250929050565b6000611a68826112f4565b91507f80000000000000000000000000000000000000000000000000000000000000008203611a9a57611a99611893565b5b816000039050919050565b6000611ab082611418565b91507fffffffffffffffffffffffffffffffffffffffffffffffffffffffffff8000008203611ae257611ae1611893565b5b816000039050919050565b600082825260208201905092915050565b7f5400000000000000000000000000000000000000000000000000000000000000600082015250565b6000611b34600183611aed565b9150611b3f82611afe565b602082019050919050565b60006020820190508181036000830152611b6381611b27565b9050919050565b6000611b7582611051565b9150611b8083611051565b9250828202611b8e81611051565b91508282048414831517611ba557611ba4611893565b5b5092915050565b7f4e487b7100000000000000000000000000000000000000000000000000000000600052601260045260246000fd5b6000611be682611051565b9150611bf183611051565b925082611c0157611c00611bac565b5b828204905092915050565b6000611c1782611051565b9150611c2283611051565b925082611c3257611c31611bac565b5b828206905092915050565b6000611c4882611051565b9150611c5383611051565b9250828201905080821115611c6b57611c6a611893565b5b9291505056fea2646970667358221220e7445f313c1ade2281ce4fc248aa5c28627745bdbb41f431d509a4f9b72a790a64736f6c634300081a0033",
					"opcodes": "PUSH1 0x80 PUSH1 0x40 MSTORE CALLVALUE DUP1 ISZERO PUSH1 0xF JUMPI PUSH1 0x0 DUP1 REVERT JUMPDEST POP PUSH2 0x1CA7 DUP1 PUSH2 0x1F PUSH1 0x0 CODECOPY PUSH1 0x0 RETURN INVALID PUSH1 0x80 PUSH1 0x40 MSTORE CALLVALUE DUP1 ISZERO PUSH2 0x10 JUMPI PUSH1 0x0 DUP1 REVERT JUMPDEST POP PUSH1 0x4 CALLDATASIZE LT PUSH2 0x4C JUMPI PUSH1 0x0 CALLDATALOAD PUSH1 0xE0 SHR DUP1 PUSH4 0x190C1752 EQ PUSH2 0x51 JUMPI DUP1 PUSH4 0xD3487997 EQ PUSH2 0x82 JUMPI DUP1 PUSH4 0xDD5A12D8 EQ PUSH2 0x9E JUMPI DUP1 PUSH4 0xFA461E33 EQ PUSH2 0xCF JUMPI JUMPDEST PUSH1 0x0 DUP1 REVERT JUMPDEST PUSH2 0x6B PUSH1 0x4 DUP1 CALLDATASIZE SUB DUP2 ADD SWAP1 PUSH2 0x66 SWAP2 SWAP1 PUSH2 0x1024 JUMP JUMPDEST PUSH2 0xEB JUMP JUMPDEST PUSH1 0x40 MLOAD PUSH2 0x79 SWAP3 SWAP2 SWAP1 PUSH2 0x106A JUMP JUMPDEST PUSH1 0x40 MLOAD DUP1 SWAP2 SUB SWAP1 RETURN JUMPDEST PUSH2 0x9C PUSH1 0x4 DUP1 CALLDATASIZE SUB DUP2 ADD SWAP1 PUSH2 0x97 SWAP2 SWAP1 PUSH2 0x1124 JUMP JUMPDEST PUSH2 0x438 JUMP JUMPDEST STOP JUMPDEST PUSH2 0xB8 PUSH1 0x4 DUP1 CALLDATASIZE SUB DUP2 ADD SWAP1 PUSH2 0xB3 SWAP2 SWAP1 PUSH2 0x125A JUMP JUMPDEST PUSH2 0x564 JUMP JUMPDEST PUSH1 0x40 MLOAD PUSH2 0xC6 SWAP3 SWAP2 SWAP1 PUSH2 0x130D JUMP JUMPDEST PUSH1 0x40 MLOAD DUP1 SWAP2 SUB SWAP1 RETURN JUMPDEST PUSH2 0xE9 PUSH1 0x4 DUP1 CALLDATASIZE SUB DUP2 ADD SWAP1 PUSH2 0xE4 SWAP2 SWAP1 PUSH2 0x1362 JUMP JUMPDEST PUSH2 0x65D JUMP JUMPDEST STOP JUMPDEST PUSH1 0x0 DUP1 PUSH1 0x0 DUP4 PUSH1 0x0 ADD PUSH1 0x20 DUP2 ADD SWAP1 PUSH2 0x103 SWAP2 SWAP1 PUSH2 0x13D6 JUMP JUMPDEST SWAP1 POP PUSH1 0x0 DUP2 PUSH20 0xFFFFFFFFFFFFFFFFFFFFFFFFFFFFFFFFFFFFFFFF AND PUSH4 0x3850C7BD PUSH1 0x40 MLOAD DUP2 PUSH4 0xFFFFFFFF AND PUSH1 0xE0 SHL DUP2 MSTORE PUSH1 0x4 ADD PUSH1 0x40 DUP1 MLOAD DUP1 DUP4 SUB DUP2 DUP7 GAS STATICCALL ISZERO DUP1 ISZERO PUSH2 0x151 JUMPI RETURNDATASIZE PUSH1 0x0 DUP1 RETURNDATACOPY RETURNDATASIZE PUSH1 0x0 REVERT JUMPDEST POP POP POP POP PUSH1 0x40 MLOAD RETURNDATASIZE PUSH1 0x1F NOT PUSH1 0x1F DUP3 ADD AND DUP3 ADD DUP1 PUSH1 0x40 MSTORE POP DUP2 ADD SWAP1 PUSH2 0x175 SWAP2 SWAP1 PUSH2 0x1451 JUMP JUMPDEST POP SWAP1 POP PUSH1 0x0 PUSH2 0x195 DUP7 PUSH1 0x20 ADD PUSH1 0x20 DUP2 ADD SWAP1 PUSH2 0x190 SWAP2 SWAP1 PUSH2 0x14A6 JUMP JUMPDEST PUSH2 0x79D JUMP JUMPDEST SWAP1 POP PUSH1 0x0 PUSH2 0x1B4 DUP8 PUSH1 0x40 ADD PUSH1 0x20 DUP2 ADD SWAP1 PUSH2 0x1AF SWAP2 SWAP1 PUSH2 0x14A6 JUMP JUMPDEST PUSH2 0x79D JUMP JUMPDEST SWAP1 POP PUSH1 0x0 PUSH2 0x1CD DUP5 DUP5 DUP5 DUP12 PUSH1 0x60 ADD CALLDATALOAD DUP13 PUSH1 0x80 ADD CALLDATALOAD PUSH2 0xC6A JUMP JUMPDEST SWAP1 POP DUP5 PUSH20 0xFFFFFFFFFFFFFFFFFFFFFFFFFFFFFFFFFFFFFFFF AND PUSH4 0x3C8A7D8D CALLER DUP11 PUSH1 0x20 ADD PUSH1 0x20 DUP2 ADD SWAP1 PUSH2 0x1FF SWAP2 SWAP1 PUSH2 0x14A6 JUMP JUMPDEST DUP12 PUSH1 0x40 ADD PUSH1 0x20 DUP2 ADD SWAP1 PUSH2 0x212 SWAP2 SWAP1 PUSH2 0x14A6 JUMP JUMPDEST DUP6 PUSH1 0x40 MLOAD DUP1 PUSH1 0x60 ADD PUSH1 0x40 MSTORE DUP1 DUP13 PUSH20 0xFFFFFFFFFFFFFFFFFFFFFFFFFFFFFFFFFFFFFFFF AND PUSH4 0xDFE1681 PUSH1 0x40 MLOAD DUP2 PUSH4 0xFFFFFFFF AND PUSH1 0xE0 SHL DUP2 MSTORE PUSH1 0x4 ADD PUSH1 0x20 PUSH1 0x40 MLOAD DUP1 DUP4 SUB DUP2 DUP7 GAS STATICCALL ISZERO DUP1 ISZERO PUSH2 0x269 JUMPI RETURNDATASIZE PUSH1 0x0 DUP1 RETURNDATACOPY RETURNDATASIZE PUSH1 0x0 REVERT JUMPDEST POP POP POP POP PUSH1 0x40 MLOAD RETURNDATASIZE PUSH1 0x1F NOT PUSH1 0x1F DUP3 ADD AND DUP3 ADD DUP1 PUSH1 0x40 MSTORE POP DUP2 ADD SWAP1 PUSH2 0x28D SWAP2 SWAP1 PUSH2 0x14E8 JUMP JUMPDEST PUSH20 0xFFFFFFFFFFFFFFFFFFFFFFFFFFFFFFFFFFFFFFFF AND DUP2 MSTORE PUSH1 0x20 ADD DUP13 PUSH20 0xFFFFFFFFFFFFFFFFFFFFFFFFFFFFFFFFFFFFFFFF AND PUSH4 0xD21220A7 PUSH1 0x40 MLOAD DUP2 PUSH4 0xFFFFFFFF AND PUSH1 0xE0 SHL DUP2 MSTORE PUSH1 0x4 ADD PUSH1 0x20 PUSH1 0x40 MLOAD DUP1 DUP4 SUB DUP2 DUP7 GAS STATICCALL ISZERO DUP1 ISZERO PUSH2 0x2F3 JUMPI RETURNDATASIZE PUSH1 0x0 DUP1 RETURNDATACOPY RETURNDATASIZE PUSH1 0x0 REVERT JUMPDEST POP POP POP POP PUSH1 0x40 MLOAD RETURNDATASIZE PUSH1 0x1F NOT PUSH1 0x1F DUP3 ADD AND DUP3 ADD DUP1 PUSH1 0x40 MSTORE POP DUP2 ADD SWAP1 PUSH2 0x317 SWAP2 SWAP1 PUSH2 0x14E8 JUMP JUMPDEST PUSH20 0xFFFFFFFFFFFFFFFFFFFFFFFFFFFFFFFFFFFFFFFF AND DUP2 MSTORE PUSH1 0x20 ADD CALLER PUSH20 0xFFFFFFFFFFFFFFFFFFFFFFFFFFFFFFFFFFFFFFFF AND DUP2 MSTORE POP PUSH1 0x40 MLOAD PUSH1 0x20 ADD PUSH2 0x35C SWAP2 SWAP1 PUSH2 0x1566 JUMP JUMPDEST PUSH1 0x40 MLOAD PUSH1 0x20 DUP2 DUP4 SUB SUB DUP2 MSTORE SWAP1 PUSH1 0x40 MSTORE PUSH1 0x40 MLOAD DUP7 PUSH4 0xFFFFFFFF AND PUSH1 0xE0 SHL DUP2 MSTORE PUSH1 0x4 ADD PUSH2 0x38B SWAP6 SWAP5 SWAP4 SWAP3 SWAP2 SWAP1 PUSH2 0x165A JUMP JUMPDEST PUSH1 0x40 DUP1 MLOAD DUP1 DUP4 SUB DUP2 PUSH1 0x0 DUP8 GAS CALL ISZERO DUP1 ISZERO PUSH2 0x3A9 JUMPI RETURNDATASIZE PUSH1 0x0 DUP1 RETURNDATACOPY RETURNDATASIZE PUSH1 0x0 REVERT JUMPDEST POP POP POP POP PUSH1 0x40 MLOAD RETURNDATASIZE PUSH1 0x1F NOT PUSH1 0x1F DUP3 ADD AND DUP3 ADD DUP1 PUSH1 0x40 MSTORE POP DUP2 ADD SWAP1 PUSH2 0x3CD SWAP2 SWAP1 PUSH2 0x16C9 JUMP JUMPDEST DUP1 SWAP8 POP DUP2 SWAP9 POP POP POP DUP8 PUSH1 0xA0 ADD CALLDATALOAD DUP8 LT DUP1 PUSH2 0x3EA JUMPI POP DUP8 PUSH1 0xC0 ADD CALLDATALOAD DUP7 LT JUMPDEST ISZERO PUSH2 0x42E JUMPI DUP7 DUP7 PUSH1 0x40 MLOAD PUSH32 0xA8F6C8D000000000000000000000000000000000000000000000000000000000 DUP2 MSTORE PUSH1 0x4 ADD PUSH2 0x425 SWAP3 SWAP2 SWAP1 PUSH2 0x106A JUMP JUMPDEST PUSH1 0x40 MLOAD DUP1 SWAP2 SUB SWAP1 REVERT JUMPDEST POP POP POP POP POP SWAP2 POP SWAP2 JUMP JUMPDEST PUSH1 0x0 DUP3 DUP3 DUP2 ADD SWAP1 PUSH2 0x449 SWAP2 SWAP1 PUSH2 0x17ED JUMP JUMPDEST SWAP1 POP DUP1 PUSH1 0x0 ADD MLOAD PUSH20 0xFFFFFFFFFFFFFFFFFFFFFFFFFFFFFFFFFFFFFFFF AND PUSH4 0x23B872DD DUP3 PUSH1 0x40 ADD MLOAD CALLER DUP9 PUSH1 0x40 MLOAD DUP5 PUSH4 0xFFFFFFFF AND PUSH1 0xE0 SHL DUP2 MSTORE PUSH1 0x4 ADD PUSH2 0x490 SWAP4 SWAP3 SWAP2 SWAP1 PUSH2 0x181A JUMP JUMPDEST PUSH1 0x20 PUSH1 0x40 MLOAD DUP1 DUP4 SUB DUP2 PUSH1 0x0 DUP8 GAS CALL ISZERO DUP1 ISZERO PUSH2 0x4AF JUMPI RETURNDATASIZE PUSH1 0x0 DUP1 RETURNDATACOPY RETURNDATASIZE PUSH1 0x0 REVERT JUMPDEST POP POP POP POP PUSH1 0x40 MLOAD RETURNDATASIZE PUSH1 0x1F NOT PUSH1 0x1F DUP3 ADD AND DUP3 ADD DUP1 PUSH1 0x40 MSTORE POP DUP2 ADD SWAP1 PUSH2 0x4D3 SWAP2 SWAP1 PUSH2 0x1866 JUMP JUMPDEST POP DUP1 PUSH1 0x20 ADD MLOAD PUSH20 0xFFFFFFFFFFFFFFFFFFFFFFFFFFFFFFFFFFFFFFFF AND PUSH4 0x23B872DD DUP3 PUSH1 0x40 ADD MLOAD CALLER DUP8 PUSH1 0x40 MLOAD DUP5 PUSH4 0xFFFFFFFF AND PUSH1 0xE0 SHL DUP2 MSTORE PUSH1 0x4 ADD PUSH2 0x519 SWAP4 SWAP3 SWAP2 SWAP1 PUSH2 0x181A JUMP JUMPDEST PUSH1 0x20 PUSH1 0x40 MLOAD DUP1 DUP4 SUB DUP2 PUSH1 0x0 DUP8 GAS CALL ISZERO DUP1 ISZERO PUSH2 0x538 JUMPI RETURNDATASIZE PUSH1 0x0 DUP1 RETURNDATACOPY RETURNDATASIZE PUSH1 0x0 REVERT JUMPDEST POP POP POP POP PUSH1 0x40 MLOAD RETURNDATASIZE PUSH1 0x1F NOT PUSH1 0x1F DUP3 ADD AND DUP3 ADD DUP1 PUSH1 0x40 MSTORE POP DUP2 ADD SWAP1 PUSH2 0x55C SWAP2 SWAP1 PUSH2 0x1866 JUMP JUMPDEST POP POP POP POP POP POP JUMP JUMPDEST PUSH1 0x0 DUP1 DUP8 PUSH20 0xFFFFFFFFFFFFFFFFFFFFFFFFFFFFFFFFFFFFFFFF AND PUSH4 0xDD5A12D8 CALLER DUP10 DUP10 PUSH1 0x0 DUP11 PUSH20 0xFFFFFFFFFFFFFFFFFFFFFFFFFFFFFFFFFFFFFFFF AND EQ PUSH2 0x5AA JUMPI DUP10 PUSH2 0x5E9 JUMP JUMPDEST DUP12 PUSH2 0x5D5 JUMPI PUSH1 0x1 PUSH20 0xFFFD8963EFD1FC6A506488495D951D5263988D26 PUSH2 0x5D0 SWAP2 SWAP1 PUSH2 0x18C2 JUMP JUMPDEST PUSH2 0x5E8 JUMP JUMPDEST PUSH1 0x1 PUSH5 0x1000276A3 PUSH2 0x5E7 SWAP2 SWAP1 PUSH2 0x190A JUMP JUMPDEST JUMPDEST JUMPDEST DUP10 DUP10 PUSH1 0x40 MLOAD DUP8 PUSH4 0xFFFFFFFF AND PUSH1 0xE0 SHL DUP2 MSTORE PUSH1 0x4 ADD PUSH2 0x60C SWAP7 SWAP6 SWAP5 SWAP4 SWAP3 SWAP2 SWAP1 PUSH2 0x19AC JUMP JUMPDEST PUSH1 0x40 DUP1 MLOAD DUP1 DUP4 SUB DUP2 PUSH1 0x0 DUP8 GAS CALL ISZERO DUP1 ISZERO PUSH2 0x62A JUMPI RETURNDATASIZE PUSH1 0x0 DUP1 RETURNDATACOPY RETURNDATASIZE PUSH1 0x0 REVERT JUMPDEST POP POP POP POP PUSH1 0x40 MLOAD RETURNDATASIZE PUSH1 0x1F NOT PUSH1 0x1F DUP3 ADD AND DUP3 ADD DUP1 PUSH1 0x40 MSTORE POP DUP2 ADD SWAP1 PUSH2 0x64E SWAP2 SWAP1 PUSH2 0x1A1D JUMP JUMPDEST SWAP2 POP SWAP2 POP SWAP7 POP SWAP7 SWAP5 POP POP POP POP POP JUMP JUMPDEST PUSH1 0x0 DUP3 DUP3 DUP2 ADD SWAP1 PUSH2 0x66E SWAP2 SWAP1 PUSH2 0x17ED JUMP JUMPDEST SWAP1 POP PUSH1 0x0 DUP6 SGT ISZERO PUSH2 0x703 JUMPI DUP1 PUSH1 0x0 ADD MLOAD PUSH20 0xFFFFFFFFFFFFFFFFFFFFFFFFFFFFFFFFFFFFFFFF AND PUSH4 0x23B872DD DUP3 PUSH1 0x40 ADD MLOAD CALLER DUP9 PUSH1 0x40 MLOAD DUP5 PUSH4 0xFFFFFFFF AND PUSH1 0xE0 SHL DUP2 MSTORE PUSH1 0x4 ADD PUSH2 0x6BE SWAP4 SWAP3 SWAP2 SWAP1 PUSH2 0x181A JUMP JUMPDEST PUSH1 0x20 PUSH1 0x40 MLOAD DUP1 DUP4 SUB DUP2 PUSH1 0x0 DUP8 GAS CALL ISZERO DUP1 ISZERO PUSH2 0x6DD JUMPI RETURNDATASIZE PUSH1 0x0 DUP1 RETURNDATACOPY RETURNDATASIZE PUSH1 0x0 REVERT JUMPDEST POP POP POP POP PUSH1 0x40 MLOAD RETURNDATASIZE PUSH1 0x1F NOT PUSH1 0x1F DUP3 ADD AND DUP3 ADD DUP1 PUSH1 0x40 MSTORE POP DUP2 ADD SWAP1 PUSH2 0x701 SWAP2 SWAP1 PUSH2 0x1866 JUMP JUMPDEST POP JUMPDEST PUSH1 0x0 DUP5 SGT ISZERO PUSH2 0x796 JUMPI DUP1 PUSH1 0x20 ADD MLOAD PUSH20 0xFFFFFFFFFFFFFFFFFFFFFFFFFFFFFFFFFFFFFFFF AND PUSH4 0x23B872DD DUP3 PUSH1 0x40 ADD MLOAD CALLER DUP8 PUSH1 0x40 MLOAD DUP5 PUSH4 0xFFFFFFFF AND PUSH1 0xE0 SHL DUP2 MSTORE PUSH1 0x4 ADD PUSH2 0x751 SWAP4 SWAP3 SWAP2 SWAP1 PUSH2 0x181A JUMP JUMPDEST PUSH1 0x20 PUSH1 0x40 MLOAD DUP1 DUP4 SUB DUP2 PUSH1 0x0 DUP8 GAS CALL ISZERO DUP1 ISZERO PUSH2 0x770 JUMPI RETURNDATASIZE PUSH1 0x0 DUP1 RETURNDATACOPY RETURNDATASIZE PUSH1 0x0 REVERT JUMPDEST POP POP POP POP PUSH1 0x40 MLOAD RETURNDATASIZE PUSH1 0x1F NOT PUSH1 0x1F DUP3 ADD AND DUP3 ADD DUP1 PUSH1 0x40 MSTORE POP DUP2 ADD SWAP1 PUSH2 0x794 SWAP2 SWAP1 PUSH2 0x1866 JUMP JUMPDEST POP JUMPDEST POP POP POP POP POP JUMP JUMPDEST PUSH1 0x0 DUP1 PUSH1 0x0 DUP4 PUSH1 0x2 SIGNEXTEND SLT PUSH2 0x7B4 JUMPI DUP3 PUSH1 0x2 SIGNEXTEND PUSH2 0x7C2 JUMP JUMPDEST DUP3 PUSH1 0x2 SIGNEXTEND PUSH2 0x7C1 SWAP1 PUSH2 0x1A5D JUMP JUMPDEST JUMPDEST SWAP1 POP PUSH32 0xFFFFFFFFFFFFFFFFFFFFFFFFFFFFFFFFFFFFFFFFFFFFFFFFFFFFFFFFFFF27618 PUSH2 0x7EE SWAP1 PUSH2 0x1AA5 JUMP JUMPDEST PUSH3 0xFFFFFF AND DUP2 GT ISZERO PUSH2 0x835 JUMPI PUSH1 0x40 MLOAD PUSH32 0x8C379A000000000000000000000000000000000000000000000000000000000 DUP2 MSTORE PUSH1 0x4 ADD PUSH2 0x82C SWAP1 PUSH2 0x1B4A JUMP JUMPDEST PUSH1 0x40 MLOAD DUP1 SWAP2 SUB SWAP1 REVERT JUMPDEST PUSH1 0x0 DUP1 PUSH1 0x1 DUP4 AND SUB PUSH2 0x858 JUMPI PUSH17 0x100000000000000000000000000000000 PUSH2 0x86A JUMP JUMPDEST PUSH16 0xFFFCB933BD6FAD37AA2D162D1A594001 JUMPDEST PUSH17 0xFFFFFFFFFFFFFFFFFFFFFFFFFFFFFFFFFF AND SWAP1 POP PUSH1 0x0 PUSH1 0x2 DUP4 AND EQ PUSH2 0x8AD JUMPI PUSH1 0x80 PUSH16 0xFFF97272373D413259A46990580E213A DUP3 PUSH2 0x8A8 SWAP2 SWAP1 PUSH2 0x1B6A JUMP JUMPDEST SWAP1 SHR SWAP1 POP JUMPDEST PUSH1 0x0 PUSH1 0x4 DUP4 AND EQ PUSH2 0x8DB JUMPI PUSH1 0x80 PUSH16 0xFFF2E50F5F656932EF12357CF3C7FDCC DUP3 PUSH2 0x8D6 SWAP2 SWAP1 PUSH2 0x1B6A JUMP JUMPDEST SWAP1 SHR SWAP1 POP JUMPDEST PUSH1 0x0 PUSH1 0x8 DUP4 AND EQ PUSH2 0x909 JUMPI PUSH1 0x80 PUSH16 0xFFE5CACA7E10E4E61C3624EAA0941CD0 DUP3 PUSH2 0x904 SWAP2 SWAP1 PUSH2 0x1B6A JUMP JUMPDEST SWAP1 SHR SWAP1 POP JUMPDEST PUSH1 0x0 PUSH1 0x10 DUP4 AND EQ PUSH2 0x937 JUMPI PUSH1 0x80 PUSH16 0xFFCB9843D60F6159C9DB58835C926644 DUP3 PUSH2 0x932 SWAP2 SWAP1 PUSH2 0x1B6A JUMP JUMPDEST SWAP1 SHR SWAP1 POP JUMPDEST PUSH1 0x0 PUSH1 0x20 DUP4 AND EQ PUSH2 0x965 JUMPI PUSH1 0x80 PUSH16 0xFF973B41FA98C081472E6896DFB254C0 DUP3 PUSH2 0x960 SWAP2 SWAP1 PUSH2 0x1B6A JUMP JUMPDEST SWAP1 SHR SWAP1 POP JUMPDEST PUSH1 0x0 PUSH1 0x40 DUP4 AND EQ PUSH2 0x993 JUMPI PUSH1 0x80 PUSH16 0xFF2EA16466C96A3843EC78B326B52861 DUP3 PUSH2 0x98E SWAP2 SWAP1 PUSH2 0x1B6A JUMP JUMPDEST SWAP1 SHR SWAP1 POP JUMPDEST PUSH1 0x0 PUSH1 0x80 DUP4 AND EQ PUSH2 0x9C1 JUMPI PUSH1 0x80 PUSH16 0xFE5DEE046A99A2A811C461F1969C3053 DUP3 PUSH2 0x9BC SWAP2 SWAP1 PUSH2 0x1B6A JUMP JUMPDEST SWAP1 SHR SWAP1 POP JUMPDEST PUSH1 0x0 PUSH2 0x100 DUP4 AND EQ PUSH2 0x9F0 JUMPI PUSH1 0x80 PUSH16 0xFCBE86C7900A88AEDCFFC83B479AA3A4 DUP3 PUSH2 0x9EB SWAP2 SWAP1 PUSH2 0x1B6A JUMP JUMPDEST SWAP1 SHR SWAP1 POP JUMPDEST PUSH1 0x0 PUSH2 0x200 DUP4 AND EQ PUSH2 0xA1F JUMPI PUSH1 0x80 PUSH16 0xF987A7253AC413176F2B074CF7815E54 DUP3 PUSH2 0xA1A SWAP2 SWAP1 PUSH2 0x1B6A JUMP JUMPDEST SWAP1 SHR SWAP1 POP JUMPDEST PUSH1 0x0 PUSH2 0x400 DUP4 AND EQ PUSH2 0xA4E JUMPI PUSH1 0x80 PUSH16 0xF3392B0822B70005940C7A398E4B70F3 DUP3 PUSH2 0xA49 SWAP2 SWAP1 PUSH2 0x1B6A JUMP JUMPDEST SWAP1 SHR SWAP1 POP JUMPDEST PUSH1 0x0 PUSH2 0x800 DUP4 AND EQ PUSH2 0xA7D JUMPI PUSH1 0x80 PUSH16 0xE7159475A2C29B7443B29C7FA6E889D9 DUP3 PUSH2 0xA78 SWAP2 SWAP1 PUSH2 0x1B6A JUMP JUMPDEST SWAP1 SHR SWAP1 POP JUMPDEST PUSH1 0x0 PUSH2 0x1000 DUP4 AND EQ PUSH2 0xAAC JUMPI PUSH1 0x80 PUSH16 0xD097F3BDFD2022B8845AD8F792AA5825 DUP3 PUSH2 0xAA7 SWAP2 SWAP1 PUSH2 0x1B6A JUMP JUMPDEST SWAP1 SHR SWAP1 POP JUMPDEST PUSH1 0x0 PUSH2 0x2000 DUP4 AND EQ PUSH2 0xADB JUMPI PUSH1 0x80 PUSH16 0xA9F746462D870FDF8A65DC1F90E061E5 DUP3 PUSH2 0xAD6 SWAP2 SWAP1 PUSH2 0x1B6A JUMP JUMPDEST SWAP1 SHR SWAP1 POP JUMPDEST PUSH1 0x0 PUSH2 0x4000 DUP4 AND EQ PUSH2 0xB0A JUMPI PUSH1 0x80 PUSH16 0x70D869A156D2A1B890BB3DF62BAF32F7 DUP3 PUSH2 0xB05 SWAP2 SWAP1 PUSH2 0x1B6A JUMP JUMPDEST SWAP1 SHR SWAP1 POP JUMPDEST PUSH1 0x0 PUSH2 0x8000 DUP4 AND EQ PUSH2 0xB39 JUMPI PUSH1 0x80 PUSH16 0x31BE135F97D08FD981231505542FCFA6 DUP3 PUSH2 0xB34 SWAP2 SWAP1 PUSH2 0x1B6A JUMP JUMPDEST SWAP1 SHR SWAP1 POP JUMPDEST PUSH1 0x0 PUSH3 0x10000 DUP4 AND EQ PUSH2 0xB69 JUMPI PUSH1 0x80 PUSH16 0x9AA508B5B7A84E1C677DE54F3E99BC9 DUP3 PUSH2 0xB64 SWAP2 SWAP1 PUSH2 0x1B6A JUMP JUMPDEST SWAP1 SHR SWAP1 POP JUMPDEST PUSH1 0x0 PUSH3 0x20000 DUP4 AND EQ PUSH2 0xB98 JUMPI PUSH1 0x80 PUSH15 0x5D6AF8DEDB81196699C329225EE604 DUP3 PUSH2 0xB93 SWAP2 SWAP1 PUSH2 0x1B6A JUMP JUMPDEST SWAP1 SHR SWAP1 POP JUMPDEST PUSH1 0x0 PUSH3 0x40000 DUP4 AND EQ PUSH2 0xBC6 JUMPI PUSH1 0x80 PUSH14 0x2216E584F5FA1EA926041BEDFE98 DUP3 PUSH2 0xBC1 SWAP2 SWAP1 PUSH2 0x1B6A JUMP JUMPDEST SWAP1 SHR SWAP1 POP JUMPDEST PUSH1 0x0 PUSH3 0x80000 DUP4 AND EQ PUSH2 0xBF2 JUMPI PUSH1 0x80 PUSH12 0x48A170391F7DC42444E8FA2 DUP3 PUSH2 0xBED SWAP2 SWAP1 PUSH2 0x1B6A JUMP JUMPDEST SWAP1 SHR SWAP1 POP JUMPDEST PUSH1 0x0 DUP5 PUSH1 0x2 SIGNEXTEND SGT ISZERO PUSH2 0xC2D JUMPI DUP1 PUSH32 0xFFFFFFFFFFFFFFFFFFFFFFFFFFFFFFFFFFFFFFFFFFFFFFFFFFFFFFFFFFFFFFFF PUSH2 0xC2A SWAP2 SWAP1 PUSH2 0x1BDB JUMP JUMPDEST SWAP1 POP JUMPDEST PUSH1 0x0 PUSH5 0x100000000 DUP3 PUSH2 0xC40 SWAP2 SWAP1 PUSH2 0x1C0C JUMP JUMPDEST EQ PUSH2 0xC4C JUMPI PUSH1 0x1 PUSH2 0xC4F JUMP JUMPDEST PUSH1 0x0 JUMPDEST PUSH1 0xFF AND PUSH1 0x20 DUP3 SWAP1 SHR PUSH2 0xC61 SWAP2 SWAP1 PUSH2 0x1C3D JUMP JUMPDEST SWAP3 POP POP POP SWAP2 SWAP1 POP JUMP JUMPDEST PUSH1 0x0 DUP4 PUSH20 0xFFFFFFFFFFFFFFFFFFFFFFFFFFFFFFFFFFFFFFFF AND DUP6 PUSH20 0xFFFFFFFFFFFFFFFFFFFFFFFFFFFFFFFFFFFFFFFF AND GT ISZERO PUSH2 0xCAB JUMPI DUP4 DUP6 DUP1 SWAP6 POP DUP2 SWAP7 POP POP POP JUMPDEST DUP5 PUSH20 0xFFFFFFFFFFFFFFFFFFFFFFFFFFFFFFFFFFFFFFFF AND DUP7 PUSH20 0xFFFFFFFFFFFFFFFFFFFFFFFFFFFFFFFFFFFFFFFF AND GT PUSH2 0xCF0 JUMPI PUSH2 0xCE9 DUP6 DUP6 DUP6 PUSH2 0xD95 JUMP JUMPDEST SWAP1 POP PUSH2 0xD8C JUMP JUMPDEST DUP4 PUSH20 0xFFFFFFFFFFFFFFFFFFFFFFFFFFFFFFFFFFFFFFFF AND DUP7 PUSH20 0xFFFFFFFFFFFFFFFFFFFFFFFFFFFFFFFFFFFFFFFF AND GT PUSH2 0xD7D JUMPI PUSH1 0x0 PUSH2 0xD30 DUP8 DUP7 DUP7 PUSH2 0xD95 JUMP JUMPDEST SWAP1 POP PUSH1 0x0 PUSH2 0xD3F DUP8 DUP10 DUP7 PUSH2 0xE54 JUMP JUMPDEST SWAP1 POP DUP1 PUSH16 0xFFFFFFFFFFFFFFFFFFFFFFFFFFFFFFFF AND DUP3 PUSH16 0xFFFFFFFFFFFFFFFFFFFFFFFFFFFFFFFF AND LT PUSH2 0xD72 JUMPI DUP1 PUSH2 0xD74 JUMP JUMPDEST DUP2 JUMPDEST SWAP3 POP POP POP PUSH2 0xD8B JUMP JUMPDEST PUSH2 0xD88 DUP6 DUP6 DUP5 PUSH2 0xE54 JUMP JUMPDEST SWAP1 POP JUMPDEST JUMPDEST SWAP6 SWAP5 POP POP POP POP POP JUMP JUMPDEST PUSH1 0x0 DUP3 PUSH20 0xFFFFFFFFFFFFFFFFFFFFFFFFFFFFFFFFFFFFFFFF AND DUP5 PUSH20 0xFFFFFFFFFFFFFFFFFFFFFFFFFFFFFFFFFFFFFFFF AND GT ISZERO PUSH2 0xDD6 JUMPI DUP3 DUP5 DUP1 SWAP5 POP DUP2 SWAP6 POP POP POP JUMPDEST PUSH1 0x0 PUSH2 0xE1C DUP6 PUSH20 0xFFFFFFFFFFFFFFFFFFFFFFFFFFFFFFFFFFFFFFFF AND DUP6 PUSH20 0xFFFFFFFFFFFFFFFFFFFFFFFFFFFFFFFFFFFFFFFF AND PUSH13 0x1000000000000000000000000 PUSH2 0xED7 JUMP JUMPDEST SWAP1 POP PUSH2 0xE4A DUP4 DUP3 DUP8 DUP8 PUSH2 0xE2F SWAP2 SWAP1 PUSH2 0x18C2 JUMP JUMPDEST PUSH20 0xFFFFFFFFFFFFFFFFFFFFFFFFFFFFFFFFFFFFFFFF AND PUSH2 0xED7 JUMP JUMPDEST SWAP2 POP POP SWAP4 SWAP3 POP POP POP JUMP JUMPDEST PUSH1 0x0 DUP3 PUSH20 0xFFFFFFFFFFFFFFFFFFFFFFFFFFFFFFFFFFFFFFFF AND DUP5 PUSH20 0xFFFFFFFFFFFFFFFFFFFFFFFFFFFFFFFFFFFFFFFF AND GT ISZERO PUSH2 0xE95 JUMPI DUP3 DUP5 DUP1 SWAP5 POP DUP2 SWAP6 POP POP POP JUMPDEST PUSH2 0xECE DUP3 PUSH13 0x1000000000000000000000000 DUP7 DUP7 PUSH2 0xEB3 SWAP2 SWAP1 PUSH2 0x18C2 JUMP JUMPDEST PUSH20 0xFFFFFFFFFFFFFFFFFFFFFFFFFFFFFFFFFFFFFFFF AND PUSH2 0xED7 JUMP JUMPDEST SWAP1 POP SWAP4 SWAP3 POP POP POP JUMP JUMPDEST PUSH1 0x0 DUP1 PUSH1 0x0 DUP1 NOT DUP6 DUP8 MULMOD DUP6 DUP8 MUL SWAP3 POP DUP3 DUP2 LT DUP4 DUP3 SUB SUB SWAP2 POP POP PUSH1 0x0 DUP2 SUB PUSH2 0xF12 JUMPI DUP4 DUP3 DUP2 PUSH2 0xF08 JUMPI PUSH2 0xF07 PUSH2 0x1BAC JUMP JUMPDEST JUMPDEST DIV SWAP3 POP POP POP PUSH2 0xFE5 JUMP JUMPDEST DUP4 DUP2 LT PUSH2 0xF58 JUMPI DUP1 DUP5 PUSH1 0x40 MLOAD PUSH32 0x773CC18C00000000000000000000000000000000000000000000000000000000 DUP2 MSTORE PUSH1 0x4 ADD PUSH2 0xF4F SWAP3 SWAP2 SWAP1 PUSH2 0x106A JUMP JUMPDEST PUSH1 0x40 MLOAD DUP1 SWAP2 SUB SWAP1 REVERT JUMPDEST PUSH1 0x0 DUP5 DUP7 DUP9 MULMOD SWAP1 POP DUP3 DUP2 GT DUP3 SUB SWAP2 POP DUP1 DUP4 SUB SWAP3 POP PUSH1 0x0 PUSH1 0x1 DUP7 NOT ADD DUP7 AND SWAP1 POP DUP1 DUP7 DIV SWAP6 POP DUP1 DUP5 DIV SWAP4 POP PUSH1 0x1 DUP2 DUP3 PUSH1 0x0 SUB DIV ADD SWAP1 POP DUP1 DUP4 MUL DUP5 OR SWAP4 POP PUSH1 0x0 PUSH1 0x2 DUP8 PUSH1 0x3 MUL XOR SWAP1 POP DUP1 DUP8 MUL PUSH1 0x2 SUB DUP2 MUL SWAP1 POP DUP1 DUP8 MUL PUSH1 0x2 SUB DUP2 MUL SWAP1 POP DUP1 DUP8 MUL PUSH1 0x2 SUB DUP2 MUL SWAP1 POP DUP1 DUP8 MUL PUSH1 0x2 SUB DUP2 MUL SWAP1 POP DUP1 DUP8 MUL PUSH1 0x2 SUB DUP2 MUL SWAP1 POP DUP1 DUP8 MUL PUSH1 0x2 SUB DUP2 MUL SWAP1 POP DUP1 DUP6 MUL SWAP6 POP POP POP POP POP POP JUMPDEST SWAP4 SWAP3 POP POP POP JUMP JUMPDEST PUSH1 0x0 PUSH1 0x40 MLOAD SWAP1 POP SWAP1 JUMP JUMPDEST PUSH1 0x0 DUP1 REVERT JUMPDEST PUSH1 0x0 DUP1 REVERT JUMPDEST PUSH1 0x0 DUP1 REVERT JUMPDEST PUSH1 0x0 PUSH1 0xE0 DUP3 DUP5 SUB SLT ISZERO PUSH2 0x101B JUMPI PUSH2 0x101A PUSH2 0x1000 JUMP JUMPDEST JUMPDEST DUP2 SWAP1 POP SWAP3 SWAP2 POP POP JUMP JUMPDEST PUSH1 0x0 PUSH1 0xE0 DUP3 DUP5 SUB SLT ISZERO PUSH2 0x103A JUMPI PUSH2 0x1039 PUSH2 0xFF6 JUMP JUMPDEST JUMPDEST PUSH1 0x0 PUSH2 0x1048 DUP5 DUP3 DUP6 ADD PUSH2 0x1005 JUMP JUMPDEST SWAP2 POP POP SWAP3 SWAP2 POP POP JUMP JUMPDEST PUSH1 0x0 DUP2 SWAP1 POP SWAP2 SWAP1 POP JUMP JUMPDEST PUSH2 0x1064 DUP2 PUSH2 0x1051 JUMP JUMPDEST DUP3 MSTORE POP POP JUMP JUMPDEST PUSH1 0x0 PUSH1 0x40 DUP3 ADD SWAP1 POP PUSH2 0x107F PUSH1 0x0 DUP4 ADD DUP6 PUSH2 0x105B JUMP JUMPDEST PUSH2 0x108C PUSH1 0x20 DUP4 ADD DUP5 PUSH2 0x105B JUMP JUMPDEST SWAP4 SWAP3 POP POP POP JUMP JUMPDEST PUSH2 0x109C DUP2 PUSH2 0x1051 JUMP JUMPDEST DUP2 EQ PUSH2 0x10A7 JUMPI PUSH1 0x0 DUP1 REVERT JUMPDEST POP JUMP JUMPDEST PUSH1 0x0 DUP2 CALLDATALOAD SWAP1 POP PUSH2 0x10B9 DUP2 PUSH2 0x1093 JUMP JUMPDEST SWAP3 SWAP2 POP POP JUMP JUMPDEST PUSH1 0x0 DUP1 REVERT JUMPDEST PUSH1 0x0 DUP1 REVERT JUMPDEST PUSH1 0x0 DUP1 REVERT JUMPDEST PUSH1 0x0 DUP1 DUP4 PUSH1 0x1F DUP5 ADD SLT PUSH2 0x10E4 JUMPI PUSH2 0x10E3 PUSH2 0x10BF JUMP JUMPDEST JUMPDEST DUP3 CALLDATALOAD SWAP1 POP PUSH8 0xFFFFFFFFFFFFFFFF DUP2 GT ISZERO PUSH2 0x1101 JUMPI PUSH2 0x1100 PUSH2 0x10C4 JUMP JUMPDEST JUMPDEST PUSH1 0x20 DUP4 ADD SWAP2 POP DUP4 PUSH1 0x1 DUP3 MUL DUP4 ADD GT ISZERO PUSH2 0x111D JUMPI PUSH2 0x111C PUSH2 0x10C9 JUMP JUMPDEST JUMPDEST SWAP3 POP SWAP3 SWAP1 POP JUMP JUMPDEST PUSH1 0x0 DUP1 PUSH1 0x0 DUP1 PUSH1 0x60 DUP6 DUP8 SUB SLT ISZERO PUSH2 0x113E JUMPI PUSH2 0x113D PUSH2 0xFF6 JUMP JUMPDEST JUMPDEST PUSH1 0x0 PUSH2 0x114C DUP8 DUP3 DUP9 ADD PUSH2 0x10AA JUMP JUMPDEST SWAP5 POP POP PUSH1 0x20 PUSH2 0x115D DUP8 DUP3 DUP9 ADD PUSH2 0x10AA JUMP JUMPDEST SWAP4 POP POP PUSH1 0x40 DUP6 ADD CALLDATALOAD PUSH8 0xFFFFFFFFFFFFFFFF DUP2 GT ISZERO PUSH2 0x117E JUMPI PUSH2 0x117D PUSH2 0xFFB JUMP JUMPDEST JUMPDEST PUSH2 0x118A DUP8 DUP3 DUP9 ADD PUSH2 0x10CE JUMP JUMPDEST SWAP3 POP SWAP3 POP POP SWAP3 SWAP6 SWAP2 SWAP5 POP SWAP3 POP JUMP JUMPDEST PUSH1 0x0 PUSH20 0xFFFFFFFFFFFFFFFFFFFFFFFFFFFFFFFFFFFFFFFF DUP3 AND SWAP1 POP SWAP2 SWAP1 POP JUMP JUMPDEST PUSH1 0x0 PUSH2 0x11C3 DUP3 PUSH2 0x1198 JUMP JUMPDEST SWAP1 POP SWAP2 SWAP1 POP JUMP JUMPDEST PUSH2 0x11D3 DUP2 PUSH2 0x11B8 JUMP JUMPDEST DUP2 EQ PUSH2 0x11DE JUMPI PUSH1 0x0 DUP1 REVERT JUMPDEST POP JUMP JUMPDEST PUSH1 0x0 DUP2 CALLDATALOAD SWAP1 POP PUSH2 0x11F0 DUP2 PUSH2 0x11CA JUMP JUMPDEST SWAP3 SWAP2 POP POP JUMP JUMPDEST PUSH1 0x0 DUP2 ISZERO ISZERO SWAP1 POP SWAP2 SWAP1 POP JUMP JUMPDEST PUSH2 0x120B DUP2 PUSH2 0x11F6 JUMP JUMPDEST DUP2 EQ PUSH2 0x1216 JUMPI PUSH1 0x0 DUP1 REVERT JUMPDEST POP JUMP JUMPDEST PUSH1 0x0 DUP2 CALLDATALOAD SWAP1 POP PUSH2 0x1228 DUP2 PUSH2 0x1202 JUMP JUMPDEST SWAP3 SWAP2 POP POP JUMP JUMPDEST PUSH2 0x1237 DUP2 PUSH2 0x1198 JUMP JUMPDEST DUP2 EQ PUSH2 0x1242 JUMPI PUSH1 0x0 DUP1 REVERT JUMPDEST POP JUMP JUMPDEST PUSH1 0x0 DUP2 CALLDATALOAD SWAP1 POP PUSH2 0x1254 DUP2 PUSH2 0x122E JUMP JUMPDEST SWAP3 SWAP2 POP POP JUMP JUMPDEST PUSH1 0x0 DUP1 PUSH1 0x0 DUP1 PUSH1 0x0 DUP1 PUSH1 0xA0 DUP8 DUP10 SUB SLT ISZERO PUSH2 0x1277 JUMPI PUSH2 0x1276 PUSH2 0xFF6 JUMP JUMPDEST JUMPDEST PUSH1 0x0 PUSH2 0x1285 DUP10 DUP3 DUP11 ADD PUSH2 0x11E1 JUMP JUMPDEST SWAP7 POP POP PUSH1 0x20 PUSH2 0x1296 DUP10 DUP3 DUP11 ADD PUSH2 0x1219 JUMP JUMPDEST SWAP6 POP POP PUSH1 0x40 PUSH2 0x12A7 DUP10 DUP3 DUP11 ADD PUSH2 0x10AA JUMP JUMPDEST SWAP5 POP POP PUSH1 0x60 PUSH2 0x12B8 DUP10 DUP3 DUP11 ADD PUSH2 0x1245 JUMP JUMPDEST SWAP4 POP POP PUSH1 0x80 DUP8 ADD CALLDATALOAD PUSH8 0xFFFFFFFFFFFFFFFF DUP2 GT ISZERO PUSH2 0x12D9 JUMPI PUSH2 0x12D8 PUSH2 0xFFB JUMP JUMPDEST JUMPDEST PUSH2 0x12E5 DUP10 DUP3 DUP11 ADD PUSH2 0x10CE JUMP JUMPDEST SWAP3 POP SWAP3 POP POP SWAP3 SWAP6 POP SWAP3 SWAP6 POP SWAP3 SWAP6 JUMP JUMPDEST PUSH1 0x0 DUP2 SWAP1 POP SWAP2 SWAP1 POP JUMP JUMPDEST PUSH2 0x1307 DUP2 PUSH2 0x12F4 JUMP JUMPDEST DUP3 MSTORE POP POP JUMP JUMPDEST PUSH1 0x0 PUSH1 0x40 DUP3 ADD SWAP1 POP PUSH2 0x1322 PUSH1 0x0 DUP4 ADD DUP6 PUSH2 0x12FE JUMP JUMPDEST PUSH2 0x132F PUSH1 0x20 DUP4 ADD DUP5 PUSH2 0x12FE JUMP JUMPDEST SWAP4 SWAP3 POP POP POP JUMP JUMPDEST PUSH2 0x133F DUP2 PUSH2 0x12F4 JUMP JUMPDEST DUP2 EQ PUSH2 0x134A JUMPI PUSH1 0x0 DUP1 REVERT JUMPDEST POP JUMP JUMPDEST PUSH1 0x0 DUP2 CALLDATALOAD SWAP1 POP PUSH2 0x135C DUP2 PUSH2 0x1336 JUMP JUMPDEST SWAP3 SWAP2 POP POP JUMP JUMPDEST PUSH1 0x0 DUP1 PUSH1 0x0 DUP1 PUSH1 0x60 DUP6 DUP8 SUB SLT ISZERO PUSH2 0x137C JUMPI PUSH2 0x137B PUSH2 0xFF6 JUMP JUMPDEST JUMPDEST PUSH1 0x0 PUSH2 0x138A DUP8 DUP3 DUP9 ADD PUSH2 0x134D JUMP JUMPDEST SWAP5 POP POP PUSH1 0x20 PUSH2 0x139B DUP8 DUP3 DUP9 ADD PUSH2 0x134D JUMP JUMPDEST SWAP4 POP POP PUSH1 0x40 DUP6 ADD CALLDATALOAD PUSH8 0xFFFFFFFFFFFFFFFF DUP2 GT ISZERO PUSH2 0x13BC JUMPI PUSH2 0x13BB PUSH2 0xFFB JUMP JUMPDEST JUMPDEST PUSH2 0x13C8 DUP8 DUP3 DUP9 ADD PUSH2 0x10CE JUMP JUMPDEST SWAP3 POP SWAP3 POP POP SWAP3 SWAP6 SWAP2 SWAP5 POP SWAP3 POP JUMP JUMPDEST PUSH1 0x0 PUSH1 0x20 DUP3 DUP5 SUB SLT ISZERO PUSH2 0x13EC JUMPI PUSH2 0x13EB PUSH2 0xFF6 JUMP JUMPDEST JUMPDEST PUSH1 0x0 PUSH2 0x13FA DUP5 DUP3 DUP6 ADD PUSH2 0x11E1 JUMP JUMPDEST SWAP2 POP POP SWAP3 SWAP2 POP POP JUMP JUMPDEST PUSH1 0x0 DUP2 MLOAD SWAP1 POP PUSH2 0x1412 DUP2 PUSH2 0x122E JUMP JUMPDEST SWAP3 SWAP2 POP POP JUMP JUMPDEST PUSH1 0x0 DUP2 PUSH1 0x2 SIGNEXTEND SWAP1 POP SWAP2 SWAP1 POP JUMP JUMPDEST PUSH2 0x142E DUP2 PUSH2 0x1418 JUMP JUMPDEST DUP2 EQ PUSH2 0x1439 JUMPI PUSH1 0x0 DUP1 REVERT JUMPDEST POP JUMP JUMPDEST PUSH1 0x0 DUP2 MLOAD SWAP1 POP PUSH2 0x144B DUP2 PUSH2 0x1425 JUMP JUMPDEST SWAP3 SWAP2 POP POP JUMP JUMPDEST PUSH1 0x0 DUP1 PUSH1 0x40 DUP4 DUP6 SUB SLT ISZERO PUSH2 0x1468 JUMPI PUSH2 0x1467 PUSH2 0xFF6 JUMP JUMPDEST JUMPDEST PUSH1 0x0 PUSH2 0x1476 DUP6 DUP3 DUP7 ADD PUSH2 0x1403 JUMP JUMPDEST SWAP3 POP POP PUSH1 0x20 PUSH2 0x1487 DUP6 DUP3 DUP7 ADD PUSH2 0x143C JUMP JUMPDEST SWAP2 POP POP SWAP3 POP SWAP3 SWAP1 POP JUMP JUMPDEST PUSH1 0x0 DUP2 CALLDATALOAD SWAP1 POP PUSH2 0x14A0 DUP2 PUSH2 0x1425 JUMP JUMPDEST SWAP3 SWAP2 POP POP JUMP JUMPDEST PUSH1 0x0 PUSH1 0x20 DUP3 DUP5 SUB SLT ISZERO PUSH2 0x14BC JUMPI PUSH2 0x14BB PUSH2 0xFF6 JUMP JUMPDEST JUMPDEST PUSH1 0x0 PUSH2 0x14CA DUP5 DUP3 DUP6 ADD PUSH2 0x1491 JUMP JUMPDEST SWAP2 POP POP SWAP3 SWAP2 POP POP JUMP JUMPDEST PUSH1 0x0 DUP2 MLOAD SWAP1 POP PUSH2 0x14E2 DUP2 PUSH2 0x11CA JUMP JUMPDEST SWAP3 SWAP2 POP POP JUMP JUMPDEST PUSH1 0x0 PUSH1 0x20 DUP3 DUP5 SUB SLT ISZERO PUSH2 0x14FE JUMPI PUSH2 0x14FD PUSH2 0xFF6 JUMP JUMPDEST JUMPDEST PUSH1 0x0 PUSH2 0x150C DUP5 DUP3 DUP6 ADD PUSH2 0x14D3 JUMP JUMPDEST SWAP2 POP POP SWAP3 SWAP2 POP POP JUMP JUMPDEST PUSH2 0x151E DUP2 PUSH2 0x11B8 JUMP JUMPDEST DUP3 MSTORE POP POP JUMP JUMPDEST PUSH1 0x60 DUP3 ADD PUSH1 0x0 DUP3 ADD MLOAD PUSH2 0x153A PUSH1 0x0 DUP6 ADD DUP3 PUSH2 0x1515 JUMP JUMPDEST POP PUSH1 0x20 DUP3 ADD MLOAD PUSH2 0x154D PUSH1 0x20 DUP6 ADD DUP3 PUSH2 0x1515 JUMP JUMPDEST POP PUSH1 0x40 DUP3 ADD MLOAD PUSH2 0x1560 PUSH1 0x40 DUP6 ADD DUP3 PUSH2 0x1515 JUMP JUMPDEST POP POP POP POP JUMP JUMPDEST PUSH1 0x0 PUSH1 0x60 DUP3 ADD SWAP1 POP PUSH2 0x157B PUSH1 0x0 DUP4 ADD DUP5 PUSH2 0x1524 JUMP JUMPDEST SWAP3 SWAP2 POP POP JUMP JUMPDEST PUSH2 0x158A DUP2 PUSH2 0x11B8 JUMP JUMPDEST DUP3 MSTORE POP POP JUMP JUMPDEST PUSH2 0x1599 DUP2 PUSH2 0x1418 JUMP JUMPDEST DUP3 MSTORE POP POP JUMP JUMPDEST PUSH1 0x0 PUSH16 0xFFFFFFFFFFFFFFFFFFFFFFFFFFFFFFFF DUP3 AND SWAP1 POP SWAP2 SWAP1 POP JUMP JUMPDEST PUSH2 0x15C4 DUP2 PUSH2 0x159F JUMP JUMPDEST DUP3 MSTORE POP POP JUMP JUMPDEST PUSH1 0x0 DUP2 MLOAD SWAP1 POP SWAP2 SWAP1 POP JUMP JUMPDEST PUSH1 0x0 DUP3 DUP3 MSTORE PUSH1 0x20 DUP3 ADD SWAP1 POP SWAP3 SWAP2 POP POP JUMP JUMPDEST PUSH1 0x0 JUMPDEST DUP4 DUP2 LT ISZERO PUSH2 0x1604 JUMPI DUP1 DUP3 ADD MLOAD DUP2 DUP5 ADD MSTORE PUSH1 0x20 DUP2 ADD SWAP1 POP PUSH2 0x15E9 JUMP JUMPDEST PUSH1 0x0 DUP5 DUP5 ADD MSTORE POP POP POP POP JUMP JUMPDEST PUSH1 0x0 PUSH1 0x1F NOT PUSH1 0x1F DUP4 ADD AND SWAP1 POP SWAP2 SWAP1 POP JUMP JUMPDEST PUSH1 0x0 PUSH2 0x162C DUP3 PUSH2 0x15CA JUMP JUMPDEST PUSH2 0x1636 DUP2 DUP6 PUSH2 0x15D5 JUMP JUMPDEST SWAP4 POP PUSH2 0x1646 DUP2 DUP6 PUSH1 0x20 DUP7 ADD PUSH2 0x15E6 JUMP JUMPDEST PUSH2 0x164F DUP2 PUSH2 0x1610 JUMP JUMPDEST DUP5 ADD SWAP2 POP POP SWAP3 SWAP2 POP POP JUMP JUMPDEST PUSH1 0x0 PUSH1 0xA0 DUP3 ADD SWAP1 POP PUSH2 0x166F PUSH1 0x0 DUP4 ADD DUP9 PUSH2 0x1581 JUMP JUMPDEST PUSH2 0x167C PUSH1 0x20 DUP4 ADD DUP8 PUSH2 0x1590 JUMP JUMPDEST PUSH2 0x1689 PUSH1 0x40 DUP4 ADD DUP7 PUSH2 0x1590 JUMP JUMPDEST PUSH2 0x1696 PUSH1 0x60 DUP4 ADD DUP6 PUSH2 0x15BB JUMP JUMPDEST DUP2 DUP2 SUB PUSH1 0x80 DUP4 ADD MSTORE PUSH2 0x16A8 DUP2 DUP5 PUSH2 0x1621 JUMP JUMPDEST SWAP1 POP SWAP7 SWAP6 POP POP POP POP POP POP JUMP JUMPDEST PUSH1 0x0 DUP2 MLOAD SWAP1 POP PUSH2 0x16C3 DUP2 PUSH2 0x1093 JUMP JUMPDEST SWAP3 SWAP2 POP POP JUMP JUMPDEST PUSH1 0x0 DUP1 PUSH1 0x40 DUP4 DUP6 SUB SLT ISZERO PUSH2 0x16E0 JUMPI PUSH2 0x16DF PUSH2 0xFF6 JUMP JUMPDEST JUMPDEST PUSH1 0x0 PUSH2 0x16EE DUP6 DUP3 DUP7 ADD PUSH2 0x16B4 JUMP JUMPDEST SWAP3 POP POP PUSH1 0x20 PUSH2 0x16FF DUP6 DUP3 DUP7 ADD PUSH2 0x16B4 JUMP JUMPDEST SWAP2 POP POP SWAP3 POP SWAP3 SWAP1 POP JUMP JUMPDEST PUSH1 0x0 DUP1 REVERT JUMPDEST PUSH32 0x4E487B7100000000000000000000000000000000000000000000000000000000 PUSH1 0x0 MSTORE PUSH1 0x41 PUSH1 0x4 MSTORE PUSH1 0x24 PUSH1 0x0 REVERT JUMPDEST PUSH2 0x1746 DUP3 PUSH2 0x1610 JUMP JUMPDEST DUP2 ADD DUP2 DUP2 LT PUSH8 0xFFFFFFFFFFFFFFFF DUP3 GT OR ISZERO PUSH2 0x1765 JUMPI PUSH2 0x1764 PUSH2 0x170E JUMP JUMPDEST JUMPDEST DUP1 PUSH1 0x40 MSTORE POP POP POP JUMP JUMPDEST PUSH1 0x0 PUSH2 0x1778 PUSH2 0xFEC JUMP JUMPDEST SWAP1 POP PUSH2 0x1784 DUP3 DUP3 PUSH2 0x173D JUMP JUMPDEST SWAP2 SWAP1 POP JUMP JUMPDEST PUSH1 0x0 PUSH1 0x60 DUP3 DUP5 SUB SLT ISZERO PUSH2 0x179F JUMPI PUSH2 0x179E PUSH2 0x1709 JUMP JUMPDEST JUMPDEST PUSH2 0x17A9 PUSH1 0x60 PUSH2 0x176E JUMP JUMPDEST SWAP1 POP PUSH1 0x0 PUSH2 0x17B9 DUP5 DUP3 DUP6 ADD PUSH2 0x11E1 JUMP JUMPDEST PUSH1 0x0 DUP4 ADD MSTORE POP PUSH1 0x20 PUSH2 0x17CD DUP5 DUP3 DUP6 ADD PUSH2 0x11E1 JUMP JUMPDEST PUSH1 0x20 DUP4 ADD MSTORE POP PUSH1 0x40 PUSH2 0x17E1 DUP5 DUP3 DUP6 ADD PUSH2 0x11E1 JUMP JUMPDEST PUSH1 0x40 DUP4 ADD MSTORE POP SWAP3 SWAP2 POP POP JUMP JUMPDEST PUSH1 0x0 PUSH1 0x60 DUP3 DUP5 SUB SLT ISZERO PUSH2 0x1803 JUMPI PUSH2 0x1802 PUSH2 0xFF6 JUMP JUMPDEST JUMPDEST PUSH1 0x0 PUSH2 0x1811 DUP5 DUP3 DUP6 ADD PUSH2 0x1789 JUMP JUMPDEST SWAP2 POP POP SWAP3 SWAP2 POP POP JUMP JUMPDEST PUSH1 0x0 PUSH1 0x60 DUP3 ADD SWAP1 POP PUSH2 0x182F PUSH1 0x0 DUP4 ADD DUP7 PUSH2 0x1581 JUMP JUMPDEST PUSH2 0x183C PUSH1 0x20 DUP4 ADD DUP6 PUSH2 0x1581 JUMP JUMPDEST PUSH2 0x1849 PUSH1 0x40 DUP4 ADD DUP5 PUSH2 0x105B JUMP JUMPDEST SWAP5 SWAP4 POP POP POP POP JUMP JUMPDEST PUSH1 0x0 DUP2 MLOAD SWAP1 POP PUSH2 0x1860 DUP2 PUSH2 0x1202 JUMP JUMPDEST SWAP3 SWAP2 POP POP JUMP JUMPDEST PUSH1 0x0 PUSH1 0x20 DUP3 DUP5 SUB SLT ISZERO PUSH2 0x187C JUMPI PUSH2 0x187B PUSH2 0xFF6 JUMP JUMPDEST JUMPDEST PUSH1 0x0 PUSH2 0x188A DUP5 DUP3 DUP6 ADD PUSH2 0x1851 JUMP JUMPDEST SWAP2 POP POP SWAP3 SWAP2 POP POP JUMP JUMPDEST PUSH32 0x4E487B7100000000000000000000000000000000000000000000000000000000 PUSH1 0x0 MSTORE PUSH1 0x11 PUSH1 0x4 MSTORE PUSH1 0x24 PUSH1 0x0 REVERT JUMPDEST PUSH1 0x0 PUSH2 0x18CD DUP3 PUSH2 0x1198 JUMP JUMPDEST SWAP2 POP PUSH2 0x18D8 DUP4 PUSH2 0x1198 JUMP JUMPDEST SWAP3 POP DUP3 DUP3 SUB SWAP1 POP PUSH20 0xFFFFFFFFFFFFFFFFFFFFFFFFFFFFFFFFFFFFFFFF DUP2 GT ISZERO PUSH2 0x1904 JUMPI PUSH2 0x1903 PUSH2 0x1893 JUMP JUMPDEST JUMPDEST SWAP3 SWAP2 POP POP JUMP JUMPDEST PUSH1 0x0 PUSH2 0x1915 DUP3 PUSH2 0x1198 JUMP JUMPDEST SWAP2 POP PUSH2 0x1920 DUP4 PUSH2 0x1198 JUMP JUMPDEST SWAP3 POP DUP3 DUP3 ADD SWAP1 POP PUSH20 0xFFFFFFFFFFFFFFFFFFFFFFFFFFFFFFFFFFFFFFFF DUP2 GT ISZERO PUSH2 0x194C JUMPI PUSH2 0x194B PUSH2 0x1893 JUMP JUMPDEST JUMPDEST SWAP3 SWAP2 POP POP JUMP JUMPDEST PUSH2 0x195B DUP2 PUSH2 0x11F6 JUMP JUMPDEST DUP3 MSTORE POP POP JUMP JUMPDEST PUSH2 0x196A DUP2 PUSH2 0x1198 JUMP JUMPDEST DUP3 MSTORE POP POP JUMP JUMPDEST DUP3 DUP2 DUP4 CALLDATACOPY PUSH1 0x0 DUP4 DUP4 ADD MSTORE POP POP POP JUMP JUMPDEST PUSH1 0x0 PUSH2 0x198B DUP4 DUP6 PUSH2 0x15D5 JUMP JUMPDEST SWAP4 POP PUSH2 0x1998 DUP4 DUP6 DUP5 PUSH2 0x1970 JUMP JUMPDEST PUSH2 0x19A1 DUP4 PUSH2 0x1610 JUMP JUMPDEST DUP5 ADD SWAP1 POP SWAP4 SWAP3 POP POP POP JUMP JUMPDEST PUSH1 0x0 PUSH1 0xA0 DUP3 ADD SWAP1 POP PUSH2 0x19C1 PUSH1 0x0 DUP4 ADD DUP10 PUSH2 0x1581 JUMP JUMPDEST PUSH2 0x19CE PUSH1 0x20 DUP4 ADD DUP9 PUSH2 0x1952 JUMP JUMPDEST PUSH2 0x19DB PUSH1 0x40 DUP4 ADD DUP8 PUSH2 0x105B JUMP JUMPDEST PUSH2 0x19E8 PUSH1 0x60 DUP4 ADD DUP7 PUSH2 0x1961 JUMP JUMPDEST DUP2 DUP2 SUB PUSH1 0x80 DUP4 ADD MSTORE PUSH2 0x19FB DUP2 DUP5 DUP7 PUSH2 0x197F JUMP JUMPDEST SWAP1 POP SWAP8 SWAP7 POP POP POP POP POP POP POP JUMP JUMPDEST PUSH1 0x0 DUP2 MLOAD SWAP1 POP PUSH2 0x1A17 DUP2 PUSH2 0x1336 JUMP JUMPDEST SWAP3 SWAP2 POP POP JUMP JUMPDEST PUSH1 0x0 DUP1 PUSH1 0x40 DUP4 DUP6 SUB SLT ISZERO PUSH2 0x1A34 JUMPI PUSH2 0x1A33 PUSH2 0xFF6 JUMP JUMPDEST JUMPDEST PUSH1 0x0 PUSH2 0x1A42 DUP6 DUP3 DUP7 ADD PUSH2 0x1A08 JUMP JUMPDEST SWAP3 POP POP PUSH1 0x20 PUSH2 0x1A53 DUP6 DUP3 DUP7 ADD PUSH2 0x1A08 JUMP JUMPDEST SWAP2 POP POP SWAP3 POP SWAP3 SWAP1 POP JUMP JUMPDEST PUSH1 0x0 PUSH2 0x1A68 DUP3 PUSH2 0x12F4 JUMP JUMPDEST SWAP2 POP PUSH32 0x8000000000000000000000000000000000000000000000000000000000000000 DUP3 SUB PUSH2 0x1A9A JUMPI PUSH2 0x1A99 PUSH2 0x1893 JUMP JUMPDEST JUMPDEST DUP2 PUSH1 0x0 SUB SWAP1 POP SWAP2 SWAP1 POP JUMP JUMPDEST PUSH1 0x0 PUSH2 0x1AB0 DUP3 PUSH2 0x1418 JUMP JUMPDEST SWAP2 POP PUSH32 0xFFFFFFFFFFFFFFFFFFFFFFFFFFFFFFFFFFFFFFFFFFFFFFFFFFFFFFFFFF800000 DUP3 SUB PUSH2 0x1AE2 JUMPI PUSH2 0x1AE1 PUSH2 0x1893 JUMP JUMPDEST JUMPDEST DUP2 PUSH1 0x0 SUB SWAP1 POP SWAP2 SWAP1 POP JUMP JUMPDEST PUSH1 0x0 DUP3 DUP3 MSTORE PUSH1 0x20 DUP3 ADD SWAP1 POP SWAP3 SWAP2 POP POP JUMP JUMPDEST PUSH32 0x5400000000000000000000000000000000000000000000000000000000000000 PUSH1 0x0 DUP3 ADD MSTORE POP JUMP JUMPDEST PUSH1 0x0 PUSH2 0x1B34 PUSH1 0x1 DUP4 PUSH2 0x1AED JUMP JUMPDEST SWAP2 POP PUSH2 0x1B3F DUP3 PUSH2 0x1AFE JUMP JUMPDEST PUSH1 0x20 DUP3 ADD SWAP1 POP SWAP2 SWAP1 POP JUMP JUMPDEST PUSH1 0x0 PUSH1 0x20 DUP3 ADD SWAP1 POP DUP2 DUP2 SUB PUSH1 0x0 DUP4 ADD MSTORE PUSH2 0x1B63 DUP2 PUSH2 0x1B27 JUMP JUMPDEST SWAP1 POP SWAP2 SWAP1 POP JUMP JUMPDEST PUSH1 0x0 PUSH2 0x1B75 DUP3 PUSH2 0x1051 JUMP JUMPDEST SWAP2 POP PUSH2 0x1B80 DUP4 PUSH2 0x1051 JUMP JUMPDEST SWAP3 POP DUP3 DUP3 MUL PUSH2 0x1B8E DUP2 PUSH2 0x1051 JUMP JUMPDEST SWAP2 POP DUP3 DUP3 DIV DUP5 EQ DUP4 ISZERO OR PUSH2 0x1BA5 JUMPI PUSH2 0x1BA4 PUSH2 0x1893 JUMP JUMPDEST JUMPDEST POP SWAP3 SWAP2 POP POP JUMP JUMPDEST PUSH32 0x4E487B7100000000000000000000000000000000000000000000000000000000 PUSH1 0x0 MSTORE PUSH1 0x12 PUSH1 0x4 MSTORE PUSH1 0x24 PUSH1 0x0 REVERT JUMPDEST PUSH1 0x0 PUSH2 0x1BE6 DUP3 PUSH2 0x1051 JUMP JUMPDEST SWAP2 POP PUSH2 0x1BF1 DUP4 PUSH2 0x1051 JUMP JUMPDEST SWAP3 POP DUP3 PUSH2 0x1C01 JUMPI PUSH2 0x1C00 PUSH2 0x1BAC JUMP JUMPDEST JUMPDEST DUP3 DUP3 DIV SWAP1 POP SWAP3 SWAP2 POP POP JUMP JUMPDEST PUSH1 0x0 PUSH2 0x1C17 DUP3 PUSH2 0x1051 JUMP JUMPDEST SWAP2 POP PUSH2 0x1C22 DUP4 PUSH2 0x1051 JUMP JUMPDEST SWAP3 POP DUP3 PUSH2 0x1C32 JUMPI PUSH2 0x1C31 PUSH2 0x1BAC JUMP JUMPDEST JUMPDEST DUP3 DUP3 MOD SWAP1 POP SWAP3 SWAP2 POP POP JUMP JUMPDEST PUSH1 0x0 PUSH2 0x1C48 DUP3 PUSH2 0x1051 JUMP JUMPDEST SWAP2 POP PUSH2 0x1C53 DUP4 PUSH2 0x1051 JUMP JUMPDEST SWAP3 POP DUP3 DUP3 ADD SWAP1 POP DUP1 DUP3 GT ISZERO PUSH2 0x1C6B JUMPI PUSH2 0x1C6A PUSH2 0x1893 JUMP JUMPDEST JUMPDEST SWAP3 SWAP2 POP POP JUMP INVALID LOG2 PUSH5 0x6970667358 0x22 SLT KECCAK256 0xE7 PREVRANDAO PUSH0 BALANCE EXTCODECOPY BYTE 0xDE 0x22 DUP2 0xCE 0x4F 0xC2 BASEFEE 0xAA TLOAD 0x28 PUSH3 0x7745BD 0xBB COINBASE DELEGATECALL BALANCE 0xD5 MULMOD LOG4 0xF9 0xB7 0x2A PUSH26 0xA64736F6C634300081A00330000000000000000000000000000 "
				},
				"gasEstimates": {
					"creation": {
						"codeDepositCost": "1467000",
						"executionCost": "1534",
						"totalCost": "1468534"
					},
					"external": {
						"mint((address,int24,int24,uint256,uint256,uint256,uint256))": "infinite",
						"swap(address,bool,uint256,uint160,bytes)": "infinite",
						"uniswapV3MintCallback(uint256,uint256,bytes)": "infinite",
						"uniswapV3SwapCallback(int256,int256,bytes)": "infinite"
					}
				},
				"methodIdentifiers": {
					"mint((address,int24,int24,uint256,uint256,uint256,uint256))": "190c1752",
					"swap(address,bool,uint256,uint160,bytes)": "dd5a12d8",
					"uniswapV3MintCallback(uint256,uint256,bytes)": "d3487997",
					"uniswapV3SwapCallback(int256,int256,bytes)": "fa461e33"
				}
			},
			"storageLayout": {
				"storage": [],
				"types": null
			},
			"userdoc": {
				"errors": {
					"PRBMath__MulDivOverflow(uint256,uint256)": [
						{
							"notice": "Emitted when the result overflows uint256."
						}
					]
				},
				"kind": "user",
				"methods": {},
				"version": 1
			}
		}
	}
}