{
	"data": {
		"bytecode": {
			"linkReferences": {},
			"object": "60c060405234801561001057600080fd5b5060405161373b38038061373b8339818101604052810190610032919061020c565b8373ffffffffffffffffffffffffffffffffffffffff1660808173ffffffffffffffffffffffffffffffffffffffff16815250508273ffffffffffffffffffffffffffffffffffffffff1660a08173ffffffffffffffffffffffffffffffffffffffff168152505060405180604001604052808373ffffffffffffffffffffffffffffffffffffffff1681526020018260020b8152506000808201518160000160006101000a81548173ffffffffffffffffffffffffffffffffffffffff021916908373ffffffffffffffffffffffffffffffffffffffff16021790555060208201518160000160146101000a81548162ffffff021916908360020b62ffffff16021790555090505050505050610273565b600080fd5b600073ffffffffffffffffffffffffffffffffffffffff82169050919050565b600061017482610149565b9050919050565b61018481610169565b811461018f57600080fd5b50565b6000815190506101a18161017b565b92915050565b6101b081610149565b81146101bb57600080fd5b50565b6000815190506101cd816101a7565b92915050565b60008160020b9050919050565b6101e9816101d3565b81146101f457600080fd5b50565b600081519050610206816101e0565b92915050565b6000806000806080858703121561022657610225610144565b5b600061023487828801610192565b945050602061024587828801610192565b9350506040610256878288016101be565b9250506060610267878288016101f7565b91505092959194509250565b60805160a0516134876102b460003960008181610aa301528181610e5901526117e701526000818161020601528181610c1a015261174601526134876000f3fe608060405234801561001057600080fd5b50600436106100935760003560e01c8063514ea4bf11610066578063514ea4bf146101245780635339c2961461015457806380c2c6ef14610184578063d21220a7146101b5578063f30dba93146101d357610093565b80630dfe1681146100985780631a686502146100b65780633850c7bd146100d45780633c8a7d8d146100f3575b600080fd5b6100a0610204565b6040516100ad919061252d565b60405180910390f35b6100be610228565b6040516100cb9190612573565b60405180910390f35b6100dc61024a565b6040516100ea9291906125b9565b60405180910390f35b61010d600480360381019061010891906126d5565b610289565b60405161011b929190612788565b60405180910390f35b61013e600480360381019061013991906127e7565b610702565b60405161014b9190612573565b60405180910390f35b61016e6004803603810190610169919061284d565b61073c565b60405161017b919061287a565b60405180910390f35b61019e600480360381019061019991906128f9565b610754565b6040516101ac92919061299a565b60405180910390f35b6101bd610e57565b6040516101ca919061252d565b60405180910390f35b6101ed60048036038101906101e891906129c3565b610e7b565b6040516101fb9291906129ff565b60405180910390f35b7f000000000000000000000000000000000000000000000000000000000000000081565b600160009054906101000a90046fffffffffffffffffffffffffffffffff1681565b60008060000160009054906101000a900473ffffffffffffffffffffffffffffffffffffffff16908060000160149054906101000a900460020b905082565b6000808560020b8760020b1215806102c657507ffffffffffffffffffffffffffffffffffffffffffffffffffffffffffff2761860020b8760020b125b806102ff57507ffffffffffffffffffffffffffffffffffffffffffffffffffffffffffff276186102f690612a57565b60020b8660020b135b15610336576040517f064847d000000000000000000000000000000000000000000000000000000000815260040160405180910390fd5b6000856fffffffffffffffffffffffffffffffff1603610382576040517f1007454800000000000000000000000000000000000000000000000000000000815260040160405180910390fd5b600061039a88876002610ec89092919063ffffffff16565b905060006103b488886002610ec89092919063ffffffff16565b905081156103d4576103d38960016003610fcb9092919063ffffffff16565b5b80156103f2576103f18860016003610fcb9092919063ffffffff16565b5b600061040c8b8b8b600461103b909392919063ffffffff16565b9050610421888261108390919063ffffffff16565b6000806040518060400160405290816000820160009054906101000a900473ffffffffffffffffffffffffffffffffffffffff1673ffffffffffffffffffffffffffffffffffffffff1673ffffffffffffffffffffffffffffffffffffffff1681526020016000820160149054906101000a900460020b60020b60020b8152505090506104c36104b482602001516110f9565b6104bd8c6110f9565b8b6115c6565b95506104e46104d582602001516110f9565b6104de8d6110f9565b8b6116ad565b945088600160008282829054906101000a90046fffffffffffffffffffffffffffffffff166105139190612a9f565b92506101000a8154816fffffffffffffffffffffffffffffffff02191690836fffffffffffffffffffffffffffffffff16021790555060008060008811156105605761055d611742565b91505b6000871115610574576105716117e3565b90505b3373ffffffffffffffffffffffffffffffffffffffff1663d348799789898d8d6040518563ffffffff1660e01b81526004016105b39493929190612b41565b600060405180830381600087803b1580156105cd57600080fd5b505af11580156105e1573d6000803e3d6000fd5b5050505060008811801561060657506105f8611742565b88836106049190612b81565b115b1561063d576040517f098fb56100000000000000000000000000000000000000000000000000000000815260040160405180910390fd5b60008711801561065e57506106506117e3565b878261065c9190612b81565b115b15610695576040517f098fb56100000000000000000000000000000000000000000000000000000000815260040160405180910390fd5b8b60020b8d60020b8f73ffffffffffffffffffffffffffffffffffffffff167f7a53080ba414158be7ec69b987b5fb7d07dee101fe85488f0853ae16239d0bde338f8d8d6040516106e99493929190612bb5565b60405180910390a4505050505050965096945050505050565b60046020528060005260406000206000915090508060000160009054906101000a90046fffffffffffffffffffffffffffffffff16905081565b60036020528060005260406000206000915090505481565b6000806000806040518060400160405290816000820160009054906101000a900473ffffffffffffffffffffffffffffffffffffffff1673ffffffffffffffffffffffffffffffffffffffff1673ffffffffffffffffffffffffffffffffffffffff1681526020016000820160149054906101000a900460020b60020b60020b8152505090506000604051806080016040528088815260200160008152602001836000015173ffffffffffffffffffffffffffffffffffffffff168152602001836020015160020b81525090505b6000816000015111156109bf5761083761248e565b8160400151816000019073ffffffffffffffffffffffffffffffffffffffff16908173ffffffffffffffffffffffffffffffffffffffff1681525050610890826060015160018b6003611884909392919063ffffffff16565b50816020018160020b60020b815250506108ad81602001516110f9565b816040019073ffffffffffffffffffffffffffffffffffffffff16908173ffffffffffffffffffffffffffffffffffffffff168152505061091a81600001518260400151600160009054906101000a90046fffffffffffffffffffffffffffffffff168560000151611a72565b84604001846060018560800183815250838152508373ffffffffffffffffffffffffffffffffffffffff1673ffffffffffffffffffffffffffffffffffffffff168152505050508060600151826000018181516109779190612bfa565b915081815250508060800151826020018181516109949190612b81565b915081815250506109a88260400151611aed565b826060019060020b908160020b8152505050610822565b816020015160020b816060015160020b14610a4c57806040015181606001516000800160008060000160148491906101000a81548162ffffff021916908360020b62ffffff1602179055508391906101000a81548173ffffffffffffffffffffffffffffffffffffffff021916908373ffffffffffffffffffffffffffffffffffffffff16021790555050505b87610a74578060200151610a5f90612c2e565b816000015188610a6f9190612bfa565b610a93565b806000015187610a849190612bfa565b8160200151610a9290612c2e565b5b80945081955050508715610c18577f000000000000000000000000000000000000000000000000000000000000000073ffffffffffffffffffffffffffffffffffffffff1663a9059cbb8a85610ae890612c2e565b6040518363ffffffff1660e01b8152600401610b05929190612c76565b6020604051808303816000875af1158015610b24573d6000803e3d6000fd5b505050506040513d601f19601f82011682018060405250810190610b489190612cb4565b506000610b53611742565b90503373ffffffffffffffffffffffffffffffffffffffff1663fa461e3386868a8a6040518563ffffffff1660e01b8152600401610b949493929190612ce1565b600060405180830381600087803b158015610bae57600080fd5b505af1158015610bc2573d6000803e3d6000fd5b50505050610bce611742565b8582610bda9190612b81565b1115610c12576040517f098fb56100000000000000000000000000000000000000000000000000000000815260040160405180910390fd5b50610d8b565b7f000000000000000000000000000000000000000000000000000000000000000073ffffffffffffffffffffffffffffffffffffffff1663a9059cbb8a86610c5f90612c2e565b6040518363ffffffff1660e01b8152600401610c7c929190612c76565b6020604051808303816000875af1158015610c9b573d6000803e3d6000fd5b505050506040513d601f19601f82011682018060405250810190610cbf9190612cb4565b506000610cca6117e3565b90503373ffffffffffffffffffffffffffffffffffffffff1663fa461e3386868a8a6040518563ffffffff1660e01b8152600401610d0b9493929190612ce1565b600060405180830381600087803b158015610d2557600080fd5b505af1158015610d39573d6000803e3d6000fd5b50505050610d456117e3565b8482610d519190612b81565b1115610d89576040517f098fb56100000000000000000000000000000000000000000000000000000000815260040160405180910390fd5b505b8873ffffffffffffffffffffffffffffffffffffffff163373ffffffffffffffffffffffffffffffffffffffff167fc42079f94a6350d7e6235f29174924f928cc2ac818eb64fed8004e115fbcca6786866000800160009054906101000a900473ffffffffffffffffffffffffffffffffffffffff16600160009054906101000a90046fffffffffffffffffffffffffffffffff166000800160149054906101000a900460020b604051610e43959493929190612d21565b60405180910390a350509550959350505050565b7f000000000000000000000000000000000000000000000000000000000000000081565b60026020528060005260406000206000915090508060000160009054906101000a900460ff16908060000160019054906101000a90046fffffffffffffffffffffffffffffffff16905082565b6000808460008560020b60020b8152602001908152602001600020905060008160000160019054906101000a90046fffffffffffffffffffffffffffffffff16905060008482610f189190612a9f565b90506000826fffffffffffffffffffffffffffffffff161415156000826fffffffffffffffffffffffffffffffff16141515141593506000826fffffffffffffffffffffffffffffffff1603610f865760018360000160006101000a81548160ff0219169083151502179055505b808360000160016101000a8154816fffffffffffffffffffffffffffffffff02191690836fffffffffffffffffffffffffffffffff1602179055505050509392505050565b60008183610fd99190612da3565b60020b14610fe657600080fd5b600080610ffd8385610ff89190612dd4565b611eec565b9150915060008160ff166001901b9050808660008560010b60010b815260200190815260200160002060008282541892505081905550505050505050565b600084600085858560405160200161105593929190612ebc565b6040516020818303038152906040528051906020012081526020019081526020016000209050949350505050565b60008260000160009054906101000a90046fffffffffffffffffffffffffffffffff169050600082826110b69190612a9f565b9050808460000160006101000a8154816fffffffffffffffffffffffffffffffff02191690836fffffffffffffffffffffffffffffffff16021790555050505050565b60008060008360020b12611110578260020b61111e565b8260020b61111d90612c2e565b5b90507ffffffffffffffffffffffffffffffffffffffffffffffffffffffffffff2761861114a90612a57565b62ffffff16811115611191576040517f08c379a000000000000000000000000000000000000000000000000000000000815260040161118890612f56565b60405180910390fd5b60008060018316036111b4577001000000000000000000000000000000006111c6565b6ffffcb933bd6fad37aa2d162d1a5940015b70ffffffffffffffffffffffffffffffffff169050600060028316146112095760806ffff97272373d413259a46990580e213a826112049190612f76565b901c90505b600060048316146112375760806ffff2e50f5f656932ef12357cf3c7fdcc826112329190612f76565b901c90505b600060088316146112655760806fffe5caca7e10e4e61c3624eaa0941cd0826112609190612f76565b901c90505b600060108316146112935760806fffcb9843d60f6159c9db58835c9266448261128e9190612f76565b901c90505b600060208316146112c15760806fff973b41fa98c081472e6896dfb254c0826112bc9190612f76565b901c90505b600060408316146112ef5760806fff2ea16466c96a3843ec78b326b52861826112ea9190612f76565b901c90505b6000608083161461131d5760806ffe5dee046a99a2a811c461f1969c3053826113189190612f76565b901c90505b600061010083161461134c5760806ffcbe86c7900a88aedcffc83b479aa3a4826113479190612f76565b901c90505b600061020083161461137b5760806ff987a7253ac413176f2b074cf7815e54826113769190612f76565b901c90505b60006104008316146113aa5760806ff3392b0822b70005940c7a398e4b70f3826113a59190612f76565b901c90505b60006108008316146113d95760806fe7159475a2c29b7443b29c7fa6e889d9826113d49190612f76565b901c90505b60006110008316146114085760806fd097f3bdfd2022b8845ad8f792aa5825826114039190612f76565b901c90505b60006120008316146114375760806fa9f746462d870fdf8a65dc1f90e061e5826114329190612f76565b901c90505b60006140008316146114665760806f70d869a156d2a1b890bb3df62baf32f7826114619190612f76565b901c90505b60006180008316146114955760806f31be135f97d08fd981231505542fcfa6826114909190612f76565b901c90505b6000620100008316146114c55760806f09aa508b5b7a84e1c677de54f3e99bc9826114c09190612f76565b901c90505b6000620200008316146114f45760806e5d6af8dedb81196699c329225ee604826114ef9190612f76565b901c90505b6000620400008316146115225760806d2216e584f5fa1ea926041bedfe988261151d9190612f76565b901c90505b60006208000083161461154e5760806b048a170391f7dc42444e8fa2826115499190612f76565b901c90505b60008460020b131561158957807fffffffffffffffffffffffffffffffffffffffffffffffffffffffffffffffff6115869190612fb8565b90505b60006401000000008261159c9190612fe9565b146115a85760016115ab565b60005b60ff16602082901c6115bd9190612b81565b92505050919050565b60008273ffffffffffffffffffffffffffffffffffffffff168473ffffffffffffffffffffffffffffffffffffffff16111561160757828480945081955050505b60008473ffffffffffffffffffffffffffffffffffffffff161161162a57600080fd5b6116a4611688606060ff16846fffffffffffffffffffffffffffffffff16901b8686611656919061301a565b73ffffffffffffffffffffffffffffffffffffffff168673ffffffffffffffffffffffffffffffffffffffff16611f0e565b8573ffffffffffffffffffffffffffffffffffffffff16611f79565b90509392505050565b60008273ffffffffffffffffffffffffffffffffffffffff168473ffffffffffffffffffffffffffffffffffffffff1611156116ee57828480945081955050505b611739826fffffffffffffffffffffffffffffffff168585611710919061301a565b73ffffffffffffffffffffffffffffffffffffffff166c01000000000000000000000000611f0e565b90509392505050565b60007f000000000000000000000000000000000000000000000000000000000000000073ffffffffffffffffffffffffffffffffffffffff166370a08231306040518263ffffffff1660e01b815260040161179d919061252d565b602060405180830381865afa1580156117ba573d6000803e3d6000fd5b505050506040513d601f19601f820116820180604052508101906117de9190613077565b905090565b60007f000000000000000000000000000000000000000000000000000000000000000073ffffffffffffffffffffffffffffffffffffffff166370a08231306040518263ffffffff1660e01b815260040161183e919061252d565b602060405180830381865afa15801561185b573d6000803e3d6000fd5b505050506040513d601f19601f8201168201806040525081019061187f9190613077565b905090565b600080600084866118959190612dd4565b905060008660020b1280156118b95750600085876118b39190612da3565b60020b14155b156118cd5780806118c9906130a4565b9150505b8315611990576000806118df83611eec565b9150915060008160ff166001901b60018360ff166001901b6119019190612bfa565b61190b9190612b81565b90506000818b60008660010b60010b815260200190815260200160002054169050600081141595508561195757888360ff168661194891906130ec565b6119529190613147565b611985565b8861196182611f8c565b8461196c9190613191565b60ff168661197a91906130ec565b6119849190613147565b5b965050505050611a68565b6000806119a86001846119a391906131c6565b611eec565b91509150600060018260ff166001901b6119c29190612bfa565b1990506000818b60008660010b60010b8152602001908152602001600020541690506000811415955085611a2757888360ff6119fe9190613191565b60ff16600187611a0e91906131c6565b611a1891906131c6565b611a229190613147565b611a61565b8883611a32836120af565b611a3c9190613191565b60ff16600187611a4c91906131c6565b611a5691906131c6565b611a609190613147565b5b9650505050505b5094509492505050565b6000806000808673ffffffffffffffffffffffffffffffffffffffff168873ffffffffffffffffffffffffffffffffffffffff1610159050611ab68887878461221e565b9350611ac38885886115c6565b9250611ad08885886116ad565b915080611ae257818380935081945050505b509450945094915050565b60006401000276a373ffffffffffffffffffffffffffffffffffffffff168273ffffffffffffffffffffffffffffffffffffffff1610158015611b6f575073fffd8963efd1fc6a506488495d951d5263988d2673ffffffffffffffffffffffffffffffffffffffff168273ffffffffffffffffffffffffffffffffffffffff16105b611bae576040517f08c379a0000000000000000000000000000000000000000000000000000000008152600401611ba59061326d565b60405180910390fd5b600060208373ffffffffffffffffffffffffffffffffffffffff16901b9050600081905060006fffffffffffffffffffffffffffffffff821160071b808217915082811c92505067ffffffffffffffff821160061b808217915082811c92505063ffffffff821160051b808217915082811c92505061ffff821160041b808217915082811c92505060ff821160031b808217915082811c925050600f821160021b808217915082811c9250506003821160011b808217915082811c9250506001821180821791505060808110611c9557607f81611c8b9190612bfa565b83901c9150611ca8565b80607f611ca29190612bfa565b83901b91505b60006040608083611cb9919061328d565b901b9050828302607f1c92508260801c80603f1b8217915083811c935050828302607f1c92508260801c80603e1b8217915083811c935050828302607f1c92508260801c80603d1b8217915083811c935050828302607f1c92508260801c80603c1b8217915083811c935050828302607f1c92508260801c80603b1b8217915083811c935050828302607f1c92508260801c80603a1b8217915083811c935050828302607f1c92508260801c8060391b8217915083811c935050828302607f1c92508260801c8060381b8217915083811c935050828302607f1c92508260801c8060371b8217915083811c935050828302607f1c92508260801c8060361b8217915083811c935050828302607f1c92508260801c8060351b8217915083811c935050828302607f1c92508260801c8060341b8217915083811c935050828302607f1c92508260801c8060331b8217915083811c935050828302607f1c92508260801c8060321b82179150506000693627a301d71055774c8582611e3c91906132d0565b9050600060806f028f6481ab7f045a5af012a19d003aaa83611e5e919061328d565b901d9050600060806fdb2df09e81959a81455e260799a0632f84611e829190613348565b901d90508060020b8260020b14611edc578873ffffffffffffffffffffffffffffffffffffffff16611eb3826110f9565b73ffffffffffffffffffffffffffffffffffffffff161115611ed55781611ed7565b805b611ede565b815b975050505050505050919050565b60008060088360020b901d915061010083611f079190612da3565b9050915091565b6000611f1b84848461224b565b905060008280611f2e57611f2d612d74565b5b8486091115611f72577fffffffffffffffffffffffffffffffffffffffffffffffffffffffffffffffff8110611f6357600080fd5b8080611f6e9061338c565b9150505b9392505050565b6000808284061182840401905092915050565b6000808211611f9a57600080fd5b7001000000000000000000000000000000008210611fc957608082901c9150608081611fc691906133d4565b90505b680100000000000000008210611ff057604082901c9150604081611fed91906133d4565b90505b640100000000821061201357602082901c915060208161201091906133d4565b90505b62010000821061203457601082901c915060108161203191906133d4565b90505b610100821061205457600882901c915060088161205191906133d4565b90505b6010821061207357600482901c915060048161207091906133d4565b90505b6004821061209257600282901c915060028161208f91906133d4565b90505b600282106120aa576001816120a791906133d4565b90505b919050565b60008082116120bd57600080fd5b60ff905060006fffffffffffffffffffffffffffffffff8016831611156120f2576080816120eb9190613191565b90506120fa565b608082901c91505b600067ffffffffffffffff8016831611156121235760408161211c9190613191565b905061212b565b604082901c91505b600063ffffffff801683161115612150576020816121499190613191565b9050612158565b602082901c91505b600061ffff80168316111561217b576010816121749190613191565b9050612183565b601082901c91505b600060ff8016831611156121a55760088161219e9190613191565b90506121ad565b600882901c91505b6000600f831611156121cd576004816121c69190613191565b90506121d5565b600482901c91505b60006003831611156121f5576002816121ee9190613191565b90506121fd565b600282901c91505b6000600183161115612219576001816122169190613191565b90505b919050565b60008161223557612230858585612360565b612241565b61224085858561239b565b5b9050949350505050565b60008060008019858709858702925082811083820303915050600081036122865783828161227c5761227b612d74565b5b0492505050612359565b8381106122cc5780846040517f773cc18c0000000000000000000000000000000000000000000000000000000081526004016122c3929190612788565b60405180910390fd5b60008486880990508281118203915080830392506000600186190186169050808604955080840493506001818260000304019050808302841793506000600287600302189050808702600203810290508087026002038102905080870260020381029050808702600203810290508087026002038102905080870260020381029050808502955050505050505b9392505050565b6000826fffffffffffffffffffffffffffffffff16606060ff1683901b6123879190612fb8565b846123929190613409565b90509392505050565b600080606060ff16846fffffffffffffffffffffffffffffffff16901b905060008573ffffffffffffffffffffffffffffffffffffffff16846123de9190612f76565b90508573ffffffffffffffffffffffffffffffffffffffff1684826124039190612fb8565b0361244c57600081836124169190612b81565b905082811061244a57612440838873ffffffffffffffffffffffffffffffffffffffff1683611f0e565b9350505050612487565b505b61248282858873ffffffffffffffffffffffffffffffffffffffff16856124739190612fb8565b61247d9190612b81565b611f79565b925050505b9392505050565b6040518060a00160405280600073ffffffffffffffffffffffffffffffffffffffff168152602001600060020b8152602001600073ffffffffffffffffffffffffffffffffffffffff16815260200160008152602001600081525090565b600073ffffffffffffffffffffffffffffffffffffffff82169050919050565b6000612517826124ec565b9050919050565b6125278161250c565b82525050565b6000602082019050612542600083018461251e565b92915050565b60006fffffffffffffffffffffffffffffffff82169050919050565b61256d81612548565b82525050565b60006020820190506125886000830184612564565b92915050565b612597816124ec565b82525050565b60008160020b9050919050565b6125b38161259d565b82525050565b60006040820190506125ce600083018561258e565b6125db60208301846125aa565b9392505050565b600080fd5b600080fd5b6125f58161250c565b811461260057600080fd5b50565b600081359050612612816125ec565b92915050565b6126218161259d565b811461262c57600080fd5b50565b60008135905061263e81612618565b92915050565b61264d81612548565b811461265857600080fd5b50565b60008135905061266a81612644565b92915050565b600080fd5b600080fd5b600080fd5b60008083601f84011261269557612694612670565b5b8235905067ffffffffffffffff8111156126b2576126b1612675565b5b6020830191508360018202830111156126ce576126cd61267a565b5b9250929050565b60008060008060008060a087890312156126f2576126f16125e2565b5b600061270089828a01612603565b965050602061271189828a0161262f565b955050604061272289828a0161262f565b945050606061273389828a0161265b565b935050608087013567ffffffffffffffff811115612754576127536125e7565b5b61276089828a0161267f565b92509250509295509295509295565b6000819050919050565b6127828161276f565b82525050565b600060408201905061279d6000830185612779565b6127aa6020830184612779565b9392505050565b6000819050919050565b6127c4816127b1565b81146127cf57600080fd5b50565b6000813590506127e1816127bb565b92915050565b6000602082840312156127fd576127fc6125e2565b5b600061280b848285016127d2565b91505092915050565b60008160010b9050919050565b61282a81612814565b811461283557600080fd5b50565b60008135905061284781612821565b92915050565b600060208284031215612863576128626125e2565b5b600061287184828501612838565b91505092915050565b600060208201905061288f6000830184612779565b92915050565b60008115159050919050565b6128aa81612895565b81146128b557600080fd5b50565b6000813590506128c7816128a1565b92915050565b6128d68161276f565b81146128e157600080fd5b50565b6000813590506128f3816128cd565b92915050565b600080600080600060808688031215612915576129146125e2565b5b600061292388828901612603565b9550506020612934888289016128b8565b9450506040612945888289016128e4565b935050606086013567ffffffffffffffff811115612966576129656125e7565b5b6129728882890161267f565b92509250509295509295909350565b6000819050919050565b61299481612981565b82525050565b60006040820190506129af600083018561298b565b6129bc602083018461298b565b9392505050565b6000602082840312156129d9576129d86125e2565b5b60006129e78482850161262f565b91505092915050565b6129f981612895565b82525050565b6000604082019050612a1460008301856129f0565b612a216020830184612564565b9392505050565b7f4e487b7100000000000000000000000000000000000000000000000000000000600052601160045260246000fd5b6000612a628261259d565b91507fffffffffffffffffffffffffffffffffffffffffffffffffffffffffff8000008203612a9457612a93612a28565b5b816000039050919050565b6000612aaa82612548565b9150612ab583612548565b925082820190506fffffffffffffffffffffffffffffffff811115612add57612adc612a28565b5b92915050565b600082825260208201905092915050565b82818337600083830152505050565b6000601f19601f8301169050919050565b6000612b208385612ae3565b9350612b2d838584612af4565b612b3683612b03565b840190509392505050565b6000606082019050612b566000830187612779565b612b636020830186612779565b8181036040830152612b76818486612b14565b905095945050505050565b6000612b8c8261276f565b9150612b978361276f565b9250828201905080821115612baf57612bae612a28565b5b92915050565b6000608082019050612bca600083018761251e565b612bd76020830186612564565b612be46040830185612779565b612bf16060830184612779565b95945050505050565b6000612c058261276f565b9150612c108361276f565b9250828203905081811115612c2857612c27612a28565b5b92915050565b6000612c3982612981565b91507f80000000000000000000000000000000000000000000000000000000000000008203612c6b57612c6a612a28565b5b816000039050919050565b6000604082019050612c8b600083018561251e565b612c986020830184612779565b9392505050565b600081519050612cae816128a1565b92915050565b600060208284031215612cca57612cc96125e2565b5b6000612cd884828501612c9f565b91505092915050565b6000606082019050612cf6600083018761298b565b612d03602083018661298b565b8181036040830152612d16818486612b14565b905095945050505050565b600060a082019050612d36600083018861298b565b612d43602083018761298b565b612d50604083018661258e565b612d5d6060830185612564565b612d6a60808301846125aa565b9695505050505050565b7f4e487b7100000000000000000000000000000000000000000000000000000000600052601260045260246000fd5b6000612dae8261259d565b9150612db98361259d565b925082612dc957612dc8612d74565b5b828207905092915050565b6000612ddf8261259d565b9150612dea8361259d565b925082612dfa57612df9612d74565b5b600160000383147fffffffffffffffffffffffffffffffffffffffffffffffffffffffffff80000083141615612e3357612e32612a28565b5b828205905092915050565b60008160601b9050919050565b6000612e5682612e3e565b9050919050565b6000612e6882612e4b565b9050919050565b612e80612e7b8261250c565b612e5d565b82525050565b60008160e81b9050919050565b6000612e9e82612e86565b9050919050565b612eb6612eb18261259d565b612e93565b82525050565b6000612ec88286612e6f565b601482019150612ed88285612ea5565b600382019150612ee88284612ea5565b600382019150819050949350505050565b600082825260208201905092915050565b7f5400000000000000000000000000000000000000000000000000000000000000600082015250565b6000612f40600183612ef9565b9150612f4b82612f0a565b602082019050919050565b60006020820190508181036000830152612f6f81612f33565b9050919050565b6000612f818261276f565b9150612f8c8361276f565b9250828202612f9a8161276f565b91508282048414831517612fb157612fb0612a28565b5b5092915050565b6000612fc38261276f565b9150612fce8361276f565b925082612fde57612fdd612d74565b5b828204905092915050565b6000612ff48261276f565b9150612fff8361276f565b92508261300f5761300e612d74565b5b828206905092915050565b6000613025826124ec565b9150613030836124ec565b9250828203905073ffffffffffffffffffffffffffffffffffffffff81111561305c5761305b612a28565b5b92915050565b600081519050613071816128cd565b92915050565b60006020828403121561308d5761308c6125e2565b5b600061309b84828501613062565b91505092915050565b60006130af8261259d565b91507fffffffffffffffffffffffffffffffffffffffffffffffffffffffffff80000082036130e1576130e0612a28565b5b600182039050919050565b60006130f78261259d565b91506131028361259d565b92508282039050627fffff81137fffffffffffffffffffffffffffffffffffffffffffffffffffffffffff8000008212171561314157613140612a28565b5b92915050565b60006131528261259d565b915061315d8361259d565b925082820261316b8161259d565b915080821461317d5761317c612a28565b5b5092915050565b600060ff82169050919050565b600061319c82613184565b91506131a783613184565b9250828203905060ff8111156131c0576131bf612a28565b5b92915050565b60006131d18261259d565b91506131dc8361259d565b925082820190507fffffffffffffffffffffffffffffffffffffffffffffffffffffffffff8000008112627fffff8213171561321b5761321a612a28565b5b92915050565b7f5200000000000000000000000000000000000000000000000000000000000000600082015250565b6000613257600183612ef9565b915061326282613221565b602082019050919050565b600060208201905081810360008301526132868161324a565b9050919050565b600061329882612981565b91506132a383612981565b92508282039050818112600084121682821360008512151617156132ca576132c9612a28565b5b92915050565b60006132db82612981565b91506132e683612981565b92508282026132f481612981565b91507f8000000000000000000000000000000000000000000000000000000000000000841460008412161561332c5761332b612a28565b5b828205841483151761334157613340612a28565b5b5092915050565b600061335382612981565b915061335e83612981565b92508282019050828112156000831216838212600084121516171561338657613385612a28565b5b92915050565b60006133978261276f565b91507fffffffffffffffffffffffffffffffffffffffffffffffffffffffffffffffff82036133c9576133c8612a28565b5b600182019050919050565b60006133df82613184565b91506133ea83613184565b9250828201905060ff81111561340357613402612a28565b5b92915050565b6000613414826124ec565b915061341f836124ec565b9250828201905073ffffffffffffffffffffffffffffffffffffffff81111561344b5761344a612a28565b5b9291505056fea264697066735822122086dc3a98189b926fb2d9811816f3eace67327dba8d9574761ee3e6e212fa489c64736f6c634300081a0033",
			"opcodes": "PUSH1 0xC0 PUSH1 0x40 MSTORE CALLVALUE DUP1 ISZERO PUSH2 0x10 JUMPI PUSH1 0x0 DUP1 REVERT JUMPDEST POP PUSH1 0x40 MLOAD PUSH2 0x373B CODESIZE SUB DUP1 PUSH2 0x373B DUP4 CODECOPY DUP2 DUP2 ADD PUSH1 0x40 MSTORE DUP2 ADD SWAP1 PUSH2 0x32 SWAP2 SWAP1 PUSH2 0x20C JUMP JUMPDEST DUP4 PUSH20 0xFFFFFFFFFFFFFFFFFFFFFFFFFFFFFFFFFFFFFFFF AND PUSH1 0x80 DUP2 PUSH20 0xFFFFFFFFFFFFFFFFFFFFFFFFFFFFFFFFFFFFFFFF AND DUP2 MSTORE POP POP DUP3 PUSH20 0xFFFFFFFFFFFFFFFFFFFFFFFFFFFFFFFFFFFFFFFF AND PUSH1 0xA0 DUP2 PUSH20 0xFFFFFFFFFFFFFFFFFFFFFFFFFFFFFFFFFFFFFFFF AND DUP2 MSTORE POP POP PUSH1 0x40 MLOAD DUP1 PUSH1 0x40 ADD PUSH1 0x40 MSTORE DUP1 DUP4 PUSH20 0xFFFFFFFFFFFFFFFFFFFFFFFFFFFFFFFFFFFFFFFF AND DUP2 MSTORE PUSH1 0x20 ADD DUP3 PUSH1 0x2 SIGNEXTEND DUP2 MSTORE POP PUSH1 0x0 DUP1 DUP3 ADD MLOAD DUP2 PUSH1 0x0 ADD PUSH1 0x0 PUSH2 0x100 EXP DUP2 SLOAD DUP2 PUSH20 0xFFFFFFFFFFFFFFFFFFFFFFFFFFFFFFFFFFFFFFFF MUL NOT AND SWAP1 DUP4 PUSH20 0xFFFFFFFFFFFFFFFFFFFFFFFFFFFFFFFFFFFFFFFF AND MUL OR SWAP1 SSTORE POP PUSH1 0x20 DUP3 ADD MLOAD DUP2 PUSH1 0x0 ADD PUSH1 0x14 PUSH2 0x100 EXP DUP2 SLOAD DUP2 PUSH3 0xFFFFFF MUL NOT AND SWAP1 DUP4 PUSH1 0x2 SIGNEXTEND PUSH3 0xFFFFFF AND MUL OR SWAP1 SSTORE POP SWAP1 POP POP POP POP POP POP PUSH2 0x273 JUMP JUMPDEST PUSH1 0x0 DUP1 REVERT JUMPDEST PUSH1 0x0 PUSH20 0xFFFFFFFFFFFFFFFFFFFFFFFFFFFFFFFFFFFFFFFF DUP3 AND SWAP1 POP SWAP2 SWAP1 POP JUMP JUMPDEST PUSH1 0x0 PUSH2 0x174 DUP3 PUSH2 0x149 JUMP JUMPDEST SWAP1 POP SWAP2 SWAP1 POP JUMP JUMPDEST PUSH2 0x184 DUP2 PUSH2 0x169 JUMP JUMPDEST DUP2 EQ PUSH2 0x18F JUMPI PUSH1 0x0 DUP1 REVERT JUMPDEST POP JUMP JUMPDEST PUSH1 0x0 DUP2 MLOAD SWAP1 POP PUSH2 0x1A1 DUP2 PUSH2 0x17B JUMP JUMPDEST SWAP3 SWAP2 POP POP JUMP JUMPDEST PUSH2 0x1B0 DUP2 PUSH2 0x149 JUMP JUMPDEST DUP2 EQ PUSH2 0x1BB JUMPI PUSH1 0x0 DUP1 REVERT JUMPDEST POP JUMP JUMPDEST PUSH1 0x0 DUP2 MLOAD SWAP1 POP PUSH2 0x1CD DUP2 PUSH2 0x1A7 JUMP JUMPDEST SWAP3 SWAP2 POP POP JUMP JUMPDEST PUSH1 0x0 DUP2 PUSH1 0x2 SIGNEXTEND SWAP1 POP SWAP2 SWAP1 POP JUMP JUMPDEST PUSH2 0x1E9 DUP2 PUSH2 0x1D3 JUMP JUMPDEST DUP2 EQ PUSH2 0x1F4 JUMPI PUSH1 0x0 DUP1 REVERT JUMPDEST POP JUMP JUMPDEST PUSH1 0x0 DUP2 MLOAD SWAP1 POP PUSH2 0x206 DUP2 PUSH2 0x1E0 JUMP JUMPDEST SWAP3 SWAP2 POP POP JUMP JUMPDEST PUSH1 0x0 DUP1 PUSH1 0x0 DUP1 PUSH1 0x80 DUP6 DUP8 SUB SLT ISZERO PUSH2 0x226 JUMPI PUSH2 0x225 PUSH2 0x144 JUMP JUMPDEST JUMPDEST PUSH1 0x0 PUSH2 0x234 DUP8 DUP3 DUP9 ADD PUSH2 0x192 JUMP JUMPDEST SWAP5 POP POP PUSH1 0x20 PUSH2 0x245 DUP8 DUP3 DUP9 ADD PUSH2 0x192 JUMP JUMPDEST SWAP4 POP POP PUSH1 0x40 PUSH2 0x256 DUP8 DUP3 DUP9 ADD PUSH2 0x1BE JUMP JUMPDEST SWAP3 POP POP PUSH1 0x60 PUSH2 0x267 DUP8 DUP3 DUP9 ADD PUSH2 0x1F7 JUMP JUMPDEST SWAP2 POP POP SWAP3 SWAP6 SWAP2 SWAP5 POP SWAP3 POP JUMP JUMPDEST PUSH1 0x80 MLOAD PUSH1 0xA0 MLOAD PUSH2 0x3487 PUSH2 0x2B4 PUSH1 0x0 CODECOPY PUSH1 0x0 DUP2 DUP2 PUSH2 0xAA3 ADD MSTORE DUP2 DUP2 PUSH2 0xE59 ADD MSTORE PUSH2 0x17E7 ADD MSTORE PUSH1 0x0 DUP2 DUP2 PUSH2 0x206 ADD MSTORE DUP2 DUP2 PUSH2 0xC1A ADD MSTORE PUSH2 0x1746 ADD MSTORE PUSH2 0x3487 PUSH1 0x0 RETURN INVALID PUSH1 0x80 PUSH1 0x40 MSTORE CALLVALUE DUP1 ISZERO PUSH2 0x10 JUMPI PUSH1 0x0 DUP1 REVERT JUMPDEST POP PUSH1 0x4 CALLDATASIZE LT PUSH2 0x93 JUMPI PUSH1 0x0 CALLDATALOAD PUSH1 0xE0 SHR DUP1 PUSH4 0x514EA4BF GT PUSH2 0x66 JUMPI DUP1 PUSH4 0x514EA4BF EQ PUSH2 0x124 JUMPI DUP1 PUSH4 0x5339C296 EQ PUSH2 0x154 JUMPI DUP1 PUSH4 0x80C2C6EF EQ PUSH2 0x184 JUMPI DUP1 PUSH4 0xD21220A7 EQ PUSH2 0x1B5 JUMPI DUP1 PUSH4 0xF30DBA93 EQ PUSH2 0x1D3 JUMPI PUSH2 0x93 JUMP JUMPDEST DUP1 PUSH4 0xDFE1681 EQ PUSH2 0x98 JUMPI DUP1 PUSH4 0x1A686502 EQ PUSH2 0xB6 JUMPI DUP1 PUSH4 0x3850C7BD EQ PUSH2 0xD4 JUMPI DUP1 PUSH4 0x3C8A7D8D EQ PUSH2 0xF3 JUMPI JUMPDEST PUSH1 0x0 DUP1 REVERT JUMPDEST PUSH2 0xA0 PUSH2 0x204 JUMP JUMPDEST PUSH1 0x40 MLOAD PUSH2 0xAD SWAP2 SWAP1 PUSH2 0x252D JUMP JUMPDEST PUSH1 0x40 MLOAD DUP1 SWAP2 SUB SWAP1 RETURN JUMPDEST PUSH2 0xBE PUSH2 0x228 JUMP JUMPDEST PUSH1 0x40 MLOAD PUSH2 0xCB SWAP2 SWAP1 PUSH2 0x2573 JUMP JUMPDEST PUSH1 0x40 MLOAD DUP1 SWAP2 SUB SWAP1 RETURN JUMPDEST PUSH2 0xDC PUSH2 0x24A JUMP JUMPDEST PUSH1 0x40 MLOAD PUSH2 0xEA SWAP3 SWAP2 SWAP1 PUSH2 0x25B9 JUMP JUMPDEST PUSH1 0x40 MLOAD DUP1 SWAP2 SUB SWAP1 RETURN JUMPDEST PUSH2 0x10D PUSH1 0x4 DUP1 CALLDATASIZE SUB DUP2 ADD SWAP1 PUSH2 0x108 SWAP2 SWAP1 PUSH2 0x26D5 JUMP JUMPDEST PUSH2 0x289 JUMP JUMPDEST PUSH1 0x40 MLOAD PUSH2 0x11B SWAP3 SWAP2 SWAP1 PUSH2 0x2788 JUMP JUMPDEST PUSH1 0x40 MLOAD DUP1 SWAP2 SUB SWAP1 RETURN JUMPDEST PUSH2 0x13E PUSH1 0x4 DUP1 CALLDATASIZE SUB DUP2 ADD SWAP1 PUSH2 0x139 SWAP2 SWAP1 PUSH2 0x27E7 JUMP JUMPDEST PUSH2 0x702 JUMP JUMPDEST PUSH1 0x40 MLOAD PUSH2 0x14B SWAP2 SWAP1 PUSH2 0x2573 JUMP JUMPDEST PUSH1 0x40 MLOAD DUP1 SWAP2 SUB SWAP1 RETURN JUMPDEST PUSH2 0x16E PUSH1 0x4 DUP1 CALLDATASIZE SUB DUP2 ADD SWAP1 PUSH2 0x169 SWAP2 SWAP1 PUSH2 0x284D JUMP JUMPDEST PUSH2 0x73C JUMP JUMPDEST PUSH1 0x40 MLOAD PUSH2 0x17B SWAP2 SWAP1 PUSH2 0x287A JUMP JUMPDEST PUSH1 0x40 MLOAD DUP1 SWAP2 SUB SWAP1 RETURN JUMPDEST PUSH2 0x19E PUSH1 0x4 DUP1 CALLDATASIZE SUB DUP2 ADD SWAP1 PUSH2 0x199 SWAP2 SWAP1 PUSH2 0x28F9 JUMP JUMPDEST PUSH2 0x754 JUMP JUMPDEST PUSH1 0x40 MLOAD PUSH2 0x1AC SWAP3 SWAP2 SWAP1 PUSH2 0x299A JUMP JUMPDEST PUSH1 0x40 MLOAD DUP1 SWAP2 SUB SWAP1 RETURN JUMPDEST PUSH2 0x1BD PUSH2 0xE57 JUMP JUMPDEST PUSH1 0x40 MLOAD PUSH2 0x1CA SWAP2 SWAP1 PUSH2 0x252D JUMP JUMPDEST PUSH1 0x40 MLOAD DUP1 SWAP2 SUB SWAP1 RETURN JUMPDEST PUSH2 0x1ED PUSH1 0x4 DUP1 CALLDATASIZE SUB DUP2 ADD SWAP1 PUSH2 0x1E8 SWAP2 SWAP1 PUSH2 0x29C3 JUMP JUMPDEST PUSH2 0xE7B JUMP JUMPDEST PUSH1 0x40 MLOAD PUSH2 0x1FB SWAP3 SWAP2 SWAP1 PUSH2 0x29FF JUMP JUMPDEST PUSH1 0x40 MLOAD DUP1 SWAP2 SUB SWAP1 RETURN JUMPDEST PUSH32 0x0 DUP2 JUMP JUMPDEST PUSH1 0x1 PUSH1 0x0 SWAP1 SLOAD SWAP1 PUSH2 0x100 EXP SWAP1 DIV PUSH16 0xFFFFFFFFFFFFFFFFFFFFFFFFFFFFFFFF AND DUP2 JUMP JUMPDEST PUSH1 0x0 DUP1 PUSH1 0x0 ADD PUSH1 0x0 SWAP1 SLOAD SWAP1 PUSH2 0x100 EXP SWAP1 DIV PUSH20 0xFFFFFFFFFFFFFFFFFFFFFFFFFFFFFFFFFFFFFFFF AND SWAP1 DUP1 PUSH1 0x0 ADD PUSH1 0x14 SWAP1 SLOAD SWAP1 PUSH2 0x100 EXP SWAP1 DIV PUSH1 0x2 SIGNEXTEND SWAP1 POP DUP3 JUMP JUMPDEST PUSH1 0x0 DUP1 DUP6 PUSH1 0x2 SIGNEXTEND DUP8 PUSH1 0x2 SIGNEXTEND SLT ISZERO DUP1 PUSH2 0x2C6 JUMPI POP PUSH32 0xFFFFFFFFFFFFFFFFFFFFFFFFFFFFFFFFFFFFFFFFFFFFFFFFFFFFFFFFFFF27618 PUSH1 0x2 SIGNEXTEND DUP8 PUSH1 0x2 SIGNEXTEND SLT JUMPDEST DUP1 PUSH2 0x2FF JUMPI POP PUSH32 0xFFFFFFFFFFFFFFFFFFFFFFFFFFFFFFFFFFFFFFFFFFFFFFFFFFFFFFFFFFF27618 PUSH2 0x2F6 SWAP1 PUSH2 0x2A57 JUMP JUMPDEST PUSH1 0x2 SIGNEXTEND DUP7 PUSH1 0x2 SIGNEXTEND SGT JUMPDEST ISZERO PUSH2 0x336 JUMPI PUSH1 0x40 MLOAD PUSH32 0x64847D000000000000000000000000000000000000000000000000000000000 DUP2 MSTORE PUSH1 0x4 ADD PUSH1 0x40 MLOAD DUP1 SWAP2 SUB SWAP1 REVERT JUMPDEST PUSH1 0x0 DUP6 PUSH16 0xFFFFFFFFFFFFFFFFFFFFFFFFFFFFFFFF AND SUB PUSH2 0x382 JUMPI PUSH1 0x40 MLOAD PUSH32 0x1007454800000000000000000000000000000000000000000000000000000000 DUP2 MSTORE PUSH1 0x4 ADD PUSH1 0x40 MLOAD DUP1 SWAP2 SUB SWAP1 REVERT JUMPDEST PUSH1 0x0 PUSH2 0x39A DUP9 DUP8 PUSH1 0x2 PUSH2 0xEC8 SWAP1 SWAP3 SWAP2 SWAP1 PUSH4 0xFFFFFFFF AND JUMP JUMPDEST SWAP1 POP PUSH1 0x0 PUSH2 0x3B4 DUP9 DUP9 PUSH1 0x2 PUSH2 0xEC8 SWAP1 SWAP3 SWAP2 SWAP1 PUSH4 0xFFFFFFFF AND JUMP JUMPDEST SWAP1 POP DUP2 ISZERO PUSH2 0x3D4 JUMPI PUSH2 0x3D3 DUP10 PUSH1 0x1 PUSH1 0x3 PUSH2 0xFCB SWAP1 SWAP3 SWAP2 SWAP1 PUSH4 0xFFFFFFFF AND JUMP JUMPDEST JUMPDEST DUP1 ISZERO PUSH2 0x3F2 JUMPI PUSH2 0x3F1 DUP9 PUSH1 0x1 PUSH1 0x3 PUSH2 0xFCB SWAP1 SWAP3 SWAP2 SWAP1 PUSH4 0xFFFFFFFF AND JUMP JUMPDEST JUMPDEST PUSH1 0x0 PUSH2 0x40C DUP12 DUP12 DUP12 PUSH1 0x4 PUSH2 0x103B SWAP1 SWAP4 SWAP3 SWAP2 SWAP1 PUSH4 0xFFFFFFFF AND JUMP JUMPDEST SWAP1 POP PUSH2 0x421 DUP9 DUP3 PUSH2 0x1083 SWAP1 SWAP2 SWAP1 PUSH4 0xFFFFFFFF AND JUMP JUMPDEST PUSH1 0x0 DUP1 PUSH1 0x40 MLOAD DUP1 PUSH1 0x40 ADD PUSH1 0x40 MSTORE SWAP1 DUP2 PUSH1 0x0 DUP3 ADD PUSH1 0x0 SWAP1 SLOAD SWAP1 PUSH2 0x100 EXP SWAP1 DIV PUSH20 0xFFFFFFFFFFFFFFFFFFFFFFFFFFFFFFFFFFFFFFFF AND PUSH20 0xFFFFFFFFFFFFFFFFFFFFFFFFFFFFFFFFFFFFFFFF AND PUSH20 0xFFFFFFFFFFFFFFFFFFFFFFFFFFFFFFFFFFFFFFFF AND DUP2 MSTORE PUSH1 0x20 ADD PUSH1 0x0 DUP3 ADD PUSH1 0x14 SWAP1 SLOAD SWAP1 PUSH2 0x100 EXP SWAP1 DIV PUSH1 0x2 SIGNEXTEND PUSH1 0x2 SIGNEXTEND PUSH1 0x2 SIGNEXTEND DUP2 MSTORE POP POP SWAP1 POP PUSH2 0x4C3 PUSH2 0x4B4 DUP3 PUSH1 0x20 ADD MLOAD PUSH2 0x10F9 JUMP JUMPDEST PUSH2 0x4BD DUP13 PUSH2 0x10F9 JUMP JUMPDEST DUP12 PUSH2 0x15C6 JUMP JUMPDEST SWAP6 POP PUSH2 0x4E4 PUSH2 0x4D5 DUP3 PUSH1 0x20 ADD MLOAD PUSH2 0x10F9 JUMP JUMPDEST PUSH2 0x4DE DUP14 PUSH2 0x10F9 JUMP JUMPDEST DUP12 PUSH2 0x16AD JUMP JUMPDEST SWAP5 POP DUP9 PUSH1 0x1 PUSH1 0x0 DUP3 DUP3 DUP3 SWAP1 SLOAD SWAP1 PUSH2 0x100 EXP SWAP1 DIV PUSH16 0xFFFFFFFFFFFFFFFFFFFFFFFFFFFFFFFF AND PUSH2 0x513 SWAP2 SWAP1 PUSH2 0x2A9F JUMP JUMPDEST SWAP3 POP PUSH2 0x100 EXP DUP2 SLOAD DUP2 PUSH16 0xFFFFFFFFFFFFFFFFFFFFFFFFFFFFFFFF MUL NOT AND SWAP1 DUP4 PUSH16 0xFFFFFFFFFFFFFFFFFFFFFFFFFFFFFFFF AND MUL OR SWAP1 SSTORE POP PUSH1 0x0 DUP1 PUSH1 0x0 DUP9 GT ISZERO PUSH2 0x560 JUMPI PUSH2 0x55D PUSH2 0x1742 JUMP JUMPDEST SWAP2 POP JUMPDEST PUSH1 0x0 DUP8 GT ISZERO PUSH2 0x574 JUMPI PUSH2 0x571 PUSH2 0x17E3 JUMP JUMPDEST SWAP1 POP JUMPDEST CALLER PUSH20 0xFFFFFFFFFFFFFFFFFFFFFFFFFFFFFFFFFFFFFFFF AND PUSH4 0xD3487997 DUP10 DUP10 DUP14 DUP14 PUSH1 0x40 MLOAD DUP6 PUSH4 0xFFFFFFFF AND PUSH1 0xE0 SHL DUP2 MSTORE PUSH1 0x4 ADD PUSH2 0x5B3 SWAP5 SWAP4 SWAP3 SWAP2 SWAP1 PUSH2 0x2B41 JUMP JUMPDEST PUSH1 0x0 PUSH1 0x40 MLOAD DUP1 DUP4 SUB DUP2 PUSH1 0x0 DUP8 DUP1 EXTCODESIZE ISZERO DUP1 ISZERO PUSH2 0x5CD JUMPI PUSH1 0x0 DUP1 REVERT JUMPDEST POP GAS CALL ISZERO DUP1 ISZERO PUSH2 0x5E1 JUMPI RETURNDATASIZE PUSH1 0x0 DUP1 RETURNDATACOPY RETURNDATASIZE PUSH1 0x0 REVERT JUMPDEST POP POP POP POP PUSH1 0x0 DUP9 GT DUP1 ISZERO PUSH2 0x606 JUMPI POP PUSH2 0x5F8 PUSH2 0x1742 JUMP JUMPDEST DUP9 DUP4 PUSH2 0x604 SWAP2 SWAP1 PUSH2 0x2B81 JUMP JUMPDEST GT JUMPDEST ISZERO PUSH2 0x63D JUMPI PUSH1 0x40 MLOAD PUSH32 0x98FB56100000000000000000000000000000000000000000000000000000000 DUP2 MSTORE PUSH1 0x4 ADD PUSH1 0x40 MLOAD DUP1 SWAP2 SUB SWAP1 REVERT JUMPDEST PUSH1 0x0 DUP8 GT DUP1 ISZERO PUSH2 0x65E JUMPI POP PUSH2 0x650 PUSH2 0x17E3 JUMP JUMPDEST DUP8 DUP3 PUSH2 0x65C SWAP2 SWAP1 PUSH2 0x2B81 JUMP JUMPDEST GT JUMPDEST ISZERO PUSH2 0x695 JUMPI PUSH1 0x40 MLOAD PUSH32 0x98FB56100000000000000000000000000000000000000000000000000000000 DUP2 MSTORE PUSH1 0x4 ADD PUSH1 0x40 MLOAD DUP1 SWAP2 SUB SWAP1 REVERT JUMPDEST DUP12 PUSH1 0x2 SIGNEXTEND DUP14 PUSH1 0x2 SIGNEXTEND DUP16 PUSH20 0xFFFFFFFFFFFFFFFFFFFFFFFFFFFFFFFFFFFFFFFF AND PUSH32 0x7A53080BA414158BE7EC69B987B5FB7D07DEE101FE85488F0853AE16239D0BDE CALLER DUP16 DUP14 DUP14 PUSH1 0x40 MLOAD PUSH2 0x6E9 SWAP5 SWAP4 SWAP3 SWAP2 SWAP1 PUSH2 0x2BB5 JUMP JUMPDEST PUSH1 0x40 MLOAD DUP1 SWAP2 SUB SWAP1 LOG4 POP POP POP POP POP POP SWAP7 POP SWAP7 SWAP5 POP POP POP POP POP JUMP JUMPDEST PUSH1 0x4 PUSH1 0x20 MSTORE DUP1 PUSH1 0x0 MSTORE PUSH1 0x40 PUSH1 0x0 KECCAK256 PUSH1 0x0 SWAP2 POP SWAP1 POP DUP1 PUSH1 0x0 ADD PUSH1 0x0 SWAP1 SLOAD SWAP1 PUSH2 0x100 EXP SWAP1 DIV PUSH16 0xFFFFFFFFFFFFFFFFFFFFFFFFFFFFFFFF AND SWAP1 POP DUP2 JUMP JUMPDEST PUSH1 0x3 PUSH1 0x20 MSTORE DUP1 PUSH1 0x0 MSTORE PUSH1 0x40 PUSH1 0x0 KECCAK256 PUSH1 0x0 SWAP2 POP SWAP1 POP SLOAD DUP2 JUMP JUMPDEST PUSH1 0x0 DUP1 PUSH1 0x0 DUP1 PUSH1 0x40 MLOAD DUP1 PUSH1 0x40 ADD PUSH1 0x40 MSTORE SWAP1 DUP2 PUSH1 0x0 DUP3 ADD PUSH1 0x0 SWAP1 SLOAD SWAP1 PUSH2 0x100 EXP SWAP1 DIV PUSH20 0xFFFFFFFFFFFFFFFFFFFFFFFFFFFFFFFFFFFFFFFF AND PUSH20 0xFFFFFFFFFFFFFFFFFFFFFFFFFFFFFFFFFFFFFFFF AND PUSH20 0xFFFFFFFFFFFFFFFFFFFFFFFFFFFFFFFFFFFFFFFF AND DUP2 MSTORE PUSH1 0x20 ADD PUSH1 0x0 DUP3 ADD PUSH1 0x14 SWAP1 SLOAD SWAP1 PUSH2 0x100 EXP SWAP1 DIV PUSH1 0x2 SIGNEXTEND PUSH1 0x2 SIGNEXTEND PUSH1 0x2 SIGNEXTEND DUP2 MSTORE POP POP SWAP1 POP PUSH1 0x0 PUSH1 0x40 MLOAD DUP1 PUSH1 0x80 ADD PUSH1 0x40 MSTORE DUP1 DUP9 DUP2 MSTORE PUSH1 0x20 ADD PUSH1 0x0 DUP2 MSTORE PUSH1 0x20 ADD DUP4 PUSH1 0x0 ADD MLOAD PUSH20 0xFFFFFFFFFFFFFFFFFFFFFFFFFFFFFFFFFFFFFFFF AND DUP2 MSTORE PUSH1 0x20 ADD DUP4 PUSH1 0x20 ADD MLOAD PUSH1 0x2 SIGNEXTEND DUP2 MSTORE POP SWAP1 POP JUMPDEST PUSH1 0x0 DUP2 PUSH1 0x0 ADD MLOAD GT ISZERO PUSH2 0x9BF JUMPI PUSH2 0x837 PUSH2 0x248E JUMP JUMPDEST DUP2 PUSH1 0x40 ADD MLOAD DUP2 PUSH1 0x0 ADD SWAP1 PUSH20 0xFFFFFFFFFFFFFFFFFFFFFFFFFFFFFFFFFFFFFFFF AND SWAP1 DUP2 PUSH20 0xFFFFFFFFFFFFFFFFFFFFFFFFFFFFFFFFFFFFFFFF AND DUP2 MSTORE POP POP PUSH2 0x890 DUP3 PUSH1 0x60 ADD MLOAD PUSH1 0x1 DUP12 PUSH1 0x3 PUSH2 0x1884 SWAP1 SWAP4 SWAP3 SWAP2 SWAP1 PUSH4 0xFFFFFFFF AND JUMP JUMPDEST POP DUP2 PUSH1 0x20 ADD DUP2 PUSH1 0x2 SIGNEXTEND PUSH1 0x2 SIGNEXTEND DUP2 MSTORE POP POP PUSH2 0x8AD DUP2 PUSH1 0x20 ADD MLOAD PUSH2 0x10F9 JUMP JUMPDEST DUP2 PUSH1 0x40 ADD SWAP1 PUSH20 0xFFFFFFFFFFFFFFFFFFFFFFFFFFFFFFFFFFFFFFFF AND SWAP1 DUP2 PUSH20 0xFFFFFFFFFFFFFFFFFFFFFFFFFFFFFFFFFFFFFFFF AND DUP2 MSTORE POP POP PUSH2 0x91A DUP2 PUSH1 0x0 ADD MLOAD DUP3 PUSH1 0x40 ADD MLOAD PUSH1 0x1 PUSH1 0x0 SWAP1 SLOAD SWAP1 PUSH2 0x100 EXP SWAP1 DIV PUSH16 0xFFFFFFFFFFFFFFFFFFFFFFFFFFFFFFFF AND DUP6 PUSH1 0x0 ADD MLOAD PUSH2 0x1A72 JUMP JUMPDEST DUP5 PUSH1 0x40 ADD DUP5 PUSH1 0x60 ADD DUP6 PUSH1 0x80 ADD DUP4 DUP2 MSTORE POP DUP4 DUP2 MSTORE POP DUP4 PUSH20 0xFFFFFFFFFFFFFFFFFFFFFFFFFFFFFFFFFFFFFFFF AND PUSH20 0xFFFFFFFFFFFFFFFFFFFFFFFFFFFFFFFFFFFFFFFF AND DUP2 MSTORE POP POP POP POP DUP1 PUSH1 0x60 ADD MLOAD DUP3 PUSH1 0x0 ADD DUP2 DUP2 MLOAD PUSH2 0x977 SWAP2 SWAP1 PUSH2 0x2BFA JUMP JUMPDEST SWAP2 POP DUP2 DUP2 MSTORE POP POP DUP1 PUSH1 0x80 ADD MLOAD DUP3 PUSH1 0x20 ADD DUP2 DUP2 MLOAD PUSH2 0x994 SWAP2 SWAP1 PUSH2 0x2B81 JUMP JUMPDEST SWAP2 POP DUP2 DUP2 MSTORE POP POP PUSH2 0x9A8 DUP3 PUSH1 0x40 ADD MLOAD PUSH2 0x1AED JUMP JUMPDEST DUP3 PUSH1 0x60 ADD SWAP1 PUSH1 0x2 SIGNEXTEND SWAP1 DUP2 PUSH1 0x2 SIGNEXTEND DUP2 MSTORE POP POP POP PUSH2 0x822 JUMP JUMPDEST DUP2 PUSH1 0x20 ADD MLOAD PUSH1 0x2 SIGNEXTEND DUP2 PUSH1 0x60 ADD MLOAD PUSH1 0x2 SIGNEXTEND EQ PUSH2 0xA4C JUMPI DUP1 PUSH1 0x40 ADD MLOAD DUP2 PUSH1 0x60 ADD MLOAD PUSH1 0x0 DUP1 ADD PUSH1 0x0 DUP1 PUSH1 0x0 ADD PUSH1 0x14 DUP5 SWAP2 SWAP1 PUSH2 0x100 EXP DUP2 SLOAD DUP2 PUSH3 0xFFFFFF MUL NOT AND SWAP1 DUP4 PUSH1 0x2 SIGNEXTEND PUSH3 0xFFFFFF AND MUL OR SWAP1 SSTORE POP DUP4 SWAP2 SWAP1 PUSH2 0x100 EXP DUP2 SLOAD DUP2 PUSH20 0xFFFFFFFFFFFFFFFFFFFFFFFFFFFFFFFFFFFFFFFF MUL NOT AND SWAP1 DUP4 PUSH20 0xFFFFFFFFFFFFFFFFFFFFFFFFFFFFFFFFFFFFFFFF AND MUL OR SWAP1 SSTORE POP POP POP JUMPDEST DUP8 PUSH2 0xA74 JUMPI DUP1 PUSH1 0x20 ADD MLOAD PUSH2 0xA5F SWAP1 PUSH2 0x2C2E JUMP JUMPDEST DUP2 PUSH1 0x0 ADD MLOAD DUP9 PUSH2 0xA6F SWAP2 SWAP1 PUSH2 0x2BFA JUMP JUMPDEST PUSH2 0xA93 JUMP JUMPDEST DUP1 PUSH1 0x0 ADD MLOAD DUP8 PUSH2 0xA84 SWAP2 SWAP1 PUSH2 0x2BFA JUMP JUMPDEST DUP2 PUSH1 0x20 ADD MLOAD PUSH2 0xA92 SWAP1 PUSH2 0x2C2E JUMP JUMPDEST JUMPDEST DUP1 SWAP5 POP DUP2 SWAP6 POP POP POP DUP8 ISZERO PUSH2 0xC18 JUMPI PUSH32 0x0 PUSH20 0xFFFFFFFFFFFFFFFFFFFFFFFFFFFFFFFFFFFFFFFF AND PUSH4 0xA9059CBB DUP11 DUP6 PUSH2 0xAE8 SWAP1 PUSH2 0x2C2E JUMP JUMPDEST PUSH1 0x40 MLOAD DUP4 PUSH4 0xFFFFFFFF AND PUSH1 0xE0 SHL DUP2 MSTORE PUSH1 0x4 ADD PUSH2 0xB05 SWAP3 SWAP2 SWAP1 PUSH2 0x2C76 JUMP JUMPDEST PUSH1 0x20 PUSH1 0x40 MLOAD DUP1 DUP4 SUB DUP2 PUSH1 0x0 DUP8 GAS CALL ISZERO DUP1 ISZERO PUSH2 0xB24 JUMPI RETURNDATASIZE PUSH1 0x0 DUP1 RETURNDATACOPY RETURNDATASIZE PUSH1 0x0 REVERT JUMPDEST POP POP POP POP PUSH1 0x40 MLOAD RETURNDATASIZE PUSH1 0x1F NOT PUSH1 0x1F DUP3 ADD AND DUP3 ADD DUP1 PUSH1 0x40 MSTORE POP DUP2 ADD SWAP1 PUSH2 0xB48 SWAP2 SWAP1 PUSH2 0x2CB4 JUMP JUMPDEST POP PUSH1 0x0 PUSH2 0xB53 PUSH2 0x1742 JUMP JUMPDEST SWAP1 POP CALLER PUSH20 0xFFFFFFFFFFFFFFFFFFFFFFFFFFFFFFFFFFFFFFFF AND PUSH4 0xFA461E33 DUP7 DUP7 DUP11 DUP11 PUSH1 0x40 MLOAD DUP6 PUSH4 0xFFFFFFFF AND PUSH1 0xE0 SHL DUP2 MSTORE PUSH1 0x4 ADD PUSH2 0xB94 SWAP5 SWAP4 SWAP3 SWAP2 SWAP1 PUSH2 0x2CE1 JUMP JUMPDEST PUSH1 0x0 PUSH1 0x40 MLOAD DUP1 DUP4 SUB DUP2 PUSH1 0x0 DUP8 DUP1 EXTCODESIZE ISZERO DUP1 ISZERO PUSH2 0xBAE JUMPI PUSH1 0x0 DUP1 REVERT JUMPDEST POP GAS CALL ISZERO DUP1 ISZERO PUSH2 0xBC2 JUMPI RETURNDATASIZE PUSH1 0x0 DUP1 RETURNDATACOPY RETURNDATASIZE PUSH1 0x0 REVERT JUMPDEST POP POP POP POP PUSH2 0xBCE PUSH2 0x1742 JUMP JUMPDEST DUP6 DUP3 PUSH2 0xBDA SWAP2 SWAP1 PUSH2 0x2B81 JUMP JUMPDEST GT ISZERO PUSH2 0xC12 JUMPI PUSH1 0x40 MLOAD PUSH32 0x98FB56100000000000000000000000000000000000000000000000000000000 DUP2 MSTORE PUSH1 0x4 ADD PUSH1 0x40 MLOAD DUP1 SWAP2 SUB SWAP1 REVERT JUMPDEST POP PUSH2 0xD8B JUMP JUMPDEST PUSH32 0x0 PUSH20 0xFFFFFFFFFFFFFFFFFFFFFFFFFFFFFFFFFFFFFFFF AND PUSH4 0xA9059CBB DUP11 DUP7 PUSH2 0xC5F SWAP1 PUSH2 0x2C2E JUMP JUMPDEST PUSH1 0x40 MLOAD DUP4 PUSH4 0xFFFFFFFF AND PUSH1 0xE0 SHL DUP2 MSTORE PUSH1 0x4 ADD PUSH2 0xC7C SWAP3 SWAP2 SWAP1 PUSH2 0x2C76 JUMP JUMPDEST PUSH1 0x20 PUSH1 0x40 MLOAD DUP1 DUP4 SUB DUP2 PUSH1 0x0 DUP8 GAS CALL ISZERO DUP1 ISZERO PUSH2 0xC9B JUMPI RETURNDATASIZE PUSH1 0x0 DUP1 RETURNDATACOPY RETURNDATASIZE PUSH1 0x0 REVERT JUMPDEST POP POP POP POP PUSH1 0x40 MLOAD RETURNDATASIZE PUSH1 0x1F NOT PUSH1 0x1F DUP3 ADD AND DUP3 ADD DUP1 PUSH1 0x40 MSTORE POP DUP2 ADD SWAP1 PUSH2 0xCBF SWAP2 SWAP1 PUSH2 0x2CB4 JUMP JUMPDEST POP PUSH1 0x0 PUSH2 0xCCA PUSH2 0x17E3 JUMP JUMPDEST SWAP1 POP CALLER PUSH20 0xFFFFFFFFFFFFFFFFFFFFFFFFFFFFFFFFFFFFFFFF AND PUSH4 0xFA461E33 DUP7 DUP7 DUP11 DUP11 PUSH1 0x40 MLOAD DUP6 PUSH4 0xFFFFFFFF AND PUSH1 0xE0 SHL DUP2 MSTORE PUSH1 0x4 ADD PUSH2 0xD0B SWAP5 SWAP4 SWAP3 SWAP2 SWAP1 PUSH2 0x2CE1 JUMP JUMPDEST PUSH1 0x0 PUSH1 0x40 MLOAD DUP1 DUP4 SUB DUP2 PUSH1 0x0 DUP8 DUP1 EXTCODESIZE ISZERO DUP1 ISZERO PUSH2 0xD25 JUMPI PUSH1 0x0 DUP1 REVERT JUMPDEST POP GAS CALL ISZERO DUP1 ISZERO PUSH2 0xD39 JUMPI RETURNDATASIZE PUSH1 0x0 DUP1 RETURNDATACOPY RETURNDATASIZE PUSH1 0x0 REVERT JUMPDEST POP POP POP POP PUSH2 0xD45 PUSH2 0x17E3 JUMP JUMPDEST DUP5 DUP3 PUSH2 0xD51 SWAP2 SWAP1 PUSH2 0x2B81 JUMP JUMPDEST GT ISZERO PUSH2 0xD89 JUMPI PUSH1 0x40 MLOAD PUSH32 0x98FB56100000000000000000000000000000000000000000000000000000000 DUP2 MSTORE PUSH1 0x4 ADD PUSH1 0x40 MLOAD DUP1 SWAP2 SUB SWAP1 REVERT JUMPDEST POP JUMPDEST DUP9 PUSH20 0xFFFFFFFFFFFFFFFFFFFFFFFFFFFFFFFFFFFFFFFF AND CALLER PUSH20 0xFFFFFFFFFFFFFFFFFFFFFFFFFFFFFFFFFFFFFFFF AND PUSH32 0xC42079F94A6350D7E6235F29174924F928CC2AC818EB64FED8004E115FBCCA67 DUP7 DUP7 PUSH1 0x0 DUP1 ADD PUSH1 0x0 SWAP1 SLOAD SWAP1 PUSH2 0x100 EXP SWAP1 DIV PUSH20 0xFFFFFFFFFFFFFFFFFFFFFFFFFFFFFFFFFFFFFFFF AND PUSH1 0x1 PUSH1 0x0 SWAP1 SLOAD SWAP1 PUSH2 0x100 EXP SWAP1 DIV PUSH16 0xFFFFFFFFFFFFFFFFFFFFFFFFFFFFFFFF AND PUSH1 0x0 DUP1 ADD PUSH1 0x14 SWAP1 SLOAD SWAP1 PUSH2 0x100 EXP SWAP1 DIV PUSH1 0x2 SIGNEXTEND PUSH1 0x40 MLOAD PUSH2 0xE43 SWAP6 SWAP5 SWAP4 SWAP3 SWAP2 SWAP1 PUSH2 0x2D21 JUMP JUMPDEST PUSH1 0x40 MLOAD DUP1 SWAP2 SUB SWAP1 LOG3 POP POP SWAP6 POP SWAP6 SWAP4 POP POP POP POP JUMP JUMPDEST PUSH32 0x0 DUP2 JUMP JUMPDEST PUSH1 0x2 PUSH1 0x20 MSTORE DUP1 PUSH1 0x0 MSTORE PUSH1 0x40 PUSH1 0x0 KECCAK256 PUSH1 0x0 SWAP2 POP SWAP1 POP DUP1 PUSH1 0x0 ADD PUSH1 0x0 SWAP1 SLOAD SWAP1 PUSH2 0x100 EXP SWAP1 DIV PUSH1 0xFF AND SWAP1 DUP1 PUSH1 0x0 ADD PUSH1 0x1 SWAP1 SLOAD SWAP1 PUSH2 0x100 EXP SWAP1 DIV PUSH16 0xFFFFFFFFFFFFFFFFFFFFFFFFFFFFFFFF AND SWAP1 POP DUP3 JUMP JUMPDEST PUSH1 0x0 DUP1 DUP5 PUSH1 0x0 DUP6 PUSH1 0x2 SIGNEXTEND PUSH1 0x2 SIGNEXTEND DUP2 MSTORE PUSH1 0x20 ADD SWAP1 DUP2 MSTORE PUSH1 0x20 ADD PUSH1 0x0 KECCAK256 SWAP1 POP PUSH1 0x0 DUP2 PUSH1 0x0 ADD PUSH1 0x1 SWAP1 SLOAD SWAP1 PUSH2 0x100 EXP SWAP1 DIV PUSH16 0xFFFFFFFFFFFFFFFFFFFFFFFFFFFFFFFF AND SWAP1 POP PUSH1 0x0 DUP5 DUP3 PUSH2 0xF18 SWAP2 SWAP1 PUSH2 0x2A9F JUMP JUMPDEST SWAP1 POP PUSH1 0x0 DUP3 PUSH16 0xFFFFFFFFFFFFFFFFFFFFFFFFFFFFFFFF AND EQ ISZERO ISZERO PUSH1 0x0 DUP3 PUSH16 0xFFFFFFFFFFFFFFFFFFFFFFFFFFFFFFFF AND EQ ISZERO ISZERO EQ ISZERO SWAP4 POP PUSH1 0x0 DUP3 PUSH16 0xFFFFFFFFFFFFFFFFFFFFFFFFFFFFFFFF AND SUB PUSH2 0xF86 JUMPI PUSH1 0x1 DUP4 PUSH1 0x0 ADD PUSH1 0x0 PUSH2 0x100 EXP DUP2 SLOAD DUP2 PUSH1 0xFF MUL NOT AND SWAP1 DUP4 ISZERO ISZERO MUL OR SWAP1 SSTORE POP JUMPDEST DUP1 DUP4 PUSH1 0x0 ADD PUSH1 0x1 PUSH2 0x100 EXP DUP2 SLOAD DUP2 PUSH16 0xFFFFFFFFFFFFFFFFFFFFFFFFFFFFFFFF MUL NOT AND SWAP1 DUP4 PUSH16 0xFFFFFFFFFFFFFFFFFFFFFFFFFFFFFFFF AND MUL OR SWAP1 SSTORE POP POP POP POP SWAP4 SWAP3 POP POP POP JUMP JUMPDEST PUSH1 0x0 DUP2 DUP4 PUSH2 0xFD9 SWAP2 SWAP1 PUSH2 0x2DA3 JUMP JUMPDEST PUSH1 0x2 SIGNEXTEND EQ PUSH2 0xFE6 JUMPI PUSH1 0x0 DUP1 REVERT JUMPDEST PUSH1 0x0 DUP1 PUSH2 0xFFD DUP4 DUP6 PUSH2 0xFF8 SWAP2 SWAP1 PUSH2 0x2DD4 JUMP JUMPDEST PUSH2 0x1EEC JUMP JUMPDEST SWAP2 POP SWAP2 POP PUSH1 0x0 DUP2 PUSH1 0xFF AND PUSH1 0x1 SWAP1 SHL SWAP1 POP DUP1 DUP7 PUSH1 0x0 DUP6 PUSH1 0x1 SIGNEXTEND PUSH1 0x1 SIGNEXTEND DUP2 MSTORE PUSH1 0x20 ADD SWAP1 DUP2 MSTORE PUSH1 0x20 ADD PUSH1 0x0 KECCAK256 PUSH1 0x0 DUP3 DUP3 SLOAD XOR SWAP3 POP POP DUP2 SWAP1 SSTORE POP POP POP POP POP POP POP JUMP JUMPDEST PUSH1 0x0 DUP5 PUSH1 0x0 DUP6 DUP6 DUP6 PUSH1 0x40 MLOAD PUSH1 0x20 ADD PUSH2 0x1055 SWAP4 SWAP3 SWAP2 SWAP1 PUSH2 0x2EBC JUMP JUMPDEST PUSH1 0x40 MLOAD PUSH1 0x20 DUP2 DUP4 SUB SUB DUP2 MSTORE SWAP1 PUSH1 0x40 MSTORE DUP1 MLOAD SWAP1 PUSH1 0x20 ADD KECCAK256 DUP2 MSTORE PUSH1 0x20 ADD SWAP1 DUP2 MSTORE PUSH1 0x20 ADD PUSH1 0x0 KECCAK256 SWAP1 POP SWAP5 SWAP4 POP POP POP POP JUMP JUMPDEST PUSH1 0x0 DUP3 PUSH1 0x0 ADD PUSH1 0x0 SWAP1 SLOAD SWAP1 PUSH2 0x100 EXP SWAP1 DIV PUSH16 0xFFFFFFFFFFFFFFFFFFFFFFFFFFFFFFFF AND SWAP1 POP PUSH1 0x0 DUP3 DUP3 PUSH2 0x10B6 SWAP2 SWAP1 PUSH2 0x2A9F JUMP JUMPDEST SWAP1 POP DUP1 DUP5 PUSH1 0x0 ADD PUSH1 0x0 PUSH2 0x100 EXP DUP2 SLOAD DUP2 PUSH16 0xFFFFFFFFFFFFFFFFFFFFFFFFFFFFFFFF MUL NOT AND SWAP1 DUP4 PUSH16 0xFFFFFFFFFFFFFFFFFFFFFFFFFFFFFFFF AND MUL OR SWAP1 SSTORE POP POP POP POP POP JUMP JUMPDEST PUSH1 0x0 DUP1 PUSH1 0x0 DUP4 PUSH1 0x2 SIGNEXTEND SLT PUSH2 0x1110 JUMPI DUP3 PUSH1 0x2 SIGNEXTEND PUSH2 0x111E JUMP JUMPDEST DUP3 PUSH1 0x2 SIGNEXTEND PUSH2 0x111D SWAP1 PUSH2 0x2C2E JUMP JUMPDEST JUMPDEST SWAP1 POP PUSH32 0xFFFFFFFFFFFFFFFFFFFFFFFFFFFFFFFFFFFFFFFFFFFFFFFFFFFFFFFFFFF27618 PUSH2 0x114A SWAP1 PUSH2 0x2A57 JUMP JUMPDEST PUSH3 0xFFFFFF AND DUP2 GT ISZERO PUSH2 0x1191 JUMPI PUSH1 0x40 MLOAD PUSH32 0x8C379A000000000000000000000000000000000000000000000000000000000 DUP2 MSTORE PUSH1 0x4 ADD PUSH2 0x1188 SWAP1 PUSH2 0x2F56 JUMP JUMPDEST PUSH1 0x40 MLOAD DUP1 SWAP2 SUB SWAP1 REVERT JUMPDEST PUSH1 0x0 DUP1 PUSH1 0x1 DUP4 AND SUB PUSH2 0x11B4 JUMPI PUSH17 0x100000000000000000000000000000000 PUSH2 0x11C6 JUMP JUMPDEST PUSH16 0xFFFCB933BD6FAD37AA2D162D1A594001 JUMPDEST PUSH17 0xFFFFFFFFFFFFFFFFFFFFFFFFFFFFFFFFFF AND SWAP1 POP PUSH1 0x0 PUSH1 0x2 DUP4 AND EQ PUSH2 0x1209 JUMPI PUSH1 0x80 PUSH16 0xFFF97272373D413259A46990580E213A DUP3 PUSH2 0x1204 SWAP2 SWAP1 PUSH2 0x2F76 JUMP JUMPDEST SWAP1 SHR SWAP1 POP JUMPDEST PUSH1 0x0 PUSH1 0x4 DUP4 AND EQ PUSH2 0x1237 JUMPI PUSH1 0x80 PUSH16 0xFFF2E50F5F656932EF12357CF3C7FDCC DUP3 PUSH2 0x1232 SWAP2 SWAP1 PUSH2 0x2F76 JUMP JUMPDEST SWAP1 SHR SWAP1 POP JUMPDEST PUSH1 0x0 PUSH1 0x8 DUP4 AND EQ PUSH2 0x1265 JUMPI PUSH1 0x80 PUSH16 0xFFE5CACA7E10E4E61C3624EAA0941CD0 DUP3 PUSH2 0x1260 SWAP2 SWAP1 PUSH2 0x2F76 JUMP JUMPDEST SWAP1 SHR SWAP1 POP JUMPDEST PUSH1 0x0 PUSH1 0x10 DUP4 AND EQ PUSH2 0x1293 JUMPI PUSH1 0x80 PUSH16 0xFFCB9843D60F6159C9DB58835C926644 DUP3 PUSH2 0x128E SWAP2 SWAP1 PUSH2 0x2F76 JUMP JUMPDEST SWAP1 SHR SWAP1 POP JUMPDEST PUSH1 0x0 PUSH1 0x20 DUP4 AND EQ PUSH2 0x12C1 JUMPI PUSH1 0x80 PUSH16 0xFF973B41FA98C081472E6896DFB254C0 DUP3 PUSH2 0x12BC SWAP2 SWAP1 PUSH2 0x2F76 JUMP JUMPDEST SWAP1 SHR SWAP1 POP JUMPDEST PUSH1 0x0 PUSH1 0x40 DUP4 AND EQ PUSH2 0x12EF JUMPI PUSH1 0x80 PUSH16 0xFF2EA16466C96A3843EC78B326B52861 DUP3 PUSH2 0x12EA SWAP2 SWAP1 PUSH2 0x2F76 JUMP JUMPDEST SWAP1 SHR SWAP1 POP JUMPDEST PUSH1 0x0 PUSH1 0x80 DUP4 AND EQ PUSH2 0x131D JUMPI PUSH1 0x80 PUSH16 0xFE5DEE046A99A2A811C461F1969C3053 DUP3 PUSH2 0x1318 SWAP2 SWAP1 PUSH2 0x2F76 JUMP JUMPDEST SWAP1 SHR SWAP1 POP JUMPDEST PUSH1 0x0 PUSH2 0x100 DUP4 AND EQ PUSH2 0x134C JUMPI PUSH1 0x80 PUSH16 0xFCBE86C7900A88AEDCFFC83B479AA3A4 DUP3 PUSH2 0x1347 SWAP2 SWAP1 PUSH2 0x2F76 JUMP JUMPDEST SWAP1 SHR SWAP1 POP JUMPDEST PUSH1 0x0 PUSH2 0x200 DUP4 AND EQ PUSH2 0x137B JUMPI PUSH1 0x80 PUSH16 0xF987A7253AC413176F2B074CF7815E54 DUP3 PUSH2 0x1376 SWAP2 SWAP1 PUSH2 0x2F76 JUMP JUMPDEST SWAP1 SHR SWAP1 POP JUMPDEST PUSH1 0x0 PUSH2 0x400 DUP4 AND EQ PUSH2 0x13AA JUMPI PUSH1 0x80 PUSH16 0xF3392B0822B70005940C7A398E4B70F3 DUP3 PUSH2 0x13A5 SWAP2 SWAP1 PUSH2 0x2F76 JUMP JUMPDEST SWAP1 SHR SWAP1 POP JUMPDEST PUSH1 0x0 PUSH2 0x800 DUP4 AND EQ PUSH2 0x13D9 JUMPI PUSH1 0x80 PUSH16 0xE7159475A2C29B7443B29C7FA6E889D9 DUP3 PUSH2 0x13D4 SWAP2 SWAP1 PUSH2 0x2F76 JUMP JUMPDEST SWAP1 SHR SWAP1 POP JUMPDEST PUSH1 0x0 PUSH2 0x1000 DUP4 AND EQ PUSH2 0x1408 JUMPI PUSH1 0x80 PUSH16 0xD097F3BDFD2022B8845AD8F792AA5825 DUP3 PUSH2 0x1403 SWAP2 SWAP1 PUSH2 0x2F76 JUMP JUMPDEST SWAP1 SHR SWAP1 POP JUMPDEST PUSH1 0x0 PUSH2 0x2000 DUP4 AND EQ PUSH2 0x1437 JUMPI PUSH1 0x80 PUSH16 0xA9F746462D870FDF8A65DC1F90E061E5 DUP3 PUSH2 0x1432 SWAP2 SWAP1 PUSH2 0x2F76 JUMP JUMPDEST SWAP1 SHR SWAP1 POP JUMPDEST PUSH1 0x0 PUSH2 0x4000 DUP4 AND EQ PUSH2 0x1466 JUMPI PUSH1 0x80 PUSH16 0x70D869A156D2A1B890BB3DF62BAF32F7 DUP3 PUSH2 0x1461 SWAP2 SWAP1 PUSH2 0x2F76 JUMP JUMPDEST SWAP1 SHR SWAP1 POP JUMPDEST PUSH1 0x0 PUSH2 0x8000 DUP4 AND EQ PUSH2 0x1495 JUMPI PUSH1 0x80 PUSH16 0x31BE135F97D08FD981231505542FCFA6 DUP3 PUSH2 0x1490 SWAP2 SWAP1 PUSH2 0x2F76 JUMP JUMPDEST SWAP1 SHR SWAP1 POP JUMPDEST PUSH1 0x0 PUSH3 0x10000 DUP4 AND EQ PUSH2 0x14C5 JUMPI PUSH1 0x80 PUSH16 0x9AA508B5B7A84E1C677DE54F3E99BC9 DUP3 PUSH2 0x14C0 SWAP2 SWAP1 PUSH2 0x2F76 JUMP JUMPDEST SWAP1 SHR SWAP1 POP JUMPDEST PUSH1 0x0 PUSH3 0x20000 DUP4 AND EQ PUSH2 0x14F4 JUMPI PUSH1 0x80 PUSH15 0x5D6AF8DEDB81196699C329225EE604 DUP3 PUSH2 0x14EF SWAP2 SWAP1 PUSH2 0x2F76 JUMP JUMPDEST SWAP1 SHR SWAP1 POP JUMPDEST PUSH1 0x0 PUSH3 0x40000 DUP4 AND EQ PUSH2 0x1522 JUMPI PUSH1 0x80 PUSH14 0x2216E584F5FA1EA926041BEDFE98 DUP3 PUSH2 0x151D SWAP2 SWAP1 PUSH2 0x2F76 JUMP JUMPDEST SWAP1 SHR SWAP1 POP JUMPDEST PUSH1 0x0 PUSH3 0x80000 DUP4 AND EQ PUSH2 0x154E JUMPI PUSH1 0x80 PUSH12 0x48A170391F7DC42444E8FA2 DUP3 PUSH2 0x1549 SWAP2 SWAP1 PUSH2 0x2F76 JUMP JUMPDEST SWAP1 SHR SWAP1 POP JUMPDEST PUSH1 0x0 DUP5 PUSH1 0x2 SIGNEXTEND SGT ISZERO PUSH2 0x1589 JUMPI DUP1 PUSH32 0xFFFFFFFFFFFFFFFFFFFFFFFFFFFFFFFFFFFFFFFFFFFFFFFFFFFFFFFFFFFFFFFF PUSH2 0x1586 SWAP2 SWAP1 PUSH2 0x2FB8 JUMP JUMPDEST SWAP1 POP JUMPDEST PUSH1 0x0 PUSH5 0x100000000 DUP3 PUSH2 0x159C SWAP2 SWAP1 PUSH2 0x2FE9 JUMP JUMPDEST EQ PUSH2 0x15A8 JUMPI PUSH1 0x1 PUSH2 0x15AB JUMP JUMPDEST PUSH1 0x0 JUMPDEST PUSH1 0xFF AND PUSH1 0x20 DUP3 SWAP1 SHR PUSH2 0x15BD SWAP2 SWAP1 PUSH2 0x2B81 JUMP JUMPDEST SWAP3 POP POP POP SWAP2 SWAP1 POP JUMP JUMPDEST PUSH1 0x0 DUP3 PUSH20 0xFFFFFFFFFFFFFFFFFFFFFFFFFFFFFFFFFFFFFFFF AND DUP5 PUSH20 0xFFFFFFFFFFFFFFFFFFFFFFFFFFFFFFFFFFFFFFFF AND GT ISZERO PUSH2 0x1607 JUMPI DUP3 DUP5 DUP1 SWAP5 POP DUP2 SWAP6 POP POP POP JUMPDEST PUSH1 0x0 DUP5 PUSH20 0xFFFFFFFFFFFFFFFFFFFFFFFFFFFFFFFFFFFFFFFF AND GT PUSH2 0x162A JUMPI PUSH1 0x0 DUP1 REVERT JUMPDEST PUSH2 0x16A4 PUSH2 0x1688 PUSH1 0x60 PUSH1 0xFF AND DUP5 PUSH16 0xFFFFFFFFFFFFFFFFFFFFFFFFFFFFFFFF AND SWAP1 SHL DUP7 DUP7 PUSH2 0x1656 SWAP2 SWAP1 PUSH2 0x301A JUMP JUMPDEST PUSH20 0xFFFFFFFFFFFFFFFFFFFFFFFFFFFFFFFFFFFFFFFF AND DUP7 PUSH20 0xFFFFFFFFFFFFFFFFFFFFFFFFFFFFFFFFFFFFFFFF AND PUSH2 0x1F0E JUMP JUMPDEST DUP6 PUSH20 0xFFFFFFFFFFFFFFFFFFFFFFFFFFFFFFFFFFFFFFFF AND PUSH2 0x1F79 JUMP JUMPDEST SWAP1 POP SWAP4 SWAP3 POP POP POP JUMP JUMPDEST PUSH1 0x0 DUP3 PUSH20 0xFFFFFFFFFFFFFFFFFFFFFFFFFFFFFFFFFFFFFFFF AND DUP5 PUSH20 0xFFFFFFFFFFFFFFFFFFFFFFFFFFFFFFFFFFFFFFFF AND GT ISZERO PUSH2 0x16EE JUMPI DUP3 DUP5 DUP1 SWAP5 POP DUP2 SWAP6 POP POP POP JUMPDEST PUSH2 0x1739 DUP3 PUSH16 0xFFFFFFFFFFFFFFFFFFFFFFFFFFFFFFFF AND DUP6 DUP6 PUSH2 0x1710 SWAP2 SWAP1 PUSH2 0x301A JUMP JUMPDEST PUSH20 0xFFFFFFFFFFFFFFFFFFFFFFFFFFFFFFFFFFFFFFFF AND PUSH13 0x1000000000000000000000000 PUSH2 0x1F0E JUMP JUMPDEST SWAP1 POP SWAP4 SWAP3 POP POP POP JUMP JUMPDEST PUSH1 0x0 PUSH32 0x0 PUSH20 0xFFFFFFFFFFFFFFFFFFFFFFFFFFFFFFFFFFFFFFFF AND PUSH4 0x70A08231 ADDRESS PUSH1 0x40 MLOAD DUP3 PUSH4 0xFFFFFFFF AND PUSH1 0xE0 SHL DUP2 MSTORE PUSH1 0x4 ADD PUSH2 0x179D SWAP2 SWAP1 PUSH2 0x252D JUMP JUMPDEST PUSH1 0x20 PUSH1 0x40 MLOAD DUP1 DUP4 SUB DUP2 DUP7 GAS STATICCALL ISZERO DUP1 ISZERO PUSH2 0x17BA JUMPI RETURNDATASIZE PUSH1 0x0 DUP1 RETURNDATACOPY RETURNDATASIZE PUSH1 0x0 REVERT JUMPDEST POP POP POP POP PUSH1 0x40 MLOAD RETURNDATASIZE PUSH1 0x1F NOT PUSH1 0x1F DUP3 ADD AND DUP3 ADD DUP1 PUSH1 0x40 MSTORE POP DUP2 ADD SWAP1 PUSH2 0x17DE SWAP2 SWAP1 PUSH2 0x3077 JUMP JUMPDEST SWAP1 POP SWAP1 JUMP JUMPDEST PUSH1 0x0 PUSH32 0x0 PUSH20 0xFFFFFFFFFFFFFFFFFFFFFFFFFFFFFFFFFFFFFFFF AND PUSH4 0x70A08231 ADDRESS PUSH1 0x40 MLOAD DUP3 PUSH4 0xFFFFFFFF AND PUSH1 0xE0 SHL DUP2 MSTORE PUSH1 0x4 ADD PUSH2 0x183E SWAP2 SWAP1 PUSH2 0x252D JUMP JUMPDEST PUSH1 0x20 PUSH1 0x40 MLOAD DUP1 DUP4 SUB DUP2 DUP7 GAS STATICCALL ISZERO DUP1 ISZERO PUSH2 0x185B JUMPI RETURNDATASIZE PUSH1 0x0 DUP1 RETURNDATACOPY RETURNDATASIZE PUSH1 0x0 REVERT JUMPDEST POP POP POP POP PUSH1 0x40 MLOAD RETURNDATASIZE PUSH1 0x1F NOT PUSH1 0x1F DUP3 ADD AND DUP3 ADD DUP1 PUSH1 0x40 MSTORE POP DUP2 ADD SWAP1 PUSH2 0x187F SWAP2 SWAP1 PUSH2 0x3077 JUMP JUMPDEST SWAP1 POP SWAP1 JUMP JUMPDEST PUSH1 0x0 DUP1 PUSH1 0x0 DUP5 DUP7 PUSH2 0x1895 SWAP2 SWAP1 PUSH2 0x2DD4 JUMP JUMPDEST SWAP1 POP PUSH1 0x0 DUP7 PUSH1 0x2 SIGNEXTEND SLT DUP1 ISZERO PUSH2 0x18B9 JUMPI POP PUSH1 0x0 DUP6 DUP8 PUSH2 0x18B3 SWAP2 SWAP1 PUSH2 0x2DA3 JUMP JUMPDEST PUSH1 0x2 SIGNEXTEND EQ ISZERO JUMPDEST ISZERO PUSH2 0x18CD JUMPI DUP1 DUP1 PUSH2 0x18C9 SWAP1 PUSH2 0x30A4 JUMP JUMPDEST SWAP2 POP POP JUMPDEST DUP4 ISZERO PUSH2 0x1990 JUMPI PUSH1 0x0 DUP1 PUSH2 0x18DF DUP4 PUSH2 0x1EEC JUMP JUMPDEST SWAP2 POP SWAP2 POP PUSH1 0x0 DUP2 PUSH1 0xFF AND PUSH1 0x1 SWAP1 SHL PUSH1 0x1 DUP4 PUSH1 0xFF AND PUSH1 0x1 SWAP1 SHL PUSH2 0x1901 SWAP2 SWAP1 PUSH2 0x2BFA JUMP JUMPDEST PUSH2 0x190B SWAP2 SWAP1 PUSH2 0x2B81 JUMP JUMPDEST SWAP1 POP PUSH1 0x0 DUP2 DUP12 PUSH1 0x0 DUP7 PUSH1 0x1 SIGNEXTEND PUSH1 0x1 SIGNEXTEND DUP2 MSTORE PUSH1 0x20 ADD SWAP1 DUP2 MSTORE PUSH1 0x20 ADD PUSH1 0x0 KECCAK256 SLOAD AND SWAP1 POP PUSH1 0x0 DUP2 EQ ISZERO SWAP6 POP DUP6 PUSH2 0x1957 JUMPI DUP9 DUP4 PUSH1 0xFF AND DUP7 PUSH2 0x1948 SWAP2 SWAP1 PUSH2 0x30EC JUMP JUMPDEST PUSH2 0x1952 SWAP2 SWAP1 PUSH2 0x3147 JUMP JUMPDEST PUSH2 0x1985 JUMP JUMPDEST DUP9 PUSH2 0x1961 DUP3 PUSH2 0x1F8C JUMP JUMPDEST DUP5 PUSH2 0x196C SWAP2 SWAP1 PUSH2 0x3191 JUMP JUMPDEST PUSH1 0xFF AND DUP7 PUSH2 0x197A SWAP2 SWAP1 PUSH2 0x30EC JUMP JUMPDEST PUSH2 0x1984 SWAP2 SWAP1 PUSH2 0x3147 JUMP JUMPDEST JUMPDEST SWAP7 POP POP POP POP POP PUSH2 0x1A68 JUMP JUMPDEST PUSH1 0x0 DUP1 PUSH2 0x19A8 PUSH1 0x1 DUP5 PUSH2 0x19A3 SWAP2 SWAP1 PUSH2 0x31C6 JUMP JUMPDEST PUSH2 0x1EEC JUMP JUMPDEST SWAP2 POP SWAP2 POP PUSH1 0x0 PUSH1 0x1 DUP3 PUSH1 0xFF AND PUSH1 0x1 SWAP1 SHL PUSH2 0x19C2 SWAP2 SWAP1 PUSH2 0x2BFA JUMP JUMPDEST NOT SWAP1 POP PUSH1 0x0 DUP2 DUP12 PUSH1 0x0 DUP7 PUSH1 0x1 SIGNEXTEND PUSH1 0x1 SIGNEXTEND DUP2 MSTORE PUSH1 0x20 ADD SWAP1 DUP2 MSTORE PUSH1 0x20 ADD PUSH1 0x0 KECCAK256 SLOAD AND SWAP1 POP PUSH1 0x0 DUP2 EQ ISZERO SWAP6 POP DUP6 PUSH2 0x1A27 JUMPI DUP9 DUP4 PUSH1 0xFF PUSH2 0x19FE SWAP2 SWAP1 PUSH2 0x3191 JUMP JUMPDEST PUSH1 0xFF AND PUSH1 0x1 DUP8 PUSH2 0x1A0E SWAP2 SWAP1 PUSH2 0x31C6 JUMP JUMPDEST PUSH2 0x1A18 SWAP2 SWAP1 PUSH2 0x31C6 JUMP JUMPDEST PUSH2 0x1A22 SWAP2 SWAP1 PUSH2 0x3147 JUMP JUMPDEST PUSH2 0x1A61 JUMP JUMPDEST DUP9 DUP4 PUSH2 0x1A32 DUP4 PUSH2 0x20AF JUMP JUMPDEST PUSH2 0x1A3C SWAP2 SWAP1 PUSH2 0x3191 JUMP JUMPDEST PUSH1 0xFF AND PUSH1 0x1 DUP8 PUSH2 0x1A4C SWAP2 SWAP1 PUSH2 0x31C6 JUMP JUMPDEST PUSH2 0x1A56 SWAP2 SWAP1 PUSH2 0x31C6 JUMP JUMPDEST PUSH2 0x1A60 SWAP2 SWAP1 PUSH2 0x3147 JUMP JUMPDEST JUMPDEST SWAP7 POP POP POP POP POP JUMPDEST POP SWAP5 POP SWAP5 SWAP3 POP POP POP JUMP JUMPDEST PUSH1 0x0 DUP1 PUSH1 0x0 DUP1 DUP7 PUSH20 0xFFFFFFFFFFFFFFFFFFFFFFFFFFFFFFFFFFFFFFFF AND DUP9 PUSH20 0xFFFFFFFFFFFFFFFFFFFFFFFFFFFFFFFFFFFFFFFF AND LT ISZERO SWAP1 POP PUSH2 0x1AB6 DUP9 DUP8 DUP8 DUP5 PUSH2 0x221E JUMP JUMPDEST SWAP4 POP PUSH2 0x1AC3 DUP9 DUP6 DUP9 PUSH2 0x15C6 JUMP JUMPDEST SWAP3 POP PUSH2 0x1AD0 DUP9 DUP6 DUP9 PUSH2 0x16AD JUMP JUMPDEST SWAP2 POP DUP1 PUSH2 0x1AE2 JUMPI DUP2 DUP4 DUP1 SWAP4 POP DUP2 SWAP5 POP POP POP JUMPDEST POP SWAP5 POP SWAP5 POP SWAP5 SWAP2 POP POP JUMP JUMPDEST PUSH1 0x0 PUSH5 0x1000276A3 PUSH20 0xFFFFFFFFFFFFFFFFFFFFFFFFFFFFFFFFFFFFFFFF AND DUP3 PUSH20 0xFFFFFFFFFFFFFFFFFFFFFFFFFFFFFFFFFFFFFFFF AND LT ISZERO DUP1 ISZERO PUSH2 0x1B6F JUMPI POP PUSH20 0xFFFD8963EFD1FC6A506488495D951D5263988D26 PUSH20 0xFFFFFFFFFFFFFFFFFFFFFFFFFFFFFFFFFFFFFFFF AND DUP3 PUSH20 0xFFFFFFFFFFFFFFFFFFFFFFFFFFFFFFFFFFFFFFFF AND LT JUMPDEST PUSH2 0x1BAE JUMPI PUSH1 0x40 MLOAD PUSH32 0x8C379A000000000000000000000000000000000000000000000000000000000 DUP2 MSTORE PUSH1 0x4 ADD PUSH2 0x1BA5 SWAP1 PUSH2 0x326D JUMP JUMPDEST PUSH1 0x40 MLOAD DUP1 SWAP2 SUB SWAP1 REVERT JUMPDEST PUSH1 0x0 PUSH1 0x20 DUP4 PUSH20 0xFFFFFFFFFFFFFFFFFFFFFFFFFFFFFFFFFFFFFFFF AND SWAP1 SHL SWAP1 POP PUSH1 0x0 DUP2 SWAP1 POP PUSH1 0x0 PUSH16 0xFFFFFFFFFFFFFFFFFFFFFFFFFFFFFFFF DUP3 GT PUSH1 0x7 SHL DUP1 DUP3 OR SWAP2 POP DUP3 DUP2 SHR SWAP3 POP POP PUSH8 0xFFFFFFFFFFFFFFFF DUP3 GT PUSH1 0x6 SHL DUP1 DUP3 OR SWAP2 POP DUP3 DUP2 SHR SWAP3 POP POP PUSH4 0xFFFFFFFF DUP3 GT PUSH1 0x5 SHL DUP1 DUP3 OR SWAP2 POP DUP3 DUP2 SHR SWAP3 POP POP PUSH2 0xFFFF DUP3 GT PUSH1 0x4 SHL DUP1 DUP3 OR SWAP2 POP DUP3 DUP2 SHR SWAP3 POP POP PUSH1 0xFF DUP3 GT PUSH1 0x3 SHL DUP1 DUP3 OR SWAP2 POP DUP3 DUP2 SHR SWAP3 POP POP PUSH1 0xF DUP3 GT PUSH1 0x2 SHL DUP1 DUP3 OR SWAP2 POP DUP3 DUP2 SHR SWAP3 POP POP PUSH1 0x3 DUP3 GT PUSH1 0x1 SHL DUP1 DUP3 OR SWAP2 POP DUP3 DUP2 SHR SWAP3 POP POP PUSH1 0x1 DUP3 GT DUP1 DUP3 OR SWAP2 POP POP PUSH1 0x80 DUP2 LT PUSH2 0x1C95 JUMPI PUSH1 0x7F DUP2 PUSH2 0x1C8B SWAP2 SWAP1 PUSH2 0x2BFA JUMP JUMPDEST DUP4 SWAP1 SHR SWAP2 POP PUSH2 0x1CA8 JUMP JUMPDEST DUP1 PUSH1 0x7F PUSH2 0x1CA2 SWAP2 SWAP1 PUSH2 0x2BFA JUMP JUMPDEST DUP4 SWAP1 SHL SWAP2 POP JUMPDEST PUSH1 0x0 PUSH1 0x40 PUSH1 0x80 DUP4 PUSH2 0x1CB9 SWAP2 SWAP1 PUSH2 0x328D JUMP JUMPDEST SWAP1 SHL SWAP1 POP DUP3 DUP4 MUL PUSH1 0x7F SHR SWAP3 POP DUP3 PUSH1 0x80 SHR DUP1 PUSH1 0x3F SHL DUP3 OR SWAP2 POP DUP4 DUP2 SHR SWAP4 POP POP DUP3 DUP4 MUL PUSH1 0x7F SHR SWAP3 POP DUP3 PUSH1 0x80 SHR DUP1 PUSH1 0x3E SHL DUP3 OR SWAP2 POP DUP4 DUP2 SHR SWAP4 POP POP DUP3 DUP4 MUL PUSH1 0x7F SHR SWAP3 POP DUP3 PUSH1 0x80 SHR DUP1 PUSH1 0x3D SHL DUP3 OR SWAP2 POP DUP4 DUP2 SHR SWAP4 POP POP DUP3 DUP4 MUL PUSH1 0x7F SHR SWAP3 POP DUP3 PUSH1 0x80 SHR DUP1 PUSH1 0x3C SHL DUP3 OR SWAP2 POP DUP4 DUP2 SHR SWAP4 POP POP DUP3 DUP4 MUL PUSH1 0x7F SHR SWAP3 POP DUP3 PUSH1 0x80 SHR DUP1 PUSH1 0x3B SHL DUP3 OR SWAP2 POP DUP4 DUP2 SHR SWAP4 POP POP DUP3 DUP4 MUL PUSH1 0x7F SHR SWAP3 POP DUP3 PUSH1 0x80 SHR DUP1 PUSH1 0x3A SHL DUP3 OR SWAP2 POP DUP4 DUP2 SHR SWAP4 POP POP DUP3 DUP4 MUL PUSH1 0x7F SHR SWAP3 POP DUP3 PUSH1 0x80 SHR DUP1 PUSH1 0x39 SHL DUP3 OR SWAP2 POP DUP4 DUP2 SHR SWAP4 POP POP DUP3 DUP4 MUL PUSH1 0x7F SHR SWAP3 POP DUP3 PUSH1 0x80 SHR DUP1 PUSH1 0x38 SHL DUP3 OR SWAP2 POP DUP4 DUP2 SHR SWAP4 POP POP DUP3 DUP4 MUL PUSH1 0x7F SHR SWAP3 POP DUP3 PUSH1 0x80 SHR DUP1 PUSH1 0x37 SHL DUP3 OR SWAP2 POP DUP4 DUP2 SHR SWAP4 POP POP DUP3 DUP4 MUL PUSH1 0x7F SHR SWAP3 POP DUP3 PUSH1 0x80 SHR DUP1 PUSH1 0x36 SHL DUP3 OR SWAP2 POP DUP4 DUP2 SHR SWAP4 POP POP DUP3 DUP4 MUL PUSH1 0x7F SHR SWAP3 POP DUP3 PUSH1 0x80 SHR DUP1 PUSH1 0x35 SHL DUP3 OR SWAP2 POP DUP4 DUP2 SHR SWAP4 POP POP DUP3 DUP4 MUL PUSH1 0x7F SHR SWAP3 POP DUP3 PUSH1 0x80 SHR DUP1 PUSH1 0x34 SHL DUP3 OR SWAP2 POP DUP4 DUP2 SHR SWAP4 POP POP DUP3 DUP4 MUL PUSH1 0x7F SHR SWAP3 POP DUP3 PUSH1 0x80 SHR DUP1 PUSH1 0x33 SHL DUP3 OR SWAP2 POP DUP4 DUP2 SHR SWAP4 POP POP DUP3 DUP4 MUL PUSH1 0x7F SHR SWAP3 POP DUP3 PUSH1 0x80 SHR DUP1 PUSH1 0x32 SHL DUP3 OR SWAP2 POP POP PUSH1 0x0 PUSH10 0x3627A301D71055774C85 DUP3 PUSH2 0x1E3C SWAP2 SWAP1 PUSH2 0x32D0 JUMP JUMPDEST SWAP1 POP PUSH1 0x0 PUSH1 0x80 PUSH16 0x28F6481AB7F045A5AF012A19D003AAA DUP4 PUSH2 0x1E5E SWAP2 SWAP1 PUSH2 0x328D JUMP JUMPDEST SWAP1 SAR SWAP1 POP PUSH1 0x0 PUSH1 0x80 PUSH16 0xDB2DF09E81959A81455E260799A0632F DUP5 PUSH2 0x1E82 SWAP2 SWAP1 PUSH2 0x3348 JUMP JUMPDEST SWAP1 SAR SWAP1 POP DUP1 PUSH1 0x2 SIGNEXTEND DUP3 PUSH1 0x2 SIGNEXTEND EQ PUSH2 0x1EDC JUMPI DUP9 PUSH20 0xFFFFFFFFFFFFFFFFFFFFFFFFFFFFFFFFFFFFFFFF AND PUSH2 0x1EB3 DUP3 PUSH2 0x10F9 JUMP JUMPDEST PUSH20 0xFFFFFFFFFFFFFFFFFFFFFFFFFFFFFFFFFFFFFFFF AND GT ISZERO PUSH2 0x1ED5 JUMPI DUP2 PUSH2 0x1ED7 JUMP JUMPDEST DUP1 JUMPDEST PUSH2 0x1EDE JUMP JUMPDEST DUP2 JUMPDEST SWAP8 POP POP POP POP POP POP POP POP SWAP2 SWAP1 POP JUMP JUMPDEST PUSH1 0x0 DUP1 PUSH1 0x8 DUP4 PUSH1 0x2 SIGNEXTEND SWAP1 SAR SWAP2 POP PUSH2 0x100 DUP4 PUSH2 0x1F07 SWAP2 SWAP1 PUSH2 0x2DA3 JUMP JUMPDEST SWAP1 POP SWAP2 POP SWAP2 JUMP JUMPDEST PUSH1 0x0 PUSH2 0x1F1B DUP5 DUP5 DUP5 PUSH2 0x224B JUMP JUMPDEST SWAP1 POP PUSH1 0x0 DUP3 DUP1 PUSH2 0x1F2E JUMPI PUSH2 0x1F2D PUSH2 0x2D74 JUMP JUMPDEST JUMPDEST DUP5 DUP7 MULMOD GT ISZERO PUSH2 0x1F72 JUMPI PUSH32 0xFFFFFFFFFFFFFFFFFFFFFFFFFFFFFFFFFFFFFFFFFFFFFFFFFFFFFFFFFFFFFFFF DUP2 LT PUSH2 0x1F63 JUMPI PUSH1 0x0 DUP1 REVERT JUMPDEST DUP1 DUP1 PUSH2 0x1F6E SWAP1 PUSH2 0x338C JUMP JUMPDEST SWAP2 POP POP JUMPDEST SWAP4 SWAP3 POP POP POP JUMP JUMPDEST PUSH1 0x0 DUP1 DUP3 DUP5 MOD GT DUP3 DUP5 DIV ADD SWAP1 POP SWAP3 SWAP2 POP POP JUMP JUMPDEST PUSH1 0x0 DUP1 DUP3 GT PUSH2 0x1F9A JUMPI PUSH1 0x0 DUP1 REVERT JUMPDEST PUSH17 0x100000000000000000000000000000000 DUP3 LT PUSH2 0x1FC9 JUMPI PUSH1 0x80 DUP3 SWAP1 SHR SWAP2 POP PUSH1 0x80 DUP2 PUSH2 0x1FC6 SWAP2 SWAP1 PUSH2 0x33D4 JUMP JUMPDEST SWAP1 POP JUMPDEST PUSH9 0x10000000000000000 DUP3 LT PUSH2 0x1FF0 JUMPI PUSH1 0x40 DUP3 SWAP1 SHR SWAP2 POP PUSH1 0x40 DUP2 PUSH2 0x1FED SWAP2 SWAP1 PUSH2 0x33D4 JUMP JUMPDEST SWAP1 POP JUMPDEST PUSH5 0x100000000 DUP3 LT PUSH2 0x2013 JUMPI PUSH1 0x20 DUP3 SWAP1 SHR SWAP2 POP PUSH1 0x20 DUP2 PUSH2 0x2010 SWAP2 SWAP1 PUSH2 0x33D4 JUMP JUMPDEST SWAP1 POP JUMPDEST PUSH3 0x10000 DUP3 LT PUSH2 0x2034 JUMPI PUSH1 0x10 DUP3 SWAP1 SHR SWAP2 POP PUSH1 0x10 DUP2 PUSH2 0x2031 SWAP2 SWAP1 PUSH2 0x33D4 JUMP JUMPDEST SWAP1 POP JUMPDEST PUSH2 0x100 DUP3 LT PUSH2 0x2054 JUMPI PUSH1 0x8 DUP3 SWAP1 SHR SWAP2 POP PUSH1 0x8 DUP2 PUSH2 0x2051 SWAP2 SWAP1 PUSH2 0x33D4 JUMP JUMPDEST SWAP1 POP JUMPDEST PUSH1 0x10 DUP3 LT PUSH2 0x2073 JUMPI PUSH1 0x4 DUP3 SWAP1 SHR SWAP2 POP PUSH1 0x4 DUP2 PUSH2 0x2070 SWAP2 SWAP1 PUSH2 0x33D4 JUMP JUMPDEST SWAP1 POP JUMPDEST PUSH1 0x4 DUP3 LT PUSH2 0x2092 JUMPI PUSH1 0x2 DUP3 SWAP1 SHR SWAP2 POP PUSH1 0x2 DUP2 PUSH2 0x208F SWAP2 SWAP1 PUSH2 0x33D4 JUMP JUMPDEST SWAP1 POP JUMPDEST PUSH1 0x2 DUP3 LT PUSH2 0x20AA JUMPI PUSH1 0x1 DUP2 PUSH2 0x20A7 SWAP2 SWAP1 PUSH2 0x33D4 JUMP JUMPDEST SWAP1 POP JUMPDEST SWAP2 SWAP1 POP JUMP JUMPDEST PUSH1 0x0 DUP1 DUP3 GT PUSH2 0x20BD JUMPI PUSH1 0x0 DUP1 REVERT JUMPDEST PUSH1 0xFF SWAP1 POP PUSH1 0x0 PUSH16 0xFFFFFFFFFFFFFFFFFFFFFFFFFFFFFFFF DUP1 AND DUP4 AND GT ISZERO PUSH2 0x20F2 JUMPI PUSH1 0x80 DUP2 PUSH2 0x20EB SWAP2 SWAP1 PUSH2 0x3191 JUMP JUMPDEST SWAP1 POP PUSH2 0x20FA JUMP JUMPDEST PUSH1 0x80 DUP3 SWAP1 SHR SWAP2 POP JUMPDEST PUSH1 0x0 PUSH8 0xFFFFFFFFFFFFFFFF DUP1 AND DUP4 AND GT ISZERO PUSH2 0x2123 JUMPI PUSH1 0x40 DUP2 PUSH2 0x211C SWAP2 SWAP1 PUSH2 0x3191 JUMP JUMPDEST SWAP1 POP PUSH2 0x212B JUMP JUMPDEST PUSH1 0x40 DUP3 SWAP1 SHR SWAP2 POP JUMPDEST PUSH1 0x0 PUSH4 0xFFFFFFFF DUP1 AND DUP4 AND GT ISZERO PUSH2 0x2150 JUMPI PUSH1 0x20 DUP2 PUSH2 0x2149 SWAP2 SWAP1 PUSH2 0x3191 JUMP JUMPDEST SWAP1 POP PUSH2 0x2158 JUMP JUMPDEST PUSH1 0x20 DUP3 SWAP1 SHR SWAP2 POP JUMPDEST PUSH1 0x0 PUSH2 0xFFFF DUP1 AND DUP4 AND GT ISZERO PUSH2 0x217B JUMPI PUSH1 0x10 DUP2 PUSH2 0x2174 SWAP2 SWAP1 PUSH2 0x3191 JUMP JUMPDEST SWAP1 POP PUSH2 0x2183 JUMP JUMPDEST PUSH1 0x10 DUP3 SWAP1 SHR SWAP2 POP JUMPDEST PUSH1 0x0 PUSH1 0xFF DUP1 AND DUP4 AND GT ISZERO PUSH2 0x21A5 JUMPI PUSH1 0x8 DUP2 PUSH2 0x219E SWAP2 SWAP1 PUSH2 0x3191 JUMP JUMPDEST SWAP1 POP PUSH2 0x21AD JUMP JUMPDEST PUSH1 0x8 DUP3 SWAP1 SHR SWAP2 POP JUMPDEST PUSH1 0x0 PUSH1 0xF DUP4 AND GT ISZERO PUSH2 0x21CD JUMPI PUSH1 0x4 DUP2 PUSH2 0x21C6 SWAP2 SWAP1 PUSH2 0x3191 JUMP JUMPDEST SWAP1 POP PUSH2 0x21D5 JUMP JUMPDEST PUSH1 0x4 DUP3 SWAP1 SHR SWAP2 POP JUMPDEST PUSH1 0x0 PUSH1 0x3 DUP4 AND GT ISZERO PUSH2 0x21F5 JUMPI PUSH1 0x2 DUP2 PUSH2 0x21EE SWAP2 SWAP1 PUSH2 0x3191 JUMP JUMPDEST SWAP1 POP PUSH2 0x21FD JUMP JUMPDEST PUSH1 0x2 DUP3 SWAP1 SHR SWAP2 POP JUMPDEST PUSH1 0x0 PUSH1 0x1 DUP4 AND GT ISZERO PUSH2 0x2219 JUMPI PUSH1 0x1 DUP2 PUSH2 0x2216 SWAP2 SWAP1 PUSH2 0x3191 JUMP JUMPDEST SWAP1 POP JUMPDEST SWAP2 SWAP1 POP JUMP JUMPDEST PUSH1 0x0 DUP2 PUSH2 0x2235 JUMPI PUSH2 0x2230 DUP6 DUP6 DUP6 PUSH2 0x2360 JUMP JUMPDEST PUSH2 0x2241 JUMP JUMPDEST PUSH2 0x2240 DUP6 DUP6 DUP6 PUSH2 0x239B JUMP JUMPDEST JUMPDEST SWAP1 POP SWAP5 SWAP4 POP POP POP POP JUMP JUMPDEST PUSH1 0x0 DUP1 PUSH1 0x0 DUP1 NOT DUP6 DUP8 MULMOD DUP6 DUP8 MUL SWAP3 POP DUP3 DUP2 LT DUP4 DUP3 SUB SUB SWAP2 POP POP PUSH1 0x0 DUP2 SUB PUSH2 0x2286 JUMPI DUP4 DUP3 DUP2 PUSH2 0x227C JUMPI PUSH2 0x227B PUSH2 0x2D74 JUMP JUMPDEST JUMPDEST DIV SWAP3 POP POP POP PUSH2 0x2359 JUMP JUMPDEST DUP4 DUP2 LT PUSH2 0x22CC JUMPI DUP1 DUP5 PUSH1 0x40 MLOAD PUSH32 0x773CC18C00000000000000000000000000000000000000000000000000000000 DUP2 MSTORE PUSH1 0x4 ADD PUSH2 0x22C3 SWAP3 SWAP2 SWAP1 PUSH2 0x2788 JUMP JUMPDEST PUSH1 0x40 MLOAD DUP1 SWAP2 SUB SWAP1 REVERT JUMPDEST PUSH1 0x0 DUP5 DUP7 DUP9 MULMOD SWAP1 POP DUP3 DUP2 GT DUP3 SUB SWAP2 POP DUP1 DUP4 SUB SWAP3 POP PUSH1 0x0 PUSH1 0x1 DUP7 NOT ADD DUP7 AND SWAP1 POP DUP1 DUP7 DIV SWAP6 POP DUP1 DUP5 DIV SWAP4 POP PUSH1 0x1 DUP2 DUP3 PUSH1 0x0 SUB DIV ADD SWAP1 POP DUP1 DUP4 MUL DUP5 OR SWAP4 POP PUSH1 0x0 PUSH1 0x2 DUP8 PUSH1 0x3 MUL XOR SWAP1 POP DUP1 DUP8 MUL PUSH1 0x2 SUB DUP2 MUL SWAP1 POP DUP1 DUP8 MUL PUSH1 0x2 SUB DUP2 MUL SWAP1 POP DUP1 DUP8 MUL PUSH1 0x2 SUB DUP2 MUL SWAP1 POP DUP1 DUP8 MUL PUSH1 0x2 SUB DUP2 MUL SWAP1 POP DUP1 DUP8 MUL PUSH1 0x2 SUB DUP2 MUL SWAP1 POP DUP1 DUP8 MUL PUSH1 0x2 SUB DUP2 MUL SWAP1 POP DUP1 DUP6 MUL SWAP6 POP POP POP POP POP POP JUMPDEST SWAP4 SWAP3 POP POP POP JUMP JUMPDEST PUSH1 0x0 DUP3 PUSH16 0xFFFFFFFFFFFFFFFFFFFFFFFFFFFFFFFF AND PUSH1 0x60 PUSH1 0xFF AND DUP4 SWAP1 SHL PUSH2 0x2387 SWAP2 SWAP1 PUSH2 0x2FB8 JUMP JUMPDEST DUP5 PUSH2 0x2392 SWAP2 SWAP1 PUSH2 0x3409 JUMP JUMPDEST SWAP1 POP SWAP4 SWAP3 POP POP POP JUMP JUMPDEST PUSH1 0x0 DUP1 PUSH1 0x60 PUSH1 0xFF AND DUP5 PUSH16 0xFFFFFFFFFFFFFFFFFFFFFFFFFFFFFFFF AND SWAP1 SHL SWAP1 POP PUSH1 0x0 DUP6 PUSH20 0xFFFFFFFFFFFFFFFFFFFFFFFFFFFFFFFFFFFFFFFF AND DUP5 PUSH2 0x23DE SWAP2 SWAP1 PUSH2 0x2F76 JUMP JUMPDEST SWAP1 POP DUP6 PUSH20 0xFFFFFFFFFFFFFFFFFFFFFFFFFFFFFFFFFFFFFFFF AND DUP5 DUP3 PUSH2 0x2403 SWAP2 SWAP1 PUSH2 0x2FB8 JUMP JUMPDEST SUB PUSH2 0x244C JUMPI PUSH1 0x0 DUP2 DUP4 PUSH2 0x2416 SWAP2 SWAP1 PUSH2 0x2B81 JUMP JUMPDEST SWAP1 POP DUP3 DUP2 LT PUSH2 0x244A JUMPI PUSH2 0x2440 DUP4 DUP9 PUSH20 0xFFFFFFFFFFFFFFFFFFFFFFFFFFFFFFFFFFFFFFFF AND DUP4 PUSH2 0x1F0E JUMP JUMPDEST SWAP4 POP POP POP POP PUSH2 0x2487 JUMP JUMPDEST POP JUMPDEST PUSH2 0x2482 DUP3 DUP6 DUP9 PUSH20 0xFFFFFFFFFFFFFFFFFFFFFFFFFFFFFFFFFFFFFFFF AND DUP6 PUSH2 0x2473 SWAP2 SWAP1 PUSH2 0x2FB8 JUMP JUMPDEST PUSH2 0x247D SWAP2 SWAP1 PUSH2 0x2B81 JUMP JUMPDEST PUSH2 0x1F79 JUMP JUMPDEST SWAP3 POP POP POP JUMPDEST SWAP4 SWAP3 POP POP POP JUMP JUMPDEST PUSH1 0x40 MLOAD DUP1 PUSH1 0xA0 ADD PUSH1 0x40 MSTORE DUP1 PUSH1 0x0 PUSH20 0xFFFFFFFFFFFFFFFFFFFFFFFFFFFFFFFFFFFFFFFF AND DUP2 MSTORE PUSH1 0x20 ADD PUSH1 0x0 PUSH1 0x2 SIGNEXTEND DUP2 MSTORE PUSH1 0x20 ADD PUSH1 0x0 PUSH20 0xFFFFFFFFFFFFFFFFFFFFFFFFFFFFFFFFFFFFFFFF AND DUP2 MSTORE PUSH1 0x20 ADD PUSH1 0x0 DUP2 MSTORE PUSH1 0x20 ADD PUSH1 0x0 DUP2 MSTORE POP SWAP1 JUMP JUMPDEST PUSH1 0x0 PUSH20 0xFFFFFFFFFFFFFFFFFFFFFFFFFFFFFFFFFFFFFFFF DUP3 AND SWAP1 POP SWAP2 SWAP1 POP JUMP JUMPDEST PUSH1 0x0 PUSH2 0x2517 DUP3 PUSH2 0x24EC JUMP JUMPDEST SWAP1 POP SWAP2 SWAP1 POP JUMP JUMPDEST PUSH2 0x2527 DUP2 PUSH2 0x250C JUMP JUMPDEST DUP3 MSTORE POP POP JUMP JUMPDEST PUSH1 0x0 PUSH1 0x20 DUP3 ADD SWAP1 POP PUSH2 0x2542 PUSH1 0x0 DUP4 ADD DUP5 PUSH2 0x251E JUMP JUMPDEST SWAP3 SWAP2 POP POP JUMP JUMPDEST PUSH1 0x0 PUSH16 0xFFFFFFFFFFFFFFFFFFFFFFFFFFFFFFFF DUP3 AND SWAP1 POP SWAP2 SWAP1 POP JUMP JUMPDEST PUSH2 0x256D DUP2 PUSH2 0x2548 JUMP JUMPDEST DUP3 MSTORE POP POP JUMP JUMPDEST PUSH1 0x0 PUSH1 0x20 DUP3 ADD SWAP1 POP PUSH2 0x2588 PUSH1 0x0 DUP4 ADD DUP5 PUSH2 0x2564 JUMP JUMPDEST SWAP3 SWAP2 POP POP JUMP JUMPDEST PUSH2 0x2597 DUP2 PUSH2 0x24EC JUMP JUMPDEST DUP3 MSTORE POP POP JUMP JUMPDEST PUSH1 0x0 DUP2 PUSH1 0x2 SIGNEXTEND SWAP1 POP SWAP2 SWAP1 POP JUMP JUMPDEST PUSH2 0x25B3 DUP2 PUSH2 0x259D JUMP JUMPDEST DUP3 MSTORE POP POP JUMP JUMPDEST PUSH1 0x0 PUSH1 0x40 DUP3 ADD SWAP1 POP PUSH2 0x25CE PUSH1 0x0 DUP4 ADD DUP6 PUSH2 0x258E JUMP JUMPDEST PUSH2 0x25DB PUSH1 0x20 DUP4 ADD DUP5 PUSH2 0x25AA JUMP JUMPDEST SWAP4 SWAP3 POP POP POP JUMP JUMPDEST PUSH1 0x0 DUP1 REVERT JUMPDEST PUSH1 0x0 DUP1 REVERT JUMPDEST PUSH2 0x25F5 DUP2 PUSH2 0x250C JUMP JUMPDEST DUP2 EQ PUSH2 0x2600 JUMPI PUSH1 0x0 DUP1 REVERT JUMPDEST POP JUMP JUMPDEST PUSH1 0x0 DUP2 CALLDATALOAD SWAP1 POP PUSH2 0x2612 DUP2 PUSH2 0x25EC JUMP JUMPDEST SWAP3 SWAP2 POP POP JUMP JUMPDEST PUSH2 0x2621 DUP2 PUSH2 0x259D JUMP JUMPDEST DUP2 EQ PUSH2 0x262C JUMPI PUSH1 0x0 DUP1 REVERT JUMPDEST POP JUMP JUMPDEST PUSH1 0x0 DUP2 CALLDATALOAD SWAP1 POP PUSH2 0x263E DUP2 PUSH2 0x2618 JUMP JUMPDEST SWAP3 SWAP2 POP POP JUMP JUMPDEST PUSH2 0x264D DUP2 PUSH2 0x2548 JUMP JUMPDEST DUP2 EQ PUSH2 0x2658 JUMPI PUSH1 0x0 DUP1 REVERT JUMPDEST POP JUMP JUMPDEST PUSH1 0x0 DUP2 CALLDATALOAD SWAP1 POP PUSH2 0x266A DUP2 PUSH2 0x2644 JUMP JUMPDEST SWAP3 SWAP2 POP POP JUMP JUMPDEST PUSH1 0x0 DUP1 REVERT JUMPDEST PUSH1 0x0 DUP1 REVERT JUMPDEST PUSH1 0x0 DUP1 REVERT JUMPDEST PUSH1 0x0 DUP1 DUP4 PUSH1 0x1F DUP5 ADD SLT PUSH2 0x2695 JUMPI PUSH2 0x2694 PUSH2 0x2670 JUMP JUMPDEST JUMPDEST DUP3 CALLDATALOAD SWAP1 POP PUSH8 0xFFFFFFFFFFFFFFFF DUP2 GT ISZERO PUSH2 0x26B2 JUMPI PUSH2 0x26B1 PUSH2 0x2675 JUMP JUMPDEST JUMPDEST PUSH1 0x20 DUP4 ADD SWAP2 POP DUP4 PUSH1 0x1 DUP3 MUL DUP4 ADD GT ISZERO PUSH2 0x26CE JUMPI PUSH2 0x26CD PUSH2 0x267A JUMP JUMPDEST JUMPDEST SWAP3 POP SWAP3 SWAP1 POP JUMP JUMPDEST PUSH1 0x0 DUP1 PUSH1 0x0 DUP1 PUSH1 0x0 DUP1 PUSH1 0xA0 DUP8 DUP10 SUB SLT ISZERO PUSH2 0x26F2 JUMPI PUSH2 0x26F1 PUSH2 0x25E2 JUMP JUMPDEST JUMPDEST PUSH1 0x0 PUSH2 0x2700 DUP10 DUP3 DUP11 ADD PUSH2 0x2603 JUMP JUMPDEST SWAP7 POP POP PUSH1 0x20 PUSH2 0x2711 DUP10 DUP3 DUP11 ADD PUSH2 0x262F JUMP JUMPDEST SWAP6 POP POP PUSH1 0x40 PUSH2 0x2722 DUP10 DUP3 DUP11 ADD PUSH2 0x262F JUMP JUMPDEST SWAP5 POP POP PUSH1 0x60 PUSH2 0x2733 DUP10 DUP3 DUP11 ADD PUSH2 0x265B JUMP JUMPDEST SWAP4 POP POP PUSH1 0x80 DUP8 ADD CALLDATALOAD PUSH8 0xFFFFFFFFFFFFFFFF DUP2 GT ISZERO PUSH2 0x2754 JUMPI PUSH2 0x2753 PUSH2 0x25E7 JUMP JUMPDEST JUMPDEST PUSH2 0x2760 DUP10 DUP3 DUP11 ADD PUSH2 0x267F JUMP JUMPDEST SWAP3 POP SWAP3 POP POP SWAP3 SWAP6 POP SWAP3 SWAP6 POP SWAP3 SWAP6 JUMP JUMPDEST PUSH1 0x0 DUP2 SWAP1 POP SWAP2 SWAP1 POP JUMP JUMPDEST PUSH2 0x2782 DUP2 PUSH2 0x276F JUMP JUMPDEST DUP3 MSTORE POP POP JUMP JUMPDEST PUSH1 0x0 PUSH1 0x40 DUP3 ADD SWAP1 POP PUSH2 0x279D PUSH1 0x0 DUP4 ADD DUP6 PUSH2 0x2779 JUMP JUMPDEST PUSH2 0x27AA PUSH1 0x20 DUP4 ADD DUP5 PUSH2 0x2779 JUMP JUMPDEST SWAP4 SWAP3 POP POP POP JUMP JUMPDEST PUSH1 0x0 DUP2 SWAP1 POP SWAP2 SWAP1 POP JUMP JUMPDEST PUSH2 0x27C4 DUP2 PUSH2 0x27B1 JUMP JUMPDEST DUP2 EQ PUSH2 0x27CF JUMPI PUSH1 0x0 DUP1 REVERT JUMPDEST POP JUMP JUMPDEST PUSH1 0x0 DUP2 CALLDATALOAD SWAP1 POP PUSH2 0x27E1 DUP2 PUSH2 0x27BB JUMP JUMPDEST SWAP3 SWAP2 POP POP JUMP JUMPDEST PUSH1 0x0 PUSH1 0x20 DUP3 DUP5 SUB SLT ISZERO PUSH2 0x27FD JUMPI PUSH2 0x27FC PUSH2 0x25E2 JUMP JUMPDEST JUMPDEST PUSH1 0x0 PUSH2 0x280B DUP5 DUP3 DUP6 ADD PUSH2 0x27D2 JUMP JUMPDEST SWAP2 POP POP SWAP3 SWAP2 POP POP JUMP JUMPDEST PUSH1 0x0 DUP2 PUSH1 0x1 SIGNEXTEND SWAP1 POP SWAP2 SWAP1 POP JUMP JUMPDEST PUSH2 0x282A DUP2 PUSH2 0x2814 JUMP JUMPDEST DUP2 EQ PUSH2 0x2835 JUMPI PUSH1 0x0 DUP1 REVERT JUMPDEST POP JUMP JUMPDEST PUSH1 0x0 DUP2 CALLDATALOAD SWAP1 POP PUSH2 0x2847 DUP2 PUSH2 0x2821 JUMP JUMPDEST SWAP3 SWAP2 POP POP JUMP JUMPDEST PUSH1 0x0 PUSH1 0x20 DUP3 DUP5 SUB SLT ISZERO PUSH2 0x2863 JUMPI PUSH2 0x2862 PUSH2 0x25E2 JUMP JUMPDEST JUMPDEST PUSH1 0x0 PUSH2 0x2871 DUP5 DUP3 DUP6 ADD PUSH2 0x2838 JUMP JUMPDEST SWAP2 POP POP SWAP3 SWAP2 POP POP JUMP JUMPDEST PUSH1 0x0 PUSH1 0x20 DUP3 ADD SWAP1 POP PUSH2 0x288F PUSH1 0x0 DUP4 ADD DUP5 PUSH2 0x2779 JUMP JUMPDEST SWAP3 SWAP2 POP POP JUMP JUMPDEST PUSH1 0x0 DUP2 ISZERO ISZERO SWAP1 POP SWAP2 SWAP1 POP JUMP JUMPDEST PUSH2 0x28AA DUP2 PUSH2 0x2895 JUMP JUMPDEST DUP2 EQ PUSH2 0x28B5 JUMPI PUSH1 0x0 DUP1 REVERT JUMPDEST POP JUMP JUMPDEST PUSH1 0x0 DUP2 CALLDATALOAD SWAP1 POP PUSH2 0x28C7 DUP2 PUSH2 0x28A1 JUMP JUMPDEST SWAP3 SWAP2 POP POP JUMP JUMPDEST PUSH2 0x28D6 DUP2 PUSH2 0x276F JUMP JUMPDEST DUP2 EQ PUSH2 0x28E1 JUMPI PUSH1 0x0 DUP1 REVERT JUMPDEST POP JUMP JUMPDEST PUSH1 0x0 DUP2 CALLDATALOAD SWAP1 POP PUSH2 0x28F3 DUP2 PUSH2 0x28CD JUMP JUMPDEST SWAP3 SWAP2 POP POP JUMP JUMPDEST PUSH1 0x0 DUP1 PUSH1 0x0 DUP1 PUSH1 0x0 PUSH1 0x80 DUP7 DUP9 SUB SLT ISZERO PUSH2 0x2915 JUMPI PUSH2 0x2914 PUSH2 0x25E2 JUMP JUMPDEST JUMPDEST PUSH1 0x0 PUSH2 0x2923 DUP9 DUP3 DUP10 ADD PUSH2 0x2603 JUMP JUMPDEST SWAP6 POP POP PUSH1 0x20 PUSH2 0x2934 DUP9 DUP3 DUP10 ADD PUSH2 0x28B8 JUMP JUMPDEST SWAP5 POP POP PUSH1 0x40 PUSH2 0x2945 DUP9 DUP3 DUP10 ADD PUSH2 0x28E4 JUMP JUMPDEST SWAP4 POP POP PUSH1 0x60 DUP7 ADD CALLDATALOAD PUSH8 0xFFFFFFFFFFFFFFFF DUP2 GT ISZERO PUSH2 0x2966 JUMPI PUSH2 0x2965 PUSH2 0x25E7 JUMP JUMPDEST JUMPDEST PUSH2 0x2972 DUP9 DUP3 DUP10 ADD PUSH2 0x267F JUMP JUMPDEST SWAP3 POP SWAP3 POP POP SWAP3 SWAP6 POP SWAP3 SWAP6 SWAP1 SWAP4 POP JUMP JUMPDEST PUSH1 0x0 DUP2 SWAP1 POP SWAP2 SWAP1 POP JUMP JUMPDEST PUSH2 0x2994 DUP2 PUSH2 0x2981 JUMP JUMPDEST DUP3 MSTORE POP POP JUMP JUMPDEST PUSH1 0x0 PUSH1 0x40 DUP3 ADD SWAP1 POP PUSH2 0x29AF PUSH1 0x0 DUP4 ADD DUP6 PUSH2 0x298B JUMP JUMPDEST PUSH2 0x29BC PUSH1 0x20 DUP4 ADD DUP5 PUSH2 0x298B JUMP JUMPDEST SWAP4 SWAP3 POP POP POP JUMP JUMPDEST PUSH1 0x0 PUSH1 0x20 DUP3 DUP5 SUB SLT ISZERO PUSH2 0x29D9 JUMPI PUSH2 0x29D8 PUSH2 0x25E2 JUMP JUMPDEST JUMPDEST PUSH1 0x0 PUSH2 0x29E7 DUP5 DUP3 DUP6 ADD PUSH2 0x262F JUMP JUMPDEST SWAP2 POP POP SWAP3 SWAP2 POP POP JUMP JUMPDEST PUSH2 0x29F9 DUP2 PUSH2 0x2895 JUMP JUMPDEST DUP3 MSTORE POP POP JUMP JUMPDEST PUSH1 0x0 PUSH1 0x40 DUP3 ADD SWAP1 POP PUSH2 0x2A14 PUSH1 0x0 DUP4 ADD DUP6 PUSH2 0x29F0 JUMP JUMPDEST PUSH2 0x2A21 PUSH1 0x20 DUP4 ADD DUP5 PUSH2 0x2564 JUMP JUMPDEST SWAP4 SWAP3 POP POP POP JUMP JUMPDEST PUSH32 0x4E487B7100000000000000000000000000000000000000000000000000000000 PUSH1 0x0 MSTORE PUSH1 0x11 PUSH1 0x4 MSTORE PUSH1 0x24 PUSH1 0x0 REVERT JUMPDEST PUSH1 0x0 PUSH2 0x2A62 DUP3 PUSH2 0x259D JUMP JUMPDEST SWAP2 POP PUSH32 0xFFFFFFFFFFFFFFFFFFFFFFFFFFFFFFFFFFFFFFFFFFFFFFFFFFFFFFFFFF800000 DUP3 SUB PUSH2 0x2A94 JUMPI PUSH2 0x2A93 PUSH2 0x2A28 JUMP JUMPDEST JUMPDEST DUP2 PUSH1 0x0 SUB SWAP1 POP SWAP2 SWAP1 POP JUMP JUMPDEST PUSH1 0x0 PUSH2 0x2AAA DUP3 PUSH2 0x2548 JUMP JUMPDEST SWAP2 POP PUSH2 0x2AB5 DUP4 PUSH2 0x2548 JUMP JUMPDEST SWAP3 POP DUP3 DUP3 ADD SWAP1 POP PUSH16 0xFFFFFFFFFFFFFFFFFFFFFFFFFFFFFFFF DUP2 GT ISZERO PUSH2 0x2ADD JUMPI PUSH2 0x2ADC PUSH2 0x2A28 JUMP JUMPDEST JUMPDEST SWAP3 SWAP2 POP POP JUMP JUMPDEST PUSH1 0x0 DUP3 DUP3 MSTORE PUSH1 0x20 DUP3 ADD SWAP1 POP SWAP3 SWAP2 POP POP JUMP JUMPDEST DUP3 DUP2 DUP4 CALLDATACOPY PUSH1 0x0 DUP4 DUP4 ADD MSTORE POP POP POP JUMP JUMPDEST PUSH1 0x0 PUSH1 0x1F NOT PUSH1 0x1F DUP4 ADD AND SWAP1 POP SWAP2 SWAP1 POP JUMP JUMPDEST PUSH1 0x0 PUSH2 0x2B20 DUP4 DUP6 PUSH2 0x2AE3 JUMP JUMPDEST SWAP4 POP PUSH2 0x2B2D DUP4 DUP6 DUP5 PUSH2 0x2AF4 JUMP JUMPDEST PUSH2 0x2B36 DUP4 PUSH2 0x2B03 JUMP JUMPDEST DUP5 ADD SWAP1 POP SWAP4 SWAP3 POP POP POP JUMP JUMPDEST PUSH1 0x0 PUSH1 0x60 DUP3 ADD SWAP1 POP PUSH2 0x2B56 PUSH1 0x0 DUP4 ADD DUP8 PUSH2 0x2779 JUMP JUMPDEST PUSH2 0x2B63 PUSH1 0x20 DUP4 ADD DUP7 PUSH2 0x2779 JUMP JUMPDEST DUP2 DUP2 SUB PUSH1 0x40 DUP4 ADD MSTORE PUSH2 0x2B76 DUP2 DUP5 DUP7 PUSH2 0x2B14 JUMP JUMPDEST SWAP1 POP SWAP6 SWAP5 POP POP POP POP POP JUMP JUMPDEST PUSH1 0x0 PUSH2 0x2B8C DUP3 PUSH2 0x276F JUMP JUMPDEST SWAP2 POP PUSH2 0x2B97 DUP4 PUSH2 0x276F JUMP JUMPDEST SWAP3 POP DUP3 DUP3 ADD SWAP1 POP DUP1 DUP3 GT ISZERO PUSH2 0x2BAF JUMPI PUSH2 0x2BAE PUSH2 0x2A28 JUMP JUMPDEST JUMPDEST SWAP3 SWAP2 POP POP JUMP JUMPDEST PUSH1 0x0 PUSH1 0x80 DUP3 ADD SWAP1 POP PUSH2 0x2BCA PUSH1 0x0 DUP4 ADD DUP8 PUSH2 0x251E JUMP JUMPDEST PUSH2 0x2BD7 PUSH1 0x20 DUP4 ADD DUP7 PUSH2 0x2564 JUMP JUMPDEST PUSH2 0x2BE4 PUSH1 0x40 DUP4 ADD DUP6 PUSH2 0x2779 JUMP JUMPDEST PUSH2 0x2BF1 PUSH1 0x60 DUP4 ADD DUP5 PUSH2 0x2779 JUMP JUMPDEST SWAP6 SWAP5 POP POP POP POP POP JUMP JUMPDEST PUSH1 0x0 PUSH2 0x2C05 DUP3 PUSH2 0x276F JUMP JUMPDEST SWAP2 POP PUSH2 0x2C10 DUP4 PUSH2 0x276F JUMP JUMPDEST SWAP3 POP DUP3 DUP3 SUB SWAP1 POP DUP2 DUP2 GT ISZERO PUSH2 0x2C28 JUMPI PUSH2 0x2C27 PUSH2 0x2A28 JUMP JUMPDEST JUMPDEST SWAP3 SWAP2 POP POP JUMP JUMPDEST PUSH1 0x0 PUSH2 0x2C39 DUP3 PUSH2 0x2981 JUMP JUMPDEST SWAP2 POP PUSH32 0x8000000000000000000000000000000000000000000000000000000000000000 DUP3 SUB PUSH2 0x2C6B JUMPI PUSH2 0x2C6A PUSH2 0x2A28 JUMP JUMPDEST JUMPDEST DUP2 PUSH1 0x0 SUB SWAP1 POP SWAP2 SWAP1 POP JUMP JUMPDEST PUSH1 0x0 PUSH1 0x40 DUP3 ADD SWAP1 POP PUSH2 0x2C8B PUSH1 0x0 DUP4 ADD DUP6 PUSH2 0x251E JUMP JUMPDEST PUSH2 0x2C98 PUSH1 0x20 DUP4 ADD DUP5 PUSH2 0x2779 JUMP JUMPDEST SWAP4 SWAP3 POP POP POP JUMP JUMPDEST PUSH1 0x0 DUP2 MLOAD SWAP1 POP PUSH2 0x2CAE DUP2 PUSH2 0x28A1 JUMP JUMPDEST SWAP3 SWAP2 POP POP JUMP JUMPDEST PUSH1 0x0 PUSH1 0x20 DUP3 DUP5 SUB SLT ISZERO PUSH2 0x2CCA JUMPI PUSH2 0x2CC9 PUSH2 0x25E2 JUMP JUMPDEST JUMPDEST PUSH1 0x0 PUSH2 0x2CD8 DUP5 DUP3 DUP6 ADD PUSH2 0x2C9F JUMP JUMPDEST SWAP2 POP POP SWAP3 SWAP2 POP POP JUMP JUMPDEST PUSH1 0x0 PUSH1 0x60 DUP3 ADD SWAP1 POP PUSH2 0x2CF6 PUSH1 0x0 DUP4 ADD DUP8 PUSH2 0x298B JUMP JUMPDEST PUSH2 0x2D03 PUSH1 0x20 DUP4 ADD DUP7 PUSH2 0x298B JUMP JUMPDEST DUP2 DUP2 SUB PUSH1 0x40 DUP4 ADD MSTORE PUSH2 0x2D16 DUP2 DUP5 DUP7 PUSH2 0x2B14 JUMP JUMPDEST SWAP1 POP SWAP6 SWAP5 POP POP POP POP POP JUMP JUMPDEST PUSH1 0x0 PUSH1 0xA0 DUP3 ADD SWAP1 POP PUSH2 0x2D36 PUSH1 0x0 DUP4 ADD DUP9 PUSH2 0x298B JUMP JUMPDEST PUSH2 0x2D43 PUSH1 0x20 DUP4 ADD DUP8 PUSH2 0x298B JUMP JUMPDEST PUSH2 0x2D50 PUSH1 0x40 DUP4 ADD DUP7 PUSH2 0x258E JUMP JUMPDEST PUSH2 0x2D5D PUSH1 0x60 DUP4 ADD DUP6 PUSH2 0x2564 JUMP JUMPDEST PUSH2 0x2D6A PUSH1 0x80 DUP4 ADD DUP5 PUSH2 0x25AA JUMP JUMPDEST SWAP7 SWAP6 POP POP POP POP POP POP JUMP JUMPDEST PUSH32 0x4E487B7100000000000000000000000000000000000000000000000000000000 PUSH1 0x0 MSTORE PUSH1 0x12 PUSH1 0x4 MSTORE PUSH1 0x24 PUSH1 0x0 REVERT JUMPDEST PUSH1 0x0 PUSH2 0x2DAE DUP3 PUSH2 0x259D JUMP JUMPDEST SWAP2 POP PUSH2 0x2DB9 DUP4 PUSH2 0x259D JUMP JUMPDEST SWAP3 POP DUP3 PUSH2 0x2DC9 JUMPI PUSH2 0x2DC8 PUSH2 0x2D74 JUMP JUMPDEST JUMPDEST DUP3 DUP3 SMOD SWAP1 POP SWAP3 SWAP2 POP POP JUMP JUMPDEST PUSH1 0x0 PUSH2 0x2DDF DUP3 PUSH2 0x259D JUMP JUMPDEST SWAP2 POP PUSH2 0x2DEA DUP4 PUSH2 0x259D JUMP JUMPDEST SWAP3 POP DUP3 PUSH2 0x2DFA JUMPI PUSH2 0x2DF9 PUSH2 0x2D74 JUMP JUMPDEST JUMPDEST PUSH1 0x1 PUSH1 0x0 SUB DUP4 EQ PUSH32 0xFFFFFFFFFFFFFFFFFFFFFFFFFFFFFFFFFFFFFFFFFFFFFFFFFFFFFFFFFF800000 DUP4 EQ AND ISZERO PUSH2 0x2E33 JUMPI PUSH2 0x2E32 PUSH2 0x2A28 JUMP JUMPDEST JUMPDEST DUP3 DUP3 SDIV SWAP1 POP SWAP3 SWAP2 POP POP JUMP JUMPDEST PUSH1 0x0 DUP2 PUSH1 0x60 SHL SWAP1 POP SWAP2 SWAP1 POP JUMP JUMPDEST PUSH1 0x0 PUSH2 0x2E56 DUP3 PUSH2 0x2E3E JUMP JUMPDEST SWAP1 POP SWAP2 SWAP1 POP JUMP JUMPDEST PUSH1 0x0 PUSH2 0x2E68 DUP3 PUSH2 0x2E4B JUMP JUMPDEST SWAP1 POP SWAP2 SWAP1 POP JUMP JUMPDEST PUSH2 0x2E80 PUSH2 0x2E7B DUP3 PUSH2 0x250C JUMP JUMPDEST PUSH2 0x2E5D JUMP JUMPDEST DUP3 MSTORE POP POP JUMP JUMPDEST PUSH1 0x0 DUP2 PUSH1 0xE8 SHL SWAP1 POP SWAP2 SWAP1 POP JUMP JUMPDEST PUSH1 0x0 PUSH2 0x2E9E DUP3 PUSH2 0x2E86 JUMP JUMPDEST SWAP1 POP SWAP2 SWAP1 POP JUMP JUMPDEST PUSH2 0x2EB6 PUSH2 0x2EB1 DUP3 PUSH2 0x259D JUMP JUMPDEST PUSH2 0x2E93 JUMP JUMPDEST DUP3 MSTORE POP POP JUMP JUMPDEST PUSH1 0x0 PUSH2 0x2EC8 DUP3 DUP7 PUSH2 0x2E6F JUMP JUMPDEST PUSH1 0x14 DUP3 ADD SWAP2 POP PUSH2 0x2ED8 DUP3 DUP6 PUSH2 0x2EA5 JUMP JUMPDEST PUSH1 0x3 DUP3 ADD SWAP2 POP PUSH2 0x2EE8 DUP3 DUP5 PUSH2 0x2EA5 JUMP JUMPDEST PUSH1 0x3 DUP3 ADD SWAP2 POP DUP2 SWAP1 POP SWAP5 SWAP4 POP POP POP POP JUMP JUMPDEST PUSH1 0x0 DUP3 DUP3 MSTORE PUSH1 0x20 DUP3 ADD SWAP1 POP SWAP3 SWAP2 POP POP JUMP JUMPDEST PUSH32 0x5400000000000000000000000000000000000000000000000000000000000000 PUSH1 0x0 DUP3 ADD MSTORE POP JUMP JUMPDEST PUSH1 0x0 PUSH2 0x2F40 PUSH1 0x1 DUP4 PUSH2 0x2EF9 JUMP JUMPDEST SWAP2 POP PUSH2 0x2F4B DUP3 PUSH2 0x2F0A JUMP JUMPDEST PUSH1 0x20 DUP3 ADD SWAP1 POP SWAP2 SWAP1 POP JUMP JUMPDEST PUSH1 0x0 PUSH1 0x20 DUP3 ADD SWAP1 POP DUP2 DUP2 SUB PUSH1 0x0 DUP4 ADD MSTORE PUSH2 0x2F6F DUP2 PUSH2 0x2F33 JUMP JUMPDEST SWAP1 POP SWAP2 SWAP1 POP JUMP JUMPDEST PUSH1 0x0 PUSH2 0x2F81 DUP3 PUSH2 0x276F JUMP JUMPDEST SWAP2 POP PUSH2 0x2F8C DUP4 PUSH2 0x276F JUMP JUMPDEST SWAP3 POP DUP3 DUP3 MUL PUSH2 0x2F9A DUP2 PUSH2 0x276F JUMP JUMPDEST SWAP2 POP DUP3 DUP3 DIV DUP5 EQ DUP4 ISZERO OR PUSH2 0x2FB1 JUMPI PUSH2 0x2FB0 PUSH2 0x2A28 JUMP JUMPDEST JUMPDEST POP SWAP3 SWAP2 POP POP JUMP JUMPDEST PUSH1 0x0 PUSH2 0x2FC3 DUP3 PUSH2 0x276F JUMP JUMPDEST SWAP2 POP PUSH2 0x2FCE DUP4 PUSH2 0x276F JUMP JUMPDEST SWAP3 POP DUP3 PUSH2 0x2FDE JUMPI PUSH2 0x2FDD PUSH2 0x2D74 JUMP JUMPDEST JUMPDEST DUP3 DUP3 DIV SWAP1 POP SWAP3 SWAP2 POP POP JUMP JUMPDEST PUSH1 0x0 PUSH2 0x2FF4 DUP3 PUSH2 0x276F JUMP JUMPDEST SWAP2 POP PUSH2 0x2FFF DUP4 PUSH2 0x276F JUMP JUMPDEST SWAP3 POP DUP3 PUSH2 0x300F JUMPI PUSH2 0x300E PUSH2 0x2D74 JUMP JUMPDEST JUMPDEST DUP3 DUP3 MOD SWAP1 POP SWAP3 SWAP2 POP POP JUMP JUMPDEST PUSH1 0x0 PUSH2 0x3025 DUP3 PUSH2 0x24EC JUMP JUMPDEST SWAP2 POP PUSH2 0x3030 DUP4 PUSH2 0x24EC JUMP JUMPDEST SWAP3 POP DUP3 DUP3 SUB SWAP1 POP PUSH20 0xFFFFFFFFFFFFFFFFFFFFFFFFFFFFFFFFFFFFFFFF DUP2 GT ISZERO PUSH2 0x305C JUMPI PUSH2 0x305B PUSH2 0x2A28 JUMP JUMPDEST JUMPDEST SWAP3 SWAP2 POP POP JUMP JUMPDEST PUSH1 0x0 DUP2 MLOAD SWAP1 POP PUSH2 0x3071 DUP2 PUSH2 0x28CD JUMP JUMPDEST SWAP3 SWAP2 POP POP JUMP JUMPDEST PUSH1 0x0 PUSH1 0x20 DUP3 DUP5 SUB SLT ISZERO PUSH2 0x308D JUMPI PUSH2 0x308C PUSH2 0x25E2 JUMP JUMPDEST JUMPDEST PUSH1 0x0 PUSH2 0x309B DUP5 DUP3 DUP6 ADD PUSH2 0x3062 JUMP JUMPDEST SWAP2 POP POP SWAP3 SWAP2 POP POP JUMP JUMPDEST PUSH1 0x0 PUSH2 0x30AF DUP3 PUSH2 0x259D JUMP JUMPDEST SWAP2 POP PUSH32 0xFFFFFFFFFFFFFFFFFFFFFFFFFFFFFFFFFFFFFFFFFFFFFFFFFFFFFFFFFF800000 DUP3 SUB PUSH2 0x30E1 JUMPI PUSH2 0x30E0 PUSH2 0x2A28 JUMP JUMPDEST JUMPDEST PUSH1 0x1 DUP3 SUB SWAP1 POP SWAP2 SWAP1 POP JUMP JUMPDEST PUSH1 0x0 PUSH2 0x30F7 DUP3 PUSH2 0x259D JUMP JUMPDEST SWAP2 POP PUSH2 0x3102 DUP4 PUSH2 0x259D JUMP JUMPDEST SWAP3 POP DUP3 DUP3 SUB SWAP1 POP PUSH3 0x7FFFFF DUP2 SGT PUSH32 0xFFFFFFFFFFFFFFFFFFFFFFFFFFFFFFFFFFFFFFFFFFFFFFFFFFFFFFFFFF800000 DUP3 SLT OR ISZERO PUSH2 0x3141 JUMPI PUSH2 0x3140 PUSH2 0x2A28 JUMP JUMPDEST JUMPDEST SWAP3 SWAP2 POP POP JUMP JUMPDEST PUSH1 0x0 PUSH2 0x3152 DUP3 PUSH2 0x259D JUMP JUMPDEST SWAP2 POP PUSH2 0x315D DUP4 PUSH2 0x259D JUMP JUMPDEST SWAP3 POP DUP3 DUP3 MUL PUSH2 0x316B DUP2 PUSH2 0x259D JUMP JUMPDEST SWAP2 POP DUP1 DUP3 EQ PUSH2 0x317D JUMPI PUSH2 0x317C PUSH2 0x2A28 JUMP JUMPDEST JUMPDEST POP SWAP3 SWAP2 POP POP JUMP JUMPDEST PUSH1 0x0 PUSH1 0xFF DUP3 AND SWAP1 POP SWAP2 SWAP1 POP JUMP JUMPDEST PUSH1 0x0 PUSH2 0x319C DUP3 PUSH2 0x3184 JUMP JUMPDEST SWAP2 POP PUSH2 0x31A7 DUP4 PUSH2 0x3184 JUMP JUMPDEST SWAP3 POP DUP3 DUP3 SUB SWAP1 POP PUSH1 0xFF DUP2 GT ISZERO PUSH2 0x31C0 JUMPI PUSH2 0x31BF PUSH2 0x2A28 JUMP JUMPDEST JUMPDEST SWAP3 SWAP2 POP POP JUMP JUMPDEST PUSH1 0x0 PUSH2 0x31D1 DUP3 PUSH2 0x259D JUMP JUMPDEST SWAP2 POP PUSH2 0x31DC DUP4 PUSH2 0x259D JUMP JUMPDEST SWAP3 POP DUP3 DUP3 ADD SWAP1 POP PUSH32 0xFFFFFFFFFFFFFFFFFFFFFFFFFFFFFFFFFFFFFFFFFFFFFFFFFFFFFFFFFF800000 DUP2 SLT PUSH3 0x7FFFFF DUP3 SGT OR ISZERO PUSH2 0x321B JUMPI PUSH2 0x321A PUSH2 0x2A28 JUMP JUMPDEST JUMPDEST SWAP3 SWAP2 POP POP JUMP JUMPDEST PUSH32 0x5200000000000000000000000000000000000000000000000000000000000000 PUSH1 0x0 DUP3 ADD MSTORE POP JUMP JUMPDEST PUSH1 0x0 PUSH2 0x3257 PUSH1 0x1 DUP4 PUSH2 0x2EF9 JUMP JUMPDEST SWAP2 POP PUSH2 0x3262 DUP3 PUSH2 0x3221 JUMP JUMPDEST PUSH1 0x20 DUP3 ADD SWAP1 POP SWAP2 SWAP1 POP JUMP JUMPDEST PUSH1 0x0 PUSH1 0x20 DUP3 ADD SWAP1 POP DUP2 DUP2 SUB PUSH1 0x0 DUP4 ADD MSTORE PUSH2 0x3286 DUP2 PUSH2 0x324A JUMP JUMPDEST SWAP1 POP SWAP2 SWAP1 POP JUMP JUMPDEST PUSH1 0x0 PUSH2 0x3298 DUP3 PUSH2 0x2981 JUMP JUMPDEST SWAP2 POP PUSH2 0x32A3 DUP4 PUSH2 0x2981 JUMP JUMPDEST SWAP3 POP DUP3 DUP3 SUB SWAP1 POP DUP2 DUP2 SLT PUSH1 0x0 DUP5 SLT AND DUP3 DUP3 SGT PUSH1 0x0 DUP6 SLT ISZERO AND OR ISZERO PUSH2 0x32CA JUMPI PUSH2 0x32C9 PUSH2 0x2A28 JUMP JUMPDEST JUMPDEST SWAP3 SWAP2 POP POP JUMP JUMPDEST PUSH1 0x0 PUSH2 0x32DB DUP3 PUSH2 0x2981 JUMP JUMPDEST SWAP2 POP PUSH2 0x32E6 DUP4 PUSH2 0x2981 JUMP JUMPDEST SWAP3 POP DUP3 DUP3 MUL PUSH2 0x32F4 DUP2 PUSH2 0x2981 JUMP JUMPDEST SWAP2 POP PUSH32 0x8000000000000000000000000000000000000000000000000000000000000000 DUP5 EQ PUSH1 0x0 DUP5 SLT AND ISZERO PUSH2 0x332C JUMPI PUSH2 0x332B PUSH2 0x2A28 JUMP JUMPDEST JUMPDEST DUP3 DUP3 SDIV DUP5 EQ DUP4 ISZERO OR PUSH2 0x3341 JUMPI PUSH2 0x3340 PUSH2 0x2A28 JUMP JUMPDEST JUMPDEST POP SWAP3 SWAP2 POP POP JUMP JUMPDEST PUSH1 0x0 PUSH2 0x3353 DUP3 PUSH2 0x2981 JUMP JUMPDEST SWAP2 POP PUSH2 0x335E DUP4 PUSH2 0x2981 JUMP JUMPDEST SWAP3 POP DUP3 DUP3 ADD SWAP1 POP DUP3 DUP2 SLT ISZERO PUSH1 0x0 DUP4 SLT AND DUP4 DUP3 SLT PUSH1 0x0 DUP5 SLT ISZERO AND OR ISZERO PUSH2 0x3386 JUMPI PUSH2 0x3385 PUSH2 0x2A28 JUMP JUMPDEST JUMPDEST SWAP3 SWAP2 POP POP JUMP JUMPDEST PUSH1 0x0 PUSH2 0x3397 DUP3 PUSH2 0x276F JUMP JUMPDEST SWAP2 POP PUSH32 0xFFFFFFFFFFFFFFFFFFFFFFFFFFFFFFFFFFFFFFFFFFFFFFFFFFFFFFFFFFFFFFFF DUP3 SUB PUSH2 0x33C9 JUMPI PUSH2 0x33C8 PUSH2 0x2A28 JUMP JUMPDEST JUMPDEST PUSH1 0x1 DUP3 ADD SWAP1 POP SWAP2 SWAP1 POP JUMP JUMPDEST PUSH1 0x0 PUSH2 0x33DF DUP3 PUSH2 0x3184 JUMP JUMPDEST SWAP2 POP PUSH2 0x33EA DUP4 PUSH2 0x3184 JUMP JUMPDEST SWAP3 POP DUP3 DUP3 ADD SWAP1 POP PUSH1 0xFF DUP2 GT ISZERO PUSH2 0x3403 JUMPI PUSH2 0x3402 PUSH2 0x2A28 JUMP JUMPDEST JUMPDEST SWAP3 SWAP2 POP POP JUMP JUMPDEST PUSH1 0x0 PUSH2 0x3414 DUP3 PUSH2 0x24EC JUMP JUMPDEST SWAP2 POP PUSH2 0x341F DUP4 PUSH2 0x24EC JUMP JUMPDEST SWAP3 POP DUP3 DUP3 ADD SWAP1 POP PUSH20 0xFFFFFFFFFFFFFFFFFFFFFFFFFFFFFFFFFFFFFFFF DUP2 GT ISZERO PUSH2 0x344B JUMPI PUSH2 0x344A PUSH2 0x2A28 JUMP JUMPDEST JUMPDEST SWAP3 SWAP2 POP POP JUMP INVALID LOG2 PUSH5 0x6970667358 0x22 SLT KECCAK256 DUP7 0xDC GASPRICE SWAP9 XOR SWAP12 SWAP3 PUSH16 0xB2D9811816F3EACE67327DBA8D957476 0x1E 0xE3 0xE6 0xE2 SLT STATICCALL BASEFEE SWAP13 PUSH5 0x736F6C6343 STOP ADDMOD BYTE STOP CALLER "
		},
		"gasEstimates": {
			"creation": {
				"codeDepositCost": "2689400",
				"executionCost": "infinite",
				"totalCost": "infinite"
			},
			"external": {
				"liquidity()": "2494",
				"mint(address,int24,int24,uint128,bytes)": "infinite",
				"positions(bytes32)": "2821",
				"slot0()": "4838",
				"swap(address,bool,uint256,bytes)": "infinite",
				"tickBitmap(int16)": "2795",
				"ticks(int24)": "5221",
				"token0()": "infinite",
				"token1()": "infinite"
			},
			"internal": {
				"balance0()": "infinite",
				"balance1()": "infinite"
			}
		},
		"methodIdentifiers": {
			"liquidity()": "1a686502",
			"mint(address,int24,int24,uint128,bytes)": "3c8a7d8d",
			"positions(bytes32)": "514ea4bf",
			"slot0()": "3850c7bd",
			"swap(address,bool,uint256,bytes)": "80c2c6ef",
			"tickBitmap(int16)": "5339c296",
			"ticks(int24)": "f30dba93",
			"token0()": "0dfe1681",
			"token1()": "d21220a7"
		}
	},
	"abi": [
		{
			"inputs": [
				{
					"internalType": "address",
					"name": "token0_",
					"type": "address"
				},
				{
					"internalType": "address",
					"name": "token1_",
					"type": "address"
				},
				{
					"internalType": "uint160",
					"name": "sqrtPriceX96",
					"type": "uint160"
				},
				{
					"internalType": "int24",
					"name": "tick",
					"type": "int24"
				}
			],
			"stateMutability": "nonpayable",
			"type": "constructor"
		},
		{
			"inputs": [],
			"name": "InsufficientInputAmount",
			"type": "error"
		},
		{
			"inputs": [],
			"name": "InvalidTickRange",
			"type": "error"
		},
		{
			"inputs": [
				{
					"internalType": "uint256",
					"name": "prod1",
					"type": "uint256"
				},
				{
					"internalType": "uint256",
					"name": "denominator",
					"type": "uint256"
				}
			],
			"name": "PRBMath__MulDivOverflow",
			"type": "error"
		},
		{
			"inputs": [],
			"name": "ZeroLiquidity",
			"type": "error"
		},
		{
			"anonymous": false,
			"inputs": [
				{
					"indexed": false,
					"internalType": "address",
					"name": "sender",
					"type": "address"
				},
				{
					"indexed": true,
					"internalType": "address",
					"name": "owner",
					"type": "address"
				},
				{
					"indexed": true,
					"internalType": "int24",
					"name": "tickLower",
					"type": "int24"
				},
				{
					"indexed": true,
					"internalType": "int24",
					"name": "tickUpper",
					"type": "int24"
				},
				{
					"indexed": false,
					"internalType": "uint128",
					"name": "amount",
					"type": "uint128"
				},
				{
					"indexed": false,
					"internalType": "uint256",
					"name": "amount0",
					"type": "uint256"
				},
				{
					"indexed": false,
					"internalType": "uint256",
					"name": "amount1",
					"type": "uint256"
				}
			],
			"name": "Mint",
			"type": "event"
		},
		{
			"anonymous": false,
			"inputs": [
				{
					"indexed": true,
					"internalType": "address",
					"name": "sender",
					"type": "address"
				},
				{
					"indexed": true,
					"internalType": "address",
					"name": "recipient",
					"type": "address"
				},
				{
					"indexed": false,
					"internalType": "int256",
					"name": "amount0",
					"type": "int256"
				},
				{
					"indexed": false,
					"internalType": "int256",
					"name": "amount1",
					"type": "int256"
				},
				{
					"indexed": false,
					"internalType": "uint160",
					"name": "sqrtPriceX96",
					"type": "uint160"
				},
				{
					"indexed": false,
					"internalType": "uint128",
					"name": "liquidity",
					"type": "uint128"
				},
				{
					"indexed": false,
					"internalType": "int24",
					"name": "tick",
					"type": "int24"
				}
			],
			"name": "Swap",
			"type": "event"
		},
		{
			"inputs": [],
			"name": "liquidity",
			"outputs": [
				{
					"internalType": "uint128",
					"name": "",
					"type": "uint128"
				}
			],
			"stateMutability": "view",
			"type": "function"
		},
		{
			"inputs": [
				{
					"internalType": "address",
					"name": "owner",
					"type": "address"
				},
				{
					"internalType": "int24",
					"name": "lowerTick",
					"type": "int24"
				},
				{
					"internalType": "int24",
					"name": "upperTick",
					"type": "int24"
				},
				{
					"internalType": "uint128",
					"name": "amount",
					"type": "uint128"
				},
				{
					"internalType": "bytes",
					"name": "data",
					"type": "bytes"
				}
			],
			"name": "mint",
			"outputs": [
				{
					"internalType": "uint256",
					"name": "amount0",
					"type": "uint256"
				},
				{
					"internalType": "uint256",
					"name": "amount1",
					"type": "uint256"
				}
			],
			"stateMutability": "nonpayable",
			"type": "function"
		},
		{
			"inputs": [
				{
					"internalType": "bytes32",
					"name": "",
					"type": "bytes32"
				}
			],
			"name": "positions",
			"outputs": [
				{
					"internalType": "uint128",
					"name": "liquidity",
					"type": "uint128"
				}
			],
			"stateMutability": "view",
			"type": "function"
		},
		{
			"inputs": [],
			"name": "slot0",
			"outputs": [
				{
					"internalType": "uint160",
					"name": "sqrtPriceX96",
					"type": "uint160"
				},
				{
					"internalType": "int24",
					"name": "tick",
					"type": "int24"
				}
			],
			"stateMutability": "view",
			"type": "function"
		},
		{
			"inputs": [
				{
					"internalType": "address",
					"name": "recipient",
					"type": "address"
				},
				{
					"internalType": "bool",
					"name": "zeroForOne",
					"type": "bool"
				},
				{
					"internalType": "uint256",
					"name": "amountSpecified",
					"type": "uint256"
				},
				{
					"internalType": "bytes",
					"name": "data",
					"type": "bytes"
				}
			],
			"name": "swap",
			"outputs": [
				{
					"internalType": "int256",
					"name": "amount0",
					"type": "int256"
				},
				{
					"internalType": "int256",
					"name": "amount1",
					"type": "int256"
				}
			],
			"stateMutability": "nonpayable",
			"type": "function"
		},
		{
			"inputs": [
				{
					"internalType": "int16",
					"name": "",
					"type": "int16"
				}
			],
			"name": "tickBitmap",
			"outputs": [
				{
					"internalType": "uint256",
					"name": "",
					"type": "uint256"
				}
			],
			"stateMutability": "view",
			"type": "function"
		},
		{
			"inputs": [
				{
					"internalType": "int24",
					"name": "",
					"type": "int24"
				}
			],
			"name": "ticks",
			"outputs": [
				{
					"internalType": "bool",
					"name": "initialized",
					"type": "bool"
				},
				{
					"internalType": "uint128",
					"name": "liquidity",
					"type": "uint128"
				}
			],
			"stateMutability": "view",
			"type": "function"
		},
		{
			"inputs": [],
			"name": "token0",
			"outputs": [
				{
					"internalType": "address",
					"name": "",
					"type": "address"
				}
			],
			"stateMutability": "view",
			"type": "function"
		},
		{
			"inputs": [],
			"name": "token1",
			"outputs": [
				{
					"internalType": "address",
					"name": "",
					"type": "address"
				}
			],
			"stateMutability": "view",
			"type": "function"
		}
	]
}