{
	"data": {
		"bytecode": {
			"linkReferences": {},
			"object": "6080604052348015600f57600080fd5b506109a38061001f6000396000f3fe608060405234801561001057600080fd5b50600436106100365760003560e01c80635af288b11461003b578063fa461e331461006d575b600080fd5b61005560048036038101906100509190610435565b610089565b6040516100649392919061049c565b60405180910390f35b610087600480360381019061008291906105c3565b610197565b005b6000806000836000015173ffffffffffffffffffffffffffffffffffffffff166380c2c6ef308660400151876020015188600001516040516020016100ce9190610641565b6040516020818303038152906040526040518563ffffffff1660e01b81526004016100fc94939291906106ea565b60408051808303816000875af192505050801561013757506040513d601f19601f82011682018060405250810190610134919061074b565b60015b61018d573d8060008114610167576040519150601f19603f3d011682016040523d82523d6000602084013e61016c565b606091505b508080602001905181019061018191906107f8565b93509350935050610190565b50505b9193909250565b6000818060200190518101906101ad9190610889565b905060008085136101c757846101c2906108e5565b6101d2565b836101d1906108e5565b5b90506000808373ffffffffffffffffffffffffffffffffffffffff16633850c7bd6040518163ffffffff1660e01b81526004016040805180830381865afa158015610221573d6000803e3d6000fd5b505050506040513d601f19601f82011682018060405250810190610245919061092d565b91509150604051838152826020820152816040820152606081fd5b6000604051905090565b600080fd5b600080fd5b600080fd5b6000601f19601f8301169050919050565b7f4e487b7100000000000000000000000000000000000000000000000000000000600052604160045260246000fd5b6102c282610279565b810181811067ffffffffffffffff821117156102e1576102e061028a565b5b80604052505050565b60006102f4610260565b905061030082826102b9565b919050565b600073ffffffffffffffffffffffffffffffffffffffff82169050919050565b600061033082610305565b9050919050565b61034081610325565b811461034b57600080fd5b50565b60008135905061035d81610337565b92915050565b6000819050919050565b61037681610363565b811461038157600080fd5b50565b6000813590506103938161036d565b92915050565b60008115159050919050565b6103ae81610399565b81146103b957600080fd5b50565b6000813590506103cb816103a5565b92915050565b6000606082840312156103e7576103e6610274565b5b6103f160606102ea565b905060006104018482850161034e565b600083015250602061041584828501610384565b6020830152506040610429848285016103bc565b60408301525092915050565b60006060828403121561044b5761044a61026a565b5b6000610459848285016103d1565b91505092915050565b61046b81610363565b82525050565b61047a81610305565b82525050565b60008160020b9050919050565b61049681610480565b82525050565b60006060820190506104b16000830186610462565b6104be6020830185610471565b6104cb604083018461048d565b949350505050565b6000819050919050565b6104e6816104d3565b81146104f157600080fd5b50565b600081359050610503816104dd565b92915050565b600080fd5b600080fd5b600067ffffffffffffffff82111561052e5761052d61028a565b5b61053782610279565b9050602081019050919050565b82818337600083830152505050565b600061056661056184610513565b6102ea565b9050828152602081018484840111156105825761058161050e565b5b61058d848285610544565b509392505050565b600082601f8301126105aa576105a9610509565b5b81356105ba848260208601610553565b91505092915050565b6000806000606084860312156105dc576105db61026a565b5b60006105ea868287016104f4565b93505060206105fb868287016104f4565b925050604084013567ffffffffffffffff81111561061c5761061b61026f565b5b61062886828701610595565b9150509250925092565b61063b81610325565b82525050565b60006020820190506106566000830184610632565b92915050565b61066581610399565b82525050565b600081519050919050565b600082825260208201905092915050565b60005b838110156106a557808201518184015260208101905061068a565b60008484015250505050565b60006106bc8261066b565b6106c68185610676565b93506106d6818560208601610687565b6106df81610279565b840191505092915050565b60006080820190506106ff6000830187610632565b61070c602083018661065c565b6107196040830185610462565b818103606083015261072b81846106b1565b905095945050505050565b600081519050610745816104dd565b92915050565b600080604083850312156107625761076161026a565b5b600061077085828601610736565b925050602061078185828601610736565b9150509250929050565b60008151905061079a8161036d565b92915050565b6107a981610305565b81146107b457600080fd5b50565b6000815190506107c6816107a0565b92915050565b6107d581610480565b81146107e057600080fd5b50565b6000815190506107f2816107cc565b92915050565b6000806000606084860312156108115761081061026a565b5b600061081f8682870161078b565b9350506020610830868287016107b7565b9250506040610841868287016107e3565b9150509250925092565b600061085682610305565b9050919050565b6108668161084b565b811461087157600080fd5b50565b6000815190506108838161085d565b92915050565b60006020828403121561089f5761089e61026a565b5b60006108ad84828501610874565b91505092915050565b7f4e487b7100000000000000000000000000000000000000000000000000000000600052601160045260246000fd5b60006108f0826104d3565b91507f80000000000000000000000000000000000000000000000000000000000000008203610922576109216108b6565b5b816000039050919050565b600080604083850312156109445761094361026a565b5b6000610952858286016107b7565b9250506020610963858286016107e3565b915050925092905056fea26469706673582212203323895c786f58007aeeb2c205b25507bee10a3abac0220f4f4df7e51dc4854d64736f6c634300081a0033",
			"opcodes": "PUSH1 0x80 PUSH1 0x40 MSTORE CALLVALUE DUP1 ISZERO PUSH1 0xF JUMPI PUSH1 0x0 DUP1 REVERT JUMPDEST POP PUSH2 0x9A3 DUP1 PUSH2 0x1F PUSH1 0x0 CODECOPY PUSH1 0x0 RETURN INVALID PUSH1 0x80 PUSH1 0x40 MSTORE CALLVALUE DUP1 ISZERO PUSH2 0x10 JUMPI PUSH1 0x0 DUP1 REVERT JUMPDEST POP PUSH1 0x4 CALLDATASIZE LT PUSH2 0x36 JUMPI PUSH1 0x0 CALLDATALOAD PUSH1 0xE0 SHR DUP1 PUSH4 0x5AF288B1 EQ PUSH2 0x3B JUMPI DUP1 PUSH4 0xFA461E33 EQ PUSH2 0x6D JUMPI JUMPDEST PUSH1 0x0 DUP1 REVERT JUMPDEST PUSH2 0x55 PUSH1 0x4 DUP1 CALLDATASIZE SUB DUP2 ADD SWAP1 PUSH2 0x50 SWAP2 SWAP1 PUSH2 0x435 JUMP JUMPDEST PUSH2 0x89 JUMP JUMPDEST PUSH1 0x40 MLOAD PUSH2 0x64 SWAP4 SWAP3 SWAP2 SWAP1 PUSH2 0x49C JUMP JUMPDEST PUSH1 0x40 MLOAD DUP1 SWAP2 SUB SWAP1 RETURN JUMPDEST PUSH2 0x87 PUSH1 0x4 DUP1 CALLDATASIZE SUB DUP2 ADD SWAP1 PUSH2 0x82 SWAP2 SWAP1 PUSH2 0x5C3 JUMP JUMPDEST PUSH2 0x197 JUMP JUMPDEST STOP JUMPDEST PUSH1 0x0 DUP1 PUSH1 0x0 DUP4 PUSH1 0x0 ADD MLOAD PUSH20 0xFFFFFFFFFFFFFFFFFFFFFFFFFFFFFFFFFFFFFFFF AND PUSH4 0x80C2C6EF ADDRESS DUP7 PUSH1 0x40 ADD MLOAD DUP8 PUSH1 0x20 ADD MLOAD DUP9 PUSH1 0x0 ADD MLOAD PUSH1 0x40 MLOAD PUSH1 0x20 ADD PUSH2 0xCE SWAP2 SWAP1 PUSH2 0x641 JUMP JUMPDEST PUSH1 0x40 MLOAD PUSH1 0x20 DUP2 DUP4 SUB SUB DUP2 MSTORE SWAP1 PUSH1 0x40 MSTORE PUSH1 0x40 MLOAD DUP6 PUSH4 0xFFFFFFFF AND PUSH1 0xE0 SHL DUP2 MSTORE PUSH1 0x4 ADD PUSH2 0xFC SWAP5 SWAP4 SWAP3 SWAP2 SWAP1 PUSH2 0x6EA JUMP JUMPDEST PUSH1 0x40 DUP1 MLOAD DUP1 DUP4 SUB DUP2 PUSH1 0x0 DUP8 GAS CALL SWAP3 POP POP POP DUP1 ISZERO PUSH2 0x137 JUMPI POP PUSH1 0x40 MLOAD RETURNDATASIZE PUSH1 0x1F NOT PUSH1 0x1F DUP3 ADD AND DUP3 ADD DUP1 PUSH1 0x40 MSTORE POP DUP2 ADD SWAP1 PUSH2 0x134 SWAP2 SWAP1 PUSH2 0x74B JUMP JUMPDEST PUSH1 0x1 JUMPDEST PUSH2 0x18D JUMPI RETURNDATASIZE DUP1 PUSH1 0x0 DUP2 EQ PUSH2 0x167 JUMPI PUSH1 0x40 MLOAD SWAP2 POP PUSH1 0x1F NOT PUSH1 0x3F RETURNDATASIZE ADD AND DUP3 ADD PUSH1 0x40 MSTORE RETURNDATASIZE DUP3 MSTORE RETURNDATASIZE PUSH1 0x0 PUSH1 0x20 DUP5 ADD RETURNDATACOPY PUSH2 0x16C JUMP JUMPDEST PUSH1 0x60 SWAP2 POP JUMPDEST POP DUP1 DUP1 PUSH1 0x20 ADD SWAP1 MLOAD DUP2 ADD SWAP1 PUSH2 0x181 SWAP2 SWAP1 PUSH2 0x7F8 JUMP JUMPDEST SWAP4 POP SWAP4 POP SWAP4 POP POP PUSH2 0x190 JUMP JUMPDEST POP POP JUMPDEST SWAP2 SWAP4 SWAP1 SWAP3 POP JUMP JUMPDEST PUSH1 0x0 DUP2 DUP1 PUSH1 0x20 ADD SWAP1 MLOAD DUP2 ADD SWAP1 PUSH2 0x1AD SWAP2 SWAP1 PUSH2 0x889 JUMP JUMPDEST SWAP1 POP PUSH1 0x0 DUP1 DUP6 SGT PUSH2 0x1C7 JUMPI DUP5 PUSH2 0x1C2 SWAP1 PUSH2 0x8E5 JUMP JUMPDEST PUSH2 0x1D2 JUMP JUMPDEST DUP4 PUSH2 0x1D1 SWAP1 PUSH2 0x8E5 JUMP JUMPDEST JUMPDEST SWAP1 POP PUSH1 0x0 DUP1 DUP4 PUSH20 0xFFFFFFFFFFFFFFFFFFFFFFFFFFFFFFFFFFFFFFFF AND PUSH4 0x3850C7BD PUSH1 0x40 MLOAD DUP2 PUSH4 0xFFFFFFFF AND PUSH1 0xE0 SHL DUP2 MSTORE PUSH1 0x4 ADD PUSH1 0x40 DUP1 MLOAD DUP1 DUP4 SUB DUP2 DUP7 GAS STATICCALL ISZERO DUP1 ISZERO PUSH2 0x221 JUMPI RETURNDATASIZE PUSH1 0x0 DUP1 RETURNDATACOPY RETURNDATASIZE PUSH1 0x0 REVERT JUMPDEST POP POP POP POP PUSH1 0x40 MLOAD RETURNDATASIZE PUSH1 0x1F NOT PUSH1 0x1F DUP3 ADD AND DUP3 ADD DUP1 PUSH1 0x40 MSTORE POP DUP2 ADD SWAP1 PUSH2 0x245 SWAP2 SWAP1 PUSH2 0x92D JUMP JUMPDEST SWAP2 POP SWAP2 POP PUSH1 0x40 MLOAD DUP4 DUP2 MSTORE DUP3 PUSH1 0x20 DUP3 ADD MSTORE DUP2 PUSH1 0x40 DUP3 ADD MSTORE PUSH1 0x60 DUP2 REVERT JUMPDEST PUSH1 0x0 PUSH1 0x40 MLOAD SWAP1 POP SWAP1 JUMP JUMPDEST PUSH1 0x0 DUP1 REVERT JUMPDEST PUSH1 0x0 DUP1 REVERT JUMPDEST PUSH1 0x0 DUP1 REVERT JUMPDEST PUSH1 0x0 PUSH1 0x1F NOT PUSH1 0x1F DUP4 ADD AND SWAP1 POP SWAP2 SWAP1 POP JUMP JUMPDEST PUSH32 0x4E487B7100000000000000000000000000000000000000000000000000000000 PUSH1 0x0 MSTORE PUSH1 0x41 PUSH1 0x4 MSTORE PUSH1 0x24 PUSH1 0x0 REVERT JUMPDEST PUSH2 0x2C2 DUP3 PUSH2 0x279 JUMP JUMPDEST DUP2 ADD DUP2 DUP2 LT PUSH8 0xFFFFFFFFFFFFFFFF DUP3 GT OR ISZERO PUSH2 0x2E1 JUMPI PUSH2 0x2E0 PUSH2 0x28A JUMP JUMPDEST JUMPDEST DUP1 PUSH1 0x40 MSTORE POP POP POP JUMP JUMPDEST PUSH1 0x0 PUSH2 0x2F4 PUSH2 0x260 JUMP JUMPDEST SWAP1 POP PUSH2 0x300 DUP3 DUP3 PUSH2 0x2B9 JUMP JUMPDEST SWAP2 SWAP1 POP JUMP JUMPDEST PUSH1 0x0 PUSH20 0xFFFFFFFFFFFFFFFFFFFFFFFFFFFFFFFFFFFFFFFF DUP3 AND SWAP1 POP SWAP2 SWAP1 POP JUMP JUMPDEST PUSH1 0x0 PUSH2 0x330 DUP3 PUSH2 0x305 JUMP JUMPDEST SWAP1 POP SWAP2 SWAP1 POP JUMP JUMPDEST PUSH2 0x340 DUP2 PUSH2 0x325 JUMP JUMPDEST DUP2 EQ PUSH2 0x34B JUMPI PUSH1 0x0 DUP1 REVERT JUMPDEST POP JUMP JUMPDEST PUSH1 0x0 DUP2 CALLDATALOAD SWAP1 POP PUSH2 0x35D DUP2 PUSH2 0x337 JUMP JUMPDEST SWAP3 SWAP2 POP POP JUMP JUMPDEST PUSH1 0x0 DUP2 SWAP1 POP SWAP2 SWAP1 POP JUMP JUMPDEST PUSH2 0x376 DUP2 PUSH2 0x363 JUMP JUMPDEST DUP2 EQ PUSH2 0x381 JUMPI PUSH1 0x0 DUP1 REVERT JUMPDEST POP JUMP JUMPDEST PUSH1 0x0 DUP2 CALLDATALOAD SWAP1 POP PUSH2 0x393 DUP2 PUSH2 0x36D JUMP JUMPDEST SWAP3 SWAP2 POP POP JUMP JUMPDEST PUSH1 0x0 DUP2 ISZERO ISZERO SWAP1 POP SWAP2 SWAP1 POP JUMP JUMPDEST PUSH2 0x3AE DUP2 PUSH2 0x399 JUMP JUMPDEST DUP2 EQ PUSH2 0x3B9 JUMPI PUSH1 0x0 DUP1 REVERT JUMPDEST POP JUMP JUMPDEST PUSH1 0x0 DUP2 CALLDATALOAD SWAP1 POP PUSH2 0x3CB DUP2 PUSH2 0x3A5 JUMP JUMPDEST SWAP3 SWAP2 POP POP JUMP JUMPDEST PUSH1 0x0 PUSH1 0x60 DUP3 DUP5 SUB SLT ISZERO PUSH2 0x3E7 JUMPI PUSH2 0x3E6 PUSH2 0x274 JUMP JUMPDEST JUMPDEST PUSH2 0x3F1 PUSH1 0x60 PUSH2 0x2EA JUMP JUMPDEST SWAP1 POP PUSH1 0x0 PUSH2 0x401 DUP5 DUP3 DUP6 ADD PUSH2 0x34E JUMP JUMPDEST PUSH1 0x0 DUP4 ADD MSTORE POP PUSH1 0x20 PUSH2 0x415 DUP5 DUP3 DUP6 ADD PUSH2 0x384 JUMP JUMPDEST PUSH1 0x20 DUP4 ADD MSTORE POP PUSH1 0x40 PUSH2 0x429 DUP5 DUP3 DUP6 ADD PUSH2 0x3BC JUMP JUMPDEST PUSH1 0x40 DUP4 ADD MSTORE POP SWAP3 SWAP2 POP POP JUMP JUMPDEST PUSH1 0x0 PUSH1 0x60 DUP3 DUP5 SUB SLT ISZERO PUSH2 0x44B JUMPI PUSH2 0x44A PUSH2 0x26A JUMP JUMPDEST JUMPDEST PUSH1 0x0 PUSH2 0x459 DUP5 DUP3 DUP6 ADD PUSH2 0x3D1 JUMP JUMPDEST SWAP2 POP POP SWAP3 SWAP2 POP POP JUMP JUMPDEST PUSH2 0x46B DUP2 PUSH2 0x363 JUMP JUMPDEST DUP3 MSTORE POP POP JUMP JUMPDEST PUSH2 0x47A DUP2 PUSH2 0x305 JUMP JUMPDEST DUP3 MSTORE POP POP JUMP JUMPDEST PUSH1 0x0 DUP2 PUSH1 0x2 SIGNEXTEND SWAP1 POP SWAP2 SWAP1 POP JUMP JUMPDEST PUSH2 0x496 DUP2 PUSH2 0x480 JUMP JUMPDEST DUP3 MSTORE POP POP JUMP JUMPDEST PUSH1 0x0 PUSH1 0x60 DUP3 ADD SWAP1 POP PUSH2 0x4B1 PUSH1 0x0 DUP4 ADD DUP7 PUSH2 0x462 JUMP JUMPDEST PUSH2 0x4BE PUSH1 0x20 DUP4 ADD DUP6 PUSH2 0x471 JUMP JUMPDEST PUSH2 0x4CB PUSH1 0x40 DUP4 ADD DUP5 PUSH2 0x48D JUMP JUMPDEST SWAP5 SWAP4 POP POP POP POP JUMP JUMPDEST PUSH1 0x0 DUP2 SWAP1 POP SWAP2 SWAP1 POP JUMP JUMPDEST PUSH2 0x4E6 DUP2 PUSH2 0x4D3 JUMP JUMPDEST DUP2 EQ PUSH2 0x4F1 JUMPI PUSH1 0x0 DUP1 REVERT JUMPDEST POP JUMP JUMPDEST PUSH1 0x0 DUP2 CALLDATALOAD SWAP1 POP PUSH2 0x503 DUP2 PUSH2 0x4DD JUMP JUMPDEST SWAP3 SWAP2 POP POP JUMP JUMPDEST PUSH1 0x0 DUP1 REVERT JUMPDEST PUSH1 0x0 DUP1 REVERT JUMPDEST PUSH1 0x0 PUSH8 0xFFFFFFFFFFFFFFFF DUP3 GT ISZERO PUSH2 0x52E JUMPI PUSH2 0x52D PUSH2 0x28A JUMP JUMPDEST JUMPDEST PUSH2 0x537 DUP3 PUSH2 0x279 JUMP JUMPDEST SWAP1 POP PUSH1 0x20 DUP2 ADD SWAP1 POP SWAP2 SWAP1 POP JUMP JUMPDEST DUP3 DUP2 DUP4 CALLDATACOPY PUSH1 0x0 DUP4 DUP4 ADD MSTORE POP POP POP JUMP JUMPDEST PUSH1 0x0 PUSH2 0x566 PUSH2 0x561 DUP5 PUSH2 0x513 JUMP JUMPDEST PUSH2 0x2EA JUMP JUMPDEST SWAP1 POP DUP3 DUP2 MSTORE PUSH1 0x20 DUP2 ADD DUP5 DUP5 DUP5 ADD GT ISZERO PUSH2 0x582 JUMPI PUSH2 0x581 PUSH2 0x50E JUMP JUMPDEST JUMPDEST PUSH2 0x58D DUP5 DUP3 DUP6 PUSH2 0x544 JUMP JUMPDEST POP SWAP4 SWAP3 POP POP POP JUMP JUMPDEST PUSH1 0x0 DUP3 PUSH1 0x1F DUP4 ADD SLT PUSH2 0x5AA JUMPI PUSH2 0x5A9 PUSH2 0x509 JUMP JUMPDEST JUMPDEST DUP2 CALLDATALOAD PUSH2 0x5BA DUP5 DUP3 PUSH1 0x20 DUP7 ADD PUSH2 0x553 JUMP JUMPDEST SWAP2 POP POP SWAP3 SWAP2 POP POP JUMP JUMPDEST PUSH1 0x0 DUP1 PUSH1 0x0 PUSH1 0x60 DUP5 DUP7 SUB SLT ISZERO PUSH2 0x5DC JUMPI PUSH2 0x5DB PUSH2 0x26A JUMP JUMPDEST JUMPDEST PUSH1 0x0 PUSH2 0x5EA DUP7 DUP3 DUP8 ADD PUSH2 0x4F4 JUMP JUMPDEST SWAP4 POP POP PUSH1 0x20 PUSH2 0x5FB DUP7 DUP3 DUP8 ADD PUSH2 0x4F4 JUMP JUMPDEST SWAP3 POP POP PUSH1 0x40 DUP5 ADD CALLDATALOAD PUSH8 0xFFFFFFFFFFFFFFFF DUP2 GT ISZERO PUSH2 0x61C JUMPI PUSH2 0x61B PUSH2 0x26F JUMP JUMPDEST JUMPDEST PUSH2 0x628 DUP7 DUP3 DUP8 ADD PUSH2 0x595 JUMP JUMPDEST SWAP2 POP POP SWAP3 POP SWAP3 POP SWAP3 JUMP JUMPDEST PUSH2 0x63B DUP2 PUSH2 0x325 JUMP JUMPDEST DUP3 MSTORE POP POP JUMP JUMPDEST PUSH1 0x0 PUSH1 0x20 DUP3 ADD SWAP1 POP PUSH2 0x656 PUSH1 0x0 DUP4 ADD DUP5 PUSH2 0x632 JUMP JUMPDEST SWAP3 SWAP2 POP POP JUMP JUMPDEST PUSH2 0x665 DUP2 PUSH2 0x399 JUMP JUMPDEST DUP3 MSTORE POP POP JUMP JUMPDEST PUSH1 0x0 DUP2 MLOAD SWAP1 POP SWAP2 SWAP1 POP JUMP JUMPDEST PUSH1 0x0 DUP3 DUP3 MSTORE PUSH1 0x20 DUP3 ADD SWAP1 POP SWAP3 SWAP2 POP POP JUMP JUMPDEST PUSH1 0x0 JUMPDEST DUP4 DUP2 LT ISZERO PUSH2 0x6A5 JUMPI DUP1 DUP3 ADD MLOAD DUP2 DUP5 ADD MSTORE PUSH1 0x20 DUP2 ADD SWAP1 POP PUSH2 0x68A JUMP JUMPDEST PUSH1 0x0 DUP5 DUP5 ADD MSTORE POP POP POP POP JUMP JUMPDEST PUSH1 0x0 PUSH2 0x6BC DUP3 PUSH2 0x66B JUMP JUMPDEST PUSH2 0x6C6 DUP2 DUP6 PUSH2 0x676 JUMP JUMPDEST SWAP4 POP PUSH2 0x6D6 DUP2 DUP6 PUSH1 0x20 DUP7 ADD PUSH2 0x687 JUMP JUMPDEST PUSH2 0x6DF DUP2 PUSH2 0x279 JUMP JUMPDEST DUP5 ADD SWAP2 POP POP SWAP3 SWAP2 POP POP JUMP JUMPDEST PUSH1 0x0 PUSH1 0x80 DUP3 ADD SWAP1 POP PUSH2 0x6FF PUSH1 0x0 DUP4 ADD DUP8 PUSH2 0x632 JUMP JUMPDEST PUSH2 0x70C PUSH1 0x20 DUP4 ADD DUP7 PUSH2 0x65C JUMP JUMPDEST PUSH2 0x719 PUSH1 0x40 DUP4 ADD DUP6 PUSH2 0x462 JUMP JUMPDEST DUP2 DUP2 SUB PUSH1 0x60 DUP4 ADD MSTORE PUSH2 0x72B DUP2 DUP5 PUSH2 0x6B1 JUMP JUMPDEST SWAP1 POP SWAP6 SWAP5 POP POP POP POP POP JUMP JUMPDEST PUSH1 0x0 DUP2 MLOAD SWAP1 POP PUSH2 0x745 DUP2 PUSH2 0x4DD JUMP JUMPDEST SWAP3 SWAP2 POP POP JUMP JUMPDEST PUSH1 0x0 DUP1 PUSH1 0x40 DUP4 DUP6 SUB SLT ISZERO PUSH2 0x762 JUMPI PUSH2 0x761 PUSH2 0x26A JUMP JUMPDEST JUMPDEST PUSH1 0x0 PUSH2 0x770 DUP6 DUP3 DUP7 ADD PUSH2 0x736 JUMP JUMPDEST SWAP3 POP POP PUSH1 0x20 PUSH2 0x781 DUP6 DUP3 DUP7 ADD PUSH2 0x736 JUMP JUMPDEST SWAP2 POP POP SWAP3 POP SWAP3 SWAP1 POP JUMP JUMPDEST PUSH1 0x0 DUP2 MLOAD SWAP1 POP PUSH2 0x79A DUP2 PUSH2 0x36D JUMP JUMPDEST SWAP3 SWAP2 POP POP JUMP JUMPDEST PUSH2 0x7A9 DUP2 PUSH2 0x305 JUMP JUMPDEST DUP2 EQ PUSH2 0x7B4 JUMPI PUSH1 0x0 DUP1 REVERT JUMPDEST POP JUMP JUMPDEST PUSH1 0x0 DUP2 MLOAD SWAP1 POP PUSH2 0x7C6 DUP2 PUSH2 0x7A0 JUMP JUMPDEST SWAP3 SWAP2 POP POP JUMP JUMPDEST PUSH2 0x7D5 DUP2 PUSH2 0x480 JUMP JUMPDEST DUP2 EQ PUSH2 0x7E0 JUMPI PUSH1 0x0 DUP1 REVERT JUMPDEST POP JUMP JUMPDEST PUSH1 0x0 DUP2 MLOAD SWAP1 POP PUSH2 0x7F2 DUP2 PUSH2 0x7CC JUMP JUMPDEST SWAP3 SWAP2 POP POP JUMP JUMPDEST PUSH1 0x0 DUP1 PUSH1 0x0 PUSH1 0x60 DUP5 DUP7 SUB SLT ISZERO PUSH2 0x811 JUMPI PUSH2 0x810 PUSH2 0x26A JUMP JUMPDEST JUMPDEST PUSH1 0x0 PUSH2 0x81F DUP7 DUP3 DUP8 ADD PUSH2 0x78B JUMP JUMPDEST SWAP4 POP POP PUSH1 0x20 PUSH2 0x830 DUP7 DUP3 DUP8 ADD PUSH2 0x7B7 JUMP JUMPDEST SWAP3 POP POP PUSH1 0x40 PUSH2 0x841 DUP7 DUP3 DUP8 ADD PUSH2 0x7E3 JUMP JUMPDEST SWAP2 POP POP SWAP3 POP SWAP3 POP SWAP3 JUMP JUMPDEST PUSH1 0x0 PUSH2 0x856 DUP3 PUSH2 0x305 JUMP JUMPDEST SWAP1 POP SWAP2 SWAP1 POP JUMP JUMPDEST PUSH2 0x866 DUP2 PUSH2 0x84B JUMP JUMPDEST DUP2 EQ PUSH2 0x871 JUMPI PUSH1 0x0 DUP1 REVERT JUMPDEST POP JUMP JUMPDEST PUSH1 0x0 DUP2 MLOAD SWAP1 POP PUSH2 0x883 DUP2 PUSH2 0x85D JUMP JUMPDEST SWAP3 SWAP2 POP POP JUMP JUMPDEST PUSH1 0x0 PUSH1 0x20 DUP3 DUP5 SUB SLT ISZERO PUSH2 0x89F JUMPI PUSH2 0x89E PUSH2 0x26A JUMP JUMPDEST JUMPDEST PUSH1 0x0 PUSH2 0x8AD DUP5 DUP3 DUP6 ADD PUSH2 0x874 JUMP JUMPDEST SWAP2 POP POP SWAP3 SWAP2 POP POP JUMP JUMPDEST PUSH32 0x4E487B7100000000000000000000000000000000000000000000000000000000 PUSH1 0x0 MSTORE PUSH1 0x11 PUSH1 0x4 MSTORE PUSH1 0x24 PUSH1 0x0 REVERT JUMPDEST PUSH1 0x0 PUSH2 0x8F0 DUP3 PUSH2 0x4D3 JUMP JUMPDEST SWAP2 POP PUSH32 0x8000000000000000000000000000000000000000000000000000000000000000 DUP3 SUB PUSH2 0x922 JUMPI PUSH2 0x921 PUSH2 0x8B6 JUMP JUMPDEST JUMPDEST DUP2 PUSH1 0x0 SUB SWAP1 POP SWAP2 SWAP1 POP JUMP JUMPDEST PUSH1 0x0 DUP1 PUSH1 0x40 DUP4 DUP6 SUB SLT ISZERO PUSH2 0x944 JUMPI PUSH2 0x943 PUSH2 0x26A JUMP JUMPDEST JUMPDEST PUSH1 0x0 PUSH2 0x952 DUP6 DUP3 DUP7 ADD PUSH2 0x7B7 JUMP JUMPDEST SWAP3 POP POP PUSH1 0x20 PUSH2 0x963 DUP6 DUP3 DUP7 ADD PUSH2 0x7E3 JUMP JUMPDEST SWAP2 POP POP SWAP3 POP SWAP3 SWAP1 POP JUMP INVALID LOG2 PUSH5 0x6970667358 0x22 SLT KECCAK256 CALLER 0x23 DUP10 TLOAD PUSH25 0x6F58007AEEB2C205B25507BEE10A3ABAC0220F4F4DF7E51DC4 DUP6 0x4D PUSH5 0x736F6C6343 STOP ADDMOD BYTE STOP CALLER "
		},
		"gasEstimates": {
			"creation": {
				"codeDepositCost": "493400",
				"executionCost": "530",
				"totalCost": "493930"
			},
			"external": {
				"quote((address,uint256,bool))": "infinite",
				"uniswapV3SwapCallback(int256,int256,bytes)": "infinite"
			}
		},
		"methodIdentifiers": {
			"quote((address,uint256,bool))": "5af288b1",
			"uniswapV3SwapCallback(int256,int256,bytes)": "fa461e33"
		}
	},
	"abi": [
		{
			"inputs": [
				{
					"components": [
						{
							"internalType": "address",
							"name": "pool",
							"type": "address"
						},
						{
							"internalType": "uint256",
							"name": "amountIn",
							"type": "uint256"
						},
						{
							"internalType": "bool",
							"name": "zeroForOne",
							"type": "bool"
						}
					],
					"internalType": "struct UniswapV3Quoter.QuoteParams",
					"name": "params",
					"type": "tuple"
				}
			],
			"name": "quote",
			"outputs": [
				{
					"internalType": "uint256",
					"name": "amountOut",
					"type": "uint256"
				},
				{
					"internalType": "uint160",
					"name": "sqrtPriceX96After",
					"type": "uint160"
				},
				{
					"internalType": "int24",
					"name": "tickAfter",
					"type": "int24"
				}
			],
			"stateMutability": "nonpayable",
			"type": "function"
		},
		{
			"inputs": [
				{
					"internalType": "int256",
					"name": "amount0Delta",
					"type": "int256"
				},
				{
					"internalType": "int256",
					"name": "amount1Delta",
					"type": "int256"
				},
				{
					"internalType": "bytes",
					"name": "data",
					"type": "bytes"
				}
			],
			"name": "uniswapV3SwapCallback",
			"outputs": [],
			"stateMutability": "view",
			"type": "function"
		}
	]
}