{
	"UniswapV3Pool.sol": {
		"UniswapV3Pool": {
			"abi": [
				{
					"inputs": [
						{
							"internalType": "address",
							"name": "token0_",
							"type": "address"
						},
						{
							"internalType": "address",
							"name": "token1_",
							"type": "address"
						},
						{
							"internalType": "uint160",
							"name": "sqrtPriceX96",
							"type": "uint160"
						},
						{
							"internalType": "int24",
							"name": "tick",
							"type": "int24"
						}
					],
					"stateMutability": "nonpayable",
					"type": "constructor"
				},
				{
					"inputs": [],
					"name": "InsufficientInputAmount",
					"type": "error"
				},
				{
					"inputs": [],
					"name": "InvalidTickRange",
					"type": "error"
				},
				{
					"inputs": [],
					"name": "ZeroLiquidity",
					"type": "error"
				},
				{
					"anonymous": false,
					"inputs": [
						{
							"indexed": false,
							"internalType": "address",
							"name": "sender",
							"type": "address"
						},
						{
							"indexed": true,
							"internalType": "address",
							"name": "owner",
							"type": "address"
						},
						{
							"indexed": true,
							"internalType": "int24",
							"name": "tickLower",
							"type": "int24"
						},
						{
							"indexed": true,
							"internalType": "int24",
							"name": "tickUpper",
							"type": "int24"
						},
						{
							"indexed": false,
							"internalType": "uint128",
							"name": "amount",
							"type": "uint128"
						},
						{
							"indexed": false,
							"internalType": "uint256",
							"name": "amount0",
							"type": "uint256"
						},
						{
							"indexed": false,
							"internalType": "uint256",
							"name": "amount1",
							"type": "uint256"
						}
					],
					"name": "Mint",
					"type": "event"
				},
				{
					"anonymous": false,
					"inputs": [
						{
							"indexed": true,
							"internalType": "address",
							"name": "sender",
							"type": "address"
						},
						{
							"indexed": true,
							"internalType": "address",
							"name": "recipient",
							"type": "address"
						},
						{
							"indexed": false,
							"internalType": "int256",
							"name": "amount0",
							"type": "int256"
						},
						{
							"indexed": false,
							"internalType": "int256",
							"name": "amount1",
							"type": "int256"
						},
						{
							"indexed": false,
							"internalType": "uint160",
							"name": "sqrtPriceX96",
							"type": "uint160"
						},
						{
							"indexed": false,
							"internalType": "uint128",
							"name": "liquidity",
							"type": "uint128"
						},
						{
							"indexed": false,
							"internalType": "int24",
							"name": "tick",
							"type": "int24"
						}
					],
					"name": "Swap",
					"type": "event"
				},
				{
					"inputs": [],
					"name": "liquidity",
					"outputs": [
						{
							"internalType": "uint128",
							"name": "",
							"type": "uint128"
						}
					],
					"stateMutability": "view",
					"type": "function"
				},
				{
					"inputs": [
						{
							"internalType": "address",
							"name": "owner",
							"type": "address"
						},
						{
							"internalType": "int24",
							"name": "lowerTick",
							"type": "int24"
						},
						{
							"internalType": "int24",
							"name": "upperTick",
							"type": "int24"
						},
						{
							"internalType": "uint128",
							"name": "amount",
							"type": "uint128"
						},
						{
							"internalType": "bytes",
							"name": "data",
							"type": "bytes"
						}
					],
					"name": "mint",
					"outputs": [
						{
							"internalType": "uint256",
							"name": "amount0",
							"type": "uint256"
						},
						{
							"internalType": "uint256",
							"name": "amount1",
							"type": "uint256"
						}
					],
					"stateMutability": "nonpayable",
					"type": "function"
				},
				{
					"inputs": [
						{
							"internalType": "bytes32",
							"name": "",
							"type": "bytes32"
						}
					],
					"name": "positions",
					"outputs": [
						{
							"internalType": "uint128",
							"name": "liquidity",
							"type": "uint128"
						}
					],
					"stateMutability": "view",
					"type": "function"
				},
				{
					"inputs": [],
					"name": "slot0",
					"outputs": [
						{
							"internalType": "uint160",
							"name": "sqrtPriceX96",
							"type": "uint160"
						},
						{
							"internalType": "int24",
							"name": "tick",
							"type": "int24"
						}
					],
					"stateMutability": "view",
					"type": "function"
				},
				{
					"inputs": [
						{
							"internalType": "address",
							"name": "recipient",
							"type": "address"
						},
						{
							"internalType": "bytes",
							"name": "data",
							"type": "bytes"
						}
					],
					"name": "swap",
					"outputs": [
						{
							"internalType": "int256",
							"name": "amount0",
							"type": "int256"
						},
						{
							"internalType": "int256",
							"name": "amount1",
							"type": "int256"
						}
					],
					"stateMutability": "nonpayable",
					"type": "function"
				},
				{
					"inputs": [
						{
							"internalType": "int24",
							"name": "",
							"type": "int24"
						}
					],
					"name": "ticks",
					"outputs": [
						{
							"internalType": "bool",
							"name": "initialized",
							"type": "bool"
						},
						{
							"internalType": "uint128",
							"name": "liquidity",
							"type": "uint128"
						}
					],
					"stateMutability": "view",
					"type": "function"
				},
				{
					"inputs": [],
					"name": "token0",
					"outputs": [
						{
							"internalType": "address",
							"name": "",
							"type": "address"
						}
					],
					"stateMutability": "view",
					"type": "function"
				},
				{
					"inputs": [],
					"name": "token1",
					"outputs": [
						{
							"internalType": "address",
							"name": "",
							"type": "address"
						}
					],
					"stateMutability": "view",
					"type": "function"
				}
			],
			"devdoc": {
				"kind": "dev",
				"methods": {},
				"version": 1
			},
			"evm": {
				"assembly": "    /* \"UniswapV3Pool.sol\":268:5027  contract UniswapV3Pool {... */\n  mstore(0x40, 0xc0)\n    /* \"UniswapV3Pool.sol\":1741:1994  constructor(... */\n  callvalue\n  dup1\n  iszero\n  tag_1\n  jumpi\n  0x00\n  dup1\n  revert\ntag_1:\n  pop\n  mload(0x40)\n  sub(codesize, bytecodeSize)\n  dup1\n  bytecodeSize\n  dup4\n  codecopy\n  dup2\n  dup2\n  add\n  0x40\n  mstore\n  dup2\n  add\n  swap1\n  tag_2\n  swap2\n  swap1\n  tag_3\n  jump\t// in\ntag_2:\n    /* \"UniswapV3Pool.sol\":1884:1891  token0_ */\n  dup4\n    /* \"UniswapV3Pool.sol\":1875:1891  token0 = token0_ */\n  0xffffffffffffffffffffffffffffffffffffffff\n  and\n  0x80\n  dup2\n  0xffffffffffffffffffffffffffffffffffffffff\n  and\n  dup2\n  mstore\n  pop\n  pop\n    /* \"UniswapV3Pool.sol\":1911:1918  token1_ */\n  dup3\n    /* \"UniswapV3Pool.sol\":1902:1918  token1 = token1_ */\n  0xffffffffffffffffffffffffffffffffffffffff\n  and\n  0xa0\n  dup2\n  0xffffffffffffffffffffffffffffffffffffffff\n  and\n  dup2\n  mstore\n  pop\n  pop\n    /* \"UniswapV3Pool.sol\":1939:1986  Slot0({sqrtPriceX96: sqrtPriceX96, tick: tick}) */\n  mload(0x40)\n  dup1\n  0x40\n  add\n  0x40\n  mstore\n  dup1\n    /* \"UniswapV3Pool.sol\":1960:1972  sqrtPriceX96 */\n  dup4\n    /* \"UniswapV3Pool.sol\":1939:1986  Slot0({sqrtPriceX96: sqrtPriceX96, tick: tick}) */\n  0xffffffffffffffffffffffffffffffffffffffff\n  and\n  dup2\n  mstore\n  0x20\n  add\n    /* \"UniswapV3Pool.sol\":1980:1984  tick */\n  dup3\n    /* \"UniswapV3Pool.sol\":1939:1986  Slot0({sqrtPriceX96: sqrtPriceX96, tick: tick}) */\n  0x02\n  signextend\n  dup2\n  mstore\n  pop\n    /* \"UniswapV3Pool.sol\":1931:1936  slot0 */\n  0x00\n    /* \"UniswapV3Pool.sol\":1931:1986  slot0 = Slot0({sqrtPriceX96: sqrtPriceX96, tick: tick}) */\n  dup1\n  dup3\n  add\n  mload\n  dup2\n  0x00\n  add\n  exp(0x0100, 0x00)\n  dup2\n  sload\n  dup2\n  0xffffffffffffffffffffffffffffffffffffffff\n  mul\n  not\n  and\n  swap1\n  dup4\n  0xffffffffffffffffffffffffffffffffffffffff\n  and\n  mul\n  or\n  swap1\n  sstore\n  pop\n  0x20\n  dup3\n  add\n  mload\n  dup2\n  0x00\n  add\n  exp(0x0100, 0x14)\n  dup2\n  sload\n  dup2\n  0xffffff\n  mul\n  not\n  and\n  swap1\n  dup4\n  0x02\n  signextend\n  0xffffff\n  and\n  mul\n  or\n  swap1\n  sstore\n  pop\n  swap1\n  pop\n  pop\n    /* \"UniswapV3Pool.sol\":1741:1994  constructor(... */\n  pop\n  pop\n  pop\n  pop\n    /* \"UniswapV3Pool.sol\":268:5027  contract UniswapV3Pool {... */\n  jump(tag_6)\n    /* \"#utility.yul\":88:205   */\ntag_8:\n    /* \"#utility.yul\":197:198   */\n  0x00\n    /* \"#utility.yul\":194:195   */\n  dup1\n    /* \"#utility.yul\":187:199   */\n  revert\n    /* \"#utility.yul\":334:460   */\ntag_10:\n    /* \"#utility.yul\":371:378   */\n  0x00\n    /* \"#utility.yul\":411:453   */\n  0xffffffffffffffffffffffffffffffffffffffff\n    /* \"#utility.yul\":404:409   */\n  dup3\n    /* \"#utility.yul\":400:454   */\n  and\n    /* \"#utility.yul\":389:454   */\n  swap1\n  pop\n    /* \"#utility.yul\":334:460   */\n  swap2\n  swap1\n  pop\n  jump\t// out\n    /* \"#utility.yul\":466:562   */\ntag_11:\n    /* \"#utility.yul\":503:510   */\n  0x00\n    /* \"#utility.yul\":532:556   */\n  tag_25\n    /* \"#utility.yul\":550:555   */\n  dup3\n    /* \"#utility.yul\":532:556   */\n  tag_10\n  jump\t// in\ntag_25:\n    /* \"#utility.yul\":521:556   */\n  swap1\n  pop\n    /* \"#utility.yul\":466:562   */\n  swap2\n  swap1\n  pop\n  jump\t// out\n    /* \"#utility.yul\":568:690   */\ntag_12:\n    /* \"#utility.yul\":641:665   */\n  tag_27\n    /* \"#utility.yul\":659:664   */\n  dup2\n    /* \"#utility.yul\":641:665   */\n  tag_11\n  jump\t// in\ntag_27:\n    /* \"#utility.yul\":634:639   */\n  dup2\n    /* \"#utility.yul\":631:666   */\n  eq\n    /* \"#utility.yul\":621:684   */\n  tag_28\n  jumpi\n    /* \"#utility.yul\":680:681   */\n  0x00\n    /* \"#utility.yul\":677:678   */\n  dup1\n    /* \"#utility.yul\":670:682   */\n  revert\n    /* \"#utility.yul\":621:684   */\ntag_28:\n    /* \"#utility.yul\":568:690   */\n  pop\n  jump\t// out\n    /* \"#utility.yul\":696:839   */\ntag_13:\n    /* \"#utility.yul\":753:758   */\n  0x00\n    /* \"#utility.yul\":784:790   */\n  dup2\n    /* \"#utility.yul\":778:791   */\n  mload\n    /* \"#utility.yul\":769:791   */\n  swap1\n  pop\n    /* \"#utility.yul\":800:833   */\n  tag_30\n    /* \"#utility.yul\":827:832   */\n  dup2\n    /* \"#utility.yul\":800:833   */\n  tag_12\n  jump\t// in\ntag_30:\n    /* \"#utility.yul\":696:839   */\n  swap3\n  swap2\n  pop\n  pop\n  jump\t// out\n    /* \"#utility.yul\":845:967   */\ntag_14:\n    /* \"#utility.yul\":918:942   */\n  tag_32\n    /* \"#utility.yul\":936:941   */\n  dup2\n    /* \"#utility.yul\":918:942   */\n  tag_10\n  jump\t// in\ntag_32:\n    /* \"#utility.yul\":911:916   */\n  dup2\n    /* \"#utility.yul\":908:943   */\n  eq\n    /* \"#utility.yul\":898:961   */\n  tag_33\n  jumpi\n    /* \"#utility.yul\":957:958   */\n  0x00\n    /* \"#utility.yul\":954:955   */\n  dup1\n    /* \"#utility.yul\":947:959   */\n  revert\n    /* \"#utility.yul\":898:961   */\ntag_33:\n    /* \"#utility.yul\":845:967   */\n  pop\n  jump\t// out\n    /* \"#utility.yul\":973:1116   */\ntag_15:\n    /* \"#utility.yul\":1030:1035   */\n  0x00\n    /* \"#utility.yul\":1061:1067   */\n  dup2\n    /* \"#utility.yul\":1055:1068   */\n  mload\n    /* \"#utility.yul\":1046:1068   */\n  swap1\n  pop\n    /* \"#utility.yul\":1077:1110   */\n  tag_35\n    /* \"#utility.yul\":1104:1109   */\n  dup2\n    /* \"#utility.yul\":1077:1110   */\n  tag_14\n  jump\t// in\ntag_35:\n    /* \"#utility.yul\":973:1116   */\n  swap3\n  swap2\n  pop\n  pop\n  jump\t// out\n    /* \"#utility.yul\":1122:1212   */\ntag_16:\n    /* \"#utility.yul\":1157:1164   */\n  0x00\n    /* \"#utility.yul\":1200:1205   */\n  dup2\n    /* \"#utility.yul\":1197:1198   */\n  0x02\n    /* \"#utility.yul\":1186:1206   */\n  signextend\n    /* \"#utility.yul\":1175:1206   */\n  swap1\n  pop\n    /* \"#utility.yul\":1122:1212   */\n  swap2\n  swap1\n  pop\n  jump\t// out\n    /* \"#utility.yul\":1218:1336   */\ntag_17:\n    /* \"#utility.yul\":1289:1311   */\n  tag_38\n    /* \"#utility.yul\":1305:1310   */\n  dup2\n    /* \"#utility.yul\":1289:1311   */\n  tag_16\n  jump\t// in\ntag_38:\n    /* \"#utility.yul\":1282:1287   */\n  dup2\n    /* \"#utility.yul\":1279:1312   */\n  eq\n    /* \"#utility.yul\":1269:1330   */\n  tag_39\n  jumpi\n    /* \"#utility.yul\":1326:1327   */\n  0x00\n    /* \"#utility.yul\":1323:1324   */\n  dup1\n    /* \"#utility.yul\":1316:1328   */\n  revert\n    /* \"#utility.yul\":1269:1330   */\ntag_39:\n    /* \"#utility.yul\":1218:1336   */\n  pop\n  jump\t// out\n    /* \"#utility.yul\":1342:1481   */\ntag_18:\n    /* \"#utility.yul\":1397:1402   */\n  0x00\n    /* \"#utility.yul\":1428:1434   */\n  dup2\n    /* \"#utility.yul\":1422:1435   */\n  mload\n    /* \"#utility.yul\":1413:1435   */\n  swap1\n  pop\n    /* \"#utility.yul\":1444:1475   */\n  tag_41\n    /* \"#utility.yul\":1469:1474   */\n  dup2\n    /* \"#utility.yul\":1444:1475   */\n  tag_17\n  jump\t// in\ntag_41:\n    /* \"#utility.yul\":1342:1481   */\n  swap3\n  swap2\n  pop\n  pop\n  jump\t// out\n    /* \"#utility.yul\":1487:2303   */\ntag_3:\n    /* \"#utility.yul\":1582:1588   */\n  0x00\n    /* \"#utility.yul\":1590:1596   */\n  dup1\n    /* \"#utility.yul\":1598:1604   */\n  0x00\n    /* \"#utility.yul\":1606:1612   */\n  dup1\n    /* \"#utility.yul\":1655:1658   */\n  0x80\n    /* \"#utility.yul\":1643:1652   */\n  dup6\n    /* \"#utility.yul\":1634:1641   */\n  dup8\n    /* \"#utility.yul\":1630:1653   */\n  sub\n    /* \"#utility.yul\":1626:1659   */\n  slt\n    /* \"#utility.yul\":1623:1743   */\n  iszero\n  tag_43\n  jumpi\n    /* \"#utility.yul\":1662:1741   */\n  tag_44\n  tag_8\n  jump\t// in\ntag_44:\n    /* \"#utility.yul\":1623:1743   */\ntag_43:\n    /* \"#utility.yul\":1782:1783   */\n  0x00\n    /* \"#utility.yul\":1807:1871   */\n  tag_45\n    /* \"#utility.yul\":1863:1870   */\n  dup8\n    /* \"#utility.yul\":1854:1860   */\n  dup3\n    /* \"#utility.yul\":1843:1852   */\n  dup9\n    /* \"#utility.yul\":1839:1861   */\n  add\n    /* \"#utility.yul\":1807:1871   */\n  tag_13\n  jump\t// in\ntag_45:\n    /* \"#utility.yul\":1797:1871   */\n  swap5\n  pop\n    /* \"#utility.yul\":1753:1881   */\n  pop\n    /* \"#utility.yul\":1920:1922   */\n  0x20\n    /* \"#utility.yul\":1946:2010   */\n  tag_46\n    /* \"#utility.yul\":2002:2009   */\n  dup8\n    /* \"#utility.yul\":1993:1999   */\n  dup3\n    /* \"#utility.yul\":1982:1991   */\n  dup9\n    /* \"#utility.yul\":1978:2000   */\n  add\n    /* \"#utility.yul\":1946:2010   */\n  tag_13\n  jump\t// in\ntag_46:\n    /* \"#utility.yul\":1936:2010   */\n  swap4\n  pop\n    /* \"#utility.yul\":1891:2020   */\n  pop\n    /* \"#utility.yul\":2059:2061   */\n  0x40\n    /* \"#utility.yul\":2085:2149   */\n  tag_47\n    /* \"#utility.yul\":2141:2148   */\n  dup8\n    /* \"#utility.yul\":2132:2138   */\n  dup3\n    /* \"#utility.yul\":2121:2130   */\n  dup9\n    /* \"#utility.yul\":2117:2139   */\n  add\n    /* \"#utility.yul\":2085:2149   */\n  tag_15\n  jump\t// in\ntag_47:\n    /* \"#utility.yul\":2075:2149   */\n  swap3\n  pop\n    /* \"#utility.yul\":2030:2159   */\n  pop\n    /* \"#utility.yul\":2198:2200   */\n  0x60\n    /* \"#utility.yul\":2224:2286   */\n  tag_48\n    /* \"#utility.yul\":2278:2285   */\n  dup8\n    /* \"#utility.yul\":2269:2275   */\n  dup3\n    /* \"#utility.yul\":2258:2267   */\n  dup9\n    /* \"#utility.yul\":2254:2276   */\n  add\n    /* \"#utility.yul\":2224:2286   */\n  tag_18\n  jump\t// in\ntag_48:\n    /* \"#utility.yul\":2214:2286   */\n  swap2\n  pop\n    /* \"#utility.yul\":2169:2296   */\n  pop\n    /* \"#utility.yul\":1487:2303   */\n  swap3\n  swap6\n  swap2\n  swap5\n  pop\n  swap3\n  pop\n  jump\t// out\n    /* \"UniswapV3Pool.sol\":268:5027  contract UniswapV3Pool {... */\ntag_6:\n  mload(0x80)\n  mload(0xa0)\n  codecopy(0x00, dataOffset(sub_0), dataSize(sub_0))\n  0x00\n  assignImmutable(\"0x55e55375928ba930386cf0b9e7ee301eaaa299564259b9c433c92363678f33d4\")\n  0x00\n  assignImmutable(\"0x6085f6f924f4d3289e6bd2dcf255c34b40082df304bec05239cb2746d1d3eb0d\")\n  return(0x00, dataSize(sub_0))\nstop\n\nsub_0: assembly {\n        /* \"UniswapV3Pool.sol\":268:5027  contract UniswapV3Pool {... */\n      mstore(0x40, 0x80)\n      callvalue\n      dup1\n      iszero\n      tag_1\n      jumpi\n      0x00\n      dup1\n      revert\n    tag_1:\n      pop\n      jumpi(tag_2, lt(calldatasize, 0x04))\n      shr(0xe0, calldataload(0x00))\n      dup1\n      0x514ea4bf\n      gt\n      tag_11\n      jumpi\n      dup1\n      0x514ea4bf\n      eq\n      tag_7\n      jumpi\n      dup1\n      0xd21220a7\n      eq\n      tag_8\n      jumpi\n      dup1\n      0xe3547335\n      eq\n      tag_9\n      jumpi\n      dup1\n      0xf30dba93\n      eq\n      tag_10\n      jumpi\n      jump(tag_2)\n    tag_11:\n      dup1\n      0x0dfe1681\n      eq\n      tag_3\n      jumpi\n      dup1\n      0x1a686502\n      eq\n      tag_4\n      jumpi\n      dup1\n      0x3850c7bd\n      eq\n      tag_5\n      jumpi\n      dup1\n      0x3c8a7d8d\n      eq\n      tag_6\n      jumpi\n    tag_2:\n      0x00\n      dup1\n      revert\n        /* \"UniswapV3Pool.sol\":1132:1163  address public immutable token0 */\n    tag_3:\n      tag_12\n      tag_13\n      jump\t// in\n    tag_12:\n      mload(0x40)\n      tag_14\n      swap2\n      swap1\n      tag_15\n      jump\t// in\n    tag_14:\n      mload(0x40)\n      dup1\n      swap2\n      sub\n      swap1\n      return\n        /* \"UniswapV3Pool.sol\":1560:1584  uint128 public liquidity */\n    tag_4:\n      tag_16\n      tag_17\n      jump\t// in\n    tag_16:\n      mload(0x40)\n      tag_18\n      swap2\n      swap1\n      tag_19\n      jump\t// in\n    tag_18:\n      mload(0x40)\n      dup1\n      swap2\n      sub\n      swap1\n      return\n        /* \"UniswapV3Pool.sol\":1501:1519  Slot0 public slot0 */\n    tag_5:\n      tag_20\n      tag_21\n      jump\t// in\n    tag_20:\n      mload(0x40)\n      tag_22\n      swap3\n      swap2\n      swap1\n      tag_23\n      jump\t// in\n    tag_22:\n      mload(0x40)\n      dup1\n      swap2\n      sub\n      swap1\n      return\n        /* \"UniswapV3Pool.sol\":2002:3613  function mint(... */\n    tag_6:\n      tag_24\n      0x04\n      dup1\n      calldatasize\n      sub\n      dup2\n      add\n      swap1\n      tag_25\n      swap2\n      swap1\n      tag_26\n      jump\t// in\n    tag_25:\n      tag_27\n      jump\t// in\n    tag_24:\n      mload(0x40)\n      tag_28\n      swap3\n      swap2\n      swap1\n      tag_29\n      jump\t// in\n    tag_28:\n      mload(0x40)\n      dup1\n      swap2\n      sub\n      swap1\n      return\n        /* \"UniswapV3Pool.sol\":1682:1732  mapping(bytes32 => Position.Info) public positions */\n    tag_7:\n      tag_30\n      0x04\n      dup1\n      calldatasize\n      sub\n      dup2\n      add\n      swap1\n      tag_31\n      swap2\n      swap1\n      tag_32\n      jump\t// in\n    tag_31:\n      tag_33\n      jump\t// in\n    tag_30:\n      mload(0x40)\n      tag_34\n      swap2\n      swap1\n      tag_19\n      jump\t// in\n    tag_34:\n      mload(0x40)\n      dup1\n      swap2\n      sub\n      swap1\n      return\n        /* \"UniswapV3Pool.sol\":1170:1201  address public immutable token1 */\n    tag_8:\n      tag_35\n      tag_36\n      jump\t// in\n    tag_35:\n      mload(0x40)\n      tag_37\n      swap2\n      swap1\n      tag_15\n      jump\t// in\n    tag_37:\n      mload(0x40)\n      dup1\n      swap2\n      sub\n      swap1\n      return\n        /* \"UniswapV3Pool.sol\":3621:4567  function swap(address recipient, bytes calldata data)... */\n    tag_9:\n      tag_38\n      0x04\n      dup1\n      calldatasize\n      sub\n      dup2\n      add\n      swap1\n      tag_39\n      swap2\n      swap1\n      tag_40\n      jump\t// in\n    tag_39:\n      tag_41\n      jump\t// in\n    tag_38:\n      mload(0x40)\n      tag_42\n      swap3\n      swap2\n      swap1\n      tag_43\n      jump\t// in\n    tag_42:\n      mload(0x40)\n      dup1\n      swap2\n      sub\n      swap1\n      return\n        /* \"UniswapV3Pool.sol\":1612:1652  mapping(int24 => Tick.Info) public ticks */\n    tag_10:\n      tag_44\n      0x04\n      dup1\n      calldatasize\n      sub\n      dup2\n      add\n      swap1\n      tag_45\n      swap2\n      swap1\n      tag_46\n      jump\t// in\n    tag_45:\n      tag_47\n      jump\t// in\n    tag_44:\n      mload(0x40)\n      tag_48\n      swap3\n      swap2\n      swap1\n      tag_49\n      jump\t// in\n    tag_48:\n      mload(0x40)\n      dup1\n      swap2\n      sub\n      swap1\n      return\n        /* \"UniswapV3Pool.sol\":1132:1163  address public immutable token0 */\n    tag_13:\n      immutable(\"0x6085f6f924f4d3289e6bd2dcf255c34b40082df304bec05239cb2746d1d3eb0d\")\n      dup2\n      jump\t// out\n        /* \"UniswapV3Pool.sol\":1560:1584  uint128 public liquidity */\n    tag_17:\n      0x01\n      0x00\n      swap1\n      sload\n      swap1\n      0x0100\n      exp\n      swap1\n      div\n      0xffffffffffffffffffffffffffffffff\n      and\n      dup2\n      jump\t// out\n        /* \"UniswapV3Pool.sol\":1501:1519  Slot0 public slot0 */\n    tag_21:\n      0x00\n      dup1\n      0x00\n      add\n      0x00\n      swap1\n      sload\n      swap1\n      0x0100\n      exp\n      swap1\n      div\n      0xffffffffffffffffffffffffffffffffffffffff\n      and\n      swap1\n      dup1\n      0x00\n      add\n      0x14\n      swap1\n      sload\n      swap1\n      0x0100\n      exp\n      swap1\n      div\n      0x02\n      signextend\n      swap1\n      pop\n      dup3\n      jump\t// out\n        /* \"UniswapV3Pool.sol\":2002:3613  function mint(... */\n    tag_27:\n        /* \"UniswapV3Pool.sol\":2172:2187  uint256 amount0 */\n      0x00\n        /* \"UniswapV3Pool.sol\":2189:2204  uint256 amount1 */\n      dup1\n        /* \"UniswapV3Pool.sol\":2248:2257  upperTick */\n      dup6\n        /* \"UniswapV3Pool.sol\":2235:2257  lowerTick >= upperTick */\n      0x02\n      signextend\n        /* \"UniswapV3Pool.sol\":2235:2244  lowerTick */\n      dup8\n        /* \"UniswapV3Pool.sol\":2235:2257  lowerTick >= upperTick */\n      0x02\n      signextend\n      slt\n      iszero\n        /* \"UniswapV3Pool.sol\":2235:2294  lowerTick >= upperTick ||... */\n      dup1\n      tag_51\n      jumpi\n      pop\n        /* \"UniswapV3Pool.sol\":1034:1041  -887272 */\n      0xfffffffffffffffffffffffffffffffffffffffffffffffffffffffffff27618\n        /* \"UniswapV3Pool.sol\":2274:2294  lowerTick < MIN_TICK */\n      0x02\n      signextend\n        /* \"UniswapV3Pool.sol\":2274:2283  lowerTick */\n      dup8\n        /* \"UniswapV3Pool.sol\":2274:2294  lowerTick < MIN_TICK */\n      0x02\n      signextend\n      slt\n        /* \"UniswapV3Pool.sol\":2235:2294  lowerTick >= upperTick ||... */\n    tag_51:\n        /* \"UniswapV3Pool.sol\":2235:2331  lowerTick >= upperTick ||... */\n      dup1\n      tag_52\n      jumpi\n      pop\n        /* \"UniswapV3Pool.sol\":1034:1041  -887272 */\n      0xfffffffffffffffffffffffffffffffffffffffffffffffffffffffffff27618\n        /* \"UniswapV3Pool.sol\":1083:1092  -MIN_TICK */\n      tag_53\n      swap1\n      tag_54\n      jump\t// in\n    tag_53:\n        /* \"UniswapV3Pool.sol\":2311:2331  upperTick > MAX_TICK */\n      0x02\n      signextend\n        /* \"UniswapV3Pool.sol\":2311:2320  upperTick */\n      dup7\n        /* \"UniswapV3Pool.sol\":2311:2331  upperTick > MAX_TICK */\n      0x02\n      signextend\n      sgt\n        /* \"UniswapV3Pool.sol\":2235:2331  lowerTick >= upperTick ||... */\n    tag_52:\n        /* \"UniswapV3Pool.sol\":2217:2368  if (... */\n      iszero\n      tag_55\n      jumpi\n        /* \"UniswapV3Pool.sol\":2350:2368  InvalidTickRange() */\n      mload(0x40)\n      0x064847d000000000000000000000000000000000000000000000000000000000\n      dup2\n      mstore\n      0x04\n      add\n      mload(0x40)\n      dup1\n      swap2\n      sub\n      swap1\n      revert\n        /* \"UniswapV3Pool.sol\":2217:2368  if (... */\n    tag_55:\n        /* \"UniswapV3Pool.sol\":2395:2396  0 */\n      0x00\n        /* \"UniswapV3Pool.sol\":2385:2391  amount */\n      dup6\n        /* \"UniswapV3Pool.sol\":2385:2396  amount == 0 */\n      0xffffffffffffffffffffffffffffffff\n      and\n      sub\n        /* \"UniswapV3Pool.sol\":2381:2420  if (amount == 0) revert ZeroLiquidity() */\n      tag_56\n      jumpi\n        /* \"UniswapV3Pool.sol\":2405:2420  ZeroLiquidity() */\n      mload(0x40)\n      0x1007454800000000000000000000000000000000000000000000000000000000\n      dup2\n      mstore\n      0x04\n      add\n      mload(0x40)\n      dup1\n      swap2\n      sub\n      swap1\n      revert\n        /* \"UniswapV3Pool.sol\":2381:2420  if (amount == 0) revert ZeroLiquidity() */\n    tag_56:\n        /* \"UniswapV3Pool.sol\":2433:2464  ticks.update(lowerTick, amount) */\n      tag_57\n        /* \"UniswapV3Pool.sol\":2446:2455  lowerTick */\n      dup8\n        /* \"UniswapV3Pool.sol\":2457:2463  amount */\n      dup7\n        /* \"UniswapV3Pool.sol\":2433:2438  ticks */\n      0x02\n        /* \"UniswapV3Pool.sol\":2433:2445  ticks.update */\n      tag_58\n      swap1\n        /* \"UniswapV3Pool.sol\":2433:2464  ticks.update(lowerTick, amount) */\n      swap3\n      swap2\n      swap1\n      0xffffffff\n      and\n      jump\t// in\n    tag_57:\n        /* \"UniswapV3Pool.sol\":2475:2506  ticks.update(upperTick, amount) */\n      tag_59\n        /* \"UniswapV3Pool.sol\":2488:2497  upperTick */\n      dup7\n        /* \"UniswapV3Pool.sol\":2499:2505  amount */\n      dup7\n        /* \"UniswapV3Pool.sol\":2475:2480  ticks */\n      0x02\n        /* \"UniswapV3Pool.sol\":2475:2487  ticks.update */\n      tag_58\n      swap1\n        /* \"UniswapV3Pool.sol\":2475:2506  ticks.update(upperTick, amount) */\n      swap3\n      swap2\n      swap1\n      0xffffffff\n      and\n      jump\t// in\n    tag_59:\n        /* \"UniswapV3Pool.sol\":2519:2549  Position.Info storage position */\n      0x00\n        /* \"UniswapV3Pool.sol\":2552:2644  positions.get(... */\n      tag_60\n        /* \"UniswapV3Pool.sol\":2580:2585  owner */\n      dup10\n        /* \"UniswapV3Pool.sol\":2600:2609  lowerTick */\n      dup10\n        /* \"UniswapV3Pool.sol\":2624:2633  upperTick */\n      dup10\n        /* \"UniswapV3Pool.sol\":2552:2561  positions */\n      0x03\n        /* \"UniswapV3Pool.sol\":2552:2565  positions.get */\n      tag_61\n      swap1\n        /* \"UniswapV3Pool.sol\":2552:2644  positions.get(... */\n      swap4\n      swap3\n      swap2\n      swap1\n      0xffffffff\n      and\n      jump\t// in\n    tag_60:\n        /* \"UniswapV3Pool.sol\":2519:2644  Position.Info storage position = positions.get(... */\n      swap1\n      pop\n        /* \"UniswapV3Pool.sol\":2655:2678  position.update(amount) */\n      tag_62\n        /* \"UniswapV3Pool.sol\":2671:2677  amount */\n      dup7\n        /* \"UniswapV3Pool.sol\":2655:2663  position */\n      dup3\n        /* \"UniswapV3Pool.sol\":2655:2670  position.update */\n      tag_63\n      swap1\n        /* \"UniswapV3Pool.sol\":2655:2678  position.update(amount) */\n      swap2\n      swap1\n      0xffffffff\n      and\n      jump\t// in\n    tag_62:\n        /* \"UniswapV3Pool.sol\":2701:2727  0.998976618347425280 ether */\n      0x0ddd13f10b84ee00\n        /* \"UniswapV3Pool.sol\":2691:2727  amount0 = 0.998976618347425280 ether */\n      swap3\n      pop\n        /* \"UniswapV3Pool.sol\":2782:2792  5000 ether */\n      0x010f0cf064dd59200000\n        /* \"UniswapV3Pool.sol\":2772:2792  amount1 = 5000 ether */\n      swap2\n      pop\n        /* \"UniswapV3Pool.sol\":2860:2866  amount */\n      dup6\n        /* \"UniswapV3Pool.sol\":2839:2848  liquidity */\n      0x01\n      0x00\n        /* \"UniswapV3Pool.sol\":2839:2867  liquidity += uint128(amount) */\n      dup3\n      dup3\n      dup3\n      swap1\n      sload\n      swap1\n      0x0100\n      exp\n      swap1\n      div\n      0xffffffffffffffffffffffffffffffff\n      and\n      tag_64\n      swap2\n      swap1\n      tag_65\n      jump\t// in\n    tag_64:\n      swap3\n      pop\n      0x0100\n      exp\n      dup2\n      sload\n      dup2\n      0xffffffffffffffffffffffffffffffff\n      mul\n      not\n      and\n      swap1\n      dup4\n      0xffffffffffffffffffffffffffffffff\n      and\n      mul\n      or\n      swap1\n      sstore\n      pop\n        /* \"UniswapV3Pool.sol\":2880:2902  uint256 balance0Before */\n      0x00\n        /* \"UniswapV3Pool.sol\":2913:2935  uint256 balance1Before */\n      dup1\n        /* \"UniswapV3Pool.sol\":2960:2961  0 */\n      0x00\n        /* \"UniswapV3Pool.sol\":2950:2957  amount0 */\n      dup6\n        /* \"UniswapV3Pool.sol\":2950:2961  amount0 > 0 */\n      gt\n        /* \"UniswapV3Pool.sol\":2946:2990  if (amount0 > 0) balance0Before = balance0() */\n      iszero\n      tag_66\n      jumpi\n        /* \"UniswapV3Pool.sol\":2980:2990  balance0() */\n      tag_67\n        /* \"UniswapV3Pool.sol\":2980:2988  balance0 */\n      tag_68\n        /* \"UniswapV3Pool.sol\":2980:2990  balance0() */\n      jump\t// in\n    tag_67:\n        /* \"UniswapV3Pool.sol\":2963:2990  balance0Before = balance0() */\n      swap2\n      pop\n        /* \"UniswapV3Pool.sol\":2946:2990  if (amount0 > 0) balance0Before = balance0() */\n    tag_66:\n        /* \"UniswapV3Pool.sol\":3015:3016  0 */\n      0x00\n        /* \"UniswapV3Pool.sol\":3005:3012  amount1 */\n      dup5\n        /* \"UniswapV3Pool.sol\":3005:3016  amount1 > 0 */\n      gt\n        /* \"UniswapV3Pool.sol\":3001:3045  if (amount1 > 0) balance1Before = balance1() */\n      iszero\n      tag_69\n      jumpi\n        /* \"UniswapV3Pool.sol\":3035:3045  balance1() */\n      tag_70\n        /* \"UniswapV3Pool.sol\":3035:3043  balance1 */\n      tag_71\n        /* \"UniswapV3Pool.sol\":3035:3045  balance1() */\n      jump\t// in\n    tag_70:\n        /* \"UniswapV3Pool.sol\":3018:3045  balance1Before = balance1() */\n      swap1\n      pop\n        /* \"UniswapV3Pool.sol\":3001:3045  if (amount1 > 0) balance1Before = balance1() */\n    tag_69:\n        /* \"UniswapV3Pool.sol\":3079:3089  msg.sender */\n      caller\n        /* \"UniswapV3Pool.sol\":3056:3112  IUniswapV3MintCallback(msg.sender).uniswapV3MintCallback */\n      0xffffffffffffffffffffffffffffffffffffffff\n      and\n      0xd3487997\n        /* \"UniswapV3Pool.sol\":3127:3134  amount0 */\n      dup7\n        /* \"UniswapV3Pool.sol\":3149:3156  amount1 */\n      dup7\n        /* \"UniswapV3Pool.sol\":3171:3175  data */\n      dup11\n      dup11\n        /* \"UniswapV3Pool.sol\":3056:3186  IUniswapV3MintCallback(msg.sender).uniswapV3MintCallback(... */\n      mload(0x40)\n      dup6\n      0xffffffff\n      and\n      0xe0\n      shl\n      dup2\n      mstore\n      0x04\n      add\n      tag_72\n      swap5\n      swap4\n      swap3\n      swap2\n      swap1\n      tag_73\n      jump\t// in\n    tag_72:\n      0x00\n      mload(0x40)\n      dup1\n      dup4\n      sub\n      dup2\n      0x00\n      dup8\n      dup1\n      extcodesize\n      iszero\n      dup1\n      iszero\n      tag_74\n      jumpi\n      0x00\n      dup1\n      revert\n    tag_74:\n      pop\n      gas\n      call\n      iszero\n      dup1\n      iszero\n      tag_76\n      jumpi\n      returndatasize\n      0x00\n      dup1\n      returndatacopy\n      revert(0x00, returndatasize)\n    tag_76:\n      pop\n      pop\n      pop\n      pop\n        /* \"UniswapV3Pool.sol\":3211:3212  0 */\n      0x00\n        /* \"UniswapV3Pool.sol\":3201:3208  amount0 */\n      dup6\n        /* \"UniswapV3Pool.sol\":3201:3212  amount0 > 0 */\n      gt\n        /* \"UniswapV3Pool.sol\":3201:3253  amount0 > 0 && balance0Before + amount0 > balance0() */\n      dup1\n      iszero\n      tag_77\n      jumpi\n      pop\n        /* \"UniswapV3Pool.sol\":3243:3253  balance0() */\n      tag_78\n        /* \"UniswapV3Pool.sol\":3243:3251  balance0 */\n      tag_68\n        /* \"UniswapV3Pool.sol\":3243:3253  balance0() */\n      jump\t// in\n    tag_78:\n        /* \"UniswapV3Pool.sol\":3233:3240  amount0 */\n      dup6\n        /* \"UniswapV3Pool.sol\":3216:3230  balance0Before */\n      dup4\n        /* \"UniswapV3Pool.sol\":3216:3240  balance0Before + amount0 */\n      tag_79\n      swap2\n      swap1\n      tag_80\n      jump\t// in\n    tag_79:\n        /* \"UniswapV3Pool.sol\":3216:3253  balance0Before + amount0 > balance0() */\n      gt\n        /* \"UniswapV3Pool.sol\":3201:3253  amount0 > 0 && balance0Before + amount0 > balance0() */\n    tag_77:\n        /* \"UniswapV3Pool.sol\":3197:3300  if (amount0 > 0 && balance0Before + amount0 > balance0())... */\n      iszero\n      tag_81\n      jumpi\n        /* \"UniswapV3Pool.sol\":3275:3300  InsufficientInputAmount() */\n      mload(0x40)\n      0x098fb56100000000000000000000000000000000000000000000000000000000\n      dup2\n      mstore\n      0x04\n      add\n      mload(0x40)\n      dup1\n      swap2\n      sub\n      swap1\n      revert\n        /* \"UniswapV3Pool.sol\":3197:3300  if (amount0 > 0 && balance0Before + amount0 > balance0())... */\n    tag_81:\n        /* \"UniswapV3Pool.sol\":3325:3326  0 */\n      0x00\n        /* \"UniswapV3Pool.sol\":3315:3322  amount1 */\n      dup5\n        /* \"UniswapV3Pool.sol\":3315:3326  amount1 > 0 */\n      gt\n        /* \"UniswapV3Pool.sol\":3315:3367  amount1 > 0 && balance1Before + amount1 > balance1() */\n      dup1\n      iszero\n      tag_82\n      jumpi\n      pop\n        /* \"UniswapV3Pool.sol\":3357:3367  balance1() */\n      tag_83\n        /* \"UniswapV3Pool.sol\":3357:3365  balance1 */\n      tag_71\n        /* \"UniswapV3Pool.sol\":3357:3367  balance1() */\n      jump\t// in\n    tag_83:\n        /* \"UniswapV3Pool.sol\":3347:3354  amount1 */\n      dup5\n        /* \"UniswapV3Pool.sol\":3330:3344  balance1Before */\n      dup3\n        /* \"UniswapV3Pool.sol\":3330:3354  balance1Before + amount1 */\n      tag_84\n      swap2\n      swap1\n      tag_80\n      jump\t// in\n    tag_84:\n        /* \"UniswapV3Pool.sol\":3330:3367  balance1Before + amount1 > balance1() */\n      gt\n        /* \"UniswapV3Pool.sol\":3315:3367  amount1 > 0 && balance1Before + amount1 > balance1() */\n    tag_82:\n        /* \"UniswapV3Pool.sol\":3311:3414  if (amount1 > 0 && balance1Before + amount1 > balance1())... */\n      iszero\n      tag_85\n      jumpi\n        /* \"UniswapV3Pool.sol\":3389:3414  InsufficientInputAmount() */\n      mload(0x40)\n      0x098fb56100000000000000000000000000000000000000000000000000000000\n      dup2\n      mstore\n      0x04\n      add\n      mload(0x40)\n      dup1\n      swap2\n      sub\n      swap1\n      revert\n        /* \"UniswapV3Pool.sol\":3311:3414  if (amount1 > 0 && balance1Before + amount1 > balance1())... */\n    tag_85:\n        /* \"UniswapV3Pool.sol\":3520:3529  upperTick */\n      dup9\n        /* \"UniswapV3Pool.sol\":3432:3605  Mint(... */\n      0x02\n      signextend\n        /* \"UniswapV3Pool.sol\":3496:3505  lowerTick */\n      dup11\n        /* \"UniswapV3Pool.sol\":3432:3605  Mint(... */\n      0x02\n      signextend\n        /* \"UniswapV3Pool.sol\":3476:3481  owner */\n      dup13\n        /* \"UniswapV3Pool.sol\":3432:3605  Mint(... */\n      0xffffffffffffffffffffffffffffffffffffffff\n      and\n      0x7a53080ba414158be7ec69b987b5fb7d07dee101fe85488f0853ae16239d0bde\n        /* \"UniswapV3Pool.sol\":3451:3461  msg.sender */\n      caller\n        /* \"UniswapV3Pool.sol\":3544:3550  amount */\n      dup13\n        /* \"UniswapV3Pool.sol\":3565:3572  amount0 */\n      dup11\n        /* \"UniswapV3Pool.sol\":3587:3594  amount1 */\n      dup11\n        /* \"UniswapV3Pool.sol\":3432:3605  Mint(... */\n      mload(0x40)\n      tag_86\n      swap5\n      swap4\n      swap3\n      swap2\n      swap1\n      tag_87\n      jump\t// in\n    tag_86:\n      mload(0x40)\n      dup1\n      swap2\n      sub\n      swap1\n      log4\n        /* \"UniswapV3Pool.sol\":2206:3613  {... */\n      pop\n      pop\n      pop\n        /* \"UniswapV3Pool.sol\":2002:3613  function mint(... */\n      swap7\n      pop\n      swap7\n      swap5\n      pop\n      pop\n      pop\n      pop\n      pop\n      jump\t// out\n        /* \"UniswapV3Pool.sol\":1682:1732  mapping(bytes32 => Position.Info) public positions */\n    tag_33:\n      mstore(0x20, 0x03)\n      dup1\n      0x00\n      mstore\n      keccak256(0x00, 0x40)\n      0x00\n      swap2\n      pop\n      swap1\n      pop\n      dup1\n      0x00\n      add\n      0x00\n      swap1\n      sload\n      swap1\n      0x0100\n      exp\n      swap1\n      div\n      0xffffffffffffffffffffffffffffffff\n      and\n      swap1\n      pop\n      dup2\n      jump\t// out\n        /* \"UniswapV3Pool.sol\":1170:1201  address public immutable token1 */\n    tag_36:\n      immutable(\"0x55e55375928ba930386cf0b9e7ee301eaaa299564259b9c433c92363678f33d4\")\n      dup2\n      jump\t// out\n        /* \"UniswapV3Pool.sol\":3621:4567  function swap(address recipient, bytes calldata data)... */\n    tag_41:\n        /* \"UniswapV3Pool.sol\":3709:3723  int256 amount0 */\n      0x00\n        /* \"UniswapV3Pool.sol\":3725:3739  int256 amount1 */\n      dup1\n        /* \"UniswapV3Pool.sol\":3757:3771  int24 nextTick */\n      0x00\n        /* \"UniswapV3Pool.sol\":3774:3779  85184 */\n      0x014cc0\n        /* \"UniswapV3Pool.sol\":3757:3779  int24 nextTick = 85184 */\n      swap1\n      pop\n        /* \"UniswapV3Pool.sol\":3790:3807  uint160 nextPrice */\n      0x00\n        /* \"UniswapV3Pool.sol\":3810:3841  5604469350942327889444743441197 */\n      0x46bd046408013d67ed5d406b2d\n        /* \"UniswapV3Pool.sol\":3790:3841  uint160 nextPrice = 5604469350942327889444743441197 */\n      swap1\n      pop\n        /* \"UniswapV3Pool.sol\":3864:3891  -0.008396714242162444 ether */\n      0xffffffffffffffffffffffffffffffffffffffffffffffffffe22b3b9e50c0f4\n        /* \"UniswapV3Pool.sol\":3854:3891  amount0 = -0.008396714242162444 ether */\n      swap4\n      pop\n        /* \"UniswapV3Pool.sol\":3912:3920  42 ether */\n      0x0246ddf97976680000\n        /* \"UniswapV3Pool.sol\":3902:3920  amount1 = 42 ether */\n      swap3\n      pop\n        /* \"UniswapV3Pool.sol\":3969:3977  nextTick */\n      dup2\n        /* \"UniswapV3Pool.sol\":3979:3988  nextPrice */\n      dup2\n        /* \"UniswapV3Pool.sol\":3934:3939  slot0 */\n      0x00\n        /* \"UniswapV3Pool.sol\":3934:3944  slot0.tick */\n      dup1\n      add\n      0x14\n        /* \"UniswapV3Pool.sol\":3946:3951  slot0 */\n      0x00\n        /* \"UniswapV3Pool.sol\":3946:3964  slot0.sqrtPriceX96 */\n      dup1\n      add\n      0x00\n        /* \"UniswapV3Pool.sol\":3933:3989  (slot0.tick, slot0.sqrtPriceX96) = (nextTick, nextPrice) */\n      dup5\n      swap2\n      swap1\n      0x0100\n      exp\n      dup2\n      sload\n      dup2\n      0xffffffffffffffffffffffffffffffffffffffff\n      mul\n      not\n      and\n      swap1\n      dup4\n      0xffffffffffffffffffffffffffffffffffffffff\n      and\n      mul\n      or\n      swap1\n      sstore\n      pop\n      dup4\n      swap2\n      swap1\n      0x0100\n      exp\n      dup2\n      sload\n      dup2\n      0xffffff\n      mul\n      not\n      and\n      swap1\n      dup4\n      0x02\n      signextend\n      0xffffff\n      and\n      mul\n      or\n      swap1\n      sstore\n      pop\n      pop\n      pop\n        /* \"UniswapV3Pool.sol\":4008:4014  token0 */\n      immutable(\"0x6085f6f924f4d3289e6bd2dcf255c34b40082df304bec05239cb2746d1d3eb0d\")\n        /* \"UniswapV3Pool.sol\":4002:4024  ERC20(token0).transfer */\n      0xffffffffffffffffffffffffffffffffffffffff\n      and\n      0xa9059cbb\n        /* \"UniswapV3Pool.sol\":4025:4034  recipient */\n      dup9\n        /* \"UniswapV3Pool.sol\":4045:4052  amount0 */\n      dup7\n        /* \"UniswapV3Pool.sol\":4044:4052  -amount0 */\n      tag_89\n      swap1\n      tag_90\n      jump\t// in\n    tag_89:\n        /* \"UniswapV3Pool.sol\":4002:4054  ERC20(token0).transfer(recipient, uint256(-amount0)) */\n      mload(0x40)\n      dup4\n      0xffffffff\n      and\n      0xe0\n      shl\n      dup2\n      mstore\n      0x04\n      add\n      tag_91\n      swap3\n      swap2\n      swap1\n      tag_92\n      jump\t// in\n    tag_91:\n      0x20\n      mload(0x40)\n      dup1\n      dup4\n      sub\n      dup2\n      0x00\n      dup8\n      gas\n      call\n      iszero\n      dup1\n      iszero\n      tag_94\n      jumpi\n      returndatasize\n      0x00\n      dup1\n      returndatacopy\n      revert(0x00, returndatasize)\n    tag_94:\n      pop\n      pop\n      pop\n      pop\n      mload(0x40)\n      returndatasize\n      not(0x1f)\n      0x1f\n      dup3\n      add\n      and\n      dup3\n      add\n      dup1\n      0x40\n      mstore\n      pop\n      dup2\n      add\n      swap1\n      tag_95\n      swap2\n      swap1\n      tag_96\n      jump\t// in\n    tag_95:\n      pop\n        /* \"UniswapV3Pool.sol\":4067:4089  uint256 balance1Before */\n      0x00\n        /* \"UniswapV3Pool.sol\":4092:4102  balance1() */\n      tag_97\n        /* \"UniswapV3Pool.sol\":4092:4100  balance1 */\n      tag_71\n        /* \"UniswapV3Pool.sol\":4092:4102  balance1() */\n      jump\t// in\n    tag_97:\n        /* \"UniswapV3Pool.sol\":4067:4102  uint256 balance1Before = balance1() */\n      swap1\n      pop\n        /* \"UniswapV3Pool.sol\":4136:4146  msg.sender */\n      caller\n        /* \"UniswapV3Pool.sol\":4113:4169  IUniswapV3SwapCallback(msg.sender).uniswapV3SwapCallback */\n      0xffffffffffffffffffffffffffffffffffffffff\n      and\n      0xfa461e33\n        /* \"UniswapV3Pool.sol\":4184:4191  amount0 */\n      dup7\n        /* \"UniswapV3Pool.sol\":4206:4213  amount1 */\n      dup7\n        /* \"UniswapV3Pool.sol\":4228:4232  data */\n      dup11\n      dup11\n        /* \"UniswapV3Pool.sol\":4113:4243  IUniswapV3SwapCallback(msg.sender).uniswapV3SwapCallback(... */\n      mload(0x40)\n      dup6\n      0xffffffff\n      and\n      0xe0\n      shl\n      dup2\n      mstore\n      0x04\n      add\n      tag_98\n      swap5\n      swap4\n      swap3\n      swap2\n      swap1\n      tag_99\n      jump\t// in\n    tag_98:\n      0x00\n      mload(0x40)\n      dup1\n      dup4\n      sub\n      dup2\n      0x00\n      dup8\n      dup1\n      extcodesize\n      iszero\n      dup1\n      iszero\n      tag_100\n      jumpi\n      0x00\n      dup1\n      revert\n    tag_100:\n      pop\n      gas\n      call\n      iszero\n      dup1\n      iszero\n      tag_102\n      jumpi\n      returndatasize\n      0x00\n      dup1\n      returndatacopy\n      revert(0x00, returndatasize)\n    tag_102:\n      pop\n      pop\n      pop\n      pop\n        /* \"UniswapV3Pool.sol\":4294:4304  balance1() */\n      tag_103\n        /* \"UniswapV3Pool.sol\":4294:4302  balance1 */\n      tag_71\n        /* \"UniswapV3Pool.sol\":4294:4304  balance1() */\n      jump\t// in\n    tag_103:\n        /* \"UniswapV3Pool.sol\":4283:4290  amount1 */\n      dup5\n        /* \"UniswapV3Pool.sol\":4258:4272  balance1Before */\n      dup3\n        /* \"UniswapV3Pool.sol\":4258:4291  balance1Before + uint256(amount1) */\n      tag_104\n      swap2\n      swap1\n      tag_80\n      jump\t// in\n    tag_104:\n        /* \"UniswapV3Pool.sol\":4258:4304  balance1Before + uint256(amount1) > balance1() */\n      gt\n        /* \"UniswapV3Pool.sol\":4254:4351  if (balance1Before + uint256(amount1) > balance1())... */\n      iszero\n      tag_105\n      jumpi\n        /* \"UniswapV3Pool.sol\":4326:4351  InsufficientInputAmount() */\n      mload(0x40)\n      0x098fb56100000000000000000000000000000000000000000000000000000000\n      dup2\n      mstore\n      0x04\n      add\n      mload(0x40)\n      dup1\n      swap2\n      sub\n      swap1\n      revert\n        /* \"UniswapV3Pool.sol\":4254:4351  if (balance1Before + uint256(amount1) > balance1())... */\n    tag_105:\n        /* \"UniswapV3Pool.sol\":4413:4422  recipient */\n      dup8\n        /* \"UniswapV3Pool.sol\":4369:4559  Swap(... */\n      0xffffffffffffffffffffffffffffffffffffffff\n      and\n        /* \"UniswapV3Pool.sol\":4388:4398  msg.sender */\n      caller\n        /* \"UniswapV3Pool.sol\":4369:4559  Swap(... */\n      0xffffffffffffffffffffffffffffffffffffffff\n      and\n      0xc42079f94a6350d7e6235f29174924f928cc2ac818eb64fed8004e115fbcca67\n        /* \"UniswapV3Pool.sol\":4437:4444  amount0 */\n      dup8\n        /* \"UniswapV3Pool.sol\":4459:4466  amount1 */\n      dup8\n        /* \"UniswapV3Pool.sol\":4481:4486  slot0 */\n      0x00\n        /* \"UniswapV3Pool.sol\":4481:4499  slot0.sqrtPriceX96 */\n      dup1\n      add\n      0x00\n      swap1\n      sload\n      swap1\n      0x0100\n      exp\n      swap1\n      div\n      0xffffffffffffffffffffffffffffffffffffffff\n      and\n        /* \"UniswapV3Pool.sol\":4514:4523  liquidity */\n      0x01\n      0x00\n      swap1\n      sload\n      swap1\n      0x0100\n      exp\n      swap1\n      div\n      0xffffffffffffffffffffffffffffffff\n      and\n        /* \"UniswapV3Pool.sol\":4538:4543  slot0 */\n      0x00\n        /* \"UniswapV3Pool.sol\":4538:4548  slot0.tick */\n      dup1\n      add\n      0x14\n      swap1\n      sload\n      swap1\n      0x0100\n      exp\n      swap1\n      div\n      0x02\n      signextend\n        /* \"UniswapV3Pool.sol\":4369:4559  Swap(... */\n      mload(0x40)\n      tag_106\n      swap6\n      swap5\n      swap4\n      swap3\n      swap2\n      swap1\n      tag_107\n      jump\t// in\n    tag_106:\n      mload(0x40)\n      dup1\n      swap2\n      sub\n      swap1\n      log3\n        /* \"UniswapV3Pool.sol\":3746:4567  {... */\n      pop\n      pop\n      pop\n        /* \"UniswapV3Pool.sol\":3621:4567  function swap(address recipient, bytes calldata data)... */\n      swap4\n      pop\n      swap4\n      swap2\n      pop\n      pop\n      jump\t// out\n        /* \"UniswapV3Pool.sol\":1612:1652  mapping(int24 => Tick.Info) public ticks */\n    tag_47:\n      mstore(0x20, 0x02)\n      dup1\n      0x00\n      mstore\n      keccak256(0x00, 0x40)\n      0x00\n      swap2\n      pop\n      swap1\n      pop\n      dup1\n      0x00\n      add\n      0x00\n      swap1\n      sload\n      swap1\n      0x0100\n      exp\n      swap1\n      div\n      0xff\n      and\n      swap1\n      dup1\n      0x00\n      add\n      0x01\n      swap1\n      sload\n      swap1\n      0x0100\n      exp\n      swap1\n      div\n      0xffffffffffffffffffffffffffffffff\n      and\n      swap1\n      pop\n      dup3\n      jump\t// out\n        /* \"lib/Tick.sol\":169:627  function update(... */\n    tag_58:\n        /* \"lib/Tick.sol\":317:343  Tick.Info storage tickInfo */\n      0x00\n        /* \"lib/Tick.sol\":346:350  self */\n      dup4\n        /* \"lib/Tick.sol\":346:356  self[tick] */\n      0x00\n        /* \"lib/Tick.sol\":351:355  tick */\n      dup5\n        /* \"lib/Tick.sol\":346:356  self[tick] */\n      0x02\n      signextend\n      0x02\n      signextend\n      dup2\n      mstore\n      0x20\n      add\n      swap1\n      dup2\n      mstore\n      0x20\n      add\n      0x00\n      keccak256\n        /* \"lib/Tick.sol\":317:356  Tick.Info storage tickInfo = self[tick] */\n      swap1\n      pop\n        /* \"lib/Tick.sol\":367:390  uint128 liquidityBefore */\n      0x00\n        /* \"lib/Tick.sol\":393:401  tickInfo */\n      dup2\n        /* \"lib/Tick.sol\":393:411  tickInfo.liquidity */\n      0x00\n      add\n      0x01\n      swap1\n      sload\n      swap1\n      0x0100\n      exp\n      swap1\n      div\n      0xffffffffffffffffffffffffffffffff\n      and\n        /* \"lib/Tick.sol\":367:411  uint128 liquidityBefore = tickInfo.liquidity */\n      swap1\n      pop\n        /* \"lib/Tick.sol\":422:444  uint128 liquidityAfter */\n      0x00\n        /* \"lib/Tick.sol\":465:479  liquidityDelta */\n      dup4\n        /* \"lib/Tick.sol\":447:462  liquidityBefore */\n      dup3\n        /* \"lib/Tick.sol\":447:479  liquidityBefore + liquidityDelta */\n      tag_109\n      swap2\n      swap1\n      tag_65\n      jump\t// in\n    tag_109:\n        /* \"lib/Tick.sol\":422:479  uint128 liquidityAfter = liquidityBefore + liquidityDelta */\n      swap1\n      pop\n        /* \"lib/Tick.sol\":515:516  0 */\n      0x00\n        /* \"lib/Tick.sol\":496:511  liquidityBefore */\n      dup3\n        /* \"lib/Tick.sol\":496:516  liquidityBefore == 0 */\n      0xffffffffffffffffffffffffffffffff\n      and\n      sub\n        /* \"lib/Tick.sol\":492:572  if (liquidityBefore == 0) {... */\n      tag_110\n      jumpi\n        /* \"lib/Tick.sol\":556:560  true */\n      0x01\n        /* \"lib/Tick.sol\":533:541  tickInfo */\n      dup4\n        /* \"lib/Tick.sol\":533:553  tickInfo.initialized */\n      0x00\n      add\n      0x00\n        /* \"lib/Tick.sol\":533:560  tickInfo.initialized = true */\n      0x0100\n      exp\n      dup2\n      sload\n      dup2\n      0xff\n      mul\n      not\n      and\n      swap1\n      dup4\n      iszero\n      iszero\n      mul\n      or\n      swap1\n      sstore\n      pop\n        /* \"lib/Tick.sol\":492:572  if (liquidityBefore == 0) {... */\n    tag_110:\n        /* \"lib/Tick.sol\":605:619  liquidityAfter */\n      dup1\n        /* \"lib/Tick.sol\":584:592  tickInfo */\n      dup4\n        /* \"lib/Tick.sol\":584:602  tickInfo.liquidity */\n      0x00\n      add\n      0x01\n        /* \"lib/Tick.sol\":584:619  tickInfo.liquidity = liquidityAfter */\n      0x0100\n      exp\n      dup2\n      sload\n      dup2\n      0xffffffffffffffffffffffffffffffff\n      mul\n      not\n      and\n      swap1\n      dup4\n      0xffffffffffffffffffffffffffffffff\n      and\n      mul\n      or\n      swap1\n      sstore\n      pop\n        /* \"lib/Tick.sol\":306:627  {... */\n      pop\n      pop\n      pop\n        /* \"lib/Tick.sol\":169:627  function update(... */\n      pop\n      pop\n      pop\n      jump\t// out\n        /* \"lib/Position.sol\":146:461  function get(... */\n    tag_61:\n        /* \"lib/Position.sol\":313:343  Position.Info storage position */\n      0x00\n        /* \"lib/Position.sol\":367:371  self */\n      dup5\n        /* \"lib/Position.sol\":367:453  self[... */\n      0x00\n        /* \"lib/Position.sol\":413:418  owner */\n      dup6\n        /* \"lib/Position.sol\":420:429  lowerTick */\n      dup6\n        /* \"lib/Position.sol\":431:440  upperTick */\n      dup6\n        /* \"lib/Position.sol\":396:441  abi.encodePacked(owner, lowerTick, upperTick) */\n      add(0x20, mload(0x40))\n      tag_112\n      swap4\n      swap3\n      swap2\n      swap1\n      tag_113\n      jump\t// in\n    tag_112:\n      mload(0x40)\n      0x20\n      dup2\n      dup4\n      sub\n      sub\n      dup2\n      mstore\n      swap1\n      0x40\n      mstore\n        /* \"lib/Position.sol\":386:442  keccak256(abi.encodePacked(owner, lowerTick, upperTick)) */\n      dup1\n      mload\n      swap1\n      0x20\n      add\n      keccak256\n        /* \"lib/Position.sol\":367:453  self[... */\n      dup2\n      mstore\n      0x20\n      add\n      swap1\n      dup2\n      mstore\n      0x20\n      add\n      0x00\n      keccak256\n        /* \"lib/Position.sol\":356:453  position = self[... */\n      swap1\n      pop\n        /* \"lib/Position.sol\":146:461  function get(... */\n      swap5\n      swap4\n      pop\n      pop\n      pop\n      pop\n      jump\t// out\n        /* \"lib/Position.sol\":469:708  function update(Info storage self, uint128 liquidityDelta) internal {... */\n    tag_63:\n        /* \"lib/Position.sol\":548:571  uint128 liquidityBefore */\n      0x00\n        /* \"lib/Position.sol\":574:578  self */\n      dup3\n        /* \"lib/Position.sol\":574:588  self.liquidity */\n      0x00\n      add\n      0x00\n      swap1\n      sload\n      swap1\n      0x0100\n      exp\n      swap1\n      div\n      0xffffffffffffffffffffffffffffffff\n      and\n        /* \"lib/Position.sol\":548:588  uint128 liquidityBefore = self.liquidity */\n      swap1\n      pop\n        /* \"lib/Position.sol\":599:621  uint128 liquidityAfter */\n      0x00\n        /* \"lib/Position.sol\":642:656  liquidityDelta */\n      dup3\n        /* \"lib/Position.sol\":624:639  liquidityBefore */\n      dup3\n        /* \"lib/Position.sol\":624:656  liquidityBefore + liquidityDelta */\n      tag_115\n      swap2\n      swap1\n      tag_65\n      jump\t// in\n    tag_115:\n        /* \"lib/Position.sol\":599:656  uint128 liquidityAfter = liquidityBefore + liquidityDelta */\n      swap1\n      pop\n        /* \"lib/Position.sol\":686:700  liquidityAfter */\n      dup1\n        /* \"lib/Position.sol\":669:673  self */\n      dup5\n        /* \"lib/Position.sol\":669:683  self.liquidity */\n      0x00\n      add\n      0x00\n        /* \"lib/Position.sol\":669:700  self.liquidity = liquidityAfter */\n      0x0100\n      exp\n      dup2\n      sload\n      dup2\n      0xffffffffffffffffffffffffffffffff\n      mul\n      not\n      and\n      swap1\n      dup4\n      0xffffffffffffffffffffffffffffffff\n      and\n      mul\n      or\n      swap1\n      sstore\n      pop\n        /* \"lib/Position.sol\":537:708  {... */\n      pop\n      pop\n        /* \"lib/Position.sol\":469:708  function update(Info storage self, uint128 liquidityDelta) internal {... */\n      pop\n      pop\n      jump\t// out\n        /* \"UniswapV3Pool.sol\":4772:4894  function balance0() internal returns (uint256 balance) {... */\n    tag_68:\n        /* \"UniswapV3Pool.sol\":4810:4825  uint256 balance */\n      0x00\n        /* \"UniswapV3Pool.sol\":4854:4860  token0 */\n      immutable(\"0x6085f6f924f4d3289e6bd2dcf255c34b40082df304bec05239cb2746d1d3eb0d\")\n        /* \"UniswapV3Pool.sol\":4848:4871  ERC20(token0).balanceOf */\n      0xffffffffffffffffffffffffffffffffffffffff\n      and\n      0x70a08231\n        /* \"UniswapV3Pool.sol\":4880:4884  this */\n      address\n        /* \"UniswapV3Pool.sol\":4848:4886  ERC20(token0).balanceOf(address(this)) */\n      mload(0x40)\n      dup3\n      0xffffffff\n      and\n      0xe0\n      shl\n      dup2\n      mstore\n      0x04\n      add\n      tag_117\n      swap2\n      swap1\n      tag_15\n      jump\t// in\n    tag_117:\n      0x20\n      mload(0x40)\n      dup1\n      dup4\n      sub\n      dup2\n      dup7\n      gas\n      staticcall\n      iszero\n      dup1\n      iszero\n      tag_119\n      jumpi\n      returndatasize\n      0x00\n      dup1\n      returndatacopy\n      revert(0x00, returndatasize)\n    tag_119:\n      pop\n      pop\n      pop\n      pop\n      mload(0x40)\n      returndatasize\n      not(0x1f)\n      0x1f\n      dup3\n      add\n      and\n      dup3\n      add\n      dup1\n      0x40\n      mstore\n      pop\n      dup2\n      add\n      swap1\n      tag_120\n      swap2\n      swap1\n      tag_121\n      jump\t// in\n    tag_120:\n        /* \"UniswapV3Pool.sol\":4838:4886  balance = ERC20(token0).balanceOf(address(this)) */\n      swap1\n      pop\n        /* \"UniswapV3Pool.sol\":4772:4894  function balance0() internal returns (uint256 balance) {... */\n      swap1\n      jump\t// out\n        /* \"UniswapV3Pool.sol\":4902:5024  function balance1() internal returns (uint256 balance) {... */\n    tag_71:\n        /* \"UniswapV3Pool.sol\":4940:4955  uint256 balance */\n      0x00\n        /* \"UniswapV3Pool.sol\":4984:4990  token1 */\n      immutable(\"0x55e55375928ba930386cf0b9e7ee301eaaa299564259b9c433c92363678f33d4\")\n        /* \"UniswapV3Pool.sol\":4978:5001  ERC20(token1).balanceOf */\n      0xffffffffffffffffffffffffffffffffffffffff\n      and\n      0x70a08231\n        /* \"UniswapV3Pool.sol\":5010:5014  this */\n      address\n        /* \"UniswapV3Pool.sol\":4978:5016  ERC20(token1).balanceOf(address(this)) */\n      mload(0x40)\n      dup3\n      0xffffffff\n      and\n      0xe0\n      shl\n      dup2\n      mstore\n      0x04\n      add\n      tag_123\n      swap2\n      swap1\n      tag_15\n      jump\t// in\n    tag_123:\n      0x20\n      mload(0x40)\n      dup1\n      dup4\n      sub\n      dup2\n      dup7\n      gas\n      staticcall\n      iszero\n      dup1\n      iszero\n      tag_125\n      jumpi\n      returndatasize\n      0x00\n      dup1\n      returndatacopy\n      revert(0x00, returndatasize)\n    tag_125:\n      pop\n      pop\n      pop\n      pop\n      mload(0x40)\n      returndatasize\n      not(0x1f)\n      0x1f\n      dup3\n      add\n      and\n      dup3\n      add\n      dup1\n      0x40\n      mstore\n      pop\n      dup2\n      add\n      swap1\n      tag_126\n      swap2\n      swap1\n      tag_121\n      jump\t// in\n    tag_126:\n        /* \"UniswapV3Pool.sol\":4968:5016  balance = ERC20(token1).balanceOf(address(this)) */\n      swap1\n      pop\n        /* \"UniswapV3Pool.sol\":4902:5024  function balance1() internal returns (uint256 balance) {... */\n      swap1\n      jump\t// out\n        /* \"#utility.yul\":7:133   */\n    tag_127:\n        /* \"#utility.yul\":44:51   */\n      0x00\n        /* \"#utility.yul\":84:126   */\n      0xffffffffffffffffffffffffffffffffffffffff\n        /* \"#utility.yul\":77:82   */\n      dup3\n        /* \"#utility.yul\":73:127   */\n      and\n        /* \"#utility.yul\":62:127   */\n      swap1\n      pop\n        /* \"#utility.yul\":7:133   */\n      swap2\n      swap1\n      pop\n      jump\t// out\n        /* \"#utility.yul\":139:235   */\n    tag_128:\n        /* \"#utility.yul\":176:183   */\n      0x00\n        /* \"#utility.yul\":205:229   */\n      tag_176\n        /* \"#utility.yul\":223:228   */\n      dup3\n        /* \"#utility.yul\":205:229   */\n      tag_127\n      jump\t// in\n    tag_176:\n        /* \"#utility.yul\":194:229   */\n      swap1\n      pop\n        /* \"#utility.yul\":139:235   */\n      swap2\n      swap1\n      pop\n      jump\t// out\n        /* \"#utility.yul\":241:359   */\n    tag_129:\n        /* \"#utility.yul\":328:352   */\n      tag_178\n        /* \"#utility.yul\":346:351   */\n      dup2\n        /* \"#utility.yul\":328:352   */\n      tag_128\n      jump\t// in\n    tag_178:\n        /* \"#utility.yul\":323:326   */\n      dup3\n        /* \"#utility.yul\":316:353   */\n      mstore\n        /* \"#utility.yul\":241:359   */\n      pop\n      pop\n      jump\t// out\n        /* \"#utility.yul\":365:587   */\n    tag_15:\n        /* \"#utility.yul\":458:462   */\n      0x00\n        /* \"#utility.yul\":496:498   */\n      0x20\n        /* \"#utility.yul\":485:494   */\n      dup3\n        /* \"#utility.yul\":481:499   */\n      add\n        /* \"#utility.yul\":473:499   */\n      swap1\n      pop\n        /* \"#utility.yul\":509:580   */\n      tag_180\n        /* \"#utility.yul\":577:578   */\n      0x00\n        /* \"#utility.yul\":566:575   */\n      dup4\n        /* \"#utility.yul\":562:579   */\n      add\n        /* \"#utility.yul\":553:559   */\n      dup5\n        /* \"#utility.yul\":509:580   */\n      tag_129\n      jump\t// in\n    tag_180:\n        /* \"#utility.yul\":365:587   */\n      swap3\n      swap2\n      pop\n      pop\n      jump\t// out\n        /* \"#utility.yul\":593:711   */\n    tag_130:\n        /* \"#utility.yul\":630:637   */\n      0x00\n        /* \"#utility.yul\":670:704   */\n      0xffffffffffffffffffffffffffffffff\n        /* \"#utility.yul\":663:668   */\n      dup3\n        /* \"#utility.yul\":659:705   */\n      and\n        /* \"#utility.yul\":648:705   */\n      swap1\n      pop\n        /* \"#utility.yul\":593:711   */\n      swap2\n      swap1\n      pop\n      jump\t// out\n        /* \"#utility.yul\":717:835   */\n    tag_131:\n        /* \"#utility.yul\":804:828   */\n      tag_183\n        /* \"#utility.yul\":822:827   */\n      dup2\n        /* \"#utility.yul\":804:828   */\n      tag_130\n      jump\t// in\n    tag_183:\n        /* \"#utility.yul\":799:802   */\n      dup3\n        /* \"#utility.yul\":792:829   */\n      mstore\n        /* \"#utility.yul\":717:835   */\n      pop\n      pop\n      jump\t// out\n        /* \"#utility.yul\":841:1063   */\n    tag_19:\n        /* \"#utility.yul\":934:938   */\n      0x00\n        /* \"#utility.yul\":972:974   */\n      0x20\n        /* \"#utility.yul\":961:970   */\n      dup3\n        /* \"#utility.yul\":957:975   */\n      add\n        /* \"#utility.yul\":949:975   */\n      swap1\n      pop\n        /* \"#utility.yul\":985:1056   */\n      tag_185\n        /* \"#utility.yul\":1053:1054   */\n      0x00\n        /* \"#utility.yul\":1042:1051   */\n      dup4\n        /* \"#utility.yul\":1038:1055   */\n      add\n        /* \"#utility.yul\":1029:1035   */\n      dup5\n        /* \"#utility.yul\":985:1056   */\n      tag_131\n      jump\t// in\n    tag_185:\n        /* \"#utility.yul\":841:1063   */\n      swap3\n      swap2\n      pop\n      pop\n      jump\t// out\n        /* \"#utility.yul\":1069:1187   */\n    tag_132:\n        /* \"#utility.yul\":1156:1180   */\n      tag_187\n        /* \"#utility.yul\":1174:1179   */\n      dup2\n        /* \"#utility.yul\":1156:1180   */\n      tag_127\n      jump\t// in\n    tag_187:\n        /* \"#utility.yul\":1151:1154   */\n      dup3\n        /* \"#utility.yul\":1144:1181   */\n      mstore\n        /* \"#utility.yul\":1069:1187   */\n      pop\n      pop\n      jump\t// out\n        /* \"#utility.yul\":1193:1283   */\n    tag_133:\n        /* \"#utility.yul\":1228:1235   */\n      0x00\n        /* \"#utility.yul\":1271:1276   */\n      dup2\n        /* \"#utility.yul\":1268:1269   */\n      0x02\n        /* \"#utility.yul\":1257:1277   */\n      signextend\n        /* \"#utility.yul\":1246:1277   */\n      swap1\n      pop\n        /* \"#utility.yul\":1193:1283   */\n      swap2\n      swap1\n      pop\n      jump\t// out\n        /* \"#utility.yul\":1289:1401   */\n    tag_134:\n        /* \"#utility.yul\":1372:1394   */\n      tag_190\n        /* \"#utility.yul\":1388:1393   */\n      dup2\n        /* \"#utility.yul\":1372:1394   */\n      tag_133\n      jump\t// in\n    tag_190:\n        /* \"#utility.yul\":1367:1370   */\n      dup3\n        /* \"#utility.yul\":1360:1395   */\n      mstore\n        /* \"#utility.yul\":1289:1401   */\n      pop\n      pop\n      jump\t// out\n        /* \"#utility.yul\":1407:1731   */\n    tag_23:\n        /* \"#utility.yul\":1524:1528   */\n      0x00\n        /* \"#utility.yul\":1562:1564   */\n      0x40\n        /* \"#utility.yul\":1551:1560   */\n      dup3\n        /* \"#utility.yul\":1547:1565   */\n      add\n        /* \"#utility.yul\":1539:1565   */\n      swap1\n      pop\n        /* \"#utility.yul\":1575:1646   */\n      tag_192\n        /* \"#utility.yul\":1643:1644   */\n      0x00\n        /* \"#utility.yul\":1632:1641   */\n      dup4\n        /* \"#utility.yul\":1628:1645   */\n      add\n        /* \"#utility.yul\":1619:1625   */\n      dup6\n        /* \"#utility.yul\":1575:1646   */\n      tag_132\n      jump\t// in\n    tag_192:\n        /* \"#utility.yul\":1656:1724   */\n      tag_193\n        /* \"#utility.yul\":1720:1722   */\n      0x20\n        /* \"#utility.yul\":1709:1718   */\n      dup4\n        /* \"#utility.yul\":1705:1723   */\n      add\n        /* \"#utility.yul\":1696:1702   */\n      dup5\n        /* \"#utility.yul\":1656:1724   */\n      tag_134\n      jump\t// in\n    tag_193:\n        /* \"#utility.yul\":1407:1731   */\n      swap4\n      swap3\n      pop\n      pop\n      pop\n      jump\t// out\n        /* \"#utility.yul\":1818:1935   */\n    tag_136:\n        /* \"#utility.yul\":1927:1928   */\n      0x00\n        /* \"#utility.yul\":1924:1925   */\n      dup1\n        /* \"#utility.yul\":1917:1929   */\n      revert\n        /* \"#utility.yul\":1941:2058   */\n    tag_137:\n        /* \"#utility.yul\":2050:2051   */\n      0x00\n        /* \"#utility.yul\":2047:2048   */\n      dup1\n        /* \"#utility.yul\":2040:2052   */\n      revert\n        /* \"#utility.yul\":2064:2186   */\n    tag_138:\n        /* \"#utility.yul\":2137:2161   */\n      tag_198\n        /* \"#utility.yul\":2155:2160   */\n      dup2\n        /* \"#utility.yul\":2137:2161   */\n      tag_128\n      jump\t// in\n    tag_198:\n        /* \"#utility.yul\":2130:2135   */\n      dup2\n        /* \"#utility.yul\":2127:2162   */\n      eq\n        /* \"#utility.yul\":2117:2180   */\n      tag_199\n      jumpi\n        /* \"#utility.yul\":2176:2177   */\n      0x00\n        /* \"#utility.yul\":2173:2174   */\n      dup1\n        /* \"#utility.yul\":2166:2178   */\n      revert\n        /* \"#utility.yul\":2117:2180   */\n    tag_199:\n        /* \"#utility.yul\":2064:2186   */\n      pop\n      jump\t// out\n        /* \"#utility.yul\":2192:2331   */\n    tag_139:\n        /* \"#utility.yul\":2238:2243   */\n      0x00\n        /* \"#utility.yul\":2276:2282   */\n      dup2\n        /* \"#utility.yul\":2263:2283   */\n      calldataload\n        /* \"#utility.yul\":2254:2283   */\n      swap1\n      pop\n        /* \"#utility.yul\":2292:2325   */\n      tag_201\n        /* \"#utility.yul\":2319:2324   */\n      dup2\n        /* \"#utility.yul\":2292:2325   */\n      tag_138\n      jump\t// in\n    tag_201:\n        /* \"#utility.yul\":2192:2331   */\n      swap3\n      swap2\n      pop\n      pop\n      jump\t// out\n        /* \"#utility.yul\":2337:2455   */\n    tag_140:\n        /* \"#utility.yul\":2408:2430   */\n      tag_203\n        /* \"#utility.yul\":2424:2429   */\n      dup2\n        /* \"#utility.yul\":2408:2430   */\n      tag_133\n      jump\t// in\n    tag_203:\n        /* \"#utility.yul\":2401:2406   */\n      dup2\n        /* \"#utility.yul\":2398:2431   */\n      eq\n        /* \"#utility.yul\":2388:2449   */\n      tag_204\n      jumpi\n        /* \"#utility.yul\":2445:2446   */\n      0x00\n        /* \"#utility.yul\":2442:2443   */\n      dup1\n        /* \"#utility.yul\":2435:2447   */\n      revert\n        /* \"#utility.yul\":2388:2449   */\n    tag_204:\n        /* \"#utility.yul\":2337:2455   */\n      pop\n      jump\t// out\n        /* \"#utility.yul\":2461:2596   */\n    tag_141:\n        /* \"#utility.yul\":2505:2510   */\n      0x00\n        /* \"#utility.yul\":2543:2549   */\n      dup2\n        /* \"#utility.yul\":2530:2550   */\n      calldataload\n        /* \"#utility.yul\":2521:2550   */\n      swap1\n      pop\n        /* \"#utility.yul\":2559:2590   */\n      tag_206\n        /* \"#utility.yul\":2584:2589   */\n      dup2\n        /* \"#utility.yul\":2559:2590   */\n      tag_140\n      jump\t// in\n    tag_206:\n        /* \"#utility.yul\":2461:2596   */\n      swap3\n      swap2\n      pop\n      pop\n      jump\t// out\n        /* \"#utility.yul\":2602:2724   */\n    tag_142:\n        /* \"#utility.yul\":2675:2699   */\n      tag_208\n        /* \"#utility.yul\":2693:2698   */\n      dup2\n        /* \"#utility.yul\":2675:2699   */\n      tag_130\n      jump\t// in\n    tag_208:\n        /* \"#utility.yul\":2668:2673   */\n      dup2\n        /* \"#utility.yul\":2665:2700   */\n      eq\n        /* \"#utility.yul\":2655:2718   */\n      tag_209\n      jumpi\n        /* \"#utility.yul\":2714:2715   */\n      0x00\n        /* \"#utility.yul\":2711:2712   */\n      dup1\n        /* \"#utility.yul\":2704:2716   */\n      revert\n        /* \"#utility.yul\":2655:2718   */\n    tag_209:\n        /* \"#utility.yul\":2602:2724   */\n      pop\n      jump\t// out\n        /* \"#utility.yul\":2730:2869   */\n    tag_143:\n        /* \"#utility.yul\":2776:2781   */\n      0x00\n        /* \"#utility.yul\":2814:2820   */\n      dup2\n        /* \"#utility.yul\":2801:2821   */\n      calldataload\n        /* \"#utility.yul\":2792:2821   */\n      swap1\n      pop\n        /* \"#utility.yul\":2830:2863   */\n      tag_211\n        /* \"#utility.yul\":2857:2862   */\n      dup2\n        /* \"#utility.yul\":2830:2863   */\n      tag_142\n      jump\t// in\n    tag_211:\n        /* \"#utility.yul\":2730:2869   */\n      swap3\n      swap2\n      pop\n      pop\n      jump\t// out\n        /* \"#utility.yul\":2875:2992   */\n    tag_144:\n        /* \"#utility.yul\":2984:2985   */\n      0x00\n        /* \"#utility.yul\":2981:2982   */\n      dup1\n        /* \"#utility.yul\":2974:2986   */\n      revert\n        /* \"#utility.yul\":2998:3115   */\n    tag_145:\n        /* \"#utility.yul\":3107:3108   */\n      0x00\n        /* \"#utility.yul\":3104:3105   */\n      dup1\n        /* \"#utility.yul\":3097:3109   */\n      revert\n        /* \"#utility.yul\":3121:3238   */\n    tag_146:\n        /* \"#utility.yul\":3230:3231   */\n      0x00\n        /* \"#utility.yul\":3227:3228   */\n      dup1\n        /* \"#utility.yul\":3220:3232   */\n      revert\n        /* \"#utility.yul\":3257:3809   */\n    tag_147:\n        /* \"#utility.yul\":3314:3322   */\n      0x00\n        /* \"#utility.yul\":3324:3330   */\n      dup1\n        /* \"#utility.yul\":3374:3377   */\n      dup4\n        /* \"#utility.yul\":3367:3371   */\n      0x1f\n        /* \"#utility.yul\":3359:3365   */\n      dup5\n        /* \"#utility.yul\":3355:3372   */\n      add\n        /* \"#utility.yul\":3351:3378   */\n      slt\n        /* \"#utility.yul\":3341:3463   */\n      tag_216\n      jumpi\n        /* \"#utility.yul\":3382:3461   */\n      tag_217\n      tag_144\n      jump\t// in\n    tag_217:\n        /* \"#utility.yul\":3341:3463   */\n    tag_216:\n        /* \"#utility.yul\":3495:3501   */\n      dup3\n        /* \"#utility.yul\":3482:3502   */\n      calldataload\n        /* \"#utility.yul\":3472:3502   */\n      swap1\n      pop\n        /* \"#utility.yul\":3525:3543   */\n      0xffffffffffffffff\n        /* \"#utility.yul\":3517:3523   */\n      dup2\n        /* \"#utility.yul\":3514:3544   */\n      gt\n        /* \"#utility.yul\":3511:3628   */\n      iszero\n      tag_218\n      jumpi\n        /* \"#utility.yul\":3547:3626   */\n      tag_219\n      tag_145\n      jump\t// in\n    tag_219:\n        /* \"#utility.yul\":3511:3628   */\n    tag_218:\n        /* \"#utility.yul\":3661:3665   */\n      0x20\n        /* \"#utility.yul\":3653:3659   */\n      dup4\n        /* \"#utility.yul\":3649:3666   */\n      add\n        /* \"#utility.yul\":3637:3666   */\n      swap2\n      pop\n        /* \"#utility.yul\":3715:3718   */\n      dup4\n        /* \"#utility.yul\":3707:3711   */\n      0x01\n        /* \"#utility.yul\":3699:3705   */\n      dup3\n        /* \"#utility.yul\":3695:3712   */\n      mul\n        /* \"#utility.yul\":3685:3693   */\n      dup4\n        /* \"#utility.yul\":3681:3713   */\n      add\n        /* \"#utility.yul\":3678:3719   */\n      gt\n        /* \"#utility.yul\":3675:3803   */\n      iszero\n      tag_220\n      jumpi\n        /* \"#utility.yul\":3722:3801   */\n      tag_221\n      tag_146\n      jump\t// in\n    tag_221:\n        /* \"#utility.yul\":3675:3803   */\n    tag_220:\n        /* \"#utility.yul\":3257:3809   */\n      swap3\n      pop\n      swap3\n      swap1\n      pop\n      jump\t// out\n        /* \"#utility.yul\":3815:4916   */\n    tag_26:\n        /* \"#utility.yul\":3917:3923   */\n      0x00\n        /* \"#utility.yul\":3925:3931   */\n      dup1\n        /* \"#utility.yul\":3933:3939   */\n      0x00\n        /* \"#utility.yul\":3941:3947   */\n      dup1\n        /* \"#utility.yul\":3949:3955   */\n      0x00\n        /* \"#utility.yul\":3957:3963   */\n      dup1\n        /* \"#utility.yul\":4006:4009   */\n      0xa0\n        /* \"#utility.yul\":3994:4003   */\n      dup8\n        /* \"#utility.yul\":3985:3992   */\n      dup10\n        /* \"#utility.yul\":3981:4004   */\n      sub\n        /* \"#utility.yul\":3977:4010   */\n      slt\n        /* \"#utility.yul\":3974:4094   */\n      iszero\n      tag_223\n      jumpi\n        /* \"#utility.yul\":4013:4092   */\n      tag_224\n      tag_136\n      jump\t// in\n    tag_224:\n        /* \"#utility.yul\":3974:4094   */\n    tag_223:\n        /* \"#utility.yul\":4133:4134   */\n      0x00\n        /* \"#utility.yul\":4158:4211   */\n      tag_225\n        /* \"#utility.yul\":4203:4210   */\n      dup10\n        /* \"#utility.yul\":4194:4200   */\n      dup3\n        /* \"#utility.yul\":4183:4192   */\n      dup11\n        /* \"#utility.yul\":4179:4201   */\n      add\n        /* \"#utility.yul\":4158:4211   */\n      tag_139\n      jump\t// in\n    tag_225:\n        /* \"#utility.yul\":4148:4211   */\n      swap7\n      pop\n        /* \"#utility.yul\":4104:4221   */\n      pop\n        /* \"#utility.yul\":4260:4262   */\n      0x20\n        /* \"#utility.yul\":4286:4337   */\n      tag_226\n        /* \"#utility.yul\":4329:4336   */\n      dup10\n        /* \"#utility.yul\":4320:4326   */\n      dup3\n        /* \"#utility.yul\":4309:4318   */\n      dup11\n        /* \"#utility.yul\":4305:4327   */\n      add\n        /* \"#utility.yul\":4286:4337   */\n      tag_141\n      jump\t// in\n    tag_226:\n        /* \"#utility.yul\":4276:4337   */\n      swap6\n      pop\n        /* \"#utility.yul\":4231:4347   */\n      pop\n        /* \"#utility.yul\":4386:4388   */\n      0x40\n        /* \"#utility.yul\":4412:4463   */\n      tag_227\n        /* \"#utility.yul\":4455:4462   */\n      dup10\n        /* \"#utility.yul\":4446:4452   */\n      dup3\n        /* \"#utility.yul\":4435:4444   */\n      dup11\n        /* \"#utility.yul\":4431:4453   */\n      add\n        /* \"#utility.yul\":4412:4463   */\n      tag_141\n      jump\t// in\n    tag_227:\n        /* \"#utility.yul\":4402:4463   */\n      swap5\n      pop\n        /* \"#utility.yul\":4357:4473   */\n      pop\n        /* \"#utility.yul\":4512:4514   */\n      0x60\n        /* \"#utility.yul\":4538:4591   */\n      tag_228\n        /* \"#utility.yul\":4583:4590   */\n      dup10\n        /* \"#utility.yul\":4574:4580   */\n      dup3\n        /* \"#utility.yul\":4563:4572   */\n      dup11\n        /* \"#utility.yul\":4559:4581   */\n      add\n        /* \"#utility.yul\":4538:4591   */\n      tag_143\n      jump\t// in\n    tag_228:\n        /* \"#utility.yul\":4528:4591   */\n      swap4\n      pop\n        /* \"#utility.yul\":4483:4601   */\n      pop\n        /* \"#utility.yul\":4668:4671   */\n      0x80\n        /* \"#utility.yul\":4657:4666   */\n      dup8\n        /* \"#utility.yul\":4653:4672   */\n      add\n        /* \"#utility.yul\":4640:4673   */\n      calldataload\n        /* \"#utility.yul\":4700:4718   */\n      0xffffffffffffffff\n        /* \"#utility.yul\":4692:4698   */\n      dup2\n        /* \"#utility.yul\":4689:4719   */\n      gt\n        /* \"#utility.yul\":4686:4803   */\n      iszero\n      tag_229\n      jumpi\n        /* \"#utility.yul\":4722:4801   */\n      tag_230\n      tag_137\n      jump\t// in\n    tag_230:\n        /* \"#utility.yul\":4686:4803   */\n    tag_229:\n        /* \"#utility.yul\":4835:4899   */\n      tag_231\n        /* \"#utility.yul\":4891:4898   */\n      dup10\n        /* \"#utility.yul\":4882:4888   */\n      dup3\n        /* \"#utility.yul\":4871:4880   */\n      dup11\n        /* \"#utility.yul\":4867:4889   */\n      add\n        /* \"#utility.yul\":4835:4899   */\n      tag_147\n      jump\t// in\n    tag_231:\n        /* \"#utility.yul\":4817:4899   */\n      swap3\n      pop\n      swap3\n      pop\n        /* \"#utility.yul\":4611:4909   */\n      pop\n        /* \"#utility.yul\":3815:4916   */\n      swap3\n      swap6\n      pop\n      swap3\n      swap6\n      pop\n      swap3\n      swap6\n      jump\t// out\n        /* \"#utility.yul\":4922:4999   */\n    tag_148:\n        /* \"#utility.yul\":4959:4966   */\n      0x00\n        /* \"#utility.yul\":4988:4993   */\n      dup2\n        /* \"#utility.yul\":4977:4993   */\n      swap1\n      pop\n        /* \"#utility.yul\":4922:4999   */\n      swap2\n      swap1\n      pop\n      jump\t// out\n        /* \"#utility.yul\":5005:5123   */\n    tag_149:\n        /* \"#utility.yul\":5092:5116   */\n      tag_234\n        /* \"#utility.yul\":5110:5115   */\n      dup2\n        /* \"#utility.yul\":5092:5116   */\n      tag_148\n      jump\t// in\n    tag_234:\n        /* \"#utility.yul\":5087:5090   */\n      dup3\n        /* \"#utility.yul\":5080:5117   */\n      mstore\n        /* \"#utility.yul\":5005:5123   */\n      pop\n      pop\n      jump\t// out\n        /* \"#utility.yul\":5129:5461   */\n    tag_29:\n        /* \"#utility.yul\":5250:5254   */\n      0x00\n        /* \"#utility.yul\":5288:5290   */\n      0x40\n        /* \"#utility.yul\":5277:5286   */\n      dup3\n        /* \"#utility.yul\":5273:5291   */\n      add\n        /* \"#utility.yul\":5265:5291   */\n      swap1\n      pop\n        /* \"#utility.yul\":5301:5372   */\n      tag_236\n        /* \"#utility.yul\":5369:5370   */\n      0x00\n        /* \"#utility.yul\":5358:5367   */\n      dup4\n        /* \"#utility.yul\":5354:5371   */\n      add\n        /* \"#utility.yul\":5345:5351   */\n      dup6\n        /* \"#utility.yul\":5301:5372   */\n      tag_149\n      jump\t// in\n    tag_236:\n        /* \"#utility.yul\":5382:5454   */\n      tag_237\n        /* \"#utility.yul\":5450:5452   */\n      0x20\n        /* \"#utility.yul\":5439:5448   */\n      dup4\n        /* \"#utility.yul\":5435:5453   */\n      add\n        /* \"#utility.yul\":5426:5432   */\n      dup5\n        /* \"#utility.yul\":5382:5454   */\n      tag_149\n      jump\t// in\n    tag_237:\n        /* \"#utility.yul\":5129:5461   */\n      swap4\n      swap3\n      pop\n      pop\n      pop\n      jump\t// out\n        /* \"#utility.yul\":5467:5544   */\n    tag_150:\n        /* \"#utility.yul\":5504:5511   */\n      0x00\n        /* \"#utility.yul\":5533:5538   */\n      dup2\n        /* \"#utility.yul\":5522:5538   */\n      swap1\n      pop\n        /* \"#utility.yul\":5467:5544   */\n      swap2\n      swap1\n      pop\n      jump\t// out\n        /* \"#utility.yul\":5550:5672   */\n    tag_151:\n        /* \"#utility.yul\":5623:5647   */\n      tag_240\n        /* \"#utility.yul\":5641:5646   */\n      dup2\n        /* \"#utility.yul\":5623:5647   */\n      tag_150\n      jump\t// in\n    tag_240:\n        /* \"#utility.yul\":5616:5621   */\n      dup2\n        /* \"#utility.yul\":5613:5648   */\n      eq\n        /* \"#utility.yul\":5603:5666   */\n      tag_241\n      jumpi\n        /* \"#utility.yul\":5662:5663   */\n      0x00\n        /* \"#utility.yul\":5659:5660   */\n      dup1\n        /* \"#utility.yul\":5652:5664   */\n      revert\n        /* \"#utility.yul\":5603:5666   */\n    tag_241:\n        /* \"#utility.yul\":5550:5672   */\n      pop\n      jump\t// out\n        /* \"#utility.yul\":5678:5817   */\n    tag_152:\n        /* \"#utility.yul\":5724:5729   */\n      0x00\n        /* \"#utility.yul\":5762:5768   */\n      dup2\n        /* \"#utility.yul\":5749:5769   */\n      calldataload\n        /* \"#utility.yul\":5740:5769   */\n      swap1\n      pop\n        /* \"#utility.yul\":5778:5811   */\n      tag_243\n        /* \"#utility.yul\":5805:5810   */\n      dup2\n        /* \"#utility.yul\":5778:5811   */\n      tag_151\n      jump\t// in\n    tag_243:\n        /* \"#utility.yul\":5678:5817   */\n      swap3\n      swap2\n      pop\n      pop\n      jump\t// out\n        /* \"#utility.yul\":5823:6152   */\n    tag_32:\n        /* \"#utility.yul\":5882:5888   */\n      0x00\n        /* \"#utility.yul\":5931:5933   */\n      0x20\n        /* \"#utility.yul\":5919:5928   */\n      dup3\n        /* \"#utility.yul\":5910:5917   */\n      dup5\n        /* \"#utility.yul\":5906:5929   */\n      sub\n        /* \"#utility.yul\":5902:5934   */\n      slt\n        /* \"#utility.yul\":5899:6018   */\n      iszero\n      tag_245\n      jumpi\n        /* \"#utility.yul\":5937:6016   */\n      tag_246\n      tag_136\n      jump\t// in\n    tag_246:\n        /* \"#utility.yul\":5899:6018   */\n    tag_245:\n        /* \"#utility.yul\":6057:6058   */\n      0x00\n        /* \"#utility.yul\":6082:6135   */\n      tag_247\n        /* \"#utility.yul\":6127:6134   */\n      dup5\n        /* \"#utility.yul\":6118:6124   */\n      dup3\n        /* \"#utility.yul\":6107:6116   */\n      dup6\n        /* \"#utility.yul\":6103:6125   */\n      add\n        /* \"#utility.yul\":6082:6135   */\n      tag_152\n      jump\t// in\n    tag_247:\n        /* \"#utility.yul\":6072:6135   */\n      swap2\n      pop\n        /* \"#utility.yul\":6028:6145   */\n      pop\n        /* \"#utility.yul\":5823:6152   */\n      swap3\n      swap2\n      pop\n      pop\n      jump\t// out\n        /* \"#utility.yul\":6158:6830   */\n    tag_40:\n        /* \"#utility.yul\":6237:6243   */\n      0x00\n        /* \"#utility.yul\":6245:6251   */\n      dup1\n        /* \"#utility.yul\":6253:6259   */\n      0x00\n        /* \"#utility.yul\":6302:6304   */\n      0x40\n        /* \"#utility.yul\":6290:6299   */\n      dup5\n        /* \"#utility.yul\":6281:6288   */\n      dup7\n        /* \"#utility.yul\":6277:6300   */\n      sub\n        /* \"#utility.yul\":6273:6305   */\n      slt\n        /* \"#utility.yul\":6270:6389   */\n      iszero\n      tag_249\n      jumpi\n        /* \"#utility.yul\":6308:6387   */\n      tag_250\n      tag_136\n      jump\t// in\n    tag_250:\n        /* \"#utility.yul\":6270:6389   */\n    tag_249:\n        /* \"#utility.yul\":6428:6429   */\n      0x00\n        /* \"#utility.yul\":6453:6506   */\n      tag_251\n        /* \"#utility.yul\":6498:6505   */\n      dup7\n        /* \"#utility.yul\":6489:6495   */\n      dup3\n        /* \"#utility.yul\":6478:6487   */\n      dup8\n        /* \"#utility.yul\":6474:6496   */\n      add\n        /* \"#utility.yul\":6453:6506   */\n      tag_139\n      jump\t// in\n    tag_251:\n        /* \"#utility.yul\":6443:6506   */\n      swap4\n      pop\n        /* \"#utility.yul\":6399:6516   */\n      pop\n        /* \"#utility.yul\":6583:6585   */\n      0x20\n        /* \"#utility.yul\":6572:6581   */\n      dup5\n        /* \"#utility.yul\":6568:6586   */\n      add\n        /* \"#utility.yul\":6555:6587   */\n      calldataload\n        /* \"#utility.yul\":6614:6632   */\n      0xffffffffffffffff\n        /* \"#utility.yul\":6606:6612   */\n      dup2\n        /* \"#utility.yul\":6603:6633   */\n      gt\n        /* \"#utility.yul\":6600:6717   */\n      iszero\n      tag_252\n      jumpi\n        /* \"#utility.yul\":6636:6715   */\n      tag_253\n      tag_137\n      jump\t// in\n    tag_253:\n        /* \"#utility.yul\":6600:6717   */\n    tag_252:\n        /* \"#utility.yul\":6749:6813   */\n      tag_254\n        /* \"#utility.yul\":6805:6812   */\n      dup7\n        /* \"#utility.yul\":6796:6802   */\n      dup3\n        /* \"#utility.yul\":6785:6794   */\n      dup8\n        /* \"#utility.yul\":6781:6803   */\n      add\n        /* \"#utility.yul\":6749:6813   */\n      tag_147\n      jump\t// in\n    tag_254:\n        /* \"#utility.yul\":6731:6813   */\n      swap3\n      pop\n      swap3\n      pop\n        /* \"#utility.yul\":6526:6823   */\n      pop\n        /* \"#utility.yul\":6158:6830   */\n      swap3\n      pop\n      swap3\n      pop\n      swap3\n      jump\t// out\n        /* \"#utility.yul\":6836:6912   */\n    tag_153:\n        /* \"#utility.yul\":6872:6879   */\n      0x00\n        /* \"#utility.yul\":6901:6906   */\n      dup2\n        /* \"#utility.yul\":6890:6906   */\n      swap1\n      pop\n        /* \"#utility.yul\":6836:6912   */\n      swap2\n      swap1\n      pop\n      jump\t// out\n        /* \"#utility.yul\":6918:7033   */\n    tag_154:\n        /* \"#utility.yul\":7003:7026   */\n      tag_257\n        /* \"#utility.yul\":7020:7025   */\n      dup2\n        /* \"#utility.yul\":7003:7026   */\n      tag_153\n      jump\t// in\n    tag_257:\n        /* \"#utility.yul\":6998:7001   */\n      dup3\n        /* \"#utility.yul\":6991:7027   */\n      mstore\n        /* \"#utility.yul\":6918:7033   */\n      pop\n      pop\n      jump\t// out\n        /* \"#utility.yul\":7039:7363   */\n    tag_43:\n        /* \"#utility.yul\":7156:7160   */\n      0x00\n        /* \"#utility.yul\":7194:7196   */\n      0x40\n        /* \"#utility.yul\":7183:7192   */\n      dup3\n        /* \"#utility.yul\":7179:7197   */\n      add\n        /* \"#utility.yul\":7171:7197   */\n      swap1\n      pop\n        /* \"#utility.yul\":7207:7276   */\n      tag_259\n        /* \"#utility.yul\":7273:7274   */\n      0x00\n        /* \"#utility.yul\":7262:7271   */\n      dup4\n        /* \"#utility.yul\":7258:7275   */\n      add\n        /* \"#utility.yul\":7249:7255   */\n      dup6\n        /* \"#utility.yul\":7207:7276   */\n      tag_154\n      jump\t// in\n    tag_259:\n        /* \"#utility.yul\":7286:7356   */\n      tag_260\n        /* \"#utility.yul\":7352:7354   */\n      0x20\n        /* \"#utility.yul\":7341:7350   */\n      dup4\n        /* \"#utility.yul\":7337:7355   */\n      add\n        /* \"#utility.yul\":7328:7334   */\n      dup5\n        /* \"#utility.yul\":7286:7356   */\n      tag_154\n      jump\t// in\n    tag_260:\n        /* \"#utility.yul\":7039:7363   */\n      swap4\n      swap3\n      pop\n      pop\n      pop\n      jump\t// out\n        /* \"#utility.yul\":7369:7694   */\n    tag_46:\n        /* \"#utility.yul\":7426:7432   */\n      0x00\n        /* \"#utility.yul\":7475:7477   */\n      0x20\n        /* \"#utility.yul\":7463:7472   */\n      dup3\n        /* \"#utility.yul\":7454:7461   */\n      dup5\n        /* \"#utility.yul\":7450:7473   */\n      sub\n        /* \"#utility.yul\":7446:7478   */\n      slt\n        /* \"#utility.yul\":7443:7562   */\n      iszero\n      tag_262\n      jumpi\n        /* \"#utility.yul\":7481:7560   */\n      tag_263\n      tag_136\n      jump\t// in\n    tag_263:\n        /* \"#utility.yul\":7443:7562   */\n    tag_262:\n        /* \"#utility.yul\":7601:7602   */\n      0x00\n        /* \"#utility.yul\":7626:7677   */\n      tag_264\n        /* \"#utility.yul\":7669:7676   */\n      dup5\n        /* \"#utility.yul\":7660:7666   */\n      dup3\n        /* \"#utility.yul\":7649:7658   */\n      dup6\n        /* \"#utility.yul\":7645:7667   */\n      add\n        /* \"#utility.yul\":7626:7677   */\n      tag_141\n      jump\t// in\n    tag_264:\n        /* \"#utility.yul\":7616:7677   */\n      swap2\n      pop\n        /* \"#utility.yul\":7572:7687   */\n      pop\n        /* \"#utility.yul\":7369:7694   */\n      swap3\n      swap2\n      pop\n      pop\n      jump\t// out\n        /* \"#utility.yul\":7700:7790   */\n    tag_155:\n        /* \"#utility.yul\":7734:7741   */\n      0x00\n        /* \"#utility.yul\":7777:7782   */\n      dup2\n        /* \"#utility.yul\":7770:7783   */\n      iszero\n        /* \"#utility.yul\":7763:7784   */\n      iszero\n        /* \"#utility.yul\":7752:7784   */\n      swap1\n      pop\n        /* \"#utility.yul\":7700:7790   */\n      swap2\n      swap1\n      pop\n      jump\t// out\n        /* \"#utility.yul\":7796:7905   */\n    tag_156:\n        /* \"#utility.yul\":7877:7898   */\n      tag_267\n        /* \"#utility.yul\":7892:7897   */\n      dup2\n        /* \"#utility.yul\":7877:7898   */\n      tag_155\n      jump\t// in\n    tag_267:\n        /* \"#utility.yul\":7872:7875   */\n      dup3\n        /* \"#utility.yul\":7865:7899   */\n      mstore\n        /* \"#utility.yul\":7796:7905   */\n      pop\n      pop\n      jump\t// out\n        /* \"#utility.yul\":7911:8231   */\n    tag_49:\n        /* \"#utility.yul\":8026:8030   */\n      0x00\n        /* \"#utility.yul\":8064:8066   */\n      0x40\n        /* \"#utility.yul\":8053:8062   */\n      dup3\n        /* \"#utility.yul\":8049:8067   */\n      add\n        /* \"#utility.yul\":8041:8067   */\n      swap1\n      pop\n        /* \"#utility.yul\":8077:8142   */\n      tag_269\n        /* \"#utility.yul\":8139:8140   */\n      0x00\n        /* \"#utility.yul\":8128:8137   */\n      dup4\n        /* \"#utility.yul\":8124:8141   */\n      add\n        /* \"#utility.yul\":8115:8121   */\n      dup6\n        /* \"#utility.yul\":8077:8142   */\n      tag_156\n      jump\t// in\n    tag_269:\n        /* \"#utility.yul\":8152:8224   */\n      tag_270\n        /* \"#utility.yul\":8220:8222   */\n      0x20\n        /* \"#utility.yul\":8209:8218   */\n      dup4\n        /* \"#utility.yul\":8205:8223   */\n      add\n        /* \"#utility.yul\":8196:8202   */\n      dup5\n        /* \"#utility.yul\":8152:8224   */\n      tag_131\n      jump\t// in\n    tag_270:\n        /* \"#utility.yul\":7911:8231   */\n      swap4\n      swap3\n      pop\n      pop\n      pop\n      jump\t// out\n        /* \"#utility.yul\":8237:8417   */\n    tag_157:\n        /* \"#utility.yul\":8285:8362   */\n      0x4e487b7100000000000000000000000000000000000000000000000000000000\n        /* \"#utility.yul\":8282:8283   */\n      0x00\n        /* \"#utility.yul\":8275:8363   */\n      mstore\n        /* \"#utility.yul\":8382:8386   */\n      0x11\n        /* \"#utility.yul\":8379:8380   */\n      0x04\n        /* \"#utility.yul\":8372:8387   */\n      mstore\n        /* \"#utility.yul\":8406:8410   */\n      0x24\n        /* \"#utility.yul\":8403:8404   */\n      0x00\n        /* \"#utility.yul\":8396:8411   */\n      revert\n        /* \"#utility.yul\":8423:8649   */\n    tag_54:\n        /* \"#utility.yul\":8457:8460   */\n      0x00\n        /* \"#utility.yul\":8480:8502   */\n      tag_273\n        /* \"#utility.yul\":8496:8501   */\n      dup3\n        /* \"#utility.yul\":8480:8502   */\n      tag_133\n      jump\t// in\n    tag_273:\n        /* \"#utility.yul\":8471:8502   */\n      swap2\n      pop\n        /* \"#utility.yul\":8524:8590   */\n      0xffffffffffffffffffffffffffffffffffffffffffffffffffffffffff800000\n        /* \"#utility.yul\":8517:8522   */\n      dup3\n        /* \"#utility.yul\":8514:8591   */\n      sub\n        /* \"#utility.yul\":8511:8614   */\n      tag_274\n      jumpi\n        /* \"#utility.yul\":8594:8612   */\n      tag_275\n      tag_157\n      jump\t// in\n    tag_275:\n        /* \"#utility.yul\":8511:8614   */\n    tag_274:\n        /* \"#utility.yul\":8637:8642   */\n      dup2\n        /* \"#utility.yul\":8634:8635   */\n      0x00\n        /* \"#utility.yul\":8630:8643   */\n      sub\n        /* \"#utility.yul\":8623:8643   */\n      swap1\n      pop\n        /* \"#utility.yul\":8423:8649   */\n      swap2\n      swap1\n      pop\n      jump\t// out\n        /* \"#utility.yul\":8655:8879   */\n    tag_65:\n        /* \"#utility.yul\":8695:8698   */\n      0x00\n        /* \"#utility.yul\":8714:8734   */\n      tag_277\n        /* \"#utility.yul\":8732:8733   */\n      dup3\n        /* \"#utility.yul\":8714:8734   */\n      tag_130\n      jump\t// in\n    tag_277:\n        /* \"#utility.yul\":8709:8734   */\n      swap2\n      pop\n        /* \"#utility.yul\":8748:8768   */\n      tag_278\n        /* \"#utility.yul\":8766:8767   */\n      dup4\n        /* \"#utility.yul\":8748:8768   */\n      tag_130\n      jump\t// in\n    tag_278:\n        /* \"#utility.yul\":8743:8768   */\n      swap3\n      pop\n        /* \"#utility.yul\":8791:8792   */\n      dup3\n        /* \"#utility.yul\":8788:8789   */\n      dup3\n        /* \"#utility.yul\":8784:8793   */\n      add\n        /* \"#utility.yul\":8777:8793   */\n      swap1\n      pop\n        /* \"#utility.yul\":8814:8848   */\n      0xffffffffffffffffffffffffffffffff\n        /* \"#utility.yul\":8809:8812   */\n      dup2\n        /* \"#utility.yul\":8806:8849   */\n      gt\n        /* \"#utility.yul\":8803:8872   */\n      iszero\n      tag_279\n      jumpi\n        /* \"#utility.yul\":8852:8870   */\n      tag_280\n      tag_157\n      jump\t// in\n    tag_280:\n        /* \"#utility.yul\":8803:8872   */\n    tag_279:\n        /* \"#utility.yul\":8655:8879   */\n      swap3\n      swap2\n      pop\n      pop\n      jump\t// out\n        /* \"#utility.yul\":8885:9053   */\n    tag_158:\n        /* \"#utility.yul\":8968:8979   */\n      0x00\n        /* \"#utility.yul\":9002:9008   */\n      dup3\n        /* \"#utility.yul\":8997:9000   */\n      dup3\n        /* \"#utility.yul\":8990:9009   */\n      mstore\n        /* \"#utility.yul\":9042:9046   */\n      0x20\n        /* \"#utility.yul\":9037:9040   */\n      dup3\n        /* \"#utility.yul\":9033:9047   */\n      add\n        /* \"#utility.yul\":9018:9047   */\n      swap1\n      pop\n        /* \"#utility.yul\":8885:9053   */\n      swap3\n      swap2\n      pop\n      pop\n      jump\t// out\n        /* \"#utility.yul\":9059:9207   */\n    tag_159:\n        /* \"#utility.yul\":9157:9163   */\n      dup3\n        /* \"#utility.yul\":9152:9155   */\n      dup2\n        /* \"#utility.yul\":9147:9150   */\n      dup4\n        /* \"#utility.yul\":9134:9164   */\n      calldatacopy\n        /* \"#utility.yul\":9198:9199   */\n      0x00\n        /* \"#utility.yul\":9189:9195   */\n      dup4\n        /* \"#utility.yul\":9184:9187   */\n      dup4\n        /* \"#utility.yul\":9180:9196   */\n      add\n        /* \"#utility.yul\":9173:9200   */\n      mstore\n        /* \"#utility.yul\":9059:9207   */\n      pop\n      pop\n      pop\n      jump\t// out\n        /* \"#utility.yul\":9213:9315   */\n    tag_160:\n        /* \"#utility.yul\":9254:9260   */\n      0x00\n        /* \"#utility.yul\":9305:9307   */\n      0x1f\n        /* \"#utility.yul\":9301:9308   */\n      not\n        /* \"#utility.yul\":9296:9298   */\n      0x1f\n        /* \"#utility.yul\":9289:9294   */\n      dup4\n        /* \"#utility.yul\":9285:9299   */\n      add\n        /* \"#utility.yul\":9281:9309   */\n      and\n        /* \"#utility.yul\":9271:9309   */\n      swap1\n      pop\n        /* \"#utility.yul\":9213:9315   */\n      swap2\n      swap1\n      pop\n      jump\t// out\n        /* \"#utility.yul\":9343:9657   */\n    tag_161:\n        /* \"#utility.yul\":9439:9442   */\n      0x00\n        /* \"#utility.yul\":9460:9530   */\n      tag_285\n        /* \"#utility.yul\":9523:9529   */\n      dup4\n        /* \"#utility.yul\":9518:9521   */\n      dup6\n        /* \"#utility.yul\":9460:9530   */\n      tag_158\n      jump\t// in\n    tag_285:\n        /* \"#utility.yul\":9453:9530   */\n      swap4\n      pop\n        /* \"#utility.yul\":9540:9596   */\n      tag_286\n        /* \"#utility.yul\":9589:9595   */\n      dup4\n        /* \"#utility.yul\":9584:9587   */\n      dup6\n        /* \"#utility.yul\":9577:9582   */\n      dup5\n        /* \"#utility.yul\":9540:9596   */\n      tag_159\n      jump\t// in\n    tag_286:\n        /* \"#utility.yul\":9621:9650   */\n      tag_287\n        /* \"#utility.yul\":9643:9649   */\n      dup4\n        /* \"#utility.yul\":9621:9650   */\n      tag_160\n      jump\t// in\n    tag_287:\n        /* \"#utility.yul\":9616:9619   */\n      dup5\n        /* \"#utility.yul\":9612:9651   */\n      add\n        /* \"#utility.yul\":9605:9651   */\n      swap1\n      pop\n        /* \"#utility.yul\":9343:9657   */\n      swap4\n      swap3\n      pop\n      pop\n      pop\n      jump\t// out\n        /* \"#utility.yul\":9663:10212   */\n    tag_73:\n        /* \"#utility.yul\":9840:9844   */\n      0x00\n        /* \"#utility.yul\":9878:9880   */\n      0x60\n        /* \"#utility.yul\":9867:9876   */\n      dup3\n        /* \"#utility.yul\":9863:9881   */\n      add\n        /* \"#utility.yul\":9855:9881   */\n      swap1\n      pop\n        /* \"#utility.yul\":9891:9962   */\n      tag_289\n        /* \"#utility.yul\":9959:9960   */\n      0x00\n        /* \"#utility.yul\":9948:9957   */\n      dup4\n        /* \"#utility.yul\":9944:9961   */\n      add\n        /* \"#utility.yul\":9935:9941   */\n      dup8\n        /* \"#utility.yul\":9891:9962   */\n      tag_149\n      jump\t// in\n    tag_289:\n        /* \"#utility.yul\":9972:10044   */\n      tag_290\n        /* \"#utility.yul\":10040:10042   */\n      0x20\n        /* \"#utility.yul\":10029:10038   */\n      dup4\n        /* \"#utility.yul\":10025:10043   */\n      add\n        /* \"#utility.yul\":10016:10022   */\n      dup7\n        /* \"#utility.yul\":9972:10044   */\n      tag_149\n      jump\t// in\n    tag_290:\n        /* \"#utility.yul\":10091:10100   */\n      dup2\n        /* \"#utility.yul\":10085:10089   */\n      dup2\n        /* \"#utility.yul\":10081:10101   */\n      sub\n        /* \"#utility.yul\":10076:10078   */\n      0x40\n        /* \"#utility.yul\":10065:10074   */\n      dup4\n        /* \"#utility.yul\":10061:10079   */\n      add\n        /* \"#utility.yul\":10054:10102   */\n      mstore\n        /* \"#utility.yul\":10119:10205   */\n      tag_291\n        /* \"#utility.yul\":10200:10204   */\n      dup2\n        /* \"#utility.yul\":10191:10197   */\n      dup5\n        /* \"#utility.yul\":10183:10189   */\n      dup7\n        /* \"#utility.yul\":10119:10205   */\n      tag_161\n      jump\t// in\n    tag_291:\n        /* \"#utility.yul\":10111:10205   */\n      swap1\n      pop\n        /* \"#utility.yul\":9663:10212   */\n      swap6\n      swap5\n      pop\n      pop\n      pop\n      pop\n      pop\n      jump\t// out\n        /* \"#utility.yul\":10218:10409   */\n    tag_80:\n        /* \"#utility.yul\":10258:10261   */\n      0x00\n        /* \"#utility.yul\":10277:10297   */\n      tag_293\n        /* \"#utility.yul\":10295:10296   */\n      dup3\n        /* \"#utility.yul\":10277:10297   */\n      tag_148\n      jump\t// in\n    tag_293:\n        /* \"#utility.yul\":10272:10297   */\n      swap2\n      pop\n        /* \"#utility.yul\":10311:10331   */\n      tag_294\n        /* \"#utility.yul\":10329:10330   */\n      dup4\n        /* \"#utility.yul\":10311:10331   */\n      tag_148\n      jump\t// in\n    tag_294:\n        /* \"#utility.yul\":10306:10331   */\n      swap3\n      pop\n        /* \"#utility.yul\":10354:10355   */\n      dup3\n        /* \"#utility.yul\":10351:10352   */\n      dup3\n        /* \"#utility.yul\":10347:10356   */\n      add\n        /* \"#utility.yul\":10340:10356   */\n      swap1\n      pop\n        /* \"#utility.yul\":10375:10378   */\n      dup1\n        /* \"#utility.yul\":10372:10373   */\n      dup3\n        /* \"#utility.yul\":10369:10379   */\n      gt\n        /* \"#utility.yul\":10366:10402   */\n      iszero\n      tag_295\n      jumpi\n        /* \"#utility.yul\":10382:10400   */\n      tag_296\n      tag_157\n      jump\t// in\n    tag_296:\n        /* \"#utility.yul\":10366:10402   */\n    tag_295:\n        /* \"#utility.yul\":10218:10409   */\n      swap3\n      swap2\n      pop\n      pop\n      jump\t// out\n        /* \"#utility.yul\":10415:10968   */\n    tag_87:\n        /* \"#utility.yul\":10592:10596   */\n      0x00\n        /* \"#utility.yul\":10630:10633   */\n      0x80\n        /* \"#utility.yul\":10619:10628   */\n      dup3\n        /* \"#utility.yul\":10615:10634   */\n      add\n        /* \"#utility.yul\":10607:10634   */\n      swap1\n      pop\n        /* \"#utility.yul\":10644:10715   */\n      tag_298\n        /* \"#utility.yul\":10712:10713   */\n      0x00\n        /* \"#utility.yul\":10701:10710   */\n      dup4\n        /* \"#utility.yul\":10697:10714   */\n      add\n        /* \"#utility.yul\":10688:10694   */\n      dup8\n        /* \"#utility.yul\":10644:10715   */\n      tag_129\n      jump\t// in\n    tag_298:\n        /* \"#utility.yul\":10725:10797   */\n      tag_299\n        /* \"#utility.yul\":10793:10795   */\n      0x20\n        /* \"#utility.yul\":10782:10791   */\n      dup4\n        /* \"#utility.yul\":10778:10796   */\n      add\n        /* \"#utility.yul\":10769:10775   */\n      dup7\n        /* \"#utility.yul\":10725:10797   */\n      tag_131\n      jump\t// in\n    tag_299:\n        /* \"#utility.yul\":10807:10879   */\n      tag_300\n        /* \"#utility.yul\":10875:10877   */\n      0x40\n        /* \"#utility.yul\":10864:10873   */\n      dup4\n        /* \"#utility.yul\":10860:10878   */\n      add\n        /* \"#utility.yul\":10851:10857   */\n      dup6\n        /* \"#utility.yul\":10807:10879   */\n      tag_149\n      jump\t// in\n    tag_300:\n        /* \"#utility.yul\":10889:10961   */\n      tag_301\n        /* \"#utility.yul\":10957:10959   */\n      0x60\n        /* \"#utility.yul\":10946:10955   */\n      dup4\n        /* \"#utility.yul\":10942:10960   */\n      add\n        /* \"#utility.yul\":10933:10939   */\n      dup5\n        /* \"#utility.yul\":10889:10961   */\n      tag_149\n      jump\t// in\n    tag_301:\n        /* \"#utility.yul\":10415:10968   */\n      swap6\n      swap5\n      pop\n      pop\n      pop\n      pop\n      pop\n      jump\t// out\n        /* \"#utility.yul\":10974:11202   */\n    tag_90:\n        /* \"#utility.yul\":11009:11012   */\n      0x00\n        /* \"#utility.yul\":11032:11055   */\n      tag_303\n        /* \"#utility.yul\":11049:11054   */\n      dup3\n        /* \"#utility.yul\":11032:11055   */\n      tag_153\n      jump\t// in\n    tag_303:\n        /* \"#utility.yul\":11023:11055   */\n      swap2\n      pop\n        /* \"#utility.yul\":11077:11143   */\n      0x8000000000000000000000000000000000000000000000000000000000000000\n        /* \"#utility.yul\":11070:11075   */\n      dup3\n        /* \"#utility.yul\":11067:11144   */\n      sub\n        /* \"#utility.yul\":11064:11167   */\n      tag_304\n      jumpi\n        /* \"#utility.yul\":11147:11165   */\n      tag_305\n      tag_157\n      jump\t// in\n    tag_305:\n        /* \"#utility.yul\":11064:11167   */\n    tag_304:\n        /* \"#utility.yul\":11190:11195   */\n      dup2\n        /* \"#utility.yul\":11187:11188   */\n      0x00\n        /* \"#utility.yul\":11183:11196   */\n      sub\n        /* \"#utility.yul\":11176:11196   */\n      swap1\n      pop\n        /* \"#utility.yul\":10974:11202   */\n      swap2\n      swap1\n      pop\n      jump\t// out\n        /* \"#utility.yul\":11208:11540   */\n    tag_92:\n        /* \"#utility.yul\":11329:11333   */\n      0x00\n        /* \"#utility.yul\":11367:11369   */\n      0x40\n        /* \"#utility.yul\":11356:11365   */\n      dup3\n        /* \"#utility.yul\":11352:11370   */\n      add\n        /* \"#utility.yul\":11344:11370   */\n      swap1\n      pop\n        /* \"#utility.yul\":11380:11451   */\n      tag_307\n        /* \"#utility.yul\":11448:11449   */\n      0x00\n        /* \"#utility.yul\":11437:11446   */\n      dup4\n        /* \"#utility.yul\":11433:11450   */\n      add\n        /* \"#utility.yul\":11424:11430   */\n      dup6\n        /* \"#utility.yul\":11380:11451   */\n      tag_129\n      jump\t// in\n    tag_307:\n        /* \"#utility.yul\":11461:11533   */\n      tag_308\n        /* \"#utility.yul\":11529:11531   */\n      0x20\n        /* \"#utility.yul\":11518:11527   */\n      dup4\n        /* \"#utility.yul\":11514:11532   */\n      add\n        /* \"#utility.yul\":11505:11511   */\n      dup5\n        /* \"#utility.yul\":11461:11533   */\n      tag_149\n      jump\t// in\n    tag_308:\n        /* \"#utility.yul\":11208:11540   */\n      swap4\n      swap3\n      pop\n      pop\n      pop\n      jump\t// out\n        /* \"#utility.yul\":11546:11662   */\n    tag_162:\n        /* \"#utility.yul\":11616:11637   */\n      tag_310\n        /* \"#utility.yul\":11631:11636   */\n      dup2\n        /* \"#utility.yul\":11616:11637   */\n      tag_155\n      jump\t// in\n    tag_310:\n        /* \"#utility.yul\":11609:11614   */\n      dup2\n        /* \"#utility.yul\":11606:11638   */\n      eq\n        /* \"#utility.yul\":11596:11656   */\n      tag_311\n      jumpi\n        /* \"#utility.yul\":11652:11653   */\n      0x00\n        /* \"#utility.yul\":11649:11650   */\n      dup1\n        /* \"#utility.yul\":11642:11654   */\n      revert\n        /* \"#utility.yul\":11596:11656   */\n    tag_311:\n        /* \"#utility.yul\":11546:11662   */\n      pop\n      jump\t// out\n        /* \"#utility.yul\":11668:11805   */\n    tag_163:\n        /* \"#utility.yul\":11722:11727   */\n      0x00\n        /* \"#utility.yul\":11753:11759   */\n      dup2\n        /* \"#utility.yul\":11747:11760   */\n      mload\n        /* \"#utility.yul\":11738:11760   */\n      swap1\n      pop\n        /* \"#utility.yul\":11769:11799   */\n      tag_313\n        /* \"#utility.yul\":11793:11798   */\n      dup2\n        /* \"#utility.yul\":11769:11799   */\n      tag_162\n      jump\t// in\n    tag_313:\n        /* \"#utility.yul\":11668:11805   */\n      swap3\n      swap2\n      pop\n      pop\n      jump\t// out\n        /* \"#utility.yul\":11811:12156   */\n    tag_96:\n        /* \"#utility.yul\":11878:11884   */\n      0x00\n        /* \"#utility.yul\":11927:11929   */\n      0x20\n        /* \"#utility.yul\":11915:11924   */\n      dup3\n        /* \"#utility.yul\":11906:11913   */\n      dup5\n        /* \"#utility.yul\":11902:11925   */\n      sub\n        /* \"#utility.yul\":11898:11930   */\n      slt\n        /* \"#utility.yul\":11895:12014   */\n      iszero\n      tag_315\n      jumpi\n        /* \"#utility.yul\":11933:12012   */\n      tag_316\n      tag_136\n      jump\t// in\n    tag_316:\n        /* \"#utility.yul\":11895:12014   */\n    tag_315:\n        /* \"#utility.yul\":12053:12054   */\n      0x00\n        /* \"#utility.yul\":12078:12139   */\n      tag_317\n        /* \"#utility.yul\":12131:12138   */\n      dup5\n        /* \"#utility.yul\":12122:12128   */\n      dup3\n        /* \"#utility.yul\":12111:12120   */\n      dup6\n        /* \"#utility.yul\":12107:12129   */\n      add\n        /* \"#utility.yul\":12078:12139   */\n      tag_163\n      jump\t// in\n    tag_317:\n        /* \"#utility.yul\":12068:12139   */\n      swap2\n      pop\n        /* \"#utility.yul\":12024:12149   */\n      pop\n        /* \"#utility.yul\":11811:12156   */\n      swap3\n      swap2\n      pop\n      pop\n      jump\t// out\n        /* \"#utility.yul\":12162:12703   */\n    tag_99:\n        /* \"#utility.yul\":12335:12339   */\n      0x00\n        /* \"#utility.yul\":12373:12375   */\n      0x60\n        /* \"#utility.yul\":12362:12371   */\n      dup3\n        /* \"#utility.yul\":12358:12376   */\n      add\n        /* \"#utility.yul\":12350:12376   */\n      swap1\n      pop\n        /* \"#utility.yul\":12386:12455   */\n      tag_319\n        /* \"#utility.yul\":12452:12453   */\n      0x00\n        /* \"#utility.yul\":12441:12450   */\n      dup4\n        /* \"#utility.yul\":12437:12454   */\n      add\n        /* \"#utility.yul\":12428:12434   */\n      dup8\n        /* \"#utility.yul\":12386:12455   */\n      tag_154\n      jump\t// in\n    tag_319:\n        /* \"#utility.yul\":12465:12535   */\n      tag_320\n        /* \"#utility.yul\":12531:12533   */\n      0x20\n        /* \"#utility.yul\":12520:12529   */\n      dup4\n        /* \"#utility.yul\":12516:12534   */\n      add\n        /* \"#utility.yul\":12507:12513   */\n      dup7\n        /* \"#utility.yul\":12465:12535   */\n      tag_154\n      jump\t// in\n    tag_320:\n        /* \"#utility.yul\":12582:12591   */\n      dup2\n        /* \"#utility.yul\":12576:12580   */\n      dup2\n        /* \"#utility.yul\":12572:12592   */\n      sub\n        /* \"#utility.yul\":12567:12569   */\n      0x40\n        /* \"#utility.yul\":12556:12565   */\n      dup4\n        /* \"#utility.yul\":12552:12570   */\n      add\n        /* \"#utility.yul\":12545:12593   */\n      mstore\n        /* \"#utility.yul\":12610:12696   */\n      tag_321\n        /* \"#utility.yul\":12691:12695   */\n      dup2\n        /* \"#utility.yul\":12682:12688   */\n      dup5\n        /* \"#utility.yul\":12674:12680   */\n      dup7\n        /* \"#utility.yul\":12610:12696   */\n      tag_161\n      jump\t// in\n    tag_321:\n        /* \"#utility.yul\":12602:12696   */\n      swap1\n      pop\n        /* \"#utility.yul\":12162:12703   */\n      swap6\n      swap5\n      pop\n      pop\n      pop\n      pop\n      pop\n      jump\t// out\n        /* \"#utility.yul\":12709:13357   */\n    tag_107:\n        /* \"#utility.yul\":12906:12910   */\n      0x00\n        /* \"#utility.yul\":12944:12947   */\n      0xa0\n        /* \"#utility.yul\":12933:12942   */\n      dup3\n        /* \"#utility.yul\":12929:12948   */\n      add\n        /* \"#utility.yul\":12921:12948   */\n      swap1\n      pop\n        /* \"#utility.yul\":12958:13027   */\n      tag_323\n        /* \"#utility.yul\":13024:13025   */\n      0x00\n        /* \"#utility.yul\":13013:13022   */\n      dup4\n        /* \"#utility.yul\":13009:13026   */\n      add\n        /* \"#utility.yul\":13000:13006   */\n      dup9\n        /* \"#utility.yul\":12958:13027   */\n      tag_154\n      jump\t// in\n    tag_323:\n        /* \"#utility.yul\":13037:13107   */\n      tag_324\n        /* \"#utility.yul\":13103:13105   */\n      0x20\n        /* \"#utility.yul\":13092:13101   */\n      dup4\n        /* \"#utility.yul\":13088:13106   */\n      add\n        /* \"#utility.yul\":13079:13085   */\n      dup8\n        /* \"#utility.yul\":13037:13107   */\n      tag_154\n      jump\t// in\n    tag_324:\n        /* \"#utility.yul\":13117:13189   */\n      tag_325\n        /* \"#utility.yul\":13185:13187   */\n      0x40\n        /* \"#utility.yul\":13174:13183   */\n      dup4\n        /* \"#utility.yul\":13170:13188   */\n      add\n        /* \"#utility.yul\":13161:13167   */\n      dup7\n        /* \"#utility.yul\":13117:13189   */\n      tag_132\n      jump\t// in\n    tag_325:\n        /* \"#utility.yul\":13199:13271   */\n      tag_326\n        /* \"#utility.yul\":13267:13269   */\n      0x60\n        /* \"#utility.yul\":13256:13265   */\n      dup4\n        /* \"#utility.yul\":13252:13270   */\n      add\n        /* \"#utility.yul\":13243:13249   */\n      dup6\n        /* \"#utility.yul\":13199:13271   */\n      tag_131\n      jump\t// in\n    tag_326:\n        /* \"#utility.yul\":13281:13350   */\n      tag_327\n        /* \"#utility.yul\":13345:13348   */\n      0x80\n        /* \"#utility.yul\":13334:13343   */\n      dup4\n        /* \"#utility.yul\":13330:13349   */\n      add\n        /* \"#utility.yul\":13321:13327   */\n      dup5\n        /* \"#utility.yul\":13281:13350   */\n      tag_134\n      jump\t// in\n    tag_327:\n        /* \"#utility.yul\":12709:13357   */\n      swap7\n      swap6\n      pop\n      pop\n      pop\n      pop\n      pop\n      pop\n      jump\t// out\n        /* \"#utility.yul\":13363:13457   */\n    tag_164:\n        /* \"#utility.yul\":13396:13404   */\n      0x00\n        /* \"#utility.yul\":13444:13449   */\n      dup2\n        /* \"#utility.yul\":13440:13442   */\n      0x60\n        /* \"#utility.yul\":13436:13450   */\n      shl\n        /* \"#utility.yul\":13415:13450   */\n      swap1\n      pop\n        /* \"#utility.yul\":13363:13457   */\n      swap2\n      swap1\n      pop\n      jump\t// out\n        /* \"#utility.yul\":13463:13557   */\n    tag_165:\n        /* \"#utility.yul\":13502:13509   */\n      0x00\n        /* \"#utility.yul\":13531:13551   */\n      tag_330\n        /* \"#utility.yul\":13545:13550   */\n      dup3\n        /* \"#utility.yul\":13531:13551   */\n      tag_164\n      jump\t// in\n    tag_330:\n        /* \"#utility.yul\":13520:13551   */\n      swap1\n      pop\n        /* \"#utility.yul\":13463:13557   */\n      swap2\n      swap1\n      pop\n      jump\t// out\n        /* \"#utility.yul\":13563:13663   */\n    tag_166:\n        /* \"#utility.yul\":13602:13609   */\n      0x00\n        /* \"#utility.yul\":13631:13657   */\n      tag_332\n        /* \"#utility.yul\":13651:13656   */\n      dup3\n        /* \"#utility.yul\":13631:13657   */\n      tag_165\n      jump\t// in\n    tag_332:\n        /* \"#utility.yul\":13620:13657   */\n      swap1\n      pop\n        /* \"#utility.yul\":13563:13663   */\n      swap2\n      swap1\n      pop\n      jump\t// out\n        /* \"#utility.yul\":13669:13826   */\n    tag_167:\n        /* \"#utility.yul\":13774:13819   */\n      tag_334\n        /* \"#utility.yul\":13794:13818   */\n      tag_335\n        /* \"#utility.yul\":13812:13817   */\n      dup3\n        /* \"#utility.yul\":13794:13818   */\n      tag_128\n      jump\t// in\n    tag_335:\n        /* \"#utility.yul\":13774:13819   */\n      tag_166\n      jump\t// in\n    tag_334:\n        /* \"#utility.yul\":13769:13772   */\n      dup3\n        /* \"#utility.yul\":13762:13820   */\n      mstore\n        /* \"#utility.yul\":13669:13826   */\n      pop\n      pop\n      jump\t// out\n        /* \"#utility.yul\":13832:13928   */\n    tag_168:\n        /* \"#utility.yul\":13866:13874   */\n      0x00\n        /* \"#utility.yul\":13915:13920   */\n      dup2\n        /* \"#utility.yul\":13910:13913   */\n      0xe8\n        /* \"#utility.yul\":13906:13921   */\n      shl\n        /* \"#utility.yul\":13885:13921   */\n      swap1\n      pop\n        /* \"#utility.yul\":13832:13928   */\n      swap2\n      swap1\n      pop\n      jump\t// out\n        /* \"#utility.yul\":13934:14027   */\n    tag_169:\n        /* \"#utility.yul\":13971:13978   */\n      0x00\n        /* \"#utility.yul\":14000:14021   */\n      tag_338\n        /* \"#utility.yul\":14015:14020   */\n      dup3\n        /* \"#utility.yul\":14000:14021   */\n      tag_168\n      jump\t// in\n    tag_338:\n        /* \"#utility.yul\":13989:14021   */\n      swap1\n      pop\n        /* \"#utility.yul\":13934:14027   */\n      swap2\n      swap1\n      pop\n      jump\t// out\n        /* \"#utility.yul\":14033:14182   */\n    tag_170:\n        /* \"#utility.yul\":14134:14175   */\n      tag_340\n        /* \"#utility.yul\":14152:14174   */\n      tag_341\n        /* \"#utility.yul\":14168:14173   */\n      dup3\n        /* \"#utility.yul\":14152:14174   */\n      tag_133\n      jump\t// in\n    tag_341:\n        /* \"#utility.yul\":14134:14175   */\n      tag_169\n      jump\t// in\n    tag_340:\n        /* \"#utility.yul\":14129:14132   */\n      dup3\n        /* \"#utility.yul\":14122:14176   */\n      mstore\n        /* \"#utility.yul\":14033:14182   */\n      pop\n      pop\n      jump\t// out\n        /* \"#utility.yul\":14188:14708   */\n    tag_113:\n        /* \"#utility.yul\":14348:14351   */\n      0x00\n        /* \"#utility.yul\":14363:14438   */\n      tag_343\n        /* \"#utility.yul\":14434:14437   */\n      dup3\n        /* \"#utility.yul\":14425:14431   */\n      dup7\n        /* \"#utility.yul\":14363:14438   */\n      tag_167\n      jump\t// in\n    tag_343:\n        /* \"#utility.yul\":14463:14465   */\n      0x14\n        /* \"#utility.yul\":14458:14461   */\n      dup3\n        /* \"#utility.yul\":14454:14466   */\n      add\n        /* \"#utility.yul\":14447:14466   */\n      swap2\n      pop\n        /* \"#utility.yul\":14476:14547   */\n      tag_344\n        /* \"#utility.yul\":14543:14546   */\n      dup3\n        /* \"#utility.yul\":14534:14540   */\n      dup6\n        /* \"#utility.yul\":14476:14547   */\n      tag_170\n      jump\t// in\n    tag_344:\n        /* \"#utility.yul\":14572:14573   */\n      0x03\n        /* \"#utility.yul\":14567:14570   */\n      dup3\n        /* \"#utility.yul\":14563:14574   */\n      add\n        /* \"#utility.yul\":14556:14574   */\n      swap2\n      pop\n        /* \"#utility.yul\":14584:14655   */\n      tag_345\n        /* \"#utility.yul\":14651:14654   */\n      dup3\n        /* \"#utility.yul\":14642:14648   */\n      dup5\n        /* \"#utility.yul\":14584:14655   */\n      tag_170\n      jump\t// in\n    tag_345:\n        /* \"#utility.yul\":14680:14681   */\n      0x03\n        /* \"#utility.yul\":14675:14678   */\n      dup3\n        /* \"#utility.yul\":14671:14682   */\n      add\n        /* \"#utility.yul\":14664:14682   */\n      swap2\n      pop\n        /* \"#utility.yul\":14699:14702   */\n      dup2\n        /* \"#utility.yul\":14692:14702   */\n      swap1\n      pop\n        /* \"#utility.yul\":14188:14708   */\n      swap5\n      swap4\n      pop\n      pop\n      pop\n      pop\n      jump\t// out\n        /* \"#utility.yul\":14714:14836   */\n    tag_171:\n        /* \"#utility.yul\":14787:14811   */\n      tag_347\n        /* \"#utility.yul\":14805:14810   */\n      dup2\n        /* \"#utility.yul\":14787:14811   */\n      tag_148\n      jump\t// in\n    tag_347:\n        /* \"#utility.yul\":14780:14785   */\n      dup2\n        /* \"#utility.yul\":14777:14812   */\n      eq\n        /* \"#utility.yul\":14767:14830   */\n      tag_348\n      jumpi\n        /* \"#utility.yul\":14826:14827   */\n      0x00\n        /* \"#utility.yul\":14823:14824   */\n      dup1\n        /* \"#utility.yul\":14816:14828   */\n      revert\n        /* \"#utility.yul\":14767:14830   */\n    tag_348:\n        /* \"#utility.yul\":14714:14836   */\n      pop\n      jump\t// out\n        /* \"#utility.yul\":14842:14985   */\n    tag_172:\n        /* \"#utility.yul\":14899:14904   */\n      0x00\n        /* \"#utility.yul\":14930:14936   */\n      dup2\n        /* \"#utility.yul\":14924:14937   */\n      mload\n        /* \"#utility.yul\":14915:14937   */\n      swap1\n      pop\n        /* \"#utility.yul\":14946:14979   */\n      tag_350\n        /* \"#utility.yul\":14973:14978   */\n      dup2\n        /* \"#utility.yul\":14946:14979   */\n      tag_171\n      jump\t// in\n    tag_350:\n        /* \"#utility.yul\":14842:14985   */\n      swap3\n      swap2\n      pop\n      pop\n      jump\t// out\n        /* \"#utility.yul\":14991:15342   */\n    tag_121:\n        /* \"#utility.yul\":15061:15067   */\n      0x00\n        /* \"#utility.yul\":15110:15112   */\n      0x20\n        /* \"#utility.yul\":15098:15107   */\n      dup3\n        /* \"#utility.yul\":15089:15096   */\n      dup5\n        /* \"#utility.yul\":15085:15108   */\n      sub\n        /* \"#utility.yul\":15081:15113   */\n      slt\n        /* \"#utility.yul\":15078:15197   */\n      iszero\n      tag_352\n      jumpi\n        /* \"#utility.yul\":15116:15195   */\n      tag_353\n      tag_136\n      jump\t// in\n    tag_353:\n        /* \"#utility.yul\":15078:15197   */\n    tag_352:\n        /* \"#utility.yul\":15236:15237   */\n      0x00\n        /* \"#utility.yul\":15261:15325   */\n      tag_354\n        /* \"#utility.yul\":15317:15324   */\n      dup5\n        /* \"#utility.yul\":15308:15314   */\n      dup3\n        /* \"#utility.yul\":15297:15306   */\n      dup6\n        /* \"#utility.yul\":15293:15315   */\n      add\n        /* \"#utility.yul\":15261:15325   */\n      tag_172\n      jump\t// in\n    tag_354:\n        /* \"#utility.yul\":15251:15325   */\n      swap2\n      pop\n        /* \"#utility.yul\":15207:15335   */\n      pop\n        /* \"#utility.yul\":14991:15342   */\n      swap3\n      swap2\n      pop\n      pop\n      jump\t// out\n\n    auxdata: 0xa2646970667358221220bdf65fbc433f025a8b311b87b16bb081c6550746552e11940c7df73c9ffe360264736f6c634300081a0033\n}\n",
				"bytecode": {
					"linkReferences": {},
					"object": "60c060405234801561001057600080fd5b506040516117a23803806117a28339818101604052810190610032919061020c565b8373ffffffffffffffffffffffffffffffffffffffff1660808173ffffffffffffffffffffffffffffffffffffffff16815250508273ffffffffffffffffffffffffffffffffffffffff1660a08173ffffffffffffffffffffffffffffffffffffffff168152505060405180604001604052808373ffffffffffffffffffffffffffffffffffffffff1681526020018260020b8152506000808201518160000160006101000a81548173ffffffffffffffffffffffffffffffffffffffff021916908373ffffffffffffffffffffffffffffffffffffffff16021790555060208201518160000160146101000a81548162ffffff021916908360020b62ffffff16021790555090505050505050610273565b600080fd5b600073ffffffffffffffffffffffffffffffffffffffff82169050919050565b600061017482610149565b9050919050565b61018481610169565b811461018f57600080fd5b50565b6000815190506101a18161017b565b92915050565b6101b081610149565b81146101bb57600080fd5b50565b6000815190506101cd816101a7565b92915050565b60008160020b9050919050565b6101e9816101d3565b81146101f457600080fd5b50565b600081519050610206816101e0565b92915050565b6000806000806080858703121561022657610225610144565b5b600061023487828801610192565b945050602061024587828801610192565b9350506040610256878288016101be565b9250506060610267878288016101f7565b91505092959194509250565b60805160a0516114f56102ad6000396000818161060f0152610ba40152600081816101cb015281816106ee0152610b0301526114f56000f3fe608060405234801561001057600080fd5b50600436106100885760003560e01c8063514ea4bf1161005b578063514ea4bf14610119578063d21220a714610149578063e354733514610167578063f30dba931461019857610088565b80630dfe16811461008d5780631a686502146100ab5780633850c7bd146100c95780633c8a7d8d146100e8575b600080fd5b6100956101c9565b6040516100a29190610c82565b60405180910390f35b6100b36101ed565b6040516100c09190610cc8565b60405180910390f35b6100d161020f565b6040516100df929190610d0e565b60405180910390f35b61010260048036038101906100fd9190610e2a565b61024e565b604051610110929190610edd565b60405180910390f35b610133600480360381019061012e9190610f3c565b6105d3565b6040516101409190610cc8565b60405180910390f35b61015161060d565b60405161015e9190610c82565b60405180910390f35b610181600480360381019061017c9190610f69565b610631565b60405161018f929190610fe2565b60405180910390f35b6101b260048036038101906101ad919061100b565b610928565b6040516101c0929190611053565b60405180910390f35b7f000000000000000000000000000000000000000000000000000000000000000081565b600160009054906101000a90046fffffffffffffffffffffffffffffffff1681565b60008060000160009054906101000a900473ffffffffffffffffffffffffffffffffffffffff16908060000160149054906101000a900460020b905082565b6000808560020b8760020b12158061028b57507ffffffffffffffffffffffffffffffffffffffffffffffffffffffffffff2761860020b8760020b125b806102c457507ffffffffffffffffffffffffffffffffffffffffffffffffffffffffffff276186102bb906110ab565b60020b8660020b135b156102fb576040517f064847d000000000000000000000000000000000000000000000000000000000815260040160405180910390fd5b6000856fffffffffffffffffffffffffffffffff1603610347576040517f1007454800000000000000000000000000000000000000000000000000000000815260040160405180910390fd5b61035d878660026109759092919063ffffffff16565b610373868660026109759092919063ffffffff16565b600061038d8989896003610a41909392919063ffffffff16565b90506103a28682610a8990919063ffffffff16565b670ddd13f10b84ee00925069010f0cf064dd59200000915085600160008282829054906101000a90046fffffffffffffffffffffffffffffffff166103e791906110f3565b92506101000a8154816fffffffffffffffffffffffffffffffff02191690836fffffffffffffffffffffffffffffffff160217905550600080600085111561043457610431610aff565b91505b600084111561044857610445610ba0565b90505b3373ffffffffffffffffffffffffffffffffffffffff1663d348799786868a8a6040518563ffffffff1660e01b81526004016104879493929190611195565b600060405180830381600087803b1580156104a157600080fd5b505af11580156104b5573d6000803e3d6000fd5b505050506000851180156104da57506104cc610aff565b85836104d891906111d5565b115b15610511576040517f098fb56100000000000000000000000000000000000000000000000000000000815260040160405180910390fd5b6000841180156105325750610524610ba0565b848261053091906111d5565b115b15610569576040517f098fb56100000000000000000000000000000000000000000000000000000000815260040160405180910390fd5b8860020b8a60020b8c73ffffffffffffffffffffffffffffffffffffffff167f7a53080ba414158be7ec69b987b5fb7d07dee101fe85488f0853ae16239d0bde338c8a8a6040516105bd9493929190611209565b60405180910390a4505050965096945050505050565b60036020528060005260406000206000915090508060000160009054906101000a90046fffffffffffffffffffffffffffffffff16905081565b7f000000000000000000000000000000000000000000000000000000000000000081565b600080600062014cc0905060006c46bd046408013d67ed5d406b2d90507fffffffffffffffffffffffffffffffffffffffffffffffffffe22b3b9e50c0f49350680246ddf97976680000925081816000800160146000800160008491906101000a81548173ffffffffffffffffffffffffffffffffffffffff021916908373ffffffffffffffffffffffffffffffffffffffff1602179055508391906101000a81548162ffffff021916908360020b62ffffff16021790555050507f000000000000000000000000000000000000000000000000000000000000000073ffffffffffffffffffffffffffffffffffffffff1663a9059cbb88866107339061124e565b6040518363ffffffff1660e01b8152600401610750929190611296565b6020604051808303816000875af115801561076f573d6000803e3d6000fd5b505050506040513d601f19601f8201168201806040525081019061079391906112eb565b50600061079e610ba0565b90503373ffffffffffffffffffffffffffffffffffffffff1663fa461e3386868a8a6040518563ffffffff1660e01b81526004016107df9493929190611318565b600060405180830381600087803b1580156107f957600080fd5b505af115801561080d573d6000803e3d6000fd5b50505050610819610ba0565b848261082591906111d5565b111561085d576040517f098fb56100000000000000000000000000000000000000000000000000000000815260040160405180910390fd5b8773ffffffffffffffffffffffffffffffffffffffff163373ffffffffffffffffffffffffffffffffffffffff167fc42079f94a6350d7e6235f29174924f928cc2ac818eb64fed8004e115fbcca6787876000800160009054906101000a900473ffffffffffffffffffffffffffffffffffffffff16600160009054906101000a90046fffffffffffffffffffffffffffffffff166000800160149054906101000a900460020b604051610915959493929190611358565b60405180910390a3505050935093915050565b60026020528060005260406000206000915090508060000160009054906101000a900460ff16908060000160019054906101000a90046fffffffffffffffffffffffffffffffff16905082565b60008360008460020b60020b8152602001908152602001600020905060008160000160019054906101000a90046fffffffffffffffffffffffffffffffff169050600083826109c491906110f3565b90506000826fffffffffffffffffffffffffffffffff16036109fe5760018360000160006101000a81548160ff0219169083151502179055505b808360000160016101000a8154816fffffffffffffffffffffffffffffffff02191690836fffffffffffffffffffffffffffffffff160217905550505050505050565b6000846000858585604051602001610a5b93929190611429565b6040516020818303038152906040528051906020012081526020019081526020016000209050949350505050565b60008260000160009054906101000a90046fffffffffffffffffffffffffffffffff16905060008282610abc91906110f3565b9050808460000160006101000a8154816fffffffffffffffffffffffffffffffff02191690836fffffffffffffffffffffffffffffffff16021790555050505050565b60007f000000000000000000000000000000000000000000000000000000000000000073ffffffffffffffffffffffffffffffffffffffff166370a08231306040518263ffffffff1660e01b8152600401610b5a9190610c82565b602060405180830381865afa158015610b77573d6000803e3d6000fd5b505050506040513d601f19601f82011682018060405250810190610b9b9190611492565b905090565b60007f000000000000000000000000000000000000000000000000000000000000000073ffffffffffffffffffffffffffffffffffffffff166370a08231306040518263ffffffff1660e01b8152600401610bfb9190610c82565b602060405180830381865afa158015610c18573d6000803e3d6000fd5b505050506040513d601f19601f82011682018060405250810190610c3c9190611492565b905090565b600073ffffffffffffffffffffffffffffffffffffffff82169050919050565b6000610c6c82610c41565b9050919050565b610c7c81610c61565b82525050565b6000602082019050610c976000830184610c73565b92915050565b60006fffffffffffffffffffffffffffffffff82169050919050565b610cc281610c9d565b82525050565b6000602082019050610cdd6000830184610cb9565b92915050565b610cec81610c41565b82525050565b60008160020b9050919050565b610d0881610cf2565b82525050565b6000604082019050610d236000830185610ce3565b610d306020830184610cff565b9392505050565b600080fd5b600080fd5b610d4a81610c61565b8114610d5557600080fd5b50565b600081359050610d6781610d41565b92915050565b610d7681610cf2565b8114610d8157600080fd5b50565b600081359050610d9381610d6d565b92915050565b610da281610c9d565b8114610dad57600080fd5b50565b600081359050610dbf81610d99565b92915050565b600080fd5b600080fd5b600080fd5b60008083601f840112610dea57610de9610dc5565b5b8235905067ffffffffffffffff811115610e0757610e06610dca565b5b602083019150836001820283011115610e2357610e22610dcf565b5b9250929050565b60008060008060008060a08789031215610e4757610e46610d37565b5b6000610e5589828a01610d58565b9650506020610e6689828a01610d84565b9550506040610e7789828a01610d84565b9450506060610e8889828a01610db0565b935050608087013567ffffffffffffffff811115610ea957610ea8610d3c565b5b610eb589828a01610dd4565b92509250509295509295509295565b6000819050919050565b610ed781610ec4565b82525050565b6000604082019050610ef26000830185610ece565b610eff6020830184610ece565b9392505050565b6000819050919050565b610f1981610f06565b8114610f2457600080fd5b50565b600081359050610f3681610f10565b92915050565b600060208284031215610f5257610f51610d37565b5b6000610f6084828501610f27565b91505092915050565b600080600060408486031215610f8257610f81610d37565b5b6000610f9086828701610d58565b935050602084013567ffffffffffffffff811115610fb157610fb0610d3c565b5b610fbd86828701610dd4565b92509250509250925092565b6000819050919050565b610fdc81610fc9565b82525050565b6000604082019050610ff76000830185610fd3565b6110046020830184610fd3565b9392505050565b60006020828403121561102157611020610d37565b5b600061102f84828501610d84565b91505092915050565b60008115159050919050565b61104d81611038565b82525050565b60006040820190506110686000830185611044565b6110756020830184610cb9565b9392505050565b7f4e487b7100000000000000000000000000000000000000000000000000000000600052601160045260246000fd5b60006110b682610cf2565b91507fffffffffffffffffffffffffffffffffffffffffffffffffffffffffff80000082036110e8576110e761107c565b5b816000039050919050565b60006110fe82610c9d565b915061110983610c9d565b925082820190506fffffffffffffffffffffffffffffffff8111156111315761113061107c565b5b92915050565b600082825260208201905092915050565b82818337600083830152505050565b6000601f19601f8301169050919050565b60006111748385611137565b9350611181838584611148565b61118a83611157565b840190509392505050565b60006060820190506111aa6000830187610ece565b6111b76020830186610ece565b81810360408301526111ca818486611168565b905095945050505050565b60006111e082610ec4565b91506111eb83610ec4565b92508282019050808211156112035761120261107c565b5b92915050565b600060808201905061121e6000830187610c73565b61122b6020830186610cb9565b6112386040830185610ece565b6112456060830184610ece565b95945050505050565b600061125982610fc9565b91507f8000000000000000000000000000000000000000000000000000000000000000820361128b5761128a61107c565b5b816000039050919050565b60006040820190506112ab6000830185610c73565b6112b86020830184610ece565b9392505050565b6112c881611038565b81146112d357600080fd5b50565b6000815190506112e5816112bf565b92915050565b60006020828403121561130157611300610d37565b5b600061130f848285016112d6565b91505092915050565b600060608201905061132d6000830187610fd3565b61133a6020830186610fd3565b818103604083015261134d818486611168565b905095945050505050565b600060a08201905061136d6000830188610fd3565b61137a6020830187610fd3565b6113876040830186610ce3565b6113946060830185610cb9565b6113a16080830184610cff565b9695505050505050565b60008160601b9050919050565b60006113c3826113ab565b9050919050565b60006113d5826113b8565b9050919050565b6113ed6113e882610c61565b6113ca565b82525050565b60008160e81b9050919050565b600061140b826113f3565b9050919050565b61142361141e82610cf2565b611400565b82525050565b600061143582866113dc565b6014820191506114458285611412565b6003820191506114558284611412565b600382019150819050949350505050565b61146f81610ec4565b811461147a57600080fd5b50565b60008151905061148c81611466565b92915050565b6000602082840312156114a8576114a7610d37565b5b60006114b68482850161147d565b9150509291505056fea2646970667358221220bdf65fbc433f025a8b311b87b16bb081c6550746552e11940c7df73c9ffe360264736f6c634300081a0033",
					"opcodes": "PUSH1 0xC0 PUSH1 0x40 MSTORE CALLVALUE DUP1 ISZERO PUSH2 0x10 JUMPI PUSH1 0x0 DUP1 REVERT JUMPDEST POP PUSH1 0x40 MLOAD PUSH2 0x17A2 CODESIZE SUB DUP1 PUSH2 0x17A2 DUP4 CODECOPY DUP2 DUP2 ADD PUSH1 0x40 MSTORE DUP2 ADD SWAP1 PUSH2 0x32 SWAP2 SWAP1 PUSH2 0x20C JUMP JUMPDEST DUP4 PUSH20 0xFFFFFFFFFFFFFFFFFFFFFFFFFFFFFFFFFFFFFFFF AND PUSH1 0x80 DUP2 PUSH20 0xFFFFFFFFFFFFFFFFFFFFFFFFFFFFFFFFFFFFFFFF AND DUP2 MSTORE POP POP DUP3 PUSH20 0xFFFFFFFFFFFFFFFFFFFFFFFFFFFFFFFFFFFFFFFF AND PUSH1 0xA0 DUP2 PUSH20 0xFFFFFFFFFFFFFFFFFFFFFFFFFFFFFFFFFFFFFFFF AND DUP2 MSTORE POP POP PUSH1 0x40 MLOAD DUP1 PUSH1 0x40 ADD PUSH1 0x40 MSTORE DUP1 DUP4 PUSH20 0xFFFFFFFFFFFFFFFFFFFFFFFFFFFFFFFFFFFFFFFF AND DUP2 MSTORE PUSH1 0x20 ADD DUP3 PUSH1 0x2 SIGNEXTEND DUP2 MSTORE POP PUSH1 0x0 DUP1 DUP3 ADD MLOAD DUP2 PUSH1 0x0 ADD PUSH1 0x0 PUSH2 0x100 EXP DUP2 SLOAD DUP2 PUSH20 0xFFFFFFFFFFFFFFFFFFFFFFFFFFFFFFFFFFFFFFFF MUL NOT AND SWAP1 DUP4 PUSH20 0xFFFFFFFFFFFFFFFFFFFFFFFFFFFFFFFFFFFFFFFF AND MUL OR SWAP1 SSTORE POP PUSH1 0x20 DUP3 ADD MLOAD DUP2 PUSH1 0x0 ADD PUSH1 0x14 PUSH2 0x100 EXP DUP2 SLOAD DUP2 PUSH3 0xFFFFFF MUL NOT AND SWAP1 DUP4 PUSH1 0x2 SIGNEXTEND PUSH3 0xFFFFFF AND MUL OR SWAP1 SSTORE POP SWAP1 POP POP POP POP POP POP PUSH2 0x273 JUMP JUMPDEST PUSH1 0x0 DUP1 REVERT JUMPDEST PUSH1 0x0 PUSH20 0xFFFFFFFFFFFFFFFFFFFFFFFFFFFFFFFFFFFFFFFF DUP3 AND SWAP1 POP SWAP2 SWAP1 POP JUMP JUMPDEST PUSH1 0x0 PUSH2 0x174 DUP3 PUSH2 0x149 JUMP JUMPDEST SWAP1 POP SWAP2 SWAP1 POP JUMP JUMPDEST PUSH2 0x184 DUP2 PUSH2 0x169 JUMP JUMPDEST DUP2 EQ PUSH2 0x18F JUMPI PUSH1 0x0 DUP1 REVERT JUMPDEST POP JUMP JUMPDEST PUSH1 0x0 DUP2 MLOAD SWAP1 POP PUSH2 0x1A1 DUP2 PUSH2 0x17B JUMP JUMPDEST SWAP3 SWAP2 POP POP JUMP JUMPDEST PUSH2 0x1B0 DUP2 PUSH2 0x149 JUMP JUMPDEST DUP2 EQ PUSH2 0x1BB JUMPI PUSH1 0x0 DUP1 REVERT JUMPDEST POP JUMP JUMPDEST PUSH1 0x0 DUP2 MLOAD SWAP1 POP PUSH2 0x1CD DUP2 PUSH2 0x1A7 JUMP JUMPDEST SWAP3 SWAP2 POP POP JUMP JUMPDEST PUSH1 0x0 DUP2 PUSH1 0x2 SIGNEXTEND SWAP1 POP SWAP2 SWAP1 POP JUMP JUMPDEST PUSH2 0x1E9 DUP2 PUSH2 0x1D3 JUMP JUMPDEST DUP2 EQ PUSH2 0x1F4 JUMPI PUSH1 0x0 DUP1 REVERT JUMPDEST POP JUMP JUMPDEST PUSH1 0x0 DUP2 MLOAD SWAP1 POP PUSH2 0x206 DUP2 PUSH2 0x1E0 JUMP JUMPDEST SWAP3 SWAP2 POP POP JUMP JUMPDEST PUSH1 0x0 DUP1 PUSH1 0x0 DUP1 PUSH1 0x80 DUP6 DUP8 SUB SLT ISZERO PUSH2 0x226 JUMPI PUSH2 0x225 PUSH2 0x144 JUMP JUMPDEST JUMPDEST PUSH1 0x0 PUSH2 0x234 DUP8 DUP3 DUP9 ADD PUSH2 0x192 JUMP JUMPDEST SWAP5 POP POP PUSH1 0x20 PUSH2 0x245 DUP8 DUP3 DUP9 ADD PUSH2 0x192 JUMP JUMPDEST SWAP4 POP POP PUSH1 0x40 PUSH2 0x256 DUP8 DUP3 DUP9 ADD PUSH2 0x1BE JUMP JUMPDEST SWAP3 POP POP PUSH1 0x60 PUSH2 0x267 DUP8 DUP3 DUP9 ADD PUSH2 0x1F7 JUMP JUMPDEST SWAP2 POP POP SWAP3 SWAP6 SWAP2 SWAP5 POP SWAP3 POP JUMP JUMPDEST PUSH1 0x80 MLOAD PUSH1 0xA0 MLOAD PUSH2 0x14F5 PUSH2 0x2AD PUSH1 0x0 CODECOPY PUSH1 0x0 DUP2 DUP2 PUSH2 0x60F ADD MSTORE PUSH2 0xBA4 ADD MSTORE PUSH1 0x0 DUP2 DUP2 PUSH2 0x1CB ADD MSTORE DUP2 DUP2 PUSH2 0x6EE ADD MSTORE PUSH2 0xB03 ADD MSTORE PUSH2 0x14F5 PUSH1 0x0 RETURN INVALID PUSH1 0x80 PUSH1 0x40 MSTORE CALLVALUE DUP1 ISZERO PUSH2 0x10 JUMPI PUSH1 0x0 DUP1 REVERT JUMPDEST POP PUSH1 0x4 CALLDATASIZE LT PUSH2 0x88 JUMPI PUSH1 0x0 CALLDATALOAD PUSH1 0xE0 SHR DUP1 PUSH4 0x514EA4BF GT PUSH2 0x5B JUMPI DUP1 PUSH4 0x514EA4BF EQ PUSH2 0x119 JUMPI DUP1 PUSH4 0xD21220A7 EQ PUSH2 0x149 JUMPI DUP1 PUSH4 0xE3547335 EQ PUSH2 0x167 JUMPI DUP1 PUSH4 0xF30DBA93 EQ PUSH2 0x198 JUMPI PUSH2 0x88 JUMP JUMPDEST DUP1 PUSH4 0xDFE1681 EQ PUSH2 0x8D JUMPI DUP1 PUSH4 0x1A686502 EQ PUSH2 0xAB JUMPI DUP1 PUSH4 0x3850C7BD EQ PUSH2 0xC9 JUMPI DUP1 PUSH4 0x3C8A7D8D EQ PUSH2 0xE8 JUMPI JUMPDEST PUSH1 0x0 DUP1 REVERT JUMPDEST PUSH2 0x95 PUSH2 0x1C9 JUMP JUMPDEST PUSH1 0x40 MLOAD PUSH2 0xA2 SWAP2 SWAP1 PUSH2 0xC82 JUMP JUMPDEST PUSH1 0x40 MLOAD DUP1 SWAP2 SUB SWAP1 RETURN JUMPDEST PUSH2 0xB3 PUSH2 0x1ED JUMP JUMPDEST PUSH1 0x40 MLOAD PUSH2 0xC0 SWAP2 SWAP1 PUSH2 0xCC8 JUMP JUMPDEST PUSH1 0x40 MLOAD DUP1 SWAP2 SUB SWAP1 RETURN JUMPDEST PUSH2 0xD1 PUSH2 0x20F JUMP JUMPDEST PUSH1 0x40 MLOAD PUSH2 0xDF SWAP3 SWAP2 SWAP1 PUSH2 0xD0E JUMP JUMPDEST PUSH1 0x40 MLOAD DUP1 SWAP2 SUB SWAP1 RETURN JUMPDEST PUSH2 0x102 PUSH1 0x4 DUP1 CALLDATASIZE SUB DUP2 ADD SWAP1 PUSH2 0xFD SWAP2 SWAP1 PUSH2 0xE2A JUMP JUMPDEST PUSH2 0x24E JUMP JUMPDEST PUSH1 0x40 MLOAD PUSH2 0x110 SWAP3 SWAP2 SWAP1 PUSH2 0xEDD JUMP JUMPDEST PUSH1 0x40 MLOAD DUP1 SWAP2 SUB SWAP1 RETURN JUMPDEST PUSH2 0x133 PUSH1 0x4 DUP1 CALLDATASIZE SUB DUP2 ADD SWAP1 PUSH2 0x12E SWAP2 SWAP1 PUSH2 0xF3C JUMP JUMPDEST PUSH2 0x5D3 JUMP JUMPDEST PUSH1 0x40 MLOAD PUSH2 0x140 SWAP2 SWAP1 PUSH2 0xCC8 JUMP JUMPDEST PUSH1 0x40 MLOAD DUP1 SWAP2 SUB SWAP1 RETURN JUMPDEST PUSH2 0x151 PUSH2 0x60D JUMP JUMPDEST PUSH1 0x40 MLOAD PUSH2 0x15E SWAP2 SWAP1 PUSH2 0xC82 JUMP JUMPDEST PUSH1 0x40 MLOAD DUP1 SWAP2 SUB SWAP1 RETURN JUMPDEST PUSH2 0x181 PUSH1 0x4 DUP1 CALLDATASIZE SUB DUP2 ADD SWAP1 PUSH2 0x17C SWAP2 SWAP1 PUSH2 0xF69 JUMP JUMPDEST PUSH2 0x631 JUMP JUMPDEST PUSH1 0x40 MLOAD PUSH2 0x18F SWAP3 SWAP2 SWAP1 PUSH2 0xFE2 JUMP JUMPDEST PUSH1 0x40 MLOAD DUP1 SWAP2 SUB SWAP1 RETURN JUMPDEST PUSH2 0x1B2 PUSH1 0x4 DUP1 CALLDATASIZE SUB DUP2 ADD SWAP1 PUSH2 0x1AD SWAP2 SWAP1 PUSH2 0x100B JUMP JUMPDEST PUSH2 0x928 JUMP JUMPDEST PUSH1 0x40 MLOAD PUSH2 0x1C0 SWAP3 SWAP2 SWAP1 PUSH2 0x1053 JUMP JUMPDEST PUSH1 0x40 MLOAD DUP1 SWAP2 SUB SWAP1 RETURN JUMPDEST PUSH32 0x0 DUP2 JUMP JUMPDEST PUSH1 0x1 PUSH1 0x0 SWAP1 SLOAD SWAP1 PUSH2 0x100 EXP SWAP1 DIV PUSH16 0xFFFFFFFFFFFFFFFFFFFFFFFFFFFFFFFF AND DUP2 JUMP JUMPDEST PUSH1 0x0 DUP1 PUSH1 0x0 ADD PUSH1 0x0 SWAP1 SLOAD SWAP1 PUSH2 0x100 EXP SWAP1 DIV PUSH20 0xFFFFFFFFFFFFFFFFFFFFFFFFFFFFFFFFFFFFFFFF AND SWAP1 DUP1 PUSH1 0x0 ADD PUSH1 0x14 SWAP1 SLOAD SWAP1 PUSH2 0x100 EXP SWAP1 DIV PUSH1 0x2 SIGNEXTEND SWAP1 POP DUP3 JUMP JUMPDEST PUSH1 0x0 DUP1 DUP6 PUSH1 0x2 SIGNEXTEND DUP8 PUSH1 0x2 SIGNEXTEND SLT ISZERO DUP1 PUSH2 0x28B JUMPI POP PUSH32 0xFFFFFFFFFFFFFFFFFFFFFFFFFFFFFFFFFFFFFFFFFFFFFFFFFFFFFFFFFFF27618 PUSH1 0x2 SIGNEXTEND DUP8 PUSH1 0x2 SIGNEXTEND SLT JUMPDEST DUP1 PUSH2 0x2C4 JUMPI POP PUSH32 0xFFFFFFFFFFFFFFFFFFFFFFFFFFFFFFFFFFFFFFFFFFFFFFFFFFFFFFFFFFF27618 PUSH2 0x2BB SWAP1 PUSH2 0x10AB JUMP JUMPDEST PUSH1 0x2 SIGNEXTEND DUP7 PUSH1 0x2 SIGNEXTEND SGT JUMPDEST ISZERO PUSH2 0x2FB JUMPI PUSH1 0x40 MLOAD PUSH32 0x64847D000000000000000000000000000000000000000000000000000000000 DUP2 MSTORE PUSH1 0x4 ADD PUSH1 0x40 MLOAD DUP1 SWAP2 SUB SWAP1 REVERT JUMPDEST PUSH1 0x0 DUP6 PUSH16 0xFFFFFFFFFFFFFFFFFFFFFFFFFFFFFFFF AND SUB PUSH2 0x347 JUMPI PUSH1 0x40 MLOAD PUSH32 0x1007454800000000000000000000000000000000000000000000000000000000 DUP2 MSTORE PUSH1 0x4 ADD PUSH1 0x40 MLOAD DUP1 SWAP2 SUB SWAP1 REVERT JUMPDEST PUSH2 0x35D DUP8 DUP7 PUSH1 0x2 PUSH2 0x975 SWAP1 SWAP3 SWAP2 SWAP1 PUSH4 0xFFFFFFFF AND JUMP JUMPDEST PUSH2 0x373 DUP7 DUP7 PUSH1 0x2 PUSH2 0x975 SWAP1 SWAP3 SWAP2 SWAP1 PUSH4 0xFFFFFFFF AND JUMP JUMPDEST PUSH1 0x0 PUSH2 0x38D DUP10 DUP10 DUP10 PUSH1 0x3 PUSH2 0xA41 SWAP1 SWAP4 SWAP3 SWAP2 SWAP1 PUSH4 0xFFFFFFFF AND JUMP JUMPDEST SWAP1 POP PUSH2 0x3A2 DUP7 DUP3 PUSH2 0xA89 SWAP1 SWAP2 SWAP1 PUSH4 0xFFFFFFFF AND JUMP JUMPDEST PUSH8 0xDDD13F10B84EE00 SWAP3 POP PUSH10 0x10F0CF064DD59200000 SWAP2 POP DUP6 PUSH1 0x1 PUSH1 0x0 DUP3 DUP3 DUP3 SWAP1 SLOAD SWAP1 PUSH2 0x100 EXP SWAP1 DIV PUSH16 0xFFFFFFFFFFFFFFFFFFFFFFFFFFFFFFFF AND PUSH2 0x3E7 SWAP2 SWAP1 PUSH2 0x10F3 JUMP JUMPDEST SWAP3 POP PUSH2 0x100 EXP DUP2 SLOAD DUP2 PUSH16 0xFFFFFFFFFFFFFFFFFFFFFFFFFFFFFFFF MUL NOT AND SWAP1 DUP4 PUSH16 0xFFFFFFFFFFFFFFFFFFFFFFFFFFFFFFFF AND MUL OR SWAP1 SSTORE POP PUSH1 0x0 DUP1 PUSH1 0x0 DUP6 GT ISZERO PUSH2 0x434 JUMPI PUSH2 0x431 PUSH2 0xAFF JUMP JUMPDEST SWAP2 POP JUMPDEST PUSH1 0x0 DUP5 GT ISZERO PUSH2 0x448 JUMPI PUSH2 0x445 PUSH2 0xBA0 JUMP JUMPDEST SWAP1 POP JUMPDEST CALLER PUSH20 0xFFFFFFFFFFFFFFFFFFFFFFFFFFFFFFFFFFFFFFFF AND PUSH4 0xD3487997 DUP7 DUP7 DUP11 DUP11 PUSH1 0x40 MLOAD DUP6 PUSH4 0xFFFFFFFF AND PUSH1 0xE0 SHL DUP2 MSTORE PUSH1 0x4 ADD PUSH2 0x487 SWAP5 SWAP4 SWAP3 SWAP2 SWAP1 PUSH2 0x1195 JUMP JUMPDEST PUSH1 0x0 PUSH1 0x40 MLOAD DUP1 DUP4 SUB DUP2 PUSH1 0x0 DUP8 DUP1 EXTCODESIZE ISZERO DUP1 ISZERO PUSH2 0x4A1 JUMPI PUSH1 0x0 DUP1 REVERT JUMPDEST POP GAS CALL ISZERO DUP1 ISZERO PUSH2 0x4B5 JUMPI RETURNDATASIZE PUSH1 0x0 DUP1 RETURNDATACOPY RETURNDATASIZE PUSH1 0x0 REVERT JUMPDEST POP POP POP POP PUSH1 0x0 DUP6 GT DUP1 ISZERO PUSH2 0x4DA JUMPI POP PUSH2 0x4CC PUSH2 0xAFF JUMP JUMPDEST DUP6 DUP4 PUSH2 0x4D8 SWAP2 SWAP1 PUSH2 0x11D5 JUMP JUMPDEST GT JUMPDEST ISZERO PUSH2 0x511 JUMPI PUSH1 0x40 MLOAD PUSH32 0x98FB56100000000000000000000000000000000000000000000000000000000 DUP2 MSTORE PUSH1 0x4 ADD PUSH1 0x40 MLOAD DUP1 SWAP2 SUB SWAP1 REVERT JUMPDEST PUSH1 0x0 DUP5 GT DUP1 ISZERO PUSH2 0x532 JUMPI POP PUSH2 0x524 PUSH2 0xBA0 JUMP JUMPDEST DUP5 DUP3 PUSH2 0x530 SWAP2 SWAP1 PUSH2 0x11D5 JUMP JUMPDEST GT JUMPDEST ISZERO PUSH2 0x569 JUMPI PUSH1 0x40 MLOAD PUSH32 0x98FB56100000000000000000000000000000000000000000000000000000000 DUP2 MSTORE PUSH1 0x4 ADD PUSH1 0x40 MLOAD DUP1 SWAP2 SUB SWAP1 REVERT JUMPDEST DUP9 PUSH1 0x2 SIGNEXTEND DUP11 PUSH1 0x2 SIGNEXTEND DUP13 PUSH20 0xFFFFFFFFFFFFFFFFFFFFFFFFFFFFFFFFFFFFFFFF AND PUSH32 0x7A53080BA414158BE7EC69B987B5FB7D07DEE101FE85488F0853AE16239D0BDE CALLER DUP13 DUP11 DUP11 PUSH1 0x40 MLOAD PUSH2 0x5BD SWAP5 SWAP4 SWAP3 SWAP2 SWAP1 PUSH2 0x1209 JUMP JUMPDEST PUSH1 0x40 MLOAD DUP1 SWAP2 SUB SWAP1 LOG4 POP POP POP SWAP7 POP SWAP7 SWAP5 POP POP POP POP POP JUMP JUMPDEST PUSH1 0x3 PUSH1 0x20 MSTORE DUP1 PUSH1 0x0 MSTORE PUSH1 0x40 PUSH1 0x0 KECCAK256 PUSH1 0x0 SWAP2 POP SWAP1 POP DUP1 PUSH1 0x0 ADD PUSH1 0x0 SWAP1 SLOAD SWAP1 PUSH2 0x100 EXP SWAP1 DIV PUSH16 0xFFFFFFFFFFFFFFFFFFFFFFFFFFFFFFFF AND SWAP1 POP DUP2 JUMP JUMPDEST PUSH32 0x0 DUP2 JUMP JUMPDEST PUSH1 0x0 DUP1 PUSH1 0x0 PUSH3 0x14CC0 SWAP1 POP PUSH1 0x0 PUSH13 0x46BD046408013D67ED5D406B2D SWAP1 POP PUSH32 0xFFFFFFFFFFFFFFFFFFFFFFFFFFFFFFFFFFFFFFFFFFFFFFFFFFE22B3B9E50C0F4 SWAP4 POP PUSH9 0x246DDF97976680000 SWAP3 POP DUP2 DUP2 PUSH1 0x0 DUP1 ADD PUSH1 0x14 PUSH1 0x0 DUP1 ADD PUSH1 0x0 DUP5 SWAP2 SWAP1 PUSH2 0x100 EXP DUP2 SLOAD DUP2 PUSH20 0xFFFFFFFFFFFFFFFFFFFFFFFFFFFFFFFFFFFFFFFF MUL NOT AND SWAP1 DUP4 PUSH20 0xFFFFFFFFFFFFFFFFFFFFFFFFFFFFFFFFFFFFFFFF AND MUL OR SWAP1 SSTORE POP DUP4 SWAP2 SWAP1 PUSH2 0x100 EXP DUP2 SLOAD DUP2 PUSH3 0xFFFFFF MUL NOT AND SWAP1 DUP4 PUSH1 0x2 SIGNEXTEND PUSH3 0xFFFFFF AND MUL OR SWAP1 SSTORE POP POP POP PUSH32 0x0 PUSH20 0xFFFFFFFFFFFFFFFFFFFFFFFFFFFFFFFFFFFFFFFF AND PUSH4 0xA9059CBB DUP9 DUP7 PUSH2 0x733 SWAP1 PUSH2 0x124E JUMP JUMPDEST PUSH1 0x40 MLOAD DUP4 PUSH4 0xFFFFFFFF AND PUSH1 0xE0 SHL DUP2 MSTORE PUSH1 0x4 ADD PUSH2 0x750 SWAP3 SWAP2 SWAP1 PUSH2 0x1296 JUMP JUMPDEST PUSH1 0x20 PUSH1 0x40 MLOAD DUP1 DUP4 SUB DUP2 PUSH1 0x0 DUP8 GAS CALL ISZERO DUP1 ISZERO PUSH2 0x76F JUMPI RETURNDATASIZE PUSH1 0x0 DUP1 RETURNDATACOPY RETURNDATASIZE PUSH1 0x0 REVERT JUMPDEST POP POP POP POP PUSH1 0x40 MLOAD RETURNDATASIZE PUSH1 0x1F NOT PUSH1 0x1F DUP3 ADD AND DUP3 ADD DUP1 PUSH1 0x40 MSTORE POP DUP2 ADD SWAP1 PUSH2 0x793 SWAP2 SWAP1 PUSH2 0x12EB JUMP JUMPDEST POP PUSH1 0x0 PUSH2 0x79E PUSH2 0xBA0 JUMP JUMPDEST SWAP1 POP CALLER PUSH20 0xFFFFFFFFFFFFFFFFFFFFFFFFFFFFFFFFFFFFFFFF AND PUSH4 0xFA461E33 DUP7 DUP7 DUP11 DUP11 PUSH1 0x40 MLOAD DUP6 PUSH4 0xFFFFFFFF AND PUSH1 0xE0 SHL DUP2 MSTORE PUSH1 0x4 ADD PUSH2 0x7DF SWAP5 SWAP4 SWAP3 SWAP2 SWAP1 PUSH2 0x1318 JUMP JUMPDEST PUSH1 0x0 PUSH1 0x40 MLOAD DUP1 DUP4 SUB DUP2 PUSH1 0x0 DUP8 DUP1 EXTCODESIZE ISZERO DUP1 ISZERO PUSH2 0x7F9 JUMPI PUSH1 0x0 DUP1 REVERT JUMPDEST POP GAS CALL ISZERO DUP1 ISZERO PUSH2 0x80D JUMPI RETURNDATASIZE PUSH1 0x0 DUP1 RETURNDATACOPY RETURNDATASIZE PUSH1 0x0 REVERT JUMPDEST POP POP POP POP PUSH2 0x819 PUSH2 0xBA0 JUMP JUMPDEST DUP5 DUP3 PUSH2 0x825 SWAP2 SWAP1 PUSH2 0x11D5 JUMP JUMPDEST GT ISZERO PUSH2 0x85D JUMPI PUSH1 0x40 MLOAD PUSH32 0x98FB56100000000000000000000000000000000000000000000000000000000 DUP2 MSTORE PUSH1 0x4 ADD PUSH1 0x40 MLOAD DUP1 SWAP2 SUB SWAP1 REVERT JUMPDEST DUP8 PUSH20 0xFFFFFFFFFFFFFFFFFFFFFFFFFFFFFFFFFFFFFFFF AND CALLER PUSH20 0xFFFFFFFFFFFFFFFFFFFFFFFFFFFFFFFFFFFFFFFF AND PUSH32 0xC42079F94A6350D7E6235F29174924F928CC2AC818EB64FED8004E115FBCCA67 DUP8 DUP8 PUSH1 0x0 DUP1 ADD PUSH1 0x0 SWAP1 SLOAD SWAP1 PUSH2 0x100 EXP SWAP1 DIV PUSH20 0xFFFFFFFFFFFFFFFFFFFFFFFFFFFFFFFFFFFFFFFF AND PUSH1 0x1 PUSH1 0x0 SWAP1 SLOAD SWAP1 PUSH2 0x100 EXP SWAP1 DIV PUSH16 0xFFFFFFFFFFFFFFFFFFFFFFFFFFFFFFFF AND PUSH1 0x0 DUP1 ADD PUSH1 0x14 SWAP1 SLOAD SWAP1 PUSH2 0x100 EXP SWAP1 DIV PUSH1 0x2 SIGNEXTEND PUSH1 0x40 MLOAD PUSH2 0x915 SWAP6 SWAP5 SWAP4 SWAP3 SWAP2 SWAP1 PUSH2 0x1358 JUMP JUMPDEST PUSH1 0x40 MLOAD DUP1 SWAP2 SUB SWAP1 LOG3 POP POP POP SWAP4 POP SWAP4 SWAP2 POP POP JUMP JUMPDEST PUSH1 0x2 PUSH1 0x20 MSTORE DUP1 PUSH1 0x0 MSTORE PUSH1 0x40 PUSH1 0x0 KECCAK256 PUSH1 0x0 SWAP2 POP SWAP1 POP DUP1 PUSH1 0x0 ADD PUSH1 0x0 SWAP1 SLOAD SWAP1 PUSH2 0x100 EXP SWAP1 DIV PUSH1 0xFF AND SWAP1 DUP1 PUSH1 0x0 ADD PUSH1 0x1 SWAP1 SLOAD SWAP1 PUSH2 0x100 EXP SWAP1 DIV PUSH16 0xFFFFFFFFFFFFFFFFFFFFFFFFFFFFFFFF AND SWAP1 POP DUP3 JUMP JUMPDEST PUSH1 0x0 DUP4 PUSH1 0x0 DUP5 PUSH1 0x2 SIGNEXTEND PUSH1 0x2 SIGNEXTEND DUP2 MSTORE PUSH1 0x20 ADD SWAP1 DUP2 MSTORE PUSH1 0x20 ADD PUSH1 0x0 KECCAK256 SWAP1 POP PUSH1 0x0 DUP2 PUSH1 0x0 ADD PUSH1 0x1 SWAP1 SLOAD SWAP1 PUSH2 0x100 EXP SWAP1 DIV PUSH16 0xFFFFFFFFFFFFFFFFFFFFFFFFFFFFFFFF AND SWAP1 POP PUSH1 0x0 DUP4 DUP3 PUSH2 0x9C4 SWAP2 SWAP1 PUSH2 0x10F3 JUMP JUMPDEST SWAP1 POP PUSH1 0x0 DUP3 PUSH16 0xFFFFFFFFFFFFFFFFFFFFFFFFFFFFFFFF AND SUB PUSH2 0x9FE JUMPI PUSH1 0x1 DUP4 PUSH1 0x0 ADD PUSH1 0x0 PUSH2 0x100 EXP DUP2 SLOAD DUP2 PUSH1 0xFF MUL NOT AND SWAP1 DUP4 ISZERO ISZERO MUL OR SWAP1 SSTORE POP JUMPDEST DUP1 DUP4 PUSH1 0x0 ADD PUSH1 0x1 PUSH2 0x100 EXP DUP2 SLOAD DUP2 PUSH16 0xFFFFFFFFFFFFFFFFFFFFFFFFFFFFFFFF MUL NOT AND SWAP1 DUP4 PUSH16 0xFFFFFFFFFFFFFFFFFFFFFFFFFFFFFFFF AND MUL OR SWAP1 SSTORE POP POP POP POP POP POP POP JUMP JUMPDEST PUSH1 0x0 DUP5 PUSH1 0x0 DUP6 DUP6 DUP6 PUSH1 0x40 MLOAD PUSH1 0x20 ADD PUSH2 0xA5B SWAP4 SWAP3 SWAP2 SWAP1 PUSH2 0x1429 JUMP JUMPDEST PUSH1 0x40 MLOAD PUSH1 0x20 DUP2 DUP4 SUB SUB DUP2 MSTORE SWAP1 PUSH1 0x40 MSTORE DUP1 MLOAD SWAP1 PUSH1 0x20 ADD KECCAK256 DUP2 MSTORE PUSH1 0x20 ADD SWAP1 DUP2 MSTORE PUSH1 0x20 ADD PUSH1 0x0 KECCAK256 SWAP1 POP SWAP5 SWAP4 POP POP POP POP JUMP JUMPDEST PUSH1 0x0 DUP3 PUSH1 0x0 ADD PUSH1 0x0 SWAP1 SLOAD SWAP1 PUSH2 0x100 EXP SWAP1 DIV PUSH16 0xFFFFFFFFFFFFFFFFFFFFFFFFFFFFFFFF AND SWAP1 POP PUSH1 0x0 DUP3 DUP3 PUSH2 0xABC SWAP2 SWAP1 PUSH2 0x10F3 JUMP JUMPDEST SWAP1 POP DUP1 DUP5 PUSH1 0x0 ADD PUSH1 0x0 PUSH2 0x100 EXP DUP2 SLOAD DUP2 PUSH16 0xFFFFFFFFFFFFFFFFFFFFFFFFFFFFFFFF MUL NOT AND SWAP1 DUP4 PUSH16 0xFFFFFFFFFFFFFFFFFFFFFFFFFFFFFFFF AND MUL OR SWAP1 SSTORE POP POP POP POP POP JUMP JUMPDEST PUSH1 0x0 PUSH32 0x0 PUSH20 0xFFFFFFFFFFFFFFFFFFFFFFFFFFFFFFFFFFFFFFFF AND PUSH4 0x70A08231 ADDRESS PUSH1 0x40 MLOAD DUP3 PUSH4 0xFFFFFFFF AND PUSH1 0xE0 SHL DUP2 MSTORE PUSH1 0x4 ADD PUSH2 0xB5A SWAP2 SWAP1 PUSH2 0xC82 JUMP JUMPDEST PUSH1 0x20 PUSH1 0x40 MLOAD DUP1 DUP4 SUB DUP2 DUP7 GAS STATICCALL ISZERO DUP1 ISZERO PUSH2 0xB77 JUMPI RETURNDATASIZE PUSH1 0x0 DUP1 RETURNDATACOPY RETURNDATASIZE PUSH1 0x0 REVERT JUMPDEST POP POP POP POP PUSH1 0x40 MLOAD RETURNDATASIZE PUSH1 0x1F NOT PUSH1 0x1F DUP3 ADD AND DUP3 ADD DUP1 PUSH1 0x40 MSTORE POP DUP2 ADD SWAP1 PUSH2 0xB9B SWAP2 SWAP1 PUSH2 0x1492 JUMP JUMPDEST SWAP1 POP SWAP1 JUMP JUMPDEST PUSH1 0x0 PUSH32 0x0 PUSH20 0xFFFFFFFFFFFFFFFFFFFFFFFFFFFFFFFFFFFFFFFF AND PUSH4 0x70A08231 ADDRESS PUSH1 0x40 MLOAD DUP3 PUSH4 0xFFFFFFFF AND PUSH1 0xE0 SHL DUP2 MSTORE PUSH1 0x4 ADD PUSH2 0xBFB SWAP2 SWAP1 PUSH2 0xC82 JUMP JUMPDEST PUSH1 0x20 PUSH1 0x40 MLOAD DUP1 DUP4 SUB DUP2 DUP7 GAS STATICCALL ISZERO DUP1 ISZERO PUSH2 0xC18 JUMPI RETURNDATASIZE PUSH1 0x0 DUP1 RETURNDATACOPY RETURNDATASIZE PUSH1 0x0 REVERT JUMPDEST POP POP POP POP PUSH1 0x40 MLOAD RETURNDATASIZE PUSH1 0x1F NOT PUSH1 0x1F DUP3 ADD AND DUP3 ADD DUP1 PUSH1 0x40 MSTORE POP DUP2 ADD SWAP1 PUSH2 0xC3C SWAP2 SWAP1 PUSH2 0x1492 JUMP JUMPDEST SWAP1 POP SWAP1 JUMP JUMPDEST PUSH1 0x0 PUSH20 0xFFFFFFFFFFFFFFFFFFFFFFFFFFFFFFFFFFFFFFFF DUP3 AND SWAP1 POP SWAP2 SWAP1 POP JUMP JUMPDEST PUSH1 0x0 PUSH2 0xC6C DUP3 PUSH2 0xC41 JUMP JUMPDEST SWAP1 POP SWAP2 SWAP1 POP JUMP JUMPDEST PUSH2 0xC7C DUP2 PUSH2 0xC61 JUMP JUMPDEST DUP3 MSTORE POP POP JUMP JUMPDEST PUSH1 0x0 PUSH1 0x20 DUP3 ADD SWAP1 POP PUSH2 0xC97 PUSH1 0x0 DUP4 ADD DUP5 PUSH2 0xC73 JUMP JUMPDEST SWAP3 SWAP2 POP POP JUMP JUMPDEST PUSH1 0x0 PUSH16 0xFFFFFFFFFFFFFFFFFFFFFFFFFFFFFFFF DUP3 AND SWAP1 POP SWAP2 SWAP1 POP JUMP JUMPDEST PUSH2 0xCC2 DUP2 PUSH2 0xC9D JUMP JUMPDEST DUP3 MSTORE POP POP JUMP JUMPDEST PUSH1 0x0 PUSH1 0x20 DUP3 ADD SWAP1 POP PUSH2 0xCDD PUSH1 0x0 DUP4 ADD DUP5 PUSH2 0xCB9 JUMP JUMPDEST SWAP3 SWAP2 POP POP JUMP JUMPDEST PUSH2 0xCEC DUP2 PUSH2 0xC41 JUMP JUMPDEST DUP3 MSTORE POP POP JUMP JUMPDEST PUSH1 0x0 DUP2 PUSH1 0x2 SIGNEXTEND SWAP1 POP SWAP2 SWAP1 POP JUMP JUMPDEST PUSH2 0xD08 DUP2 PUSH2 0xCF2 JUMP JUMPDEST DUP3 MSTORE POP POP JUMP JUMPDEST PUSH1 0x0 PUSH1 0x40 DUP3 ADD SWAP1 POP PUSH2 0xD23 PUSH1 0x0 DUP4 ADD DUP6 PUSH2 0xCE3 JUMP JUMPDEST PUSH2 0xD30 PUSH1 0x20 DUP4 ADD DUP5 PUSH2 0xCFF JUMP JUMPDEST SWAP4 SWAP3 POP POP POP JUMP JUMPDEST PUSH1 0x0 DUP1 REVERT JUMPDEST PUSH1 0x0 DUP1 REVERT JUMPDEST PUSH2 0xD4A DUP2 PUSH2 0xC61 JUMP JUMPDEST DUP2 EQ PUSH2 0xD55 JUMPI PUSH1 0x0 DUP1 REVERT JUMPDEST POP JUMP JUMPDEST PUSH1 0x0 DUP2 CALLDATALOAD SWAP1 POP PUSH2 0xD67 DUP2 PUSH2 0xD41 JUMP JUMPDEST SWAP3 SWAP2 POP POP JUMP JUMPDEST PUSH2 0xD76 DUP2 PUSH2 0xCF2 JUMP JUMPDEST DUP2 EQ PUSH2 0xD81 JUMPI PUSH1 0x0 DUP1 REVERT JUMPDEST POP JUMP JUMPDEST PUSH1 0x0 DUP2 CALLDATALOAD SWAP1 POP PUSH2 0xD93 DUP2 PUSH2 0xD6D JUMP JUMPDEST SWAP3 SWAP2 POP POP JUMP JUMPDEST PUSH2 0xDA2 DUP2 PUSH2 0xC9D JUMP JUMPDEST DUP2 EQ PUSH2 0xDAD JUMPI PUSH1 0x0 DUP1 REVERT JUMPDEST POP JUMP JUMPDEST PUSH1 0x0 DUP2 CALLDATALOAD SWAP1 POP PUSH2 0xDBF DUP2 PUSH2 0xD99 JUMP JUMPDEST SWAP3 SWAP2 POP POP JUMP JUMPDEST PUSH1 0x0 DUP1 REVERT JUMPDEST PUSH1 0x0 DUP1 REVERT JUMPDEST PUSH1 0x0 DUP1 REVERT JUMPDEST PUSH1 0x0 DUP1 DUP4 PUSH1 0x1F DUP5 ADD SLT PUSH2 0xDEA JUMPI PUSH2 0xDE9 PUSH2 0xDC5 JUMP JUMPDEST JUMPDEST DUP3 CALLDATALOAD SWAP1 POP PUSH8 0xFFFFFFFFFFFFFFFF DUP2 GT ISZERO PUSH2 0xE07 JUMPI PUSH2 0xE06 PUSH2 0xDCA JUMP JUMPDEST JUMPDEST PUSH1 0x20 DUP4 ADD SWAP2 POP DUP4 PUSH1 0x1 DUP3 MUL DUP4 ADD GT ISZERO PUSH2 0xE23 JUMPI PUSH2 0xE22 PUSH2 0xDCF JUMP JUMPDEST JUMPDEST SWAP3 POP SWAP3 SWAP1 POP JUMP JUMPDEST PUSH1 0x0 DUP1 PUSH1 0x0 DUP1 PUSH1 0x0 DUP1 PUSH1 0xA0 DUP8 DUP10 SUB SLT ISZERO PUSH2 0xE47 JUMPI PUSH2 0xE46 PUSH2 0xD37 JUMP JUMPDEST JUMPDEST PUSH1 0x0 PUSH2 0xE55 DUP10 DUP3 DUP11 ADD PUSH2 0xD58 JUMP JUMPDEST SWAP7 POP POP PUSH1 0x20 PUSH2 0xE66 DUP10 DUP3 DUP11 ADD PUSH2 0xD84 JUMP JUMPDEST SWAP6 POP POP PUSH1 0x40 PUSH2 0xE77 DUP10 DUP3 DUP11 ADD PUSH2 0xD84 JUMP JUMPDEST SWAP5 POP POP PUSH1 0x60 PUSH2 0xE88 DUP10 DUP3 DUP11 ADD PUSH2 0xDB0 JUMP JUMPDEST SWAP4 POP POP PUSH1 0x80 DUP8 ADD CALLDATALOAD PUSH8 0xFFFFFFFFFFFFFFFF DUP2 GT ISZERO PUSH2 0xEA9 JUMPI PUSH2 0xEA8 PUSH2 0xD3C JUMP JUMPDEST JUMPDEST PUSH2 0xEB5 DUP10 DUP3 DUP11 ADD PUSH2 0xDD4 JUMP JUMPDEST SWAP3 POP SWAP3 POP POP SWAP3 SWAP6 POP SWAP3 SWAP6 POP SWAP3 SWAP6 JUMP JUMPDEST PUSH1 0x0 DUP2 SWAP1 POP SWAP2 SWAP1 POP JUMP JUMPDEST PUSH2 0xED7 DUP2 PUSH2 0xEC4 JUMP JUMPDEST DUP3 MSTORE POP POP JUMP JUMPDEST PUSH1 0x0 PUSH1 0x40 DUP3 ADD SWAP1 POP PUSH2 0xEF2 PUSH1 0x0 DUP4 ADD DUP6 PUSH2 0xECE JUMP JUMPDEST PUSH2 0xEFF PUSH1 0x20 DUP4 ADD DUP5 PUSH2 0xECE JUMP JUMPDEST SWAP4 SWAP3 POP POP POP JUMP JUMPDEST PUSH1 0x0 DUP2 SWAP1 POP SWAP2 SWAP1 POP JUMP JUMPDEST PUSH2 0xF19 DUP2 PUSH2 0xF06 JUMP JUMPDEST DUP2 EQ PUSH2 0xF24 JUMPI PUSH1 0x0 DUP1 REVERT JUMPDEST POP JUMP JUMPDEST PUSH1 0x0 DUP2 CALLDATALOAD SWAP1 POP PUSH2 0xF36 DUP2 PUSH2 0xF10 JUMP JUMPDEST SWAP3 SWAP2 POP POP JUMP JUMPDEST PUSH1 0x0 PUSH1 0x20 DUP3 DUP5 SUB SLT ISZERO PUSH2 0xF52 JUMPI PUSH2 0xF51 PUSH2 0xD37 JUMP JUMPDEST JUMPDEST PUSH1 0x0 PUSH2 0xF60 DUP5 DUP3 DUP6 ADD PUSH2 0xF27 JUMP JUMPDEST SWAP2 POP POP SWAP3 SWAP2 POP POP JUMP JUMPDEST PUSH1 0x0 DUP1 PUSH1 0x0 PUSH1 0x40 DUP5 DUP7 SUB SLT ISZERO PUSH2 0xF82 JUMPI PUSH2 0xF81 PUSH2 0xD37 JUMP JUMPDEST JUMPDEST PUSH1 0x0 PUSH2 0xF90 DUP7 DUP3 DUP8 ADD PUSH2 0xD58 JUMP JUMPDEST SWAP4 POP POP PUSH1 0x20 DUP5 ADD CALLDATALOAD PUSH8 0xFFFFFFFFFFFFFFFF DUP2 GT ISZERO PUSH2 0xFB1 JUMPI PUSH2 0xFB0 PUSH2 0xD3C JUMP JUMPDEST JUMPDEST PUSH2 0xFBD DUP7 DUP3 DUP8 ADD PUSH2 0xDD4 JUMP JUMPDEST SWAP3 POP SWAP3 POP POP SWAP3 POP SWAP3 POP SWAP3 JUMP JUMPDEST PUSH1 0x0 DUP2 SWAP1 POP SWAP2 SWAP1 POP JUMP JUMPDEST PUSH2 0xFDC DUP2 PUSH2 0xFC9 JUMP JUMPDEST DUP3 MSTORE POP POP JUMP JUMPDEST PUSH1 0x0 PUSH1 0x40 DUP3 ADD SWAP1 POP PUSH2 0xFF7 PUSH1 0x0 DUP4 ADD DUP6 PUSH2 0xFD3 JUMP JUMPDEST PUSH2 0x1004 PUSH1 0x20 DUP4 ADD DUP5 PUSH2 0xFD3 JUMP JUMPDEST SWAP4 SWAP3 POP POP POP JUMP JUMPDEST PUSH1 0x0 PUSH1 0x20 DUP3 DUP5 SUB SLT ISZERO PUSH2 0x1021 JUMPI PUSH2 0x1020 PUSH2 0xD37 JUMP JUMPDEST JUMPDEST PUSH1 0x0 PUSH2 0x102F DUP5 DUP3 DUP6 ADD PUSH2 0xD84 JUMP JUMPDEST SWAP2 POP POP SWAP3 SWAP2 POP POP JUMP JUMPDEST PUSH1 0x0 DUP2 ISZERO ISZERO SWAP1 POP SWAP2 SWAP1 POP JUMP JUMPDEST PUSH2 0x104D DUP2 PUSH2 0x1038 JUMP JUMPDEST DUP3 MSTORE POP POP JUMP JUMPDEST PUSH1 0x0 PUSH1 0x40 DUP3 ADD SWAP1 POP PUSH2 0x1068 PUSH1 0x0 DUP4 ADD DUP6 PUSH2 0x1044 JUMP JUMPDEST PUSH2 0x1075 PUSH1 0x20 DUP4 ADD DUP5 PUSH2 0xCB9 JUMP JUMPDEST SWAP4 SWAP3 POP POP POP JUMP JUMPDEST PUSH32 0x4E487B7100000000000000000000000000000000000000000000000000000000 PUSH1 0x0 MSTORE PUSH1 0x11 PUSH1 0x4 MSTORE PUSH1 0x24 PUSH1 0x0 REVERT JUMPDEST PUSH1 0x0 PUSH2 0x10B6 DUP3 PUSH2 0xCF2 JUMP JUMPDEST SWAP2 POP PUSH32 0xFFFFFFFFFFFFFFFFFFFFFFFFFFFFFFFFFFFFFFFFFFFFFFFFFFFFFFFFFF800000 DUP3 SUB PUSH2 0x10E8 JUMPI PUSH2 0x10E7 PUSH2 0x107C JUMP JUMPDEST JUMPDEST DUP2 PUSH1 0x0 SUB SWAP1 POP SWAP2 SWAP1 POP JUMP JUMPDEST PUSH1 0x0 PUSH2 0x10FE DUP3 PUSH2 0xC9D JUMP JUMPDEST SWAP2 POP PUSH2 0x1109 DUP4 PUSH2 0xC9D JUMP JUMPDEST SWAP3 POP DUP3 DUP3 ADD SWAP1 POP PUSH16 0xFFFFFFFFFFFFFFFFFFFFFFFFFFFFFFFF DUP2 GT ISZERO PUSH2 0x1131 JUMPI PUSH2 0x1130 PUSH2 0x107C JUMP JUMPDEST JUMPDEST SWAP3 SWAP2 POP POP JUMP JUMPDEST PUSH1 0x0 DUP3 DUP3 MSTORE PUSH1 0x20 DUP3 ADD SWAP1 POP SWAP3 SWAP2 POP POP JUMP JUMPDEST DUP3 DUP2 DUP4 CALLDATACOPY PUSH1 0x0 DUP4 DUP4 ADD MSTORE POP POP POP JUMP JUMPDEST PUSH1 0x0 PUSH1 0x1F NOT PUSH1 0x1F DUP4 ADD AND SWAP1 POP SWAP2 SWAP1 POP JUMP JUMPDEST PUSH1 0x0 PUSH2 0x1174 DUP4 DUP6 PUSH2 0x1137 JUMP JUMPDEST SWAP4 POP PUSH2 0x1181 DUP4 DUP6 DUP5 PUSH2 0x1148 JUMP JUMPDEST PUSH2 0x118A DUP4 PUSH2 0x1157 JUMP JUMPDEST DUP5 ADD SWAP1 POP SWAP4 SWAP3 POP POP POP JUMP JUMPDEST PUSH1 0x0 PUSH1 0x60 DUP3 ADD SWAP1 POP PUSH2 0x11AA PUSH1 0x0 DUP4 ADD DUP8 PUSH2 0xECE JUMP JUMPDEST PUSH2 0x11B7 PUSH1 0x20 DUP4 ADD DUP7 PUSH2 0xECE JUMP JUMPDEST DUP2 DUP2 SUB PUSH1 0x40 DUP4 ADD MSTORE PUSH2 0x11CA DUP2 DUP5 DUP7 PUSH2 0x1168 JUMP JUMPDEST SWAP1 POP SWAP6 SWAP5 POP POP POP POP POP JUMP JUMPDEST PUSH1 0x0 PUSH2 0x11E0 DUP3 PUSH2 0xEC4 JUMP JUMPDEST SWAP2 POP PUSH2 0x11EB DUP4 PUSH2 0xEC4 JUMP JUMPDEST SWAP3 POP DUP3 DUP3 ADD SWAP1 POP DUP1 DUP3 GT ISZERO PUSH2 0x1203 JUMPI PUSH2 0x1202 PUSH2 0x107C JUMP JUMPDEST JUMPDEST SWAP3 SWAP2 POP POP JUMP JUMPDEST PUSH1 0x0 PUSH1 0x80 DUP3 ADD SWAP1 POP PUSH2 0x121E PUSH1 0x0 DUP4 ADD DUP8 PUSH2 0xC73 JUMP JUMPDEST PUSH2 0x122B PUSH1 0x20 DUP4 ADD DUP7 PUSH2 0xCB9 JUMP JUMPDEST PUSH2 0x1238 PUSH1 0x40 DUP4 ADD DUP6 PUSH2 0xECE JUMP JUMPDEST PUSH2 0x1245 PUSH1 0x60 DUP4 ADD DUP5 PUSH2 0xECE JUMP JUMPDEST SWAP6 SWAP5 POP POP POP POP POP JUMP JUMPDEST PUSH1 0x0 PUSH2 0x1259 DUP3 PUSH2 0xFC9 JUMP JUMPDEST SWAP2 POP PUSH32 0x8000000000000000000000000000000000000000000000000000000000000000 DUP3 SUB PUSH2 0x128B JUMPI PUSH2 0x128A PUSH2 0x107C JUMP JUMPDEST JUMPDEST DUP2 PUSH1 0x0 SUB SWAP1 POP SWAP2 SWAP1 POP JUMP JUMPDEST PUSH1 0x0 PUSH1 0x40 DUP3 ADD SWAP1 POP PUSH2 0x12AB PUSH1 0x0 DUP4 ADD DUP6 PUSH2 0xC73 JUMP JUMPDEST PUSH2 0x12B8 PUSH1 0x20 DUP4 ADD DUP5 PUSH2 0xECE JUMP JUMPDEST SWAP4 SWAP3 POP POP POP JUMP JUMPDEST PUSH2 0x12C8 DUP2 PUSH2 0x1038 JUMP JUMPDEST DUP2 EQ PUSH2 0x12D3 JUMPI PUSH1 0x0 DUP1 REVERT JUMPDEST POP JUMP JUMPDEST PUSH1 0x0 DUP2 MLOAD SWAP1 POP PUSH2 0x12E5 DUP2 PUSH2 0x12BF JUMP JUMPDEST SWAP3 SWAP2 POP POP JUMP JUMPDEST PUSH1 0x0 PUSH1 0x20 DUP3 DUP5 SUB SLT ISZERO PUSH2 0x1301 JUMPI PUSH2 0x1300 PUSH2 0xD37 JUMP JUMPDEST JUMPDEST PUSH1 0x0 PUSH2 0x130F DUP5 DUP3 DUP6 ADD PUSH2 0x12D6 JUMP JUMPDEST SWAP2 POP POP SWAP3 SWAP2 POP POP JUMP JUMPDEST PUSH1 0x0 PUSH1 0x60 DUP3 ADD SWAP1 POP PUSH2 0x132D PUSH1 0x0 DUP4 ADD DUP8 PUSH2 0xFD3 JUMP JUMPDEST PUSH2 0x133A PUSH1 0x20 DUP4 ADD DUP7 PUSH2 0xFD3 JUMP JUMPDEST DUP2 DUP2 SUB PUSH1 0x40 DUP4 ADD MSTORE PUSH2 0x134D DUP2 DUP5 DUP7 PUSH2 0x1168 JUMP JUMPDEST SWAP1 POP SWAP6 SWAP5 POP POP POP POP POP JUMP JUMPDEST PUSH1 0x0 PUSH1 0xA0 DUP3 ADD SWAP1 POP PUSH2 0x136D PUSH1 0x0 DUP4 ADD DUP9 PUSH2 0xFD3 JUMP JUMPDEST PUSH2 0x137A PUSH1 0x20 DUP4 ADD DUP8 PUSH2 0xFD3 JUMP JUMPDEST PUSH2 0x1387 PUSH1 0x40 DUP4 ADD DUP7 PUSH2 0xCE3 JUMP JUMPDEST PUSH2 0x1394 PUSH1 0x60 DUP4 ADD DUP6 PUSH2 0xCB9 JUMP JUMPDEST PUSH2 0x13A1 PUSH1 0x80 DUP4 ADD DUP5 PUSH2 0xCFF JUMP JUMPDEST SWAP7 SWAP6 POP POP POP POP POP POP JUMP JUMPDEST PUSH1 0x0 DUP2 PUSH1 0x60 SHL SWAP1 POP SWAP2 SWAP1 POP JUMP JUMPDEST PUSH1 0x0 PUSH2 0x13C3 DUP3 PUSH2 0x13AB JUMP JUMPDEST SWAP1 POP SWAP2 SWAP1 POP JUMP JUMPDEST PUSH1 0x0 PUSH2 0x13D5 DUP3 PUSH2 0x13B8 JUMP JUMPDEST SWAP1 POP SWAP2 SWAP1 POP JUMP JUMPDEST PUSH2 0x13ED PUSH2 0x13E8 DUP3 PUSH2 0xC61 JUMP JUMPDEST PUSH2 0x13CA JUMP JUMPDEST DUP3 MSTORE POP POP JUMP JUMPDEST PUSH1 0x0 DUP2 PUSH1 0xE8 SHL SWAP1 POP SWAP2 SWAP1 POP JUMP JUMPDEST PUSH1 0x0 PUSH2 0x140B DUP3 PUSH2 0x13F3 JUMP JUMPDEST SWAP1 POP SWAP2 SWAP1 POP JUMP JUMPDEST PUSH2 0x1423 PUSH2 0x141E DUP3 PUSH2 0xCF2 JUMP JUMPDEST PUSH2 0x1400 JUMP JUMPDEST DUP3 MSTORE POP POP JUMP JUMPDEST PUSH1 0x0 PUSH2 0x1435 DUP3 DUP7 PUSH2 0x13DC JUMP JUMPDEST PUSH1 0x14 DUP3 ADD SWAP2 POP PUSH2 0x1445 DUP3 DUP6 PUSH2 0x1412 JUMP JUMPDEST PUSH1 0x3 DUP3 ADD SWAP2 POP PUSH2 0x1455 DUP3 DUP5 PUSH2 0x1412 JUMP JUMPDEST PUSH1 0x3 DUP3 ADD SWAP2 POP DUP2 SWAP1 POP SWAP5 SWAP4 POP POP POP POP JUMP JUMPDEST PUSH2 0x146F DUP2 PUSH2 0xEC4 JUMP JUMPDEST DUP2 EQ PUSH2 0x147A JUMPI PUSH1 0x0 DUP1 REVERT JUMPDEST POP JUMP JUMPDEST PUSH1 0x0 DUP2 MLOAD SWAP1 POP PUSH2 0x148C DUP2 PUSH2 0x1466 JUMP JUMPDEST SWAP3 SWAP2 POP POP JUMP JUMPDEST PUSH1 0x0 PUSH1 0x20 DUP3 DUP5 SUB SLT ISZERO PUSH2 0x14A8 JUMPI PUSH2 0x14A7 PUSH2 0xD37 JUMP JUMPDEST JUMPDEST PUSH1 0x0 PUSH2 0x14B6 DUP5 DUP3 DUP6 ADD PUSH2 0x147D JUMP JUMPDEST SWAP2 POP POP SWAP3 SWAP2 POP POP JUMP INVALID LOG2 PUSH5 0x6970667358 0x22 SLT KECCAK256 0xBD 0xF6 PUSH0 0xBC NUMBER EXTCODEHASH MUL GAS DUP12 BALANCE SHL DUP8 0xB1 PUSH12 0xB081C6550746552E11940C7D 0xF7 EXTCODECOPY SWAP16 INVALID CALLDATASIZE MUL PUSH5 0x736F6C6343 STOP ADDMOD BYTE STOP CALLER "
				},
				"gasEstimates": {
					"creation": {
						"codeDepositCost": "1073000",
						"executionCost": "infinite",
						"totalCost": "infinite"
					},
					"external": {
						"liquidity()": "2494",
						"mint(address,int24,int24,uint128,bytes)": "infinite",
						"positions(bytes32)": "2821",
						"slot0()": "4838",
						"swap(address,bytes)": "infinite",
						"ticks(int24)": "5199",
						"token0()": "infinite",
						"token1()": "infinite"
					},
					"internal": {
						"balance0()": "infinite",
						"balance1()": "infinite"
					}
				},
				"methodIdentifiers": {
					"liquidity()": "1a686502",
					"mint(address,int24,int24,uint128,bytes)": "3c8a7d8d",
					"positions(bytes32)": "514ea4bf",
					"slot0()": "3850c7bd",
					"swap(address,bytes)": "e3547335",
					"ticks(int24)": "f30dba93",
					"token0()": "0dfe1681",
					"token1()": "d21220a7"
				}
			},
			"storageLayout": {
				"storage": [
					{
						"astId": 252,
						"contract": "UniswapV3Pool.sol:UniswapV3Pool",
						"label": "slot0",
						"offset": 0,
						"slot": "0",
						"type": "t_struct(Slot0)242_storage"
					},
					{
						"astId": 254,
						"contract": "UniswapV3Pool.sol:UniswapV3Pool",
						"label": "liquidity",
						"offset": 0,
						"slot": "1",
						"type": "t_uint128"
					},
					{
						"astId": 259,
						"contract": "UniswapV3Pool.sol:UniswapV3Pool",
						"label": "ticks",
						"offset": 0,
						"slot": "2",
						"type": "t_mapping(t_int24,t_struct(Info)675_storage)"
					},
					{
						"astId": 264,
						"contract": "UniswapV3Pool.sol:UniswapV3Pool",
						"label": "positions",
						"offset": 0,
						"slot": "3",
						"type": "t_mapping(t_bytes32,t_struct(Info)610_storage)"
					}
				],
				"types": {
					"t_bool": {
						"encoding": "inplace",
						"label": "bool",
						"numberOfBytes": "1"
					},
					"t_bytes32": {
						"encoding": "inplace",
						"label": "bytes32",
						"numberOfBytes": "32"
					},
					"t_int24": {
						"encoding": "inplace",
						"label": "int24",
						"numberOfBytes": "3"
					},
					"t_mapping(t_bytes32,t_struct(Info)610_storage)": {
						"encoding": "mapping",
						"key": "t_bytes32",
						"label": "mapping(bytes32 => struct Position.Info)",
						"numberOfBytes": "32",
						"value": "t_struct(Info)610_storage"
					},
					"t_mapping(t_int24,t_struct(Info)675_storage)": {
						"encoding": "mapping",
						"key": "t_int24",
						"label": "mapping(int24 => struct Tick.Info)",
						"numberOfBytes": "32",
						"value": "t_struct(Info)675_storage"
					},
					"t_struct(Info)610_storage": {
						"encoding": "inplace",
						"label": "struct Position.Info",
						"members": [
							{
								"astId": 609,
								"contract": "UniswapV3Pool.sol:UniswapV3Pool",
								"label": "liquidity",
								"offset": 0,
								"slot": "0",
								"type": "t_uint128"
							}
						],
						"numberOfBytes": "32"
					},
					"t_struct(Info)675_storage": {
						"encoding": "inplace",
						"label": "struct Tick.Info",
						"members": [
							{
								"astId": 672,
								"contract": "UniswapV3Pool.sol:UniswapV3Pool",
								"label": "initialized",
								"offset": 0,
								"slot": "0",
								"type": "t_bool"
							},
							{
								"astId": 674,
								"contract": "UniswapV3Pool.sol:UniswapV3Pool",
								"label": "liquidity",
								"offset": 1,
								"slot": "0",
								"type": "t_uint128"
							}
						],
						"numberOfBytes": "32"
					},
					"t_struct(Slot0)242_storage": {
						"encoding": "inplace",
						"label": "struct UniswapV3Pool.Slot0",
						"members": [
							{
								"astId": 239,
								"contract": "UniswapV3Pool.sol:UniswapV3Pool",
								"label": "sqrtPriceX96",
								"offset": 0,
								"slot": "0",
								"type": "t_uint160"
							},
							{
								"astId": 241,
								"contract": "UniswapV3Pool.sol:UniswapV3Pool",
								"label": "tick",
								"offset": 20,
								"slot": "0",
								"type": "t_int24"
							}
						],
						"numberOfBytes": "32"
					},
					"t_uint128": {
						"encoding": "inplace",
						"label": "uint128",
						"numberOfBytes": "16"
					},
					"t_uint160": {
						"encoding": "inplace",
						"label": "uint160",
						"numberOfBytes": "20"
					}
				}
			},
			"userdoc": {
				"kind": "user",
				"methods": {},
				"version": 1
			}
		}
	}
}