{
	"UniswapV3Manager.sol": {
		"UniswapV3Manager": {
			"abi": [
				{
					"inputs": [
						{
							"internalType": "address",
							"name": "poolAddress_",
							"type": "address"
						},
						{
							"internalType": "int24",
							"name": "lowerTick",
							"type": "int24"
						},
						{
							"internalType": "int24",
							"name": "upperTick",
							"type": "int24"
						},
						{
							"internalType": "uint128",
							"name": "liquidity",
							"type": "uint128"
						},
						{
							"internalType": "bytes",
							"name": "data",
							"type": "bytes"
						}
					],
					"name": "mint",
					"outputs": [
						{
							"internalType": "uint256",
							"name": "",
							"type": "uint256"
						},
						{
							"internalType": "uint256",
							"name": "",
							"type": "uint256"
						}
					],
					"stateMutability": "nonpayable",
					"type": "function"
				},
				{
					"inputs": [
						{
							"internalType": "address",
							"name": "poolAddress_",
							"type": "address"
						},
						{
							"internalType": "bytes",
							"name": "data",
							"type": "bytes"
						}
					],
					"name": "swap",
					"outputs": [
						{
							"internalType": "int256",
							"name": "",
							"type": "int256"
						},
						{
							"internalType": "int256",
							"name": "",
							"type": "int256"
						}
					],
					"stateMutability": "nonpayable",
					"type": "function"
				},
				{
					"inputs": [
						{
							"internalType": "uint256",
							"name": "amount0",
							"type": "uint256"
						},
						{
							"internalType": "uint256",
							"name": "amount1",
							"type": "uint256"
						},
						{
							"internalType": "bytes",
							"name": "data",
							"type": "bytes"
						}
					],
					"name": "uniswapV3MintCallback",
					"outputs": [],
					"stateMutability": "nonpayable",
					"type": "function"
				},
				{
					"inputs": [
						{
							"internalType": "int256",
							"name": "amount0",
							"type": "int256"
						},
						{
							"internalType": "int256",
							"name": "amount1",
							"type": "int256"
						},
						{
							"internalType": "bytes",
							"name": "data",
							"type": "bytes"
						}
					],
					"name": "uniswapV3SwapCallback",
					"outputs": [],
					"stateMutability": "nonpayable",
					"type": "function"
				}
			],
			"devdoc": {
				"kind": "dev",
				"methods": {},
				"version": 1
			},
			"evm": {
				"assembly": "    /* \"UniswapV3Manager.sol\":144:1900  contract UniswapV3Manager {... */\n  mstore(0x40, 0x80)\n  callvalue\n  dup1\n  iszero\n  tag_1\n  jumpi\n  0x00\n  dup1\n  revert\ntag_1:\n  pop\n  dataSize(sub_0)\n  dup1\n  dataOffset(sub_0)\n  0x00\n  codecopy\n  0x00\n  return\nstop\n\nsub_0: assembly {\n        /* \"UniswapV3Manager.sol\":144:1900  contract UniswapV3Manager {... */\n      mstore(0x40, 0x80)\n      callvalue\n      dup1\n      iszero\n      tag_1\n      jumpi\n      0x00\n      dup1\n      revert\n    tag_1:\n      pop\n      jumpi(tag_2, lt(calldatasize, 0x04))\n      shr(0xe0, calldataload(0x00))\n      dup1\n      0x3c8a7d8d\n      eq\n      tag_3\n      jumpi\n      dup1\n      0xd3487997\n      eq\n      tag_4\n      jumpi\n      dup1\n      0xe3547335\n      eq\n      tag_5\n      jumpi\n      dup1\n      0xfa461e33\n      eq\n      tag_6\n      jumpi\n    tag_2:\n      0x00\n      dup1\n      revert\n        /* \"UniswapV3Manager.sol\":177:595  function mint(... */\n    tag_3:\n      tag_7\n      0x04\n      dup1\n      calldatasize\n      sub\n      dup2\n      add\n      swap1\n      tag_8\n      swap2\n      swap1\n      tag_9\n      jump\t// in\n    tag_8:\n      tag_10\n      jump\t// in\n    tag_7:\n      mload(0x40)\n      tag_11\n      swap3\n      swap2\n      swap1\n      tag_12\n      jump\t// in\n    tag_11:\n      mload(0x40)\n      dup1\n      swap2\n      sub\n      swap1\n      return\n        /* \"UniswapV3Manager.sol\":799:1226  function uniswapV3MintCallback(... */\n    tag_4:\n      tag_13\n      0x04\n      dup1\n      calldatasize\n      sub\n      dup2\n      add\n      swap1\n      tag_14\n      swap2\n      swap1\n      tag_15\n      jump\t// in\n    tag_14:\n      tag_16\n      jump\t// in\n    tag_13:\n      stop\n        /* \"UniswapV3Manager.sol\":603:791  function swap(address poolAddress_, bytes calldata data)... */\n    tag_5:\n      tag_17\n      0x04\n      dup1\n      calldatasize\n      sub\n      dup2\n      add\n      swap1\n      tag_18\n      swap2\n      swap1\n      tag_19\n      jump\t// in\n    tag_18:\n      tag_20\n      jump\t// in\n    tag_17:\n      mload(0x40)\n      tag_21\n      swap3\n      swap2\n      swap1\n      tag_22\n      jump\t// in\n    tag_21:\n      mload(0x40)\n      dup1\n      swap2\n      sub\n      swap1\n      return\n        /* \"UniswapV3Manager.sol\":1234:1897  function uniswapV3SwapCallback(... */\n    tag_6:\n      tag_23\n      0x04\n      dup1\n      calldatasize\n      sub\n      dup2\n      add\n      swap1\n      tag_24\n      swap2\n      swap1\n      tag_25\n      jump\t// in\n    tag_24:\n      tag_26\n      jump\t// in\n    tag_23:\n      stop\n        /* \"UniswapV3Manager.sol\":177:595  function mint(... */\n    tag_10:\n        /* \"UniswapV3Manager.sol\":355:362  uint256 */\n      0x00\n        /* \"UniswapV3Manager.sol\":364:371  uint256 */\n      dup1\n        /* \"UniswapV3Manager.sol\":418:430  poolAddress_ */\n      dup8\n        /* \"UniswapV3Manager.sol\":404:436  UniswapV3Pool(poolAddress_).mint */\n      0xffffffffffffffffffffffffffffffffffffffff\n      and\n      0x3c8a7d8d\n        /* \"UniswapV3Manager.sol\":455:465  msg.sender */\n      caller\n        /* \"UniswapV3Manager.sol\":484:493  lowerTick */\n      dup10\n        /* \"UniswapV3Manager.sol\":512:521  upperTick */\n      dup10\n        /* \"UniswapV3Manager.sol\":540:549  liquidity */\n      dup10\n        /* \"UniswapV3Manager.sol\":568:572  data */\n      dup10\n      dup10\n        /* \"UniswapV3Manager.sol\":404:587  UniswapV3Pool(poolAddress_).mint(... */\n      mload(0x40)\n      dup8\n      0xffffffff\n      and\n      0xe0\n      shl\n      dup2\n      mstore\n      0x04\n      add\n      tag_28\n      swap7\n      swap6\n      swap5\n      swap4\n      swap3\n      swap2\n      swap1\n      tag_29\n      jump\t// in\n    tag_28:\n      0x40\n      dup1\n      mload\n      dup1\n      dup4\n      sub\n      dup2\n      0x00\n      dup8\n      gas\n      call\n      iszero\n      dup1\n      iszero\n      tag_31\n      jumpi\n      returndatasize\n      0x00\n      dup1\n      returndatacopy\n      revert(0x00, returndatasize)\n    tag_31:\n      pop\n      pop\n      pop\n      pop\n      mload(0x40)\n      returndatasize\n      not(0x1f)\n      0x1f\n      dup3\n      add\n      and\n      dup3\n      add\n      dup1\n      0x40\n      mstore\n      pop\n      dup2\n      add\n      swap1\n      tag_32\n      swap2\n      swap1\n      tag_33\n      jump\t// in\n    tag_32:\n        /* \"UniswapV3Manager.sol\":384:587  return... */\n      swap2\n      pop\n      swap2\n      pop\n        /* \"UniswapV3Manager.sol\":177:595  function mint(... */\n      swap7\n      pop\n      swap7\n      swap5\n      pop\n      pop\n      pop\n      pop\n      pop\n      jump\t// out\n        /* \"UniswapV3Manager.sol\":799:1226  function uniswapV3MintCallback(... */\n    tag_16:\n        /* \"UniswapV3Manager.sol\":937:976  UniswapV3Pool.CallbackData memory extra */\n      0x00\n        /* \"UniswapV3Manager.sol\":1004:1008  data */\n      dup3\n      dup3\n        /* \"UniswapV3Manager.sol\":979:1062  abi.decode(... */\n      dup2\n      add\n      swap1\n      tag_35\n      swap2\n      swap1\n      tag_36\n      jump\t// in\n    tag_35:\n        /* \"UniswapV3Manager.sol\":937:1062  UniswapV3Pool.CallbackData memory extra = abi.decode(... */\n      swap1\n      pop\n        /* \"UniswapV3Manager.sol\":1081:1086  extra */\n      dup1\n        /* \"UniswapV3Manager.sol\":1081:1093  extra.token0 */\n      0x00\n      add\n      mload\n        /* \"UniswapV3Manager.sol\":1075:1107  ERC20(extra.token0).transferFrom */\n      0xffffffffffffffffffffffffffffffffffffffff\n      and\n      0x23b872dd\n        /* \"UniswapV3Manager.sol\":1108:1113  extra */\n      dup3\n        /* \"UniswapV3Manager.sol\":1108:1119  extra.payer */\n      0x40\n      add\n      mload\n        /* \"UniswapV3Manager.sol\":1121:1131  msg.sender */\n      caller\n        /* \"UniswapV3Manager.sol\":1133:1140  amount0 */\n      dup9\n        /* \"UniswapV3Manager.sol\":1075:1141  ERC20(extra.token0).transferFrom(extra.payer, msg.sender, amount0) */\n      mload(0x40)\n      dup5\n      0xffffffff\n      and\n      0xe0\n      shl\n      dup2\n      mstore\n      0x04\n      add\n      tag_37\n      swap4\n      swap3\n      swap2\n      swap1\n      tag_38\n      jump\t// in\n    tag_37:\n      0x20\n      mload(0x40)\n      dup1\n      dup4\n      sub\n      dup2\n      0x00\n      dup8\n      gas\n      call\n      iszero\n      dup1\n      iszero\n      tag_40\n      jumpi\n      returndatasize\n      0x00\n      dup1\n      returndatacopy\n      revert(0x00, returndatasize)\n    tag_40:\n      pop\n      pop\n      pop\n      pop\n      mload(0x40)\n      returndatasize\n      not(0x1f)\n      0x1f\n      dup3\n      add\n      and\n      dup3\n      add\n      dup1\n      0x40\n      mstore\n      pop\n      dup2\n      add\n      swap1\n      tag_41\n      swap2\n      swap1\n      tag_42\n      jump\t// in\n    tag_41:\n      pop\n        /* \"UniswapV3Manager.sol\":1158:1163  extra */\n      dup1\n        /* \"UniswapV3Manager.sol\":1158:1170  extra.token1 */\n      0x20\n      add\n      mload\n        /* \"UniswapV3Manager.sol\":1152:1184  ERC20(extra.token1).transferFrom */\n      0xffffffffffffffffffffffffffffffffffffffff\n      and\n      0x23b872dd\n        /* \"UniswapV3Manager.sol\":1185:1190  extra */\n      dup3\n        /* \"UniswapV3Manager.sol\":1185:1196  extra.payer */\n      0x40\n      add\n      mload\n        /* \"UniswapV3Manager.sol\":1198:1208  msg.sender */\n      caller\n        /* \"UniswapV3Manager.sol\":1210:1217  amount1 */\n      dup8\n        /* \"UniswapV3Manager.sol\":1152:1218  ERC20(extra.token1).transferFrom(extra.payer, msg.sender, amount1) */\n      mload(0x40)\n      dup5\n      0xffffffff\n      and\n      0xe0\n      shl\n      dup2\n      mstore\n      0x04\n      add\n      tag_43\n      swap4\n      swap3\n      swap2\n      swap1\n      tag_38\n      jump\t// in\n    tag_43:\n      0x20\n      mload(0x40)\n      dup1\n      dup4\n      sub\n      dup2\n      0x00\n      dup8\n      gas\n      call\n      iszero\n      dup1\n      iszero\n      tag_45\n      jumpi\n      returndatasize\n      0x00\n      dup1\n      returndatacopy\n      revert(0x00, returndatasize)\n    tag_45:\n      pop\n      pop\n      pop\n      pop\n      mload(0x40)\n      returndatasize\n      not(0x1f)\n      0x1f\n      dup3\n      add\n      and\n      dup3\n      add\n      dup1\n      0x40\n      mstore\n      pop\n      dup2\n      add\n      swap1\n      tag_46\n      swap2\n      swap1\n      tag_42\n      jump\t// in\n    tag_46:\n      pop\n        /* \"UniswapV3Manager.sol\":926:1226  {... */\n      pop\n        /* \"UniswapV3Manager.sol\":799:1226  function uniswapV3MintCallback(... */\n      pop\n      pop\n      pop\n      pop\n      jump\t// out\n        /* \"UniswapV3Manager.sol\":603:791  function swap(address poolAddress_, bytes calldata data)... */\n    tag_20:\n        /* \"UniswapV3Manager.sol\":694:700  int256 */\n      0x00\n        /* \"UniswapV3Manager.sol\":702:708  int256 */\n      dup1\n        /* \"UniswapV3Manager.sol\":747:759  poolAddress_ */\n      dup5\n        /* \"UniswapV3Manager.sol\":733:765  UniswapV3Pool(poolAddress_).swap */\n      0xffffffffffffffffffffffffffffffffffffffff\n      and\n      0xe3547335\n        /* \"UniswapV3Manager.sol\":766:776  msg.sender */\n      caller\n        /* \"UniswapV3Manager.sol\":778:782  data */\n      dup7\n      dup7\n        /* \"UniswapV3Manager.sol\":733:783  UniswapV3Pool(poolAddress_).swap(msg.sender, data) */\n      mload(0x40)\n      dup5\n      0xffffffff\n      and\n      0xe0\n      shl\n      dup2\n      mstore\n      0x04\n      add\n      tag_48\n      swap4\n      swap3\n      swap2\n      swap1\n      tag_49\n      jump\t// in\n    tag_48:\n      0x40\n      dup1\n      mload\n      dup1\n      dup4\n      sub\n      dup2\n      0x00\n      dup8\n      gas\n      call\n      iszero\n      dup1\n      iszero\n      tag_51\n      jumpi\n      returndatasize\n      0x00\n      dup1\n      returndatacopy\n      revert(0x00, returndatasize)\n    tag_51:\n      pop\n      pop\n      pop\n      pop\n      mload(0x40)\n      returndatasize\n      not(0x1f)\n      0x1f\n      dup3\n      add\n      and\n      dup3\n      add\n      dup1\n      0x40\n      mstore\n      pop\n      dup2\n      add\n      swap1\n      tag_52\n      swap2\n      swap1\n      tag_53\n      jump\t// in\n    tag_52:\n        /* \"UniswapV3Manager.sol\":726:783  return UniswapV3Pool(poolAddress_).swap(msg.sender, data) */\n      swap2\n      pop\n      swap2\n      pop\n        /* \"UniswapV3Manager.sol\":603:791  function swap(address poolAddress_, bytes calldata data)... */\n      swap4\n      pop\n      swap4\n      swap2\n      pop\n      pop\n      jump\t// out\n        /* \"UniswapV3Manager.sol\":1234:1897  function uniswapV3SwapCallback(... */\n    tag_26:\n        /* \"UniswapV3Manager.sol\":1370:1409  UniswapV3Pool.CallbackData memory extra */\n      0x00\n        /* \"UniswapV3Manager.sol\":1437:1441  data */\n      dup3\n      dup3\n        /* \"UniswapV3Manager.sol\":1412:1495  abi.decode(... */\n      dup2\n      add\n      swap1\n      tag_55\n      swap2\n      swap1\n      tag_36\n      jump\t// in\n    tag_55:\n        /* \"UniswapV3Manager.sol\":1370:1495  UniswapV3Pool.CallbackData memory extra = abi.decode(... */\n      swap1\n      pop\n        /* \"UniswapV3Manager.sol\":1522:1523  0 */\n      0x00\n        /* \"UniswapV3Manager.sol\":1512:1519  amount0 */\n      dup6\n        /* \"UniswapV3Manager.sol\":1512:1523  amount0 > 0 */\n      sgt\n        /* \"UniswapV3Manager.sol\":1508:1693  if (amount0 > 0) {... */\n      iszero\n      tag_56\n      jumpi\n        /* \"UniswapV3Manager.sol\":1546:1551  extra */\n      dup1\n        /* \"UniswapV3Manager.sol\":1546:1558  extra.token0 */\n      0x00\n      add\n      mload\n        /* \"UniswapV3Manager.sol\":1540:1572  ERC20(extra.token0).transferFrom */\n      0xffffffffffffffffffffffffffffffffffffffff\n      and\n      0x23b872dd\n        /* \"UniswapV3Manager.sol\":1591:1596  extra */\n      dup3\n        /* \"UniswapV3Manager.sol\":1591:1602  extra.payer */\n      0x40\n      add\n      mload\n        /* \"UniswapV3Manager.sol\":1621:1631  msg.sender */\n      caller\n        /* \"UniswapV3Manager.sol\":1658:1665  amount0 */\n      dup9\n        /* \"UniswapV3Manager.sol\":1540:1681  ERC20(extra.token0).transferFrom(... */\n      mload(0x40)\n      dup5\n      0xffffffff\n      and\n      0xe0\n      shl\n      dup2\n      mstore\n      0x04\n      add\n      tag_57\n      swap4\n      swap3\n      swap2\n      swap1\n      tag_38\n      jump\t// in\n    tag_57:\n      0x20\n      mload(0x40)\n      dup1\n      dup4\n      sub\n      dup2\n      0x00\n      dup8\n      gas\n      call\n      iszero\n      dup1\n      iszero\n      tag_59\n      jumpi\n      returndatasize\n      0x00\n      dup1\n      returndatacopy\n      revert(0x00, returndatasize)\n    tag_59:\n      pop\n      pop\n      pop\n      pop\n      mload(0x40)\n      returndatasize\n      not(0x1f)\n      0x1f\n      dup3\n      add\n      and\n      dup3\n      add\n      dup1\n      0x40\n      mstore\n      pop\n      dup2\n      add\n      swap1\n      tag_60\n      swap2\n      swap1\n      tag_42\n      jump\t// in\n    tag_60:\n      pop\n        /* \"UniswapV3Manager.sol\":1508:1693  if (amount0 > 0) {... */\n    tag_56:\n        /* \"UniswapV3Manager.sol\":1719:1720  0 */\n      0x00\n        /* \"UniswapV3Manager.sol\":1709:1716  amount1 */\n      dup5\n        /* \"UniswapV3Manager.sol\":1709:1720  amount1 > 0 */\n      sgt\n        /* \"UniswapV3Manager.sol\":1705:1890  if (amount1 > 0) {... */\n      iszero\n      tag_61\n      jumpi\n        /* \"UniswapV3Manager.sol\":1743:1748  extra */\n      dup1\n        /* \"UniswapV3Manager.sol\":1743:1755  extra.token1 */\n      0x20\n      add\n      mload\n        /* \"UniswapV3Manager.sol\":1737:1769  ERC20(extra.token1).transferFrom */\n      0xffffffffffffffffffffffffffffffffffffffff\n      and\n      0x23b872dd\n        /* \"UniswapV3Manager.sol\":1788:1793  extra */\n      dup3\n        /* \"UniswapV3Manager.sol\":1788:1799  extra.payer */\n      0x40\n      add\n      mload\n        /* \"UniswapV3Manager.sol\":1818:1828  msg.sender */\n      caller\n        /* \"UniswapV3Manager.sol\":1855:1862  amount1 */\n      dup8\n        /* \"UniswapV3Manager.sol\":1737:1878  ERC20(extra.token1).transferFrom(... */\n      mload(0x40)\n      dup5\n      0xffffffff\n      and\n      0xe0\n      shl\n      dup2\n      mstore\n      0x04\n      add\n      tag_62\n      swap4\n      swap3\n      swap2\n      swap1\n      tag_38\n      jump\t// in\n    tag_62:\n      0x20\n      mload(0x40)\n      dup1\n      dup4\n      sub\n      dup2\n      0x00\n      dup8\n      gas\n      call\n      iszero\n      dup1\n      iszero\n      tag_64\n      jumpi\n      returndatasize\n      0x00\n      dup1\n      returndatacopy\n      revert(0x00, returndatasize)\n    tag_64:\n      pop\n      pop\n      pop\n      pop\n      mload(0x40)\n      returndatasize\n      not(0x1f)\n      0x1f\n      dup3\n      add\n      and\n      dup3\n      add\n      dup1\n      0x40\n      mstore\n      pop\n      dup2\n      add\n      swap1\n      tag_65\n      swap2\n      swap1\n      tag_42\n      jump\t// in\n    tag_65:\n      pop\n        /* \"UniswapV3Manager.sol\":1705:1890  if (amount1 > 0) {... */\n    tag_61:\n        /* \"UniswapV3Manager.sol\":1359:1897  {... */\n      pop\n        /* \"UniswapV3Manager.sol\":1234:1897  function uniswapV3SwapCallback(... */\n      pop\n      pop\n      pop\n      pop\n      jump\t// out\n        /* \"#utility.yul\":7:82   */\n    tag_66:\n        /* \"#utility.yul\":40:46   */\n      0x00\n        /* \"#utility.yul\":73:75   */\n      0x40\n        /* \"#utility.yul\":67:76   */\n      mload\n        /* \"#utility.yul\":57:76   */\n      swap1\n      pop\n        /* \"#utility.yul\":7:82   */\n      swap1\n      jump\t// out\n        /* \"#utility.yul\":88:205   */\n    tag_67:\n        /* \"#utility.yul\":197:198   */\n      0x00\n        /* \"#utility.yul\":194:195   */\n      dup1\n        /* \"#utility.yul\":187:199   */\n      revert\n        /* \"#utility.yul\":211:328   */\n    tag_68:\n        /* \"#utility.yul\":320:321   */\n      0x00\n        /* \"#utility.yul\":317:318   */\n      dup1\n        /* \"#utility.yul\":310:322   */\n      revert\n        /* \"#utility.yul\":334:460   */\n    tag_69:\n        /* \"#utility.yul\":371:378   */\n      0x00\n        /* \"#utility.yul\":411:453   */\n      0xffffffffffffffffffffffffffffffffffffffff\n        /* \"#utility.yul\":404:409   */\n      dup3\n        /* \"#utility.yul\":400:454   */\n      and\n        /* \"#utility.yul\":389:454   */\n      swap1\n      pop\n        /* \"#utility.yul\":334:460   */\n      swap2\n      swap1\n      pop\n      jump\t// out\n        /* \"#utility.yul\":466:562   */\n    tag_70:\n        /* \"#utility.yul\":503:510   */\n      0x00\n        /* \"#utility.yul\":532:556   */\n      tag_115\n        /* \"#utility.yul\":550:555   */\n      dup3\n        /* \"#utility.yul\":532:556   */\n      tag_69\n      jump\t// in\n    tag_115:\n        /* \"#utility.yul\":521:556   */\n      swap1\n      pop\n        /* \"#utility.yul\":466:562   */\n      swap2\n      swap1\n      pop\n      jump\t// out\n        /* \"#utility.yul\":568:690   */\n    tag_71:\n        /* \"#utility.yul\":641:665   */\n      tag_117\n        /* \"#utility.yul\":659:664   */\n      dup2\n        /* \"#utility.yul\":641:665   */\n      tag_70\n      jump\t// in\n    tag_117:\n        /* \"#utility.yul\":634:639   */\n      dup2\n        /* \"#utility.yul\":631:666   */\n      eq\n        /* \"#utility.yul\":621:684   */\n      tag_118\n      jumpi\n        /* \"#utility.yul\":680:681   */\n      0x00\n        /* \"#utility.yul\":677:678   */\n      dup1\n        /* \"#utility.yul\":670:682   */\n      revert\n        /* \"#utility.yul\":621:684   */\n    tag_118:\n        /* \"#utility.yul\":568:690   */\n      pop\n      jump\t// out\n        /* \"#utility.yul\":696:835   */\n    tag_72:\n        /* \"#utility.yul\":742:747   */\n      0x00\n        /* \"#utility.yul\":780:786   */\n      dup2\n        /* \"#utility.yul\":767:787   */\n      calldataload\n        /* \"#utility.yul\":758:787   */\n      swap1\n      pop\n        /* \"#utility.yul\":796:829   */\n      tag_120\n        /* \"#utility.yul\":823:828   */\n      dup2\n        /* \"#utility.yul\":796:829   */\n      tag_71\n      jump\t// in\n    tag_120:\n        /* \"#utility.yul\":696:835   */\n      swap3\n      swap2\n      pop\n      pop\n      jump\t// out\n        /* \"#utility.yul\":841:931   */\n    tag_73:\n        /* \"#utility.yul\":876:883   */\n      0x00\n        /* \"#utility.yul\":919:924   */\n      dup2\n        /* \"#utility.yul\":916:917   */\n      0x02\n        /* \"#utility.yul\":905:925   */\n      signextend\n        /* \"#utility.yul\":894:925   */\n      swap1\n      pop\n        /* \"#utility.yul\":841:931   */\n      swap2\n      swap1\n      pop\n      jump\t// out\n        /* \"#utility.yul\":937:1055   */\n    tag_74:\n        /* \"#utility.yul\":1008:1030   */\n      tag_123\n        /* \"#utility.yul\":1024:1029   */\n      dup2\n        /* \"#utility.yul\":1008:1030   */\n      tag_73\n      jump\t// in\n    tag_123:\n        /* \"#utility.yul\":1001:1006   */\n      dup2\n        /* \"#utility.yul\":998:1031   */\n      eq\n        /* \"#utility.yul\":988:1049   */\n      tag_124\n      jumpi\n        /* \"#utility.yul\":1045:1046   */\n      0x00\n        /* \"#utility.yul\":1042:1043   */\n      dup1\n        /* \"#utility.yul\":1035:1047   */\n      revert\n        /* \"#utility.yul\":988:1049   */\n    tag_124:\n        /* \"#utility.yul\":937:1055   */\n      pop\n      jump\t// out\n        /* \"#utility.yul\":1061:1196   */\n    tag_75:\n        /* \"#utility.yul\":1105:1110   */\n      0x00\n        /* \"#utility.yul\":1143:1149   */\n      dup2\n        /* \"#utility.yul\":1130:1150   */\n      calldataload\n        /* \"#utility.yul\":1121:1150   */\n      swap1\n      pop\n        /* \"#utility.yul\":1159:1190   */\n      tag_126\n        /* \"#utility.yul\":1184:1189   */\n      dup2\n        /* \"#utility.yul\":1159:1190   */\n      tag_74\n      jump\t// in\n    tag_126:\n        /* \"#utility.yul\":1061:1196   */\n      swap3\n      swap2\n      pop\n      pop\n      jump\t// out\n        /* \"#utility.yul\":1202:1320   */\n    tag_76:\n        /* \"#utility.yul\":1239:1246   */\n      0x00\n        /* \"#utility.yul\":1279:1313   */\n      0xffffffffffffffffffffffffffffffff\n        /* \"#utility.yul\":1272:1277   */\n      dup3\n        /* \"#utility.yul\":1268:1314   */\n      and\n        /* \"#utility.yul\":1257:1314   */\n      swap1\n      pop\n        /* \"#utility.yul\":1202:1320   */\n      swap2\n      swap1\n      pop\n      jump\t// out\n        /* \"#utility.yul\":1326:1448   */\n    tag_77:\n        /* \"#utility.yul\":1399:1423   */\n      tag_129\n        /* \"#utility.yul\":1417:1422   */\n      dup2\n        /* \"#utility.yul\":1399:1423   */\n      tag_76\n      jump\t// in\n    tag_129:\n        /* \"#utility.yul\":1392:1397   */\n      dup2\n        /* \"#utility.yul\":1389:1424   */\n      eq\n        /* \"#utility.yul\":1379:1442   */\n      tag_130\n      jumpi\n        /* \"#utility.yul\":1438:1439   */\n      0x00\n        /* \"#utility.yul\":1435:1436   */\n      dup1\n        /* \"#utility.yul\":1428:1440   */\n      revert\n        /* \"#utility.yul\":1379:1442   */\n    tag_130:\n        /* \"#utility.yul\":1326:1448   */\n      pop\n      jump\t// out\n        /* \"#utility.yul\":1454:1593   */\n    tag_78:\n        /* \"#utility.yul\":1500:1505   */\n      0x00\n        /* \"#utility.yul\":1538:1544   */\n      dup2\n        /* \"#utility.yul\":1525:1545   */\n      calldataload\n        /* \"#utility.yul\":1516:1545   */\n      swap1\n      pop\n        /* \"#utility.yul\":1554:1587   */\n      tag_132\n        /* \"#utility.yul\":1581:1586   */\n      dup2\n        /* \"#utility.yul\":1554:1587   */\n      tag_77\n      jump\t// in\n    tag_132:\n        /* \"#utility.yul\":1454:1593   */\n      swap3\n      swap2\n      pop\n      pop\n      jump\t// out\n        /* \"#utility.yul\":1599:1716   */\n    tag_79:\n        /* \"#utility.yul\":1708:1709   */\n      0x00\n        /* \"#utility.yul\":1705:1706   */\n      dup1\n        /* \"#utility.yul\":1698:1710   */\n      revert\n        /* \"#utility.yul\":1722:1839   */\n    tag_80:\n        /* \"#utility.yul\":1831:1832   */\n      0x00\n        /* \"#utility.yul\":1828:1829   */\n      dup1\n        /* \"#utility.yul\":1821:1833   */\n      revert\n        /* \"#utility.yul\":1845:1962   */\n    tag_81:\n        /* \"#utility.yul\":1954:1955   */\n      0x00\n        /* \"#utility.yul\":1951:1952   */\n      dup1\n        /* \"#utility.yul\":1944:1956   */\n      revert\n        /* \"#utility.yul\":1981:2533   */\n    tag_82:\n        /* \"#utility.yul\":2038:2046   */\n      0x00\n        /* \"#utility.yul\":2048:2054   */\n      dup1\n        /* \"#utility.yul\":2098:2101   */\n      dup4\n        /* \"#utility.yul\":2091:2095   */\n      0x1f\n        /* \"#utility.yul\":2083:2089   */\n      dup5\n        /* \"#utility.yul\":2079:2096   */\n      add\n        /* \"#utility.yul\":2075:2102   */\n      slt\n        /* \"#utility.yul\":2065:2187   */\n      tag_137\n      jumpi\n        /* \"#utility.yul\":2106:2185   */\n      tag_138\n      tag_79\n      jump\t// in\n    tag_138:\n        /* \"#utility.yul\":2065:2187   */\n    tag_137:\n        /* \"#utility.yul\":2219:2225   */\n      dup3\n        /* \"#utility.yul\":2206:2226   */\n      calldataload\n        /* \"#utility.yul\":2196:2226   */\n      swap1\n      pop\n        /* \"#utility.yul\":2249:2267   */\n      0xffffffffffffffff\n        /* \"#utility.yul\":2241:2247   */\n      dup2\n        /* \"#utility.yul\":2238:2268   */\n      gt\n        /* \"#utility.yul\":2235:2352   */\n      iszero\n      tag_139\n      jumpi\n        /* \"#utility.yul\":2271:2350   */\n      tag_140\n      tag_80\n      jump\t// in\n    tag_140:\n        /* \"#utility.yul\":2235:2352   */\n    tag_139:\n        /* \"#utility.yul\":2385:2389   */\n      0x20\n        /* \"#utility.yul\":2377:2383   */\n      dup4\n        /* \"#utility.yul\":2373:2390   */\n      add\n        /* \"#utility.yul\":2361:2390   */\n      swap2\n      pop\n        /* \"#utility.yul\":2439:2442   */\n      dup4\n        /* \"#utility.yul\":2431:2435   */\n      0x01\n        /* \"#utility.yul\":2423:2429   */\n      dup3\n        /* \"#utility.yul\":2419:2436   */\n      mul\n        /* \"#utility.yul\":2409:2417   */\n      dup4\n        /* \"#utility.yul\":2405:2437   */\n      add\n        /* \"#utility.yul\":2402:2443   */\n      gt\n        /* \"#utility.yul\":2399:2527   */\n      iszero\n      tag_141\n      jumpi\n        /* \"#utility.yul\":2446:2525   */\n      tag_142\n      tag_81\n      jump\t// in\n    tag_142:\n        /* \"#utility.yul\":2399:2527   */\n    tag_141:\n        /* \"#utility.yul\":1981:2533   */\n      swap3\n      pop\n      swap3\n      swap1\n      pop\n      jump\t// out\n        /* \"#utility.yul\":2539:3640   */\n    tag_9:\n        /* \"#utility.yul\":2641:2647   */\n      0x00\n        /* \"#utility.yul\":2649:2655   */\n      dup1\n        /* \"#utility.yul\":2657:2663   */\n      0x00\n        /* \"#utility.yul\":2665:2671   */\n      dup1\n        /* \"#utility.yul\":2673:2679   */\n      0x00\n        /* \"#utility.yul\":2681:2687   */\n      dup1\n        /* \"#utility.yul\":2730:2733   */\n      0xa0\n        /* \"#utility.yul\":2718:2727   */\n      dup8\n        /* \"#utility.yul\":2709:2716   */\n      dup10\n        /* \"#utility.yul\":2705:2728   */\n      sub\n        /* \"#utility.yul\":2701:2734   */\n      slt\n        /* \"#utility.yul\":2698:2818   */\n      iszero\n      tag_144\n      jumpi\n        /* \"#utility.yul\":2737:2816   */\n      tag_145\n      tag_67\n      jump\t// in\n    tag_145:\n        /* \"#utility.yul\":2698:2818   */\n    tag_144:\n        /* \"#utility.yul\":2857:2858   */\n      0x00\n        /* \"#utility.yul\":2882:2935   */\n      tag_146\n        /* \"#utility.yul\":2927:2934   */\n      dup10\n        /* \"#utility.yul\":2918:2924   */\n      dup3\n        /* \"#utility.yul\":2907:2916   */\n      dup11\n        /* \"#utility.yul\":2903:2925   */\n      add\n        /* \"#utility.yul\":2882:2935   */\n      tag_72\n      jump\t// in\n    tag_146:\n        /* \"#utility.yul\":2872:2935   */\n      swap7\n      pop\n        /* \"#utility.yul\":2828:2945   */\n      pop\n        /* \"#utility.yul\":2984:2986   */\n      0x20\n        /* \"#utility.yul\":3010:3061   */\n      tag_147\n        /* \"#utility.yul\":3053:3060   */\n      dup10\n        /* \"#utility.yul\":3044:3050   */\n      dup3\n        /* \"#utility.yul\":3033:3042   */\n      dup11\n        /* \"#utility.yul\":3029:3051   */\n      add\n        /* \"#utility.yul\":3010:3061   */\n      tag_75\n      jump\t// in\n    tag_147:\n        /* \"#utility.yul\":3000:3061   */\n      swap6\n      pop\n        /* \"#utility.yul\":2955:3071   */\n      pop\n        /* \"#utility.yul\":3110:3112   */\n      0x40\n        /* \"#utility.yul\":3136:3187   */\n      tag_148\n        /* \"#utility.yul\":3179:3186   */\n      dup10\n        /* \"#utility.yul\":3170:3176   */\n      dup3\n        /* \"#utility.yul\":3159:3168   */\n      dup11\n        /* \"#utility.yul\":3155:3177   */\n      add\n        /* \"#utility.yul\":3136:3187   */\n      tag_75\n      jump\t// in\n    tag_148:\n        /* \"#utility.yul\":3126:3187   */\n      swap5\n      pop\n        /* \"#utility.yul\":3081:3197   */\n      pop\n        /* \"#utility.yul\":3236:3238   */\n      0x60\n        /* \"#utility.yul\":3262:3315   */\n      tag_149\n        /* \"#utility.yul\":3307:3314   */\n      dup10\n        /* \"#utility.yul\":3298:3304   */\n      dup3\n        /* \"#utility.yul\":3287:3296   */\n      dup11\n        /* \"#utility.yul\":3283:3305   */\n      add\n        /* \"#utility.yul\":3262:3315   */\n      tag_78\n      jump\t// in\n    tag_149:\n        /* \"#utility.yul\":3252:3315   */\n      swap4\n      pop\n        /* \"#utility.yul\":3207:3325   */\n      pop\n        /* \"#utility.yul\":3392:3395   */\n      0x80\n        /* \"#utility.yul\":3381:3390   */\n      dup8\n        /* \"#utility.yul\":3377:3396   */\n      add\n        /* \"#utility.yul\":3364:3397   */\n      calldataload\n        /* \"#utility.yul\":3424:3442   */\n      0xffffffffffffffff\n        /* \"#utility.yul\":3416:3422   */\n      dup2\n        /* \"#utility.yul\":3413:3443   */\n      gt\n        /* \"#utility.yul\":3410:3527   */\n      iszero\n      tag_150\n      jumpi\n        /* \"#utility.yul\":3446:3525   */\n      tag_151\n      tag_68\n      jump\t// in\n    tag_151:\n        /* \"#utility.yul\":3410:3527   */\n    tag_150:\n        /* \"#utility.yul\":3559:3623   */\n      tag_152\n        /* \"#utility.yul\":3615:3622   */\n      dup10\n        /* \"#utility.yul\":3606:3612   */\n      dup3\n        /* \"#utility.yul\":3595:3604   */\n      dup11\n        /* \"#utility.yul\":3591:3613   */\n      add\n        /* \"#utility.yul\":3559:3623   */\n      tag_82\n      jump\t// in\n    tag_152:\n        /* \"#utility.yul\":3541:3623   */\n      swap3\n      pop\n      swap3\n      pop\n        /* \"#utility.yul\":3335:3633   */\n      pop\n        /* \"#utility.yul\":2539:3640   */\n      swap3\n      swap6\n      pop\n      swap3\n      swap6\n      pop\n      swap3\n      swap6\n      jump\t// out\n        /* \"#utility.yul\":3646:3723   */\n    tag_83:\n        /* \"#utility.yul\":3683:3690   */\n      0x00\n        /* \"#utility.yul\":3712:3717   */\n      dup2\n        /* \"#utility.yul\":3701:3717   */\n      swap1\n      pop\n        /* \"#utility.yul\":3646:3723   */\n      swap2\n      swap1\n      pop\n      jump\t// out\n        /* \"#utility.yul\":3729:3847   */\n    tag_84:\n        /* \"#utility.yul\":3816:3840   */\n      tag_155\n        /* \"#utility.yul\":3834:3839   */\n      dup2\n        /* \"#utility.yul\":3816:3840   */\n      tag_83\n      jump\t// in\n    tag_155:\n        /* \"#utility.yul\":3811:3814   */\n      dup3\n        /* \"#utility.yul\":3804:3841   */\n      mstore\n        /* \"#utility.yul\":3729:3847   */\n      pop\n      pop\n      jump\t// out\n        /* \"#utility.yul\":3853:4185   */\n    tag_12:\n        /* \"#utility.yul\":3974:3978   */\n      0x00\n        /* \"#utility.yul\":4012:4014   */\n      0x40\n        /* \"#utility.yul\":4001:4010   */\n      dup3\n        /* \"#utility.yul\":3997:4015   */\n      add\n        /* \"#utility.yul\":3989:4015   */\n      swap1\n      pop\n        /* \"#utility.yul\":4025:4096   */\n      tag_157\n        /* \"#utility.yul\":4093:4094   */\n      0x00\n        /* \"#utility.yul\":4082:4091   */\n      dup4\n        /* \"#utility.yul\":4078:4095   */\n      add\n        /* \"#utility.yul\":4069:4075   */\n      dup6\n        /* \"#utility.yul\":4025:4096   */\n      tag_84\n      jump\t// in\n    tag_157:\n        /* \"#utility.yul\":4106:4178   */\n      tag_158\n        /* \"#utility.yul\":4174:4176   */\n      0x20\n        /* \"#utility.yul\":4163:4172   */\n      dup4\n        /* \"#utility.yul\":4159:4177   */\n      add\n        /* \"#utility.yul\":4150:4156   */\n      dup5\n        /* \"#utility.yul\":4106:4178   */\n      tag_84\n      jump\t// in\n    tag_158:\n        /* \"#utility.yul\":3853:4185   */\n      swap4\n      swap3\n      pop\n      pop\n      pop\n      jump\t// out\n        /* \"#utility.yul\":4191:4313   */\n    tag_85:\n        /* \"#utility.yul\":4264:4288   */\n      tag_160\n        /* \"#utility.yul\":4282:4287   */\n      dup2\n        /* \"#utility.yul\":4264:4288   */\n      tag_83\n      jump\t// in\n    tag_160:\n        /* \"#utility.yul\":4257:4262   */\n      dup2\n        /* \"#utility.yul\":4254:4289   */\n      eq\n        /* \"#utility.yul\":4244:4307   */\n      tag_161\n      jumpi\n        /* \"#utility.yul\":4303:4304   */\n      0x00\n        /* \"#utility.yul\":4300:4301   */\n      dup1\n        /* \"#utility.yul\":4293:4305   */\n      revert\n        /* \"#utility.yul\":4244:4307   */\n    tag_161:\n        /* \"#utility.yul\":4191:4313   */\n      pop\n      jump\t// out\n        /* \"#utility.yul\":4319:4458   */\n    tag_86:\n        /* \"#utility.yul\":4365:4370   */\n      0x00\n        /* \"#utility.yul\":4403:4409   */\n      dup2\n        /* \"#utility.yul\":4390:4410   */\n      calldataload\n        /* \"#utility.yul\":4381:4410   */\n      swap1\n      pop\n        /* \"#utility.yul\":4419:4452   */\n      tag_163\n        /* \"#utility.yul\":4446:4451   */\n      dup2\n        /* \"#utility.yul\":4419:4452   */\n      tag_85\n      jump\t// in\n    tag_163:\n        /* \"#utility.yul\":4319:4458   */\n      swap3\n      swap2\n      pop\n      pop\n      jump\t// out\n        /* \"#utility.yul\":4464:5281   */\n    tag_15:\n        /* \"#utility.yul\":4552:4558   */\n      0x00\n        /* \"#utility.yul\":4560:4566   */\n      dup1\n        /* \"#utility.yul\":4568:4574   */\n      0x00\n        /* \"#utility.yul\":4576:4582   */\n      dup1\n        /* \"#utility.yul\":4625:4627   */\n      0x60\n        /* \"#utility.yul\":4613:4622   */\n      dup6\n        /* \"#utility.yul\":4604:4611   */\n      dup8\n        /* \"#utility.yul\":4600:4623   */\n      sub\n        /* \"#utility.yul\":4596:4628   */\n      slt\n        /* \"#utility.yul\":4593:4712   */\n      iszero\n      tag_165\n      jumpi\n        /* \"#utility.yul\":4631:4710   */\n      tag_166\n      tag_67\n      jump\t// in\n    tag_166:\n        /* \"#utility.yul\":4593:4712   */\n    tag_165:\n        /* \"#utility.yul\":4751:4752   */\n      0x00\n        /* \"#utility.yul\":4776:4829   */\n      tag_167\n        /* \"#utility.yul\":4821:4828   */\n      dup8\n        /* \"#utility.yul\":4812:4818   */\n      dup3\n        /* \"#utility.yul\":4801:4810   */\n      dup9\n        /* \"#utility.yul\":4797:4819   */\n      add\n        /* \"#utility.yul\":4776:4829   */\n      tag_86\n      jump\t// in\n    tag_167:\n        /* \"#utility.yul\":4766:4829   */\n      swap5\n      pop\n        /* \"#utility.yul\":4722:4839   */\n      pop\n        /* \"#utility.yul\":4878:4880   */\n      0x20\n        /* \"#utility.yul\":4904:4957   */\n      tag_168\n        /* \"#utility.yul\":4949:4956   */\n      dup8\n        /* \"#utility.yul\":4940:4946   */\n      dup3\n        /* \"#utility.yul\":4929:4938   */\n      dup9\n        /* \"#utility.yul\":4925:4947   */\n      add\n        /* \"#utility.yul\":4904:4957   */\n      tag_86\n      jump\t// in\n    tag_168:\n        /* \"#utility.yul\":4894:4957   */\n      swap4\n      pop\n        /* \"#utility.yul\":4849:4967   */\n      pop\n        /* \"#utility.yul\":5034:5036   */\n      0x40\n        /* \"#utility.yul\":5023:5032   */\n      dup6\n        /* \"#utility.yul\":5019:5037   */\n      add\n        /* \"#utility.yul\":5006:5038   */\n      calldataload\n        /* \"#utility.yul\":5065:5083   */\n      0xffffffffffffffff\n        /* \"#utility.yul\":5057:5063   */\n      dup2\n        /* \"#utility.yul\":5054:5084   */\n      gt\n        /* \"#utility.yul\":5051:5168   */\n      iszero\n      tag_169\n      jumpi\n        /* \"#utility.yul\":5087:5166   */\n      tag_170\n      tag_68\n      jump\t// in\n    tag_170:\n        /* \"#utility.yul\":5051:5168   */\n    tag_169:\n        /* \"#utility.yul\":5200:5264   */\n      tag_171\n        /* \"#utility.yul\":5256:5263   */\n      dup8\n        /* \"#utility.yul\":5247:5253   */\n      dup3\n        /* \"#utility.yul\":5236:5245   */\n      dup9\n        /* \"#utility.yul\":5232:5254   */\n      add\n        /* \"#utility.yul\":5200:5264   */\n      tag_82\n      jump\t// in\n    tag_171:\n        /* \"#utility.yul\":5182:5264   */\n      swap3\n      pop\n      swap3\n      pop\n        /* \"#utility.yul\":4977:5274   */\n      pop\n        /* \"#utility.yul\":4464:5281   */\n      swap3\n      swap6\n      swap2\n      swap5\n      pop\n      swap3\n      pop\n      jump\t// out\n        /* \"#utility.yul\":5287:5959   */\n    tag_19:\n        /* \"#utility.yul\":5366:5372   */\n      0x00\n        /* \"#utility.yul\":5374:5380   */\n      dup1\n        /* \"#utility.yul\":5382:5388   */\n      0x00\n        /* \"#utility.yul\":5431:5433   */\n      0x40\n        /* \"#utility.yul\":5419:5428   */\n      dup5\n        /* \"#utility.yul\":5410:5417   */\n      dup7\n        /* \"#utility.yul\":5406:5429   */\n      sub\n        /* \"#utility.yul\":5402:5434   */\n      slt\n        /* \"#utility.yul\":5399:5518   */\n      iszero\n      tag_173\n      jumpi\n        /* \"#utility.yul\":5437:5516   */\n      tag_174\n      tag_67\n      jump\t// in\n    tag_174:\n        /* \"#utility.yul\":5399:5518   */\n    tag_173:\n        /* \"#utility.yul\":5557:5558   */\n      0x00\n        /* \"#utility.yul\":5582:5635   */\n      tag_175\n        /* \"#utility.yul\":5627:5634   */\n      dup7\n        /* \"#utility.yul\":5618:5624   */\n      dup3\n        /* \"#utility.yul\":5607:5616   */\n      dup8\n        /* \"#utility.yul\":5603:5625   */\n      add\n        /* \"#utility.yul\":5582:5635   */\n      tag_72\n      jump\t// in\n    tag_175:\n        /* \"#utility.yul\":5572:5635   */\n      swap4\n      pop\n        /* \"#utility.yul\":5528:5645   */\n      pop\n        /* \"#utility.yul\":5712:5714   */\n      0x20\n        /* \"#utility.yul\":5701:5710   */\n      dup5\n        /* \"#utility.yul\":5697:5715   */\n      add\n        /* \"#utility.yul\":5684:5716   */\n      calldataload\n        /* \"#utility.yul\":5743:5761   */\n      0xffffffffffffffff\n        /* \"#utility.yul\":5735:5741   */\n      dup2\n        /* \"#utility.yul\":5732:5762   */\n      gt\n        /* \"#utility.yul\":5729:5846   */\n      iszero\n      tag_176\n      jumpi\n        /* \"#utility.yul\":5765:5844   */\n      tag_177\n      tag_68\n      jump\t// in\n    tag_177:\n        /* \"#utility.yul\":5729:5846   */\n    tag_176:\n        /* \"#utility.yul\":5878:5942   */\n      tag_178\n        /* \"#utility.yul\":5934:5941   */\n      dup7\n        /* \"#utility.yul\":5925:5931   */\n      dup3\n        /* \"#utility.yul\":5914:5923   */\n      dup8\n        /* \"#utility.yul\":5910:5932   */\n      add\n        /* \"#utility.yul\":5878:5942   */\n      tag_82\n      jump\t// in\n    tag_178:\n        /* \"#utility.yul\":5860:5942   */\n      swap3\n      pop\n      swap3\n      pop\n        /* \"#utility.yul\":5655:5952   */\n      pop\n        /* \"#utility.yul\":5287:5959   */\n      swap3\n      pop\n      swap3\n      pop\n      swap3\n      jump\t// out\n        /* \"#utility.yul\":5965:6041   */\n    tag_87:\n        /* \"#utility.yul\":6001:6008   */\n      0x00\n        /* \"#utility.yul\":6030:6035   */\n      dup2\n        /* \"#utility.yul\":6019:6035   */\n      swap1\n      pop\n        /* \"#utility.yul\":5965:6041   */\n      swap2\n      swap1\n      pop\n      jump\t// out\n        /* \"#utility.yul\":6047:6162   */\n    tag_88:\n        /* \"#utility.yul\":6132:6155   */\n      tag_181\n        /* \"#utility.yul\":6149:6154   */\n      dup2\n        /* \"#utility.yul\":6132:6155   */\n      tag_87\n      jump\t// in\n    tag_181:\n        /* \"#utility.yul\":6127:6130   */\n      dup3\n        /* \"#utility.yul\":6120:6156   */\n      mstore\n        /* \"#utility.yul\":6047:6162   */\n      pop\n      pop\n      jump\t// out\n        /* \"#utility.yul\":6168:6492   */\n    tag_22:\n        /* \"#utility.yul\":6285:6289   */\n      0x00\n        /* \"#utility.yul\":6323:6325   */\n      0x40\n        /* \"#utility.yul\":6312:6321   */\n      dup3\n        /* \"#utility.yul\":6308:6326   */\n      add\n        /* \"#utility.yul\":6300:6326   */\n      swap1\n      pop\n        /* \"#utility.yul\":6336:6405   */\n      tag_183\n        /* \"#utility.yul\":6402:6403   */\n      0x00\n        /* \"#utility.yul\":6391:6400   */\n      dup4\n        /* \"#utility.yul\":6387:6404   */\n      add\n        /* \"#utility.yul\":6378:6384   */\n      dup6\n        /* \"#utility.yul\":6336:6405   */\n      tag_88\n      jump\t// in\n    tag_183:\n        /* \"#utility.yul\":6415:6485   */\n      tag_184\n        /* \"#utility.yul\":6481:6483   */\n      0x20\n        /* \"#utility.yul\":6470:6479   */\n      dup4\n        /* \"#utility.yul\":6466:6484   */\n      add\n        /* \"#utility.yul\":6457:6463   */\n      dup5\n        /* \"#utility.yul\":6415:6485   */\n      tag_88\n      jump\t// in\n    tag_184:\n        /* \"#utility.yul\":6168:6492   */\n      swap4\n      swap3\n      pop\n      pop\n      pop\n      jump\t// out\n        /* \"#utility.yul\":6498:6618   */\n    tag_89:\n        /* \"#utility.yul\":6570:6593   */\n      tag_186\n        /* \"#utility.yul\":6587:6592   */\n      dup2\n        /* \"#utility.yul\":6570:6593   */\n      tag_87\n      jump\t// in\n    tag_186:\n        /* \"#utility.yul\":6563:6568   */\n      dup2\n        /* \"#utility.yul\":6560:6594   */\n      eq\n        /* \"#utility.yul\":6550:6612   */\n      tag_187\n      jumpi\n        /* \"#utility.yul\":6608:6609   */\n      0x00\n        /* \"#utility.yul\":6605:6606   */\n      dup1\n        /* \"#utility.yul\":6598:6610   */\n      revert\n        /* \"#utility.yul\":6550:6612   */\n    tag_187:\n        /* \"#utility.yul\":6498:6618   */\n      pop\n      jump\t// out\n        /* \"#utility.yul\":6624:6761   */\n    tag_90:\n        /* \"#utility.yul\":6669:6674   */\n      0x00\n        /* \"#utility.yul\":6707:6713   */\n      dup2\n        /* \"#utility.yul\":6694:6714   */\n      calldataload\n        /* \"#utility.yul\":6685:6714   */\n      swap1\n      pop\n        /* \"#utility.yul\":6723:6755   */\n      tag_189\n        /* \"#utility.yul\":6749:6754   */\n      dup2\n        /* \"#utility.yul\":6723:6755   */\n      tag_89\n      jump\t// in\n    tag_189:\n        /* \"#utility.yul\":6624:6761   */\n      swap3\n      swap2\n      pop\n      pop\n      jump\t// out\n        /* \"#utility.yul\":6767:7580   */\n    tag_25:\n        /* \"#utility.yul\":6853:6859   */\n      0x00\n        /* \"#utility.yul\":6861:6867   */\n      dup1\n        /* \"#utility.yul\":6869:6875   */\n      0x00\n        /* \"#utility.yul\":6877:6883   */\n      dup1\n        /* \"#utility.yul\":6926:6928   */\n      0x60\n        /* \"#utility.yul\":6914:6923   */\n      dup6\n        /* \"#utility.yul\":6905:6912   */\n      dup8\n        /* \"#utility.yul\":6901:6924   */\n      sub\n        /* \"#utility.yul\":6897:6929   */\n      slt\n        /* \"#utility.yul\":6894:7013   */\n      iszero\n      tag_191\n      jumpi\n        /* \"#utility.yul\":6932:7011   */\n      tag_192\n      tag_67\n      jump\t// in\n    tag_192:\n        /* \"#utility.yul\":6894:7013   */\n    tag_191:\n        /* \"#utility.yul\":7052:7053   */\n      0x00\n        /* \"#utility.yul\":7077:7129   */\n      tag_193\n        /* \"#utility.yul\":7121:7128   */\n      dup8\n        /* \"#utility.yul\":7112:7118   */\n      dup3\n        /* \"#utility.yul\":7101:7110   */\n      dup9\n        /* \"#utility.yul\":7097:7119   */\n      add\n        /* \"#utility.yul\":7077:7129   */\n      tag_90\n      jump\t// in\n    tag_193:\n        /* \"#utility.yul\":7067:7129   */\n      swap5\n      pop\n        /* \"#utility.yul\":7023:7139   */\n      pop\n        /* \"#utility.yul\":7178:7180   */\n      0x20\n        /* \"#utility.yul\":7204:7256   */\n      tag_194\n        /* \"#utility.yul\":7248:7255   */\n      dup8\n        /* \"#utility.yul\":7239:7245   */\n      dup3\n        /* \"#utility.yul\":7228:7237   */\n      dup9\n        /* \"#utility.yul\":7224:7246   */\n      add\n        /* \"#utility.yul\":7204:7256   */\n      tag_90\n      jump\t// in\n    tag_194:\n        /* \"#utility.yul\":7194:7256   */\n      swap4\n      pop\n        /* \"#utility.yul\":7149:7266   */\n      pop\n        /* \"#utility.yul\":7333:7335   */\n      0x40\n        /* \"#utility.yul\":7322:7331   */\n      dup6\n        /* \"#utility.yul\":7318:7336   */\n      add\n        /* \"#utility.yul\":7305:7337   */\n      calldataload\n        /* \"#utility.yul\":7364:7382   */\n      0xffffffffffffffff\n        /* \"#utility.yul\":7356:7362   */\n      dup2\n        /* \"#utility.yul\":7353:7383   */\n      gt\n        /* \"#utility.yul\":7350:7467   */\n      iszero\n      tag_195\n      jumpi\n        /* \"#utility.yul\":7386:7465   */\n      tag_196\n      tag_68\n      jump\t// in\n    tag_196:\n        /* \"#utility.yul\":7350:7467   */\n    tag_195:\n        /* \"#utility.yul\":7499:7563   */\n      tag_197\n        /* \"#utility.yul\":7555:7562   */\n      dup8\n        /* \"#utility.yul\":7546:7552   */\n      dup3\n        /* \"#utility.yul\":7535:7544   */\n      dup9\n        /* \"#utility.yul\":7531:7553   */\n      add\n        /* \"#utility.yul\":7499:7563   */\n      tag_82\n      jump\t// in\n    tag_197:\n        /* \"#utility.yul\":7481:7563   */\n      swap3\n      pop\n      swap3\n      pop\n        /* \"#utility.yul\":7276:7573   */\n      pop\n        /* \"#utility.yul\":6767:7580   */\n      swap3\n      swap6\n      swap2\n      swap5\n      pop\n      swap3\n      pop\n      jump\t// out\n        /* \"#utility.yul\":7586:7704   */\n    tag_91:\n        /* \"#utility.yul\":7673:7697   */\n      tag_199\n        /* \"#utility.yul\":7691:7696   */\n      dup2\n        /* \"#utility.yul\":7673:7697   */\n      tag_70\n      jump\t// in\n    tag_199:\n        /* \"#utility.yul\":7668:7671   */\n      dup3\n        /* \"#utility.yul\":7661:7698   */\n      mstore\n        /* \"#utility.yul\":7586:7704   */\n      pop\n      pop\n      jump\t// out\n        /* \"#utility.yul\":7710:7822   */\n    tag_92:\n        /* \"#utility.yul\":7793:7815   */\n      tag_201\n        /* \"#utility.yul\":7809:7814   */\n      dup2\n        /* \"#utility.yul\":7793:7815   */\n      tag_73\n      jump\t// in\n    tag_201:\n        /* \"#utility.yul\":7788:7791   */\n      dup3\n        /* \"#utility.yul\":7781:7816   */\n      mstore\n        /* \"#utility.yul\":7710:7822   */\n      pop\n      pop\n      jump\t// out\n        /* \"#utility.yul\":7828:7946   */\n    tag_93:\n        /* \"#utility.yul\":7915:7939   */\n      tag_203\n        /* \"#utility.yul\":7933:7938   */\n      dup2\n        /* \"#utility.yul\":7915:7939   */\n      tag_76\n      jump\t// in\n    tag_203:\n        /* \"#utility.yul\":7910:7913   */\n      dup3\n        /* \"#utility.yul\":7903:7940   */\n      mstore\n        /* \"#utility.yul\":7828:7946   */\n      pop\n      pop\n      jump\t// out\n        /* \"#utility.yul\":7952:8120   */\n    tag_94:\n        /* \"#utility.yul\":8035:8046   */\n      0x00\n        /* \"#utility.yul\":8069:8075   */\n      dup3\n        /* \"#utility.yul\":8064:8067   */\n      dup3\n        /* \"#utility.yul\":8057:8076   */\n      mstore\n        /* \"#utility.yul\":8109:8113   */\n      0x20\n        /* \"#utility.yul\":8104:8107   */\n      dup3\n        /* \"#utility.yul\":8100:8114   */\n      add\n        /* \"#utility.yul\":8085:8114   */\n      swap1\n      pop\n        /* \"#utility.yul\":7952:8120   */\n      swap3\n      swap2\n      pop\n      pop\n      jump\t// out\n        /* \"#utility.yul\":8126:8274   */\n    tag_95:\n        /* \"#utility.yul\":8224:8230   */\n      dup3\n        /* \"#utility.yul\":8219:8222   */\n      dup2\n        /* \"#utility.yul\":8214:8217   */\n      dup4\n        /* \"#utility.yul\":8201:8231   */\n      calldatacopy\n        /* \"#utility.yul\":8265:8266   */\n      0x00\n        /* \"#utility.yul\":8256:8262   */\n      dup4\n        /* \"#utility.yul\":8251:8254   */\n      dup4\n        /* \"#utility.yul\":8247:8263   */\n      add\n        /* \"#utility.yul\":8240:8267   */\n      mstore\n        /* \"#utility.yul\":8126:8274   */\n      pop\n      pop\n      pop\n      jump\t// out\n        /* \"#utility.yul\":8280:8382   */\n    tag_96:\n        /* \"#utility.yul\":8321:8327   */\n      0x00\n        /* \"#utility.yul\":8372:8374   */\n      0x1f\n        /* \"#utility.yul\":8368:8375   */\n      not\n        /* \"#utility.yul\":8363:8365   */\n      0x1f\n        /* \"#utility.yul\":8356:8361   */\n      dup4\n        /* \"#utility.yul\":8352:8366   */\n      add\n        /* \"#utility.yul\":8348:8376   */\n      and\n        /* \"#utility.yul\":8338:8376   */\n      swap1\n      pop\n        /* \"#utility.yul\":8280:8382   */\n      swap2\n      swap1\n      pop\n      jump\t// out\n        /* \"#utility.yul\":8410:8724   */\n    tag_97:\n        /* \"#utility.yul\":8506:8509   */\n      0x00\n        /* \"#utility.yul\":8527:8597   */\n      tag_208\n        /* \"#utility.yul\":8590:8596   */\n      dup4\n        /* \"#utility.yul\":8585:8588   */\n      dup6\n        /* \"#utility.yul\":8527:8597   */\n      tag_94\n      jump\t// in\n    tag_208:\n        /* \"#utility.yul\":8520:8597   */\n      swap4\n      pop\n        /* \"#utility.yul\":8607:8663   */\n      tag_209\n        /* \"#utility.yul\":8656:8662   */\n      dup4\n        /* \"#utility.yul\":8651:8654   */\n      dup6\n        /* \"#utility.yul\":8644:8649   */\n      dup5\n        /* \"#utility.yul\":8607:8663   */\n      tag_95\n      jump\t// in\n    tag_209:\n        /* \"#utility.yul\":8688:8717   */\n      tag_210\n        /* \"#utility.yul\":8710:8716   */\n      dup4\n        /* \"#utility.yul\":8688:8717   */\n      tag_96\n      jump\t// in\n    tag_210:\n        /* \"#utility.yul\":8683:8686   */\n      dup5\n        /* \"#utility.yul\":8679:8718   */\n      add\n        /* \"#utility.yul\":8672:8718   */\n      swap1\n      pop\n        /* \"#utility.yul\":8410:8724   */\n      swap4\n      swap3\n      pop\n      pop\n      pop\n      jump\t// out\n        /* \"#utility.yul\":8730:9485   */\n    tag_29:\n        /* \"#utility.yul\":8955:8959   */\n      0x00\n        /* \"#utility.yul\":8993:8996   */\n      0xa0\n        /* \"#utility.yul\":8982:8991   */\n      dup3\n        /* \"#utility.yul\":8978:8997   */\n      add\n        /* \"#utility.yul\":8970:8997   */\n      swap1\n      pop\n        /* \"#utility.yul\":9007:9078   */\n      tag_212\n        /* \"#utility.yul\":9075:9076   */\n      0x00\n        /* \"#utility.yul\":9064:9073   */\n      dup4\n        /* \"#utility.yul\":9060:9077   */\n      add\n        /* \"#utility.yul\":9051:9057   */\n      dup10\n        /* \"#utility.yul\":9007:9078   */\n      tag_91\n      jump\t// in\n    tag_212:\n        /* \"#utility.yul\":9088:9156   */\n      tag_213\n        /* \"#utility.yul\":9152:9154   */\n      0x20\n        /* \"#utility.yul\":9141:9150   */\n      dup4\n        /* \"#utility.yul\":9137:9155   */\n      add\n        /* \"#utility.yul\":9128:9134   */\n      dup9\n        /* \"#utility.yul\":9088:9156   */\n      tag_92\n      jump\t// in\n    tag_213:\n        /* \"#utility.yul\":9166:9234   */\n      tag_214\n        /* \"#utility.yul\":9230:9232   */\n      0x40\n        /* \"#utility.yul\":9219:9228   */\n      dup4\n        /* \"#utility.yul\":9215:9233   */\n      add\n        /* \"#utility.yul\":9206:9212   */\n      dup8\n        /* \"#utility.yul\":9166:9234   */\n      tag_92\n      jump\t// in\n    tag_214:\n        /* \"#utility.yul\":9244:9316   */\n      tag_215\n        /* \"#utility.yul\":9312:9314   */\n      0x60\n        /* \"#utility.yul\":9301:9310   */\n      dup4\n        /* \"#utility.yul\":9297:9315   */\n      add\n        /* \"#utility.yul\":9288:9294   */\n      dup7\n        /* \"#utility.yul\":9244:9316   */\n      tag_93\n      jump\t// in\n    tag_215:\n        /* \"#utility.yul\":9364:9373   */\n      dup2\n        /* \"#utility.yul\":9358:9362   */\n      dup2\n        /* \"#utility.yul\":9354:9374   */\n      sub\n        /* \"#utility.yul\":9348:9351   */\n      0x80\n        /* \"#utility.yul\":9337:9346   */\n      dup4\n        /* \"#utility.yul\":9333:9352   */\n      add\n        /* \"#utility.yul\":9326:9375   */\n      mstore\n        /* \"#utility.yul\":9392:9478   */\n      tag_216\n        /* \"#utility.yul\":9473:9477   */\n      dup2\n        /* \"#utility.yul\":9464:9470   */\n      dup5\n        /* \"#utility.yul\":9456:9462   */\n      dup7\n        /* \"#utility.yul\":9392:9478   */\n      tag_97\n      jump\t// in\n    tag_216:\n        /* \"#utility.yul\":9384:9478   */\n      swap1\n      pop\n        /* \"#utility.yul\":8730:9485   */\n      swap8\n      swap7\n      pop\n      pop\n      pop\n      pop\n      pop\n      pop\n      pop\n      jump\t// out\n        /* \"#utility.yul\":9491:9634   */\n    tag_98:\n        /* \"#utility.yul\":9548:9553   */\n      0x00\n        /* \"#utility.yul\":9579:9585   */\n      dup2\n        /* \"#utility.yul\":9573:9586   */\n      mload\n        /* \"#utility.yul\":9564:9586   */\n      swap1\n      pop\n        /* \"#utility.yul\":9595:9628   */\n      tag_218\n        /* \"#utility.yul\":9622:9627   */\n      dup2\n        /* \"#utility.yul\":9595:9628   */\n      tag_85\n      jump\t// in\n    tag_218:\n        /* \"#utility.yul\":9491:9634   */\n      swap3\n      swap2\n      pop\n      pop\n      jump\t// out\n        /* \"#utility.yul\":9640:10147   */\n    tag_33:\n        /* \"#utility.yul\":9719:9725   */\n      0x00\n        /* \"#utility.yul\":9727:9733   */\n      dup1\n        /* \"#utility.yul\":9776:9778   */\n      0x40\n        /* \"#utility.yul\":9764:9773   */\n      dup4\n        /* \"#utility.yul\":9755:9762   */\n      dup6\n        /* \"#utility.yul\":9751:9774   */\n      sub\n        /* \"#utility.yul\":9747:9779   */\n      slt\n        /* \"#utility.yul\":9744:9863   */\n      iszero\n      tag_220\n      jumpi\n        /* \"#utility.yul\":9782:9861   */\n      tag_221\n      tag_67\n      jump\t// in\n    tag_221:\n        /* \"#utility.yul\":9744:9863   */\n    tag_220:\n        /* \"#utility.yul\":9902:9903   */\n      0x00\n        /* \"#utility.yul\":9927:9991   */\n      tag_222\n        /* \"#utility.yul\":9983:9990   */\n      dup6\n        /* \"#utility.yul\":9974:9980   */\n      dup3\n        /* \"#utility.yul\":9963:9972   */\n      dup7\n        /* \"#utility.yul\":9959:9981   */\n      add\n        /* \"#utility.yul\":9927:9991   */\n      tag_98\n      jump\t// in\n    tag_222:\n        /* \"#utility.yul\":9917:9991   */\n      swap3\n      pop\n        /* \"#utility.yul\":9873:10001   */\n      pop\n        /* \"#utility.yul\":10040:10042   */\n      0x20\n        /* \"#utility.yul\":10066:10130   */\n      tag_223\n        /* \"#utility.yul\":10122:10129   */\n      dup6\n        /* \"#utility.yul\":10113:10119   */\n      dup3\n        /* \"#utility.yul\":10102:10111   */\n      dup7\n        /* \"#utility.yul\":10098:10120   */\n      add\n        /* \"#utility.yul\":10066:10130   */\n      tag_98\n      jump\t// in\n    tag_223:\n        /* \"#utility.yul\":10056:10130   */\n      swap2\n      pop\n        /* \"#utility.yul\":10011:10140   */\n      pop\n        /* \"#utility.yul\":9640:10147   */\n      swap3\n      pop\n      swap3\n      swap1\n      pop\n      jump\t// out\n        /* \"#utility.yul\":10153:10270   */\n    tag_99:\n        /* \"#utility.yul\":10262:10263   */\n      0x00\n        /* \"#utility.yul\":10259:10260   */\n      dup1\n        /* \"#utility.yul\":10252:10264   */\n      revert\n        /* \"#utility.yul\":10276:10456   */\n    tag_100:\n        /* \"#utility.yul\":10324:10401   */\n      0x4e487b7100000000000000000000000000000000000000000000000000000000\n        /* \"#utility.yul\":10321:10322   */\n      0x00\n        /* \"#utility.yul\":10314:10402   */\n      mstore\n        /* \"#utility.yul\":10421:10425   */\n      0x41\n        /* \"#utility.yul\":10418:10419   */\n      0x04\n        /* \"#utility.yul\":10411:10426   */\n      mstore\n        /* \"#utility.yul\":10445:10449   */\n      0x24\n        /* \"#utility.yul\":10442:10443   */\n      0x00\n        /* \"#utility.yul\":10435:10450   */\n      revert\n        /* \"#utility.yul\":10462:10743   */\n    tag_101:\n        /* \"#utility.yul\":10545:10572   */\n      tag_227\n        /* \"#utility.yul\":10567:10571   */\n      dup3\n        /* \"#utility.yul\":10545:10572   */\n      tag_96\n      jump\t// in\n    tag_227:\n        /* \"#utility.yul\":10537:10543   */\n      dup2\n        /* \"#utility.yul\":10533:10573   */\n      add\n        /* \"#utility.yul\":10675:10681   */\n      dup2\n        /* \"#utility.yul\":10663:10673   */\n      dup2\n        /* \"#utility.yul\":10660:10682   */\n      lt\n        /* \"#utility.yul\":10639:10657   */\n      0xffffffffffffffff\n        /* \"#utility.yul\":10627:10637   */\n      dup3\n        /* \"#utility.yul\":10624:10658   */\n      gt\n        /* \"#utility.yul\":10621:10683   */\n      or\n        /* \"#utility.yul\":10618:10706   */\n      iszero\n      tag_228\n      jumpi\n        /* \"#utility.yul\":10686:10704   */\n      tag_229\n      tag_100\n      jump\t// in\n    tag_229:\n        /* \"#utility.yul\":10618:10706   */\n    tag_228:\n        /* \"#utility.yul\":10726:10736   */\n      dup1\n        /* \"#utility.yul\":10722:10724   */\n      0x40\n        /* \"#utility.yul\":10715:10737   */\n      mstore\n        /* \"#utility.yul\":10505:10743   */\n      pop\n        /* \"#utility.yul\":10462:10743   */\n      pop\n      pop\n      jump\t// out\n        /* \"#utility.yul\":10749:10878   */\n    tag_102:\n        /* \"#utility.yul\":10783:10789   */\n      0x00\n        /* \"#utility.yul\":10810:10830   */\n      tag_231\n      tag_66\n      jump\t// in\n    tag_231:\n        /* \"#utility.yul\":10800:10830   */\n      swap1\n      pop\n        /* \"#utility.yul\":10839:10872   */\n      tag_232\n        /* \"#utility.yul\":10867:10871   */\n      dup3\n        /* \"#utility.yul\":10859:10865   */\n      dup3\n        /* \"#utility.yul\":10839:10872   */\n      tag_101\n      jump\t// in\n    tag_232:\n        /* \"#utility.yul\":10749:10878   */\n      swap2\n      swap1\n      pop\n      jump\t// out\n        /* \"#utility.yul\":11048:11792   */\n    tag_104:\n        /* \"#utility.yul\":11126:11131   */\n      0x00\n        /* \"#utility.yul\":11170:11174   */\n      0x60\n        /* \"#utility.yul\":11158:11167   */\n      dup3\n        /* \"#utility.yul\":11153:11156   */\n      dup5\n        /* \"#utility.yul\":11149:11168   */\n      sub\n        /* \"#utility.yul\":11145:11175   */\n      slt\n        /* \"#utility.yul\":11142:11259   */\n      iszero\n      tag_235\n      jumpi\n        /* \"#utility.yul\":11178:11257   */\n      tag_236\n      tag_99\n      jump\t// in\n    tag_236:\n        /* \"#utility.yul\":11142:11259   */\n    tag_235:\n        /* \"#utility.yul\":11277:11298   */\n      tag_237\n        /* \"#utility.yul\":11293:11297   */\n      0x60\n        /* \"#utility.yul\":11277:11298   */\n      tag_102\n      jump\t// in\n    tag_237:\n        /* \"#utility.yul\":11268:11298   */\n      swap1\n      pop\n        /* \"#utility.yul\":11359:11360   */\n      0x00\n        /* \"#utility.yul\":11399:11448   */\n      tag_238\n        /* \"#utility.yul\":11444:11447   */\n      dup5\n        /* \"#utility.yul\":11435:11441   */\n      dup3\n        /* \"#utility.yul\":11424:11433   */\n      dup6\n        /* \"#utility.yul\":11420:11442   */\n      add\n        /* \"#utility.yul\":11399:11448   */\n      tag_72\n      jump\t// in\n    tag_238:\n        /* \"#utility.yul\":11392:11396   */\n      0x00\n        /* \"#utility.yul\":11385:11390   */\n      dup4\n        /* \"#utility.yul\":11381:11397   */\n      add\n        /* \"#utility.yul\":11374:11449   */\n      mstore\n        /* \"#utility.yul\":11308:11460   */\n      pop\n        /* \"#utility.yul\":11521:11523   */\n      0x20\n        /* \"#utility.yul\":11562:11611   */\n      tag_239\n        /* \"#utility.yul\":11607:11610   */\n      dup5\n        /* \"#utility.yul\":11598:11604   */\n      dup3\n        /* \"#utility.yul\":11587:11596   */\n      dup6\n        /* \"#utility.yul\":11583:11605   */\n      add\n        /* \"#utility.yul\":11562:11611   */\n      tag_72\n      jump\t// in\n    tag_239:\n        /* \"#utility.yul\":11555:11559   */\n      0x20\n        /* \"#utility.yul\":11548:11553   */\n      dup4\n        /* \"#utility.yul\":11544:11560   */\n      add\n        /* \"#utility.yul\":11537:11612   */\n      mstore\n        /* \"#utility.yul\":11470:11623   */\n      pop\n        /* \"#utility.yul\":11683:11685   */\n      0x40\n        /* \"#utility.yul\":11724:11773   */\n      tag_240\n        /* \"#utility.yul\":11769:11772   */\n      dup5\n        /* \"#utility.yul\":11760:11766   */\n      dup3\n        /* \"#utility.yul\":11749:11758   */\n      dup6\n        /* \"#utility.yul\":11745:11767   */\n      add\n        /* \"#utility.yul\":11724:11773   */\n      tag_72\n      jump\t// in\n    tag_240:\n        /* \"#utility.yul\":11717:11721   */\n      0x40\n        /* \"#utility.yul\":11710:11715   */\n      dup4\n        /* \"#utility.yul\":11706:11722   */\n      add\n        /* \"#utility.yul\":11699:11774   */\n      mstore\n        /* \"#utility.yul\":11633:11785   */\n      pop\n        /* \"#utility.yul\":11048:11792   */\n      swap3\n      swap2\n      pop\n      pop\n      jump\t// out\n        /* \"#utility.yul\":11798:12185   */\n    tag_36:\n        /* \"#utility.yul\":11886:11892   */\n      0x00\n        /* \"#utility.yul\":11935:11937   */\n      0x60\n        /* \"#utility.yul\":11923:11932   */\n      dup3\n        /* \"#utility.yul\":11914:11921   */\n      dup5\n        /* \"#utility.yul\":11910:11933   */\n      sub\n        /* \"#utility.yul\":11906:11938   */\n      slt\n        /* \"#utility.yul\":11903:12022   */\n      iszero\n      tag_242\n      jumpi\n        /* \"#utility.yul\":11941:12020   */\n      tag_243\n      tag_67\n      jump\t// in\n    tag_243:\n        /* \"#utility.yul\":11903:12022   */\n    tag_242:\n        /* \"#utility.yul\":12061:12062   */\n      0x00\n        /* \"#utility.yul\":12086:12168   */\n      tag_244\n        /* \"#utility.yul\":12160:12167   */\n      dup5\n        /* \"#utility.yul\":12151:12157   */\n      dup3\n        /* \"#utility.yul\":12140:12149   */\n      dup6\n        /* \"#utility.yul\":12136:12158   */\n      add\n        /* \"#utility.yul\":12086:12168   */\n      tag_104\n      jump\t// in\n    tag_244:\n        /* \"#utility.yul\":12076:12168   */\n      swap2\n      pop\n        /* \"#utility.yul\":12032:12178   */\n      pop\n        /* \"#utility.yul\":11798:12185   */\n      swap3\n      swap2\n      pop\n      pop\n      jump\t// out\n        /* \"#utility.yul\":12191:12633   */\n    tag_38:\n        /* \"#utility.yul\":12340:12344   */\n      0x00\n        /* \"#utility.yul\":12378:12380   */\n      0x60\n        /* \"#utility.yul\":12367:12376   */\n      dup3\n        /* \"#utility.yul\":12363:12381   */\n      add\n        /* \"#utility.yul\":12355:12381   */\n      swap1\n      pop\n        /* \"#utility.yul\":12391:12462   */\n      tag_246\n        /* \"#utility.yul\":12459:12460   */\n      0x00\n        /* \"#utility.yul\":12448:12457   */\n      dup4\n        /* \"#utility.yul\":12444:12461   */\n      add\n        /* \"#utility.yul\":12435:12441   */\n      dup7\n        /* \"#utility.yul\":12391:12462   */\n      tag_91\n      jump\t// in\n    tag_246:\n        /* \"#utility.yul\":12472:12544   */\n      tag_247\n        /* \"#utility.yul\":12540:12542   */\n      0x20\n        /* \"#utility.yul\":12529:12538   */\n      dup4\n        /* \"#utility.yul\":12525:12543   */\n      add\n        /* \"#utility.yul\":12516:12522   */\n      dup6\n        /* \"#utility.yul\":12472:12544   */\n      tag_91\n      jump\t// in\n    tag_247:\n        /* \"#utility.yul\":12554:12626   */\n      tag_248\n        /* \"#utility.yul\":12622:12624   */\n      0x40\n        /* \"#utility.yul\":12611:12620   */\n      dup4\n        /* \"#utility.yul\":12607:12625   */\n      add\n        /* \"#utility.yul\":12598:12604   */\n      dup5\n        /* \"#utility.yul\":12554:12626   */\n      tag_84\n      jump\t// in\n    tag_248:\n        /* \"#utility.yul\":12191:12633   */\n      swap5\n      swap4\n      pop\n      pop\n      pop\n      pop\n      jump\t// out\n        /* \"#utility.yul\":12639:12729   */\n    tag_105:\n        /* \"#utility.yul\":12673:12680   */\n      0x00\n        /* \"#utility.yul\":12716:12721   */\n      dup2\n        /* \"#utility.yul\":12709:12722   */\n      iszero\n        /* \"#utility.yul\":12702:12723   */\n      iszero\n        /* \"#utility.yul\":12691:12723   */\n      swap1\n      pop\n        /* \"#utility.yul\":12639:12729   */\n      swap2\n      swap1\n      pop\n      jump\t// out\n        /* \"#utility.yul\":12735:12851   */\n    tag_106:\n        /* \"#utility.yul\":12805:12826   */\n      tag_251\n        /* \"#utility.yul\":12820:12825   */\n      dup2\n        /* \"#utility.yul\":12805:12826   */\n      tag_105\n      jump\t// in\n    tag_251:\n        /* \"#utility.yul\":12798:12803   */\n      dup2\n        /* \"#utility.yul\":12795:12827   */\n      eq\n        /* \"#utility.yul\":12785:12845   */\n      tag_252\n      jumpi\n        /* \"#utility.yul\":12841:12842   */\n      0x00\n        /* \"#utility.yul\":12838:12839   */\n      dup1\n        /* \"#utility.yul\":12831:12843   */\n      revert\n        /* \"#utility.yul\":12785:12845   */\n    tag_252:\n        /* \"#utility.yul\":12735:12851   */\n      pop\n      jump\t// out\n        /* \"#utility.yul\":12857:12994   */\n    tag_107:\n        /* \"#utility.yul\":12911:12916   */\n      0x00\n        /* \"#utility.yul\":12942:12948   */\n      dup2\n        /* \"#utility.yul\":12936:12949   */\n      mload\n        /* \"#utility.yul\":12927:12949   */\n      swap1\n      pop\n        /* \"#utility.yul\":12958:12988   */\n      tag_254\n        /* \"#utility.yul\":12982:12987   */\n      dup2\n        /* \"#utility.yul\":12958:12988   */\n      tag_106\n      jump\t// in\n    tag_254:\n        /* \"#utility.yul\":12857:12994   */\n      swap3\n      swap2\n      pop\n      pop\n      jump\t// out\n        /* \"#utility.yul\":13000:13345   */\n    tag_42:\n        /* \"#utility.yul\":13067:13073   */\n      0x00\n        /* \"#utility.yul\":13116:13118   */\n      0x20\n        /* \"#utility.yul\":13104:13113   */\n      dup3\n        /* \"#utility.yul\":13095:13102   */\n      dup5\n        /* \"#utility.yul\":13091:13114   */\n      sub\n        /* \"#utility.yul\":13087:13119   */\n      slt\n        /* \"#utility.yul\":13084:13203   */\n      iszero\n      tag_256\n      jumpi\n        /* \"#utility.yul\":13122:13201   */\n      tag_257\n      tag_67\n      jump\t// in\n    tag_257:\n        /* \"#utility.yul\":13084:13203   */\n    tag_256:\n        /* \"#utility.yul\":13242:13243   */\n      0x00\n        /* \"#utility.yul\":13267:13328   */\n      tag_258\n        /* \"#utility.yul\":13320:13327   */\n      dup5\n        /* \"#utility.yul\":13311:13317   */\n      dup3\n        /* \"#utility.yul\":13300:13309   */\n      dup6\n        /* \"#utility.yul\":13296:13318   */\n      add\n        /* \"#utility.yul\":13267:13328   */\n      tag_107\n      jump\t// in\n    tag_258:\n        /* \"#utility.yul\":13257:13328   */\n      swap2\n      pop\n        /* \"#utility.yul\":13213:13338   */\n      pop\n        /* \"#utility.yul\":13000:13345   */\n      swap3\n      swap2\n      pop\n      pop\n      jump\t// out\n        /* \"#utility.yul\":13351:13790   */\n    tag_49:\n        /* \"#utility.yul\":13500:13504   */\n      0x00\n        /* \"#utility.yul\":13538:13540   */\n      0x40\n        /* \"#utility.yul\":13527:13536   */\n      dup3\n        /* \"#utility.yul\":13523:13541   */\n      add\n        /* \"#utility.yul\":13515:13541   */\n      swap1\n      pop\n        /* \"#utility.yul\":13551:13622   */\n      tag_260\n        /* \"#utility.yul\":13619:13620   */\n      0x00\n        /* \"#utility.yul\":13608:13617   */\n      dup4\n        /* \"#utility.yul\":13604:13621   */\n      add\n        /* \"#utility.yul\":13595:13601   */\n      dup7\n        /* \"#utility.yul\":13551:13622   */\n      tag_91\n      jump\t// in\n    tag_260:\n        /* \"#utility.yul\":13669:13678   */\n      dup2\n        /* \"#utility.yul\":13663:13667   */\n      dup2\n        /* \"#utility.yul\":13659:13679   */\n      sub\n        /* \"#utility.yul\":13654:13656   */\n      0x20\n        /* \"#utility.yul\":13643:13652   */\n      dup4\n        /* \"#utility.yul\":13639:13657   */\n      add\n        /* \"#utility.yul\":13632:13680   */\n      mstore\n        /* \"#utility.yul\":13697:13783   */\n      tag_261\n        /* \"#utility.yul\":13778:13782   */\n      dup2\n        /* \"#utility.yul\":13769:13775   */\n      dup5\n        /* \"#utility.yul\":13761:13767   */\n      dup7\n        /* \"#utility.yul\":13697:13783   */\n      tag_97\n      jump\t// in\n    tag_261:\n        /* \"#utility.yul\":13689:13783   */\n      swap1\n      pop\n        /* \"#utility.yul\":13351:13790   */\n      swap5\n      swap4\n      pop\n      pop\n      pop\n      pop\n      jump\t// out\n        /* \"#utility.yul\":13796:13937   */\n    tag_108:\n        /* \"#utility.yul\":13852:13857   */\n      0x00\n        /* \"#utility.yul\":13883:13889   */\n      dup2\n        /* \"#utility.yul\":13877:13890   */\n      mload\n        /* \"#utility.yul\":13868:13890   */\n      swap1\n      pop\n        /* \"#utility.yul\":13899:13931   */\n      tag_263\n        /* \"#utility.yul\":13925:13930   */\n      dup2\n        /* \"#utility.yul\":13899:13931   */\n      tag_89\n      jump\t// in\n    tag_263:\n        /* \"#utility.yul\":13796:13937   */\n      swap3\n      swap2\n      pop\n      pop\n      jump\t// out\n        /* \"#utility.yul\":13943:14446   */\n    tag_53:\n        /* \"#utility.yul\":14020:14026   */\n      0x00\n        /* \"#utility.yul\":14028:14034   */\n      dup1\n        /* \"#utility.yul\":14077:14079   */\n      0x40\n        /* \"#utility.yul\":14065:14074   */\n      dup4\n        /* \"#utility.yul\":14056:14063   */\n      dup6\n        /* \"#utility.yul\":14052:14075   */\n      sub\n        /* \"#utility.yul\":14048:14080   */\n      slt\n        /* \"#utility.yul\":14045:14164   */\n      iszero\n      tag_265\n      jumpi\n        /* \"#utility.yul\":14083:14162   */\n      tag_266\n      tag_67\n      jump\t// in\n    tag_266:\n        /* \"#utility.yul\":14045:14164   */\n    tag_265:\n        /* \"#utility.yul\":14203:14204   */\n      0x00\n        /* \"#utility.yul\":14228:14291   */\n      tag_267\n        /* \"#utility.yul\":14283:14290   */\n      dup6\n        /* \"#utility.yul\":14274:14280   */\n      dup3\n        /* \"#utility.yul\":14263:14272   */\n      dup7\n        /* \"#utility.yul\":14259:14281   */\n      add\n        /* \"#utility.yul\":14228:14291   */\n      tag_108\n      jump\t// in\n    tag_267:\n        /* \"#utility.yul\":14218:14291   */\n      swap3\n      pop\n        /* \"#utility.yul\":14174:14301   */\n      pop\n        /* \"#utility.yul\":14340:14342   */\n      0x20\n        /* \"#utility.yul\":14366:14429   */\n      tag_268\n        /* \"#utility.yul\":14421:14428   */\n      dup6\n        /* \"#utility.yul\":14412:14418   */\n      dup3\n        /* \"#utility.yul\":14401:14410   */\n      dup7\n        /* \"#utility.yul\":14397:14419   */\n      add\n        /* \"#utility.yul\":14366:14429   */\n      tag_108\n      jump\t// in\n    tag_268:\n        /* \"#utility.yul\":14356:14429   */\n      swap2\n      pop\n        /* \"#utility.yul\":14311:14439   */\n      pop\n        /* \"#utility.yul\":13943:14446   */\n      swap3\n      pop\n      swap3\n      swap1\n      pop\n      jump\t// out\n\n    auxdata: 0xa264697066735822122076e12bbb215c9c0c2bcd073366297e88b2c940cbfcd97bf2ac3a07c8adaacd3a64736f6c634300081a0033\n}\n",
				"bytecode": {
					"linkReferences": {},
					"object": "6080604052348015600f57600080fd5b50610c388061001f6000396000f3fe608060405234801561001057600080fd5b506004361061004c5760003560e01c80633c8a7d8d14610051578063d348799714610082578063e35473351461009e578063fa461e33146100cf575b600080fd5b61006b600480360381019061006691906105d4565b6100eb565b604051610079929190610687565b60405180910390f35b61009c600480360381019061009791906106dc565b610182565b005b6100b860048036038101906100b39190610750565b6102ae565b6040516100c69291906107c9565b60405180910390f35b6100e960048036038101906100e4919061081e565b61033c565b005b6000808773ffffffffffffffffffffffffffffffffffffffff16633c8a7d8d3389898989896040518763ffffffff1660e01b81526004016101319695949392919061091d565b60408051808303816000875af115801561014f573d6000803e3d6000fd5b505050506040513d601f19601f82011682018060405250810190610173919061098e565b91509150965096945050505050565b600082828101906101939190610ab2565b9050806000015173ffffffffffffffffffffffffffffffffffffffff166323b872dd826040015133886040518463ffffffff1660e01b81526004016101da93929190610adf565b6020604051808303816000875af11580156101f9573d6000803e3d6000fd5b505050506040513d601f19601f8201168201806040525081019061021d9190610b4e565b50806020015173ffffffffffffffffffffffffffffffffffffffff166323b872dd826040015133876040518463ffffffff1660e01b815260040161026393929190610adf565b6020604051808303816000875af1158015610282573d6000803e3d6000fd5b505050506040513d601f19601f820116820180604052508101906102a69190610b4e565b505050505050565b6000808473ffffffffffffffffffffffffffffffffffffffff1663e35473353386866040518463ffffffff1660e01b81526004016102ee93929190610b7b565b60408051808303816000875af115801561030c573d6000803e3d6000fd5b505050506040513d601f19601f820116820180604052508101906103309190610bc2565b91509150935093915050565b6000828281019061034d9190610ab2565b905060008513156103e257806000015173ffffffffffffffffffffffffffffffffffffffff166323b872dd826040015133886040518463ffffffff1660e01b815260040161039d93929190610adf565b6020604051808303816000875af11580156103bc573d6000803e3d6000fd5b505050506040513d601f19601f820116820180604052508101906103e09190610b4e565b505b600084131561047557806020015173ffffffffffffffffffffffffffffffffffffffff166323b872dd826040015133876040518463ffffffff1660e01b815260040161043093929190610adf565b6020604051808303816000875af115801561044f573d6000803e3d6000fd5b505050506040513d601f19601f820116820180604052508101906104739190610b4e565b505b5050505050565b6000604051905090565b600080fd5b600080fd5b600073ffffffffffffffffffffffffffffffffffffffff82169050919050565b60006104bb82610490565b9050919050565b6104cb816104b0565b81146104d657600080fd5b50565b6000813590506104e8816104c2565b92915050565b60008160020b9050919050565b610504816104ee565b811461050f57600080fd5b50565b600081359050610521816104fb565b92915050565b60006fffffffffffffffffffffffffffffffff82169050919050565b61054c81610527565b811461055757600080fd5b50565b60008135905061056981610543565b92915050565b600080fd5b600080fd5b600080fd5b60008083601f8401126105945761059361056f565b5b8235905067ffffffffffffffff8111156105b1576105b0610574565b5b6020830191508360018202830111156105cd576105cc610579565b5b9250929050565b60008060008060008060a087890312156105f1576105f0610486565b5b60006105ff89828a016104d9565b965050602061061089828a01610512565b955050604061062189828a01610512565b945050606061063289828a0161055a565b935050608087013567ffffffffffffffff8111156106535761065261048b565b5b61065f89828a0161057e565b92509250509295509295509295565b6000819050919050565b6106818161066e565b82525050565b600060408201905061069c6000830185610678565b6106a96020830184610678565b9392505050565b6106b98161066e565b81146106c457600080fd5b50565b6000813590506106d6816106b0565b92915050565b600080600080606085870312156106f6576106f5610486565b5b6000610704878288016106c7565b9450506020610715878288016106c7565b935050604085013567ffffffffffffffff8111156107365761073561048b565b5b6107428782880161057e565b925092505092959194509250565b60008060006040848603121561076957610768610486565b5b6000610777868287016104d9565b935050602084013567ffffffffffffffff8111156107985761079761048b565b5b6107a48682870161057e565b92509250509250925092565b6000819050919050565b6107c3816107b0565b82525050565b60006040820190506107de60008301856107ba565b6107eb60208301846107ba565b9392505050565b6107fb816107b0565b811461080657600080fd5b50565b600081359050610818816107f2565b92915050565b6000806000806060858703121561083857610837610486565b5b600061084687828801610809565b945050602061085787828801610809565b935050604085013567ffffffffffffffff8111156108785761087761048b565b5b6108848782880161057e565b925092505092959194509250565b61089b816104b0565b82525050565b6108aa816104ee565b82525050565b6108b981610527565b82525050565b600082825260208201905092915050565b82818337600083830152505050565b6000601f19601f8301169050919050565b60006108fc83856108bf565b93506109098385846108d0565b610912836108df565b840190509392505050565b600060a0820190506109326000830189610892565b61093f60208301886108a1565b61094c60408301876108a1565b61095960608301866108b0565b818103608083015261096c8184866108f0565b9050979650505050505050565b600081519050610988816106b0565b92915050565b600080604083850312156109a5576109a4610486565b5b60006109b385828601610979565b92505060206109c485828601610979565b9150509250929050565b600080fd5b7f4e487b7100000000000000000000000000000000000000000000000000000000600052604160045260246000fd5b610a0b826108df565b810181811067ffffffffffffffff82111715610a2a57610a296109d3565b5b80604052505050565b6000610a3d61047c565b9050610a498282610a02565b919050565b600060608284031215610a6457610a636109ce565b5b610a6e6060610a33565b90506000610a7e848285016104d9565b6000830152506020610a92848285016104d9565b6020830152506040610aa6848285016104d9565b60408301525092915050565b600060608284031215610ac857610ac7610486565b5b6000610ad684828501610a4e565b91505092915050565b6000606082019050610af46000830186610892565b610b016020830185610892565b610b0e6040830184610678565b949350505050565b60008115159050919050565b610b2b81610b16565b8114610b3657600080fd5b50565b600081519050610b4881610b22565b92915050565b600060208284031215610b6457610b63610486565b5b6000610b7284828501610b39565b91505092915050565b6000604082019050610b906000830186610892565b8181036020830152610ba38184866108f0565b9050949350505050565b600081519050610bbc816107f2565b92915050565b60008060408385031215610bd957610bd8610486565b5b6000610be785828601610bad565b9250506020610bf885828601610bad565b915050925092905056fea264697066735822122076e12bbb215c9c0c2bcd073366297e88b2c940cbfcd97bf2ac3a07c8adaacd3a64736f6c634300081a0033",
					"opcodes": "PUSH1 0x80 PUSH1 0x40 MSTORE CALLVALUE DUP1 ISZERO PUSH1 0xF JUMPI PUSH1 0x0 DUP1 REVERT JUMPDEST POP PUSH2 0xC38 DUP1 PUSH2 0x1F PUSH1 0x0 CODECOPY PUSH1 0x0 RETURN INVALID PUSH1 0x80 PUSH1 0x40 MSTORE CALLVALUE DUP1 ISZERO PUSH2 0x10 JUMPI PUSH1 0x0 DUP1 REVERT JUMPDEST POP PUSH1 0x4 CALLDATASIZE LT PUSH2 0x4C JUMPI PUSH1 0x0 CALLDATALOAD PUSH1 0xE0 SHR DUP1 PUSH4 0x3C8A7D8D EQ PUSH2 0x51 JUMPI DUP1 PUSH4 0xD3487997 EQ PUSH2 0x82 JUMPI DUP1 PUSH4 0xE3547335 EQ PUSH2 0x9E JUMPI DUP1 PUSH4 0xFA461E33 EQ PUSH2 0xCF JUMPI JUMPDEST PUSH1 0x0 DUP1 REVERT JUMPDEST PUSH2 0x6B PUSH1 0x4 DUP1 CALLDATASIZE SUB DUP2 ADD SWAP1 PUSH2 0x66 SWAP2 SWAP1 PUSH2 0x5D4 JUMP JUMPDEST PUSH2 0xEB JUMP JUMPDEST PUSH1 0x40 MLOAD PUSH2 0x79 SWAP3 SWAP2 SWAP1 PUSH2 0x687 JUMP JUMPDEST PUSH1 0x40 MLOAD DUP1 SWAP2 SUB SWAP1 RETURN JUMPDEST PUSH2 0x9C PUSH1 0x4 DUP1 CALLDATASIZE SUB DUP2 ADD SWAP1 PUSH2 0x97 SWAP2 SWAP1 PUSH2 0x6DC JUMP JUMPDEST PUSH2 0x182 JUMP JUMPDEST STOP JUMPDEST PUSH2 0xB8 PUSH1 0x4 DUP1 CALLDATASIZE SUB DUP2 ADD SWAP1 PUSH2 0xB3 SWAP2 SWAP1 PUSH2 0x750 JUMP JUMPDEST PUSH2 0x2AE JUMP JUMPDEST PUSH1 0x40 MLOAD PUSH2 0xC6 SWAP3 SWAP2 SWAP1 PUSH2 0x7C9 JUMP JUMPDEST PUSH1 0x40 MLOAD DUP1 SWAP2 SUB SWAP1 RETURN JUMPDEST PUSH2 0xE9 PUSH1 0x4 DUP1 CALLDATASIZE SUB DUP2 ADD SWAP1 PUSH2 0xE4 SWAP2 SWAP1 PUSH2 0x81E JUMP JUMPDEST PUSH2 0x33C JUMP JUMPDEST STOP JUMPDEST PUSH1 0x0 DUP1 DUP8 PUSH20 0xFFFFFFFFFFFFFFFFFFFFFFFFFFFFFFFFFFFFFFFF AND PUSH4 0x3C8A7D8D CALLER DUP10 DUP10 DUP10 DUP10 DUP10 PUSH1 0x40 MLOAD DUP8 PUSH4 0xFFFFFFFF AND PUSH1 0xE0 SHL DUP2 MSTORE PUSH1 0x4 ADD PUSH2 0x131 SWAP7 SWAP6 SWAP5 SWAP4 SWAP3 SWAP2 SWAP1 PUSH2 0x91D JUMP JUMPDEST PUSH1 0x40 DUP1 MLOAD DUP1 DUP4 SUB DUP2 PUSH1 0x0 DUP8 GAS CALL ISZERO DUP1 ISZERO PUSH2 0x14F JUMPI RETURNDATASIZE PUSH1 0x0 DUP1 RETURNDATACOPY RETURNDATASIZE PUSH1 0x0 REVERT JUMPDEST POP POP POP POP PUSH1 0x40 MLOAD RETURNDATASIZE PUSH1 0x1F NOT PUSH1 0x1F DUP3 ADD AND DUP3 ADD DUP1 PUSH1 0x40 MSTORE POP DUP2 ADD SWAP1 PUSH2 0x173 SWAP2 SWAP1 PUSH2 0x98E JUMP JUMPDEST SWAP2 POP SWAP2 POP SWAP7 POP SWAP7 SWAP5 POP POP POP POP POP JUMP JUMPDEST PUSH1 0x0 DUP3 DUP3 DUP2 ADD SWAP1 PUSH2 0x193 SWAP2 SWAP1 PUSH2 0xAB2 JUMP JUMPDEST SWAP1 POP DUP1 PUSH1 0x0 ADD MLOAD PUSH20 0xFFFFFFFFFFFFFFFFFFFFFFFFFFFFFFFFFFFFFFFF AND PUSH4 0x23B872DD DUP3 PUSH1 0x40 ADD MLOAD CALLER DUP9 PUSH1 0x40 MLOAD DUP5 PUSH4 0xFFFFFFFF AND PUSH1 0xE0 SHL DUP2 MSTORE PUSH1 0x4 ADD PUSH2 0x1DA SWAP4 SWAP3 SWAP2 SWAP1 PUSH2 0xADF JUMP JUMPDEST PUSH1 0x20 PUSH1 0x40 MLOAD DUP1 DUP4 SUB DUP2 PUSH1 0x0 DUP8 GAS CALL ISZERO DUP1 ISZERO PUSH2 0x1F9 JUMPI RETURNDATASIZE PUSH1 0x0 DUP1 RETURNDATACOPY RETURNDATASIZE PUSH1 0x0 REVERT JUMPDEST POP POP POP POP PUSH1 0x40 MLOAD RETURNDATASIZE PUSH1 0x1F NOT PUSH1 0x1F DUP3 ADD AND DUP3 ADD DUP1 PUSH1 0x40 MSTORE POP DUP2 ADD SWAP1 PUSH2 0x21D SWAP2 SWAP1 PUSH2 0xB4E JUMP JUMPDEST POP DUP1 PUSH1 0x20 ADD MLOAD PUSH20 0xFFFFFFFFFFFFFFFFFFFFFFFFFFFFFFFFFFFFFFFF AND PUSH4 0x23B872DD DUP3 PUSH1 0x40 ADD MLOAD CALLER DUP8 PUSH1 0x40 MLOAD DUP5 PUSH4 0xFFFFFFFF AND PUSH1 0xE0 SHL DUP2 MSTORE PUSH1 0x4 ADD PUSH2 0x263 SWAP4 SWAP3 SWAP2 SWAP1 PUSH2 0xADF JUMP JUMPDEST PUSH1 0x20 PUSH1 0x40 MLOAD DUP1 DUP4 SUB DUP2 PUSH1 0x0 DUP8 GAS CALL ISZERO DUP1 ISZERO PUSH2 0x282 JUMPI RETURNDATASIZE PUSH1 0x0 DUP1 RETURNDATACOPY RETURNDATASIZE PUSH1 0x0 REVERT JUMPDEST POP POP POP POP PUSH1 0x40 MLOAD RETURNDATASIZE PUSH1 0x1F NOT PUSH1 0x1F DUP3 ADD AND DUP3 ADD DUP1 PUSH1 0x40 MSTORE POP DUP2 ADD SWAP1 PUSH2 0x2A6 SWAP2 SWAP1 PUSH2 0xB4E JUMP JUMPDEST POP POP POP POP POP POP JUMP JUMPDEST PUSH1 0x0 DUP1 DUP5 PUSH20 0xFFFFFFFFFFFFFFFFFFFFFFFFFFFFFFFFFFFFFFFF AND PUSH4 0xE3547335 CALLER DUP7 DUP7 PUSH1 0x40 MLOAD DUP5 PUSH4 0xFFFFFFFF AND PUSH1 0xE0 SHL DUP2 MSTORE PUSH1 0x4 ADD PUSH2 0x2EE SWAP4 SWAP3 SWAP2 SWAP1 PUSH2 0xB7B JUMP JUMPDEST PUSH1 0x40 DUP1 MLOAD DUP1 DUP4 SUB DUP2 PUSH1 0x0 DUP8 GAS CALL ISZERO DUP1 ISZERO PUSH2 0x30C JUMPI RETURNDATASIZE PUSH1 0x0 DUP1 RETURNDATACOPY RETURNDATASIZE PUSH1 0x0 REVERT JUMPDEST POP POP POP POP PUSH1 0x40 MLOAD RETURNDATASIZE PUSH1 0x1F NOT PUSH1 0x1F DUP3 ADD AND DUP3 ADD DUP1 PUSH1 0x40 MSTORE POP DUP2 ADD SWAP1 PUSH2 0x330 SWAP2 SWAP1 PUSH2 0xBC2 JUMP JUMPDEST SWAP2 POP SWAP2 POP SWAP4 POP SWAP4 SWAP2 POP POP JUMP JUMPDEST PUSH1 0x0 DUP3 DUP3 DUP2 ADD SWAP1 PUSH2 0x34D SWAP2 SWAP1 PUSH2 0xAB2 JUMP JUMPDEST SWAP1 POP PUSH1 0x0 DUP6 SGT ISZERO PUSH2 0x3E2 JUMPI DUP1 PUSH1 0x0 ADD MLOAD PUSH20 0xFFFFFFFFFFFFFFFFFFFFFFFFFFFFFFFFFFFFFFFF AND PUSH4 0x23B872DD DUP3 PUSH1 0x40 ADD MLOAD CALLER DUP9 PUSH1 0x40 MLOAD DUP5 PUSH4 0xFFFFFFFF AND PUSH1 0xE0 SHL DUP2 MSTORE PUSH1 0x4 ADD PUSH2 0x39D SWAP4 SWAP3 SWAP2 SWAP1 PUSH2 0xADF JUMP JUMPDEST PUSH1 0x20 PUSH1 0x40 MLOAD DUP1 DUP4 SUB DUP2 PUSH1 0x0 DUP8 GAS CALL ISZERO DUP1 ISZERO PUSH2 0x3BC JUMPI RETURNDATASIZE PUSH1 0x0 DUP1 RETURNDATACOPY RETURNDATASIZE PUSH1 0x0 REVERT JUMPDEST POP POP POP POP PUSH1 0x40 MLOAD RETURNDATASIZE PUSH1 0x1F NOT PUSH1 0x1F DUP3 ADD AND DUP3 ADD DUP1 PUSH1 0x40 MSTORE POP DUP2 ADD SWAP1 PUSH2 0x3E0 SWAP2 SWAP1 PUSH2 0xB4E JUMP JUMPDEST POP JUMPDEST PUSH1 0x0 DUP5 SGT ISZERO PUSH2 0x475 JUMPI DUP1 PUSH1 0x20 ADD MLOAD PUSH20 0xFFFFFFFFFFFFFFFFFFFFFFFFFFFFFFFFFFFFFFFF AND PUSH4 0x23B872DD DUP3 PUSH1 0x40 ADD MLOAD CALLER DUP8 PUSH1 0x40 MLOAD DUP5 PUSH4 0xFFFFFFFF AND PUSH1 0xE0 SHL DUP2 MSTORE PUSH1 0x4 ADD PUSH2 0x430 SWAP4 SWAP3 SWAP2 SWAP1 PUSH2 0xADF JUMP JUMPDEST PUSH1 0x20 PUSH1 0x40 MLOAD DUP1 DUP4 SUB DUP2 PUSH1 0x0 DUP8 GAS CALL ISZERO DUP1 ISZERO PUSH2 0x44F JUMPI RETURNDATASIZE PUSH1 0x0 DUP1 RETURNDATACOPY RETURNDATASIZE PUSH1 0x0 REVERT JUMPDEST POP POP POP POP PUSH1 0x40 MLOAD RETURNDATASIZE PUSH1 0x1F NOT PUSH1 0x1F DUP3 ADD AND DUP3 ADD DUP1 PUSH1 0x40 MSTORE POP DUP2 ADD SWAP1 PUSH2 0x473 SWAP2 SWAP1 PUSH2 0xB4E JUMP JUMPDEST POP JUMPDEST POP POP POP POP POP JUMP JUMPDEST PUSH1 0x0 PUSH1 0x40 MLOAD SWAP1 POP SWAP1 JUMP JUMPDEST PUSH1 0x0 DUP1 REVERT JUMPDEST PUSH1 0x0 DUP1 REVERT JUMPDEST PUSH1 0x0 PUSH20 0xFFFFFFFFFFFFFFFFFFFFFFFFFFFFFFFFFFFFFFFF DUP3 AND SWAP1 POP SWAP2 SWAP1 POP JUMP JUMPDEST PUSH1 0x0 PUSH2 0x4BB DUP3 PUSH2 0x490 JUMP JUMPDEST SWAP1 POP SWAP2 SWAP1 POP JUMP JUMPDEST PUSH2 0x4CB DUP2 PUSH2 0x4B0 JUMP JUMPDEST DUP2 EQ PUSH2 0x4D6 JUMPI PUSH1 0x0 DUP1 REVERT JUMPDEST POP JUMP JUMPDEST PUSH1 0x0 DUP2 CALLDATALOAD SWAP1 POP PUSH2 0x4E8 DUP2 PUSH2 0x4C2 JUMP JUMPDEST SWAP3 SWAP2 POP POP JUMP JUMPDEST PUSH1 0x0 DUP2 PUSH1 0x2 SIGNEXTEND SWAP1 POP SWAP2 SWAP1 POP JUMP JUMPDEST PUSH2 0x504 DUP2 PUSH2 0x4EE JUMP JUMPDEST DUP2 EQ PUSH2 0x50F JUMPI PUSH1 0x0 DUP1 REVERT JUMPDEST POP JUMP JUMPDEST PUSH1 0x0 DUP2 CALLDATALOAD SWAP1 POP PUSH2 0x521 DUP2 PUSH2 0x4FB JUMP JUMPDEST SWAP3 SWAP2 POP POP JUMP JUMPDEST PUSH1 0x0 PUSH16 0xFFFFFFFFFFFFFFFFFFFFFFFFFFFFFFFF DUP3 AND SWAP1 POP SWAP2 SWAP1 POP JUMP JUMPDEST PUSH2 0x54C DUP2 PUSH2 0x527 JUMP JUMPDEST DUP2 EQ PUSH2 0x557 JUMPI PUSH1 0x0 DUP1 REVERT JUMPDEST POP JUMP JUMPDEST PUSH1 0x0 DUP2 CALLDATALOAD SWAP1 POP PUSH2 0x569 DUP2 PUSH2 0x543 JUMP JUMPDEST SWAP3 SWAP2 POP POP JUMP JUMPDEST PUSH1 0x0 DUP1 REVERT JUMPDEST PUSH1 0x0 DUP1 REVERT JUMPDEST PUSH1 0x0 DUP1 REVERT JUMPDEST PUSH1 0x0 DUP1 DUP4 PUSH1 0x1F DUP5 ADD SLT PUSH2 0x594 JUMPI PUSH2 0x593 PUSH2 0x56F JUMP JUMPDEST JUMPDEST DUP3 CALLDATALOAD SWAP1 POP PUSH8 0xFFFFFFFFFFFFFFFF DUP2 GT ISZERO PUSH2 0x5B1 JUMPI PUSH2 0x5B0 PUSH2 0x574 JUMP JUMPDEST JUMPDEST PUSH1 0x20 DUP4 ADD SWAP2 POP DUP4 PUSH1 0x1 DUP3 MUL DUP4 ADD GT ISZERO PUSH2 0x5CD JUMPI PUSH2 0x5CC PUSH2 0x579 JUMP JUMPDEST JUMPDEST SWAP3 POP SWAP3 SWAP1 POP JUMP JUMPDEST PUSH1 0x0 DUP1 PUSH1 0x0 DUP1 PUSH1 0x0 DUP1 PUSH1 0xA0 DUP8 DUP10 SUB SLT ISZERO PUSH2 0x5F1 JUMPI PUSH2 0x5F0 PUSH2 0x486 JUMP JUMPDEST JUMPDEST PUSH1 0x0 PUSH2 0x5FF DUP10 DUP3 DUP11 ADD PUSH2 0x4D9 JUMP JUMPDEST SWAP7 POP POP PUSH1 0x20 PUSH2 0x610 DUP10 DUP3 DUP11 ADD PUSH2 0x512 JUMP JUMPDEST SWAP6 POP POP PUSH1 0x40 PUSH2 0x621 DUP10 DUP3 DUP11 ADD PUSH2 0x512 JUMP JUMPDEST SWAP5 POP POP PUSH1 0x60 PUSH2 0x632 DUP10 DUP3 DUP11 ADD PUSH2 0x55A JUMP JUMPDEST SWAP4 POP POP PUSH1 0x80 DUP8 ADD CALLDATALOAD PUSH8 0xFFFFFFFFFFFFFFFF DUP2 GT ISZERO PUSH2 0x653 JUMPI PUSH2 0x652 PUSH2 0x48B JUMP JUMPDEST JUMPDEST PUSH2 0x65F DUP10 DUP3 DUP11 ADD PUSH2 0x57E JUMP JUMPDEST SWAP3 POP SWAP3 POP POP SWAP3 SWAP6 POP SWAP3 SWAP6 POP SWAP3 SWAP6 JUMP JUMPDEST PUSH1 0x0 DUP2 SWAP1 POP SWAP2 SWAP1 POP JUMP JUMPDEST PUSH2 0x681 DUP2 PUSH2 0x66E JUMP JUMPDEST DUP3 MSTORE POP POP JUMP JUMPDEST PUSH1 0x0 PUSH1 0x40 DUP3 ADD SWAP1 POP PUSH2 0x69C PUSH1 0x0 DUP4 ADD DUP6 PUSH2 0x678 JUMP JUMPDEST PUSH2 0x6A9 PUSH1 0x20 DUP4 ADD DUP5 PUSH2 0x678 JUMP JUMPDEST SWAP4 SWAP3 POP POP POP JUMP JUMPDEST PUSH2 0x6B9 DUP2 PUSH2 0x66E JUMP JUMPDEST DUP2 EQ PUSH2 0x6C4 JUMPI PUSH1 0x0 DUP1 REVERT JUMPDEST POP JUMP JUMPDEST PUSH1 0x0 DUP2 CALLDATALOAD SWAP1 POP PUSH2 0x6D6 DUP2 PUSH2 0x6B0 JUMP JUMPDEST SWAP3 SWAP2 POP POP JUMP JUMPDEST PUSH1 0x0 DUP1 PUSH1 0x0 DUP1 PUSH1 0x60 DUP6 DUP8 SUB SLT ISZERO PUSH2 0x6F6 JUMPI PUSH2 0x6F5 PUSH2 0x486 JUMP JUMPDEST JUMPDEST PUSH1 0x0 PUSH2 0x704 DUP8 DUP3 DUP9 ADD PUSH2 0x6C7 JUMP JUMPDEST SWAP5 POP POP PUSH1 0x20 PUSH2 0x715 DUP8 DUP3 DUP9 ADD PUSH2 0x6C7 JUMP JUMPDEST SWAP4 POP POP PUSH1 0x40 DUP6 ADD CALLDATALOAD PUSH8 0xFFFFFFFFFFFFFFFF DUP2 GT ISZERO PUSH2 0x736 JUMPI PUSH2 0x735 PUSH2 0x48B JUMP JUMPDEST JUMPDEST PUSH2 0x742 DUP8 DUP3 DUP9 ADD PUSH2 0x57E JUMP JUMPDEST SWAP3 POP SWAP3 POP POP SWAP3 SWAP6 SWAP2 SWAP5 POP SWAP3 POP JUMP JUMPDEST PUSH1 0x0 DUP1 PUSH1 0x0 PUSH1 0x40 DUP5 DUP7 SUB SLT ISZERO PUSH2 0x769 JUMPI PUSH2 0x768 PUSH2 0x486 JUMP JUMPDEST JUMPDEST PUSH1 0x0 PUSH2 0x777 DUP7 DUP3 DUP8 ADD PUSH2 0x4D9 JUMP JUMPDEST SWAP4 POP POP PUSH1 0x20 DUP5 ADD CALLDATALOAD PUSH8 0xFFFFFFFFFFFFFFFF DUP2 GT ISZERO PUSH2 0x798 JUMPI PUSH2 0x797 PUSH2 0x48B JUMP JUMPDEST JUMPDEST PUSH2 0x7A4 DUP7 DUP3 DUP8 ADD PUSH2 0x57E JUMP JUMPDEST SWAP3 POP SWAP3 POP POP SWAP3 POP SWAP3 POP SWAP3 JUMP JUMPDEST PUSH1 0x0 DUP2 SWAP1 POP SWAP2 SWAP1 POP JUMP JUMPDEST PUSH2 0x7C3 DUP2 PUSH2 0x7B0 JUMP JUMPDEST DUP3 MSTORE POP POP JUMP JUMPDEST PUSH1 0x0 PUSH1 0x40 DUP3 ADD SWAP1 POP PUSH2 0x7DE PUSH1 0x0 DUP4 ADD DUP6 PUSH2 0x7BA JUMP JUMPDEST PUSH2 0x7EB PUSH1 0x20 DUP4 ADD DUP5 PUSH2 0x7BA JUMP JUMPDEST SWAP4 SWAP3 POP POP POP JUMP JUMPDEST PUSH2 0x7FB DUP2 PUSH2 0x7B0 JUMP JUMPDEST DUP2 EQ PUSH2 0x806 JUMPI PUSH1 0x0 DUP1 REVERT JUMPDEST POP JUMP JUMPDEST PUSH1 0x0 DUP2 CALLDATALOAD SWAP1 POP PUSH2 0x818 DUP2 PUSH2 0x7F2 JUMP JUMPDEST SWAP3 SWAP2 POP POP JUMP JUMPDEST PUSH1 0x0 DUP1 PUSH1 0x0 DUP1 PUSH1 0x60 DUP6 DUP8 SUB SLT ISZERO PUSH2 0x838 JUMPI PUSH2 0x837 PUSH2 0x486 JUMP JUMPDEST JUMPDEST PUSH1 0x0 PUSH2 0x846 DUP8 DUP3 DUP9 ADD PUSH2 0x809 JUMP JUMPDEST SWAP5 POP POP PUSH1 0x20 PUSH2 0x857 DUP8 DUP3 DUP9 ADD PUSH2 0x809 JUMP JUMPDEST SWAP4 POP POP PUSH1 0x40 DUP6 ADD CALLDATALOAD PUSH8 0xFFFFFFFFFFFFFFFF DUP2 GT ISZERO PUSH2 0x878 JUMPI PUSH2 0x877 PUSH2 0x48B JUMP JUMPDEST JUMPDEST PUSH2 0x884 DUP8 DUP3 DUP9 ADD PUSH2 0x57E JUMP JUMPDEST SWAP3 POP SWAP3 POP POP SWAP3 SWAP6 SWAP2 SWAP5 POP SWAP3 POP JUMP JUMPDEST PUSH2 0x89B DUP2 PUSH2 0x4B0 JUMP JUMPDEST DUP3 MSTORE POP POP JUMP JUMPDEST PUSH2 0x8AA DUP2 PUSH2 0x4EE JUMP JUMPDEST DUP3 MSTORE POP POP JUMP JUMPDEST PUSH2 0x8B9 DUP2 PUSH2 0x527 JUMP JUMPDEST DUP3 MSTORE POP POP JUMP JUMPDEST PUSH1 0x0 DUP3 DUP3 MSTORE PUSH1 0x20 DUP3 ADD SWAP1 POP SWAP3 SWAP2 POP POP JUMP JUMPDEST DUP3 DUP2 DUP4 CALLDATACOPY PUSH1 0x0 DUP4 DUP4 ADD MSTORE POP POP POP JUMP JUMPDEST PUSH1 0x0 PUSH1 0x1F NOT PUSH1 0x1F DUP4 ADD AND SWAP1 POP SWAP2 SWAP1 POP JUMP JUMPDEST PUSH1 0x0 PUSH2 0x8FC DUP4 DUP6 PUSH2 0x8BF JUMP JUMPDEST SWAP4 POP PUSH2 0x909 DUP4 DUP6 DUP5 PUSH2 0x8D0 JUMP JUMPDEST PUSH2 0x912 DUP4 PUSH2 0x8DF JUMP JUMPDEST DUP5 ADD SWAP1 POP SWAP4 SWAP3 POP POP POP JUMP JUMPDEST PUSH1 0x0 PUSH1 0xA0 DUP3 ADD SWAP1 POP PUSH2 0x932 PUSH1 0x0 DUP4 ADD DUP10 PUSH2 0x892 JUMP JUMPDEST PUSH2 0x93F PUSH1 0x20 DUP4 ADD DUP9 PUSH2 0x8A1 JUMP JUMPDEST PUSH2 0x94C PUSH1 0x40 DUP4 ADD DUP8 PUSH2 0x8A1 JUMP JUMPDEST PUSH2 0x959 PUSH1 0x60 DUP4 ADD DUP7 PUSH2 0x8B0 JUMP JUMPDEST DUP2 DUP2 SUB PUSH1 0x80 DUP4 ADD MSTORE PUSH2 0x96C DUP2 DUP5 DUP7 PUSH2 0x8F0 JUMP JUMPDEST SWAP1 POP SWAP8 SWAP7 POP POP POP POP POP POP POP JUMP JUMPDEST PUSH1 0x0 DUP2 MLOAD SWAP1 POP PUSH2 0x988 DUP2 PUSH2 0x6B0 JUMP JUMPDEST SWAP3 SWAP2 POP POP JUMP JUMPDEST PUSH1 0x0 DUP1 PUSH1 0x40 DUP4 DUP6 SUB SLT ISZERO PUSH2 0x9A5 JUMPI PUSH2 0x9A4 PUSH2 0x486 JUMP JUMPDEST JUMPDEST PUSH1 0x0 PUSH2 0x9B3 DUP6 DUP3 DUP7 ADD PUSH2 0x979 JUMP JUMPDEST SWAP3 POP POP PUSH1 0x20 PUSH2 0x9C4 DUP6 DUP3 DUP7 ADD PUSH2 0x979 JUMP JUMPDEST SWAP2 POP POP SWAP3 POP SWAP3 SWAP1 POP JUMP JUMPDEST PUSH1 0x0 DUP1 REVERT JUMPDEST PUSH32 0x4E487B7100000000000000000000000000000000000000000000000000000000 PUSH1 0x0 MSTORE PUSH1 0x41 PUSH1 0x4 MSTORE PUSH1 0x24 PUSH1 0x0 REVERT JUMPDEST PUSH2 0xA0B DUP3 PUSH2 0x8DF JUMP JUMPDEST DUP2 ADD DUP2 DUP2 LT PUSH8 0xFFFFFFFFFFFFFFFF DUP3 GT OR ISZERO PUSH2 0xA2A JUMPI PUSH2 0xA29 PUSH2 0x9D3 JUMP JUMPDEST JUMPDEST DUP1 PUSH1 0x40 MSTORE POP POP POP JUMP JUMPDEST PUSH1 0x0 PUSH2 0xA3D PUSH2 0x47C JUMP JUMPDEST SWAP1 POP PUSH2 0xA49 DUP3 DUP3 PUSH2 0xA02 JUMP JUMPDEST SWAP2 SWAP1 POP JUMP JUMPDEST PUSH1 0x0 PUSH1 0x60 DUP3 DUP5 SUB SLT ISZERO PUSH2 0xA64 JUMPI PUSH2 0xA63 PUSH2 0x9CE JUMP JUMPDEST JUMPDEST PUSH2 0xA6E PUSH1 0x60 PUSH2 0xA33 JUMP JUMPDEST SWAP1 POP PUSH1 0x0 PUSH2 0xA7E DUP5 DUP3 DUP6 ADD PUSH2 0x4D9 JUMP JUMPDEST PUSH1 0x0 DUP4 ADD MSTORE POP PUSH1 0x20 PUSH2 0xA92 DUP5 DUP3 DUP6 ADD PUSH2 0x4D9 JUMP JUMPDEST PUSH1 0x20 DUP4 ADD MSTORE POP PUSH1 0x40 PUSH2 0xAA6 DUP5 DUP3 DUP6 ADD PUSH2 0x4D9 JUMP JUMPDEST PUSH1 0x40 DUP4 ADD MSTORE POP SWAP3 SWAP2 POP POP JUMP JUMPDEST PUSH1 0x0 PUSH1 0x60 DUP3 DUP5 SUB SLT ISZERO PUSH2 0xAC8 JUMPI PUSH2 0xAC7 PUSH2 0x486 JUMP JUMPDEST JUMPDEST PUSH1 0x0 PUSH2 0xAD6 DUP5 DUP3 DUP6 ADD PUSH2 0xA4E JUMP JUMPDEST SWAP2 POP POP SWAP3 SWAP2 POP POP JUMP JUMPDEST PUSH1 0x0 PUSH1 0x60 DUP3 ADD SWAP1 POP PUSH2 0xAF4 PUSH1 0x0 DUP4 ADD DUP7 PUSH2 0x892 JUMP JUMPDEST PUSH2 0xB01 PUSH1 0x20 DUP4 ADD DUP6 PUSH2 0x892 JUMP JUMPDEST PUSH2 0xB0E PUSH1 0x40 DUP4 ADD DUP5 PUSH2 0x678 JUMP JUMPDEST SWAP5 SWAP4 POP POP POP POP JUMP JUMPDEST PUSH1 0x0 DUP2 ISZERO ISZERO SWAP1 POP SWAP2 SWAP1 POP JUMP JUMPDEST PUSH2 0xB2B DUP2 PUSH2 0xB16 JUMP JUMPDEST DUP2 EQ PUSH2 0xB36 JUMPI PUSH1 0x0 DUP1 REVERT JUMPDEST POP JUMP JUMPDEST PUSH1 0x0 DUP2 MLOAD SWAP1 POP PUSH2 0xB48 DUP2 PUSH2 0xB22 JUMP JUMPDEST SWAP3 SWAP2 POP POP JUMP JUMPDEST PUSH1 0x0 PUSH1 0x20 DUP3 DUP5 SUB SLT ISZERO PUSH2 0xB64 JUMPI PUSH2 0xB63 PUSH2 0x486 JUMP JUMPDEST JUMPDEST PUSH1 0x0 PUSH2 0xB72 DUP5 DUP3 DUP6 ADD PUSH2 0xB39 JUMP JUMPDEST SWAP2 POP POP SWAP3 SWAP2 POP POP JUMP JUMPDEST PUSH1 0x0 PUSH1 0x40 DUP3 ADD SWAP1 POP PUSH2 0xB90 PUSH1 0x0 DUP4 ADD DUP7 PUSH2 0x892 JUMP JUMPDEST DUP2 DUP2 SUB PUSH1 0x20 DUP4 ADD MSTORE PUSH2 0xBA3 DUP2 DUP5 DUP7 PUSH2 0x8F0 JUMP JUMPDEST SWAP1 POP SWAP5 SWAP4 POP POP POP POP JUMP JUMPDEST PUSH1 0x0 DUP2 MLOAD SWAP1 POP PUSH2 0xBBC DUP2 PUSH2 0x7F2 JUMP JUMPDEST SWAP3 SWAP2 POP POP JUMP JUMPDEST PUSH1 0x0 DUP1 PUSH1 0x40 DUP4 DUP6 SUB SLT ISZERO PUSH2 0xBD9 JUMPI PUSH2 0xBD8 PUSH2 0x486 JUMP JUMPDEST JUMPDEST PUSH1 0x0 PUSH2 0xBE7 DUP6 DUP3 DUP7 ADD PUSH2 0xBAD JUMP JUMPDEST SWAP3 POP POP PUSH1 0x20 PUSH2 0xBF8 DUP6 DUP3 DUP7 ADD PUSH2 0xBAD JUMP JUMPDEST SWAP2 POP POP SWAP3 POP SWAP3 SWAP1 POP JUMP INVALID LOG2 PUSH5 0x6970667358 0x22 SLT KECCAK256 PUSH23 0xE12BBB215C9C0C2BCD073366297E88B2C940CBFCD97BF2 0xAC GASPRICE SMOD 0xC8 0xAD 0xAA 0xCD GASPRICE PUSH5 0x736F6C6343 STOP ADDMOD BYTE STOP CALLER "
				},
				"gasEstimates": {
					"creation": {
						"codeDepositCost": "625600",
						"executionCost": "657",
						"totalCost": "626257"
					},
					"external": {
						"mint(address,int24,int24,uint128,bytes)": "infinite",
						"swap(address,bytes)": "infinite",
						"uniswapV3MintCallback(uint256,uint256,bytes)": "infinite",
						"uniswapV3SwapCallback(int256,int256,bytes)": "infinite"
					}
				},
				"methodIdentifiers": {
					"mint(address,int24,int24,uint128,bytes)": "3c8a7d8d",
					"swap(address,bytes)": "e3547335",
					"uniswapV3MintCallback(uint256,uint256,bytes)": "d3487997",
					"uniswapV3SwapCallback(int256,int256,bytes)": "fa461e33"
				}
			},
			"storageLayout": {
				"storage": [],
				"types": null
			},
			"userdoc": {
				"kind": "user",
				"methods": {},
				"version": 1
			}
		}
	}
}