{
	"tokena.sol": {
		"MyToken": {
			"abi": [
				{
					"inputs": [
						{
							"internalType": "string",
							"name": "_name",
							"type": "string"
						},
						{
							"internalType": "string",
							"name": "_symbol",
							"type": "string"
						},
						{
							"internalType": "uint8",
							"name": "_decimals",
							"type": "uint8"
						},
						{
							"internalType": "address",
							"name": "_owner",
							"type": "address"
						}
					],
					"stateMutability": "nonpayable",
					"type": "constructor"
				},
				{
					"inputs": [],
					"name": "AllowanceOverflow",
					"type": "error"
				},
				{
					"inputs": [],
					"name": "AllowanceUnderflow",
					"type": "error"
				},
				{
					"inputs": [],
					"name": "AlreadyInitialized",
					"type": "error"
				},
				{
					"inputs": [],
					"name": "InsufficientAllowance",
					"type": "error"
				},
				{
					"inputs": [],
					"name": "InsufficientBalance",
					"type": "error"
				},
				{
					"inputs": [],
					"name": "InvalidPermit",
					"type": "error"
				},
				{
					"inputs": [],
					"name": "NewOwnerIsZeroAddress",
					"type": "error"
				},
				{
					"inputs": [],
					"name": "NoHandoverRequest",
					"type": "error"
				},
				{
					"inputs": [],
					"name": "Permit2AllowanceIsFixedAtInfinity",
					"type": "error"
				},
				{
					"inputs": [],
					"name": "PermitExpired",
					"type": "error"
				},
				{
					"inputs": [],
					"name": "TotalSupplyOverflow",
					"type": "error"
				},
				{
					"inputs": [],
					"name": "Unauthorized",
					"type": "error"
				},
				{
					"anonymous": false,
					"inputs": [
						{
							"indexed": true,
							"internalType": "address",
							"name": "owner",
							"type": "address"
						},
						{
							"indexed": true,
							"internalType": "address",
							"name": "spender",
							"type": "address"
						},
						{
							"indexed": false,
							"internalType": "uint256",
							"name": "amount",
							"type": "uint256"
						}
					],
					"name": "Approval",
					"type": "event"
				},
				{
					"anonymous": false,
					"inputs": [
						{
							"indexed": true,
							"internalType": "address",
							"name": "pendingOwner",
							"type": "address"
						}
					],
					"name": "OwnershipHandoverCanceled",
					"type": "event"
				},
				{
					"anonymous": false,
					"inputs": [
						{
							"indexed": true,
							"internalType": "address",
							"name": "pendingOwner",
							"type": "address"
						}
					],
					"name": "OwnershipHandoverRequested",
					"type": "event"
				},
				{
					"anonymous": false,
					"inputs": [
						{
							"indexed": true,
							"internalType": "address",
							"name": "oldOwner",
							"type": "address"
						},
						{
							"indexed": true,
							"internalType": "address",
							"name": "newOwner",
							"type": "address"
						}
					],
					"name": "OwnershipTransferred",
					"type": "event"
				},
				{
					"anonymous": false,
					"inputs": [
						{
							"indexed": true,
							"internalType": "address",
							"name": "from",
							"type": "address"
						},
						{
							"indexed": true,
							"internalType": "address",
							"name": "to",
							"type": "address"
						},
						{
							"indexed": false,
							"internalType": "uint256",
							"name": "amount",
							"type": "uint256"
						}
					],
					"name": "Transfer",
					"type": "event"
				},
				{
					"inputs": [],
					"name": "DOMAIN_SEPARATOR",
					"outputs": [
						{
							"internalType": "bytes32",
							"name": "result",
							"type": "bytes32"
						}
					],
					"stateMutability": "view",
					"type": "function"
				},
				{
					"inputs": [
						{
							"internalType": "address",
							"name": "owner",
							"type": "address"
						},
						{
							"internalType": "address",
							"name": "spender",
							"type": "address"
						}
					],
					"name": "allowance",
					"outputs": [
						{
							"internalType": "uint256",
							"name": "result",
							"type": "uint256"
						}
					],
					"stateMutability": "view",
					"type": "function"
				},
				{
					"inputs": [
						{
							"internalType": "address",
							"name": "spender",
							"type": "address"
						},
						{
							"internalType": "uint256",
							"name": "amount",
							"type": "uint256"
						}
					],
					"name": "approve",
					"outputs": [
						{
							"internalType": "bool",
							"name": "",
							"type": "bool"
						}
					],
					"stateMutability": "nonpayable",
					"type": "function"
				},
				{
					"inputs": [
						{
							"internalType": "address",
							"name": "owner",
							"type": "address"
						}
					],
					"name": "balanceOf",
					"outputs": [
						{
							"internalType": "uint256",
							"name": "result",
							"type": "uint256"
						}
					],
					"stateMutability": "view",
					"type": "function"
				},
				{
					"inputs": [],
					"name": "cancelOwnershipHandover",
					"outputs": [],
					"stateMutability": "payable",
					"type": "function"
				},
				{
					"inputs": [
						{
							"internalType": "address",
							"name": "pendingOwner",
							"type": "address"
						}
					],
					"name": "completeOwnershipHandover",
					"outputs": [],
					"stateMutability": "payable",
					"type": "function"
				},
				{
					"inputs": [],
					"name": "decimals",
					"outputs": [
						{
							"internalType": "uint8",
							"name": "",
							"type": "uint8"
						}
					],
					"stateMutability": "view",
					"type": "function"
				},
				{
					"inputs": [
						{
							"internalType": "address",
							"name": "account",
							"type": "address"
						},
						{
							"internalType": "uint256",
							"name": "amount",
							"type": "uint256"
						}
					],
					"name": "mint",
					"outputs": [],
					"stateMutability": "nonpayable",
					"type": "function"
				},
				{
					"inputs": [],
					"name": "name",
					"outputs": [
						{
							"internalType": "string",
							"name": "",
							"type": "string"
						}
					],
					"stateMutability": "view",
					"type": "function"
				},
				{
					"inputs": [
						{
							"internalType": "address",
							"name": "owner",
							"type": "address"
						}
					],
					"name": "nonces",
					"outputs": [
						{
							"internalType": "uint256",
							"name": "result",
							"type": "uint256"
						}
					],
					"stateMutability": "view",
					"type": "function"
				},
				{
					"inputs": [],
					"name": "owner",
					"outputs": [
						{
							"internalType": "address",
							"name": "result",
							"type": "address"
						}
					],
					"stateMutability": "view",
					"type": "function"
				},
				{
					"inputs": [
						{
							"internalType": "address",
							"name": "pendingOwner",
							"type": "address"
						}
					],
					"name": "ownershipHandoverExpiresAt",
					"outputs": [
						{
							"internalType": "uint256",
							"name": "result",
							"type": "uint256"
						}
					],
					"stateMutability": "view",
					"type": "function"
				},
				{
					"inputs": [
						{
							"internalType": "address",
							"name": "owner",
							"type": "address"
						},
						{
							"internalType": "address",
							"name": "spender",
							"type": "address"
						},
						{
							"internalType": "uint256",
							"name": "value",
							"type": "uint256"
						},
						{
							"internalType": "uint256",
							"name": "deadline",
							"type": "uint256"
						},
						{
							"internalType": "uint8",
							"name": "v",
							"type": "uint8"
						},
						{
							"internalType": "bytes32",
							"name": "r",
							"type": "bytes32"
						},
						{
							"internalType": "bytes32",
							"name": "s",
							"type": "bytes32"
						}
					],
					"name": "permit",
					"outputs": [],
					"stateMutability": "nonpayable",
					"type": "function"
				},
				{
					"inputs": [],
					"name": "renounceOwnership",
					"outputs": [],
					"stateMutability": "payable",
					"type": "function"
				},
				{
					"inputs": [],
					"name": "requestOwnershipHandover",
					"outputs": [],
					"stateMutability": "payable",
					"type": "function"
				},
				{
					"inputs": [],
					"name": "symbol",
					"outputs": [
						{
							"internalType": "string",
							"name": "",
							"type": "string"
						}
					],
					"stateMutability": "view",
					"type": "function"
				},
				{
					"inputs": [],
					"name": "totalSupply",
					"outputs": [
						{
							"internalType": "uint256",
							"name": "result",
							"type": "uint256"
						}
					],
					"stateMutability": "view",
					"type": "function"
				},
				{
					"inputs": [
						{
							"internalType": "address",
							"name": "to",
							"type": "address"
						},
						{
							"internalType": "uint256",
							"name": "amount",
							"type": "uint256"
						}
					],
					"name": "transfer",
					"outputs": [
						{
							"internalType": "bool",
							"name": "",
							"type": "bool"
						}
					],
					"stateMutability": "nonpayable",
					"type": "function"
				},
				{
					"inputs": [
						{
							"internalType": "address",
							"name": "from",
							"type": "address"
						},
						{
							"internalType": "address",
							"name": "to",
							"type": "address"
						},
						{
							"internalType": "uint256",
							"name": "amount",
							"type": "uint256"
						}
					],
					"name": "transferFrom",
					"outputs": [
						{
							"internalType": "bool",
							"name": "",
							"type": "bool"
						}
					],
					"stateMutability": "nonpayable",
					"type": "function"
				},
				{
					"inputs": [
						{
							"internalType": "address",
							"name": "newOwner",
							"type": "address"
						}
					],
					"name": "transferOwnership",
					"outputs": [],
					"stateMutability": "payable",
					"type": "function"
				}
			],
			"devdoc": {
				"author": "Solady (https://github.com/Vectorized/solady/blob/main/src/tokens/ERC20.sol)",
				"errors": {
					"AllowanceOverflow()": [
						{
							"details": "The allowance has overflowed."
						}
					],
					"AllowanceUnderflow()": [
						{
							"details": "The allowance has underflowed."
						}
					],
					"AlreadyInitialized()": [
						{
							"details": "Cannot double-initialize."
						}
					],
					"InsufficientAllowance()": [
						{
							"details": "Insufficient allowance."
						}
					],
					"InsufficientBalance()": [
						{
							"details": "Insufficient balance."
						}
					],
					"InvalidPermit()": [
						{
							"details": "The permit is invalid."
						}
					],
					"NewOwnerIsZeroAddress()": [
						{
							"details": "The `newOwner` cannot be the zero address."
						}
					],
					"NoHandoverRequest()": [
						{
							"details": "The `pendingOwner` does not have a valid handover request."
						}
					],
					"Permit2AllowanceIsFixedAtInfinity()": [
						{
							"details": "The allowance of Permit2 is fixed at infinity."
						}
					],
					"PermitExpired()": [
						{
							"details": "The permit has expired."
						}
					],
					"TotalSupplyOverflow()": [
						{
							"details": "The total supply has overflowed."
						}
					],
					"Unauthorized()": [
						{
							"details": "The caller is not authorized to call the function."
						}
					]
				},
				"events": {
					"Approval(address,address,uint256)": {
						"details": "Emitted when `amount` tokens is approved by `owner` to be used by `spender`."
					},
					"OwnershipHandoverCanceled(address)": {
						"details": "The ownership handover to `pendingOwner` has been canceled."
					},
					"OwnershipHandoverRequested(address)": {
						"details": "An ownership handover to `pendingOwner` has been requested."
					},
					"OwnershipTransferred(address,address)": {
						"details": "The ownership is transferred from `oldOwner` to `newOwner`. This event is intentionally kept the same as OpenZeppelin's Ownable to be compatible with indexers and [EIP-173](https://eips.ethereum.org/EIPS/eip-173), despite it not being as lightweight as a single argument event."
					},
					"Transfer(address,address,uint256)": {
						"details": "Emitted when `amount` tokens is transferred from `from` to `to`."
					}
				},
				"kind": "dev",
				"methods": {
					"DOMAIN_SEPARATOR()": {
						"details": "Returns the EIP-712 domain separator for the EIP-2612 permit."
					},
					"allowance(address,address)": {
						"details": "Returns the amount of tokens that `spender` can spend on behalf of `owner`."
					},
					"approve(address,uint256)": {
						"details": "Sets `amount` as the allowance of `spender` over the caller's tokens. Emits a {Approval} event."
					},
					"balanceOf(address)": {
						"details": "Returns the amount of tokens owned by `owner`."
					},
					"cancelOwnershipHandover()": {
						"details": "Cancels the two-step ownership handover to the caller, if any."
					},
					"completeOwnershipHandover(address)": {
						"details": "Allows the owner to complete the two-step ownership handover to `pendingOwner`. Reverts if there is no existing ownership handover requested by `pendingOwner`."
					},
					"decimals()": {
						"details": "Returns the number of decimals used to get its user representation"
					},
					"name()": {
						"details": "Returns the name of the token"
					},
					"nonces(address)": {
						"details": "Returns the current nonce for `owner`. This value is used to compute the signature for EIP-2612 permit."
					},
					"owner()": {
						"details": "Returns the owner of the contract."
					},
					"ownershipHandoverExpiresAt(address)": {
						"details": "Returns the expiry timestamp for the two-step ownership handover to `pendingOwner`."
					},
					"permit(address,address,uint256,uint256,uint8,bytes32,bytes32)": {
						"details": "Sets `value` as the allowance of `spender` over the tokens of `owner`, authorized by a signed approval by `owner`. Emits a {Approval} event."
					},
					"renounceOwnership()": {
						"details": "Allows the owner to renounce their ownership."
					},
					"requestOwnershipHandover()": {
						"details": "Request a two-step ownership handover to the caller. The request will automatically expire in 48 hours (172800 seconds) by default."
					},
					"symbol()": {
						"details": "Returns the symbol of the token"
					},
					"totalSupply()": {
						"details": "Returns the amount of tokens in existence."
					},
					"transfer(address,uint256)": {
						"details": "Transfer `amount` tokens from the caller to `to`. Requirements: - `from` must at least have `amount`. Emits a {Transfer} event."
					},
					"transferFrom(address,address,uint256)": {
						"details": "Transfers `amount` tokens from `from` to `to`. Note: Does not update the allowance if it is the maximum uint256 value. Requirements: - `from` must at least have `amount`. - The caller must have at least `amount` of allowance to transfer the tokens of `from`. Emits a {Transfer} event."
					},
					"transferOwnership(address)": {
						"details": "Allows the owner to transfer the ownership to `newOwner`."
					}
				},
				"title": "ERC20MultiTransferOwnable",
				"version": 1
			},
			"evm": {
				"assembly": "    /* \"tokena.sol\":296:1420  contract MyToken is ERC20, Ownable {... */\n  mstore(0x40, 0xa0)\n    /* \"tokena.sol\":544:803  constructor(... */\n  callvalue\n  dup1\n  iszero\n  tag_1\n  jumpi\n  0x00\n  dup1\n  revert\ntag_1:\n  pop\n  mload(0x40)\n  sub(codesize, bytecodeSize)\n  dup1\n  bytecodeSize\n  dup4\n  codecopy\n  dup2\n  dup2\n  add\n  0x40\n  mstore\n  dup2\n  add\n  swap1\n  tag_2\n  swap2\n  swap1\n  tag_3\n  jump\t// in\ntag_2:\n    /* \"tokena.sol\":695:700  _name */\n  dup4\n    /* \"tokena.sol\":687:692  name_ */\n  0x00\n    /* \"tokena.sol\":687:700  name_ = _name */\n  swap1\n  dup2\n  tag_6\n  swap2\n  swap1\n  tag_7\n  jump\t// in\ntag_6:\n  pop\n    /* \"tokena.sol\":721:728  _symbol */\n  dup3\n    /* \"tokena.sol\":711:718  symbol_ */\n  0x01\n    /* \"tokena.sol\":711:728  symbol_ = _symbol */\n  swap1\n  dup2\n  tag_8\n  swap2\n  swap1\n  tag_7\n  jump\t// in\ntag_8:\n  pop\n    /* \"tokena.sol\":751:760  _decimals */\n  dup2\n    /* \"tokena.sol\":739:760  decimals_ = _decimals */\n  0xff\n  and\n  0x80\n  dup2\n  0xff\n  and\n  dup2\n  mstore\n  pop\n  pop\n    /* \"tokena.sol\":771:795  _initializeOwner(_owner) */\n  tag_9\n    /* \"tokena.sol\":788:794  _owner */\n  dup2\n    /* \"tokena.sol\":771:787  _initializeOwner */\n  shl(0x20, tag_10)\n    /* \"tokena.sol\":771:795  _initializeOwner(_owner) */\n  0x20\n  shr\n  jump\t// in\ntag_9:\n    /* \"tokena.sol\":544:803  constructor(... */\n  pop\n  pop\n  pop\n  pop\n    /* \"tokena.sol\":296:1420  contract MyToken is ERC20, Ownable {... */\n  jump(tag_11)\n    /* \"solady/src/auth/Ownable.sol\":4883:6073  function _initializeOwner(address newOwner) internal virtual {... */\ntag_10:\n    /* \"solady/src/auth/Ownable.sol\":4958:4981  _guardInitializeOwner() */\n  tag_13\n    /* \"solady/src/auth/Ownable.sol\":4958:4979  _guardInitializeOwner */\n  shl(0x20, tag_14)\n    /* \"solady/src/auth/Ownable.sol\":4958:4981  _guardInitializeOwner() */\n  0x20\n  shr\n  jump\t// in\ntag_13:\n    /* \"solady/src/auth/Ownable.sol\":4954:6067  if (_guardInitializeOwner()) {... */\n  iszero\n  tag_15\n  jumpi\n    /* \"solady/src/auth/Ownable.sol\":5088:5099  _OWNER_SLOT */\n  0xffffffffffffffffffffffffffffffffffffffffffffffffffffffff74873927\n    /* \"solady/src/auth/Ownable.sol\":5125:5134  ownerSlot */\n  dup1\n    /* \"solady/src/auth/Ownable.sol\":5119:5135  sload(ownerSlot) */\n  sload\n    /* \"solady/src/auth/Ownable.sol\":5116:5266  if sload(ownerSlot) {... */\n  iszero\n  tag_16\n  jumpi\n    /* \"solady/src/auth/Ownable.sol\":5171:5181  0x0dc149f0 */\n  0x0dc149f0\n    /* \"solady/src/auth/Ownable.sol\":5165:5169  0x00 */\n  0x00\n    /* \"solady/src/auth/Ownable.sol\":5158:5182  mstore(0x00, 0x0dc149f0) */\n  mstore\n    /* \"solady/src/auth/Ownable.sol\":5243:5247  0x04 */\n  0x04\n    /* \"solady/src/auth/Ownable.sol\":5237:5241  0x1c */\n  0x1c\n    /* \"solady/src/auth/Ownable.sol\":5230:5248  revert(0x1c, 0x04) */\n  revert\n    /* \"solady/src/auth/Ownable.sol\":5116:5266  if sload(ownerSlot) {... */\ntag_16:\n    /* \"solady/src/auth/Ownable.sol\":5355:5363  newOwner */\n  dup2\n    /* \"solady/src/auth/Ownable.sol\":5351:5353  96 */\n  0x60\n    /* \"solady/src/auth/Ownable.sol\":5347:5364  shl(96, newOwner) */\n  shl\n    /* \"solady/src/auth/Ownable.sol\":5343:5345  96 */\n  0x60\n    /* \"solady/src/auth/Ownable.sol\":5339:5365  shr(96, shl(96, newOwner)) */\n  shr\n    /* \"solady/src/auth/Ownable.sol\":5327:5365  newOwner := shr(96, shl(96, newOwner)) */\n  swap2\n  pop\n    /* \"solady/src/auth/Ownable.sol\":5469:5477  newOwner */\n  dup2\n    /* \"solady/src/auth/Ownable.sol\":5462:5478  iszero(newOwner) */\n  iszero\n    /* \"solady/src/auth/Ownable.sol\":5457:5460  255 */\n  0xff\n    /* \"solady/src/auth/Ownable.sol\":5453:5479  shl(255, iszero(newOwner)) */\n  shl\n    /* \"solady/src/auth/Ownable.sol\":5443:5451  newOwner */\n  dup3\n    /* \"solady/src/auth/Ownable.sol\":5440:5480  or(newOwner, shl(255, iszero(newOwner))) */\n  or\n    /* \"solady/src/auth/Ownable.sol\":5429:5438  ownerSlot */\n  dup2\n    /* \"solady/src/auth/Ownable.sol\":5422:5481  sstore(ownerSlot, or(newOwner, shl(255, iszero(newOwner)))) */\n  sstore\n    /* \"solady/src/auth/Ownable.sol\":5610:5618  newOwner */\n  dup2\n    /* \"solady/src/auth/Ownable.sol\":5607:5608  0 */\n  0x00\n    /* \"solady/src/auth/Ownable.sol\":5567:5605  _OWNERSHIP_TRANSFERRED_EVENT_SIGNATURE */\n  0x8be0079c531659141344cd1fd0a4f28419497f9722a3daafe3b4186f6b6457e0\n    /* \"solady/src/auth/Ownable.sol\":5564:5565  0 */\n  0x00\n    /* \"solady/src/auth/Ownable.sol\":5561:5562  0 */\n  dup1\n    /* \"solady/src/auth/Ownable.sol\":5556:5619  log3(0, 0, _OWNERSHIP_TRANSFERRED_EVENT_SIGNATURE, 0, newOwner) */\n  log3\n    /* \"solady/src/auth/Ownable.sol\":5053:5633  {... */\n  pop\n    /* \"solady/src/auth/Ownable.sol\":4954:6067  if (_guardInitializeOwner()) {... */\n  jump(tag_17)\ntag_15:\n    /* \"solady/src/auth/Ownable.sol\":5809:5817  newOwner */\n  dup1\n    /* \"solady/src/auth/Ownable.sol\":5805:5807  96 */\n  0x60\n    /* \"solady/src/auth/Ownable.sol\":5801:5818  shl(96, newOwner) */\n  shl\n    /* \"solady/src/auth/Ownable.sol\":5797:5799  96 */\n  0x60\n    /* \"solady/src/auth/Ownable.sol\":5793:5819  shr(96, shl(96, newOwner)) */\n  shr\n    /* \"solady/src/auth/Ownable.sol\":5781:5819  newOwner := shr(96, shl(96, newOwner)) */\n  swap1\n  pop\n    /* \"solady/src/auth/Ownable.sol\":5896:5904  newOwner */\n  dup1\n    /* \"solady/src/auth/Ownable.sol\":5883:5894  _OWNER_SLOT */\n  0xffffffffffffffffffffffffffffffffffffffffffffffffffffffff74873927\n    /* \"solady/src/auth/Ownable.sol\":5876:5905  sstore(_OWNER_SLOT, newOwner) */\n  sstore\n    /* \"solady/src/auth/Ownable.sol\":6034:6042  newOwner */\n  dup1\n    /* \"solady/src/auth/Ownable.sol\":6031:6032  0 */\n  0x00\n    /* \"solady/src/auth/Ownable.sol\":5991:6029  _OWNERSHIP_TRANSFERRED_EVENT_SIGNATURE */\n  0x8be0079c531659141344cd1fd0a4f28419497f9722a3daafe3b4186f6b6457e0\n    /* \"solady/src/auth/Ownable.sol\":5988:5989  0 */\n  0x00\n    /* \"solady/src/auth/Ownable.sol\":5985:5986  0 */\n  dup1\n    /* \"solady/src/auth/Ownable.sol\":5980:6043  log3(0, 0, _OWNERSHIP_TRANSFERRED_EVENT_SIGNATURE, 0, newOwner) */\n  log3\n    /* \"solady/src/auth/Ownable.sol\":4954:6067  if (_guardInitializeOwner()) {... */\ntag_17:\n    /* \"solady/src/auth/Ownable.sol\":4883:6073  function _initializeOwner(address newOwner) internal virtual {... */\n  pop\n  jump\t// out\n    /* \"solady/src/auth/Ownable.sol\":4348:4426  function _guardInitializeOwner() internal pure virtual returns (bool guard) {} */\ntag_14:\n    /* \"solady/src/auth/Ownable.sol\":4412:4422  bool guard */\n  0x00\n    /* \"solady/src/auth/Ownable.sol\":4348:4426  function _guardInitializeOwner() internal pure virtual returns (bool guard) {} */\n  swap1\n  jump\t// out\n    /* \"#utility.yul\":7:82   */\ntag_19:\n    /* \"#utility.yul\":40:46   */\n  0x00\n    /* \"#utility.yul\":73:75   */\n  0x40\n    /* \"#utility.yul\":67:76   */\n  mload\n    /* \"#utility.yul\":57:76   */\n  swap1\n  pop\n    /* \"#utility.yul\":7:82   */\n  swap1\n  jump\t// out\n    /* \"#utility.yul\":88:205   */\ntag_20:\n    /* \"#utility.yul\":197:198   */\n  0x00\n    /* \"#utility.yul\":194:195   */\n  dup1\n    /* \"#utility.yul\":187:199   */\n  revert\n    /* \"#utility.yul\":211:328   */\ntag_21:\n    /* \"#utility.yul\":320:321   */\n  0x00\n    /* \"#utility.yul\":317:318   */\n  dup1\n    /* \"#utility.yul\":310:322   */\n  revert\n    /* \"#utility.yul\":334:451   */\ntag_22:\n    /* \"#utility.yul\":443:444   */\n  0x00\n    /* \"#utility.yul\":440:441   */\n  dup1\n    /* \"#utility.yul\":433:445   */\n  revert\n    /* \"#utility.yul\":457:574   */\ntag_23:\n    /* \"#utility.yul\":566:567   */\n  0x00\n    /* \"#utility.yul\":563:564   */\n  dup1\n    /* \"#utility.yul\":556:568   */\n  revert\n    /* \"#utility.yul\":580:682   */\ntag_24:\n    /* \"#utility.yul\":621:627   */\n  0x00\n    /* \"#utility.yul\":672:674   */\n  0x1f\n    /* \"#utility.yul\":668:675   */\n  not\n    /* \"#utility.yul\":663:665   */\n  0x1f\n    /* \"#utility.yul\":656:661   */\n  dup4\n    /* \"#utility.yul\":652:666   */\n  add\n    /* \"#utility.yul\":648:676   */\n  and\n    /* \"#utility.yul\":638:676   */\n  swap1\n  pop\n    /* \"#utility.yul\":580:682   */\n  swap2\n  swap1\n  pop\n  jump\t// out\n    /* \"#utility.yul\":688:868   */\ntag_25:\n    /* \"#utility.yul\":736:813   */\n  0x4e487b7100000000000000000000000000000000000000000000000000000000\n    /* \"#utility.yul\":733:734   */\n  0x00\n    /* \"#utility.yul\":726:814   */\n  mstore\n    /* \"#utility.yul\":833:837   */\n  0x41\n    /* \"#utility.yul\":830:831   */\n  0x04\n    /* \"#utility.yul\":823:838   */\n  mstore\n    /* \"#utility.yul\":857:861   */\n  0x24\n    /* \"#utility.yul\":854:855   */\n  0x00\n    /* \"#utility.yul\":847:862   */\n  revert\n    /* \"#utility.yul\":874:1155   */\ntag_26:\n    /* \"#utility.yul\":957:984   */\n  tag_67\n    /* \"#utility.yul\":979:983   */\n  dup3\n    /* \"#utility.yul\":957:984   */\n  tag_24\n  jump\t// in\ntag_67:\n    /* \"#utility.yul\":949:955   */\n  dup2\n    /* \"#utility.yul\":945:985   */\n  add\n    /* \"#utility.yul\":1087:1093   */\n  dup2\n    /* \"#utility.yul\":1075:1085   */\n  dup2\n    /* \"#utility.yul\":1072:1094   */\n  lt\n    /* \"#utility.yul\":1051:1069   */\n  0xffffffffffffffff\n    /* \"#utility.yul\":1039:1049   */\n  dup3\n    /* \"#utility.yul\":1036:1070   */\n  gt\n    /* \"#utility.yul\":1033:1095   */\n  or\n    /* \"#utility.yul\":1030:1118   */\n  iszero\n  tag_68\n  jumpi\n    /* \"#utility.yul\":1098:1116   */\n  tag_69\n  tag_25\n  jump\t// in\ntag_69:\n    /* \"#utility.yul\":1030:1118   */\ntag_68:\n    /* \"#utility.yul\":1138:1148   */\n  dup1\n    /* \"#utility.yul\":1134:1136   */\n  0x40\n    /* \"#utility.yul\":1127:1149   */\n  mstore\n    /* \"#utility.yul\":917:1155   */\n  pop\n    /* \"#utility.yul\":874:1155   */\n  pop\n  pop\n  jump\t// out\n    /* \"#utility.yul\":1161:1290   */\ntag_27:\n    /* \"#utility.yul\":1195:1201   */\n  0x00\n    /* \"#utility.yul\":1222:1242   */\n  tag_71\n  tag_19\n  jump\t// in\ntag_71:\n    /* \"#utility.yul\":1212:1242   */\n  swap1\n  pop\n    /* \"#utility.yul\":1251:1284   */\n  tag_72\n    /* \"#utility.yul\":1279:1283   */\n  dup3\n    /* \"#utility.yul\":1271:1277   */\n  dup3\n    /* \"#utility.yul\":1251:1284   */\n  tag_26\n  jump\t// in\ntag_72:\n    /* \"#utility.yul\":1161:1290   */\n  swap2\n  swap1\n  pop\n  jump\t// out\n    /* \"#utility.yul\":1296:1604   */\ntag_28:\n    /* \"#utility.yul\":1358:1362   */\n  0x00\n    /* \"#utility.yul\":1448:1466   */\n  0xffffffffffffffff\n    /* \"#utility.yul\":1440:1446   */\n  dup3\n    /* \"#utility.yul\":1437:1467   */\n  gt\n    /* \"#utility.yul\":1434:1490   */\n  iszero\n  tag_74\n  jumpi\n    /* \"#utility.yul\":1470:1488   */\n  tag_75\n  tag_25\n  jump\t// in\ntag_75:\n    /* \"#utility.yul\":1434:1490   */\ntag_74:\n    /* \"#utility.yul\":1508:1537   */\n  tag_76\n    /* \"#utility.yul\":1530:1536   */\n  dup3\n    /* \"#utility.yul\":1508:1537   */\n  tag_24\n  jump\t// in\ntag_76:\n    /* \"#utility.yul\":1500:1537   */\n  swap1\n  pop\n    /* \"#utility.yul\":1592:1596   */\n  0x20\n    /* \"#utility.yul\":1586:1590   */\n  dup2\n    /* \"#utility.yul\":1582:1597   */\n  add\n    /* \"#utility.yul\":1574:1597   */\n  swap1\n  pop\n    /* \"#utility.yul\":1296:1604   */\n  swap2\n  swap1\n  pop\n  jump\t// out\n    /* \"#utility.yul\":1610:1858   */\ntag_29:\n    /* \"#utility.yul\":1692:1693   */\n  0x00\n    /* \"#utility.yul\":1702:1815   */\ntag_78:\n    /* \"#utility.yul\":1716:1722   */\n  dup4\n    /* \"#utility.yul\":1713:1714   */\n  dup2\n    /* \"#utility.yul\":1710:1723   */\n  lt\n    /* \"#utility.yul\":1702:1815   */\n  iszero\n  tag_80\n  jumpi\n    /* \"#utility.yul\":1801:1802   */\n  dup1\n    /* \"#utility.yul\":1796:1799   */\n  dup3\n    /* \"#utility.yul\":1792:1803   */\n  add\n    /* \"#utility.yul\":1786:1804   */\n  mload\n    /* \"#utility.yul\":1782:1783   */\n  dup2\n    /* \"#utility.yul\":1777:1780   */\n  dup5\n    /* \"#utility.yul\":1773:1784   */\n  add\n    /* \"#utility.yul\":1766:1805   */\n  mstore\n    /* \"#utility.yul\":1738:1740   */\n  0x20\n    /* \"#utility.yul\":1735:1736   */\n  dup2\n    /* \"#utility.yul\":1731:1741   */\n  add\n    /* \"#utility.yul\":1726:1741   */\n  swap1\n  pop\n    /* \"#utility.yul\":1702:1815   */\n  jump(tag_78)\ntag_80:\n    /* \"#utility.yul\":1849:1850   */\n  0x00\n    /* \"#utility.yul\":1840:1846   */\n  dup5\n    /* \"#utility.yul\":1835:1838   */\n  dup5\n    /* \"#utility.yul\":1831:1847   */\n  add\n    /* \"#utility.yul\":1824:1851   */\n  mstore\n    /* \"#utility.yul\":1672:1858   */\n  pop\n    /* \"#utility.yul\":1610:1858   */\n  pop\n  pop\n  pop\n  jump\t// out\n    /* \"#utility.yul\":1864:2298   */\ntag_30:\n    /* \"#utility.yul\":1953:1958   */\n  0x00\n    /* \"#utility.yul\":1978:2044   */\n  tag_82\n    /* \"#utility.yul\":1994:2043   */\n  tag_83\n    /* \"#utility.yul\":2036:2042   */\n  dup5\n    /* \"#utility.yul\":1994:2043   */\n  tag_28\n  jump\t// in\ntag_83:\n    /* \"#utility.yul\":1978:2044   */\n  tag_27\n  jump\t// in\ntag_82:\n    /* \"#utility.yul\":1969:2044   */\n  swap1\n  pop\n    /* \"#utility.yul\":2067:2073   */\n  dup3\n    /* \"#utility.yul\":2060:2065   */\n  dup2\n    /* \"#utility.yul\":2053:2074   */\n  mstore\n    /* \"#utility.yul\":2105:2109   */\n  0x20\n    /* \"#utility.yul\":2098:2103   */\n  dup2\n    /* \"#utility.yul\":2094:2110   */\n  add\n    /* \"#utility.yul\":2143:2146   */\n  dup5\n    /* \"#utility.yul\":2134:2140   */\n  dup5\n    /* \"#utility.yul\":2129:2132   */\n  dup5\n    /* \"#utility.yul\":2125:2141   */\n  add\n    /* \"#utility.yul\":2122:2147   */\n  gt\n    /* \"#utility.yul\":2119:2231   */\n  iszero\n  tag_84\n  jumpi\n    /* \"#utility.yul\":2150:2229   */\n  tag_85\n  tag_23\n  jump\t// in\ntag_85:\n    /* \"#utility.yul\":2119:2231   */\ntag_84:\n    /* \"#utility.yul\":2240:2292   */\n  tag_86\n    /* \"#utility.yul\":2285:2291   */\n  dup5\n    /* \"#utility.yul\":2280:2283   */\n  dup3\n    /* \"#utility.yul\":2275:2278   */\n  dup6\n    /* \"#utility.yul\":2240:2292   */\n  tag_29\n  jump\t// in\ntag_86:\n    /* \"#utility.yul\":1959:2298   */\n  pop\n    /* \"#utility.yul\":1864:2298   */\n  swap4\n  swap3\n  pop\n  pop\n  pop\n  jump\t// out\n    /* \"#utility.yul\":2318:2673   */\ntag_31:\n    /* \"#utility.yul\":2385:2390   */\n  0x00\n    /* \"#utility.yul\":2434:2437   */\n  dup3\n    /* \"#utility.yul\":2427:2431   */\n  0x1f\n    /* \"#utility.yul\":2419:2425   */\n  dup4\n    /* \"#utility.yul\":2415:2432   */\n  add\n    /* \"#utility.yul\":2411:2438   */\n  slt\n    /* \"#utility.yul\":2401:2523   */\n  tag_88\n  jumpi\n    /* \"#utility.yul\":2442:2521   */\n  tag_89\n  tag_22\n  jump\t// in\ntag_89:\n    /* \"#utility.yul\":2401:2523   */\ntag_88:\n    /* \"#utility.yul\":2552:2558   */\n  dup2\n    /* \"#utility.yul\":2546:2559   */\n  mload\n    /* \"#utility.yul\":2577:2667   */\n  tag_90\n    /* \"#utility.yul\":2663:2666   */\n  dup5\n    /* \"#utility.yul\":2655:2661   */\n  dup3\n    /* \"#utility.yul\":2648:2652   */\n  0x20\n    /* \"#utility.yul\":2640:2646   */\n  dup7\n    /* \"#utility.yul\":2636:2653   */\n  add\n    /* \"#utility.yul\":2577:2667   */\n  tag_30\n  jump\t// in\ntag_90:\n    /* \"#utility.yul\":2568:2667   */\n  swap2\n  pop\n    /* \"#utility.yul\":2391:2673   */\n  pop\n    /* \"#utility.yul\":2318:2673   */\n  swap3\n  swap2\n  pop\n  pop\n  jump\t// out\n    /* \"#utility.yul\":2679:2765   */\ntag_32:\n    /* \"#utility.yul\":2714:2721   */\n  0x00\n    /* \"#utility.yul\":2754:2758   */\n  0xff\n    /* \"#utility.yul\":2747:2752   */\n  dup3\n    /* \"#utility.yul\":2743:2759   */\n  and\n    /* \"#utility.yul\":2732:2759   */\n  swap1\n  pop\n    /* \"#utility.yul\":2679:2765   */\n  swap2\n  swap1\n  pop\n  jump\t// out\n    /* \"#utility.yul\":2771:2889   */\ntag_33:\n    /* \"#utility.yul\":2842:2864   */\n  tag_93\n    /* \"#utility.yul\":2858:2863   */\n  dup2\n    /* \"#utility.yul\":2842:2864   */\n  tag_32\n  jump\t// in\ntag_93:\n    /* \"#utility.yul\":2835:2840   */\n  dup2\n    /* \"#utility.yul\":2832:2865   */\n  eq\n    /* \"#utility.yul\":2822:2883   */\n  tag_94\n  jumpi\n    /* \"#utility.yul\":2879:2880   */\n  0x00\n    /* \"#utility.yul\":2876:2877   */\n  dup1\n    /* \"#utility.yul\":2869:2881   */\n  revert\n    /* \"#utility.yul\":2822:2883   */\ntag_94:\n    /* \"#utility.yul\":2771:2889   */\n  pop\n  jump\t// out\n    /* \"#utility.yul\":2895:3034   */\ntag_34:\n    /* \"#utility.yul\":2950:2955   */\n  0x00\n    /* \"#utility.yul\":2981:2987   */\n  dup2\n    /* \"#utility.yul\":2975:2988   */\n  mload\n    /* \"#utility.yul\":2966:2988   */\n  swap1\n  pop\n    /* \"#utility.yul\":2997:3028   */\n  tag_96\n    /* \"#utility.yul\":3022:3027   */\n  dup2\n    /* \"#utility.yul\":2997:3028   */\n  tag_33\n  jump\t// in\ntag_96:\n    /* \"#utility.yul\":2895:3034   */\n  swap3\n  swap2\n  pop\n  pop\n  jump\t// out\n    /* \"#utility.yul\":3040:3166   */\ntag_35:\n    /* \"#utility.yul\":3077:3084   */\n  0x00\n    /* \"#utility.yul\":3117:3159   */\n  0xffffffffffffffffffffffffffffffffffffffff\n    /* \"#utility.yul\":3110:3115   */\n  dup3\n    /* \"#utility.yul\":3106:3160   */\n  and\n    /* \"#utility.yul\":3095:3160   */\n  swap1\n  pop\n    /* \"#utility.yul\":3040:3166   */\n  swap2\n  swap1\n  pop\n  jump\t// out\n    /* \"#utility.yul\":3172:3268   */\ntag_36:\n    /* \"#utility.yul\":3209:3216   */\n  0x00\n    /* \"#utility.yul\":3238:3262   */\n  tag_99\n    /* \"#utility.yul\":3256:3261   */\n  dup3\n    /* \"#utility.yul\":3238:3262   */\n  tag_35\n  jump\t// in\ntag_99:\n    /* \"#utility.yul\":3227:3262   */\n  swap1\n  pop\n    /* \"#utility.yul\":3172:3268   */\n  swap2\n  swap1\n  pop\n  jump\t// out\n    /* \"#utility.yul\":3274:3396   */\ntag_37:\n    /* \"#utility.yul\":3347:3371   */\n  tag_101\n    /* \"#utility.yul\":3365:3370   */\n  dup2\n    /* \"#utility.yul\":3347:3371   */\n  tag_36\n  jump\t// in\ntag_101:\n    /* \"#utility.yul\":3340:3345   */\n  dup2\n    /* \"#utility.yul\":3337:3372   */\n  eq\n    /* \"#utility.yul\":3327:3390   */\n  tag_102\n  jumpi\n    /* \"#utility.yul\":3386:3387   */\n  0x00\n    /* \"#utility.yul\":3383:3384   */\n  dup1\n    /* \"#utility.yul\":3376:3388   */\n  revert\n    /* \"#utility.yul\":3327:3390   */\ntag_102:\n    /* \"#utility.yul\":3274:3396   */\n  pop\n  jump\t// out\n    /* \"#utility.yul\":3402:3545   */\ntag_38:\n    /* \"#utility.yul\":3459:3464   */\n  0x00\n    /* \"#utility.yul\":3490:3496   */\n  dup2\n    /* \"#utility.yul\":3484:3497   */\n  mload\n    /* \"#utility.yul\":3475:3497   */\n  swap1\n  pop\n    /* \"#utility.yul\":3506:3539   */\n  tag_104\n    /* \"#utility.yul\":3533:3538   */\n  dup2\n    /* \"#utility.yul\":3506:3539   */\n  tag_37\n  jump\t// in\ntag_104:\n    /* \"#utility.yul\":3402:3545   */\n  swap3\n  swap2\n  pop\n  pop\n  jump\t// out\n    /* \"#utility.yul\":3551:4713   */\ntag_3:\n    /* \"#utility.yul\":3666:3672   */\n  0x00\n    /* \"#utility.yul\":3674:3680   */\n  dup1\n    /* \"#utility.yul\":3682:3688   */\n  0x00\n    /* \"#utility.yul\":3690:3696   */\n  dup1\n    /* \"#utility.yul\":3739:3742   */\n  0x80\n    /* \"#utility.yul\":3727:3736   */\n  dup6\n    /* \"#utility.yul\":3718:3725   */\n  dup8\n    /* \"#utility.yul\":3714:3737   */\n  sub\n    /* \"#utility.yul\":3710:3743   */\n  slt\n    /* \"#utility.yul\":3707:3827   */\n  iszero\n  tag_106\n  jumpi\n    /* \"#utility.yul\":3746:3825   */\n  tag_107\n  tag_20\n  jump\t// in\ntag_107:\n    /* \"#utility.yul\":3707:3827   */\ntag_106:\n    /* \"#utility.yul\":3887:3888   */\n  0x00\n    /* \"#utility.yul\":3876:3885   */\n  dup6\n    /* \"#utility.yul\":3872:3889   */\n  add\n    /* \"#utility.yul\":3866:3890   */\n  mload\n    /* \"#utility.yul\":3917:3935   */\n  0xffffffffffffffff\n    /* \"#utility.yul\":3909:3915   */\n  dup2\n    /* \"#utility.yul\":3906:3936   */\n  gt\n    /* \"#utility.yul\":3903:4020   */\n  iszero\n  tag_108\n  jumpi\n    /* \"#utility.yul\":3939:4018   */\n  tag_109\n  tag_21\n  jump\t// in\ntag_109:\n    /* \"#utility.yul\":3903:4020   */\ntag_108:\n    /* \"#utility.yul\":4044:4118   */\n  tag_110\n    /* \"#utility.yul\":4110:4117   */\n  dup8\n    /* \"#utility.yul\":4101:4107   */\n  dup3\n    /* \"#utility.yul\":4090:4099   */\n  dup9\n    /* \"#utility.yul\":4086:4108   */\n  add\n    /* \"#utility.yul\":4044:4118   */\n  tag_31\n  jump\t// in\ntag_110:\n    /* \"#utility.yul\":4034:4118   */\n  swap5\n  pop\n    /* \"#utility.yul\":3837:4128   */\n  pop\n    /* \"#utility.yul\":4188:4190   */\n  0x20\n    /* \"#utility.yul\":4177:4186   */\n  dup6\n    /* \"#utility.yul\":4173:4191   */\n  add\n    /* \"#utility.yul\":4167:4192   */\n  mload\n    /* \"#utility.yul\":4219:4237   */\n  0xffffffffffffffff\n    /* \"#utility.yul\":4211:4217   */\n  dup2\n    /* \"#utility.yul\":4208:4238   */\n  gt\n    /* \"#utility.yul\":4205:4322   */\n  iszero\n  tag_111\n  jumpi\n    /* \"#utility.yul\":4241:4320   */\n  tag_112\n  tag_21\n  jump\t// in\ntag_112:\n    /* \"#utility.yul\":4205:4322   */\ntag_111:\n    /* \"#utility.yul\":4346:4420   */\n  tag_113\n    /* \"#utility.yul\":4412:4419   */\n  dup8\n    /* \"#utility.yul\":4403:4409   */\n  dup3\n    /* \"#utility.yul\":4392:4401   */\n  dup9\n    /* \"#utility.yul\":4388:4410   */\n  add\n    /* \"#utility.yul\":4346:4420   */\n  tag_31\n  jump\t// in\ntag_113:\n    /* \"#utility.yul\":4336:4420   */\n  swap4\n  pop\n    /* \"#utility.yul\":4138:4430   */\n  pop\n    /* \"#utility.yul\":4469:4471   */\n  0x40\n    /* \"#utility.yul\":4495:4557   */\n  tag_114\n    /* \"#utility.yul\":4549:4556   */\n  dup8\n    /* \"#utility.yul\":4540:4546   */\n  dup3\n    /* \"#utility.yul\":4529:4538   */\n  dup9\n    /* \"#utility.yul\":4525:4547   */\n  add\n    /* \"#utility.yul\":4495:4557   */\n  tag_34\n  jump\t// in\ntag_114:\n    /* \"#utility.yul\":4485:4557   */\n  swap3\n  pop\n    /* \"#utility.yul\":4440:4567   */\n  pop\n    /* \"#utility.yul\":4606:4608   */\n  0x60\n    /* \"#utility.yul\":4632:4696   */\n  tag_115\n    /* \"#utility.yul\":4688:4695   */\n  dup8\n    /* \"#utility.yul\":4679:4685   */\n  dup3\n    /* \"#utility.yul\":4668:4677   */\n  dup9\n    /* \"#utility.yul\":4664:4686   */\n  add\n    /* \"#utility.yul\":4632:4696   */\n  tag_38\n  jump\t// in\ntag_115:\n    /* \"#utility.yul\":4622:4696   */\n  swap2\n  pop\n    /* \"#utility.yul\":4577:4706   */\n  pop\n    /* \"#utility.yul\":3551:4713   */\n  swap3\n  swap6\n  swap2\n  swap5\n  pop\n  swap3\n  pop\n  jump\t// out\n    /* \"#utility.yul\":4719:4818   */\ntag_39:\n    /* \"#utility.yul\":4771:4777   */\n  0x00\n    /* \"#utility.yul\":4805:4810   */\n  dup2\n    /* \"#utility.yul\":4799:4811   */\n  mload\n    /* \"#utility.yul\":4789:4811   */\n  swap1\n  pop\n    /* \"#utility.yul\":4719:4818   */\n  swap2\n  swap1\n  pop\n  jump\t// out\n    /* \"#utility.yul\":4824:5004   */\ntag_40:\n    /* \"#utility.yul\":4872:4949   */\n  0x4e487b7100000000000000000000000000000000000000000000000000000000\n    /* \"#utility.yul\":4869:4870   */\n  0x00\n    /* \"#utility.yul\":4862:4950   */\n  mstore\n    /* \"#utility.yul\":4969:4973   */\n  0x22\n    /* \"#utility.yul\":4966:4967   */\n  0x04\n    /* \"#utility.yul\":4959:4974   */\n  mstore\n    /* \"#utility.yul\":4993:4997   */\n  0x24\n    /* \"#utility.yul\":4990:4991   */\n  0x00\n    /* \"#utility.yul\":4983:4998   */\n  revert\n    /* \"#utility.yul\":5010:5330   */\ntag_41:\n    /* \"#utility.yul\":5054:5060   */\n  0x00\n    /* \"#utility.yul\":5091:5092   */\n  0x02\n    /* \"#utility.yul\":5085:5089   */\n  dup3\n    /* \"#utility.yul\":5081:5093   */\n  div\n    /* \"#utility.yul\":5071:5093   */\n  swap1\n  pop\n    /* \"#utility.yul\":5138:5139   */\n  0x01\n    /* \"#utility.yul\":5132:5136   */\n  dup3\n    /* \"#utility.yul\":5128:5140   */\n  and\n    /* \"#utility.yul\":5159:5177   */\n  dup1\n    /* \"#utility.yul\":5149:5230   */\n  tag_119\n  jumpi\n    /* \"#utility.yul\":5215:5219   */\n  0x7f\n    /* \"#utility.yul\":5207:5213   */\n  dup3\n    /* \"#utility.yul\":5203:5220   */\n  and\n    /* \"#utility.yul\":5193:5220   */\n  swap2\n  pop\n    /* \"#utility.yul\":5149:5230   */\ntag_119:\n    /* \"#utility.yul\":5277:5279   */\n  0x20\n    /* \"#utility.yul\":5269:5275   */\n  dup3\n    /* \"#utility.yul\":5266:5280   */\n  lt\n    /* \"#utility.yul\":5246:5264   */\n  dup2\n    /* \"#utility.yul\":5243:5281   */\n  sub\n    /* \"#utility.yul\":5240:5324   */\n  tag_120\n  jumpi\n    /* \"#utility.yul\":5296:5314   */\n  tag_121\n  tag_40\n  jump\t// in\ntag_121:\n    /* \"#utility.yul\":5240:5324   */\ntag_120:\n    /* \"#utility.yul\":5061:5330   */\n  pop\n    /* \"#utility.yul\":5010:5330   */\n  swap2\n  swap1\n  pop\n  jump\t// out\n    /* \"#utility.yul\":5336:5477   */\ntag_42:\n    /* \"#utility.yul\":5385:5389   */\n  0x00\n    /* \"#utility.yul\":5408:5411   */\n  dup2\n    /* \"#utility.yul\":5400:5411   */\n  swap1\n  pop\n    /* \"#utility.yul\":5431:5434   */\n  dup2\n    /* \"#utility.yul\":5428:5429   */\n  0x00\n    /* \"#utility.yul\":5421:5435   */\n  mstore\n    /* \"#utility.yul\":5465:5469   */\n  0x20\n    /* \"#utility.yul\":5462:5463   */\n  0x00\n    /* \"#utility.yul\":5452:5470   */\n  keccak256\n    /* \"#utility.yul\":5444:5470   */\n  swap1\n  pop\n    /* \"#utility.yul\":5336:5477   */\n  swap2\n  swap1\n  pop\n  jump\t// out\n    /* \"#utility.yul\":5483:5576   */\ntag_43:\n    /* \"#utility.yul\":5520:5526   */\n  0x00\n    /* \"#utility.yul\":5567:5569   */\n  0x20\n    /* \"#utility.yul\":5562:5564   */\n  0x1f\n    /* \"#utility.yul\":5555:5560   */\n  dup4\n    /* \"#utility.yul\":5551:5565   */\n  add\n    /* \"#utility.yul\":5547:5570   */\n  div\n    /* \"#utility.yul\":5537:5570   */\n  swap1\n  pop\n    /* \"#utility.yul\":5483:5576   */\n  swap2\n  swap1\n  pop\n  jump\t// out\n    /* \"#utility.yul\":5582:5689   */\ntag_44:\n    /* \"#utility.yul\":5626:5634   */\n  0x00\n    /* \"#utility.yul\":5676:5681   */\n  dup3\n    /* \"#utility.yul\":5670:5674   */\n  dup3\n    /* \"#utility.yul\":5666:5682   */\n  shl\n    /* \"#utility.yul\":5645:5682   */\n  swap1\n  pop\n    /* \"#utility.yul\":5582:5689   */\n  swap3\n  swap2\n  pop\n  pop\n  jump\t// out\n    /* \"#utility.yul\":5695:6088   */\ntag_45:\n    /* \"#utility.yul\":5764:5770   */\n  0x00\n    /* \"#utility.yul\":5814:5815   */\n  0x08\n    /* \"#utility.yul\":5802:5812   */\n  dup4\n    /* \"#utility.yul\":5798:5816   */\n  mul\n    /* \"#utility.yul\":5837:5934   */\n  tag_126\n    /* \"#utility.yul\":5867:5933   */\n  0xffffffffffffffffffffffffffffffffffffffffffffffffffffffffffffffff\n    /* \"#utility.yul\":5856:5865   */\n  dup3\n    /* \"#utility.yul\":5837:5934   */\n  tag_44\n  jump\t// in\ntag_126:\n    /* \"#utility.yul\":5955:5994   */\n  tag_127\n    /* \"#utility.yul\":5985:5993   */\n  dup7\n    /* \"#utility.yul\":5974:5983   */\n  dup4\n    /* \"#utility.yul\":5955:5994   */\n  tag_44\n  jump\t// in\ntag_127:\n    /* \"#utility.yul\":5943:5994   */\n  swap6\n  pop\n    /* \"#utility.yul\":6027:6031   */\n  dup1\n    /* \"#utility.yul\":6023:6032   */\n  not\n    /* \"#utility.yul\":6016:6021   */\n  dup5\n    /* \"#utility.yul\":6012:6033   */\n  and\n    /* \"#utility.yul\":6003:6033   */\n  swap4\n  pop\n    /* \"#utility.yul\":6076:6080   */\n  dup1\n    /* \"#utility.yul\":6066:6074   */\n  dup7\n    /* \"#utility.yul\":6062:6081   */\n  and\n    /* \"#utility.yul\":6055:6060   */\n  dup5\n    /* \"#utility.yul\":6052:6082   */\n  or\n    /* \"#utility.yul\":6042:6082   */\n  swap3\n  pop\n    /* \"#utility.yul\":5771:6088   */\n  pop\n  pop\n    /* \"#utility.yul\":5695:6088   */\n  swap4\n  swap3\n  pop\n  pop\n  pop\n  jump\t// out\n    /* \"#utility.yul\":6094:6171   */\ntag_46:\n    /* \"#utility.yul\":6131:6138   */\n  0x00\n    /* \"#utility.yul\":6160:6165   */\n  dup2\n    /* \"#utility.yul\":6149:6165   */\n  swap1\n  pop\n    /* \"#utility.yul\":6094:6171   */\n  swap2\n  swap1\n  pop\n  jump\t// out\n    /* \"#utility.yul\":6177:6237   */\ntag_47:\n    /* \"#utility.yul\":6205:6208   */\n  0x00\n    /* \"#utility.yul\":6226:6231   */\n  dup2\n    /* \"#utility.yul\":6219:6231   */\n  swap1\n  pop\n    /* \"#utility.yul\":6177:6237   */\n  swap2\n  swap1\n  pop\n  jump\t// out\n    /* \"#utility.yul\":6243:6385   */\ntag_48:\n    /* \"#utility.yul\":6293:6302   */\n  0x00\n    /* \"#utility.yul\":6326:6379   */\n  tag_131\n    /* \"#utility.yul\":6344:6378   */\n  tag_132\n    /* \"#utility.yul\":6353:6377   */\n  tag_133\n    /* \"#utility.yul\":6371:6376   */\n  dup5\n    /* \"#utility.yul\":6353:6377   */\n  tag_46\n  jump\t// in\ntag_133:\n    /* \"#utility.yul\":6344:6378   */\n  tag_47\n  jump\t// in\ntag_132:\n    /* \"#utility.yul\":6326:6379   */\n  tag_46\n  jump\t// in\ntag_131:\n    /* \"#utility.yul\":6313:6379   */\n  swap1\n  pop\n    /* \"#utility.yul\":6243:6385   */\n  swap2\n  swap1\n  pop\n  jump\t// out\n    /* \"#utility.yul\":6391:6466   */\ntag_49:\n    /* \"#utility.yul\":6434:6437   */\n  0x00\n    /* \"#utility.yul\":6455:6460   */\n  dup2\n    /* \"#utility.yul\":6448:6460   */\n  swap1\n  pop\n    /* \"#utility.yul\":6391:6466   */\n  swap2\n  swap1\n  pop\n  jump\t// out\n    /* \"#utility.yul\":6472:6741   */\ntag_50:\n    /* \"#utility.yul\":6582:6621   */\n  tag_136\n    /* \"#utility.yul\":6613:6620   */\n  dup4\n    /* \"#utility.yul\":6582:6621   */\n  tag_48\n  jump\t// in\ntag_136:\n    /* \"#utility.yul\":6643:6734   */\n  tag_137\n    /* \"#utility.yul\":6692:6733   */\n  tag_138\n    /* \"#utility.yul\":6716:6732   */\n  dup3\n    /* \"#utility.yul\":6692:6733   */\n  tag_49\n  jump\t// in\ntag_138:\n    /* \"#utility.yul\":6684:6690   */\n  dup5\n    /* \"#utility.yul\":6677:6681   */\n  dup5\n    /* \"#utility.yul\":6671:6682   */\n  sload\n    /* \"#utility.yul\":6643:6734   */\n  tag_45\n  jump\t// in\ntag_137:\n    /* \"#utility.yul\":6637:6641   */\n  dup3\n    /* \"#utility.yul\":6630:6735   */\n  sstore\n    /* \"#utility.yul\":6548:6741   */\n  pop\n    /* \"#utility.yul\":6472:6741   */\n  pop\n  pop\n  pop\n  jump\t// out\n    /* \"#utility.yul\":6747:6820   */\ntag_51:\n    /* \"#utility.yul\":6792:6795   */\n  0x00\n    /* \"#utility.yul\":6747:6820   */\n  swap1\n  jump\t// out\n    /* \"#utility.yul\":6826:7015   */\ntag_52:\n    /* \"#utility.yul\":6903:6935   */\n  tag_141\n  tag_51\n  jump\t// in\ntag_141:\n    /* \"#utility.yul\":6944:7009   */\n  tag_142\n    /* \"#utility.yul\":7002:7008   */\n  dup2\n    /* \"#utility.yul\":6994:7000   */\n  dup5\n    /* \"#utility.yul\":6988:6992   */\n  dup5\n    /* \"#utility.yul\":6944:7009   */\n  tag_50\n  jump\t// in\ntag_142:\n    /* \"#utility.yul\":6879:7015   */\n  pop\n    /* \"#utility.yul\":6826:7015   */\n  pop\n  pop\n  jump\t// out\n    /* \"#utility.yul\":7021:7207   */\ntag_53:\n    /* \"#utility.yul\":7081:7201   */\ntag_144:\n    /* \"#utility.yul\":7098:7101   */\n  dup2\n    /* \"#utility.yul\":7091:7096   */\n  dup2\n    /* \"#utility.yul\":7088:7102   */\n  lt\n    /* \"#utility.yul\":7081:7201   */\n  iszero\n  tag_146\n  jumpi\n    /* \"#utility.yul\":7152:7191   */\n  tag_147\n    /* \"#utility.yul\":7189:7190   */\n  0x00\n    /* \"#utility.yul\":7182:7187   */\n  dup3\n    /* \"#utility.yul\":7152:7191   */\n  tag_52\n  jump\t// in\ntag_147:\n    /* \"#utility.yul\":7125:7126   */\n  0x01\n    /* \"#utility.yul\":7118:7123   */\n  dup2\n    /* \"#utility.yul\":7114:7127   */\n  add\n    /* \"#utility.yul\":7105:7127   */\n  swap1\n  pop\n    /* \"#utility.yul\":7081:7201   */\n  jump(tag_144)\ntag_146:\n    /* \"#utility.yul\":7021:7207   */\n  pop\n  pop\n  jump\t// out\n    /* \"#utility.yul\":7213:7756   */\ntag_54:\n    /* \"#utility.yul\":7314:7316   */\n  0x1f\n    /* \"#utility.yul\":7309:7312   */\n  dup3\n    /* \"#utility.yul\":7306:7317   */\n  gt\n    /* \"#utility.yul\":7303:7749   */\n  iszero\n  tag_149\n  jumpi\n    /* \"#utility.yul\":7348:7386   */\n  tag_150\n    /* \"#utility.yul\":7380:7385   */\n  dup2\n    /* \"#utility.yul\":7348:7386   */\n  tag_42\n  jump\t// in\ntag_150:\n    /* \"#utility.yul\":7432:7461   */\n  tag_151\n    /* \"#utility.yul\":7450:7460   */\n  dup5\n    /* \"#utility.yul\":7432:7461   */\n  tag_43\n  jump\t// in\ntag_151:\n    /* \"#utility.yul\":7422:7430   */\n  dup2\n    /* \"#utility.yul\":7418:7462   */\n  add\n    /* \"#utility.yul\":7615:7617   */\n  0x20\n    /* \"#utility.yul\":7603:7613   */\n  dup6\n    /* \"#utility.yul\":7600:7618   */\n  lt\n    /* \"#utility.yul\":7597:7646   */\n  iszero\n  tag_152\n  jumpi\n    /* \"#utility.yul\":7636:7644   */\n  dup2\n    /* \"#utility.yul\":7621:7644   */\n  swap1\n  pop\n    /* \"#utility.yul\":7597:7646   */\ntag_152:\n    /* \"#utility.yul\":7659:7739   */\n  tag_153\n    /* \"#utility.yul\":7715:7737   */\n  tag_154\n    /* \"#utility.yul\":7733:7736   */\n  dup6\n    /* \"#utility.yul\":7715:7737   */\n  tag_43\n  jump\t// in\ntag_154:\n    /* \"#utility.yul\":7705:7713   */\n  dup4\n    /* \"#utility.yul\":7701:7738   */\n  add\n    /* \"#utility.yul\":7688:7699   */\n  dup3\n    /* \"#utility.yul\":7659:7739   */\n  tag_53\n  jump\t// in\ntag_153:\n    /* \"#utility.yul\":7318:7749   */\n  pop\n  pop\n    /* \"#utility.yul\":7303:7749   */\ntag_149:\n    /* \"#utility.yul\":7213:7756   */\n  pop\n  pop\n  pop\n  jump\t// out\n    /* \"#utility.yul\":7762:7879   */\ntag_55:\n    /* \"#utility.yul\":7816:7824   */\n  0x00\n    /* \"#utility.yul\":7866:7871   */\n  dup3\n    /* \"#utility.yul\":7860:7864   */\n  dup3\n    /* \"#utility.yul\":7856:7872   */\n  shr\n    /* \"#utility.yul\":7835:7872   */\n  swap1\n  pop\n    /* \"#utility.yul\":7762:7879   */\n  swap3\n  swap2\n  pop\n  pop\n  jump\t// out\n    /* \"#utility.yul\":7885:8054   */\ntag_56:\n    /* \"#utility.yul\":7929:7935   */\n  0x00\n    /* \"#utility.yul\":7962:8013   */\n  tag_157\n    /* \"#utility.yul\":8010:8011   */\n  0x00\n    /* \"#utility.yul\":8006:8012   */\n  not\n    /* \"#utility.yul\":7998:8003   */\n  dup5\n    /* \"#utility.yul\":7995:7996   */\n  0x08\n    /* \"#utility.yul\":7991:8004   */\n  mul\n    /* \"#utility.yul\":7962:8013   */\n  tag_55\n  jump\t// in\ntag_157:\n    /* \"#utility.yul\":7958:8014   */\n  not\n    /* \"#utility.yul\":8043:8047   */\n  dup1\n    /* \"#utility.yul\":8037:8041   */\n  dup4\n    /* \"#utility.yul\":8033:8048   */\n  and\n    /* \"#utility.yul\":8023:8048   */\n  swap2\n  pop\n    /* \"#utility.yul\":7936:8054   */\n  pop\n    /* \"#utility.yul\":7885:8054   */\n  swap3\n  swap2\n  pop\n  pop\n  jump\t// out\n    /* \"#utility.yul\":8059:8354   */\ntag_57:\n    /* \"#utility.yul\":8135:8139   */\n  0x00\n    /* \"#utility.yul\":8281:8310   */\n  tag_159\n    /* \"#utility.yul\":8306:8309   */\n  dup4\n    /* \"#utility.yul\":8300:8304   */\n  dup4\n    /* \"#utility.yul\":8281:8310   */\n  tag_56\n  jump\t// in\ntag_159:\n    /* \"#utility.yul\":8273:8310   */\n  swap2\n  pop\n    /* \"#utility.yul\":8343:8346   */\n  dup3\n    /* \"#utility.yul\":8340:8341   */\n  0x02\n    /* \"#utility.yul\":8336:8347   */\n  mul\n    /* \"#utility.yul\":8330:8334   */\n  dup3\n    /* \"#utility.yul\":8327:8348   */\n  or\n    /* \"#utility.yul\":8319:8348   */\n  swap1\n  pop\n    /* \"#utility.yul\":8059:8354   */\n  swap3\n  swap2\n  pop\n  pop\n  jump\t// out\n    /* \"#utility.yul\":8359:9754   */\ntag_7:\n    /* \"#utility.yul\":8476:8513   */\n  tag_161\n    /* \"#utility.yul\":8509:8512   */\n  dup3\n    /* \"#utility.yul\":8476:8513   */\n  tag_39\n  jump\t// in\ntag_161:\n    /* \"#utility.yul\":8578:8596   */\n  0xffffffffffffffff\n    /* \"#utility.yul\":8570:8576   */\n  dup2\n    /* \"#utility.yul\":8567:8597   */\n  gt\n    /* \"#utility.yul\":8564:8620   */\n  iszero\n  tag_162\n  jumpi\n    /* \"#utility.yul\":8600:8618   */\n  tag_163\n  tag_25\n  jump\t// in\ntag_163:\n    /* \"#utility.yul\":8564:8620   */\ntag_162:\n    /* \"#utility.yul\":8644:8682   */\n  tag_164\n    /* \"#utility.yul\":8676:8680   */\n  dup3\n    /* \"#utility.yul\":8670:8681   */\n  sload\n    /* \"#utility.yul\":8644:8682   */\n  tag_41\n  jump\t// in\ntag_164:\n    /* \"#utility.yul\":8729:8796   */\n  tag_165\n    /* \"#utility.yul\":8789:8795   */\n  dup3\n    /* \"#utility.yul\":8781:8787   */\n  dup3\n    /* \"#utility.yul\":8775:8779   */\n  dup6\n    /* \"#utility.yul\":8729:8796   */\n  tag_54\n  jump\t// in\ntag_165:\n    /* \"#utility.yul\":8823:8824   */\n  0x00\n    /* \"#utility.yul\":8847:8851   */\n  0x20\n    /* \"#utility.yul\":8834:8851   */\n  swap1\n  pop\n    /* \"#utility.yul\":8879:8881   */\n  0x1f\n    /* \"#utility.yul\":8871:8877   */\n  dup4\n    /* \"#utility.yul\":8868:8882   */\n  gt\n    /* \"#utility.yul\":8896:8897   */\n  0x01\n    /* \"#utility.yul\":8891:9509   */\n  dup2\n  eq\n  tag_167\n  jumpi\n    /* \"#utility.yul\":9553:9554   */\n  0x00\n    /* \"#utility.yul\":9570:9576   */\n  dup5\n    /* \"#utility.yul\":9567:9644   */\n  iszero\n  tag_168\n  jumpi\n    /* \"#utility.yul\":9619:9628   */\n  dup3\n    /* \"#utility.yul\":9614:9617   */\n  dup8\n    /* \"#utility.yul\":9610:9629   */\n  add\n    /* \"#utility.yul\":9604:9630   */\n  mload\n    /* \"#utility.yul\":9595:9630   */\n  swap1\n  pop\n    /* \"#utility.yul\":9567:9644   */\ntag_168:\n    /* \"#utility.yul\":9670:9737   */\n  tag_169\n    /* \"#utility.yul\":9730:9736   */\n  dup6\n    /* \"#utility.yul\":9723:9728   */\n  dup3\n    /* \"#utility.yul\":9670:9737   */\n  tag_57\n  jump\t// in\ntag_169:\n    /* \"#utility.yul\":9664:9668   */\n  dup7\n    /* \"#utility.yul\":9657:9738   */\n  sstore\n    /* \"#utility.yul\":9526:9748   */\n  pop\n    /* \"#utility.yul\":8861:9748   */\n  jump(tag_166)\n    /* \"#utility.yul\":8891:9509   */\ntag_167:\n    /* \"#utility.yul\":8943:8947   */\n  0x1f\n    /* \"#utility.yul\":8939:8948   */\n  not\n    /* \"#utility.yul\":8931:8937   */\n  dup5\n    /* \"#utility.yul\":8927:8949   */\n  and\n    /* \"#utility.yul\":8977:9014   */\n  tag_170\n    /* \"#utility.yul\":9009:9013   */\n  dup7\n    /* \"#utility.yul\":8977:9014   */\n  tag_42\n  jump\t// in\ntag_170:\n    /* \"#utility.yul\":9036:9037   */\n  0x00\n    /* \"#utility.yul\":9050:9258   */\ntag_171:\n    /* \"#utility.yul\":9064:9071   */\n  dup3\n    /* \"#utility.yul\":9061:9062   */\n  dup2\n    /* \"#utility.yul\":9058:9072   */\n  lt\n    /* \"#utility.yul\":9050:9258   */\n  iszero\n  tag_173\n  jumpi\n    /* \"#utility.yul\":9143:9152   */\n  dup5\n    /* \"#utility.yul\":9138:9141   */\n  dup10\n    /* \"#utility.yul\":9134:9153   */\n  add\n    /* \"#utility.yul\":9128:9154   */\n  mload\n    /* \"#utility.yul\":9120:9126   */\n  dup3\n    /* \"#utility.yul\":9113:9155   */\n  sstore\n    /* \"#utility.yul\":9194:9195   */\n  0x01\n    /* \"#utility.yul\":9186:9192   */\n  dup3\n    /* \"#utility.yul\":9182:9196   */\n  add\n    /* \"#utility.yul\":9172:9196   */\n  swap2\n  pop\n    /* \"#utility.yul\":9241:9243   */\n  0x20\n    /* \"#utility.yul\":9230:9239   */\n  dup6\n    /* \"#utility.yul\":9226:9244   */\n  add\n    /* \"#utility.yul\":9213:9244   */\n  swap5\n  pop\n    /* \"#utility.yul\":9087:9091   */\n  0x20\n    /* \"#utility.yul\":9084:9085   */\n  dup2\n    /* \"#utility.yul\":9080:9092   */\n  add\n    /* \"#utility.yul\":9075:9092   */\n  swap1\n  pop\n    /* \"#utility.yul\":9050:9258   */\n  jump(tag_171)\ntag_173:\n    /* \"#utility.yul\":9286:9292   */\n  dup7\n    /* \"#utility.yul\":9277:9284   */\n  dup4\n    /* \"#utility.yul\":9274:9293   */\n  lt\n    /* \"#utility.yul\":9271:9450   */\n  iszero\n  tag_174\n  jumpi\n    /* \"#utility.yul\":9344:9353   */\n  dup5\n    /* \"#utility.yul\":9339:9342   */\n  dup10\n    /* \"#utility.yul\":9335:9354   */\n  add\n    /* \"#utility.yul\":9329:9355   */\n  mload\n    /* \"#utility.yul\":9387:9435   */\n  tag_175\n    /* \"#utility.yul\":9429:9433   */\n  0x1f\n    /* \"#utility.yul\":9421:9427   */\n  dup10\n    /* \"#utility.yul\":9417:9434   */\n  and\n    /* \"#utility.yul\":9406:9415   */\n  dup3\n    /* \"#utility.yul\":9387:9435   */\n  tag_56\n  jump\t// in\ntag_175:\n    /* \"#utility.yul\":9379:9385   */\n  dup4\n    /* \"#utility.yul\":9372:9436   */\n  sstore\n    /* \"#utility.yul\":9294:9450   */\n  pop\n    /* \"#utility.yul\":9271:9450   */\ntag_174:\n    /* \"#utility.yul\":9496:9497   */\n  0x01\n    /* \"#utility.yul\":9492:9493   */\n  0x02\n    /* \"#utility.yul\":9484:9490   */\n  dup9\n    /* \"#utility.yul\":9480:9494   */\n  mul\n    /* \"#utility.yul\":9476:9498   */\n  add\n    /* \"#utility.yul\":9470:9474   */\n  dup9\n    /* \"#utility.yul\":9463:9499   */\n  sstore\n    /* \"#utility.yul\":8898:9509   */\n  pop\n  pop\n  pop\n    /* \"#utility.yul\":8861:9748   */\ntag_166:\n  pop\n    /* \"#utility.yul\":8451:9754   */\n  pop\n  pop\n  pop\n    /* \"#utility.yul\":8359:9754   */\n  pop\n  pop\n  jump\t// out\n    /* \"tokena.sol\":296:1420  contract MyToken is ERC20, Ownable {... */\ntag_11:\n  mload(0x80)\n  codecopy(0x00, dataOffset(sub_0), dataSize(sub_0))\n  0x00\n  assignImmutable(\"0x777852512dc63fa8e441f03006b749793ff7c58fe5517f59d47a8bd550149fb3\")\n  return(0x00, dataSize(sub_0))\nstop\n\nsub_0: assembly {\n        /* \"tokena.sol\":296:1420  contract MyToken is ERC20, Ownable {... */\n      mstore(0x40, 0x80)\n      jumpi(tag_1, lt(calldatasize, 0x04))\n      shr(0xe0, calldataload(0x00))\n      dup1\n      0x715018a6\n      gt\n      tag_22\n      jumpi\n      dup1\n      0xd505accf\n      gt\n      tag_23\n      jumpi\n      dup1\n      0xd505accf\n      eq\n      tag_17\n      jumpi\n      dup1\n      0xdd62ed3e\n      eq\n      tag_18\n      jumpi\n      dup1\n      0xf04e283e\n      eq\n      tag_19\n      jumpi\n      dup1\n      0xf2fde38b\n      eq\n      tag_20\n      jumpi\n      dup1\n      0xfee81cf4\n      eq\n      tag_21\n      jumpi\n      jump(tag_1)\n    tag_23:\n      dup1\n      0x715018a6\n      eq\n      tag_12\n      jumpi\n      dup1\n      0x7ecebe00\n      eq\n      tag_13\n      jumpi\n      dup1\n      0x8da5cb5b\n      eq\n      tag_14\n      jumpi\n      dup1\n      0x95d89b41\n      eq\n      tag_15\n      jumpi\n      dup1\n      0xa9059cbb\n      eq\n      tag_16\n      jumpi\n      jump(tag_1)\n    tag_22:\n      dup1\n      0x313ce567\n      gt\n      tag_24\n      jumpi\n      dup1\n      0x313ce567\n      eq\n      tag_7\n      jumpi\n      dup1\n      0x3644e515\n      eq\n      tag_8\n      jumpi\n      dup1\n      0x40c10f19\n      eq\n      tag_9\n      jumpi\n      dup1\n      0x54d1f13d\n      eq\n      tag_10\n      jumpi\n      dup1\n      0x70a08231\n      eq\n      tag_11\n      jumpi\n      jump(tag_1)\n    tag_24:\n      dup1\n      0x06fdde03\n      eq\n      tag_2\n      jumpi\n      dup1\n      0x095ea7b3\n      eq\n      tag_3\n      jumpi\n      dup1\n      0x18160ddd\n      eq\n      tag_4\n      jumpi\n      dup1\n      0x23b872dd\n      eq\n      tag_5\n      jumpi\n      dup1\n      0x25692962\n      eq\n      tag_6\n      jumpi\n    tag_1:\n      0x00\n      dup1\n      revert\n        /* \"tokena.sol\":855:955  function name() public view virtual override returns (string memory) {... */\n    tag_2:\n      callvalue\n      dup1\n      iszero\n      tag_25\n      jumpi\n      0x00\n      dup1\n      revert\n    tag_25:\n      pop\n      tag_26\n      tag_27\n      jump\t// in\n    tag_26:\n      mload(0x40)\n      tag_28\n      swap2\n      swap1\n      tag_29\n      jump\t// in\n    tag_28:\n      mload(0x40)\n      dup1\n      swap2\n      sub\n      swap1\n      return\n        /* \"solady/src/tokens/ERC20.sol\":8196:9225  function approve(address spender, uint256 amount) public virtual returns (bool) {... */\n    tag_3:\n      callvalue\n      dup1\n      iszero\n      tag_30\n      jumpi\n      0x00\n      dup1\n      revert\n    tag_30:\n      pop\n      tag_31\n      0x04\n      dup1\n      calldatasize\n      sub\n      dup2\n      add\n      swap1\n      tag_32\n      swap2\n      swap1\n      tag_33\n      jump\t// in\n    tag_32:\n      tag_34\n      jump\t// in\n    tag_31:\n      mload(0x40)\n      tag_35\n      swap2\n      swap1\n      tag_36\n      jump\t// in\n    tag_35:\n      mload(0x40)\n      dup1\n      swap2\n      sub\n      swap1\n      return\n        /* \"solady/src/tokens/ERC20.sol\":6928:7123  function totalSupply() public view virtual returns (uint256 result) {... */\n    tag_4:\n      callvalue\n      dup1\n      iszero\n      tag_37\n      jumpi\n      0x00\n      dup1\n      revert\n    tag_37:\n      pop\n      tag_38\n      tag_39\n      jump\t// in\n    tag_38:\n      mload(0x40)\n      tag_40\n      swap2\n      swap1\n      tag_41\n      jump\t// in\n    tag_40:\n      mload(0x40)\n      dup1\n      swap2\n      sub\n      swap1\n      return\n        /* \"solady/src/tokens/ERC20.sol\":11186:15939  function transferFrom(address from, address to, uint256 amount) public virtual returns (bool) {... */\n    tag_5:\n      callvalue\n      dup1\n      iszero\n      tag_42\n      jumpi\n      0x00\n      dup1\n      revert\n    tag_42:\n      pop\n      tag_43\n      0x04\n      dup1\n      calldatasize\n      sub\n      dup2\n      add\n      swap1\n      tag_44\n      swap2\n      swap1\n      tag_45\n      jump\t// in\n    tag_44:\n      tag_46\n      jump\t// in\n    tag_43:\n      mload(0x40)\n      tag_47\n      swap2\n      swap1\n      tag_36\n      jump\t// in\n    tag_47:\n      mload(0x40)\n      dup1\n      swap2\n      sub\n      swap1\n      return\n        /* \"solady/src/auth/Ownable.sol\":9021:9638  function requestOwnershipHandover() public payable virtual {... */\n    tag_6:\n      tag_48\n      tag_49\n      jump\t// in\n    tag_48:\n      stop\n        /* \"tokena.sol\":1202:1302  function decimals() public view virtual override returns (uint8) {... */\n    tag_7:\n      callvalue\n      dup1\n      iszero\n      tag_50\n      jumpi\n      0x00\n      dup1\n      revert\n    tag_50:\n      pop\n      tag_51\n      tag_52\n      jump\t// in\n    tag_51:\n      mload(0x40)\n      tag_53\n      swap2\n      swap1\n      tag_54\n      jump\t// in\n    tag_53:\n      mload(0x40)\n      dup1\n      swap2\n      sub\n      swap1\n      return\n        /* \"solady/src/tokens/ERC20.sol\":21479:22216  function DOMAIN_SEPARATOR() public view virtual returns (bytes32 result) {... */\n    tag_8:\n      callvalue\n      dup1\n      iszero\n      tag_55\n      jumpi\n      0x00\n      dup1\n      revert\n    tag_55:\n      pop\n      tag_56\n      tag_57\n      jump\t// in\n    tag_56:\n      mload(0x40)\n      tag_58\n      swap2\n      swap1\n      tag_59\n      jump\t// in\n    tag_58:\n      mload(0x40)\n      dup1\n      swap2\n      sub\n      swap1\n      return\n        /* \"tokena.sol\":1310:1417  function mint(address account, uint256 amount) external onlyOwner {... */\n    tag_9:\n      callvalue\n      dup1\n      iszero\n      tag_60\n      jumpi\n      0x00\n      dup1\n      revert\n    tag_60:\n      pop\n      tag_61\n      0x04\n      dup1\n      calldatasize\n      sub\n      dup2\n      add\n      swap1\n      tag_62\n      swap2\n      swap1\n      tag_33\n      jump\t// in\n    tag_62:\n      tag_63\n      jump\t// in\n    tag_61:\n      stop\n        /* \"solady/src/auth/Ownable.sol\":9720:10176  function cancelOwnershipHandover() public payable virtual {... */\n    tag_10:\n      tag_64\n      tag_65\n      jump\t// in\n    tag_64:\n      stop\n        /* \"solady/src/tokens/ERC20.sol\":7189:7475  function balanceOf(address owner) public view virtual returns (uint256 result) {... */\n    tag_11:\n      callvalue\n      dup1\n      iszero\n      tag_66\n      jumpi\n      0x00\n      dup1\n      revert\n    tag_66:\n      pop\n      tag_67\n      0x04\n      dup1\n      calldatasize\n      sub\n      dup2\n      add\n      swap1\n      tag_68\n      swap2\n      swap1\n      tag_69\n      jump\t// in\n    tag_68:\n      tag_70\n      jump\t// in\n    tag_67:\n      mload(0x40)\n      tag_71\n      swap2\n      swap1\n      tag_41\n      jump\t// in\n    tag_71:\n      mload(0x40)\n      dup1\n      swap2\n      sub\n      swap1\n      return\n        /* \"solady/src/auth/Ownable.sol\":8762:8862  function renounceOwnership() public payable virtual onlyOwner {... */\n    tag_12:\n      tag_72\n      tag_73\n      jump\t// in\n    tag_72:\n      stop\n        /* \"solady/src/tokens/ERC20.sol\":17158:17498  function nonces(address owner) public view virtual returns (uint256 result) {... */\n    tag_13:\n      callvalue\n      dup1\n      iszero\n      tag_74\n      jumpi\n      0x00\n      dup1\n      revert\n    tag_74:\n      pop\n      tag_75\n      0x04\n      dup1\n      calldatasize\n      sub\n      dup2\n      add\n      swap1\n      tag_76\n      swap2\n      swap1\n      tag_69\n      jump\t// in\n    tag_76:\n      tag_77\n      jump\t// in\n    tag_75:\n      mload(0x40)\n      tag_78\n      swap2\n      swap1\n      tag_41\n      jump\t// in\n    tag_78:\n      mload(0x40)\n      dup1\n      swap2\n      sub\n      swap1\n      return\n        /* \"solady/src/auth/Ownable.sol\":11408:11590  function owner() public view virtual returns (address result) {... */\n    tag_14:\n      callvalue\n      dup1\n      iszero\n      tag_79\n      jumpi\n      0x00\n      dup1\n      revert\n    tag_79:\n      pop\n      tag_80\n      tag_81\n      jump\t// in\n    tag_80:\n      mload(0x40)\n      tag_82\n      swap2\n      swap1\n      tag_83\n      jump\t// in\n    tag_82:\n      mload(0x40)\n      dup1\n      swap2\n      sub\n      swap1\n      return\n        /* \"tokena.sol\":1009:1113  function symbol() public view virtual override returns (string memory) {... */\n    tag_15:\n      callvalue\n      dup1\n      iszero\n      tag_84\n      jumpi\n      0x00\n      dup1\n      revert\n    tag_84:\n      pop\n      tag_85\n      tag_86\n      jump\t// in\n    tag_85:\n      mload(0x40)\n      tag_87\n      swap2\n      swap1\n      tag_29\n      jump\t// in\n    tag_87:\n      mload(0x40)\n      dup1\n      swap2\n      sub\n      swap1\n      return\n        /* \"solady/src/tokens/ERC20.sol\":9412:10818  function transfer(address to, uint256 amount) public virtual returns (bool) {... */\n    tag_16:\n      callvalue\n      dup1\n      iszero\n      tag_88\n      jumpi\n      0x00\n      dup1\n      revert\n    tag_88:\n      pop\n      tag_89\n      0x04\n      dup1\n      calldatasize\n      sub\n      dup2\n      add\n      swap1\n      tag_90\n      swap2\n      swap1\n      tag_33\n      jump\t// in\n    tag_90:\n      tag_91\n      jump\t// in\n    tag_89:\n      mload(0x40)\n      tag_92\n      swap2\n      swap1\n      tag_36\n      jump\t// in\n    tag_92:\n      mload(0x40)\n      dup1\n      swap2\n      sub\n      swap1\n      return\n        /* \"solady/src/tokens/ERC20.sol\":17682:21398  function permit(... */\n    tag_17:\n      callvalue\n      dup1\n      iszero\n      tag_93\n      jumpi\n      0x00\n      dup1\n      revert\n    tag_93:\n      pop\n      tag_94\n      0x04\n      dup1\n      calldatasize\n      sub\n      dup2\n      add\n      swap1\n      tag_95\n      swap2\n      swap1\n      tag_96\n      jump\t// in\n    tag_95:\n      tag_97\n      jump\t// in\n    tag_94:\n      stop\n        /* \"solady/src/tokens/ERC20.sol\":7570:8065  function allowance(address owner, address spender)... */\n    tag_18:\n      callvalue\n      dup1\n      iszero\n      tag_98\n      jumpi\n      0x00\n      dup1\n      revert\n    tag_98:\n      pop\n      tag_99\n      0x04\n      dup1\n      calldatasize\n      sub\n      dup2\n      add\n      swap1\n      tag_100\n      swap2\n      swap1\n      tag_101\n      jump\t// in\n    tag_100:\n      tag_102\n      jump\t// in\n    tag_99:\n      mload(0x40)\n      tag_103\n      swap2\n      swap1\n      tag_41\n      jump\t// in\n    tag_103:\n      mload(0x40)\n      dup1\n      swap2\n      sub\n      swap1\n      return\n        /* \"solady/src/auth/Ownable.sol\":10363:11071  function completeOwnershipHandover(address pendingOwner) public payable virtual onlyOwner {... */\n    tag_19:\n      tag_104\n      0x04\n      dup1\n      calldatasize\n      sub\n      dup2\n      add\n      swap1\n      tag_105\n      swap2\n      swap1\n      tag_69\n      jump\t// in\n    tag_105:\n      tag_106\n      jump\t// in\n    tag_104:\n      stop\n        /* \"solady/src/auth/Ownable.sol\":8348:8697  function transferOwnership(address newOwner) public payable virtual onlyOwner {... */\n    tag_20:\n      tag_107\n      0x04\n      dup1\n      calldatasize\n      sub\n      dup2\n      add\n      swap1\n      tag_108\n      swap2\n      swap1\n      tag_69\n      jump\t// in\n    tag_108:\n      tag_109\n      jump\t// in\n    tag_107:\n      stop\n        /* \"solady/src/auth/Ownable.sol\":11693:12128  function ownershipHandoverExpiresAt(address pendingOwner)... */\n    tag_21:\n      callvalue\n      dup1\n      iszero\n      tag_110\n      jumpi\n      0x00\n      dup1\n      revert\n    tag_110:\n      pop\n      tag_111\n      0x04\n      dup1\n      calldatasize\n      sub\n      dup2\n      add\n      swap1\n      tag_112\n      swap2\n      swap1\n      tag_69\n      jump\t// in\n    tag_112:\n      tag_113\n      jump\t// in\n    tag_111:\n      mload(0x40)\n      tag_114\n      swap2\n      swap1\n      tag_41\n      jump\t// in\n    tag_114:\n      mload(0x40)\n      dup1\n      swap2\n      sub\n      swap1\n      return\n        /* \"tokena.sol\":855:955  function name() public view virtual override returns (string memory) {... */\n    tag_27:\n        /* \"tokena.sol\":909:922  string memory */\n      0x60\n        /* \"tokena.sol\":942:947  name_ */\n      0x00\n        /* \"tokena.sol\":935:947  return name_ */\n      dup1\n      sload\n      tag_116\n      swap1\n      tag_117\n      jump\t// in\n    tag_116:\n      dup1\n      0x1f\n      add\n      0x20\n      dup1\n      swap2\n      div\n      mul\n      0x20\n      add\n      mload(0x40)\n      swap1\n      dup2\n      add\n      0x40\n      mstore\n      dup1\n      swap3\n      swap2\n      swap1\n      dup2\n      dup2\n      mstore\n      0x20\n      add\n      dup3\n      dup1\n      sload\n      tag_118\n      swap1\n      tag_117\n      jump\t// in\n    tag_118:\n      dup1\n      iszero\n      tag_119\n      jumpi\n      dup1\n      0x1f\n      lt\n      tag_120\n      jumpi\n      0x0100\n      dup1\n      dup4\n      sload\n      div\n      mul\n      dup4\n      mstore\n      swap2\n      0x20\n      add\n      swap2\n      jump(tag_119)\n    tag_120:\n      dup3\n      add\n      swap2\n      swap1\n      0x00\n      mstore\n      keccak256(0x00, 0x20)\n      swap1\n    tag_121:\n      dup2\n      sload\n      dup2\n      mstore\n      swap1\n      0x01\n      add\n      swap1\n      0x20\n      add\n      dup1\n      dup4\n      gt\n      tag_121\n      jumpi\n      dup3\n      swap1\n      sub\n      0x1f\n      and\n      dup3\n      add\n      swap2\n    tag_119:\n      pop\n      pop\n      pop\n      pop\n      pop\n      swap1\n      pop\n        /* \"tokena.sol\":855:955  function name() public view virtual override returns (string memory) {... */\n      swap1\n      jump\t// out\n        /* \"solady/src/tokens/ERC20.sol\":8196:9225  function approve(address spender, uint256 amount) public virtual returns (bool) {... */\n    tag_34:\n        /* \"solady/src/tokens/ERC20.sol\":8270:8274  bool */\n      0x00\n        /* \"solady/src/tokens/ERC20.sol\":8290:8321  _givePermit2InfiniteAllowance() */\n      tag_123\n        /* \"solady/src/tokens/ERC20.sol\":8290:8319  _givePermit2InfiniteAllowance */\n      tag_124\n        /* \"solady/src/tokens/ERC20.sol\":8290:8321  _givePermit2InfiniteAllowance() */\n      jump\t// in\n    tag_123:\n        /* \"solady/src/tokens/ERC20.sol\":8286:8733  if (_givePermit2InfiniteAllowance()) {... */\n      iszero\n      tag_125\n      jumpi\n        /* \"solady/src/tokens/ERC20.sol\":8553:8559  amount */\n      dup2\n        /* \"solady/src/tokens/ERC20.sol\":8549:8560  not(amount) */\n      not\n        /* \"solady/src/tokens/ERC20.sol\":8542:8561  iszero(not(amount)) */\n      iszero\n        /* \"solady/src/tokens/ERC20.sol\":8531:8539  _PERMIT2 */\n      0x22d473030f116ddee9f6b43ac78ba3\n        /* \"solady/src/tokens/ERC20.sol\":8520:8527  spender */\n      dup5\n        /* \"solady/src/tokens/ERC20.sol\":8516:8518  96 */\n      0x60\n        /* \"solady/src/tokens/ERC20.sol\":8512:8528  shl(96, spender) */\n      shl\n        /* \"solady/src/tokens/ERC20.sol\":8508:8510  96 */\n      0x60\n        /* \"solady/src/tokens/ERC20.sol\":8504:8529  shr(96, shl(96, spender)) */\n      shr\n        /* \"solady/src/tokens/ERC20.sol\":8500:8540  xor(shr(96, shl(96, spender)), _PERMIT2) */\n      xor\n        /* \"solady/src/tokens/ERC20.sol\":8497:8562  or(xor(shr(96, shl(96, spender)), _PERMIT2), iszero(not(amount))) */\n      or\n        /* \"solady/src/tokens/ERC20.sol\":8487:8709  if iszero(or(xor(shr(96, shl(96, spender)), _PERMIT2), iszero(not(amount)))) {... */\n      tag_126\n      jumpi\n        /* \"solady/src/tokens/ERC20.sol\":8599:8609  0x3f68539a */\n      0x3f68539a\n        /* \"solady/src/tokens/ERC20.sol\":8593:8597  0x00 */\n      0x00\n        /* \"solady/src/tokens/ERC20.sol\":8586:8610  mstore(0x00, 0x3f68539a) */\n      mstore\n        /* \"solady/src/tokens/ERC20.sol\":8686:8690  0x04 */\n      0x04\n        /* \"solady/src/tokens/ERC20.sol\":8680:8684  0x1c */\n      0x1c\n        /* \"solady/src/tokens/ERC20.sol\":8673:8691  revert(0x1c, 0x04) */\n      revert\n        /* \"solady/src/tokens/ERC20.sol\":8487:8709  if iszero(or(xor(shr(96, shl(96, spender)), _PERMIT2), iszero(not(amount)))) {... */\n    tag_126:\n        /* \"solady/src/tokens/ERC20.sol\":8286:8733  if (_givePermit2InfiniteAllowance()) {... */\n    tag_125:\n        /* \"solady/src/tokens/ERC20.sol\":8885:8892  spender */\n      dup3\n        /* \"solady/src/tokens/ERC20.sol\":8879:8883  0x20 */\n      0x20\n        /* \"solady/src/tokens/ERC20.sol\":8872:8893  mstore(0x20, spender) */\n      mstore\n        /* \"solady/src/tokens/ERC20.sol\":8919:8939  _ALLOWANCE_SLOT_SEED */\n      0x7f5e9f20\n        /* \"solady/src/tokens/ERC20.sol\":8913:8917  0x0c */\n      0x0c\n        /* \"solady/src/tokens/ERC20.sol\":8906:8940  mstore(0x0c, _ALLOWANCE_SLOT_SEED) */\n      mstore\n        /* \"solady/src/tokens/ERC20.sol\":8966:8974  caller() */\n      caller\n        /* \"solady/src/tokens/ERC20.sol\":8960:8964  0x00 */\n      0x00\n        /* \"solady/src/tokens/ERC20.sol\":8953:8975  mstore(0x00, caller()) */\n      mstore\n        /* \"solady/src/tokens/ERC20.sol\":9018:9024  amount */\n      dup2\n        /* \"solady/src/tokens/ERC20.sol\":9011:9015  0x34 */\n      0x34\n        /* \"solady/src/tokens/ERC20.sol\":9005:9009  0x0c */\n      0x0c\n        /* \"solady/src/tokens/ERC20.sol\":8995:9016  keccak256(0x0c, 0x34) */\n      keccak256\n        /* \"solady/src/tokens/ERC20.sol\":8988:9025  sstore(keccak256(0x0c, 0x34), amount) */\n      sstore\n        /* \"solady/src/tokens/ERC20.sol\":9093:9099  amount */\n      dup2\n        /* \"solady/src/tokens/ERC20.sol\":9087:9091  0x00 */\n      0x00\n        /* \"solady/src/tokens/ERC20.sol\":9080:9100  mstore(0x00, amount) */\n      mstore\n        /* \"solady/src/tokens/ERC20.sol\":9181:9185  0x2c */\n      0x2c\n        /* \"solady/src/tokens/ERC20.sol\":9175:9186  mload(0x2c) */\n      mload\n        /* \"solady/src/tokens/ERC20.sol\":9171:9173  96 */\n      0x60\n        /* \"solady/src/tokens/ERC20.sol\":9167:9187  shr(96, mload(0x2c)) */\n      shr\n        /* \"solady/src/tokens/ERC20.sol\":9157:9165  caller() */\n      caller\n        /* \"solady/src/tokens/ERC20.sol\":9130:9155  _APPROVAL_EVENT_SIGNATURE */\n      0x8c5be1e5ebec7d5bd14f71427d1e84f3dd0314c0f7b2291e5b200ac8c7c3b925\n        /* \"solady/src/tokens/ERC20.sol\":9124:9128  0x20 */\n      0x20\n        /* \"solady/src/tokens/ERC20.sol\":9118:9122  0x00 */\n      0x00\n        /* \"solady/src/tokens/ERC20.sol\":9113:9188  log3(0x00, 0x20, _APPROVAL_EVENT_SIGNATURE, caller(), shr(96, mload(0x2c))) */\n      log3\n        /* \"solady/src/tokens/ERC20.sol\":9214:9218  true */\n      0x01\n        /* \"solady/src/tokens/ERC20.sol\":9207:9218  return true */\n      swap1\n      pop\n        /* \"solady/src/tokens/ERC20.sol\":8196:9225  function approve(address spender, uint256 amount) public virtual returns (bool) {... */\n      swap3\n      swap2\n      pop\n      pop\n      jump\t// out\n        /* \"solady/src/tokens/ERC20.sol\":6928:7123  function totalSupply() public view virtual returns (uint256 result) {... */\n    tag_39:\n        /* \"solady/src/tokens/ERC20.sol\":6980:6994  uint256 result */\n      0x00\n        /* \"solady/src/tokens/ERC20.sol\":7088:7106  _TOTAL_SUPPLY_SLOT */\n      0x05345cdf77eb68f44c\n        /* \"solady/src/tokens/ERC20.sol\":7082:7107  sload(_TOTAL_SUPPLY_SLOT) */\n      sload\n        /* \"solady/src/tokens/ERC20.sol\":7072:7107  result := sload(_TOTAL_SUPPLY_SLOT) */\n      swap1\n      pop\n        /* \"solady/src/tokens/ERC20.sol\":6928:7123  function totalSupply() public view virtual returns (uint256 result) {... */\n      swap1\n      jump\t// out\n        /* \"solady/src/tokens/ERC20.sol\":11186:15939  function transferFrom(address from, address to, uint256 amount) public virtual returns (bool) {... */\n    tag_46:\n        /* \"solady/src/tokens/ERC20.sol\":11274:11278  bool */\n      0x00\n        /* \"solady/src/tokens/ERC20.sol\":11290:11328  _beforeTokenTransfer(from, to, amount) */\n      tag_129\n        /* \"solady/src/tokens/ERC20.sol\":11311:11315  from */\n      dup5\n        /* \"solady/src/tokens/ERC20.sol\":11317:11319  to */\n      dup5\n        /* \"solady/src/tokens/ERC20.sol\":11321:11327  amount */\n      dup5\n        /* \"solady/src/tokens/ERC20.sol\":11290:11310  _beforeTokenTransfer */\n      tag_130\n        /* \"solady/src/tokens/ERC20.sol\":11290:11328  _beforeTokenTransfer(from, to, amount) */\n      jump\t// in\n    tag_129:\n        /* \"solady/src/tokens/ERC20.sol\":11412:11443  _givePermit2InfiniteAllowance() */\n      tag_131\n        /* \"solady/src/tokens/ERC20.sol\":11412:11441  _givePermit2InfiniteAllowance */\n      tag_124\n        /* \"solady/src/tokens/ERC20.sol\":11412:11443  _givePermit2InfiniteAllowance() */\n      jump\t// in\n    tag_131:\n        /* \"solady/src/tokens/ERC20.sol\":11408:15865  if (_givePermit2InfiniteAllowance()) {... */\n      iszero\n      tag_132\n      jumpi\n        /* \"solady/src/tokens/ERC20.sol\":11554:11558  from */\n      dup4\n        /* \"solady/src/tokens/ERC20.sol\":11550:11552  96 */\n      0x60\n        /* \"solady/src/tokens/ERC20.sol\":11546:11559  shl(96, from) */\n      shl\n        /* \"solady/src/tokens/ERC20.sol\":11599:11607  _PERMIT2 */\n      0x22d473030f116ddee9f6b43ac78ba3\n        /* \"solady/src/tokens/ERC20.sol\":11589:11597  caller() */\n      caller\n        /* \"solady/src/tokens/ERC20.sol\":11586:11608  eq(caller(), _PERMIT2) */\n      eq\n        /* \"solady/src/tokens/ERC20.sol\":11576:12504  if iszero(eq(caller(), _PERMIT2)) {... */\n      tag_133\n      jumpi\n        /* \"solady/src/tokens/ERC20.sol\":11715:11723  caller() */\n      caller\n        /* \"solady/src/tokens/ERC20.sol\":11709:11713  0x20 */\n      0x20\n        /* \"solady/src/tokens/ERC20.sol\":11702:11724  mstore(0x20, caller()) */\n      mstore\n        /* \"solady/src/tokens/ERC20.sol\":11768:11788  _ALLOWANCE_SLOT_SEED */\n      0x7f5e9f20\n        /* \"solady/src/tokens/ERC20.sol\":11761:11766  from_ */\n      dup2\n        /* \"solady/src/tokens/ERC20.sol\":11758:11789  or(from_, _ALLOWANCE_SLOT_SEED) */\n      or\n        /* \"solady/src/tokens/ERC20.sol\":11752:11756  0x0c */\n      0x0c\n        /* \"solady/src/tokens/ERC20.sol\":11745:11790  mstore(0x0c, or(from_, _ALLOWANCE_SLOT_SEED)) */\n      mstore\n        /* \"solady/src/tokens/ERC20.sol\":11848:11852  0x34 */\n      0x34\n        /* \"solady/src/tokens/ERC20.sol\":11842:11846  0x0c */\n      0x0c\n        /* \"solady/src/tokens/ERC20.sol\":11832:11853  keccak256(0x0c, 0x34) */\n      keccak256\n        /* \"solady/src/tokens/ERC20.sol\":11898:11911  allowanceSlot */\n      dup1\n        /* \"solady/src/tokens/ERC20.sol\":11892:11912  sload(allowanceSlot) */\n      sload\n        /* \"solady/src/tokens/ERC20.sol\":12014:12024  allowance_ */\n      dup1\n        /* \"solady/src/tokens/ERC20.sol\":12010:12025  not(allowance_) */\n      not\n        /* \"solady/src/tokens/ERC20.sol\":12007:12486  if not(allowance_) {... */\n      iszero\n      tag_134\n      jumpi\n        /* \"solady/src/tokens/ERC20.sol\":12155:12165  allowance_ */\n      dup1\n        /* \"solady/src/tokens/ERC20.sol\":12147:12153  amount */\n      dup6\n        /* \"solady/src/tokens/ERC20.sol\":12144:12166  gt(amount, allowance_) */\n      gt\n        /* \"solady/src/tokens/ERC20.sol\":12141:12324  if gt(amount, allowance_) {... */\n      iszero\n      tag_135\n      jumpi\n        /* \"solady/src/tokens/ERC20.sol\":12210:12220  0x13be252b */\n      0x13be252b\n        /* \"solady/src/tokens/ERC20.sol\":12204:12208  0x00 */\n      0x00\n        /* \"solady/src/tokens/ERC20.sol\":12197:12221  mstore(0x00, 0x13be252b) */\n      mstore\n        /* \"solady/src/tokens/ERC20.sol\":12293:12297  0x04 */\n      0x04\n        /* \"solady/src/tokens/ERC20.sol\":12287:12291  0x1c */\n      0x1c\n        /* \"solady/src/tokens/ERC20.sol\":12280:12298  revert(0x1c, 0x04) */\n      revert\n        /* \"solady/src/tokens/ERC20.sol\":12141:12324  if gt(amount, allowance_) {... */\n    tag_135:\n        /* \"solady/src/tokens/ERC20.sol\":12456:12462  amount */\n      dup5\n        /* \"solady/src/tokens/ERC20.sol\":12444:12454  allowance_ */\n      dup2\n        /* \"solady/src/tokens/ERC20.sol\":12440:12463  sub(allowance_, amount) */\n      sub\n        /* \"solady/src/tokens/ERC20.sol\":12425:12438  allowanceSlot */\n      dup3\n        /* \"solady/src/tokens/ERC20.sol\":12418:12464  sstore(allowanceSlot, sub(allowance_, amount)) */\n      sstore\n        /* \"solady/src/tokens/ERC20.sol\":12007:12486  if not(allowance_) {... */\n    tag_134:\n        /* \"solady/src/tokens/ERC20.sol\":11610:12504  {... */\n      pop\n      pop\n        /* \"solady/src/tokens/ERC20.sol\":11576:12504  if iszero(eq(caller(), _PERMIT2)) {... */\n    tag_133:\n        /* \"solady/src/tokens/ERC20.sol\":12608:12626  _BALANCE_SLOT_SEED */\n      0x87a211a2\n        /* \"solady/src/tokens/ERC20.sol\":12601:12606  from_ */\n      dup2\n        /* \"solady/src/tokens/ERC20.sol\":12598:12627  or(from_, _BALANCE_SLOT_SEED) */\n      or\n        /* \"solady/src/tokens/ERC20.sol\":12592:12596  0x0c */\n      0x0c\n        /* \"solady/src/tokens/ERC20.sol\":12585:12628  mstore(0x0c, or(from_, _BALANCE_SLOT_SEED)) */\n      mstore\n        /* \"solady/src/tokens/ERC20.sol\":12684:12688  0x20 */\n      0x20\n        /* \"solady/src/tokens/ERC20.sol\":12678:12682  0x0c */\n      0x0c\n        /* \"solady/src/tokens/ERC20.sol\":12668:12689  keccak256(0x0c, 0x20) */\n      keccak256\n        /* \"solady/src/tokens/ERC20.sol\":12731:12746  fromBalanceSlot */\n      dup1\n        /* \"solady/src/tokens/ERC20.sol\":12725:12747  sload(fromBalanceSlot) */\n      sload\n        /* \"solady/src/tokens/ERC20.sol\":12829:12840  fromBalance */\n      dup1\n        /* \"solady/src/tokens/ERC20.sol\":12821:12827  amount */\n      dup6\n        /* \"solady/src/tokens/ERC20.sol\":12818:12841  gt(amount, fromBalance) */\n      gt\n        /* \"solady/src/tokens/ERC20.sol\":12815:12973  if gt(amount, fromBalance) {... */\n      iszero\n      tag_136\n      jumpi\n        /* \"solady/src/tokens/ERC20.sol\":12877:12887  0xf4d678b8 */\n      0xf4d678b8\n        /* \"solady/src/tokens/ERC20.sol\":12871:12875  0x00 */\n      0x00\n        /* \"solady/src/tokens/ERC20.sol\":12864:12888  mstore(0x00, 0xf4d678b8) */\n      mstore\n        /* \"solady/src/tokens/ERC20.sol\":12950:12954  0x04 */\n      0x04\n        /* \"solady/src/tokens/ERC20.sol\":12944:12948  0x1c */\n      0x1c\n        /* \"solady/src/tokens/ERC20.sol\":12937:12955  revert(0x1c, 0x04) */\n      revert\n        /* \"solady/src/tokens/ERC20.sol\":12815:12973  if gt(amount, fromBalance) {... */\n    tag_136:\n        /* \"solady/src/tokens/ERC20.sol\":13090:13096  amount */\n      dup5\n        /* \"solady/src/tokens/ERC20.sol\":13077:13088  fromBalance */\n      dup2\n        /* \"solady/src/tokens/ERC20.sol\":13073:13097  sub(fromBalance, amount) */\n      sub\n        /* \"solady/src/tokens/ERC20.sol\":13056:13071  fromBalanceSlot */\n      dup3\n        /* \"solady/src/tokens/ERC20.sol\":13049:13098  sstore(fromBalanceSlot, sub(fromBalance, amount)) */\n      sstore\n        /* \"solady/src/tokens/ERC20.sol\":13181:13183  to */\n      dup6\n        /* \"solady/src/tokens/ERC20.sol\":13175:13179  0x00 */\n      0x00\n        /* \"solady/src/tokens/ERC20.sol\":13168:13184  mstore(0x00, to) */\n      mstore\n        /* \"solady/src/tokens/ERC20.sol\":13238:13242  0x20 */\n      0x20\n        /* \"solady/src/tokens/ERC20.sol\":13232:13236  0x0c */\n      0x0c\n        /* \"solady/src/tokens/ERC20.sol\":13222:13243  keccak256(0x0c, 0x20) */\n      keccak256\n        /* \"solady/src/tokens/ERC20.sol\":13504:13510  amount */\n      dup6\n        /* \"solady/src/tokens/ERC20.sol\":13488:13501  toBalanceSlot */\n      dup2\n        /* \"solady/src/tokens/ERC20.sol\":13482:13502  sload(toBalanceSlot) */\n      sload\n        /* \"solady/src/tokens/ERC20.sol\":13478:13511  add(sload(toBalanceSlot), amount) */\n      add\n        /* \"solady/src/tokens/ERC20.sol\":13463:13476  toBalanceSlot */\n      dup2\n        /* \"solady/src/tokens/ERC20.sol\":13456:13512  sstore(toBalanceSlot, add(sload(toBalanceSlot), amount)) */\n      sstore\n        /* \"solady/src/tokens/ERC20.sol\":13588:13594  amount */\n      dup6\n        /* \"solady/src/tokens/ERC20.sol\":13582:13586  0x20 */\n      0x20\n        /* \"solady/src/tokens/ERC20.sol\":13575:13595  mstore(0x20, amount) */\n      mstore\n        /* \"solady/src/tokens/ERC20.sol\":13686:13690  0x0c */\n      0x0c\n        /* \"solady/src/tokens/ERC20.sol\":13680:13691  mload(0x0c) */\n      mload\n        /* \"solady/src/tokens/ERC20.sol\":13676:13678  96 */\n      0x60\n        /* \"solady/src/tokens/ERC20.sol\":13672:13692  shr(96, mload(0x0c)) */\n      shr\n        /* \"solady/src/tokens/ERC20.sol\":13664:13669  from_ */\n      dup5\n        /* \"solady/src/tokens/ERC20.sol\":13660:13662  96 */\n      0x60\n        /* \"solady/src/tokens/ERC20.sol\":13656:13670  shr(96, from_) */\n      shr\n        /* \"solady/src/tokens/ERC20.sol\":13629:13654  _TRANSFER_EVENT_SIGNATURE */\n      0xddf252ad1be2c89b69c2b068fc378daa952ba7f163c4a11628f55a4df523b3ef\n        /* \"solady/src/tokens/ERC20.sol\":13623:13627  0x20 */\n      0x20\n        /* \"solady/src/tokens/ERC20.sol\":13617:13621  0x20 */\n      dup1\n        /* \"solady/src/tokens/ERC20.sol\":13612:13693  log3(0x20, 0x20, _TRANSFER_EVENT_SIGNATURE, shr(96, from_), shr(96, mload(0x0c))) */\n      log3\n        /* \"solady/src/tokens/ERC20.sol\":11515:13707  {... */\n      pop\n      pop\n      pop\n      pop\n        /* \"solady/src/tokens/ERC20.sol\":11408:15865  if (_givePermit2InfiniteAllowance()) {... */\n      jump(tag_137)\n    tag_132:\n        /* \"solady/src/tokens/ERC20.sol\":13832:13836  from */\n      dup4\n        /* \"solady/src/tokens/ERC20.sol\":13828:13830  96 */\n      0x60\n        /* \"solady/src/tokens/ERC20.sol\":13824:13837  shl(96, from) */\n      shl\n        /* \"solady/src/tokens/ERC20.sol\":13933:13941  caller() */\n      caller\n        /* \"solady/src/tokens/ERC20.sol\":13927:13931  0x20 */\n      0x20\n        /* \"solady/src/tokens/ERC20.sol\":13920:13942  mstore(0x20, caller()) */\n      mstore\n        /* \"solady/src/tokens/ERC20.sol\":13982:14002  _ALLOWANCE_SLOT_SEED */\n      0x7f5e9f20\n        /* \"solady/src/tokens/ERC20.sol\":13975:13980  from_ */\n      dup2\n        /* \"solady/src/tokens/ERC20.sol\":13972:14003  or(from_, _ALLOWANCE_SLOT_SEED) */\n      or\n        /* \"solady/src/tokens/ERC20.sol\":13966:13970  0x0c */\n      0x0c\n        /* \"solady/src/tokens/ERC20.sol\":13959:14004  mstore(0x0c, or(from_, _ALLOWANCE_SLOT_SEED)) */\n      mstore\n        /* \"solady/src/tokens/ERC20.sol\":14058:14062  0x34 */\n      0x34\n        /* \"solady/src/tokens/ERC20.sol\":14052:14056  0x0c */\n      0x0c\n        /* \"solady/src/tokens/ERC20.sol\":14042:14063  keccak256(0x0c, 0x34) */\n      keccak256\n        /* \"solady/src/tokens/ERC20.sol\":14104:14117  allowanceSlot */\n      dup1\n        /* \"solady/src/tokens/ERC20.sol\":14098:14118  sload(allowanceSlot) */\n      sload\n        /* \"solady/src/tokens/ERC20.sol\":14212:14222  allowance_ */\n      dup1\n        /* \"solady/src/tokens/ERC20.sol\":14208:14223  not(allowance_) */\n      not\n        /* \"solady/src/tokens/ERC20.sol\":14205:14652  if not(allowance_) {... */\n      iszero\n      tag_138\n      jumpi\n        /* \"solady/src/tokens/ERC20.sol\":14345:14355  allowance_ */\n      dup1\n        /* \"solady/src/tokens/ERC20.sol\":14337:14343  amount */\n      dup6\n        /* \"solady/src/tokens/ERC20.sol\":14334:14356  gt(amount, allowance_) */\n      gt\n        /* \"solady/src/tokens/ERC20.sol\":14331:14502  if gt(amount, allowance_) {... */\n      iszero\n      tag_139\n      jumpi\n        /* \"solady/src/tokens/ERC20.sol\":14396:14406  0x13be252b */\n      0x13be252b\n        /* \"solady/src/tokens/ERC20.sol\":14390:14394  0x00 */\n      0x00\n        /* \"solady/src/tokens/ERC20.sol\":14383:14407  mstore(0x00, 0x13be252b) */\n      mstore\n        /* \"solady/src/tokens/ERC20.sol\":14475:14479  0x04 */\n      0x04\n        /* \"solady/src/tokens/ERC20.sol\":14469:14473  0x1c */\n      0x1c\n        /* \"solady/src/tokens/ERC20.sol\":14462:14480  revert(0x1c, 0x04) */\n      revert\n        /* \"solady/src/tokens/ERC20.sol\":14331:14502  if gt(amount, allowance_) {... */\n    tag_139:\n        /* \"solady/src/tokens/ERC20.sol\":14626:14632  amount */\n      dup5\n        /* \"solady/src/tokens/ERC20.sol\":14614:14624  allowance_ */\n      dup2\n        /* \"solady/src/tokens/ERC20.sol\":14610:14633  sub(allowance_, amount) */\n      sub\n        /* \"solady/src/tokens/ERC20.sol\":14595:14608  allowanceSlot */\n      dup3\n        /* \"solady/src/tokens/ERC20.sol\":14588:14634  sstore(allowanceSlot, sub(allowance_, amount)) */\n      sstore\n        /* \"solady/src/tokens/ERC20.sol\":14205:14652  if not(allowance_) {... */\n    tag_138:\n        /* \"solady/src/tokens/ERC20.sol\":14756:14774  _BALANCE_SLOT_SEED */\n      0x87a211a2\n        /* \"solady/src/tokens/ERC20.sol\":14749:14754  from_ */\n      dup4\n        /* \"solady/src/tokens/ERC20.sol\":14746:14775  or(from_, _BALANCE_SLOT_SEED) */\n      or\n        /* \"solady/src/tokens/ERC20.sol\":14740:14744  0x0c */\n      0x0c\n        /* \"solady/src/tokens/ERC20.sol\":14733:14776  mstore(0x0c, or(from_, _BALANCE_SLOT_SEED)) */\n      mstore\n        /* \"solady/src/tokens/ERC20.sol\":14832:14836  0x20 */\n      0x20\n        /* \"solady/src/tokens/ERC20.sol\":14826:14830  0x0c */\n      0x0c\n        /* \"solady/src/tokens/ERC20.sol\":14816:14837  keccak256(0x0c, 0x20) */\n      keccak256\n        /* \"solady/src/tokens/ERC20.sol\":14879:14894  fromBalanceSlot */\n      dup1\n        /* \"solady/src/tokens/ERC20.sol\":14873:14895  sload(fromBalanceSlot) */\n      sload\n        /* \"solady/src/tokens/ERC20.sol\":14977:14988  fromBalance */\n      dup1\n        /* \"solady/src/tokens/ERC20.sol\":14969:14975  amount */\n      dup8\n        /* \"solady/src/tokens/ERC20.sol\":14966:14989  gt(amount, fromBalance) */\n      gt\n        /* \"solady/src/tokens/ERC20.sol\":14963:15121  if gt(amount, fromBalance) {... */\n      iszero\n      tag_140\n      jumpi\n        /* \"solady/src/tokens/ERC20.sol\":15025:15035  0xf4d678b8 */\n      0xf4d678b8\n        /* \"solady/src/tokens/ERC20.sol\":15019:15023  0x00 */\n      0x00\n        /* \"solady/src/tokens/ERC20.sol\":15012:15036  mstore(0x00, 0xf4d678b8) */\n      mstore\n        /* \"solady/src/tokens/ERC20.sol\":15098:15102  0x04 */\n      0x04\n        /* \"solady/src/tokens/ERC20.sol\":15092:15096  0x1c */\n      0x1c\n        /* \"solady/src/tokens/ERC20.sol\":15085:15103  revert(0x1c, 0x04) */\n      revert\n        /* \"solady/src/tokens/ERC20.sol\":14963:15121  if gt(amount, fromBalance) {... */\n    tag_140:\n        /* \"solady/src/tokens/ERC20.sol\":15238:15244  amount */\n      dup7\n        /* \"solady/src/tokens/ERC20.sol\":15225:15236  fromBalance */\n      dup2\n        /* \"solady/src/tokens/ERC20.sol\":15221:15245  sub(fromBalance, amount) */\n      sub\n        /* \"solady/src/tokens/ERC20.sol\":15204:15219  fromBalanceSlot */\n      dup3\n        /* \"solady/src/tokens/ERC20.sol\":15197:15246  sstore(fromBalanceSlot, sub(fromBalance, amount)) */\n      sstore\n        /* \"solady/src/tokens/ERC20.sol\":15329:15331  to */\n      dup8\n        /* \"solady/src/tokens/ERC20.sol\":15323:15327  0x00 */\n      0x00\n        /* \"solady/src/tokens/ERC20.sol\":15316:15332  mstore(0x00, to) */\n      mstore\n        /* \"solady/src/tokens/ERC20.sol\":15386:15390  0x20 */\n      0x20\n        /* \"solady/src/tokens/ERC20.sol\":15380:15384  0x0c */\n      0x0c\n        /* \"solady/src/tokens/ERC20.sol\":15370:15391  keccak256(0x0c, 0x20) */\n      keccak256\n        /* \"solady/src/tokens/ERC20.sol\":15652:15658  amount */\n      dup8\n        /* \"solady/src/tokens/ERC20.sol\":15636:15649  toBalanceSlot */\n      dup2\n        /* \"solady/src/tokens/ERC20.sol\":15630:15650  sload(toBalanceSlot) */\n      sload\n        /* \"solady/src/tokens/ERC20.sol\":15626:15659  add(sload(toBalanceSlot), amount) */\n      add\n        /* \"solady/src/tokens/ERC20.sol\":15611:15624  toBalanceSlot */\n      dup2\n        /* \"solady/src/tokens/ERC20.sol\":15604:15660  sstore(toBalanceSlot, add(sload(toBalanceSlot), amount)) */\n      sstore\n        /* \"solady/src/tokens/ERC20.sol\":15736:15742  amount */\n      dup8\n        /* \"solady/src/tokens/ERC20.sol\":15730:15734  0x20 */\n      0x20\n        /* \"solady/src/tokens/ERC20.sol\":15723:15743  mstore(0x20, amount) */\n      mstore\n        /* \"solady/src/tokens/ERC20.sol\":15834:15838  0x0c */\n      0x0c\n        /* \"solady/src/tokens/ERC20.sol\":15828:15839  mload(0x0c) */\n      mload\n        /* \"solady/src/tokens/ERC20.sol\":15824:15826  96 */\n      0x60\n        /* \"solady/src/tokens/ERC20.sol\":15820:15840  shr(96, mload(0x0c)) */\n      shr\n        /* \"solady/src/tokens/ERC20.sol\":15812:15817  from_ */\n      dup7\n        /* \"solady/src/tokens/ERC20.sol\":15808:15810  96 */\n      0x60\n        /* \"solady/src/tokens/ERC20.sol\":15804:15818  shr(96, from_) */\n      shr\n        /* \"solady/src/tokens/ERC20.sol\":15777:15802  _TRANSFER_EVENT_SIGNATURE */\n      0xddf252ad1be2c89b69c2b068fc378daa952ba7f163c4a11628f55a4df523b3ef\n        /* \"solady/src/tokens/ERC20.sol\":15771:15775  0x20 */\n      0x20\n        /* \"solady/src/tokens/ERC20.sol\":15765:15769  0x20 */\n      dup1\n        /* \"solady/src/tokens/ERC20.sol\":15760:15841  log3(0x20, 0x20, _TRANSFER_EVENT_SIGNATURE, shr(96, from_), shr(96, mload(0x0c))) */\n      log3\n        /* \"solady/src/tokens/ERC20.sol\":13793:15855  {... */\n      pop\n      pop\n      pop\n      pop\n      pop\n      pop\n        /* \"solady/src/tokens/ERC20.sol\":11408:15865  if (_givePermit2InfiniteAllowance()) {... */\n    tag_137:\n        /* \"solady/src/tokens/ERC20.sol\":15874:15911  _afterTokenTransfer(from, to, amount) */\n      tag_141\n        /* \"solady/src/tokens/ERC20.sol\":15894:15898  from */\n      dup5\n        /* \"solady/src/tokens/ERC20.sol\":15900:15902  to */\n      dup5\n        /* \"solady/src/tokens/ERC20.sol\":15904:15910  amount */\n      dup5\n        /* \"solady/src/tokens/ERC20.sol\":15874:15893  _afterTokenTransfer */\n      tag_142\n        /* \"solady/src/tokens/ERC20.sol\":15874:15911  _afterTokenTransfer(from, to, amount) */\n      jump\t// in\n    tag_141:\n        /* \"solady/src/tokens/ERC20.sol\":15928:15932  true */\n      0x01\n        /* \"solady/src/tokens/ERC20.sol\":15921:15932  return true */\n      swap1\n      pop\n        /* \"solady/src/tokens/ERC20.sol\":11186:15939  function transferFrom(address from, address to, uint256 amount) public virtual returns (bool) {... */\n      swap4\n      swap3\n      pop\n      pop\n      pop\n      jump\t// out\n        /* \"solady/src/auth/Ownable.sol\":9021:9638  function requestOwnershipHandover() public payable virtual {... */\n    tag_49:\n        /* \"solady/src/auth/Ownable.sol\":9114:9129  uint256 expires */\n      0x00\n        /* \"solady/src/auth/Ownable.sol\":9150:9178  _ownershipHandoverValidFor() */\n      tag_144\n        /* \"solady/src/auth/Ownable.sol\":9150:9176  _ownershipHandoverValidFor */\n      tag_145\n        /* \"solady/src/auth/Ownable.sol\":9150:9178  _ownershipHandoverValidFor() */\n      jump\t// in\n    tag_144:\n        /* \"solady/src/auth/Ownable.sol\":9132:9178  block.timestamp + _ownershipHandoverValidFor() */\n      0xffffffffffffffff\n      and\n        /* \"solady/src/auth/Ownable.sol\":9132:9147  block.timestamp */\n      timestamp\n        /* \"solady/src/auth/Ownable.sol\":9132:9178  block.timestamp + _ownershipHandoverValidFor() */\n      add\n        /* \"solady/src/auth/Ownable.sol\":9114:9178  uint256 expires = block.timestamp + _ownershipHandoverValidFor() */\n      swap1\n      pop\n        /* \"solady/src/auth/Ownable.sol\":9346:9365  _HANDOVER_SLOT_SEED */\n      0x389a75e1\n        /* \"solady/src/auth/Ownable.sol\":9340:9344  0x0c */\n      0x0c\n        /* \"solady/src/auth/Ownable.sol\":9333:9366  mstore(0x0c, _HANDOVER_SLOT_SEED) */\n      mstore\n        /* \"solady/src/auth/Ownable.sol\":9396:9404  caller() */\n      caller\n        /* \"solady/src/auth/Ownable.sol\":9390:9394  0x00 */\n      0x00\n        /* \"solady/src/auth/Ownable.sol\":9383:9405  mstore(0x00, caller()) */\n      mstore\n        /* \"solady/src/auth/Ownable.sol\":9452:9459  expires */\n      dup1\n        /* \"solady/src/auth/Ownable.sol\":9445:9449  0x20 */\n      0x20\n        /* \"solady/src/auth/Ownable.sol\":9439:9443  0x0c */\n      0x0c\n        /* \"solady/src/auth/Ownable.sol\":9429:9450  keccak256(0x0c, 0x20) */\n      keccak256\n        /* \"solady/src/auth/Ownable.sol\":9422:9460  sstore(keccak256(0x0c, 0x20), expires) */\n      sstore\n        /* \"solady/src/auth/Ownable.sol\":9599:9607  caller() */\n      caller\n        /* \"solady/src/auth/Ownable.sol\":9552:9597  _OWNERSHIP_HANDOVER_REQUESTED_EVENT_SIGNATURE */\n      0xdbf36a107da19e49527a7176a1babf963b4b0ff8cde35ee35d6cd8f1f9ac7e1d\n        /* \"solady/src/auth/Ownable.sol\":9549:9550  0 */\n      0x00\n        /* \"solady/src/auth/Ownable.sol\":9546:9547  0 */\n      dup1\n        /* \"solady/src/auth/Ownable.sol\":9541:9608  log2(0, 0, _OWNERSHIP_HANDOVER_REQUESTED_EVENT_SIGNATURE, caller()) */\n      log2\n        /* \"solady/src/auth/Ownable.sol\":9248:9622  {... */\n      pop\n        /* \"solady/src/auth/Ownable.sol\":9021:9638  function requestOwnershipHandover() public payable virtual {... */\n      jump\t// out\n        /* \"tokena.sol\":1202:1302  function decimals() public view virtual override returns (uint8) {... */\n    tag_52:\n        /* \"tokena.sol\":1260:1265  uint8 */\n      0x00\n        /* \"tokena.sol\":1285:1294  decimals_ */\n      immutable(\"0x777852512dc63fa8e441f03006b749793ff7c58fe5517f59d47a8bd550149fb3\")\n        /* \"tokena.sol\":1278:1294  return decimals_ */\n      swap1\n      pop\n        /* \"tokena.sol\":1202:1302  function decimals() public view virtual override returns (uint8) {... */\n      swap1\n      jump\t// out\n        /* \"solady/src/tokens/ERC20.sol\":21479:22216  function DOMAIN_SEPARATOR() public view virtual returns (bytes32 result) {... */\n    tag_57:\n        /* \"solady/src/tokens/ERC20.sol\":21536:21550  bytes32 result */\n      0x00\n        /* \"solady/src/tokens/ERC20.sol\":21562:21578  bytes32 nameHash */\n      dup1\n        /* \"solady/src/tokens/ERC20.sol\":21581:21600  _constantNameHash() */\n      tag_148\n        /* \"solady/src/tokens/ERC20.sol\":21581:21598  _constantNameHash */\n      tag_149\n        /* \"solady/src/tokens/ERC20.sol\":21581:21600  _constantNameHash() */\n      jump\t// in\n    tag_148:\n        /* \"solady/src/tokens/ERC20.sol\":21562:21600  bytes32 nameHash = _constantNameHash() */\n      swap1\n      pop\n        /* \"solady/src/tokens/ERC20.sol\":21728:21729  0 */\n      0x00\n        /* \"solady/src/tokens/ERC20.sol\":21720:21730  bytes32(0) */\n      dup1\n      shl\n        /* \"solady/src/tokens/ERC20.sol\":21708:21716  nameHash */\n      dup2\n        /* \"solady/src/tokens/ERC20.sol\":21708:21730  nameHash == bytes32(0) */\n      sub\n        /* \"solady/src/tokens/ERC20.sol\":21704:21767  if (nameHash == bytes32(0)) nameHash = keccak256(bytes(name())) */\n      tag_150\n      jumpi\n        /* \"solady/src/tokens/ERC20.sol\":21759:21765  name() */\n      tag_151\n        /* \"solady/src/tokens/ERC20.sol\":21759:21763  name */\n      tag_27\n        /* \"solady/src/tokens/ERC20.sol\":21759:21765  name() */\n      jump\t// in\n    tag_151:\n        /* \"solady/src/tokens/ERC20.sol\":21743:21767  keccak256(bytes(name())) */\n      dup1\n      mload\n      swap1\n      0x20\n      add\n      keccak256\n        /* \"solady/src/tokens/ERC20.sol\":21732:21767  nameHash = keccak256(bytes(name())) */\n      swap1\n      pop\n        /* \"solady/src/tokens/ERC20.sol\":21704:21767  if (nameHash == bytes32(0)) nameHash = keccak256(bytes(name())) */\n    tag_150:\n        /* \"solady/src/tokens/ERC20.sol\":21777:21796  bytes32 versionHash */\n      0x00\n        /* \"solady/src/tokens/ERC20.sol\":21799:21813  _versionHash() */\n      tag_152\n        /* \"solady/src/tokens/ERC20.sol\":21799:21811  _versionHash */\n      tag_153\n        /* \"solady/src/tokens/ERC20.sol\":21799:21813  _versionHash() */\n      jump\t// in\n    tag_152:\n        /* \"solady/src/tokens/ERC20.sol\":21777:21813  bytes32 versionHash = _versionHash() */\n      swap1\n      pop\n        /* \"solady/src/tokens/ERC20.sol\":21904:21908  0x40 */\n      0x40\n        /* \"solady/src/tokens/ERC20.sol\":21898:21909  mload(0x40) */\n      mload\n        /* \"solady/src/tokens/ERC20.sol\":21965:21981  _DOMAIN_TYPEHASH */\n      0x8b73c3c69bb8fe3d512ecc4cf759cc79239f7b179b0ffacaa9a75d522b39400f\n        /* \"solady/src/tokens/ERC20.sol\":21962:21963  m */\n      dup2\n        /* \"solady/src/tokens/ERC20.sol\":21955:21982  mstore(m, _DOMAIN_TYPEHASH) */\n      mstore\n        /* \"solady/src/tokens/ERC20.sol\":22016:22024  nameHash */\n      dup3\n        /* \"solady/src/tokens/ERC20.sol\":22009:22013  0x20 */\n      0x20\n        /* \"solady/src/tokens/ERC20.sol\":22006:22007  m */\n      dup3\n        /* \"solady/src/tokens/ERC20.sol\":22002:22014  add(m, 0x20) */\n      add\n        /* \"solady/src/tokens/ERC20.sol\":21995:22025  mstore(add(m, 0x20), nameHash) */\n      mstore\n        /* \"solady/src/tokens/ERC20.sol\":22059:22070  versionHash */\n      dup2\n        /* \"solady/src/tokens/ERC20.sol\":22052:22056  0x40 */\n      0x40\n        /* \"solady/src/tokens/ERC20.sol\":22049:22050  m */\n      dup3\n        /* \"solady/src/tokens/ERC20.sol\":22045:22057  add(m, 0x40) */\n      add\n        /* \"solady/src/tokens/ERC20.sol\":22038:22071  mstore(add(m, 0x40), versionHash) */\n      mstore\n        /* \"solady/src/tokens/ERC20.sol\":22105:22114  chainid() */\n      chainid\n        /* \"solady/src/tokens/ERC20.sol\":22098:22102  0x60 */\n      0x60\n        /* \"solady/src/tokens/ERC20.sol\":22095:22096  m */\n      dup3\n        /* \"solady/src/tokens/ERC20.sol\":22091:22103  add(m, 0x60) */\n      add\n        /* \"solady/src/tokens/ERC20.sol\":22084:22115  mstore(add(m, 0x60), chainid()) */\n      mstore\n        /* \"solady/src/tokens/ERC20.sol\":22149:22158  address() */\n      address\n        /* \"solady/src/tokens/ERC20.sol\":22142:22146  0x80 */\n      0x80\n        /* \"solady/src/tokens/ERC20.sol\":22139:22140  m */\n      dup3\n        /* \"solady/src/tokens/ERC20.sol\":22135:22147  add(m, 0x80) */\n      add\n        /* \"solady/src/tokens/ERC20.sol\":22128:22159  mstore(add(m, 0x80), address()) */\n      mstore\n        /* \"solady/src/tokens/ERC20.sol\":22195:22199  0xa0 */\n      0xa0\n        /* \"solady/src/tokens/ERC20.sol\":22192:22193  m */\n      dup2\n        /* \"solady/src/tokens/ERC20.sol\":22182:22200  keccak256(m, 0xa0) */\n      keccak256\n        /* \"solady/src/tokens/ERC20.sol\":22172:22200  result := keccak256(m, 0xa0) */\n      swap4\n      pop\n        /* \"solady/src/tokens/ERC20.sol\":21875:22210  {... */\n      pop\n      pop\n      pop\n        /* \"solady/src/tokens/ERC20.sol\":21479:22216  function DOMAIN_SEPARATOR() public view virtual returns (bytes32 result) {... */\n      swap1\n      jump\t// out\n        /* \"tokena.sol\":1310:1417  function mint(address account, uint256 amount) external onlyOwner {... */\n    tag_63:\n        /* \"solady/src/auth/Ownable.sol\":12517:12530  _checkOwner() */\n      tag_155\n        /* \"solady/src/auth/Ownable.sol\":12517:12528  _checkOwner */\n      tag_156\n        /* \"solady/src/auth/Ownable.sol\":12517:12530  _checkOwner() */\n      jump\t// in\n    tag_155:\n        /* \"tokena.sol\":1387:1409  _mint(account, amount) */\n      tag_158\n        /* \"tokena.sol\":1393:1400  account */\n      dup3\n        /* \"tokena.sol\":1402:1408  amount */\n      dup3\n        /* \"tokena.sol\":1387:1392  _mint */\n      tag_159\n        /* \"tokena.sol\":1387:1409  _mint(account, amount) */\n      jump\t// in\n    tag_158:\n        /* \"tokena.sol\":1310:1417  function mint(address account, uint256 amount) external onlyOwner {... */\n      pop\n      pop\n      jump\t// out\n        /* \"solady/src/auth/Ownable.sol\":9720:10176  function cancelOwnershipHandover() public payable virtual {... */\n    tag_65:\n        /* \"solady/src/auth/Ownable.sol\":9922:9941  _HANDOVER_SLOT_SEED */\n      0x389a75e1\n        /* \"solady/src/auth/Ownable.sol\":9916:9920  0x0c */\n      0x0c\n        /* \"solady/src/auth/Ownable.sol\":9909:9942  mstore(0x0c, _HANDOVER_SLOT_SEED) */\n      mstore\n        /* \"solady/src/auth/Ownable.sol\":9968:9976  caller() */\n      caller\n        /* \"solady/src/auth/Ownable.sol\":9962:9966  0x00 */\n      0x00\n        /* \"solady/src/auth/Ownable.sol\":9955:9977  mstore(0x00, caller()) */\n      mstore\n        /* \"solady/src/auth/Ownable.sol\":10020:10021  0 */\n      0x00\n        /* \"solady/src/auth/Ownable.sol\":10013:10017  0x20 */\n      0x20\n        /* \"solady/src/auth/Ownable.sol\":10007:10011  0x0c */\n      0x0c\n        /* \"solady/src/auth/Ownable.sol\":9997:10018  keccak256(0x0c, 0x20) */\n      keccak256\n        /* \"solady/src/auth/Ownable.sol\":9990:10022  sstore(keccak256(0x0c, 0x20), 0) */\n      sstore\n        /* \"solady/src/auth/Ownable.sol\":10151:10159  caller() */\n      caller\n        /* \"solady/src/auth/Ownable.sol\":10105:10149  _OWNERSHIP_HANDOVER_CANCELED_EVENT_SIGNATURE */\n      0xfa7b8eab7da67f412cc9575ed43464468f9bfbae89d1675917346ca6d8fe3c92\n        /* \"solady/src/auth/Ownable.sol\":10102:10103  0 */\n      0x00\n        /* \"solady/src/auth/Ownable.sol\":10099:10100  0 */\n      dup1\n        /* \"solady/src/auth/Ownable.sol\":10094:10160  log2(0, 0, _OWNERSHIP_HANDOVER_CANCELED_EVENT_SIGNATURE, caller()) */\n      log2\n        /* \"solady/src/auth/Ownable.sol\":9720:10176  function cancelOwnershipHandover() public payable virtual {... */\n      jump\t// out\n        /* \"solady/src/tokens/ERC20.sol\":7189:7475  function balanceOf(address owner) public view virtual returns (uint256 result) {... */\n    tag_70:\n        /* \"solady/src/tokens/ERC20.sol\":7252:7266  uint256 result */\n      0x00\n        /* \"solady/src/tokens/ERC20.sol\":7357:7375  _BALANCE_SLOT_SEED */\n      0x87a211a2\n        /* \"solady/src/tokens/ERC20.sol\":7351:7355  0x0c */\n      0x0c\n        /* \"solady/src/tokens/ERC20.sol\":7344:7376  mstore(0x0c, _BALANCE_SLOT_SEED) */\n      mstore\n        /* \"solady/src/tokens/ERC20.sol\":7402:7407  owner */\n      dup2\n        /* \"solady/src/tokens/ERC20.sol\":7396:7400  0x00 */\n      0x00\n        /* \"solady/src/tokens/ERC20.sol\":7389:7408  mstore(0x00, owner) */\n      mstore\n        /* \"solady/src/tokens/ERC20.sol\":7453:7457  0x20 */\n      0x20\n        /* \"solady/src/tokens/ERC20.sol\":7447:7451  0x0c */\n      0x0c\n        /* \"solady/src/tokens/ERC20.sol\":7437:7458  keccak256(0x0c, 0x20) */\n      keccak256\n        /* \"solady/src/tokens/ERC20.sol\":7431:7459  sload(keccak256(0x0c, 0x20)) */\n      sload\n        /* \"solady/src/tokens/ERC20.sol\":7421:7459  result := sload(keccak256(0x0c, 0x20)) */\n      swap1\n      pop\n        /* \"solady/src/tokens/ERC20.sol\":7189:7475  function balanceOf(address owner) public view virtual returns (uint256 result) {... */\n      swap2\n      swap1\n      pop\n      jump\t// out\n        /* \"solady/src/auth/Ownable.sol\":8762:8862  function renounceOwnership() public payable virtual onlyOwner {... */\n    tag_73:\n        /* \"solady/src/auth/Ownable.sol\":12517:12530  _checkOwner() */\n      tag_163\n        /* \"solady/src/auth/Ownable.sol\":12517:12528  _checkOwner */\n      tag_156\n        /* \"solady/src/auth/Ownable.sol\":12517:12530  _checkOwner() */\n      jump\t// in\n    tag_163:\n        /* \"solady/src/auth/Ownable.sol\":8834:8855  _setOwner(address(0)) */\n      tag_165\n        /* \"solady/src/auth/Ownable.sol\":8852:8853  0 */\n      0x00\n        /* \"solady/src/auth/Ownable.sol\":8834:8843  _setOwner */\n      tag_166\n        /* \"solady/src/auth/Ownable.sol\":8834:8855  _setOwner(address(0)) */\n      jump\t// in\n    tag_165:\n        /* \"solady/src/auth/Ownable.sol\":8762:8862  function renounceOwnership() public payable virtual onlyOwner {... */\n      jump\t// out\n        /* \"solady/src/tokens/ERC20.sol\":17158:17498  function nonces(address owner) public view virtual returns (uint256 result) {... */\n    tag_77:\n        /* \"solady/src/tokens/ERC20.sol\":17218:17232  uint256 result */\n      0x00\n        /* \"solady/src/tokens/ERC20.sol\":17381:17398  _NONCES_SLOT_SEED */\n      0x38377508\n        /* \"solady/src/tokens/ERC20.sol\":17375:17379  0x0c */\n      0x0c\n        /* \"solady/src/tokens/ERC20.sol\":17368:17399  mstore(0x0c, _NONCES_SLOT_SEED) */\n      mstore\n        /* \"solady/src/tokens/ERC20.sol\":17425:17430  owner */\n      dup2\n        /* \"solady/src/tokens/ERC20.sol\":17419:17423  0x00 */\n      0x00\n        /* \"solady/src/tokens/ERC20.sol\":17412:17431  mstore(0x00, owner) */\n      mstore\n        /* \"solady/src/tokens/ERC20.sol\":17476:17480  0x20 */\n      0x20\n        /* \"solady/src/tokens/ERC20.sol\":17470:17474  0x0c */\n      0x0c\n        /* \"solady/src/tokens/ERC20.sol\":17460:17481  keccak256(0x0c, 0x20) */\n      keccak256\n        /* \"solady/src/tokens/ERC20.sol\":17454:17482  sload(keccak256(0x0c, 0x20)) */\n      sload\n        /* \"solady/src/tokens/ERC20.sol\":17444:17482  result := sload(keccak256(0x0c, 0x20)) */\n      swap1\n      pop\n        /* \"solady/src/tokens/ERC20.sol\":17158:17498  function nonces(address owner) public view virtual returns (uint256 result) {... */\n      swap2\n      swap1\n      pop\n      jump\t// out\n        /* \"solady/src/auth/Ownable.sol\":11408:11590  function owner() public view virtual returns (address result) {... */\n    tag_81:\n        /* \"solady/src/auth/Ownable.sol\":11454:11468  address result */\n      0x00\n        /* \"solady/src/auth/Ownable.sol\":11562:11573  _OWNER_SLOT */\n      0xffffffffffffffffffffffffffffffffffffffffffffffffffffffff74873927\n        /* \"solady/src/auth/Ownable.sol\":11556:11574  sload(_OWNER_SLOT) */\n      sload\n        /* \"solady/src/auth/Ownable.sol\":11546:11574  result := sload(_OWNER_SLOT) */\n      swap1\n      pop\n        /* \"solady/src/auth/Ownable.sol\":11408:11590  function owner() public view virtual returns (address result) {... */\n      swap1\n      jump\t// out\n        /* \"tokena.sol\":1009:1113  function symbol() public view virtual override returns (string memory) {... */\n    tag_86:\n        /* \"tokena.sol\":1065:1078  string memory */\n      0x60\n        /* \"tokena.sol\":1098:1105  symbol_ */\n      0x01\n        /* \"tokena.sol\":1091:1105  return symbol_ */\n      dup1\n      sload\n      tag_170\n      swap1\n      tag_117\n      jump\t// in\n    tag_170:\n      dup1\n      0x1f\n      add\n      0x20\n      dup1\n      swap2\n      div\n      mul\n      0x20\n      add\n      mload(0x40)\n      swap1\n      dup2\n      add\n      0x40\n      mstore\n      dup1\n      swap3\n      swap2\n      swap1\n      dup2\n      dup2\n      mstore\n      0x20\n      add\n      dup3\n      dup1\n      sload\n      tag_171\n      swap1\n      tag_117\n      jump\t// in\n    tag_171:\n      dup1\n      iszero\n      tag_172\n      jumpi\n      dup1\n      0x1f\n      lt\n      tag_173\n      jumpi\n      0x0100\n      dup1\n      dup4\n      sload\n      div\n      mul\n      dup4\n      mstore\n      swap2\n      0x20\n      add\n      swap2\n      jump(tag_172)\n    tag_173:\n      dup3\n      add\n      swap2\n      swap1\n      0x00\n      mstore\n      keccak256(0x00, 0x20)\n      swap1\n    tag_174:\n      dup2\n      sload\n      dup2\n      mstore\n      swap1\n      0x01\n      add\n      swap1\n      0x20\n      add\n      dup1\n      dup4\n      gt\n      tag_174\n      jumpi\n      dup3\n      swap1\n      sub\n      0x1f\n      and\n      dup3\n      add\n      swap2\n    tag_172:\n      pop\n      pop\n      pop\n      pop\n      pop\n      swap1\n      pop\n        /* \"tokena.sol\":1009:1113  function symbol() public view virtual override returns (string memory) {... */\n      swap1\n      jump\t// out\n        /* \"solady/src/tokens/ERC20.sol\":9412:10818  function transfer(address to, uint256 amount) public virtual returns (bool) {... */\n    tag_91:\n        /* \"solady/src/tokens/ERC20.sol\":9482:9486  bool */\n      0x00\n        /* \"solady/src/tokens/ERC20.sol\":9498:9542  _beforeTokenTransfer(msg.sender, to, amount) */\n      tag_176\n        /* \"solady/src/tokens/ERC20.sol\":9519:9529  msg.sender */\n      caller\n        /* \"solady/src/tokens/ERC20.sol\":9531:9533  to */\n      dup5\n        /* \"solady/src/tokens/ERC20.sol\":9535:9541  amount */\n      dup5\n        /* \"solady/src/tokens/ERC20.sol\":9498:9518  _beforeTokenTransfer */\n      tag_130\n        /* \"solady/src/tokens/ERC20.sol\":9498:9542  _beforeTokenTransfer(msg.sender, to, amount) */\n      jump\t// in\n    tag_176:\n        /* \"solady/src/tokens/ERC20.sol\":9691:9709  _BALANCE_SLOT_SEED */\n      0x87a211a2\n        /* \"solady/src/tokens/ERC20.sol\":9685:9689  0x0c */\n      0x0c\n        /* \"solady/src/tokens/ERC20.sol\":9678:9710  mstore(0x0c, _BALANCE_SLOT_SEED) */\n      mstore\n        /* \"solady/src/tokens/ERC20.sol\":9736:9744  caller() */\n      caller\n        /* \"solady/src/tokens/ERC20.sol\":9730:9734  0x00 */\n      0x00\n        /* \"solady/src/tokens/ERC20.sol\":9723:9745  mstore(0x00, caller()) */\n      mstore\n        /* \"solady/src/tokens/ERC20.sol\":9797:9801  0x20 */\n      0x20\n        /* \"solady/src/tokens/ERC20.sol\":9791:9795  0x0c */\n      0x0c\n        /* \"solady/src/tokens/ERC20.sol\":9781:9802  keccak256(0x0c, 0x20) */\n      keccak256\n        /* \"solady/src/tokens/ERC20.sol\":9840:9855  fromBalanceSlot */\n      dup1\n        /* \"solady/src/tokens/ERC20.sol\":9834:9856  sload(fromBalanceSlot) */\n      sload\n        /* \"solady/src/tokens/ERC20.sol\":9930:9941  fromBalance */\n      dup1\n        /* \"solady/src/tokens/ERC20.sol\":9922:9928  amount */\n      dup5\n        /* \"solady/src/tokens/ERC20.sol\":9919:9942  gt(amount, fromBalance) */\n      gt\n        /* \"solady/src/tokens/ERC20.sol\":9916:10062  if gt(amount, fromBalance) {... */\n      iszero\n      tag_177\n      jumpi\n        /* \"solady/src/tokens/ERC20.sol\":9974:9984  0xf4d678b8 */\n      0xf4d678b8\n        /* \"solady/src/tokens/ERC20.sol\":9968:9972  0x00 */\n      0x00\n        /* \"solady/src/tokens/ERC20.sol\":9961:9985  mstore(0x00, 0xf4d678b8) */\n      mstore\n        /* \"solady/src/tokens/ERC20.sol\":10043:10047  0x04 */\n      0x04\n        /* \"solady/src/tokens/ERC20.sol\":10037:10041  0x1c */\n      0x1c\n        /* \"solady/src/tokens/ERC20.sol\":10030:10048  revert(0x1c, 0x04) */\n      revert\n        /* \"solady/src/tokens/ERC20.sol\":9916:10062  if gt(amount, fromBalance) {... */\n    tag_177:\n        /* \"solady/src/tokens/ERC20.sol\":10171:10177  amount */\n      dup4\n        /* \"solady/src/tokens/ERC20.sol\":10158:10169  fromBalance */\n      dup2\n        /* \"solady/src/tokens/ERC20.sol\":10154:10178  sub(fromBalance, amount) */\n      sub\n        /* \"solady/src/tokens/ERC20.sol\":10137:10152  fromBalanceSlot */\n      dup3\n        /* \"solady/src/tokens/ERC20.sol\":10130:10179  sstore(fromBalanceSlot, sub(fromBalance, amount)) */\n      sstore\n        /* \"solady/src/tokens/ERC20.sol\":10254:10256  to */\n      dup5\n        /* \"solady/src/tokens/ERC20.sol\":10248:10252  0x00 */\n      0x00\n        /* \"solady/src/tokens/ERC20.sol\":10241:10257  mstore(0x00, to) */\n      mstore\n        /* \"solady/src/tokens/ERC20.sol\":10307:10311  0x20 */\n      0x20\n        /* \"solady/src/tokens/ERC20.sol\":10301:10305  0x0c */\n      0x0c\n        /* \"solady/src/tokens/ERC20.sol\":10291:10312  keccak256(0x0c, 0x20) */\n      keccak256\n        /* \"solady/src/tokens/ERC20.sol\":10557:10563  amount */\n      dup5\n        /* \"solady/src/tokens/ERC20.sol\":10541:10554  toBalanceSlot */\n      dup2\n        /* \"solady/src/tokens/ERC20.sol\":10535:10555  sload(toBalanceSlot) */\n      sload\n        /* \"solady/src/tokens/ERC20.sol\":10531:10564  add(sload(toBalanceSlot), amount) */\n      add\n        /* \"solady/src/tokens/ERC20.sol\":10516:10529  toBalanceSlot */\n      dup2\n        /* \"solady/src/tokens/ERC20.sol\":10509:10565  sstore(toBalanceSlot, add(sload(toBalanceSlot), amount)) */\n      sstore\n        /* \"solady/src/tokens/ERC20.sol\":10633:10639  amount */\n      dup5\n        /* \"solady/src/tokens/ERC20.sol\":10627:10631  0x20 */\n      0x20\n        /* \"solady/src/tokens/ERC20.sol\":10620:10640  mstore(0x20, amount) */\n      mstore\n        /* \"solady/src/tokens/ERC20.sol\":10721:10725  0x0c */\n      0x0c\n        /* \"solady/src/tokens/ERC20.sol\":10715:10726  mload(0x0c) */\n      mload\n        /* \"solady/src/tokens/ERC20.sol\":10711:10713  96 */\n      0x60\n        /* \"solady/src/tokens/ERC20.sol\":10707:10727  shr(96, mload(0x0c)) */\n      shr\n        /* \"solady/src/tokens/ERC20.sol\":10697:10705  caller() */\n      caller\n        /* \"solady/src/tokens/ERC20.sol\":10670:10695  _TRANSFER_EVENT_SIGNATURE */\n      0xddf252ad1be2c89b69c2b068fc378daa952ba7f163c4a11628f55a4df523b3ef\n        /* \"solady/src/tokens/ERC20.sol\":10664:10668  0x20 */\n      0x20\n        /* \"solady/src/tokens/ERC20.sol\":10658:10662  0x20 */\n      dup1\n        /* \"solady/src/tokens/ERC20.sol\":10653:10728  log3(0x20, 0x20, _TRANSFER_EVENT_SIGNATURE, caller(), shr(96, mload(0x0c))) */\n      log3\n        /* \"solady/src/tokens/ERC20.sol\":9604:10738  {... */\n      pop\n      pop\n      pop\n        /* \"solady/src/tokens/ERC20.sol\":10747:10790  _afterTokenTransfer(msg.sender, to, amount) */\n      tag_178\n        /* \"solady/src/tokens/ERC20.sol\":10767:10777  msg.sender */\n      caller\n        /* \"solady/src/tokens/ERC20.sol\":10779:10781  to */\n      dup5\n        /* \"solady/src/tokens/ERC20.sol\":10783:10789  amount */\n      dup5\n        /* \"solady/src/tokens/ERC20.sol\":10747:10766  _afterTokenTransfer */\n      tag_142\n        /* \"solady/src/tokens/ERC20.sol\":10747:10790  _afterTokenTransfer(msg.sender, to, amount) */\n      jump\t// in\n    tag_178:\n        /* \"solady/src/tokens/ERC20.sol\":10807:10811  true */\n      0x01\n        /* \"solady/src/tokens/ERC20.sol\":10800:10811  return true */\n      swap1\n      pop\n        /* \"solady/src/tokens/ERC20.sol\":9412:10818  function transfer(address to, uint256 amount) public virtual returns (bool) {... */\n      swap3\n      swap2\n      pop\n      pop\n      jump\t// out\n        /* \"solady/src/tokens/ERC20.sol\":17682:21398  function permit(... */\n    tag_97:\n        /* \"solady/src/tokens/ERC20.sol\":17885:17916  _givePermit2InfiniteAllowance() */\n      tag_180\n        /* \"solady/src/tokens/ERC20.sol\":17885:17914  _givePermit2InfiniteAllowance */\n      tag_124\n        /* \"solady/src/tokens/ERC20.sol\":17885:17916  _givePermit2InfiniteAllowance() */\n      jump\t// in\n    tag_180:\n        /* \"solady/src/tokens/ERC20.sol\":17881:18326  if (_givePermit2InfiniteAllowance()) {... */\n      iszero\n      tag_181\n      jumpi\n        /* \"solady/src/tokens/ERC20.sol\":18147:18152  value */\n      dup5\n        /* \"solady/src/tokens/ERC20.sol\":18143:18153  not(value) */\n      not\n        /* \"solady/src/tokens/ERC20.sol\":18136:18154  iszero(not(value)) */\n      iszero\n        /* \"solady/src/tokens/ERC20.sol\":18125:18133  _PERMIT2 */\n      0x22d473030f116ddee9f6b43ac78ba3\n        /* \"solady/src/tokens/ERC20.sol\":18114:18121  spender */\n      dup8\n        /* \"solady/src/tokens/ERC20.sol\":18110:18112  96 */\n      0x60\n        /* \"solady/src/tokens/ERC20.sol\":18106:18122  shl(96, spender) */\n      shl\n        /* \"solady/src/tokens/ERC20.sol\":18102:18104  96 */\n      0x60\n        /* \"solady/src/tokens/ERC20.sol\":18098:18123  shr(96, shl(96, spender)) */\n      shr\n        /* \"solady/src/tokens/ERC20.sol\":18094:18134  xor(shr(96, shl(96, spender)), _PERMIT2) */\n      xor\n        /* \"solady/src/tokens/ERC20.sol\":18091:18155  or(xor(shr(96, shl(96, spender)), _PERMIT2), iszero(not(value))) */\n      or\n        /* \"solady/src/tokens/ERC20.sol\":18081:18302  if iszero(or(xor(shr(96, shl(96, spender)), _PERMIT2), iszero(not(value)))) {... */\n      tag_182\n      jumpi\n        /* \"solady/src/tokens/ERC20.sol\":18192:18202  0x3f68539a */\n      0x3f68539a\n        /* \"solady/src/tokens/ERC20.sol\":18186:18190  0x00 */\n      0x00\n        /* \"solady/src/tokens/ERC20.sol\":18179:18203  mstore(0x00, 0x3f68539a) */\n      mstore\n        /* \"solady/src/tokens/ERC20.sol\":18279:18283  0x04 */\n      0x04\n        /* \"solady/src/tokens/ERC20.sol\":18273:18277  0x1c */\n      0x1c\n        /* \"solady/src/tokens/ERC20.sol\":18266:18284  revert(0x1c, 0x04) */\n      revert\n        /* \"solady/src/tokens/ERC20.sol\":18081:18302  if iszero(or(xor(shr(96, shl(96, spender)), _PERMIT2), iszero(not(value)))) {... */\n    tag_182:\n        /* \"solady/src/tokens/ERC20.sol\":17881:18326  if (_givePermit2InfiniteAllowance()) {... */\n    tag_181:\n        /* \"solady/src/tokens/ERC20.sol\":18335:18351  bytes32 nameHash */\n      0x00\n        /* \"solady/src/tokens/ERC20.sol\":18354:18373  _constantNameHash() */\n      tag_183\n        /* \"solady/src/tokens/ERC20.sol\":18354:18371  _constantNameHash */\n      tag_149\n        /* \"solady/src/tokens/ERC20.sol\":18354:18373  _constantNameHash() */\n      jump\t// in\n    tag_183:\n        /* \"solady/src/tokens/ERC20.sol\":18335:18373  bytes32 nameHash = _constantNameHash() */\n      swap1\n      pop\n        /* \"solady/src/tokens/ERC20.sol\":18501:18502  0 */\n      0x00\n        /* \"solady/src/tokens/ERC20.sol\":18493:18503  bytes32(0) */\n      dup1\n      shl\n        /* \"solady/src/tokens/ERC20.sol\":18481:18489  nameHash */\n      dup2\n        /* \"solady/src/tokens/ERC20.sol\":18481:18503  nameHash == bytes32(0) */\n      sub\n        /* \"solady/src/tokens/ERC20.sol\":18477:18540  if (nameHash == bytes32(0)) nameHash = keccak256(bytes(name())) */\n      tag_184\n      jumpi\n        /* \"solady/src/tokens/ERC20.sol\":18532:18538  name() */\n      tag_185\n        /* \"solady/src/tokens/ERC20.sol\":18532:18536  name */\n      tag_27\n        /* \"solady/src/tokens/ERC20.sol\":18532:18538  name() */\n      jump\t// in\n    tag_185:\n        /* \"solady/src/tokens/ERC20.sol\":18516:18540  keccak256(bytes(name())) */\n      dup1\n      mload\n      swap1\n      0x20\n      add\n      keccak256\n        /* \"solady/src/tokens/ERC20.sol\":18505:18540  nameHash = keccak256(bytes(name())) */\n      swap1\n      pop\n        /* \"solady/src/tokens/ERC20.sol\":18477:18540  if (nameHash == bytes32(0)) nameHash = keccak256(bytes(name())) */\n    tag_184:\n        /* \"solady/src/tokens/ERC20.sol\":18550:18569  bytes32 versionHash */\n      0x00\n        /* \"solady/src/tokens/ERC20.sol\":18572:18586  _versionHash() */\n      tag_186\n        /* \"solady/src/tokens/ERC20.sol\":18572:18584  _versionHash */\n      tag_153\n        /* \"solady/src/tokens/ERC20.sol\":18572:18586  _versionHash() */\n      jump\t// in\n    tag_186:\n        /* \"solady/src/tokens/ERC20.sol\":18550:18586  bytes32 versionHash = _versionHash() */\n      swap1\n      pop\n        /* \"solady/src/tokens/ERC20.sol\":18754:18762  deadline */\n      dup6\n        /* \"solady/src/tokens/ERC20.sol\":18741:18752  timestamp() */\n      timestamp\n        /* \"solady/src/tokens/ERC20.sol\":18738:18763  gt(timestamp(), deadline) */\n      gt\n        /* \"solady/src/tokens/ERC20.sol\":18735:18877  if gt(timestamp(), deadline) {... */\n      iszero\n      tag_187\n      jumpi\n        /* \"solady/src/tokens/ERC20.sol\":18795:18805  0x1a15a3cc */\n      0x1a15a3cc\n        /* \"solady/src/tokens/ERC20.sol\":18789:18793  0x00 */\n      0x00\n        /* \"solady/src/tokens/ERC20.sol\":18782:18806  mstore(0x00, 0x1a15a3cc) */\n      mstore\n        /* \"solady/src/tokens/ERC20.sol\":18858:18862  0x04 */\n      0x04\n        /* \"solady/src/tokens/ERC20.sol\":18852:18856  0x1c */\n      0x1c\n        /* \"solady/src/tokens/ERC20.sol\":18845:18863  revert(0x1c, 0x04) */\n      revert\n        /* \"solady/src/tokens/ERC20.sol\":18735:18877  if gt(timestamp(), deadline) {... */\n    tag_187:\n        /* \"solady/src/tokens/ERC20.sol\":18905:18909  0x40 */\n      0x40\n        /* \"solady/src/tokens/ERC20.sol\":18899:18910  mload(0x40) */\n      mload\n        /* \"solady/src/tokens/ERC20.sol\":19021:19026  owner */\n      dup10\n        /* \"solady/src/tokens/ERC20.sol\":19017:19019  96 */\n      0x60\n        /* \"solady/src/tokens/ERC20.sol\":19013:19027  shl(96, owner) */\n      shl\n        /* \"solady/src/tokens/ERC20.sol\":19009:19011  96 */\n      0x60\n        /* \"solady/src/tokens/ERC20.sol\":19005:19028  shr(96, shl(96, owner)) */\n      shr\n        /* \"solady/src/tokens/ERC20.sol\":18996:19028  owner := shr(96, shl(96, owner)) */\n      swap10\n      pop\n        /* \"solady/src/tokens/ERC20.sol\":19068:19075  spender */\n      dup9\n        /* \"solady/src/tokens/ERC20.sol\":19064:19066  96 */\n      0x60\n        /* \"solady/src/tokens/ERC20.sol\":19060:19076  shl(96, spender) */\n      shl\n        /* \"solady/src/tokens/ERC20.sol\":19056:19058  96 */\n      0x60\n        /* \"solady/src/tokens/ERC20.sol\":19052:19077  shr(96, shl(96, spender)) */\n      shr\n        /* \"solady/src/tokens/ERC20.sol\":19041:19077  spender := shr(96, shl(96, spender)) */\n      swap9\n      pop\n        /* \"solady/src/tokens/ERC20.sol\":19161:19200  _NONCES_SLOT_SEED_WITH_SIGNATURE_PREFIX */\n      0x383775081901\n        /* \"solady/src/tokens/ERC20.sol\":19155:19159  0x0e */\n      0x0e\n        /* \"solady/src/tokens/ERC20.sol\":19148:19201  mstore(0x0e, _NONCES_SLOT_SEED_WITH_SIGNATURE_PREFIX) */\n      mstore\n        /* \"solady/src/tokens/ERC20.sol\":19227:19232  owner */\n      dup10\n        /* \"solady/src/tokens/ERC20.sol\":19221:19225  0x00 */\n      0x00\n        /* \"solady/src/tokens/ERC20.sol\":19214:19233  mstore(0x00, owner) */\n      mstore\n        /* \"solady/src/tokens/ERC20.sol\":19279:19283  0x20 */\n      0x20\n        /* \"solady/src/tokens/ERC20.sol\":19273:19277  0x0c */\n      0x0c\n        /* \"solady/src/tokens/ERC20.sol\":19263:19284  keccak256(0x0c, 0x20) */\n      keccak256\n        /* \"solady/src/tokens/ERC20.sol\":19321:19330  nonceSlot */\n      dup1\n        /* \"solady/src/tokens/ERC20.sol\":19315:19331  sload(nonceSlot) */\n      sload\n        /* \"solady/src/tokens/ERC20.sol\":19399:19415  _DOMAIN_TYPEHASH */\n      0x8b73c3c69bb8fe3d512ecc4cf759cc79239f7b179b0ffacaa9a75d522b39400f\n        /* \"solady/src/tokens/ERC20.sol\":19396:19397  m */\n      dup4\n        /* \"solady/src/tokens/ERC20.sol\":19389:19416  mstore(m, _DOMAIN_TYPEHASH) */\n      mstore\n        /* \"solady/src/tokens/ERC20.sol\":19450:19458  nameHash */\n      dup5\n        /* \"solady/src/tokens/ERC20.sol\":19443:19447  0x20 */\n      0x20\n        /* \"solady/src/tokens/ERC20.sol\":19440:19441  m */\n      dup5\n        /* \"solady/src/tokens/ERC20.sol\":19436:19448  add(m, 0x20) */\n      add\n        /* \"solady/src/tokens/ERC20.sol\":19429:19459  mstore(add(m, 0x20), nameHash) */\n      mstore\n        /* \"solady/src/tokens/ERC20.sol\":19493:19504  versionHash */\n      dup4\n        /* \"solady/src/tokens/ERC20.sol\":19486:19490  0x40 */\n      0x40\n        /* \"solady/src/tokens/ERC20.sol\":19483:19484  m */\n      dup5\n        /* \"solady/src/tokens/ERC20.sol\":19479:19491  add(m, 0x40) */\n      add\n        /* \"solady/src/tokens/ERC20.sol\":19472:19505  mstore(add(m, 0x40), versionHash) */\n      mstore\n        /* \"solady/src/tokens/ERC20.sol\":19539:19548  chainid() */\n      chainid\n        /* \"solady/src/tokens/ERC20.sol\":19532:19536  0x60 */\n      0x60\n        /* \"solady/src/tokens/ERC20.sol\":19529:19530  m */\n      dup5\n        /* \"solady/src/tokens/ERC20.sol\":19525:19537  add(m, 0x60) */\n      add\n        /* \"solady/src/tokens/ERC20.sol\":19518:19549  mstore(add(m, 0x60), chainid()) */\n      mstore\n        /* \"solady/src/tokens/ERC20.sol\":19583:19592  address() */\n      address\n        /* \"solady/src/tokens/ERC20.sol\":19576:19580  0x80 */\n      0x80\n        /* \"solady/src/tokens/ERC20.sol\":19573:19574  m */\n      dup5\n        /* \"solady/src/tokens/ERC20.sol\":19569:19581  add(m, 0x80) */\n      add\n        /* \"solady/src/tokens/ERC20.sol\":19562:19593  mstore(add(m, 0x80), address()) */\n      mstore\n        /* \"solady/src/tokens/ERC20.sol\":19632:19636  0xa0 */\n      0xa0\n        /* \"solady/src/tokens/ERC20.sol\":19629:19630  m */\n      dup4\n        /* \"solady/src/tokens/ERC20.sol\":19619:19637  keccak256(m, 0xa0) */\n      keccak256\n        /* \"solady/src/tokens/ERC20.sol\":19613:19617  0x2e */\n      0x2e\n        /* \"solady/src/tokens/ERC20.sol\":19606:19638  mstore(0x2e, keccak256(m, 0xa0)) */\n      mstore\n        /* \"solady/src/tokens/ERC20.sol\":19701:19717  _PERMIT_TYPEHASH */\n      0x6e71edae12b1b97f4d1f60370fef10105fa2faae0126114a169c64845d6126c9\n        /* \"solady/src/tokens/ERC20.sol\":19698:19699  m */\n      dup4\n        /* \"solady/src/tokens/ERC20.sol\":19691:19718  mstore(m, _PERMIT_TYPEHASH) */\n      mstore\n        /* \"solady/src/tokens/ERC20.sol\":19752:19757  owner */\n      dup12\n        /* \"solady/src/tokens/ERC20.sol\":19745:19749  0x20 */\n      0x20\n        /* \"solady/src/tokens/ERC20.sol\":19742:19743  m */\n      dup5\n        /* \"solady/src/tokens/ERC20.sol\":19738:19750  add(m, 0x20) */\n      add\n        /* \"solady/src/tokens/ERC20.sol\":19731:19758  mstore(add(m, 0x20), owner) */\n      mstore\n        /* \"solady/src/tokens/ERC20.sol\":19792:19799  spender */\n      dup11\n        /* \"solady/src/tokens/ERC20.sol\":19785:19789  0x40 */\n      0x40\n        /* \"solady/src/tokens/ERC20.sol\":19782:19783  m */\n      dup5\n        /* \"solady/src/tokens/ERC20.sol\":19778:19790  add(m, 0x40) */\n      add\n        /* \"solady/src/tokens/ERC20.sol\":19771:19800  mstore(add(m, 0x40), spender) */\n      mstore\n        /* \"solady/src/tokens/ERC20.sol\":19834:19839  value */\n      dup10\n        /* \"solady/src/tokens/ERC20.sol\":19827:19831  0x60 */\n      0x60\n        /* \"solady/src/tokens/ERC20.sol\":19824:19825  m */\n      dup5\n        /* \"solady/src/tokens/ERC20.sol\":19820:19832  add(m, 0x60) */\n      add\n        /* \"solady/src/tokens/ERC20.sol\":19813:19840  mstore(add(m, 0x60), value) */\n      mstore\n        /* \"solady/src/tokens/ERC20.sol\":19874:19884  nonceValue */\n      dup1\n        /* \"solady/src/tokens/ERC20.sol\":19867:19871  0x80 */\n      0x80\n        /* \"solady/src/tokens/ERC20.sol\":19864:19865  m */\n      dup5\n        /* \"solady/src/tokens/ERC20.sol\":19860:19872  add(m, 0x80) */\n      add\n        /* \"solady/src/tokens/ERC20.sol\":19853:19885  mstore(add(m, 0x80), nonceValue) */\n      mstore\n        /* \"solady/src/tokens/ERC20.sol\":19919:19927  deadline */\n      dup9\n        /* \"solady/src/tokens/ERC20.sol\":19912:19916  0xa0 */\n      0xa0\n        /* \"solady/src/tokens/ERC20.sol\":19909:19910  m */\n      dup5\n        /* \"solady/src/tokens/ERC20.sol\":19905:19917  add(m, 0xa0) */\n      add\n        /* \"solady/src/tokens/ERC20.sol\":19898:19928  mstore(add(m, 0xa0), deadline) */\n      mstore\n        /* \"solady/src/tokens/ERC20.sol\":19967:19971  0xc0 */\n      0xc0\n        /* \"solady/src/tokens/ERC20.sol\":19964:19965  m */\n      dup4\n        /* \"solady/src/tokens/ERC20.sol\":19954:19972  keccak256(m, 0xc0) */\n      keccak256\n        /* \"solady/src/tokens/ERC20.sol\":19948:19952  0x4e */\n      0x4e\n        /* \"solady/src/tokens/ERC20.sol\":19941:19973  mstore(0x4e, keccak256(m, 0xc0)) */\n      mstore\n        /* \"solady/src/tokens/ERC20.sol\":20062:20066  0x42 */\n      0x42\n        /* \"solady/src/tokens/ERC20.sol\":20056:20060  0x2c */\n      0x2c\n        /* \"solady/src/tokens/ERC20.sol\":20046:20067  keccak256(0x2c, 0x42) */\n      keccak256\n        /* \"solady/src/tokens/ERC20.sol\":20040:20044  0x00 */\n      0x00\n        /* \"solady/src/tokens/ERC20.sol\":20033:20068  mstore(0x00, keccak256(0x2c, 0x42)) */\n      mstore\n        /* \"solady/src/tokens/ERC20.sol\":20104:20105  v */\n      dup8\n        /* \"solady/src/tokens/ERC20.sol\":20098:20102  0xff */\n      0xff\n        /* \"solady/src/tokens/ERC20.sol\":20094:20106  and(0xff, v) */\n      and\n        /* \"solady/src/tokens/ERC20.sol\":20088:20092  0x20 */\n      0x20\n        /* \"solady/src/tokens/ERC20.sol\":20081:20107  mstore(0x20, and(0xff, v)) */\n      mstore\n        /* \"solady/src/tokens/ERC20.sol\":20133:20134  r */\n      dup7\n        /* \"solady/src/tokens/ERC20.sol\":20127:20131  0x40 */\n      0x40\n        /* \"solady/src/tokens/ERC20.sol\":20120:20135  mstore(0x40, r) */\n      mstore\n        /* \"solady/src/tokens/ERC20.sol\":20161:20162  s */\n      dup6\n        /* \"solady/src/tokens/ERC20.sol\":20155:20159  0x60 */\n      0x60\n        /* \"solady/src/tokens/ERC20.sol\":20148:20163  mstore(0x60, s) */\n      mstore\n        /* \"solady/src/tokens/ERC20.sol\":20224:20228  0x20 */\n      0x20\n        /* \"solady/src/tokens/ERC20.sol\":20218:20222  0x20 */\n      dup1\n        /* \"solady/src/tokens/ERC20.sol\":20212:20216  0x80 */\n      0x80\n        /* \"solady/src/tokens/ERC20.sol\":20206:20210  0x00 */\n      0x00\n        /* \"solady/src/tokens/ERC20.sol\":20203:20204  1 */\n      0x01\n        /* \"solady/src/tokens/ERC20.sol\":20196:20201  gas() */\n      gas\n        /* \"solady/src/tokens/ERC20.sol\":20185:20229  staticcall(gas(), 1, 0x00, 0x80, 0x20, 0x20) */\n      staticcall\n        /* \"solady/src/tokens/ERC20.sol\":20645:20650  owner */\n      dup13\n        /* \"solady/src/tokens/ERC20.sol\":20626:20642  returndatasize() */\n      returndatasize\n        /* \"solady/src/tokens/ERC20.sol\":20620:20643  mload(returndatasize()) */\n      mload\n        /* \"solady/src/tokens/ERC20.sol\":20617:20651  eq(mload(returndatasize()), owner) */\n      eq\n        /* \"solady/src/tokens/ERC20.sol\":20607:20766  if iszero(eq(mload(returndatasize()), owner)) {... */\n      tag_188\n      jumpi\n        /* \"solady/src/tokens/ERC20.sol\":20684:20694  0xddafbaef */\n      0xddafbaef\n        /* \"solady/src/tokens/ERC20.sol\":20678:20682  0x00 */\n      0x00\n        /* \"solady/src/tokens/ERC20.sol\":20671:20695  mstore(0x00, 0xddafbaef) */\n      mstore\n        /* \"solady/src/tokens/ERC20.sol\":20747:20751  0x04 */\n      0x04\n        /* \"solady/src/tokens/ERC20.sol\":20741:20745  0x1c */\n      0x1c\n        /* \"solady/src/tokens/ERC20.sol\":20734:20752  revert(0x1c, 0x04) */\n      revert\n        /* \"solady/src/tokens/ERC20.sol\":20607:20766  if iszero(eq(mload(returndatasize()), owner)) {... */\n    tag_188:\n        /* \"solady/src/tokens/ERC20.sol\":20867:20868  t */\n      dup1\n        /* \"solady/src/tokens/ERC20.sol\":20855:20865  nonceValue */\n      dup3\n        /* \"solady/src/tokens/ERC20.sol\":20851:20869  add(nonceValue, t) */\n      add\n        /* \"solady/src/tokens/ERC20.sol\":20840:20849  nonceSlot */\n      dup4\n        /* \"solady/src/tokens/ERC20.sol\":20833:20870  sstore(nonceSlot, add(nonceValue, t)) */\n      sstore\n        /* \"solady/src/tokens/ERC20.sol\":21081:21088  spender */\n      dup12\n        /* \"solady/src/tokens/ERC20.sol\":21058:21078  _ALLOWANCE_SLOT_SEED */\n      0x7f5e9f20\n        /* \"solady/src/tokens/ERC20.sol\":21053:21056  160 */\n      0xa0\n        /* \"solady/src/tokens/ERC20.sol\":21049:21079  shl(160, _ALLOWANCE_SLOT_SEED) */\n      shl\n        /* \"solady/src/tokens/ERC20.sol\":21046:21089  or(shl(160, _ALLOWANCE_SLOT_SEED), spender) */\n      or\n        /* \"solady/src/tokens/ERC20.sol\":21040:21044  0x40 */\n      0x40\n        /* \"solady/src/tokens/ERC20.sol\":21033:21090  mstore(0x40, or(shl(160, _ALLOWANCE_SLOT_SEED), spender)) */\n      mstore\n        /* \"solady/src/tokens/ERC20.sol\":21133:21138  value */\n      dup11\n        /* \"solady/src/tokens/ERC20.sol\":21126:21130  0x34 */\n      0x34\n        /* \"solady/src/tokens/ERC20.sol\":21120:21124  0x2c */\n      0x2c\n        /* \"solady/src/tokens/ERC20.sol\":21110:21131  keccak256(0x2c, 0x34) */\n      keccak256\n        /* \"solady/src/tokens/ERC20.sol\":21103:21139  sstore(keccak256(0x2c, 0x34), value) */\n      sstore\n        /* \"solady/src/tokens/ERC20.sol\":21253:21260  spender */\n      dup12\n        /* \"solady/src/tokens/ERC20.sol\":21246:21251  owner */\n      dup14\n        /* \"solady/src/tokens/ERC20.sol\":21219:21244  _APPROVAL_EVENT_SIGNATURE */\n      0x8c5be1e5ebec7d5bd14f71427d1e84f3dd0314c0f7b2291e5b200ac8c7c3b925\n        /* \"solady/src/tokens/ERC20.sol\":21213:21217  0x20 */\n      0x20\n        /* \"solady/src/tokens/ERC20.sol\":21206:21210  0x60 */\n      0x60\n        /* \"solady/src/tokens/ERC20.sol\":21203:21204  m */\n      dup9\n        /* \"solady/src/tokens/ERC20.sol\":21199:21211  add(m, 0x60) */\n      add\n        /* \"solady/src/tokens/ERC20.sol\":21194:21261  log3(add(m, 0x60), 0x20, _APPROVAL_EVENT_SIGNATURE, owner, spender) */\n      log3\n        /* \"solady/src/tokens/ERC20.sol\":21287:21288  m */\n      dup4\n        /* \"solady/src/tokens/ERC20.sol\":21281:21285  0x40 */\n      0x40\n        /* \"solady/src/tokens/ERC20.sol\":21274:21289  mstore(0x40, m) */\n      mstore\n        /* \"solady/src/tokens/ERC20.sol\":21351:21352  0 */\n      0x00\n        /* \"solady/src/tokens/ERC20.sol\":21345:21349  0x60 */\n      0x60\n        /* \"solady/src/tokens/ERC20.sol\":21338:21353  mstore(0x60, 0) */\n      mstore\n        /* \"solady/src/tokens/ERC20.sol\":18648:21392  {... */\n      pop\n      pop\n      pop\n      pop\n      pop\n      pop\n        /* \"solady/src/tokens/ERC20.sol\":17682:21398  function permit(... */\n      pop\n      pop\n      pop\n      pop\n      pop\n      pop\n      pop\n      jump\t// out\n        /* \"solady/src/tokens/ERC20.sol\":7570:8065  function allowance(address owner, address spender)... */\n    tag_102:\n        /* \"solady/src/tokens/ERC20.sol\":7682:7696  uint256 result */\n      0x00\n        /* \"solady/src/tokens/ERC20.sol\":7716:7747  _givePermit2InfiniteAllowance() */\n      tag_190\n        /* \"solady/src/tokens/ERC20.sol\":7716:7745  _givePermit2InfiniteAllowance */\n      tag_124\n        /* \"solady/src/tokens/ERC20.sol\":7716:7747  _givePermit2InfiniteAllowance() */\n      jump\t// in\n    tag_190:\n        /* \"solady/src/tokens/ERC20.sol\":7712:7823  if (_givePermit2InfiniteAllowance()) {... */\n      iszero\n      tag_191\n      jumpi\n        /* \"solady/src/tokens/ERC20.sol\":5890:5932  0x000000000022D473030F116dDEE9F6B43aC78BA3 */\n      0x22d473030f116ddee9f6b43ac78ba3\n        /* \"solady/src/tokens/ERC20.sol\":7767:7786  spender == _PERMIT2 */\n      0xffffffffffffffffffffffffffffffffffffffff\n      and\n        /* \"solady/src/tokens/ERC20.sol\":7767:7774  spender */\n      dup3\n        /* \"solady/src/tokens/ERC20.sol\":7767:7786  spender == _PERMIT2 */\n      0xffffffffffffffffffffffffffffffffffffffff\n      and\n      sub\n        /* \"solady/src/tokens/ERC20.sol\":7763:7812  if (spender == _PERMIT2) return type(uint256).max */\n      tag_192\n      jumpi\n        /* \"solady/src/tokens/ERC20.sol\":7795:7812  type(uint256).max */\n      0xffffffffffffffffffffffffffffffffffffffffffffffffffffffffffffffff\n        /* \"solady/src/tokens/ERC20.sol\":7788:7812  return type(uint256).max */\n      swap1\n      pop\n      jump(tag_189)\n        /* \"solady/src/tokens/ERC20.sol\":7763:7812  if (spender == _PERMIT2) return type(uint256).max */\n    tag_192:\n        /* \"solady/src/tokens/ERC20.sol\":7712:7823  if (_givePermit2InfiniteAllowance()) {... */\n    tag_191:\n        /* \"solady/src/tokens/ERC20.sol\":7911:7918  spender */\n      dup2\n        /* \"solady/src/tokens/ERC20.sol\":7905:7909  0x20 */\n      0x20\n        /* \"solady/src/tokens/ERC20.sol\":7898:7919  mstore(0x20, spender) */\n      mstore\n        /* \"solady/src/tokens/ERC20.sol\":7945:7965  _ALLOWANCE_SLOT_SEED */\n      0x7f5e9f20\n        /* \"solady/src/tokens/ERC20.sol\":7939:7943  0x0c */\n      0x0c\n        /* \"solady/src/tokens/ERC20.sol\":7932:7966  mstore(0x0c, _ALLOWANCE_SLOT_SEED) */\n      mstore\n        /* \"solady/src/tokens/ERC20.sol\":7992:7997  owner */\n      dup3\n        /* \"solady/src/tokens/ERC20.sol\":7986:7990  0x00 */\n      0x00\n        /* \"solady/src/tokens/ERC20.sol\":7979:7998  mstore(0x00, owner) */\n      mstore\n        /* \"solady/src/tokens/ERC20.sol\":8043:8047  0x34 */\n      0x34\n        /* \"solady/src/tokens/ERC20.sol\":8037:8041  0x0c */\n      0x0c\n        /* \"solady/src/tokens/ERC20.sol\":8027:8048  keccak256(0x0c, 0x34) */\n      keccak256\n        /* \"solady/src/tokens/ERC20.sol\":8021:8049  sload(keccak256(0x0c, 0x34)) */\n      sload\n        /* \"solady/src/tokens/ERC20.sol\":8011:8049  result := sload(keccak256(0x0c, 0x34)) */\n      swap1\n      pop\n        /* \"solady/src/tokens/ERC20.sol\":7570:8065  function allowance(address owner, address spender)... */\n    tag_189:\n      swap3\n      swap2\n      pop\n      pop\n      jump\t// out\n        /* \"solady/src/auth/Ownable.sol\":10363:11071  function completeOwnershipHandover(address pendingOwner) public payable virtual onlyOwner {... */\n    tag_106:\n        /* \"solady/src/auth/Ownable.sol\":12517:12530  _checkOwner() */\n      tag_194\n        /* \"solady/src/auth/Ownable.sol\":12517:12528  _checkOwner */\n      tag_156\n        /* \"solady/src/auth/Ownable.sol\":12517:12530  _checkOwner() */\n      jump\t// in\n    tag_194:\n        /* \"solady/src/auth/Ownable.sol\":10597:10616  _HANDOVER_SLOT_SEED */\n      0x389a75e1\n        /* \"solady/src/auth/Ownable.sol\":10591:10595  0x0c */\n      0x0c\n        /* \"solady/src/auth/Ownable.sol\":10584:10617  mstore(0x0c, _HANDOVER_SLOT_SEED) */\n      mstore\n        /* \"solady/src/auth/Ownable.sol\":10643:10655  pendingOwner */\n      dup1\n        /* \"solady/src/auth/Ownable.sol\":10637:10641  0x00 */\n      0x00\n        /* \"solady/src/auth/Ownable.sol\":10630:10656  mstore(0x00, pendingOwner) */\n      mstore\n        /* \"solady/src/auth/Ownable.sol\":10705:10709  0x20 */\n      0x20\n        /* \"solady/src/auth/Ownable.sol\":10699:10703  0x0c */\n      0x0c\n        /* \"solady/src/auth/Ownable.sol\":10689:10710  keccak256(0x0c, 0x20) */\n      keccak256\n        /* \"solady/src/auth/Ownable.sol\":10811:10823  handoverSlot */\n      dup1\n        /* \"solady/src/auth/Ownable.sol\":10805:10824  sload(handoverSlot) */\n      sload\n        /* \"solady/src/auth/Ownable.sol\":10792:10803  timestamp() */\n      timestamp\n        /* \"solady/src/auth/Ownable.sol\":10789:10825  gt(timestamp(), sload(handoverSlot)) */\n      gt\n        /* \"solady/src/auth/Ownable.sol\":10786:10943  if gt(timestamp(), sload(handoverSlot)) {... */\n      iszero\n      tag_196\n      jumpi\n        /* \"solady/src/auth/Ownable.sol\":10857:10867  0x6f5e8818 */\n      0x6f5e8818\n        /* \"solady/src/auth/Ownable.sol\":10851:10855  0x00 */\n      0x00\n        /* \"solady/src/auth/Ownable.sol\":10844:10868  mstore(0x00, 0x6f5e8818) */\n      mstore\n        /* \"solady/src/auth/Ownable.sol\":10924:10928  0x04 */\n      0x04\n        /* \"solady/src/auth/Ownable.sol\":10918:10922  0x1c */\n      0x1c\n        /* \"solady/src/auth/Ownable.sol\":10911:10929  revert(0x1c, 0x04) */\n      revert\n        /* \"solady/src/auth/Ownable.sol\":10786:10943  if gt(timestamp(), sload(handoverSlot)) {... */\n    tag_196:\n        /* \"solady/src/auth/Ownable.sol\":11020:11021  0 */\n      0x00\n        /* \"solady/src/auth/Ownable.sol\":11006:11018  handoverSlot */\n      dup2\n        /* \"solady/src/auth/Ownable.sol\":10999:11022  sstore(handoverSlot, 0) */\n      sstore\n        /* \"solady/src/auth/Ownable.sol\":10515:11032  {... */\n      pop\n        /* \"solady/src/auth/Ownable.sol\":11041:11064  _setOwner(pendingOwner) */\n      tag_197\n        /* \"solady/src/auth/Ownable.sol\":11051:11063  pendingOwner */\n      dup2\n        /* \"solady/src/auth/Ownable.sol\":11041:11050  _setOwner */\n      tag_166\n        /* \"solady/src/auth/Ownable.sol\":11041:11064  _setOwner(pendingOwner) */\n      jump\t// in\n    tag_197:\n        /* \"solady/src/auth/Ownable.sol\":10363:11071  function completeOwnershipHandover(address pendingOwner) public payable virtual onlyOwner {... */\n      pop\n      jump\t// out\n        /* \"solady/src/auth/Ownable.sol\":8348:8697  function transferOwnership(address newOwner) public payable virtual onlyOwner {... */\n    tag_109:\n        /* \"solady/src/auth/Ownable.sol\":12517:12530  _checkOwner() */\n      tag_199\n        /* \"solady/src/auth/Ownable.sol\":12517:12528  _checkOwner */\n      tag_156\n        /* \"solady/src/auth/Ownable.sol\":12517:12530  _checkOwner() */\n      jump\t// in\n    tag_199:\n        /* \"solady/src/auth/Ownable.sol\":8520:8528  newOwner */\n      dup1\n        /* \"solady/src/auth/Ownable.sol\":8516:8518  96 */\n      0x60\n        /* \"solady/src/auth/Ownable.sol\":8512:8529  shl(96, newOwner) */\n      shl\n        /* \"solady/src/auth/Ownable.sol\":8502:8652  if iszero(shl(96, newOwner)) {... */\n      tag_201\n      jumpi\n        /* \"solady/src/auth/Ownable.sol\":8562:8572  0x7448fbae */\n      0x7448fbae\n        /* \"solady/src/auth/Ownable.sol\":8556:8560  0x00 */\n      0x00\n        /* \"solady/src/auth/Ownable.sol\":8549:8573  mstore(0x00, 0x7448fbae) */\n      mstore\n        /* \"solady/src/auth/Ownable.sol\":8633:8637  0x04 */\n      0x04\n        /* \"solady/src/auth/Ownable.sol\":8627:8631  0x1c */\n      0x1c\n        /* \"solady/src/auth/Ownable.sol\":8620:8638  revert(0x1c, 0x04) */\n      revert\n        /* \"solady/src/auth/Ownable.sol\":8502:8652  if iszero(shl(96, newOwner)) {... */\n    tag_201:\n        /* \"solady/src/auth/Ownable.sol\":8671:8690  _setOwner(newOwner) */\n      tag_202\n        /* \"solady/src/auth/Ownable.sol\":8681:8689  newOwner */\n      dup2\n        /* \"solady/src/auth/Ownable.sol\":8671:8680  _setOwner */\n      tag_166\n        /* \"solady/src/auth/Ownable.sol\":8671:8690  _setOwner(newOwner) */\n      jump\t// in\n    tag_202:\n        /* \"solady/src/auth/Ownable.sol\":8348:8697  function transferOwnership(address newOwner) public payable virtual onlyOwner {... */\n      pop\n      jump\t// out\n        /* \"solady/src/auth/Ownable.sol\":11693:12128  function ownershipHandoverExpiresAt(address pendingOwner)... */\n    tag_113:\n        /* \"solady/src/auth/Ownable.sol\":11812:11826  uint256 result */\n      0x00\n        /* \"solady/src/auth/Ownable.sol\":11963:11982  _HANDOVER_SLOT_SEED */\n      0x389a75e1\n        /* \"solady/src/auth/Ownable.sol\":11957:11961  0x0c */\n      0x0c\n        /* \"solady/src/auth/Ownable.sol\":11950:11983  mstore(0x0c, _HANDOVER_SLOT_SEED) */\n      mstore\n        /* \"solady/src/auth/Ownable.sol\":12009:12021  pendingOwner */\n      dup2\n        /* \"solady/src/auth/Ownable.sol\":12003:12007  0x00 */\n      0x00\n        /* \"solady/src/auth/Ownable.sol\":11996:12022  mstore(0x00, pendingOwner) */\n      mstore\n        /* \"solady/src/auth/Ownable.sol\":12106:12110  0x20 */\n      0x20\n        /* \"solady/src/auth/Ownable.sol\":12100:12104  0x0c */\n      0x0c\n        /* \"solady/src/auth/Ownable.sol\":12090:12111  keccak256(0x0c, 0x20) */\n      keccak256\n        /* \"solady/src/auth/Ownable.sol\":12084:12112  sload(keccak256(0x0c, 0x20)) */\n      sload\n        /* \"solady/src/auth/Ownable.sol\":12074:12112  result := sload(keccak256(0x0c, 0x20)) */\n      swap1\n      pop\n        /* \"solady/src/auth/Ownable.sol\":11693:12128  function ownershipHandoverExpiresAt(address pendingOwner)... */\n      swap2\n      swap1\n      pop\n      jump\t// out\n        /* \"solady/src/tokens/ERC20.sol\":31007:31113  function _givePermit2InfiniteAllowance() internal view virtual returns (bool) {... */\n    tag_124:\n        /* \"solady/src/tokens/ERC20.sol\":31079:31083  bool */\n      0x00\n        /* \"solady/src/tokens/ERC20.sol\":31102:31106  true */\n      0x01\n        /* \"solady/src/tokens/ERC20.sol\":31095:31106  return true */\n      swap1\n      pop\n        /* \"solady/src/tokens/ERC20.sol\":31007:31113  function _givePermit2InfiniteAllowance() internal view virtual returns (bool) {... */\n      swap1\n      jump\t// out\n        /* \"solady/src/tokens/ERC20.sol\":30087:30178  function _beforeTokenTransfer(address from, address to, uint256 amount) internal virtual {} */\n    tag_130:\n      pop\n      pop\n      pop\n      jump\t// out\n        /* \"solady/src/tokens/ERC20.sol\":30290:30380  function _afterTokenTransfer(address from, address to, uint256 amount) internal virtual {} */\n    tag_142:\n      pop\n      pop\n      pop\n      jump\t// out\n        /* \"solady/src/auth/Ownable.sol\":7878:7988  function _ownershipHandoverValidFor() internal view virtual returns (uint64) {... */\n    tag_145:\n        /* \"solady/src/auth/Ownable.sol\":7947:7953  uint64 */\n      0x00\n        /* \"solady/src/auth/Ownable.sol\":7972:7981  48 * 3600 */\n      0x02a300\n        /* \"solady/src/auth/Ownable.sol\":7965:7981  return 48 * 3600 */\n      swap1\n      pop\n        /* \"solady/src/auth/Ownable.sol\":7878:7988  function _ownershipHandoverValidFor() internal view virtual returns (uint64) {... */\n      swap1\n      jump\t// out\n        /* \"solady/src/tokens/ERC20.sol\":16370:16448  function _constantNameHash() internal view virtual returns (bytes32 result) {} */\n    tag_149:\n        /* \"solady/src/tokens/ERC20.sol\":16430:16444  bytes32 result */\n      0x00\n        /* \"solady/src/tokens/ERC20.sol\":16370:16448  function _constantNameHash() internal view virtual returns (bytes32 result) {} */\n      swap1\n      jump\t// out\n        /* \"solady/src/tokens/ERC20.sol\":16522:16640  function _versionHash() internal view virtual returns (bytes32 result) {... */\n    tag_153:\n        /* \"solady/src/tokens/ERC20.sol\":16577:16591  bytes32 result */\n      0x00\n        /* \"solady/src/tokens/ERC20.sol\":5177:5243  0xc89efdaa54c0f20c7adf612882df0950f5a951637e0307cdcb4c672f298b8bc6 */\n      0xc89efdaa54c0f20c7adf612882df0950f5a951637e0307cdcb4c672f298b8bc6\n        /* \"solady/src/tokens/ERC20.sol\":16612:16633  _DEFAULT_VERSION_HASH */\n      0x00\n      shl\n        /* \"solady/src/tokens/ERC20.sol\":16603:16633  result = _DEFAULT_VERSION_HASH */\n      swap1\n      pop\n        /* \"solady/src/tokens/ERC20.sol\":16522:16640  function _versionHash() internal view virtual returns (bytes32 result) {... */\n      swap1\n      jump\t// out\n        /* \"solady/src/auth/Ownable.sol\":7292:7647  function _checkOwner() internal view virtual {... */\n    tag_156:\n        /* \"solady/src/auth/Ownable.sol\":7504:7515  _OWNER_SLOT */\n      0xffffffffffffffffffffffffffffffffffffffffffffffffffffffff74873927\n        /* \"solady/src/auth/Ownable.sol\":7498:7516  sload(_OWNER_SLOT) */\n      sload\n        /* \"solady/src/auth/Ownable.sol\":7488:7496  caller() */\n      caller\n        /* \"solady/src/auth/Ownable.sol\":7485:7517  eq(caller(), sload(_OWNER_SLOT)) */\n      eq\n        /* \"solady/src/auth/Ownable.sol\":7475:7631  if iszero(eq(caller(), sload(_OWNER_SLOT))) {... */\n      tag_211\n      jumpi\n        /* \"solady/src/auth/Ownable.sol\":7550:7560  0x82b42900 */\n      0x82b42900\n        /* \"solady/src/auth/Ownable.sol\":7544:7548  0x00 */\n      0x00\n        /* \"solady/src/auth/Ownable.sol\":7537:7561  mstore(0x00, 0x82b42900) */\n      mstore\n        /* \"solady/src/auth/Ownable.sol\":7612:7616  0x04 */\n      0x04\n        /* \"solady/src/auth/Ownable.sol\":7606:7610  0x1c */\n      0x1c\n        /* \"solady/src/auth/Ownable.sol\":7599:7617  revert(0x1c, 0x04) */\n      revert\n        /* \"solady/src/auth/Ownable.sol\":7475:7631  if iszero(eq(caller(), sload(_OWNER_SLOT))) {... */\n    tag_211:\n        /* \"solady/src/auth/Ownable.sol\":7292:7647  function _checkOwner() internal view virtual {... */\n      jump\t// out\n        /* \"solady/src/tokens/ERC20.sol\":22620:23792  function _mint(address to, uint256 amount) internal virtual {... */\n    tag_159:\n        /* \"solady/src/tokens/ERC20.sol\":22690:22734  _beforeTokenTransfer(address(0), to, amount) */\n      tag_213\n        /* \"solady/src/tokens/ERC20.sol\":22719:22720  0 */\n      0x00\n        /* \"solady/src/tokens/ERC20.sol\":22723:22725  to */\n      dup4\n        /* \"solady/src/tokens/ERC20.sol\":22727:22733  amount */\n      dup4\n        /* \"solady/src/tokens/ERC20.sol\":22690:22710  _beforeTokenTransfer */\n      tag_130\n        /* \"solady/src/tokens/ERC20.sol\":22690:22734  _beforeTokenTransfer(address(0), to, amount) */\n      jump\t// in\n    tag_213:\n        /* \"solady/src/tokens/ERC20.sol\":22841:22859  _TOTAL_SUPPLY_SLOT */\n      0x05345cdf77eb68f44c\n        /* \"solady/src/tokens/ERC20.sol\":22835:22860  sload(_TOTAL_SUPPLY_SLOT) */\n      sload\n        /* \"solady/src/tokens/ERC20.sol\":22920:22926  amount */\n      dup2\n        /* \"solady/src/tokens/ERC20.sol\":22901:22918  totalSupplyBefore */\n      dup2\n        /* \"solady/src/tokens/ERC20.sol\":22897:22927  add(totalSupplyBefore, amount) */\n      add\n        /* \"solady/src/tokens/ERC20.sol\":23017:23034  totalSupplyBefore */\n      dup2\n        /* \"solady/src/tokens/ERC20.sol\":22999:23015  totalSupplyAfter */\n      dup2\n        /* \"solady/src/tokens/ERC20.sol\":22996:23035  lt(totalSupplyAfter, totalSupplyBefore) */\n      lt\n        /* \"solady/src/tokens/ERC20.sol\":22993:23155  if lt(totalSupplyAfter, totalSupplyBefore) {... */\n      iszero\n      tag_214\n      jumpi\n        /* \"solady/src/tokens/ERC20.sol\":23067:23077  0xe5cfe957 */\n      0xe5cfe957\n        /* \"solady/src/tokens/ERC20.sol\":23061:23065  0x00 */\n      0x00\n        /* \"solady/src/tokens/ERC20.sol\":23054:23078  mstore(0x00, 0xe5cfe957) */\n      mstore\n        /* \"solady/src/tokens/ERC20.sol\":23136:23140  0x04 */\n      0x04\n        /* \"solady/src/tokens/ERC20.sol\":23130:23134  0x1c */\n      0x1c\n        /* \"solady/src/tokens/ERC20.sol\":23123:23141  revert(0x1c, 0x04) */\n      revert\n        /* \"solady/src/tokens/ERC20.sol\":22993:23155  if lt(totalSupplyAfter, totalSupplyBefore) {... */\n    tag_214:\n        /* \"solady/src/tokens/ERC20.sol\":23242:23258  totalSupplyAfter */\n      dup1\n        /* \"solady/src/tokens/ERC20.sol\":23222:23240  _TOTAL_SUPPLY_SLOT */\n      0x05345cdf77eb68f44c\n        /* \"solady/src/tokens/ERC20.sol\":23215:23259  sstore(_TOTAL_SUPPLY_SLOT, totalSupplyAfter) */\n      sstore\n        /* \"solady/src/tokens/ERC20.sol\":23345:23363  _BALANCE_SLOT_SEED */\n      0x87a211a2\n        /* \"solady/src/tokens/ERC20.sol\":23339:23343  0x0c */\n      0x0c\n        /* \"solady/src/tokens/ERC20.sol\":23332:23364  mstore(0x0c, _BALANCE_SLOT_SEED) */\n      mstore\n        /* \"solady/src/tokens/ERC20.sol\":23390:23392  to */\n      dup4\n        /* \"solady/src/tokens/ERC20.sol\":23384:23388  0x00 */\n      0x00\n        /* \"solady/src/tokens/ERC20.sol\":23377:23393  mstore(0x00, to) */\n      mstore\n        /* \"solady/src/tokens/ERC20.sol\":23443:23447  0x20 */\n      0x20\n        /* \"solady/src/tokens/ERC20.sol\":23437:23441  0x0c */\n      0x0c\n        /* \"solady/src/tokens/ERC20.sol\":23427:23448  keccak256(0x0c, 0x20) */\n      keccak256\n        /* \"solady/src/tokens/ERC20.sol\":23559:23565  amount */\n      dup4\n        /* \"solady/src/tokens/ERC20.sol\":23543:23556  toBalanceSlot */\n      dup2\n        /* \"solady/src/tokens/ERC20.sol\":23537:23557  sload(toBalanceSlot) */\n      sload\n        /* \"solady/src/tokens/ERC20.sol\":23533:23566  add(sload(toBalanceSlot), amount) */\n      add\n        /* \"solady/src/tokens/ERC20.sol\":23518:23531  toBalanceSlot */\n      dup2\n        /* \"solady/src/tokens/ERC20.sol\":23511:23567  sstore(toBalanceSlot, add(sload(toBalanceSlot), amount)) */\n      sstore\n        /* \"solady/src/tokens/ERC20.sol\":23635:23641  amount */\n      dup4\n        /* \"solady/src/tokens/ERC20.sol\":23629:23633  0x20 */\n      0x20\n        /* \"solady/src/tokens/ERC20.sol\":23622:23642  mstore(0x20, amount) */\n      mstore\n        /* \"solady/src/tokens/ERC20.sol\":23716:23720  0x0c */\n      0x0c\n        /* \"solady/src/tokens/ERC20.sol\":23710:23721  mload(0x0c) */\n      mload\n        /* \"solady/src/tokens/ERC20.sol\":23706:23708  96 */\n      0x60\n        /* \"solady/src/tokens/ERC20.sol\":23702:23722  shr(96, mload(0x0c)) */\n      shr\n        /* \"solady/src/tokens/ERC20.sol\":23699:23700  0 */\n      0x00\n        /* \"solady/src/tokens/ERC20.sol\":23672:23697  _TRANSFER_EVENT_SIGNATURE */\n      0xddf252ad1be2c89b69c2b068fc378daa952ba7f163c4a11628f55a4df523b3ef\n        /* \"solady/src/tokens/ERC20.sol\":23666:23670  0x20 */\n      0x20\n        /* \"solady/src/tokens/ERC20.sol\":23660:23664  0x20 */\n      dup1\n        /* \"solady/src/tokens/ERC20.sol\":23655:23723  log3(0x20, 0x20, _TRANSFER_EVENT_SIGNATURE, 0, shr(96, mload(0x0c))) */\n      log3\n        /* \"solady/src/tokens/ERC20.sol\":22796:23733  {... */\n      pop\n      pop\n      pop\n        /* \"solady/src/tokens/ERC20.sol\":23742:23785  _afterTokenTransfer(address(0), to, amount) */\n      tag_215\n        /* \"solady/src/tokens/ERC20.sol\":23770:23771  0 */\n      0x00\n        /* \"solady/src/tokens/ERC20.sol\":23774:23776  to */\n      dup4\n        /* \"solady/src/tokens/ERC20.sol\":23778:23784  amount */\n      dup4\n        /* \"solady/src/tokens/ERC20.sol\":23742:23761  _afterTokenTransfer */\n      tag_142\n        /* \"solady/src/tokens/ERC20.sol\":23742:23785  _afterTokenTransfer(address(0), to, amount) */\n      jump\t// in\n    tag_215:\n        /* \"solady/src/tokens/ERC20.sol\":22620:23792  function _mint(address to, uint256 amount) internal virtual {... */\n      pop\n      pop\n      jump\t// out\n        /* \"solady/src/auth/Ownable.sol\":6145:7234  function _setOwner(address newOwner) internal virtual {... */\n    tag_166:\n        /* \"solady/src/auth/Ownable.sol\":6213:6236  _guardInitializeOwner() */\n      tag_217\n        /* \"solady/src/auth/Ownable.sol\":6213:6234  _guardInitializeOwner */\n      tag_218\n        /* \"solady/src/auth/Ownable.sol\":6213:6236  _guardInitializeOwner() */\n      jump\t// in\n    tag_217:\n        /* \"solady/src/auth/Ownable.sol\":6209:7228  if (_guardInitializeOwner()) {... */\n      iszero\n      tag_219\n      jumpi\n        /* \"solady/src/auth/Ownable.sol\":6343:6354  _OWNER_SLOT */\n      0xffffffffffffffffffffffffffffffffffffffffffffffffffffffff74873927\n        /* \"solady/src/auth/Ownable.sol\":6443:6451  newOwner */\n      dup2\n        /* \"solady/src/auth/Ownable.sol\":6439:6441  96 */\n      0x60\n        /* \"solady/src/auth/Ownable.sol\":6435:6452  shl(96, newOwner) */\n      shl\n        /* \"solady/src/auth/Ownable.sol\":6431:6433  96 */\n      0x60\n        /* \"solady/src/auth/Ownable.sol\":6427:6453  shr(96, shl(96, newOwner)) */\n      shr\n        /* \"solady/src/auth/Ownable.sol\":6415:6453  newOwner := shr(96, shl(96, newOwner)) */\n      swap2\n      pop\n        /* \"solady/src/auth/Ownable.sol\":6597:6605  newOwner */\n      dup2\n        /* \"solady/src/auth/Ownable.sol\":6585:6594  ownerSlot */\n      dup2\n        /* \"solady/src/auth/Ownable.sol\":6579:6595  sload(ownerSlot) */\n      sload\n        /* \"solady/src/auth/Ownable.sol\":6539:6577  _OWNERSHIP_TRANSFERRED_EVENT_SIGNATURE */\n      0x8be0079c531659141344cd1fd0a4f28419497f9722a3daafe3b4186f6b6457e0\n        /* \"solady/src/auth/Ownable.sol\":6536:6537  0 */\n      0x00\n        /* \"solady/src/auth/Ownable.sol\":6533:6534  0 */\n      dup1\n        /* \"solady/src/auth/Ownable.sol\":6528:6606  log3(0, 0, _OWNERSHIP_TRANSFERRED_EVENT_SIGNATURE, sload(ownerSlot), newOwner) */\n      log3\n        /* \"solady/src/auth/Ownable.sol\":6710:6718  newOwner */\n      dup2\n        /* \"solady/src/auth/Ownable.sol\":6703:6719  iszero(newOwner) */\n      iszero\n        /* \"solady/src/auth/Ownable.sol\":6698:6701  255 */\n      0xff\n        /* \"solady/src/auth/Ownable.sol\":6694:6720  shl(255, iszero(newOwner)) */\n      shl\n        /* \"solady/src/auth/Ownable.sol\":6684:6692  newOwner */\n      dup3\n        /* \"solady/src/auth/Ownable.sol\":6681:6721  or(newOwner, shl(255, iszero(newOwner))) */\n      or\n        /* \"solady/src/auth/Ownable.sol\":6670:6679  ownerSlot */\n      dup2\n        /* \"solady/src/auth/Ownable.sol\":6663:6722  sstore(ownerSlot, or(newOwner, shl(255, iszero(newOwner)))) */\n      sstore\n        /* \"solady/src/auth/Ownable.sol\":6308:6736  {... */\n      pop\n        /* \"solady/src/auth/Ownable.sol\":6209:7228  if (_guardInitializeOwner()) {... */\n      jump(tag_220)\n    tag_219:\n        /* \"solady/src/auth/Ownable.sol\":6857:6868  _OWNER_SLOT */\n      0xffffffffffffffffffffffffffffffffffffffffffffffffffffffff74873927\n        /* \"solady/src/auth/Ownable.sol\":6957:6965  newOwner */\n      dup2\n        /* \"solady/src/auth/Ownable.sol\":6953:6955  96 */\n      0x60\n        /* \"solady/src/auth/Ownable.sol\":6949:6966  shl(96, newOwner) */\n      shl\n        /* \"solady/src/auth/Ownable.sol\":6945:6947  96 */\n      0x60\n        /* \"solady/src/auth/Ownable.sol\":6941:6967  shr(96, shl(96, newOwner)) */\n      shr\n        /* \"solady/src/auth/Ownable.sol\":6929:6967  newOwner := shr(96, shl(96, newOwner)) */\n      swap2\n      pop\n        /* \"solady/src/auth/Ownable.sol\":7111:7119  newOwner */\n      dup2\n        /* \"solady/src/auth/Ownable.sol\":7099:7108  ownerSlot */\n      dup2\n        /* \"solady/src/auth/Ownable.sol\":7093:7109  sload(ownerSlot) */\n      sload\n        /* \"solady/src/auth/Ownable.sol\":7053:7091  _OWNERSHIP_TRANSFERRED_EVENT_SIGNATURE */\n      0x8be0079c531659141344cd1fd0a4f28419497f9722a3daafe3b4186f6b6457e0\n        /* \"solady/src/auth/Ownable.sol\":7050:7051  0 */\n      0x00\n        /* \"solady/src/auth/Ownable.sol\":7047:7048  0 */\n      dup1\n        /* \"solady/src/auth/Ownable.sol\":7042:7120  log3(0, 0, _OWNERSHIP_TRANSFERRED_EVENT_SIGNATURE, sload(ownerSlot), newOwner) */\n      log3\n        /* \"solady/src/auth/Ownable.sol\":7195:7203  newOwner */\n      dup2\n        /* \"solady/src/auth/Ownable.sol\":7184:7193  ownerSlot */\n      dup2\n        /* \"solady/src/auth/Ownable.sol\":7177:7204  sstore(ownerSlot, newOwner) */\n      sstore\n        /* \"solady/src/auth/Ownable.sol\":6822:7218  {... */\n      pop\n        /* \"solady/src/auth/Ownable.sol\":6209:7228  if (_guardInitializeOwner()) {... */\n    tag_220:\n        /* \"solady/src/auth/Ownable.sol\":6145:7234  function _setOwner(address newOwner) internal virtual {... */\n      pop\n      jump\t// out\n        /* \"solady/src/auth/Ownable.sol\":4348:4426  function _guardInitializeOwner() internal pure virtual returns (bool guard) {} */\n    tag_218:\n        /* \"solady/src/auth/Ownable.sol\":4412:4422  bool guard */\n      0x00\n        /* \"solady/src/auth/Ownable.sol\":4348:4426  function _guardInitializeOwner() internal pure virtual returns (bool guard) {} */\n      swap1\n      jump\t// out\n        /* \"#utility.yul\":7:106   */\n    tag_222:\n        /* \"#utility.yul\":59:65   */\n      0x00\n        /* \"#utility.yul\":93:98   */\n      dup2\n        /* \"#utility.yul\":87:99   */\n      mload\n        /* \"#utility.yul\":77:99   */\n      swap1\n      pop\n        /* \"#utility.yul\":7:106   */\n      swap2\n      swap1\n      pop\n      jump\t// out\n        /* \"#utility.yul\":112:281   */\n    tag_223:\n        /* \"#utility.yul\":196:207   */\n      0x00\n        /* \"#utility.yul\":230:236   */\n      dup3\n        /* \"#utility.yul\":225:228   */\n      dup3\n        /* \"#utility.yul\":218:237   */\n      mstore\n        /* \"#utility.yul\":270:274   */\n      0x20\n        /* \"#utility.yul\":265:268   */\n      dup3\n        /* \"#utility.yul\":261:275   */\n      add\n        /* \"#utility.yul\":246:275   */\n      swap1\n      pop\n        /* \"#utility.yul\":112:281   */\n      swap3\n      swap2\n      pop\n      pop\n      jump\t// out\n        /* \"#utility.yul\":287:535   */\n    tag_224:\n        /* \"#utility.yul\":369:370   */\n      0x00\n        /* \"#utility.yul\":379:492   */\n    tag_254:\n        /* \"#utility.yul\":393:399   */\n      dup4\n        /* \"#utility.yul\":390:391   */\n      dup2\n        /* \"#utility.yul\":387:400   */\n      lt\n        /* \"#utility.yul\":379:492   */\n      iszero\n      tag_256\n      jumpi\n        /* \"#utility.yul\":478:479   */\n      dup1\n        /* \"#utility.yul\":473:476   */\n      dup3\n        /* \"#utility.yul\":469:480   */\n      add\n        /* \"#utility.yul\":463:481   */\n      mload\n        /* \"#utility.yul\":459:460   */\n      dup2\n        /* \"#utility.yul\":454:457   */\n      dup5\n        /* \"#utility.yul\":450:461   */\n      add\n        /* \"#utility.yul\":443:482   */\n      mstore\n        /* \"#utility.yul\":415:417   */\n      0x20\n        /* \"#utility.yul\":412:413   */\n      dup2\n        /* \"#utility.yul\":408:418   */\n      add\n        /* \"#utility.yul\":403:418   */\n      swap1\n      pop\n        /* \"#utility.yul\":379:492   */\n      jump(tag_254)\n    tag_256:\n        /* \"#utility.yul\":526:527   */\n      0x00\n        /* \"#utility.yul\":517:523   */\n      dup5\n        /* \"#utility.yul\":512:515   */\n      dup5\n        /* \"#utility.yul\":508:524   */\n      add\n        /* \"#utility.yul\":501:528   */\n      mstore\n        /* \"#utility.yul\":349:535   */\n      pop\n        /* \"#utility.yul\":287:535   */\n      pop\n      pop\n      pop\n      jump\t// out\n        /* \"#utility.yul\":541:643   */\n    tag_225:\n        /* \"#utility.yul\":582:588   */\n      0x00\n        /* \"#utility.yul\":633:635   */\n      0x1f\n        /* \"#utility.yul\":629:636   */\n      not\n        /* \"#utility.yul\":624:626   */\n      0x1f\n        /* \"#utility.yul\":617:622   */\n      dup4\n        /* \"#utility.yul\":613:627   */\n      add\n        /* \"#utility.yul\":609:637   */\n      and\n        /* \"#utility.yul\":599:637   */\n      swap1\n      pop\n        /* \"#utility.yul\":541:643   */\n      swap2\n      swap1\n      pop\n      jump\t// out\n        /* \"#utility.yul\":649:1026   */\n    tag_226:\n        /* \"#utility.yul\":737:740   */\n      0x00\n        /* \"#utility.yul\":765:804   */\n      tag_259\n        /* \"#utility.yul\":798:803   */\n      dup3\n        /* \"#utility.yul\":765:804   */\n      tag_222\n      jump\t// in\n    tag_259:\n        /* \"#utility.yul\":820:891   */\n      tag_260\n        /* \"#utility.yul\":884:890   */\n      dup2\n        /* \"#utility.yul\":879:882   */\n      dup6\n        /* \"#utility.yul\":820:891   */\n      tag_223\n      jump\t// in\n    tag_260:\n        /* \"#utility.yul\":813:891   */\n      swap4\n      pop\n        /* \"#utility.yul\":900:965   */\n      tag_261\n        /* \"#utility.yul\":958:964   */\n      dup2\n        /* \"#utility.yul\":953:956   */\n      dup6\n        /* \"#utility.yul\":946:950   */\n      0x20\n        /* \"#utility.yul\":939:944   */\n      dup7\n        /* \"#utility.yul\":935:951   */\n      add\n        /* \"#utility.yul\":900:965   */\n      tag_224\n      jump\t// in\n    tag_261:\n        /* \"#utility.yul\":990:1019   */\n      tag_262\n        /* \"#utility.yul\":1012:1018   */\n      dup2\n        /* \"#utility.yul\":990:1019   */\n      tag_225\n      jump\t// in\n    tag_262:\n        /* \"#utility.yul\":985:988   */\n      dup5\n        /* \"#utility.yul\":981:1020   */\n      add\n        /* \"#utility.yul\":974:1020   */\n      swap2\n      pop\n        /* \"#utility.yul\":741:1026   */\n      pop\n        /* \"#utility.yul\":649:1026   */\n      swap3\n      swap2\n      pop\n      pop\n      jump\t// out\n        /* \"#utility.yul\":1032:1345   */\n    tag_29:\n        /* \"#utility.yul\":1145:1149   */\n      0x00\n        /* \"#utility.yul\":1183:1185   */\n      0x20\n        /* \"#utility.yul\":1172:1181   */\n      dup3\n        /* \"#utility.yul\":1168:1186   */\n      add\n        /* \"#utility.yul\":1160:1186   */\n      swap1\n      pop\n        /* \"#utility.yul\":1232:1241   */\n      dup2\n        /* \"#utility.yul\":1226:1230   */\n      dup2\n        /* \"#utility.yul\":1222:1242   */\n      sub\n        /* \"#utility.yul\":1218:1219   */\n      0x00\n        /* \"#utility.yul\":1207:1216   */\n      dup4\n        /* \"#utility.yul\":1203:1220   */\n      add\n        /* \"#utility.yul\":1196:1243   */\n      mstore\n        /* \"#utility.yul\":1260:1338   */\n      tag_264\n        /* \"#utility.yul\":1333:1337   */\n      dup2\n        /* \"#utility.yul\":1324:1330   */\n      dup5\n        /* \"#utility.yul\":1260:1338   */\n      tag_226\n      jump\t// in\n    tag_264:\n        /* \"#utility.yul\":1252:1338   */\n      swap1\n      pop\n        /* \"#utility.yul\":1032:1345   */\n      swap3\n      swap2\n      pop\n      pop\n      jump\t// out\n        /* \"#utility.yul\":1432:1549   */\n    tag_228:\n        /* \"#utility.yul\":1541:1542   */\n      0x00\n        /* \"#utility.yul\":1538:1539   */\n      dup1\n        /* \"#utility.yul\":1531:1543   */\n      revert\n        /* \"#utility.yul\":1678:1804   */\n    tag_230:\n        /* \"#utility.yul\":1715:1722   */\n      0x00\n        /* \"#utility.yul\":1755:1797   */\n      0xffffffffffffffffffffffffffffffffffffffff\n        /* \"#utility.yul\":1748:1753   */\n      dup3\n        /* \"#utility.yul\":1744:1798   */\n      and\n        /* \"#utility.yul\":1733:1798   */\n      swap1\n      pop\n        /* \"#utility.yul\":1678:1804   */\n      swap2\n      swap1\n      pop\n      jump\t// out\n        /* \"#utility.yul\":1810:1906   */\n    tag_231:\n        /* \"#utility.yul\":1847:1854   */\n      0x00\n        /* \"#utility.yul\":1876:1900   */\n      tag_270\n        /* \"#utility.yul\":1894:1899   */\n      dup3\n        /* \"#utility.yul\":1876:1900   */\n      tag_230\n      jump\t// in\n    tag_270:\n        /* \"#utility.yul\":1865:1900   */\n      swap1\n      pop\n        /* \"#utility.yul\":1810:1906   */\n      swap2\n      swap1\n      pop\n      jump\t// out\n        /* \"#utility.yul\":1912:2034   */\n    tag_232:\n        /* \"#utility.yul\":1985:2009   */\n      tag_272\n        /* \"#utility.yul\":2003:2008   */\n      dup2\n        /* \"#utility.yul\":1985:2009   */\n      tag_231\n      jump\t// in\n    tag_272:\n        /* \"#utility.yul\":1978:1983   */\n      dup2\n        /* \"#utility.yul\":1975:2010   */\n      eq\n        /* \"#utility.yul\":1965:2028   */\n      tag_273\n      jumpi\n        /* \"#utility.yul\":2024:2025   */\n      0x00\n        /* \"#utility.yul\":2021:2022   */\n      dup1\n        /* \"#utility.yul\":2014:2026   */\n      revert\n        /* \"#utility.yul\":1965:2028   */\n    tag_273:\n        /* \"#utility.yul\":1912:2034   */\n      pop\n      jump\t// out\n        /* \"#utility.yul\":2040:2179   */\n    tag_233:\n        /* \"#utility.yul\":2086:2091   */\n      0x00\n        /* \"#utility.yul\":2124:2130   */\n      dup2\n        /* \"#utility.yul\":2111:2131   */\n      calldataload\n        /* \"#utility.yul\":2102:2131   */\n      swap1\n      pop\n        /* \"#utility.yul\":2140:2173   */\n      tag_275\n        /* \"#utility.yul\":2167:2172   */\n      dup2\n        /* \"#utility.yul\":2140:2173   */\n      tag_232\n      jump\t// in\n    tag_275:\n        /* \"#utility.yul\":2040:2179   */\n      swap3\n      swap2\n      pop\n      pop\n      jump\t// out\n        /* \"#utility.yul\":2185:2262   */\n    tag_234:\n        /* \"#utility.yul\":2222:2229   */\n      0x00\n        /* \"#utility.yul\":2251:2256   */\n      dup2\n        /* \"#utility.yul\":2240:2256   */\n      swap1\n      pop\n        /* \"#utility.yul\":2185:2262   */\n      swap2\n      swap1\n      pop\n      jump\t// out\n        /* \"#utility.yul\":2268:2390   */\n    tag_235:\n        /* \"#utility.yul\":2341:2365   */\n      tag_278\n        /* \"#utility.yul\":2359:2364   */\n      dup2\n        /* \"#utility.yul\":2341:2365   */\n      tag_234\n      jump\t// in\n    tag_278:\n        /* \"#utility.yul\":2334:2339   */\n      dup2\n        /* \"#utility.yul\":2331:2366   */\n      eq\n        /* \"#utility.yul\":2321:2384   */\n      tag_279\n      jumpi\n        /* \"#utility.yul\":2380:2381   */\n      0x00\n        /* \"#utility.yul\":2377:2378   */\n      dup1\n        /* \"#utility.yul\":2370:2382   */\n      revert\n        /* \"#utility.yul\":2321:2384   */\n    tag_279:\n        /* \"#utility.yul\":2268:2390   */\n      pop\n      jump\t// out\n        /* \"#utility.yul\":2396:2535   */\n    tag_236:\n        /* \"#utility.yul\":2442:2447   */\n      0x00\n        /* \"#utility.yul\":2480:2486   */\n      dup2\n        /* \"#utility.yul\":2467:2487   */\n      calldataload\n        /* \"#utility.yul\":2458:2487   */\n      swap1\n      pop\n        /* \"#utility.yul\":2496:2529   */\n      tag_281\n        /* \"#utility.yul\":2523:2528   */\n      dup2\n        /* \"#utility.yul\":2496:2529   */\n      tag_235\n      jump\t// in\n    tag_281:\n        /* \"#utility.yul\":2396:2535   */\n      swap3\n      swap2\n      pop\n      pop\n      jump\t// out\n        /* \"#utility.yul\":2541:3015   */\n    tag_33:\n        /* \"#utility.yul\":2609:2615   */\n      0x00\n        /* \"#utility.yul\":2617:2623   */\n      dup1\n        /* \"#utility.yul\":2666:2668   */\n      0x40\n        /* \"#utility.yul\":2654:2663   */\n      dup4\n        /* \"#utility.yul\":2645:2652   */\n      dup6\n        /* \"#utility.yul\":2641:2664   */\n      sub\n        /* \"#utility.yul\":2637:2669   */\n      slt\n        /* \"#utility.yul\":2634:2753   */\n      iszero\n      tag_283\n      jumpi\n        /* \"#utility.yul\":2672:2751   */\n      tag_284\n      tag_228\n      jump\t// in\n    tag_284:\n        /* \"#utility.yul\":2634:2753   */\n    tag_283:\n        /* \"#utility.yul\":2792:2793   */\n      0x00\n        /* \"#utility.yul\":2817:2870   */\n      tag_285\n        /* \"#utility.yul\":2862:2869   */\n      dup6\n        /* \"#utility.yul\":2853:2859   */\n      dup3\n        /* \"#utility.yul\":2842:2851   */\n      dup7\n        /* \"#utility.yul\":2838:2860   */\n      add\n        /* \"#utility.yul\":2817:2870   */\n      tag_233\n      jump\t// in\n    tag_285:\n        /* \"#utility.yul\":2807:2870   */\n      swap3\n      pop\n        /* \"#utility.yul\":2763:2880   */\n      pop\n        /* \"#utility.yul\":2919:2921   */\n      0x20\n        /* \"#utility.yul\":2945:2998   */\n      tag_286\n        /* \"#utility.yul\":2990:2997   */\n      dup6\n        /* \"#utility.yul\":2981:2987   */\n      dup3\n        /* \"#utility.yul\":2970:2979   */\n      dup7\n        /* \"#utility.yul\":2966:2988   */\n      add\n        /* \"#utility.yul\":2945:2998   */\n      tag_236\n      jump\t// in\n    tag_286:\n        /* \"#utility.yul\":2935:2998   */\n      swap2\n      pop\n        /* \"#utility.yul\":2890:3008   */\n      pop\n        /* \"#utility.yul\":2541:3015   */\n      swap3\n      pop\n      swap3\n      swap1\n      pop\n      jump\t// out\n        /* \"#utility.yul\":3021:3111   */\n    tag_237:\n        /* \"#utility.yul\":3055:3062   */\n      0x00\n        /* \"#utility.yul\":3098:3103   */\n      dup2\n        /* \"#utility.yul\":3091:3104   */\n      iszero\n        /* \"#utility.yul\":3084:3105   */\n      iszero\n        /* \"#utility.yul\":3073:3105   */\n      swap1\n      pop\n        /* \"#utility.yul\":3021:3111   */\n      swap2\n      swap1\n      pop\n      jump\t// out\n        /* \"#utility.yul\":3117:3226   */\n    tag_238:\n        /* \"#utility.yul\":3198:3219   */\n      tag_289\n        /* \"#utility.yul\":3213:3218   */\n      dup2\n        /* \"#utility.yul\":3198:3219   */\n      tag_237\n      jump\t// in\n    tag_289:\n        /* \"#utility.yul\":3193:3196   */\n      dup3\n        /* \"#utility.yul\":3186:3220   */\n      mstore\n        /* \"#utility.yul\":3117:3226   */\n      pop\n      pop\n      jump\t// out\n        /* \"#utility.yul\":3232:3442   */\n    tag_36:\n        /* \"#utility.yul\":3319:3323   */\n      0x00\n        /* \"#utility.yul\":3357:3359   */\n      0x20\n        /* \"#utility.yul\":3346:3355   */\n      dup3\n        /* \"#utility.yul\":3342:3360   */\n      add\n        /* \"#utility.yul\":3334:3360   */\n      swap1\n      pop\n        /* \"#utility.yul\":3370:3435   */\n      tag_291\n        /* \"#utility.yul\":3432:3433   */\n      0x00\n        /* \"#utility.yul\":3421:3430   */\n      dup4\n        /* \"#utility.yul\":3417:3434   */\n      add\n        /* \"#utility.yul\":3408:3414   */\n      dup5\n        /* \"#utility.yul\":3370:3435   */\n      tag_238\n      jump\t// in\n    tag_291:\n        /* \"#utility.yul\":3232:3442   */\n      swap3\n      swap2\n      pop\n      pop\n      jump\t// out\n        /* \"#utility.yul\":3448:3566   */\n    tag_239:\n        /* \"#utility.yul\":3535:3559   */\n      tag_293\n        /* \"#utility.yul\":3553:3558   */\n      dup2\n        /* \"#utility.yul\":3535:3559   */\n      tag_234\n      jump\t// in\n    tag_293:\n        /* \"#utility.yul\":3530:3533   */\n      dup3\n        /* \"#utility.yul\":3523:3560   */\n      mstore\n        /* \"#utility.yul\":3448:3566   */\n      pop\n      pop\n      jump\t// out\n        /* \"#utility.yul\":3572:3794   */\n    tag_41:\n        /* \"#utility.yul\":3665:3669   */\n      0x00\n        /* \"#utility.yul\":3703:3705   */\n      0x20\n        /* \"#utility.yul\":3692:3701   */\n      dup3\n        /* \"#utility.yul\":3688:3706   */\n      add\n        /* \"#utility.yul\":3680:3706   */\n      swap1\n      pop\n        /* \"#utility.yul\":3716:3787   */\n      tag_295\n        /* \"#utility.yul\":3784:3785   */\n      0x00\n        /* \"#utility.yul\":3773:3782   */\n      dup4\n        /* \"#utility.yul\":3769:3786   */\n      add\n        /* \"#utility.yul\":3760:3766   */\n      dup5\n        /* \"#utility.yul\":3716:3787   */\n      tag_239\n      jump\t// in\n    tag_295:\n        /* \"#utility.yul\":3572:3794   */\n      swap3\n      swap2\n      pop\n      pop\n      jump\t// out\n        /* \"#utility.yul\":3800:4419   */\n    tag_45:\n        /* \"#utility.yul\":3877:3883   */\n      0x00\n        /* \"#utility.yul\":3885:3891   */\n      dup1\n        /* \"#utility.yul\":3893:3899   */\n      0x00\n        /* \"#utility.yul\":3942:3944   */\n      0x60\n        /* \"#utility.yul\":3930:3939   */\n      dup5\n        /* \"#utility.yul\":3921:3928   */\n      dup7\n        /* \"#utility.yul\":3917:3940   */\n      sub\n        /* \"#utility.yul\":3913:3945   */\n      slt\n        /* \"#utility.yul\":3910:4029   */\n      iszero\n      tag_297\n      jumpi\n        /* \"#utility.yul\":3948:4027   */\n      tag_298\n      tag_228\n      jump\t// in\n    tag_298:\n        /* \"#utility.yul\":3910:4029   */\n    tag_297:\n        /* \"#utility.yul\":4068:4069   */\n      0x00\n        /* \"#utility.yul\":4093:4146   */\n      tag_299\n        /* \"#utility.yul\":4138:4145   */\n      dup7\n        /* \"#utility.yul\":4129:4135   */\n      dup3\n        /* \"#utility.yul\":4118:4127   */\n      dup8\n        /* \"#utility.yul\":4114:4136   */\n      add\n        /* \"#utility.yul\":4093:4146   */\n      tag_233\n      jump\t// in\n    tag_299:\n        /* \"#utility.yul\":4083:4146   */\n      swap4\n      pop\n        /* \"#utility.yul\":4039:4156   */\n      pop\n        /* \"#utility.yul\":4195:4197   */\n      0x20\n        /* \"#utility.yul\":4221:4274   */\n      tag_300\n        /* \"#utility.yul\":4266:4273   */\n      dup7\n        /* \"#utility.yul\":4257:4263   */\n      dup3\n        /* \"#utility.yul\":4246:4255   */\n      dup8\n        /* \"#utility.yul\":4242:4264   */\n      add\n        /* \"#utility.yul\":4221:4274   */\n      tag_233\n      jump\t// in\n    tag_300:\n        /* \"#utility.yul\":4211:4274   */\n      swap3\n      pop\n        /* \"#utility.yul\":4166:4284   */\n      pop\n        /* \"#utility.yul\":4323:4325   */\n      0x40\n        /* \"#utility.yul\":4349:4402   */\n      tag_301\n        /* \"#utility.yul\":4394:4401   */\n      dup7\n        /* \"#utility.yul\":4385:4391   */\n      dup3\n        /* \"#utility.yul\":4374:4383   */\n      dup8\n        /* \"#utility.yul\":4370:4392   */\n      add\n        /* \"#utility.yul\":4349:4402   */\n      tag_236\n      jump\t// in\n    tag_301:\n        /* \"#utility.yul\":4339:4402   */\n      swap2\n      pop\n        /* \"#utility.yul\":4294:4412   */\n      pop\n        /* \"#utility.yul\":3800:4419   */\n      swap3\n      pop\n      swap3\n      pop\n      swap3\n      jump\t// out\n        /* \"#utility.yul\":4425:4511   */\n    tag_240:\n        /* \"#utility.yul\":4460:4467   */\n      0x00\n        /* \"#utility.yul\":4500:4504   */\n      0xff\n        /* \"#utility.yul\":4493:4498   */\n      dup3\n        /* \"#utility.yul\":4489:4505   */\n      and\n        /* \"#utility.yul\":4478:4505   */\n      swap1\n      pop\n        /* \"#utility.yul\":4425:4511   */\n      swap2\n      swap1\n      pop\n      jump\t// out\n        /* \"#utility.yul\":4517:4629   */\n    tag_241:\n        /* \"#utility.yul\":4600:4622   */\n      tag_304\n        /* \"#utility.yul\":4616:4621   */\n      dup2\n        /* \"#utility.yul\":4600:4622   */\n      tag_240\n      jump\t// in\n    tag_304:\n        /* \"#utility.yul\":4595:4598   */\n      dup3\n        /* \"#utility.yul\":4588:4623   */\n      mstore\n        /* \"#utility.yul\":4517:4629   */\n      pop\n      pop\n      jump\t// out\n        /* \"#utility.yul\":4635:4849   */\n    tag_54:\n        /* \"#utility.yul\":4724:4728   */\n      0x00\n        /* \"#utility.yul\":4762:4764   */\n      0x20\n        /* \"#utility.yul\":4751:4760   */\n      dup3\n        /* \"#utility.yul\":4747:4765   */\n      add\n        /* \"#utility.yul\":4739:4765   */\n      swap1\n      pop\n        /* \"#utility.yul\":4775:4842   */\n      tag_306\n        /* \"#utility.yul\":4839:4840   */\n      0x00\n        /* \"#utility.yul\":4828:4837   */\n      dup4\n        /* \"#utility.yul\":4824:4841   */\n      add\n        /* \"#utility.yul\":4815:4821   */\n      dup5\n        /* \"#utility.yul\":4775:4842   */\n      tag_241\n      jump\t// in\n    tag_306:\n        /* \"#utility.yul\":4635:4849   */\n      swap3\n      swap2\n      pop\n      pop\n      jump\t// out\n        /* \"#utility.yul\":4855:4932   */\n    tag_242:\n        /* \"#utility.yul\":4892:4899   */\n      0x00\n        /* \"#utility.yul\":4921:4926   */\n      dup2\n        /* \"#utility.yul\":4910:4926   */\n      swap1\n      pop\n        /* \"#utility.yul\":4855:4932   */\n      swap2\n      swap1\n      pop\n      jump\t// out\n        /* \"#utility.yul\":4938:5056   */\n    tag_243:\n        /* \"#utility.yul\":5025:5049   */\n      tag_309\n        /* \"#utility.yul\":5043:5048   */\n      dup2\n        /* \"#utility.yul\":5025:5049   */\n      tag_242\n      jump\t// in\n    tag_309:\n        /* \"#utility.yul\":5020:5023   */\n      dup3\n        /* \"#utility.yul\":5013:5050   */\n      mstore\n        /* \"#utility.yul\":4938:5056   */\n      pop\n      pop\n      jump\t// out\n        /* \"#utility.yul\":5062:5284   */\n    tag_59:\n        /* \"#utility.yul\":5155:5159   */\n      0x00\n        /* \"#utility.yul\":5193:5195   */\n      0x20\n        /* \"#utility.yul\":5182:5191   */\n      dup3\n        /* \"#utility.yul\":5178:5196   */\n      add\n        /* \"#utility.yul\":5170:5196   */\n      swap1\n      pop\n        /* \"#utility.yul\":5206:5277   */\n      tag_311\n        /* \"#utility.yul\":5274:5275   */\n      0x00\n        /* \"#utility.yul\":5263:5272   */\n      dup4\n        /* \"#utility.yul\":5259:5276   */\n      add\n        /* \"#utility.yul\":5250:5256   */\n      dup5\n        /* \"#utility.yul\":5206:5277   */\n      tag_243\n      jump\t// in\n    tag_311:\n        /* \"#utility.yul\":5062:5284   */\n      swap3\n      swap2\n      pop\n      pop\n      jump\t// out\n        /* \"#utility.yul\":5290:5619   */\n    tag_69:\n        /* \"#utility.yul\":5349:5355   */\n      0x00\n        /* \"#utility.yul\":5398:5400   */\n      0x20\n        /* \"#utility.yul\":5386:5395   */\n      dup3\n        /* \"#utility.yul\":5377:5384   */\n      dup5\n        /* \"#utility.yul\":5373:5396   */\n      sub\n        /* \"#utility.yul\":5369:5401   */\n      slt\n        /* \"#utility.yul\":5366:5485   */\n      iszero\n      tag_313\n      jumpi\n        /* \"#utility.yul\":5404:5483   */\n      tag_314\n      tag_228\n      jump\t// in\n    tag_314:\n        /* \"#utility.yul\":5366:5485   */\n    tag_313:\n        /* \"#utility.yul\":5524:5525   */\n      0x00\n        /* \"#utility.yul\":5549:5602   */\n      tag_315\n        /* \"#utility.yul\":5594:5601   */\n      dup5\n        /* \"#utility.yul\":5585:5591   */\n      dup3\n        /* \"#utility.yul\":5574:5583   */\n      dup6\n        /* \"#utility.yul\":5570:5592   */\n      add\n        /* \"#utility.yul\":5549:5602   */\n      tag_233\n      jump\t// in\n    tag_315:\n        /* \"#utility.yul\":5539:5602   */\n      swap2\n      pop\n        /* \"#utility.yul\":5495:5612   */\n      pop\n        /* \"#utility.yul\":5290:5619   */\n      swap3\n      swap2\n      pop\n      pop\n      jump\t// out\n        /* \"#utility.yul\":5625:5743   */\n    tag_244:\n        /* \"#utility.yul\":5712:5736   */\n      tag_317\n        /* \"#utility.yul\":5730:5735   */\n      dup2\n        /* \"#utility.yul\":5712:5736   */\n      tag_231\n      jump\t// in\n    tag_317:\n        /* \"#utility.yul\":5707:5710   */\n      dup3\n        /* \"#utility.yul\":5700:5737   */\n      mstore\n        /* \"#utility.yul\":5625:5743   */\n      pop\n      pop\n      jump\t// out\n        /* \"#utility.yul\":5749:5971   */\n    tag_83:\n        /* \"#utility.yul\":5842:5846   */\n      0x00\n        /* \"#utility.yul\":5880:5882   */\n      0x20\n        /* \"#utility.yul\":5869:5878   */\n      dup3\n        /* \"#utility.yul\":5865:5883   */\n      add\n        /* \"#utility.yul\":5857:5883   */\n      swap1\n      pop\n        /* \"#utility.yul\":5893:5964   */\n      tag_319\n        /* \"#utility.yul\":5961:5962   */\n      0x00\n        /* \"#utility.yul\":5950:5959   */\n      dup4\n        /* \"#utility.yul\":5946:5963   */\n      add\n        /* \"#utility.yul\":5937:5943   */\n      dup5\n        /* \"#utility.yul\":5893:5964   */\n      tag_244\n      jump\t// in\n    tag_319:\n        /* \"#utility.yul\":5749:5971   */\n      swap3\n      swap2\n      pop\n      pop\n      jump\t// out\n        /* \"#utility.yul\":5977:6095   */\n    tag_245:\n        /* \"#utility.yul\":6048:6070   */\n      tag_321\n        /* \"#utility.yul\":6064:6069   */\n      dup2\n        /* \"#utility.yul\":6048:6070   */\n      tag_240\n      jump\t// in\n    tag_321:\n        /* \"#utility.yul\":6041:6046   */\n      dup2\n        /* \"#utility.yul\":6038:6071   */\n      eq\n        /* \"#utility.yul\":6028:6089   */\n      tag_322\n      jumpi\n        /* \"#utility.yul\":6085:6086   */\n      0x00\n        /* \"#utility.yul\":6082:6083   */\n      dup1\n        /* \"#utility.yul\":6075:6087   */\n      revert\n        /* \"#utility.yul\":6028:6089   */\n    tag_322:\n        /* \"#utility.yul\":5977:6095   */\n      pop\n      jump\t// out\n        /* \"#utility.yul\":6101:6236   */\n    tag_246:\n        /* \"#utility.yul\":6145:6150   */\n      0x00\n        /* \"#utility.yul\":6183:6189   */\n      dup2\n        /* \"#utility.yul\":6170:6190   */\n      calldataload\n        /* \"#utility.yul\":6161:6190   */\n      swap1\n      pop\n        /* \"#utility.yul\":6199:6230   */\n      tag_324\n        /* \"#utility.yul\":6224:6229   */\n      dup2\n        /* \"#utility.yul\":6199:6230   */\n      tag_245\n      jump\t// in\n    tag_324:\n        /* \"#utility.yul\":6101:6236   */\n      swap3\n      swap2\n      pop\n      pop\n      jump\t// out\n        /* \"#utility.yul\":6242:6364   */\n    tag_247:\n        /* \"#utility.yul\":6315:6339   */\n      tag_326\n        /* \"#utility.yul\":6333:6338   */\n      dup2\n        /* \"#utility.yul\":6315:6339   */\n      tag_242\n      jump\t// in\n    tag_326:\n        /* \"#utility.yul\":6308:6313   */\n      dup2\n        /* \"#utility.yul\":6305:6340   */\n      eq\n        /* \"#utility.yul\":6295:6358   */\n      tag_327\n      jumpi\n        /* \"#utility.yul\":6354:6355   */\n      0x00\n        /* \"#utility.yul\":6351:6352   */\n      dup1\n        /* \"#utility.yul\":6344:6356   */\n      revert\n        /* \"#utility.yul\":6295:6358   */\n    tag_327:\n        /* \"#utility.yul\":6242:6364   */\n      pop\n      jump\t// out\n        /* \"#utility.yul\":6370:6509   */\n    tag_248:\n        /* \"#utility.yul\":6416:6421   */\n      0x00\n        /* \"#utility.yul\":6454:6460   */\n      dup2\n        /* \"#utility.yul\":6441:6461   */\n      calldataload\n        /* \"#utility.yul\":6432:6461   */\n      swap1\n      pop\n        /* \"#utility.yul\":6470:6503   */\n      tag_329\n        /* \"#utility.yul\":6497:6502   */\n      dup2\n        /* \"#utility.yul\":6470:6503   */\n      tag_247\n      jump\t// in\n    tag_329:\n        /* \"#utility.yul\":6370:6509   */\n      swap3\n      swap2\n      pop\n      pop\n      jump\t// out\n        /* \"#utility.yul\":6515:7714   */\n    tag_96:\n        /* \"#utility.yul\":6626:6632   */\n      0x00\n        /* \"#utility.yul\":6634:6640   */\n      dup1\n        /* \"#utility.yul\":6642:6648   */\n      0x00\n        /* \"#utility.yul\":6650:6656   */\n      dup1\n        /* \"#utility.yul\":6658:6664   */\n      0x00\n        /* \"#utility.yul\":6666:6672   */\n      dup1\n        /* \"#utility.yul\":6674:6680   */\n      0x00\n        /* \"#utility.yul\":6723:6726   */\n      0xe0\n        /* \"#utility.yul\":6711:6720   */\n      dup9\n        /* \"#utility.yul\":6702:6709   */\n      dup11\n        /* \"#utility.yul\":6698:6721   */\n      sub\n        /* \"#utility.yul\":6694:6727   */\n      slt\n        /* \"#utility.yul\":6691:6811   */\n      iszero\n      tag_331\n      jumpi\n        /* \"#utility.yul\":6730:6809   */\n      tag_332\n      tag_228\n      jump\t// in\n    tag_332:\n        /* \"#utility.yul\":6691:6811   */\n    tag_331:\n        /* \"#utility.yul\":6850:6851   */\n      0x00\n        /* \"#utility.yul\":6875:6928   */\n      tag_333\n        /* \"#utility.yul\":6920:6927   */\n      dup11\n        /* \"#utility.yul\":6911:6917   */\n      dup3\n        /* \"#utility.yul\":6900:6909   */\n      dup12\n        /* \"#utility.yul\":6896:6918   */\n      add\n        /* \"#utility.yul\":6875:6928   */\n      tag_233\n      jump\t// in\n    tag_333:\n        /* \"#utility.yul\":6865:6928   */\n      swap8\n      pop\n        /* \"#utility.yul\":6821:6938   */\n      pop\n        /* \"#utility.yul\":6977:6979   */\n      0x20\n        /* \"#utility.yul\":7003:7056   */\n      tag_334\n        /* \"#utility.yul\":7048:7055   */\n      dup11\n        /* \"#utility.yul\":7039:7045   */\n      dup3\n        /* \"#utility.yul\":7028:7037   */\n      dup12\n        /* \"#utility.yul\":7024:7046   */\n      add\n        /* \"#utility.yul\":7003:7056   */\n      tag_233\n      jump\t// in\n    tag_334:\n        /* \"#utility.yul\":6993:7056   */\n      swap7\n      pop\n        /* \"#utility.yul\":6948:7066   */\n      pop\n        /* \"#utility.yul\":7105:7107   */\n      0x40\n        /* \"#utility.yul\":7131:7184   */\n      tag_335\n        /* \"#utility.yul\":7176:7183   */\n      dup11\n        /* \"#utility.yul\":7167:7173   */\n      dup3\n        /* \"#utility.yul\":7156:7165   */\n      dup12\n        /* \"#utility.yul\":7152:7174   */\n      add\n        /* \"#utility.yul\":7131:7184   */\n      tag_236\n      jump\t// in\n    tag_335:\n        /* \"#utility.yul\":7121:7184   */\n      swap6\n      pop\n        /* \"#utility.yul\":7076:7194   */\n      pop\n        /* \"#utility.yul\":7233:7235   */\n      0x60\n        /* \"#utility.yul\":7259:7312   */\n      tag_336\n        /* \"#utility.yul\":7304:7311   */\n      dup11\n        /* \"#utility.yul\":7295:7301   */\n      dup3\n        /* \"#utility.yul\":7284:7293   */\n      dup12\n        /* \"#utility.yul\":7280:7302   */\n      add\n        /* \"#utility.yul\":7259:7312   */\n      tag_236\n      jump\t// in\n    tag_336:\n        /* \"#utility.yul\":7249:7312   */\n      swap5\n      pop\n        /* \"#utility.yul\":7204:7322   */\n      pop\n        /* \"#utility.yul\":7361:7364   */\n      0x80\n        /* \"#utility.yul\":7388:7439   */\n      tag_337\n        /* \"#utility.yul\":7431:7438   */\n      dup11\n        /* \"#utility.yul\":7422:7428   */\n      dup3\n        /* \"#utility.yul\":7411:7420   */\n      dup12\n        /* \"#utility.yul\":7407:7429   */\n      add\n        /* \"#utility.yul\":7388:7439   */\n      tag_246\n      jump\t// in\n    tag_337:\n        /* \"#utility.yul\":7378:7439   */\n      swap4\n      pop\n        /* \"#utility.yul\":7332:7449   */\n      pop\n        /* \"#utility.yul\":7488:7491   */\n      0xa0\n        /* \"#utility.yul\":7515:7568   */\n      tag_338\n        /* \"#utility.yul\":7560:7567   */\n      dup11\n        /* \"#utility.yul\":7551:7557   */\n      dup3\n        /* \"#utility.yul\":7540:7549   */\n      dup12\n        /* \"#utility.yul\":7536:7558   */\n      add\n        /* \"#utility.yul\":7515:7568   */\n      tag_248\n      jump\t// in\n    tag_338:\n        /* \"#utility.yul\":7505:7568   */\n      swap3\n      pop\n        /* \"#utility.yul\":7459:7578   */\n      pop\n        /* \"#utility.yul\":7617:7620   */\n      0xc0\n        /* \"#utility.yul\":7644:7697   */\n      tag_339\n        /* \"#utility.yul\":7689:7696   */\n      dup11\n        /* \"#utility.yul\":7680:7686   */\n      dup3\n        /* \"#utility.yul\":7669:7678   */\n      dup12\n        /* \"#utility.yul\":7665:7687   */\n      add\n        /* \"#utility.yul\":7644:7697   */\n      tag_248\n      jump\t// in\n    tag_339:\n        /* \"#utility.yul\":7634:7697   */\n      swap2\n      pop\n        /* \"#utility.yul\":7588:7707   */\n      pop\n        /* \"#utility.yul\":6515:7714   */\n      swap3\n      swap6\n      swap9\n      swap2\n      swap5\n      swap8\n      pop\n      swap3\n      swap6\n      pop\n      jump\t// out\n        /* \"#utility.yul\":7720:8194   */\n    tag_101:\n        /* \"#utility.yul\":7788:7794   */\n      0x00\n        /* \"#utility.yul\":7796:7802   */\n      dup1\n        /* \"#utility.yul\":7845:7847   */\n      0x40\n        /* \"#utility.yul\":7833:7842   */\n      dup4\n        /* \"#utility.yul\":7824:7831   */\n      dup6\n        /* \"#utility.yul\":7820:7843   */\n      sub\n        /* \"#utility.yul\":7816:7848   */\n      slt\n        /* \"#utility.yul\":7813:7932   */\n      iszero\n      tag_341\n      jumpi\n        /* \"#utility.yul\":7851:7930   */\n      tag_342\n      tag_228\n      jump\t// in\n    tag_342:\n        /* \"#utility.yul\":7813:7932   */\n    tag_341:\n        /* \"#utility.yul\":7971:7972   */\n      0x00\n        /* \"#utility.yul\":7996:8049   */\n      tag_343\n        /* \"#utility.yul\":8041:8048   */\n      dup6\n        /* \"#utility.yul\":8032:8038   */\n      dup3\n        /* \"#utility.yul\":8021:8030   */\n      dup7\n        /* \"#utility.yul\":8017:8039   */\n      add\n        /* \"#utility.yul\":7996:8049   */\n      tag_233\n      jump\t// in\n    tag_343:\n        /* \"#utility.yul\":7986:8049   */\n      swap3\n      pop\n        /* \"#utility.yul\":7942:8059   */\n      pop\n        /* \"#utility.yul\":8098:8100   */\n      0x20\n        /* \"#utility.yul\":8124:8177   */\n      tag_344\n        /* \"#utility.yul\":8169:8176   */\n      dup6\n        /* \"#utility.yul\":8160:8166   */\n      dup3\n        /* \"#utility.yul\":8149:8158   */\n      dup7\n        /* \"#utility.yul\":8145:8167   */\n      add\n        /* \"#utility.yul\":8124:8177   */\n      tag_233\n      jump\t// in\n    tag_344:\n        /* \"#utility.yul\":8114:8177   */\n      swap2\n      pop\n        /* \"#utility.yul\":8069:8187   */\n      pop\n        /* \"#utility.yul\":7720:8194   */\n      swap3\n      pop\n      swap3\n      swap1\n      pop\n      jump\t// out\n        /* \"#utility.yul\":8200:8380   */\n    tag_249:\n        /* \"#utility.yul\":8248:8325   */\n      0x4e487b7100000000000000000000000000000000000000000000000000000000\n        /* \"#utility.yul\":8245:8246   */\n      0x00\n        /* \"#utility.yul\":8238:8326   */\n      mstore\n        /* \"#utility.yul\":8345:8349   */\n      0x22\n        /* \"#utility.yul\":8342:8343   */\n      0x04\n        /* \"#utility.yul\":8335:8350   */\n      mstore\n        /* \"#utility.yul\":8369:8373   */\n      0x24\n        /* \"#utility.yul\":8366:8367   */\n      0x00\n        /* \"#utility.yul\":8359:8374   */\n      revert\n        /* \"#utility.yul\":8386:8706   */\n    tag_117:\n        /* \"#utility.yul\":8430:8436   */\n      0x00\n        /* \"#utility.yul\":8467:8468   */\n      0x02\n        /* \"#utility.yul\":8461:8465   */\n      dup3\n        /* \"#utility.yul\":8457:8469   */\n      div\n        /* \"#utility.yul\":8447:8469   */\n      swap1\n      pop\n        /* \"#utility.yul\":8514:8515   */\n      0x01\n        /* \"#utility.yul\":8508:8512   */\n      dup3\n        /* \"#utility.yul\":8504:8516   */\n      and\n        /* \"#utility.yul\":8535:8553   */\n      dup1\n        /* \"#utility.yul\":8525:8606   */\n      tag_347\n      jumpi\n        /* \"#utility.yul\":8591:8595   */\n      0x7f\n        /* \"#utility.yul\":8583:8589   */\n      dup3\n        /* \"#utility.yul\":8579:8596   */\n      and\n        /* \"#utility.yul\":8569:8596   */\n      swap2\n      pop\n        /* \"#utility.yul\":8525:8606   */\n    tag_347:\n        /* \"#utility.yul\":8653:8655   */\n      0x20\n        /* \"#utility.yul\":8645:8651   */\n      dup3\n        /* \"#utility.yul\":8642:8656   */\n      lt\n        /* \"#utility.yul\":8622:8640   */\n      dup2\n        /* \"#utility.yul\":8619:8657   */\n      sub\n        /* \"#utility.yul\":8616:8700   */\n      tag_348\n      jumpi\n        /* \"#utility.yul\":8672:8690   */\n      tag_349\n      tag_249\n      jump\t// in\n    tag_349:\n        /* \"#utility.yul\":8616:8700   */\n    tag_348:\n        /* \"#utility.yul\":8437:8706   */\n      pop\n        /* \"#utility.yul\":8386:8706   */\n      swap2\n      swap1\n      pop\n      jump\t// out\n\n    auxdata: 0xa2646970667358221220bd856980d93054a7d58a2a1c566279c653a9d9af5499c8391ba5a4dc6072f3fa64736f6c634300081a0033\n}\n",
				"bytecode": {
					"linkReferences": {},
					"object": "60a060405234801561001057600080fd5b50604051611afb380380611afb8339818101604052810190610032919061036a565b8360009081610041919061062a565b508260019081610051919061062a565b508160ff1660808160ff168152505061006f8161007860201b60201c565b505050506106fc565b61008661015960201b60201c565b15610101577fffffffffffffffffffffffffffffffffffffffffffffffffffffffff748739278054156100c157630dc149f06000526004601cfd5b8160601b60601c9150811560ff1b821781558160007f8be0079c531659141344cd1fd0a4f28419497f9722a3daafe3b4186f6b6457e0600080a350610156565b8060601b60601c9050807fffffffffffffffffffffffffffffffffffffffffffffffffffffffff74873927558060007f8be0079c531659141344cd1fd0a4f28419497f9722a3daafe3b4186f6b6457e0600080a35b50565b600090565b6000604051905090565b600080fd5b600080fd5b600080fd5b600080fd5b6000601f19601f8301169050919050565b7f4e487b7100000000000000000000000000000000000000000000000000000000600052604160045260246000fd5b6101c58261017c565b810181811067ffffffffffffffff821117156101e4576101e361018d565b5b80604052505050565b60006101f761015e565b905061020382826101bc565b919050565b600067ffffffffffffffff8211156102235761022261018d565b5b61022c8261017c565b9050602081019050919050565b60005b8381101561025757808201518184015260208101905061023c565b60008484015250505050565b600061027661027184610208565b6101ed565b90508281526020810184848401111561029257610291610177565b5b61029d848285610239565b509392505050565b600082601f8301126102ba576102b9610172565b5b81516102ca848260208601610263565b91505092915050565b600060ff82169050919050565b6102e9816102d3565b81146102f457600080fd5b50565b600081519050610306816102e0565b92915050565b600073ffffffffffffffffffffffffffffffffffffffff82169050919050565b60006103378261030c565b9050919050565b6103478161032c565b811461035257600080fd5b50565b6000815190506103648161033e565b92915050565b6000806000806080858703121561038457610383610168565b5b600085015167ffffffffffffffff8111156103a2576103a161016d565b5b6103ae878288016102a5565b945050602085015167ffffffffffffffff8111156103cf576103ce61016d565b5b6103db878288016102a5565b93505060406103ec878288016102f7565b92505060606103fd87828801610355565b91505092959194509250565b600081519050919050565b7f4e487b7100000000000000000000000000000000000000000000000000000000600052602260045260246000fd5b6000600282049050600182168061045b57607f821691505b60208210810361046e5761046d610414565b5b50919050565b60008190508160005260206000209050919050565b60006020601f8301049050919050565b600082821b905092915050565b6000600883026104d67fffffffffffffffffffffffffffffffffffffffffffffffffffffffffffffffff82610499565b6104e08683610499565b95508019841693508086168417925050509392505050565b6000819050919050565b6000819050919050565b600061052761052261051d846104f8565b610502565b6104f8565b9050919050565b6000819050919050565b6105418361050c565b61055561054d8261052e565b8484546104a6565b825550505050565b600090565b61056a61055d565b610575818484610538565b505050565b5b818110156105995761058e600082610562565b60018101905061057b565b5050565b601f8211156105de576105af81610474565b6105b884610489565b810160208510156105c7578190505b6105db6105d385610489565b83018261057a565b50505b505050565b600082821c905092915050565b6000610601600019846008026105e3565b1980831691505092915050565b600061061a83836105f0565b9150826002028217905092915050565b61063382610409565b67ffffffffffffffff81111561064c5761064b61018d565b5b6106568254610443565b61066182828561059d565b600060209050601f8311600181146106945760008415610682578287015190505b61068c858261060e565b8655506106f4565b601f1984166106a286610474565b60005b828110156106ca578489015182556001820191506020850194506020810190506106a5565b868310156106e757848901516106e3601f8916826105f0565b8355505b6001600288020188555050505b505050505050565b6080516113e461071760003960006107b201526113e46000f3fe60806040526004361061011f5760003560e01c8063715018a6116100a0578063d505accf11610064578063d505accf1461039e578063dd62ed3e146103c7578063f04e283e14610404578063f2fde38b14610420578063fee81cf41461043c5761011f565b8063715018a6146102c45780637ecebe00146102ce5780638da5cb5b1461030b57806395d89b4114610336578063a9059cbb146103615761011f565b8063313ce567116100e7578063313ce567146101fe5780633644e5151461022957806340c10f191461025457806354d1f13d1461027d57806370a08231146102875761011f565b806306fdde0314610124578063095ea7b31461014f57806318160ddd1461018c57806323b872dd146101b757806325692962146101f4575b600080fd5b34801561013057600080fd5b50610139610479565b6040516101469190610fa4565b60405180910390f35b34801561015b57600080fd5b506101766004803603810190610171919061105f565b61050b565b60405161018391906110ba565b60405180910390f35b34801561019857600080fd5b506101a161059b565b6040516101ae91906110e4565b60405180910390f35b3480156101c357600080fd5b506101de60048036038101906101d991906110ff565b6105ad565b6040516101eb91906110ba565b60405180910390f35b6101fc61075a565b005b34801561020a57600080fd5b506102136107ae565b604051610220919061116e565b60405180910390f35b34801561023557600080fd5b5061023e6107d6565b60405161024b91906111a2565b60405180910390f35b34801561026057600080fd5b5061027b6004803603810190610276919061105f565b610855565b005b61028561086b565b005b34801561029357600080fd5b506102ae60048036038101906102a991906111bd565b6108a7565b6040516102bb91906110e4565b60405180910390f35b6102cc6108c2565b005b3480156102da57600080fd5b506102f560048036038101906102f091906111bd565b6108d6565b60405161030291906110e4565b60405180910390f35b34801561031757600080fd5b506103206108f1565b60405161032d91906111f9565b60405180910390f35b34801561034257600080fd5b5061034b61091a565b6040516103589190610fa4565b60405180910390f35b34801561036d57600080fd5b506103886004803603810190610383919061105f565b6109ac565b60405161039591906110ba565b60405180910390f35b3480156103aa57600080fd5b506103c560048036038101906103c0919061126c565b610a3e565b005b3480156103d357600080fd5b506103ee60048036038101906103e9919061130e565b610c0b565b6040516103fb91906110e4565b60405180910390f35b61041e600480360381019061041991906111bd565b610ca4565b005b61043a600480360381019061043591906111bd565b610ce5565b005b34801561044857600080fd5b50610463600480360381019061045e91906111bd565b610d0f565b60405161047091906110e4565b60405180910390f35b6060600080546104889061137d565b80601f01602080910402602001604051908101604052809291908181526020018280546104b49061137d565b80156105015780601f106104d657610100808354040283529160200191610501565b820191906000526020600020905b8154815290600101906020018083116104e457829003601f168201915b5050505050905090565b6000610515610d2a565b15610549578119156e22d473030f116ddee9f6b43ac78ba38460601b60601c181761054857633f68539a6000526004601cfd5b5b82602052637f5e9f20600c5233600052816034600c205581600052602c5160601c337f8c5be1e5ebec7d5bd14f71427d1e84f3dd0314c0f7b2291e5b200ac8c7c3b92560206000a36001905092915050565b60006805345cdf77eb68f44c54905090565b60006105ba848484610d33565b6105c2610d2a565b15610693578360601b6e22d473030f116ddee9f6b43ac78ba3331461061c5733602052637f5e9f208117600c526034600c2080548019156106195780851115610613576313be252b6000526004601cfd5b84810382555b50505b6387a211a28117600c526020600c208054808511156106435763f4d678b86000526004601cfd5b8481038255856000526020600c2085815401815585602052600c5160601c8460601c7fddf252ad1be2c89b69c2b068fc378daa952ba7f163c4a11628f55a4df523b3ef602080a350505050610744565b8360601b33602052637f5e9f208117600c526034600c2080548019156106cf57808511156106c9576313be252b6000526004601cfd5b84810382555b6387a211a28317600c526020600c208054808711156106f65763f4d678b86000526004601cfd5b8681038255876000526020600c2087815401815587602052600c5160601c8660601c7fddf252ad1be2c89b69c2b068fc378daa952ba7f163c4a11628f55a4df523b3ef602080a35050505050505b61074f848484610d38565b600190509392505050565b6000610764610d3d565b67ffffffffffffffff164201905063389a75e1600c5233600052806020600c2055337fdbf36a107da19e49527a7176a1babf963b4b0ff8cde35ee35d6cd8f1f9ac7e1d600080a250565b60007f0000000000000000000000000000000000000000000000000000000000000000905090565b6000806107e1610d48565b90506000801b81036107ff576107f5610479565b8051906020012090505b6000610809610d4d565b90506040517f8b73c3c69bb8fe3d512ecc4cf759cc79239f7b179b0ffacaa9a75d522b39400f815282602082015281604082015246606082015230608082015260a08120935050505090565b61085d610d78565b6108678282610db0565b5050565b63389a75e1600c523360005260006020600c2055337ffa7b8eab7da67f412cc9575ed43464468f9bfbae89d1675917346ca6d8fe3c92600080a2565b60006387a211a2600c52816000526020600c20549050919050565b6108ca610d78565b6108d46000610e47565b565b60006338377508600c52816000526020600c20549050919050565b60007fffffffffffffffffffffffffffffffffffffffffffffffffffffffff7487392754905090565b6060600180546109299061137d565b80601f01602080910402602001604051908101604052809291908181526020018280546109559061137d565b80156109a25780601f10610977576101008083540402835291602001916109a2565b820191906000526020600020905b81548152906001019060200180831161098557829003601f168201915b5050505050905090565b60006109b9338484610d33565b6387a211a2600c52336000526020600c208054808411156109e25763f4d678b86000526004601cfd5b8381038255846000526020600c2084815401815584602052600c5160601c337fddf252ad1be2c89b69c2b068fc378daa952ba7f163c4a11628f55a4df523b3ef602080a3505050610a34338484610d38565b6001905092915050565b610a46610d2a565b15610a7a578419156e22d473030f116ddee9f6b43ac78ba38760601b60601c1817610a7957633f68539a6000526004601cfd5b5b6000610a84610d48565b90506000801b8103610aa257610a98610479565b8051906020012090505b6000610aac610d4d565b905085421115610ac457631a15a3cc6000526004601cfd5b6040518960601b60601c99508860601b60601c985065383775081901600e52896000526020600c2080547f8b73c3c69bb8fe3d512ecc4cf759cc79239f7b179b0ffacaa9a75d522b39400f835284602084015283604084015246606084015230608084015260a08320602e527f6e71edae12b1b97f4d1f60370fef10105fa2faae0126114a169c64845d6126c983528b60208401528a60408401528960608401528060808401528860a084015260c08320604e526042602c206000528760ff1660205286604052856060526020806080600060015afa8c3d5114610bb05763ddafbaef6000526004601cfd5b80820183558b637f5e9f2060a01b176040528a6034602c20558b8d7f8c5be1e5ebec7d5bd14f71427d1e84f3dd0314c0f7b2291e5b200ac8c7c3b925602060608801a383604052600060605250505050505050505050505050565b6000610c15610d2a565b15610c85576e22d473030f116ddee9f6b43ac78ba373ffffffffffffffffffffffffffffffffffffffff168273ffffffffffffffffffffffffffffffffffffffff1603610c84577fffffffffffffffffffffffffffffffffffffffffffffffffffffffffffffffff9050610c9e565b5b81602052637f5e9f20600c52826000526034600c205490505b92915050565b610cac610d78565b63389a75e1600c52806000526020600c208054421115610cd457636f5e88186000526004601cfd5b6000815550610ce281610e47565b50565b610ced610d78565b8060601b610d0357637448fbae6000526004601cfd5b610d0c81610e47565b50565b600063389a75e1600c52816000526020600c20549050919050565b60006001905090565b505050565b505050565b60006202a300905090565b600090565b60007fc89efdaa54c0f20c7adf612882df0950f5a951637e0307cdcb4c672f298b8bc660001b905090565b7fffffffffffffffffffffffffffffffffffffffffffffffffffffffff74873927543314610dae576382b429006000526004601cfd5b565b610dbc60008383610d33565b6805345cdf77eb68f44c5481810181811015610de05763e5cfe9576000526004601cfd5b806805345cdf77eb68f44c556387a211a2600c52836000526020600c2083815401815583602052600c5160601c60007fddf252ad1be2c89b69c2b068fc378daa952ba7f163c4a11628f55a4df523b3ef602080a3505050610e4360008383610d38565b5050565b610e4f610f0f565b15610eb5577fffffffffffffffffffffffffffffffffffffffffffffffffffffffff748739278160601b60601c91508181547f8be0079c531659141344cd1fd0a4f28419497f9722a3daafe3b4186f6b6457e0600080a3811560ff1b8217815550610f0c565b7fffffffffffffffffffffffffffffffffffffffffffffffffffffffff748739278160601b60601c91508181547f8be0079c531659141344cd1fd0a4f28419497f9722a3daafe3b4186f6b6457e0600080a3818155505b50565b600090565b600081519050919050565b600082825260208201905092915050565b60005b83811015610f4e578082015181840152602081019050610f33565b60008484015250505050565b6000601f19601f8301169050919050565b6000610f7682610f14565b610f808185610f1f565b9350610f90818560208601610f30565b610f9981610f5a565b840191505092915050565b60006020820190508181036000830152610fbe8184610f6b565b905092915050565b600080fd5b600073ffffffffffffffffffffffffffffffffffffffff82169050919050565b6000610ff682610fcb565b9050919050565b61100681610feb565b811461101157600080fd5b50565b60008135905061102381610ffd565b92915050565b6000819050919050565b61103c81611029565b811461104757600080fd5b50565b60008135905061105981611033565b92915050565b6000806040838503121561107657611075610fc6565b5b600061108485828601611014565b92505060206110958582860161104a565b9150509250929050565b60008115159050919050565b6110b48161109f565b82525050565b60006020820190506110cf60008301846110ab565b92915050565b6110de81611029565b82525050565b60006020820190506110f960008301846110d5565b92915050565b60008060006060848603121561111857611117610fc6565b5b600061112686828701611014565b935050602061113786828701611014565b92505060406111488682870161104a565b9150509250925092565b600060ff82169050919050565b61116881611152565b82525050565b6000602082019050611183600083018461115f565b92915050565b6000819050919050565b61119c81611189565b82525050565b60006020820190506111b76000830184611193565b92915050565b6000602082840312156111d3576111d2610fc6565b5b60006111e184828501611014565b91505092915050565b6111f381610feb565b82525050565b600060208201905061120e60008301846111ea565b92915050565b61121d81611152565b811461122857600080fd5b50565b60008135905061123a81611214565b92915050565b61124981611189565b811461125457600080fd5b50565b60008135905061126681611240565b92915050565b600080600080600080600060e0888a03121561128b5761128a610fc6565b5b60006112998a828b01611014565b97505060206112aa8a828b01611014565b96505060406112bb8a828b0161104a565b95505060606112cc8a828b0161104a565b94505060806112dd8a828b0161122b565b93505060a06112ee8a828b01611257565b92505060c06112ff8a828b01611257565b91505092959891949750929550565b6000806040838503121561132557611324610fc6565b5b600061133385828601611014565b925050602061134485828601611014565b9150509250929050565b7f4e487b7100000000000000000000000000000000000000000000000000000000600052602260045260246000fd5b6000600282049050600182168061139557607f821691505b6020821081036113a8576113a761134e565b5b5091905056fea2646970667358221220bd856980d93054a7d58a2a1c566279c653a9d9af5499c8391ba5a4dc6072f3fa64736f6c634300081a0033",
					"opcodes": "PUSH1 0xA0 PUSH1 0x40 MSTORE CALLVALUE DUP1 ISZERO PUSH2 0x10 JUMPI PUSH1 0x0 DUP1 REVERT JUMPDEST POP PUSH1 0x40 MLOAD PUSH2 0x1AFB CODESIZE SUB DUP1 PUSH2 0x1AFB DUP4 CODECOPY DUP2 DUP2 ADD PUSH1 0x40 MSTORE DUP2 ADD SWAP1 PUSH2 0x32 SWAP2 SWAP1 PUSH2 0x36A JUMP JUMPDEST DUP4 PUSH1 0x0 SWAP1 DUP2 PUSH2 0x41 SWAP2 SWAP1 PUSH2 0x62A JUMP JUMPDEST POP DUP3 PUSH1 0x1 SWAP1 DUP2 PUSH2 0x51 SWAP2 SWAP1 PUSH2 0x62A JUMP JUMPDEST POP DUP2 PUSH1 0xFF AND PUSH1 0x80 DUP2 PUSH1 0xFF AND DUP2 MSTORE POP POP PUSH2 0x6F DUP2 PUSH2 0x78 PUSH1 0x20 SHL PUSH1 0x20 SHR JUMP JUMPDEST POP POP POP POP PUSH2 0x6FC JUMP JUMPDEST PUSH2 0x86 PUSH2 0x159 PUSH1 0x20 SHL PUSH1 0x20 SHR JUMP JUMPDEST ISZERO PUSH2 0x101 JUMPI PUSH32 0xFFFFFFFFFFFFFFFFFFFFFFFFFFFFFFFFFFFFFFFFFFFFFFFFFFFFFFFF74873927 DUP1 SLOAD ISZERO PUSH2 0xC1 JUMPI PUSH4 0xDC149F0 PUSH1 0x0 MSTORE PUSH1 0x4 PUSH1 0x1C REVERT JUMPDEST DUP2 PUSH1 0x60 SHL PUSH1 0x60 SHR SWAP2 POP DUP2 ISZERO PUSH1 0xFF SHL DUP3 OR DUP2 SSTORE DUP2 PUSH1 0x0 PUSH32 0x8BE0079C531659141344CD1FD0A4F28419497F9722A3DAAFE3B4186F6B6457E0 PUSH1 0x0 DUP1 LOG3 POP PUSH2 0x156 JUMP JUMPDEST DUP1 PUSH1 0x60 SHL PUSH1 0x60 SHR SWAP1 POP DUP1 PUSH32 0xFFFFFFFFFFFFFFFFFFFFFFFFFFFFFFFFFFFFFFFFFFFFFFFFFFFFFFFF74873927 SSTORE DUP1 PUSH1 0x0 PUSH32 0x8BE0079C531659141344CD1FD0A4F28419497F9722A3DAAFE3B4186F6B6457E0 PUSH1 0x0 DUP1 LOG3 JUMPDEST POP JUMP JUMPDEST PUSH1 0x0 SWAP1 JUMP JUMPDEST PUSH1 0x0 PUSH1 0x40 MLOAD SWAP1 POP SWAP1 JUMP JUMPDEST PUSH1 0x0 DUP1 REVERT JUMPDEST PUSH1 0x0 DUP1 REVERT JUMPDEST PUSH1 0x0 DUP1 REVERT JUMPDEST PUSH1 0x0 DUP1 REVERT JUMPDEST PUSH1 0x0 PUSH1 0x1F NOT PUSH1 0x1F DUP4 ADD AND SWAP1 POP SWAP2 SWAP1 POP JUMP JUMPDEST PUSH32 0x4E487B7100000000000000000000000000000000000000000000000000000000 PUSH1 0x0 MSTORE PUSH1 0x41 PUSH1 0x4 MSTORE PUSH1 0x24 PUSH1 0x0 REVERT JUMPDEST PUSH2 0x1C5 DUP3 PUSH2 0x17C JUMP JUMPDEST DUP2 ADD DUP2 DUP2 LT PUSH8 0xFFFFFFFFFFFFFFFF DUP3 GT OR ISZERO PUSH2 0x1E4 JUMPI PUSH2 0x1E3 PUSH2 0x18D JUMP JUMPDEST JUMPDEST DUP1 PUSH1 0x40 MSTORE POP POP POP JUMP JUMPDEST PUSH1 0x0 PUSH2 0x1F7 PUSH2 0x15E JUMP JUMPDEST SWAP1 POP PUSH2 0x203 DUP3 DUP3 PUSH2 0x1BC JUMP JUMPDEST SWAP2 SWAP1 POP JUMP JUMPDEST PUSH1 0x0 PUSH8 0xFFFFFFFFFFFFFFFF DUP3 GT ISZERO PUSH2 0x223 JUMPI PUSH2 0x222 PUSH2 0x18D JUMP JUMPDEST JUMPDEST PUSH2 0x22C DUP3 PUSH2 0x17C JUMP JUMPDEST SWAP1 POP PUSH1 0x20 DUP2 ADD SWAP1 POP SWAP2 SWAP1 POP JUMP JUMPDEST PUSH1 0x0 JUMPDEST DUP4 DUP2 LT ISZERO PUSH2 0x257 JUMPI DUP1 DUP3 ADD MLOAD DUP2 DUP5 ADD MSTORE PUSH1 0x20 DUP2 ADD SWAP1 POP PUSH2 0x23C JUMP JUMPDEST PUSH1 0x0 DUP5 DUP5 ADD MSTORE POP POP POP POP JUMP JUMPDEST PUSH1 0x0 PUSH2 0x276 PUSH2 0x271 DUP5 PUSH2 0x208 JUMP JUMPDEST PUSH2 0x1ED JUMP JUMPDEST SWAP1 POP DUP3 DUP2 MSTORE PUSH1 0x20 DUP2 ADD DUP5 DUP5 DUP5 ADD GT ISZERO PUSH2 0x292 JUMPI PUSH2 0x291 PUSH2 0x177 JUMP JUMPDEST JUMPDEST PUSH2 0x29D DUP5 DUP3 DUP6 PUSH2 0x239 JUMP JUMPDEST POP SWAP4 SWAP3 POP POP POP JUMP JUMPDEST PUSH1 0x0 DUP3 PUSH1 0x1F DUP4 ADD SLT PUSH2 0x2BA JUMPI PUSH2 0x2B9 PUSH2 0x172 JUMP JUMPDEST JUMPDEST DUP2 MLOAD PUSH2 0x2CA DUP5 DUP3 PUSH1 0x20 DUP7 ADD PUSH2 0x263 JUMP JUMPDEST SWAP2 POP POP SWAP3 SWAP2 POP POP JUMP JUMPDEST PUSH1 0x0 PUSH1 0xFF DUP3 AND SWAP1 POP SWAP2 SWAP1 POP JUMP JUMPDEST PUSH2 0x2E9 DUP2 PUSH2 0x2D3 JUMP JUMPDEST DUP2 EQ PUSH2 0x2F4 JUMPI PUSH1 0x0 DUP1 REVERT JUMPDEST POP JUMP JUMPDEST PUSH1 0x0 DUP2 MLOAD SWAP1 POP PUSH2 0x306 DUP2 PUSH2 0x2E0 JUMP JUMPDEST SWAP3 SWAP2 POP POP JUMP JUMPDEST PUSH1 0x0 PUSH20 0xFFFFFFFFFFFFFFFFFFFFFFFFFFFFFFFFFFFFFFFF DUP3 AND SWAP1 POP SWAP2 SWAP1 POP JUMP JUMPDEST PUSH1 0x0 PUSH2 0x337 DUP3 PUSH2 0x30C JUMP JUMPDEST SWAP1 POP SWAP2 SWAP1 POP JUMP JUMPDEST PUSH2 0x347 DUP2 PUSH2 0x32C JUMP JUMPDEST DUP2 EQ PUSH2 0x352 JUMPI PUSH1 0x0 DUP1 REVERT JUMPDEST POP JUMP JUMPDEST PUSH1 0x0 DUP2 MLOAD SWAP1 POP PUSH2 0x364 DUP2 PUSH2 0x33E JUMP JUMPDEST SWAP3 SWAP2 POP POP JUMP JUMPDEST PUSH1 0x0 DUP1 PUSH1 0x0 DUP1 PUSH1 0x80 DUP6 DUP8 SUB SLT ISZERO PUSH2 0x384 JUMPI PUSH2 0x383 PUSH2 0x168 JUMP JUMPDEST JUMPDEST PUSH1 0x0 DUP6 ADD MLOAD PUSH8 0xFFFFFFFFFFFFFFFF DUP2 GT ISZERO PUSH2 0x3A2 JUMPI PUSH2 0x3A1 PUSH2 0x16D JUMP JUMPDEST JUMPDEST PUSH2 0x3AE DUP8 DUP3 DUP9 ADD PUSH2 0x2A5 JUMP JUMPDEST SWAP5 POP POP PUSH1 0x20 DUP6 ADD MLOAD PUSH8 0xFFFFFFFFFFFFFFFF DUP2 GT ISZERO PUSH2 0x3CF JUMPI PUSH2 0x3CE PUSH2 0x16D JUMP JUMPDEST JUMPDEST PUSH2 0x3DB DUP8 DUP3 DUP9 ADD PUSH2 0x2A5 JUMP JUMPDEST SWAP4 POP POP PUSH1 0x40 PUSH2 0x3EC DUP8 DUP3 DUP9 ADD PUSH2 0x2F7 JUMP JUMPDEST SWAP3 POP POP PUSH1 0x60 PUSH2 0x3FD DUP8 DUP3 DUP9 ADD PUSH2 0x355 JUMP JUMPDEST SWAP2 POP POP SWAP3 SWAP6 SWAP2 SWAP5 POP SWAP3 POP JUMP JUMPDEST PUSH1 0x0 DUP2 MLOAD SWAP1 POP SWAP2 SWAP1 POP JUMP JUMPDEST PUSH32 0x4E487B7100000000000000000000000000000000000000000000000000000000 PUSH1 0x0 MSTORE PUSH1 0x22 PUSH1 0x4 MSTORE PUSH1 0x24 PUSH1 0x0 REVERT JUMPDEST PUSH1 0x0 PUSH1 0x2 DUP3 DIV SWAP1 POP PUSH1 0x1 DUP3 AND DUP1 PUSH2 0x45B JUMPI PUSH1 0x7F DUP3 AND SWAP2 POP JUMPDEST PUSH1 0x20 DUP3 LT DUP2 SUB PUSH2 0x46E JUMPI PUSH2 0x46D PUSH2 0x414 JUMP JUMPDEST JUMPDEST POP SWAP2 SWAP1 POP JUMP JUMPDEST PUSH1 0x0 DUP2 SWAP1 POP DUP2 PUSH1 0x0 MSTORE PUSH1 0x20 PUSH1 0x0 KECCAK256 SWAP1 POP SWAP2 SWAP1 POP JUMP JUMPDEST PUSH1 0x0 PUSH1 0x20 PUSH1 0x1F DUP4 ADD DIV SWAP1 POP SWAP2 SWAP1 POP JUMP JUMPDEST PUSH1 0x0 DUP3 DUP3 SHL SWAP1 POP SWAP3 SWAP2 POP POP JUMP JUMPDEST PUSH1 0x0 PUSH1 0x8 DUP4 MUL PUSH2 0x4D6 PUSH32 0xFFFFFFFFFFFFFFFFFFFFFFFFFFFFFFFFFFFFFFFFFFFFFFFFFFFFFFFFFFFFFFFF DUP3 PUSH2 0x499 JUMP JUMPDEST PUSH2 0x4E0 DUP7 DUP4 PUSH2 0x499 JUMP JUMPDEST SWAP6 POP DUP1 NOT DUP5 AND SWAP4 POP DUP1 DUP7 AND DUP5 OR SWAP3 POP POP POP SWAP4 SWAP3 POP POP POP JUMP JUMPDEST PUSH1 0x0 DUP2 SWAP1 POP SWAP2 SWAP1 POP JUMP JUMPDEST PUSH1 0x0 DUP2 SWAP1 POP SWAP2 SWAP1 POP JUMP JUMPDEST PUSH1 0x0 PUSH2 0x527 PUSH2 0x522 PUSH2 0x51D DUP5 PUSH2 0x4F8 JUMP JUMPDEST PUSH2 0x502 JUMP JUMPDEST PUSH2 0x4F8 JUMP JUMPDEST SWAP1 POP SWAP2 SWAP1 POP JUMP JUMPDEST PUSH1 0x0 DUP2 SWAP1 POP SWAP2 SWAP1 POP JUMP JUMPDEST PUSH2 0x541 DUP4 PUSH2 0x50C JUMP JUMPDEST PUSH2 0x555 PUSH2 0x54D DUP3 PUSH2 0x52E JUMP JUMPDEST DUP5 DUP5 SLOAD PUSH2 0x4A6 JUMP JUMPDEST DUP3 SSTORE POP POP POP POP JUMP JUMPDEST PUSH1 0x0 SWAP1 JUMP JUMPDEST PUSH2 0x56A PUSH2 0x55D JUMP JUMPDEST PUSH2 0x575 DUP2 DUP5 DUP5 PUSH2 0x538 JUMP JUMPDEST POP POP POP JUMP JUMPDEST JUMPDEST DUP2 DUP2 LT ISZERO PUSH2 0x599 JUMPI PUSH2 0x58E PUSH1 0x0 DUP3 PUSH2 0x562 JUMP JUMPDEST PUSH1 0x1 DUP2 ADD SWAP1 POP PUSH2 0x57B JUMP JUMPDEST POP POP JUMP JUMPDEST PUSH1 0x1F DUP3 GT ISZERO PUSH2 0x5DE JUMPI PUSH2 0x5AF DUP2 PUSH2 0x474 JUMP JUMPDEST PUSH2 0x5B8 DUP5 PUSH2 0x489 JUMP JUMPDEST DUP2 ADD PUSH1 0x20 DUP6 LT ISZERO PUSH2 0x5C7 JUMPI DUP2 SWAP1 POP JUMPDEST PUSH2 0x5DB PUSH2 0x5D3 DUP6 PUSH2 0x489 JUMP JUMPDEST DUP4 ADD DUP3 PUSH2 0x57A JUMP JUMPDEST POP POP JUMPDEST POP POP POP JUMP JUMPDEST PUSH1 0x0 DUP3 DUP3 SHR SWAP1 POP SWAP3 SWAP2 POP POP JUMP JUMPDEST PUSH1 0x0 PUSH2 0x601 PUSH1 0x0 NOT DUP5 PUSH1 0x8 MUL PUSH2 0x5E3 JUMP JUMPDEST NOT DUP1 DUP4 AND SWAP2 POP POP SWAP3 SWAP2 POP POP JUMP JUMPDEST PUSH1 0x0 PUSH2 0x61A DUP4 DUP4 PUSH2 0x5F0 JUMP JUMPDEST SWAP2 POP DUP3 PUSH1 0x2 MUL DUP3 OR SWAP1 POP SWAP3 SWAP2 POP POP JUMP JUMPDEST PUSH2 0x633 DUP3 PUSH2 0x409 JUMP JUMPDEST PUSH8 0xFFFFFFFFFFFFFFFF DUP2 GT ISZERO PUSH2 0x64C JUMPI PUSH2 0x64B PUSH2 0x18D JUMP JUMPDEST JUMPDEST PUSH2 0x656 DUP3 SLOAD PUSH2 0x443 JUMP JUMPDEST PUSH2 0x661 DUP3 DUP3 DUP6 PUSH2 0x59D JUMP JUMPDEST PUSH1 0x0 PUSH1 0x20 SWAP1 POP PUSH1 0x1F DUP4 GT PUSH1 0x1 DUP2 EQ PUSH2 0x694 JUMPI PUSH1 0x0 DUP5 ISZERO PUSH2 0x682 JUMPI DUP3 DUP8 ADD MLOAD SWAP1 POP JUMPDEST PUSH2 0x68C DUP6 DUP3 PUSH2 0x60E JUMP JUMPDEST DUP7 SSTORE POP PUSH2 0x6F4 JUMP JUMPDEST PUSH1 0x1F NOT DUP5 AND PUSH2 0x6A2 DUP7 PUSH2 0x474 JUMP JUMPDEST PUSH1 0x0 JUMPDEST DUP3 DUP2 LT ISZERO PUSH2 0x6CA JUMPI DUP5 DUP10 ADD MLOAD DUP3 SSTORE PUSH1 0x1 DUP3 ADD SWAP2 POP PUSH1 0x20 DUP6 ADD SWAP5 POP PUSH1 0x20 DUP2 ADD SWAP1 POP PUSH2 0x6A5 JUMP JUMPDEST DUP7 DUP4 LT ISZERO PUSH2 0x6E7 JUMPI DUP5 DUP10 ADD MLOAD PUSH2 0x6E3 PUSH1 0x1F DUP10 AND DUP3 PUSH2 0x5F0 JUMP JUMPDEST DUP4 SSTORE POP JUMPDEST PUSH1 0x1 PUSH1 0x2 DUP9 MUL ADD DUP9 SSTORE POP POP POP JUMPDEST POP POP POP POP POP POP JUMP JUMPDEST PUSH1 0x80 MLOAD PUSH2 0x13E4 PUSH2 0x717 PUSH1 0x0 CODECOPY PUSH1 0x0 PUSH2 0x7B2 ADD MSTORE PUSH2 0x13E4 PUSH1 0x0 RETURN INVALID PUSH1 0x80 PUSH1 0x40 MSTORE PUSH1 0x4 CALLDATASIZE LT PUSH2 0x11F JUMPI PUSH1 0x0 CALLDATALOAD PUSH1 0xE0 SHR DUP1 PUSH4 0x715018A6 GT PUSH2 0xA0 JUMPI DUP1 PUSH4 0xD505ACCF GT PUSH2 0x64 JUMPI DUP1 PUSH4 0xD505ACCF EQ PUSH2 0x39E JUMPI DUP1 PUSH4 0xDD62ED3E EQ PUSH2 0x3C7 JUMPI DUP1 PUSH4 0xF04E283E EQ PUSH2 0x404 JUMPI DUP1 PUSH4 0xF2FDE38B EQ PUSH2 0x420 JUMPI DUP1 PUSH4 0xFEE81CF4 EQ PUSH2 0x43C JUMPI PUSH2 0x11F JUMP JUMPDEST DUP1 PUSH4 0x715018A6 EQ PUSH2 0x2C4 JUMPI DUP1 PUSH4 0x7ECEBE00 EQ PUSH2 0x2CE JUMPI DUP1 PUSH4 0x8DA5CB5B EQ PUSH2 0x30B JUMPI DUP1 PUSH4 0x95D89B41 EQ PUSH2 0x336 JUMPI DUP1 PUSH4 0xA9059CBB EQ PUSH2 0x361 JUMPI PUSH2 0x11F JUMP JUMPDEST DUP1 PUSH4 0x313CE567 GT PUSH2 0xE7 JUMPI DUP1 PUSH4 0x313CE567 EQ PUSH2 0x1FE JUMPI DUP1 PUSH4 0x3644E515 EQ PUSH2 0x229 JUMPI DUP1 PUSH4 0x40C10F19 EQ PUSH2 0x254 JUMPI DUP1 PUSH4 0x54D1F13D EQ PUSH2 0x27D JUMPI DUP1 PUSH4 0x70A08231 EQ PUSH2 0x287 JUMPI PUSH2 0x11F JUMP JUMPDEST DUP1 PUSH4 0x6FDDE03 EQ PUSH2 0x124 JUMPI DUP1 PUSH4 0x95EA7B3 EQ PUSH2 0x14F JUMPI DUP1 PUSH4 0x18160DDD EQ PUSH2 0x18C JUMPI DUP1 PUSH4 0x23B872DD EQ PUSH2 0x1B7 JUMPI DUP1 PUSH4 0x25692962 EQ PUSH2 0x1F4 JUMPI JUMPDEST PUSH1 0x0 DUP1 REVERT JUMPDEST CALLVALUE DUP1 ISZERO PUSH2 0x130 JUMPI PUSH1 0x0 DUP1 REVERT JUMPDEST POP PUSH2 0x139 PUSH2 0x479 JUMP JUMPDEST PUSH1 0x40 MLOAD PUSH2 0x146 SWAP2 SWAP1 PUSH2 0xFA4 JUMP JUMPDEST PUSH1 0x40 MLOAD DUP1 SWAP2 SUB SWAP1 RETURN JUMPDEST CALLVALUE DUP1 ISZERO PUSH2 0x15B JUMPI PUSH1 0x0 DUP1 REVERT JUMPDEST POP PUSH2 0x176 PUSH1 0x4 DUP1 CALLDATASIZE SUB DUP2 ADD SWAP1 PUSH2 0x171 SWAP2 SWAP1 PUSH2 0x105F JUMP JUMPDEST PUSH2 0x50B JUMP JUMPDEST PUSH1 0x40 MLOAD PUSH2 0x183 SWAP2 SWAP1 PUSH2 0x10BA JUMP JUMPDEST PUSH1 0x40 MLOAD DUP1 SWAP2 SUB SWAP1 RETURN JUMPDEST CALLVALUE DUP1 ISZERO PUSH2 0x198 JUMPI PUSH1 0x0 DUP1 REVERT JUMPDEST POP PUSH2 0x1A1 PUSH2 0x59B JUMP JUMPDEST PUSH1 0x40 MLOAD PUSH2 0x1AE SWAP2 SWAP1 PUSH2 0x10E4 JUMP JUMPDEST PUSH1 0x40 MLOAD DUP1 SWAP2 SUB SWAP1 RETURN JUMPDEST CALLVALUE DUP1 ISZERO PUSH2 0x1C3 JUMPI PUSH1 0x0 DUP1 REVERT JUMPDEST POP PUSH2 0x1DE PUSH1 0x4 DUP1 CALLDATASIZE SUB DUP2 ADD SWAP1 PUSH2 0x1D9 SWAP2 SWAP1 PUSH2 0x10FF JUMP JUMPDEST PUSH2 0x5AD JUMP JUMPDEST PUSH1 0x40 MLOAD PUSH2 0x1EB SWAP2 SWAP1 PUSH2 0x10BA JUMP JUMPDEST PUSH1 0x40 MLOAD DUP1 SWAP2 SUB SWAP1 RETURN JUMPDEST PUSH2 0x1FC PUSH2 0x75A JUMP JUMPDEST STOP JUMPDEST CALLVALUE DUP1 ISZERO PUSH2 0x20A JUMPI PUSH1 0x0 DUP1 REVERT JUMPDEST POP PUSH2 0x213 PUSH2 0x7AE JUMP JUMPDEST PUSH1 0x40 MLOAD PUSH2 0x220 SWAP2 SWAP1 PUSH2 0x116E JUMP JUMPDEST PUSH1 0x40 MLOAD DUP1 SWAP2 SUB SWAP1 RETURN JUMPDEST CALLVALUE DUP1 ISZERO PUSH2 0x235 JUMPI PUSH1 0x0 DUP1 REVERT JUMPDEST POP PUSH2 0x23E PUSH2 0x7D6 JUMP JUMPDEST PUSH1 0x40 MLOAD PUSH2 0x24B SWAP2 SWAP1 PUSH2 0x11A2 JUMP JUMPDEST PUSH1 0x40 MLOAD DUP1 SWAP2 SUB SWAP1 RETURN JUMPDEST CALLVALUE DUP1 ISZERO PUSH2 0x260 JUMPI PUSH1 0x0 DUP1 REVERT JUMPDEST POP PUSH2 0x27B PUSH1 0x4 DUP1 CALLDATASIZE SUB DUP2 ADD SWAP1 PUSH2 0x276 SWAP2 SWAP1 PUSH2 0x105F JUMP JUMPDEST PUSH2 0x855 JUMP JUMPDEST STOP JUMPDEST PUSH2 0x285 PUSH2 0x86B JUMP JUMPDEST STOP JUMPDEST CALLVALUE DUP1 ISZERO PUSH2 0x293 JUMPI PUSH1 0x0 DUP1 REVERT JUMPDEST POP PUSH2 0x2AE PUSH1 0x4 DUP1 CALLDATASIZE SUB DUP2 ADD SWAP1 PUSH2 0x2A9 SWAP2 SWAP1 PUSH2 0x11BD JUMP JUMPDEST PUSH2 0x8A7 JUMP JUMPDEST PUSH1 0x40 MLOAD PUSH2 0x2BB SWAP2 SWAP1 PUSH2 0x10E4 JUMP JUMPDEST PUSH1 0x40 MLOAD DUP1 SWAP2 SUB SWAP1 RETURN JUMPDEST PUSH2 0x2CC PUSH2 0x8C2 JUMP JUMPDEST STOP JUMPDEST CALLVALUE DUP1 ISZERO PUSH2 0x2DA JUMPI PUSH1 0x0 DUP1 REVERT JUMPDEST POP PUSH2 0x2F5 PUSH1 0x4 DUP1 CALLDATASIZE SUB DUP2 ADD SWAP1 PUSH2 0x2F0 SWAP2 SWAP1 PUSH2 0x11BD JUMP JUMPDEST PUSH2 0x8D6 JUMP JUMPDEST PUSH1 0x40 MLOAD PUSH2 0x302 SWAP2 SWAP1 PUSH2 0x10E4 JUMP JUMPDEST PUSH1 0x40 MLOAD DUP1 SWAP2 SUB SWAP1 RETURN JUMPDEST CALLVALUE DUP1 ISZERO PUSH2 0x317 JUMPI PUSH1 0x0 DUP1 REVERT JUMPDEST POP PUSH2 0x320 PUSH2 0x8F1 JUMP JUMPDEST PUSH1 0x40 MLOAD PUSH2 0x32D SWAP2 SWAP1 PUSH2 0x11F9 JUMP JUMPDEST PUSH1 0x40 MLOAD DUP1 SWAP2 SUB SWAP1 RETURN JUMPDEST CALLVALUE DUP1 ISZERO PUSH2 0x342 JUMPI PUSH1 0x0 DUP1 REVERT JUMPDEST POP PUSH2 0x34B PUSH2 0x91A JUMP JUMPDEST PUSH1 0x40 MLOAD PUSH2 0x358 SWAP2 SWAP1 PUSH2 0xFA4 JUMP JUMPDEST PUSH1 0x40 MLOAD DUP1 SWAP2 SUB SWAP1 RETURN JUMPDEST CALLVALUE DUP1 ISZERO PUSH2 0x36D JUMPI PUSH1 0x0 DUP1 REVERT JUMPDEST POP PUSH2 0x388 PUSH1 0x4 DUP1 CALLDATASIZE SUB DUP2 ADD SWAP1 PUSH2 0x383 SWAP2 SWAP1 PUSH2 0x105F JUMP JUMPDEST PUSH2 0x9AC JUMP JUMPDEST PUSH1 0x40 MLOAD PUSH2 0x395 SWAP2 SWAP1 PUSH2 0x10BA JUMP JUMPDEST PUSH1 0x40 MLOAD DUP1 SWAP2 SUB SWAP1 RETURN JUMPDEST CALLVALUE DUP1 ISZERO PUSH2 0x3AA JUMPI PUSH1 0x0 DUP1 REVERT JUMPDEST POP PUSH2 0x3C5 PUSH1 0x4 DUP1 CALLDATASIZE SUB DUP2 ADD SWAP1 PUSH2 0x3C0 SWAP2 SWAP1 PUSH2 0x126C JUMP JUMPDEST PUSH2 0xA3E JUMP JUMPDEST STOP JUMPDEST CALLVALUE DUP1 ISZERO PUSH2 0x3D3 JUMPI PUSH1 0x0 DUP1 REVERT JUMPDEST POP PUSH2 0x3EE PUSH1 0x4 DUP1 CALLDATASIZE SUB DUP2 ADD SWAP1 PUSH2 0x3E9 SWAP2 SWAP1 PUSH2 0x130E JUMP JUMPDEST PUSH2 0xC0B JUMP JUMPDEST PUSH1 0x40 MLOAD PUSH2 0x3FB SWAP2 SWAP1 PUSH2 0x10E4 JUMP JUMPDEST PUSH1 0x40 MLOAD DUP1 SWAP2 SUB SWAP1 RETURN JUMPDEST PUSH2 0x41E PUSH1 0x4 DUP1 CALLDATASIZE SUB DUP2 ADD SWAP1 PUSH2 0x419 SWAP2 SWAP1 PUSH2 0x11BD JUMP JUMPDEST PUSH2 0xCA4 JUMP JUMPDEST STOP JUMPDEST PUSH2 0x43A PUSH1 0x4 DUP1 CALLDATASIZE SUB DUP2 ADD SWAP1 PUSH2 0x435 SWAP2 SWAP1 PUSH2 0x11BD JUMP JUMPDEST PUSH2 0xCE5 JUMP JUMPDEST STOP JUMPDEST CALLVALUE DUP1 ISZERO PUSH2 0x448 JUMPI PUSH1 0x0 DUP1 REVERT JUMPDEST POP PUSH2 0x463 PUSH1 0x4 DUP1 CALLDATASIZE SUB DUP2 ADD SWAP1 PUSH2 0x45E SWAP2 SWAP1 PUSH2 0x11BD JUMP JUMPDEST PUSH2 0xD0F JUMP JUMPDEST PUSH1 0x40 MLOAD PUSH2 0x470 SWAP2 SWAP1 PUSH2 0x10E4 JUMP JUMPDEST PUSH1 0x40 MLOAD DUP1 SWAP2 SUB SWAP1 RETURN JUMPDEST PUSH1 0x60 PUSH1 0x0 DUP1 SLOAD PUSH2 0x488 SWAP1 PUSH2 0x137D JUMP JUMPDEST DUP1 PUSH1 0x1F ADD PUSH1 0x20 DUP1 SWAP2 DIV MUL PUSH1 0x20 ADD PUSH1 0x40 MLOAD SWAP1 DUP2 ADD PUSH1 0x40 MSTORE DUP1 SWAP3 SWAP2 SWAP1 DUP2 DUP2 MSTORE PUSH1 0x20 ADD DUP3 DUP1 SLOAD PUSH2 0x4B4 SWAP1 PUSH2 0x137D JUMP JUMPDEST DUP1 ISZERO PUSH2 0x501 JUMPI DUP1 PUSH1 0x1F LT PUSH2 0x4D6 JUMPI PUSH2 0x100 DUP1 DUP4 SLOAD DIV MUL DUP4 MSTORE SWAP2 PUSH1 0x20 ADD SWAP2 PUSH2 0x501 JUMP JUMPDEST DUP3 ADD SWAP2 SWAP1 PUSH1 0x0 MSTORE PUSH1 0x20 PUSH1 0x0 KECCAK256 SWAP1 JUMPDEST DUP2 SLOAD DUP2 MSTORE SWAP1 PUSH1 0x1 ADD SWAP1 PUSH1 0x20 ADD DUP1 DUP4 GT PUSH2 0x4E4 JUMPI DUP3 SWAP1 SUB PUSH1 0x1F AND DUP3 ADD SWAP2 JUMPDEST POP POP POP POP POP SWAP1 POP SWAP1 JUMP JUMPDEST PUSH1 0x0 PUSH2 0x515 PUSH2 0xD2A JUMP JUMPDEST ISZERO PUSH2 0x549 JUMPI DUP2 NOT ISZERO PUSH15 0x22D473030F116DDEE9F6B43AC78BA3 DUP5 PUSH1 0x60 SHL PUSH1 0x60 SHR XOR OR PUSH2 0x548 JUMPI PUSH4 0x3F68539A PUSH1 0x0 MSTORE PUSH1 0x4 PUSH1 0x1C REVERT JUMPDEST JUMPDEST DUP3 PUSH1 0x20 MSTORE PUSH4 0x7F5E9F20 PUSH1 0xC MSTORE CALLER PUSH1 0x0 MSTORE DUP2 PUSH1 0x34 PUSH1 0xC KECCAK256 SSTORE DUP2 PUSH1 0x0 MSTORE PUSH1 0x2C MLOAD PUSH1 0x60 SHR CALLER PUSH32 0x8C5BE1E5EBEC7D5BD14F71427D1E84F3DD0314C0F7B2291E5B200AC8C7C3B925 PUSH1 0x20 PUSH1 0x0 LOG3 PUSH1 0x1 SWAP1 POP SWAP3 SWAP2 POP POP JUMP JUMPDEST PUSH1 0x0 PUSH9 0x5345CDF77EB68F44C SLOAD SWAP1 POP SWAP1 JUMP JUMPDEST PUSH1 0x0 PUSH2 0x5BA DUP5 DUP5 DUP5 PUSH2 0xD33 JUMP JUMPDEST PUSH2 0x5C2 PUSH2 0xD2A JUMP JUMPDEST ISZERO PUSH2 0x693 JUMPI DUP4 PUSH1 0x60 SHL PUSH15 0x22D473030F116DDEE9F6B43AC78BA3 CALLER EQ PUSH2 0x61C JUMPI CALLER PUSH1 0x20 MSTORE PUSH4 0x7F5E9F20 DUP2 OR PUSH1 0xC MSTORE PUSH1 0x34 PUSH1 0xC KECCAK256 DUP1 SLOAD DUP1 NOT ISZERO PUSH2 0x619 JUMPI DUP1 DUP6 GT ISZERO PUSH2 0x613 JUMPI PUSH4 0x13BE252B PUSH1 0x0 MSTORE PUSH1 0x4 PUSH1 0x1C REVERT JUMPDEST DUP5 DUP2 SUB DUP3 SSTORE JUMPDEST POP POP JUMPDEST PUSH4 0x87A211A2 DUP2 OR PUSH1 0xC MSTORE PUSH1 0x20 PUSH1 0xC KECCAK256 DUP1 SLOAD DUP1 DUP6 GT ISZERO PUSH2 0x643 JUMPI PUSH4 0xF4D678B8 PUSH1 0x0 MSTORE PUSH1 0x4 PUSH1 0x1C REVERT JUMPDEST DUP5 DUP2 SUB DUP3 SSTORE DUP6 PUSH1 0x0 MSTORE PUSH1 0x20 PUSH1 0xC KECCAK256 DUP6 DUP2 SLOAD ADD DUP2 SSTORE DUP6 PUSH1 0x20 MSTORE PUSH1 0xC MLOAD PUSH1 0x60 SHR DUP5 PUSH1 0x60 SHR PUSH32 0xDDF252AD1BE2C89B69C2B068FC378DAA952BA7F163C4A11628F55A4DF523B3EF PUSH1 0x20 DUP1 LOG3 POP POP POP POP PUSH2 0x744 JUMP JUMPDEST DUP4 PUSH1 0x60 SHL CALLER PUSH1 0x20 MSTORE PUSH4 0x7F5E9F20 DUP2 OR PUSH1 0xC MSTORE PUSH1 0x34 PUSH1 0xC KECCAK256 DUP1 SLOAD DUP1 NOT ISZERO PUSH2 0x6CF JUMPI DUP1 DUP6 GT ISZERO PUSH2 0x6C9 JUMPI PUSH4 0x13BE252B PUSH1 0x0 MSTORE PUSH1 0x4 PUSH1 0x1C REVERT JUMPDEST DUP5 DUP2 SUB DUP3 SSTORE JUMPDEST PUSH4 0x87A211A2 DUP4 OR PUSH1 0xC MSTORE PUSH1 0x20 PUSH1 0xC KECCAK256 DUP1 SLOAD DUP1 DUP8 GT ISZERO PUSH2 0x6F6 JUMPI PUSH4 0xF4D678B8 PUSH1 0x0 MSTORE PUSH1 0x4 PUSH1 0x1C REVERT JUMPDEST DUP7 DUP2 SUB DUP3 SSTORE DUP8 PUSH1 0x0 MSTORE PUSH1 0x20 PUSH1 0xC KECCAK256 DUP8 DUP2 SLOAD ADD DUP2 SSTORE DUP8 PUSH1 0x20 MSTORE PUSH1 0xC MLOAD PUSH1 0x60 SHR DUP7 PUSH1 0x60 SHR PUSH32 0xDDF252AD1BE2C89B69C2B068FC378DAA952BA7F163C4A11628F55A4DF523B3EF PUSH1 0x20 DUP1 LOG3 POP POP POP POP POP POP JUMPDEST PUSH2 0x74F DUP5 DUP5 DUP5 PUSH2 0xD38 JUMP JUMPDEST PUSH1 0x1 SWAP1 POP SWAP4 SWAP3 POP POP POP JUMP JUMPDEST PUSH1 0x0 PUSH2 0x764 PUSH2 0xD3D JUMP JUMPDEST PUSH8 0xFFFFFFFFFFFFFFFF AND TIMESTAMP ADD SWAP1 POP PUSH4 0x389A75E1 PUSH1 0xC MSTORE CALLER PUSH1 0x0 MSTORE DUP1 PUSH1 0x20 PUSH1 0xC KECCAK256 SSTORE CALLER PUSH32 0xDBF36A107DA19E49527A7176A1BABF963B4B0FF8CDE35EE35D6CD8F1F9AC7E1D PUSH1 0x0 DUP1 LOG2 POP JUMP JUMPDEST PUSH1 0x0 PUSH32 0x0 SWAP1 POP SWAP1 JUMP JUMPDEST PUSH1 0x0 DUP1 PUSH2 0x7E1 PUSH2 0xD48 JUMP JUMPDEST SWAP1 POP PUSH1 0x0 DUP1 SHL DUP2 SUB PUSH2 0x7FF JUMPI PUSH2 0x7F5 PUSH2 0x479 JUMP JUMPDEST DUP1 MLOAD SWAP1 PUSH1 0x20 ADD KECCAK256 SWAP1 POP JUMPDEST PUSH1 0x0 PUSH2 0x809 PUSH2 0xD4D JUMP JUMPDEST SWAP1 POP PUSH1 0x40 MLOAD PUSH32 0x8B73C3C69BB8FE3D512ECC4CF759CC79239F7B179B0FFACAA9A75D522B39400F DUP2 MSTORE DUP3 PUSH1 0x20 DUP3 ADD MSTORE DUP2 PUSH1 0x40 DUP3 ADD MSTORE CHAINID PUSH1 0x60 DUP3 ADD MSTORE ADDRESS PUSH1 0x80 DUP3 ADD MSTORE PUSH1 0xA0 DUP2 KECCAK256 SWAP4 POP POP POP POP SWAP1 JUMP JUMPDEST PUSH2 0x85D PUSH2 0xD78 JUMP JUMPDEST PUSH2 0x867 DUP3 DUP3 PUSH2 0xDB0 JUMP JUMPDEST POP POP JUMP JUMPDEST PUSH4 0x389A75E1 PUSH1 0xC MSTORE CALLER PUSH1 0x0 MSTORE PUSH1 0x0 PUSH1 0x20 PUSH1 0xC KECCAK256 SSTORE CALLER PUSH32 0xFA7B8EAB7DA67F412CC9575ED43464468F9BFBAE89D1675917346CA6D8FE3C92 PUSH1 0x0 DUP1 LOG2 JUMP JUMPDEST PUSH1 0x0 PUSH4 0x87A211A2 PUSH1 0xC MSTORE DUP2 PUSH1 0x0 MSTORE PUSH1 0x20 PUSH1 0xC KECCAK256 SLOAD SWAP1 POP SWAP2 SWAP1 POP JUMP JUMPDEST PUSH2 0x8CA PUSH2 0xD78 JUMP JUMPDEST PUSH2 0x8D4 PUSH1 0x0 PUSH2 0xE47 JUMP JUMPDEST JUMP JUMPDEST PUSH1 0x0 PUSH4 0x38377508 PUSH1 0xC MSTORE DUP2 PUSH1 0x0 MSTORE PUSH1 0x20 PUSH1 0xC KECCAK256 SLOAD SWAP1 POP SWAP2 SWAP1 POP JUMP JUMPDEST PUSH1 0x0 PUSH32 0xFFFFFFFFFFFFFFFFFFFFFFFFFFFFFFFFFFFFFFFFFFFFFFFFFFFFFFFF74873927 SLOAD SWAP1 POP SWAP1 JUMP JUMPDEST PUSH1 0x60 PUSH1 0x1 DUP1 SLOAD PUSH2 0x929 SWAP1 PUSH2 0x137D JUMP JUMPDEST DUP1 PUSH1 0x1F ADD PUSH1 0x20 DUP1 SWAP2 DIV MUL PUSH1 0x20 ADD PUSH1 0x40 MLOAD SWAP1 DUP2 ADD PUSH1 0x40 MSTORE DUP1 SWAP3 SWAP2 SWAP1 DUP2 DUP2 MSTORE PUSH1 0x20 ADD DUP3 DUP1 SLOAD PUSH2 0x955 SWAP1 PUSH2 0x137D JUMP JUMPDEST DUP1 ISZERO PUSH2 0x9A2 JUMPI DUP1 PUSH1 0x1F LT PUSH2 0x977 JUMPI PUSH2 0x100 DUP1 DUP4 SLOAD DIV MUL DUP4 MSTORE SWAP2 PUSH1 0x20 ADD SWAP2 PUSH2 0x9A2 JUMP JUMPDEST DUP3 ADD SWAP2 SWAP1 PUSH1 0x0 MSTORE PUSH1 0x20 PUSH1 0x0 KECCAK256 SWAP1 JUMPDEST DUP2 SLOAD DUP2 MSTORE SWAP1 PUSH1 0x1 ADD SWAP1 PUSH1 0x20 ADD DUP1 DUP4 GT PUSH2 0x985 JUMPI DUP3 SWAP1 SUB PUSH1 0x1F AND DUP3 ADD SWAP2 JUMPDEST POP POP POP POP POP SWAP1 POP SWAP1 JUMP JUMPDEST PUSH1 0x0 PUSH2 0x9B9 CALLER DUP5 DUP5 PUSH2 0xD33 JUMP JUMPDEST PUSH4 0x87A211A2 PUSH1 0xC MSTORE CALLER PUSH1 0x0 MSTORE PUSH1 0x20 PUSH1 0xC KECCAK256 DUP1 SLOAD DUP1 DUP5 GT ISZERO PUSH2 0x9E2 JUMPI PUSH4 0xF4D678B8 PUSH1 0x0 MSTORE PUSH1 0x4 PUSH1 0x1C REVERT JUMPDEST DUP4 DUP2 SUB DUP3 SSTORE DUP5 PUSH1 0x0 MSTORE PUSH1 0x20 PUSH1 0xC KECCAK256 DUP5 DUP2 SLOAD ADD DUP2 SSTORE DUP5 PUSH1 0x20 MSTORE PUSH1 0xC MLOAD PUSH1 0x60 SHR CALLER PUSH32 0xDDF252AD1BE2C89B69C2B068FC378DAA952BA7F163C4A11628F55A4DF523B3EF PUSH1 0x20 DUP1 LOG3 POP POP POP PUSH2 0xA34 CALLER DUP5 DUP5 PUSH2 0xD38 JUMP JUMPDEST PUSH1 0x1 SWAP1 POP SWAP3 SWAP2 POP POP JUMP JUMPDEST PUSH2 0xA46 PUSH2 0xD2A JUMP JUMPDEST ISZERO PUSH2 0xA7A JUMPI DUP5 NOT ISZERO PUSH15 0x22D473030F116DDEE9F6B43AC78BA3 DUP8 PUSH1 0x60 SHL PUSH1 0x60 SHR XOR OR PUSH2 0xA79 JUMPI PUSH4 0x3F68539A PUSH1 0x0 MSTORE PUSH1 0x4 PUSH1 0x1C REVERT JUMPDEST JUMPDEST PUSH1 0x0 PUSH2 0xA84 PUSH2 0xD48 JUMP JUMPDEST SWAP1 POP PUSH1 0x0 DUP1 SHL DUP2 SUB PUSH2 0xAA2 JUMPI PUSH2 0xA98 PUSH2 0x479 JUMP JUMPDEST DUP1 MLOAD SWAP1 PUSH1 0x20 ADD KECCAK256 SWAP1 POP JUMPDEST PUSH1 0x0 PUSH2 0xAAC PUSH2 0xD4D JUMP JUMPDEST SWAP1 POP DUP6 TIMESTAMP GT ISZERO PUSH2 0xAC4 JUMPI PUSH4 0x1A15A3CC PUSH1 0x0 MSTORE PUSH1 0x4 PUSH1 0x1C REVERT JUMPDEST PUSH1 0x40 MLOAD DUP10 PUSH1 0x60 SHL PUSH1 0x60 SHR SWAP10 POP DUP9 PUSH1 0x60 SHL PUSH1 0x60 SHR SWAP9 POP PUSH6 0x383775081901 PUSH1 0xE MSTORE DUP10 PUSH1 0x0 MSTORE PUSH1 0x20 PUSH1 0xC KECCAK256 DUP1 SLOAD PUSH32 0x8B73C3C69BB8FE3D512ECC4CF759CC79239F7B179B0FFACAA9A75D522B39400F DUP4 MSTORE DUP5 PUSH1 0x20 DUP5 ADD MSTORE DUP4 PUSH1 0x40 DUP5 ADD MSTORE CHAINID PUSH1 0x60 DUP5 ADD MSTORE ADDRESS PUSH1 0x80 DUP5 ADD MSTORE PUSH1 0xA0 DUP4 KECCAK256 PUSH1 0x2E MSTORE PUSH32 0x6E71EDAE12B1B97F4D1F60370FEF10105FA2FAAE0126114A169C64845D6126C9 DUP4 MSTORE DUP12 PUSH1 0x20 DUP5 ADD MSTORE DUP11 PUSH1 0x40 DUP5 ADD MSTORE DUP10 PUSH1 0x60 DUP5 ADD MSTORE DUP1 PUSH1 0x80 DUP5 ADD MSTORE DUP9 PUSH1 0xA0 DUP5 ADD MSTORE PUSH1 0xC0 DUP4 KECCAK256 PUSH1 0x4E MSTORE PUSH1 0x42 PUSH1 0x2C KECCAK256 PUSH1 0x0 MSTORE DUP8 PUSH1 0xFF AND PUSH1 0x20 MSTORE DUP7 PUSH1 0x40 MSTORE DUP6 PUSH1 0x60 MSTORE PUSH1 0x20 DUP1 PUSH1 0x80 PUSH1 0x0 PUSH1 0x1 GAS STATICCALL DUP13 RETURNDATASIZE MLOAD EQ PUSH2 0xBB0 JUMPI PUSH4 0xDDAFBAEF PUSH1 0x0 MSTORE PUSH1 0x4 PUSH1 0x1C REVERT JUMPDEST DUP1 DUP3 ADD DUP4 SSTORE DUP12 PUSH4 0x7F5E9F20 PUSH1 0xA0 SHL OR PUSH1 0x40 MSTORE DUP11 PUSH1 0x34 PUSH1 0x2C KECCAK256 SSTORE DUP12 DUP14 PUSH32 0x8C5BE1E5EBEC7D5BD14F71427D1E84F3DD0314C0F7B2291E5B200AC8C7C3B925 PUSH1 0x20 PUSH1 0x60 DUP9 ADD LOG3 DUP4 PUSH1 0x40 MSTORE PUSH1 0x0 PUSH1 0x60 MSTORE POP POP POP POP POP POP POP POP POP POP POP POP POP JUMP JUMPDEST PUSH1 0x0 PUSH2 0xC15 PUSH2 0xD2A JUMP JUMPDEST ISZERO PUSH2 0xC85 JUMPI PUSH15 0x22D473030F116DDEE9F6B43AC78BA3 PUSH20 0xFFFFFFFFFFFFFFFFFFFFFFFFFFFFFFFFFFFFFFFF AND DUP3 PUSH20 0xFFFFFFFFFFFFFFFFFFFFFFFFFFFFFFFFFFFFFFFF AND SUB PUSH2 0xC84 JUMPI PUSH32 0xFFFFFFFFFFFFFFFFFFFFFFFFFFFFFFFFFFFFFFFFFFFFFFFFFFFFFFFFFFFFFFFF SWAP1 POP PUSH2 0xC9E JUMP JUMPDEST JUMPDEST DUP2 PUSH1 0x20 MSTORE PUSH4 0x7F5E9F20 PUSH1 0xC MSTORE DUP3 PUSH1 0x0 MSTORE PUSH1 0x34 PUSH1 0xC KECCAK256 SLOAD SWAP1 POP JUMPDEST SWAP3 SWAP2 POP POP JUMP JUMPDEST PUSH2 0xCAC PUSH2 0xD78 JUMP JUMPDEST PUSH4 0x389A75E1 PUSH1 0xC MSTORE DUP1 PUSH1 0x0 MSTORE PUSH1 0x20 PUSH1 0xC KECCAK256 DUP1 SLOAD TIMESTAMP GT ISZERO PUSH2 0xCD4 JUMPI PUSH4 0x6F5E8818 PUSH1 0x0 MSTORE PUSH1 0x4 PUSH1 0x1C REVERT JUMPDEST PUSH1 0x0 DUP2 SSTORE POP PUSH2 0xCE2 DUP2 PUSH2 0xE47 JUMP JUMPDEST POP JUMP JUMPDEST PUSH2 0xCED PUSH2 0xD78 JUMP JUMPDEST DUP1 PUSH1 0x60 SHL PUSH2 0xD03 JUMPI PUSH4 0x7448FBAE PUSH1 0x0 MSTORE PUSH1 0x4 PUSH1 0x1C REVERT JUMPDEST PUSH2 0xD0C DUP2 PUSH2 0xE47 JUMP JUMPDEST POP JUMP JUMPDEST PUSH1 0x0 PUSH4 0x389A75E1 PUSH1 0xC MSTORE DUP2 PUSH1 0x0 MSTORE PUSH1 0x20 PUSH1 0xC KECCAK256 SLOAD SWAP1 POP SWAP2 SWAP1 POP JUMP JUMPDEST PUSH1 0x0 PUSH1 0x1 SWAP1 POP SWAP1 JUMP JUMPDEST POP POP POP JUMP JUMPDEST POP POP POP JUMP JUMPDEST PUSH1 0x0 PUSH3 0x2A300 SWAP1 POP SWAP1 JUMP JUMPDEST PUSH1 0x0 SWAP1 JUMP JUMPDEST PUSH1 0x0 PUSH32 0xC89EFDAA54C0F20C7ADF612882DF0950F5A951637E0307CDCB4C672F298B8BC6 PUSH1 0x0 SHL SWAP1 POP SWAP1 JUMP JUMPDEST PUSH32 0xFFFFFFFFFFFFFFFFFFFFFFFFFFFFFFFFFFFFFFFFFFFFFFFFFFFFFFFF74873927 SLOAD CALLER EQ PUSH2 0xDAE JUMPI PUSH4 0x82B42900 PUSH1 0x0 MSTORE PUSH1 0x4 PUSH1 0x1C REVERT JUMPDEST JUMP JUMPDEST PUSH2 0xDBC PUSH1 0x0 DUP4 DUP4 PUSH2 0xD33 JUMP JUMPDEST PUSH9 0x5345CDF77EB68F44C SLOAD DUP2 DUP2 ADD DUP2 DUP2 LT ISZERO PUSH2 0xDE0 JUMPI PUSH4 0xE5CFE957 PUSH1 0x0 MSTORE PUSH1 0x4 PUSH1 0x1C REVERT JUMPDEST DUP1 PUSH9 0x5345CDF77EB68F44C SSTORE PUSH4 0x87A211A2 PUSH1 0xC MSTORE DUP4 PUSH1 0x0 MSTORE PUSH1 0x20 PUSH1 0xC KECCAK256 DUP4 DUP2 SLOAD ADD DUP2 SSTORE DUP4 PUSH1 0x20 MSTORE PUSH1 0xC MLOAD PUSH1 0x60 SHR PUSH1 0x0 PUSH32 0xDDF252AD1BE2C89B69C2B068FC378DAA952BA7F163C4A11628F55A4DF523B3EF PUSH1 0x20 DUP1 LOG3 POP POP POP PUSH2 0xE43 PUSH1 0x0 DUP4 DUP4 PUSH2 0xD38 JUMP JUMPDEST POP POP JUMP JUMPDEST PUSH2 0xE4F PUSH2 0xF0F JUMP JUMPDEST ISZERO PUSH2 0xEB5 JUMPI PUSH32 0xFFFFFFFFFFFFFFFFFFFFFFFFFFFFFFFFFFFFFFFFFFFFFFFFFFFFFFFF74873927 DUP2 PUSH1 0x60 SHL PUSH1 0x60 SHR SWAP2 POP DUP2 DUP2 SLOAD PUSH32 0x8BE0079C531659141344CD1FD0A4F28419497F9722A3DAAFE3B4186F6B6457E0 PUSH1 0x0 DUP1 LOG3 DUP2 ISZERO PUSH1 0xFF SHL DUP3 OR DUP2 SSTORE POP PUSH2 0xF0C JUMP JUMPDEST PUSH32 0xFFFFFFFFFFFFFFFFFFFFFFFFFFFFFFFFFFFFFFFFFFFFFFFFFFFFFFFF74873927 DUP2 PUSH1 0x60 SHL PUSH1 0x60 SHR SWAP2 POP DUP2 DUP2 SLOAD PUSH32 0x8BE0079C531659141344CD1FD0A4F28419497F9722A3DAAFE3B4186F6B6457E0 PUSH1 0x0 DUP1 LOG3 DUP2 DUP2 SSTORE POP JUMPDEST POP JUMP JUMPDEST PUSH1 0x0 SWAP1 JUMP JUMPDEST PUSH1 0x0 DUP2 MLOAD SWAP1 POP SWAP2 SWAP1 POP JUMP JUMPDEST PUSH1 0x0 DUP3 DUP3 MSTORE PUSH1 0x20 DUP3 ADD SWAP1 POP SWAP3 SWAP2 POP POP JUMP JUMPDEST PUSH1 0x0 JUMPDEST DUP4 DUP2 LT ISZERO PUSH2 0xF4E JUMPI DUP1 DUP3 ADD MLOAD DUP2 DUP5 ADD MSTORE PUSH1 0x20 DUP2 ADD SWAP1 POP PUSH2 0xF33 JUMP JUMPDEST PUSH1 0x0 DUP5 DUP5 ADD MSTORE POP POP POP POP JUMP JUMPDEST PUSH1 0x0 PUSH1 0x1F NOT PUSH1 0x1F DUP4 ADD AND SWAP1 POP SWAP2 SWAP1 POP JUMP JUMPDEST PUSH1 0x0 PUSH2 0xF76 DUP3 PUSH2 0xF14 JUMP JUMPDEST PUSH2 0xF80 DUP2 DUP6 PUSH2 0xF1F JUMP JUMPDEST SWAP4 POP PUSH2 0xF90 DUP2 DUP6 PUSH1 0x20 DUP7 ADD PUSH2 0xF30 JUMP JUMPDEST PUSH2 0xF99 DUP2 PUSH2 0xF5A JUMP JUMPDEST DUP5 ADD SWAP2 POP POP SWAP3 SWAP2 POP POP JUMP JUMPDEST PUSH1 0x0 PUSH1 0x20 DUP3 ADD SWAP1 POP DUP2 DUP2 SUB PUSH1 0x0 DUP4 ADD MSTORE PUSH2 0xFBE DUP2 DUP5 PUSH2 0xF6B JUMP JUMPDEST SWAP1 POP SWAP3 SWAP2 POP POP JUMP JUMPDEST PUSH1 0x0 DUP1 REVERT JUMPDEST PUSH1 0x0 PUSH20 0xFFFFFFFFFFFFFFFFFFFFFFFFFFFFFFFFFFFFFFFF DUP3 AND SWAP1 POP SWAP2 SWAP1 POP JUMP JUMPDEST PUSH1 0x0 PUSH2 0xFF6 DUP3 PUSH2 0xFCB JUMP JUMPDEST SWAP1 POP SWAP2 SWAP1 POP JUMP JUMPDEST PUSH2 0x1006 DUP2 PUSH2 0xFEB JUMP JUMPDEST DUP2 EQ PUSH2 0x1011 JUMPI PUSH1 0x0 DUP1 REVERT JUMPDEST POP JUMP JUMPDEST PUSH1 0x0 DUP2 CALLDATALOAD SWAP1 POP PUSH2 0x1023 DUP2 PUSH2 0xFFD JUMP JUMPDEST SWAP3 SWAP2 POP POP JUMP JUMPDEST PUSH1 0x0 DUP2 SWAP1 POP SWAP2 SWAP1 POP JUMP JUMPDEST PUSH2 0x103C DUP2 PUSH2 0x1029 JUMP JUMPDEST DUP2 EQ PUSH2 0x1047 JUMPI PUSH1 0x0 DUP1 REVERT JUMPDEST POP JUMP JUMPDEST PUSH1 0x0 DUP2 CALLDATALOAD SWAP1 POP PUSH2 0x1059 DUP2 PUSH2 0x1033 JUMP JUMPDEST SWAP3 SWAP2 POP POP JUMP JUMPDEST PUSH1 0x0 DUP1 PUSH1 0x40 DUP4 DUP6 SUB SLT ISZERO PUSH2 0x1076 JUMPI PUSH2 0x1075 PUSH2 0xFC6 JUMP JUMPDEST JUMPDEST PUSH1 0x0 PUSH2 0x1084 DUP6 DUP3 DUP7 ADD PUSH2 0x1014 JUMP JUMPDEST SWAP3 POP POP PUSH1 0x20 PUSH2 0x1095 DUP6 DUP3 DUP7 ADD PUSH2 0x104A JUMP JUMPDEST SWAP2 POP POP SWAP3 POP SWAP3 SWAP1 POP JUMP JUMPDEST PUSH1 0x0 DUP2 ISZERO ISZERO SWAP1 POP SWAP2 SWAP1 POP JUMP JUMPDEST PUSH2 0x10B4 DUP2 PUSH2 0x109F JUMP JUMPDEST DUP3 MSTORE POP POP JUMP JUMPDEST PUSH1 0x0 PUSH1 0x20 DUP3 ADD SWAP1 POP PUSH2 0x10CF PUSH1 0x0 DUP4 ADD DUP5 PUSH2 0x10AB JUMP JUMPDEST SWAP3 SWAP2 POP POP JUMP JUMPDEST PUSH2 0x10DE DUP2 PUSH2 0x1029 JUMP JUMPDEST DUP3 MSTORE POP POP JUMP JUMPDEST PUSH1 0x0 PUSH1 0x20 DUP3 ADD SWAP1 POP PUSH2 0x10F9 PUSH1 0x0 DUP4 ADD DUP5 PUSH2 0x10D5 JUMP JUMPDEST SWAP3 SWAP2 POP POP JUMP JUMPDEST PUSH1 0x0 DUP1 PUSH1 0x0 PUSH1 0x60 DUP5 DUP7 SUB SLT ISZERO PUSH2 0x1118 JUMPI PUSH2 0x1117 PUSH2 0xFC6 JUMP JUMPDEST JUMPDEST PUSH1 0x0 PUSH2 0x1126 DUP7 DUP3 DUP8 ADD PUSH2 0x1014 JUMP JUMPDEST SWAP4 POP POP PUSH1 0x20 PUSH2 0x1137 DUP7 DUP3 DUP8 ADD PUSH2 0x1014 JUMP JUMPDEST SWAP3 POP POP PUSH1 0x40 PUSH2 0x1148 DUP7 DUP3 DUP8 ADD PUSH2 0x104A JUMP JUMPDEST SWAP2 POP POP SWAP3 POP SWAP3 POP SWAP3 JUMP JUMPDEST PUSH1 0x0 PUSH1 0xFF DUP3 AND SWAP1 POP SWAP2 SWAP1 POP JUMP JUMPDEST PUSH2 0x1168 DUP2 PUSH2 0x1152 JUMP JUMPDEST DUP3 MSTORE POP POP JUMP JUMPDEST PUSH1 0x0 PUSH1 0x20 DUP3 ADD SWAP1 POP PUSH2 0x1183 PUSH1 0x0 DUP4 ADD DUP5 PUSH2 0x115F JUMP JUMPDEST SWAP3 SWAP2 POP POP JUMP JUMPDEST PUSH1 0x0 DUP2 SWAP1 POP SWAP2 SWAP1 POP JUMP JUMPDEST PUSH2 0x119C DUP2 PUSH2 0x1189 JUMP JUMPDEST DUP3 MSTORE POP POP JUMP JUMPDEST PUSH1 0x0 PUSH1 0x20 DUP3 ADD SWAP1 POP PUSH2 0x11B7 PUSH1 0x0 DUP4 ADD DUP5 PUSH2 0x1193 JUMP JUMPDEST SWAP3 SWAP2 POP POP JUMP JUMPDEST PUSH1 0x0 PUSH1 0x20 DUP3 DUP5 SUB SLT ISZERO PUSH2 0x11D3 JUMPI PUSH2 0x11D2 PUSH2 0xFC6 JUMP JUMPDEST JUMPDEST PUSH1 0x0 PUSH2 0x11E1 DUP5 DUP3 DUP6 ADD PUSH2 0x1014 JUMP JUMPDEST SWAP2 POP POP SWAP3 SWAP2 POP POP JUMP JUMPDEST PUSH2 0x11F3 DUP2 PUSH2 0xFEB JUMP JUMPDEST DUP3 MSTORE POP POP JUMP JUMPDEST PUSH1 0x0 PUSH1 0x20 DUP3 ADD SWAP1 POP PUSH2 0x120E PUSH1 0x0 DUP4 ADD DUP5 PUSH2 0x11EA JUMP JUMPDEST SWAP3 SWAP2 POP POP JUMP JUMPDEST PUSH2 0x121D DUP2 PUSH2 0x1152 JUMP JUMPDEST DUP2 EQ PUSH2 0x1228 JUMPI PUSH1 0x0 DUP1 REVERT JUMPDEST POP JUMP JUMPDEST PUSH1 0x0 DUP2 CALLDATALOAD SWAP1 POP PUSH2 0x123A DUP2 PUSH2 0x1214 JUMP JUMPDEST SWAP3 SWAP2 POP POP JUMP JUMPDEST PUSH2 0x1249 DUP2 PUSH2 0x1189 JUMP JUMPDEST DUP2 EQ PUSH2 0x1254 JUMPI PUSH1 0x0 DUP1 REVERT JUMPDEST POP JUMP JUMPDEST PUSH1 0x0 DUP2 CALLDATALOAD SWAP1 POP PUSH2 0x1266 DUP2 PUSH2 0x1240 JUMP JUMPDEST SWAP3 SWAP2 POP POP JUMP JUMPDEST PUSH1 0x0 DUP1 PUSH1 0x0 DUP1 PUSH1 0x0 DUP1 PUSH1 0x0 PUSH1 0xE0 DUP9 DUP11 SUB SLT ISZERO PUSH2 0x128B JUMPI PUSH2 0x128A PUSH2 0xFC6 JUMP JUMPDEST JUMPDEST PUSH1 0x0 PUSH2 0x1299 DUP11 DUP3 DUP12 ADD PUSH2 0x1014 JUMP JUMPDEST SWAP8 POP POP PUSH1 0x20 PUSH2 0x12AA DUP11 DUP3 DUP12 ADD PUSH2 0x1014 JUMP JUMPDEST SWAP7 POP POP PUSH1 0x40 PUSH2 0x12BB DUP11 DUP3 DUP12 ADD PUSH2 0x104A JUMP JUMPDEST SWAP6 POP POP PUSH1 0x60 PUSH2 0x12CC DUP11 DUP3 DUP12 ADD PUSH2 0x104A JUMP JUMPDEST SWAP5 POP POP PUSH1 0x80 PUSH2 0x12DD DUP11 DUP3 DUP12 ADD PUSH2 0x122B JUMP JUMPDEST SWAP4 POP POP PUSH1 0xA0 PUSH2 0x12EE DUP11 DUP3 DUP12 ADD PUSH2 0x1257 JUMP JUMPDEST SWAP3 POP POP PUSH1 0xC0 PUSH2 0x12FF DUP11 DUP3 DUP12 ADD PUSH2 0x1257 JUMP JUMPDEST SWAP2 POP POP SWAP3 SWAP6 SWAP9 SWAP2 SWAP5 SWAP8 POP SWAP3 SWAP6 POP JUMP JUMPDEST PUSH1 0x0 DUP1 PUSH1 0x40 DUP4 DUP6 SUB SLT ISZERO PUSH2 0x1325 JUMPI PUSH2 0x1324 PUSH2 0xFC6 JUMP JUMPDEST JUMPDEST PUSH1 0x0 PUSH2 0x1333 DUP6 DUP3 DUP7 ADD PUSH2 0x1014 JUMP JUMPDEST SWAP3 POP POP PUSH1 0x20 PUSH2 0x1344 DUP6 DUP3 DUP7 ADD PUSH2 0x1014 JUMP JUMPDEST SWAP2 POP POP SWAP3 POP SWAP3 SWAP1 POP JUMP JUMPDEST PUSH32 0x4E487B7100000000000000000000000000000000000000000000000000000000 PUSH1 0x0 MSTORE PUSH1 0x22 PUSH1 0x4 MSTORE PUSH1 0x24 PUSH1 0x0 REVERT JUMPDEST PUSH1 0x0 PUSH1 0x2 DUP3 DIV SWAP1 POP PUSH1 0x1 DUP3 AND DUP1 PUSH2 0x1395 JUMPI PUSH1 0x7F DUP3 AND SWAP2 POP JUMPDEST PUSH1 0x20 DUP3 LT DUP2 SUB PUSH2 0x13A8 JUMPI PUSH2 0x13A7 PUSH2 0x134E JUMP JUMPDEST JUMPDEST POP SWAP2 SWAP1 POP JUMP INVALID LOG2 PUSH5 0x6970667358 0x22 SLT KECCAK256 0xBD DUP6 PUSH10 0x80D93054A7D58A2A1C56 PUSH3 0x79C653 0xA9 0xD9 0xAF SLOAD SWAP10 0xC8 CODECOPY SHL 0xA5 LOG4 0xDC PUSH1 0x72 RETURN STATICCALL PUSH5 0x736F6C6343 STOP ADDMOD BYTE STOP CALLER "
				},
				"gasEstimates": {
					"creation": {
						"codeDepositCost": "1018400",
						"executionCost": "infinite",
						"totalCost": "infinite"
					},
					"external": {
						"DOMAIN_SEPARATOR()": "infinite",
						"allowance(address,address)": "infinite",
						"approve(address,uint256)": "24943",
						"balanceOf(address)": "2919",
						"cancelOwnershipHandover()": "6407",
						"completeOwnershipHandover(address)": "35659",
						"decimals()": "infinite",
						"mint(address,uint256)": "53264",
						"name()": "infinite",
						"nonces(address)": "2853",
						"owner()": "2553",
						"ownershipHandoverExpiresAt(address)": "2918",
						"permit(address,address,uint256,uint256,uint8,bytes32,bytes32)": "infinite",
						"renounceOwnership()": "11012",
						"requestOwnershipHandover()": "23589",
						"symbol()": "infinite",
						"totalSupply()": "2505",
						"transfer(address,uint256)": "51374",
						"transferFrom(address,address,uint256)": "infinite",
						"transferOwnership(address)": "28511"
					}
				},
				"methodIdentifiers": {
					"DOMAIN_SEPARATOR()": "3644e515",
					"allowance(address,address)": "dd62ed3e",
					"approve(address,uint256)": "095ea7b3",
					"balanceOf(address)": "70a08231",
					"cancelOwnershipHandover()": "54d1f13d",
					"completeOwnershipHandover(address)": "f04e283e",
					"decimals()": "313ce567",
					"mint(address,uint256)": "40c10f19",
					"name()": "06fdde03",
					"nonces(address)": "7ecebe00",
					"owner()": "8da5cb5b",
					"ownershipHandoverExpiresAt(address)": "fee81cf4",
					"permit(address,address,uint256,uint256,uint8,bytes32,bytes32)": "d505accf",
					"renounceOwnership()": "715018a6",
					"requestOwnershipHandover()": "25692962",
					"symbol()": "95d89b41",
					"totalSupply()": "18160ddd",
					"transfer(address,uint256)": "a9059cbb",
					"transferFrom(address,address,uint256)": "23b872dd",
					"transferOwnership(address)": "f2fde38b"
				}
			},
			"storageLayout": {
				"storage": [
					{
						"astId": 714,
						"contract": "tokena.sol:MyToken",
						"label": "name_",
						"offset": 0,
						"slot": "0",
						"type": "t_string_storage"
					},
					{
						"astId": 716,
						"contract": "tokena.sol:MyToken",
						"label": "symbol_",
						"offset": 0,
						"slot": "1",
						"type": "t_string_storage"
					}
				],
				"types": {
					"t_string_storage": {
						"encoding": "bytes",
						"label": "string",
						"numberOfBytes": "32"
					}
				}
			},
			"userdoc": {
				"kind": "user",
				"methods": {},
				"version": 1
			}
		}
	}
}