{
	"data": {
		"bytecode": {
			"linkReferences": {},
			"object": "6080604052348015600f57600080fd5b50600a600360006101f462ffffff16815260200190815260200160002060006101000a81548162ffffff021916908362ffffff160217905550603c60036000610bb862ffffff16815260200190815260200160002060006101000a81548162ffffff021916908362ffffff160217905550617ad28061008f6000396000f3fe608060405234801561001057600080fd5b506004361061004c5760003560e01c80636441c780146100515780638903573014610081578063a1671295146100a3578063bae0d918146100d3575b600080fd5b61006b600480360381019061006691906109dd565b610103565b6040516100789190610a19565b60405180910390f35b610089610125565b60405161009a959493929190610a75565b60405180910390f35b6100bd60048036038101906100b89190610af4565b6101c7565b6040516100ca9190610b47565b60405180910390f35b6100ed60048036038101906100e89190610af4565b610941565b6040516100fa9190610b47565b60405180910390f35b60036020528060005260406000206000915054906101000a900462ffffff1681565b60008060000160009054906101000a900473ffffffffffffffffffffffffffffffffffffffff16908060010160009054906101000a900473ffffffffffffffffffffffffffffffffffffffff16908060020160009054906101000a900473ffffffffffffffffffffffffffffffffffffffff16908060020160149054906101000a900462ffffff16908060020160179054906101000a900462ffffff16905085565b60008273ffffffffffffffffffffffffffffffffffffffff168473ffffffffffffffffffffffffffffffffffffffff160361022e576040517ffbfc7a9100000000000000000000000000000000000000000000000000000000815260040160405180910390fd5b6000600360008462ffffff1662ffffff16815260200190815260200160002060009054906101000a900462ffffff1662ffffff1603610299576040517f271d3eec00000000000000000000000000000000000000000000000000000000815260040160405180910390fd5b8273ffffffffffffffffffffffffffffffffffffffff168473ffffffffffffffffffffffffffffffffffffffff16106102d35782846102d6565b83835b8094508195505050600073ffffffffffffffffffffffffffffffffffffffff168473ffffffffffffffffffffffffffffffffffffffff1603610344576040517f8579befe00000000000000000000000000000000000000000000000000000000815260040160405180910390fd5b600073ffffffffffffffffffffffffffffffffffffffff16600460008673ffffffffffffffffffffffffffffffffffffffff1673ffffffffffffffffffffffffffffffffffffffff16815260200190815260200160002060008573ffffffffffffffffffffffffffffffffffffffff1673ffffffffffffffffffffffffffffffffffffffff16815260200190815260200160002060008462ffffff1662ffffff16815260200190815260200160002060009054906101000a900473ffffffffffffffffffffffffffffffffffffffff1673ffffffffffffffffffffffffffffffffffffffff1614610461576040517f0311932200000000000000000000000000000000000000000000000000000000815260040160405180910390fd5b6040518060a001604052803073ffffffffffffffffffffffffffffffffffffffff1681526020018573ffffffffffffffffffffffffffffffffffffffff1681526020018473ffffffffffffffffffffffffffffffffffffffff168152602001600360008562ffffff1662ffffff16815260200190815260200160002060009054906101000a900462ffffff1662ffffff1681526020018362ffffff168152506000808201518160000160006101000a81548173ffffffffffffffffffffffffffffffffffffffff021916908373ffffffffffffffffffffffffffffffffffffffff16021790555060208201518160010160006101000a81548173ffffffffffffffffffffffffffffffffffffffff021916908373ffffffffffffffffffffffffffffffffffffffff16021790555060408201518160020160006101000a81548173ffffffffffffffffffffffffffffffffffffffff021916908373ffffffffffffffffffffffffffffffffffffffff16021790555060608201518160020160146101000a81548162ffffff021916908362ffffff16021790555060808201518160020160176101000a81548162ffffff021916908362ffffff16021790555090505083838360405160200161063893929190610be0565b6040516020818303038152906040528051906020012060405161065a90610990565b8190604051809103906000f590508015801561067a573d6000803e3d6000fd5b5090506000806000820160006101000a81549073ffffffffffffffffffffffffffffffffffffffff02191690556001820160006101000a81549073ffffffffffffffffffffffffffffffffffffffff02191690556002820160006101000a81549073ffffffffffffffffffffffffffffffffffffffff02191690556002820160146101000a81549062ffffff02191690556002820160176101000a81549062ffffff0219169055505080600460008673ffffffffffffffffffffffffffffffffffffffff1673ffffffffffffffffffffffffffffffffffffffff16815260200190815260200160002060008573ffffffffffffffffffffffffffffffffffffffff1673ffffffffffffffffffffffffffffffffffffffff16815260200190815260200160002060008462ffffff1662ffffff16815260200190815260200160002060006101000a81548173ffffffffffffffffffffffffffffffffffffffff021916908373ffffffffffffffffffffffffffffffffffffffff16021790555080600460008573ffffffffffffffffffffffffffffffffffffffff1673ffffffffffffffffffffffffffffffffffffffff16815260200190815260200160002060008673ffffffffffffffffffffffffffffffffffffffff1673ffffffffffffffffffffffffffffffffffffffff16815260200190815260200160002060008462ffffff1662ffffff16815260200190815260200160002060006101000a81548173ffffffffffffffffffffffffffffffffffffffff021916908373ffffffffffffffffffffffffffffffffffffffff1602179055508162ffffff168373ffffffffffffffffffffffffffffffffffffffff168573ffffffffffffffffffffffffffffffffffffffff167f97d23878912fda7f82bd5a8502f2c6e9086f5a4728f9054627788b3162f86ced846040516109329190610b47565b60405180910390a49392505050565b6004602052826000526040600020602052816000526040600020602052806000526040600020600092509250509054906101000a900473ffffffffffffffffffffffffffffffffffffffff1681565b616e7f80610c1e83390190565b600080fd5b600062ffffff82169050919050565b6109ba816109a2565b81146109c557600080fd5b50565b6000813590506109d7816109b1565b92915050565b6000602082840312156109f3576109f261099d565b5b6000610a01848285016109c8565b91505092915050565b610a13816109a2565b82525050565b6000602082019050610a2e6000830184610a0a565b92915050565b600073ffffffffffffffffffffffffffffffffffffffff82169050919050565b6000610a5f82610a34565b9050919050565b610a6f81610a54565b82525050565b600060a082019050610a8a6000830188610a66565b610a976020830187610a66565b610aa46040830186610a66565b610ab16060830185610a0a565b610abe6080830184610a0a565b9695505050505050565b610ad181610a54565b8114610adc57600080fd5b50565b600081359050610aee81610ac8565b92915050565b600080600060608486031215610b0d57610b0c61099d565b5b6000610b1b86828701610adf565b9350506020610b2c86828701610adf565b9250506040610b3d868287016109c8565b9150509250925092565b6000602082019050610b5c6000830184610a66565b92915050565b60008160601b9050919050565b6000610b7a82610b62565b9050919050565b6000610b8c82610b6f565b9050919050565b610ba4610b9f82610a54565b610b81565b82525050565b60008160e81b9050919050565b6000610bc282610baa565b9050919050565b610bda610bd5826109a2565b610bb7565b82525050565b6000610bec8286610b93565b601482019150610bfc8285610b93565b601482019150610c0c8284610bc9565b60038201915081905094935050505056fe61012060405234801561001157600080fd5b503373ffffffffffffffffffffffffffffffffffffffff1663890357306040518163ffffffff1660e01b815260040160a0604051808303816000875af115801561005f573d6000803e3d6000fd5b505050506040513d601f19601f8201168201806040525081019061008391906101e7565b8062ffffff166101009062ffffff168152508162ffffff1660e09062ffffff168152508273ffffffffffffffffffffffffffffffffffffffff1660c09073ffffffffffffffffffffffffffffffffffffffff168152508373ffffffffffffffffffffffffffffffffffffffff1660a09073ffffffffffffffffffffffffffffffffffffffff168152508473ffffffffffffffffffffffffffffffffffffffff1660809073ffffffffffffffffffffffffffffffffffffffff168152505050505050610262565b600080fd5b600073ffffffffffffffffffffffffffffffffffffffff82169050919050565b60006101798261014e565b9050919050565b6101898161016e565b811461019457600080fd5b50565b6000815190506101a681610180565b92915050565b600062ffffff82169050919050565b6101c4816101ac565b81146101cf57600080fd5b50565b6000815190506101e1816101bb565b92915050565b600080600080600060a0868803121561020357610202610149565b5b600061021188828901610197565b955050602061022288828901610197565b945050604061023388828901610197565b9350506060610244888289016101d2565b9250506080610255888289016101d2565b9150509295509295909350565b60805160a05160c05160e05161010051616b5b6103246000396000818161092d0152818161096401528181611a7b015261234f0152600081816115ca01528181611954015281816127c40152612805015260008181610a3501528181610b8301528181610d7e01528181611194015281816115ee01528181611faf0152612a630152600081816104620152818161099701528181610ada01528181610ca00152818161109a0152818161212601526129c2015260006115a60152616b5b6000f3fe608060405234801561001057600080fd5b50600436106101375760003560e01c80635339c296116100b8578063d21220a71161007c578063d21220a714610385578063dd5a12d8146103a3578063ddca3f43146103d4578063f3058399146103f2578063f30dba9314610410578063f637731d1461044457610137565b80635339c296146102b8578063883bdbfd146102e8578063a34123a714610318578063c45a015514610349578063d0c93a7c1461036757610137565b80633c8a7d8d116100ff5780633c8a7d8d146101e857806346141319146102195780634a182392146102375780634f1eb3d814610253578063514ea4bf1461028457610137565b80630dfe16811461013c5780631a6865021461015a578063252c09d71461017857806332148f67146101aa5780633850c7bd146101c6575b600080fd5b610144610460565b60405161015191906151d3565b60405180910390f35b610162610484565b60405161016f9190615219565b60405180910390f35b610192600480360381019061018d9190615274565b6104a6565b6040516101a1939291906152f7565b60405180910390f35b6101c460048036038101906101bf9190615368565b6104fe565b005b6101ce61059e565b6040516101df9594939291906153cf565b60405180910390f35b61020260048036038101906101fd919061550b565b610619565b6040516102109291906155b4565b60405180910390f35b61022161091f565b60405161022e91906155dd565b60405180910390f35b610251600480360381019061024c91906155f8565b610925565b005b61026d6004803603810190610268919061566c565b610ea8565b60405161027b9291906156e7565b60405180910390f35b61029e60048036038101906102999190615746565b611297565b6040516102af959493929190615773565b60405180910390f35b6102d260048036038101906102cd91906157ff565b611321565b6040516102df91906155dd565b60405180910390f35b61030260048036038101906102fd9190615882565b611339565b60405161030f919061598d565b60405180910390f35b610332600480360381019061032d91906159af565b6113df565b6040516103409291906155b4565b60405180910390f35b6103516115a4565b60405161035e91906151d3565b60405180910390f35b61036f6115c8565b60405161037c9190615a20565b60405180910390f35b61038d6115ec565b60405161039a91906151d3565b60405180910390f35b6103bd60048036038101906103b89190615a93565b611610565b6040516103cb929190615b46565b60405180910390f35b6103dc61234d565b6040516103e99190615a20565b60405180910390f35b6103fa612371565b60405161040791906155dd565b60405180910390f35b61042a60048036038101906104259190615b6f565b612377565b60405161043b959493929190615bb8565b60405180910390f35b61045e60048036038101906104599190615c0b565b6123e3565b005b7f000000000000000000000000000000000000000000000000000000000000000081565b600360009054906101000a90046fffffffffffffffffffffffffffffffff1681565b60078161ffff81106104b757600080fd5b016000915090508060000160009054906101000a900463ffffffff16908060000160049054906101000a900460060b9080600001600b9054906101000a900460ff16905083565b60006002600001601b9054906101000a900461ffff169050600061052e828460076125b79092919063ffffffff16565b90508161ffff168161ffff161461059957806002600001601b6101000a81548161ffff021916908361ffff1602179055507fac49e518f90a358f652e4400164f05a5d8f7e35e7747279bc3a93dbf584e125a8282604051610590929190615c38565b60405180910390a15b505050565b60028060000160009054906101000a900473ffffffffffffffffffffffffffffffffffffffff16908060000160149054906101000a900460020b908060000160179054906101000a900461ffff16908060000160199054906101000a900461ffff169080600001601b9054906101000a900461ffff16905085565b6000808560020b8760020b12158061065657507ffffffffffffffffffffffffffffffffffffffffffffffffffffffffffff2761860020b8760020b125b8061068f57507ffffffffffffffffffffffffffffffffffffffffffffffffffffffffffff2761861068690615c90565b60020b8660020b135b156106c6576040517f064847d000000000000000000000000000000000000000000000000000000000815260040160405180910390fd5b6000856fffffffffffffffffffffffffffffffff1603610712576040517f1007454800000000000000000000000000000000000000000000000000000000815260040160405180910390fd5b60008061075d60405180608001604052808c73ffffffffffffffffffffffffffffffffffffffff1681526020018b60020b81526020018a60020b815260200189600f0b81525061263b565b9250925050819350809250600080600086111561077f5761077c6129be565b91505b600085111561079357610790612a5f565b90505b3373ffffffffffffffffffffffffffffffffffffffff1663d348799787878b8b6040518563ffffffff1660e01b81526004016107d29493929190615d36565b600060405180830381600087803b1580156107ec57600080fd5b505af1158015610800573d6000803e3d6000fd5b5050505060008611801561082557506108176129be565b86836108239190615d76565b115b1561085c576040517f098fb56100000000000000000000000000000000000000000000000000000000815260040160405180910390fd5b60008511801561087d575061086f612a5f565b858261087b9190615d76565b115b156108b4576040517f098fb56100000000000000000000000000000000000000000000000000000000815260040160405180910390fd5b8960020b8b60020b8d73ffffffffffffffffffffffffffffffffffffffff167f7a53080ba414158be7ec69b987b5fb7d07dee101fe85488f0853ae16239d0bde338d8b8b6040516109089493929190615daa565b60405180910390a450505050965096945050505050565b60015481565b600061095a857f000000000000000000000000000000000000000000000000000000000000000062ffffff16620f4240612b00565b90506000610991857f000000000000000000000000000000000000000000000000000000000000000062ffffff16620f4240612b00565b905060007f000000000000000000000000000000000000000000000000000000000000000073ffffffffffffffffffffffffffffffffffffffff166370a08231306040518263ffffffff1660e01b81526004016109ee91906151d3565b602060405180830381865afa158015610a0b573d6000803e3d6000fd5b505050506040513d601f19601f82011682018060405250810190610a2f9190615e04565b905060007f000000000000000000000000000000000000000000000000000000000000000073ffffffffffffffffffffffffffffffffffffffff166370a08231306040518263ffffffff1660e01b8152600401610a8c91906151d3565b602060405180830381865afa158015610aa9573d6000803e3d6000fd5b505050506040513d601f19601f82011682018060405250810190610acd9190615e04565b90506000881115610b78577f000000000000000000000000000000000000000000000000000000000000000073ffffffffffffffffffffffffffffffffffffffff1663a9059cbb338a6040518363ffffffff1660e01b8152600401610b33929190615e31565b6020604051808303816000875af1158015610b52573d6000803e3d6000fd5b505050506040513d601f19601f82011682018060405250810190610b769190615e6f565b505b6000871115610c21577f000000000000000000000000000000000000000000000000000000000000000073ffffffffffffffffffffffffffffffffffffffff1663a9059cbb33896040518363ffffffff1660e01b8152600401610bdc929190615e31565b6020604051808303816000875af1158015610bfb573d6000803e3d6000fd5b505050506040513d601f19601f82011682018060405250810190610c1f9190615e6f565b505b3373ffffffffffffffffffffffffffffffffffffffff1663e9cbafb0858589896040518563ffffffff1660e01b8152600401610c609493929190615d36565b600060405180830381600087803b158015610c7a57600080fd5b505af1158015610c8e573d6000803e3d6000fd5b505050508382610c9e9190615d76565b7f000000000000000000000000000000000000000000000000000000000000000073ffffffffffffffffffffffffffffffffffffffff166370a08231306040518263ffffffff1660e01b8152600401610cf791906151d3565b602060405180830381865afa158015610d14573d6000803e3d6000fd5b505050506040513d601f19601f82011682018060405250810190610d389190615e04565b1015610d70576040517f7bc35e0500000000000000000000000000000000000000000000000000000000815260040160405180910390fd5b8281610d7c9190615d76565b7f000000000000000000000000000000000000000000000000000000000000000073ffffffffffffffffffffffffffffffffffffffff166370a08231306040518263ffffffff1660e01b8152600401610dd591906151d3565b602060405180830381865afa158015610df2573d6000803e3d6000fd5b505050506040513d601f19601f82011682018060405250810190610e169190615e04565b1015610e4e576040517f7bc35e0500000000000000000000000000000000000000000000000000000000815260040160405180910390fd5b3373ffffffffffffffffffffffffffffffffffffffff167f1c1db1f1d6a01e51fec24bb54087b65fe5430f692280e70d92f718eb72ae76b78989604051610e969291906155b4565b60405180910390a25050505050505050565b6000806000610ec53388886006612b6b909392919063ffffffff16565b6040518060a00160405290816000820160009054906101000a90046fffffffffffffffffffffffffffffffff166fffffffffffffffffffffffffffffffff166fffffffffffffffffffffffffffffffff16815260200160018201548152602001600282015481526020016003820160009054906101000a90046fffffffffffffffffffffffffffffffff166fffffffffffffffffffffffffffffffff166fffffffffffffffffffffffffffffffff1681526020016003820160109054906101000a90046fffffffffffffffffffffffffffffffff166fffffffffffffffffffffffffffffffff166fffffffffffffffffffffffffffffffff1681525050905080606001516fffffffffffffffffffffffffffffffff16856fffffffffffffffffffffffffffffffff1611610ff95784610fff565b80606001515b925080608001516fffffffffffffffffffffffffffffffff16846fffffffffffffffffffffffffffffffff1611611036578361103c565b80608001515b91506000836fffffffffffffffffffffffffffffffff16111561113857828160600181815161106b9190615e9c565b9150906fffffffffffffffffffffffffffffffff1690816fffffffffffffffffffffffffffffffff16815250507f000000000000000000000000000000000000000000000000000000000000000073ffffffffffffffffffffffffffffffffffffffff1663a9059cbb89856040518363ffffffff1660e01b81526004016110f3929190615f1b565b6020604051808303816000875af1158015611112573d6000803e3d6000fd5b505050506040513d601f19601f820116820180604052508101906111369190615e6f565b505b6000826fffffffffffffffffffffffffffffffff1611156112325781816080018181516111659190615e9c565b9150906fffffffffffffffffffffffffffffffff1690816fffffffffffffffffffffffffffffffff16815250507f000000000000000000000000000000000000000000000000000000000000000073ffffffffffffffffffffffffffffffffffffffff1663a9059cbb89846040518363ffffffff1660e01b81526004016111ed929190615f1b565b6020604051808303816000875af115801561120c573d6000803e3d6000fd5b505050506040513d601f19601f820116820180604052508101906112309190615e6f565b505b8560020b8760020b3373ffffffffffffffffffffffffffffffffffffffff167fa89c1c8a741251492622c95237828c75d1dbb03ea956f09e3792ff2a14f4fe628b878760405161128493929190615f44565b60405180910390a4509550959350505050565b60066020528060005260406000206000915090508060000160009054906101000a90046fffffffffffffffffffffffffffffffff16908060010154908060020154908060030160009054906101000a90046fffffffffffffffffffffffffffffffff16908060030160109054906101000a90046fffffffffffffffffffffffffffffffff16905085565b60056020528060005260406000206000915090505481565b60606113d7611346612bb3565b848480806020026020016040519081016040528093929190818152602001838360200280828437600081840152601f19601f82011690508083019250505050505050600260000160149054906101000a900460020b600260000160179054906101000a900461ffff16600260000160199054906101000a900461ffff166007612bbb9095949392919063ffffffff16565b905092915050565b600080600080600061143860405180608001604052803373ffffffffffffffffffffffffffffffffffffffff1681526020018a60020b81526020018960020b81526020018861142d90615f7b565b600f0b81525061263b565b9250925092508161144890615fc3565b94508061145490615fc3565b935060008511806114655750600084115b1561153f57848360030160009054906101000a90046fffffffffffffffffffffffffffffffff16611496919061600b565b848460030160109054906101000a90046fffffffffffffffffffffffffffffffff166114c2919061600b565b8460030160008660030160108491906101000a8154816fffffffffffffffffffffffffffffffff02191690836fffffffffffffffffffffffffffffffff1602179055508391906101000a8154816fffffffffffffffffffffffffffffffff02191690836fffffffffffffffffffffffffffffffff16021790555050505b8660020b8860020b3373ffffffffffffffffffffffffffffffffffffffff167f0c396cd989a39f4459b5fa1aed6a9a8dcdbc45908acfd67e028cd568da98982c8989896040516115919392919061604f565b60405180910390a4505050935093915050565b7f000000000000000000000000000000000000000000000000000000000000000081565b7f000000000000000000000000000000000000000000000000000000000000000081565b7f000000000000000000000000000000000000000000000000000000000000000081565b600080600060026040518060a00160405290816000820160009054906101000a900473ffffffffffffffffffffffffffffffffffffffff1673ffffffffffffffffffffffffffffffffffffffff1673ffffffffffffffffffffffffffffffffffffffff1681526020016000820160149054906101000a900460020b60020b60020b81526020016000820160179054906101000a900461ffff1661ffff1661ffff1681526020016000820160199054906101000a900461ffff1661ffff1661ffff16815260200160008201601b9054906101000a900461ffff1661ffff1661ffff168152505090506000600360009054906101000a90046fffffffffffffffffffffffffffffffff169050886117a157816000015173ffffffffffffffffffffffffffffffffffffffff168773ffffffffffffffffffffffffffffffffffffffff16108061179c575073fffd8963efd1fc6a506488495d951d5263988d2673ffffffffffffffffffffffffffffffffffffffff168773ffffffffffffffffffffffffffffffffffffffff16115b611810565b816000015173ffffffffffffffffffffffffffffffffffffffff168773ffffffffffffffffffffffffffffffffffffffff16118061180f57506401000276a373ffffffffffffffffffffffffffffffffffffffff168773ffffffffffffffffffffffffffffffffffffffff16105b5b15611847576040517fb53bbacc00000000000000000000000000000000000000000000000000000000815260040160405180910390fd5b60006040518060c001604052808a815260200160008152602001846000015173ffffffffffffffffffffffffffffffffffffffff168152602001846020015160020b81526020018b61189b5760015461189f565b6000545b8152602001836fffffffffffffffffffffffffffffffff1681525090505b6000816000015111801561190157508773ffffffffffffffffffffffffffffffffffffffff16816040015173ffffffffffffffffffffffffffffffffffffffff1614155b15611d695761190e6150f8565b8160400151816000019073ffffffffffffffffffffffffffffffffffffffff16908173ffffffffffffffffffffffffffffffffffffffff168152505061198682606001517f00000000000000000000000000000000000000000000000000000000000000008d6005612c7c909392919063ffffffff16565b826020018360400182151515158152508260020b60020b81525050506119af8160200151612e6a565b816060019073ffffffffffffffffffffffffffffffffffffffff16908173ffffffffffffffffffffffffffffffffffffffff1681525050611a9f82604001518c611a2b578a73ffffffffffffffffffffffffffffffffffffffff16836060015173ffffffffffffffffffffffffffffffffffffffff1611611a5f565b8a73ffffffffffffffffffffffffffffffffffffffff16836060015173ffffffffffffffffffffffffffffffffffffffff16105b611a6d578260600151611a6f565b8a5b8460a0015185600001517f0000000000000000000000000000000000000000000000000000000000000000613337565b85604001856080018660a0018760c0018481525084815250848152508473ffffffffffffffffffffffffffffffffffffffff1673ffffffffffffffffffffffffffffffffffffffff16815250505050508060c001518160800151611b039190615d76565b82600001818151611b149190616086565b915081815250508060a0015182602001818151611b319190615d76565b9150818152505060008260a001516fffffffffffffffffffffffffffffffff161115611ba657611b8d8160c001517001000000000000000000000000000000008460a001516fffffffffffffffffffffffffffffffff166134bb565b82608001818151611b9e9190615d76565b915081815250505b806060015173ffffffffffffffffffffffffffffffffffffffff16826040015173ffffffffffffffffffffffffffffffffffffffff1603611d0857806040015115611cd1576000611c2d82602001518d611c0257600054611c08565b84608001515b8e611c17578560800151611c1b565b6001545b60046135d0909392919063ffffffff16565b90508b15611c425780611c3f90615f7b565b90505b611c508360a001518261363a565b8360a001906fffffffffffffffffffffffffffffffff1690816fffffffffffffffffffffffffffffffff168152505060008360a001516fffffffffffffffffffffffffffffffff1603611ccf576040517f4323a55500000000000000000000000000000000000000000000000000000000815260040160405180910390fd5b505b8a611ce0578060200151611cf2565b60018160200151611cf191906160ba565b5b826060019060020b908160020b81525050611d63565b806000015173ffffffffffffffffffffffffffffffffffffffff16826040015173ffffffffffffffffffffffffffffffffffffffff1614611d6257611d508260400151613678565b826060019060020b908160020b815250505b5b506118bd565b826020015160020b816060015160020b14611e8057600080611db48560400151611d91612bb3565b8760200151886060015189608001516007613a779095949392919063ffffffff16565b91509150826040015183606001518383600260000160006002600001601460026000016017600260000160198891906101000a81548161ffff021916908361ffff1602179055508791906101000a81548161ffff021916908361ffff1602179055508691906101000a81548162ffffff021916908360020b62ffffff1602179055508591906101000a81548173ffffffffffffffffffffffffffffffffffffffff021916908373ffffffffffffffffffffffffffffffffffffffff160217905550505050505050611ec9565b8060400151600260000160006101000a81548173ffffffffffffffffffffffffffffffffffffffff021916908373ffffffffffffffffffffffffffffffffffffffff1602179055505b8060a001516fffffffffffffffffffffffffffffffff16826fffffffffffffffffffffffffffffffff1614611f36578060a00151600360006101000a8154816fffffffffffffffffffffffffffffffff02191690836fffffffffffffffffffffffffffffffff1602179055505b8915611f4c578060800151600081905550611f58565b80608001516001819055505b89611f80578060200151611f6b90615fc3565b81600001518a611f7b9190616086565b611f9f565b806000015189611f909190616086565b8160200151611f9e90615fc3565b5b80955081965050508915612124577f000000000000000000000000000000000000000000000000000000000000000073ffffffffffffffffffffffffffffffffffffffff1663a9059cbb8c86611ff490615fc3565b6040518363ffffffff1660e01b8152600401612011929190615e31565b6020604051808303816000875af1158015612030573d6000803e3d6000fd5b505050506040513d601f19601f820116820180604052508101906120549190615e6f565b50600061205f6129be565b90503373ffffffffffffffffffffffffffffffffffffffff1663fa461e3387878b8b6040518563ffffffff1660e01b81526004016120a09493929190616115565b600060405180830381600087803b1580156120ba57600080fd5b505af11580156120ce573d6000803e3d6000fd5b505050506120da6129be565b86826120e69190615d76565b111561211e576040517f098fb56100000000000000000000000000000000000000000000000000000000815260040160405180910390fd5b50612297565b7f000000000000000000000000000000000000000000000000000000000000000073ffffffffffffffffffffffffffffffffffffffff1663a9059cbb8c8761216b90615fc3565b6040518363ffffffff1660e01b8152600401612188929190615e31565b6020604051808303816000875af11580156121a7573d6000803e3d6000fd5b505050506040513d601f19601f820116820180604052508101906121cb9190615e6f565b5060006121d6612a5f565b90503373ffffffffffffffffffffffffffffffffffffffff1663fa461e3387878b8b6040518563ffffffff1660e01b81526004016122179493929190616115565b600060405180830381600087803b15801561223157600080fd5b505af1158015612245573d6000803e3d6000fd5b50505050612251612a5f565b858261225d9190615d76565b1115612295576040517f098fb56100000000000000000000000000000000000000000000000000000000815260040160405180910390fd5b505b8a73ffffffffffffffffffffffffffffffffffffffff163373ffffffffffffffffffffffffffffffffffffffff167fc42079f94a6350d7e6235f29174924f928cc2ac818eb64fed8004e115fbcca678787600260000160009054906101000a900473ffffffffffffffffffffffffffffffffffffffff168660a00151600260000160149054906101000a900460020b604051612337959493929190616155565b60405180910390a3505050965096945050505050565b7f000000000000000000000000000000000000000000000000000000000000000081565b60005481565b60046020528060005260406000206000915090508060000160009054906101000a900460ff16908060000160019054906101000a90046fffffffffffffffffffffffffffffffff16908060010160009054906101000a9004600f0b908060020154908060030154905085565b6000600260000160009054906101000a900473ffffffffffffffffffffffffffffffffffffffff1673ffffffffffffffffffffffffffffffffffffffff1614612458576040517f0dc149f000000000000000000000000000000000000000000000000000000000815260040160405180910390fd5b600061246382613678565b9050600080612483612473612bb3565b6007613c2390919063ffffffff16565b915091506040518060a001604052808573ffffffffffffffffffffffffffffffffffffffff1681526020018460020b8152602001600061ffff1681526020018361ffff1681526020018261ffff16815250600260008201518160000160006101000a81548173ffffffffffffffffffffffffffffffffffffffff021916908373ffffffffffffffffffffffffffffffffffffffff16021790555060208201518160000160146101000a81548162ffffff021916908360020b62ffffff16021790555060408201518160000160176101000a81548161ffff021916908361ffff16021790555060608201518160000160196101000a81548161ffff021916908361ffff160217905550608082015181600001601b6101000a81548161ffff021916908361ffff16021790555090505050505050565b60008261ffff168261ffff16116125d057829050612634565b60008390505b8261ffff168161ffff16101561262f576001858261ffff1661ffff8110612600576125ff6161a8565b5b0160000160006101000a81548163ffffffff021916908363ffffffff16021790555080806001019150506125d6565b508190505b9392505050565b60008060008060026040518060a00160405290816000820160009054906101000a900473ffffffffffffffffffffffffffffffffffffffff1673ffffffffffffffffffffffffffffffffffffffff1673ffffffffffffffffffffffffffffffffffffffff1681526020016000820160149054906101000a900460020b60020b60020b81526020016000820160179054906101000a900461ffff1661ffff1661ffff1681526020016000820160199054906101000a900461ffff1661ffff1661ffff16815260200160008201601b9054906101000a900461ffff1661ffff1661ffff16815250509050600080549050600060015490506127548760000151886020015189604001516006612b6b909392919063ffffffff16565b95506000612783886020015185602001518a60600151868660006004613ced909695949392919063ffffffff16565b905060006127b2896040015186602001518b60600151878760016004613ced909695949392919063ffffffff16565b905081156127f5576127f489602001517f00000000000000000000000000000000000000000000000000000000000000006005613ea09092919063ffffffff16565b5b80156128365761283589604001517f00000000000000000000000000000000000000000000000000000000000000006005613ea09092919063ffffffff16565b5b6000806128618b602001518c60400151896020015189896004613f109095949392919063ffffffff16565b915091506128808b6060015183838d61401f909392919063ffffffff16565b8a6020015160020b876020015160020b12156128c4576128bd6128a68c60200151612e6a565b6128b38d60400151612e6a565b8d60600151614262565b98506129b0565b8a6040015160020b876020015160020b1215612985576128f987600001516128ef8d60400151612e6a565b8d60600151614262565b985061291a61290b8c60200151612e6a565b88600001518d606001516142a9565b9750612948600360009054906101000a90046fffffffffffffffffffffffffffffffff168c6060015161363a565b600360006101000a8154816fffffffffffffffffffffffffffffffff02191690836fffffffffffffffffffffffffffffffff1602179055506129af565b6129ac6129958c60200151612e6a565b6129a28d60400151612e6a565b8d606001516142a9565b97505b5b505050505050509193909250565b60007f000000000000000000000000000000000000000000000000000000000000000073ffffffffffffffffffffffffffffffffffffffff166370a08231306040518263ffffffff1660e01b8152600401612a1991906151d3565b602060405180830381865afa158015612a36573d6000803e3d6000fd5b505050506040513d601f19601f82011682018060405250810190612a5a9190615e04565b905090565b60007f000000000000000000000000000000000000000000000000000000000000000073ffffffffffffffffffffffffffffffffffffffff166370a08231306040518263ffffffff1660e01b8152600401612aba91906151d3565b602060405180830381865afa158015612ad7573d6000803e3d6000fd5b505050506040513d601f19601f82011682018060405250810190612afb9190615e04565b905090565b6000612b0d8484846134bb565b905060008280612b2057612b1f6161d7565b5b8486091115612b64577fffffffffffffffffffffffffffffffffffffffffffffffffffffffffffffffff8110612b5557600080fd5b8080612b6090616206565b9150505b9392505050565b6000846000858585604051602001612b85939291906162cc565b6040516020818303038152906040528051906020012081526020019081526020016000209050949350505050565b600042905090565b6060845167ffffffffffffffff811115612bd857612bd7616309565b5b604051908082528060200260200182016040528015612c065781602001602082028036833780820191505090505b50905060005b8551811015612c7157612c3d8888888481518110612c2d57612c2c6161a8565b5b60200260200101518888886142f0565b828281518110612c5057612c4f6161a8565b5b602002602001019060060b908160060b815250508080600101915050612c0c565b509695505050505050565b60008060008486612c8d9190616338565b905060008660020b128015612cb1575060008587612cab91906163a2565b60020b14155b15612cc5578080612cc1906163d3565b9150505b8315612d8857600080612cd7836144ab565b9150915060008160ff166001901b60018360ff166001901b612cf99190616086565b612d039190615d76565b90506000818b60008660010b60010b8152602001908152602001600020541690506000811415955085612d4f57888360ff1686612d4091906160ba565b612d4a919061641b565b612d7d565b88612d59826144cd565b84612d649190616465565b60ff1686612d7291906160ba565b612d7c919061641b565b5b965050505050612e60565b600080612da0600184612d9b919061649a565b6144ab565b91509150600060018260ff166001901b612dba9190616086565b1990506000818b60008660010b60010b8152602001908152602001600020541690506000811415955085612e1f57888360ff612df69190616465565b60ff16600187612e06919061649a565b612e10919061649a565b612e1a919061641b565b612e59565b8883612e2a836145f0565b612e349190616465565b60ff16600187612e44919061649a565b612e4e919061649a565b612e58919061641b565b5b9650505050505b5094509492505050565b60008060008360020b12612e81578260020b612e8f565b8260020b612e8e90615fc3565b5b90507ffffffffffffffffffffffffffffffffffffffffffffffffffffffffffff27618612ebb90615c90565b62ffffff16811115612f02576040517f08c379a0000000000000000000000000000000000000000000000000000000008152600401612ef990616552565b60405180910390fd5b6000806001831603612f2557700100000000000000000000000000000000612f37565b6ffffcb933bd6fad37aa2d162d1a5940015b70ffffffffffffffffffffffffffffffffff16905060006002831614612f7a5760806ffff97272373d413259a46990580e213a82612f759190616572565b901c90505b60006004831614612fa85760806ffff2e50f5f656932ef12357cf3c7fdcc82612fa39190616572565b901c90505b60006008831614612fd65760806fffe5caca7e10e4e61c3624eaa0941cd082612fd19190616572565b901c90505b600060108316146130045760806fffcb9843d60f6159c9db58835c92664482612fff9190616572565b901c90505b600060208316146130325760806fff973b41fa98c081472e6896dfb254c08261302d9190616572565b901c90505b600060408316146130605760806fff2ea16466c96a3843ec78b326b528618261305b9190616572565b901c90505b6000608083161461308e5760806ffe5dee046a99a2a811c461f1969c3053826130899190616572565b901c90505b60006101008316146130bd5760806ffcbe86c7900a88aedcffc83b479aa3a4826130b89190616572565b901c90505b60006102008316146130ec5760806ff987a7253ac413176f2b074cf7815e54826130e79190616572565b901c90505b600061040083161461311b5760806ff3392b0822b70005940c7a398e4b70f3826131169190616572565b901c90505b600061080083161461314a5760806fe7159475a2c29b7443b29c7fa6e889d9826131459190616572565b901c90505b60006110008316146131795760806fd097f3bdfd2022b8845ad8f792aa5825826131749190616572565b901c90505b60006120008316146131a85760806fa9f746462d870fdf8a65dc1f90e061e5826131a39190616572565b901c90505b60006140008316146131d75760806f70d869a156d2a1b890bb3df62baf32f7826131d29190616572565b901c90505b60006180008316146132065760806f31be135f97d08fd981231505542fcfa6826132019190616572565b901c90505b6000620100008316146132365760806f09aa508b5b7a84e1c677de54f3e99bc9826132319190616572565b901c90505b6000620200008316146132655760806e5d6af8dedb81196699c329225ee604826132609190616572565b901c90505b6000620400008316146132935760806d2216e584f5fa1ea926041bedfe988261328e9190616572565b901c90505b6000620800008316146132bf5760806b048a170391f7dc42444e8fa2826132ba9190616572565b901c90505b60008460020b13156132fa57807fffffffffffffffffffffffffffffffffffffffffffffffffffffffffffffffff6132f791906165b4565b90505b60006401000000008261330d91906165e5565b1461331957600161331c565b60005b60ff16602082901c61332e9190615d76565b92505050919050565b60008060008060008873ffffffffffffffffffffffffffffffffffffffff168a73ffffffffffffffffffffffffffffffffffffffff161015905060006133948888620f42406133869190616616565b62ffffff16620f42406134bb565b9050816133ad576133a88b8b8b600161475f565b6133bb565b6133ba8b8b8b600161484e565b5b94508481106133cc578995506133db565b6133d88b8a8385614992565b95505b60008a73ffffffffffffffffffffffffffffffffffffffff168773ffffffffffffffffffffffffffffffffffffffff161490508215613443578061342b576134268c888c600161484e565b61342d565b855b955061343c8c888c600061475f565b945061346e565b8061345a576134558c888c600161475f565b61345c565b855b955061346b8c888c600061484e565b94505b8061348657858961347f9190616086565b93506134ac565b6134a9868962ffffff168a620f424061349f9190616616565b62ffffff16612b00565b93505b50505095509550955095915050565b60008060008019858709858702925082811083820303915050600081036134f6578382816134ec576134eb6161d7565b5b04925050506135c9565b83811061353c5780846040517f773cc18c0000000000000000000000000000000000000000000000000000000081526004016135339291906155b4565b60405180910390fd5b60008486880990508281118203915080830392506000600186190186169050808604955080840493506001818260000304019050808302841793506000600287600302189050808702600203810290508087026002038102905080870260020381029050808702600203810290508087026002038102905080870260020381029050808502955050505050505b9392505050565b6000808560008660020b60020b815260200190815260200160002090508060020154846135fd9190616086565b81600201819055508060030154836136159190616086565b81600301819055508060010160009054906101000a9004600f0b915050949350505050565b60008082600f0b1215613663578161365190615f7b565b8361365c9190615e9c565b9050613672565b818361366f919061600b565b90505b92915050565b60006401000276a373ffffffffffffffffffffffffffffffffffffffff168273ffffffffffffffffffffffffffffffffffffffff16101580156136fa575073fffd8963efd1fc6a506488495d951d5263988d2673ffffffffffffffffffffffffffffffffffffffff168273ffffffffffffffffffffffffffffffffffffffff16105b613739576040517f08c379a000000000000000000000000000000000000000000000000000000000815260040161373090616699565b60405180910390fd5b600060208373ffffffffffffffffffffffffffffffffffffffff16901b9050600081905060006fffffffffffffffffffffffffffffffff821160071b808217915082811c92505067ffffffffffffffff821160061b808217915082811c92505063ffffffff821160051b808217915082811c92505061ffff821160041b808217915082811c92505060ff821160031b808217915082811c925050600f821160021b808217915082811c9250506003821160011b808217915082811c925050600182118082179150506080811061382057607f816138169190616086565b83901c9150613833565b80607f61382d9190616086565b83901b91505b6000604060808361384491906166b9565b901b9050828302607f1c92508260801c80603f1b8217915083811c935050828302607f1c92508260801c80603e1b8217915083811c935050828302607f1c92508260801c80603d1b8217915083811c935050828302607f1c92508260801c80603c1b8217915083811c935050828302607f1c92508260801c80603b1b8217915083811c935050828302607f1c92508260801c80603a1b8217915083811c935050828302607f1c92508260801c8060391b8217915083811c935050828302607f1c92508260801c8060381b8217915083811c935050828302607f1c92508260801c8060371b8217915083811c935050828302607f1c92508260801c8060361b8217915083811c935050828302607f1c92508260801c8060351b8217915083811c935050828302607f1c92508260801c8060341b8217915083811c935050828302607f1c92508260801c8060331b8217915083811c935050828302607f1c92508260801c8060321b82179150506000693627a301d71055774c85826139c791906166fc565b9050600060806f028f6481ab7f045a5af012a19d003aaa836139e991906166b9565b901d9050600060806fdb2df09e81959a81455e260799a0632f84613a0d9190616774565b901d90508060020b8260020b14613a67578873ffffffffffffffffffffffffffffffffffffffff16613a3e82612e6a565b73ffffffffffffffffffffffffffffffffffffffff161115613a605781613a62565b805b613a69565b815b975050505050505050919050565b6000806000888861ffff1661ffff8110613a9457613a936161a8565b5b016040518060600160405290816000820160009054906101000a900463ffffffff1663ffffffff1663ffffffff1681526020016000820160049054906101000a900460060b60060b60060b815260200160008201600b9054906101000a900460ff16151515158152505090508663ffffffff16816000015163ffffffff1603613b235787859250925050613c18565b8461ffff168461ffff16118015613b4d5750600185613b4291906167b8565b61ffff168861ffff16145b15613b5a57839150613b5e565b8491505b81600189613b6c91906167ee565b613b769190616824565b9250613b838188886149bf565b898461ffff1661ffff8110613b9b57613b9a6161a8565b5b0160008201518160000160006101000a81548163ffffffff021916908363ffffffff16021790555060208201518160000160046101000a81548166ffffffffffffff021916908360060b66ffffffffffffff160217905550604082015181600001600b6101000a81548160ff021916908315150217905550905050505b965096945050505050565b60008060405180606001604052808463ffffffff168152602001600060060b81526020016001151581525084600061ffff8110613c6357613c626161a8565b5b0160008201518160000160006101000a81548163ffffffff021916908363ffffffff16021790555060208201518160000160046101000a81548166ffffffffffffff021916908360060b66ffffffffffffff160217905550604082015181600001600b6101000a81548160ff02191690831515021790555090505060019150600190509250929050565b6000808860008960020b60020b8152602001908152602001600020905060008160000160019054906101000a90046fffffffffffffffffffffffffffffffff1690506000613d3b828961363a565b90506000826fffffffffffffffffffffffffffffffff161415156000826fffffffffffffffffffffffffffffffff16141515141593506000826fffffffffffffffffffffffffffffffff1603613dc9578860020b8a60020b13613dab578683600201819055508583600301819055505b60018360000160006101000a81548160ff0219169083151502179055505b808360000160016101000a8154816fffffffffffffffffffffffffffffffff02191690836fffffffffffffffffffffffffffffffff16021790555084613e315787600f0b8360010160009054906101000a9004600f0b600f0b613e2c9190616774565b613e55565b87600f0b8360010160009054906101000a9004600f0b600f0b613e5491906166b9565b5b8360010160006101000a8154816fffffffffffffffffffffffffffffffff0219169083600f0b6fffffffffffffffffffffffffffffffff160217905550505050979650505050505050565b60008183613eae91906163a2565b60020b14613ebb57600080fd5b600080613ed28385613ecd9190616338565b6144ab565b9150915060008160ff166001901b9050808660008560010b60010b815260200190815260200160002060008282541892505081905550505050505050565b60008060008860008960020b60020b8152602001908152602001600020905060008960008960020b60020b815260200190815260200160002090506000808a60020b8960020b12613f6e578360020154915083600301549050613f93565b836002015488613f7e9190616086565b9150836003015487613f909190616086565b90505b6000808b60020b8b60020b1215613fb7578460020154915084600301549050613fdc565b84600201548a613fc79190616086565b9150846003015489613fd99190616086565b90505b81848b613fe99190616086565b613ff39190616086565b975080838a6140029190616086565b61400c9190616086565b9650505050505050965096945050505050565b600061407e8560010154846140349190616086565b8660000160009054906101000a90046fffffffffffffffffffffffffffffffff166fffffffffffffffffffffffffffffffff167001000000000000000000000000000000006134bb565b905060006140df8660020154846140959190616086565b8760000160009054906101000a90046fffffffffffffffffffffffffffffffff166fffffffffffffffffffffffffffffffff167001000000000000000000000000000000006134bb565b905061410b8660000160009054906101000a90046fffffffffffffffffffffffffffffffff168661363a565b8660000160006101000a8154816fffffffffffffffffffffffffffffffff02191690836fffffffffffffffffffffffffffffffff1602179055508386600101819055508286600201819055506000826fffffffffffffffffffffffffffffffff16118061418a57506000816fffffffffffffffffffffffffffffffff16115b1561425a57818660030160008282829054906101000a90046fffffffffffffffffffffffffffffffff166141be919061600b565b92506101000a8154816fffffffffffffffffffffffffffffffff02191690836fffffffffffffffffffffffffffffffff160217905550808660030160108282829054906101000a90046fffffffffffffffffffffffffffffffff16614223919061600b565b92506101000a8154816fffffffffffffffffffffffffffffffff02191690836fffffffffffffffffffffffffffffffff1602179055505b505050505050565b60008082600f0b126142805761427b848484600161484e565b6142a0565b61429684848461428f90615f7b565b600061484e565b61429f90615fc3565b5b90509392505050565b60008082600f0b126142c7576142c2848484600161475f565b6142e7565b6142dd8484846142d690615f7b565b600061475f565b6142e690615fc3565b5b90509392505050565b6000808563ffffffff16036143b7576000878461ffff1661ffff8110614319576143186161a8565b5b016040518060600160405290816000820160009054906101000a900463ffffffff1663ffffffff1663ffffffff1681526020016000820160049054906101000a900460060b60060b60060b815260200160008201600b9054906101000a900460ff16151515158152505090508663ffffffff16816000015163ffffffff16146143aa576143a78188876149bf565b90505b80602001519150506144a1565b600085876143c59190616855565b90506000806143d88a8a858a8a8a614a2f565b91509150816000015163ffffffff168363ffffffff160361440257816020015193505050506144a1565b806000015163ffffffff168363ffffffff160361442857806020015193505050506144a1565b60008260000151826000015161443e9190616855565b63ffffffff16905060008360000151856144589190616855565b63ffffffff169050808285602001518560200151614476919061688d565b61448091906168ec565b61448a9190616956565b84602001516144999190616993565b955050505050505b9695505050505050565b60008060088360020b901d9150610100836144c691906163a2565b9050915091565b60008082116144db57600080fd5b700100000000000000000000000000000000821061450a57608082901c915060808161450791906169f2565b90505b68010000000000000000821061453157604082901c915060408161452e91906169f2565b90505b640100000000821061455457602082901c915060208161455191906169f2565b90505b62010000821061457557601082901c915060108161457291906169f2565b90505b610100821061459557600882901c915060088161459291906169f2565b90505b601082106145b457600482901c91506004816145b191906169f2565b90505b600482106145d357600282901c91506002816145d091906169f2565b90505b600282106145eb576001816145e891906169f2565b90505b919050565b60008082116145fe57600080fd5b60ff905060006fffffffffffffffffffffffffffffffff8016831611156146335760808161462c9190616465565b905061463b565b608082901c91505b600067ffffffffffffffff8016831611156146645760408161465d9190616465565b905061466c565b604082901c91505b600063ffffffff8016831611156146915760208161468a9190616465565b9050614699565b602082901c91505b600061ffff8016831611156146bc576010816146b59190616465565b90506146c4565b601082901c91505b600060ff8016831611156146e6576008816146df9190616465565b90506146ee565b600882901c91505b6000600f8316111561470e576004816147079190616465565b9050614716565b600482901c91505b60006003831611156147365760028161472f9190616465565b905061473e565b600282901c91505b600060018316111561475a576001816147579190616465565b90505b919050565b60008373ffffffffffffffffffffffffffffffffffffffff168573ffffffffffffffffffffffffffffffffffffffff1611156147a057838580955081965050505b81156147f8576147f1836fffffffffffffffffffffffffffffffff1686866147c89190616a27565b73ffffffffffffffffffffffffffffffffffffffff166c01000000000000000000000000612b00565b9050614846565b614843836fffffffffffffffffffffffffffffffff16868661481a9190616a27565b73ffffffffffffffffffffffffffffffffffffffff166c010000000000000000000000006134bb565b90505b949350505050565b60008373ffffffffffffffffffffffffffffffffffffffff168573ffffffffffffffffffffffffffffffffffffffff16111561488f57838580955081965050505b60008573ffffffffffffffffffffffffffffffffffffffff16116148b257600080fd5b6000606060ff16846fffffffffffffffffffffffffffffffff16901b9050600086866148de9190616a27565b73ffffffffffffffffffffffffffffffffffffffff16905083156149435761493c61492083838973ffffffffffffffffffffffffffffffffffffffff16612b00565b8873ffffffffffffffffffffffffffffffffffffffff16614c95565b9250614988565b8673ffffffffffffffffffffffffffffffffffffffff1661497b83838973ffffffffffffffffffffffffffffffffffffffff166134bb565b61498591906165b4565b92505b5050949350505050565b6000816149a9576149a4858585614ca8565b6149b5565b6149b4858585614cfe565b5b9050949350505050565b6149c7615166565b60008460000151846149d99190616855565b63ffffffff16905060405180606001604052808563ffffffff168152602001828560020b614a079190616956565b8760200151614a169190616993565b60060b8152602001600115158152509150509392505050565b614a37615166565b614a3f615166565b878461ffff1661ffff8110614a5757614a566161a8565b5b016040518060600160405290816000820160009054906101000a900463ffffffff1663ffffffff1663ffffffff1681526020016000820160049054906101000a900460060b60060b60060b815260200160008201600b9054906101000a900460ff1615151515815250509150614ad287836000015188614df1565b15614b04578563ffffffff16826000015163ffffffff160315614c8a5781614afb8388886149bf565b91509150614c8a565b8783600186614b1391906167ee565b614b1d9190616824565b61ffff1661ffff8110614b3357614b326161a8565b5b016040518060600160405290816000820160009054906101000a900463ffffffff1663ffffffff1663ffffffff1681526020016000820160049054906101000a900460060b60060b60060b815260200160008201600b9054906101000a900460ff16151515158152505091508160400151614c2a5787600061ffff8110614bbd57614bbc6161a8565b5b016040518060600160405290816000820160009054906101000a900463ffffffff1663ffffffff1663ffffffff1681526020016000820160049054906101000a900460060b60060b60060b815260200160008201600b9054906101000a900460ff16151515158152505091505b614c3987836000015188614df1565b614c78576040517f08c379a0000000000000000000000000000000000000000000000000000000008152600401614c6f90616abb565b60405180910390fd5b614c858888888787614ecb565b915091505b965096945050505050565b6000808284061182840401905092915050565b6000614cd4826c01000000000000000000000000856fffffffffffffffffffffffffffffffff166134bb565b8473ffffffffffffffffffffffffffffffffffffffff16614cf59190615d76565b90509392505050565b600080606060ff16846fffffffffffffffffffffffffffffffff16901b905060008573ffffffffffffffffffffffffffffffffffffffff1684614d419190616572565b90508573ffffffffffffffffffffffffffffffffffffffff168482614d6691906165b4565b03614daf5760008183614d799190615d76565b9050828110614dad57614da3838873ffffffffffffffffffffffffffffffffffffffff1683612b00565b9350505050614dea565b505b614de582858873ffffffffffffffffffffffffffffffffffffffff1685614dd691906165b4565b614de09190615d76565b614c95565b925050505b9392505050565b60008363ffffffff168363ffffffff1611158015614e1b57508363ffffffff168263ffffffff1611155b15614e37578163ffffffff168363ffffffff1611159050614ec4565b60008463ffffffff168463ffffffff1611614e68576401000000008463ffffffff16614e639190616aec565b614e70565b8363ffffffff165b64ffffffffff16905060008563ffffffff168463ffffffff1611614eaa576401000000008463ffffffff16614ea59190616aec565b614eb2565b8363ffffffff165b64ffffffffff16905080821115925050505b9392505050565b614ed3615166565b614edb615166565b600083600186614eeb91906167ee565b614ef59190616824565b61ffff169050600060018561ffff1683614f0f9190615d76565b614f199190616086565b905060005b6001156150eb5760028284614f339190615d76565b614f3d91906165b4565b9050898661ffff1682614f5091906165e5565b61ffff8110614f6257614f616161a8565b5b016040518060600160405290816000820160009054906101000a900463ffffffff1663ffffffff1663ffffffff1681526020016000820160049054906101000a900460060b60060b60060b815260200160008201600b9054906101000a900460ff16151515158152505094508460400151614feb57600181614fe49190615d76565b9250614f1e565b898661ffff16600183614ffe9190615d76565b61500891906165e5565b61ffff811061501a576150196161a8565b5b016040518060600160405290816000820160009054906101000a900463ffffffff1663ffffffff1663ffffffff1681526020016000820160049054906101000a900460060b60060b60060b815260200160008201600b9054906101000a900460ff161515151581525050935060006150978a87600001518b614df1565b90508080156150b157506150b08a8a8760000151614df1565b5b156150bc57506150eb565b806150d5576001826150ce9190616086565b92506150e5565b6001826150e29190615d76565b93505b50614f1e565b5050509550959350505050565b6040518060e00160405280600073ffffffffffffffffffffffffffffffffffffffff168152602001600060020b8152602001600015158152602001600073ffffffffffffffffffffffffffffffffffffffff1681526020016000815260200160008152602001600081525090565b6040518060600160405280600063ffffffff168152602001600060060b81526020016000151581525090565b600073ffffffffffffffffffffffffffffffffffffffff82169050919050565b60006151bd82615192565b9050919050565b6151cd816151b2565b82525050565b60006020820190506151e860008301846151c4565b92915050565b60006fffffffffffffffffffffffffffffffff82169050919050565b615213816151ee565b82525050565b600060208201905061522e600083018461520a565b92915050565b600080fd5b600080fd5b6000819050919050565b6152518161523e565b811461525c57600080fd5b50565b60008135905061526e81615248565b92915050565b60006020828403121561528a57615289615234565b5b60006152988482850161525f565b91505092915050565b600063ffffffff82169050919050565b6152ba816152a1565b82525050565b60008160060b9050919050565b6152d6816152c0565b82525050565b60008115159050919050565b6152f1816152dc565b82525050565b600060608201905061530c60008301866152b1565b61531960208301856152cd565b61532660408301846152e8565b949350505050565b600061ffff82169050919050565b6153458161532e565b811461535057600080fd5b50565b6000813590506153628161533c565b92915050565b60006020828403121561537e5761537d615234565b5b600061538c84828501615353565b91505092915050565b61539e81615192565b82525050565b60008160020b9050919050565b6153ba816153a4565b82525050565b6153c98161532e565b82525050565b600060a0820190506153e46000830188615395565b6153f160208301876153b1565b6153fe60408301866153c0565b61540b60608301856153c0565b61541860808301846153c0565b9695505050505050565b61542b816151b2565b811461543657600080fd5b50565b60008135905061544881615422565b92915050565b615457816153a4565b811461546257600080fd5b50565b6000813590506154748161544e565b92915050565b615483816151ee565b811461548e57600080fd5b50565b6000813590506154a08161547a565b92915050565b600080fd5b600080fd5b600080fd5b60008083601f8401126154cb576154ca6154a6565b5b8235905067ffffffffffffffff8111156154e8576154e76154ab565b5b602083019150836001820283011115615504576155036154b0565b5b9250929050565b60008060008060008060a0878903121561552857615527615234565b5b600061553689828a01615439565b965050602061554789828a01615465565b955050604061555889828a01615465565b945050606061556989828a01615491565b935050608087013567ffffffffffffffff81111561558a57615589615239565b5b61559689828a016154b5565b92509250509295509295509295565b6155ae8161523e565b82525050565b60006040820190506155c960008301856155a5565b6155d660208301846155a5565b9392505050565b60006020820190506155f260008301846155a5565b92915050565b6000806000806060858703121561561257615611615234565b5b60006156208782880161525f565b94505060206156318782880161525f565b935050604085013567ffffffffffffffff81111561565257615651615239565b5b61565e878288016154b5565b925092505092959194509250565b600080600080600060a0868803121561568857615687615234565b5b600061569688828901615439565b95505060206156a788828901615465565b94505060406156b888828901615465565b93505060606156c988828901615491565b92505060806156da88828901615491565b9150509295509295909350565b60006040820190506156fc600083018561520a565b615709602083018461520a565b9392505050565b6000819050919050565b61572381615710565b811461572e57600080fd5b50565b6000813590506157408161571a565b92915050565b60006020828403121561575c5761575b615234565b5b600061576a84828501615731565b91505092915050565b600060a082019050615788600083018861520a565b61579560208301876155a5565b6157a260408301866155a5565b6157af606083018561520a565b6157bc608083018461520a565b9695505050505050565b60008160010b9050919050565b6157dc816157c6565b81146157e757600080fd5b50565b6000813590506157f9816157d3565b92915050565b60006020828403121561581557615814615234565b5b6000615823848285016157ea565b91505092915050565b60008083601f840112615842576158416154a6565b5b8235905067ffffffffffffffff81111561585f5761585e6154ab565b5b60208301915083602082028301111561587b5761587a6154b0565b5b9250929050565b6000806020838503121561589957615898615234565b5b600083013567ffffffffffffffff8111156158b7576158b6615239565b5b6158c38582860161582c565b92509250509250929050565b600081519050919050565b600082825260208201905092915050565b6000819050602082019050919050565b615904816152c0565b82525050565b600061591683836158fb565b60208301905092915050565b6000602082019050919050565b600061593a826158cf565b61594481856158da565b935061594f836158eb565b8060005b83811015615980578151615967888261590a565b975061597283615922565b925050600181019050615953565b5085935050505092915050565b600060208201905081810360008301526159a7818461592f565b905092915050565b6000806000606084860312156159c8576159c7615234565b5b60006159d686828701615465565b93505060206159e786828701615465565b92505060406159f886828701615491565b9150509250925092565b600062ffffff82169050919050565b615a1a81615a02565b82525050565b6000602082019050615a356000830184615a11565b92915050565b615a44816152dc565b8114615a4f57600080fd5b50565b600081359050615a6181615a3b565b92915050565b615a7081615192565b8114615a7b57600080fd5b50565b600081359050615a8d81615a67565b92915050565b60008060008060008060a08789031215615ab057615aaf615234565b5b6000615abe89828a01615439565b9650506020615acf89828a01615a52565b9550506040615ae089828a0161525f565b9450506060615af189828a01615a7e565b935050608087013567ffffffffffffffff811115615b1257615b11615239565b5b615b1e89828a016154b5565b92509250509295509295509295565b6000819050919050565b615b4081615b2d565b82525050565b6000604082019050615b5b6000830185615b37565b615b686020830184615b37565b9392505050565b600060208284031215615b8557615b84615234565b5b6000615b9384828501615465565b91505092915050565b600081600f0b9050919050565b615bb281615b9c565b82525050565b600060a082019050615bcd60008301886152e8565b615bda602083018761520a565b615be76040830186615ba9565b615bf460608301856155a5565b615c0160808301846155a5565b9695505050505050565b600060208284031215615c2157615c20615234565b5b6000615c2f84828501615a7e565b91505092915050565b6000604082019050615c4d60008301856153c0565b615c5a60208301846153c0565b9392505050565b7f4e487b7100000000000000000000000000000000000000000000000000000000600052601160045260246000fd5b6000615c9b826153a4565b91507fffffffffffffffffffffffffffffffffffffffffffffffffffffffffff8000008203615ccd57615ccc615c61565b5b816000039050919050565b600082825260208201905092915050565b82818337600083830152505050565b6000601f19601f8301169050919050565b6000615d158385615cd8565b9350615d22838584615ce9565b615d2b83615cf8565b840190509392505050565b6000606082019050615d4b60008301876155a5565b615d5860208301866155a5565b8181036040830152615d6b818486615d09565b905095945050505050565b6000615d818261523e565b9150615d8c8361523e565b9250828201905080821115615da457615da3615c61565b5b92915050565b6000608082019050615dbf60008301876151c4565b615dcc602083018661520a565b615dd960408301856155a5565b615de660608301846155a5565b95945050505050565b600081519050615dfe81615248565b92915050565b600060208284031215615e1a57615e19615234565b5b6000615e2884828501615def565b91505092915050565b6000604082019050615e4660008301856151c4565b615e5360208301846155a5565b9392505050565b600081519050615e6981615a3b565b92915050565b600060208284031215615e8557615e84615234565b5b6000615e9384828501615e5a565b91505092915050565b6000615ea7826151ee565b9150615eb2836151ee565b925082820390506fffffffffffffffffffffffffffffffff811115615eda57615ed9615c61565b5b92915050565b6000819050919050565b6000615f05615f00615efb846151ee565b615ee0565b61523e565b9050919050565b615f1581615eea565b82525050565b6000604082019050615f3060008301856151c4565b615f3d6020830184615f0c565b9392505050565b6000606082019050615f5960008301866151c4565b615f666020830185615f0c565b615f736040830184615f0c565b949350505050565b6000615f8682615b9c565b91507fffffffffffffffffffffffffffffffff800000000000000000000000000000008203615fb857615fb7615c61565b5b816000039050919050565b6000615fce82615b2d565b91507f8000000000000000000000000000000000000000000000000000000000000000820361600057615fff615c61565b5b816000039050919050565b6000616016826151ee565b9150616021836151ee565b925082820190506fffffffffffffffffffffffffffffffff81111561604957616048615c61565b5b92915050565b6000606082019050616064600083018661520a565b61607160208301856155a5565b61607e60408301846155a5565b949350505050565b60006160918261523e565b915061609c8361523e565b92508282039050818111156160b4576160b3615c61565b5b92915050565b60006160c5826153a4565b91506160d0836153a4565b92508282039050627fffff81137fffffffffffffffffffffffffffffffffffffffffffffffffffffffffff8000008212171561610f5761610e615c61565b5b92915050565b600060608201905061612a6000830187615b37565b6161376020830186615b37565b818103604083015261614a818486615d09565b905095945050505050565b600060a08201905061616a6000830188615b37565b6161776020830187615b37565b6161846040830186615395565b616191606083018561520a565b61619e60808301846153b1565b9695505050505050565b7f4e487b7100000000000000000000000000000000000000000000000000000000600052603260045260246000fd5b7f4e487b7100000000000000000000000000000000000000000000000000000000600052601260045260246000fd5b60006162118261523e565b91507fffffffffffffffffffffffffffffffffffffffffffffffffffffffffffffffff820361624357616242615c61565b5b600182019050919050565b60008160601b9050919050565b60006162668261624e565b9050919050565b60006162788261625b565b9050919050565b61629061628b826151b2565b61626d565b82525050565b60008160e81b9050919050565b60006162ae82616296565b9050919050565b6162c66162c1826153a4565b6162a3565b82525050565b60006162d8828661627f565b6014820191506162e882856162b5565b6003820191506162f882846162b5565b600382019150819050949350505050565b7f4e487b7100000000000000000000000000000000000000000000000000000000600052604160045260246000fd5b6000616343826153a4565b915061634e836153a4565b92508261635e5761635d6161d7565b5b600160000383147fffffffffffffffffffffffffffffffffffffffffffffffffffffffffff8000008314161561639757616396615c61565b5b828205905092915050565b60006163ad826153a4565b91506163b8836153a4565b9250826163c8576163c76161d7565b5b828207905092915050565b60006163de826153a4565b91507fffffffffffffffffffffffffffffffffffffffffffffffffffffffffff80000082036164105761640f615c61565b5b600182039050919050565b6000616426826153a4565b9150616431836153a4565b925082820261643f816153a4565b915080821461645157616450615c61565b5b5092915050565b600060ff82169050919050565b600061647082616458565b915061647b83616458565b9250828203905060ff81111561649457616493615c61565b5b92915050565b60006164a5826153a4565b91506164b0836153a4565b925082820190507fffffffffffffffffffffffffffffffffffffffffffffffffffffffffff8000008112627fffff821317156164ef576164ee615c61565b5b92915050565b600082825260208201905092915050565b7f5400000000000000000000000000000000000000000000000000000000000000600082015250565b600061653c6001836164f5565b915061654782616506565b602082019050919050565b6000602082019050818103600083015261656b8161652f565b9050919050565b600061657d8261523e565b91506165888361523e565b92508282026165968161523e565b915082820484148315176165ad576165ac615c61565b5b5092915050565b60006165bf8261523e565b91506165ca8361523e565b9250826165da576165d96161d7565b5b828204905092915050565b60006165f08261523e565b91506165fb8361523e565b92508261660b5761660a6161d7565b5b828206905092915050565b600061662182615a02565b915061662c83615a02565b9250828203905062ffffff81111561664757616646615c61565b5b92915050565b7f5200000000000000000000000000000000000000000000000000000000000000600082015250565b60006166836001836164f5565b915061668e8261664d565b602082019050919050565b600060208201905081810360008301526166b281616676565b9050919050565b60006166c482615b2d565b91506166cf83615b2d565b92508282039050818112600084121682821360008512151617156166f6576166f5615c61565b5b92915050565b600061670782615b2d565b915061671283615b2d565b925082820261672081615b2d565b91507f8000000000000000000000000000000000000000000000000000000000000000841460008412161561675857616757615c61565b5b828205841483151761676d5761676c615c61565b5b5092915050565b600061677f82615b2d565b915061678a83615b2d565b9250828201905082811215600083121683821260008412151617156167b2576167b1615c61565b5b92915050565b60006167c38261532e565b91506167ce8361532e565b9250828203905061ffff8111156167e8576167e7615c61565b5b92915050565b60006167f98261532e565b91506168048361532e565b9250828201905061ffff81111561681e5761681d615c61565b5b92915050565b600061682f8261532e565b915061683a8361532e565b92508261684a576168496161d7565b5b828206905092915050565b6000616860826152a1565b915061686b836152a1565b9250828203905063ffffffff81111561688757616886615c61565b5b92915050565b6000616898826152c0565b91506168a3836152c0565b92508282039050667fffffffffffff81137fffffffffffffffffffffffffffffffffffffffffffffffffff80000000000000821217156168e6576168e5615c61565b5b92915050565b60006168f7826152c0565b9150616902836152c0565b925082616912576169116161d7565b5b600160000383147fffffffffffffffffffffffffffffffffffffffffffffffffff800000000000008314161561694b5761694a615c61565b5b828205905092915050565b6000616961826152c0565b915061696c836152c0565b925082820261697a816152c0565b915080821461698c5761698b615c61565b5b5092915050565b600061699e826152c0565b91506169a9836152c0565b925082820190507fffffffffffffffffffffffffffffffffffffffffffffffffff800000000000008112667fffffffffffff821317156169ec576169eb615c61565b5b92915050565b60006169fd82616458565b9150616a0883616458565b9250828201905060ff811115616a2157616a20615c61565b5b92915050565b6000616a3282615192565b9150616a3d83615192565b9250828203905073ffffffffffffffffffffffffffffffffffffffff811115616a6957616a68615c61565b5b92915050565b7f4f4c440000000000000000000000000000000000000000000000000000000000600082015250565b6000616aa56003836164f5565b9150616ab082616a6f565b602082019050919050565b60006020820190508181036000830152616ad481616a98565b9050919050565b600064ffffffffff82169050919050565b6000616af782616adb565b9150616b0283616adb565b9250828201905064ffffffffff811115616b1f57616b1e615c61565b5b9291505056fea264697066735822122092bd87de7b4211151e23188fb0d50321a2734f6e02d6d4d638a9126cb00ce27164736f6c634300081a0033a26469706673582212201404f4308688b3af51e62b5ce0737caaffc65b22ed14735b3a78906f613892ea64736f6c634300081a0033",
			"opcodes": "PUSH1 0x80 PUSH1 0x40 MSTORE CALLVALUE DUP1 ISZERO PUSH1 0xF JUMPI PUSH1 0x0 DUP1 REVERT JUMPDEST POP PUSH1 0xA PUSH1 0x3 PUSH1 0x0 PUSH2 0x1F4 PUSH3 0xFFFFFF AND DUP2 MSTORE PUSH1 0x20 ADD SWAP1 DUP2 MSTORE PUSH1 0x20 ADD PUSH1 0x0 KECCAK256 PUSH1 0x0 PUSH2 0x100 EXP DUP2 SLOAD DUP2 PUSH3 0xFFFFFF MUL NOT AND SWAP1 DUP4 PUSH3 0xFFFFFF AND MUL OR SWAP1 SSTORE POP PUSH1 0x3C PUSH1 0x3 PUSH1 0x0 PUSH2 0xBB8 PUSH3 0xFFFFFF AND DUP2 MSTORE PUSH1 0x20 ADD SWAP1 DUP2 MSTORE PUSH1 0x20 ADD PUSH1 0x0 KECCAK256 PUSH1 0x0 PUSH2 0x100 EXP DUP2 SLOAD DUP2 PUSH3 0xFFFFFF MUL NOT AND SWAP1 DUP4 PUSH3 0xFFFFFF AND MUL OR SWAP1 SSTORE POP PUSH2 0x7AD2 DUP1 PUSH2 0x8F PUSH1 0x0 CODECOPY PUSH1 0x0 RETURN INVALID PUSH1 0x80 PUSH1 0x40 MSTORE CALLVALUE DUP1 ISZERO PUSH2 0x10 JUMPI PUSH1 0x0 DUP1 REVERT JUMPDEST POP PUSH1 0x4 CALLDATASIZE LT PUSH2 0x4C JUMPI PUSH1 0x0 CALLDATALOAD PUSH1 0xE0 SHR DUP1 PUSH4 0x6441C780 EQ PUSH2 0x51 JUMPI DUP1 PUSH4 0x89035730 EQ PUSH2 0x81 JUMPI DUP1 PUSH4 0xA1671295 EQ PUSH2 0xA3 JUMPI DUP1 PUSH4 0xBAE0D918 EQ PUSH2 0xD3 JUMPI JUMPDEST PUSH1 0x0 DUP1 REVERT JUMPDEST PUSH2 0x6B PUSH1 0x4 DUP1 CALLDATASIZE SUB DUP2 ADD SWAP1 PUSH2 0x66 SWAP2 SWAP1 PUSH2 0x9DD JUMP JUMPDEST PUSH2 0x103 JUMP JUMPDEST PUSH1 0x40 MLOAD PUSH2 0x78 SWAP2 SWAP1 PUSH2 0xA19 JUMP JUMPDEST PUSH1 0x40 MLOAD DUP1 SWAP2 SUB SWAP1 RETURN JUMPDEST PUSH2 0x89 PUSH2 0x125 JUMP JUMPDEST PUSH1 0x40 MLOAD PUSH2 0x9A SWAP6 SWAP5 SWAP4 SWAP3 SWAP2 SWAP1 PUSH2 0xA75 JUMP JUMPDEST PUSH1 0x40 MLOAD DUP1 SWAP2 SUB SWAP1 RETURN JUMPDEST PUSH2 0xBD PUSH1 0x4 DUP1 CALLDATASIZE SUB DUP2 ADD SWAP1 PUSH2 0xB8 SWAP2 SWAP1 PUSH2 0xAF4 JUMP JUMPDEST PUSH2 0x1C7 JUMP JUMPDEST PUSH1 0x40 MLOAD PUSH2 0xCA SWAP2 SWAP1 PUSH2 0xB47 JUMP JUMPDEST PUSH1 0x40 MLOAD DUP1 SWAP2 SUB SWAP1 RETURN JUMPDEST PUSH2 0xED PUSH1 0x4 DUP1 CALLDATASIZE SUB DUP2 ADD SWAP1 PUSH2 0xE8 SWAP2 SWAP1 PUSH2 0xAF4 JUMP JUMPDEST PUSH2 0x941 JUMP JUMPDEST PUSH1 0x40 MLOAD PUSH2 0xFA SWAP2 SWAP1 PUSH2 0xB47 JUMP JUMPDEST PUSH1 0x40 MLOAD DUP1 SWAP2 SUB SWAP1 RETURN JUMPDEST PUSH1 0x3 PUSH1 0x20 MSTORE DUP1 PUSH1 0x0 MSTORE PUSH1 0x40 PUSH1 0x0 KECCAK256 PUSH1 0x0 SWAP2 POP SLOAD SWAP1 PUSH2 0x100 EXP SWAP1 DIV PUSH3 0xFFFFFF AND DUP2 JUMP JUMPDEST PUSH1 0x0 DUP1 PUSH1 0x0 ADD PUSH1 0x0 SWAP1 SLOAD SWAP1 PUSH2 0x100 EXP SWAP1 DIV PUSH20 0xFFFFFFFFFFFFFFFFFFFFFFFFFFFFFFFFFFFFFFFF AND SWAP1 DUP1 PUSH1 0x1 ADD PUSH1 0x0 SWAP1 SLOAD SWAP1 PUSH2 0x100 EXP SWAP1 DIV PUSH20 0xFFFFFFFFFFFFFFFFFFFFFFFFFFFFFFFFFFFFFFFF AND SWAP1 DUP1 PUSH1 0x2 ADD PUSH1 0x0 SWAP1 SLOAD SWAP1 PUSH2 0x100 EXP SWAP1 DIV PUSH20 0xFFFFFFFFFFFFFFFFFFFFFFFFFFFFFFFFFFFFFFFF AND SWAP1 DUP1 PUSH1 0x2 ADD PUSH1 0x14 SWAP1 SLOAD SWAP1 PUSH2 0x100 EXP SWAP1 DIV PUSH3 0xFFFFFF AND SWAP1 DUP1 PUSH1 0x2 ADD PUSH1 0x17 SWAP1 SLOAD SWAP1 PUSH2 0x100 EXP SWAP1 DIV PUSH3 0xFFFFFF AND SWAP1 POP DUP6 JUMP JUMPDEST PUSH1 0x0 DUP3 PUSH20 0xFFFFFFFFFFFFFFFFFFFFFFFFFFFFFFFFFFFFFFFF AND DUP5 PUSH20 0xFFFFFFFFFFFFFFFFFFFFFFFFFFFFFFFFFFFFFFFF AND SUB PUSH2 0x22E JUMPI PUSH1 0x40 MLOAD PUSH32 0xFBFC7A9100000000000000000000000000000000000000000000000000000000 DUP2 MSTORE PUSH1 0x4 ADD PUSH1 0x40 MLOAD DUP1 SWAP2 SUB SWAP1 REVERT JUMPDEST PUSH1 0x0 PUSH1 0x3 PUSH1 0x0 DUP5 PUSH3 0xFFFFFF AND PUSH3 0xFFFFFF AND DUP2 MSTORE PUSH1 0x20 ADD SWAP1 DUP2 MSTORE PUSH1 0x20 ADD PUSH1 0x0 KECCAK256 PUSH1 0x0 SWAP1 SLOAD SWAP1 PUSH2 0x100 EXP SWAP1 DIV PUSH3 0xFFFFFF AND PUSH3 0xFFFFFF AND SUB PUSH2 0x299 JUMPI PUSH1 0x40 MLOAD PUSH32 0x271D3EEC00000000000000000000000000000000000000000000000000000000 DUP2 MSTORE PUSH1 0x4 ADD PUSH1 0x40 MLOAD DUP1 SWAP2 SUB SWAP1 REVERT JUMPDEST DUP3 PUSH20 0xFFFFFFFFFFFFFFFFFFFFFFFFFFFFFFFFFFFFFFFF AND DUP5 PUSH20 0xFFFFFFFFFFFFFFFFFFFFFFFFFFFFFFFFFFFFFFFF AND LT PUSH2 0x2D3 JUMPI DUP3 DUP5 PUSH2 0x2D6 JUMP JUMPDEST DUP4 DUP4 JUMPDEST DUP1 SWAP5 POP DUP2 SWAP6 POP POP POP PUSH1 0x0 PUSH20 0xFFFFFFFFFFFFFFFFFFFFFFFFFFFFFFFFFFFFFFFF AND DUP5 PUSH20 0xFFFFFFFFFFFFFFFFFFFFFFFFFFFFFFFFFFFFFFFF AND SUB PUSH2 0x344 JUMPI PUSH1 0x40 MLOAD PUSH32 0x8579BEFE00000000000000000000000000000000000000000000000000000000 DUP2 MSTORE PUSH1 0x4 ADD PUSH1 0x40 MLOAD DUP1 SWAP2 SUB SWAP1 REVERT JUMPDEST PUSH1 0x0 PUSH20 0xFFFFFFFFFFFFFFFFFFFFFFFFFFFFFFFFFFFFFFFF AND PUSH1 0x4 PUSH1 0x0 DUP7 PUSH20 0xFFFFFFFFFFFFFFFFFFFFFFFFFFFFFFFFFFFFFFFF AND PUSH20 0xFFFFFFFFFFFFFFFFFFFFFFFFFFFFFFFFFFFFFFFF AND DUP2 MSTORE PUSH1 0x20 ADD SWAP1 DUP2 MSTORE PUSH1 0x20 ADD PUSH1 0x0 KECCAK256 PUSH1 0x0 DUP6 PUSH20 0xFFFFFFFFFFFFFFFFFFFFFFFFFFFFFFFFFFFFFFFF AND PUSH20 0xFFFFFFFFFFFFFFFFFFFFFFFFFFFFFFFFFFFFFFFF AND DUP2 MSTORE PUSH1 0x20 ADD SWAP1 DUP2 MSTORE PUSH1 0x20 ADD PUSH1 0x0 KECCAK256 PUSH1 0x0 DUP5 PUSH3 0xFFFFFF AND PUSH3 0xFFFFFF AND DUP2 MSTORE PUSH1 0x20 ADD SWAP1 DUP2 MSTORE PUSH1 0x20 ADD PUSH1 0x0 KECCAK256 PUSH1 0x0 SWAP1 SLOAD SWAP1 PUSH2 0x100 EXP SWAP1 DIV PUSH20 0xFFFFFFFFFFFFFFFFFFFFFFFFFFFFFFFFFFFFFFFF AND PUSH20 0xFFFFFFFFFFFFFFFFFFFFFFFFFFFFFFFFFFFFFFFF AND EQ PUSH2 0x461 JUMPI PUSH1 0x40 MLOAD PUSH32 0x311932200000000000000000000000000000000000000000000000000000000 DUP2 MSTORE PUSH1 0x4 ADD PUSH1 0x40 MLOAD DUP1 SWAP2 SUB SWAP1 REVERT JUMPDEST PUSH1 0x40 MLOAD DUP1 PUSH1 0xA0 ADD PUSH1 0x40 MSTORE DUP1 ADDRESS PUSH20 0xFFFFFFFFFFFFFFFFFFFFFFFFFFFFFFFFFFFFFFFF AND DUP2 MSTORE PUSH1 0x20 ADD DUP6 PUSH20 0xFFFFFFFFFFFFFFFFFFFFFFFFFFFFFFFFFFFFFFFF AND DUP2 MSTORE PUSH1 0x20 ADD DUP5 PUSH20 0xFFFFFFFFFFFFFFFFFFFFFFFFFFFFFFFFFFFFFFFF AND DUP2 MSTORE PUSH1 0x20 ADD PUSH1 0x3 PUSH1 0x0 DUP6 PUSH3 0xFFFFFF AND PUSH3 0xFFFFFF AND DUP2 MSTORE PUSH1 0x20 ADD SWAP1 DUP2 MSTORE PUSH1 0x20 ADD PUSH1 0x0 KECCAK256 PUSH1 0x0 SWAP1 SLOAD SWAP1 PUSH2 0x100 EXP SWAP1 DIV PUSH3 0xFFFFFF AND PUSH3 0xFFFFFF AND DUP2 MSTORE PUSH1 0x20 ADD DUP4 PUSH3 0xFFFFFF AND DUP2 MSTORE POP PUSH1 0x0 DUP1 DUP3 ADD MLOAD DUP2 PUSH1 0x0 ADD PUSH1 0x0 PUSH2 0x100 EXP DUP2 SLOAD DUP2 PUSH20 0xFFFFFFFFFFFFFFFFFFFFFFFFFFFFFFFFFFFFFFFF MUL NOT AND SWAP1 DUP4 PUSH20 0xFFFFFFFFFFFFFFFFFFFFFFFFFFFFFFFFFFFFFFFF AND MUL OR SWAP1 SSTORE POP PUSH1 0x20 DUP3 ADD MLOAD DUP2 PUSH1 0x1 ADD PUSH1 0x0 PUSH2 0x100 EXP DUP2 SLOAD DUP2 PUSH20 0xFFFFFFFFFFFFFFFFFFFFFFFFFFFFFFFFFFFFFFFF MUL NOT AND SWAP1 DUP4 PUSH20 0xFFFFFFFFFFFFFFFFFFFFFFFFFFFFFFFFFFFFFFFF AND MUL OR SWAP1 SSTORE POP PUSH1 0x40 DUP3 ADD MLOAD DUP2 PUSH1 0x2 ADD PUSH1 0x0 PUSH2 0x100 EXP DUP2 SLOAD DUP2 PUSH20 0xFFFFFFFFFFFFFFFFFFFFFFFFFFFFFFFFFFFFFFFF MUL NOT AND SWAP1 DUP4 PUSH20 0xFFFFFFFFFFFFFFFFFFFFFFFFFFFFFFFFFFFFFFFF AND MUL OR SWAP1 SSTORE POP PUSH1 0x60 DUP3 ADD MLOAD DUP2 PUSH1 0x2 ADD PUSH1 0x14 PUSH2 0x100 EXP DUP2 SLOAD DUP2 PUSH3 0xFFFFFF MUL NOT AND SWAP1 DUP4 PUSH3 0xFFFFFF AND MUL OR SWAP1 SSTORE POP PUSH1 0x80 DUP3 ADD MLOAD DUP2 PUSH1 0x2 ADD PUSH1 0x17 PUSH2 0x100 EXP DUP2 SLOAD DUP2 PUSH3 0xFFFFFF MUL NOT AND SWAP1 DUP4 PUSH3 0xFFFFFF AND MUL OR SWAP1 SSTORE POP SWAP1 POP POP DUP4 DUP4 DUP4 PUSH1 0x40 MLOAD PUSH1 0x20 ADD PUSH2 0x638 SWAP4 SWAP3 SWAP2 SWAP1 PUSH2 0xBE0 JUMP JUMPDEST PUSH1 0x40 MLOAD PUSH1 0x20 DUP2 DUP4 SUB SUB DUP2 MSTORE SWAP1 PUSH1 0x40 MSTORE DUP1 MLOAD SWAP1 PUSH1 0x20 ADD KECCAK256 PUSH1 0x40 MLOAD PUSH2 0x65A SWAP1 PUSH2 0x990 JUMP JUMPDEST DUP2 SWAP1 PUSH1 0x40 MLOAD DUP1 SWAP2 SUB SWAP1 PUSH1 0x0 CREATE2 SWAP1 POP DUP1 ISZERO DUP1 ISZERO PUSH2 0x67A JUMPI RETURNDATASIZE PUSH1 0x0 DUP1 RETURNDATACOPY RETURNDATASIZE PUSH1 0x0 REVERT JUMPDEST POP SWAP1 POP PUSH1 0x0 DUP1 PUSH1 0x0 DUP3 ADD PUSH1 0x0 PUSH2 0x100 EXP DUP2 SLOAD SWAP1 PUSH20 0xFFFFFFFFFFFFFFFFFFFFFFFFFFFFFFFFFFFFFFFF MUL NOT AND SWAP1 SSTORE PUSH1 0x1 DUP3 ADD PUSH1 0x0 PUSH2 0x100 EXP DUP2 SLOAD SWAP1 PUSH20 0xFFFFFFFFFFFFFFFFFFFFFFFFFFFFFFFFFFFFFFFF MUL NOT AND SWAP1 SSTORE PUSH1 0x2 DUP3 ADD PUSH1 0x0 PUSH2 0x100 EXP DUP2 SLOAD SWAP1 PUSH20 0xFFFFFFFFFFFFFFFFFFFFFFFFFFFFFFFFFFFFFFFF MUL NOT AND SWAP1 SSTORE PUSH1 0x2 DUP3 ADD PUSH1 0x14 PUSH2 0x100 EXP DUP2 SLOAD SWAP1 PUSH3 0xFFFFFF MUL NOT AND SWAP1 SSTORE PUSH1 0x2 DUP3 ADD PUSH1 0x17 PUSH2 0x100 EXP DUP2 SLOAD SWAP1 PUSH3 0xFFFFFF MUL NOT AND SWAP1 SSTORE POP POP DUP1 PUSH1 0x4 PUSH1 0x0 DUP7 PUSH20 0xFFFFFFFFFFFFFFFFFFFFFFFFFFFFFFFFFFFFFFFF AND PUSH20 0xFFFFFFFFFFFFFFFFFFFFFFFFFFFFFFFFFFFFFFFF AND DUP2 MSTORE PUSH1 0x20 ADD SWAP1 DUP2 MSTORE PUSH1 0x20 ADD PUSH1 0x0 KECCAK256 PUSH1 0x0 DUP6 PUSH20 0xFFFFFFFFFFFFFFFFFFFFFFFFFFFFFFFFFFFFFFFF AND PUSH20 0xFFFFFFFFFFFFFFFFFFFFFFFFFFFFFFFFFFFFFFFF AND DUP2 MSTORE PUSH1 0x20 ADD SWAP1 DUP2 MSTORE PUSH1 0x20 ADD PUSH1 0x0 KECCAK256 PUSH1 0x0 DUP5 PUSH3 0xFFFFFF AND PUSH3 0xFFFFFF AND DUP2 MSTORE PUSH1 0x20 ADD SWAP1 DUP2 MSTORE PUSH1 0x20 ADD PUSH1 0x0 KECCAK256 PUSH1 0x0 PUSH2 0x100 EXP DUP2 SLOAD DUP2 PUSH20 0xFFFFFFFFFFFFFFFFFFFFFFFFFFFFFFFFFFFFFFFF MUL NOT AND SWAP1 DUP4 PUSH20 0xFFFFFFFFFFFFFFFFFFFFFFFFFFFFFFFFFFFFFFFF AND MUL OR SWAP1 SSTORE POP DUP1 PUSH1 0x4 PUSH1 0x0 DUP6 PUSH20 0xFFFFFFFFFFFFFFFFFFFFFFFFFFFFFFFFFFFFFFFF AND PUSH20 0xFFFFFFFFFFFFFFFFFFFFFFFFFFFFFFFFFFFFFFFF AND DUP2 MSTORE PUSH1 0x20 ADD SWAP1 DUP2 MSTORE PUSH1 0x20 ADD PUSH1 0x0 KECCAK256 PUSH1 0x0 DUP7 PUSH20 0xFFFFFFFFFFFFFFFFFFFFFFFFFFFFFFFFFFFFFFFF AND PUSH20 0xFFFFFFFFFFFFFFFFFFFFFFFFFFFFFFFFFFFFFFFF AND DUP2 MSTORE PUSH1 0x20 ADD SWAP1 DUP2 MSTORE PUSH1 0x20 ADD PUSH1 0x0 KECCAK256 PUSH1 0x0 DUP5 PUSH3 0xFFFFFF AND PUSH3 0xFFFFFF AND DUP2 MSTORE PUSH1 0x20 ADD SWAP1 DUP2 MSTORE PUSH1 0x20 ADD PUSH1 0x0 KECCAK256 PUSH1 0x0 PUSH2 0x100 EXP DUP2 SLOAD DUP2 PUSH20 0xFFFFFFFFFFFFFFFFFFFFFFFFFFFFFFFFFFFFFFFF MUL NOT AND SWAP1 DUP4 PUSH20 0xFFFFFFFFFFFFFFFFFFFFFFFFFFFFFFFFFFFFFFFF AND MUL OR SWAP1 SSTORE POP DUP2 PUSH3 0xFFFFFF AND DUP4 PUSH20 0xFFFFFFFFFFFFFFFFFFFFFFFFFFFFFFFFFFFFFFFF AND DUP6 PUSH20 0xFFFFFFFFFFFFFFFFFFFFFFFFFFFFFFFFFFFFFFFF AND PUSH32 0x97D23878912FDA7F82BD5A8502F2C6E9086F5A4728F9054627788B3162F86CED DUP5 PUSH1 0x40 MLOAD PUSH2 0x932 SWAP2 SWAP1 PUSH2 0xB47 JUMP JUMPDEST PUSH1 0x40 MLOAD DUP1 SWAP2 SUB SWAP1 LOG4 SWAP4 SWAP3 POP POP POP JUMP JUMPDEST PUSH1 0x4 PUSH1 0x20 MSTORE DUP3 PUSH1 0x0 MSTORE PUSH1 0x40 PUSH1 0x0 KECCAK256 PUSH1 0x20 MSTORE DUP2 PUSH1 0x0 MSTORE PUSH1 0x40 PUSH1 0x0 KECCAK256 PUSH1 0x20 MSTORE DUP1 PUSH1 0x0 MSTORE PUSH1 0x40 PUSH1 0x0 KECCAK256 PUSH1 0x0 SWAP3 POP SWAP3 POP POP SWAP1 SLOAD SWAP1 PUSH2 0x100 EXP SWAP1 DIV PUSH20 0xFFFFFFFFFFFFFFFFFFFFFFFFFFFFFFFFFFFFFFFF AND DUP2 JUMP JUMPDEST PUSH2 0x6E7F DUP1 PUSH2 0xC1E DUP4 CODECOPY ADD SWAP1 JUMP JUMPDEST PUSH1 0x0 DUP1 REVERT JUMPDEST PUSH1 0x0 PUSH3 0xFFFFFF DUP3 AND SWAP1 POP SWAP2 SWAP1 POP JUMP JUMPDEST PUSH2 0x9BA DUP2 PUSH2 0x9A2 JUMP JUMPDEST DUP2 EQ PUSH2 0x9C5 JUMPI PUSH1 0x0 DUP1 REVERT JUMPDEST POP JUMP JUMPDEST PUSH1 0x0 DUP2 CALLDATALOAD SWAP1 POP PUSH2 0x9D7 DUP2 PUSH2 0x9B1 JUMP JUMPDEST SWAP3 SWAP2 POP POP JUMP JUMPDEST PUSH1 0x0 PUSH1 0x20 DUP3 DUP5 SUB SLT ISZERO PUSH2 0x9F3 JUMPI PUSH2 0x9F2 PUSH2 0x99D JUMP JUMPDEST JUMPDEST PUSH1 0x0 PUSH2 0xA01 DUP5 DUP3 DUP6 ADD PUSH2 0x9C8 JUMP JUMPDEST SWAP2 POP POP SWAP3 SWAP2 POP POP JUMP JUMPDEST PUSH2 0xA13 DUP2 PUSH2 0x9A2 JUMP JUMPDEST DUP3 MSTORE POP POP JUMP JUMPDEST PUSH1 0x0 PUSH1 0x20 DUP3 ADD SWAP1 POP PUSH2 0xA2E PUSH1 0x0 DUP4 ADD DUP5 PUSH2 0xA0A JUMP JUMPDEST SWAP3 SWAP2 POP POP JUMP JUMPDEST PUSH1 0x0 PUSH20 0xFFFFFFFFFFFFFFFFFFFFFFFFFFFFFFFFFFFFFFFF DUP3 AND SWAP1 POP SWAP2 SWAP1 POP JUMP JUMPDEST PUSH1 0x0 PUSH2 0xA5F DUP3 PUSH2 0xA34 JUMP JUMPDEST SWAP1 POP SWAP2 SWAP1 POP JUMP JUMPDEST PUSH2 0xA6F DUP2 PUSH2 0xA54 JUMP JUMPDEST DUP3 MSTORE POP POP JUMP JUMPDEST PUSH1 0x0 PUSH1 0xA0 DUP3 ADD SWAP1 POP PUSH2 0xA8A PUSH1 0x0 DUP4 ADD DUP9 PUSH2 0xA66 JUMP JUMPDEST PUSH2 0xA97 PUSH1 0x20 DUP4 ADD DUP8 PUSH2 0xA66 JUMP JUMPDEST PUSH2 0xAA4 PUSH1 0x40 DUP4 ADD DUP7 PUSH2 0xA66 JUMP JUMPDEST PUSH2 0xAB1 PUSH1 0x60 DUP4 ADD DUP6 PUSH2 0xA0A JUMP JUMPDEST PUSH2 0xABE PUSH1 0x80 DUP4 ADD DUP5 PUSH2 0xA0A JUMP JUMPDEST SWAP7 SWAP6 POP POP POP POP POP POP JUMP JUMPDEST PUSH2 0xAD1 DUP2 PUSH2 0xA54 JUMP JUMPDEST DUP2 EQ PUSH2 0xADC JUMPI PUSH1 0x0 DUP1 REVERT JUMPDEST POP JUMP JUMPDEST PUSH1 0x0 DUP2 CALLDATALOAD SWAP1 POP PUSH2 0xAEE DUP2 PUSH2 0xAC8 JUMP JUMPDEST SWAP3 SWAP2 POP POP JUMP JUMPDEST PUSH1 0x0 DUP1 PUSH1 0x0 PUSH1 0x60 DUP5 DUP7 SUB SLT ISZERO PUSH2 0xB0D JUMPI PUSH2 0xB0C PUSH2 0x99D JUMP JUMPDEST JUMPDEST PUSH1 0x0 PUSH2 0xB1B DUP7 DUP3 DUP8 ADD PUSH2 0xADF JUMP JUMPDEST SWAP4 POP POP PUSH1 0x20 PUSH2 0xB2C DUP7 DUP3 DUP8 ADD PUSH2 0xADF JUMP JUMPDEST SWAP3 POP POP PUSH1 0x40 PUSH2 0xB3D DUP7 DUP3 DUP8 ADD PUSH2 0x9C8 JUMP JUMPDEST SWAP2 POP POP SWAP3 POP SWAP3 POP SWAP3 JUMP JUMPDEST PUSH1 0x0 PUSH1 0x20 DUP3 ADD SWAP1 POP PUSH2 0xB5C PUSH1 0x0 DUP4 ADD DUP5 PUSH2 0xA66 JUMP JUMPDEST SWAP3 SWAP2 POP POP JUMP JUMPDEST PUSH1 0x0 DUP2 PUSH1 0x60 SHL SWAP1 POP SWAP2 SWAP1 POP JUMP JUMPDEST PUSH1 0x0 PUSH2 0xB7A DUP3 PUSH2 0xB62 JUMP JUMPDEST SWAP1 POP SWAP2 SWAP1 POP JUMP JUMPDEST PUSH1 0x0 PUSH2 0xB8C DUP3 PUSH2 0xB6F JUMP JUMPDEST SWAP1 POP SWAP2 SWAP1 POP JUMP JUMPDEST PUSH2 0xBA4 PUSH2 0xB9F DUP3 PUSH2 0xA54 JUMP JUMPDEST PUSH2 0xB81 JUMP JUMPDEST DUP3 MSTORE POP POP JUMP JUMPDEST PUSH1 0x0 DUP2 PUSH1 0xE8 SHL SWAP1 POP SWAP2 SWAP1 POP JUMP JUMPDEST PUSH1 0x0 PUSH2 0xBC2 DUP3 PUSH2 0xBAA JUMP JUMPDEST SWAP1 POP SWAP2 SWAP1 POP JUMP JUMPDEST PUSH2 0xBDA PUSH2 0xBD5 DUP3 PUSH2 0x9A2 JUMP JUMPDEST PUSH2 0xBB7 JUMP JUMPDEST DUP3 MSTORE POP POP JUMP JUMPDEST PUSH1 0x0 PUSH2 0xBEC DUP3 DUP7 PUSH2 0xB93 JUMP JUMPDEST PUSH1 0x14 DUP3 ADD SWAP2 POP PUSH2 0xBFC DUP3 DUP6 PUSH2 0xB93 JUMP JUMPDEST PUSH1 0x14 DUP3 ADD SWAP2 POP PUSH2 0xC0C DUP3 DUP5 PUSH2 0xBC9 JUMP JUMPDEST PUSH1 0x3 DUP3 ADD SWAP2 POP DUP2 SWAP1 POP SWAP5 SWAP4 POP POP POP POP JUMP INVALID PUSH2 0x120 PUSH1 0x40 MSTORE CALLVALUE DUP1 ISZERO PUSH2 0x11 JUMPI PUSH1 0x0 DUP1 REVERT JUMPDEST POP CALLER PUSH20 0xFFFFFFFFFFFFFFFFFFFFFFFFFFFFFFFFFFFFFFFF AND PUSH4 0x89035730 PUSH1 0x40 MLOAD DUP2 PUSH4 0xFFFFFFFF AND PUSH1 0xE0 SHL DUP2 MSTORE PUSH1 0x4 ADD PUSH1 0xA0 PUSH1 0x40 MLOAD DUP1 DUP4 SUB DUP2 PUSH1 0x0 DUP8 GAS CALL ISZERO DUP1 ISZERO PUSH2 0x5F JUMPI RETURNDATASIZE PUSH1 0x0 DUP1 RETURNDATACOPY RETURNDATASIZE PUSH1 0x0 REVERT JUMPDEST POP POP POP POP PUSH1 0x40 MLOAD RETURNDATASIZE PUSH1 0x1F NOT PUSH1 0x1F DUP3 ADD AND DUP3 ADD DUP1 PUSH1 0x40 MSTORE POP DUP2 ADD SWAP1 PUSH2 0x83 SWAP2 SWAP1 PUSH2 0x1E7 JUMP JUMPDEST DUP1 PUSH3 0xFFFFFF AND PUSH2 0x100 SWAP1 PUSH3 0xFFFFFF AND DUP2 MSTORE POP DUP2 PUSH3 0xFFFFFF AND PUSH1 0xE0 SWAP1 PUSH3 0xFFFFFF AND DUP2 MSTORE POP DUP3 PUSH20 0xFFFFFFFFFFFFFFFFFFFFFFFFFFFFFFFFFFFFFFFF AND PUSH1 0xC0 SWAP1 PUSH20 0xFFFFFFFFFFFFFFFFFFFFFFFFFFFFFFFFFFFFFFFF AND DUP2 MSTORE POP DUP4 PUSH20 0xFFFFFFFFFFFFFFFFFFFFFFFFFFFFFFFFFFFFFFFF AND PUSH1 0xA0 SWAP1 PUSH20 0xFFFFFFFFFFFFFFFFFFFFFFFFFFFFFFFFFFFFFFFF AND DUP2 MSTORE POP DUP5 PUSH20 0xFFFFFFFFFFFFFFFFFFFFFFFFFFFFFFFFFFFFFFFF AND PUSH1 0x80 SWAP1 PUSH20 0xFFFFFFFFFFFFFFFFFFFFFFFFFFFFFFFFFFFFFFFF AND DUP2 MSTORE POP POP POP POP POP POP PUSH2 0x262 JUMP JUMPDEST PUSH1 0x0 DUP1 REVERT JUMPDEST PUSH1 0x0 PUSH20 0xFFFFFFFFFFFFFFFFFFFFFFFFFFFFFFFFFFFFFFFF DUP3 AND SWAP1 POP SWAP2 SWAP1 POP JUMP JUMPDEST PUSH1 0x0 PUSH2 0x179 DUP3 PUSH2 0x14E JUMP JUMPDEST SWAP1 POP SWAP2 SWAP1 POP JUMP JUMPDEST PUSH2 0x189 DUP2 PUSH2 0x16E JUMP JUMPDEST DUP2 EQ PUSH2 0x194 JUMPI PUSH1 0x0 DUP1 REVERT JUMPDEST POP JUMP JUMPDEST PUSH1 0x0 DUP2 MLOAD SWAP1 POP PUSH2 0x1A6 DUP2 PUSH2 0x180 JUMP JUMPDEST SWAP3 SWAP2 POP POP JUMP JUMPDEST PUSH1 0x0 PUSH3 0xFFFFFF DUP3 AND SWAP1 POP SWAP2 SWAP1 POP JUMP JUMPDEST PUSH2 0x1C4 DUP2 PUSH2 0x1AC JUMP JUMPDEST DUP2 EQ PUSH2 0x1CF JUMPI PUSH1 0x0 DUP1 REVERT JUMPDEST POP JUMP JUMPDEST PUSH1 0x0 DUP2 MLOAD SWAP1 POP PUSH2 0x1E1 DUP2 PUSH2 0x1BB JUMP JUMPDEST SWAP3 SWAP2 POP POP JUMP JUMPDEST PUSH1 0x0 DUP1 PUSH1 0x0 DUP1 PUSH1 0x0 PUSH1 0xA0 DUP7 DUP9 SUB SLT ISZERO PUSH2 0x203 JUMPI PUSH2 0x202 PUSH2 0x149 JUMP JUMPDEST JUMPDEST PUSH1 0x0 PUSH2 0x211 DUP9 DUP3 DUP10 ADD PUSH2 0x197 JUMP JUMPDEST SWAP6 POP POP PUSH1 0x20 PUSH2 0x222 DUP9 DUP3 DUP10 ADD PUSH2 0x197 JUMP JUMPDEST SWAP5 POP POP PUSH1 0x40 PUSH2 0x233 DUP9 DUP3 DUP10 ADD PUSH2 0x197 JUMP JUMPDEST SWAP4 POP POP PUSH1 0x60 PUSH2 0x244 DUP9 DUP3 DUP10 ADD PUSH2 0x1D2 JUMP JUMPDEST SWAP3 POP POP PUSH1 0x80 PUSH2 0x255 DUP9 DUP3 DUP10 ADD PUSH2 0x1D2 JUMP JUMPDEST SWAP2 POP POP SWAP3 SWAP6 POP SWAP3 SWAP6 SWAP1 SWAP4 POP JUMP JUMPDEST PUSH1 0x80 MLOAD PUSH1 0xA0 MLOAD PUSH1 0xC0 MLOAD PUSH1 0xE0 MLOAD PUSH2 0x100 MLOAD PUSH2 0x6B5B PUSH2 0x324 PUSH1 0x0 CODECOPY PUSH1 0x0 DUP2 DUP2 PUSH2 0x92D ADD MSTORE DUP2 DUP2 PUSH2 0x964 ADD MSTORE DUP2 DUP2 PUSH2 0x1A7B ADD MSTORE PUSH2 0x234F ADD MSTORE PUSH1 0x0 DUP2 DUP2 PUSH2 0x15CA ADD MSTORE DUP2 DUP2 PUSH2 0x1954 ADD MSTORE DUP2 DUP2 PUSH2 0x27C4 ADD MSTORE PUSH2 0x2805 ADD MSTORE PUSH1 0x0 DUP2 DUP2 PUSH2 0xA35 ADD MSTORE DUP2 DUP2 PUSH2 0xB83 ADD MSTORE DUP2 DUP2 PUSH2 0xD7E ADD MSTORE DUP2 DUP2 PUSH2 0x1194 ADD MSTORE DUP2 DUP2 PUSH2 0x15EE ADD MSTORE DUP2 DUP2 PUSH2 0x1FAF ADD MSTORE PUSH2 0x2A63 ADD MSTORE PUSH1 0x0 DUP2 DUP2 PUSH2 0x462 ADD MSTORE DUP2 DUP2 PUSH2 0x997 ADD MSTORE DUP2 DUP2 PUSH2 0xADA ADD MSTORE DUP2 DUP2 PUSH2 0xCA0 ADD MSTORE DUP2 DUP2 PUSH2 0x109A ADD MSTORE DUP2 DUP2 PUSH2 0x2126 ADD MSTORE PUSH2 0x29C2 ADD MSTORE PUSH1 0x0 PUSH2 0x15A6 ADD MSTORE PUSH2 0x6B5B PUSH1 0x0 RETURN INVALID PUSH1 0x80 PUSH1 0x40 MSTORE CALLVALUE DUP1 ISZERO PUSH2 0x10 JUMPI PUSH1 0x0 DUP1 REVERT JUMPDEST POP PUSH1 0x4 CALLDATASIZE LT PUSH2 0x137 JUMPI PUSH1 0x0 CALLDATALOAD PUSH1 0xE0 SHR DUP1 PUSH4 0x5339C296 GT PUSH2 0xB8 JUMPI DUP1 PUSH4 0xD21220A7 GT PUSH2 0x7C JUMPI DUP1 PUSH4 0xD21220A7 EQ PUSH2 0x385 JUMPI DUP1 PUSH4 0xDD5A12D8 EQ PUSH2 0x3A3 JUMPI DUP1 PUSH4 0xDDCA3F43 EQ PUSH2 0x3D4 JUMPI DUP1 PUSH4 0xF3058399 EQ PUSH2 0x3F2 JUMPI DUP1 PUSH4 0xF30DBA93 EQ PUSH2 0x410 JUMPI DUP1 PUSH4 0xF637731D EQ PUSH2 0x444 JUMPI PUSH2 0x137 JUMP JUMPDEST DUP1 PUSH4 0x5339C296 EQ PUSH2 0x2B8 JUMPI DUP1 PUSH4 0x883BDBFD EQ PUSH2 0x2E8 JUMPI DUP1 PUSH4 0xA34123A7 EQ PUSH2 0x318 JUMPI DUP1 PUSH4 0xC45A0155 EQ PUSH2 0x349 JUMPI DUP1 PUSH4 0xD0C93A7C EQ PUSH2 0x367 JUMPI PUSH2 0x137 JUMP JUMPDEST DUP1 PUSH4 0x3C8A7D8D GT PUSH2 0xFF JUMPI DUP1 PUSH4 0x3C8A7D8D EQ PUSH2 0x1E8 JUMPI DUP1 PUSH4 0x46141319 EQ PUSH2 0x219 JUMPI DUP1 PUSH4 0x4A182392 EQ PUSH2 0x237 JUMPI DUP1 PUSH4 0x4F1EB3D8 EQ PUSH2 0x253 JUMPI DUP1 PUSH4 0x514EA4BF EQ PUSH2 0x284 JUMPI PUSH2 0x137 JUMP JUMPDEST DUP1 PUSH4 0xDFE1681 EQ PUSH2 0x13C JUMPI DUP1 PUSH4 0x1A686502 EQ PUSH2 0x15A JUMPI DUP1 PUSH4 0x252C09D7 EQ PUSH2 0x178 JUMPI DUP1 PUSH4 0x32148F67 EQ PUSH2 0x1AA JUMPI DUP1 PUSH4 0x3850C7BD EQ PUSH2 0x1C6 JUMPI JUMPDEST PUSH1 0x0 DUP1 REVERT JUMPDEST PUSH2 0x144 PUSH2 0x460 JUMP JUMPDEST PUSH1 0x40 MLOAD PUSH2 0x151 SWAP2 SWAP1 PUSH2 0x51D3 JUMP JUMPDEST PUSH1 0x40 MLOAD DUP1 SWAP2 SUB SWAP1 RETURN JUMPDEST PUSH2 0x162 PUSH2 0x484 JUMP JUMPDEST PUSH1 0x40 MLOAD PUSH2 0x16F SWAP2 SWAP1 PUSH2 0x5219 JUMP JUMPDEST PUSH1 0x40 MLOAD DUP1 SWAP2 SUB SWAP1 RETURN JUMPDEST PUSH2 0x192 PUSH1 0x4 DUP1 CALLDATASIZE SUB DUP2 ADD SWAP1 PUSH2 0x18D SWAP2 SWAP1 PUSH2 0x5274 JUMP JUMPDEST PUSH2 0x4A6 JUMP JUMPDEST PUSH1 0x40 MLOAD PUSH2 0x1A1 SWAP4 SWAP3 SWAP2 SWAP1 PUSH2 0x52F7 JUMP JUMPDEST PUSH1 0x40 MLOAD DUP1 SWAP2 SUB SWAP1 RETURN JUMPDEST PUSH2 0x1C4 PUSH1 0x4 DUP1 CALLDATASIZE SUB DUP2 ADD SWAP1 PUSH2 0x1BF SWAP2 SWAP1 PUSH2 0x5368 JUMP JUMPDEST PUSH2 0x4FE JUMP JUMPDEST STOP JUMPDEST PUSH2 0x1CE PUSH2 0x59E JUMP JUMPDEST PUSH1 0x40 MLOAD PUSH2 0x1DF SWAP6 SWAP5 SWAP4 SWAP3 SWAP2 SWAP1 PUSH2 0x53CF JUMP JUMPDEST PUSH1 0x40 MLOAD DUP1 SWAP2 SUB SWAP1 RETURN JUMPDEST PUSH2 0x202 PUSH1 0x4 DUP1 CALLDATASIZE SUB DUP2 ADD SWAP1 PUSH2 0x1FD SWAP2 SWAP1 PUSH2 0x550B JUMP JUMPDEST PUSH2 0x619 JUMP JUMPDEST PUSH1 0x40 MLOAD PUSH2 0x210 SWAP3 SWAP2 SWAP1 PUSH2 0x55B4 JUMP JUMPDEST PUSH1 0x40 MLOAD DUP1 SWAP2 SUB SWAP1 RETURN JUMPDEST PUSH2 0x221 PUSH2 0x91F JUMP JUMPDEST PUSH1 0x40 MLOAD PUSH2 0x22E SWAP2 SWAP1 PUSH2 0x55DD JUMP JUMPDEST PUSH1 0x40 MLOAD DUP1 SWAP2 SUB SWAP1 RETURN JUMPDEST PUSH2 0x251 PUSH1 0x4 DUP1 CALLDATASIZE SUB DUP2 ADD SWAP1 PUSH2 0x24C SWAP2 SWAP1 PUSH2 0x55F8 JUMP JUMPDEST PUSH2 0x925 JUMP JUMPDEST STOP JUMPDEST PUSH2 0x26D PUSH1 0x4 DUP1 CALLDATASIZE SUB DUP2 ADD SWAP1 PUSH2 0x268 SWAP2 SWAP1 PUSH2 0x566C JUMP JUMPDEST PUSH2 0xEA8 JUMP JUMPDEST PUSH1 0x40 MLOAD PUSH2 0x27B SWAP3 SWAP2 SWAP1 PUSH2 0x56E7 JUMP JUMPDEST PUSH1 0x40 MLOAD DUP1 SWAP2 SUB SWAP1 RETURN JUMPDEST PUSH2 0x29E PUSH1 0x4 DUP1 CALLDATASIZE SUB DUP2 ADD SWAP1 PUSH2 0x299 SWAP2 SWAP1 PUSH2 0x5746 JUMP JUMPDEST PUSH2 0x1297 JUMP JUMPDEST PUSH1 0x40 MLOAD PUSH2 0x2AF SWAP6 SWAP5 SWAP4 SWAP3 SWAP2 SWAP1 PUSH2 0x5773 JUMP JUMPDEST PUSH1 0x40 MLOAD DUP1 SWAP2 SUB SWAP1 RETURN JUMPDEST PUSH2 0x2D2 PUSH1 0x4 DUP1 CALLDATASIZE SUB DUP2 ADD SWAP1 PUSH2 0x2CD SWAP2 SWAP1 PUSH2 0x57FF JUMP JUMPDEST PUSH2 0x1321 JUMP JUMPDEST PUSH1 0x40 MLOAD PUSH2 0x2DF SWAP2 SWAP1 PUSH2 0x55DD JUMP JUMPDEST PUSH1 0x40 MLOAD DUP1 SWAP2 SUB SWAP1 RETURN JUMPDEST PUSH2 0x302 PUSH1 0x4 DUP1 CALLDATASIZE SUB DUP2 ADD SWAP1 PUSH2 0x2FD SWAP2 SWAP1 PUSH2 0x5882 JUMP JUMPDEST PUSH2 0x1339 JUMP JUMPDEST PUSH1 0x40 MLOAD PUSH2 0x30F SWAP2 SWAP1 PUSH2 0x598D JUMP JUMPDEST PUSH1 0x40 MLOAD DUP1 SWAP2 SUB SWAP1 RETURN JUMPDEST PUSH2 0x332 PUSH1 0x4 DUP1 CALLDATASIZE SUB DUP2 ADD SWAP1 PUSH2 0x32D SWAP2 SWAP1 PUSH2 0x59AF JUMP JUMPDEST PUSH2 0x13DF JUMP JUMPDEST PUSH1 0x40 MLOAD PUSH2 0x340 SWAP3 SWAP2 SWAP1 PUSH2 0x55B4 JUMP JUMPDEST PUSH1 0x40 MLOAD DUP1 SWAP2 SUB SWAP1 RETURN JUMPDEST PUSH2 0x351 PUSH2 0x15A4 JUMP JUMPDEST PUSH1 0x40 MLOAD PUSH2 0x35E SWAP2 SWAP1 PUSH2 0x51D3 JUMP JUMPDEST PUSH1 0x40 MLOAD DUP1 SWAP2 SUB SWAP1 RETURN JUMPDEST PUSH2 0x36F PUSH2 0x15C8 JUMP JUMPDEST PUSH1 0x40 MLOAD PUSH2 0x37C SWAP2 SWAP1 PUSH2 0x5A20 JUMP JUMPDEST PUSH1 0x40 MLOAD DUP1 SWAP2 SUB SWAP1 RETURN JUMPDEST PUSH2 0x38D PUSH2 0x15EC JUMP JUMPDEST PUSH1 0x40 MLOAD PUSH2 0x39A SWAP2 SWAP1 PUSH2 0x51D3 JUMP JUMPDEST PUSH1 0x40 MLOAD DUP1 SWAP2 SUB SWAP1 RETURN JUMPDEST PUSH2 0x3BD PUSH1 0x4 DUP1 CALLDATASIZE SUB DUP2 ADD SWAP1 PUSH2 0x3B8 SWAP2 SWAP1 PUSH2 0x5A93 JUMP JUMPDEST PUSH2 0x1610 JUMP JUMPDEST PUSH1 0x40 MLOAD PUSH2 0x3CB SWAP3 SWAP2 SWAP1 PUSH2 0x5B46 JUMP JUMPDEST PUSH1 0x40 MLOAD DUP1 SWAP2 SUB SWAP1 RETURN JUMPDEST PUSH2 0x3DC PUSH2 0x234D JUMP JUMPDEST PUSH1 0x40 MLOAD PUSH2 0x3E9 SWAP2 SWAP1 PUSH2 0x5A20 JUMP JUMPDEST PUSH1 0x40 MLOAD DUP1 SWAP2 SUB SWAP1 RETURN JUMPDEST PUSH2 0x3FA PUSH2 0x2371 JUMP JUMPDEST PUSH1 0x40 MLOAD PUSH2 0x407 SWAP2 SWAP1 PUSH2 0x55DD JUMP JUMPDEST PUSH1 0x40 MLOAD DUP1 SWAP2 SUB SWAP1 RETURN JUMPDEST PUSH2 0x42A PUSH1 0x4 DUP1 CALLDATASIZE SUB DUP2 ADD SWAP1 PUSH2 0x425 SWAP2 SWAP1 PUSH2 0x5B6F JUMP JUMPDEST PUSH2 0x2377 JUMP JUMPDEST PUSH1 0x40 MLOAD PUSH2 0x43B SWAP6 SWAP5 SWAP4 SWAP3 SWAP2 SWAP1 PUSH2 0x5BB8 JUMP JUMPDEST PUSH1 0x40 MLOAD DUP1 SWAP2 SUB SWAP1 RETURN JUMPDEST PUSH2 0x45E PUSH1 0x4 DUP1 CALLDATASIZE SUB DUP2 ADD SWAP1 PUSH2 0x459 SWAP2 SWAP1 PUSH2 0x5C0B JUMP JUMPDEST PUSH2 0x23E3 JUMP JUMPDEST STOP JUMPDEST PUSH32 0x0 DUP2 JUMP JUMPDEST PUSH1 0x3 PUSH1 0x0 SWAP1 SLOAD SWAP1 PUSH2 0x100 EXP SWAP1 DIV PUSH16 0xFFFFFFFFFFFFFFFFFFFFFFFFFFFFFFFF AND DUP2 JUMP JUMPDEST PUSH1 0x7 DUP2 PUSH2 0xFFFF DUP2 LT PUSH2 0x4B7 JUMPI PUSH1 0x0 DUP1 REVERT JUMPDEST ADD PUSH1 0x0 SWAP2 POP SWAP1 POP DUP1 PUSH1 0x0 ADD PUSH1 0x0 SWAP1 SLOAD SWAP1 PUSH2 0x100 EXP SWAP1 DIV PUSH4 0xFFFFFFFF AND SWAP1 DUP1 PUSH1 0x0 ADD PUSH1 0x4 SWAP1 SLOAD SWAP1 PUSH2 0x100 EXP SWAP1 DIV PUSH1 0x6 SIGNEXTEND SWAP1 DUP1 PUSH1 0x0 ADD PUSH1 0xB SWAP1 SLOAD SWAP1 PUSH2 0x100 EXP SWAP1 DIV PUSH1 0xFF AND SWAP1 POP DUP4 JUMP JUMPDEST PUSH1 0x0 PUSH1 0x2 PUSH1 0x0 ADD PUSH1 0x1B SWAP1 SLOAD SWAP1 PUSH2 0x100 EXP SWAP1 DIV PUSH2 0xFFFF AND SWAP1 POP PUSH1 0x0 PUSH2 0x52E DUP3 DUP5 PUSH1 0x7 PUSH2 0x25B7 SWAP1 SWAP3 SWAP2 SWAP1 PUSH4 0xFFFFFFFF AND JUMP JUMPDEST SWAP1 POP DUP2 PUSH2 0xFFFF AND DUP2 PUSH2 0xFFFF AND EQ PUSH2 0x599 JUMPI DUP1 PUSH1 0x2 PUSH1 0x0 ADD PUSH1 0x1B PUSH2 0x100 EXP DUP2 SLOAD DUP2 PUSH2 0xFFFF MUL NOT AND SWAP1 DUP4 PUSH2 0xFFFF AND MUL OR SWAP1 SSTORE POP PUSH32 0xAC49E518F90A358F652E4400164F05A5D8F7E35E7747279BC3A93DBF584E125A DUP3 DUP3 PUSH1 0x40 MLOAD PUSH2 0x590 SWAP3 SWAP2 SWAP1 PUSH2 0x5C38 JUMP JUMPDEST PUSH1 0x40 MLOAD DUP1 SWAP2 SUB SWAP1 LOG1 JUMPDEST POP POP POP JUMP JUMPDEST PUSH1 0x2 DUP1 PUSH1 0x0 ADD PUSH1 0x0 SWAP1 SLOAD SWAP1 PUSH2 0x100 EXP SWAP1 DIV PUSH20 0xFFFFFFFFFFFFFFFFFFFFFFFFFFFFFFFFFFFFFFFF AND SWAP1 DUP1 PUSH1 0x0 ADD PUSH1 0x14 SWAP1 SLOAD SWAP1 PUSH2 0x100 EXP SWAP1 DIV PUSH1 0x2 SIGNEXTEND SWAP1 DUP1 PUSH1 0x0 ADD PUSH1 0x17 SWAP1 SLOAD SWAP1 PUSH2 0x100 EXP SWAP1 DIV PUSH2 0xFFFF AND SWAP1 DUP1 PUSH1 0x0 ADD PUSH1 0x19 SWAP1 SLOAD SWAP1 PUSH2 0x100 EXP SWAP1 DIV PUSH2 0xFFFF AND SWAP1 DUP1 PUSH1 0x0 ADD PUSH1 0x1B SWAP1 SLOAD SWAP1 PUSH2 0x100 EXP SWAP1 DIV PUSH2 0xFFFF AND SWAP1 POP DUP6 JUMP JUMPDEST PUSH1 0x0 DUP1 DUP6 PUSH1 0x2 SIGNEXTEND DUP8 PUSH1 0x2 SIGNEXTEND SLT ISZERO DUP1 PUSH2 0x656 JUMPI POP PUSH32 0xFFFFFFFFFFFFFFFFFFFFFFFFFFFFFFFFFFFFFFFFFFFFFFFFFFFFFFFFFFF27618 PUSH1 0x2 SIGNEXTEND DUP8 PUSH1 0x2 SIGNEXTEND SLT JUMPDEST DUP1 PUSH2 0x68F JUMPI POP PUSH32 0xFFFFFFFFFFFFFFFFFFFFFFFFFFFFFFFFFFFFFFFFFFFFFFFFFFFFFFFFFFF27618 PUSH2 0x686 SWAP1 PUSH2 0x5C90 JUMP JUMPDEST PUSH1 0x2 SIGNEXTEND DUP7 PUSH1 0x2 SIGNEXTEND SGT JUMPDEST ISZERO PUSH2 0x6C6 JUMPI PUSH1 0x40 MLOAD PUSH32 0x64847D000000000000000000000000000000000000000000000000000000000 DUP2 MSTORE PUSH1 0x4 ADD PUSH1 0x40 MLOAD DUP1 SWAP2 SUB SWAP1 REVERT JUMPDEST PUSH1 0x0 DUP6 PUSH16 0xFFFFFFFFFFFFFFFFFFFFFFFFFFFFFFFF AND SUB PUSH2 0x712 JUMPI PUSH1 0x40 MLOAD PUSH32 0x1007454800000000000000000000000000000000000000000000000000000000 DUP2 MSTORE PUSH1 0x4 ADD PUSH1 0x40 MLOAD DUP1 SWAP2 SUB SWAP1 REVERT JUMPDEST PUSH1 0x0 DUP1 PUSH2 0x75D PUSH1 0x40 MLOAD DUP1 PUSH1 0x80 ADD PUSH1 0x40 MSTORE DUP1 DUP13 PUSH20 0xFFFFFFFFFFFFFFFFFFFFFFFFFFFFFFFFFFFFFFFF AND DUP2 MSTORE PUSH1 0x20 ADD DUP12 PUSH1 0x2 SIGNEXTEND DUP2 MSTORE PUSH1 0x20 ADD DUP11 PUSH1 0x2 SIGNEXTEND DUP2 MSTORE PUSH1 0x20 ADD DUP10 PUSH1 0xF SIGNEXTEND DUP2 MSTORE POP PUSH2 0x263B JUMP JUMPDEST SWAP3 POP SWAP3 POP POP DUP2 SWAP4 POP DUP1 SWAP3 POP PUSH1 0x0 DUP1 PUSH1 0x0 DUP7 GT ISZERO PUSH2 0x77F JUMPI PUSH2 0x77C PUSH2 0x29BE JUMP JUMPDEST SWAP2 POP JUMPDEST PUSH1 0x0 DUP6 GT ISZERO PUSH2 0x793 JUMPI PUSH2 0x790 PUSH2 0x2A5F JUMP JUMPDEST SWAP1 POP JUMPDEST CALLER PUSH20 0xFFFFFFFFFFFFFFFFFFFFFFFFFFFFFFFFFFFFFFFF AND PUSH4 0xD3487997 DUP8 DUP8 DUP12 DUP12 PUSH1 0x40 MLOAD DUP6 PUSH4 0xFFFFFFFF AND PUSH1 0xE0 SHL DUP2 MSTORE PUSH1 0x4 ADD PUSH2 0x7D2 SWAP5 SWAP4 SWAP3 SWAP2 SWAP1 PUSH2 0x5D36 JUMP JUMPDEST PUSH1 0x0 PUSH1 0x40 MLOAD DUP1 DUP4 SUB DUP2 PUSH1 0x0 DUP8 DUP1 EXTCODESIZE ISZERO DUP1 ISZERO PUSH2 0x7EC JUMPI PUSH1 0x0 DUP1 REVERT JUMPDEST POP GAS CALL ISZERO DUP1 ISZERO PUSH2 0x800 JUMPI RETURNDATASIZE PUSH1 0x0 DUP1 RETURNDATACOPY RETURNDATASIZE PUSH1 0x0 REVERT JUMPDEST POP POP POP POP PUSH1 0x0 DUP7 GT DUP1 ISZERO PUSH2 0x825 JUMPI POP PUSH2 0x817 PUSH2 0x29BE JUMP JUMPDEST DUP7 DUP4 PUSH2 0x823 SWAP2 SWAP1 PUSH2 0x5D76 JUMP JUMPDEST GT JUMPDEST ISZERO PUSH2 0x85C JUMPI PUSH1 0x40 MLOAD PUSH32 0x98FB56100000000000000000000000000000000000000000000000000000000 DUP2 MSTORE PUSH1 0x4 ADD PUSH1 0x40 MLOAD DUP1 SWAP2 SUB SWAP1 REVERT JUMPDEST PUSH1 0x0 DUP6 GT DUP1 ISZERO PUSH2 0x87D JUMPI POP PUSH2 0x86F PUSH2 0x2A5F JUMP JUMPDEST DUP6 DUP3 PUSH2 0x87B SWAP2 SWAP1 PUSH2 0x5D76 JUMP JUMPDEST GT JUMPDEST ISZERO PUSH2 0x8B4 JUMPI PUSH1 0x40 MLOAD PUSH32 0x98FB56100000000000000000000000000000000000000000000000000000000 DUP2 MSTORE PUSH1 0x4 ADD PUSH1 0x40 MLOAD DUP1 SWAP2 SUB SWAP1 REVERT JUMPDEST DUP10 PUSH1 0x2 SIGNEXTEND DUP12 PUSH1 0x2 SIGNEXTEND DUP14 PUSH20 0xFFFFFFFFFFFFFFFFFFFFFFFFFFFFFFFFFFFFFFFF AND PUSH32 0x7A53080BA414158BE7EC69B987B5FB7D07DEE101FE85488F0853AE16239D0BDE CALLER DUP14 DUP12 DUP12 PUSH1 0x40 MLOAD PUSH2 0x908 SWAP5 SWAP4 SWAP3 SWAP2 SWAP1 PUSH2 0x5DAA JUMP JUMPDEST PUSH1 0x40 MLOAD DUP1 SWAP2 SUB SWAP1 LOG4 POP POP POP POP SWAP7 POP SWAP7 SWAP5 POP POP POP POP POP JUMP JUMPDEST PUSH1 0x1 SLOAD DUP2 JUMP JUMPDEST PUSH1 0x0 PUSH2 0x95A DUP6 PUSH32 0x0 PUSH3 0xFFFFFF AND PUSH3 0xF4240 PUSH2 0x2B00 JUMP JUMPDEST SWAP1 POP PUSH1 0x0 PUSH2 0x991 DUP6 PUSH32 0x0 PUSH3 0xFFFFFF AND PUSH3 0xF4240 PUSH2 0x2B00 JUMP JUMPDEST SWAP1 POP PUSH1 0x0 PUSH32 0x0 PUSH20 0xFFFFFFFFFFFFFFFFFFFFFFFFFFFFFFFFFFFFFFFF AND PUSH4 0x70A08231 ADDRESS PUSH1 0x40 MLOAD DUP3 PUSH4 0xFFFFFFFF AND PUSH1 0xE0 SHL DUP2 MSTORE PUSH1 0x4 ADD PUSH2 0x9EE SWAP2 SWAP1 PUSH2 0x51D3 JUMP JUMPDEST PUSH1 0x20 PUSH1 0x40 MLOAD DUP1 DUP4 SUB DUP2 DUP7 GAS STATICCALL ISZERO DUP1 ISZERO PUSH2 0xA0B JUMPI RETURNDATASIZE PUSH1 0x0 DUP1 RETURNDATACOPY RETURNDATASIZE PUSH1 0x0 REVERT JUMPDEST POP POP POP POP PUSH1 0x40 MLOAD RETURNDATASIZE PUSH1 0x1F NOT PUSH1 0x1F DUP3 ADD AND DUP3 ADD DUP1 PUSH1 0x40 MSTORE POP DUP2 ADD SWAP1 PUSH2 0xA2F SWAP2 SWAP1 PUSH2 0x5E04 JUMP JUMPDEST SWAP1 POP PUSH1 0x0 PUSH32 0x0 PUSH20 0xFFFFFFFFFFFFFFFFFFFFFFFFFFFFFFFFFFFFFFFF AND PUSH4 0x70A08231 ADDRESS PUSH1 0x40 MLOAD DUP3 PUSH4 0xFFFFFFFF AND PUSH1 0xE0 SHL DUP2 MSTORE PUSH1 0x4 ADD PUSH2 0xA8C SWAP2 SWAP1 PUSH2 0x51D3 JUMP JUMPDEST PUSH1 0x20 PUSH1 0x40 MLOAD DUP1 DUP4 SUB DUP2 DUP7 GAS STATICCALL ISZERO DUP1 ISZERO PUSH2 0xAA9 JUMPI RETURNDATASIZE PUSH1 0x0 DUP1 RETURNDATACOPY RETURNDATASIZE PUSH1 0x0 REVERT JUMPDEST POP POP POP POP PUSH1 0x40 MLOAD RETURNDATASIZE PUSH1 0x1F NOT PUSH1 0x1F DUP3 ADD AND DUP3 ADD DUP1 PUSH1 0x40 MSTORE POP DUP2 ADD SWAP1 PUSH2 0xACD SWAP2 SWAP1 PUSH2 0x5E04 JUMP JUMPDEST SWAP1 POP PUSH1 0x0 DUP9 GT ISZERO PUSH2 0xB78 JUMPI PUSH32 0x0 PUSH20 0xFFFFFFFFFFFFFFFFFFFFFFFFFFFFFFFFFFFFFFFF AND PUSH4 0xA9059CBB CALLER DUP11 PUSH1 0x40 MLOAD DUP4 PUSH4 0xFFFFFFFF AND PUSH1 0xE0 SHL DUP2 MSTORE PUSH1 0x4 ADD PUSH2 0xB33 SWAP3 SWAP2 SWAP1 PUSH2 0x5E31 JUMP JUMPDEST PUSH1 0x20 PUSH1 0x40 MLOAD DUP1 DUP4 SUB DUP2 PUSH1 0x0 DUP8 GAS CALL ISZERO DUP1 ISZERO PUSH2 0xB52 JUMPI RETURNDATASIZE PUSH1 0x0 DUP1 RETURNDATACOPY RETURNDATASIZE PUSH1 0x0 REVERT JUMPDEST POP POP POP POP PUSH1 0x40 MLOAD RETURNDATASIZE PUSH1 0x1F NOT PUSH1 0x1F DUP3 ADD AND DUP3 ADD DUP1 PUSH1 0x40 MSTORE POP DUP2 ADD SWAP1 PUSH2 0xB76 SWAP2 SWAP1 PUSH2 0x5E6F JUMP JUMPDEST POP JUMPDEST PUSH1 0x0 DUP8 GT ISZERO PUSH2 0xC21 JUMPI PUSH32 0x0 PUSH20 0xFFFFFFFFFFFFFFFFFFFFFFFFFFFFFFFFFFFFFFFF AND PUSH4 0xA9059CBB CALLER DUP10 PUSH1 0x40 MLOAD DUP4 PUSH4 0xFFFFFFFF AND PUSH1 0xE0 SHL DUP2 MSTORE PUSH1 0x4 ADD PUSH2 0xBDC SWAP3 SWAP2 SWAP1 PUSH2 0x5E31 JUMP JUMPDEST PUSH1 0x20 PUSH1 0x40 MLOAD DUP1 DUP4 SUB DUP2 PUSH1 0x0 DUP8 GAS CALL ISZERO DUP1 ISZERO PUSH2 0xBFB JUMPI RETURNDATASIZE PUSH1 0x0 DUP1 RETURNDATACOPY RETURNDATASIZE PUSH1 0x0 REVERT JUMPDEST POP POP POP POP PUSH1 0x40 MLOAD RETURNDATASIZE PUSH1 0x1F NOT PUSH1 0x1F DUP3 ADD AND DUP3 ADD DUP1 PUSH1 0x40 MSTORE POP DUP2 ADD SWAP1 PUSH2 0xC1F SWAP2 SWAP1 PUSH2 0x5E6F JUMP JUMPDEST POP JUMPDEST CALLER PUSH20 0xFFFFFFFFFFFFFFFFFFFFFFFFFFFFFFFFFFFFFFFF AND PUSH4 0xE9CBAFB0 DUP6 DUP6 DUP10 DUP10 PUSH1 0x40 MLOAD DUP6 PUSH4 0xFFFFFFFF AND PUSH1 0xE0 SHL DUP2 MSTORE PUSH1 0x4 ADD PUSH2 0xC60 SWAP5 SWAP4 SWAP3 SWAP2 SWAP1 PUSH2 0x5D36 JUMP JUMPDEST PUSH1 0x0 PUSH1 0x40 MLOAD DUP1 DUP4 SUB DUP2 PUSH1 0x0 DUP8 DUP1 EXTCODESIZE ISZERO DUP1 ISZERO PUSH2 0xC7A JUMPI PUSH1 0x0 DUP1 REVERT JUMPDEST POP GAS CALL ISZERO DUP1 ISZERO PUSH2 0xC8E JUMPI RETURNDATASIZE PUSH1 0x0 DUP1 RETURNDATACOPY RETURNDATASIZE PUSH1 0x0 REVERT JUMPDEST POP POP POP POP DUP4 DUP3 PUSH2 0xC9E SWAP2 SWAP1 PUSH2 0x5D76 JUMP JUMPDEST PUSH32 0x0 PUSH20 0xFFFFFFFFFFFFFFFFFFFFFFFFFFFFFFFFFFFFFFFF AND PUSH4 0x70A08231 ADDRESS PUSH1 0x40 MLOAD DUP3 PUSH4 0xFFFFFFFF AND PUSH1 0xE0 SHL DUP2 MSTORE PUSH1 0x4 ADD PUSH2 0xCF7 SWAP2 SWAP1 PUSH2 0x51D3 JUMP JUMPDEST PUSH1 0x20 PUSH1 0x40 MLOAD DUP1 DUP4 SUB DUP2 DUP7 GAS STATICCALL ISZERO DUP1 ISZERO PUSH2 0xD14 JUMPI RETURNDATASIZE PUSH1 0x0 DUP1 RETURNDATACOPY RETURNDATASIZE PUSH1 0x0 REVERT JUMPDEST POP POP POP POP PUSH1 0x40 MLOAD RETURNDATASIZE PUSH1 0x1F NOT PUSH1 0x1F DUP3 ADD AND DUP3 ADD DUP1 PUSH1 0x40 MSTORE POP DUP2 ADD SWAP1 PUSH2 0xD38 SWAP2 SWAP1 PUSH2 0x5E04 JUMP JUMPDEST LT ISZERO PUSH2 0xD70 JUMPI PUSH1 0x40 MLOAD PUSH32 0x7BC35E0500000000000000000000000000000000000000000000000000000000 DUP2 MSTORE PUSH1 0x4 ADD PUSH1 0x40 MLOAD DUP1 SWAP2 SUB SWAP1 REVERT JUMPDEST DUP3 DUP2 PUSH2 0xD7C SWAP2 SWAP1 PUSH2 0x5D76 JUMP JUMPDEST PUSH32 0x0 PUSH20 0xFFFFFFFFFFFFFFFFFFFFFFFFFFFFFFFFFFFFFFFF AND PUSH4 0x70A08231 ADDRESS PUSH1 0x40 MLOAD DUP3 PUSH4 0xFFFFFFFF AND PUSH1 0xE0 SHL DUP2 MSTORE PUSH1 0x4 ADD PUSH2 0xDD5 SWAP2 SWAP1 PUSH2 0x51D3 JUMP JUMPDEST PUSH1 0x20 PUSH1 0x40 MLOAD DUP1 DUP4 SUB DUP2 DUP7 GAS STATICCALL ISZERO DUP1 ISZERO PUSH2 0xDF2 JUMPI RETURNDATASIZE PUSH1 0x0 DUP1 RETURNDATACOPY RETURNDATASIZE PUSH1 0x0 REVERT JUMPDEST POP POP POP POP PUSH1 0x40 MLOAD RETURNDATASIZE PUSH1 0x1F NOT PUSH1 0x1F DUP3 ADD AND DUP3 ADD DUP1 PUSH1 0x40 MSTORE POP DUP2 ADD SWAP1 PUSH2 0xE16 SWAP2 SWAP1 PUSH2 0x5E04 JUMP JUMPDEST LT ISZERO PUSH2 0xE4E JUMPI PUSH1 0x40 MLOAD PUSH32 0x7BC35E0500000000000000000000000000000000000000000000000000000000 DUP2 MSTORE PUSH1 0x4 ADD PUSH1 0x40 MLOAD DUP1 SWAP2 SUB SWAP1 REVERT JUMPDEST CALLER PUSH20 0xFFFFFFFFFFFFFFFFFFFFFFFFFFFFFFFFFFFFFFFF AND PUSH32 0x1C1DB1F1D6A01E51FEC24BB54087B65FE5430F692280E70D92F718EB72AE76B7 DUP10 DUP10 PUSH1 0x40 MLOAD PUSH2 0xE96 SWAP3 SWAP2 SWAP1 PUSH2 0x55B4 JUMP JUMPDEST PUSH1 0x40 MLOAD DUP1 SWAP2 SUB SWAP1 LOG2 POP POP POP POP POP POP POP POP JUMP JUMPDEST PUSH1 0x0 DUP1 PUSH1 0x0 PUSH2 0xEC5 CALLER DUP9 DUP9 PUSH1 0x6 PUSH2 0x2B6B SWAP1 SWAP4 SWAP3 SWAP2 SWAP1 PUSH4 0xFFFFFFFF AND JUMP JUMPDEST PUSH1 0x40 MLOAD DUP1 PUSH1 0xA0 ADD PUSH1 0x40 MSTORE SWAP1 DUP2 PUSH1 0x0 DUP3 ADD PUSH1 0x0 SWAP1 SLOAD SWAP1 PUSH2 0x100 EXP SWAP1 DIV PUSH16 0xFFFFFFFFFFFFFFFFFFFFFFFFFFFFFFFF AND PUSH16 0xFFFFFFFFFFFFFFFFFFFFFFFFFFFFFFFF AND PUSH16 0xFFFFFFFFFFFFFFFFFFFFFFFFFFFFFFFF AND DUP2 MSTORE PUSH1 0x20 ADD PUSH1 0x1 DUP3 ADD SLOAD DUP2 MSTORE PUSH1 0x20 ADD PUSH1 0x2 DUP3 ADD SLOAD DUP2 MSTORE PUSH1 0x20 ADD PUSH1 0x3 DUP3 ADD PUSH1 0x0 SWAP1 SLOAD SWAP1 PUSH2 0x100 EXP SWAP1 DIV PUSH16 0xFFFFFFFFFFFFFFFFFFFFFFFFFFFFFFFF AND PUSH16 0xFFFFFFFFFFFFFFFFFFFFFFFFFFFFFFFF AND PUSH16 0xFFFFFFFFFFFFFFFFFFFFFFFFFFFFFFFF AND DUP2 MSTORE PUSH1 0x20 ADD PUSH1 0x3 DUP3 ADD PUSH1 0x10 SWAP1 SLOAD SWAP1 PUSH2 0x100 EXP SWAP1 DIV PUSH16 0xFFFFFFFFFFFFFFFFFFFFFFFFFFFFFFFF AND PUSH16 0xFFFFFFFFFFFFFFFFFFFFFFFFFFFFFFFF AND PUSH16 0xFFFFFFFFFFFFFFFFFFFFFFFFFFFFFFFF AND DUP2 MSTORE POP POP SWAP1 POP DUP1 PUSH1 0x60 ADD MLOAD PUSH16 0xFFFFFFFFFFFFFFFFFFFFFFFFFFFFFFFF AND DUP6 PUSH16 0xFFFFFFFFFFFFFFFFFFFFFFFFFFFFFFFF AND GT PUSH2 0xFF9 JUMPI DUP5 PUSH2 0xFFF JUMP JUMPDEST DUP1 PUSH1 0x60 ADD MLOAD JUMPDEST SWAP3 POP DUP1 PUSH1 0x80 ADD MLOAD PUSH16 0xFFFFFFFFFFFFFFFFFFFFFFFFFFFFFFFF AND DUP5 PUSH16 0xFFFFFFFFFFFFFFFFFFFFFFFFFFFFFFFF AND GT PUSH2 0x1036 JUMPI DUP4 PUSH2 0x103C JUMP JUMPDEST DUP1 PUSH1 0x80 ADD MLOAD JUMPDEST SWAP2 POP PUSH1 0x0 DUP4 PUSH16 0xFFFFFFFFFFFFFFFFFFFFFFFFFFFFFFFF AND GT ISZERO PUSH2 0x1138 JUMPI DUP3 DUP2 PUSH1 0x60 ADD DUP2 DUP2 MLOAD PUSH2 0x106B SWAP2 SWAP1 PUSH2 0x5E9C JUMP JUMPDEST SWAP2 POP SWAP1 PUSH16 0xFFFFFFFFFFFFFFFFFFFFFFFFFFFFFFFF AND SWAP1 DUP2 PUSH16 0xFFFFFFFFFFFFFFFFFFFFFFFFFFFFFFFF AND DUP2 MSTORE POP POP PUSH32 0x0 PUSH20 0xFFFFFFFFFFFFFFFFFFFFFFFFFFFFFFFFFFFFFFFF AND PUSH4 0xA9059CBB DUP10 DUP6 PUSH1 0x40 MLOAD DUP4 PUSH4 0xFFFFFFFF AND PUSH1 0xE0 SHL DUP2 MSTORE PUSH1 0x4 ADD PUSH2 0x10F3 SWAP3 SWAP2 SWAP1 PUSH2 0x5F1B JUMP JUMPDEST PUSH1 0x20 PUSH1 0x40 MLOAD DUP1 DUP4 SUB DUP2 PUSH1 0x0 DUP8 GAS CALL ISZERO DUP1 ISZERO PUSH2 0x1112 JUMPI RETURNDATASIZE PUSH1 0x0 DUP1 RETURNDATACOPY RETURNDATASIZE PUSH1 0x0 REVERT JUMPDEST POP POP POP POP PUSH1 0x40 MLOAD RETURNDATASIZE PUSH1 0x1F NOT PUSH1 0x1F DUP3 ADD AND DUP3 ADD DUP1 PUSH1 0x40 MSTORE POP DUP2 ADD SWAP1 PUSH2 0x1136 SWAP2 SWAP1 PUSH2 0x5E6F JUMP JUMPDEST POP JUMPDEST PUSH1 0x0 DUP3 PUSH16 0xFFFFFFFFFFFFFFFFFFFFFFFFFFFFFFFF AND GT ISZERO PUSH2 0x1232 JUMPI DUP2 DUP2 PUSH1 0x80 ADD DUP2 DUP2 MLOAD PUSH2 0x1165 SWAP2 SWAP1 PUSH2 0x5E9C JUMP JUMPDEST SWAP2 POP SWAP1 PUSH16 0xFFFFFFFFFFFFFFFFFFFFFFFFFFFFFFFF AND SWAP1 DUP2 PUSH16 0xFFFFFFFFFFFFFFFFFFFFFFFFFFFFFFFF AND DUP2 MSTORE POP POP PUSH32 0x0 PUSH20 0xFFFFFFFFFFFFFFFFFFFFFFFFFFFFFFFFFFFFFFFF AND PUSH4 0xA9059CBB DUP10 DUP5 PUSH1 0x40 MLOAD DUP4 PUSH4 0xFFFFFFFF AND PUSH1 0xE0 SHL DUP2 MSTORE PUSH1 0x4 ADD PUSH2 0x11ED SWAP3 SWAP2 SWAP1 PUSH2 0x5F1B JUMP JUMPDEST PUSH1 0x20 PUSH1 0x40 MLOAD DUP1 DUP4 SUB DUP2 PUSH1 0x0 DUP8 GAS CALL ISZERO DUP1 ISZERO PUSH2 0x120C JUMPI RETURNDATASIZE PUSH1 0x0 DUP1 RETURNDATACOPY RETURNDATASIZE PUSH1 0x0 REVERT JUMPDEST POP POP POP POP PUSH1 0x40 MLOAD RETURNDATASIZE PUSH1 0x1F NOT PUSH1 0x1F DUP3 ADD AND DUP3 ADD DUP1 PUSH1 0x40 MSTORE POP DUP2 ADD SWAP1 PUSH2 0x1230 SWAP2 SWAP1 PUSH2 0x5E6F JUMP JUMPDEST POP JUMPDEST DUP6 PUSH1 0x2 SIGNEXTEND DUP8 PUSH1 0x2 SIGNEXTEND CALLER PUSH20 0xFFFFFFFFFFFFFFFFFFFFFFFFFFFFFFFFFFFFFFFF AND PUSH32 0xA89C1C8A741251492622C95237828C75D1DBB03EA956F09E3792FF2A14F4FE62 DUP12 DUP8 DUP8 PUSH1 0x40 MLOAD PUSH2 0x1284 SWAP4 SWAP3 SWAP2 SWAP1 PUSH2 0x5F44 JUMP JUMPDEST PUSH1 0x40 MLOAD DUP1 SWAP2 SUB SWAP1 LOG4 POP SWAP6 POP SWAP6 SWAP4 POP POP POP POP JUMP JUMPDEST PUSH1 0x6 PUSH1 0x20 MSTORE DUP1 PUSH1 0x0 MSTORE PUSH1 0x40 PUSH1 0x0 KECCAK256 PUSH1 0x0 SWAP2 POP SWAP1 POP DUP1 PUSH1 0x0 ADD PUSH1 0x0 SWAP1 SLOAD SWAP1 PUSH2 0x100 EXP SWAP1 DIV PUSH16 0xFFFFFFFFFFFFFFFFFFFFFFFFFFFFFFFF AND SWAP1 DUP1 PUSH1 0x1 ADD SLOAD SWAP1 DUP1 PUSH1 0x2 ADD SLOAD SWAP1 DUP1 PUSH1 0x3 ADD PUSH1 0x0 SWAP1 SLOAD SWAP1 PUSH2 0x100 EXP SWAP1 DIV PUSH16 0xFFFFFFFFFFFFFFFFFFFFFFFFFFFFFFFF AND SWAP1 DUP1 PUSH1 0x3 ADD PUSH1 0x10 SWAP1 SLOAD SWAP1 PUSH2 0x100 EXP SWAP1 DIV PUSH16 0xFFFFFFFFFFFFFFFFFFFFFFFFFFFFFFFF AND SWAP1 POP DUP6 JUMP JUMPDEST PUSH1 0x5 PUSH1 0x20 MSTORE DUP1 PUSH1 0x0 MSTORE PUSH1 0x40 PUSH1 0x0 KECCAK256 PUSH1 0x0 SWAP2 POP SWAP1 POP SLOAD DUP2 JUMP JUMPDEST PUSH1 0x60 PUSH2 0x13D7 PUSH2 0x1346 PUSH2 0x2BB3 JUMP JUMPDEST DUP5 DUP5 DUP1 DUP1 PUSH1 0x20 MUL PUSH1 0x20 ADD PUSH1 0x40 MLOAD SWAP1 DUP2 ADD PUSH1 0x40 MSTORE DUP1 SWAP4 SWAP3 SWAP2 SWAP1 DUP2 DUP2 MSTORE PUSH1 0x20 ADD DUP4 DUP4 PUSH1 0x20 MUL DUP1 DUP3 DUP5 CALLDATACOPY PUSH1 0x0 DUP2 DUP5 ADD MSTORE PUSH1 0x1F NOT PUSH1 0x1F DUP3 ADD AND SWAP1 POP DUP1 DUP4 ADD SWAP3 POP POP POP POP POP POP POP PUSH1 0x2 PUSH1 0x0 ADD PUSH1 0x14 SWAP1 SLOAD SWAP1 PUSH2 0x100 EXP SWAP1 DIV PUSH1 0x2 SIGNEXTEND PUSH1 0x2 PUSH1 0x0 ADD PUSH1 0x17 SWAP1 SLOAD SWAP1 PUSH2 0x100 EXP SWAP1 DIV PUSH2 0xFFFF AND PUSH1 0x2 PUSH1 0x0 ADD PUSH1 0x19 SWAP1 SLOAD SWAP1 PUSH2 0x100 EXP SWAP1 DIV PUSH2 0xFFFF AND PUSH1 0x7 PUSH2 0x2BBB SWAP1 SWAP6 SWAP5 SWAP4 SWAP3 SWAP2 SWAP1 PUSH4 0xFFFFFFFF AND JUMP JUMPDEST SWAP1 POP SWAP3 SWAP2 POP POP JUMP JUMPDEST PUSH1 0x0 DUP1 PUSH1 0x0 DUP1 PUSH1 0x0 PUSH2 0x1438 PUSH1 0x40 MLOAD DUP1 PUSH1 0x80 ADD PUSH1 0x40 MSTORE DUP1 CALLER PUSH20 0xFFFFFFFFFFFFFFFFFFFFFFFFFFFFFFFFFFFFFFFF AND DUP2 MSTORE PUSH1 0x20 ADD DUP11 PUSH1 0x2 SIGNEXTEND DUP2 MSTORE PUSH1 0x20 ADD DUP10 PUSH1 0x2 SIGNEXTEND DUP2 MSTORE PUSH1 0x20 ADD DUP9 PUSH2 0x142D SWAP1 PUSH2 0x5F7B JUMP JUMPDEST PUSH1 0xF SIGNEXTEND DUP2 MSTORE POP PUSH2 0x263B JUMP JUMPDEST SWAP3 POP SWAP3 POP SWAP3 POP DUP2 PUSH2 0x1448 SWAP1 PUSH2 0x5FC3 JUMP JUMPDEST SWAP5 POP DUP1 PUSH2 0x1454 SWAP1 PUSH2 0x5FC3 JUMP JUMPDEST SWAP4 POP PUSH1 0x0 DUP6 GT DUP1 PUSH2 0x1465 JUMPI POP PUSH1 0x0 DUP5 GT JUMPDEST ISZERO PUSH2 0x153F JUMPI DUP5 DUP4 PUSH1 0x3 ADD PUSH1 0x0 SWAP1 SLOAD SWAP1 PUSH2 0x100 EXP SWAP1 DIV PUSH16 0xFFFFFFFFFFFFFFFFFFFFFFFFFFFFFFFF AND PUSH2 0x1496 SWAP2 SWAP1 PUSH2 0x600B JUMP JUMPDEST DUP5 DUP5 PUSH1 0x3 ADD PUSH1 0x10 SWAP1 SLOAD SWAP1 PUSH2 0x100 EXP SWAP1 DIV PUSH16 0xFFFFFFFFFFFFFFFFFFFFFFFFFFFFFFFF AND PUSH2 0x14C2 SWAP2 SWAP1 PUSH2 0x600B JUMP JUMPDEST DUP5 PUSH1 0x3 ADD PUSH1 0x0 DUP7 PUSH1 0x3 ADD PUSH1 0x10 DUP5 SWAP2 SWAP1 PUSH2 0x100 EXP DUP2 SLOAD DUP2 PUSH16 0xFFFFFFFFFFFFFFFFFFFFFFFFFFFFFFFF MUL NOT AND SWAP1 DUP4 PUSH16 0xFFFFFFFFFFFFFFFFFFFFFFFFFFFFFFFF AND MUL OR SWAP1 SSTORE POP DUP4 SWAP2 SWAP1 PUSH2 0x100 EXP DUP2 SLOAD DUP2 PUSH16 0xFFFFFFFFFFFFFFFFFFFFFFFFFFFFFFFF MUL NOT AND SWAP1 DUP4 PUSH16 0xFFFFFFFFFFFFFFFFFFFFFFFFFFFFFFFF AND MUL OR SWAP1 SSTORE POP POP POP JUMPDEST DUP7 PUSH1 0x2 SIGNEXTEND DUP9 PUSH1 0x2 SIGNEXTEND CALLER PUSH20 0xFFFFFFFFFFFFFFFFFFFFFFFFFFFFFFFFFFFFFFFF AND PUSH32 0xC396CD989A39F4459B5FA1AED6A9A8DCDBC45908ACFD67E028CD568DA98982C DUP10 DUP10 DUP10 PUSH1 0x40 MLOAD PUSH2 0x1591 SWAP4 SWAP3 SWAP2 SWAP1 PUSH2 0x604F JUMP JUMPDEST PUSH1 0x40 MLOAD DUP1 SWAP2 SUB SWAP1 LOG4 POP POP POP SWAP4 POP SWAP4 SWAP2 POP POP JUMP JUMPDEST PUSH32 0x0 DUP2 JUMP JUMPDEST PUSH32 0x0 DUP2 JUMP JUMPDEST PUSH32 0x0 DUP2 JUMP JUMPDEST PUSH1 0x0 DUP1 PUSH1 0x0 PUSH1 0x2 PUSH1 0x40 MLOAD DUP1 PUSH1 0xA0 ADD PUSH1 0x40 MSTORE SWAP1 DUP2 PUSH1 0x0 DUP3 ADD PUSH1 0x0 SWAP1 SLOAD SWAP1 PUSH2 0x100 EXP SWAP1 DIV PUSH20 0xFFFFFFFFFFFFFFFFFFFFFFFFFFFFFFFFFFFFFFFF AND PUSH20 0xFFFFFFFFFFFFFFFFFFFFFFFFFFFFFFFFFFFFFFFF AND PUSH20 0xFFFFFFFFFFFFFFFFFFFFFFFFFFFFFFFFFFFFFFFF AND DUP2 MSTORE PUSH1 0x20 ADD PUSH1 0x0 DUP3 ADD PUSH1 0x14 SWAP1 SLOAD SWAP1 PUSH2 0x100 EXP SWAP1 DIV PUSH1 0x2 SIGNEXTEND PUSH1 0x2 SIGNEXTEND PUSH1 0x2 SIGNEXTEND DUP2 MSTORE PUSH1 0x20 ADD PUSH1 0x0 DUP3 ADD PUSH1 0x17 SWAP1 SLOAD SWAP1 PUSH2 0x100 EXP SWAP1 DIV PUSH2 0xFFFF AND PUSH2 0xFFFF AND PUSH2 0xFFFF AND DUP2 MSTORE PUSH1 0x20 ADD PUSH1 0x0 DUP3 ADD PUSH1 0x19 SWAP1 SLOAD SWAP1 PUSH2 0x100 EXP SWAP1 DIV PUSH2 0xFFFF AND PUSH2 0xFFFF AND PUSH2 0xFFFF AND DUP2 MSTORE PUSH1 0x20 ADD PUSH1 0x0 DUP3 ADD PUSH1 0x1B SWAP1 SLOAD SWAP1 PUSH2 0x100 EXP SWAP1 DIV PUSH2 0xFFFF AND PUSH2 0xFFFF AND PUSH2 0xFFFF AND DUP2 MSTORE POP POP SWAP1 POP PUSH1 0x0 PUSH1 0x3 PUSH1 0x0 SWAP1 SLOAD SWAP1 PUSH2 0x100 EXP SWAP1 DIV PUSH16 0xFFFFFFFFFFFFFFFFFFFFFFFFFFFFFFFF AND SWAP1 POP DUP9 PUSH2 0x17A1 JUMPI DUP2 PUSH1 0x0 ADD MLOAD PUSH20 0xFFFFFFFFFFFFFFFFFFFFFFFFFFFFFFFFFFFFFFFF AND DUP8 PUSH20 0xFFFFFFFFFFFFFFFFFFFFFFFFFFFFFFFFFFFFFFFF AND LT DUP1 PUSH2 0x179C JUMPI POP PUSH20 0xFFFD8963EFD1FC6A506488495D951D5263988D26 PUSH20 0xFFFFFFFFFFFFFFFFFFFFFFFFFFFFFFFFFFFFFFFF AND DUP8 PUSH20 0xFFFFFFFFFFFFFFFFFFFFFFFFFFFFFFFFFFFFFFFF AND GT JUMPDEST PUSH2 0x1810 JUMP JUMPDEST DUP2 PUSH1 0x0 ADD MLOAD PUSH20 0xFFFFFFFFFFFFFFFFFFFFFFFFFFFFFFFFFFFFFFFF AND DUP8 PUSH20 0xFFFFFFFFFFFFFFFFFFFFFFFFFFFFFFFFFFFFFFFF AND GT DUP1 PUSH2 0x180F JUMPI POP PUSH5 0x1000276A3 PUSH20 0xFFFFFFFFFFFFFFFFFFFFFFFFFFFFFFFFFFFFFFFF AND DUP8 PUSH20 0xFFFFFFFFFFFFFFFFFFFFFFFFFFFFFFFFFFFFFFFF AND LT JUMPDEST JUMPDEST ISZERO PUSH2 0x1847 JUMPI PUSH1 0x40 MLOAD PUSH32 0xB53BBACC00000000000000000000000000000000000000000000000000000000 DUP2 MSTORE PUSH1 0x4 ADD PUSH1 0x40 MLOAD DUP1 SWAP2 SUB SWAP1 REVERT JUMPDEST PUSH1 0x0 PUSH1 0x40 MLOAD DUP1 PUSH1 0xC0 ADD PUSH1 0x40 MSTORE DUP1 DUP11 DUP2 MSTORE PUSH1 0x20 ADD PUSH1 0x0 DUP2 MSTORE PUSH1 0x20 ADD DUP5 PUSH1 0x0 ADD MLOAD PUSH20 0xFFFFFFFFFFFFFFFFFFFFFFFFFFFFFFFFFFFFFFFF AND DUP2 MSTORE PUSH1 0x20 ADD DUP5 PUSH1 0x20 ADD MLOAD PUSH1 0x2 SIGNEXTEND DUP2 MSTORE PUSH1 0x20 ADD DUP12 PUSH2 0x189B JUMPI PUSH1 0x1 SLOAD PUSH2 0x189F JUMP JUMPDEST PUSH1 0x0 SLOAD JUMPDEST DUP2 MSTORE PUSH1 0x20 ADD DUP4 PUSH16 0xFFFFFFFFFFFFFFFFFFFFFFFFFFFFFFFF AND DUP2 MSTORE POP SWAP1 POP JUMPDEST PUSH1 0x0 DUP2 PUSH1 0x0 ADD MLOAD GT DUP1 ISZERO PUSH2 0x1901 JUMPI POP DUP8 PUSH20 0xFFFFFFFFFFFFFFFFFFFFFFFFFFFFFFFFFFFFFFFF AND DUP2 PUSH1 0x40 ADD MLOAD PUSH20 0xFFFFFFFFFFFFFFFFFFFFFFFFFFFFFFFFFFFFFFFF AND EQ ISZERO JUMPDEST ISZERO PUSH2 0x1D69 JUMPI PUSH2 0x190E PUSH2 0x50F8 JUMP JUMPDEST DUP2 PUSH1 0x40 ADD MLOAD DUP2 PUSH1 0x0 ADD SWAP1 PUSH20 0xFFFFFFFFFFFFFFFFFFFFFFFFFFFFFFFFFFFFFFFF AND SWAP1 DUP2 PUSH20 0xFFFFFFFFFFFFFFFFFFFFFFFFFFFFFFFFFFFFFFFF AND DUP2 MSTORE POP POP PUSH2 0x1986 DUP3 PUSH1 0x60 ADD MLOAD PUSH32 0x0 DUP14 PUSH1 0x5 PUSH2 0x2C7C SWAP1 SWAP4 SWAP3 SWAP2 SWAP1 PUSH4 0xFFFFFFFF AND JUMP JUMPDEST DUP3 PUSH1 0x20 ADD DUP4 PUSH1 0x40 ADD DUP3 ISZERO ISZERO ISZERO ISZERO DUP2 MSTORE POP DUP3 PUSH1 0x2 SIGNEXTEND PUSH1 0x2 SIGNEXTEND DUP2 MSTORE POP POP POP PUSH2 0x19AF DUP2 PUSH1 0x20 ADD MLOAD PUSH2 0x2E6A JUMP JUMPDEST DUP2 PUSH1 0x60 ADD SWAP1 PUSH20 0xFFFFFFFFFFFFFFFFFFFFFFFFFFFFFFFFFFFFFFFF AND SWAP1 DUP2 PUSH20 0xFFFFFFFFFFFFFFFFFFFFFFFFFFFFFFFFFFFFFFFF AND DUP2 MSTORE POP POP PUSH2 0x1A9F DUP3 PUSH1 0x40 ADD MLOAD DUP13 PUSH2 0x1A2B JUMPI DUP11 PUSH20 0xFFFFFFFFFFFFFFFFFFFFFFFFFFFFFFFFFFFFFFFF AND DUP4 PUSH1 0x60 ADD MLOAD PUSH20 0xFFFFFFFFFFFFFFFFFFFFFFFFFFFFFFFFFFFFFFFF AND GT PUSH2 0x1A5F JUMP JUMPDEST DUP11 PUSH20 0xFFFFFFFFFFFFFFFFFFFFFFFFFFFFFFFFFFFFFFFF AND DUP4 PUSH1 0x60 ADD MLOAD PUSH20 0xFFFFFFFFFFFFFFFFFFFFFFFFFFFFFFFFFFFFFFFF AND LT JUMPDEST PUSH2 0x1A6D JUMPI DUP3 PUSH1 0x60 ADD MLOAD PUSH2 0x1A6F JUMP JUMPDEST DUP11 JUMPDEST DUP5 PUSH1 0xA0 ADD MLOAD DUP6 PUSH1 0x0 ADD MLOAD PUSH32 0x0 PUSH2 0x3337 JUMP JUMPDEST DUP6 PUSH1 0x40 ADD DUP6 PUSH1 0x80 ADD DUP7 PUSH1 0xA0 ADD DUP8 PUSH1 0xC0 ADD DUP5 DUP2 MSTORE POP DUP5 DUP2 MSTORE POP DUP5 DUP2 MSTORE POP DUP5 PUSH20 0xFFFFFFFFFFFFFFFFFFFFFFFFFFFFFFFFFFFFFFFF AND PUSH20 0xFFFFFFFFFFFFFFFFFFFFFFFFFFFFFFFFFFFFFFFF AND DUP2 MSTORE POP POP POP POP POP DUP1 PUSH1 0xC0 ADD MLOAD DUP2 PUSH1 0x80 ADD MLOAD PUSH2 0x1B03 SWAP2 SWAP1 PUSH2 0x5D76 JUMP JUMPDEST DUP3 PUSH1 0x0 ADD DUP2 DUP2 MLOAD PUSH2 0x1B14 SWAP2 SWAP1 PUSH2 0x6086 JUMP JUMPDEST SWAP2 POP DUP2 DUP2 MSTORE POP POP DUP1 PUSH1 0xA0 ADD MLOAD DUP3 PUSH1 0x20 ADD DUP2 DUP2 MLOAD PUSH2 0x1B31 SWAP2 SWAP1 PUSH2 0x5D76 JUMP JUMPDEST SWAP2 POP DUP2 DUP2 MSTORE POP POP PUSH1 0x0 DUP3 PUSH1 0xA0 ADD MLOAD PUSH16 0xFFFFFFFFFFFFFFFFFFFFFFFFFFFFFFFF AND GT ISZERO PUSH2 0x1BA6 JUMPI PUSH2 0x1B8D DUP2 PUSH1 0xC0 ADD MLOAD PUSH17 0x100000000000000000000000000000000 DUP5 PUSH1 0xA0 ADD MLOAD PUSH16 0xFFFFFFFFFFFFFFFFFFFFFFFFFFFFFFFF AND PUSH2 0x34BB JUMP JUMPDEST DUP3 PUSH1 0x80 ADD DUP2 DUP2 MLOAD PUSH2 0x1B9E SWAP2 SWAP1 PUSH2 0x5D76 JUMP JUMPDEST SWAP2 POP DUP2 DUP2 MSTORE POP POP JUMPDEST DUP1 PUSH1 0x60 ADD MLOAD PUSH20 0xFFFFFFFFFFFFFFFFFFFFFFFFFFFFFFFFFFFFFFFF AND DUP3 PUSH1 0x40 ADD MLOAD PUSH20 0xFFFFFFFFFFFFFFFFFFFFFFFFFFFFFFFFFFFFFFFF AND SUB PUSH2 0x1D08 JUMPI DUP1 PUSH1 0x40 ADD MLOAD ISZERO PUSH2 0x1CD1 JUMPI PUSH1 0x0 PUSH2 0x1C2D DUP3 PUSH1 0x20 ADD MLOAD DUP14 PUSH2 0x1C02 JUMPI PUSH1 0x0 SLOAD PUSH2 0x1C08 JUMP JUMPDEST DUP5 PUSH1 0x80 ADD MLOAD JUMPDEST DUP15 PUSH2 0x1C17 JUMPI DUP6 PUSH1 0x80 ADD MLOAD PUSH2 0x1C1B JUMP JUMPDEST PUSH1 0x1 SLOAD JUMPDEST PUSH1 0x4 PUSH2 0x35D0 SWAP1 SWAP4 SWAP3 SWAP2 SWAP1 PUSH4 0xFFFFFFFF AND JUMP JUMPDEST SWAP1 POP DUP12 ISZERO PUSH2 0x1C42 JUMPI DUP1 PUSH2 0x1C3F SWAP1 PUSH2 0x5F7B JUMP JUMPDEST SWAP1 POP JUMPDEST PUSH2 0x1C50 DUP4 PUSH1 0xA0 ADD MLOAD DUP3 PUSH2 0x363A JUMP JUMPDEST DUP4 PUSH1 0xA0 ADD SWAP1 PUSH16 0xFFFFFFFFFFFFFFFFFFFFFFFFFFFFFFFF AND SWAP1 DUP2 PUSH16 0xFFFFFFFFFFFFFFFFFFFFFFFFFFFFFFFF AND DUP2 MSTORE POP POP PUSH1 0x0 DUP4 PUSH1 0xA0 ADD MLOAD PUSH16 0xFFFFFFFFFFFFFFFFFFFFFFFFFFFFFFFF AND SUB PUSH2 0x1CCF JUMPI PUSH1 0x40 MLOAD PUSH32 0x4323A55500000000000000000000000000000000000000000000000000000000 DUP2 MSTORE PUSH1 0x4 ADD PUSH1 0x40 MLOAD DUP1 SWAP2 SUB SWAP1 REVERT JUMPDEST POP JUMPDEST DUP11 PUSH2 0x1CE0 JUMPI DUP1 PUSH1 0x20 ADD MLOAD PUSH2 0x1CF2 JUMP JUMPDEST PUSH1 0x1 DUP2 PUSH1 0x20 ADD MLOAD PUSH2 0x1CF1 SWAP2 SWAP1 PUSH2 0x60BA JUMP JUMPDEST JUMPDEST DUP3 PUSH1 0x60 ADD SWAP1 PUSH1 0x2 SIGNEXTEND SWAP1 DUP2 PUSH1 0x2 SIGNEXTEND DUP2 MSTORE POP POP PUSH2 0x1D63 JUMP JUMPDEST DUP1 PUSH1 0x0 ADD MLOAD PUSH20 0xFFFFFFFFFFFFFFFFFFFFFFFFFFFFFFFFFFFFFFFF AND DUP3 PUSH1 0x40 ADD MLOAD PUSH20 0xFFFFFFFFFFFFFFFFFFFFFFFFFFFFFFFFFFFFFFFF AND EQ PUSH2 0x1D62 JUMPI PUSH2 0x1D50 DUP3 PUSH1 0x40 ADD MLOAD PUSH2 0x3678 JUMP JUMPDEST DUP3 PUSH1 0x60 ADD SWAP1 PUSH1 0x2 SIGNEXTEND SWAP1 DUP2 PUSH1 0x2 SIGNEXTEND DUP2 MSTORE POP POP JUMPDEST JUMPDEST POP PUSH2 0x18BD JUMP JUMPDEST DUP3 PUSH1 0x20 ADD MLOAD PUSH1 0x2 SIGNEXTEND DUP2 PUSH1 0x60 ADD MLOAD PUSH1 0x2 SIGNEXTEND EQ PUSH2 0x1E80 JUMPI PUSH1 0x0 DUP1 PUSH2 0x1DB4 DUP6 PUSH1 0x40 ADD MLOAD PUSH2 0x1D91 PUSH2 0x2BB3 JUMP JUMPDEST DUP8 PUSH1 0x20 ADD MLOAD DUP9 PUSH1 0x60 ADD MLOAD DUP10 PUSH1 0x80 ADD MLOAD PUSH1 0x7 PUSH2 0x3A77 SWAP1 SWAP6 SWAP5 SWAP4 SWAP3 SWAP2 SWAP1 PUSH4 0xFFFFFFFF AND JUMP JUMPDEST SWAP2 POP SWAP2 POP DUP3 PUSH1 0x40 ADD MLOAD DUP4 PUSH1 0x60 ADD MLOAD DUP4 DUP4 PUSH1 0x2 PUSH1 0x0 ADD PUSH1 0x0 PUSH1 0x2 PUSH1 0x0 ADD PUSH1 0x14 PUSH1 0x2 PUSH1 0x0 ADD PUSH1 0x17 PUSH1 0x2 PUSH1 0x0 ADD PUSH1 0x19 DUP9 SWAP2 SWAP1 PUSH2 0x100 EXP DUP2 SLOAD DUP2 PUSH2 0xFFFF MUL NOT AND SWAP1 DUP4 PUSH2 0xFFFF AND MUL OR SWAP1 SSTORE POP DUP8 SWAP2 SWAP1 PUSH2 0x100 EXP DUP2 SLOAD DUP2 PUSH2 0xFFFF MUL NOT AND SWAP1 DUP4 PUSH2 0xFFFF AND MUL OR SWAP1 SSTORE POP DUP7 SWAP2 SWAP1 PUSH2 0x100 EXP DUP2 SLOAD DUP2 PUSH3 0xFFFFFF MUL NOT AND SWAP1 DUP4 PUSH1 0x2 SIGNEXTEND PUSH3 0xFFFFFF AND MUL OR SWAP1 SSTORE POP DUP6 SWAP2 SWAP1 PUSH2 0x100 EXP DUP2 SLOAD DUP2 PUSH20 0xFFFFFFFFFFFFFFFFFFFFFFFFFFFFFFFFFFFFFFFF MUL NOT AND SWAP1 DUP4 PUSH20 0xFFFFFFFFFFFFFFFFFFFFFFFFFFFFFFFFFFFFFFFF AND MUL OR SWAP1 SSTORE POP POP POP POP POP POP POP PUSH2 0x1EC9 JUMP JUMPDEST DUP1 PUSH1 0x40 ADD MLOAD PUSH1 0x2 PUSH1 0x0 ADD PUSH1 0x0 PUSH2 0x100 EXP DUP2 SLOAD DUP2 PUSH20 0xFFFFFFFFFFFFFFFFFFFFFFFFFFFFFFFFFFFFFFFF MUL NOT AND SWAP1 DUP4 PUSH20 0xFFFFFFFFFFFFFFFFFFFFFFFFFFFFFFFFFFFFFFFF AND MUL OR SWAP1 SSTORE POP JUMPDEST DUP1 PUSH1 0xA0 ADD MLOAD PUSH16 0xFFFFFFFFFFFFFFFFFFFFFFFFFFFFFFFF AND DUP3 PUSH16 0xFFFFFFFFFFFFFFFFFFFFFFFFFFFFFFFF AND EQ PUSH2 0x1F36 JUMPI DUP1 PUSH1 0xA0 ADD MLOAD PUSH1 0x3 PUSH1 0x0 PUSH2 0x100 EXP DUP2 SLOAD DUP2 PUSH16 0xFFFFFFFFFFFFFFFFFFFFFFFFFFFFFFFF MUL NOT AND SWAP1 DUP4 PUSH16 0xFFFFFFFFFFFFFFFFFFFFFFFFFFFFFFFF AND MUL OR SWAP1 SSTORE POP JUMPDEST DUP10 ISZERO PUSH2 0x1F4C JUMPI DUP1 PUSH1 0x80 ADD MLOAD PUSH1 0x0 DUP2 SWAP1 SSTORE POP PUSH2 0x1F58 JUMP JUMPDEST DUP1 PUSH1 0x80 ADD MLOAD PUSH1 0x1 DUP2 SWAP1 SSTORE POP JUMPDEST DUP10 PUSH2 0x1F80 JUMPI DUP1 PUSH1 0x20 ADD MLOAD PUSH2 0x1F6B SWAP1 PUSH2 0x5FC3 JUMP JUMPDEST DUP2 PUSH1 0x0 ADD MLOAD DUP11 PUSH2 0x1F7B SWAP2 SWAP1 PUSH2 0x6086 JUMP JUMPDEST PUSH2 0x1F9F JUMP JUMPDEST DUP1 PUSH1 0x0 ADD MLOAD DUP10 PUSH2 0x1F90 SWAP2 SWAP1 PUSH2 0x6086 JUMP JUMPDEST DUP2 PUSH1 0x20 ADD MLOAD PUSH2 0x1F9E SWAP1 PUSH2 0x5FC3 JUMP JUMPDEST JUMPDEST DUP1 SWAP6 POP DUP2 SWAP7 POP POP POP DUP10 ISZERO PUSH2 0x2124 JUMPI PUSH32 0x0 PUSH20 0xFFFFFFFFFFFFFFFFFFFFFFFFFFFFFFFFFFFFFFFF AND PUSH4 0xA9059CBB DUP13 DUP7 PUSH2 0x1FF4 SWAP1 PUSH2 0x5FC3 JUMP JUMPDEST PUSH1 0x40 MLOAD DUP4 PUSH4 0xFFFFFFFF AND PUSH1 0xE0 SHL DUP2 MSTORE PUSH1 0x4 ADD PUSH2 0x2011 SWAP3 SWAP2 SWAP1 PUSH2 0x5E31 JUMP JUMPDEST PUSH1 0x20 PUSH1 0x40 MLOAD DUP1 DUP4 SUB DUP2 PUSH1 0x0 DUP8 GAS CALL ISZERO DUP1 ISZERO PUSH2 0x2030 JUMPI RETURNDATASIZE PUSH1 0x0 DUP1 RETURNDATACOPY RETURNDATASIZE PUSH1 0x0 REVERT JUMPDEST POP POP POP POP PUSH1 0x40 MLOAD RETURNDATASIZE PUSH1 0x1F NOT PUSH1 0x1F DUP3 ADD AND DUP3 ADD DUP1 PUSH1 0x40 MSTORE POP DUP2 ADD SWAP1 PUSH2 0x2054 SWAP2 SWAP1 PUSH2 0x5E6F JUMP JUMPDEST POP PUSH1 0x0 PUSH2 0x205F PUSH2 0x29BE JUMP JUMPDEST SWAP1 POP CALLER PUSH20 0xFFFFFFFFFFFFFFFFFFFFFFFFFFFFFFFFFFFFFFFF AND PUSH4 0xFA461E33 DUP8 DUP8 DUP12 DUP12 PUSH1 0x40 MLOAD DUP6 PUSH4 0xFFFFFFFF AND PUSH1 0xE0 SHL DUP2 MSTORE PUSH1 0x4 ADD PUSH2 0x20A0 SWAP5 SWAP4 SWAP3 SWAP2 SWAP1 PUSH2 0x6115 JUMP JUMPDEST PUSH1 0x0 PUSH1 0x40 MLOAD DUP1 DUP4 SUB DUP2 PUSH1 0x0 DUP8 DUP1 EXTCODESIZE ISZERO DUP1 ISZERO PUSH2 0x20BA JUMPI PUSH1 0x0 DUP1 REVERT JUMPDEST POP GAS CALL ISZERO DUP1 ISZERO PUSH2 0x20CE JUMPI RETURNDATASIZE PUSH1 0x0 DUP1 RETURNDATACOPY RETURNDATASIZE PUSH1 0x0 REVERT JUMPDEST POP POP POP POP PUSH2 0x20DA PUSH2 0x29BE JUMP JUMPDEST DUP7 DUP3 PUSH2 0x20E6 SWAP2 SWAP1 PUSH2 0x5D76 JUMP JUMPDEST GT ISZERO PUSH2 0x211E JUMPI PUSH1 0x40 MLOAD PUSH32 0x98FB56100000000000000000000000000000000000000000000000000000000 DUP2 MSTORE PUSH1 0x4 ADD PUSH1 0x40 MLOAD DUP1 SWAP2 SUB SWAP1 REVERT JUMPDEST POP PUSH2 0x2297 JUMP JUMPDEST PUSH32 0x0 PUSH20 0xFFFFFFFFFFFFFFFFFFFFFFFFFFFFFFFFFFFFFFFF AND PUSH4 0xA9059CBB DUP13 DUP8 PUSH2 0x216B SWAP1 PUSH2 0x5FC3 JUMP JUMPDEST PUSH1 0x40 MLOAD DUP4 PUSH4 0xFFFFFFFF AND PUSH1 0xE0 SHL DUP2 MSTORE PUSH1 0x4 ADD PUSH2 0x2188 SWAP3 SWAP2 SWAP1 PUSH2 0x5E31 JUMP JUMPDEST PUSH1 0x20 PUSH1 0x40 MLOAD DUP1 DUP4 SUB DUP2 PUSH1 0x0 DUP8 GAS CALL ISZERO DUP1 ISZERO PUSH2 0x21A7 JUMPI RETURNDATASIZE PUSH1 0x0 DUP1 RETURNDATACOPY RETURNDATASIZE PUSH1 0x0 REVERT JUMPDEST POP POP POP POP PUSH1 0x40 MLOAD RETURNDATASIZE PUSH1 0x1F NOT PUSH1 0x1F DUP3 ADD AND DUP3 ADD DUP1 PUSH1 0x40 MSTORE POP DUP2 ADD SWAP1 PUSH2 0x21CB SWAP2 SWAP1 PUSH2 0x5E6F JUMP JUMPDEST POP PUSH1 0x0 PUSH2 0x21D6 PUSH2 0x2A5F JUMP JUMPDEST SWAP1 POP CALLER PUSH20 0xFFFFFFFFFFFFFFFFFFFFFFFFFFFFFFFFFFFFFFFF AND PUSH4 0xFA461E33 DUP8 DUP8 DUP12 DUP12 PUSH1 0x40 MLOAD DUP6 PUSH4 0xFFFFFFFF AND PUSH1 0xE0 SHL DUP2 MSTORE PUSH1 0x4 ADD PUSH2 0x2217 SWAP5 SWAP4 SWAP3 SWAP2 SWAP1 PUSH2 0x6115 JUMP JUMPDEST PUSH1 0x0 PUSH1 0x40 MLOAD DUP1 DUP4 SUB DUP2 PUSH1 0x0 DUP8 DUP1 EXTCODESIZE ISZERO DUP1 ISZERO PUSH2 0x2231 JUMPI PUSH1 0x0 DUP1 REVERT JUMPDEST POP GAS CALL ISZERO DUP1 ISZERO PUSH2 0x2245 JUMPI RETURNDATASIZE PUSH1 0x0 DUP1 RETURNDATACOPY RETURNDATASIZE PUSH1 0x0 REVERT JUMPDEST POP POP POP POP PUSH2 0x2251 PUSH2 0x2A5F JUMP JUMPDEST DUP6 DUP3 PUSH2 0x225D SWAP2 SWAP1 PUSH2 0x5D76 JUMP JUMPDEST GT ISZERO PUSH2 0x2295 JUMPI PUSH1 0x40 MLOAD PUSH32 0x98FB56100000000000000000000000000000000000000000000000000000000 DUP2 MSTORE PUSH1 0x4 ADD PUSH1 0x40 MLOAD DUP1 SWAP2 SUB SWAP1 REVERT JUMPDEST POP JUMPDEST DUP11 PUSH20 0xFFFFFFFFFFFFFFFFFFFFFFFFFFFFFFFFFFFFFFFF AND CALLER PUSH20 0xFFFFFFFFFFFFFFFFFFFFFFFFFFFFFFFFFFFFFFFF AND PUSH32 0xC42079F94A6350D7E6235F29174924F928CC2AC818EB64FED8004E115FBCCA67 DUP8 DUP8 PUSH1 0x2 PUSH1 0x0 ADD PUSH1 0x0 SWAP1 SLOAD SWAP1 PUSH2 0x100 EXP SWAP1 DIV PUSH20 0xFFFFFFFFFFFFFFFFFFFFFFFFFFFFFFFFFFFFFFFF AND DUP7 PUSH1 0xA0 ADD MLOAD PUSH1 0x2 PUSH1 0x0 ADD PUSH1 0x14 SWAP1 SLOAD SWAP1 PUSH2 0x100 EXP SWAP1 DIV PUSH1 0x2 SIGNEXTEND PUSH1 0x40 MLOAD PUSH2 0x2337 SWAP6 SWAP5 SWAP4 SWAP3 SWAP2 SWAP1 PUSH2 0x6155 JUMP JUMPDEST PUSH1 0x40 MLOAD DUP1 SWAP2 SUB SWAP1 LOG3 POP POP POP SWAP7 POP SWAP7 SWAP5 POP POP POP POP POP JUMP JUMPDEST PUSH32 0x0 DUP2 JUMP JUMPDEST PUSH1 0x0 SLOAD DUP2 JUMP JUMPDEST PUSH1 0x4 PUSH1 0x20 MSTORE DUP1 PUSH1 0x0 MSTORE PUSH1 0x40 PUSH1 0x0 KECCAK256 PUSH1 0x0 SWAP2 POP SWAP1 POP DUP1 PUSH1 0x0 ADD PUSH1 0x0 SWAP1 SLOAD SWAP1 PUSH2 0x100 EXP SWAP1 DIV PUSH1 0xFF AND SWAP1 DUP1 PUSH1 0x0 ADD PUSH1 0x1 SWAP1 SLOAD SWAP1 PUSH2 0x100 EXP SWAP1 DIV PUSH16 0xFFFFFFFFFFFFFFFFFFFFFFFFFFFFFFFF AND SWAP1 DUP1 PUSH1 0x1 ADD PUSH1 0x0 SWAP1 SLOAD SWAP1 PUSH2 0x100 EXP SWAP1 DIV PUSH1 0xF SIGNEXTEND SWAP1 DUP1 PUSH1 0x2 ADD SLOAD SWAP1 DUP1 PUSH1 0x3 ADD SLOAD SWAP1 POP DUP6 JUMP JUMPDEST PUSH1 0x0 PUSH1 0x2 PUSH1 0x0 ADD PUSH1 0x0 SWAP1 SLOAD SWAP1 PUSH2 0x100 EXP SWAP1 DIV PUSH20 0xFFFFFFFFFFFFFFFFFFFFFFFFFFFFFFFFFFFFFFFF AND PUSH20 0xFFFFFFFFFFFFFFFFFFFFFFFFFFFFFFFFFFFFFFFF AND EQ PUSH2 0x2458 JUMPI PUSH1 0x40 MLOAD PUSH32 0xDC149F000000000000000000000000000000000000000000000000000000000 DUP2 MSTORE PUSH1 0x4 ADD PUSH1 0x40 MLOAD DUP1 SWAP2 SUB SWAP1 REVERT JUMPDEST PUSH1 0x0 PUSH2 0x2463 DUP3 PUSH2 0x3678 JUMP JUMPDEST SWAP1 POP PUSH1 0x0 DUP1 PUSH2 0x2483 PUSH2 0x2473 PUSH2 0x2BB3 JUMP JUMPDEST PUSH1 0x7 PUSH2 0x3C23 SWAP1 SWAP2 SWAP1 PUSH4 0xFFFFFFFF AND JUMP JUMPDEST SWAP2 POP SWAP2 POP PUSH1 0x40 MLOAD DUP1 PUSH1 0xA0 ADD PUSH1 0x40 MSTORE DUP1 DUP6 PUSH20 0xFFFFFFFFFFFFFFFFFFFFFFFFFFFFFFFFFFFFFFFF AND DUP2 MSTORE PUSH1 0x20 ADD DUP5 PUSH1 0x2 SIGNEXTEND DUP2 MSTORE PUSH1 0x20 ADD PUSH1 0x0 PUSH2 0xFFFF AND DUP2 MSTORE PUSH1 0x20 ADD DUP4 PUSH2 0xFFFF AND DUP2 MSTORE PUSH1 0x20 ADD DUP3 PUSH2 0xFFFF AND DUP2 MSTORE POP PUSH1 0x2 PUSH1 0x0 DUP3 ADD MLOAD DUP2 PUSH1 0x0 ADD PUSH1 0x0 PUSH2 0x100 EXP DUP2 SLOAD DUP2 PUSH20 0xFFFFFFFFFFFFFFFFFFFFFFFFFFFFFFFFFFFFFFFF MUL NOT AND SWAP1 DUP4 PUSH20 0xFFFFFFFFFFFFFFFFFFFFFFFFFFFFFFFFFFFFFFFF AND MUL OR SWAP1 SSTORE POP PUSH1 0x20 DUP3 ADD MLOAD DUP2 PUSH1 0x0 ADD PUSH1 0x14 PUSH2 0x100 EXP DUP2 SLOAD DUP2 PUSH3 0xFFFFFF MUL NOT AND SWAP1 DUP4 PUSH1 0x2 SIGNEXTEND PUSH3 0xFFFFFF AND MUL OR SWAP1 SSTORE POP PUSH1 0x40 DUP3 ADD MLOAD DUP2 PUSH1 0x0 ADD PUSH1 0x17 PUSH2 0x100 EXP DUP2 SLOAD DUP2 PUSH2 0xFFFF MUL NOT AND SWAP1 DUP4 PUSH2 0xFFFF AND MUL OR SWAP1 SSTORE POP PUSH1 0x60 DUP3 ADD MLOAD DUP2 PUSH1 0x0 ADD PUSH1 0x19 PUSH2 0x100 EXP DUP2 SLOAD DUP2 PUSH2 0xFFFF MUL NOT AND SWAP1 DUP4 PUSH2 0xFFFF AND MUL OR SWAP1 SSTORE POP PUSH1 0x80 DUP3 ADD MLOAD DUP2 PUSH1 0x0 ADD PUSH1 0x1B PUSH2 0x100 EXP DUP2 SLOAD DUP2 PUSH2 0xFFFF MUL NOT AND SWAP1 DUP4 PUSH2 0xFFFF AND MUL OR SWAP1 SSTORE POP SWAP1 POP POP POP POP POP POP JUMP JUMPDEST PUSH1 0x0 DUP3 PUSH2 0xFFFF AND DUP3 PUSH2 0xFFFF AND GT PUSH2 0x25D0 JUMPI DUP3 SWAP1 POP PUSH2 0x2634 JUMP JUMPDEST PUSH1 0x0 DUP4 SWAP1 POP JUMPDEST DUP3 PUSH2 0xFFFF AND DUP2 PUSH2 0xFFFF AND LT ISZERO PUSH2 0x262F JUMPI PUSH1 0x1 DUP6 DUP3 PUSH2 0xFFFF AND PUSH2 0xFFFF DUP2 LT PUSH2 0x2600 JUMPI PUSH2 0x25FF PUSH2 0x61A8 JUMP JUMPDEST JUMPDEST ADD PUSH1 0x0 ADD PUSH1 0x0 PUSH2 0x100 EXP DUP2 SLOAD DUP2 PUSH4 0xFFFFFFFF MUL NOT AND SWAP1 DUP4 PUSH4 0xFFFFFFFF AND MUL OR SWAP1 SSTORE POP DUP1 DUP1 PUSH1 0x1 ADD SWAP2 POP POP PUSH2 0x25D6 JUMP JUMPDEST POP DUP2 SWAP1 POP JUMPDEST SWAP4 SWAP3 POP POP POP JUMP JUMPDEST PUSH1 0x0 DUP1 PUSH1 0x0 DUP1 PUSH1 0x2 PUSH1 0x40 MLOAD DUP1 PUSH1 0xA0 ADD PUSH1 0x40 MSTORE SWAP1 DUP2 PUSH1 0x0 DUP3 ADD PUSH1 0x0 SWAP1 SLOAD SWAP1 PUSH2 0x100 EXP SWAP1 DIV PUSH20 0xFFFFFFFFFFFFFFFFFFFFFFFFFFFFFFFFFFFFFFFF AND PUSH20 0xFFFFFFFFFFFFFFFFFFFFFFFFFFFFFFFFFFFFFFFF AND PUSH20 0xFFFFFFFFFFFFFFFFFFFFFFFFFFFFFFFFFFFFFFFF AND DUP2 MSTORE PUSH1 0x20 ADD PUSH1 0x0 DUP3 ADD PUSH1 0x14 SWAP1 SLOAD SWAP1 PUSH2 0x100 EXP SWAP1 DIV PUSH1 0x2 SIGNEXTEND PUSH1 0x2 SIGNEXTEND PUSH1 0x2 SIGNEXTEND DUP2 MSTORE PUSH1 0x20 ADD PUSH1 0x0 DUP3 ADD PUSH1 0x17 SWAP1 SLOAD SWAP1 PUSH2 0x100 EXP SWAP1 DIV PUSH2 0xFFFF AND PUSH2 0xFFFF AND PUSH2 0xFFFF AND DUP2 MSTORE PUSH1 0x20 ADD PUSH1 0x0 DUP3 ADD PUSH1 0x19 SWAP1 SLOAD SWAP1 PUSH2 0x100 EXP SWAP1 DIV PUSH2 0xFFFF AND PUSH2 0xFFFF AND PUSH2 0xFFFF AND DUP2 MSTORE PUSH1 0x20 ADD PUSH1 0x0 DUP3 ADD PUSH1 0x1B SWAP1 SLOAD SWAP1 PUSH2 0x100 EXP SWAP1 DIV PUSH2 0xFFFF AND PUSH2 0xFFFF AND PUSH2 0xFFFF AND DUP2 MSTORE POP POP SWAP1 POP PUSH1 0x0 DUP1 SLOAD SWAP1 POP PUSH1 0x0 PUSH1 0x1 SLOAD SWAP1 POP PUSH2 0x2754 DUP8 PUSH1 0x0 ADD MLOAD DUP9 PUSH1 0x20 ADD MLOAD DUP10 PUSH1 0x40 ADD MLOAD PUSH1 0x6 PUSH2 0x2B6B SWAP1 SWAP4 SWAP3 SWAP2 SWAP1 PUSH4 0xFFFFFFFF AND JUMP JUMPDEST SWAP6 POP PUSH1 0x0 PUSH2 0x2783 DUP9 PUSH1 0x20 ADD MLOAD DUP6 PUSH1 0x20 ADD MLOAD DUP11 PUSH1 0x60 ADD MLOAD DUP7 DUP7 PUSH1 0x0 PUSH1 0x4 PUSH2 0x3CED SWAP1 SWAP7 SWAP6 SWAP5 SWAP4 SWAP3 SWAP2 SWAP1 PUSH4 0xFFFFFFFF AND JUMP JUMPDEST SWAP1 POP PUSH1 0x0 PUSH2 0x27B2 DUP10 PUSH1 0x40 ADD MLOAD DUP7 PUSH1 0x20 ADD MLOAD DUP12 PUSH1 0x60 ADD MLOAD DUP8 DUP8 PUSH1 0x1 PUSH1 0x4 PUSH2 0x3CED SWAP1 SWAP7 SWAP6 SWAP5 SWAP4 SWAP3 SWAP2 SWAP1 PUSH4 0xFFFFFFFF AND JUMP JUMPDEST SWAP1 POP DUP2 ISZERO PUSH2 0x27F5 JUMPI PUSH2 0x27F4 DUP10 PUSH1 0x20 ADD MLOAD PUSH32 0x0 PUSH1 0x5 PUSH2 0x3EA0 SWAP1 SWAP3 SWAP2 SWAP1 PUSH4 0xFFFFFFFF AND JUMP JUMPDEST JUMPDEST DUP1 ISZERO PUSH2 0x2836 JUMPI PUSH2 0x2835 DUP10 PUSH1 0x40 ADD MLOAD PUSH32 0x0 PUSH1 0x5 PUSH2 0x3EA0 SWAP1 SWAP3 SWAP2 SWAP1 PUSH4 0xFFFFFFFF AND JUMP JUMPDEST JUMPDEST PUSH1 0x0 DUP1 PUSH2 0x2861 DUP12 PUSH1 0x20 ADD MLOAD DUP13 PUSH1 0x40 ADD MLOAD DUP10 PUSH1 0x20 ADD MLOAD DUP10 DUP10 PUSH1 0x4 PUSH2 0x3F10 SWAP1 SWAP6 SWAP5 SWAP4 SWAP3 SWAP2 SWAP1 PUSH4 0xFFFFFFFF AND JUMP JUMPDEST SWAP2 POP SWAP2 POP PUSH2 0x2880 DUP12 PUSH1 0x60 ADD MLOAD DUP4 DUP4 DUP14 PUSH2 0x401F SWAP1 SWAP4 SWAP3 SWAP2 SWAP1 PUSH4 0xFFFFFFFF AND JUMP JUMPDEST DUP11 PUSH1 0x20 ADD MLOAD PUSH1 0x2 SIGNEXTEND DUP8 PUSH1 0x20 ADD MLOAD PUSH1 0x2 SIGNEXTEND SLT ISZERO PUSH2 0x28C4 JUMPI PUSH2 0x28BD PUSH2 0x28A6 DUP13 PUSH1 0x20 ADD MLOAD PUSH2 0x2E6A JUMP JUMPDEST PUSH2 0x28B3 DUP14 PUSH1 0x40 ADD MLOAD PUSH2 0x2E6A JUMP JUMPDEST DUP14 PUSH1 0x60 ADD MLOAD PUSH2 0x4262 JUMP JUMPDEST SWAP9 POP PUSH2 0x29B0 JUMP JUMPDEST DUP11 PUSH1 0x40 ADD MLOAD PUSH1 0x2 SIGNEXTEND DUP8 PUSH1 0x20 ADD MLOAD PUSH1 0x2 SIGNEXTEND SLT ISZERO PUSH2 0x2985 JUMPI PUSH2 0x28F9 DUP8 PUSH1 0x0 ADD MLOAD PUSH2 0x28EF DUP14 PUSH1 0x40 ADD MLOAD PUSH2 0x2E6A JUMP JUMPDEST DUP14 PUSH1 0x60 ADD MLOAD PUSH2 0x4262 JUMP JUMPDEST SWAP9 POP PUSH2 0x291A PUSH2 0x290B DUP13 PUSH1 0x20 ADD MLOAD PUSH2 0x2E6A JUMP JUMPDEST DUP9 PUSH1 0x0 ADD MLOAD DUP14 PUSH1 0x60 ADD MLOAD PUSH2 0x42A9 JUMP JUMPDEST SWAP8 POP PUSH2 0x2948 PUSH1 0x3 PUSH1 0x0 SWAP1 SLOAD SWAP1 PUSH2 0x100 EXP SWAP1 DIV PUSH16 0xFFFFFFFFFFFFFFFFFFFFFFFFFFFFFFFF AND DUP13 PUSH1 0x60 ADD MLOAD PUSH2 0x363A JUMP JUMPDEST PUSH1 0x3 PUSH1 0x0 PUSH2 0x100 EXP DUP2 SLOAD DUP2 PUSH16 0xFFFFFFFFFFFFFFFFFFFFFFFFFFFFFFFF MUL NOT AND SWAP1 DUP4 PUSH16 0xFFFFFFFFFFFFFFFFFFFFFFFFFFFFFFFF AND MUL OR SWAP1 SSTORE POP PUSH2 0x29AF JUMP JUMPDEST PUSH2 0x29AC PUSH2 0x2995 DUP13 PUSH1 0x20 ADD MLOAD PUSH2 0x2E6A JUMP JUMPDEST PUSH2 0x29A2 DUP14 PUSH1 0x40 ADD MLOAD PUSH2 0x2E6A JUMP JUMPDEST DUP14 PUSH1 0x60 ADD MLOAD PUSH2 0x42A9 JUMP JUMPDEST SWAP8 POP JUMPDEST JUMPDEST POP POP POP POP POP POP POP SWAP2 SWAP4 SWAP1 SWAP3 POP JUMP JUMPDEST PUSH1 0x0 PUSH32 0x0 PUSH20 0xFFFFFFFFFFFFFFFFFFFFFFFFFFFFFFFFFFFFFFFF AND PUSH4 0x70A08231 ADDRESS PUSH1 0x40 MLOAD DUP3 PUSH4 0xFFFFFFFF AND PUSH1 0xE0 SHL DUP2 MSTORE PUSH1 0x4 ADD PUSH2 0x2A19 SWAP2 SWAP1 PUSH2 0x51D3 JUMP JUMPDEST PUSH1 0x20 PUSH1 0x40 MLOAD DUP1 DUP4 SUB DUP2 DUP7 GAS STATICCALL ISZERO DUP1 ISZERO PUSH2 0x2A36 JUMPI RETURNDATASIZE PUSH1 0x0 DUP1 RETURNDATACOPY RETURNDATASIZE PUSH1 0x0 REVERT JUMPDEST POP POP POP POP PUSH1 0x40 MLOAD RETURNDATASIZE PUSH1 0x1F NOT PUSH1 0x1F DUP3 ADD AND DUP3 ADD DUP1 PUSH1 0x40 MSTORE POP DUP2 ADD SWAP1 PUSH2 0x2A5A SWAP2 SWAP1 PUSH2 0x5E04 JUMP JUMPDEST SWAP1 POP SWAP1 JUMP JUMPDEST PUSH1 0x0 PUSH32 0x0 PUSH20 0xFFFFFFFFFFFFFFFFFFFFFFFFFFFFFFFFFFFFFFFF AND PUSH4 0x70A08231 ADDRESS PUSH1 0x40 MLOAD DUP3 PUSH4 0xFFFFFFFF AND PUSH1 0xE0 SHL DUP2 MSTORE PUSH1 0x4 ADD PUSH2 0x2ABA SWAP2 SWAP1 PUSH2 0x51D3 JUMP JUMPDEST PUSH1 0x20 PUSH1 0x40 MLOAD DUP1 DUP4 SUB DUP2 DUP7 GAS STATICCALL ISZERO DUP1 ISZERO PUSH2 0x2AD7 JUMPI RETURNDATASIZE PUSH1 0x0 DUP1 RETURNDATACOPY RETURNDATASIZE PUSH1 0x0 REVERT JUMPDEST POP POP POP POP PUSH1 0x40 MLOAD RETURNDATASIZE PUSH1 0x1F NOT PUSH1 0x1F DUP3 ADD AND DUP3 ADD DUP1 PUSH1 0x40 MSTORE POP DUP2 ADD SWAP1 PUSH2 0x2AFB SWAP2 SWAP1 PUSH2 0x5E04 JUMP JUMPDEST SWAP1 POP SWAP1 JUMP JUMPDEST PUSH1 0x0 PUSH2 0x2B0D DUP5 DUP5 DUP5 PUSH2 0x34BB JUMP JUMPDEST SWAP1 POP PUSH1 0x0 DUP3 DUP1 PUSH2 0x2B20 JUMPI PUSH2 0x2B1F PUSH2 0x61D7 JUMP JUMPDEST JUMPDEST DUP5 DUP7 MULMOD GT ISZERO PUSH2 0x2B64 JUMPI PUSH32 0xFFFFFFFFFFFFFFFFFFFFFFFFFFFFFFFFFFFFFFFFFFFFFFFFFFFFFFFFFFFFFFFF DUP2 LT PUSH2 0x2B55 JUMPI PUSH1 0x0 DUP1 REVERT JUMPDEST DUP1 DUP1 PUSH2 0x2B60 SWAP1 PUSH2 0x6206 JUMP JUMPDEST SWAP2 POP POP JUMPDEST SWAP4 SWAP3 POP POP POP JUMP JUMPDEST PUSH1 0x0 DUP5 PUSH1 0x0 DUP6 DUP6 DUP6 PUSH1 0x40 MLOAD PUSH1 0x20 ADD PUSH2 0x2B85 SWAP4 SWAP3 SWAP2 SWAP1 PUSH2 0x62CC JUMP JUMPDEST PUSH1 0x40 MLOAD PUSH1 0x20 DUP2 DUP4 SUB SUB DUP2 MSTORE SWAP1 PUSH1 0x40 MSTORE DUP1 MLOAD SWAP1 PUSH1 0x20 ADD KECCAK256 DUP2 MSTORE PUSH1 0x20 ADD SWAP1 DUP2 MSTORE PUSH1 0x20 ADD PUSH1 0x0 KECCAK256 SWAP1 POP SWAP5 SWAP4 POP POP POP POP JUMP JUMPDEST PUSH1 0x0 TIMESTAMP SWAP1 POP SWAP1 JUMP JUMPDEST PUSH1 0x60 DUP5 MLOAD PUSH8 0xFFFFFFFFFFFFFFFF DUP2 GT ISZERO PUSH2 0x2BD8 JUMPI PUSH2 0x2BD7 PUSH2 0x6309 JUMP JUMPDEST JUMPDEST PUSH1 0x40 MLOAD SWAP1 DUP1 DUP3 MSTORE DUP1 PUSH1 0x20 MUL PUSH1 0x20 ADD DUP3 ADD PUSH1 0x40 MSTORE DUP1 ISZERO PUSH2 0x2C06 JUMPI DUP2 PUSH1 0x20 ADD PUSH1 0x20 DUP3 MUL DUP1 CALLDATASIZE DUP4 CALLDATACOPY DUP1 DUP3 ADD SWAP2 POP POP SWAP1 POP JUMPDEST POP SWAP1 POP PUSH1 0x0 JUMPDEST DUP6 MLOAD DUP2 LT ISZERO PUSH2 0x2C71 JUMPI PUSH2 0x2C3D DUP9 DUP9 DUP9 DUP5 DUP2 MLOAD DUP2 LT PUSH2 0x2C2D JUMPI PUSH2 0x2C2C PUSH2 0x61A8 JUMP JUMPDEST JUMPDEST PUSH1 0x20 MUL PUSH1 0x20 ADD ADD MLOAD DUP9 DUP9 DUP9 PUSH2 0x42F0 JUMP JUMPDEST DUP3 DUP3 DUP2 MLOAD DUP2 LT PUSH2 0x2C50 JUMPI PUSH2 0x2C4F PUSH2 0x61A8 JUMP JUMPDEST JUMPDEST PUSH1 0x20 MUL PUSH1 0x20 ADD ADD SWAP1 PUSH1 0x6 SIGNEXTEND SWAP1 DUP2 PUSH1 0x6 SIGNEXTEND DUP2 MSTORE POP POP DUP1 DUP1 PUSH1 0x1 ADD SWAP2 POP POP PUSH2 0x2C0C JUMP JUMPDEST POP SWAP7 SWAP6 POP POP POP POP POP POP JUMP JUMPDEST PUSH1 0x0 DUP1 PUSH1 0x0 DUP5 DUP7 PUSH2 0x2C8D SWAP2 SWAP1 PUSH2 0x6338 JUMP JUMPDEST SWAP1 POP PUSH1 0x0 DUP7 PUSH1 0x2 SIGNEXTEND SLT DUP1 ISZERO PUSH2 0x2CB1 JUMPI POP PUSH1 0x0 DUP6 DUP8 PUSH2 0x2CAB SWAP2 SWAP1 PUSH2 0x63A2 JUMP JUMPDEST PUSH1 0x2 SIGNEXTEND EQ ISZERO JUMPDEST ISZERO PUSH2 0x2CC5 JUMPI DUP1 DUP1 PUSH2 0x2CC1 SWAP1 PUSH2 0x63D3 JUMP JUMPDEST SWAP2 POP POP JUMPDEST DUP4 ISZERO PUSH2 0x2D88 JUMPI PUSH1 0x0 DUP1 PUSH2 0x2CD7 DUP4 PUSH2 0x44AB JUMP JUMPDEST SWAP2 POP SWAP2 POP PUSH1 0x0 DUP2 PUSH1 0xFF AND PUSH1 0x1 SWAP1 SHL PUSH1 0x1 DUP4 PUSH1 0xFF AND PUSH1 0x1 SWAP1 SHL PUSH2 0x2CF9 SWAP2 SWAP1 PUSH2 0x6086 JUMP JUMPDEST PUSH2 0x2D03 SWAP2 SWAP1 PUSH2 0x5D76 JUMP JUMPDEST SWAP1 POP PUSH1 0x0 DUP2 DUP12 PUSH1 0x0 DUP7 PUSH1 0x1 SIGNEXTEND PUSH1 0x1 SIGNEXTEND DUP2 MSTORE PUSH1 0x20 ADD SWAP1 DUP2 MSTORE PUSH1 0x20 ADD PUSH1 0x0 KECCAK256 SLOAD AND SWAP1 POP PUSH1 0x0 DUP2 EQ ISZERO SWAP6 POP DUP6 PUSH2 0x2D4F JUMPI DUP9 DUP4 PUSH1 0xFF AND DUP7 PUSH2 0x2D40 SWAP2 SWAP1 PUSH2 0x60BA JUMP JUMPDEST PUSH2 0x2D4A SWAP2 SWAP1 PUSH2 0x641B JUMP JUMPDEST PUSH2 0x2D7D JUMP JUMPDEST DUP9 PUSH2 0x2D59 DUP3 PUSH2 0x44CD JUMP JUMPDEST DUP5 PUSH2 0x2D64 SWAP2 SWAP1 PUSH2 0x6465 JUMP JUMPDEST PUSH1 0xFF AND DUP7 PUSH2 0x2D72 SWAP2 SWAP1 PUSH2 0x60BA JUMP JUMPDEST PUSH2 0x2D7C SWAP2 SWAP1 PUSH2 0x641B JUMP JUMPDEST JUMPDEST SWAP7 POP POP POP POP POP PUSH2 0x2E60 JUMP JUMPDEST PUSH1 0x0 DUP1 PUSH2 0x2DA0 PUSH1 0x1 DUP5 PUSH2 0x2D9B SWAP2 SWAP1 PUSH2 0x649A JUMP JUMPDEST PUSH2 0x44AB JUMP JUMPDEST SWAP2 POP SWAP2 POP PUSH1 0x0 PUSH1 0x1 DUP3 PUSH1 0xFF AND PUSH1 0x1 SWAP1 SHL PUSH2 0x2DBA SWAP2 SWAP1 PUSH2 0x6086 JUMP JUMPDEST NOT SWAP1 POP PUSH1 0x0 DUP2 DUP12 PUSH1 0x0 DUP7 PUSH1 0x1 SIGNEXTEND PUSH1 0x1 SIGNEXTEND DUP2 MSTORE PUSH1 0x20 ADD SWAP1 DUP2 MSTORE PUSH1 0x20 ADD PUSH1 0x0 KECCAK256 SLOAD AND SWAP1 POP PUSH1 0x0 DUP2 EQ ISZERO SWAP6 POP DUP6 PUSH2 0x2E1F JUMPI DUP9 DUP4 PUSH1 0xFF PUSH2 0x2DF6 SWAP2 SWAP1 PUSH2 0x6465 JUMP JUMPDEST PUSH1 0xFF AND PUSH1 0x1 DUP8 PUSH2 0x2E06 SWAP2 SWAP1 PUSH2 0x649A JUMP JUMPDEST PUSH2 0x2E10 SWAP2 SWAP1 PUSH2 0x649A JUMP JUMPDEST PUSH2 0x2E1A SWAP2 SWAP1 PUSH2 0x641B JUMP JUMPDEST PUSH2 0x2E59 JUMP JUMPDEST DUP9 DUP4 PUSH2 0x2E2A DUP4 PUSH2 0x45F0 JUMP JUMPDEST PUSH2 0x2E34 SWAP2 SWAP1 PUSH2 0x6465 JUMP JUMPDEST PUSH1 0xFF AND PUSH1 0x1 DUP8 PUSH2 0x2E44 SWAP2 SWAP1 PUSH2 0x649A JUMP JUMPDEST PUSH2 0x2E4E SWAP2 SWAP1 PUSH2 0x649A JUMP JUMPDEST PUSH2 0x2E58 SWAP2 SWAP1 PUSH2 0x641B JUMP JUMPDEST JUMPDEST SWAP7 POP POP POP POP POP JUMPDEST POP SWAP5 POP SWAP5 SWAP3 POP POP POP JUMP JUMPDEST PUSH1 0x0 DUP1 PUSH1 0x0 DUP4 PUSH1 0x2 SIGNEXTEND SLT PUSH2 0x2E81 JUMPI DUP3 PUSH1 0x2 SIGNEXTEND PUSH2 0x2E8F JUMP JUMPDEST DUP3 PUSH1 0x2 SIGNEXTEND PUSH2 0x2E8E SWAP1 PUSH2 0x5FC3 JUMP JUMPDEST JUMPDEST SWAP1 POP PUSH32 0xFFFFFFFFFFFFFFFFFFFFFFFFFFFFFFFFFFFFFFFFFFFFFFFFFFFFFFFFFFF27618 PUSH2 0x2EBB SWAP1 PUSH2 0x5C90 JUMP JUMPDEST PUSH3 0xFFFFFF AND DUP2 GT ISZERO PUSH2 0x2F02 JUMPI PUSH1 0x40 MLOAD PUSH32 0x8C379A000000000000000000000000000000000000000000000000000000000 DUP2 MSTORE PUSH1 0x4 ADD PUSH2 0x2EF9 SWAP1 PUSH2 0x6552 JUMP JUMPDEST PUSH1 0x40 MLOAD DUP1 SWAP2 SUB SWAP1 REVERT JUMPDEST PUSH1 0x0 DUP1 PUSH1 0x1 DUP4 AND SUB PUSH2 0x2F25 JUMPI PUSH17 0x100000000000000000000000000000000 PUSH2 0x2F37 JUMP JUMPDEST PUSH16 0xFFFCB933BD6FAD37AA2D162D1A594001 JUMPDEST PUSH17 0xFFFFFFFFFFFFFFFFFFFFFFFFFFFFFFFFFF AND SWAP1 POP PUSH1 0x0 PUSH1 0x2 DUP4 AND EQ PUSH2 0x2F7A JUMPI PUSH1 0x80 PUSH16 0xFFF97272373D413259A46990580E213A DUP3 PUSH2 0x2F75 SWAP2 SWAP1 PUSH2 0x6572 JUMP JUMPDEST SWAP1 SHR SWAP1 POP JUMPDEST PUSH1 0x0 PUSH1 0x4 DUP4 AND EQ PUSH2 0x2FA8 JUMPI PUSH1 0x80 PUSH16 0xFFF2E50F5F656932EF12357CF3C7FDCC DUP3 PUSH2 0x2FA3 SWAP2 SWAP1 PUSH2 0x6572 JUMP JUMPDEST SWAP1 SHR SWAP1 POP JUMPDEST PUSH1 0x0 PUSH1 0x8 DUP4 AND EQ PUSH2 0x2FD6 JUMPI PUSH1 0x80 PUSH16 0xFFE5CACA7E10E4E61C3624EAA0941CD0 DUP3 PUSH2 0x2FD1 SWAP2 SWAP1 PUSH2 0x6572 JUMP JUMPDEST SWAP1 SHR SWAP1 POP JUMPDEST PUSH1 0x0 PUSH1 0x10 DUP4 AND EQ PUSH2 0x3004 JUMPI PUSH1 0x80 PUSH16 0xFFCB9843D60F6159C9DB58835C926644 DUP3 PUSH2 0x2FFF SWAP2 SWAP1 PUSH2 0x6572 JUMP JUMPDEST SWAP1 SHR SWAP1 POP JUMPDEST PUSH1 0x0 PUSH1 0x20 DUP4 AND EQ PUSH2 0x3032 JUMPI PUSH1 0x80 PUSH16 0xFF973B41FA98C081472E6896DFB254C0 DUP3 PUSH2 0x302D SWAP2 SWAP1 PUSH2 0x6572 JUMP JUMPDEST SWAP1 SHR SWAP1 POP JUMPDEST PUSH1 0x0 PUSH1 0x40 DUP4 AND EQ PUSH2 0x3060 JUMPI PUSH1 0x80 PUSH16 0xFF2EA16466C96A3843EC78B326B52861 DUP3 PUSH2 0x305B SWAP2 SWAP1 PUSH2 0x6572 JUMP JUMPDEST SWAP1 SHR SWAP1 POP JUMPDEST PUSH1 0x0 PUSH1 0x80 DUP4 AND EQ PUSH2 0x308E JUMPI PUSH1 0x80 PUSH16 0xFE5DEE046A99A2A811C461F1969C3053 DUP3 PUSH2 0x3089 SWAP2 SWAP1 PUSH2 0x6572 JUMP JUMPDEST SWAP1 SHR SWAP1 POP JUMPDEST PUSH1 0x0 PUSH2 0x100 DUP4 AND EQ PUSH2 0x30BD JUMPI PUSH1 0x80 PUSH16 0xFCBE86C7900A88AEDCFFC83B479AA3A4 DUP3 PUSH2 0x30B8 SWAP2 SWAP1 PUSH2 0x6572 JUMP JUMPDEST SWAP1 SHR SWAP1 POP JUMPDEST PUSH1 0x0 PUSH2 0x200 DUP4 AND EQ PUSH2 0x30EC JUMPI PUSH1 0x80 PUSH16 0xF987A7253AC413176F2B074CF7815E54 DUP3 PUSH2 0x30E7 SWAP2 SWAP1 PUSH2 0x6572 JUMP JUMPDEST SWAP1 SHR SWAP1 POP JUMPDEST PUSH1 0x0 PUSH2 0x400 DUP4 AND EQ PUSH2 0x311B JUMPI PUSH1 0x80 PUSH16 0xF3392B0822B70005940C7A398E4B70F3 DUP3 PUSH2 0x3116 SWAP2 SWAP1 PUSH2 0x6572 JUMP JUMPDEST SWAP1 SHR SWAP1 POP JUMPDEST PUSH1 0x0 PUSH2 0x800 DUP4 AND EQ PUSH2 0x314A JUMPI PUSH1 0x80 PUSH16 0xE7159475A2C29B7443B29C7FA6E889D9 DUP3 PUSH2 0x3145 SWAP2 SWAP1 PUSH2 0x6572 JUMP JUMPDEST SWAP1 SHR SWAP1 POP JUMPDEST PUSH1 0x0 PUSH2 0x1000 DUP4 AND EQ PUSH2 0x3179 JUMPI PUSH1 0x80 PUSH16 0xD097F3BDFD2022B8845AD8F792AA5825 DUP3 PUSH2 0x3174 SWAP2 SWAP1 PUSH2 0x6572 JUMP JUMPDEST SWAP1 SHR SWAP1 POP JUMPDEST PUSH1 0x0 PUSH2 0x2000 DUP4 AND EQ PUSH2 0x31A8 JUMPI PUSH1 0x80 PUSH16 0xA9F746462D870FDF8A65DC1F90E061E5 DUP3 PUSH2 0x31A3 SWAP2 SWAP1 PUSH2 0x6572 JUMP JUMPDEST SWAP1 SHR SWAP1 POP JUMPDEST PUSH1 0x0 PUSH2 0x4000 DUP4 AND EQ PUSH2 0x31D7 JUMPI PUSH1 0x80 PUSH16 0x70D869A156D2A1B890BB3DF62BAF32F7 DUP3 PUSH2 0x31D2 SWAP2 SWAP1 PUSH2 0x6572 JUMP JUMPDEST SWAP1 SHR SWAP1 POP JUMPDEST PUSH1 0x0 PUSH2 0x8000 DUP4 AND EQ PUSH2 0x3206 JUMPI PUSH1 0x80 PUSH16 0x31BE135F97D08FD981231505542FCFA6 DUP3 PUSH2 0x3201 SWAP2 SWAP1 PUSH2 0x6572 JUMP JUMPDEST SWAP1 SHR SWAP1 POP JUMPDEST PUSH1 0x0 PUSH3 0x10000 DUP4 AND EQ PUSH2 0x3236 JUMPI PUSH1 0x80 PUSH16 0x9AA508B5B7A84E1C677DE54F3E99BC9 DUP3 PUSH2 0x3231 SWAP2 SWAP1 PUSH2 0x6572 JUMP JUMPDEST SWAP1 SHR SWAP1 POP JUMPDEST PUSH1 0x0 PUSH3 0x20000 DUP4 AND EQ PUSH2 0x3265 JUMPI PUSH1 0x80 PUSH15 0x5D6AF8DEDB81196699C329225EE604 DUP3 PUSH2 0x3260 SWAP2 SWAP1 PUSH2 0x6572 JUMP JUMPDEST SWAP1 SHR SWAP1 POP JUMPDEST PUSH1 0x0 PUSH3 0x40000 DUP4 AND EQ PUSH2 0x3293 JUMPI PUSH1 0x80 PUSH14 0x2216E584F5FA1EA926041BEDFE98 DUP3 PUSH2 0x328E SWAP2 SWAP1 PUSH2 0x6572 JUMP JUMPDEST SWAP1 SHR SWAP1 POP JUMPDEST PUSH1 0x0 PUSH3 0x80000 DUP4 AND EQ PUSH2 0x32BF JUMPI PUSH1 0x80 PUSH12 0x48A170391F7DC42444E8FA2 DUP3 PUSH2 0x32BA SWAP2 SWAP1 PUSH2 0x6572 JUMP JUMPDEST SWAP1 SHR SWAP1 POP JUMPDEST PUSH1 0x0 DUP5 PUSH1 0x2 SIGNEXTEND SGT ISZERO PUSH2 0x32FA JUMPI DUP1 PUSH32 0xFFFFFFFFFFFFFFFFFFFFFFFFFFFFFFFFFFFFFFFFFFFFFFFFFFFFFFFFFFFFFFFF PUSH2 0x32F7 SWAP2 SWAP1 PUSH2 0x65B4 JUMP JUMPDEST SWAP1 POP JUMPDEST PUSH1 0x0 PUSH5 0x100000000 DUP3 PUSH2 0x330D SWAP2 SWAP1 PUSH2 0x65E5 JUMP JUMPDEST EQ PUSH2 0x3319 JUMPI PUSH1 0x1 PUSH2 0x331C JUMP JUMPDEST PUSH1 0x0 JUMPDEST PUSH1 0xFF AND PUSH1 0x20 DUP3 SWAP1 SHR PUSH2 0x332E SWAP2 SWAP1 PUSH2 0x5D76 JUMP JUMPDEST SWAP3 POP POP POP SWAP2 SWAP1 POP JUMP JUMPDEST PUSH1 0x0 DUP1 PUSH1 0x0 DUP1 PUSH1 0x0 DUP9 PUSH20 0xFFFFFFFFFFFFFFFFFFFFFFFFFFFFFFFFFFFFFFFF AND DUP11 PUSH20 0xFFFFFFFFFFFFFFFFFFFFFFFFFFFFFFFFFFFFFFFF AND LT ISZERO SWAP1 POP PUSH1 0x0 PUSH2 0x3394 DUP9 DUP9 PUSH3 0xF4240 PUSH2 0x3386 SWAP2 SWAP1 PUSH2 0x6616 JUMP JUMPDEST PUSH3 0xFFFFFF AND PUSH3 0xF4240 PUSH2 0x34BB JUMP JUMPDEST SWAP1 POP DUP2 PUSH2 0x33AD JUMPI PUSH2 0x33A8 DUP12 DUP12 DUP12 PUSH1 0x1 PUSH2 0x475F JUMP JUMPDEST PUSH2 0x33BB JUMP JUMPDEST PUSH2 0x33BA DUP12 DUP12 DUP12 PUSH1 0x1 PUSH2 0x484E JUMP JUMPDEST JUMPDEST SWAP5 POP DUP5 DUP2 LT PUSH2 0x33CC JUMPI DUP10 SWAP6 POP PUSH2 0x33DB JUMP JUMPDEST PUSH2 0x33D8 DUP12 DUP11 DUP4 DUP6 PUSH2 0x4992 JUMP JUMPDEST SWAP6 POP JUMPDEST PUSH1 0x0 DUP11 PUSH20 0xFFFFFFFFFFFFFFFFFFFFFFFFFFFFFFFFFFFFFFFF AND DUP8 PUSH20 0xFFFFFFFFFFFFFFFFFFFFFFFFFFFFFFFFFFFFFFFF AND EQ SWAP1 POP DUP3 ISZERO PUSH2 0x3443 JUMPI DUP1 PUSH2 0x342B JUMPI PUSH2 0x3426 DUP13 DUP9 DUP13 PUSH1 0x1 PUSH2 0x484E JUMP JUMPDEST PUSH2 0x342D JUMP JUMPDEST DUP6 JUMPDEST SWAP6 POP PUSH2 0x343C DUP13 DUP9 DUP13 PUSH1 0x0 PUSH2 0x475F JUMP JUMPDEST SWAP5 POP PUSH2 0x346E JUMP JUMPDEST DUP1 PUSH2 0x345A JUMPI PUSH2 0x3455 DUP13 DUP9 DUP13 PUSH1 0x1 PUSH2 0x475F JUMP JUMPDEST PUSH2 0x345C JUMP JUMPDEST DUP6 JUMPDEST SWAP6 POP PUSH2 0x346B DUP13 DUP9 DUP13 PUSH1 0x0 PUSH2 0x484E JUMP JUMPDEST SWAP5 POP JUMPDEST DUP1 PUSH2 0x3486 JUMPI DUP6 DUP10 PUSH2 0x347F SWAP2 SWAP1 PUSH2 0x6086 JUMP JUMPDEST SWAP4 POP PUSH2 0x34AC JUMP JUMPDEST PUSH2 0x34A9 DUP7 DUP10 PUSH3 0xFFFFFF AND DUP11 PUSH3 0xF4240 PUSH2 0x349F SWAP2 SWAP1 PUSH2 0x6616 JUMP JUMPDEST PUSH3 0xFFFFFF AND PUSH2 0x2B00 JUMP JUMPDEST SWAP4 POP JUMPDEST POP POP POP SWAP6 POP SWAP6 POP SWAP6 POP SWAP6 SWAP2 POP POP JUMP JUMPDEST PUSH1 0x0 DUP1 PUSH1 0x0 DUP1 NOT DUP6 DUP8 MULMOD DUP6 DUP8 MUL SWAP3 POP DUP3 DUP2 LT DUP4 DUP3 SUB SUB SWAP2 POP POP PUSH1 0x0 DUP2 SUB PUSH2 0x34F6 JUMPI DUP4 DUP3 DUP2 PUSH2 0x34EC JUMPI PUSH2 0x34EB PUSH2 0x61D7 JUMP JUMPDEST JUMPDEST DIV SWAP3 POP POP POP PUSH2 0x35C9 JUMP JUMPDEST DUP4 DUP2 LT PUSH2 0x353C JUMPI DUP1 DUP5 PUSH1 0x40 MLOAD PUSH32 0x773CC18C00000000000000000000000000000000000000000000000000000000 DUP2 MSTORE PUSH1 0x4 ADD PUSH2 0x3533 SWAP3 SWAP2 SWAP1 PUSH2 0x55B4 JUMP JUMPDEST PUSH1 0x40 MLOAD DUP1 SWAP2 SUB SWAP1 REVERT JUMPDEST PUSH1 0x0 DUP5 DUP7 DUP9 MULMOD SWAP1 POP DUP3 DUP2 GT DUP3 SUB SWAP2 POP DUP1 DUP4 SUB SWAP3 POP PUSH1 0x0 PUSH1 0x1 DUP7 NOT ADD DUP7 AND SWAP1 POP DUP1 DUP7 DIV SWAP6 POP DUP1 DUP5 DIV SWAP4 POP PUSH1 0x1 DUP2 DUP3 PUSH1 0x0 SUB DIV ADD SWAP1 POP DUP1 DUP4 MUL DUP5 OR SWAP4 POP PUSH1 0x0 PUSH1 0x2 DUP8 PUSH1 0x3 MUL XOR SWAP1 POP DUP1 DUP8 MUL PUSH1 0x2 SUB DUP2 MUL SWAP1 POP DUP1 DUP8 MUL PUSH1 0x2 SUB DUP2 MUL SWAP1 POP DUP1 DUP8 MUL PUSH1 0x2 SUB DUP2 MUL SWAP1 POP DUP1 DUP8 MUL PUSH1 0x2 SUB DUP2 MUL SWAP1 POP DUP1 DUP8 MUL PUSH1 0x2 SUB DUP2 MUL SWAP1 POP DUP1 DUP8 MUL PUSH1 0x2 SUB DUP2 MUL SWAP1 POP DUP1 DUP6 MUL SWAP6 POP POP POP POP POP POP JUMPDEST SWAP4 SWAP3 POP POP POP JUMP JUMPDEST PUSH1 0x0 DUP1 DUP6 PUSH1 0x0 DUP7 PUSH1 0x2 SIGNEXTEND PUSH1 0x2 SIGNEXTEND DUP2 MSTORE PUSH1 0x20 ADD SWAP1 DUP2 MSTORE PUSH1 0x20 ADD PUSH1 0x0 KECCAK256 SWAP1 POP DUP1 PUSH1 0x2 ADD SLOAD DUP5 PUSH2 0x35FD SWAP2 SWAP1 PUSH2 0x6086 JUMP JUMPDEST DUP2 PUSH1 0x2 ADD DUP2 SWAP1 SSTORE POP DUP1 PUSH1 0x3 ADD SLOAD DUP4 PUSH2 0x3615 SWAP2 SWAP1 PUSH2 0x6086 JUMP JUMPDEST DUP2 PUSH1 0x3 ADD DUP2 SWAP1 SSTORE POP DUP1 PUSH1 0x1 ADD PUSH1 0x0 SWAP1 SLOAD SWAP1 PUSH2 0x100 EXP SWAP1 DIV PUSH1 0xF SIGNEXTEND SWAP2 POP POP SWAP5 SWAP4 POP POP POP POP JUMP JUMPDEST PUSH1 0x0 DUP1 DUP3 PUSH1 0xF SIGNEXTEND SLT ISZERO PUSH2 0x3663 JUMPI DUP2 PUSH2 0x3651 SWAP1 PUSH2 0x5F7B JUMP JUMPDEST DUP4 PUSH2 0x365C SWAP2 SWAP1 PUSH2 0x5E9C JUMP JUMPDEST SWAP1 POP PUSH2 0x3672 JUMP JUMPDEST DUP2 DUP4 PUSH2 0x366F SWAP2 SWAP1 PUSH2 0x600B JUMP JUMPDEST SWAP1 POP JUMPDEST SWAP3 SWAP2 POP POP JUMP JUMPDEST PUSH1 0x0 PUSH5 0x1000276A3 PUSH20 0xFFFFFFFFFFFFFFFFFFFFFFFFFFFFFFFFFFFFFFFF AND DUP3 PUSH20 0xFFFFFFFFFFFFFFFFFFFFFFFFFFFFFFFFFFFFFFFF AND LT ISZERO DUP1 ISZERO PUSH2 0x36FA JUMPI POP PUSH20 0xFFFD8963EFD1FC6A506488495D951D5263988D26 PUSH20 0xFFFFFFFFFFFFFFFFFFFFFFFFFFFFFFFFFFFFFFFF AND DUP3 PUSH20 0xFFFFFFFFFFFFFFFFFFFFFFFFFFFFFFFFFFFFFFFF AND LT JUMPDEST PUSH2 0x3739 JUMPI PUSH1 0x40 MLOAD PUSH32 0x8C379A000000000000000000000000000000000000000000000000000000000 DUP2 MSTORE PUSH1 0x4 ADD PUSH2 0x3730 SWAP1 PUSH2 0x6699 JUMP JUMPDEST PUSH1 0x40 MLOAD DUP1 SWAP2 SUB SWAP1 REVERT JUMPDEST PUSH1 0x0 PUSH1 0x20 DUP4 PUSH20 0xFFFFFFFFFFFFFFFFFFFFFFFFFFFFFFFFFFFFFFFF AND SWAP1 SHL SWAP1 POP PUSH1 0x0 DUP2 SWAP1 POP PUSH1 0x0 PUSH16 0xFFFFFFFFFFFFFFFFFFFFFFFFFFFFFFFF DUP3 GT PUSH1 0x7 SHL DUP1 DUP3 OR SWAP2 POP DUP3 DUP2 SHR SWAP3 POP POP PUSH8 0xFFFFFFFFFFFFFFFF DUP3 GT PUSH1 0x6 SHL DUP1 DUP3 OR SWAP2 POP DUP3 DUP2 SHR SWAP3 POP POP PUSH4 0xFFFFFFFF DUP3 GT PUSH1 0x5 SHL DUP1 DUP3 OR SWAP2 POP DUP3 DUP2 SHR SWAP3 POP POP PUSH2 0xFFFF DUP3 GT PUSH1 0x4 SHL DUP1 DUP3 OR SWAP2 POP DUP3 DUP2 SHR SWAP3 POP POP PUSH1 0xFF DUP3 GT PUSH1 0x3 SHL DUP1 DUP3 OR SWAP2 POP DUP3 DUP2 SHR SWAP3 POP POP PUSH1 0xF DUP3 GT PUSH1 0x2 SHL DUP1 DUP3 OR SWAP2 POP DUP3 DUP2 SHR SWAP3 POP POP PUSH1 0x3 DUP3 GT PUSH1 0x1 SHL DUP1 DUP3 OR SWAP2 POP DUP3 DUP2 SHR SWAP3 POP POP PUSH1 0x1 DUP3 GT DUP1 DUP3 OR SWAP2 POP POP PUSH1 0x80 DUP2 LT PUSH2 0x3820 JUMPI PUSH1 0x7F DUP2 PUSH2 0x3816 SWAP2 SWAP1 PUSH2 0x6086 JUMP JUMPDEST DUP4 SWAP1 SHR SWAP2 POP PUSH2 0x3833 JUMP JUMPDEST DUP1 PUSH1 0x7F PUSH2 0x382D SWAP2 SWAP1 PUSH2 0x6086 JUMP JUMPDEST DUP4 SWAP1 SHL SWAP2 POP JUMPDEST PUSH1 0x0 PUSH1 0x40 PUSH1 0x80 DUP4 PUSH2 0x3844 SWAP2 SWAP1 PUSH2 0x66B9 JUMP JUMPDEST SWAP1 SHL SWAP1 POP DUP3 DUP4 MUL PUSH1 0x7F SHR SWAP3 POP DUP3 PUSH1 0x80 SHR DUP1 PUSH1 0x3F SHL DUP3 OR SWAP2 POP DUP4 DUP2 SHR SWAP4 POP POP DUP3 DUP4 MUL PUSH1 0x7F SHR SWAP3 POP DUP3 PUSH1 0x80 SHR DUP1 PUSH1 0x3E SHL DUP3 OR SWAP2 POP DUP4 DUP2 SHR SWAP4 POP POP DUP3 DUP4 MUL PUSH1 0x7F SHR SWAP3 POP DUP3 PUSH1 0x80 SHR DUP1 PUSH1 0x3D SHL DUP3 OR SWAP2 POP DUP4 DUP2 SHR SWAP4 POP POP DUP3 DUP4 MUL PUSH1 0x7F SHR SWAP3 POP DUP3 PUSH1 0x80 SHR DUP1 PUSH1 0x3C SHL DUP3 OR SWAP2 POP DUP4 DUP2 SHR SWAP4 POP POP DUP3 DUP4 MUL PUSH1 0x7F SHR SWAP3 POP DUP3 PUSH1 0x80 SHR DUP1 PUSH1 0x3B SHL DUP3 OR SWAP2 POP DUP4 DUP2 SHR SWAP4 POP POP DUP3 DUP4 MUL PUSH1 0x7F SHR SWAP3 POP DUP3 PUSH1 0x80 SHR DUP1 PUSH1 0x3A SHL DUP3 OR SWAP2 POP DUP4 DUP2 SHR SWAP4 POP POP DUP3 DUP4 MUL PUSH1 0x7F SHR SWAP3 POP DUP3 PUSH1 0x80 SHR DUP1 PUSH1 0x39 SHL DUP3 OR SWAP2 POP DUP4 DUP2 SHR SWAP4 POP POP DUP3 DUP4 MUL PUSH1 0x7F SHR SWAP3 POP DUP3 PUSH1 0x80 SHR DUP1 PUSH1 0x38 SHL DUP3 OR SWAP2 POP DUP4 DUP2 SHR SWAP4 POP POP DUP3 DUP4 MUL PUSH1 0x7F SHR SWAP3 POP DUP3 PUSH1 0x80 SHR DUP1 PUSH1 0x37 SHL DUP3 OR SWAP2 POP DUP4 DUP2 SHR SWAP4 POP POP DUP3 DUP4 MUL PUSH1 0x7F SHR SWAP3 POP DUP3 PUSH1 0x80 SHR DUP1 PUSH1 0x36 SHL DUP3 OR SWAP2 POP DUP4 DUP2 SHR SWAP4 POP POP DUP3 DUP4 MUL PUSH1 0x7F SHR SWAP3 POP DUP3 PUSH1 0x80 SHR DUP1 PUSH1 0x35 SHL DUP3 OR SWAP2 POP DUP4 DUP2 SHR SWAP4 POP POP DUP3 DUP4 MUL PUSH1 0x7F SHR SWAP3 POP DUP3 PUSH1 0x80 SHR DUP1 PUSH1 0x34 SHL DUP3 OR SWAP2 POP DUP4 DUP2 SHR SWAP4 POP POP DUP3 DUP4 MUL PUSH1 0x7F SHR SWAP3 POP DUP3 PUSH1 0x80 SHR DUP1 PUSH1 0x33 SHL DUP3 OR SWAP2 POP DUP4 DUP2 SHR SWAP4 POP POP DUP3 DUP4 MUL PUSH1 0x7F SHR SWAP3 POP DUP3 PUSH1 0x80 SHR DUP1 PUSH1 0x32 SHL DUP3 OR SWAP2 POP POP PUSH1 0x0 PUSH10 0x3627A301D71055774C85 DUP3 PUSH2 0x39C7 SWAP2 SWAP1 PUSH2 0x66FC JUMP JUMPDEST SWAP1 POP PUSH1 0x0 PUSH1 0x80 PUSH16 0x28F6481AB7F045A5AF012A19D003AAA DUP4 PUSH2 0x39E9 SWAP2 SWAP1 PUSH2 0x66B9 JUMP JUMPDEST SWAP1 SAR SWAP1 POP PUSH1 0x0 PUSH1 0x80 PUSH16 0xDB2DF09E81959A81455E260799A0632F DUP5 PUSH2 0x3A0D SWAP2 SWAP1 PUSH2 0x6774 JUMP JUMPDEST SWAP1 SAR SWAP1 POP DUP1 PUSH1 0x2 SIGNEXTEND DUP3 PUSH1 0x2 SIGNEXTEND EQ PUSH2 0x3A67 JUMPI DUP9 PUSH20 0xFFFFFFFFFFFFFFFFFFFFFFFFFFFFFFFFFFFFFFFF AND PUSH2 0x3A3E DUP3 PUSH2 0x2E6A JUMP JUMPDEST PUSH20 0xFFFFFFFFFFFFFFFFFFFFFFFFFFFFFFFFFFFFFFFF AND GT ISZERO PUSH2 0x3A60 JUMPI DUP2 PUSH2 0x3A62 JUMP JUMPDEST DUP1 JUMPDEST PUSH2 0x3A69 JUMP JUMPDEST DUP2 JUMPDEST SWAP8 POP POP POP POP POP POP POP POP SWAP2 SWAP1 POP JUMP JUMPDEST PUSH1 0x0 DUP1 PUSH1 0x0 DUP9 DUP9 PUSH2 0xFFFF AND PUSH2 0xFFFF DUP2 LT PUSH2 0x3A94 JUMPI PUSH2 0x3A93 PUSH2 0x61A8 JUMP JUMPDEST JUMPDEST ADD PUSH1 0x40 MLOAD DUP1 PUSH1 0x60 ADD PUSH1 0x40 MSTORE SWAP1 DUP2 PUSH1 0x0 DUP3 ADD PUSH1 0x0 SWAP1 SLOAD SWAP1 PUSH2 0x100 EXP SWAP1 DIV PUSH4 0xFFFFFFFF AND PUSH4 0xFFFFFFFF AND PUSH4 0xFFFFFFFF AND DUP2 MSTORE PUSH1 0x20 ADD PUSH1 0x0 DUP3 ADD PUSH1 0x4 SWAP1 SLOAD SWAP1 PUSH2 0x100 EXP SWAP1 DIV PUSH1 0x6 SIGNEXTEND PUSH1 0x6 SIGNEXTEND PUSH1 0x6 SIGNEXTEND DUP2 MSTORE PUSH1 0x20 ADD PUSH1 0x0 DUP3 ADD PUSH1 0xB SWAP1 SLOAD SWAP1 PUSH2 0x100 EXP SWAP1 DIV PUSH1 0xFF AND ISZERO ISZERO ISZERO ISZERO DUP2 MSTORE POP POP SWAP1 POP DUP7 PUSH4 0xFFFFFFFF AND DUP2 PUSH1 0x0 ADD MLOAD PUSH4 0xFFFFFFFF AND SUB PUSH2 0x3B23 JUMPI DUP8 DUP6 SWAP3 POP SWAP3 POP POP PUSH2 0x3C18 JUMP JUMPDEST DUP5 PUSH2 0xFFFF AND DUP5 PUSH2 0xFFFF AND GT DUP1 ISZERO PUSH2 0x3B4D JUMPI POP PUSH1 0x1 DUP6 PUSH2 0x3B42 SWAP2 SWAP1 PUSH2 0x67B8 JUMP JUMPDEST PUSH2 0xFFFF AND DUP9 PUSH2 0xFFFF AND EQ JUMPDEST ISZERO PUSH2 0x3B5A JUMPI DUP4 SWAP2 POP PUSH2 0x3B5E JUMP JUMPDEST DUP5 SWAP2 POP JUMPDEST DUP2 PUSH1 0x1 DUP10 PUSH2 0x3B6C SWAP2 SWAP1 PUSH2 0x67EE JUMP JUMPDEST PUSH2 0x3B76 SWAP2 SWAP1 PUSH2 0x6824 JUMP JUMPDEST SWAP3 POP PUSH2 0x3B83 DUP2 DUP9 DUP9 PUSH2 0x49BF JUMP JUMPDEST DUP10 DUP5 PUSH2 0xFFFF AND PUSH2 0xFFFF DUP2 LT PUSH2 0x3B9B JUMPI PUSH2 0x3B9A PUSH2 0x61A8 JUMP JUMPDEST JUMPDEST ADD PUSH1 0x0 DUP3 ADD MLOAD DUP2 PUSH1 0x0 ADD PUSH1 0x0 PUSH2 0x100 EXP DUP2 SLOAD DUP2 PUSH4 0xFFFFFFFF MUL NOT AND SWAP1 DUP4 PUSH4 0xFFFFFFFF AND MUL OR SWAP1 SSTORE POP PUSH1 0x20 DUP3 ADD MLOAD DUP2 PUSH1 0x0 ADD PUSH1 0x4 PUSH2 0x100 EXP DUP2 SLOAD DUP2 PUSH7 0xFFFFFFFFFFFFFF MUL NOT AND SWAP1 DUP4 PUSH1 0x6 SIGNEXTEND PUSH7 0xFFFFFFFFFFFFFF AND MUL OR SWAP1 SSTORE POP PUSH1 0x40 DUP3 ADD MLOAD DUP2 PUSH1 0x0 ADD PUSH1 0xB PUSH2 0x100 EXP DUP2 SLOAD DUP2 PUSH1 0xFF MUL NOT AND SWAP1 DUP4 ISZERO ISZERO MUL OR SWAP1 SSTORE POP SWAP1 POP POP POP JUMPDEST SWAP7 POP SWAP7 SWAP5 POP POP POP POP POP JUMP JUMPDEST PUSH1 0x0 DUP1 PUSH1 0x40 MLOAD DUP1 PUSH1 0x60 ADD PUSH1 0x40 MSTORE DUP1 DUP5 PUSH4 0xFFFFFFFF AND DUP2 MSTORE PUSH1 0x20 ADD PUSH1 0x0 PUSH1 0x6 SIGNEXTEND DUP2 MSTORE PUSH1 0x20 ADD PUSH1 0x1 ISZERO ISZERO DUP2 MSTORE POP DUP5 PUSH1 0x0 PUSH2 0xFFFF DUP2 LT PUSH2 0x3C63 JUMPI PUSH2 0x3C62 PUSH2 0x61A8 JUMP JUMPDEST JUMPDEST ADD PUSH1 0x0 DUP3 ADD MLOAD DUP2 PUSH1 0x0 ADD PUSH1 0x0 PUSH2 0x100 EXP DUP2 SLOAD DUP2 PUSH4 0xFFFFFFFF MUL NOT AND SWAP1 DUP4 PUSH4 0xFFFFFFFF AND MUL OR SWAP1 SSTORE POP PUSH1 0x20 DUP3 ADD MLOAD DUP2 PUSH1 0x0 ADD PUSH1 0x4 PUSH2 0x100 EXP DUP2 SLOAD DUP2 PUSH7 0xFFFFFFFFFFFFFF MUL NOT AND SWAP1 DUP4 PUSH1 0x6 SIGNEXTEND PUSH7 0xFFFFFFFFFFFFFF AND MUL OR SWAP1 SSTORE POP PUSH1 0x40 DUP3 ADD MLOAD DUP2 PUSH1 0x0 ADD PUSH1 0xB PUSH2 0x100 EXP DUP2 SLOAD DUP2 PUSH1 0xFF MUL NOT AND SWAP1 DUP4 ISZERO ISZERO MUL OR SWAP1 SSTORE POP SWAP1 POP POP PUSH1 0x1 SWAP2 POP PUSH1 0x1 SWAP1 POP SWAP3 POP SWAP3 SWAP1 POP JUMP JUMPDEST PUSH1 0x0 DUP1 DUP9 PUSH1 0x0 DUP10 PUSH1 0x2 SIGNEXTEND PUSH1 0x2 SIGNEXTEND DUP2 MSTORE PUSH1 0x20 ADD SWAP1 DUP2 MSTORE PUSH1 0x20 ADD PUSH1 0x0 KECCAK256 SWAP1 POP PUSH1 0x0 DUP2 PUSH1 0x0 ADD PUSH1 0x1 SWAP1 SLOAD SWAP1 PUSH2 0x100 EXP SWAP1 DIV PUSH16 0xFFFFFFFFFFFFFFFFFFFFFFFFFFFFFFFF AND SWAP1 POP PUSH1 0x0 PUSH2 0x3D3B DUP3 DUP10 PUSH2 0x363A JUMP JUMPDEST SWAP1 POP PUSH1 0x0 DUP3 PUSH16 0xFFFFFFFFFFFFFFFFFFFFFFFFFFFFFFFF AND EQ ISZERO ISZERO PUSH1 0x0 DUP3 PUSH16 0xFFFFFFFFFFFFFFFFFFFFFFFFFFFFFFFF AND EQ ISZERO ISZERO EQ ISZERO SWAP4 POP PUSH1 0x0 DUP3 PUSH16 0xFFFFFFFFFFFFFFFFFFFFFFFFFFFFFFFF AND SUB PUSH2 0x3DC9 JUMPI DUP9 PUSH1 0x2 SIGNEXTEND DUP11 PUSH1 0x2 SIGNEXTEND SGT PUSH2 0x3DAB JUMPI DUP7 DUP4 PUSH1 0x2 ADD DUP2 SWAP1 SSTORE POP DUP6 DUP4 PUSH1 0x3 ADD DUP2 SWAP1 SSTORE POP JUMPDEST PUSH1 0x1 DUP4 PUSH1 0x0 ADD PUSH1 0x0 PUSH2 0x100 EXP DUP2 SLOAD DUP2 PUSH1 0xFF MUL NOT AND SWAP1 DUP4 ISZERO ISZERO MUL OR SWAP1 SSTORE POP JUMPDEST DUP1 DUP4 PUSH1 0x0 ADD PUSH1 0x1 PUSH2 0x100 EXP DUP2 SLOAD DUP2 PUSH16 0xFFFFFFFFFFFFFFFFFFFFFFFFFFFFFFFF MUL NOT AND SWAP1 DUP4 PUSH16 0xFFFFFFFFFFFFFFFFFFFFFFFFFFFFFFFF AND MUL OR SWAP1 SSTORE POP DUP5 PUSH2 0x3E31 JUMPI DUP8 PUSH1 0xF SIGNEXTEND DUP4 PUSH1 0x1 ADD PUSH1 0x0 SWAP1 SLOAD SWAP1 PUSH2 0x100 EXP SWAP1 DIV PUSH1 0xF SIGNEXTEND PUSH1 0xF SIGNEXTEND PUSH2 0x3E2C SWAP2 SWAP1 PUSH2 0x6774 JUMP JUMPDEST PUSH2 0x3E55 JUMP JUMPDEST DUP8 PUSH1 0xF SIGNEXTEND DUP4 PUSH1 0x1 ADD PUSH1 0x0 SWAP1 SLOAD SWAP1 PUSH2 0x100 EXP SWAP1 DIV PUSH1 0xF SIGNEXTEND PUSH1 0xF SIGNEXTEND PUSH2 0x3E54 SWAP2 SWAP1 PUSH2 0x66B9 JUMP JUMPDEST JUMPDEST DUP4 PUSH1 0x1 ADD PUSH1 0x0 PUSH2 0x100 EXP DUP2 SLOAD DUP2 PUSH16 0xFFFFFFFFFFFFFFFFFFFFFFFFFFFFFFFF MUL NOT AND SWAP1 DUP4 PUSH1 0xF SIGNEXTEND PUSH16 0xFFFFFFFFFFFFFFFFFFFFFFFFFFFFFFFF AND MUL OR SWAP1 SSTORE POP POP POP POP SWAP8 SWAP7 POP POP POP POP POP POP POP JUMP JUMPDEST PUSH1 0x0 DUP2 DUP4 PUSH2 0x3EAE SWAP2 SWAP1 PUSH2 0x63A2 JUMP JUMPDEST PUSH1 0x2 SIGNEXTEND EQ PUSH2 0x3EBB JUMPI PUSH1 0x0 DUP1 REVERT JUMPDEST PUSH1 0x0 DUP1 PUSH2 0x3ED2 DUP4 DUP6 PUSH2 0x3ECD SWAP2 SWAP1 PUSH2 0x6338 JUMP JUMPDEST PUSH2 0x44AB JUMP JUMPDEST SWAP2 POP SWAP2 POP PUSH1 0x0 DUP2 PUSH1 0xFF AND PUSH1 0x1 SWAP1 SHL SWAP1 POP DUP1 DUP7 PUSH1 0x0 DUP6 PUSH1 0x1 SIGNEXTEND PUSH1 0x1 SIGNEXTEND DUP2 MSTORE PUSH1 0x20 ADD SWAP1 DUP2 MSTORE PUSH1 0x20 ADD PUSH1 0x0 KECCAK256 PUSH1 0x0 DUP3 DUP3 SLOAD XOR SWAP3 POP POP DUP2 SWAP1 SSTORE POP POP POP POP POP POP POP JUMP JUMPDEST PUSH1 0x0 DUP1 PUSH1 0x0 DUP9 PUSH1 0x0 DUP10 PUSH1 0x2 SIGNEXTEND PUSH1 0x2 SIGNEXTEND DUP2 MSTORE PUSH1 0x20 ADD SWAP1 DUP2 MSTORE PUSH1 0x20 ADD PUSH1 0x0 KECCAK256 SWAP1 POP PUSH1 0x0 DUP10 PUSH1 0x0 DUP10 PUSH1 0x2 SIGNEXTEND PUSH1 0x2 SIGNEXTEND DUP2 MSTORE PUSH1 0x20 ADD SWAP1 DUP2 MSTORE PUSH1 0x20 ADD PUSH1 0x0 KECCAK256 SWAP1 POP PUSH1 0x0 DUP1 DUP11 PUSH1 0x2 SIGNEXTEND DUP10 PUSH1 0x2 SIGNEXTEND SLT PUSH2 0x3F6E JUMPI DUP4 PUSH1 0x2 ADD SLOAD SWAP2 POP DUP4 PUSH1 0x3 ADD SLOAD SWAP1 POP PUSH2 0x3F93 JUMP JUMPDEST DUP4 PUSH1 0x2 ADD SLOAD DUP9 PUSH2 0x3F7E SWAP2 SWAP1 PUSH2 0x6086 JUMP JUMPDEST SWAP2 POP DUP4 PUSH1 0x3 ADD SLOAD DUP8 PUSH2 0x3F90 SWAP2 SWAP1 PUSH2 0x6086 JUMP JUMPDEST SWAP1 POP JUMPDEST PUSH1 0x0 DUP1 DUP12 PUSH1 0x2 SIGNEXTEND DUP12 PUSH1 0x2 SIGNEXTEND SLT ISZERO PUSH2 0x3FB7 JUMPI DUP5 PUSH1 0x2 ADD SLOAD SWAP2 POP DUP5 PUSH1 0x3 ADD SLOAD SWAP1 POP PUSH2 0x3FDC JUMP JUMPDEST DUP5 PUSH1 0x2 ADD SLOAD DUP11 PUSH2 0x3FC7 SWAP2 SWAP1 PUSH2 0x6086 JUMP JUMPDEST SWAP2 POP DUP5 PUSH1 0x3 ADD SLOAD DUP10 PUSH2 0x3FD9 SWAP2 SWAP1 PUSH2 0x6086 JUMP JUMPDEST SWAP1 POP JUMPDEST DUP2 DUP5 DUP12 PUSH2 0x3FE9 SWAP2 SWAP1 PUSH2 0x6086 JUMP JUMPDEST PUSH2 0x3FF3 SWAP2 SWAP1 PUSH2 0x6086 JUMP JUMPDEST SWAP8 POP DUP1 DUP4 DUP11 PUSH2 0x4002 SWAP2 SWAP1 PUSH2 0x6086 JUMP JUMPDEST PUSH2 0x400C SWAP2 SWAP1 PUSH2 0x6086 JUMP JUMPDEST SWAP7 POP POP POP POP POP POP POP SWAP7 POP SWAP7 SWAP5 POP POP POP POP POP JUMP JUMPDEST PUSH1 0x0 PUSH2 0x407E DUP6 PUSH1 0x1 ADD SLOAD DUP5 PUSH2 0x4034 SWAP2 SWAP1 PUSH2 0x6086 JUMP JUMPDEST DUP7 PUSH1 0x0 ADD PUSH1 0x0 SWAP1 SLOAD SWAP1 PUSH2 0x100 EXP SWAP1 DIV PUSH16 0xFFFFFFFFFFFFFFFFFFFFFFFFFFFFFFFF AND PUSH16 0xFFFFFFFFFFFFFFFFFFFFFFFFFFFFFFFF AND PUSH17 0x100000000000000000000000000000000 PUSH2 0x34BB JUMP JUMPDEST SWAP1 POP PUSH1 0x0 PUSH2 0x40DF DUP7 PUSH1 0x2 ADD SLOAD DUP5 PUSH2 0x4095 SWAP2 SWAP1 PUSH2 0x6086 JUMP JUMPDEST DUP8 PUSH1 0x0 ADD PUSH1 0x0 SWAP1 SLOAD SWAP1 PUSH2 0x100 EXP SWAP1 DIV PUSH16 0xFFFFFFFFFFFFFFFFFFFFFFFFFFFFFFFF AND PUSH16 0xFFFFFFFFFFFFFFFFFFFFFFFFFFFFFFFF AND PUSH17 0x100000000000000000000000000000000 PUSH2 0x34BB JUMP JUMPDEST SWAP1 POP PUSH2 0x410B DUP7 PUSH1 0x0 ADD PUSH1 0x0 SWAP1 SLOAD SWAP1 PUSH2 0x100 EXP SWAP1 DIV PUSH16 0xFFFFFFFFFFFFFFFFFFFFFFFFFFFFFFFF AND DUP7 PUSH2 0x363A JUMP JUMPDEST DUP7 PUSH1 0x0 ADD PUSH1 0x0 PUSH2 0x100 EXP DUP2 SLOAD DUP2 PUSH16 0xFFFFFFFFFFFFFFFFFFFFFFFFFFFFFFFF MUL NOT AND SWAP1 DUP4 PUSH16 0xFFFFFFFFFFFFFFFFFFFFFFFFFFFFFFFF AND MUL OR SWAP1 SSTORE POP DUP4 DUP7 PUSH1 0x1 ADD DUP2 SWAP1 SSTORE POP DUP3 DUP7 PUSH1 0x2 ADD DUP2 SWAP1 SSTORE POP PUSH1 0x0 DUP3 PUSH16 0xFFFFFFFFFFFFFFFFFFFFFFFFFFFFFFFF AND GT DUP1 PUSH2 0x418A JUMPI POP PUSH1 0x0 DUP2 PUSH16 0xFFFFFFFFFFFFFFFFFFFFFFFFFFFFFFFF AND GT JUMPDEST ISZERO PUSH2 0x425A JUMPI DUP2 DUP7 PUSH1 0x3 ADD PUSH1 0x0 DUP3 DUP3 DUP3 SWAP1 SLOAD SWAP1 PUSH2 0x100 EXP SWAP1 DIV PUSH16 0xFFFFFFFFFFFFFFFFFFFFFFFFFFFFFFFF AND PUSH2 0x41BE SWAP2 SWAP1 PUSH2 0x600B JUMP JUMPDEST SWAP3 POP PUSH2 0x100 EXP DUP2 SLOAD DUP2 PUSH16 0xFFFFFFFFFFFFFFFFFFFFFFFFFFFFFFFF MUL NOT AND SWAP1 DUP4 PUSH16 0xFFFFFFFFFFFFFFFFFFFFFFFFFFFFFFFF AND MUL OR SWAP1 SSTORE POP DUP1 DUP7 PUSH1 0x3 ADD PUSH1 0x10 DUP3 DUP3 DUP3 SWAP1 SLOAD SWAP1 PUSH2 0x100 EXP SWAP1 DIV PUSH16 0xFFFFFFFFFFFFFFFFFFFFFFFFFFFFFFFF AND PUSH2 0x4223 SWAP2 SWAP1 PUSH2 0x600B JUMP JUMPDEST SWAP3 POP PUSH2 0x100 EXP DUP2 SLOAD DUP2 PUSH16 0xFFFFFFFFFFFFFFFFFFFFFFFFFFFFFFFF MUL NOT AND SWAP1 DUP4 PUSH16 0xFFFFFFFFFFFFFFFFFFFFFFFFFFFFFFFF AND MUL OR SWAP1 SSTORE POP JUMPDEST POP POP POP POP POP POP JUMP JUMPDEST PUSH1 0x0 DUP1 DUP3 PUSH1 0xF SIGNEXTEND SLT PUSH2 0x4280 JUMPI PUSH2 0x427B DUP5 DUP5 DUP5 PUSH1 0x1 PUSH2 0x484E JUMP JUMPDEST PUSH2 0x42A0 JUMP JUMPDEST PUSH2 0x4296 DUP5 DUP5 DUP5 PUSH2 0x428F SWAP1 PUSH2 0x5F7B JUMP JUMPDEST PUSH1 0x0 PUSH2 0x484E JUMP JUMPDEST PUSH2 0x429F SWAP1 PUSH2 0x5FC3 JUMP JUMPDEST JUMPDEST SWAP1 POP SWAP4 SWAP3 POP POP POP JUMP JUMPDEST PUSH1 0x0 DUP1 DUP3 PUSH1 0xF SIGNEXTEND SLT PUSH2 0x42C7 JUMPI PUSH2 0x42C2 DUP5 DUP5 DUP5 PUSH1 0x1 PUSH2 0x475F JUMP JUMPDEST PUSH2 0x42E7 JUMP JUMPDEST PUSH2 0x42DD DUP5 DUP5 DUP5 PUSH2 0x42D6 SWAP1 PUSH2 0x5F7B JUMP JUMPDEST PUSH1 0x0 PUSH2 0x475F JUMP JUMPDEST PUSH2 0x42E6 SWAP1 PUSH2 0x5FC3 JUMP JUMPDEST JUMPDEST SWAP1 POP SWAP4 SWAP3 POP POP POP JUMP JUMPDEST PUSH1 0x0 DUP1 DUP6 PUSH4 0xFFFFFFFF AND SUB PUSH2 0x43B7 JUMPI PUSH1 0x0 DUP8 DUP5 PUSH2 0xFFFF AND PUSH2 0xFFFF DUP2 LT PUSH2 0x4319 JUMPI PUSH2 0x4318 PUSH2 0x61A8 JUMP JUMPDEST JUMPDEST ADD PUSH1 0x40 MLOAD DUP1 PUSH1 0x60 ADD PUSH1 0x40 MSTORE SWAP1 DUP2 PUSH1 0x0 DUP3 ADD PUSH1 0x0 SWAP1 SLOAD SWAP1 PUSH2 0x100 EXP SWAP1 DIV PUSH4 0xFFFFFFFF AND PUSH4 0xFFFFFFFF AND PUSH4 0xFFFFFFFF AND DUP2 MSTORE PUSH1 0x20 ADD PUSH1 0x0 DUP3 ADD PUSH1 0x4 SWAP1 SLOAD SWAP1 PUSH2 0x100 EXP SWAP1 DIV PUSH1 0x6 SIGNEXTEND PUSH1 0x6 SIGNEXTEND PUSH1 0x6 SIGNEXTEND DUP2 MSTORE PUSH1 0x20 ADD PUSH1 0x0 DUP3 ADD PUSH1 0xB SWAP1 SLOAD SWAP1 PUSH2 0x100 EXP SWAP1 DIV PUSH1 0xFF AND ISZERO ISZERO ISZERO ISZERO DUP2 MSTORE POP POP SWAP1 POP DUP7 PUSH4 0xFFFFFFFF AND DUP2 PUSH1 0x0 ADD MLOAD PUSH4 0xFFFFFFFF AND EQ PUSH2 0x43AA JUMPI PUSH2 0x43A7 DUP2 DUP9 DUP8 PUSH2 0x49BF JUMP JUMPDEST SWAP1 POP JUMPDEST DUP1 PUSH1 0x20 ADD MLOAD SWAP2 POP POP PUSH2 0x44A1 JUMP JUMPDEST PUSH1 0x0 DUP6 DUP8 PUSH2 0x43C5 SWAP2 SWAP1 PUSH2 0x6855 JUMP JUMPDEST SWAP1 POP PUSH1 0x0 DUP1 PUSH2 0x43D8 DUP11 DUP11 DUP6 DUP11 DUP11 DUP11 PUSH2 0x4A2F JUMP JUMPDEST SWAP2 POP SWAP2 POP DUP2 PUSH1 0x0 ADD MLOAD PUSH4 0xFFFFFFFF AND DUP4 PUSH4 0xFFFFFFFF AND SUB PUSH2 0x4402 JUMPI DUP2 PUSH1 0x20 ADD MLOAD SWAP4 POP POP POP POP PUSH2 0x44A1 JUMP JUMPDEST DUP1 PUSH1 0x0 ADD MLOAD PUSH4 0xFFFFFFFF AND DUP4 PUSH4 0xFFFFFFFF AND SUB PUSH2 0x4428 JUMPI DUP1 PUSH1 0x20 ADD MLOAD SWAP4 POP POP POP POP PUSH2 0x44A1 JUMP JUMPDEST PUSH1 0x0 DUP3 PUSH1 0x0 ADD MLOAD DUP3 PUSH1 0x0 ADD MLOAD PUSH2 0x443E SWAP2 SWAP1 PUSH2 0x6855 JUMP JUMPDEST PUSH4 0xFFFFFFFF AND SWAP1 POP PUSH1 0x0 DUP4 PUSH1 0x0 ADD MLOAD DUP6 PUSH2 0x4458 SWAP2 SWAP1 PUSH2 0x6855 JUMP JUMPDEST PUSH4 0xFFFFFFFF AND SWAP1 POP DUP1 DUP3 DUP6 PUSH1 0x20 ADD MLOAD DUP6 PUSH1 0x20 ADD MLOAD PUSH2 0x4476 SWAP2 SWAP1 PUSH2 0x688D JUMP JUMPDEST PUSH2 0x4480 SWAP2 SWAP1 PUSH2 0x68EC JUMP JUMPDEST PUSH2 0x448A SWAP2 SWAP1 PUSH2 0x6956 JUMP JUMPDEST DUP5 PUSH1 0x20 ADD MLOAD PUSH2 0x4499 SWAP2 SWAP1 PUSH2 0x6993 JUMP JUMPDEST SWAP6 POP POP POP POP POP POP JUMPDEST SWAP7 SWAP6 POP POP POP POP POP POP JUMP JUMPDEST PUSH1 0x0 DUP1 PUSH1 0x8 DUP4 PUSH1 0x2 SIGNEXTEND SWAP1 SAR SWAP2 POP PUSH2 0x100 DUP4 PUSH2 0x44C6 SWAP2 SWAP1 PUSH2 0x63A2 JUMP JUMPDEST SWAP1 POP SWAP2 POP SWAP2 JUMP JUMPDEST PUSH1 0x0 DUP1 DUP3 GT PUSH2 0x44DB JUMPI PUSH1 0x0 DUP1 REVERT JUMPDEST PUSH17 0x100000000000000000000000000000000 DUP3 LT PUSH2 0x450A JUMPI PUSH1 0x80 DUP3 SWAP1 SHR SWAP2 POP PUSH1 0x80 DUP2 PUSH2 0x4507 SWAP2 SWAP1 PUSH2 0x69F2 JUMP JUMPDEST SWAP1 POP JUMPDEST PUSH9 0x10000000000000000 DUP3 LT PUSH2 0x4531 JUMPI PUSH1 0x40 DUP3 SWAP1 SHR SWAP2 POP PUSH1 0x40 DUP2 PUSH2 0x452E SWAP2 SWAP1 PUSH2 0x69F2 JUMP JUMPDEST SWAP1 POP JUMPDEST PUSH5 0x100000000 DUP3 LT PUSH2 0x4554 JUMPI PUSH1 0x20 DUP3 SWAP1 SHR SWAP2 POP PUSH1 0x20 DUP2 PUSH2 0x4551 SWAP2 SWAP1 PUSH2 0x69F2 JUMP JUMPDEST SWAP1 POP JUMPDEST PUSH3 0x10000 DUP3 LT PUSH2 0x4575 JUMPI PUSH1 0x10 DUP3 SWAP1 SHR SWAP2 POP PUSH1 0x10 DUP2 PUSH2 0x4572 SWAP2 SWAP1 PUSH2 0x69F2 JUMP JUMPDEST SWAP1 POP JUMPDEST PUSH2 0x100 DUP3 LT PUSH2 0x4595 JUMPI PUSH1 0x8 DUP3 SWAP1 SHR SWAP2 POP PUSH1 0x8 DUP2 PUSH2 0x4592 SWAP2 SWAP1 PUSH2 0x69F2 JUMP JUMPDEST SWAP1 POP JUMPDEST PUSH1 0x10 DUP3 LT PUSH2 0x45B4 JUMPI PUSH1 0x4 DUP3 SWAP1 SHR SWAP2 POP PUSH1 0x4 DUP2 PUSH2 0x45B1 SWAP2 SWAP1 PUSH2 0x69F2 JUMP JUMPDEST SWAP1 POP JUMPDEST PUSH1 0x4 DUP3 LT PUSH2 0x45D3 JUMPI PUSH1 0x2 DUP3 SWAP1 SHR SWAP2 POP PUSH1 0x2 DUP2 PUSH2 0x45D0 SWAP2 SWAP1 PUSH2 0x69F2 JUMP JUMPDEST SWAP1 POP JUMPDEST PUSH1 0x2 DUP3 LT PUSH2 0x45EB JUMPI PUSH1 0x1 DUP2 PUSH2 0x45E8 SWAP2 SWAP1 PUSH2 0x69F2 JUMP JUMPDEST SWAP1 POP JUMPDEST SWAP2 SWAP1 POP JUMP JUMPDEST PUSH1 0x0 DUP1 DUP3 GT PUSH2 0x45FE JUMPI PUSH1 0x0 DUP1 REVERT JUMPDEST PUSH1 0xFF SWAP1 POP PUSH1 0x0 PUSH16 0xFFFFFFFFFFFFFFFFFFFFFFFFFFFFFFFF DUP1 AND DUP4 AND GT ISZERO PUSH2 0x4633 JUMPI PUSH1 0x80 DUP2 PUSH2 0x462C SWAP2 SWAP1 PUSH2 0x6465 JUMP JUMPDEST SWAP1 POP PUSH2 0x463B JUMP JUMPDEST PUSH1 0x80 DUP3 SWAP1 SHR SWAP2 POP JUMPDEST PUSH1 0x0 PUSH8 0xFFFFFFFFFFFFFFFF DUP1 AND DUP4 AND GT ISZERO PUSH2 0x4664 JUMPI PUSH1 0x40 DUP2 PUSH2 0x465D SWAP2 SWAP1 PUSH2 0x6465 JUMP JUMPDEST SWAP1 POP PUSH2 0x466C JUMP JUMPDEST PUSH1 0x40 DUP3 SWAP1 SHR SWAP2 POP JUMPDEST PUSH1 0x0 PUSH4 0xFFFFFFFF DUP1 AND DUP4 AND GT ISZERO PUSH2 0x4691 JUMPI PUSH1 0x20 DUP2 PUSH2 0x468A SWAP2 SWAP1 PUSH2 0x6465 JUMP JUMPDEST SWAP1 POP PUSH2 0x4699 JUMP JUMPDEST PUSH1 0x20 DUP3 SWAP1 SHR SWAP2 POP JUMPDEST PUSH1 0x0 PUSH2 0xFFFF DUP1 AND DUP4 AND GT ISZERO PUSH2 0x46BC JUMPI PUSH1 0x10 DUP2 PUSH2 0x46B5 SWAP2 SWAP1 PUSH2 0x6465 JUMP JUMPDEST SWAP1 POP PUSH2 0x46C4 JUMP JUMPDEST PUSH1 0x10 DUP3 SWAP1 SHR SWAP2 POP JUMPDEST PUSH1 0x0 PUSH1 0xFF DUP1 AND DUP4 AND GT ISZERO PUSH2 0x46E6 JUMPI PUSH1 0x8 DUP2 PUSH2 0x46DF SWAP2 SWAP1 PUSH2 0x6465 JUMP JUMPDEST SWAP1 POP PUSH2 0x46EE JUMP JUMPDEST PUSH1 0x8 DUP3 SWAP1 SHR SWAP2 POP JUMPDEST PUSH1 0x0 PUSH1 0xF DUP4 AND GT ISZERO PUSH2 0x470E JUMPI PUSH1 0x4 DUP2 PUSH2 0x4707 SWAP2 SWAP1 PUSH2 0x6465 JUMP JUMPDEST SWAP1 POP PUSH2 0x4716 JUMP JUMPDEST PUSH1 0x4 DUP3 SWAP1 SHR SWAP2 POP JUMPDEST PUSH1 0x0 PUSH1 0x3 DUP4 AND GT ISZERO PUSH2 0x4736 JUMPI PUSH1 0x2 DUP2 PUSH2 0x472F SWAP2 SWAP1 PUSH2 0x6465 JUMP JUMPDEST SWAP1 POP PUSH2 0x473E JUMP JUMPDEST PUSH1 0x2 DUP3 SWAP1 SHR SWAP2 POP JUMPDEST PUSH1 0x0 PUSH1 0x1 DUP4 AND GT ISZERO PUSH2 0x475A JUMPI PUSH1 0x1 DUP2 PUSH2 0x4757 SWAP2 SWAP1 PUSH2 0x6465 JUMP JUMPDEST SWAP1 POP JUMPDEST SWAP2 SWAP1 POP JUMP JUMPDEST PUSH1 0x0 DUP4 PUSH20 0xFFFFFFFFFFFFFFFFFFFFFFFFFFFFFFFFFFFFFFFF AND DUP6 PUSH20 0xFFFFFFFFFFFFFFFFFFFFFFFFFFFFFFFFFFFFFFFF AND GT ISZERO PUSH2 0x47A0 JUMPI DUP4 DUP6 DUP1 SWAP6 POP DUP2 SWAP7 POP POP POP JUMPDEST DUP2 ISZERO PUSH2 0x47F8 JUMPI PUSH2 0x47F1 DUP4 PUSH16 0xFFFFFFFFFFFFFFFFFFFFFFFFFFFFFFFF AND DUP7 DUP7 PUSH2 0x47C8 SWAP2 SWAP1 PUSH2 0x6A27 JUMP JUMPDEST PUSH20 0xFFFFFFFFFFFFFFFFFFFFFFFFFFFFFFFFFFFFFFFF AND PUSH13 0x1000000000000000000000000 PUSH2 0x2B00 JUMP JUMPDEST SWAP1 POP PUSH2 0x4846 JUMP JUMPDEST PUSH2 0x4843 DUP4 PUSH16 0xFFFFFFFFFFFFFFFFFFFFFFFFFFFFFFFF AND DUP7 DUP7 PUSH2 0x481A SWAP2 SWAP1 PUSH2 0x6A27 JUMP JUMPDEST PUSH20 0xFFFFFFFFFFFFFFFFFFFFFFFFFFFFFFFFFFFFFFFF AND PUSH13 0x1000000000000000000000000 PUSH2 0x34BB JUMP JUMPDEST SWAP1 POP JUMPDEST SWAP5 SWAP4 POP POP POP POP JUMP JUMPDEST PUSH1 0x0 DUP4 PUSH20 0xFFFFFFFFFFFFFFFFFFFFFFFFFFFFFFFFFFFFFFFF AND DUP6 PUSH20 0xFFFFFFFFFFFFFFFFFFFFFFFFFFFFFFFFFFFFFFFF AND GT ISZERO PUSH2 0x488F JUMPI DUP4 DUP6 DUP1 SWAP6 POP DUP2 SWAP7 POP POP POP JUMPDEST PUSH1 0x0 DUP6 PUSH20 0xFFFFFFFFFFFFFFFFFFFFFFFFFFFFFFFFFFFFFFFF AND GT PUSH2 0x48B2 JUMPI PUSH1 0x0 DUP1 REVERT JUMPDEST PUSH1 0x0 PUSH1 0x60 PUSH1 0xFF AND DUP5 PUSH16 0xFFFFFFFFFFFFFFFFFFFFFFFFFFFFFFFF AND SWAP1 SHL SWAP1 POP PUSH1 0x0 DUP7 DUP7 PUSH2 0x48DE SWAP2 SWAP1 PUSH2 0x6A27 JUMP JUMPDEST PUSH20 0xFFFFFFFFFFFFFFFFFFFFFFFFFFFFFFFFFFFFFFFF AND SWAP1 POP DUP4 ISZERO PUSH2 0x4943 JUMPI PUSH2 0x493C PUSH2 0x4920 DUP4 DUP4 DUP10 PUSH20 0xFFFFFFFFFFFFFFFFFFFFFFFFFFFFFFFFFFFFFFFF AND PUSH2 0x2B00 JUMP JUMPDEST DUP9 PUSH20 0xFFFFFFFFFFFFFFFFFFFFFFFFFFFFFFFFFFFFFFFF AND PUSH2 0x4C95 JUMP JUMPDEST SWAP3 POP PUSH2 0x4988 JUMP JUMPDEST DUP7 PUSH20 0xFFFFFFFFFFFFFFFFFFFFFFFFFFFFFFFFFFFFFFFF AND PUSH2 0x497B DUP4 DUP4 DUP10 PUSH20 0xFFFFFFFFFFFFFFFFFFFFFFFFFFFFFFFFFFFFFFFF AND PUSH2 0x34BB JUMP JUMPDEST PUSH2 0x4985 SWAP2 SWAP1 PUSH2 0x65B4 JUMP JUMPDEST SWAP3 POP JUMPDEST POP POP SWAP5 SWAP4 POP POP POP POP JUMP JUMPDEST PUSH1 0x0 DUP2 PUSH2 0x49A9 JUMPI PUSH2 0x49A4 DUP6 DUP6 DUP6 PUSH2 0x4CA8 JUMP JUMPDEST PUSH2 0x49B5 JUMP JUMPDEST PUSH2 0x49B4 DUP6 DUP6 DUP6 PUSH2 0x4CFE JUMP JUMPDEST JUMPDEST SWAP1 POP SWAP5 SWAP4 POP POP POP POP JUMP JUMPDEST PUSH2 0x49C7 PUSH2 0x5166 JUMP JUMPDEST PUSH1 0x0 DUP5 PUSH1 0x0 ADD MLOAD DUP5 PUSH2 0x49D9 SWAP2 SWAP1 PUSH2 0x6855 JUMP JUMPDEST PUSH4 0xFFFFFFFF AND SWAP1 POP PUSH1 0x40 MLOAD DUP1 PUSH1 0x60 ADD PUSH1 0x40 MSTORE DUP1 DUP6 PUSH4 0xFFFFFFFF AND DUP2 MSTORE PUSH1 0x20 ADD DUP3 DUP6 PUSH1 0x2 SIGNEXTEND PUSH2 0x4A07 SWAP2 SWAP1 PUSH2 0x6956 JUMP JUMPDEST DUP8 PUSH1 0x20 ADD MLOAD PUSH2 0x4A16 SWAP2 SWAP1 PUSH2 0x6993 JUMP JUMPDEST PUSH1 0x6 SIGNEXTEND DUP2 MSTORE PUSH1 0x20 ADD PUSH1 0x1 ISZERO ISZERO DUP2 MSTORE POP SWAP2 POP POP SWAP4 SWAP3 POP POP POP JUMP JUMPDEST PUSH2 0x4A37 PUSH2 0x5166 JUMP JUMPDEST PUSH2 0x4A3F PUSH2 0x5166 JUMP JUMPDEST DUP8 DUP5 PUSH2 0xFFFF AND PUSH2 0xFFFF DUP2 LT PUSH2 0x4A57 JUMPI PUSH2 0x4A56 PUSH2 0x61A8 JUMP JUMPDEST JUMPDEST ADD PUSH1 0x40 MLOAD DUP1 PUSH1 0x60 ADD PUSH1 0x40 MSTORE SWAP1 DUP2 PUSH1 0x0 DUP3 ADD PUSH1 0x0 SWAP1 SLOAD SWAP1 PUSH2 0x100 EXP SWAP1 DIV PUSH4 0xFFFFFFFF AND PUSH4 0xFFFFFFFF AND PUSH4 0xFFFFFFFF AND DUP2 MSTORE PUSH1 0x20 ADD PUSH1 0x0 DUP3 ADD PUSH1 0x4 SWAP1 SLOAD SWAP1 PUSH2 0x100 EXP SWAP1 DIV PUSH1 0x6 SIGNEXTEND PUSH1 0x6 SIGNEXTEND PUSH1 0x6 SIGNEXTEND DUP2 MSTORE PUSH1 0x20 ADD PUSH1 0x0 DUP3 ADD PUSH1 0xB SWAP1 SLOAD SWAP1 PUSH2 0x100 EXP SWAP1 DIV PUSH1 0xFF AND ISZERO ISZERO ISZERO ISZERO DUP2 MSTORE POP POP SWAP2 POP PUSH2 0x4AD2 DUP8 DUP4 PUSH1 0x0 ADD MLOAD DUP9 PUSH2 0x4DF1 JUMP JUMPDEST ISZERO PUSH2 0x4B04 JUMPI DUP6 PUSH4 0xFFFFFFFF AND DUP3 PUSH1 0x0 ADD MLOAD PUSH4 0xFFFFFFFF AND SUB ISZERO PUSH2 0x4C8A JUMPI DUP2 PUSH2 0x4AFB DUP4 DUP9 DUP9 PUSH2 0x49BF JUMP JUMPDEST SWAP2 POP SWAP2 POP PUSH2 0x4C8A JUMP JUMPDEST DUP8 DUP4 PUSH1 0x1 DUP7 PUSH2 0x4B13 SWAP2 SWAP1 PUSH2 0x67EE JUMP JUMPDEST PUSH2 0x4B1D SWAP2 SWAP1 PUSH2 0x6824 JUMP JUMPDEST PUSH2 0xFFFF AND PUSH2 0xFFFF DUP2 LT PUSH2 0x4B33 JUMPI PUSH2 0x4B32 PUSH2 0x61A8 JUMP JUMPDEST JUMPDEST ADD PUSH1 0x40 MLOAD DUP1 PUSH1 0x60 ADD PUSH1 0x40 MSTORE SWAP1 DUP2 PUSH1 0x0 DUP3 ADD PUSH1 0x0 SWAP1 SLOAD SWAP1 PUSH2 0x100 EXP SWAP1 DIV PUSH4 0xFFFFFFFF AND PUSH4 0xFFFFFFFF AND PUSH4 0xFFFFFFFF AND DUP2 MSTORE PUSH1 0x20 ADD PUSH1 0x0 DUP3 ADD PUSH1 0x4 SWAP1 SLOAD SWAP1 PUSH2 0x100 EXP SWAP1 DIV PUSH1 0x6 SIGNEXTEND PUSH1 0x6 SIGNEXTEND PUSH1 0x6 SIGNEXTEND DUP2 MSTORE PUSH1 0x20 ADD PUSH1 0x0 DUP3 ADD PUSH1 0xB SWAP1 SLOAD SWAP1 PUSH2 0x100 EXP SWAP1 DIV PUSH1 0xFF AND ISZERO ISZERO ISZERO ISZERO DUP2 MSTORE POP POP SWAP2 POP DUP2 PUSH1 0x40 ADD MLOAD PUSH2 0x4C2A JUMPI DUP8 PUSH1 0x0 PUSH2 0xFFFF DUP2 LT PUSH2 0x4BBD JUMPI PUSH2 0x4BBC PUSH2 0x61A8 JUMP JUMPDEST JUMPDEST ADD PUSH1 0x40 MLOAD DUP1 PUSH1 0x60 ADD PUSH1 0x40 MSTORE SWAP1 DUP2 PUSH1 0x0 DUP3 ADD PUSH1 0x0 SWAP1 SLOAD SWAP1 PUSH2 0x100 EXP SWAP1 DIV PUSH4 0xFFFFFFFF AND PUSH4 0xFFFFFFFF AND PUSH4 0xFFFFFFFF AND DUP2 MSTORE PUSH1 0x20 ADD PUSH1 0x0 DUP3 ADD PUSH1 0x4 SWAP1 SLOAD SWAP1 PUSH2 0x100 EXP SWAP1 DIV PUSH1 0x6 SIGNEXTEND PUSH1 0x6 SIGNEXTEND PUSH1 0x6 SIGNEXTEND DUP2 MSTORE PUSH1 0x20 ADD PUSH1 0x0 DUP3 ADD PUSH1 0xB SWAP1 SLOAD SWAP1 PUSH2 0x100 EXP SWAP1 DIV PUSH1 0xFF AND ISZERO ISZERO ISZERO ISZERO DUP2 MSTORE POP POP SWAP2 POP JUMPDEST PUSH2 0x4C39 DUP8 DUP4 PUSH1 0x0 ADD MLOAD DUP9 PUSH2 0x4DF1 JUMP JUMPDEST PUSH2 0x4C78 JUMPI PUSH1 0x40 MLOAD PUSH32 0x8C379A000000000000000000000000000000000000000000000000000000000 DUP2 MSTORE PUSH1 0x4 ADD PUSH2 0x4C6F SWAP1 PUSH2 0x6ABB JUMP JUMPDEST PUSH1 0x40 MLOAD DUP1 SWAP2 SUB SWAP1 REVERT JUMPDEST PUSH2 0x4C85 DUP9 DUP9 DUP9 DUP8 DUP8 PUSH2 0x4ECB JUMP JUMPDEST SWAP2 POP SWAP2 POP JUMPDEST SWAP7 POP SWAP7 SWAP5 POP POP POP POP POP JUMP JUMPDEST PUSH1 0x0 DUP1 DUP3 DUP5 MOD GT DUP3 DUP5 DIV ADD SWAP1 POP SWAP3 SWAP2 POP POP JUMP JUMPDEST PUSH1 0x0 PUSH2 0x4CD4 DUP3 PUSH13 0x1000000000000000000000000 DUP6 PUSH16 0xFFFFFFFFFFFFFFFFFFFFFFFFFFFFFFFF AND PUSH2 0x34BB JUMP JUMPDEST DUP5 PUSH20 0xFFFFFFFFFFFFFFFFFFFFFFFFFFFFFFFFFFFFFFFF AND PUSH2 0x4CF5 SWAP2 SWAP1 PUSH2 0x5D76 JUMP JUMPDEST SWAP1 POP SWAP4 SWAP3 POP POP POP JUMP JUMPDEST PUSH1 0x0 DUP1 PUSH1 0x60 PUSH1 0xFF AND DUP5 PUSH16 0xFFFFFFFFFFFFFFFFFFFFFFFFFFFFFFFF AND SWAP1 SHL SWAP1 POP PUSH1 0x0 DUP6 PUSH20 0xFFFFFFFFFFFFFFFFFFFFFFFFFFFFFFFFFFFFFFFF AND DUP5 PUSH2 0x4D41 SWAP2 SWAP1 PUSH2 0x6572 JUMP JUMPDEST SWAP1 POP DUP6 PUSH20 0xFFFFFFFFFFFFFFFFFFFFFFFFFFFFFFFFFFFFFFFF AND DUP5 DUP3 PUSH2 0x4D66 SWAP2 SWAP1 PUSH2 0x65B4 JUMP JUMPDEST SUB PUSH2 0x4DAF JUMPI PUSH1 0x0 DUP2 DUP4 PUSH2 0x4D79 SWAP2 SWAP1 PUSH2 0x5D76 JUMP JUMPDEST SWAP1 POP DUP3 DUP2 LT PUSH2 0x4DAD JUMPI PUSH2 0x4DA3 DUP4 DUP9 PUSH20 0xFFFFFFFFFFFFFFFFFFFFFFFFFFFFFFFFFFFFFFFF AND DUP4 PUSH2 0x2B00 JUMP JUMPDEST SWAP4 POP POP POP POP PUSH2 0x4DEA JUMP JUMPDEST POP JUMPDEST PUSH2 0x4DE5 DUP3 DUP6 DUP9 PUSH20 0xFFFFFFFFFFFFFFFFFFFFFFFFFFFFFFFFFFFFFFFF AND DUP6 PUSH2 0x4DD6 SWAP2 SWAP1 PUSH2 0x65B4 JUMP JUMPDEST PUSH2 0x4DE0 SWAP2 SWAP1 PUSH2 0x5D76 JUMP JUMPDEST PUSH2 0x4C95 JUMP JUMPDEST SWAP3 POP POP POP JUMPDEST SWAP4 SWAP3 POP POP POP JUMP JUMPDEST PUSH1 0x0 DUP4 PUSH4 0xFFFFFFFF AND DUP4 PUSH4 0xFFFFFFFF AND GT ISZERO DUP1 ISZERO PUSH2 0x4E1B JUMPI POP DUP4 PUSH4 0xFFFFFFFF AND DUP3 PUSH4 0xFFFFFFFF AND GT ISZERO JUMPDEST ISZERO PUSH2 0x4E37 JUMPI DUP2 PUSH4 0xFFFFFFFF AND DUP4 PUSH4 0xFFFFFFFF AND GT ISZERO SWAP1 POP PUSH2 0x4EC4 JUMP JUMPDEST PUSH1 0x0 DUP5 PUSH4 0xFFFFFFFF AND DUP5 PUSH4 0xFFFFFFFF AND GT PUSH2 0x4E68 JUMPI PUSH5 0x100000000 DUP5 PUSH4 0xFFFFFFFF AND PUSH2 0x4E63 SWAP2 SWAP1 PUSH2 0x6AEC JUMP JUMPDEST PUSH2 0x4E70 JUMP JUMPDEST DUP4 PUSH4 0xFFFFFFFF AND JUMPDEST PUSH5 0xFFFFFFFFFF AND SWAP1 POP PUSH1 0x0 DUP6 PUSH4 0xFFFFFFFF AND DUP5 PUSH4 0xFFFFFFFF AND GT PUSH2 0x4EAA JUMPI PUSH5 0x100000000 DUP5 PUSH4 0xFFFFFFFF AND PUSH2 0x4EA5 SWAP2 SWAP1 PUSH2 0x6AEC JUMP JUMPDEST PUSH2 0x4EB2 JUMP JUMPDEST DUP4 PUSH4 0xFFFFFFFF AND JUMPDEST PUSH5 0xFFFFFFFFFF AND SWAP1 POP DUP1 DUP3 GT ISZERO SWAP3 POP POP POP JUMPDEST SWAP4 SWAP3 POP POP POP JUMP JUMPDEST PUSH2 0x4ED3 PUSH2 0x5166 JUMP JUMPDEST PUSH2 0x4EDB PUSH2 0x5166 JUMP JUMPDEST PUSH1 0x0 DUP4 PUSH1 0x1 DUP7 PUSH2 0x4EEB SWAP2 SWAP1 PUSH2 0x67EE JUMP JUMPDEST PUSH2 0x4EF5 SWAP2 SWAP1 PUSH2 0x6824 JUMP JUMPDEST PUSH2 0xFFFF AND SWAP1 POP PUSH1 0x0 PUSH1 0x1 DUP6 PUSH2 0xFFFF AND DUP4 PUSH2 0x4F0F SWAP2 SWAP1 PUSH2 0x5D76 JUMP JUMPDEST PUSH2 0x4F19 SWAP2 SWAP1 PUSH2 0x6086 JUMP JUMPDEST SWAP1 POP PUSH1 0x0 JUMPDEST PUSH1 0x1 ISZERO PUSH2 0x50EB JUMPI PUSH1 0x2 DUP3 DUP5 PUSH2 0x4F33 SWAP2 SWAP1 PUSH2 0x5D76 JUMP JUMPDEST PUSH2 0x4F3D SWAP2 SWAP1 PUSH2 0x65B4 JUMP JUMPDEST SWAP1 POP DUP10 DUP7 PUSH2 0xFFFF AND DUP3 PUSH2 0x4F50 SWAP2 SWAP1 PUSH2 0x65E5 JUMP JUMPDEST PUSH2 0xFFFF DUP2 LT PUSH2 0x4F62 JUMPI PUSH2 0x4F61 PUSH2 0x61A8 JUMP JUMPDEST JUMPDEST ADD PUSH1 0x40 MLOAD DUP1 PUSH1 0x60 ADD PUSH1 0x40 MSTORE SWAP1 DUP2 PUSH1 0x0 DUP3 ADD PUSH1 0x0 SWAP1 SLOAD SWAP1 PUSH2 0x100 EXP SWAP1 DIV PUSH4 0xFFFFFFFF AND PUSH4 0xFFFFFFFF AND PUSH4 0xFFFFFFFF AND DUP2 MSTORE PUSH1 0x20 ADD PUSH1 0x0 DUP3 ADD PUSH1 0x4 SWAP1 SLOAD SWAP1 PUSH2 0x100 EXP SWAP1 DIV PUSH1 0x6 SIGNEXTEND PUSH1 0x6 SIGNEXTEND PUSH1 0x6 SIGNEXTEND DUP2 MSTORE PUSH1 0x20 ADD PUSH1 0x0 DUP3 ADD PUSH1 0xB SWAP1 SLOAD SWAP1 PUSH2 0x100 EXP SWAP1 DIV PUSH1 0xFF AND ISZERO ISZERO ISZERO ISZERO DUP2 MSTORE POP POP SWAP5 POP DUP5 PUSH1 0x40 ADD MLOAD PUSH2 0x4FEB JUMPI PUSH1 0x1 DUP2 PUSH2 0x4FE4 SWAP2 SWAP1 PUSH2 0x5D76 JUMP JUMPDEST SWAP3 POP PUSH2 0x4F1E JUMP JUMPDEST DUP10 DUP7 PUSH2 0xFFFF AND PUSH1 0x1 DUP4 PUSH2 0x4FFE SWAP2 SWAP1 PUSH2 0x5D76 JUMP JUMPDEST PUSH2 0x5008 SWAP2 SWAP1 PUSH2 0x65E5 JUMP JUMPDEST PUSH2 0xFFFF DUP2 LT PUSH2 0x501A JUMPI PUSH2 0x5019 PUSH2 0x61A8 JUMP JUMPDEST JUMPDEST ADD PUSH1 0x40 MLOAD DUP1 PUSH1 0x60 ADD PUSH1 0x40 MSTORE SWAP1 DUP2 PUSH1 0x0 DUP3 ADD PUSH1 0x0 SWAP1 SLOAD SWAP1 PUSH2 0x100 EXP SWAP1 DIV PUSH4 0xFFFFFFFF AND PUSH4 0xFFFFFFFF AND PUSH4 0xFFFFFFFF AND DUP2 MSTORE PUSH1 0x20 ADD PUSH1 0x0 DUP3 ADD PUSH1 0x4 SWAP1 SLOAD SWAP1 PUSH2 0x100 EXP SWAP1 DIV PUSH1 0x6 SIGNEXTEND PUSH1 0x6 SIGNEXTEND PUSH1 0x6 SIGNEXTEND DUP2 MSTORE PUSH1 0x20 ADD PUSH1 0x0 DUP3 ADD PUSH1 0xB SWAP1 SLOAD SWAP1 PUSH2 0x100 EXP SWAP1 DIV PUSH1 0xFF AND ISZERO ISZERO ISZERO ISZERO DUP2 MSTORE POP POP SWAP4 POP PUSH1 0x0 PUSH2 0x5097 DUP11 DUP8 PUSH1 0x0 ADD MLOAD DUP12 PUSH2 0x4DF1 JUMP JUMPDEST SWAP1 POP DUP1 DUP1 ISZERO PUSH2 0x50B1 JUMPI POP PUSH2 0x50B0 DUP11 DUP11 DUP8 PUSH1 0x0 ADD MLOAD PUSH2 0x4DF1 JUMP JUMPDEST JUMPDEST ISZERO PUSH2 0x50BC JUMPI POP PUSH2 0x50EB JUMP JUMPDEST DUP1 PUSH2 0x50D5 JUMPI PUSH1 0x1 DUP3 PUSH2 0x50CE SWAP2 SWAP1 PUSH2 0x6086 JUMP JUMPDEST SWAP3 POP PUSH2 0x50E5 JUMP JUMPDEST PUSH1 0x1 DUP3 PUSH2 0x50E2 SWAP2 SWAP1 PUSH2 0x5D76 JUMP JUMPDEST SWAP4 POP JUMPDEST POP PUSH2 0x4F1E JUMP JUMPDEST POP POP POP SWAP6 POP SWAP6 SWAP4 POP POP POP POP JUMP JUMPDEST PUSH1 0x40 MLOAD DUP1 PUSH1 0xE0 ADD PUSH1 0x40 MSTORE DUP1 PUSH1 0x0 PUSH20 0xFFFFFFFFFFFFFFFFFFFFFFFFFFFFFFFFFFFFFFFF AND DUP2 MSTORE PUSH1 0x20 ADD PUSH1 0x0 PUSH1 0x2 SIGNEXTEND DUP2 MSTORE PUSH1 0x20 ADD PUSH1 0x0 ISZERO ISZERO DUP2 MSTORE PUSH1 0x20 ADD PUSH1 0x0 PUSH20 0xFFFFFFFFFFFFFFFFFFFFFFFFFFFFFFFFFFFFFFFF AND DUP2 MSTORE PUSH1 0x20 ADD PUSH1 0x0 DUP2 MSTORE PUSH1 0x20 ADD PUSH1 0x0 DUP2 MSTORE PUSH1 0x20 ADD PUSH1 0x0 DUP2 MSTORE POP SWAP1 JUMP JUMPDEST PUSH1 0x40 MLOAD DUP1 PUSH1 0x60 ADD PUSH1 0x40 MSTORE DUP1 PUSH1 0x0 PUSH4 0xFFFFFFFF AND DUP2 MSTORE PUSH1 0x20 ADD PUSH1 0x0 PUSH1 0x6 SIGNEXTEND DUP2 MSTORE PUSH1 0x20 ADD PUSH1 0x0 ISZERO ISZERO DUP2 MSTORE POP SWAP1 JUMP JUMPDEST PUSH1 0x0 PUSH20 0xFFFFFFFFFFFFFFFFFFFFFFFFFFFFFFFFFFFFFFFF DUP3 AND SWAP1 POP SWAP2 SWAP1 POP JUMP JUMPDEST PUSH1 0x0 PUSH2 0x51BD DUP3 PUSH2 0x5192 JUMP JUMPDEST SWAP1 POP SWAP2 SWAP1 POP JUMP JUMPDEST PUSH2 0x51CD DUP2 PUSH2 0x51B2 JUMP JUMPDEST DUP3 MSTORE POP POP JUMP JUMPDEST PUSH1 0x0 PUSH1 0x20 DUP3 ADD SWAP1 POP PUSH2 0x51E8 PUSH1 0x0 DUP4 ADD DUP5 PUSH2 0x51C4 JUMP JUMPDEST SWAP3 SWAP2 POP POP JUMP JUMPDEST PUSH1 0x0 PUSH16 0xFFFFFFFFFFFFFFFFFFFFFFFFFFFFFFFF DUP3 AND SWAP1 POP SWAP2 SWAP1 POP JUMP JUMPDEST PUSH2 0x5213 DUP2 PUSH2 0x51EE JUMP JUMPDEST DUP3 MSTORE POP POP JUMP JUMPDEST PUSH1 0x0 PUSH1 0x20 DUP3 ADD SWAP1 POP PUSH2 0x522E PUSH1 0x0 DUP4 ADD DUP5 PUSH2 0x520A JUMP JUMPDEST SWAP3 SWAP2 POP POP JUMP JUMPDEST PUSH1 0x0 DUP1 REVERT JUMPDEST PUSH1 0x0 DUP1 REVERT JUMPDEST PUSH1 0x0 DUP2 SWAP1 POP SWAP2 SWAP1 POP JUMP JUMPDEST PUSH2 0x5251 DUP2 PUSH2 0x523E JUMP JUMPDEST DUP2 EQ PUSH2 0x525C JUMPI PUSH1 0x0 DUP1 REVERT JUMPDEST POP JUMP JUMPDEST PUSH1 0x0 DUP2 CALLDATALOAD SWAP1 POP PUSH2 0x526E DUP2 PUSH2 0x5248 JUMP JUMPDEST SWAP3 SWAP2 POP POP JUMP JUMPDEST PUSH1 0x0 PUSH1 0x20 DUP3 DUP5 SUB SLT ISZERO PUSH2 0x528A JUMPI PUSH2 0x5289 PUSH2 0x5234 JUMP JUMPDEST JUMPDEST PUSH1 0x0 PUSH2 0x5298 DUP5 DUP3 DUP6 ADD PUSH2 0x525F JUMP JUMPDEST SWAP2 POP POP SWAP3 SWAP2 POP POP JUMP JUMPDEST PUSH1 0x0 PUSH4 0xFFFFFFFF DUP3 AND SWAP1 POP SWAP2 SWAP1 POP JUMP JUMPDEST PUSH2 0x52BA DUP2 PUSH2 0x52A1 JUMP JUMPDEST DUP3 MSTORE POP POP JUMP JUMPDEST PUSH1 0x0 DUP2 PUSH1 0x6 SIGNEXTEND SWAP1 POP SWAP2 SWAP1 POP JUMP JUMPDEST PUSH2 0x52D6 DUP2 PUSH2 0x52C0 JUMP JUMPDEST DUP3 MSTORE POP POP JUMP JUMPDEST PUSH1 0x0 DUP2 ISZERO ISZERO SWAP1 POP SWAP2 SWAP1 POP JUMP JUMPDEST PUSH2 0x52F1 DUP2 PUSH2 0x52DC JUMP JUMPDEST DUP3 MSTORE POP POP JUMP JUMPDEST PUSH1 0x0 PUSH1 0x60 DUP3 ADD SWAP1 POP PUSH2 0x530C PUSH1 0x0 DUP4 ADD DUP7 PUSH2 0x52B1 JUMP JUMPDEST PUSH2 0x5319 PUSH1 0x20 DUP4 ADD DUP6 PUSH2 0x52CD JUMP JUMPDEST PUSH2 0x5326 PUSH1 0x40 DUP4 ADD DUP5 PUSH2 0x52E8 JUMP JUMPDEST SWAP5 SWAP4 POP POP POP POP JUMP JUMPDEST PUSH1 0x0 PUSH2 0xFFFF DUP3 AND SWAP1 POP SWAP2 SWAP1 POP JUMP JUMPDEST PUSH2 0x5345 DUP2 PUSH2 0x532E JUMP JUMPDEST DUP2 EQ PUSH2 0x5350 JUMPI PUSH1 0x0 DUP1 REVERT JUMPDEST POP JUMP JUMPDEST PUSH1 0x0 DUP2 CALLDATALOAD SWAP1 POP PUSH2 0x5362 DUP2 PUSH2 0x533C JUMP JUMPDEST SWAP3 SWAP2 POP POP JUMP JUMPDEST PUSH1 0x0 PUSH1 0x20 DUP3 DUP5 SUB SLT ISZERO PUSH2 0x537E JUMPI PUSH2 0x537D PUSH2 0x5234 JUMP JUMPDEST JUMPDEST PUSH1 0x0 PUSH2 0x538C DUP5 DUP3 DUP6 ADD PUSH2 0x5353 JUMP JUMPDEST SWAP2 POP POP SWAP3 SWAP2 POP POP JUMP JUMPDEST PUSH2 0x539E DUP2 PUSH2 0x5192 JUMP JUMPDEST DUP3 MSTORE POP POP JUMP JUMPDEST PUSH1 0x0 DUP2 PUSH1 0x2 SIGNEXTEND SWAP1 POP SWAP2 SWAP1 POP JUMP JUMPDEST PUSH2 0x53BA DUP2 PUSH2 0x53A4 JUMP JUMPDEST DUP3 MSTORE POP POP JUMP JUMPDEST PUSH2 0x53C9 DUP2 PUSH2 0x532E JUMP JUMPDEST DUP3 MSTORE POP POP JUMP JUMPDEST PUSH1 0x0 PUSH1 0xA0 DUP3 ADD SWAP1 POP PUSH2 0x53E4 PUSH1 0x0 DUP4 ADD DUP9 PUSH2 0x5395 JUMP JUMPDEST PUSH2 0x53F1 PUSH1 0x20 DUP4 ADD DUP8 PUSH2 0x53B1 JUMP JUMPDEST PUSH2 0x53FE PUSH1 0x40 DUP4 ADD DUP7 PUSH2 0x53C0 JUMP JUMPDEST PUSH2 0x540B PUSH1 0x60 DUP4 ADD DUP6 PUSH2 0x53C0 JUMP JUMPDEST PUSH2 0x5418 PUSH1 0x80 DUP4 ADD DUP5 PUSH2 0x53C0 JUMP JUMPDEST SWAP7 SWAP6 POP POP POP POP POP POP JUMP JUMPDEST PUSH2 0x542B DUP2 PUSH2 0x51B2 JUMP JUMPDEST DUP2 EQ PUSH2 0x5436 JUMPI PUSH1 0x0 DUP1 REVERT JUMPDEST POP JUMP JUMPDEST PUSH1 0x0 DUP2 CALLDATALOAD SWAP1 POP PUSH2 0x5448 DUP2 PUSH2 0x5422 JUMP JUMPDEST SWAP3 SWAP2 POP POP JUMP JUMPDEST PUSH2 0x5457 DUP2 PUSH2 0x53A4 JUMP JUMPDEST DUP2 EQ PUSH2 0x5462 JUMPI PUSH1 0x0 DUP1 REVERT JUMPDEST POP JUMP JUMPDEST PUSH1 0x0 DUP2 CALLDATALOAD SWAP1 POP PUSH2 0x5474 DUP2 PUSH2 0x544E JUMP JUMPDEST SWAP3 SWAP2 POP POP JUMP JUMPDEST PUSH2 0x5483 DUP2 PUSH2 0x51EE JUMP JUMPDEST DUP2 EQ PUSH2 0x548E JUMPI PUSH1 0x0 DUP1 REVERT JUMPDEST POP JUMP JUMPDEST PUSH1 0x0 DUP2 CALLDATALOAD SWAP1 POP PUSH2 0x54A0 DUP2 PUSH2 0x547A JUMP JUMPDEST SWAP3 SWAP2 POP POP JUMP JUMPDEST PUSH1 0x0 DUP1 REVERT JUMPDEST PUSH1 0x0 DUP1 REVERT JUMPDEST PUSH1 0x0 DUP1 REVERT JUMPDEST PUSH1 0x0 DUP1 DUP4 PUSH1 0x1F DUP5 ADD SLT PUSH2 0x54CB JUMPI PUSH2 0x54CA PUSH2 0x54A6 JUMP JUMPDEST JUMPDEST DUP3 CALLDATALOAD SWAP1 POP PUSH8 0xFFFFFFFFFFFFFFFF DUP2 GT ISZERO PUSH2 0x54E8 JUMPI PUSH2 0x54E7 PUSH2 0x54AB JUMP JUMPDEST JUMPDEST PUSH1 0x20 DUP4 ADD SWAP2 POP DUP4 PUSH1 0x1 DUP3 MUL DUP4 ADD GT ISZERO PUSH2 0x5504 JUMPI PUSH2 0x5503 PUSH2 0x54B0 JUMP JUMPDEST JUMPDEST SWAP3 POP SWAP3 SWAP1 POP JUMP JUMPDEST PUSH1 0x0 DUP1 PUSH1 0x0 DUP1 PUSH1 0x0 DUP1 PUSH1 0xA0 DUP8 DUP10 SUB SLT ISZERO PUSH2 0x5528 JUMPI PUSH2 0x5527 PUSH2 0x5234 JUMP JUMPDEST JUMPDEST PUSH1 0x0 PUSH2 0x5536 DUP10 DUP3 DUP11 ADD PUSH2 0x5439 JUMP JUMPDEST SWAP7 POP POP PUSH1 0x20 PUSH2 0x5547 DUP10 DUP3 DUP11 ADD PUSH2 0x5465 JUMP JUMPDEST SWAP6 POP POP PUSH1 0x40 PUSH2 0x5558 DUP10 DUP3 DUP11 ADD PUSH2 0x5465 JUMP JUMPDEST SWAP5 POP POP PUSH1 0x60 PUSH2 0x5569 DUP10 DUP3 DUP11 ADD PUSH2 0x5491 JUMP JUMPDEST SWAP4 POP POP PUSH1 0x80 DUP8 ADD CALLDATALOAD PUSH8 0xFFFFFFFFFFFFFFFF DUP2 GT ISZERO PUSH2 0x558A JUMPI PUSH2 0x5589 PUSH2 0x5239 JUMP JUMPDEST JUMPDEST PUSH2 0x5596 DUP10 DUP3 DUP11 ADD PUSH2 0x54B5 JUMP JUMPDEST SWAP3 POP SWAP3 POP POP SWAP3 SWAP6 POP SWAP3 SWAP6 POP SWAP3 SWAP6 JUMP JUMPDEST PUSH2 0x55AE DUP2 PUSH2 0x523E JUMP JUMPDEST DUP3 MSTORE POP POP JUMP JUMPDEST PUSH1 0x0 PUSH1 0x40 DUP3 ADD SWAP1 POP PUSH2 0x55C9 PUSH1 0x0 DUP4 ADD DUP6 PUSH2 0x55A5 JUMP JUMPDEST PUSH2 0x55D6 PUSH1 0x20 DUP4 ADD DUP5 PUSH2 0x55A5 JUMP JUMPDEST SWAP4 SWAP3 POP POP POP JUMP JUMPDEST PUSH1 0x0 PUSH1 0x20 DUP3 ADD SWAP1 POP PUSH2 0x55F2 PUSH1 0x0 DUP4 ADD DUP5 PUSH2 0x55A5 JUMP JUMPDEST SWAP3 SWAP2 POP POP JUMP JUMPDEST PUSH1 0x0 DUP1 PUSH1 0x0 DUP1 PUSH1 0x60 DUP6 DUP8 SUB SLT ISZERO PUSH2 0x5612 JUMPI PUSH2 0x5611 PUSH2 0x5234 JUMP JUMPDEST JUMPDEST PUSH1 0x0 PUSH2 0x5620 DUP8 DUP3 DUP9 ADD PUSH2 0x525F JUMP JUMPDEST SWAP5 POP POP PUSH1 0x20 PUSH2 0x5631 DUP8 DUP3 DUP9 ADD PUSH2 0x525F JUMP JUMPDEST SWAP4 POP POP PUSH1 0x40 DUP6 ADD CALLDATALOAD PUSH8 0xFFFFFFFFFFFFFFFF DUP2 GT ISZERO PUSH2 0x5652 JUMPI PUSH2 0x5651 PUSH2 0x5239 JUMP JUMPDEST JUMPDEST PUSH2 0x565E DUP8 DUP3 DUP9 ADD PUSH2 0x54B5 JUMP JUMPDEST SWAP3 POP SWAP3 POP POP SWAP3 SWAP6 SWAP2 SWAP5 POP SWAP3 POP JUMP JUMPDEST PUSH1 0x0 DUP1 PUSH1 0x0 DUP1 PUSH1 0x0 PUSH1 0xA0 DUP7 DUP9 SUB SLT ISZERO PUSH2 0x5688 JUMPI PUSH2 0x5687 PUSH2 0x5234 JUMP JUMPDEST JUMPDEST PUSH1 0x0 PUSH2 0x5696 DUP9 DUP3 DUP10 ADD PUSH2 0x5439 JUMP JUMPDEST SWAP6 POP POP PUSH1 0x20 PUSH2 0x56A7 DUP9 DUP3 DUP10 ADD PUSH2 0x5465 JUMP JUMPDEST SWAP5 POP POP PUSH1 0x40 PUSH2 0x56B8 DUP9 DUP3 DUP10 ADD PUSH2 0x5465 JUMP JUMPDEST SWAP4 POP POP PUSH1 0x60 PUSH2 0x56C9 DUP9 DUP3 DUP10 ADD PUSH2 0x5491 JUMP JUMPDEST SWAP3 POP POP PUSH1 0x80 PUSH2 0x56DA DUP9 DUP3 DUP10 ADD PUSH2 0x5491 JUMP JUMPDEST SWAP2 POP POP SWAP3 SWAP6 POP SWAP3 SWAP6 SWAP1 SWAP4 POP JUMP JUMPDEST PUSH1 0x0 PUSH1 0x40 DUP3 ADD SWAP1 POP PUSH2 0x56FC PUSH1 0x0 DUP4 ADD DUP6 PUSH2 0x520A JUMP JUMPDEST PUSH2 0x5709 PUSH1 0x20 DUP4 ADD DUP5 PUSH2 0x520A JUMP JUMPDEST SWAP4 SWAP3 POP POP POP JUMP JUMPDEST PUSH1 0x0 DUP2 SWAP1 POP SWAP2 SWAP1 POP JUMP JUMPDEST PUSH2 0x5723 DUP2 PUSH2 0x5710 JUMP JUMPDEST DUP2 EQ PUSH2 0x572E JUMPI PUSH1 0x0 DUP1 REVERT JUMPDEST POP JUMP JUMPDEST PUSH1 0x0 DUP2 CALLDATALOAD SWAP1 POP PUSH2 0x5740 DUP2 PUSH2 0x571A JUMP JUMPDEST SWAP3 SWAP2 POP POP JUMP JUMPDEST PUSH1 0x0 PUSH1 0x20 DUP3 DUP5 SUB SLT ISZERO PUSH2 0x575C JUMPI PUSH2 0x575B PUSH2 0x5234 JUMP JUMPDEST JUMPDEST PUSH1 0x0 PUSH2 0x576A DUP5 DUP3 DUP6 ADD PUSH2 0x5731 JUMP JUMPDEST SWAP2 POP POP SWAP3 SWAP2 POP POP JUMP JUMPDEST PUSH1 0x0 PUSH1 0xA0 DUP3 ADD SWAP1 POP PUSH2 0x5788 PUSH1 0x0 DUP4 ADD DUP9 PUSH2 0x520A JUMP JUMPDEST PUSH2 0x5795 PUSH1 0x20 DUP4 ADD DUP8 PUSH2 0x55A5 JUMP JUMPDEST PUSH2 0x57A2 PUSH1 0x40 DUP4 ADD DUP7 PUSH2 0x55A5 JUMP JUMPDEST PUSH2 0x57AF PUSH1 0x60 DUP4 ADD DUP6 PUSH2 0x520A JUMP JUMPDEST PUSH2 0x57BC PUSH1 0x80 DUP4 ADD DUP5 PUSH2 0x520A JUMP JUMPDEST SWAP7 SWAP6 POP POP POP POP POP POP JUMP JUMPDEST PUSH1 0x0 DUP2 PUSH1 0x1 SIGNEXTEND SWAP1 POP SWAP2 SWAP1 POP JUMP JUMPDEST PUSH2 0x57DC DUP2 PUSH2 0x57C6 JUMP JUMPDEST DUP2 EQ PUSH2 0x57E7 JUMPI PUSH1 0x0 DUP1 REVERT JUMPDEST POP JUMP JUMPDEST PUSH1 0x0 DUP2 CALLDATALOAD SWAP1 POP PUSH2 0x57F9 DUP2 PUSH2 0x57D3 JUMP JUMPDEST SWAP3 SWAP2 POP POP JUMP JUMPDEST PUSH1 0x0 PUSH1 0x20 DUP3 DUP5 SUB SLT ISZERO PUSH2 0x5815 JUMPI PUSH2 0x5814 PUSH2 0x5234 JUMP JUMPDEST JUMPDEST PUSH1 0x0 PUSH2 0x5823 DUP5 DUP3 DUP6 ADD PUSH2 0x57EA JUMP JUMPDEST SWAP2 POP POP SWAP3 SWAP2 POP POP JUMP JUMPDEST PUSH1 0x0 DUP1 DUP4 PUSH1 0x1F DUP5 ADD SLT PUSH2 0x5842 JUMPI PUSH2 0x5841 PUSH2 0x54A6 JUMP JUMPDEST JUMPDEST DUP3 CALLDATALOAD SWAP1 POP PUSH8 0xFFFFFFFFFFFFFFFF DUP2 GT ISZERO PUSH2 0x585F JUMPI PUSH2 0x585E PUSH2 0x54AB JUMP JUMPDEST JUMPDEST PUSH1 0x20 DUP4 ADD SWAP2 POP DUP4 PUSH1 0x20 DUP3 MUL DUP4 ADD GT ISZERO PUSH2 0x587B JUMPI PUSH2 0x587A PUSH2 0x54B0 JUMP JUMPDEST JUMPDEST SWAP3 POP SWAP3 SWAP1 POP JUMP JUMPDEST PUSH1 0x0 DUP1 PUSH1 0x20 DUP4 DUP6 SUB SLT ISZERO PUSH2 0x5899 JUMPI PUSH2 0x5898 PUSH2 0x5234 JUMP JUMPDEST JUMPDEST PUSH1 0x0 DUP4 ADD CALLDATALOAD PUSH8 0xFFFFFFFFFFFFFFFF DUP2 GT ISZERO PUSH2 0x58B7 JUMPI PUSH2 0x58B6 PUSH2 0x5239 JUMP JUMPDEST JUMPDEST PUSH2 0x58C3 DUP6 DUP3 DUP7 ADD PUSH2 0x582C JUMP JUMPDEST SWAP3 POP SWAP3 POP POP SWAP3 POP SWAP3 SWAP1 POP JUMP JUMPDEST PUSH1 0x0 DUP2 MLOAD SWAP1 POP SWAP2 SWAP1 POP JUMP JUMPDEST PUSH1 0x0 DUP3 DUP3 MSTORE PUSH1 0x20 DUP3 ADD SWAP1 POP SWAP3 SWAP2 POP POP JUMP JUMPDEST PUSH1 0x0 DUP2 SWAP1 POP PUSH1 0x20 DUP3 ADD SWAP1 POP SWAP2 SWAP1 POP JUMP JUMPDEST PUSH2 0x5904 DUP2 PUSH2 0x52C0 JUMP JUMPDEST DUP3 MSTORE POP POP JUMP JUMPDEST PUSH1 0x0 PUSH2 0x5916 DUP4 DUP4 PUSH2 0x58FB JUMP JUMPDEST PUSH1 0x20 DUP4 ADD SWAP1 POP SWAP3 SWAP2 POP POP JUMP JUMPDEST PUSH1 0x0 PUSH1 0x20 DUP3 ADD SWAP1 POP SWAP2 SWAP1 POP JUMP JUMPDEST PUSH1 0x0 PUSH2 0x593A DUP3 PUSH2 0x58CF JUMP JUMPDEST PUSH2 0x5944 DUP2 DUP6 PUSH2 0x58DA JUMP JUMPDEST SWAP4 POP PUSH2 0x594F DUP4 PUSH2 0x58EB JUMP JUMPDEST DUP1 PUSH1 0x0 JUMPDEST DUP4 DUP2 LT ISZERO PUSH2 0x5980 JUMPI DUP2 MLOAD PUSH2 0x5967 DUP9 DUP3 PUSH2 0x590A JUMP JUMPDEST SWAP8 POP PUSH2 0x5972 DUP4 PUSH2 0x5922 JUMP JUMPDEST SWAP3 POP POP PUSH1 0x1 DUP2 ADD SWAP1 POP PUSH2 0x5953 JUMP JUMPDEST POP DUP6 SWAP4 POP POP POP POP SWAP3 SWAP2 POP POP JUMP JUMPDEST PUSH1 0x0 PUSH1 0x20 DUP3 ADD SWAP1 POP DUP2 DUP2 SUB PUSH1 0x0 DUP4 ADD MSTORE PUSH2 0x59A7 DUP2 DUP5 PUSH2 0x592F JUMP JUMPDEST SWAP1 POP SWAP3 SWAP2 POP POP JUMP JUMPDEST PUSH1 0x0 DUP1 PUSH1 0x0 PUSH1 0x60 DUP5 DUP7 SUB SLT ISZERO PUSH2 0x59C8 JUMPI PUSH2 0x59C7 PUSH2 0x5234 JUMP JUMPDEST JUMPDEST PUSH1 0x0 PUSH2 0x59D6 DUP7 DUP3 DUP8 ADD PUSH2 0x5465 JUMP JUMPDEST SWAP4 POP POP PUSH1 0x20 PUSH2 0x59E7 DUP7 DUP3 DUP8 ADD PUSH2 0x5465 JUMP JUMPDEST SWAP3 POP POP PUSH1 0x40 PUSH2 0x59F8 DUP7 DUP3 DUP8 ADD PUSH2 0x5491 JUMP JUMPDEST SWAP2 POP POP SWAP3 POP SWAP3 POP SWAP3 JUMP JUMPDEST PUSH1 0x0 PUSH3 0xFFFFFF DUP3 AND SWAP1 POP SWAP2 SWAP1 POP JUMP JUMPDEST PUSH2 0x5A1A DUP2 PUSH2 0x5A02 JUMP JUMPDEST DUP3 MSTORE POP POP JUMP JUMPDEST PUSH1 0x0 PUSH1 0x20 DUP3 ADD SWAP1 POP PUSH2 0x5A35 PUSH1 0x0 DUP4 ADD DUP5 PUSH2 0x5A11 JUMP JUMPDEST SWAP3 SWAP2 POP POP JUMP JUMPDEST PUSH2 0x5A44 DUP2 PUSH2 0x52DC JUMP JUMPDEST DUP2 EQ PUSH2 0x5A4F JUMPI PUSH1 0x0 DUP1 REVERT JUMPDEST POP JUMP JUMPDEST PUSH1 0x0 DUP2 CALLDATALOAD SWAP1 POP PUSH2 0x5A61 DUP2 PUSH2 0x5A3B JUMP JUMPDEST SWAP3 SWAP2 POP POP JUMP JUMPDEST PUSH2 0x5A70 DUP2 PUSH2 0x5192 JUMP JUMPDEST DUP2 EQ PUSH2 0x5A7B JUMPI PUSH1 0x0 DUP1 REVERT JUMPDEST POP JUMP JUMPDEST PUSH1 0x0 DUP2 CALLDATALOAD SWAP1 POP PUSH2 0x5A8D DUP2 PUSH2 0x5A67 JUMP JUMPDEST SWAP3 SWAP2 POP POP JUMP JUMPDEST PUSH1 0x0 DUP1 PUSH1 0x0 DUP1 PUSH1 0x0 DUP1 PUSH1 0xA0 DUP8 DUP10 SUB SLT ISZERO PUSH2 0x5AB0 JUMPI PUSH2 0x5AAF PUSH2 0x5234 JUMP JUMPDEST JUMPDEST PUSH1 0x0 PUSH2 0x5ABE DUP10 DUP3 DUP11 ADD PUSH2 0x5439 JUMP JUMPDEST SWAP7 POP POP PUSH1 0x20 PUSH2 0x5ACF DUP10 DUP3 DUP11 ADD PUSH2 0x5A52 JUMP JUMPDEST SWAP6 POP POP PUSH1 0x40 PUSH2 0x5AE0 DUP10 DUP3 DUP11 ADD PUSH2 0x525F JUMP JUMPDEST SWAP5 POP POP PUSH1 0x60 PUSH2 0x5AF1 DUP10 DUP3 DUP11 ADD PUSH2 0x5A7E JUMP JUMPDEST SWAP4 POP POP PUSH1 0x80 DUP8 ADD CALLDATALOAD PUSH8 0xFFFFFFFFFFFFFFFF DUP2 GT ISZERO PUSH2 0x5B12 JUMPI PUSH2 0x5B11 PUSH2 0x5239 JUMP JUMPDEST JUMPDEST PUSH2 0x5B1E DUP10 DUP3 DUP11 ADD PUSH2 0x54B5 JUMP JUMPDEST SWAP3 POP SWAP3 POP POP SWAP3 SWAP6 POP SWAP3 SWAP6 POP SWAP3 SWAP6 JUMP JUMPDEST PUSH1 0x0 DUP2 SWAP1 POP SWAP2 SWAP1 POP JUMP JUMPDEST PUSH2 0x5B40 DUP2 PUSH2 0x5B2D JUMP JUMPDEST DUP3 MSTORE POP POP JUMP JUMPDEST PUSH1 0x0 PUSH1 0x40 DUP3 ADD SWAP1 POP PUSH2 0x5B5B PUSH1 0x0 DUP4 ADD DUP6 PUSH2 0x5B37 JUMP JUMPDEST PUSH2 0x5B68 PUSH1 0x20 DUP4 ADD DUP5 PUSH2 0x5B37 JUMP JUMPDEST SWAP4 SWAP3 POP POP POP JUMP JUMPDEST PUSH1 0x0 PUSH1 0x20 DUP3 DUP5 SUB SLT ISZERO PUSH2 0x5B85 JUMPI PUSH2 0x5B84 PUSH2 0x5234 JUMP JUMPDEST JUMPDEST PUSH1 0x0 PUSH2 0x5B93 DUP5 DUP3 DUP6 ADD PUSH2 0x5465 JUMP JUMPDEST SWAP2 POP POP SWAP3 SWAP2 POP POP JUMP JUMPDEST PUSH1 0x0 DUP2 PUSH1 0xF SIGNEXTEND SWAP1 POP SWAP2 SWAP1 POP JUMP JUMPDEST PUSH2 0x5BB2 DUP2 PUSH2 0x5B9C JUMP JUMPDEST DUP3 MSTORE POP POP JUMP JUMPDEST PUSH1 0x0 PUSH1 0xA0 DUP3 ADD SWAP1 POP PUSH2 0x5BCD PUSH1 0x0 DUP4 ADD DUP9 PUSH2 0x52E8 JUMP JUMPDEST PUSH2 0x5BDA PUSH1 0x20 DUP4 ADD DUP8 PUSH2 0x520A JUMP JUMPDEST PUSH2 0x5BE7 PUSH1 0x40 DUP4 ADD DUP7 PUSH2 0x5BA9 JUMP JUMPDEST PUSH2 0x5BF4 PUSH1 0x60 DUP4 ADD DUP6 PUSH2 0x55A5 JUMP JUMPDEST PUSH2 0x5C01 PUSH1 0x80 DUP4 ADD DUP5 PUSH2 0x55A5 JUMP JUMPDEST SWAP7 SWAP6 POP POP POP POP POP POP JUMP JUMPDEST PUSH1 0x0 PUSH1 0x20 DUP3 DUP5 SUB SLT ISZERO PUSH2 0x5C21 JUMPI PUSH2 0x5C20 PUSH2 0x5234 JUMP JUMPDEST JUMPDEST PUSH1 0x0 PUSH2 0x5C2F DUP5 DUP3 DUP6 ADD PUSH2 0x5A7E JUMP JUMPDEST SWAP2 POP POP SWAP3 SWAP2 POP POP JUMP JUMPDEST PUSH1 0x0 PUSH1 0x40 DUP3 ADD SWAP1 POP PUSH2 0x5C4D PUSH1 0x0 DUP4 ADD DUP6 PUSH2 0x53C0 JUMP JUMPDEST PUSH2 0x5C5A PUSH1 0x20 DUP4 ADD DUP5 PUSH2 0x53C0 JUMP JUMPDEST SWAP4 SWAP3 POP POP POP JUMP JUMPDEST PUSH32 0x4E487B7100000000000000000000000000000000000000000000000000000000 PUSH1 0x0 MSTORE PUSH1 0x11 PUSH1 0x4 MSTORE PUSH1 0x24 PUSH1 0x0 REVERT JUMPDEST PUSH1 0x0 PUSH2 0x5C9B DUP3 PUSH2 0x53A4 JUMP JUMPDEST SWAP2 POP PUSH32 0xFFFFFFFFFFFFFFFFFFFFFFFFFFFFFFFFFFFFFFFFFFFFFFFFFFFFFFFFFF800000 DUP3 SUB PUSH2 0x5CCD JUMPI PUSH2 0x5CCC PUSH2 0x5C61 JUMP JUMPDEST JUMPDEST DUP2 PUSH1 0x0 SUB SWAP1 POP SWAP2 SWAP1 POP JUMP JUMPDEST PUSH1 0x0 DUP3 DUP3 MSTORE PUSH1 0x20 DUP3 ADD SWAP1 POP SWAP3 SWAP2 POP POP JUMP JUMPDEST DUP3 DUP2 DUP4 CALLDATACOPY PUSH1 0x0 DUP4 DUP4 ADD MSTORE POP POP POP JUMP JUMPDEST PUSH1 0x0 PUSH1 0x1F NOT PUSH1 0x1F DUP4 ADD AND SWAP1 POP SWAP2 SWAP1 POP JUMP JUMPDEST PUSH1 0x0 PUSH2 0x5D15 DUP4 DUP6 PUSH2 0x5CD8 JUMP JUMPDEST SWAP4 POP PUSH2 0x5D22 DUP4 DUP6 DUP5 PUSH2 0x5CE9 JUMP JUMPDEST PUSH2 0x5D2B DUP4 PUSH2 0x5CF8 JUMP JUMPDEST DUP5 ADD SWAP1 POP SWAP4 SWAP3 POP POP POP JUMP JUMPDEST PUSH1 0x0 PUSH1 0x60 DUP3 ADD SWAP1 POP PUSH2 0x5D4B PUSH1 0x0 DUP4 ADD DUP8 PUSH2 0x55A5 JUMP JUMPDEST PUSH2 0x5D58 PUSH1 0x20 DUP4 ADD DUP7 PUSH2 0x55A5 JUMP JUMPDEST DUP2 DUP2 SUB PUSH1 0x40 DUP4 ADD MSTORE PUSH2 0x5D6B DUP2 DUP5 DUP7 PUSH2 0x5D09 JUMP JUMPDEST SWAP1 POP SWAP6 SWAP5 POP POP POP POP POP JUMP JUMPDEST PUSH1 0x0 PUSH2 0x5D81 DUP3 PUSH2 0x523E JUMP JUMPDEST SWAP2 POP PUSH2 0x5D8C DUP4 PUSH2 0x523E JUMP JUMPDEST SWAP3 POP DUP3 DUP3 ADD SWAP1 POP DUP1 DUP3 GT ISZERO PUSH2 0x5DA4 JUMPI PUSH2 0x5DA3 PUSH2 0x5C61 JUMP JUMPDEST JUMPDEST SWAP3 SWAP2 POP POP JUMP JUMPDEST PUSH1 0x0 PUSH1 0x80 DUP3 ADD SWAP1 POP PUSH2 0x5DBF PUSH1 0x0 DUP4 ADD DUP8 PUSH2 0x51C4 JUMP JUMPDEST PUSH2 0x5DCC PUSH1 0x20 DUP4 ADD DUP7 PUSH2 0x520A JUMP JUMPDEST PUSH2 0x5DD9 PUSH1 0x40 DUP4 ADD DUP6 PUSH2 0x55A5 JUMP JUMPDEST PUSH2 0x5DE6 PUSH1 0x60 DUP4 ADD DUP5 PUSH2 0x55A5 JUMP JUMPDEST SWAP6 SWAP5 POP POP POP POP POP JUMP JUMPDEST PUSH1 0x0 DUP2 MLOAD SWAP1 POP PUSH2 0x5DFE DUP2 PUSH2 0x5248 JUMP JUMPDEST SWAP3 SWAP2 POP POP JUMP JUMPDEST PUSH1 0x0 PUSH1 0x20 DUP3 DUP5 SUB SLT ISZERO PUSH2 0x5E1A JUMPI PUSH2 0x5E19 PUSH2 0x5234 JUMP JUMPDEST JUMPDEST PUSH1 0x0 PUSH2 0x5E28 DUP5 DUP3 DUP6 ADD PUSH2 0x5DEF JUMP JUMPDEST SWAP2 POP POP SWAP3 SWAP2 POP POP JUMP JUMPDEST PUSH1 0x0 PUSH1 0x40 DUP3 ADD SWAP1 POP PUSH2 0x5E46 PUSH1 0x0 DUP4 ADD DUP6 PUSH2 0x51C4 JUMP JUMPDEST PUSH2 0x5E53 PUSH1 0x20 DUP4 ADD DUP5 PUSH2 0x55A5 JUMP JUMPDEST SWAP4 SWAP3 POP POP POP JUMP JUMPDEST PUSH1 0x0 DUP2 MLOAD SWAP1 POP PUSH2 0x5E69 DUP2 PUSH2 0x5A3B JUMP JUMPDEST SWAP3 SWAP2 POP POP JUMP JUMPDEST PUSH1 0x0 PUSH1 0x20 DUP3 DUP5 SUB SLT ISZERO PUSH2 0x5E85 JUMPI PUSH2 0x5E84 PUSH2 0x5234 JUMP JUMPDEST JUMPDEST PUSH1 0x0 PUSH2 0x5E93 DUP5 DUP3 DUP6 ADD PUSH2 0x5E5A JUMP JUMPDEST SWAP2 POP POP SWAP3 SWAP2 POP POP JUMP JUMPDEST PUSH1 0x0 PUSH2 0x5EA7 DUP3 PUSH2 0x51EE JUMP JUMPDEST SWAP2 POP PUSH2 0x5EB2 DUP4 PUSH2 0x51EE JUMP JUMPDEST SWAP3 POP DUP3 DUP3 SUB SWAP1 POP PUSH16 0xFFFFFFFFFFFFFFFFFFFFFFFFFFFFFFFF DUP2 GT ISZERO PUSH2 0x5EDA JUMPI PUSH2 0x5ED9 PUSH2 0x5C61 JUMP JUMPDEST JUMPDEST SWAP3 SWAP2 POP POP JUMP JUMPDEST PUSH1 0x0 DUP2 SWAP1 POP SWAP2 SWAP1 POP JUMP JUMPDEST PUSH1 0x0 PUSH2 0x5F05 PUSH2 0x5F00 PUSH2 0x5EFB DUP5 PUSH2 0x51EE JUMP JUMPDEST PUSH2 0x5EE0 JUMP JUMPDEST PUSH2 0x523E JUMP JUMPDEST SWAP1 POP SWAP2 SWAP1 POP JUMP JUMPDEST PUSH2 0x5F15 DUP2 PUSH2 0x5EEA JUMP JUMPDEST DUP3 MSTORE POP POP JUMP JUMPDEST PUSH1 0x0 PUSH1 0x40 DUP3 ADD SWAP1 POP PUSH2 0x5F30 PUSH1 0x0 DUP4 ADD DUP6 PUSH2 0x51C4 JUMP JUMPDEST PUSH2 0x5F3D PUSH1 0x20 DUP4 ADD DUP5 PUSH2 0x5F0C JUMP JUMPDEST SWAP4 SWAP3 POP POP POP JUMP JUMPDEST PUSH1 0x0 PUSH1 0x60 DUP3 ADD SWAP1 POP PUSH2 0x5F59 PUSH1 0x0 DUP4 ADD DUP7 PUSH2 0x51C4 JUMP JUMPDEST PUSH2 0x5F66 PUSH1 0x20 DUP4 ADD DUP6 PUSH2 0x5F0C JUMP JUMPDEST PUSH2 0x5F73 PUSH1 0x40 DUP4 ADD DUP5 PUSH2 0x5F0C JUMP JUMPDEST SWAP5 SWAP4 POP POP POP POP JUMP JUMPDEST PUSH1 0x0 PUSH2 0x5F86 DUP3 PUSH2 0x5B9C JUMP JUMPDEST SWAP2 POP PUSH32 0xFFFFFFFFFFFFFFFFFFFFFFFFFFFFFFFF80000000000000000000000000000000 DUP3 SUB PUSH2 0x5FB8 JUMPI PUSH2 0x5FB7 PUSH2 0x5C61 JUMP JUMPDEST JUMPDEST DUP2 PUSH1 0x0 SUB SWAP1 POP SWAP2 SWAP1 POP JUMP JUMPDEST PUSH1 0x0 PUSH2 0x5FCE DUP3 PUSH2 0x5B2D JUMP JUMPDEST SWAP2 POP PUSH32 0x8000000000000000000000000000000000000000000000000000000000000000 DUP3 SUB PUSH2 0x6000 JUMPI PUSH2 0x5FFF PUSH2 0x5C61 JUMP JUMPDEST JUMPDEST DUP2 PUSH1 0x0 SUB SWAP1 POP SWAP2 SWAP1 POP JUMP JUMPDEST PUSH1 0x0 PUSH2 0x6016 DUP3 PUSH2 0x51EE JUMP JUMPDEST SWAP2 POP PUSH2 0x6021 DUP4 PUSH2 0x51EE JUMP JUMPDEST SWAP3 POP DUP3 DUP3 ADD SWAP1 POP PUSH16 0xFFFFFFFFFFFFFFFFFFFFFFFFFFFFFFFF DUP2 GT ISZERO PUSH2 0x6049 JUMPI PUSH2 0x6048 PUSH2 0x5C61 JUMP JUMPDEST JUMPDEST SWAP3 SWAP2 POP POP JUMP JUMPDEST PUSH1 0x0 PUSH1 0x60 DUP3 ADD SWAP1 POP PUSH2 0x6064 PUSH1 0x0 DUP4 ADD DUP7 PUSH2 0x520A JUMP JUMPDEST PUSH2 0x6071 PUSH1 0x20 DUP4 ADD DUP6 PUSH2 0x55A5 JUMP JUMPDEST PUSH2 0x607E PUSH1 0x40 DUP4 ADD DUP5 PUSH2 0x55A5 JUMP JUMPDEST SWAP5 SWAP4 POP POP POP POP JUMP JUMPDEST PUSH1 0x0 PUSH2 0x6091 DUP3 PUSH2 0x523E JUMP JUMPDEST SWAP2 POP PUSH2 0x609C DUP4 PUSH2 0x523E JUMP JUMPDEST SWAP3 POP DUP3 DUP3 SUB SWAP1 POP DUP2 DUP2 GT ISZERO PUSH2 0x60B4 JUMPI PUSH2 0x60B3 PUSH2 0x5C61 JUMP JUMPDEST JUMPDEST SWAP3 SWAP2 POP POP JUMP JUMPDEST PUSH1 0x0 PUSH2 0x60C5 DUP3 PUSH2 0x53A4 JUMP JUMPDEST SWAP2 POP PUSH2 0x60D0 DUP4 PUSH2 0x53A4 JUMP JUMPDEST SWAP3 POP DUP3 DUP3 SUB SWAP1 POP PUSH3 0x7FFFFF DUP2 SGT PUSH32 0xFFFFFFFFFFFFFFFFFFFFFFFFFFFFFFFFFFFFFFFFFFFFFFFFFFFFFFFFFF800000 DUP3 SLT OR ISZERO PUSH2 0x610F JUMPI PUSH2 0x610E PUSH2 0x5C61 JUMP JUMPDEST JUMPDEST SWAP3 SWAP2 POP POP JUMP JUMPDEST PUSH1 0x0 PUSH1 0x60 DUP3 ADD SWAP1 POP PUSH2 0x612A PUSH1 0x0 DUP4 ADD DUP8 PUSH2 0x5B37 JUMP JUMPDEST PUSH2 0x6137 PUSH1 0x20 DUP4 ADD DUP7 PUSH2 0x5B37 JUMP JUMPDEST DUP2 DUP2 SUB PUSH1 0x40 DUP4 ADD MSTORE PUSH2 0x614A DUP2 DUP5 DUP7 PUSH2 0x5D09 JUMP JUMPDEST SWAP1 POP SWAP6 SWAP5 POP POP POP POP POP JUMP JUMPDEST PUSH1 0x0 PUSH1 0xA0 DUP3 ADD SWAP1 POP PUSH2 0x616A PUSH1 0x0 DUP4 ADD DUP9 PUSH2 0x5B37 JUMP JUMPDEST PUSH2 0x6177 PUSH1 0x20 DUP4 ADD DUP8 PUSH2 0x5B37 JUMP JUMPDEST PUSH2 0x6184 PUSH1 0x40 DUP4 ADD DUP7 PUSH2 0x5395 JUMP JUMPDEST PUSH2 0x6191 PUSH1 0x60 DUP4 ADD DUP6 PUSH2 0x520A JUMP JUMPDEST PUSH2 0x619E PUSH1 0x80 DUP4 ADD DUP5 PUSH2 0x53B1 JUMP JUMPDEST SWAP7 SWAP6 POP POP POP POP POP POP JUMP JUMPDEST PUSH32 0x4E487B7100000000000000000000000000000000000000000000000000000000 PUSH1 0x0 MSTORE PUSH1 0x32 PUSH1 0x4 MSTORE PUSH1 0x24 PUSH1 0x0 REVERT JUMPDEST PUSH32 0x4E487B7100000000000000000000000000000000000000000000000000000000 PUSH1 0x0 MSTORE PUSH1 0x12 PUSH1 0x4 MSTORE PUSH1 0x24 PUSH1 0x0 REVERT JUMPDEST PUSH1 0x0 PUSH2 0x6211 DUP3 PUSH2 0x523E JUMP JUMPDEST SWAP2 POP PUSH32 0xFFFFFFFFFFFFFFFFFFFFFFFFFFFFFFFFFFFFFFFFFFFFFFFFFFFFFFFFFFFFFFFF DUP3 SUB PUSH2 0x6243 JUMPI PUSH2 0x6242 PUSH2 0x5C61 JUMP JUMPDEST JUMPDEST PUSH1 0x1 DUP3 ADD SWAP1 POP SWAP2 SWAP1 POP JUMP JUMPDEST PUSH1 0x0 DUP2 PUSH1 0x60 SHL SWAP1 POP SWAP2 SWAP1 POP JUMP JUMPDEST PUSH1 0x0 PUSH2 0x6266 DUP3 PUSH2 0x624E JUMP JUMPDEST SWAP1 POP SWAP2 SWAP1 POP JUMP JUMPDEST PUSH1 0x0 PUSH2 0x6278 DUP3 PUSH2 0x625B JUMP JUMPDEST SWAP1 POP SWAP2 SWAP1 POP JUMP JUMPDEST PUSH2 0x6290 PUSH2 0x628B DUP3 PUSH2 0x51B2 JUMP JUMPDEST PUSH2 0x626D JUMP JUMPDEST DUP3 MSTORE POP POP JUMP JUMPDEST PUSH1 0x0 DUP2 PUSH1 0xE8 SHL SWAP1 POP SWAP2 SWAP1 POP JUMP JUMPDEST PUSH1 0x0 PUSH2 0x62AE DUP3 PUSH2 0x6296 JUMP JUMPDEST SWAP1 POP SWAP2 SWAP1 POP JUMP JUMPDEST PUSH2 0x62C6 PUSH2 0x62C1 DUP3 PUSH2 0x53A4 JUMP JUMPDEST PUSH2 0x62A3 JUMP JUMPDEST DUP3 MSTORE POP POP JUMP JUMPDEST PUSH1 0x0 PUSH2 0x62D8 DUP3 DUP7 PUSH2 0x627F JUMP JUMPDEST PUSH1 0x14 DUP3 ADD SWAP2 POP PUSH2 0x62E8 DUP3 DUP6 PUSH2 0x62B5 JUMP JUMPDEST PUSH1 0x3 DUP3 ADD SWAP2 POP PUSH2 0x62F8 DUP3 DUP5 PUSH2 0x62B5 JUMP JUMPDEST PUSH1 0x3 DUP3 ADD SWAP2 POP DUP2 SWAP1 POP SWAP5 SWAP4 POP POP POP POP JUMP JUMPDEST PUSH32 0x4E487B7100000000000000000000000000000000000000000000000000000000 PUSH1 0x0 MSTORE PUSH1 0x41 PUSH1 0x4 MSTORE PUSH1 0x24 PUSH1 0x0 REVERT JUMPDEST PUSH1 0x0 PUSH2 0x6343 DUP3 PUSH2 0x53A4 JUMP JUMPDEST SWAP2 POP PUSH2 0x634E DUP4 PUSH2 0x53A4 JUMP JUMPDEST SWAP3 POP DUP3 PUSH2 0x635E JUMPI PUSH2 0x635D PUSH2 0x61D7 JUMP JUMPDEST JUMPDEST PUSH1 0x1 PUSH1 0x0 SUB DUP4 EQ PUSH32 0xFFFFFFFFFFFFFFFFFFFFFFFFFFFFFFFFFFFFFFFFFFFFFFFFFFFFFFFFFF800000 DUP4 EQ AND ISZERO PUSH2 0x6397 JUMPI PUSH2 0x6396 PUSH2 0x5C61 JUMP JUMPDEST JUMPDEST DUP3 DUP3 SDIV SWAP1 POP SWAP3 SWAP2 POP POP JUMP JUMPDEST PUSH1 0x0 PUSH2 0x63AD DUP3 PUSH2 0x53A4 JUMP JUMPDEST SWAP2 POP PUSH2 0x63B8 DUP4 PUSH2 0x53A4 JUMP JUMPDEST SWAP3 POP DUP3 PUSH2 0x63C8 JUMPI PUSH2 0x63C7 PUSH2 0x61D7 JUMP JUMPDEST JUMPDEST DUP3 DUP3 SMOD SWAP1 POP SWAP3 SWAP2 POP POP JUMP JUMPDEST PUSH1 0x0 PUSH2 0x63DE DUP3 PUSH2 0x53A4 JUMP JUMPDEST SWAP2 POP PUSH32 0xFFFFFFFFFFFFFFFFFFFFFFFFFFFFFFFFFFFFFFFFFFFFFFFFFFFFFFFFFF800000 DUP3 SUB PUSH2 0x6410 JUMPI PUSH2 0x640F PUSH2 0x5C61 JUMP JUMPDEST JUMPDEST PUSH1 0x1 DUP3 SUB SWAP1 POP SWAP2 SWAP1 POP JUMP JUMPDEST PUSH1 0x0 PUSH2 0x6426 DUP3 PUSH2 0x53A4 JUMP JUMPDEST SWAP2 POP PUSH2 0x6431 DUP4 PUSH2 0x53A4 JUMP JUMPDEST SWAP3 POP DUP3 DUP3 MUL PUSH2 0x643F DUP2 PUSH2 0x53A4 JUMP JUMPDEST SWAP2 POP DUP1 DUP3 EQ PUSH2 0x6451 JUMPI PUSH2 0x6450 PUSH2 0x5C61 JUMP JUMPDEST JUMPDEST POP SWAP3 SWAP2 POP POP JUMP JUMPDEST PUSH1 0x0 PUSH1 0xFF DUP3 AND SWAP1 POP SWAP2 SWAP1 POP JUMP JUMPDEST PUSH1 0x0 PUSH2 0x6470 DUP3 PUSH2 0x6458 JUMP JUMPDEST SWAP2 POP PUSH2 0x647B DUP4 PUSH2 0x6458 JUMP JUMPDEST SWAP3 POP DUP3 DUP3 SUB SWAP1 POP PUSH1 0xFF DUP2 GT ISZERO PUSH2 0x6494 JUMPI PUSH2 0x6493 PUSH2 0x5C61 JUMP JUMPDEST JUMPDEST SWAP3 SWAP2 POP POP JUMP JUMPDEST PUSH1 0x0 PUSH2 0x64A5 DUP3 PUSH2 0x53A4 JUMP JUMPDEST SWAP2 POP PUSH2 0x64B0 DUP4 PUSH2 0x53A4 JUMP JUMPDEST SWAP3 POP DUP3 DUP3 ADD SWAP1 POP PUSH32 0xFFFFFFFFFFFFFFFFFFFFFFFFFFFFFFFFFFFFFFFFFFFFFFFFFFFFFFFFFF800000 DUP2 SLT PUSH3 0x7FFFFF DUP3 SGT OR ISZERO PUSH2 0x64EF JUMPI PUSH2 0x64EE PUSH2 0x5C61 JUMP JUMPDEST JUMPDEST SWAP3 SWAP2 POP POP JUMP JUMPDEST PUSH1 0x0 DUP3 DUP3 MSTORE PUSH1 0x20 DUP3 ADD SWAP1 POP SWAP3 SWAP2 POP POP JUMP JUMPDEST PUSH32 0x5400000000000000000000000000000000000000000000000000000000000000 PUSH1 0x0 DUP3 ADD MSTORE POP JUMP JUMPDEST PUSH1 0x0 PUSH2 0x653C PUSH1 0x1 DUP4 PUSH2 0x64F5 JUMP JUMPDEST SWAP2 POP PUSH2 0x6547 DUP3 PUSH2 0x6506 JUMP JUMPDEST PUSH1 0x20 DUP3 ADD SWAP1 POP SWAP2 SWAP1 POP JUMP JUMPDEST PUSH1 0x0 PUSH1 0x20 DUP3 ADD SWAP1 POP DUP2 DUP2 SUB PUSH1 0x0 DUP4 ADD MSTORE PUSH2 0x656B DUP2 PUSH2 0x652F JUMP JUMPDEST SWAP1 POP SWAP2 SWAP1 POP JUMP JUMPDEST PUSH1 0x0 PUSH2 0x657D DUP3 PUSH2 0x523E JUMP JUMPDEST SWAP2 POP PUSH2 0x6588 DUP4 PUSH2 0x523E JUMP JUMPDEST SWAP3 POP DUP3 DUP3 MUL PUSH2 0x6596 DUP2 PUSH2 0x523E JUMP JUMPDEST SWAP2 POP DUP3 DUP3 DIV DUP5 EQ DUP4 ISZERO OR PUSH2 0x65AD JUMPI PUSH2 0x65AC PUSH2 0x5C61 JUMP JUMPDEST JUMPDEST POP SWAP3 SWAP2 POP POP JUMP JUMPDEST PUSH1 0x0 PUSH2 0x65BF DUP3 PUSH2 0x523E JUMP JUMPDEST SWAP2 POP PUSH2 0x65CA DUP4 PUSH2 0x523E JUMP JUMPDEST SWAP3 POP DUP3 PUSH2 0x65DA JUMPI PUSH2 0x65D9 PUSH2 0x61D7 JUMP JUMPDEST JUMPDEST DUP3 DUP3 DIV SWAP1 POP SWAP3 SWAP2 POP POP JUMP JUMPDEST PUSH1 0x0 PUSH2 0x65F0 DUP3 PUSH2 0x523E JUMP JUMPDEST SWAP2 POP PUSH2 0x65FB DUP4 PUSH2 0x523E JUMP JUMPDEST SWAP3 POP DUP3 PUSH2 0x660B JUMPI PUSH2 0x660A PUSH2 0x61D7 JUMP JUMPDEST JUMPDEST DUP3 DUP3 MOD SWAP1 POP SWAP3 SWAP2 POP POP JUMP JUMPDEST PUSH1 0x0 PUSH2 0x6621 DUP3 PUSH2 0x5A02 JUMP JUMPDEST SWAP2 POP PUSH2 0x662C DUP4 PUSH2 0x5A02 JUMP JUMPDEST SWAP3 POP DUP3 DUP3 SUB SWAP1 POP PUSH3 0xFFFFFF DUP2 GT ISZERO PUSH2 0x6647 JUMPI PUSH2 0x6646 PUSH2 0x5C61 JUMP JUMPDEST JUMPDEST SWAP3 SWAP2 POP POP JUMP JUMPDEST PUSH32 0x5200000000000000000000000000000000000000000000000000000000000000 PUSH1 0x0 DUP3 ADD MSTORE POP JUMP JUMPDEST PUSH1 0x0 PUSH2 0x6683 PUSH1 0x1 DUP4 PUSH2 0x64F5 JUMP JUMPDEST SWAP2 POP PUSH2 0x668E DUP3 PUSH2 0x664D JUMP JUMPDEST PUSH1 0x20 DUP3 ADD SWAP1 POP SWAP2 SWAP1 POP JUMP JUMPDEST PUSH1 0x0 PUSH1 0x20 DUP3 ADD SWAP1 POP DUP2 DUP2 SUB PUSH1 0x0 DUP4 ADD MSTORE PUSH2 0x66B2 DUP2 PUSH2 0x6676 JUMP JUMPDEST SWAP1 POP SWAP2 SWAP1 POP JUMP JUMPDEST PUSH1 0x0 PUSH2 0x66C4 DUP3 PUSH2 0x5B2D JUMP JUMPDEST SWAP2 POP PUSH2 0x66CF DUP4 PUSH2 0x5B2D JUMP JUMPDEST SWAP3 POP DUP3 DUP3 SUB SWAP1 POP DUP2 DUP2 SLT PUSH1 0x0 DUP5 SLT AND DUP3 DUP3 SGT PUSH1 0x0 DUP6 SLT ISZERO AND OR ISZERO PUSH2 0x66F6 JUMPI PUSH2 0x66F5 PUSH2 0x5C61 JUMP JUMPDEST JUMPDEST SWAP3 SWAP2 POP POP JUMP JUMPDEST PUSH1 0x0 PUSH2 0x6707 DUP3 PUSH2 0x5B2D JUMP JUMPDEST SWAP2 POP PUSH2 0x6712 DUP4 PUSH2 0x5B2D JUMP JUMPDEST SWAP3 POP DUP3 DUP3 MUL PUSH2 0x6720 DUP2 PUSH2 0x5B2D JUMP JUMPDEST SWAP2 POP PUSH32 0x8000000000000000000000000000000000000000000000000000000000000000 DUP5 EQ PUSH1 0x0 DUP5 SLT AND ISZERO PUSH2 0x6758 JUMPI PUSH2 0x6757 PUSH2 0x5C61 JUMP JUMPDEST JUMPDEST DUP3 DUP3 SDIV DUP5 EQ DUP4 ISZERO OR PUSH2 0x676D JUMPI PUSH2 0x676C PUSH2 0x5C61 JUMP JUMPDEST JUMPDEST POP SWAP3 SWAP2 POP POP JUMP JUMPDEST PUSH1 0x0 PUSH2 0x677F DUP3 PUSH2 0x5B2D JUMP JUMPDEST SWAP2 POP PUSH2 0x678A DUP4 PUSH2 0x5B2D JUMP JUMPDEST SWAP3 POP DUP3 DUP3 ADD SWAP1 POP DUP3 DUP2 SLT ISZERO PUSH1 0x0 DUP4 SLT AND DUP4 DUP3 SLT PUSH1 0x0 DUP5 SLT ISZERO AND OR ISZERO PUSH2 0x67B2 JUMPI PUSH2 0x67B1 PUSH2 0x5C61 JUMP JUMPDEST JUMPDEST SWAP3 SWAP2 POP POP JUMP JUMPDEST PUSH1 0x0 PUSH2 0x67C3 DUP3 PUSH2 0x532E JUMP JUMPDEST SWAP2 POP PUSH2 0x67CE DUP4 PUSH2 0x532E JUMP JUMPDEST SWAP3 POP DUP3 DUP3 SUB SWAP1 POP PUSH2 0xFFFF DUP2 GT ISZERO PUSH2 0x67E8 JUMPI PUSH2 0x67E7 PUSH2 0x5C61 JUMP JUMPDEST JUMPDEST SWAP3 SWAP2 POP POP JUMP JUMPDEST PUSH1 0x0 PUSH2 0x67F9 DUP3 PUSH2 0x532E JUMP JUMPDEST SWAP2 POP PUSH2 0x6804 DUP4 PUSH2 0x532E JUMP JUMPDEST SWAP3 POP DUP3 DUP3 ADD SWAP1 POP PUSH2 0xFFFF DUP2 GT ISZERO PUSH2 0x681E JUMPI PUSH2 0x681D PUSH2 0x5C61 JUMP JUMPDEST JUMPDEST SWAP3 SWAP2 POP POP JUMP JUMPDEST PUSH1 0x0 PUSH2 0x682F DUP3 PUSH2 0x532E JUMP JUMPDEST SWAP2 POP PUSH2 0x683A DUP4 PUSH2 0x532E JUMP JUMPDEST SWAP3 POP DUP3 PUSH2 0x684A JUMPI PUSH2 0x6849 PUSH2 0x61D7 JUMP JUMPDEST JUMPDEST DUP3 DUP3 MOD SWAP1 POP SWAP3 SWAP2 POP POP JUMP JUMPDEST PUSH1 0x0 PUSH2 0x6860 DUP3 PUSH2 0x52A1 JUMP JUMPDEST SWAP2 POP PUSH2 0x686B DUP4 PUSH2 0x52A1 JUMP JUMPDEST SWAP3 POP DUP3 DUP3 SUB SWAP1 POP PUSH4 0xFFFFFFFF DUP2 GT ISZERO PUSH2 0x6887 JUMPI PUSH2 0x6886 PUSH2 0x5C61 JUMP JUMPDEST JUMPDEST SWAP3 SWAP2 POP POP JUMP JUMPDEST PUSH1 0x0 PUSH2 0x6898 DUP3 PUSH2 0x52C0 JUMP JUMPDEST SWAP2 POP PUSH2 0x68A3 DUP4 PUSH2 0x52C0 JUMP JUMPDEST SWAP3 POP DUP3 DUP3 SUB SWAP1 POP PUSH7 0x7FFFFFFFFFFFFF DUP2 SGT PUSH32 0xFFFFFFFFFFFFFFFFFFFFFFFFFFFFFFFFFFFFFFFFFFFFFFFFFF80000000000000 DUP3 SLT OR ISZERO PUSH2 0x68E6 JUMPI PUSH2 0x68E5 PUSH2 0x5C61 JUMP JUMPDEST JUMPDEST SWAP3 SWAP2 POP POP JUMP JUMPDEST PUSH1 0x0 PUSH2 0x68F7 DUP3 PUSH2 0x52C0 JUMP JUMPDEST SWAP2 POP PUSH2 0x6902 DUP4 PUSH2 0x52C0 JUMP JUMPDEST SWAP3 POP DUP3 PUSH2 0x6912 JUMPI PUSH2 0x6911 PUSH2 0x61D7 JUMP JUMPDEST JUMPDEST PUSH1 0x1 PUSH1 0x0 SUB DUP4 EQ PUSH32 0xFFFFFFFFFFFFFFFFFFFFFFFFFFFFFFFFFFFFFFFFFFFFFFFFFF80000000000000 DUP4 EQ AND ISZERO PUSH2 0x694B JUMPI PUSH2 0x694A PUSH2 0x5C61 JUMP JUMPDEST JUMPDEST DUP3 DUP3 SDIV SWAP1 POP SWAP3 SWAP2 POP POP JUMP JUMPDEST PUSH1 0x0 PUSH2 0x6961 DUP3 PUSH2 0x52C0 JUMP JUMPDEST SWAP2 POP PUSH2 0x696C DUP4 PUSH2 0x52C0 JUMP JUMPDEST SWAP3 POP DUP3 DUP3 MUL PUSH2 0x697A DUP2 PUSH2 0x52C0 JUMP JUMPDEST SWAP2 POP DUP1 DUP3 EQ PUSH2 0x698C JUMPI PUSH2 0x698B PUSH2 0x5C61 JUMP JUMPDEST JUMPDEST POP SWAP3 SWAP2 POP POP JUMP JUMPDEST PUSH1 0x0 PUSH2 0x699E DUP3 PUSH2 0x52C0 JUMP JUMPDEST SWAP2 POP PUSH2 0x69A9 DUP4 PUSH2 0x52C0 JUMP JUMPDEST SWAP3 POP DUP3 DUP3 ADD SWAP1 POP PUSH32 0xFFFFFFFFFFFFFFFFFFFFFFFFFFFFFFFFFFFFFFFFFFFFFFFFFF80000000000000 DUP2 SLT PUSH7 0x7FFFFFFFFFFFFF DUP3 SGT OR ISZERO PUSH2 0x69EC JUMPI PUSH2 0x69EB PUSH2 0x5C61 JUMP JUMPDEST JUMPDEST SWAP3 SWAP2 POP POP JUMP JUMPDEST PUSH1 0x0 PUSH2 0x69FD DUP3 PUSH2 0x6458 JUMP JUMPDEST SWAP2 POP PUSH2 0x6A08 DUP4 PUSH2 0x6458 JUMP JUMPDEST SWAP3 POP DUP3 DUP3 ADD SWAP1 POP PUSH1 0xFF DUP2 GT ISZERO PUSH2 0x6A21 JUMPI PUSH2 0x6A20 PUSH2 0x5C61 JUMP JUMPDEST JUMPDEST SWAP3 SWAP2 POP POP JUMP JUMPDEST PUSH1 0x0 PUSH2 0x6A32 DUP3 PUSH2 0x5192 JUMP JUMPDEST SWAP2 POP PUSH2 0x6A3D DUP4 PUSH2 0x5192 JUMP JUMPDEST SWAP3 POP DUP3 DUP3 SUB SWAP1 POP PUSH20 0xFFFFFFFFFFFFFFFFFFFFFFFFFFFFFFFFFFFFFFFF DUP2 GT ISZERO PUSH2 0x6A69 JUMPI PUSH2 0x6A68 PUSH2 0x5C61 JUMP JUMPDEST JUMPDEST SWAP3 SWAP2 POP POP JUMP JUMPDEST PUSH32 0x4F4C440000000000000000000000000000000000000000000000000000000000 PUSH1 0x0 DUP3 ADD MSTORE POP JUMP JUMPDEST PUSH1 0x0 PUSH2 0x6AA5 PUSH1 0x3 DUP4 PUSH2 0x64F5 JUMP JUMPDEST SWAP2 POP PUSH2 0x6AB0 DUP3 PUSH2 0x6A6F JUMP JUMPDEST PUSH1 0x20 DUP3 ADD SWAP1 POP SWAP2 SWAP1 POP JUMP JUMPDEST PUSH1 0x0 PUSH1 0x20 DUP3 ADD SWAP1 POP DUP2 DUP2 SUB PUSH1 0x0 DUP4 ADD MSTORE PUSH2 0x6AD4 DUP2 PUSH2 0x6A98 JUMP JUMPDEST SWAP1 POP SWAP2 SWAP1 POP JUMP JUMPDEST PUSH1 0x0 PUSH5 0xFFFFFFFFFF DUP3 AND SWAP1 POP SWAP2 SWAP1 POP JUMP JUMPDEST PUSH1 0x0 PUSH2 0x6AF7 DUP3 PUSH2 0x6ADB JUMP JUMPDEST SWAP2 POP PUSH2 0x6B02 DUP4 PUSH2 0x6ADB JUMP JUMPDEST SWAP3 POP DUP3 DUP3 ADD SWAP1 POP PUSH5 0xFFFFFFFFFF DUP2 GT ISZERO PUSH2 0x6B1F JUMPI PUSH2 0x6B1E PUSH2 0x5C61 JUMP JUMPDEST JUMPDEST SWAP3 SWAP2 POP POP JUMP INVALID LOG2 PUSH5 0x6970667358 0x22 SLT KECCAK256 SWAP3 0xBD DUP8 0xDE PUSH28 0x4211151E23188FB0D50321A2734F6E02D6D4D638A9126CB00CE27164 PUSH20 0x6F6C634300081A0033A264697066735822122014 DIV DELEGATECALL ADDRESS DUP7 DUP9 0xB3 0xAF MLOAD 0xE6 0x2B TLOAD 0xE0 PUSH20 0x7CAAFFC65B22ED14735B3A78906F613892EA6473 PUSH16 0x6C634300081A00330000000000000000 "
		},
		"gasEstimates": {
			"creation": {
				"codeDepositCost": "6288400",
				"executionCost": "56538",
				"totalCost": "6344938"
			},
			"external": {
				"createPool(address,address,uint24)": "infinite",
				"fees(uint24)": "infinite",
				"parameters()": "infinite",
				"pools(address,address,uint24)": "infinite"
			}
		},
		"methodIdentifiers": {
			"createPool(address,address,uint24)": "a1671295",
			"fees(uint24)": "6441c780",
			"parameters()": "89035730",
			"pools(address,address,uint24)": "bae0d918"
		}
	},
	"abi": [
		{
			"inputs": [],
			"stateMutability": "nonpayable",
			"type": "constructor"
		},
		{
			"inputs": [],
			"name": "PoolAlreadyExists",
			"type": "error"
		},
		{
			"inputs": [],
			"name": "TokensMustBeDifferent",
			"type": "error"
		},
		{
			"inputs": [],
			"name": "UnsupportedFee",
			"type": "error"
		},
		{
			"inputs": [],
			"name": "ZeroAddressNotAllowed",
			"type": "error"
		},
		{
			"anonymous": false,
			"inputs": [
				{
					"indexed": true,
					"internalType": "address",
					"name": "token0",
					"type": "address"
				},
				{
					"indexed": true,
					"internalType": "address",
					"name": "token1",
					"type": "address"
				},
				{
					"indexed": true,
					"internalType": "uint24",
					"name": "fee",
					"type": "uint24"
				},
				{
					"indexed": false,
					"internalType": "address",
					"name": "pool",
					"type": "address"
				}
			],
			"name": "PoolCreated",
			"type": "event"
		},
		{
			"inputs": [
				{
					"internalType": "address",
					"name": "tokenX",
					"type": "address"
				},
				{
					"internalType": "address",
					"name": "tokenY",
					"type": "address"
				},
				{
					"internalType": "uint24",
					"name": "fee",
					"type": "uint24"
				}
			],
			"name": "createPool",
			"outputs": [
				{
					"internalType": "address",
					"name": "pool",
					"type": "address"
				}
			],
			"stateMutability": "nonpayable",
			"type": "function"
		},
		{
			"inputs": [
				{
					"internalType": "uint24",
					"name": "",
					"type": "uint24"
				}
			],
			"name": "fees",
			"outputs": [
				{
					"internalType": "uint24",
					"name": "",
					"type": "uint24"
				}
			],
			"stateMutability": "view",
			"type": "function"
		},
		{
			"inputs": [],
			"name": "parameters",
			"outputs": [
				{
					"internalType": "address",
					"name": "factory",
					"type": "address"
				},
				{
					"internalType": "address",
					"name": "token0",
					"type": "address"
				},
				{
					"internalType": "address",
					"name": "token1",
					"type": "address"
				},
				{
					"internalType": "uint24",
					"name": "tickSpacing",
					"type": "uint24"
				},
				{
					"internalType": "uint24",
					"name": "fee",
					"type": "uint24"
				}
			],
			"stateMutability": "view",
			"type": "function"
		},
		{
			"inputs": [
				{
					"internalType": "address",
					"name": "",
					"type": "address"
				},
				{
					"internalType": "address",
					"name": "",
					"type": "address"
				},
				{
					"internalType": "uint24",
					"name": "",
					"type": "uint24"
				}
			],
			"name": "pools",
			"outputs": [
				{
					"internalType": "address",
					"name": "",
					"type": "address"
				}
			],
			"stateMutability": "view",
			"type": "function"
		}
	]
}