{
	"data": {
		"bytecode": {
			"linkReferences": {},
			"object": "6080604052348015600f57600080fd5b50611ca78061001f6000396000f3fe608060405234801561001057600080fd5b506004361061004c5760003560e01c8063190c175214610051578063d348799714610082578063dd5a12d81461009e578063fa461e33146100cf575b600080fd5b61006b60048036038101906100669190611024565b6100eb565b60405161007992919061106a565b60405180910390f35b61009c60048036038101906100979190611124565b610438565b005b6100b860048036038101906100b3919061125a565b610564565b6040516100c692919061130d565b60405180910390f35b6100e960048036038101906100e49190611362565b61065d565b005b600080600083600001602081019061010391906113d6565b905060008173ffffffffffffffffffffffffffffffffffffffff16633850c7bd6040518163ffffffff1660e01b81526004016040805180830381865afa158015610151573d6000803e3d6000fd5b505050506040513d601f19601f820116820180604052508101906101759190611451565b509050600061019586602001602081019061019091906114a6565b61079d565b905060006101b48760400160208101906101af91906114a6565b61079d565b905060006101cd8484848b606001358c60800135610c6a565b90508473ffffffffffffffffffffffffffffffffffffffff16633c8a7d8d338a60200160208101906101ff91906114a6565b8b604001602081019061021291906114a6565b8560405180606001604052808c73ffffffffffffffffffffffffffffffffffffffff16630dfe16816040518163ffffffff1660e01b8152600401602060405180830381865afa158015610269573d6000803e3d6000fd5b505050506040513d601f19601f8201168201806040525081019061028d91906114e8565b73ffffffffffffffffffffffffffffffffffffffff1681526020018c73ffffffffffffffffffffffffffffffffffffffff1663d21220a76040518163ffffffff1660e01b8152600401602060405180830381865afa1580156102f3573d6000803e3d6000fd5b505050506040513d601f19601f8201168201806040525081019061031791906114e8565b73ffffffffffffffffffffffffffffffffffffffff1681526020013373ffffffffffffffffffffffffffffffffffffffff1681525060405160200161035c9190611566565b6040516020818303038152906040526040518663ffffffff1660e01b815260040161038b95949392919061165a565b60408051808303816000875af11580156103a9573d6000803e3d6000fd5b505050506040513d601f19601f820116820180604052508101906103cd91906116c9565b80975081985050508760a001358710806103ea57508760c0013586105b1561042e5786866040517fa8f6c8d000000000000000000000000000000000000000000000000000000000815260040161042592919061106a565b60405180910390fd5b5050505050915091565b6000828281019061044991906117ed565b9050806000015173ffffffffffffffffffffffffffffffffffffffff166323b872dd826040015133886040518463ffffffff1660e01b81526004016104909392919061181a565b6020604051808303816000875af11580156104af573d6000803e3d6000fd5b505050506040513d601f19601f820116820180604052508101906104d39190611866565b50806020015173ffffffffffffffffffffffffffffffffffffffff166323b872dd826040015133876040518463ffffffff1660e01b81526004016105199392919061181a565b6020604051808303816000875af1158015610538573d6000803e3d6000fd5b505050506040513d601f19601f8201168201806040525081019061055c9190611866565b505050505050565b6000808773ffffffffffffffffffffffffffffffffffffffff1663dd5a12d833898960008a73ffffffffffffffffffffffffffffffffffffffff16146105aa57896105e9565b8b6105d557600173fffd8963efd1fc6a506488495d951d5263988d266105d091906118c2565b6105e8565b60016401000276a36105e7919061190a565b5b5b89896040518763ffffffff1660e01b815260040161060c969594939291906119ac565b60408051808303816000875af115801561062a573d6000803e3d6000fd5b505050506040513d601f19601f8201168201806040525081019061064e9190611a1d565b91509150965096945050505050565b6000828281019061066e91906117ed565b9050600085131561070357806000015173ffffffffffffffffffffffffffffffffffffffff166323b872dd826040015133886040518463ffffffff1660e01b81526004016106be9392919061181a565b6020604051808303816000875af11580156106dd573d6000803e3d6000fd5b505050506040513d601f19601f820116820180604052508101906107019190611866565b505b600084131561079657806020015173ffffffffffffffffffffffffffffffffffffffff166323b872dd826040015133876040518463ffffffff1660e01b81526004016107519392919061181a565b6020604051808303816000875af1158015610770573d6000803e3d6000fd5b505050506040513d601f19601f820116820180604052508101906107949190611866565b505b5050505050565b60008060008360020b126107b4578260020b6107c2565b8260020b6107c190611a5d565b5b90507ffffffffffffffffffffffffffffffffffffffffffffffffffffffffffff276186107ee90611aa5565b62ffffff16811115610835576040517f08c379a000000000000000000000000000000000000000000000000000000000815260040161082c90611b4a565b60405180910390fd5b60008060018316036108585770010000000000000000000000000000000061086a565b6ffffcb933bd6fad37aa2d162d1a5940015b70ffffffffffffffffffffffffffffffffff169050600060028316146108ad5760806ffff97272373d413259a46990580e213a826108a89190611b6a565b901c90505b600060048316146108db5760806ffff2e50f5f656932ef12357cf3c7fdcc826108d69190611b6a565b901c90505b600060088316146109095760806fffe5caca7e10e4e61c3624eaa0941cd0826109049190611b6a565b901c90505b600060108316146109375760806fffcb9843d60f6159c9db58835c926644826109329190611b6a565b901c90505b600060208316146109655760806fff973b41fa98c081472e6896dfb254c0826109609190611b6a565b901c90505b600060408316146109935760806fff2ea16466c96a3843ec78b326b528618261098e9190611b6a565b901c90505b600060808316146109c15760806ffe5dee046a99a2a811c461f1969c3053826109bc9190611b6a565b901c90505b60006101008316146109f05760806ffcbe86c7900a88aedcffc83b479aa3a4826109eb9190611b6a565b901c90505b6000610200831614610a1f5760806ff987a7253ac413176f2b074cf7815e5482610a1a9190611b6a565b901c90505b6000610400831614610a4e5760806ff3392b0822b70005940c7a398e4b70f382610a499190611b6a565b901c90505b6000610800831614610a7d5760806fe7159475a2c29b7443b29c7fa6e889d982610a789190611b6a565b901c90505b6000611000831614610aac5760806fd097f3bdfd2022b8845ad8f792aa582582610aa79190611b6a565b901c90505b6000612000831614610adb5760806fa9f746462d870fdf8a65dc1f90e061e582610ad69190611b6a565b901c90505b6000614000831614610b0a5760806f70d869a156d2a1b890bb3df62baf32f782610b059190611b6a565b901c90505b6000618000831614610b395760806f31be135f97d08fd981231505542fcfa682610b349190611b6a565b901c90505b600062010000831614610b695760806f09aa508b5b7a84e1c677de54f3e99bc982610b649190611b6a565b901c90505b600062020000831614610b985760806e5d6af8dedb81196699c329225ee60482610b939190611b6a565b901c90505b600062040000831614610bc65760806d2216e584f5fa1ea926041bedfe9882610bc19190611b6a565b901c90505b600062080000831614610bf25760806b048a170391f7dc42444e8fa282610bed9190611b6a565b901c90505b60008460020b1315610c2d57807fffffffffffffffffffffffffffffffffffffffffffffffffffffffffffffffff610c2a9190611bdb565b90505b600064010000000082610c409190611c0c565b14610c4c576001610c4f565b60005b60ff16602082901c610c619190611c3d565b92505050919050565b60008373ffffffffffffffffffffffffffffffffffffffff168573ffffffffffffffffffffffffffffffffffffffff161115610cab57838580955081965050505b8473ffffffffffffffffffffffffffffffffffffffff168673ffffffffffffffffffffffffffffffffffffffff1611610cf057610ce9858585610d95565b9050610d8c565b8373ffffffffffffffffffffffffffffffffffffffff168673ffffffffffffffffffffffffffffffffffffffff1611610d7d576000610d30878686610d95565b90506000610d3f878986610e54565b9050806fffffffffffffffffffffffffffffffff16826fffffffffffffffffffffffffffffffff1610610d725780610d74565b815b92505050610d8b565b610d88858584610e54565b90505b5b95945050505050565b60008273ffffffffffffffffffffffffffffffffffffffff168473ffffffffffffffffffffffffffffffffffffffff161115610dd657828480945081955050505b6000610e1c8573ffffffffffffffffffffffffffffffffffffffff168573ffffffffffffffffffffffffffffffffffffffff166c01000000000000000000000000610ed7565b9050610e4a83828787610e2f91906118c2565b73ffffffffffffffffffffffffffffffffffffffff16610ed7565b9150509392505050565b60008273ffffffffffffffffffffffffffffffffffffffff168473ffffffffffffffffffffffffffffffffffffffff161115610e9557828480945081955050505b610ece826c010000000000000000000000008686610eb391906118c2565b73ffffffffffffffffffffffffffffffffffffffff16610ed7565b90509392505050565b6000806000801985870985870292508281108382030391505060008103610f1257838281610f0857610f07611bac565b5b0492505050610fe5565b838110610f585780846040517f773cc18c000000000000000000000000000000000000000000000000000000008152600401610f4f92919061106a565b60405180910390fd5b60008486880990508281118203915080830392506000600186190186169050808604955080840493506001818260000304019050808302841793506000600287600302189050808702600203810290508087026002038102905080870260020381029050808702600203810290508087026002038102905080870260020381029050808502955050505050505b9392505050565b6000604051905090565b600080fd5b600080fd5b600080fd5b600060e0828403121561101b5761101a611000565b5b81905092915050565b600060e0828403121561103a57611039610ff6565b5b600061104884828501611005565b91505092915050565b6000819050919050565b61106481611051565b82525050565b600060408201905061107f600083018561105b565b61108c602083018461105b565b9392505050565b61109c81611051565b81146110a757600080fd5b50565b6000813590506110b981611093565b92915050565b600080fd5b600080fd5b600080fd5b60008083601f8401126110e4576110e36110bf565b5b8235905067ffffffffffffffff811115611101576111006110c4565b5b60208301915083600182028301111561111d5761111c6110c9565b5b9250929050565b6000806000806060858703121561113e5761113d610ff6565b5b600061114c878288016110aa565b945050602061115d878288016110aa565b935050604085013567ffffffffffffffff81111561117e5761117d610ffb565b5b61118a878288016110ce565b925092505092959194509250565b600073ffffffffffffffffffffffffffffffffffffffff82169050919050565b60006111c382611198565b9050919050565b6111d3816111b8565b81146111de57600080fd5b50565b6000813590506111f0816111ca565b92915050565b60008115159050919050565b61120b816111f6565b811461121657600080fd5b50565b60008135905061122881611202565b92915050565b61123781611198565b811461124257600080fd5b50565b6000813590506112548161122e565b92915050565b60008060008060008060a0878903121561127757611276610ff6565b5b600061128589828a016111e1565b965050602061129689828a01611219565b95505060406112a789828a016110aa565b94505060606112b889828a01611245565b935050608087013567ffffffffffffffff8111156112d9576112d8610ffb565b5b6112e589828a016110ce565b92509250509295509295509295565b6000819050919050565b611307816112f4565b82525050565b600060408201905061132260008301856112fe565b61132f60208301846112fe565b9392505050565b61133f816112f4565b811461134a57600080fd5b50565b60008135905061135c81611336565b92915050565b6000806000806060858703121561137c5761137b610ff6565b5b600061138a8782880161134d565b945050602061139b8782880161134d565b935050604085013567ffffffffffffffff8111156113bc576113bb610ffb565b5b6113c8878288016110ce565b925092505092959194509250565b6000602082840312156113ec576113eb610ff6565b5b60006113fa848285016111e1565b91505092915050565b6000815190506114128161122e565b92915050565b60008160020b9050919050565b61142e81611418565b811461143957600080fd5b50565b60008151905061144b81611425565b92915050565b6000806040838503121561146857611467610ff6565b5b600061147685828601611403565b92505060206114878582860161143c565b9150509250929050565b6000813590506114a081611425565b92915050565b6000602082840312156114bc576114bb610ff6565b5b60006114ca84828501611491565b91505092915050565b6000815190506114e2816111ca565b92915050565b6000602082840312156114fe576114fd610ff6565b5b600061150c848285016114d3565b91505092915050565b61151e816111b8565b82525050565b60608201600082015161153a6000850182611515565b50602082015161154d6020850182611515565b5060408201516115606040850182611515565b50505050565b600060608201905061157b6000830184611524565b92915050565b61158a816111b8565b82525050565b61159981611418565b82525050565b60006fffffffffffffffffffffffffffffffff82169050919050565b6115c48161159f565b82525050565b600081519050919050565b600082825260208201905092915050565b60005b838110156116045780820151818401526020810190506115e9565b60008484015250505050565b6000601f19601f8301169050919050565b600061162c826115ca565b61163681856115d5565b93506116468185602086016115e6565b61164f81611610565b840191505092915050565b600060a08201905061166f6000830188611581565b61167c6020830187611590565b6116896040830186611590565b61169660608301856115bb565b81810360808301526116a88184611621565b90509695505050505050565b6000815190506116c381611093565b92915050565b600080604083850312156116e0576116df610ff6565b5b60006116ee858286016116b4565b92505060206116ff858286016116b4565b9150509250929050565b600080fd5b7f4e487b7100000000000000000000000000000000000000000000000000000000600052604160045260246000fd5b61174682611610565b810181811067ffffffffffffffff821117156117655761176461170e565b5b80604052505050565b6000611778610fec565b9050611784828261173d565b919050565b60006060828403121561179f5761179e611709565b5b6117a9606061176e565b905060006117b9848285016111e1565b60008301525060206117cd848285016111e1565b60208301525060406117e1848285016111e1565b60408301525092915050565b60006060828403121561180357611802610ff6565b5b600061181184828501611789565b91505092915050565b600060608201905061182f6000830186611581565b61183c6020830185611581565b611849604083018461105b565b949350505050565b60008151905061186081611202565b92915050565b60006020828403121561187c5761187b610ff6565b5b600061188a84828501611851565b91505092915050565b7f4e487b7100000000000000000000000000000000000000000000000000000000600052601160045260246000fd5b60006118cd82611198565b91506118d883611198565b9250828203905073ffffffffffffffffffffffffffffffffffffffff81111561190457611903611893565b5b92915050565b600061191582611198565b915061192083611198565b9250828201905073ffffffffffffffffffffffffffffffffffffffff81111561194c5761194b611893565b5b92915050565b61195b816111f6565b82525050565b61196a81611198565b82525050565b82818337600083830152505050565b600061198b83856115d5565b9350611998838584611970565b6119a183611610565b840190509392505050565b600060a0820190506119c16000830189611581565b6119ce6020830188611952565b6119db604083018761105b565b6119e86060830186611961565b81810360808301526119fb81848661197f565b9050979650505050505050565b600081519050611a1781611336565b92915050565b60008060408385031215611a3457611a33610ff6565b5b6000611a4285828601611a08565b9250506020611a5385828601611a08565b9150509250929050565b6000611a68826112f4565b91507f80000000000000000000000000000000000000000000000000000000000000008203611a9a57611a99611893565b5b816000039050919050565b6000611ab082611418565b91507fffffffffffffffffffffffffffffffffffffffffffffffffffffffffff8000008203611ae257611ae1611893565b5b816000039050919050565b600082825260208201905092915050565b7f5400000000000000000000000000000000000000000000000000000000000000600082015250565b6000611b34600183611aed565b9150611b3f82611afe565b602082019050919050565b60006020820190508181036000830152611b6381611b27565b9050919050565b6000611b7582611051565b9150611b8083611051565b9250828202611b8e81611051565b91508282048414831517611ba557611ba4611893565b5b5092915050565b7f4e487b7100000000000000000000000000000000000000000000000000000000600052601260045260246000fd5b6000611be682611051565b9150611bf183611051565b925082611c0157611c00611bac565b5b828204905092915050565b6000611c1782611051565b9150611c2283611051565b925082611c3257611c31611bac565b5b828206905092915050565b6000611c4882611051565b9150611c5383611051565b9250828201905080821115611c6b57611c6a611893565b5b9291505056fea2646970667358221220e7445f313c1ade2281ce4fc248aa5c28627745bdbb41f431d509a4f9b72a790a64736f6c634300081a0033",
			"opcodes": "PUSH1 0x80 PUSH1 0x40 MSTORE CALLVALUE DUP1 ISZERO PUSH1 0xF JUMPI PUSH1 0x0 DUP1 REVERT JUMPDEST POP PUSH2 0x1CA7 DUP1 PUSH2 0x1F PUSH1 0x0 CODECOPY PUSH1 0x0 RETURN INVALID PUSH1 0x80 PUSH1 0x40 MSTORE CALLVALUE DUP1 ISZERO PUSH2 0x10 JUMPI PUSH1 0x0 DUP1 REVERT JUMPDEST POP PUSH1 0x4 CALLDATASIZE LT PUSH2 0x4C JUMPI PUSH1 0x0 CALLDATALOAD PUSH1 0xE0 SHR DUP1 PUSH4 0x190C1752 EQ PUSH2 0x51 JUMPI DUP1 PUSH4 0xD3487997 EQ PUSH2 0x82 JUMPI DUP1 PUSH4 0xDD5A12D8 EQ PUSH2 0x9E JUMPI DUP1 PUSH4 0xFA461E33 EQ PUSH2 0xCF JUMPI JUMPDEST PUSH1 0x0 DUP1 REVERT JUMPDEST PUSH2 0x6B PUSH1 0x4 DUP1 CALLDATASIZE SUB DUP2 ADD SWAP1 PUSH2 0x66 SWAP2 SWAP1 PUSH2 0x1024 JUMP JUMPDEST PUSH2 0xEB JUMP JUMPDEST PUSH1 0x40 MLOAD PUSH2 0x79 SWAP3 SWAP2 SWAP1 PUSH2 0x106A JUMP JUMPDEST PUSH1 0x40 MLOAD DUP1 SWAP2 SUB SWAP1 RETURN JUMPDEST PUSH2 0x9C PUSH1 0x4 DUP1 CALLDATASIZE SUB DUP2 ADD SWAP1 PUSH2 0x97 SWAP2 SWAP1 PUSH2 0x1124 JUMP JUMPDEST PUSH2 0x438 JUMP JUMPDEST STOP JUMPDEST PUSH2 0xB8 PUSH1 0x4 DUP1 CALLDATASIZE SUB DUP2 ADD SWAP1 PUSH2 0xB3 SWAP2 SWAP1 PUSH2 0x125A JUMP JUMPDEST PUSH2 0x564 JUMP JUMPDEST PUSH1 0x40 MLOAD PUSH2 0xC6 SWAP3 SWAP2 SWAP1 PUSH2 0x130D JUMP JUMPDEST PUSH1 0x40 MLOAD DUP1 SWAP2 SUB SWAP1 RETURN JUMPDEST PUSH2 0xE9 PUSH1 0x4 DUP1 CALLDATASIZE SUB DUP2 ADD SWAP1 PUSH2 0xE4 SWAP2 SWAP1 PUSH2 0x1362 JUMP JUMPDEST PUSH2 0x65D JUMP JUMPDEST STOP JUMPDEST PUSH1 0x0 DUP1 PUSH1 0x0 DUP4 PUSH1 0x0 ADD PUSH1 0x20 DUP2 ADD SWAP1 PUSH2 0x103 SWAP2 SWAP1 PUSH2 0x13D6 JUMP JUMPDEST SWAP1 POP PUSH1 0x0 DUP2 PUSH20 0xFFFFFFFFFFFFFFFFFFFFFFFFFFFFFFFFFFFFFFFF AND PUSH4 0x3850C7BD PUSH1 0x40 MLOAD DUP2 PUSH4 0xFFFFFFFF AND PUSH1 0xE0 SHL DUP2 MSTORE PUSH1 0x4 ADD PUSH1 0x40 DUP1 MLOAD DUP1 DUP4 SUB DUP2 DUP7 GAS STATICCALL ISZERO DUP1 ISZERO PUSH2 0x151 JUMPI RETURNDATASIZE PUSH1 0x0 DUP1 RETURNDATACOPY RETURNDATASIZE PUSH1 0x0 REVERT JUMPDEST POP POP POP POP PUSH1 0x40 MLOAD RETURNDATASIZE PUSH1 0x1F NOT PUSH1 0x1F DUP3 ADD AND DUP3 ADD DUP1 PUSH1 0x40 MSTORE POP DUP2 ADD SWAP1 PUSH2 0x175 SWAP2 SWAP1 PUSH2 0x1451 JUMP JUMPDEST POP SWAP1 POP PUSH1 0x0 PUSH2 0x195 DUP7 PUSH1 0x20 ADD PUSH1 0x20 DUP2 ADD SWAP1 PUSH2 0x190 SWAP2 SWAP1 PUSH2 0x14A6 JUMP JUMPDEST PUSH2 0x79D JUMP JUMPDEST SWAP1 POP PUSH1 0x0 PUSH2 0x1B4 DUP8 PUSH1 0x40 ADD PUSH1 0x20 DUP2 ADD SWAP1 PUSH2 0x1AF SWAP2 SWAP1 PUSH2 0x14A6 JUMP JUMPDEST PUSH2 0x79D JUMP JUMPDEST SWAP1 POP PUSH1 0x0 PUSH2 0x1CD DUP5 DUP5 DUP5 DUP12 PUSH1 0x60 ADD CALLDATALOAD DUP13 PUSH1 0x80 ADD CALLDATALOAD PUSH2 0xC6A JUMP JUMPDEST SWAP1 POP DUP5 PUSH20 0xFFFFFFFFFFFFFFFFFFFFFFFFFFFFFFFFFFFFFFFF AND PUSH4 0x3C8A7D8D CALLER DUP11 PUSH1 0x20 ADD PUSH1 0x20 DUP2 ADD SWAP1 PUSH2 0x1FF SWAP2 SWAP1 PUSH2 0x14A6 JUMP JUMPDEST DUP12 PUSH1 0x40 ADD PUSH1 0x20 DUP2 ADD SWAP1 PUSH2 0x212 SWAP2 SWAP1 PUSH2 0x14A6 JUMP JUMPDEST DUP6 PUSH1 0x40 MLOAD DUP1 PUSH1 0x60 ADD PUSH1 0x40 MSTORE DUP1 DUP13 PUSH20 0xFFFFFFFFFFFFFFFFFFFFFFFFFFFFFFFFFFFFFFFF AND PUSH4 0xDFE1681 PUSH1 0x40 MLOAD DUP2 PUSH4 0xFFFFFFFF AND PUSH1 0xE0 SHL DUP2 MSTORE PUSH1 0x4 ADD PUSH1 0x20 PUSH1 0x40 MLOAD DUP1 DUP4 SUB DUP2 DUP7 GAS STATICCALL ISZERO DUP1 ISZERO PUSH2 0x269 JUMPI RETURNDATASIZE PUSH1 0x0 DUP1 RETURNDATACOPY RETURNDATASIZE PUSH1 0x0 REVERT JUMPDEST POP POP POP POP PUSH1 0x40 MLOAD RETURNDATASIZE PUSH1 0x1F NOT PUSH1 0x1F DUP3 ADD AND DUP3 ADD DUP1 PUSH1 0x40 MSTORE POP DUP2 ADD SWAP1 PUSH2 0x28D SWAP2 SWAP1 PUSH2 0x14E8 JUMP JUMPDEST PUSH20 0xFFFFFFFFFFFFFFFFFFFFFFFFFFFFFFFFFFFFFFFF AND DUP2 MSTORE PUSH1 0x20 ADD DUP13 PUSH20 0xFFFFFFFFFFFFFFFFFFFFFFFFFFFFFFFFFFFFFFFF AND PUSH4 0xD21220A7 PUSH1 0x40 MLOAD DUP2 PUSH4 0xFFFFFFFF AND PUSH1 0xE0 SHL DUP2 MSTORE PUSH1 0x4 ADD PUSH1 0x20 PUSH1 0x40 MLOAD DUP1 DUP4 SUB DUP2 DUP7 GAS STATICCALL ISZERO DUP1 ISZERO PUSH2 0x2F3 JUMPI RETURNDATASIZE PUSH1 0x0 DUP1 RETURNDATACOPY RETURNDATASIZE PUSH1 0x0 REVERT JUMPDEST POP POP POP POP PUSH1 0x40 MLOAD RETURNDATASIZE PUSH1 0x1F NOT PUSH1 0x1F DUP3 ADD AND DUP3 ADD DUP1 PUSH1 0x40 MSTORE POP DUP2 ADD SWAP1 PUSH2 0x317 SWAP2 SWAP1 PUSH2 0x14E8 JUMP JUMPDEST PUSH20 0xFFFFFFFFFFFFFFFFFFFFFFFFFFFFFFFFFFFFFFFF AND DUP2 MSTORE PUSH1 0x20 ADD CALLER PUSH20 0xFFFFFFFFFFFFFFFFFFFFFFFFFFFFFFFFFFFFFFFF AND DUP2 MSTORE POP PUSH1 0x40 MLOAD PUSH1 0x20 ADD PUSH2 0x35C SWAP2 SWAP1 PUSH2 0x1566 JUMP JUMPDEST PUSH1 0x40 MLOAD PUSH1 0x20 DUP2 DUP4 SUB SUB DUP2 MSTORE SWAP1 PUSH1 0x40 MSTORE PUSH1 0x40 MLOAD DUP7 PUSH4 0xFFFFFFFF AND PUSH1 0xE0 SHL DUP2 MSTORE PUSH1 0x4 ADD PUSH2 0x38B SWAP6 SWAP5 SWAP4 SWAP3 SWAP2 SWAP1 PUSH2 0x165A JUMP JUMPDEST PUSH1 0x40 DUP1 MLOAD DUP1 DUP4 SUB DUP2 PUSH1 0x0 DUP8 GAS CALL ISZERO DUP1 ISZERO PUSH2 0x3A9 JUMPI RETURNDATASIZE PUSH1 0x0 DUP1 RETURNDATACOPY RETURNDATASIZE PUSH1 0x0 REVERT JUMPDEST POP POP POP POP PUSH1 0x40 MLOAD RETURNDATASIZE PUSH1 0x1F NOT PUSH1 0x1F DUP3 ADD AND DUP3 ADD DUP1 PUSH1 0x40 MSTORE POP DUP2 ADD SWAP1 PUSH2 0x3CD SWAP2 SWAP1 PUSH2 0x16C9 JUMP JUMPDEST DUP1 SWAP8 POP DUP2 SWAP9 POP POP POP DUP8 PUSH1 0xA0 ADD CALLDATALOAD DUP8 LT DUP1 PUSH2 0x3EA JUMPI POP DUP8 PUSH1 0xC0 ADD CALLDATALOAD DUP7 LT JUMPDEST ISZERO PUSH2 0x42E JUMPI DUP7 DUP7 PUSH1 0x40 MLOAD PUSH32 0xA8F6C8D000000000000000000000000000000000000000000000000000000000 DUP2 MSTORE PUSH1 0x4 ADD PUSH2 0x425 SWAP3 SWAP2 SWAP1 PUSH2 0x106A JUMP JUMPDEST PUSH1 0x40 MLOAD DUP1 SWAP2 SUB SWAP1 REVERT JUMPDEST POP POP POP POP POP SWAP2 POP SWAP2 JUMP JUMPDEST PUSH1 0x0 DUP3 DUP3 DUP2 ADD SWAP1 PUSH2 0x449 SWAP2 SWAP1 PUSH2 0x17ED JUMP JUMPDEST SWAP1 POP DUP1 PUSH1 0x0 ADD MLOAD PUSH20 0xFFFFFFFFFFFFFFFFFFFFFFFFFFFFFFFFFFFFFFFF AND PUSH4 0x23B872DD DUP3 PUSH1 0x40 ADD MLOAD CALLER DUP9 PUSH1 0x40 MLOAD DUP5 PUSH4 0xFFFFFFFF AND PUSH1 0xE0 SHL DUP2 MSTORE PUSH1 0x4 ADD PUSH2 0x490 SWAP4 SWAP3 SWAP2 SWAP1 PUSH2 0x181A JUMP JUMPDEST PUSH1 0x20 PUSH1 0x40 MLOAD DUP1 DUP4 SUB DUP2 PUSH1 0x0 DUP8 GAS CALL ISZERO DUP1 ISZERO PUSH2 0x4AF JUMPI RETURNDATASIZE PUSH1 0x0 DUP1 RETURNDATACOPY RETURNDATASIZE PUSH1 0x0 REVERT JUMPDEST POP POP POP POP PUSH1 0x40 MLOAD RETURNDATASIZE PUSH1 0x1F NOT PUSH1 0x1F DUP3 ADD AND DUP3 ADD DUP1 PUSH1 0x40 MSTORE POP DUP2 ADD SWAP1 PUSH2 0x4D3 SWAP2 SWAP1 PUSH2 0x1866 JUMP JUMPDEST POP DUP1 PUSH1 0x20 ADD MLOAD PUSH20 0xFFFFFFFFFFFFFFFFFFFFFFFFFFFFFFFFFFFFFFFF AND PUSH4 0x23B872DD DUP3 PUSH1 0x40 ADD MLOAD CALLER DUP8 PUSH1 0x40 MLOAD DUP5 PUSH4 0xFFFFFFFF AND PUSH1 0xE0 SHL DUP2 MSTORE PUSH1 0x4 ADD PUSH2 0x519 SWAP4 SWAP3 SWAP2 SWAP1 PUSH2 0x181A JUMP JUMPDEST PUSH1 0x20 PUSH1 0x40 MLOAD DUP1 DUP4 SUB DUP2 PUSH1 0x0 DUP8 GAS CALL ISZERO DUP1 ISZERO PUSH2 0x538 JUMPI RETURNDATASIZE PUSH1 0x0 DUP1 RETURNDATACOPY RETURNDATASIZE PUSH1 0x0 REVERT JUMPDEST POP POP POP POP PUSH1 0x40 MLOAD RETURNDATASIZE PUSH1 0x1F NOT PUSH1 0x1F DUP3 ADD AND DUP3 ADD DUP1 PUSH1 0x40 MSTORE POP DUP2 ADD SWAP1 PUSH2 0x55C SWAP2 SWAP1 PUSH2 0x1866 JUMP JUMPDEST POP POP POP POP POP POP JUMP JUMPDEST PUSH1 0x0 DUP1 DUP8 PUSH20 0xFFFFFFFFFFFFFFFFFFFFFFFFFFFFFFFFFFFFFFFF AND PUSH4 0xDD5A12D8 CALLER DUP10 DUP10 PUSH1 0x0 DUP11 PUSH20 0xFFFFFFFFFFFFFFFFFFFFFFFFFFFFFFFFFFFFFFFF AND EQ PUSH2 0x5AA JUMPI DUP10 PUSH2 0x5E9 JUMP JUMPDEST DUP12 PUSH2 0x5D5 JUMPI PUSH1 0x1 PUSH20 0xFFFD8963EFD1FC6A506488495D951D5263988D26 PUSH2 0x5D0 SWAP2 SWAP1 PUSH2 0x18C2 JUMP JUMPDEST PUSH2 0x5E8 JUMP JUMPDEST PUSH1 0x1 PUSH5 0x1000276A3 PUSH2 0x5E7 SWAP2 SWAP1 PUSH2 0x190A JUMP JUMPDEST JUMPDEST JUMPDEST DUP10 DUP10 PUSH1 0x40 MLOAD DUP8 PUSH4 0xFFFFFFFF AND PUSH1 0xE0 SHL DUP2 MSTORE PUSH1 0x4 ADD PUSH2 0x60C SWAP7 SWAP6 SWAP5 SWAP4 SWAP3 SWAP2 SWAP1 PUSH2 0x19AC JUMP JUMPDEST PUSH1 0x40 DUP1 MLOAD DUP1 DUP4 SUB DUP2 PUSH1 0x0 DUP8 GAS CALL ISZERO DUP1 ISZERO PUSH2 0x62A JUMPI RETURNDATASIZE PUSH1 0x0 DUP1 RETURNDATACOPY RETURNDATASIZE PUSH1 0x0 REVERT JUMPDEST POP POP POP POP PUSH1 0x40 MLOAD RETURNDATASIZE PUSH1 0x1F NOT PUSH1 0x1F DUP3 ADD AND DUP3 ADD DUP1 PUSH1 0x40 MSTORE POP DUP2 ADD SWAP1 PUSH2 0x64E SWAP2 SWAP1 PUSH2 0x1A1D JUMP JUMPDEST SWAP2 POP SWAP2 POP SWAP7 POP SWAP7 SWAP5 POP POP POP POP POP JUMP JUMPDEST PUSH1 0x0 DUP3 DUP3 DUP2 ADD SWAP1 PUSH2 0x66E SWAP2 SWAP1 PUSH2 0x17ED JUMP JUMPDEST SWAP1 POP PUSH1 0x0 DUP6 SGT ISZERO PUSH2 0x703 JUMPI DUP1 PUSH1 0x0 ADD MLOAD PUSH20 0xFFFFFFFFFFFFFFFFFFFFFFFFFFFFFFFFFFFFFFFF AND PUSH4 0x23B872DD DUP3 PUSH1 0x40 ADD MLOAD CALLER DUP9 PUSH1 0x40 MLOAD DUP5 PUSH4 0xFFFFFFFF AND PUSH1 0xE0 SHL DUP2 MSTORE PUSH1 0x4 ADD PUSH2 0x6BE SWAP4 SWAP3 SWAP2 SWAP1 PUSH2 0x181A JUMP JUMPDEST PUSH1 0x20 PUSH1 0x40 MLOAD DUP1 DUP4 SUB DUP2 PUSH1 0x0 DUP8 GAS CALL ISZERO DUP1 ISZERO PUSH2 0x6DD JUMPI RETURNDATASIZE PUSH1 0x0 DUP1 RETURNDATACOPY RETURNDATASIZE PUSH1 0x0 REVERT JUMPDEST POP POP POP POP PUSH1 0x40 MLOAD RETURNDATASIZE PUSH1 0x1F NOT PUSH1 0x1F DUP3 ADD AND DUP3 ADD DUP1 PUSH1 0x40 MSTORE POP DUP2 ADD SWAP1 PUSH2 0x701 SWAP2 SWAP1 PUSH2 0x1866 JUMP JUMPDEST POP JUMPDEST PUSH1 0x0 DUP5 SGT ISZERO PUSH2 0x796 JUMPI DUP1 PUSH1 0x20 ADD MLOAD PUSH20 0xFFFFFFFFFFFFFFFFFFFFFFFFFFFFFFFFFFFFFFFF AND PUSH4 0x23B872DD DUP3 PUSH1 0x40 ADD MLOAD CALLER DUP8 PUSH1 0x40 MLOAD DUP5 PUSH4 0xFFFFFFFF AND PUSH1 0xE0 SHL DUP2 MSTORE PUSH1 0x4 ADD PUSH2 0x751 SWAP4 SWAP3 SWAP2 SWAP1 PUSH2 0x181A JUMP JUMPDEST PUSH1 0x20 PUSH1 0x40 MLOAD DUP1 DUP4 SUB DUP2 PUSH1 0x0 DUP8 GAS CALL ISZERO DUP1 ISZERO PUSH2 0x770 JUMPI RETURNDATASIZE PUSH1 0x0 DUP1 RETURNDATACOPY RETURNDATASIZE PUSH1 0x0 REVERT JUMPDEST POP POP POP POP PUSH1 0x40 MLOAD RETURNDATASIZE PUSH1 0x1F NOT PUSH1 0x1F DUP3 ADD AND DUP3 ADD DUP1 PUSH1 0x40 MSTORE POP DUP2 ADD SWAP1 PUSH2 0x794 SWAP2 SWAP1 PUSH2 0x1866 JUMP JUMPDEST POP JUMPDEST POP POP POP POP POP JUMP JUMPDEST PUSH1 0x0 DUP1 PUSH1 0x0 DUP4 PUSH1 0x2 SIGNEXTEND SLT PUSH2 0x7B4 JUMPI DUP3 PUSH1 0x2 SIGNEXTEND PUSH2 0x7C2 JUMP JUMPDEST DUP3 PUSH1 0x2 SIGNEXTEND PUSH2 0x7C1 SWAP1 PUSH2 0x1A5D JUMP JUMPDEST JUMPDEST SWAP1 POP PUSH32 0xFFFFFFFFFFFFFFFFFFFFFFFFFFFFFFFFFFFFFFFFFFFFFFFFFFFFFFFFFFF27618 PUSH2 0x7EE SWAP1 PUSH2 0x1AA5 JUMP JUMPDEST PUSH3 0xFFFFFF AND DUP2 GT ISZERO PUSH2 0x835 JUMPI PUSH1 0x40 MLOAD PUSH32 0x8C379A000000000000000000000000000000000000000000000000000000000 DUP2 MSTORE PUSH1 0x4 ADD PUSH2 0x82C SWAP1 PUSH2 0x1B4A JUMP JUMPDEST PUSH1 0x40 MLOAD DUP1 SWAP2 SUB SWAP1 REVERT JUMPDEST PUSH1 0x0 DUP1 PUSH1 0x1 DUP4 AND SUB PUSH2 0x858 JUMPI PUSH17 0x100000000000000000000000000000000 PUSH2 0x86A JUMP JUMPDEST PUSH16 0xFFFCB933BD6FAD37AA2D162D1A594001 JUMPDEST PUSH17 0xFFFFFFFFFFFFFFFFFFFFFFFFFFFFFFFFFF AND SWAP1 POP PUSH1 0x0 PUSH1 0x2 DUP4 AND EQ PUSH2 0x8AD JUMPI PUSH1 0x80 PUSH16 0xFFF97272373D413259A46990580E213A DUP3 PUSH2 0x8A8 SWAP2 SWAP1 PUSH2 0x1B6A JUMP JUMPDEST SWAP1 SHR SWAP1 POP JUMPDEST PUSH1 0x0 PUSH1 0x4 DUP4 AND EQ PUSH2 0x8DB JUMPI PUSH1 0x80 PUSH16 0xFFF2E50F5F656932EF12357CF3C7FDCC DUP3 PUSH2 0x8D6 SWAP2 SWAP1 PUSH2 0x1B6A JUMP JUMPDEST SWAP1 SHR SWAP1 POP JUMPDEST PUSH1 0x0 PUSH1 0x8 DUP4 AND EQ PUSH2 0x909 JUMPI PUSH1 0x80 PUSH16 0xFFE5CACA7E10E4E61C3624EAA0941CD0 DUP3 PUSH2 0x904 SWAP2 SWAP1 PUSH2 0x1B6A JUMP JUMPDEST SWAP1 SHR SWAP1 POP JUMPDEST PUSH1 0x0 PUSH1 0x10 DUP4 AND EQ PUSH2 0x937 JUMPI PUSH1 0x80 PUSH16 0xFFCB9843D60F6159C9DB58835C926644 DUP3 PUSH2 0x932 SWAP2 SWAP1 PUSH2 0x1B6A JUMP JUMPDEST SWAP1 SHR SWAP1 POP JUMPDEST PUSH1 0x0 PUSH1 0x20 DUP4 AND EQ PUSH2 0x965 JUMPI PUSH1 0x80 PUSH16 0xFF973B41FA98C081472E6896DFB254C0 DUP3 PUSH2 0x960 SWAP2 SWAP1 PUSH2 0x1B6A JUMP JUMPDEST SWAP1 SHR SWAP1 POP JUMPDEST PUSH1 0x0 PUSH1 0x40 DUP4 AND EQ PUSH2 0x993 JUMPI PUSH1 0x80 PUSH16 0xFF2EA16466C96A3843EC78B326B52861 DUP3 PUSH2 0x98E SWAP2 SWAP1 PUSH2 0x1B6A JUMP JUMPDEST SWAP1 SHR SWAP1 POP JUMPDEST PUSH1 0x0 PUSH1 0x80 DUP4 AND EQ PUSH2 0x9C1 JUMPI PUSH1 0x80 PUSH16 0xFE5DEE046A99A2A811C461F1969C3053 DUP3 PUSH2 0x9BC SWAP2 SWAP1 PUSH2 0x1B6A JUMP JUMPDEST SWAP1 SHR SWAP1 POP JUMPDEST PUSH1 0x0 PUSH2 0x100 DUP4 AND EQ PUSH2 0x9F0 JUMPI PUSH1 0x80 PUSH16 0xFCBE86C7900A88AEDCFFC83B479AA3A4 DUP3 PUSH2 0x9EB SWAP2 SWAP1 PUSH2 0x1B6A JUMP JUMPDEST SWAP1 SHR SWAP1 POP JUMPDEST PUSH1 0x0 PUSH2 0x200 DUP4 AND EQ PUSH2 0xA1F JUMPI PUSH1 0x80 PUSH16 0xF987A7253AC413176F2B074CF7815E54 DUP3 PUSH2 0xA1A SWAP2 SWAP1 PUSH2 0x1B6A JUMP JUMPDEST SWAP1 SHR SWAP1 POP JUMPDEST PUSH1 0x0 PUSH2 0x400 DUP4 AND EQ PUSH2 0xA4E JUMPI PUSH1 0x80 PUSH16 0xF3392B0822B70005940C7A398E4B70F3 DUP3 PUSH2 0xA49 SWAP2 SWAP1 PUSH2 0x1B6A JUMP JUMPDEST SWAP1 SHR SWAP1 POP JUMPDEST PUSH1 0x0 PUSH2 0x800 DUP4 AND EQ PUSH2 0xA7D JUMPI PUSH1 0x80 PUSH16 0xE7159475A2C29B7443B29C7FA6E889D9 DUP3 PUSH2 0xA78 SWAP2 SWAP1 PUSH2 0x1B6A JUMP JUMPDEST SWAP1 SHR SWAP1 POP JUMPDEST PUSH1 0x0 PUSH2 0x1000 DUP4 AND EQ PUSH2 0xAAC JUMPI PUSH1 0x80 PUSH16 0xD097F3BDFD2022B8845AD8F792AA5825 DUP3 PUSH2 0xAA7 SWAP2 SWAP1 PUSH2 0x1B6A JUMP JUMPDEST SWAP1 SHR SWAP1 POP JUMPDEST PUSH1 0x0 PUSH2 0x2000 DUP4 AND EQ PUSH2 0xADB JUMPI PUSH1 0x80 PUSH16 0xA9F746462D870FDF8A65DC1F90E061E5 DUP3 PUSH2 0xAD6 SWAP2 SWAP1 PUSH2 0x1B6A JUMP JUMPDEST SWAP1 SHR SWAP1 POP JUMPDEST PUSH1 0x0 PUSH2 0x4000 DUP4 AND EQ PUSH2 0xB0A JUMPI PUSH1 0x80 PUSH16 0x70D869A156D2A1B890BB3DF62BAF32F7 DUP3 PUSH2 0xB05 SWAP2 SWAP1 PUSH2 0x1B6A JUMP JUMPDEST SWAP1 SHR SWAP1 POP JUMPDEST PUSH1 0x0 PUSH2 0x8000 DUP4 AND EQ PUSH2 0xB39 JUMPI PUSH1 0x80 PUSH16 0x31BE135F97D08FD981231505542FCFA6 DUP3 PUSH2 0xB34 SWAP2 SWAP1 PUSH2 0x1B6A JUMP JUMPDEST SWAP1 SHR SWAP1 POP JUMPDEST PUSH1 0x0 PUSH3 0x10000 DUP4 AND EQ PUSH2 0xB69 JUMPI PUSH1 0x80 PUSH16 0x9AA508B5B7A84E1C677DE54F3E99BC9 DUP3 PUSH2 0xB64 SWAP2 SWAP1 PUSH2 0x1B6A JUMP JUMPDEST SWAP1 SHR SWAP1 POP JUMPDEST PUSH1 0x0 PUSH3 0x20000 DUP4 AND EQ PUSH2 0xB98 JUMPI PUSH1 0x80 PUSH15 0x5D6AF8DEDB81196699C329225EE604 DUP3 PUSH2 0xB93 SWAP2 SWAP1 PUSH2 0x1B6A JUMP JUMPDEST SWAP1 SHR SWAP1 POP JUMPDEST PUSH1 0x0 PUSH3 0x40000 DUP4 AND EQ PUSH2 0xBC6 JUMPI PUSH1 0x80 PUSH14 0x2216E584F5FA1EA926041BEDFE98 DUP3 PUSH2 0xBC1 SWAP2 SWAP1 PUSH2 0x1B6A JUMP JUMPDEST SWAP1 SHR SWAP1 POP JUMPDEST PUSH1 0x0 PUSH3 0x80000 DUP4 AND EQ PUSH2 0xBF2 JUMPI PUSH1 0x80 PUSH12 0x48A170391F7DC42444E8FA2 DUP3 PUSH2 0xBED SWAP2 SWAP1 PUSH2 0x1B6A JUMP JUMPDEST SWAP1 SHR SWAP1 POP JUMPDEST PUSH1 0x0 DUP5 PUSH1 0x2 SIGNEXTEND SGT ISZERO PUSH2 0xC2D JUMPI DUP1 PUSH32 0xFFFFFFFFFFFFFFFFFFFFFFFFFFFFFFFFFFFFFFFFFFFFFFFFFFFFFFFFFFFFFFFF PUSH2 0xC2A SWAP2 SWAP1 PUSH2 0x1BDB JUMP JUMPDEST SWAP1 POP JUMPDEST PUSH1 0x0 PUSH5 0x100000000 DUP3 PUSH2 0xC40 SWAP2 SWAP1 PUSH2 0x1C0C JUMP JUMPDEST EQ PUSH2 0xC4C JUMPI PUSH1 0x1 PUSH2 0xC4F JUMP JUMPDEST PUSH1 0x0 JUMPDEST PUSH1 0xFF AND PUSH1 0x20 DUP3 SWAP1 SHR PUSH2 0xC61 SWAP2 SWAP1 PUSH2 0x1C3D JUMP JUMPDEST SWAP3 POP POP POP SWAP2 SWAP1 POP JUMP JUMPDEST PUSH1 0x0 DUP4 PUSH20 0xFFFFFFFFFFFFFFFFFFFFFFFFFFFFFFFFFFFFFFFF AND DUP6 PUSH20 0xFFFFFFFFFFFFFFFFFFFFFFFFFFFFFFFFFFFFFFFF AND GT ISZERO PUSH2 0xCAB JUMPI DUP4 DUP6 DUP1 SWAP6 POP DUP2 SWAP7 POP POP POP JUMPDEST DUP5 PUSH20 0xFFFFFFFFFFFFFFFFFFFFFFFFFFFFFFFFFFFFFFFF AND DUP7 PUSH20 0xFFFFFFFFFFFFFFFFFFFFFFFFFFFFFFFFFFFFFFFF AND GT PUSH2 0xCF0 JUMPI PUSH2 0xCE9 DUP6 DUP6 DUP6 PUSH2 0xD95 JUMP JUMPDEST SWAP1 POP PUSH2 0xD8C JUMP JUMPDEST DUP4 PUSH20 0xFFFFFFFFFFFFFFFFFFFFFFFFFFFFFFFFFFFFFFFF AND DUP7 PUSH20 0xFFFFFFFFFFFFFFFFFFFFFFFFFFFFFFFFFFFFFFFF AND GT PUSH2 0xD7D JUMPI PUSH1 0x0 PUSH2 0xD30 DUP8 DUP7 DUP7 PUSH2 0xD95 JUMP JUMPDEST SWAP1 POP PUSH1 0x0 PUSH2 0xD3F DUP8 DUP10 DUP7 PUSH2 0xE54 JUMP JUMPDEST SWAP1 POP DUP1 PUSH16 0xFFFFFFFFFFFFFFFFFFFFFFFFFFFFFFFF AND DUP3 PUSH16 0xFFFFFFFFFFFFFFFFFFFFFFFFFFFFFFFF AND LT PUSH2 0xD72 JUMPI DUP1 PUSH2 0xD74 JUMP JUMPDEST DUP2 JUMPDEST SWAP3 POP POP POP PUSH2 0xD8B JUMP JUMPDEST PUSH2 0xD88 DUP6 DUP6 DUP5 PUSH2 0xE54 JUMP JUMPDEST SWAP1 POP JUMPDEST JUMPDEST SWAP6 SWAP5 POP POP POP POP POP JUMP JUMPDEST PUSH1 0x0 DUP3 PUSH20 0xFFFFFFFFFFFFFFFFFFFFFFFFFFFFFFFFFFFFFFFF AND DUP5 PUSH20 0xFFFFFFFFFFFFFFFFFFFFFFFFFFFFFFFFFFFFFFFF AND GT ISZERO PUSH2 0xDD6 JUMPI DUP3 DUP5 DUP1 SWAP5 POP DUP2 SWAP6 POP POP POP JUMPDEST PUSH1 0x0 PUSH2 0xE1C DUP6 PUSH20 0xFFFFFFFFFFFFFFFFFFFFFFFFFFFFFFFFFFFFFFFF AND DUP6 PUSH20 0xFFFFFFFFFFFFFFFFFFFFFFFFFFFFFFFFFFFFFFFF AND PUSH13 0x1000000000000000000000000 PUSH2 0xED7 JUMP JUMPDEST SWAP1 POP PUSH2 0xE4A DUP4 DUP3 DUP8 DUP8 PUSH2 0xE2F SWAP2 SWAP1 PUSH2 0x18C2 JUMP JUMPDEST PUSH20 0xFFFFFFFFFFFFFFFFFFFFFFFFFFFFFFFFFFFFFFFF AND PUSH2 0xED7 JUMP JUMPDEST SWAP2 POP POP SWAP4 SWAP3 POP POP POP JUMP JUMPDEST PUSH1 0x0 DUP3 PUSH20 0xFFFFFFFFFFFFFFFFFFFFFFFFFFFFFFFFFFFFFFFF AND DUP5 PUSH20 0xFFFFFFFFFFFFFFFFFFFFFFFFFFFFFFFFFFFFFFFF AND GT ISZERO PUSH2 0xE95 JUMPI DUP3 DUP5 DUP1 SWAP5 POP DUP2 SWAP6 POP POP POP JUMPDEST PUSH2 0xECE DUP3 PUSH13 0x1000000000000000000000000 DUP7 DUP7 PUSH2 0xEB3 SWAP2 SWAP1 PUSH2 0x18C2 JUMP JUMPDEST PUSH20 0xFFFFFFFFFFFFFFFFFFFFFFFFFFFFFFFFFFFFFFFF AND PUSH2 0xED7 JUMP JUMPDEST SWAP1 POP SWAP4 SWAP3 POP POP POP JUMP JUMPDEST PUSH1 0x0 DUP1 PUSH1 0x0 DUP1 NOT DUP6 DUP8 MULMOD DUP6 DUP8 MUL SWAP3 POP DUP3 DUP2 LT DUP4 DUP3 SUB SUB SWAP2 POP POP PUSH1 0x0 DUP2 SUB PUSH2 0xF12 JUMPI DUP4 DUP3 DUP2 PUSH2 0xF08 JUMPI PUSH2 0xF07 PUSH2 0x1BAC JUMP JUMPDEST JUMPDEST DIV SWAP3 POP POP POP PUSH2 0xFE5 JUMP JUMPDEST DUP4 DUP2 LT PUSH2 0xF58 JUMPI DUP1 DUP5 PUSH1 0x40 MLOAD PUSH32 0x773CC18C00000000000000000000000000000000000000000000000000000000 DUP2 MSTORE PUSH1 0x4 ADD PUSH2 0xF4F SWAP3 SWAP2 SWAP1 PUSH2 0x106A JUMP JUMPDEST PUSH1 0x40 MLOAD DUP1 SWAP2 SUB SWAP1 REVERT JUMPDEST PUSH1 0x0 DUP5 DUP7 DUP9 MULMOD SWAP1 POP DUP3 DUP2 GT DUP3 SUB SWAP2 POP DUP1 DUP4 SUB SWAP3 POP PUSH1 0x0 PUSH1 0x1 DUP7 NOT ADD DUP7 AND SWAP1 POP DUP1 DUP7 DIV SWAP6 POP DUP1 DUP5 DIV SWAP4 POP PUSH1 0x1 DUP2 DUP3 PUSH1 0x0 SUB DIV ADD SWAP1 POP DUP1 DUP4 MUL DUP5 OR SWAP4 POP PUSH1 0x0 PUSH1 0x2 DUP8 PUSH1 0x3 MUL XOR SWAP1 POP DUP1 DUP8 MUL PUSH1 0x2 SUB DUP2 MUL SWAP1 POP DUP1 DUP8 MUL PUSH1 0x2 SUB DUP2 MUL SWAP1 POP DUP1 DUP8 MUL PUSH1 0x2 SUB DUP2 MUL SWAP1 POP DUP1 DUP8 MUL PUSH1 0x2 SUB DUP2 MUL SWAP1 POP DUP1 DUP8 MUL PUSH1 0x2 SUB DUP2 MUL SWAP1 POP DUP1 DUP8 MUL PUSH1 0x2 SUB DUP2 MUL SWAP1 POP DUP1 DUP6 MUL SWAP6 POP POP POP POP POP POP JUMPDEST SWAP4 SWAP3 POP POP POP JUMP JUMPDEST PUSH1 0x0 PUSH1 0x40 MLOAD SWAP1 POP SWAP1 JUMP JUMPDEST PUSH1 0x0 DUP1 REVERT JUMPDEST PUSH1 0x0 DUP1 REVERT JUMPDEST PUSH1 0x0 DUP1 REVERT JUMPDEST PUSH1 0x0 PUSH1 0xE0 DUP3 DUP5 SUB SLT ISZERO PUSH2 0x101B JUMPI PUSH2 0x101A PUSH2 0x1000 JUMP JUMPDEST JUMPDEST DUP2 SWAP1 POP SWAP3 SWAP2 POP POP JUMP JUMPDEST PUSH1 0x0 PUSH1 0xE0 DUP3 DUP5 SUB SLT ISZERO PUSH2 0x103A JUMPI PUSH2 0x1039 PUSH2 0xFF6 JUMP JUMPDEST JUMPDEST PUSH1 0x0 PUSH2 0x1048 DUP5 DUP3 DUP6 ADD PUSH2 0x1005 JUMP JUMPDEST SWAP2 POP POP SWAP3 SWAP2 POP POP JUMP JUMPDEST PUSH1 0x0 DUP2 SWAP1 POP SWAP2 SWAP1 POP JUMP JUMPDEST PUSH2 0x1064 DUP2 PUSH2 0x1051 JUMP JUMPDEST DUP3 MSTORE POP POP JUMP JUMPDEST PUSH1 0x0 PUSH1 0x40 DUP3 ADD SWAP1 POP PUSH2 0x107F PUSH1 0x0 DUP4 ADD DUP6 PUSH2 0x105B JUMP JUMPDEST PUSH2 0x108C PUSH1 0x20 DUP4 ADD DUP5 PUSH2 0x105B JUMP JUMPDEST SWAP4 SWAP3 POP POP POP JUMP JUMPDEST PUSH2 0x109C DUP2 PUSH2 0x1051 JUMP JUMPDEST DUP2 EQ PUSH2 0x10A7 JUMPI PUSH1 0x0 DUP1 REVERT JUMPDEST POP JUMP JUMPDEST PUSH1 0x0 DUP2 CALLDATALOAD SWAP1 POP PUSH2 0x10B9 DUP2 PUSH2 0x1093 JUMP JUMPDEST SWAP3 SWAP2 POP POP JUMP JUMPDEST PUSH1 0x0 DUP1 REVERT JUMPDEST PUSH1 0x0 DUP1 REVERT JUMPDEST PUSH1 0x0 DUP1 REVERT JUMPDEST PUSH1 0x0 DUP1 DUP4 PUSH1 0x1F DUP5 ADD SLT PUSH2 0x10E4 JUMPI PUSH2 0x10E3 PUSH2 0x10BF JUMP JUMPDEST JUMPDEST DUP3 CALLDATALOAD SWAP1 POP PUSH8 0xFFFFFFFFFFFFFFFF DUP2 GT ISZERO PUSH2 0x1101 JUMPI PUSH2 0x1100 PUSH2 0x10C4 JUMP JUMPDEST JUMPDEST PUSH1 0x20 DUP4 ADD SWAP2 POP DUP4 PUSH1 0x1 DUP3 MUL DUP4 ADD GT ISZERO PUSH2 0x111D JUMPI PUSH2 0x111C PUSH2 0x10C9 JUMP JUMPDEST JUMPDEST SWAP3 POP SWAP3 SWAP1 POP JUMP JUMPDEST PUSH1 0x0 DUP1 PUSH1 0x0 DUP1 PUSH1 0x60 DUP6 DUP8 SUB SLT ISZERO PUSH2 0x113E JUMPI PUSH2 0x113D PUSH2 0xFF6 JUMP JUMPDEST JUMPDEST PUSH1 0x0 PUSH2 0x114C DUP8 DUP3 DUP9 ADD PUSH2 0x10AA JUMP JUMPDEST SWAP5 POP POP PUSH1 0x20 PUSH2 0x115D DUP8 DUP3 DUP9 ADD PUSH2 0x10AA JUMP JUMPDEST SWAP4 POP POP PUSH1 0x40 DUP6 ADD CALLDATALOAD PUSH8 0xFFFFFFFFFFFFFFFF DUP2 GT ISZERO PUSH2 0x117E JUMPI PUSH2 0x117D PUSH2 0xFFB JUMP JUMPDEST JUMPDEST PUSH2 0x118A DUP8 DUP3 DUP9 ADD PUSH2 0x10CE JUMP JUMPDEST SWAP3 POP SWAP3 POP POP SWAP3 SWAP6 SWAP2 SWAP5 POP SWAP3 POP JUMP JUMPDEST PUSH1 0x0 PUSH20 0xFFFFFFFFFFFFFFFFFFFFFFFFFFFFFFFFFFFFFFFF DUP3 AND SWAP1 POP SWAP2 SWAP1 POP JUMP JUMPDEST PUSH1 0x0 PUSH2 0x11C3 DUP3 PUSH2 0x1198 JUMP JUMPDEST SWAP1 POP SWAP2 SWAP1 POP JUMP JUMPDEST PUSH2 0x11D3 DUP2 PUSH2 0x11B8 JUMP JUMPDEST DUP2 EQ PUSH2 0x11DE JUMPI PUSH1 0x0 DUP1 REVERT JUMPDEST POP JUMP JUMPDEST PUSH1 0x0 DUP2 CALLDATALOAD SWAP1 POP PUSH2 0x11F0 DUP2 PUSH2 0x11CA JUMP JUMPDEST SWAP3 SWAP2 POP POP JUMP JUMPDEST PUSH1 0x0 DUP2 ISZERO ISZERO SWAP1 POP SWAP2 SWAP1 POP JUMP JUMPDEST PUSH2 0x120B DUP2 PUSH2 0x11F6 JUMP JUMPDEST DUP2 EQ PUSH2 0x1216 JUMPI PUSH1 0x0 DUP1 REVERT JUMPDEST POP JUMP JUMPDEST PUSH1 0x0 DUP2 CALLDATALOAD SWAP1 POP PUSH2 0x1228 DUP2 PUSH2 0x1202 JUMP JUMPDEST SWAP3 SWAP2 POP POP JUMP JUMPDEST PUSH2 0x1237 DUP2 PUSH2 0x1198 JUMP JUMPDEST DUP2 EQ PUSH2 0x1242 JUMPI PUSH1 0x0 DUP1 REVERT JUMPDEST POP JUMP JUMPDEST PUSH1 0x0 DUP2 CALLDATALOAD SWAP1 POP PUSH2 0x1254 DUP2 PUSH2 0x122E JUMP JUMPDEST SWAP3 SWAP2 POP POP JUMP JUMPDEST PUSH1 0x0 DUP1 PUSH1 0x0 DUP1 PUSH1 0x0 DUP1 PUSH1 0xA0 DUP8 DUP10 SUB SLT ISZERO PUSH2 0x1277 JUMPI PUSH2 0x1276 PUSH2 0xFF6 JUMP JUMPDEST JUMPDEST PUSH1 0x0 PUSH2 0x1285 DUP10 DUP3 DUP11 ADD PUSH2 0x11E1 JUMP JUMPDEST SWAP7 POP POP PUSH1 0x20 PUSH2 0x1296 DUP10 DUP3 DUP11 ADD PUSH2 0x1219 JUMP JUMPDEST SWAP6 POP POP PUSH1 0x40 PUSH2 0x12A7 DUP10 DUP3 DUP11 ADD PUSH2 0x10AA JUMP JUMPDEST SWAP5 POP POP PUSH1 0x60 PUSH2 0x12B8 DUP10 DUP3 DUP11 ADD PUSH2 0x1245 JUMP JUMPDEST SWAP4 POP POP PUSH1 0x80 DUP8 ADD CALLDATALOAD PUSH8 0xFFFFFFFFFFFFFFFF DUP2 GT ISZERO PUSH2 0x12D9 JUMPI PUSH2 0x12D8 PUSH2 0xFFB JUMP JUMPDEST JUMPDEST PUSH2 0x12E5 DUP10 DUP3 DUP11 ADD PUSH2 0x10CE JUMP JUMPDEST SWAP3 POP SWAP3 POP POP SWAP3 SWAP6 POP SWAP3 SWAP6 POP SWAP3 SWAP6 JUMP JUMPDEST PUSH1 0x0 DUP2 SWAP1 POP SWAP2 SWAP1 POP JUMP JUMPDEST PUSH2 0x1307 DUP2 PUSH2 0x12F4 JUMP JUMPDEST DUP3 MSTORE POP POP JUMP JUMPDEST PUSH1 0x0 PUSH1 0x40 DUP3 ADD SWAP1 POP PUSH2 0x1322 PUSH1 0x0 DUP4 ADD DUP6 PUSH2 0x12FE JUMP JUMPDEST PUSH2 0x132F PUSH1 0x20 DUP4 ADD DUP5 PUSH2 0x12FE JUMP JUMPDEST SWAP4 SWAP3 POP POP POP JUMP JUMPDEST PUSH2 0x133F DUP2 PUSH2 0x12F4 JUMP JUMPDEST DUP2 EQ PUSH2 0x134A JUMPI PUSH1 0x0 DUP1 REVERT JUMPDEST POP JUMP JUMPDEST PUSH1 0x0 DUP2 CALLDATALOAD SWAP1 POP PUSH2 0x135C DUP2 PUSH2 0x1336 JUMP JUMPDEST SWAP3 SWAP2 POP POP JUMP JUMPDEST PUSH1 0x0 DUP1 PUSH1 0x0 DUP1 PUSH1 0x60 DUP6 DUP8 SUB SLT ISZERO PUSH2 0x137C JUMPI PUSH2 0x137B PUSH2 0xFF6 JUMP JUMPDEST JUMPDEST PUSH1 0x0 PUSH2 0x138A DUP8 DUP3 DUP9 ADD PUSH2 0x134D JUMP JUMPDEST SWAP5 POP POP PUSH1 0x20 PUSH2 0x139B DUP8 DUP3 DUP9 ADD PUSH2 0x134D JUMP JUMPDEST SWAP4 POP POP PUSH1 0x40 DUP6 ADD CALLDATALOAD PUSH8 0xFFFFFFFFFFFFFFFF DUP2 GT ISZERO PUSH2 0x13BC JUMPI PUSH2 0x13BB PUSH2 0xFFB JUMP JUMPDEST JUMPDEST PUSH2 0x13C8 DUP8 DUP3 DUP9 ADD PUSH2 0x10CE JUMP JUMPDEST SWAP3 POP SWAP3 POP POP SWAP3 SWAP6 SWAP2 SWAP5 POP SWAP3 POP JUMP JUMPDEST PUSH1 0x0 PUSH1 0x20 DUP3 DUP5 SUB SLT ISZERO PUSH2 0x13EC JUMPI PUSH2 0x13EB PUSH2 0xFF6 JUMP JUMPDEST JUMPDEST PUSH1 0x0 PUSH2 0x13FA DUP5 DUP3 DUP6 ADD PUSH2 0x11E1 JUMP JUMPDEST SWAP2 POP POP SWAP3 SWAP2 POP POP JUMP JUMPDEST PUSH1 0x0 DUP2 MLOAD SWAP1 POP PUSH2 0x1412 DUP2 PUSH2 0x122E JUMP JUMPDEST SWAP3 SWAP2 POP POP JUMP JUMPDEST PUSH1 0x0 DUP2 PUSH1 0x2 SIGNEXTEND SWAP1 POP SWAP2 SWAP1 POP JUMP JUMPDEST PUSH2 0x142E DUP2 PUSH2 0x1418 JUMP JUMPDEST DUP2 EQ PUSH2 0x1439 JUMPI PUSH1 0x0 DUP1 REVERT JUMPDEST POP JUMP JUMPDEST PUSH1 0x0 DUP2 MLOAD SWAP1 POP PUSH2 0x144B DUP2 PUSH2 0x1425 JUMP JUMPDEST SWAP3 SWAP2 POP POP JUMP JUMPDEST PUSH1 0x0 DUP1 PUSH1 0x40 DUP4 DUP6 SUB SLT ISZERO PUSH2 0x1468 JUMPI PUSH2 0x1467 PUSH2 0xFF6 JUMP JUMPDEST JUMPDEST PUSH1 0x0 PUSH2 0x1476 DUP6 DUP3 DUP7 ADD PUSH2 0x1403 JUMP JUMPDEST SWAP3 POP POP PUSH1 0x20 PUSH2 0x1487 DUP6 DUP3 DUP7 ADD PUSH2 0x143C JUMP JUMPDEST SWAP2 POP POP SWAP3 POP SWAP3 SWAP1 POP JUMP JUMPDEST PUSH1 0x0 DUP2 CALLDATALOAD SWAP1 POP PUSH2 0x14A0 DUP2 PUSH2 0x1425 JUMP JUMPDEST SWAP3 SWAP2 POP POP JUMP JUMPDEST PUSH1 0x0 PUSH1 0x20 DUP3 DUP5 SUB SLT ISZERO PUSH2 0x14BC JUMPI PUSH2 0x14BB PUSH2 0xFF6 JUMP JUMPDEST JUMPDEST PUSH1 0x0 PUSH2 0x14CA DUP5 DUP3 DUP6 ADD PUSH2 0x1491 JUMP JUMPDEST SWAP2 POP POP SWAP3 SWAP2 POP POP JUMP JUMPDEST PUSH1 0x0 DUP2 MLOAD SWAP1 POP PUSH2 0x14E2 DUP2 PUSH2 0x11CA JUMP JUMPDEST SWAP3 SWAP2 POP POP JUMP JUMPDEST PUSH1 0x0 PUSH1 0x20 DUP3 DUP5 SUB SLT ISZERO PUSH2 0x14FE JUMPI PUSH2 0x14FD PUSH2 0xFF6 JUMP JUMPDEST JUMPDEST PUSH1 0x0 PUSH2 0x150C DUP5 DUP3 DUP6 ADD PUSH2 0x14D3 JUMP JUMPDEST SWAP2 POP POP SWAP3 SWAP2 POP POP JUMP JUMPDEST PUSH2 0x151E DUP2 PUSH2 0x11B8 JUMP JUMPDEST DUP3 MSTORE POP POP JUMP JUMPDEST PUSH1 0x60 DUP3 ADD PUSH1 0x0 DUP3 ADD MLOAD PUSH2 0x153A PUSH1 0x0 DUP6 ADD DUP3 PUSH2 0x1515 JUMP JUMPDEST POP PUSH1 0x20 DUP3 ADD MLOAD PUSH2 0x154D PUSH1 0x20 DUP6 ADD DUP3 PUSH2 0x1515 JUMP JUMPDEST POP PUSH1 0x40 DUP3 ADD MLOAD PUSH2 0x1560 PUSH1 0x40 DUP6 ADD DUP3 PUSH2 0x1515 JUMP JUMPDEST POP POP POP POP JUMP JUMPDEST PUSH1 0x0 PUSH1 0x60 DUP3 ADD SWAP1 POP PUSH2 0x157B PUSH1 0x0 DUP4 ADD DUP5 PUSH2 0x1524 JUMP JUMPDEST SWAP3 SWAP2 POP POP JUMP JUMPDEST PUSH2 0x158A DUP2 PUSH2 0x11B8 JUMP JUMPDEST DUP3 MSTORE POP POP JUMP JUMPDEST PUSH2 0x1599 DUP2 PUSH2 0x1418 JUMP JUMPDEST DUP3 MSTORE POP POP JUMP JUMPDEST PUSH1 0x0 PUSH16 0xFFFFFFFFFFFFFFFFFFFFFFFFFFFFFFFF DUP3 AND SWAP1 POP SWAP2 SWAP1 POP JUMP JUMPDEST PUSH2 0x15C4 DUP2 PUSH2 0x159F JUMP JUMPDEST DUP3 MSTORE POP POP JUMP JUMPDEST PUSH1 0x0 DUP2 MLOAD SWAP1 POP SWAP2 SWAP1 POP JUMP JUMPDEST PUSH1 0x0 DUP3 DUP3 MSTORE PUSH1 0x20 DUP3 ADD SWAP1 POP SWAP3 SWAP2 POP POP JUMP JUMPDEST PUSH1 0x0 JUMPDEST DUP4 DUP2 LT ISZERO PUSH2 0x1604 JUMPI DUP1 DUP3 ADD MLOAD DUP2 DUP5 ADD MSTORE PUSH1 0x20 DUP2 ADD SWAP1 POP PUSH2 0x15E9 JUMP JUMPDEST PUSH1 0x0 DUP5 DUP5 ADD MSTORE POP POP POP POP JUMP JUMPDEST PUSH1 0x0 PUSH1 0x1F NOT PUSH1 0x1F DUP4 ADD AND SWAP1 POP SWAP2 SWAP1 POP JUMP JUMPDEST PUSH1 0x0 PUSH2 0x162C DUP3 PUSH2 0x15CA JUMP JUMPDEST PUSH2 0x1636 DUP2 DUP6 PUSH2 0x15D5 JUMP JUMPDEST SWAP4 POP PUSH2 0x1646 DUP2 DUP6 PUSH1 0x20 DUP7 ADD PUSH2 0x15E6 JUMP JUMPDEST PUSH2 0x164F DUP2 PUSH2 0x1610 JUMP JUMPDEST DUP5 ADD SWAP2 POP POP SWAP3 SWAP2 POP POP JUMP JUMPDEST PUSH1 0x0 PUSH1 0xA0 DUP3 ADD SWAP1 POP PUSH2 0x166F PUSH1 0x0 DUP4 ADD DUP9 PUSH2 0x1581 JUMP JUMPDEST PUSH2 0x167C PUSH1 0x20 DUP4 ADD DUP8 PUSH2 0x1590 JUMP JUMPDEST PUSH2 0x1689 PUSH1 0x40 DUP4 ADD DUP7 PUSH2 0x1590 JUMP JUMPDEST PUSH2 0x1696 PUSH1 0x60 DUP4 ADD DUP6 PUSH2 0x15BB JUMP JUMPDEST DUP2 DUP2 SUB PUSH1 0x80 DUP4 ADD MSTORE PUSH2 0x16A8 DUP2 DUP5 PUSH2 0x1621 JUMP JUMPDEST SWAP1 POP SWAP7 SWAP6 POP POP POP POP POP POP JUMP JUMPDEST PUSH1 0x0 DUP2 MLOAD SWAP1 POP PUSH2 0x16C3 DUP2 PUSH2 0x1093 JUMP JUMPDEST SWAP3 SWAP2 POP POP JUMP JUMPDEST PUSH1 0x0 DUP1 PUSH1 0x40 DUP4 DUP6 SUB SLT ISZERO PUSH2 0x16E0 JUMPI PUSH2 0x16DF PUSH2 0xFF6 JUMP JUMPDEST JUMPDEST PUSH1 0x0 PUSH2 0x16EE DUP6 DUP3 DUP7 ADD PUSH2 0x16B4 JUMP JUMPDEST SWAP3 POP POP PUSH1 0x20 PUSH2 0x16FF DUP6 DUP3 DUP7 ADD PUSH2 0x16B4 JUMP JUMPDEST SWAP2 POP POP SWAP3 POP SWAP3 SWAP1 POP JUMP JUMPDEST PUSH1 0x0 DUP1 REVERT JUMPDEST PUSH32 0x4E487B7100000000000000000000000000000000000000000000000000000000 PUSH1 0x0 MSTORE PUSH1 0x41 PUSH1 0x4 MSTORE PUSH1 0x24 PUSH1 0x0 REVERT JUMPDEST PUSH2 0x1746 DUP3 PUSH2 0x1610 JUMP JUMPDEST DUP2 ADD DUP2 DUP2 LT PUSH8 0xFFFFFFFFFFFFFFFF DUP3 GT OR ISZERO PUSH2 0x1765 JUMPI PUSH2 0x1764 PUSH2 0x170E JUMP JUMPDEST JUMPDEST DUP1 PUSH1 0x40 MSTORE POP POP POP JUMP JUMPDEST PUSH1 0x0 PUSH2 0x1778 PUSH2 0xFEC JUMP JUMPDEST SWAP1 POP PUSH2 0x1784 DUP3 DUP3 PUSH2 0x173D JUMP JUMPDEST SWAP2 SWAP1 POP JUMP JUMPDEST PUSH1 0x0 PUSH1 0x60 DUP3 DUP5 SUB SLT ISZERO PUSH2 0x179F JUMPI PUSH2 0x179E PUSH2 0x1709 JUMP JUMPDEST JUMPDEST PUSH2 0x17A9 PUSH1 0x60 PUSH2 0x176E JUMP JUMPDEST SWAP1 POP PUSH1 0x0 PUSH2 0x17B9 DUP5 DUP3 DUP6 ADD PUSH2 0x11E1 JUMP JUMPDEST PUSH1 0x0 DUP4 ADD MSTORE POP PUSH1 0x20 PUSH2 0x17CD DUP5 DUP3 DUP6 ADD PUSH2 0x11E1 JUMP JUMPDEST PUSH1 0x20 DUP4 ADD MSTORE POP PUSH1 0x40 PUSH2 0x17E1 DUP5 DUP3 DUP6 ADD PUSH2 0x11E1 JUMP JUMPDEST PUSH1 0x40 DUP4 ADD MSTORE POP SWAP3 SWAP2 POP POP JUMP JUMPDEST PUSH1 0x0 PUSH1 0x60 DUP3 DUP5 SUB SLT ISZERO PUSH2 0x1803 JUMPI PUSH2 0x1802 PUSH2 0xFF6 JUMP JUMPDEST JUMPDEST PUSH1 0x0 PUSH2 0x1811 DUP5 DUP3 DUP6 ADD PUSH2 0x1789 JUMP JUMPDEST SWAP2 POP POP SWAP3 SWAP2 POP POP JUMP JUMPDEST PUSH1 0x0 PUSH1 0x60 DUP3 ADD SWAP1 POP PUSH2 0x182F PUSH1 0x0 DUP4 ADD DUP7 PUSH2 0x1581 JUMP JUMPDEST PUSH2 0x183C PUSH1 0x20 DUP4 ADD DUP6 PUSH2 0x1581 JUMP JUMPDEST PUSH2 0x1849 PUSH1 0x40 DUP4 ADD DUP5 PUSH2 0x105B JUMP JUMPDEST SWAP5 SWAP4 POP POP POP POP JUMP JUMPDEST PUSH1 0x0 DUP2 MLOAD SWAP1 POP PUSH2 0x1860 DUP2 PUSH2 0x1202 JUMP JUMPDEST SWAP3 SWAP2 POP POP JUMP JUMPDEST PUSH1 0x0 PUSH1 0x20 DUP3 DUP5 SUB SLT ISZERO PUSH2 0x187C JUMPI PUSH2 0x187B PUSH2 0xFF6 JUMP JUMPDEST JUMPDEST PUSH1 0x0 PUSH2 0x188A DUP5 DUP3 DUP6 ADD PUSH2 0x1851 JUMP JUMPDEST SWAP2 POP POP SWAP3 SWAP2 POP POP JUMP JUMPDEST PUSH32 0x4E487B7100000000000000000000000000000000000000000000000000000000 PUSH1 0x0 MSTORE PUSH1 0x11 PUSH1 0x4 MSTORE PUSH1 0x24 PUSH1 0x0 REVERT JUMPDEST PUSH1 0x0 PUSH2 0x18CD DUP3 PUSH2 0x1198 JUMP JUMPDEST SWAP2 POP PUSH2 0x18D8 DUP4 PUSH2 0x1198 JUMP JUMPDEST SWAP3 POP DUP3 DUP3 SUB SWAP1 POP PUSH20 0xFFFFFFFFFFFFFFFFFFFFFFFFFFFFFFFFFFFFFFFF DUP2 GT ISZERO PUSH2 0x1904 JUMPI PUSH2 0x1903 PUSH2 0x1893 JUMP JUMPDEST JUMPDEST SWAP3 SWAP2 POP POP JUMP JUMPDEST PUSH1 0x0 PUSH2 0x1915 DUP3 PUSH2 0x1198 JUMP JUMPDEST SWAP2 POP PUSH2 0x1920 DUP4 PUSH2 0x1198 JUMP JUMPDEST SWAP3 POP DUP3 DUP3 ADD SWAP1 POP PUSH20 0xFFFFFFFFFFFFFFFFFFFFFFFFFFFFFFFFFFFFFFFF DUP2 GT ISZERO PUSH2 0x194C JUMPI PUSH2 0x194B PUSH2 0x1893 JUMP JUMPDEST JUMPDEST SWAP3 SWAP2 POP POP JUMP JUMPDEST PUSH2 0x195B DUP2 PUSH2 0x11F6 JUMP JUMPDEST DUP3 MSTORE POP POP JUMP JUMPDEST PUSH2 0x196A DUP2 PUSH2 0x1198 JUMP JUMPDEST DUP3 MSTORE POP POP JUMP JUMPDEST DUP3 DUP2 DUP4 CALLDATACOPY PUSH1 0x0 DUP4 DUP4 ADD MSTORE POP POP POP JUMP JUMPDEST PUSH1 0x0 PUSH2 0x198B DUP4 DUP6 PUSH2 0x15D5 JUMP JUMPDEST SWAP4 POP PUSH2 0x1998 DUP4 DUP6 DUP5 PUSH2 0x1970 JUMP JUMPDEST PUSH2 0x19A1 DUP4 PUSH2 0x1610 JUMP JUMPDEST DUP5 ADD SWAP1 POP SWAP4 SWAP3 POP POP POP JUMP JUMPDEST PUSH1 0x0 PUSH1 0xA0 DUP3 ADD SWAP1 POP PUSH2 0x19C1 PUSH1 0x0 DUP4 ADD DUP10 PUSH2 0x1581 JUMP JUMPDEST PUSH2 0x19CE PUSH1 0x20 DUP4 ADD DUP9 PUSH2 0x1952 JUMP JUMPDEST PUSH2 0x19DB PUSH1 0x40 DUP4 ADD DUP8 PUSH2 0x105B JUMP JUMPDEST PUSH2 0x19E8 PUSH1 0x60 DUP4 ADD DUP7 PUSH2 0x1961 JUMP JUMPDEST DUP2 DUP2 SUB PUSH1 0x80 DUP4 ADD MSTORE PUSH2 0x19FB DUP2 DUP5 DUP7 PUSH2 0x197F JUMP JUMPDEST SWAP1 POP SWAP8 SWAP7 POP POP POP POP POP POP POP JUMP JUMPDEST PUSH1 0x0 DUP2 MLOAD SWAP1 POP PUSH2 0x1A17 DUP2 PUSH2 0x1336 JUMP JUMPDEST SWAP3 SWAP2 POP POP JUMP JUMPDEST PUSH1 0x0 DUP1 PUSH1 0x40 DUP4 DUP6 SUB SLT ISZERO PUSH2 0x1A34 JUMPI PUSH2 0x1A33 PUSH2 0xFF6 JUMP JUMPDEST JUMPDEST PUSH1 0x0 PUSH2 0x1A42 DUP6 DUP3 DUP7 ADD PUSH2 0x1A08 JUMP JUMPDEST SWAP3 POP POP PUSH1 0x20 PUSH2 0x1A53 DUP6 DUP3 DUP7 ADD PUSH2 0x1A08 JUMP JUMPDEST SWAP2 POP POP SWAP3 POP SWAP3 SWAP1 POP JUMP JUMPDEST PUSH1 0x0 PUSH2 0x1A68 DUP3 PUSH2 0x12F4 JUMP JUMPDEST SWAP2 POP PUSH32 0x8000000000000000000000000000000000000000000000000000000000000000 DUP3 SUB PUSH2 0x1A9A JUMPI PUSH2 0x1A99 PUSH2 0x1893 JUMP JUMPDEST JUMPDEST DUP2 PUSH1 0x0 SUB SWAP1 POP SWAP2 SWAP1 POP JUMP JUMPDEST PUSH1 0x0 PUSH2 0x1AB0 DUP3 PUSH2 0x1418 JUMP JUMPDEST SWAP2 POP PUSH32 0xFFFFFFFFFFFFFFFFFFFFFFFFFFFFFFFFFFFFFFFFFFFFFFFFFFFFFFFFFF800000 DUP3 SUB PUSH2 0x1AE2 JUMPI PUSH2 0x1AE1 PUSH2 0x1893 JUMP JUMPDEST JUMPDEST DUP2 PUSH1 0x0 SUB SWAP1 POP SWAP2 SWAP1 POP JUMP JUMPDEST PUSH1 0x0 DUP3 DUP3 MSTORE PUSH1 0x20 DUP3 ADD SWAP1 POP SWAP3 SWAP2 POP POP JUMP JUMPDEST PUSH32 0x5400000000000000000000000000000000000000000000000000000000000000 PUSH1 0x0 DUP3 ADD MSTORE POP JUMP JUMPDEST PUSH1 0x0 PUSH2 0x1B34 PUSH1 0x1 DUP4 PUSH2 0x1AED JUMP JUMPDEST SWAP2 POP PUSH2 0x1B3F DUP3 PUSH2 0x1AFE JUMP JUMPDEST PUSH1 0x20 DUP3 ADD SWAP1 POP SWAP2 SWAP1 POP JUMP JUMPDEST PUSH1 0x0 PUSH1 0x20 DUP3 ADD SWAP1 POP DUP2 DUP2 SUB PUSH1 0x0 DUP4 ADD MSTORE PUSH2 0x1B63 DUP2 PUSH2 0x1B27 JUMP JUMPDEST SWAP1 POP SWAP2 SWAP1 POP JUMP JUMPDEST PUSH1 0x0 PUSH2 0x1B75 DUP3 PUSH2 0x1051 JUMP JUMPDEST SWAP2 POP PUSH2 0x1B80 DUP4 PUSH2 0x1051 JUMP JUMPDEST SWAP3 POP DUP3 DUP3 MUL PUSH2 0x1B8E DUP2 PUSH2 0x1051 JUMP JUMPDEST SWAP2 POP DUP3 DUP3 DIV DUP5 EQ DUP4 ISZERO OR PUSH2 0x1BA5 JUMPI PUSH2 0x1BA4 PUSH2 0x1893 JUMP JUMPDEST JUMPDEST POP SWAP3 SWAP2 POP POP JUMP JUMPDEST PUSH32 0x4E487B7100000000000000000000000000000000000000000000000000000000 PUSH1 0x0 MSTORE PUSH1 0x12 PUSH1 0x4 MSTORE PUSH1 0x24 PUSH1 0x0 REVERT JUMPDEST PUSH1 0x0 PUSH2 0x1BE6 DUP3 PUSH2 0x1051 JUMP JUMPDEST SWAP2 POP PUSH2 0x1BF1 DUP4 PUSH2 0x1051 JUMP JUMPDEST SWAP3 POP DUP3 PUSH2 0x1C01 JUMPI PUSH2 0x1C00 PUSH2 0x1BAC JUMP JUMPDEST JUMPDEST DUP3 DUP3 DIV SWAP1 POP SWAP3 SWAP2 POP POP JUMP JUMPDEST PUSH1 0x0 PUSH2 0x1C17 DUP3 PUSH2 0x1051 JUMP JUMPDEST SWAP2 POP PUSH2 0x1C22 DUP4 PUSH2 0x1051 JUMP JUMPDEST SWAP3 POP DUP3 PUSH2 0x1C32 JUMPI PUSH2 0x1C31 PUSH2 0x1BAC JUMP JUMPDEST JUMPDEST DUP3 DUP3 MOD SWAP1 POP SWAP3 SWAP2 POP POP JUMP JUMPDEST PUSH1 0x0 PUSH2 0x1C48 DUP3 PUSH2 0x1051 JUMP JUMPDEST SWAP2 POP PUSH2 0x1C53 DUP4 PUSH2 0x1051 JUMP JUMPDEST SWAP3 POP DUP3 DUP3 ADD SWAP1 POP DUP1 DUP3 GT ISZERO PUSH2 0x1C6B JUMPI PUSH2 0x1C6A PUSH2 0x1893 JUMP JUMPDEST JUMPDEST SWAP3 SWAP2 POP POP JUMP INVALID LOG2 PUSH5 0x6970667358 0x22 SLT KECCAK256 0xE7 PREVRANDAO PUSH0 BALANCE EXTCODECOPY BYTE 0xDE 0x22 DUP2 0xCE 0x4F 0xC2 BASEFEE 0xAA TLOAD 0x28 PUSH3 0x7745BD 0xBB COINBASE DELEGATECALL BALANCE 0xD5 MULMOD LOG4 0xF9 0xB7 0x2A PUSH26 0xA64736F6C634300081A00330000000000000000000000000000 "
		},
		"gasEstimates": {
			"creation": {
				"codeDepositCost": "1467000",
				"executionCost": "1534",
				"totalCost": "1468534"
			},
			"external": {
				"mint((address,int24,int24,uint256,uint256,uint256,uint256))": "infinite",
				"swap(address,bool,uint256,uint160,bytes)": "infinite",
				"uniswapV3MintCallback(uint256,uint256,bytes)": "infinite",
				"uniswapV3SwapCallback(int256,int256,bytes)": "infinite"
			}
		},
		"methodIdentifiers": {
			"mint((address,int24,int24,uint256,uint256,uint256,uint256))": "190c1752",
			"swap(address,bool,uint256,uint160,bytes)": "dd5a12d8",
			"uniswapV3MintCallback(uint256,uint256,bytes)": "d3487997",
			"uniswapV3SwapCallback(int256,int256,bytes)": "fa461e33"
		}
	},
	"abi": [
		{
			"inputs": [
				{
					"internalType": "uint256",
					"name": "prod1",
					"type": "uint256"
				},
				{
					"internalType": "uint256",
					"name": "denominator",
					"type": "uint256"
				}
			],
			"name": "PRBMath__MulDivOverflow",
			"type": "error"
		},
		{
			"inputs": [
				{
					"internalType": "uint256",
					"name": "amount0",
					"type": "uint256"
				},
				{
					"internalType": "uint256",
					"name": "amount1",
					"type": "uint256"
				}
			],
			"name": "SlippageCheckFailed",
			"type": "error"
		},
		{
			"inputs": [
				{
					"components": [
						{
							"internalType": "address",
							"name": "poolAddress",
							"type": "address"
						},
						{
							"internalType": "int24",
							"name": "lowerTick",
							"type": "int24"
						},
						{
							"internalType": "int24",
							"name": "upperTick",
							"type": "int24"
						},
						{
							"internalType": "uint256",
							"name": "amount0Desired",
							"type": "uint256"
						},
						{
							"internalType": "uint256",
							"name": "amount1Desired",
							"type": "uint256"
						},
						{
							"internalType": "uint256",
							"name": "amount0Min",
							"type": "uint256"
						},
						{
							"internalType": "uint256",
							"name": "amount1Min",
							"type": "uint256"
						}
					],
					"internalType": "struct IUniswapV3Manager.MintParams",
					"name": "params",
					"type": "tuple"
				}
			],
			"name": "mint",
			"outputs": [
				{
					"internalType": "uint256",
					"name": "amount0",
					"type": "uint256"
				},
				{
					"internalType": "uint256",
					"name": "amount1",
					"type": "uint256"
				}
			],
			"stateMutability": "nonpayable",
			"type": "function"
		},
		{
			"inputs": [
				{
					"internalType": "address",
					"name": "poolAddress_",
					"type": "address"
				},
				{
					"internalType": "bool",
					"name": "zeroForOne",
					"type": "bool"
				},
				{
					"internalType": "uint256",
					"name": "amountSpecified",
					"type": "uint256"
				},
				{
					"internalType": "uint160",
					"name": "sqrtPriceLimitX96",
					"type": "uint160"
				},
				{
					"internalType": "bytes",
					"name": "data",
					"type": "bytes"
				}
			],
			"name": "swap",
			"outputs": [
				{
					"internalType": "int256",
					"name": "",
					"type": "int256"
				},
				{
					"internalType": "int256",
					"name": "",
					"type": "int256"
				}
			],
			"stateMutability": "nonpayable",
			"type": "function"
		},
		{
			"inputs": [
				{
					"internalType": "uint256",
					"name": "amount0",
					"type": "uint256"
				},
				{
					"internalType": "uint256",
					"name": "amount1",
					"type": "uint256"
				},
				{
					"internalType": "bytes",
					"name": "data",
					"type": "bytes"
				}
			],
			"name": "uniswapV3MintCallback",
			"outputs": [],
			"stateMutability": "nonpayable",
			"type": "function"
		},
		{
			"inputs": [
				{
					"internalType": "int256",
					"name": "amount0",
					"type": "int256"
				},
				{
					"internalType": "int256",
					"name": "amount1",
					"type": "int256"
				},
				{
					"internalType": "bytes",
					"name": "data",
					"type": "bytes"
				}
			],
			"name": "uniswapV3SwapCallback",
			"outputs": [],
			"stateMutability": "nonpayable",
			"type": "function"
		}
	]
}