{
	"data": {
		"bytecode": {
			"linkReferences": {},
			"object": "61010060405234801561001157600080fd5b503373ffffffffffffffffffffffffffffffffffffffff1663890357306040518163ffffffff1660e01b81526004016080604051808303816000875af115801561005f573d6000803e3d6000fd5b505050506040513d601f19601f8201168201806040525081019061008391906101d4565b8062ffffff1660e09062ffffff168152508173ffffffffffffffffffffffffffffffffffffffff1660c09073ffffffffffffffffffffffffffffffffffffffff168152508273ffffffffffffffffffffffffffffffffffffffff1660a09073ffffffffffffffffffffffffffffffffffffffff168152508373ffffffffffffffffffffffffffffffffffffffff1660809073ffffffffffffffffffffffffffffffffffffffff168152505050505061023b565b600080fd5b600073ffffffffffffffffffffffffffffffffffffffff82169050919050565b60006101668261013b565b9050919050565b6101768161015b565b811461018157600080fd5b50565b6000815190506101938161016d565b92915050565b600062ffffff82169050919050565b6101b181610199565b81146101bc57600080fd5b50565b6000815190506101ce816101a8565b92915050565b600080600080608085870312156101ee576101ed610136565b5b60006101fc87828801610184565b945050602061020d87828801610184565b935050604061021e87828801610184565b925050606061022f878288016101bf565b91505092959194509250565b60805160a05160c05160e0516142f46102cf60003960008181610479015281816104b601528181610d6501526110780152600081816108f001528181610a3e01528181610bf201528181610d890152818161150f015261241b0152600081816102b7015281816108520152818161099501528181610b4c01528181611686015261237a01526000610d4101526142f46000f3fe608060405234801561001057600080fd5b50600436106100cf5760003560e01c80635339c2961161008c578063d21220a711610066578063d21220a714610218578063dd5a12d814610236578063f30dba9314610267578063f637731d14610299576100cf565b80635339c296146101ac578063c45a0155146101dc578063d0c93a7c146101fa576100cf565b80630dfe1681146100d45780631a686502146100f25780633850c7bd146101105780633c8a7d8d1461012f5780634a18239214610160578063514ea4bf1461017c575b600080fd5b6100dc6102b5565b6040516100e991906131f0565b60405180910390f35b6100fa6102d9565b6040516101079190613236565b60405180910390f35b6101186102fb565b60405161012692919061327c565b60405180910390f35b61014960048036038101906101449190613398565b61033a565b60405161015792919061344b565b60405180910390f35b61017a600480360381019061017591906134a0565b61084e565b005b6101966004803603810190610191919061354a565b610ced565b6040516101a39190613236565b60405180910390f35b6101c660048036038101906101c191906135b0565b610d27565b6040516101d391906135dd565b60405180910390f35b6101e4610d3f565b6040516101f191906131f0565b60405180910390f35b610202610d63565b60405161020f9190613616565b60405180910390f35b610220610d87565b60405161022d91906131f0565b60405180910390f35b610250600480360381019061024b9190613695565b610dab565b60405161025e929190613748565b60405180910390f35b610281600480360381019061027c9190613771565b6118ab565b604051610290939291906137c9565b60405180910390f35b6102b360048036038101906102ae9190613800565b61190b565b005b7f000000000000000000000000000000000000000000000000000000000000000081565b600160009054906101000a90046fffffffffffffffffffffffffffffffff1681565b60008060000160009054906101000a900473ffffffffffffffffffffffffffffffffffffffff16908060000160149054906101000a900460020b905082565b6000808560020b8760020b12158061037757507ffffffffffffffffffffffffffffffffffffffffffffffffffffffffffff2761860020b8760020b125b806103b057507ffffffffffffffffffffffffffffffffffffffffffffffffffffffffffff276186103a79061385c565b60020b8660020b135b156103e7576040517f064847d000000000000000000000000000000000000000000000000000000000815260040160405180910390fd5b6000856fffffffffffffffffffffffffffffffff1603610433576040517f1007454800000000000000000000000000000000000000000000000000000000815260040160405180910390fd5b600061044e888760006002611a31909392919063ffffffff16565b9050600061046b888860016002611a31909392919063ffffffff16565b905081156104aa576104a9897f00000000000000000000000000000000000000000000000000000000000000006003611bc19092919063ffffffff16565b5b80156104e7576104e6887f00000000000000000000000000000000000000000000000000000000000000006003611bc19092919063ffffffff16565b5b60006105018b8b8b6004611c31909392919063ffffffff16565b90506105168882611c7990919063ffffffff16565b6000806040518060400160405290816000820160009054906101000a900473ffffffffffffffffffffffffffffffffffffffff1673ffffffffffffffffffffffffffffffffffffffff1673ffffffffffffffffffffffffffffffffffffffff1681526020016000820160149054906101000a900460020b60020b60020b8152505090508a60020b816020015160020b12156105cd576105c66105b78c611cef565b6105c08c611cef565b8b6121bc565b9550610695565b8960020b816020015160020b1215610676576105f681600001516105f08c611cef565b8b6121bc565b955061060f81600001516106098d611cef565b8b6122a3565b9450610639600160009054906101000a90046fffffffffffffffffffffffffffffffff168a612338565b600160006101000a8154816fffffffffffffffffffffffffffffffff02191690836fffffffffffffffffffffffffffffffff160217905550610694565b6106916106828c611cef565b61068b8c611cef565b8b6122a3565b94505b5b60008060008811156106ac576106a9612376565b91505b60008711156106c0576106bd612417565b90505b3373ffffffffffffffffffffffffffffffffffffffff1663d348799789898d8d6040518563ffffffff1660e01b81526004016106ff9493929190613902565b600060405180830381600087803b15801561071957600080fd5b505af115801561072d573d6000803e3d6000fd5b505050506000881180156107525750610744612376565b88836107509190613942565b115b15610789576040517f098fb56100000000000000000000000000000000000000000000000000000000815260040160405180910390fd5b6000871180156107aa575061079c612417565b87826107a89190613942565b115b156107e1576040517f098fb56100000000000000000000000000000000000000000000000000000000815260040160405180910390fd5b8b60020b8d60020b8f73ffffffffffffffffffffffffffffffffffffffff167f7a53080ba414158be7ec69b987b5fb7d07dee101fe85488f0853ae16239d0bde338f8d8d6040516108359493929190613976565b60405180910390a4505050505050965096945050505050565b60007f000000000000000000000000000000000000000000000000000000000000000073ffffffffffffffffffffffffffffffffffffffff166370a08231306040518263ffffffff1660e01b81526004016108a991906131f0565b602060405180830381865afa1580156108c6573d6000803e3d6000fd5b505050506040513d601f19601f820116820180604052508101906108ea91906139d0565b905060007f000000000000000000000000000000000000000000000000000000000000000073ffffffffffffffffffffffffffffffffffffffff166370a08231306040518263ffffffff1660e01b815260040161094791906131f0565b602060405180830381865afa158015610964573d6000803e3d6000fd5b505050506040513d601f19601f8201168201806040525081019061098891906139d0565b90506000861115610a33577f000000000000000000000000000000000000000000000000000000000000000073ffffffffffffffffffffffffffffffffffffffff1663a9059cbb33886040518363ffffffff1660e01b81526004016109ee9291906139fd565b6020604051808303816000875af1158015610a0d573d6000803e3d6000fd5b505050506040513d601f19601f82011682018060405250810190610a319190613a3b565b505b6000851115610adc577f000000000000000000000000000000000000000000000000000000000000000073ffffffffffffffffffffffffffffffffffffffff1663a9059cbb33876040518363ffffffff1660e01b8152600401610a979291906139fd565b6020604051808303816000875af1158015610ab6573d6000803e3d6000fd5b505050506040513d601f19601f82011682018060405250810190610ada9190613a3b565b505b3373ffffffffffffffffffffffffffffffffffffffff1663e4c857ca85856040518363ffffffff1660e01b8152600401610b17929190613a68565b600060405180830381600087803b158015610b3157600080fd5b505af1158015610b45573d6000803e3d6000fd5b50505050817f000000000000000000000000000000000000000000000000000000000000000073ffffffffffffffffffffffffffffffffffffffff166370a08231306040518263ffffffff1660e01b8152600401610ba391906131f0565b602060405180830381865afa158015610bc0573d6000803e3d6000fd5b505050506040513d601f19601f82011682018060405250810190610be491906139d0565b1015610bef57600080fd5b807f000000000000000000000000000000000000000000000000000000000000000073ffffffffffffffffffffffffffffffffffffffff166370a08231306040518263ffffffff1660e01b8152600401610c4991906131f0565b602060405180830381865afa158015610c66573d6000803e3d6000fd5b505050506040513d601f19601f82011682018060405250810190610c8a91906139d0565b1015610c9557600080fd5b3373ffffffffffffffffffffffffffffffffffffffff167f1c1db1f1d6a01e51fec24bb54087b65fe5430f692280e70d92f718eb72ae76b78787604051610cdd92919061344b565b60405180910390a2505050505050565b60046020528060005260406000206000915090508060000160009054906101000a90046fffffffffffffffffffffffffffffffff16905081565b60036020528060005260406000206000915090505481565b7f000000000000000000000000000000000000000000000000000000000000000081565b7f000000000000000000000000000000000000000000000000000000000000000081565b7f000000000000000000000000000000000000000000000000000000000000000081565b6000806000806040518060400160405290816000820160009054906101000a900473ffffffffffffffffffffffffffffffffffffffff1673ffffffffffffffffffffffffffffffffffffffff1673ffffffffffffffffffffffffffffffffffffffff1681526020016000820160149054906101000a900460020b60020b60020b8152505090506000600160009054906101000a90046fffffffffffffffffffffffffffffffff16905088610edb57816000015173ffffffffffffffffffffffffffffffffffffffff168773ffffffffffffffffffffffffffffffffffffffff161080610ed6575073fffd8963efd1fc6a506488495d951d5263988d2673ffffffffffffffffffffffffffffffffffffffff168773ffffffffffffffffffffffffffffffffffffffff16115b610f4a565b816000015173ffffffffffffffffffffffffffffffffffffffff168773ffffffffffffffffffffffffffffffffffffffff161180610f4957506401000276a373ffffffffffffffffffffffffffffffffffffffff168773ffffffffffffffffffffffffffffffffffffffff16105b5b15610f81576040517fb53bbacc00000000000000000000000000000000000000000000000000000000815260040160405180910390fd5b60006040518060a001604052808a815260200160008152602001846000015173ffffffffffffffffffffffffffffffffffffffff168152602001846020015160020b8152602001836fffffffffffffffffffffffffffffffff1681525090505b6000816000015111801561102557508773ffffffffffffffffffffffffffffffffffffffff16816040015173ffffffffffffffffffffffffffffffffffffffff1614155b156113be57611032613148565b8160400151816000019073ffffffffffffffffffffffffffffffffffffffff16908173ffffffffffffffffffffffffffffffffffffffff16815250506110aa82606001517f00000000000000000000000000000000000000000000000000000000000000008d60036124b8909392919063ffffffff16565b826020018360400182151515158152508260020b60020b81525050506110d38160200151611cef565b816060019073ffffffffffffffffffffffffffffffffffffffff16908173ffffffffffffffffffffffffffffffffffffffff16815250506111a282604001518c61114f578a73ffffffffffffffffffffffffffffffffffffffff16836060015173ffffffffffffffffffffffffffffffffffffffff1611611183565b8a73ffffffffffffffffffffffffffffffffffffffff16836060015173ffffffffffffffffffffffffffffffffffffffff16105b611191578260600151611193565b8a5b846080015185600001516126a6565b84604001846080018560a00183815250838152508373ffffffffffffffffffffffffffffffffffffffff1673ffffffffffffffffffffffffffffffffffffffff168152505050508060800151826000018181516111ff9190613a8c565b915081815250508060a001518260200181815161121c9190613942565b91508181525050806060015173ffffffffffffffffffffffffffffffffffffffff16826040015173ffffffffffffffffffffffffffffffffffffffff160361135d578060400151156113265760006112828260200151600261275490919063ffffffff16565b90508b15611297578061129490613ac0565b90505b6112a5836080015182612338565b83608001906fffffffffffffffffffffffffffffffff1690816fffffffffffffffffffffffffffffffff1681525050600083608001516fffffffffffffffffffffffffffffffff1603611324576040517f4323a55500000000000000000000000000000000000000000000000000000000815260040160405180910390fd5b505b8a611335578060200151611347565b600181602001516113469190613b08565b5b826060019060020b908160020b815250506113b8565b806000015173ffffffffffffffffffffffffffffffffffffffff16826040015173ffffffffffffffffffffffffffffffffffffffff16146113b7576113a5826040015161278c565b826060019060020b908160020b815250505b5b50610fe1565b826020015160020b816060015160020b1461144b57806040015181606001516000800160008060000160148491906101000a81548162ffffff021916908360020b62ffffff1602179055508391906101000a81548173ffffffffffffffffffffffffffffffffffffffff021916908373ffffffffffffffffffffffffffffffffffffffff16021790555050505b80608001516fffffffffffffffffffffffffffffffff16826fffffffffffffffffffffffffffffffff16146114b8578060800151600160006101000a8154816fffffffffffffffffffffffffffffffff02191690836fffffffffffffffffffffffffffffffff1602179055505b896114e05780602001516114cb90613b63565b81600001518a6114db9190613a8c565b6114ff565b8060000151896114f09190613a8c565b81602001516114fe90613b63565b5b80955081965050508915611684577f000000000000000000000000000000000000000000000000000000000000000073ffffffffffffffffffffffffffffffffffffffff1663a9059cbb8c8661155490613b63565b6040518363ffffffff1660e01b81526004016115719291906139fd565b6020604051808303816000875af1158015611590573d6000803e3d6000fd5b505050506040513d601f19601f820116820180604052508101906115b49190613a3b565b5060006115bf612376565b90503373ffffffffffffffffffffffffffffffffffffffff1663fa461e3387878b8b6040518563ffffffff1660e01b81526004016116009493929190613bab565b600060405180830381600087803b15801561161a57600080fd5b505af115801561162e573d6000803e3d6000fd5b5050505061163a612376565b86826116469190613942565b111561167e576040517f098fb56100000000000000000000000000000000000000000000000000000000815260040160405180910390fd5b506117f7565b7f000000000000000000000000000000000000000000000000000000000000000073ffffffffffffffffffffffffffffffffffffffff1663a9059cbb8c876116cb90613b63565b6040518363ffffffff1660e01b81526004016116e89291906139fd565b6020604051808303816000875af1158015611707573d6000803e3d6000fd5b505050506040513d601f19601f8201168201806040525081019061172b9190613a3b565b506000611736612417565b90503373ffffffffffffffffffffffffffffffffffffffff1663fa461e3387878b8b6040518563ffffffff1660e01b81526004016117779493929190613bab565b600060405180830381600087803b15801561179157600080fd5b505af11580156117a5573d6000803e3d6000fd5b505050506117b1612417565b85826117bd9190613942565b11156117f5576040517f098fb56100000000000000000000000000000000000000000000000000000000815260040160405180910390fd5b505b8a73ffffffffffffffffffffffffffffffffffffffff163373ffffffffffffffffffffffffffffffffffffffff167fc42079f94a6350d7e6235f29174924f928cc2ac818eb64fed8004e115fbcca6787876000800160009054906101000a900473ffffffffffffffffffffffffffffffffffffffff1686608001516000800160149054906101000a900460020b604051611895959493929190613beb565b60405180910390a3505050965096945050505050565b60026020528060005260406000206000915090508060000160009054906101000a900460ff16908060000160019054906101000a90046fffffffffffffffffffffffffffffffff16908060010160009054906101000a9004600f0b905083565b60008060000160009054906101000a900473ffffffffffffffffffffffffffffffffffffffff1673ffffffffffffffffffffffffffffffffffffffff161461197f576040517f0dc149f000000000000000000000000000000000000000000000000000000000815260040160405180910390fd5b600061198a8261278c565b905060405180604001604052808373ffffffffffffffffffffffffffffffffffffffff1681526020018260020b8152506000808201518160000160006101000a81548173ffffffffffffffffffffffffffffffffffffffff021916908373ffffffffffffffffffffffffffffffffffffffff16021790555060208201518160000160146101000a81548162ffffff021916908360020b62ffffff1602179055509050505050565b6000808560008660020b60020b8152602001908152602001600020905060008160000160019054906101000a90046fffffffffffffffffffffffffffffffff1690506000611a7f8287612338565b90506000826fffffffffffffffffffffffffffffffff161415156000826fffffffffffffffffffffffffffffffff16141515141593506000826fffffffffffffffffffffffffffffffff1603611aed5760018360000160006101000a81548160ff0219169083151502179055505b808360000160016101000a8154816fffffffffffffffffffffffffffffffff02191690836fffffffffffffffffffffffffffffffff16021790555084611b555785600f0b8360010160009054906101000a9004600f0b600f0b611b509190613c3e565b611b79565b85600f0b8360010160009054906101000a9004600f0b600f0b611b789190613c82565b5b8360010160006101000a8154816fffffffffffffffffffffffffffffffff0219169083600f0b6fffffffffffffffffffffffffffffffff160217905550505050949350505050565b60008183611bcf9190613cf4565b60020b14611bdc57600080fd5b600080611bf38385611bee9190613d25565b612b8b565b9150915060008160ff166001901b9050808660008560010b60010b815260200190815260200160002060008282541892505081905550505050505050565b6000846000858585604051602001611c4b93929190613e0d565b6040516020818303038152906040528051906020012081526020019081526020016000209050949350505050565b60008260000160009054906101000a90046fffffffffffffffffffffffffffffffff16905060008282611cac9190613e4a565b9050808460000160006101000a8154816fffffffffffffffffffffffffffffffff02191690836fffffffffffffffffffffffffffffffff16021790555050505050565b60008060008360020b12611d06578260020b611d14565b8260020b611d1390613b63565b5b90507ffffffffffffffffffffffffffffffffffffffffffffffffffffffffffff27618611d409061385c565b62ffffff16811115611d87576040517f08c379a0000000000000000000000000000000000000000000000000000000008152600401611d7e90613eeb565b60405180910390fd5b6000806001831603611daa57700100000000000000000000000000000000611dbc565b6ffffcb933bd6fad37aa2d162d1a5940015b70ffffffffffffffffffffffffffffffffff16905060006002831614611dff5760806ffff97272373d413259a46990580e213a82611dfa9190613f0b565b901c90505b60006004831614611e2d5760806ffff2e50f5f656932ef12357cf3c7fdcc82611e289190613f0b565b901c90505b60006008831614611e5b5760806fffe5caca7e10e4e61c3624eaa0941cd082611e569190613f0b565b901c90505b60006010831614611e895760806fffcb9843d60f6159c9db58835c92664482611e849190613f0b565b901c90505b60006020831614611eb75760806fff973b41fa98c081472e6896dfb254c082611eb29190613f0b565b901c90505b60006040831614611ee55760806fff2ea16466c96a3843ec78b326b5286182611ee09190613f0b565b901c90505b60006080831614611f135760806ffe5dee046a99a2a811c461f1969c305382611f0e9190613f0b565b901c90505b6000610100831614611f425760806ffcbe86c7900a88aedcffc83b479aa3a482611f3d9190613f0b565b901c90505b6000610200831614611f715760806ff987a7253ac413176f2b074cf7815e5482611f6c9190613f0b565b901c90505b6000610400831614611fa05760806ff3392b0822b70005940c7a398e4b70f382611f9b9190613f0b565b901c90505b6000610800831614611fcf5760806fe7159475a2c29b7443b29c7fa6e889d982611fca9190613f0b565b901c90505b6000611000831614611ffe5760806fd097f3bdfd2022b8845ad8f792aa582582611ff99190613f0b565b901c90505b600061200083161461202d5760806fa9f746462d870fdf8a65dc1f90e061e5826120289190613f0b565b901c90505b600061400083161461205c5760806f70d869a156d2a1b890bb3df62baf32f7826120579190613f0b565b901c90505b600061800083161461208b5760806f31be135f97d08fd981231505542fcfa6826120869190613f0b565b901c90505b6000620100008316146120bb5760806f09aa508b5b7a84e1c677de54f3e99bc9826120b69190613f0b565b901c90505b6000620200008316146120ea5760806e5d6af8dedb81196699c329225ee604826120e59190613f0b565b901c90505b6000620400008316146121185760806d2216e584f5fa1ea926041bedfe98826121139190613f0b565b901c90505b6000620800008316146121445760806b048a170391f7dc42444e8fa28261213f9190613f0b565b901c90505b60008460020b131561217f57807fffffffffffffffffffffffffffffffffffffffffffffffffffffffffffffffff61217c9190613f4d565b90505b6000640100000000826121929190613f7e565b1461219e5760016121a1565b60005b60ff16602082901c6121b39190613942565b92505050919050565b60008273ffffffffffffffffffffffffffffffffffffffff168473ffffffffffffffffffffffffffffffffffffffff1611156121fd57828480945081955050505b60008473ffffffffffffffffffffffffffffffffffffffff161161222057600080fd5b61229a61227e606060ff16846fffffffffffffffffffffffffffffffff16901b868661224c9190613faf565b73ffffffffffffffffffffffffffffffffffffffff168673ffffffffffffffffffffffffffffffffffffffff16612bad565b8573ffffffffffffffffffffffffffffffffffffffff16612c18565b90509392505050565b60008273ffffffffffffffffffffffffffffffffffffffff168473ffffffffffffffffffffffffffffffffffffffff1611156122e457828480945081955050505b61232f826fffffffffffffffffffffffffffffffff1685856123069190613faf565b73ffffffffffffffffffffffffffffffffffffffff166c01000000000000000000000000612bad565b90509392505050565b60008082600f0b1215612361578161234f90613ac0565b8361235a9190613ff7565b9050612370565b818361236d9190613e4a565b90505b92915050565b60007f000000000000000000000000000000000000000000000000000000000000000073ffffffffffffffffffffffffffffffffffffffff166370a08231306040518263ffffffff1660e01b81526004016123d191906131f0565b602060405180830381865afa1580156123ee573d6000803e3d6000fd5b505050506040513d601f19601f8201168201806040525081019061241291906139d0565b905090565b60007f000000000000000000000000000000000000000000000000000000000000000073ffffffffffffffffffffffffffffffffffffffff166370a08231306040518263ffffffff1660e01b815260040161247291906131f0565b602060405180830381865afa15801561248f573d6000803e3d6000fd5b505050506040513d601f19601f820116820180604052508101906124b391906139d0565b905090565b600080600084866124c99190613d25565b905060008660020b1280156124ed5750600085876124e79190613cf4565b60020b14155b156125015780806124fd9061403b565b9150505b83156125c45760008061251383612b8b565b9150915060008160ff166001901b60018360ff166001901b6125359190613a8c565b61253f9190613942565b90506000818b60008660010b60010b815260200190815260200160002054169050600081141595508561258b57888360ff168661257c9190613b08565b6125869190614083565b6125b9565b8861259582612c2b565b846125a091906140cd565b60ff16866125ae9190613b08565b6125b89190614083565b5b96505050505061269c565b6000806125dc6001846125d79190614102565b612b8b565b91509150600060018260ff166001901b6125f69190613a8c565b1990506000818b60008660010b60010b815260200190815260200160002054169050600081141595508561265b57888360ff61263291906140cd565b60ff166001876126429190614102565b61264c9190614102565b6126569190614083565b612695565b888361266683612d4e565b61267091906140cd565b60ff166001876126809190614102565b61268a9190614102565b6126949190614083565b5b9650505050505b5094509492505050565b6000806000808673ffffffffffffffffffffffffffffffffffffffff168873ffffffffffffffffffffffffffffffffffffffff1610159050806126f3576126ee8888886122a3565b6126ff565b6126fe8888886121bc565b5b92508285106127105786935061271f565b61271c88878784612ebd565b93505b61272a8885886121bc565b92506127378885886122a3565b91508061274957818380935081945050505b509450945094915050565b6000808360008460020b60020b815260200190815260200160002090508060010160009054906101000a9004600f0b91505092915050565b60006401000276a373ffffffffffffffffffffffffffffffffffffffff168273ffffffffffffffffffffffffffffffffffffffff161015801561280e575073fffd8963efd1fc6a506488495d951d5263988d2673ffffffffffffffffffffffffffffffffffffffff168273ffffffffffffffffffffffffffffffffffffffff16105b61284d576040517f08c379a0000000000000000000000000000000000000000000000000000000008152600401612844906141a9565b60405180910390fd5b600060208373ffffffffffffffffffffffffffffffffffffffff16901b9050600081905060006fffffffffffffffffffffffffffffffff821160071b808217915082811c92505067ffffffffffffffff821160061b808217915082811c92505063ffffffff821160051b808217915082811c92505061ffff821160041b808217915082811c92505060ff821160031b808217915082811c925050600f821160021b808217915082811c9250506003821160011b808217915082811c925050600182118082179150506080811061293457607f8161292a9190613a8c565b83901c9150612947565b80607f6129419190613a8c565b83901b91505b600060406080836129589190613c82565b901b9050828302607f1c92508260801c80603f1b8217915083811c935050828302607f1c92508260801c80603e1b8217915083811c935050828302607f1c92508260801c80603d1b8217915083811c935050828302607f1c92508260801c80603c1b8217915083811c935050828302607f1c92508260801c80603b1b8217915083811c935050828302607f1c92508260801c80603a1b8217915083811c935050828302607f1c92508260801c8060391b8217915083811c935050828302607f1c92508260801c8060381b8217915083811c935050828302607f1c92508260801c8060371b8217915083811c935050828302607f1c92508260801c8060361b8217915083811c935050828302607f1c92508260801c8060351b8217915083811c935050828302607f1c92508260801c8060341b8217915083811c935050828302607f1c92508260801c8060331b8217915083811c935050828302607f1c92508260801c8060321b82179150506000693627a301d71055774c8582612adb91906141c9565b9050600060806f028f6481ab7f045a5af012a19d003aaa83612afd9190613c82565b901d9050600060806fdb2df09e81959a81455e260799a0632f84612b219190613c3e565b901d90508060020b8260020b14612b7b578873ffffffffffffffffffffffffffffffffffffffff16612b5282611cef565b73ffffffffffffffffffffffffffffffffffffffff161115612b745781612b76565b805b612b7d565b815b975050505050505050919050565b60008060088360020b901d915061010083612ba69190613cf4565b9050915091565b6000612bba848484612eea565b905060008280612bcd57612bcc613cc5565b5b8486091115612c11577fffffffffffffffffffffffffffffffffffffffffffffffffffffffffffffffff8110612c0257600080fd5b8080612c0d90614241565b9150505b9392505050565b6000808284061182840401905092915050565b6000808211612c3957600080fd5b7001000000000000000000000000000000008210612c6857608082901c9150608081612c659190614289565b90505b680100000000000000008210612c8f57604082901c9150604081612c8c9190614289565b90505b6401000000008210612cb257602082901c9150602081612caf9190614289565b90505b620100008210612cd357601082901c9150601081612cd09190614289565b90505b6101008210612cf357600882901c9150600881612cf09190614289565b90505b60108210612d1257600482901c9150600481612d0f9190614289565b90505b60048210612d3157600282901c9150600281612d2e9190614289565b90505b60028210612d4957600181612d469190614289565b90505b919050565b6000808211612d5c57600080fd5b60ff905060006fffffffffffffffffffffffffffffffff801683161115612d9157608081612d8a91906140cd565b9050612d99565b608082901c91505b600067ffffffffffffffff801683161115612dc257604081612dbb91906140cd565b9050612dca565b604082901c91505b600063ffffffff801683161115612def57602081612de891906140cd565b9050612df7565b602082901c91505b600061ffff801683161115612e1a57601081612e1391906140cd565b9050612e22565b601082901c91505b600060ff801683161115612e4457600881612e3d91906140cd565b9050612e4c565b600882901c91505b6000600f83161115612e6c57600481612e6591906140cd565b9050612e74565b600482901c91505b6000600383161115612e9457600281612e8d91906140cd565b9050612e9c565b600282901c91505b6000600183161115612eb857600181612eb591906140cd565b90505b919050565b600081612ed457612ecf858585612fff565b612ee0565b612edf858585613055565b5b9050949350505050565b6000806000801985870985870292508281108382030391505060008103612f2557838281612f1b57612f1a613cc5565b5b0492505050612ff8565b838110612f6b5780846040517f773cc18c000000000000000000000000000000000000000000000000000000008152600401612f6292919061344b565b60405180910390fd5b60008486880990508281118203915080830392506000600186190186169050808604955080840493506001818260000304019050808302841793506000600287600302189050808702600203810290508087026002038102905080870260020381029050808702600203810290508087026002038102905080870260020381029050808502955050505050505b9392505050565b600061302b826c01000000000000000000000000856fffffffffffffffffffffffffffffffff16612eea565b8473ffffffffffffffffffffffffffffffffffffffff1661304c9190613942565b90509392505050565b600080606060ff16846fffffffffffffffffffffffffffffffff16901b905060008573ffffffffffffffffffffffffffffffffffffffff16846130989190613f0b565b90508573ffffffffffffffffffffffffffffffffffffffff1684826130bd9190613f4d565b0361310657600081836130d09190613942565b9050828110613104576130fa838873ffffffffffffffffffffffffffffffffffffffff1683612bad565b9350505050613141565b505b61313c82858873ffffffffffffffffffffffffffffffffffffffff168561312d9190613f4d565b6131379190613942565b612c18565b925050505b9392505050565b6040518060c00160405280600073ffffffffffffffffffffffffffffffffffffffff168152602001600060020b8152602001600015158152602001600073ffffffffffffffffffffffffffffffffffffffff16815260200160008152602001600081525090565b600073ffffffffffffffffffffffffffffffffffffffff82169050919050565b60006131da826131af565b9050919050565b6131ea816131cf565b82525050565b600060208201905061320560008301846131e1565b92915050565b60006fffffffffffffffffffffffffffffffff82169050919050565b6132308161320b565b82525050565b600060208201905061324b6000830184613227565b92915050565b61325a816131af565b82525050565b60008160020b9050919050565b61327681613260565b82525050565b60006040820190506132916000830185613251565b61329e602083018461326d565b9392505050565b600080fd5b600080fd5b6132b8816131cf565b81146132c357600080fd5b50565b6000813590506132d5816132af565b92915050565b6132e481613260565b81146132ef57600080fd5b50565b600081359050613301816132db565b92915050565b6133108161320b565b811461331b57600080fd5b50565b60008135905061332d81613307565b92915050565b600080fd5b600080fd5b600080fd5b60008083601f84011261335857613357613333565b5b8235905067ffffffffffffffff81111561337557613374613338565b5b6020830191508360018202830111156133915761339061333d565b5b9250929050565b60008060008060008060a087890312156133b5576133b46132a5565b5b60006133c389828a016132c6565b96505060206133d489828a016132f2565b95505060406133e589828a016132f2565b94505060606133f689828a0161331e565b935050608087013567ffffffffffffffff811115613417576134166132aa565b5b61342389828a01613342565b92509250509295509295509295565b6000819050919050565b61344581613432565b82525050565b6000604082019050613460600083018561343c565b61346d602083018461343c565b9392505050565b61347d81613432565b811461348857600080fd5b50565b60008135905061349a81613474565b92915050565b600080600080606085870312156134ba576134b96132a5565b5b60006134c88782880161348b565b94505060206134d98782880161348b565b935050604085013567ffffffffffffffff8111156134fa576134f96132aa565b5b61350687828801613342565b925092505092959194509250565b6000819050919050565b61352781613514565b811461353257600080fd5b50565b6000813590506135448161351e565b92915050565b6000602082840312156135605761355f6132a5565b5b600061356e84828501613535565b91505092915050565b60008160010b9050919050565b61358d81613577565b811461359857600080fd5b50565b6000813590506135aa81613584565b92915050565b6000602082840312156135c6576135c56132a5565b5b60006135d48482850161359b565b91505092915050565b60006020820190506135f2600083018461343c565b92915050565b600062ffffff82169050919050565b613610816135f8565b82525050565b600060208201905061362b6000830184613607565b92915050565b60008115159050919050565b61364681613631565b811461365157600080fd5b50565b6000813590506136638161363d565b92915050565b613672816131af565b811461367d57600080fd5b50565b60008135905061368f81613669565b92915050565b60008060008060008060a087890312156136b2576136b16132a5565b5b60006136c089828a016132c6565b96505060206136d189828a01613654565b95505060406136e289828a0161348b565b94505060606136f389828a01613680565b935050608087013567ffffffffffffffff811115613714576137136132aa565b5b61372089828a01613342565b92509250509295509295509295565b6000819050919050565b6137428161372f565b82525050565b600060408201905061375d6000830185613739565b61376a6020830184613739565b9392505050565b600060208284031215613787576137866132a5565b5b6000613795848285016132f2565b91505092915050565b6137a781613631565b82525050565b600081600f0b9050919050565b6137c3816137ad565b82525050565b60006060820190506137de600083018661379e565b6137eb6020830185613227565b6137f860408301846137ba565b949350505050565b600060208284031215613816576138156132a5565b5b600061382484828501613680565b91505092915050565b7f4e487b7100000000000000000000000000000000000000000000000000000000600052601160045260246000fd5b600061386782613260565b91507fffffffffffffffffffffffffffffffffffffffffffffffffffffffffff80000082036138995761389861382d565b5b816000039050919050565b600082825260208201905092915050565b82818337600083830152505050565b6000601f19601f8301169050919050565b60006138e183856138a4565b93506138ee8385846138b5565b6138f7836138c4565b840190509392505050565b6000606082019050613917600083018761343c565b613924602083018661343c565b81810360408301526139378184866138d5565b905095945050505050565b600061394d82613432565b915061395883613432565b92508282019050808211156139705761396f61382d565b5b92915050565b600060808201905061398b60008301876131e1565b6139986020830186613227565b6139a5604083018561343c565b6139b2606083018461343c565b95945050505050565b6000815190506139ca81613474565b92915050565b6000602082840312156139e6576139e56132a5565b5b60006139f4848285016139bb565b91505092915050565b6000604082019050613a1260008301856131e1565b613a1f602083018461343c565b9392505050565b600081519050613a358161363d565b92915050565b600060208284031215613a5157613a506132a5565b5b6000613a5f84828501613a26565b91505092915050565b60006020820190508181036000830152613a838184866138d5565b90509392505050565b6000613a9782613432565b9150613aa283613432565b9250828203905081811115613aba57613ab961382d565b5b92915050565b6000613acb826137ad565b91507fffffffffffffffffffffffffffffffff800000000000000000000000000000008203613afd57613afc61382d565b5b816000039050919050565b6000613b1382613260565b9150613b1e83613260565b92508282039050627fffff81137fffffffffffffffffffffffffffffffffffffffffffffffffffffffffff80000082121715613b5d57613b5c61382d565b5b92915050565b6000613b6e8261372f565b91507f80000000000000000000000000000000000000000000000000000000000000008203613ba057613b9f61382d565b5b816000039050919050565b6000606082019050613bc06000830187613739565b613bcd6020830186613739565b8181036040830152613be08184866138d5565b905095945050505050565b600060a082019050613c006000830188613739565b613c0d6020830187613739565b613c1a6040830186613251565b613c276060830185613227565b613c34608083018461326d565b9695505050505050565b6000613c498261372f565b9150613c548361372f565b925082820190508281121560008312168382126000841215161715613c7c57613c7b61382d565b5b92915050565b6000613c8d8261372f565b9150613c988361372f565b9250828203905081811260008412168282136000851215161715613cbf57613cbe61382d565b5b92915050565b7f4e487b7100000000000000000000000000000000000000000000000000000000600052601260045260246000fd5b6000613cff82613260565b9150613d0a83613260565b925082613d1a57613d19613cc5565b5b828207905092915050565b6000613d3082613260565b9150613d3b83613260565b925082613d4b57613d4a613cc5565b5b600160000383147fffffffffffffffffffffffffffffffffffffffffffffffffffffffffff80000083141615613d8457613d8361382d565b5b828205905092915050565b60008160601b9050919050565b6000613da782613d8f565b9050919050565b6000613db982613d9c565b9050919050565b613dd1613dcc826131cf565b613dae565b82525050565b60008160e81b9050919050565b6000613def82613dd7565b9050919050565b613e07613e0282613260565b613de4565b82525050565b6000613e198286613dc0565b601482019150613e298285613df6565b600382019150613e398284613df6565b600382019150819050949350505050565b6000613e558261320b565b9150613e608361320b565b925082820190506fffffffffffffffffffffffffffffffff811115613e8857613e8761382d565b5b92915050565b600082825260208201905092915050565b7f5400000000000000000000000000000000000000000000000000000000000000600082015250565b6000613ed5600183613e8e565b9150613ee082613e9f565b602082019050919050565b60006020820190508181036000830152613f0481613ec8565b9050919050565b6000613f1682613432565b9150613f2183613432565b9250828202613f2f81613432565b91508282048414831517613f4657613f4561382d565b5b5092915050565b6000613f5882613432565b9150613f6383613432565b925082613f7357613f72613cc5565b5b828204905092915050565b6000613f8982613432565b9150613f9483613432565b925082613fa457613fa3613cc5565b5b828206905092915050565b6000613fba826131af565b9150613fc5836131af565b9250828203905073ffffffffffffffffffffffffffffffffffffffff811115613ff157613ff061382d565b5b92915050565b60006140028261320b565b915061400d8361320b565b925082820390506fffffffffffffffffffffffffffffffff8111156140355761403461382d565b5b92915050565b600061404682613260565b91507fffffffffffffffffffffffffffffffffffffffffffffffffffffffffff80000082036140785761407761382d565b5b600182039050919050565b600061408e82613260565b915061409983613260565b92508282026140a781613260565b91508082146140b9576140b861382d565b5b5092915050565b600060ff82169050919050565b60006140d8826140c0565b91506140e3836140c0565b9250828203905060ff8111156140fc576140fb61382d565b5b92915050565b600061410d82613260565b915061411883613260565b925082820190507fffffffffffffffffffffffffffffffffffffffffffffffffffffffffff8000008112627fffff821317156141575761415661382d565b5b92915050565b7f5200000000000000000000000000000000000000000000000000000000000000600082015250565b6000614193600183613e8e565b915061419e8261415d565b602082019050919050565b600060208201905081810360008301526141c281614186565b9050919050565b60006141d48261372f565b91506141df8361372f565b92508282026141ed8161372f565b91507f800000000000000000000000000000000000000000000000000000000000000084146000841216156142255761422461382d565b5b828205841483151761423a5761423961382d565b5b5092915050565b600061424c82613432565b91507fffffffffffffffffffffffffffffffffffffffffffffffffffffffffffffffff820361427e5761427d61382d565b5b600182019050919050565b6000614294826140c0565b915061429f836140c0565b9250828201905060ff8111156142b8576142b761382d565b5b9291505056fea2646970667358221220f48f7cab6390ed14ce45015e8a01767f5376a4283a49b9f17d071d88ade9fd3664736f6c634300081a0033",
			"opcodes": "PUSH2 0x100 PUSH1 0x40 MSTORE CALLVALUE DUP1 ISZERO PUSH2 0x11 JUMPI PUSH1 0x0 DUP1 REVERT JUMPDEST POP CALLER PUSH20 0xFFFFFFFFFFFFFFFFFFFFFFFFFFFFFFFFFFFFFFFF AND PUSH4 0x89035730 PUSH1 0x40 MLOAD DUP2 PUSH4 0xFFFFFFFF AND PUSH1 0xE0 SHL DUP2 MSTORE PUSH1 0x4 ADD PUSH1 0x80 PUSH1 0x40 MLOAD DUP1 DUP4 SUB DUP2 PUSH1 0x0 DUP8 GAS CALL ISZERO DUP1 ISZERO PUSH2 0x5F JUMPI RETURNDATASIZE PUSH1 0x0 DUP1 RETURNDATACOPY RETURNDATASIZE PUSH1 0x0 REVERT JUMPDEST POP POP POP POP PUSH1 0x40 MLOAD RETURNDATASIZE PUSH1 0x1F NOT PUSH1 0x1F DUP3 ADD AND DUP3 ADD DUP1 PUSH1 0x40 MSTORE POP DUP2 ADD SWAP1 PUSH2 0x83 SWAP2 SWAP1 PUSH2 0x1D4 JUMP JUMPDEST DUP1 PUSH3 0xFFFFFF AND PUSH1 0xE0 SWAP1 PUSH3 0xFFFFFF AND DUP2 MSTORE POP DUP2 PUSH20 0xFFFFFFFFFFFFFFFFFFFFFFFFFFFFFFFFFFFFFFFF AND PUSH1 0xC0 SWAP1 PUSH20 0xFFFFFFFFFFFFFFFFFFFFFFFFFFFFFFFFFFFFFFFF AND DUP2 MSTORE POP DUP3 PUSH20 0xFFFFFFFFFFFFFFFFFFFFFFFFFFFFFFFFFFFFFFFF AND PUSH1 0xA0 SWAP1 PUSH20 0xFFFFFFFFFFFFFFFFFFFFFFFFFFFFFFFFFFFFFFFF AND DUP2 MSTORE POP DUP4 PUSH20 0xFFFFFFFFFFFFFFFFFFFFFFFFFFFFFFFFFFFFFFFF AND PUSH1 0x80 SWAP1 PUSH20 0xFFFFFFFFFFFFFFFFFFFFFFFFFFFFFFFFFFFFFFFF AND DUP2 MSTORE POP POP POP POP POP PUSH2 0x23B JUMP JUMPDEST PUSH1 0x0 DUP1 REVERT JUMPDEST PUSH1 0x0 PUSH20 0xFFFFFFFFFFFFFFFFFFFFFFFFFFFFFFFFFFFFFFFF DUP3 AND SWAP1 POP SWAP2 SWAP1 POP JUMP JUMPDEST PUSH1 0x0 PUSH2 0x166 DUP3 PUSH2 0x13B JUMP JUMPDEST SWAP1 POP SWAP2 SWAP1 POP JUMP JUMPDEST PUSH2 0x176 DUP2 PUSH2 0x15B JUMP JUMPDEST DUP2 EQ PUSH2 0x181 JUMPI PUSH1 0x0 DUP1 REVERT JUMPDEST POP JUMP JUMPDEST PUSH1 0x0 DUP2 MLOAD SWAP1 POP PUSH2 0x193 DUP2 PUSH2 0x16D JUMP JUMPDEST SWAP3 SWAP2 POP POP JUMP JUMPDEST PUSH1 0x0 PUSH3 0xFFFFFF DUP3 AND SWAP1 POP SWAP2 SWAP1 POP JUMP JUMPDEST PUSH2 0x1B1 DUP2 PUSH2 0x199 JUMP JUMPDEST DUP2 EQ PUSH2 0x1BC JUMPI PUSH1 0x0 DUP1 REVERT JUMPDEST POP JUMP JUMPDEST PUSH1 0x0 DUP2 MLOAD SWAP1 POP PUSH2 0x1CE DUP2 PUSH2 0x1A8 JUMP JUMPDEST SWAP3 SWAP2 POP POP JUMP JUMPDEST PUSH1 0x0 DUP1 PUSH1 0x0 DUP1 PUSH1 0x80 DUP6 DUP8 SUB SLT ISZERO PUSH2 0x1EE JUMPI PUSH2 0x1ED PUSH2 0x136 JUMP JUMPDEST JUMPDEST PUSH1 0x0 PUSH2 0x1FC DUP8 DUP3 DUP9 ADD PUSH2 0x184 JUMP JUMPDEST SWAP5 POP POP PUSH1 0x20 PUSH2 0x20D DUP8 DUP3 DUP9 ADD PUSH2 0x184 JUMP JUMPDEST SWAP4 POP POP PUSH1 0x40 PUSH2 0x21E DUP8 DUP3 DUP9 ADD PUSH2 0x184 JUMP JUMPDEST SWAP3 POP POP PUSH1 0x60 PUSH2 0x22F DUP8 DUP3 DUP9 ADD PUSH2 0x1BF JUMP JUMPDEST SWAP2 POP POP SWAP3 SWAP6 SWAP2 SWAP5 POP SWAP3 POP JUMP JUMPDEST PUSH1 0x80 MLOAD PUSH1 0xA0 MLOAD PUSH1 0xC0 MLOAD PUSH1 0xE0 MLOAD PUSH2 0x42F4 PUSH2 0x2CF PUSH1 0x0 CODECOPY PUSH1 0x0 DUP2 DUP2 PUSH2 0x479 ADD MSTORE DUP2 DUP2 PUSH2 0x4B6 ADD MSTORE DUP2 DUP2 PUSH2 0xD65 ADD MSTORE PUSH2 0x1078 ADD MSTORE PUSH1 0x0 DUP2 DUP2 PUSH2 0x8F0 ADD MSTORE DUP2 DUP2 PUSH2 0xA3E ADD MSTORE DUP2 DUP2 PUSH2 0xBF2 ADD MSTORE DUP2 DUP2 PUSH2 0xD89 ADD MSTORE DUP2 DUP2 PUSH2 0x150F ADD MSTORE PUSH2 0x241B ADD MSTORE PUSH1 0x0 DUP2 DUP2 PUSH2 0x2B7 ADD MSTORE DUP2 DUP2 PUSH2 0x852 ADD MSTORE DUP2 DUP2 PUSH2 0x995 ADD MSTORE DUP2 DUP2 PUSH2 0xB4C ADD MSTORE DUP2 DUP2 PUSH2 0x1686 ADD MSTORE PUSH2 0x237A ADD MSTORE PUSH1 0x0 PUSH2 0xD41 ADD MSTORE PUSH2 0x42F4 PUSH1 0x0 RETURN INVALID PUSH1 0x80 PUSH1 0x40 MSTORE CALLVALUE DUP1 ISZERO PUSH2 0x10 JUMPI PUSH1 0x0 DUP1 REVERT JUMPDEST POP PUSH1 0x4 CALLDATASIZE LT PUSH2 0xCF JUMPI PUSH1 0x0 CALLDATALOAD PUSH1 0xE0 SHR DUP1 PUSH4 0x5339C296 GT PUSH2 0x8C JUMPI DUP1 PUSH4 0xD21220A7 GT PUSH2 0x66 JUMPI DUP1 PUSH4 0xD21220A7 EQ PUSH2 0x218 JUMPI DUP1 PUSH4 0xDD5A12D8 EQ PUSH2 0x236 JUMPI DUP1 PUSH4 0xF30DBA93 EQ PUSH2 0x267 JUMPI DUP1 PUSH4 0xF637731D EQ PUSH2 0x299 JUMPI PUSH2 0xCF JUMP JUMPDEST DUP1 PUSH4 0x5339C296 EQ PUSH2 0x1AC JUMPI DUP1 PUSH4 0xC45A0155 EQ PUSH2 0x1DC JUMPI DUP1 PUSH4 0xD0C93A7C EQ PUSH2 0x1FA JUMPI PUSH2 0xCF JUMP JUMPDEST DUP1 PUSH4 0xDFE1681 EQ PUSH2 0xD4 JUMPI DUP1 PUSH4 0x1A686502 EQ PUSH2 0xF2 JUMPI DUP1 PUSH4 0x3850C7BD EQ PUSH2 0x110 JUMPI DUP1 PUSH4 0x3C8A7D8D EQ PUSH2 0x12F JUMPI DUP1 PUSH4 0x4A182392 EQ PUSH2 0x160 JUMPI DUP1 PUSH4 0x514EA4BF EQ PUSH2 0x17C JUMPI JUMPDEST PUSH1 0x0 DUP1 REVERT JUMPDEST PUSH2 0xDC PUSH2 0x2B5 JUMP JUMPDEST PUSH1 0x40 MLOAD PUSH2 0xE9 SWAP2 SWAP1 PUSH2 0x31F0 JUMP JUMPDEST PUSH1 0x40 MLOAD DUP1 SWAP2 SUB SWAP1 RETURN JUMPDEST PUSH2 0xFA PUSH2 0x2D9 JUMP JUMPDEST PUSH1 0x40 MLOAD PUSH2 0x107 SWAP2 SWAP1 PUSH2 0x3236 JUMP JUMPDEST PUSH1 0x40 MLOAD DUP1 SWAP2 SUB SWAP1 RETURN JUMPDEST PUSH2 0x118 PUSH2 0x2FB JUMP JUMPDEST PUSH1 0x40 MLOAD PUSH2 0x126 SWAP3 SWAP2 SWAP1 PUSH2 0x327C JUMP JUMPDEST PUSH1 0x40 MLOAD DUP1 SWAP2 SUB SWAP1 RETURN JUMPDEST PUSH2 0x149 PUSH1 0x4 DUP1 CALLDATASIZE SUB DUP2 ADD SWAP1 PUSH2 0x144 SWAP2 SWAP1 PUSH2 0x3398 JUMP JUMPDEST PUSH2 0x33A JUMP JUMPDEST PUSH1 0x40 MLOAD PUSH2 0x157 SWAP3 SWAP2 SWAP1 PUSH2 0x344B JUMP JUMPDEST PUSH1 0x40 MLOAD DUP1 SWAP2 SUB SWAP1 RETURN JUMPDEST PUSH2 0x17A PUSH1 0x4 DUP1 CALLDATASIZE SUB DUP2 ADD SWAP1 PUSH2 0x175 SWAP2 SWAP1 PUSH2 0x34A0 JUMP JUMPDEST PUSH2 0x84E JUMP JUMPDEST STOP JUMPDEST PUSH2 0x196 PUSH1 0x4 DUP1 CALLDATASIZE SUB DUP2 ADD SWAP1 PUSH2 0x191 SWAP2 SWAP1 PUSH2 0x354A JUMP JUMPDEST PUSH2 0xCED JUMP JUMPDEST PUSH1 0x40 MLOAD PUSH2 0x1A3 SWAP2 SWAP1 PUSH2 0x3236 JUMP JUMPDEST PUSH1 0x40 MLOAD DUP1 SWAP2 SUB SWAP1 RETURN JUMPDEST PUSH2 0x1C6 PUSH1 0x4 DUP1 CALLDATASIZE SUB DUP2 ADD SWAP1 PUSH2 0x1C1 SWAP2 SWAP1 PUSH2 0x35B0 JUMP JUMPDEST PUSH2 0xD27 JUMP JUMPDEST PUSH1 0x40 MLOAD PUSH2 0x1D3 SWAP2 SWAP1 PUSH2 0x35DD JUMP JUMPDEST PUSH1 0x40 MLOAD DUP1 SWAP2 SUB SWAP1 RETURN JUMPDEST PUSH2 0x1E4 PUSH2 0xD3F JUMP JUMPDEST PUSH1 0x40 MLOAD PUSH2 0x1F1 SWAP2 SWAP1 PUSH2 0x31F0 JUMP JUMPDEST PUSH1 0x40 MLOAD DUP1 SWAP2 SUB SWAP1 RETURN JUMPDEST PUSH2 0x202 PUSH2 0xD63 JUMP JUMPDEST PUSH1 0x40 MLOAD PUSH2 0x20F SWAP2 SWAP1 PUSH2 0x3616 JUMP JUMPDEST PUSH1 0x40 MLOAD DUP1 SWAP2 SUB SWAP1 RETURN JUMPDEST PUSH2 0x220 PUSH2 0xD87 JUMP JUMPDEST PUSH1 0x40 MLOAD PUSH2 0x22D SWAP2 SWAP1 PUSH2 0x31F0 JUMP JUMPDEST PUSH1 0x40 MLOAD DUP1 SWAP2 SUB SWAP1 RETURN JUMPDEST PUSH2 0x250 PUSH1 0x4 DUP1 CALLDATASIZE SUB DUP2 ADD SWAP1 PUSH2 0x24B SWAP2 SWAP1 PUSH2 0x3695 JUMP JUMPDEST PUSH2 0xDAB JUMP JUMPDEST PUSH1 0x40 MLOAD PUSH2 0x25E SWAP3 SWAP2 SWAP1 PUSH2 0x3748 JUMP JUMPDEST PUSH1 0x40 MLOAD DUP1 SWAP2 SUB SWAP1 RETURN JUMPDEST PUSH2 0x281 PUSH1 0x4 DUP1 CALLDATASIZE SUB DUP2 ADD SWAP1 PUSH2 0x27C SWAP2 SWAP1 PUSH2 0x3771 JUMP JUMPDEST PUSH2 0x18AB JUMP JUMPDEST PUSH1 0x40 MLOAD PUSH2 0x290 SWAP4 SWAP3 SWAP2 SWAP1 PUSH2 0x37C9 JUMP JUMPDEST PUSH1 0x40 MLOAD DUP1 SWAP2 SUB SWAP1 RETURN JUMPDEST PUSH2 0x2B3 PUSH1 0x4 DUP1 CALLDATASIZE SUB DUP2 ADD SWAP1 PUSH2 0x2AE SWAP2 SWAP1 PUSH2 0x3800 JUMP JUMPDEST PUSH2 0x190B JUMP JUMPDEST STOP JUMPDEST PUSH32 0x0 DUP2 JUMP JUMPDEST PUSH1 0x1 PUSH1 0x0 SWAP1 SLOAD SWAP1 PUSH2 0x100 EXP SWAP1 DIV PUSH16 0xFFFFFFFFFFFFFFFFFFFFFFFFFFFFFFFF AND DUP2 JUMP JUMPDEST PUSH1 0x0 DUP1 PUSH1 0x0 ADD PUSH1 0x0 SWAP1 SLOAD SWAP1 PUSH2 0x100 EXP SWAP1 DIV PUSH20 0xFFFFFFFFFFFFFFFFFFFFFFFFFFFFFFFFFFFFFFFF AND SWAP1 DUP1 PUSH1 0x0 ADD PUSH1 0x14 SWAP1 SLOAD SWAP1 PUSH2 0x100 EXP SWAP1 DIV PUSH1 0x2 SIGNEXTEND SWAP1 POP DUP3 JUMP JUMPDEST PUSH1 0x0 DUP1 DUP6 PUSH1 0x2 SIGNEXTEND DUP8 PUSH1 0x2 SIGNEXTEND SLT ISZERO DUP1 PUSH2 0x377 JUMPI POP PUSH32 0xFFFFFFFFFFFFFFFFFFFFFFFFFFFFFFFFFFFFFFFFFFFFFFFFFFFFFFFFFFF27618 PUSH1 0x2 SIGNEXTEND DUP8 PUSH1 0x2 SIGNEXTEND SLT JUMPDEST DUP1 PUSH2 0x3B0 JUMPI POP PUSH32 0xFFFFFFFFFFFFFFFFFFFFFFFFFFFFFFFFFFFFFFFFFFFFFFFFFFFFFFFFFFF27618 PUSH2 0x3A7 SWAP1 PUSH2 0x385C JUMP JUMPDEST PUSH1 0x2 SIGNEXTEND DUP7 PUSH1 0x2 SIGNEXTEND SGT JUMPDEST ISZERO PUSH2 0x3E7 JUMPI PUSH1 0x40 MLOAD PUSH32 0x64847D000000000000000000000000000000000000000000000000000000000 DUP2 MSTORE PUSH1 0x4 ADD PUSH1 0x40 MLOAD DUP1 SWAP2 SUB SWAP1 REVERT JUMPDEST PUSH1 0x0 DUP6 PUSH16 0xFFFFFFFFFFFFFFFFFFFFFFFFFFFFFFFF AND SUB PUSH2 0x433 JUMPI PUSH1 0x40 MLOAD PUSH32 0x1007454800000000000000000000000000000000000000000000000000000000 DUP2 MSTORE PUSH1 0x4 ADD PUSH1 0x40 MLOAD DUP1 SWAP2 SUB SWAP1 REVERT JUMPDEST PUSH1 0x0 PUSH2 0x44E DUP9 DUP8 PUSH1 0x0 PUSH1 0x2 PUSH2 0x1A31 SWAP1 SWAP4 SWAP3 SWAP2 SWAP1 PUSH4 0xFFFFFFFF AND JUMP JUMPDEST SWAP1 POP PUSH1 0x0 PUSH2 0x46B DUP9 DUP9 PUSH1 0x1 PUSH1 0x2 PUSH2 0x1A31 SWAP1 SWAP4 SWAP3 SWAP2 SWAP1 PUSH4 0xFFFFFFFF AND JUMP JUMPDEST SWAP1 POP DUP2 ISZERO PUSH2 0x4AA JUMPI PUSH2 0x4A9 DUP10 PUSH32 0x0 PUSH1 0x3 PUSH2 0x1BC1 SWAP1 SWAP3 SWAP2 SWAP1 PUSH4 0xFFFFFFFF AND JUMP JUMPDEST JUMPDEST DUP1 ISZERO PUSH2 0x4E7 JUMPI PUSH2 0x4E6 DUP9 PUSH32 0x0 PUSH1 0x3 PUSH2 0x1BC1 SWAP1 SWAP3 SWAP2 SWAP1 PUSH4 0xFFFFFFFF AND JUMP JUMPDEST JUMPDEST PUSH1 0x0 PUSH2 0x501 DUP12 DUP12 DUP12 PUSH1 0x4 PUSH2 0x1C31 SWAP1 SWAP4 SWAP3 SWAP2 SWAP1 PUSH4 0xFFFFFFFF AND JUMP JUMPDEST SWAP1 POP PUSH2 0x516 DUP9 DUP3 PUSH2 0x1C79 SWAP1 SWAP2 SWAP1 PUSH4 0xFFFFFFFF AND JUMP JUMPDEST PUSH1 0x0 DUP1 PUSH1 0x40 MLOAD DUP1 PUSH1 0x40 ADD PUSH1 0x40 MSTORE SWAP1 DUP2 PUSH1 0x0 DUP3 ADD PUSH1 0x0 SWAP1 SLOAD SWAP1 PUSH2 0x100 EXP SWAP1 DIV PUSH20 0xFFFFFFFFFFFFFFFFFFFFFFFFFFFFFFFFFFFFFFFF AND PUSH20 0xFFFFFFFFFFFFFFFFFFFFFFFFFFFFFFFFFFFFFFFF AND PUSH20 0xFFFFFFFFFFFFFFFFFFFFFFFFFFFFFFFFFFFFFFFF AND DUP2 MSTORE PUSH1 0x20 ADD PUSH1 0x0 DUP3 ADD PUSH1 0x14 SWAP1 SLOAD SWAP1 PUSH2 0x100 EXP SWAP1 DIV PUSH1 0x2 SIGNEXTEND PUSH1 0x2 SIGNEXTEND PUSH1 0x2 SIGNEXTEND DUP2 MSTORE POP POP SWAP1 POP DUP11 PUSH1 0x2 SIGNEXTEND DUP2 PUSH1 0x20 ADD MLOAD PUSH1 0x2 SIGNEXTEND SLT ISZERO PUSH2 0x5CD JUMPI PUSH2 0x5C6 PUSH2 0x5B7 DUP13 PUSH2 0x1CEF JUMP JUMPDEST PUSH2 0x5C0 DUP13 PUSH2 0x1CEF JUMP JUMPDEST DUP12 PUSH2 0x21BC JUMP JUMPDEST SWAP6 POP PUSH2 0x695 JUMP JUMPDEST DUP10 PUSH1 0x2 SIGNEXTEND DUP2 PUSH1 0x20 ADD MLOAD PUSH1 0x2 SIGNEXTEND SLT ISZERO PUSH2 0x676 JUMPI PUSH2 0x5F6 DUP2 PUSH1 0x0 ADD MLOAD PUSH2 0x5F0 DUP13 PUSH2 0x1CEF JUMP JUMPDEST DUP12 PUSH2 0x21BC JUMP JUMPDEST SWAP6 POP PUSH2 0x60F DUP2 PUSH1 0x0 ADD MLOAD PUSH2 0x609 DUP14 PUSH2 0x1CEF JUMP JUMPDEST DUP12 PUSH2 0x22A3 JUMP JUMPDEST SWAP5 POP PUSH2 0x639 PUSH1 0x1 PUSH1 0x0 SWAP1 SLOAD SWAP1 PUSH2 0x100 EXP SWAP1 DIV PUSH16 0xFFFFFFFFFFFFFFFFFFFFFFFFFFFFFFFF AND DUP11 PUSH2 0x2338 JUMP JUMPDEST PUSH1 0x1 PUSH1 0x0 PUSH2 0x100 EXP DUP2 SLOAD DUP2 PUSH16 0xFFFFFFFFFFFFFFFFFFFFFFFFFFFFFFFF MUL NOT AND SWAP1 DUP4 PUSH16 0xFFFFFFFFFFFFFFFFFFFFFFFFFFFFFFFF AND MUL OR SWAP1 SSTORE POP PUSH2 0x694 JUMP JUMPDEST PUSH2 0x691 PUSH2 0x682 DUP13 PUSH2 0x1CEF JUMP JUMPDEST PUSH2 0x68B DUP13 PUSH2 0x1CEF JUMP JUMPDEST DUP12 PUSH2 0x22A3 JUMP JUMPDEST SWAP5 POP JUMPDEST JUMPDEST PUSH1 0x0 DUP1 PUSH1 0x0 DUP9 GT ISZERO PUSH2 0x6AC JUMPI PUSH2 0x6A9 PUSH2 0x2376 JUMP JUMPDEST SWAP2 POP JUMPDEST PUSH1 0x0 DUP8 GT ISZERO PUSH2 0x6C0 JUMPI PUSH2 0x6BD PUSH2 0x2417 JUMP JUMPDEST SWAP1 POP JUMPDEST CALLER PUSH20 0xFFFFFFFFFFFFFFFFFFFFFFFFFFFFFFFFFFFFFFFF AND PUSH4 0xD3487997 DUP10 DUP10 DUP14 DUP14 PUSH1 0x40 MLOAD DUP6 PUSH4 0xFFFFFFFF AND PUSH1 0xE0 SHL DUP2 MSTORE PUSH1 0x4 ADD PUSH2 0x6FF SWAP5 SWAP4 SWAP3 SWAP2 SWAP1 PUSH2 0x3902 JUMP JUMPDEST PUSH1 0x0 PUSH1 0x40 MLOAD DUP1 DUP4 SUB DUP2 PUSH1 0x0 DUP8 DUP1 EXTCODESIZE ISZERO DUP1 ISZERO PUSH2 0x719 JUMPI PUSH1 0x0 DUP1 REVERT JUMPDEST POP GAS CALL ISZERO DUP1 ISZERO PUSH2 0x72D JUMPI RETURNDATASIZE PUSH1 0x0 DUP1 RETURNDATACOPY RETURNDATASIZE PUSH1 0x0 REVERT JUMPDEST POP POP POP POP PUSH1 0x0 DUP9 GT DUP1 ISZERO PUSH2 0x752 JUMPI POP PUSH2 0x744 PUSH2 0x2376 JUMP JUMPDEST DUP9 DUP4 PUSH2 0x750 SWAP2 SWAP1 PUSH2 0x3942 JUMP JUMPDEST GT JUMPDEST ISZERO PUSH2 0x789 JUMPI PUSH1 0x40 MLOAD PUSH32 0x98FB56100000000000000000000000000000000000000000000000000000000 DUP2 MSTORE PUSH1 0x4 ADD PUSH1 0x40 MLOAD DUP1 SWAP2 SUB SWAP1 REVERT JUMPDEST PUSH1 0x0 DUP8 GT DUP1 ISZERO PUSH2 0x7AA JUMPI POP PUSH2 0x79C PUSH2 0x2417 JUMP JUMPDEST DUP8 DUP3 PUSH2 0x7A8 SWAP2 SWAP1 PUSH2 0x3942 JUMP JUMPDEST GT JUMPDEST ISZERO PUSH2 0x7E1 JUMPI PUSH1 0x40 MLOAD PUSH32 0x98FB56100000000000000000000000000000000000000000000000000000000 DUP2 MSTORE PUSH1 0x4 ADD PUSH1 0x40 MLOAD DUP1 SWAP2 SUB SWAP1 REVERT JUMPDEST DUP12 PUSH1 0x2 SIGNEXTEND DUP14 PUSH1 0x2 SIGNEXTEND DUP16 PUSH20 0xFFFFFFFFFFFFFFFFFFFFFFFFFFFFFFFFFFFFFFFF AND PUSH32 0x7A53080BA414158BE7EC69B987B5FB7D07DEE101FE85488F0853AE16239D0BDE CALLER DUP16 DUP14 DUP14 PUSH1 0x40 MLOAD PUSH2 0x835 SWAP5 SWAP4 SWAP3 SWAP2 SWAP1 PUSH2 0x3976 JUMP JUMPDEST PUSH1 0x40 MLOAD DUP1 SWAP2 SUB SWAP1 LOG4 POP POP POP POP POP POP SWAP7 POP SWAP7 SWAP5 POP POP POP POP POP JUMP JUMPDEST PUSH1 0x0 PUSH32 0x0 PUSH20 0xFFFFFFFFFFFFFFFFFFFFFFFFFFFFFFFFFFFFFFFF AND PUSH4 0x70A08231 ADDRESS PUSH1 0x40 MLOAD DUP3 PUSH4 0xFFFFFFFF AND PUSH1 0xE0 SHL DUP2 MSTORE PUSH1 0x4 ADD PUSH2 0x8A9 SWAP2 SWAP1 PUSH2 0x31F0 JUMP JUMPDEST PUSH1 0x20 PUSH1 0x40 MLOAD DUP1 DUP4 SUB DUP2 DUP7 GAS STATICCALL ISZERO DUP1 ISZERO PUSH2 0x8C6 JUMPI RETURNDATASIZE PUSH1 0x0 DUP1 RETURNDATACOPY RETURNDATASIZE PUSH1 0x0 REVERT JUMPDEST POP POP POP POP PUSH1 0x40 MLOAD RETURNDATASIZE PUSH1 0x1F NOT PUSH1 0x1F DUP3 ADD AND DUP3 ADD DUP1 PUSH1 0x40 MSTORE POP DUP2 ADD SWAP1 PUSH2 0x8EA SWAP2 SWAP1 PUSH2 0x39D0 JUMP JUMPDEST SWAP1 POP PUSH1 0x0 PUSH32 0x0 PUSH20 0xFFFFFFFFFFFFFFFFFFFFFFFFFFFFFFFFFFFFFFFF AND PUSH4 0x70A08231 ADDRESS PUSH1 0x40 MLOAD DUP3 PUSH4 0xFFFFFFFF AND PUSH1 0xE0 SHL DUP2 MSTORE PUSH1 0x4 ADD PUSH2 0x947 SWAP2 SWAP1 PUSH2 0x31F0 JUMP JUMPDEST PUSH1 0x20 PUSH1 0x40 MLOAD DUP1 DUP4 SUB DUP2 DUP7 GAS STATICCALL ISZERO DUP1 ISZERO PUSH2 0x964 JUMPI RETURNDATASIZE PUSH1 0x0 DUP1 RETURNDATACOPY RETURNDATASIZE PUSH1 0x0 REVERT JUMPDEST POP POP POP POP PUSH1 0x40 MLOAD RETURNDATASIZE PUSH1 0x1F NOT PUSH1 0x1F DUP3 ADD AND DUP3 ADD DUP1 PUSH1 0x40 MSTORE POP DUP2 ADD SWAP1 PUSH2 0x988 SWAP2 SWAP1 PUSH2 0x39D0 JUMP JUMPDEST SWAP1 POP PUSH1 0x0 DUP7 GT ISZERO PUSH2 0xA33 JUMPI PUSH32 0x0 PUSH20 0xFFFFFFFFFFFFFFFFFFFFFFFFFFFFFFFFFFFFFFFF AND PUSH4 0xA9059CBB CALLER DUP9 PUSH1 0x40 MLOAD DUP4 PUSH4 0xFFFFFFFF AND PUSH1 0xE0 SHL DUP2 MSTORE PUSH1 0x4 ADD PUSH2 0x9EE SWAP3 SWAP2 SWAP1 PUSH2 0x39FD JUMP JUMPDEST PUSH1 0x20 PUSH1 0x40 MLOAD DUP1 DUP4 SUB DUP2 PUSH1 0x0 DUP8 GAS CALL ISZERO DUP1 ISZERO PUSH2 0xA0D JUMPI RETURNDATASIZE PUSH1 0x0 DUP1 RETURNDATACOPY RETURNDATASIZE PUSH1 0x0 REVERT JUMPDEST POP POP POP POP PUSH1 0x40 MLOAD RETURNDATASIZE PUSH1 0x1F NOT PUSH1 0x1F DUP3 ADD AND DUP3 ADD DUP1 PUSH1 0x40 MSTORE POP DUP2 ADD SWAP1 PUSH2 0xA31 SWAP2 SWAP1 PUSH2 0x3A3B JUMP JUMPDEST POP JUMPDEST PUSH1 0x0 DUP6 GT ISZERO PUSH2 0xADC JUMPI PUSH32 0x0 PUSH20 0xFFFFFFFFFFFFFFFFFFFFFFFFFFFFFFFFFFFFFFFF AND PUSH4 0xA9059CBB CALLER DUP8 PUSH1 0x40 MLOAD DUP4 PUSH4 0xFFFFFFFF AND PUSH1 0xE0 SHL DUP2 MSTORE PUSH1 0x4 ADD PUSH2 0xA97 SWAP3 SWAP2 SWAP1 PUSH2 0x39FD JUMP JUMPDEST PUSH1 0x20 PUSH1 0x40 MLOAD DUP1 DUP4 SUB DUP2 PUSH1 0x0 DUP8 GAS CALL ISZERO DUP1 ISZERO PUSH2 0xAB6 JUMPI RETURNDATASIZE PUSH1 0x0 DUP1 RETURNDATACOPY RETURNDATASIZE PUSH1 0x0 REVERT JUMPDEST POP POP POP POP PUSH1 0x40 MLOAD RETURNDATASIZE PUSH1 0x1F NOT PUSH1 0x1F DUP3 ADD AND DUP3 ADD DUP1 PUSH1 0x40 MSTORE POP DUP2 ADD SWAP1 PUSH2 0xADA SWAP2 SWAP1 PUSH2 0x3A3B JUMP JUMPDEST POP JUMPDEST CALLER PUSH20 0xFFFFFFFFFFFFFFFFFFFFFFFFFFFFFFFFFFFFFFFF AND PUSH4 0xE4C857CA DUP6 DUP6 PUSH1 0x40 MLOAD DUP4 PUSH4 0xFFFFFFFF AND PUSH1 0xE0 SHL DUP2 MSTORE PUSH1 0x4 ADD PUSH2 0xB17 SWAP3 SWAP2 SWAP1 PUSH2 0x3A68 JUMP JUMPDEST PUSH1 0x0 PUSH1 0x40 MLOAD DUP1 DUP4 SUB DUP2 PUSH1 0x0 DUP8 DUP1 EXTCODESIZE ISZERO DUP1 ISZERO PUSH2 0xB31 JUMPI PUSH1 0x0 DUP1 REVERT JUMPDEST POP GAS CALL ISZERO DUP1 ISZERO PUSH2 0xB45 JUMPI RETURNDATASIZE PUSH1 0x0 DUP1 RETURNDATACOPY RETURNDATASIZE PUSH1 0x0 REVERT JUMPDEST POP POP POP POP DUP2 PUSH32 0x0 PUSH20 0xFFFFFFFFFFFFFFFFFFFFFFFFFFFFFFFFFFFFFFFF AND PUSH4 0x70A08231 ADDRESS PUSH1 0x40 MLOAD DUP3 PUSH4 0xFFFFFFFF AND PUSH1 0xE0 SHL DUP2 MSTORE PUSH1 0x4 ADD PUSH2 0xBA3 SWAP2 SWAP1 PUSH2 0x31F0 JUMP JUMPDEST PUSH1 0x20 PUSH1 0x40 MLOAD DUP1 DUP4 SUB DUP2 DUP7 GAS STATICCALL ISZERO DUP1 ISZERO PUSH2 0xBC0 JUMPI RETURNDATASIZE PUSH1 0x0 DUP1 RETURNDATACOPY RETURNDATASIZE PUSH1 0x0 REVERT JUMPDEST POP POP POP POP PUSH1 0x40 MLOAD RETURNDATASIZE PUSH1 0x1F NOT PUSH1 0x1F DUP3 ADD AND DUP3 ADD DUP1 PUSH1 0x40 MSTORE POP DUP2 ADD SWAP1 PUSH2 0xBE4 SWAP2 SWAP1 PUSH2 0x39D0 JUMP JUMPDEST LT ISZERO PUSH2 0xBEF JUMPI PUSH1 0x0 DUP1 REVERT JUMPDEST DUP1 PUSH32 0x0 PUSH20 0xFFFFFFFFFFFFFFFFFFFFFFFFFFFFFFFFFFFFFFFF AND PUSH4 0x70A08231 ADDRESS PUSH1 0x40 MLOAD DUP3 PUSH4 0xFFFFFFFF AND PUSH1 0xE0 SHL DUP2 MSTORE PUSH1 0x4 ADD PUSH2 0xC49 SWAP2 SWAP1 PUSH2 0x31F0 JUMP JUMPDEST PUSH1 0x20 PUSH1 0x40 MLOAD DUP1 DUP4 SUB DUP2 DUP7 GAS STATICCALL ISZERO DUP1 ISZERO PUSH2 0xC66 JUMPI RETURNDATASIZE PUSH1 0x0 DUP1 RETURNDATACOPY RETURNDATASIZE PUSH1 0x0 REVERT JUMPDEST POP POP POP POP PUSH1 0x40 MLOAD RETURNDATASIZE PUSH1 0x1F NOT PUSH1 0x1F DUP3 ADD AND DUP3 ADD DUP1 PUSH1 0x40 MSTORE POP DUP2 ADD SWAP1 PUSH2 0xC8A SWAP2 SWAP1 PUSH2 0x39D0 JUMP JUMPDEST LT ISZERO PUSH2 0xC95 JUMPI PUSH1 0x0 DUP1 REVERT JUMPDEST CALLER PUSH20 0xFFFFFFFFFFFFFFFFFFFFFFFFFFFFFFFFFFFFFFFF AND PUSH32 0x1C1DB1F1D6A01E51FEC24BB54087B65FE5430F692280E70D92F718EB72AE76B7 DUP8 DUP8 PUSH1 0x40 MLOAD PUSH2 0xCDD SWAP3 SWAP2 SWAP1 PUSH2 0x344B JUMP JUMPDEST PUSH1 0x40 MLOAD DUP1 SWAP2 SUB SWAP1 LOG2 POP POP POP POP POP POP JUMP JUMPDEST PUSH1 0x4 PUSH1 0x20 MSTORE DUP1 PUSH1 0x0 MSTORE PUSH1 0x40 PUSH1 0x0 KECCAK256 PUSH1 0x0 SWAP2 POP SWAP1 POP DUP1 PUSH1 0x0 ADD PUSH1 0x0 SWAP1 SLOAD SWAP1 PUSH2 0x100 EXP SWAP1 DIV PUSH16 0xFFFFFFFFFFFFFFFFFFFFFFFFFFFFFFFF AND SWAP1 POP DUP2 JUMP JUMPDEST PUSH1 0x3 PUSH1 0x20 MSTORE DUP1 PUSH1 0x0 MSTORE PUSH1 0x40 PUSH1 0x0 KECCAK256 PUSH1 0x0 SWAP2 POP SWAP1 POP SLOAD DUP2 JUMP JUMPDEST PUSH32 0x0 DUP2 JUMP JUMPDEST PUSH32 0x0 DUP2 JUMP JUMPDEST PUSH32 0x0 DUP2 JUMP JUMPDEST PUSH1 0x0 DUP1 PUSH1 0x0 DUP1 PUSH1 0x40 MLOAD DUP1 PUSH1 0x40 ADD PUSH1 0x40 MSTORE SWAP1 DUP2 PUSH1 0x0 DUP3 ADD PUSH1 0x0 SWAP1 SLOAD SWAP1 PUSH2 0x100 EXP SWAP1 DIV PUSH20 0xFFFFFFFFFFFFFFFFFFFFFFFFFFFFFFFFFFFFFFFF AND PUSH20 0xFFFFFFFFFFFFFFFFFFFFFFFFFFFFFFFFFFFFFFFF AND PUSH20 0xFFFFFFFFFFFFFFFFFFFFFFFFFFFFFFFFFFFFFFFF AND DUP2 MSTORE PUSH1 0x20 ADD PUSH1 0x0 DUP3 ADD PUSH1 0x14 SWAP1 SLOAD SWAP1 PUSH2 0x100 EXP SWAP1 DIV PUSH1 0x2 SIGNEXTEND PUSH1 0x2 SIGNEXTEND PUSH1 0x2 SIGNEXTEND DUP2 MSTORE POP POP SWAP1 POP PUSH1 0x0 PUSH1 0x1 PUSH1 0x0 SWAP1 SLOAD SWAP1 PUSH2 0x100 EXP SWAP1 DIV PUSH16 0xFFFFFFFFFFFFFFFFFFFFFFFFFFFFFFFF AND SWAP1 POP DUP9 PUSH2 0xEDB JUMPI DUP2 PUSH1 0x0 ADD MLOAD PUSH20 0xFFFFFFFFFFFFFFFFFFFFFFFFFFFFFFFFFFFFFFFF AND DUP8 PUSH20 0xFFFFFFFFFFFFFFFFFFFFFFFFFFFFFFFFFFFFFFFF AND LT DUP1 PUSH2 0xED6 JUMPI POP PUSH20 0xFFFD8963EFD1FC6A506488495D951D5263988D26 PUSH20 0xFFFFFFFFFFFFFFFFFFFFFFFFFFFFFFFFFFFFFFFF AND DUP8 PUSH20 0xFFFFFFFFFFFFFFFFFFFFFFFFFFFFFFFFFFFFFFFF AND GT JUMPDEST PUSH2 0xF4A JUMP JUMPDEST DUP2 PUSH1 0x0 ADD MLOAD PUSH20 0xFFFFFFFFFFFFFFFFFFFFFFFFFFFFFFFFFFFFFFFF AND DUP8 PUSH20 0xFFFFFFFFFFFFFFFFFFFFFFFFFFFFFFFFFFFFFFFF AND GT DUP1 PUSH2 0xF49 JUMPI POP PUSH5 0x1000276A3 PUSH20 0xFFFFFFFFFFFFFFFFFFFFFFFFFFFFFFFFFFFFFFFF AND DUP8 PUSH20 0xFFFFFFFFFFFFFFFFFFFFFFFFFFFFFFFFFFFFFFFF AND LT JUMPDEST JUMPDEST ISZERO PUSH2 0xF81 JUMPI PUSH1 0x40 MLOAD PUSH32 0xB53BBACC00000000000000000000000000000000000000000000000000000000 DUP2 MSTORE PUSH1 0x4 ADD PUSH1 0x40 MLOAD DUP1 SWAP2 SUB SWAP1 REVERT JUMPDEST PUSH1 0x0 PUSH1 0x40 MLOAD DUP1 PUSH1 0xA0 ADD PUSH1 0x40 MSTORE DUP1 DUP11 DUP2 MSTORE PUSH1 0x20 ADD PUSH1 0x0 DUP2 MSTORE PUSH1 0x20 ADD DUP5 PUSH1 0x0 ADD MLOAD PUSH20 0xFFFFFFFFFFFFFFFFFFFFFFFFFFFFFFFFFFFFFFFF AND DUP2 MSTORE PUSH1 0x20 ADD DUP5 PUSH1 0x20 ADD MLOAD PUSH1 0x2 SIGNEXTEND DUP2 MSTORE PUSH1 0x20 ADD DUP4 PUSH16 0xFFFFFFFFFFFFFFFFFFFFFFFFFFFFFFFF AND DUP2 MSTORE POP SWAP1 POP JUMPDEST PUSH1 0x0 DUP2 PUSH1 0x0 ADD MLOAD GT DUP1 ISZERO PUSH2 0x1025 JUMPI POP DUP8 PUSH20 0xFFFFFFFFFFFFFFFFFFFFFFFFFFFFFFFFFFFFFFFF AND DUP2 PUSH1 0x40 ADD MLOAD PUSH20 0xFFFFFFFFFFFFFFFFFFFFFFFFFFFFFFFFFFFFFFFF AND EQ ISZERO JUMPDEST ISZERO PUSH2 0x13BE JUMPI PUSH2 0x1032 PUSH2 0x3148 JUMP JUMPDEST DUP2 PUSH1 0x40 ADD MLOAD DUP2 PUSH1 0x0 ADD SWAP1 PUSH20 0xFFFFFFFFFFFFFFFFFFFFFFFFFFFFFFFFFFFFFFFF AND SWAP1 DUP2 PUSH20 0xFFFFFFFFFFFFFFFFFFFFFFFFFFFFFFFFFFFFFFFF AND DUP2 MSTORE POP POP PUSH2 0x10AA DUP3 PUSH1 0x60 ADD MLOAD PUSH32 0x0 DUP14 PUSH1 0x3 PUSH2 0x24B8 SWAP1 SWAP4 SWAP3 SWAP2 SWAP1 PUSH4 0xFFFFFFFF AND JUMP JUMPDEST DUP3 PUSH1 0x20 ADD DUP4 PUSH1 0x40 ADD DUP3 ISZERO ISZERO ISZERO ISZERO DUP2 MSTORE POP DUP3 PUSH1 0x2 SIGNEXTEND PUSH1 0x2 SIGNEXTEND DUP2 MSTORE POP POP POP PUSH2 0x10D3 DUP2 PUSH1 0x20 ADD MLOAD PUSH2 0x1CEF JUMP JUMPDEST DUP2 PUSH1 0x60 ADD SWAP1 PUSH20 0xFFFFFFFFFFFFFFFFFFFFFFFFFFFFFFFFFFFFFFFF AND SWAP1 DUP2 PUSH20 0xFFFFFFFFFFFFFFFFFFFFFFFFFFFFFFFFFFFFFFFF AND DUP2 MSTORE POP POP PUSH2 0x11A2 DUP3 PUSH1 0x40 ADD MLOAD DUP13 PUSH2 0x114F JUMPI DUP11 PUSH20 0xFFFFFFFFFFFFFFFFFFFFFFFFFFFFFFFFFFFFFFFF AND DUP4 PUSH1 0x60 ADD MLOAD PUSH20 0xFFFFFFFFFFFFFFFFFFFFFFFFFFFFFFFFFFFFFFFF AND GT PUSH2 0x1183 JUMP JUMPDEST DUP11 PUSH20 0xFFFFFFFFFFFFFFFFFFFFFFFFFFFFFFFFFFFFFFFF AND DUP4 PUSH1 0x60 ADD MLOAD PUSH20 0xFFFFFFFFFFFFFFFFFFFFFFFFFFFFFFFFFFFFFFFF AND LT JUMPDEST PUSH2 0x1191 JUMPI DUP3 PUSH1 0x60 ADD MLOAD PUSH2 0x1193 JUMP JUMPDEST DUP11 JUMPDEST DUP5 PUSH1 0x80 ADD MLOAD DUP6 PUSH1 0x0 ADD MLOAD PUSH2 0x26A6 JUMP JUMPDEST DUP5 PUSH1 0x40 ADD DUP5 PUSH1 0x80 ADD DUP6 PUSH1 0xA0 ADD DUP4 DUP2 MSTORE POP DUP4 DUP2 MSTORE POP DUP4 PUSH20 0xFFFFFFFFFFFFFFFFFFFFFFFFFFFFFFFFFFFFFFFF AND PUSH20 0xFFFFFFFFFFFFFFFFFFFFFFFFFFFFFFFFFFFFFFFF AND DUP2 MSTORE POP POP POP POP DUP1 PUSH1 0x80 ADD MLOAD DUP3 PUSH1 0x0 ADD DUP2 DUP2 MLOAD PUSH2 0x11FF SWAP2 SWAP1 PUSH2 0x3A8C JUMP JUMPDEST SWAP2 POP DUP2 DUP2 MSTORE POP POP DUP1 PUSH1 0xA0 ADD MLOAD DUP3 PUSH1 0x20 ADD DUP2 DUP2 MLOAD PUSH2 0x121C SWAP2 SWAP1 PUSH2 0x3942 JUMP JUMPDEST SWAP2 POP DUP2 DUP2 MSTORE POP POP DUP1 PUSH1 0x60 ADD MLOAD PUSH20 0xFFFFFFFFFFFFFFFFFFFFFFFFFFFFFFFFFFFFFFFF AND DUP3 PUSH1 0x40 ADD MLOAD PUSH20 0xFFFFFFFFFFFFFFFFFFFFFFFFFFFFFFFFFFFFFFFF AND SUB PUSH2 0x135D JUMPI DUP1 PUSH1 0x40 ADD MLOAD ISZERO PUSH2 0x1326 JUMPI PUSH1 0x0 PUSH2 0x1282 DUP3 PUSH1 0x20 ADD MLOAD PUSH1 0x2 PUSH2 0x2754 SWAP1 SWAP2 SWAP1 PUSH4 0xFFFFFFFF AND JUMP JUMPDEST SWAP1 POP DUP12 ISZERO PUSH2 0x1297 JUMPI DUP1 PUSH2 0x1294 SWAP1 PUSH2 0x3AC0 JUMP JUMPDEST SWAP1 POP JUMPDEST PUSH2 0x12A5 DUP4 PUSH1 0x80 ADD MLOAD DUP3 PUSH2 0x2338 JUMP JUMPDEST DUP4 PUSH1 0x80 ADD SWAP1 PUSH16 0xFFFFFFFFFFFFFFFFFFFFFFFFFFFFFFFF AND SWAP1 DUP2 PUSH16 0xFFFFFFFFFFFFFFFFFFFFFFFFFFFFFFFF AND DUP2 MSTORE POP POP PUSH1 0x0 DUP4 PUSH1 0x80 ADD MLOAD PUSH16 0xFFFFFFFFFFFFFFFFFFFFFFFFFFFFFFFF AND SUB PUSH2 0x1324 JUMPI PUSH1 0x40 MLOAD PUSH32 0x4323A55500000000000000000000000000000000000000000000000000000000 DUP2 MSTORE PUSH1 0x4 ADD PUSH1 0x40 MLOAD DUP1 SWAP2 SUB SWAP1 REVERT JUMPDEST POP JUMPDEST DUP11 PUSH2 0x1335 JUMPI DUP1 PUSH1 0x20 ADD MLOAD PUSH2 0x1347 JUMP JUMPDEST PUSH1 0x1 DUP2 PUSH1 0x20 ADD MLOAD PUSH2 0x1346 SWAP2 SWAP1 PUSH2 0x3B08 JUMP JUMPDEST JUMPDEST DUP3 PUSH1 0x60 ADD SWAP1 PUSH1 0x2 SIGNEXTEND SWAP1 DUP2 PUSH1 0x2 SIGNEXTEND DUP2 MSTORE POP POP PUSH2 0x13B8 JUMP JUMPDEST DUP1 PUSH1 0x0 ADD MLOAD PUSH20 0xFFFFFFFFFFFFFFFFFFFFFFFFFFFFFFFFFFFFFFFF AND DUP3 PUSH1 0x40 ADD MLOAD PUSH20 0xFFFFFFFFFFFFFFFFFFFFFFFFFFFFFFFFFFFFFFFF AND EQ PUSH2 0x13B7 JUMPI PUSH2 0x13A5 DUP3 PUSH1 0x40 ADD MLOAD PUSH2 0x278C JUMP JUMPDEST DUP3 PUSH1 0x60 ADD SWAP1 PUSH1 0x2 SIGNEXTEND SWAP1 DUP2 PUSH1 0x2 SIGNEXTEND DUP2 MSTORE POP POP JUMPDEST JUMPDEST POP PUSH2 0xFE1 JUMP JUMPDEST DUP3 PUSH1 0x20 ADD MLOAD PUSH1 0x2 SIGNEXTEND DUP2 PUSH1 0x60 ADD MLOAD PUSH1 0x2 SIGNEXTEND EQ PUSH2 0x144B JUMPI DUP1 PUSH1 0x40 ADD MLOAD DUP2 PUSH1 0x60 ADD MLOAD PUSH1 0x0 DUP1 ADD PUSH1 0x0 DUP1 PUSH1 0x0 ADD PUSH1 0x14 DUP5 SWAP2 SWAP1 PUSH2 0x100 EXP DUP2 SLOAD DUP2 PUSH3 0xFFFFFF MUL NOT AND SWAP1 DUP4 PUSH1 0x2 SIGNEXTEND PUSH3 0xFFFFFF AND MUL OR SWAP1 SSTORE POP DUP4 SWAP2 SWAP1 PUSH2 0x100 EXP DUP2 SLOAD DUP2 PUSH20 0xFFFFFFFFFFFFFFFFFFFFFFFFFFFFFFFFFFFFFFFF MUL NOT AND SWAP1 DUP4 PUSH20 0xFFFFFFFFFFFFFFFFFFFFFFFFFFFFFFFFFFFFFFFF AND MUL OR SWAP1 SSTORE POP POP POP JUMPDEST DUP1 PUSH1 0x80 ADD MLOAD PUSH16 0xFFFFFFFFFFFFFFFFFFFFFFFFFFFFFFFF AND DUP3 PUSH16 0xFFFFFFFFFFFFFFFFFFFFFFFFFFFFFFFF AND EQ PUSH2 0x14B8 JUMPI DUP1 PUSH1 0x80 ADD MLOAD PUSH1 0x1 PUSH1 0x0 PUSH2 0x100 EXP DUP2 SLOAD DUP2 PUSH16 0xFFFFFFFFFFFFFFFFFFFFFFFFFFFFFFFF MUL NOT AND SWAP1 DUP4 PUSH16 0xFFFFFFFFFFFFFFFFFFFFFFFFFFFFFFFF AND MUL OR SWAP1 SSTORE POP JUMPDEST DUP10 PUSH2 0x14E0 JUMPI DUP1 PUSH1 0x20 ADD MLOAD PUSH2 0x14CB SWAP1 PUSH2 0x3B63 JUMP JUMPDEST DUP2 PUSH1 0x0 ADD MLOAD DUP11 PUSH2 0x14DB SWAP2 SWAP1 PUSH2 0x3A8C JUMP JUMPDEST PUSH2 0x14FF JUMP JUMPDEST DUP1 PUSH1 0x0 ADD MLOAD DUP10 PUSH2 0x14F0 SWAP2 SWAP1 PUSH2 0x3A8C JUMP JUMPDEST DUP2 PUSH1 0x20 ADD MLOAD PUSH2 0x14FE SWAP1 PUSH2 0x3B63 JUMP JUMPDEST JUMPDEST DUP1 SWAP6 POP DUP2 SWAP7 POP POP POP DUP10 ISZERO PUSH2 0x1684 JUMPI PUSH32 0x0 PUSH20 0xFFFFFFFFFFFFFFFFFFFFFFFFFFFFFFFFFFFFFFFF AND PUSH4 0xA9059CBB DUP13 DUP7 PUSH2 0x1554 SWAP1 PUSH2 0x3B63 JUMP JUMPDEST PUSH1 0x40 MLOAD DUP4 PUSH4 0xFFFFFFFF AND PUSH1 0xE0 SHL DUP2 MSTORE PUSH1 0x4 ADD PUSH2 0x1571 SWAP3 SWAP2 SWAP1 PUSH2 0x39FD JUMP JUMPDEST PUSH1 0x20 PUSH1 0x40 MLOAD DUP1 DUP4 SUB DUP2 PUSH1 0x0 DUP8 GAS CALL ISZERO DUP1 ISZERO PUSH2 0x1590 JUMPI RETURNDATASIZE PUSH1 0x0 DUP1 RETURNDATACOPY RETURNDATASIZE PUSH1 0x0 REVERT JUMPDEST POP POP POP POP PUSH1 0x40 MLOAD RETURNDATASIZE PUSH1 0x1F NOT PUSH1 0x1F DUP3 ADD AND DUP3 ADD DUP1 PUSH1 0x40 MSTORE POP DUP2 ADD SWAP1 PUSH2 0x15B4 SWAP2 SWAP1 PUSH2 0x3A3B JUMP JUMPDEST POP PUSH1 0x0 PUSH2 0x15BF PUSH2 0x2376 JUMP JUMPDEST SWAP1 POP CALLER PUSH20 0xFFFFFFFFFFFFFFFFFFFFFFFFFFFFFFFFFFFFFFFF AND PUSH4 0xFA461E33 DUP8 DUP8 DUP12 DUP12 PUSH1 0x40 MLOAD DUP6 PUSH4 0xFFFFFFFF AND PUSH1 0xE0 SHL DUP2 MSTORE PUSH1 0x4 ADD PUSH2 0x1600 SWAP5 SWAP4 SWAP3 SWAP2 SWAP1 PUSH2 0x3BAB JUMP JUMPDEST PUSH1 0x0 PUSH1 0x40 MLOAD DUP1 DUP4 SUB DUP2 PUSH1 0x0 DUP8 DUP1 EXTCODESIZE ISZERO DUP1 ISZERO PUSH2 0x161A JUMPI PUSH1 0x0 DUP1 REVERT JUMPDEST POP GAS CALL ISZERO DUP1 ISZERO PUSH2 0x162E JUMPI RETURNDATASIZE PUSH1 0x0 DUP1 RETURNDATACOPY RETURNDATASIZE PUSH1 0x0 REVERT JUMPDEST POP POP POP POP PUSH2 0x163A PUSH2 0x2376 JUMP JUMPDEST DUP7 DUP3 PUSH2 0x1646 SWAP2 SWAP1 PUSH2 0x3942 JUMP JUMPDEST GT ISZERO PUSH2 0x167E JUMPI PUSH1 0x40 MLOAD PUSH32 0x98FB56100000000000000000000000000000000000000000000000000000000 DUP2 MSTORE PUSH1 0x4 ADD PUSH1 0x40 MLOAD DUP1 SWAP2 SUB SWAP1 REVERT JUMPDEST POP PUSH2 0x17F7 JUMP JUMPDEST PUSH32 0x0 PUSH20 0xFFFFFFFFFFFFFFFFFFFFFFFFFFFFFFFFFFFFFFFF AND PUSH4 0xA9059CBB DUP13 DUP8 PUSH2 0x16CB SWAP1 PUSH2 0x3B63 JUMP JUMPDEST PUSH1 0x40 MLOAD DUP4 PUSH4 0xFFFFFFFF AND PUSH1 0xE0 SHL DUP2 MSTORE PUSH1 0x4 ADD PUSH2 0x16E8 SWAP3 SWAP2 SWAP1 PUSH2 0x39FD JUMP JUMPDEST PUSH1 0x20 PUSH1 0x40 MLOAD DUP1 DUP4 SUB DUP2 PUSH1 0x0 DUP8 GAS CALL ISZERO DUP1 ISZERO PUSH2 0x1707 JUMPI RETURNDATASIZE PUSH1 0x0 DUP1 RETURNDATACOPY RETURNDATASIZE PUSH1 0x0 REVERT JUMPDEST POP POP POP POP PUSH1 0x40 MLOAD RETURNDATASIZE PUSH1 0x1F NOT PUSH1 0x1F DUP3 ADD AND DUP3 ADD DUP1 PUSH1 0x40 MSTORE POP DUP2 ADD SWAP1 PUSH2 0x172B SWAP2 SWAP1 PUSH2 0x3A3B JUMP JUMPDEST POP PUSH1 0x0 PUSH2 0x1736 PUSH2 0x2417 JUMP JUMPDEST SWAP1 POP CALLER PUSH20 0xFFFFFFFFFFFFFFFFFFFFFFFFFFFFFFFFFFFFFFFF AND PUSH4 0xFA461E33 DUP8 DUP8 DUP12 DUP12 PUSH1 0x40 MLOAD DUP6 PUSH4 0xFFFFFFFF AND PUSH1 0xE0 SHL DUP2 MSTORE PUSH1 0x4 ADD PUSH2 0x1777 SWAP5 SWAP4 SWAP3 SWAP2 SWAP1 PUSH2 0x3BAB JUMP JUMPDEST PUSH1 0x0 PUSH1 0x40 MLOAD DUP1 DUP4 SUB DUP2 PUSH1 0x0 DUP8 DUP1 EXTCODESIZE ISZERO DUP1 ISZERO PUSH2 0x1791 JUMPI PUSH1 0x0 DUP1 REVERT JUMPDEST POP GAS CALL ISZERO DUP1 ISZERO PUSH2 0x17A5 JUMPI RETURNDATASIZE PUSH1 0x0 DUP1 RETURNDATACOPY RETURNDATASIZE PUSH1 0x0 REVERT JUMPDEST POP POP POP POP PUSH2 0x17B1 PUSH2 0x2417 JUMP JUMPDEST DUP6 DUP3 PUSH2 0x17BD SWAP2 SWAP1 PUSH2 0x3942 JUMP JUMPDEST GT ISZERO PUSH2 0x17F5 JUMPI PUSH1 0x40 MLOAD PUSH32 0x98FB56100000000000000000000000000000000000000000000000000000000 DUP2 MSTORE PUSH1 0x4 ADD PUSH1 0x40 MLOAD DUP1 SWAP2 SUB SWAP1 REVERT JUMPDEST POP JUMPDEST DUP11 PUSH20 0xFFFFFFFFFFFFFFFFFFFFFFFFFFFFFFFFFFFFFFFF AND CALLER PUSH20 0xFFFFFFFFFFFFFFFFFFFFFFFFFFFFFFFFFFFFFFFF AND PUSH32 0xC42079F94A6350D7E6235F29174924F928CC2AC818EB64FED8004E115FBCCA67 DUP8 DUP8 PUSH1 0x0 DUP1 ADD PUSH1 0x0 SWAP1 SLOAD SWAP1 PUSH2 0x100 EXP SWAP1 DIV PUSH20 0xFFFFFFFFFFFFFFFFFFFFFFFFFFFFFFFFFFFFFFFF AND DUP7 PUSH1 0x80 ADD MLOAD PUSH1 0x0 DUP1 ADD PUSH1 0x14 SWAP1 SLOAD SWAP1 PUSH2 0x100 EXP SWAP1 DIV PUSH1 0x2 SIGNEXTEND PUSH1 0x40 MLOAD PUSH2 0x1895 SWAP6 SWAP5 SWAP4 SWAP3 SWAP2 SWAP1 PUSH2 0x3BEB JUMP JUMPDEST PUSH1 0x40 MLOAD DUP1 SWAP2 SUB SWAP1 LOG3 POP POP POP SWAP7 POP SWAP7 SWAP5 POP POP POP POP POP JUMP JUMPDEST PUSH1 0x2 PUSH1 0x20 MSTORE DUP1 PUSH1 0x0 MSTORE PUSH1 0x40 PUSH1 0x0 KECCAK256 PUSH1 0x0 SWAP2 POP SWAP1 POP DUP1 PUSH1 0x0 ADD PUSH1 0x0 SWAP1 SLOAD SWAP1 PUSH2 0x100 EXP SWAP1 DIV PUSH1 0xFF AND SWAP1 DUP1 PUSH1 0x0 ADD PUSH1 0x1 SWAP1 SLOAD SWAP1 PUSH2 0x100 EXP SWAP1 DIV PUSH16 0xFFFFFFFFFFFFFFFFFFFFFFFFFFFFFFFF AND SWAP1 DUP1 PUSH1 0x1 ADD PUSH1 0x0 SWAP1 SLOAD SWAP1 PUSH2 0x100 EXP SWAP1 DIV PUSH1 0xF SIGNEXTEND SWAP1 POP DUP4 JUMP JUMPDEST PUSH1 0x0 DUP1 PUSH1 0x0 ADD PUSH1 0x0 SWAP1 SLOAD SWAP1 PUSH2 0x100 EXP SWAP1 DIV PUSH20 0xFFFFFFFFFFFFFFFFFFFFFFFFFFFFFFFFFFFFFFFF AND PUSH20 0xFFFFFFFFFFFFFFFFFFFFFFFFFFFFFFFFFFFFFFFF AND EQ PUSH2 0x197F JUMPI PUSH1 0x40 MLOAD PUSH32 0xDC149F000000000000000000000000000000000000000000000000000000000 DUP2 MSTORE PUSH1 0x4 ADD PUSH1 0x40 MLOAD DUP1 SWAP2 SUB SWAP1 REVERT JUMPDEST PUSH1 0x0 PUSH2 0x198A DUP3 PUSH2 0x278C JUMP JUMPDEST SWAP1 POP PUSH1 0x40 MLOAD DUP1 PUSH1 0x40 ADD PUSH1 0x40 MSTORE DUP1 DUP4 PUSH20 0xFFFFFFFFFFFFFFFFFFFFFFFFFFFFFFFFFFFFFFFF AND DUP2 MSTORE PUSH1 0x20 ADD DUP3 PUSH1 0x2 SIGNEXTEND DUP2 MSTORE POP PUSH1 0x0 DUP1 DUP3 ADD MLOAD DUP2 PUSH1 0x0 ADD PUSH1 0x0 PUSH2 0x100 EXP DUP2 SLOAD DUP2 PUSH20 0xFFFFFFFFFFFFFFFFFFFFFFFFFFFFFFFFFFFFFFFF MUL NOT AND SWAP1 DUP4 PUSH20 0xFFFFFFFFFFFFFFFFFFFFFFFFFFFFFFFFFFFFFFFF AND MUL OR SWAP1 SSTORE POP PUSH1 0x20 DUP3 ADD MLOAD DUP2 PUSH1 0x0 ADD PUSH1 0x14 PUSH2 0x100 EXP DUP2 SLOAD DUP2 PUSH3 0xFFFFFF MUL NOT AND SWAP1 DUP4 PUSH1 0x2 SIGNEXTEND PUSH3 0xFFFFFF AND MUL OR SWAP1 SSTORE POP SWAP1 POP POP POP POP JUMP JUMPDEST PUSH1 0x0 DUP1 DUP6 PUSH1 0x0 DUP7 PUSH1 0x2 SIGNEXTEND PUSH1 0x2 SIGNEXTEND DUP2 MSTORE PUSH1 0x20 ADD SWAP1 DUP2 MSTORE PUSH1 0x20 ADD PUSH1 0x0 KECCAK256 SWAP1 POP PUSH1 0x0 DUP2 PUSH1 0x0 ADD PUSH1 0x1 SWAP1 SLOAD SWAP1 PUSH2 0x100 EXP SWAP1 DIV PUSH16 0xFFFFFFFFFFFFFFFFFFFFFFFFFFFFFFFF AND SWAP1 POP PUSH1 0x0 PUSH2 0x1A7F DUP3 DUP8 PUSH2 0x2338 JUMP JUMPDEST SWAP1 POP PUSH1 0x0 DUP3 PUSH16 0xFFFFFFFFFFFFFFFFFFFFFFFFFFFFFFFF AND EQ ISZERO ISZERO PUSH1 0x0 DUP3 PUSH16 0xFFFFFFFFFFFFFFFFFFFFFFFFFFFFFFFF AND EQ ISZERO ISZERO EQ ISZERO SWAP4 POP PUSH1 0x0 DUP3 PUSH16 0xFFFFFFFFFFFFFFFFFFFFFFFFFFFFFFFF AND SUB PUSH2 0x1AED JUMPI PUSH1 0x1 DUP4 PUSH1 0x0 ADD PUSH1 0x0 PUSH2 0x100 EXP DUP2 SLOAD DUP2 PUSH1 0xFF MUL NOT AND SWAP1 DUP4 ISZERO ISZERO MUL OR SWAP1 SSTORE POP JUMPDEST DUP1 DUP4 PUSH1 0x0 ADD PUSH1 0x1 PUSH2 0x100 EXP DUP2 SLOAD DUP2 PUSH16 0xFFFFFFFFFFFFFFFFFFFFFFFFFFFFFFFF MUL NOT AND SWAP1 DUP4 PUSH16 0xFFFFFFFFFFFFFFFFFFFFFFFFFFFFFFFF AND MUL OR SWAP1 SSTORE POP DUP5 PUSH2 0x1B55 JUMPI DUP6 PUSH1 0xF SIGNEXTEND DUP4 PUSH1 0x1 ADD PUSH1 0x0 SWAP1 SLOAD SWAP1 PUSH2 0x100 EXP SWAP1 DIV PUSH1 0xF SIGNEXTEND PUSH1 0xF SIGNEXTEND PUSH2 0x1B50 SWAP2 SWAP1 PUSH2 0x3C3E JUMP JUMPDEST PUSH2 0x1B79 JUMP JUMPDEST DUP6 PUSH1 0xF SIGNEXTEND DUP4 PUSH1 0x1 ADD PUSH1 0x0 SWAP1 SLOAD SWAP1 PUSH2 0x100 EXP SWAP1 DIV PUSH1 0xF SIGNEXTEND PUSH1 0xF SIGNEXTEND PUSH2 0x1B78 SWAP2 SWAP1 PUSH2 0x3C82 JUMP JUMPDEST JUMPDEST DUP4 PUSH1 0x1 ADD PUSH1 0x0 PUSH2 0x100 EXP DUP2 SLOAD DUP2 PUSH16 0xFFFFFFFFFFFFFFFFFFFFFFFFFFFFFFFF MUL NOT AND SWAP1 DUP4 PUSH1 0xF SIGNEXTEND PUSH16 0xFFFFFFFFFFFFFFFFFFFFFFFFFFFFFFFF AND MUL OR SWAP1 SSTORE POP POP POP POP SWAP5 SWAP4 POP POP POP POP JUMP JUMPDEST PUSH1 0x0 DUP2 DUP4 PUSH2 0x1BCF SWAP2 SWAP1 PUSH2 0x3CF4 JUMP JUMPDEST PUSH1 0x2 SIGNEXTEND EQ PUSH2 0x1BDC JUMPI PUSH1 0x0 DUP1 REVERT JUMPDEST PUSH1 0x0 DUP1 PUSH2 0x1BF3 DUP4 DUP6 PUSH2 0x1BEE SWAP2 SWAP1 PUSH2 0x3D25 JUMP JUMPDEST PUSH2 0x2B8B JUMP JUMPDEST SWAP2 POP SWAP2 POP PUSH1 0x0 DUP2 PUSH1 0xFF AND PUSH1 0x1 SWAP1 SHL SWAP1 POP DUP1 DUP7 PUSH1 0x0 DUP6 PUSH1 0x1 SIGNEXTEND PUSH1 0x1 SIGNEXTEND DUP2 MSTORE PUSH1 0x20 ADD SWAP1 DUP2 MSTORE PUSH1 0x20 ADD PUSH1 0x0 KECCAK256 PUSH1 0x0 DUP3 DUP3 SLOAD XOR SWAP3 POP POP DUP2 SWAP1 SSTORE POP POP POP POP POP POP POP JUMP JUMPDEST PUSH1 0x0 DUP5 PUSH1 0x0 DUP6 DUP6 DUP6 PUSH1 0x40 MLOAD PUSH1 0x20 ADD PUSH2 0x1C4B SWAP4 SWAP3 SWAP2 SWAP1 PUSH2 0x3E0D JUMP JUMPDEST PUSH1 0x40 MLOAD PUSH1 0x20 DUP2 DUP4 SUB SUB DUP2 MSTORE SWAP1 PUSH1 0x40 MSTORE DUP1 MLOAD SWAP1 PUSH1 0x20 ADD KECCAK256 DUP2 MSTORE PUSH1 0x20 ADD SWAP1 DUP2 MSTORE PUSH1 0x20 ADD PUSH1 0x0 KECCAK256 SWAP1 POP SWAP5 SWAP4 POP POP POP POP JUMP JUMPDEST PUSH1 0x0 DUP3 PUSH1 0x0 ADD PUSH1 0x0 SWAP1 SLOAD SWAP1 PUSH2 0x100 EXP SWAP1 DIV PUSH16 0xFFFFFFFFFFFFFFFFFFFFFFFFFFFFFFFF AND SWAP1 POP PUSH1 0x0 DUP3 DUP3 PUSH2 0x1CAC SWAP2 SWAP1 PUSH2 0x3E4A JUMP JUMPDEST SWAP1 POP DUP1 DUP5 PUSH1 0x0 ADD PUSH1 0x0 PUSH2 0x100 EXP DUP2 SLOAD DUP2 PUSH16 0xFFFFFFFFFFFFFFFFFFFFFFFFFFFFFFFF MUL NOT AND SWAP1 DUP4 PUSH16 0xFFFFFFFFFFFFFFFFFFFFFFFFFFFFFFFF AND MUL OR SWAP1 SSTORE POP POP POP POP POP JUMP JUMPDEST PUSH1 0x0 DUP1 PUSH1 0x0 DUP4 PUSH1 0x2 SIGNEXTEND SLT PUSH2 0x1D06 JUMPI DUP3 PUSH1 0x2 SIGNEXTEND PUSH2 0x1D14 JUMP JUMPDEST DUP3 PUSH1 0x2 SIGNEXTEND PUSH2 0x1D13 SWAP1 PUSH2 0x3B63 JUMP JUMPDEST JUMPDEST SWAP1 POP PUSH32 0xFFFFFFFFFFFFFFFFFFFFFFFFFFFFFFFFFFFFFFFFFFFFFFFFFFFFFFFFFFF27618 PUSH2 0x1D40 SWAP1 PUSH2 0x385C JUMP JUMPDEST PUSH3 0xFFFFFF AND DUP2 GT ISZERO PUSH2 0x1D87 JUMPI PUSH1 0x40 MLOAD PUSH32 0x8C379A000000000000000000000000000000000000000000000000000000000 DUP2 MSTORE PUSH1 0x4 ADD PUSH2 0x1D7E SWAP1 PUSH2 0x3EEB JUMP JUMPDEST PUSH1 0x40 MLOAD DUP1 SWAP2 SUB SWAP1 REVERT JUMPDEST PUSH1 0x0 DUP1 PUSH1 0x1 DUP4 AND SUB PUSH2 0x1DAA JUMPI PUSH17 0x100000000000000000000000000000000 PUSH2 0x1DBC JUMP JUMPDEST PUSH16 0xFFFCB933BD6FAD37AA2D162D1A594001 JUMPDEST PUSH17 0xFFFFFFFFFFFFFFFFFFFFFFFFFFFFFFFFFF AND SWAP1 POP PUSH1 0x0 PUSH1 0x2 DUP4 AND EQ PUSH2 0x1DFF JUMPI PUSH1 0x80 PUSH16 0xFFF97272373D413259A46990580E213A DUP3 PUSH2 0x1DFA SWAP2 SWAP1 PUSH2 0x3F0B JUMP JUMPDEST SWAP1 SHR SWAP1 POP JUMPDEST PUSH1 0x0 PUSH1 0x4 DUP4 AND EQ PUSH2 0x1E2D JUMPI PUSH1 0x80 PUSH16 0xFFF2E50F5F656932EF12357CF3C7FDCC DUP3 PUSH2 0x1E28 SWAP2 SWAP1 PUSH2 0x3F0B JUMP JUMPDEST SWAP1 SHR SWAP1 POP JUMPDEST PUSH1 0x0 PUSH1 0x8 DUP4 AND EQ PUSH2 0x1E5B JUMPI PUSH1 0x80 PUSH16 0xFFE5CACA7E10E4E61C3624EAA0941CD0 DUP3 PUSH2 0x1E56 SWAP2 SWAP1 PUSH2 0x3F0B JUMP JUMPDEST SWAP1 SHR SWAP1 POP JUMPDEST PUSH1 0x0 PUSH1 0x10 DUP4 AND EQ PUSH2 0x1E89 JUMPI PUSH1 0x80 PUSH16 0xFFCB9843D60F6159C9DB58835C926644 DUP3 PUSH2 0x1E84 SWAP2 SWAP1 PUSH2 0x3F0B JUMP JUMPDEST SWAP1 SHR SWAP1 POP JUMPDEST PUSH1 0x0 PUSH1 0x20 DUP4 AND EQ PUSH2 0x1EB7 JUMPI PUSH1 0x80 PUSH16 0xFF973B41FA98C081472E6896DFB254C0 DUP3 PUSH2 0x1EB2 SWAP2 SWAP1 PUSH2 0x3F0B JUMP JUMPDEST SWAP1 SHR SWAP1 POP JUMPDEST PUSH1 0x0 PUSH1 0x40 DUP4 AND EQ PUSH2 0x1EE5 JUMPI PUSH1 0x80 PUSH16 0xFF2EA16466C96A3843EC78B326B52861 DUP3 PUSH2 0x1EE0 SWAP2 SWAP1 PUSH2 0x3F0B JUMP JUMPDEST SWAP1 SHR SWAP1 POP JUMPDEST PUSH1 0x0 PUSH1 0x80 DUP4 AND EQ PUSH2 0x1F13 JUMPI PUSH1 0x80 PUSH16 0xFE5DEE046A99A2A811C461F1969C3053 DUP3 PUSH2 0x1F0E SWAP2 SWAP1 PUSH2 0x3F0B JUMP JUMPDEST SWAP1 SHR SWAP1 POP JUMPDEST PUSH1 0x0 PUSH2 0x100 DUP4 AND EQ PUSH2 0x1F42 JUMPI PUSH1 0x80 PUSH16 0xFCBE86C7900A88AEDCFFC83B479AA3A4 DUP3 PUSH2 0x1F3D SWAP2 SWAP1 PUSH2 0x3F0B JUMP JUMPDEST SWAP1 SHR SWAP1 POP JUMPDEST PUSH1 0x0 PUSH2 0x200 DUP4 AND EQ PUSH2 0x1F71 JUMPI PUSH1 0x80 PUSH16 0xF987A7253AC413176F2B074CF7815E54 DUP3 PUSH2 0x1F6C SWAP2 SWAP1 PUSH2 0x3F0B JUMP JUMPDEST SWAP1 SHR SWAP1 POP JUMPDEST PUSH1 0x0 PUSH2 0x400 DUP4 AND EQ PUSH2 0x1FA0 JUMPI PUSH1 0x80 PUSH16 0xF3392B0822B70005940C7A398E4B70F3 DUP3 PUSH2 0x1F9B SWAP2 SWAP1 PUSH2 0x3F0B JUMP JUMPDEST SWAP1 SHR SWAP1 POP JUMPDEST PUSH1 0x0 PUSH2 0x800 DUP4 AND EQ PUSH2 0x1FCF JUMPI PUSH1 0x80 PUSH16 0xE7159475A2C29B7443B29C7FA6E889D9 DUP3 PUSH2 0x1FCA SWAP2 SWAP1 PUSH2 0x3F0B JUMP JUMPDEST SWAP1 SHR SWAP1 POP JUMPDEST PUSH1 0x0 PUSH2 0x1000 DUP4 AND EQ PUSH2 0x1FFE JUMPI PUSH1 0x80 PUSH16 0xD097F3BDFD2022B8845AD8F792AA5825 DUP3 PUSH2 0x1FF9 SWAP2 SWAP1 PUSH2 0x3F0B JUMP JUMPDEST SWAP1 SHR SWAP1 POP JUMPDEST PUSH1 0x0 PUSH2 0x2000 DUP4 AND EQ PUSH2 0x202D JUMPI PUSH1 0x80 PUSH16 0xA9F746462D870FDF8A65DC1F90E061E5 DUP3 PUSH2 0x2028 SWAP2 SWAP1 PUSH2 0x3F0B JUMP JUMPDEST SWAP1 SHR SWAP1 POP JUMPDEST PUSH1 0x0 PUSH2 0x4000 DUP4 AND EQ PUSH2 0x205C JUMPI PUSH1 0x80 PUSH16 0x70D869A156D2A1B890BB3DF62BAF32F7 DUP3 PUSH2 0x2057 SWAP2 SWAP1 PUSH2 0x3F0B JUMP JUMPDEST SWAP1 SHR SWAP1 POP JUMPDEST PUSH1 0x0 PUSH2 0x8000 DUP4 AND EQ PUSH2 0x208B JUMPI PUSH1 0x80 PUSH16 0x31BE135F97D08FD981231505542FCFA6 DUP3 PUSH2 0x2086 SWAP2 SWAP1 PUSH2 0x3F0B JUMP JUMPDEST SWAP1 SHR SWAP1 POP JUMPDEST PUSH1 0x0 PUSH3 0x10000 DUP4 AND EQ PUSH2 0x20BB JUMPI PUSH1 0x80 PUSH16 0x9AA508B5B7A84E1C677DE54F3E99BC9 DUP3 PUSH2 0x20B6 SWAP2 SWAP1 PUSH2 0x3F0B JUMP JUMPDEST SWAP1 SHR SWAP1 POP JUMPDEST PUSH1 0x0 PUSH3 0x20000 DUP4 AND EQ PUSH2 0x20EA JUMPI PUSH1 0x80 PUSH15 0x5D6AF8DEDB81196699C329225EE604 DUP3 PUSH2 0x20E5 SWAP2 SWAP1 PUSH2 0x3F0B JUMP JUMPDEST SWAP1 SHR SWAP1 POP JUMPDEST PUSH1 0x0 PUSH3 0x40000 DUP4 AND EQ PUSH2 0x2118 JUMPI PUSH1 0x80 PUSH14 0x2216E584F5FA1EA926041BEDFE98 DUP3 PUSH2 0x2113 SWAP2 SWAP1 PUSH2 0x3F0B JUMP JUMPDEST SWAP1 SHR SWAP1 POP JUMPDEST PUSH1 0x0 PUSH3 0x80000 DUP4 AND EQ PUSH2 0x2144 JUMPI PUSH1 0x80 PUSH12 0x48A170391F7DC42444E8FA2 DUP3 PUSH2 0x213F SWAP2 SWAP1 PUSH2 0x3F0B JUMP JUMPDEST SWAP1 SHR SWAP1 POP JUMPDEST PUSH1 0x0 DUP5 PUSH1 0x2 SIGNEXTEND SGT ISZERO PUSH2 0x217F JUMPI DUP1 PUSH32 0xFFFFFFFFFFFFFFFFFFFFFFFFFFFFFFFFFFFFFFFFFFFFFFFFFFFFFFFFFFFFFFFF PUSH2 0x217C SWAP2 SWAP1 PUSH2 0x3F4D JUMP JUMPDEST SWAP1 POP JUMPDEST PUSH1 0x0 PUSH5 0x100000000 DUP3 PUSH2 0x2192 SWAP2 SWAP1 PUSH2 0x3F7E JUMP JUMPDEST EQ PUSH2 0x219E JUMPI PUSH1 0x1 PUSH2 0x21A1 JUMP JUMPDEST PUSH1 0x0 JUMPDEST PUSH1 0xFF AND PUSH1 0x20 DUP3 SWAP1 SHR PUSH2 0x21B3 SWAP2 SWAP1 PUSH2 0x3942 JUMP JUMPDEST SWAP3 POP POP POP SWAP2 SWAP1 POP JUMP JUMPDEST PUSH1 0x0 DUP3 PUSH20 0xFFFFFFFFFFFFFFFFFFFFFFFFFFFFFFFFFFFFFFFF AND DUP5 PUSH20 0xFFFFFFFFFFFFFFFFFFFFFFFFFFFFFFFFFFFFFFFF AND GT ISZERO PUSH2 0x21FD JUMPI DUP3 DUP5 DUP1 SWAP5 POP DUP2 SWAP6 POP POP POP JUMPDEST PUSH1 0x0 DUP5 PUSH20 0xFFFFFFFFFFFFFFFFFFFFFFFFFFFFFFFFFFFFFFFF AND GT PUSH2 0x2220 JUMPI PUSH1 0x0 DUP1 REVERT JUMPDEST PUSH2 0x229A PUSH2 0x227E PUSH1 0x60 PUSH1 0xFF AND DUP5 PUSH16 0xFFFFFFFFFFFFFFFFFFFFFFFFFFFFFFFF AND SWAP1 SHL DUP7 DUP7 PUSH2 0x224C SWAP2 SWAP1 PUSH2 0x3FAF JUMP JUMPDEST PUSH20 0xFFFFFFFFFFFFFFFFFFFFFFFFFFFFFFFFFFFFFFFF AND DUP7 PUSH20 0xFFFFFFFFFFFFFFFFFFFFFFFFFFFFFFFFFFFFFFFF AND PUSH2 0x2BAD JUMP JUMPDEST DUP6 PUSH20 0xFFFFFFFFFFFFFFFFFFFFFFFFFFFFFFFFFFFFFFFF AND PUSH2 0x2C18 JUMP JUMPDEST SWAP1 POP SWAP4 SWAP3 POP POP POP JUMP JUMPDEST PUSH1 0x0 DUP3 PUSH20 0xFFFFFFFFFFFFFFFFFFFFFFFFFFFFFFFFFFFFFFFF AND DUP5 PUSH20 0xFFFFFFFFFFFFFFFFFFFFFFFFFFFFFFFFFFFFFFFF AND GT ISZERO PUSH2 0x22E4 JUMPI DUP3 DUP5 DUP1 SWAP5 POP DUP2 SWAP6 POP POP POP JUMPDEST PUSH2 0x232F DUP3 PUSH16 0xFFFFFFFFFFFFFFFFFFFFFFFFFFFFFFFF AND DUP6 DUP6 PUSH2 0x2306 SWAP2 SWAP1 PUSH2 0x3FAF JUMP JUMPDEST PUSH20 0xFFFFFFFFFFFFFFFFFFFFFFFFFFFFFFFFFFFFFFFF AND PUSH13 0x1000000000000000000000000 PUSH2 0x2BAD JUMP JUMPDEST SWAP1 POP SWAP4 SWAP3 POP POP POP JUMP JUMPDEST PUSH1 0x0 DUP1 DUP3 PUSH1 0xF SIGNEXTEND SLT ISZERO PUSH2 0x2361 JUMPI DUP2 PUSH2 0x234F SWAP1 PUSH2 0x3AC0 JUMP JUMPDEST DUP4 PUSH2 0x235A SWAP2 SWAP1 PUSH2 0x3FF7 JUMP JUMPDEST SWAP1 POP PUSH2 0x2370 JUMP JUMPDEST DUP2 DUP4 PUSH2 0x236D SWAP2 SWAP1 PUSH2 0x3E4A JUMP JUMPDEST SWAP1 POP JUMPDEST SWAP3 SWAP2 POP POP JUMP JUMPDEST PUSH1 0x0 PUSH32 0x0 PUSH20 0xFFFFFFFFFFFFFFFFFFFFFFFFFFFFFFFFFFFFFFFF AND PUSH4 0x70A08231 ADDRESS PUSH1 0x40 MLOAD DUP3 PUSH4 0xFFFFFFFF AND PUSH1 0xE0 SHL DUP2 MSTORE PUSH1 0x4 ADD PUSH2 0x23D1 SWAP2 SWAP1 PUSH2 0x31F0 JUMP JUMPDEST PUSH1 0x20 PUSH1 0x40 MLOAD DUP1 DUP4 SUB DUP2 DUP7 GAS STATICCALL ISZERO DUP1 ISZERO PUSH2 0x23EE JUMPI RETURNDATASIZE PUSH1 0x0 DUP1 RETURNDATACOPY RETURNDATASIZE PUSH1 0x0 REVERT JUMPDEST POP POP POP POP PUSH1 0x40 MLOAD RETURNDATASIZE PUSH1 0x1F NOT PUSH1 0x1F DUP3 ADD AND DUP3 ADD DUP1 PUSH1 0x40 MSTORE POP DUP2 ADD SWAP1 PUSH2 0x2412 SWAP2 SWAP1 PUSH2 0x39D0 JUMP JUMPDEST SWAP1 POP SWAP1 JUMP JUMPDEST PUSH1 0x0 PUSH32 0x0 PUSH20 0xFFFFFFFFFFFFFFFFFFFFFFFFFFFFFFFFFFFFFFFF AND PUSH4 0x70A08231 ADDRESS PUSH1 0x40 MLOAD DUP3 PUSH4 0xFFFFFFFF AND PUSH1 0xE0 SHL DUP2 MSTORE PUSH1 0x4 ADD PUSH2 0x2472 SWAP2 SWAP1 PUSH2 0x31F0 JUMP JUMPDEST PUSH1 0x20 PUSH1 0x40 MLOAD DUP1 DUP4 SUB DUP2 DUP7 GAS STATICCALL ISZERO DUP1 ISZERO PUSH2 0x248F JUMPI RETURNDATASIZE PUSH1 0x0 DUP1 RETURNDATACOPY RETURNDATASIZE PUSH1 0x0 REVERT JUMPDEST POP POP POP POP PUSH1 0x40 MLOAD RETURNDATASIZE PUSH1 0x1F NOT PUSH1 0x1F DUP3 ADD AND DUP3 ADD DUP1 PUSH1 0x40 MSTORE POP DUP2 ADD SWAP1 PUSH2 0x24B3 SWAP2 SWAP1 PUSH2 0x39D0 JUMP JUMPDEST SWAP1 POP SWAP1 JUMP JUMPDEST PUSH1 0x0 DUP1 PUSH1 0x0 DUP5 DUP7 PUSH2 0x24C9 SWAP2 SWAP1 PUSH2 0x3D25 JUMP JUMPDEST SWAP1 POP PUSH1 0x0 DUP7 PUSH1 0x2 SIGNEXTEND SLT DUP1 ISZERO PUSH2 0x24ED JUMPI POP PUSH1 0x0 DUP6 DUP8 PUSH2 0x24E7 SWAP2 SWAP1 PUSH2 0x3CF4 JUMP JUMPDEST PUSH1 0x2 SIGNEXTEND EQ ISZERO JUMPDEST ISZERO PUSH2 0x2501 JUMPI DUP1 DUP1 PUSH2 0x24FD SWAP1 PUSH2 0x403B JUMP JUMPDEST SWAP2 POP POP JUMPDEST DUP4 ISZERO PUSH2 0x25C4 JUMPI PUSH1 0x0 DUP1 PUSH2 0x2513 DUP4 PUSH2 0x2B8B JUMP JUMPDEST SWAP2 POP SWAP2 POP PUSH1 0x0 DUP2 PUSH1 0xFF AND PUSH1 0x1 SWAP1 SHL PUSH1 0x1 DUP4 PUSH1 0xFF AND PUSH1 0x1 SWAP1 SHL PUSH2 0x2535 SWAP2 SWAP1 PUSH2 0x3A8C JUMP JUMPDEST PUSH2 0x253F SWAP2 SWAP1 PUSH2 0x3942 JUMP JUMPDEST SWAP1 POP PUSH1 0x0 DUP2 DUP12 PUSH1 0x0 DUP7 PUSH1 0x1 SIGNEXTEND PUSH1 0x1 SIGNEXTEND DUP2 MSTORE PUSH1 0x20 ADD SWAP1 DUP2 MSTORE PUSH1 0x20 ADD PUSH1 0x0 KECCAK256 SLOAD AND SWAP1 POP PUSH1 0x0 DUP2 EQ ISZERO SWAP6 POP DUP6 PUSH2 0x258B JUMPI DUP9 DUP4 PUSH1 0xFF AND DUP7 PUSH2 0x257C SWAP2 SWAP1 PUSH2 0x3B08 JUMP JUMPDEST PUSH2 0x2586 SWAP2 SWAP1 PUSH2 0x4083 JUMP JUMPDEST PUSH2 0x25B9 JUMP JUMPDEST DUP9 PUSH2 0x2595 DUP3 PUSH2 0x2C2B JUMP JUMPDEST DUP5 PUSH2 0x25A0 SWAP2 SWAP1 PUSH2 0x40CD JUMP JUMPDEST PUSH1 0xFF AND DUP7 PUSH2 0x25AE SWAP2 SWAP1 PUSH2 0x3B08 JUMP JUMPDEST PUSH2 0x25B8 SWAP2 SWAP1 PUSH2 0x4083 JUMP JUMPDEST JUMPDEST SWAP7 POP POP POP POP POP PUSH2 0x269C JUMP JUMPDEST PUSH1 0x0 DUP1 PUSH2 0x25DC PUSH1 0x1 DUP5 PUSH2 0x25D7 SWAP2 SWAP1 PUSH2 0x4102 JUMP JUMPDEST PUSH2 0x2B8B JUMP JUMPDEST SWAP2 POP SWAP2 POP PUSH1 0x0 PUSH1 0x1 DUP3 PUSH1 0xFF AND PUSH1 0x1 SWAP1 SHL PUSH2 0x25F6 SWAP2 SWAP1 PUSH2 0x3A8C JUMP JUMPDEST NOT SWAP1 POP PUSH1 0x0 DUP2 DUP12 PUSH1 0x0 DUP7 PUSH1 0x1 SIGNEXTEND PUSH1 0x1 SIGNEXTEND DUP2 MSTORE PUSH1 0x20 ADD SWAP1 DUP2 MSTORE PUSH1 0x20 ADD PUSH1 0x0 KECCAK256 SLOAD AND SWAP1 POP PUSH1 0x0 DUP2 EQ ISZERO SWAP6 POP DUP6 PUSH2 0x265B JUMPI DUP9 DUP4 PUSH1 0xFF PUSH2 0x2632 SWAP2 SWAP1 PUSH2 0x40CD JUMP JUMPDEST PUSH1 0xFF AND PUSH1 0x1 DUP8 PUSH2 0x2642 SWAP2 SWAP1 PUSH2 0x4102 JUMP JUMPDEST PUSH2 0x264C SWAP2 SWAP1 PUSH2 0x4102 JUMP JUMPDEST PUSH2 0x2656 SWAP2 SWAP1 PUSH2 0x4083 JUMP JUMPDEST PUSH2 0x2695 JUMP JUMPDEST DUP9 DUP4 PUSH2 0x2666 DUP4 PUSH2 0x2D4E JUMP JUMPDEST PUSH2 0x2670 SWAP2 SWAP1 PUSH2 0x40CD JUMP JUMPDEST PUSH1 0xFF AND PUSH1 0x1 DUP8 PUSH2 0x2680 SWAP2 SWAP1 PUSH2 0x4102 JUMP JUMPDEST PUSH2 0x268A SWAP2 SWAP1 PUSH2 0x4102 JUMP JUMPDEST PUSH2 0x2694 SWAP2 SWAP1 PUSH2 0x4083 JUMP JUMPDEST JUMPDEST SWAP7 POP POP POP POP POP JUMPDEST POP SWAP5 POP SWAP5 SWAP3 POP POP POP JUMP JUMPDEST PUSH1 0x0 DUP1 PUSH1 0x0 DUP1 DUP7 PUSH20 0xFFFFFFFFFFFFFFFFFFFFFFFFFFFFFFFFFFFFFFFF AND DUP9 PUSH20 0xFFFFFFFFFFFFFFFFFFFFFFFFFFFFFFFFFFFFFFFF AND LT ISZERO SWAP1 POP DUP1 PUSH2 0x26F3 JUMPI PUSH2 0x26EE DUP9 DUP9 DUP9 PUSH2 0x22A3 JUMP JUMPDEST PUSH2 0x26FF JUMP JUMPDEST PUSH2 0x26FE DUP9 DUP9 DUP9 PUSH2 0x21BC JUMP JUMPDEST JUMPDEST SWAP3 POP DUP3 DUP6 LT PUSH2 0x2710 JUMPI DUP7 SWAP4 POP PUSH2 0x271F JUMP JUMPDEST PUSH2 0x271C DUP9 DUP8 DUP8 DUP5 PUSH2 0x2EBD JUMP JUMPDEST SWAP4 POP JUMPDEST PUSH2 0x272A DUP9 DUP6 DUP9 PUSH2 0x21BC JUMP JUMPDEST SWAP3 POP PUSH2 0x2737 DUP9 DUP6 DUP9 PUSH2 0x22A3 JUMP JUMPDEST SWAP2 POP DUP1 PUSH2 0x2749 JUMPI DUP2 DUP4 DUP1 SWAP4 POP DUP2 SWAP5 POP POP POP JUMPDEST POP SWAP5 POP SWAP5 POP SWAP5 SWAP2 POP POP JUMP JUMPDEST PUSH1 0x0 DUP1 DUP4 PUSH1 0x0 DUP5 PUSH1 0x2 SIGNEXTEND PUSH1 0x2 SIGNEXTEND DUP2 MSTORE PUSH1 0x20 ADD SWAP1 DUP2 MSTORE PUSH1 0x20 ADD PUSH1 0x0 KECCAK256 SWAP1 POP DUP1 PUSH1 0x1 ADD PUSH1 0x0 SWAP1 SLOAD SWAP1 PUSH2 0x100 EXP SWAP1 DIV PUSH1 0xF SIGNEXTEND SWAP2 POP POP SWAP3 SWAP2 POP POP JUMP JUMPDEST PUSH1 0x0 PUSH5 0x1000276A3 PUSH20 0xFFFFFFFFFFFFFFFFFFFFFFFFFFFFFFFFFFFFFFFF AND DUP3 PUSH20 0xFFFFFFFFFFFFFFFFFFFFFFFFFFFFFFFFFFFFFFFF AND LT ISZERO DUP1 ISZERO PUSH2 0x280E JUMPI POP PUSH20 0xFFFD8963EFD1FC6A506488495D951D5263988D26 PUSH20 0xFFFFFFFFFFFFFFFFFFFFFFFFFFFFFFFFFFFFFFFF AND DUP3 PUSH20 0xFFFFFFFFFFFFFFFFFFFFFFFFFFFFFFFFFFFFFFFF AND LT JUMPDEST PUSH2 0x284D JUMPI PUSH1 0x40 MLOAD PUSH32 0x8C379A000000000000000000000000000000000000000000000000000000000 DUP2 MSTORE PUSH1 0x4 ADD PUSH2 0x2844 SWAP1 PUSH2 0x41A9 JUMP JUMPDEST PUSH1 0x40 MLOAD DUP1 SWAP2 SUB SWAP1 REVERT JUMPDEST PUSH1 0x0 PUSH1 0x20 DUP4 PUSH20 0xFFFFFFFFFFFFFFFFFFFFFFFFFFFFFFFFFFFFFFFF AND SWAP1 SHL SWAP1 POP PUSH1 0x0 DUP2 SWAP1 POP PUSH1 0x0 PUSH16 0xFFFFFFFFFFFFFFFFFFFFFFFFFFFFFFFF DUP3 GT PUSH1 0x7 SHL DUP1 DUP3 OR SWAP2 POP DUP3 DUP2 SHR SWAP3 POP POP PUSH8 0xFFFFFFFFFFFFFFFF DUP3 GT PUSH1 0x6 SHL DUP1 DUP3 OR SWAP2 POP DUP3 DUP2 SHR SWAP3 POP POP PUSH4 0xFFFFFFFF DUP3 GT PUSH1 0x5 SHL DUP1 DUP3 OR SWAP2 POP DUP3 DUP2 SHR SWAP3 POP POP PUSH2 0xFFFF DUP3 GT PUSH1 0x4 SHL DUP1 DUP3 OR SWAP2 POP DUP3 DUP2 SHR SWAP3 POP POP PUSH1 0xFF DUP3 GT PUSH1 0x3 SHL DUP1 DUP3 OR SWAP2 POP DUP3 DUP2 SHR SWAP3 POP POP PUSH1 0xF DUP3 GT PUSH1 0x2 SHL DUP1 DUP3 OR SWAP2 POP DUP3 DUP2 SHR SWAP3 POP POP PUSH1 0x3 DUP3 GT PUSH1 0x1 SHL DUP1 DUP3 OR SWAP2 POP DUP3 DUP2 SHR SWAP3 POP POP PUSH1 0x1 DUP3 GT DUP1 DUP3 OR SWAP2 POP POP PUSH1 0x80 DUP2 LT PUSH2 0x2934 JUMPI PUSH1 0x7F DUP2 PUSH2 0x292A SWAP2 SWAP1 PUSH2 0x3A8C JUMP JUMPDEST DUP4 SWAP1 SHR SWAP2 POP PUSH2 0x2947 JUMP JUMPDEST DUP1 PUSH1 0x7F PUSH2 0x2941 SWAP2 SWAP1 PUSH2 0x3A8C JUMP JUMPDEST DUP4 SWAP1 SHL SWAP2 POP JUMPDEST PUSH1 0x0 PUSH1 0x40 PUSH1 0x80 DUP4 PUSH2 0x2958 SWAP2 SWAP1 PUSH2 0x3C82 JUMP JUMPDEST SWAP1 SHL SWAP1 POP DUP3 DUP4 MUL PUSH1 0x7F SHR SWAP3 POP DUP3 PUSH1 0x80 SHR DUP1 PUSH1 0x3F SHL DUP3 OR SWAP2 POP DUP4 DUP2 SHR SWAP4 POP POP DUP3 DUP4 MUL PUSH1 0x7F SHR SWAP3 POP DUP3 PUSH1 0x80 SHR DUP1 PUSH1 0x3E SHL DUP3 OR SWAP2 POP DUP4 DUP2 SHR SWAP4 POP POP DUP3 DUP4 MUL PUSH1 0x7F SHR SWAP3 POP DUP3 PUSH1 0x80 SHR DUP1 PUSH1 0x3D SHL DUP3 OR SWAP2 POP DUP4 DUP2 SHR SWAP4 POP POP DUP3 DUP4 MUL PUSH1 0x7F SHR SWAP3 POP DUP3 PUSH1 0x80 SHR DUP1 PUSH1 0x3C SHL DUP3 OR SWAP2 POP DUP4 DUP2 SHR SWAP4 POP POP DUP3 DUP4 MUL PUSH1 0x7F SHR SWAP3 POP DUP3 PUSH1 0x80 SHR DUP1 PUSH1 0x3B SHL DUP3 OR SWAP2 POP DUP4 DUP2 SHR SWAP4 POP POP DUP3 DUP4 MUL PUSH1 0x7F SHR SWAP3 POP DUP3 PUSH1 0x80 SHR DUP1 PUSH1 0x3A SHL DUP3 OR SWAP2 POP DUP4 DUP2 SHR SWAP4 POP POP DUP3 DUP4 MUL PUSH1 0x7F SHR SWAP3 POP DUP3 PUSH1 0x80 SHR DUP1 PUSH1 0x39 SHL DUP3 OR SWAP2 POP DUP4 DUP2 SHR SWAP4 POP POP DUP3 DUP4 MUL PUSH1 0x7F SHR SWAP3 POP DUP3 PUSH1 0x80 SHR DUP1 PUSH1 0x38 SHL DUP3 OR SWAP2 POP DUP4 DUP2 SHR SWAP4 POP POP DUP3 DUP4 MUL PUSH1 0x7F SHR SWAP3 POP DUP3 PUSH1 0x80 SHR DUP1 PUSH1 0x37 SHL DUP3 OR SWAP2 POP DUP4 DUP2 SHR SWAP4 POP POP DUP3 DUP4 MUL PUSH1 0x7F SHR SWAP3 POP DUP3 PUSH1 0x80 SHR DUP1 PUSH1 0x36 SHL DUP3 OR SWAP2 POP DUP4 DUP2 SHR SWAP4 POP POP DUP3 DUP4 MUL PUSH1 0x7F SHR SWAP3 POP DUP3 PUSH1 0x80 SHR DUP1 PUSH1 0x35 SHL DUP3 OR SWAP2 POP DUP4 DUP2 SHR SWAP4 POP POP DUP3 DUP4 MUL PUSH1 0x7F SHR SWAP3 POP DUP3 PUSH1 0x80 SHR DUP1 PUSH1 0x34 SHL DUP3 OR SWAP2 POP DUP4 DUP2 SHR SWAP4 POP POP DUP3 DUP4 MUL PUSH1 0x7F SHR SWAP3 POP DUP3 PUSH1 0x80 SHR DUP1 PUSH1 0x33 SHL DUP3 OR SWAP2 POP DUP4 DUP2 SHR SWAP4 POP POP DUP3 DUP4 MUL PUSH1 0x7F SHR SWAP3 POP DUP3 PUSH1 0x80 SHR DUP1 PUSH1 0x32 SHL DUP3 OR SWAP2 POP POP PUSH1 0x0 PUSH10 0x3627A301D71055774C85 DUP3 PUSH2 0x2ADB SWAP2 SWAP1 PUSH2 0x41C9 JUMP JUMPDEST SWAP1 POP PUSH1 0x0 PUSH1 0x80 PUSH16 0x28F6481AB7F045A5AF012A19D003AAA DUP4 PUSH2 0x2AFD SWAP2 SWAP1 PUSH2 0x3C82 JUMP JUMPDEST SWAP1 SAR SWAP1 POP PUSH1 0x0 PUSH1 0x80 PUSH16 0xDB2DF09E81959A81455E260799A0632F DUP5 PUSH2 0x2B21 SWAP2 SWAP1 PUSH2 0x3C3E JUMP JUMPDEST SWAP1 SAR SWAP1 POP DUP1 PUSH1 0x2 SIGNEXTEND DUP3 PUSH1 0x2 SIGNEXTEND EQ PUSH2 0x2B7B JUMPI DUP9 PUSH20 0xFFFFFFFFFFFFFFFFFFFFFFFFFFFFFFFFFFFFFFFF AND PUSH2 0x2B52 DUP3 PUSH2 0x1CEF JUMP JUMPDEST PUSH20 0xFFFFFFFFFFFFFFFFFFFFFFFFFFFFFFFFFFFFFFFF AND GT ISZERO PUSH2 0x2B74 JUMPI DUP2 PUSH2 0x2B76 JUMP JUMPDEST DUP1 JUMPDEST PUSH2 0x2B7D JUMP JUMPDEST DUP2 JUMPDEST SWAP8 POP POP POP POP POP POP POP POP SWAP2 SWAP1 POP JUMP JUMPDEST PUSH1 0x0 DUP1 PUSH1 0x8 DUP4 PUSH1 0x2 SIGNEXTEND SWAP1 SAR SWAP2 POP PUSH2 0x100 DUP4 PUSH2 0x2BA6 SWAP2 SWAP1 PUSH2 0x3CF4 JUMP JUMPDEST SWAP1 POP SWAP2 POP SWAP2 JUMP JUMPDEST PUSH1 0x0 PUSH2 0x2BBA DUP5 DUP5 DUP5 PUSH2 0x2EEA JUMP JUMPDEST SWAP1 POP PUSH1 0x0 DUP3 DUP1 PUSH2 0x2BCD JUMPI PUSH2 0x2BCC PUSH2 0x3CC5 JUMP JUMPDEST JUMPDEST DUP5 DUP7 MULMOD GT ISZERO PUSH2 0x2C11 JUMPI PUSH32 0xFFFFFFFFFFFFFFFFFFFFFFFFFFFFFFFFFFFFFFFFFFFFFFFFFFFFFFFFFFFFFFFF DUP2 LT PUSH2 0x2C02 JUMPI PUSH1 0x0 DUP1 REVERT JUMPDEST DUP1 DUP1 PUSH2 0x2C0D SWAP1 PUSH2 0x4241 JUMP JUMPDEST SWAP2 POP POP JUMPDEST SWAP4 SWAP3 POP POP POP JUMP JUMPDEST PUSH1 0x0 DUP1 DUP3 DUP5 MOD GT DUP3 DUP5 DIV ADD SWAP1 POP SWAP3 SWAP2 POP POP JUMP JUMPDEST PUSH1 0x0 DUP1 DUP3 GT PUSH2 0x2C39 JUMPI PUSH1 0x0 DUP1 REVERT JUMPDEST PUSH17 0x100000000000000000000000000000000 DUP3 LT PUSH2 0x2C68 JUMPI PUSH1 0x80 DUP3 SWAP1 SHR SWAP2 POP PUSH1 0x80 DUP2 PUSH2 0x2C65 SWAP2 SWAP1 PUSH2 0x4289 JUMP JUMPDEST SWAP1 POP JUMPDEST PUSH9 0x10000000000000000 DUP3 LT PUSH2 0x2C8F JUMPI PUSH1 0x40 DUP3 SWAP1 SHR SWAP2 POP PUSH1 0x40 DUP2 PUSH2 0x2C8C SWAP2 SWAP1 PUSH2 0x4289 JUMP JUMPDEST SWAP1 POP JUMPDEST PUSH5 0x100000000 DUP3 LT PUSH2 0x2CB2 JUMPI PUSH1 0x20 DUP3 SWAP1 SHR SWAP2 POP PUSH1 0x20 DUP2 PUSH2 0x2CAF SWAP2 SWAP1 PUSH2 0x4289 JUMP JUMPDEST SWAP1 POP JUMPDEST PUSH3 0x10000 DUP3 LT PUSH2 0x2CD3 JUMPI PUSH1 0x10 DUP3 SWAP1 SHR SWAP2 POP PUSH1 0x10 DUP2 PUSH2 0x2CD0 SWAP2 SWAP1 PUSH2 0x4289 JUMP JUMPDEST SWAP1 POP JUMPDEST PUSH2 0x100 DUP3 LT PUSH2 0x2CF3 JUMPI PUSH1 0x8 DUP3 SWAP1 SHR SWAP2 POP PUSH1 0x8 DUP2 PUSH2 0x2CF0 SWAP2 SWAP1 PUSH2 0x4289 JUMP JUMPDEST SWAP1 POP JUMPDEST PUSH1 0x10 DUP3 LT PUSH2 0x2D12 JUMPI PUSH1 0x4 DUP3 SWAP1 SHR SWAP2 POP PUSH1 0x4 DUP2 PUSH2 0x2D0F SWAP2 SWAP1 PUSH2 0x4289 JUMP JUMPDEST SWAP1 POP JUMPDEST PUSH1 0x4 DUP3 LT PUSH2 0x2D31 JUMPI PUSH1 0x2 DUP3 SWAP1 SHR SWAP2 POP PUSH1 0x2 DUP2 PUSH2 0x2D2E SWAP2 SWAP1 PUSH2 0x4289 JUMP JUMPDEST SWAP1 POP JUMPDEST PUSH1 0x2 DUP3 LT PUSH2 0x2D49 JUMPI PUSH1 0x1 DUP2 PUSH2 0x2D46 SWAP2 SWAP1 PUSH2 0x4289 JUMP JUMPDEST SWAP1 POP JUMPDEST SWAP2 SWAP1 POP JUMP JUMPDEST PUSH1 0x0 DUP1 DUP3 GT PUSH2 0x2D5C JUMPI PUSH1 0x0 DUP1 REVERT JUMPDEST PUSH1 0xFF SWAP1 POP PUSH1 0x0 PUSH16 0xFFFFFFFFFFFFFFFFFFFFFFFFFFFFFFFF DUP1 AND DUP4 AND GT ISZERO PUSH2 0x2D91 JUMPI PUSH1 0x80 DUP2 PUSH2 0x2D8A SWAP2 SWAP1 PUSH2 0x40CD JUMP JUMPDEST SWAP1 POP PUSH2 0x2D99 JUMP JUMPDEST PUSH1 0x80 DUP3 SWAP1 SHR SWAP2 POP JUMPDEST PUSH1 0x0 PUSH8 0xFFFFFFFFFFFFFFFF DUP1 AND DUP4 AND GT ISZERO PUSH2 0x2DC2 JUMPI PUSH1 0x40 DUP2 PUSH2 0x2DBB SWAP2 SWAP1 PUSH2 0x40CD JUMP JUMPDEST SWAP1 POP PUSH2 0x2DCA JUMP JUMPDEST PUSH1 0x40 DUP3 SWAP1 SHR SWAP2 POP JUMPDEST PUSH1 0x0 PUSH4 0xFFFFFFFF DUP1 AND DUP4 AND GT ISZERO PUSH2 0x2DEF JUMPI PUSH1 0x20 DUP2 PUSH2 0x2DE8 SWAP2 SWAP1 PUSH2 0x40CD JUMP JUMPDEST SWAP1 POP PUSH2 0x2DF7 JUMP JUMPDEST PUSH1 0x20 DUP3 SWAP1 SHR SWAP2 POP JUMPDEST PUSH1 0x0 PUSH2 0xFFFF DUP1 AND DUP4 AND GT ISZERO PUSH2 0x2E1A JUMPI PUSH1 0x10 DUP2 PUSH2 0x2E13 SWAP2 SWAP1 PUSH2 0x40CD JUMP JUMPDEST SWAP1 POP PUSH2 0x2E22 JUMP JUMPDEST PUSH1 0x10 DUP3 SWAP1 SHR SWAP2 POP JUMPDEST PUSH1 0x0 PUSH1 0xFF DUP1 AND DUP4 AND GT ISZERO PUSH2 0x2E44 JUMPI PUSH1 0x8 DUP2 PUSH2 0x2E3D SWAP2 SWAP1 PUSH2 0x40CD JUMP JUMPDEST SWAP1 POP PUSH2 0x2E4C JUMP JUMPDEST PUSH1 0x8 DUP3 SWAP1 SHR SWAP2 POP JUMPDEST PUSH1 0x0 PUSH1 0xF DUP4 AND GT ISZERO PUSH2 0x2E6C JUMPI PUSH1 0x4 DUP2 PUSH2 0x2E65 SWAP2 SWAP1 PUSH2 0x40CD JUMP JUMPDEST SWAP1 POP PUSH2 0x2E74 JUMP JUMPDEST PUSH1 0x4 DUP3 SWAP1 SHR SWAP2 POP JUMPDEST PUSH1 0x0 PUSH1 0x3 DUP4 AND GT ISZERO PUSH2 0x2E94 JUMPI PUSH1 0x2 DUP2 PUSH2 0x2E8D SWAP2 SWAP1 PUSH2 0x40CD JUMP JUMPDEST SWAP1 POP PUSH2 0x2E9C JUMP JUMPDEST PUSH1 0x2 DUP3 SWAP1 SHR SWAP2 POP JUMPDEST PUSH1 0x0 PUSH1 0x1 DUP4 AND GT ISZERO PUSH2 0x2EB8 JUMPI PUSH1 0x1 DUP2 PUSH2 0x2EB5 SWAP2 SWAP1 PUSH2 0x40CD JUMP JUMPDEST SWAP1 POP JUMPDEST SWAP2 SWAP1 POP JUMP JUMPDEST PUSH1 0x0 DUP2 PUSH2 0x2ED4 JUMPI PUSH2 0x2ECF DUP6 DUP6 DUP6 PUSH2 0x2FFF JUMP JUMPDEST PUSH2 0x2EE0 JUMP JUMPDEST PUSH2 0x2EDF DUP6 DUP6 DUP6 PUSH2 0x3055 JUMP JUMPDEST JUMPDEST SWAP1 POP SWAP5 SWAP4 POP POP POP POP JUMP JUMPDEST PUSH1 0x0 DUP1 PUSH1 0x0 DUP1 NOT DUP6 DUP8 MULMOD DUP6 DUP8 MUL SWAP3 POP DUP3 DUP2 LT DUP4 DUP3 SUB SUB SWAP2 POP POP PUSH1 0x0 DUP2 SUB PUSH2 0x2F25 JUMPI DUP4 DUP3 DUP2 PUSH2 0x2F1B JUMPI PUSH2 0x2F1A PUSH2 0x3CC5 JUMP JUMPDEST JUMPDEST DIV SWAP3 POP POP POP PUSH2 0x2FF8 JUMP JUMPDEST DUP4 DUP2 LT PUSH2 0x2F6B JUMPI DUP1 DUP5 PUSH1 0x40 MLOAD PUSH32 0x773CC18C00000000000000000000000000000000000000000000000000000000 DUP2 MSTORE PUSH1 0x4 ADD PUSH2 0x2F62 SWAP3 SWAP2 SWAP1 PUSH2 0x344B JUMP JUMPDEST PUSH1 0x40 MLOAD DUP1 SWAP2 SUB SWAP1 REVERT JUMPDEST PUSH1 0x0 DUP5 DUP7 DUP9 MULMOD SWAP1 POP DUP3 DUP2 GT DUP3 SUB SWAP2 POP DUP1 DUP4 SUB SWAP3 POP PUSH1 0x0 PUSH1 0x1 DUP7 NOT ADD DUP7 AND SWAP1 POP DUP1 DUP7 DIV SWAP6 POP DUP1 DUP5 DIV SWAP4 POP PUSH1 0x1 DUP2 DUP3 PUSH1 0x0 SUB DIV ADD SWAP1 POP DUP1 DUP4 MUL DUP5 OR SWAP4 POP PUSH1 0x0 PUSH1 0x2 DUP8 PUSH1 0x3 MUL XOR SWAP1 POP DUP1 DUP8 MUL PUSH1 0x2 SUB DUP2 MUL SWAP1 POP DUP1 DUP8 MUL PUSH1 0x2 SUB DUP2 MUL SWAP1 POP DUP1 DUP8 MUL PUSH1 0x2 SUB DUP2 MUL SWAP1 POP DUP1 DUP8 MUL PUSH1 0x2 SUB DUP2 MUL SWAP1 POP DUP1 DUP8 MUL PUSH1 0x2 SUB DUP2 MUL SWAP1 POP DUP1 DUP8 MUL PUSH1 0x2 SUB DUP2 MUL SWAP1 POP DUP1 DUP6 MUL SWAP6 POP POP POP POP POP POP JUMPDEST SWAP4 SWAP3 POP POP POP JUMP JUMPDEST PUSH1 0x0 PUSH2 0x302B DUP3 PUSH13 0x1000000000000000000000000 DUP6 PUSH16 0xFFFFFFFFFFFFFFFFFFFFFFFFFFFFFFFF AND PUSH2 0x2EEA JUMP JUMPDEST DUP5 PUSH20 0xFFFFFFFFFFFFFFFFFFFFFFFFFFFFFFFFFFFFFFFF AND PUSH2 0x304C SWAP2 SWAP1 PUSH2 0x3942 JUMP JUMPDEST SWAP1 POP SWAP4 SWAP3 POP POP POP JUMP JUMPDEST PUSH1 0x0 DUP1 PUSH1 0x60 PUSH1 0xFF AND DUP5 PUSH16 0xFFFFFFFFFFFFFFFFFFFFFFFFFFFFFFFF AND SWAP1 SHL SWAP1 POP PUSH1 0x0 DUP6 PUSH20 0xFFFFFFFFFFFFFFFFFFFFFFFFFFFFFFFFFFFFFFFF AND DUP5 PUSH2 0x3098 SWAP2 SWAP1 PUSH2 0x3F0B JUMP JUMPDEST SWAP1 POP DUP6 PUSH20 0xFFFFFFFFFFFFFFFFFFFFFFFFFFFFFFFFFFFFFFFF AND DUP5 DUP3 PUSH2 0x30BD SWAP2 SWAP1 PUSH2 0x3F4D JUMP JUMPDEST SUB PUSH2 0x3106 JUMPI PUSH1 0x0 DUP2 DUP4 PUSH2 0x30D0 SWAP2 SWAP1 PUSH2 0x3942 JUMP JUMPDEST SWAP1 POP DUP3 DUP2 LT PUSH2 0x3104 JUMPI PUSH2 0x30FA DUP4 DUP9 PUSH20 0xFFFFFFFFFFFFFFFFFFFFFFFFFFFFFFFFFFFFFFFF AND DUP4 PUSH2 0x2BAD JUMP JUMPDEST SWAP4 POP POP POP POP PUSH2 0x3141 JUMP JUMPDEST POP JUMPDEST PUSH2 0x313C DUP3 DUP6 DUP9 PUSH20 0xFFFFFFFFFFFFFFFFFFFFFFFFFFFFFFFFFFFFFFFF AND DUP6 PUSH2 0x312D SWAP2 SWAP1 PUSH2 0x3F4D JUMP JUMPDEST PUSH2 0x3137 SWAP2 SWAP1 PUSH2 0x3942 JUMP JUMPDEST PUSH2 0x2C18 JUMP JUMPDEST SWAP3 POP POP POP JUMPDEST SWAP4 SWAP3 POP POP POP JUMP JUMPDEST PUSH1 0x40 MLOAD DUP1 PUSH1 0xC0 ADD PUSH1 0x40 MSTORE DUP1 PUSH1 0x0 PUSH20 0xFFFFFFFFFFFFFFFFFFFFFFFFFFFFFFFFFFFFFFFF AND DUP2 MSTORE PUSH1 0x20 ADD PUSH1 0x0 PUSH1 0x2 SIGNEXTEND DUP2 MSTORE PUSH1 0x20 ADD PUSH1 0x0 ISZERO ISZERO DUP2 MSTORE PUSH1 0x20 ADD PUSH1 0x0 PUSH20 0xFFFFFFFFFFFFFFFFFFFFFFFFFFFFFFFFFFFFFFFF AND DUP2 MSTORE PUSH1 0x20 ADD PUSH1 0x0 DUP2 MSTORE PUSH1 0x20 ADD PUSH1 0x0 DUP2 MSTORE POP SWAP1 JUMP JUMPDEST PUSH1 0x0 PUSH20 0xFFFFFFFFFFFFFFFFFFFFFFFFFFFFFFFFFFFFFFFF DUP3 AND SWAP1 POP SWAP2 SWAP1 POP JUMP JUMPDEST PUSH1 0x0 PUSH2 0x31DA DUP3 PUSH2 0x31AF JUMP JUMPDEST SWAP1 POP SWAP2 SWAP1 POP JUMP JUMPDEST PUSH2 0x31EA DUP2 PUSH2 0x31CF JUMP JUMPDEST DUP3 MSTORE POP POP JUMP JUMPDEST PUSH1 0x0 PUSH1 0x20 DUP3 ADD SWAP1 POP PUSH2 0x3205 PUSH1 0x0 DUP4 ADD DUP5 PUSH2 0x31E1 JUMP JUMPDEST SWAP3 SWAP2 POP POP JUMP JUMPDEST PUSH1 0x0 PUSH16 0xFFFFFFFFFFFFFFFFFFFFFFFFFFFFFFFF DUP3 AND SWAP1 POP SWAP2 SWAP1 POP JUMP JUMPDEST PUSH2 0x3230 DUP2 PUSH2 0x320B JUMP JUMPDEST DUP3 MSTORE POP POP JUMP JUMPDEST PUSH1 0x0 PUSH1 0x20 DUP3 ADD SWAP1 POP PUSH2 0x324B PUSH1 0x0 DUP4 ADD DUP5 PUSH2 0x3227 JUMP JUMPDEST SWAP3 SWAP2 POP POP JUMP JUMPDEST PUSH2 0x325A DUP2 PUSH2 0x31AF JUMP JUMPDEST DUP3 MSTORE POP POP JUMP JUMPDEST PUSH1 0x0 DUP2 PUSH1 0x2 SIGNEXTEND SWAP1 POP SWAP2 SWAP1 POP JUMP JUMPDEST PUSH2 0x3276 DUP2 PUSH2 0x3260 JUMP JUMPDEST DUP3 MSTORE POP POP JUMP JUMPDEST PUSH1 0x0 PUSH1 0x40 DUP3 ADD SWAP1 POP PUSH2 0x3291 PUSH1 0x0 DUP4 ADD DUP6 PUSH2 0x3251 JUMP JUMPDEST PUSH2 0x329E PUSH1 0x20 DUP4 ADD DUP5 PUSH2 0x326D JUMP JUMPDEST SWAP4 SWAP3 POP POP POP JUMP JUMPDEST PUSH1 0x0 DUP1 REVERT JUMPDEST PUSH1 0x0 DUP1 REVERT JUMPDEST PUSH2 0x32B8 DUP2 PUSH2 0x31CF JUMP JUMPDEST DUP2 EQ PUSH2 0x32C3 JUMPI PUSH1 0x0 DUP1 REVERT JUMPDEST POP JUMP JUMPDEST PUSH1 0x0 DUP2 CALLDATALOAD SWAP1 POP PUSH2 0x32D5 DUP2 PUSH2 0x32AF JUMP JUMPDEST SWAP3 SWAP2 POP POP JUMP JUMPDEST PUSH2 0x32E4 DUP2 PUSH2 0x3260 JUMP JUMPDEST DUP2 EQ PUSH2 0x32EF JUMPI PUSH1 0x0 DUP1 REVERT JUMPDEST POP JUMP JUMPDEST PUSH1 0x0 DUP2 CALLDATALOAD SWAP1 POP PUSH2 0x3301 DUP2 PUSH2 0x32DB JUMP JUMPDEST SWAP3 SWAP2 POP POP JUMP JUMPDEST PUSH2 0x3310 DUP2 PUSH2 0x320B JUMP JUMPDEST DUP2 EQ PUSH2 0x331B JUMPI PUSH1 0x0 DUP1 REVERT JUMPDEST POP JUMP JUMPDEST PUSH1 0x0 DUP2 CALLDATALOAD SWAP1 POP PUSH2 0x332D DUP2 PUSH2 0x3307 JUMP JUMPDEST SWAP3 SWAP2 POP POP JUMP JUMPDEST PUSH1 0x0 DUP1 REVERT JUMPDEST PUSH1 0x0 DUP1 REVERT JUMPDEST PUSH1 0x0 DUP1 REVERT JUMPDEST PUSH1 0x0 DUP1 DUP4 PUSH1 0x1F DUP5 ADD SLT PUSH2 0x3358 JUMPI PUSH2 0x3357 PUSH2 0x3333 JUMP JUMPDEST JUMPDEST DUP3 CALLDATALOAD SWAP1 POP PUSH8 0xFFFFFFFFFFFFFFFF DUP2 GT ISZERO PUSH2 0x3375 JUMPI PUSH2 0x3374 PUSH2 0x3338 JUMP JUMPDEST JUMPDEST PUSH1 0x20 DUP4 ADD SWAP2 POP DUP4 PUSH1 0x1 DUP3 MUL DUP4 ADD GT ISZERO PUSH2 0x3391 JUMPI PUSH2 0x3390 PUSH2 0x333D JUMP JUMPDEST JUMPDEST SWAP3 POP SWAP3 SWAP1 POP JUMP JUMPDEST PUSH1 0x0 DUP1 PUSH1 0x0 DUP1 PUSH1 0x0 DUP1 PUSH1 0xA0 DUP8 DUP10 SUB SLT ISZERO PUSH2 0x33B5 JUMPI PUSH2 0x33B4 PUSH2 0x32A5 JUMP JUMPDEST JUMPDEST PUSH1 0x0 PUSH2 0x33C3 DUP10 DUP3 DUP11 ADD PUSH2 0x32C6 JUMP JUMPDEST SWAP7 POP POP PUSH1 0x20 PUSH2 0x33D4 DUP10 DUP3 DUP11 ADD PUSH2 0x32F2 JUMP JUMPDEST SWAP6 POP POP PUSH1 0x40 PUSH2 0x33E5 DUP10 DUP3 DUP11 ADD PUSH2 0x32F2 JUMP JUMPDEST SWAP5 POP POP PUSH1 0x60 PUSH2 0x33F6 DUP10 DUP3 DUP11 ADD PUSH2 0x331E JUMP JUMPDEST SWAP4 POP POP PUSH1 0x80 DUP8 ADD CALLDATALOAD PUSH8 0xFFFFFFFFFFFFFFFF DUP2 GT ISZERO PUSH2 0x3417 JUMPI PUSH2 0x3416 PUSH2 0x32AA JUMP JUMPDEST JUMPDEST PUSH2 0x3423 DUP10 DUP3 DUP11 ADD PUSH2 0x3342 JUMP JUMPDEST SWAP3 POP SWAP3 POP POP SWAP3 SWAP6 POP SWAP3 SWAP6 POP SWAP3 SWAP6 JUMP JUMPDEST PUSH1 0x0 DUP2 SWAP1 POP SWAP2 SWAP1 POP JUMP JUMPDEST PUSH2 0x3445 DUP2 PUSH2 0x3432 JUMP JUMPDEST DUP3 MSTORE POP POP JUMP JUMPDEST PUSH1 0x0 PUSH1 0x40 DUP3 ADD SWAP1 POP PUSH2 0x3460 PUSH1 0x0 DUP4 ADD DUP6 PUSH2 0x343C JUMP JUMPDEST PUSH2 0x346D PUSH1 0x20 DUP4 ADD DUP5 PUSH2 0x343C JUMP JUMPDEST SWAP4 SWAP3 POP POP POP JUMP JUMPDEST PUSH2 0x347D DUP2 PUSH2 0x3432 JUMP JUMPDEST DUP2 EQ PUSH2 0x3488 JUMPI PUSH1 0x0 DUP1 REVERT JUMPDEST POP JUMP JUMPDEST PUSH1 0x0 DUP2 CALLDATALOAD SWAP1 POP PUSH2 0x349A DUP2 PUSH2 0x3474 JUMP JUMPDEST SWAP3 SWAP2 POP POP JUMP JUMPDEST PUSH1 0x0 DUP1 PUSH1 0x0 DUP1 PUSH1 0x60 DUP6 DUP8 SUB SLT ISZERO PUSH2 0x34BA JUMPI PUSH2 0x34B9 PUSH2 0x32A5 JUMP JUMPDEST JUMPDEST PUSH1 0x0 PUSH2 0x34C8 DUP8 DUP3 DUP9 ADD PUSH2 0x348B JUMP JUMPDEST SWAP5 POP POP PUSH1 0x20 PUSH2 0x34D9 DUP8 DUP3 DUP9 ADD PUSH2 0x348B JUMP JUMPDEST SWAP4 POP POP PUSH1 0x40 DUP6 ADD CALLDATALOAD PUSH8 0xFFFFFFFFFFFFFFFF DUP2 GT ISZERO PUSH2 0x34FA JUMPI PUSH2 0x34F9 PUSH2 0x32AA JUMP JUMPDEST JUMPDEST PUSH2 0x3506 DUP8 DUP3 DUP9 ADD PUSH2 0x3342 JUMP JUMPDEST SWAP3 POP SWAP3 POP POP SWAP3 SWAP6 SWAP2 SWAP5 POP SWAP3 POP JUMP JUMPDEST PUSH1 0x0 DUP2 SWAP1 POP SWAP2 SWAP1 POP JUMP JUMPDEST PUSH2 0x3527 DUP2 PUSH2 0x3514 JUMP JUMPDEST DUP2 EQ PUSH2 0x3532 JUMPI PUSH1 0x0 DUP1 REVERT JUMPDEST POP JUMP JUMPDEST PUSH1 0x0 DUP2 CALLDATALOAD SWAP1 POP PUSH2 0x3544 DUP2 PUSH2 0x351E JUMP JUMPDEST SWAP3 SWAP2 POP POP JUMP JUMPDEST PUSH1 0x0 PUSH1 0x20 DUP3 DUP5 SUB SLT ISZERO PUSH2 0x3560 JUMPI PUSH2 0x355F PUSH2 0x32A5 JUMP JUMPDEST JUMPDEST PUSH1 0x0 PUSH2 0x356E DUP5 DUP3 DUP6 ADD PUSH2 0x3535 JUMP JUMPDEST SWAP2 POP POP SWAP3 SWAP2 POP POP JUMP JUMPDEST PUSH1 0x0 DUP2 PUSH1 0x1 SIGNEXTEND SWAP1 POP SWAP2 SWAP1 POP JUMP JUMPDEST PUSH2 0x358D DUP2 PUSH2 0x3577 JUMP JUMPDEST DUP2 EQ PUSH2 0x3598 JUMPI PUSH1 0x0 DUP1 REVERT JUMPDEST POP JUMP JUMPDEST PUSH1 0x0 DUP2 CALLDATALOAD SWAP1 POP PUSH2 0x35AA DUP2 PUSH2 0x3584 JUMP JUMPDEST SWAP3 SWAP2 POP POP JUMP JUMPDEST PUSH1 0x0 PUSH1 0x20 DUP3 DUP5 SUB SLT ISZERO PUSH2 0x35C6 JUMPI PUSH2 0x35C5 PUSH2 0x32A5 JUMP JUMPDEST JUMPDEST PUSH1 0x0 PUSH2 0x35D4 DUP5 DUP3 DUP6 ADD PUSH2 0x359B JUMP JUMPDEST SWAP2 POP POP SWAP3 SWAP2 POP POP JUMP JUMPDEST PUSH1 0x0 PUSH1 0x20 DUP3 ADD SWAP1 POP PUSH2 0x35F2 PUSH1 0x0 DUP4 ADD DUP5 PUSH2 0x343C JUMP JUMPDEST SWAP3 SWAP2 POP POP JUMP JUMPDEST PUSH1 0x0 PUSH3 0xFFFFFF DUP3 AND SWAP1 POP SWAP2 SWAP1 POP JUMP JUMPDEST PUSH2 0x3610 DUP2 PUSH2 0x35F8 JUMP JUMPDEST DUP3 MSTORE POP POP JUMP JUMPDEST PUSH1 0x0 PUSH1 0x20 DUP3 ADD SWAP1 POP PUSH2 0x362B PUSH1 0x0 DUP4 ADD DUP5 PUSH2 0x3607 JUMP JUMPDEST SWAP3 SWAP2 POP POP JUMP JUMPDEST PUSH1 0x0 DUP2 ISZERO ISZERO SWAP1 POP SWAP2 SWAP1 POP JUMP JUMPDEST PUSH2 0x3646 DUP2 PUSH2 0x3631 JUMP JUMPDEST DUP2 EQ PUSH2 0x3651 JUMPI PUSH1 0x0 DUP1 REVERT JUMPDEST POP JUMP JUMPDEST PUSH1 0x0 DUP2 CALLDATALOAD SWAP1 POP PUSH2 0x3663 DUP2 PUSH2 0x363D JUMP JUMPDEST SWAP3 SWAP2 POP POP JUMP JUMPDEST PUSH2 0x3672 DUP2 PUSH2 0x31AF JUMP JUMPDEST DUP2 EQ PUSH2 0x367D JUMPI PUSH1 0x0 DUP1 REVERT JUMPDEST POP JUMP JUMPDEST PUSH1 0x0 DUP2 CALLDATALOAD SWAP1 POP PUSH2 0x368F DUP2 PUSH2 0x3669 JUMP JUMPDEST SWAP3 SWAP2 POP POP JUMP JUMPDEST PUSH1 0x0 DUP1 PUSH1 0x0 DUP1 PUSH1 0x0 DUP1 PUSH1 0xA0 DUP8 DUP10 SUB SLT ISZERO PUSH2 0x36B2 JUMPI PUSH2 0x36B1 PUSH2 0x32A5 JUMP JUMPDEST JUMPDEST PUSH1 0x0 PUSH2 0x36C0 DUP10 DUP3 DUP11 ADD PUSH2 0x32C6 JUMP JUMPDEST SWAP7 POP POP PUSH1 0x20 PUSH2 0x36D1 DUP10 DUP3 DUP11 ADD PUSH2 0x3654 JUMP JUMPDEST SWAP6 POP POP PUSH1 0x40 PUSH2 0x36E2 DUP10 DUP3 DUP11 ADD PUSH2 0x348B JUMP JUMPDEST SWAP5 POP POP PUSH1 0x60 PUSH2 0x36F3 DUP10 DUP3 DUP11 ADD PUSH2 0x3680 JUMP JUMPDEST SWAP4 POP POP PUSH1 0x80 DUP8 ADD CALLDATALOAD PUSH8 0xFFFFFFFFFFFFFFFF DUP2 GT ISZERO PUSH2 0x3714 JUMPI PUSH2 0x3713 PUSH2 0x32AA JUMP JUMPDEST JUMPDEST PUSH2 0x3720 DUP10 DUP3 DUP11 ADD PUSH2 0x3342 JUMP JUMPDEST SWAP3 POP SWAP3 POP POP SWAP3 SWAP6 POP SWAP3 SWAP6 POP SWAP3 SWAP6 JUMP JUMPDEST PUSH1 0x0 DUP2 SWAP1 POP SWAP2 SWAP1 POP JUMP JUMPDEST PUSH2 0x3742 DUP2 PUSH2 0x372F JUMP JUMPDEST DUP3 MSTORE POP POP JUMP JUMPDEST PUSH1 0x0 PUSH1 0x40 DUP3 ADD SWAP1 POP PUSH2 0x375D PUSH1 0x0 DUP4 ADD DUP6 PUSH2 0x3739 JUMP JUMPDEST PUSH2 0x376A PUSH1 0x20 DUP4 ADD DUP5 PUSH2 0x3739 JUMP JUMPDEST SWAP4 SWAP3 POP POP POP JUMP JUMPDEST PUSH1 0x0 PUSH1 0x20 DUP3 DUP5 SUB SLT ISZERO PUSH2 0x3787 JUMPI PUSH2 0x3786 PUSH2 0x32A5 JUMP JUMPDEST JUMPDEST PUSH1 0x0 PUSH2 0x3795 DUP5 DUP3 DUP6 ADD PUSH2 0x32F2 JUMP JUMPDEST SWAP2 POP POP SWAP3 SWAP2 POP POP JUMP JUMPDEST PUSH2 0x37A7 DUP2 PUSH2 0x3631 JUMP JUMPDEST DUP3 MSTORE POP POP JUMP JUMPDEST PUSH1 0x0 DUP2 PUSH1 0xF SIGNEXTEND SWAP1 POP SWAP2 SWAP1 POP JUMP JUMPDEST PUSH2 0x37C3 DUP2 PUSH2 0x37AD JUMP JUMPDEST DUP3 MSTORE POP POP JUMP JUMPDEST PUSH1 0x0 PUSH1 0x60 DUP3 ADD SWAP1 POP PUSH2 0x37DE PUSH1 0x0 DUP4 ADD DUP7 PUSH2 0x379E JUMP JUMPDEST PUSH2 0x37EB PUSH1 0x20 DUP4 ADD DUP6 PUSH2 0x3227 JUMP JUMPDEST PUSH2 0x37F8 PUSH1 0x40 DUP4 ADD DUP5 PUSH2 0x37BA JUMP JUMPDEST SWAP5 SWAP4 POP POP POP POP JUMP JUMPDEST PUSH1 0x0 PUSH1 0x20 DUP3 DUP5 SUB SLT ISZERO PUSH2 0x3816 JUMPI PUSH2 0x3815 PUSH2 0x32A5 JUMP JUMPDEST JUMPDEST PUSH1 0x0 PUSH2 0x3824 DUP5 DUP3 DUP6 ADD PUSH2 0x3680 JUMP JUMPDEST SWAP2 POP POP SWAP3 SWAP2 POP POP JUMP JUMPDEST PUSH32 0x4E487B7100000000000000000000000000000000000000000000000000000000 PUSH1 0x0 MSTORE PUSH1 0x11 PUSH1 0x4 MSTORE PUSH1 0x24 PUSH1 0x0 REVERT JUMPDEST PUSH1 0x0 PUSH2 0x3867 DUP3 PUSH2 0x3260 JUMP JUMPDEST SWAP2 POP PUSH32 0xFFFFFFFFFFFFFFFFFFFFFFFFFFFFFFFFFFFFFFFFFFFFFFFFFFFFFFFFFF800000 DUP3 SUB PUSH2 0x3899 JUMPI PUSH2 0x3898 PUSH2 0x382D JUMP JUMPDEST JUMPDEST DUP2 PUSH1 0x0 SUB SWAP1 POP SWAP2 SWAP1 POP JUMP JUMPDEST PUSH1 0x0 DUP3 DUP3 MSTORE PUSH1 0x20 DUP3 ADD SWAP1 POP SWAP3 SWAP2 POP POP JUMP JUMPDEST DUP3 DUP2 DUP4 CALLDATACOPY PUSH1 0x0 DUP4 DUP4 ADD MSTORE POP POP POP JUMP JUMPDEST PUSH1 0x0 PUSH1 0x1F NOT PUSH1 0x1F DUP4 ADD AND SWAP1 POP SWAP2 SWAP1 POP JUMP JUMPDEST PUSH1 0x0 PUSH2 0x38E1 DUP4 DUP6 PUSH2 0x38A4 JUMP JUMPDEST SWAP4 POP PUSH2 0x38EE DUP4 DUP6 DUP5 PUSH2 0x38B5 JUMP JUMPDEST PUSH2 0x38F7 DUP4 PUSH2 0x38C4 JUMP JUMPDEST DUP5 ADD SWAP1 POP SWAP4 SWAP3 POP POP POP JUMP JUMPDEST PUSH1 0x0 PUSH1 0x60 DUP3 ADD SWAP1 POP PUSH2 0x3917 PUSH1 0x0 DUP4 ADD DUP8 PUSH2 0x343C JUMP JUMPDEST PUSH2 0x3924 PUSH1 0x20 DUP4 ADD DUP7 PUSH2 0x343C JUMP JUMPDEST DUP2 DUP2 SUB PUSH1 0x40 DUP4 ADD MSTORE PUSH2 0x3937 DUP2 DUP5 DUP7 PUSH2 0x38D5 JUMP JUMPDEST SWAP1 POP SWAP6 SWAP5 POP POP POP POP POP JUMP JUMPDEST PUSH1 0x0 PUSH2 0x394D DUP3 PUSH2 0x3432 JUMP JUMPDEST SWAP2 POP PUSH2 0x3958 DUP4 PUSH2 0x3432 JUMP JUMPDEST SWAP3 POP DUP3 DUP3 ADD SWAP1 POP DUP1 DUP3 GT ISZERO PUSH2 0x3970 JUMPI PUSH2 0x396F PUSH2 0x382D JUMP JUMPDEST JUMPDEST SWAP3 SWAP2 POP POP JUMP JUMPDEST PUSH1 0x0 PUSH1 0x80 DUP3 ADD SWAP1 POP PUSH2 0x398B PUSH1 0x0 DUP4 ADD DUP8 PUSH2 0x31E1 JUMP JUMPDEST PUSH2 0x3998 PUSH1 0x20 DUP4 ADD DUP7 PUSH2 0x3227 JUMP JUMPDEST PUSH2 0x39A5 PUSH1 0x40 DUP4 ADD DUP6 PUSH2 0x343C JUMP JUMPDEST PUSH2 0x39B2 PUSH1 0x60 DUP4 ADD DUP5 PUSH2 0x343C JUMP JUMPDEST SWAP6 SWAP5 POP POP POP POP POP JUMP JUMPDEST PUSH1 0x0 DUP2 MLOAD SWAP1 POP PUSH2 0x39CA DUP2 PUSH2 0x3474 JUMP JUMPDEST SWAP3 SWAP2 POP POP JUMP JUMPDEST PUSH1 0x0 PUSH1 0x20 DUP3 DUP5 SUB SLT ISZERO PUSH2 0x39E6 JUMPI PUSH2 0x39E5 PUSH2 0x32A5 JUMP JUMPDEST JUMPDEST PUSH1 0x0 PUSH2 0x39F4 DUP5 DUP3 DUP6 ADD PUSH2 0x39BB JUMP JUMPDEST SWAP2 POP POP SWAP3 SWAP2 POP POP JUMP JUMPDEST PUSH1 0x0 PUSH1 0x40 DUP3 ADD SWAP1 POP PUSH2 0x3A12 PUSH1 0x0 DUP4 ADD DUP6 PUSH2 0x31E1 JUMP JUMPDEST PUSH2 0x3A1F PUSH1 0x20 DUP4 ADD DUP5 PUSH2 0x343C JUMP JUMPDEST SWAP4 SWAP3 POP POP POP JUMP JUMPDEST PUSH1 0x0 DUP2 MLOAD SWAP1 POP PUSH2 0x3A35 DUP2 PUSH2 0x363D JUMP JUMPDEST SWAP3 SWAP2 POP POP JUMP JUMPDEST PUSH1 0x0 PUSH1 0x20 DUP3 DUP5 SUB SLT ISZERO PUSH2 0x3A51 JUMPI PUSH2 0x3A50 PUSH2 0x32A5 JUMP JUMPDEST JUMPDEST PUSH1 0x0 PUSH2 0x3A5F DUP5 DUP3 DUP6 ADD PUSH2 0x3A26 JUMP JUMPDEST SWAP2 POP POP SWAP3 SWAP2 POP POP JUMP JUMPDEST PUSH1 0x0 PUSH1 0x20 DUP3 ADD SWAP1 POP DUP2 DUP2 SUB PUSH1 0x0 DUP4 ADD MSTORE PUSH2 0x3A83 DUP2 DUP5 DUP7 PUSH2 0x38D5 JUMP JUMPDEST SWAP1 POP SWAP4 SWAP3 POP POP POP JUMP JUMPDEST PUSH1 0x0 PUSH2 0x3A97 DUP3 PUSH2 0x3432 JUMP JUMPDEST SWAP2 POP PUSH2 0x3AA2 DUP4 PUSH2 0x3432 JUMP JUMPDEST SWAP3 POP DUP3 DUP3 SUB SWAP1 POP DUP2 DUP2 GT ISZERO PUSH2 0x3ABA JUMPI PUSH2 0x3AB9 PUSH2 0x382D JUMP JUMPDEST JUMPDEST SWAP3 SWAP2 POP POP JUMP JUMPDEST PUSH1 0x0 PUSH2 0x3ACB DUP3 PUSH2 0x37AD JUMP JUMPDEST SWAP2 POP PUSH32 0xFFFFFFFFFFFFFFFFFFFFFFFFFFFFFFFF80000000000000000000000000000000 DUP3 SUB PUSH2 0x3AFD JUMPI PUSH2 0x3AFC PUSH2 0x382D JUMP JUMPDEST JUMPDEST DUP2 PUSH1 0x0 SUB SWAP1 POP SWAP2 SWAP1 POP JUMP JUMPDEST PUSH1 0x0 PUSH2 0x3B13 DUP3 PUSH2 0x3260 JUMP JUMPDEST SWAP2 POP PUSH2 0x3B1E DUP4 PUSH2 0x3260 JUMP JUMPDEST SWAP3 POP DUP3 DUP3 SUB SWAP1 POP PUSH3 0x7FFFFF DUP2 SGT PUSH32 0xFFFFFFFFFFFFFFFFFFFFFFFFFFFFFFFFFFFFFFFFFFFFFFFFFFFFFFFFFF800000 DUP3 SLT OR ISZERO PUSH2 0x3B5D JUMPI PUSH2 0x3B5C PUSH2 0x382D JUMP JUMPDEST JUMPDEST SWAP3 SWAP2 POP POP JUMP JUMPDEST PUSH1 0x0 PUSH2 0x3B6E DUP3 PUSH2 0x372F JUMP JUMPDEST SWAP2 POP PUSH32 0x8000000000000000000000000000000000000000000000000000000000000000 DUP3 SUB PUSH2 0x3BA0 JUMPI PUSH2 0x3B9F PUSH2 0x382D JUMP JUMPDEST JUMPDEST DUP2 PUSH1 0x0 SUB SWAP1 POP SWAP2 SWAP1 POP JUMP JUMPDEST PUSH1 0x0 PUSH1 0x60 DUP3 ADD SWAP1 POP PUSH2 0x3BC0 PUSH1 0x0 DUP4 ADD DUP8 PUSH2 0x3739 JUMP JUMPDEST PUSH2 0x3BCD PUSH1 0x20 DUP4 ADD DUP7 PUSH2 0x3739 JUMP JUMPDEST DUP2 DUP2 SUB PUSH1 0x40 DUP4 ADD MSTORE PUSH2 0x3BE0 DUP2 DUP5 DUP7 PUSH2 0x38D5 JUMP JUMPDEST SWAP1 POP SWAP6 SWAP5 POP POP POP POP POP JUMP JUMPDEST PUSH1 0x0 PUSH1 0xA0 DUP3 ADD SWAP1 POP PUSH2 0x3C00 PUSH1 0x0 DUP4 ADD DUP9 PUSH2 0x3739 JUMP JUMPDEST PUSH2 0x3C0D PUSH1 0x20 DUP4 ADD DUP8 PUSH2 0x3739 JUMP JUMPDEST PUSH2 0x3C1A PUSH1 0x40 DUP4 ADD DUP7 PUSH2 0x3251 JUMP JUMPDEST PUSH2 0x3C27 PUSH1 0x60 DUP4 ADD DUP6 PUSH2 0x3227 JUMP JUMPDEST PUSH2 0x3C34 PUSH1 0x80 DUP4 ADD DUP5 PUSH2 0x326D JUMP JUMPDEST SWAP7 SWAP6 POP POP POP POP POP POP JUMP JUMPDEST PUSH1 0x0 PUSH2 0x3C49 DUP3 PUSH2 0x372F JUMP JUMPDEST SWAP2 POP PUSH2 0x3C54 DUP4 PUSH2 0x372F JUMP JUMPDEST SWAP3 POP DUP3 DUP3 ADD SWAP1 POP DUP3 DUP2 SLT ISZERO PUSH1 0x0 DUP4 SLT AND DUP4 DUP3 SLT PUSH1 0x0 DUP5 SLT ISZERO AND OR ISZERO PUSH2 0x3C7C JUMPI PUSH2 0x3C7B PUSH2 0x382D JUMP JUMPDEST JUMPDEST SWAP3 SWAP2 POP POP JUMP JUMPDEST PUSH1 0x0 PUSH2 0x3C8D DUP3 PUSH2 0x372F JUMP JUMPDEST SWAP2 POP PUSH2 0x3C98 DUP4 PUSH2 0x372F JUMP JUMPDEST SWAP3 POP DUP3 DUP3 SUB SWAP1 POP DUP2 DUP2 SLT PUSH1 0x0 DUP5 SLT AND DUP3 DUP3 SGT PUSH1 0x0 DUP6 SLT ISZERO AND OR ISZERO PUSH2 0x3CBF JUMPI PUSH2 0x3CBE PUSH2 0x382D JUMP JUMPDEST JUMPDEST SWAP3 SWAP2 POP POP JUMP JUMPDEST PUSH32 0x4E487B7100000000000000000000000000000000000000000000000000000000 PUSH1 0x0 MSTORE PUSH1 0x12 PUSH1 0x4 MSTORE PUSH1 0x24 PUSH1 0x0 REVERT JUMPDEST PUSH1 0x0 PUSH2 0x3CFF DUP3 PUSH2 0x3260 JUMP JUMPDEST SWAP2 POP PUSH2 0x3D0A DUP4 PUSH2 0x3260 JUMP JUMPDEST SWAP3 POP DUP3 PUSH2 0x3D1A JUMPI PUSH2 0x3D19 PUSH2 0x3CC5 JUMP JUMPDEST JUMPDEST DUP3 DUP3 SMOD SWAP1 POP SWAP3 SWAP2 POP POP JUMP JUMPDEST PUSH1 0x0 PUSH2 0x3D30 DUP3 PUSH2 0x3260 JUMP JUMPDEST SWAP2 POP PUSH2 0x3D3B DUP4 PUSH2 0x3260 JUMP JUMPDEST SWAP3 POP DUP3 PUSH2 0x3D4B JUMPI PUSH2 0x3D4A PUSH2 0x3CC5 JUMP JUMPDEST JUMPDEST PUSH1 0x1 PUSH1 0x0 SUB DUP4 EQ PUSH32 0xFFFFFFFFFFFFFFFFFFFFFFFFFFFFFFFFFFFFFFFFFFFFFFFFFFFFFFFFFF800000 DUP4 EQ AND ISZERO PUSH2 0x3D84 JUMPI PUSH2 0x3D83 PUSH2 0x382D JUMP JUMPDEST JUMPDEST DUP3 DUP3 SDIV SWAP1 POP SWAP3 SWAP2 POP POP JUMP JUMPDEST PUSH1 0x0 DUP2 PUSH1 0x60 SHL SWAP1 POP SWAP2 SWAP1 POP JUMP JUMPDEST PUSH1 0x0 PUSH2 0x3DA7 DUP3 PUSH2 0x3D8F JUMP JUMPDEST SWAP1 POP SWAP2 SWAP1 POP JUMP JUMPDEST PUSH1 0x0 PUSH2 0x3DB9 DUP3 PUSH2 0x3D9C JUMP JUMPDEST SWAP1 POP SWAP2 SWAP1 POP JUMP JUMPDEST PUSH2 0x3DD1 PUSH2 0x3DCC DUP3 PUSH2 0x31CF JUMP JUMPDEST PUSH2 0x3DAE JUMP JUMPDEST DUP3 MSTORE POP POP JUMP JUMPDEST PUSH1 0x0 DUP2 PUSH1 0xE8 SHL SWAP1 POP SWAP2 SWAP1 POP JUMP JUMPDEST PUSH1 0x0 PUSH2 0x3DEF DUP3 PUSH2 0x3DD7 JUMP JUMPDEST SWAP1 POP SWAP2 SWAP1 POP JUMP JUMPDEST PUSH2 0x3E07 PUSH2 0x3E02 DUP3 PUSH2 0x3260 JUMP JUMPDEST PUSH2 0x3DE4 JUMP JUMPDEST DUP3 MSTORE POP POP JUMP JUMPDEST PUSH1 0x0 PUSH2 0x3E19 DUP3 DUP7 PUSH2 0x3DC0 JUMP JUMPDEST PUSH1 0x14 DUP3 ADD SWAP2 POP PUSH2 0x3E29 DUP3 DUP6 PUSH2 0x3DF6 JUMP JUMPDEST PUSH1 0x3 DUP3 ADD SWAP2 POP PUSH2 0x3E39 DUP3 DUP5 PUSH2 0x3DF6 JUMP JUMPDEST PUSH1 0x3 DUP3 ADD SWAP2 POP DUP2 SWAP1 POP SWAP5 SWAP4 POP POP POP POP JUMP JUMPDEST PUSH1 0x0 PUSH2 0x3E55 DUP3 PUSH2 0x320B JUMP JUMPDEST SWAP2 POP PUSH2 0x3E60 DUP4 PUSH2 0x320B JUMP JUMPDEST SWAP3 POP DUP3 DUP3 ADD SWAP1 POP PUSH16 0xFFFFFFFFFFFFFFFFFFFFFFFFFFFFFFFF DUP2 GT ISZERO PUSH2 0x3E88 JUMPI PUSH2 0x3E87 PUSH2 0x382D JUMP JUMPDEST JUMPDEST SWAP3 SWAP2 POP POP JUMP JUMPDEST PUSH1 0x0 DUP3 DUP3 MSTORE PUSH1 0x20 DUP3 ADD SWAP1 POP SWAP3 SWAP2 POP POP JUMP JUMPDEST PUSH32 0x5400000000000000000000000000000000000000000000000000000000000000 PUSH1 0x0 DUP3 ADD MSTORE POP JUMP JUMPDEST PUSH1 0x0 PUSH2 0x3ED5 PUSH1 0x1 DUP4 PUSH2 0x3E8E JUMP JUMPDEST SWAP2 POP PUSH2 0x3EE0 DUP3 PUSH2 0x3E9F JUMP JUMPDEST PUSH1 0x20 DUP3 ADD SWAP1 POP SWAP2 SWAP1 POP JUMP JUMPDEST PUSH1 0x0 PUSH1 0x20 DUP3 ADD SWAP1 POP DUP2 DUP2 SUB PUSH1 0x0 DUP4 ADD MSTORE PUSH2 0x3F04 DUP2 PUSH2 0x3EC8 JUMP JUMPDEST SWAP1 POP SWAP2 SWAP1 POP JUMP JUMPDEST PUSH1 0x0 PUSH2 0x3F16 DUP3 PUSH2 0x3432 JUMP JUMPDEST SWAP2 POP PUSH2 0x3F21 DUP4 PUSH2 0x3432 JUMP JUMPDEST SWAP3 POP DUP3 DUP3 MUL PUSH2 0x3F2F DUP2 PUSH2 0x3432 JUMP JUMPDEST SWAP2 POP DUP3 DUP3 DIV DUP5 EQ DUP4 ISZERO OR PUSH2 0x3F46 JUMPI PUSH2 0x3F45 PUSH2 0x382D JUMP JUMPDEST JUMPDEST POP SWAP3 SWAP2 POP POP JUMP JUMPDEST PUSH1 0x0 PUSH2 0x3F58 DUP3 PUSH2 0x3432 JUMP JUMPDEST SWAP2 POP PUSH2 0x3F63 DUP4 PUSH2 0x3432 JUMP JUMPDEST SWAP3 POP DUP3 PUSH2 0x3F73 JUMPI PUSH2 0x3F72 PUSH2 0x3CC5 JUMP JUMPDEST JUMPDEST DUP3 DUP3 DIV SWAP1 POP SWAP3 SWAP2 POP POP JUMP JUMPDEST PUSH1 0x0 PUSH2 0x3F89 DUP3 PUSH2 0x3432 JUMP JUMPDEST SWAP2 POP PUSH2 0x3F94 DUP4 PUSH2 0x3432 JUMP JUMPDEST SWAP3 POP DUP3 PUSH2 0x3FA4 JUMPI PUSH2 0x3FA3 PUSH2 0x3CC5 JUMP JUMPDEST JUMPDEST DUP3 DUP3 MOD SWAP1 POP SWAP3 SWAP2 POP POP JUMP JUMPDEST PUSH1 0x0 PUSH2 0x3FBA DUP3 PUSH2 0x31AF JUMP JUMPDEST SWAP2 POP PUSH2 0x3FC5 DUP4 PUSH2 0x31AF JUMP JUMPDEST SWAP3 POP DUP3 DUP3 SUB SWAP1 POP PUSH20 0xFFFFFFFFFFFFFFFFFFFFFFFFFFFFFFFFFFFFFFFF DUP2 GT ISZERO PUSH2 0x3FF1 JUMPI PUSH2 0x3FF0 PUSH2 0x382D JUMP JUMPDEST JUMPDEST SWAP3 SWAP2 POP POP JUMP JUMPDEST PUSH1 0x0 PUSH2 0x4002 DUP3 PUSH2 0x320B JUMP JUMPDEST SWAP2 POP PUSH2 0x400D DUP4 PUSH2 0x320B JUMP JUMPDEST SWAP3 POP DUP3 DUP3 SUB SWAP1 POP PUSH16 0xFFFFFFFFFFFFFFFFFFFFFFFFFFFFFFFF DUP2 GT ISZERO PUSH2 0x4035 JUMPI PUSH2 0x4034 PUSH2 0x382D JUMP JUMPDEST JUMPDEST SWAP3 SWAP2 POP POP JUMP JUMPDEST PUSH1 0x0 PUSH2 0x4046 DUP3 PUSH2 0x3260 JUMP JUMPDEST SWAP2 POP PUSH32 0xFFFFFFFFFFFFFFFFFFFFFFFFFFFFFFFFFFFFFFFFFFFFFFFFFFFFFFFFFF800000 DUP3 SUB PUSH2 0x4078 JUMPI PUSH2 0x4077 PUSH2 0x382D JUMP JUMPDEST JUMPDEST PUSH1 0x1 DUP3 SUB SWAP1 POP SWAP2 SWAP1 POP JUMP JUMPDEST PUSH1 0x0 PUSH2 0x408E DUP3 PUSH2 0x3260 JUMP JUMPDEST SWAP2 POP PUSH2 0x4099 DUP4 PUSH2 0x3260 JUMP JUMPDEST SWAP3 POP DUP3 DUP3 MUL PUSH2 0x40A7 DUP2 PUSH2 0x3260 JUMP JUMPDEST SWAP2 POP DUP1 DUP3 EQ PUSH2 0x40B9 JUMPI PUSH2 0x40B8 PUSH2 0x382D JUMP JUMPDEST JUMPDEST POP SWAP3 SWAP2 POP POP JUMP JUMPDEST PUSH1 0x0 PUSH1 0xFF DUP3 AND SWAP1 POP SWAP2 SWAP1 POP JUMP JUMPDEST PUSH1 0x0 PUSH2 0x40D8 DUP3 PUSH2 0x40C0 JUMP JUMPDEST SWAP2 POP PUSH2 0x40E3 DUP4 PUSH2 0x40C0 JUMP JUMPDEST SWAP3 POP DUP3 DUP3 SUB SWAP1 POP PUSH1 0xFF DUP2 GT ISZERO PUSH2 0x40FC JUMPI PUSH2 0x40FB PUSH2 0x382D JUMP JUMPDEST JUMPDEST SWAP3 SWAP2 POP POP JUMP JUMPDEST PUSH1 0x0 PUSH2 0x410D DUP3 PUSH2 0x3260 JUMP JUMPDEST SWAP2 POP PUSH2 0x4118 DUP4 PUSH2 0x3260 JUMP JUMPDEST SWAP3 POP DUP3 DUP3 ADD SWAP1 POP PUSH32 0xFFFFFFFFFFFFFFFFFFFFFFFFFFFFFFFFFFFFFFFFFFFFFFFFFFFFFFFFFF800000 DUP2 SLT PUSH3 0x7FFFFF DUP3 SGT OR ISZERO PUSH2 0x4157 JUMPI PUSH2 0x4156 PUSH2 0x382D JUMP JUMPDEST JUMPDEST SWAP3 SWAP2 POP POP JUMP JUMPDEST PUSH32 0x5200000000000000000000000000000000000000000000000000000000000000 PUSH1 0x0 DUP3 ADD MSTORE POP JUMP JUMPDEST PUSH1 0x0 PUSH2 0x4193 PUSH1 0x1 DUP4 PUSH2 0x3E8E JUMP JUMPDEST SWAP2 POP PUSH2 0x419E DUP3 PUSH2 0x415D JUMP JUMPDEST PUSH1 0x20 DUP3 ADD SWAP1 POP SWAP2 SWAP1 POP JUMP JUMPDEST PUSH1 0x0 PUSH1 0x20 DUP3 ADD SWAP1 POP DUP2 DUP2 SUB PUSH1 0x0 DUP4 ADD MSTORE PUSH2 0x41C2 DUP2 PUSH2 0x4186 JUMP JUMPDEST SWAP1 POP SWAP2 SWAP1 POP JUMP JUMPDEST PUSH1 0x0 PUSH2 0x41D4 DUP3 PUSH2 0x372F JUMP JUMPDEST SWAP2 POP PUSH2 0x41DF DUP4 PUSH2 0x372F JUMP JUMPDEST SWAP3 POP DUP3 DUP3 MUL PUSH2 0x41ED DUP2 PUSH2 0x372F JUMP JUMPDEST SWAP2 POP PUSH32 0x8000000000000000000000000000000000000000000000000000000000000000 DUP5 EQ PUSH1 0x0 DUP5 SLT AND ISZERO PUSH2 0x4225 JUMPI PUSH2 0x4224 PUSH2 0x382D JUMP JUMPDEST JUMPDEST DUP3 DUP3 SDIV DUP5 EQ DUP4 ISZERO OR PUSH2 0x423A JUMPI PUSH2 0x4239 PUSH2 0x382D JUMP JUMPDEST JUMPDEST POP SWAP3 SWAP2 POP POP JUMP JUMPDEST PUSH1 0x0 PUSH2 0x424C DUP3 PUSH2 0x3432 JUMP JUMPDEST SWAP2 POP PUSH32 0xFFFFFFFFFFFFFFFFFFFFFFFFFFFFFFFFFFFFFFFFFFFFFFFFFFFFFFFFFFFFFFFF DUP3 SUB PUSH2 0x427E JUMPI PUSH2 0x427D PUSH2 0x382D JUMP JUMPDEST JUMPDEST PUSH1 0x1 DUP3 ADD SWAP1 POP SWAP2 SWAP1 POP JUMP JUMPDEST PUSH1 0x0 PUSH2 0x4294 DUP3 PUSH2 0x40C0 JUMP JUMPDEST SWAP2 POP PUSH2 0x429F DUP4 PUSH2 0x40C0 JUMP JUMPDEST SWAP3 POP DUP3 DUP3 ADD SWAP1 POP PUSH1 0xFF DUP2 GT ISZERO PUSH2 0x42B8 JUMPI PUSH2 0x42B7 PUSH2 0x382D JUMP JUMPDEST JUMPDEST SWAP3 SWAP2 POP POP JUMP INVALID LOG2 PUSH5 0x6970667358 0x22 SLT KECCAK256 DELEGATECALL DUP16 PUSH29 0xAB6390ED14CE45015E8A01767F5376A4283A49B9F17D071D88ADE9FD36 PUSH5 0x736F6C6343 STOP ADDMOD BYTE STOP CALLER "
		},
		"gasEstimates": {
			"creation": {
				"codeDepositCost": "3428000",
				"executionCost": "infinite",
				"totalCost": "infinite"
			},
			"external": {
				"factory()": "infinite",
				"flash(uint256,uint256,bytes)": "infinite",
				"initialize(uint160)": "infinite",
				"liquidity()": "2494",
				"mint(address,int24,int24,uint128,bytes)": "infinite",
				"positions(bytes32)": "2932",
				"slot0()": "4838",
				"swap(address,bool,uint256,uint160,bytes)": "infinite",
				"tickBitmap(int16)": "2796",
				"tickSpacing()": "infinite",
				"ticks(int24)": "7457",
				"token0()": "infinite",
				"token1()": "infinite"
			},
			"internal": {
				"balance0()": "infinite",
				"balance1()": "infinite"
			}
		},
		"methodIdentifiers": {
			"factory()": "c45a0155",
			"flash(uint256,uint256,bytes)": "4a182392",
			"initialize(uint160)": "f637731d",
			"liquidity()": "1a686502",
			"mint(address,int24,int24,uint128,bytes)": "3c8a7d8d",
			"positions(bytes32)": "514ea4bf",
			"slot0()": "3850c7bd",
			"swap(address,bool,uint256,uint160,bytes)": "dd5a12d8",
			"tickBitmap(int16)": "5339c296",
			"tickSpacing()": "d0c93a7c",
			"ticks(int24)": "f30dba93",
			"token0()": "0dfe1681",
			"token1()": "d21220a7"
		}
	},
	"abi": [
		{
			"inputs": [],
			"stateMutability": "nonpayable",
			"type": "constructor"
		},
		{
			"inputs": [],
			"name": "AlreadyInitialized",
			"type": "error"
		},
		{
			"inputs": [],
			"name": "InsufficientInputAmount",
			"type": "error"
		},
		{
			"inputs": [],
			"name": "InvalidPriceLimit",
			"type": "error"
		},
		{
			"inputs": [],
			"name": "InvalidTickRange",
			"type": "error"
		},
		{
			"inputs": [],
			"name": "NotEnoughLiquidity",
			"type": "error"
		},
		{
			"inputs": [
				{
					"internalType": "uint256",
					"name": "prod1",
					"type": "uint256"
				},
				{
					"internalType": "uint256",
					"name": "denominator",
					"type": "uint256"
				}
			],
			"name": "PRBMath__MulDivOverflow",
			"type": "error"
		},
		{
			"inputs": [],
			"name": "ZeroLiquidity",
			"type": "error"
		},
		{
			"anonymous": false,
			"inputs": [
				{
					"indexed": true,
					"internalType": "address",
					"name": "recipient",
					"type": "address"
				},
				{
					"indexed": false,
					"internalType": "uint256",
					"name": "amount0",
					"type": "uint256"
				},
				{
					"indexed": false,
					"internalType": "uint256",
					"name": "amount1",
					"type": "uint256"
				}
			],
			"name": "Flash",
			"type": "event"
		},
		{
			"anonymous": false,
			"inputs": [
				{
					"indexed": false,
					"internalType": "address",
					"name": "sender",
					"type": "address"
				},
				{
					"indexed": true,
					"internalType": "address",
					"name": "owner",
					"type": "address"
				},
				{
					"indexed": true,
					"internalType": "int24",
					"name": "tickLower",
					"type": "int24"
				},
				{
					"indexed": true,
					"internalType": "int24",
					"name": "tickUpper",
					"type": "int24"
				},
				{
					"indexed": false,
					"internalType": "uint128",
					"name": "amount",
					"type": "uint128"
				},
				{
					"indexed": false,
					"internalType": "uint256",
					"name": "amount0",
					"type": "uint256"
				},
				{
					"indexed": false,
					"internalType": "uint256",
					"name": "amount1",
					"type": "uint256"
				}
			],
			"name": "Mint",
			"type": "event"
		},
		{
			"anonymous": false,
			"inputs": [
				{
					"indexed": true,
					"internalType": "address",
					"name": "sender",
					"type": "address"
				},
				{
					"indexed": true,
					"internalType": "address",
					"name": "recipient",
					"type": "address"
				},
				{
					"indexed": false,
					"internalType": "int256",
					"name": "amount0",
					"type": "int256"
				},
				{
					"indexed": false,
					"internalType": "int256",
					"name": "amount1",
					"type": "int256"
				},
				{
					"indexed": false,
					"internalType": "uint160",
					"name": "sqrtPriceX96",
					"type": "uint160"
				},
				{
					"indexed": false,
					"internalType": "uint128",
					"name": "liquidity",
					"type": "uint128"
				},
				{
					"indexed": false,
					"internalType": "int24",
					"name": "tick",
					"type": "int24"
				}
			],
			"name": "Swap",
			"type": "event"
		},
		{
			"inputs": [],
			"name": "factory",
			"outputs": [
				{
					"internalType": "address",
					"name": "",
					"type": "address"
				}
			],
			"stateMutability": "view",
			"type": "function"
		},
		{
			"inputs": [
				{
					"internalType": "uint256",
					"name": "amount0",
					"type": "uint256"
				},
				{
					"internalType": "uint256",
					"name": "amount1",
					"type": "uint256"
				},
				{
					"internalType": "bytes",
					"name": "data",
					"type": "bytes"
				}
			],
			"name": "flash",
			"outputs": [],
			"stateMutability": "nonpayable",
			"type": "function"
		},
		{
			"inputs": [
				{
					"internalType": "uint160",
					"name": "sqrtPriceX96",
					"type": "uint160"
				}
			],
			"name": "initialize",
			"outputs": [],
			"stateMutability": "nonpayable",
			"type": "function"
		},
		{
			"inputs": [],
			"name": "liquidity",
			"outputs": [
				{
					"internalType": "uint128",
					"name": "",
					"type": "uint128"
				}
			],
			"stateMutability": "view",
			"type": "function"
		},
		{
			"inputs": [
				{
					"internalType": "address",
					"name": "owner",
					"type": "address"
				},
				{
					"internalType": "int24",
					"name": "lowerTick",
					"type": "int24"
				},
				{
					"internalType": "int24",
					"name": "upperTick",
					"type": "int24"
				},
				{
					"internalType": "uint128",
					"name": "amount",
					"type": "uint128"
				},
				{
					"internalType": "bytes",
					"name": "data",
					"type": "bytes"
				}
			],
			"name": "mint",
			"outputs": [
				{
					"internalType": "uint256",
					"name": "amount0",
					"type": "uint256"
				},
				{
					"internalType": "uint256",
					"name": "amount1",
					"type": "uint256"
				}
			],
			"stateMutability": "nonpayable",
			"type": "function"
		},
		{
			"inputs": [
				{
					"internalType": "bytes32",
					"name": "",
					"type": "bytes32"
				}
			],
			"name": "positions",
			"outputs": [
				{
					"internalType": "uint128",
					"name": "liquidity",
					"type": "uint128"
				}
			],
			"stateMutability": "view",
			"type": "function"
		},
		{
			"inputs": [],
			"name": "slot0",
			"outputs": [
				{
					"internalType": "uint160",
					"name": "sqrtPriceX96",
					"type": "uint160"
				},
				{
					"internalType": "int24",
					"name": "tick",
					"type": "int24"
				}
			],
			"stateMutability": "view",
			"type": "function"
		},
		{
			"inputs": [
				{
					"internalType": "address",
					"name": "recipient",
					"type": "address"
				},
				{
					"internalType": "bool",
					"name": "zeroForOne",
					"type": "bool"
				},
				{
					"internalType": "uint256",
					"name": "amountSpecified",
					"type": "uint256"
				},
				{
					"internalType": "uint160",
					"name": "sqrtPriceLimitX96",
					"type": "uint160"
				},
				{
					"internalType": "bytes",
					"name": "data",
					"type": "bytes"
				}
			],
			"name": "swap",
			"outputs": [
				{
					"internalType": "int256",
					"name": "amount0",
					"type": "int256"
				},
				{
					"internalType": "int256",
					"name": "amount1",
					"type": "int256"
				}
			],
			"stateMutability": "nonpayable",
			"type": "function"
		},
		{
			"inputs": [
				{
					"internalType": "int16",
					"name": "",
					"type": "int16"
				}
			],
			"name": "tickBitmap",
			"outputs": [
				{
					"internalType": "uint256",
					"name": "",
					"type": "uint256"
				}
			],
			"stateMutability": "view",
			"type": "function"
		},
		{
			"inputs": [],
			"name": "tickSpacing",
			"outputs": [
				{
					"internalType": "uint24",
					"name": "",
					"type": "uint24"
				}
			],
			"stateMutability": "view",
			"type": "function"
		},
		{
			"inputs": [
				{
					"internalType": "int24",
					"name": "",
					"type": "int24"
				}
			],
			"name": "ticks",
			"outputs": [
				{
					"internalType": "bool",
					"name": "initialized",
					"type": "bool"
				},
				{
					"internalType": "uint128",
					"name": "liquidityGross",
					"type": "uint128"
				},
				{
					"internalType": "int128",
					"name": "liquidityNet",
					"type": "int128"
				}
			],
			"stateMutability": "view",
			"type": "function"
		},
		{
			"inputs": [],
			"name": "token0",
			"outputs": [
				{
					"internalType": "address",
					"name": "",
					"type": "address"
				}
			],
			"stateMutability": "view",
			"type": "function"
		},
		{
			"inputs": [],
			"name": "token1",
			"outputs": [
				{
					"internalType": "address",
					"name": "",
					"type": "address"
				}
			],
			"stateMutability": "view",
			"type": "function"
		}
	]
}